{
	"prac71.sol": {
		"OutOfGasDemoPatched": {
			"abi": [
				{
					"inputs": [
						{
							"internalType": "uint256",
							"name": "n",
							"type": "uint256"
						}
					],
					"name": "addMany",
					"outputs": [],
					"stateMutability": "nonpayable",
					"type": "function"
				},
				{
					"inputs": [
						{
							"internalType": "uint256",
							"name": "",
							"type": "uint256"
						}
					],
					"name": "data",
					"outputs": [
						{
							"internalType": "uint256",
							"name": "",
							"type": "uint256"
						}
					],
					"stateMutability": "view",
					"type": "function"
				},
				{
					"inputs": [],
					"name": "getLength",
					"outputs": [
						{
							"internalType": "uint256",
							"name": "",
							"type": "uint256"
						}
					],
					"stateMutability": "view",
					"type": "function"
				},
				{
					"inputs": [
						{
							"internalType": "uint256",
							"name": "start",
							"type": "uint256"
						},
						{
							"internalType": "uint256",
							"name": "batchSize",
							"type": "uint256"
						}
					],
					"name": "safeProcess",
					"outputs": [],
					"stateMutability": "nonpayable",
					"type": "function"
				}
			],
			"devdoc": {
				"kind": "dev",
				"methods": {},
				"version": 1
			},
			"evm": {
				"assembly": "    /* \"prac71.sol\":10931:12196  contract OutOfGasDemoPatched {... */\n  mstore(0x40, 0x80)\n  callvalue\n  dup1\n  iszero\n  tag_1\n  jumpi\n  revert(0x00, 0x00)\ntag_1:\n  pop\n  dataSize(sub_0)\n  dup1\n  dataOffset(sub_0)\n  0x00\n  codecopy\n  0x00\n  return\nstop\n\nsub_0: assembly {\n        /* \"prac71.sol\":10931:12196  contract OutOfGasDemoPatched {... */\n      mstore(0x40, 0x80)\n      callvalue\n      dup1\n      iszero\n      tag_1\n      jumpi\n      revert(0x00, 0x00)\n    tag_1:\n      pop\n      jumpi(tag_2, lt(calldatasize, 0x04))\n      shr(0xe0, calldataload(0x00))\n      dup1\n      0xbe1c766b\n      eq\n      tag_3\n      jumpi\n      dup1\n      0xd03adfc5\n      eq\n      tag_4\n      jumpi\n      dup1\n      0xd4d5e8d5\n      eq\n      tag_5\n      jumpi\n      dup1\n      0xf0ba8440\n      eq\n      tag_6\n      jumpi\n    tag_2:\n      revert(0x00, 0x00)\n        /* \"prac71.sol\":12071:12193  function getLength()... */\n    tag_3:\n      tag_7\n      tag_8\n      jump\t// in\n    tag_7:\n      mload(0x40)\n      tag_9\n      swap2\n      swap1\n      tag_10\n      jump\t// in\n    tag_9:\n      mload(0x40)\n      dup1\n      swap2\n      sub\n      swap1\n      return\n        /* \"prac71.sol\":11541:12063  function safeProcess(... */\n    tag_4:\n      tag_11\n      0x04\n      dup1\n      calldatasize\n      sub\n      dup2\n      add\n      swap1\n      tag_12\n      swap2\n      swap1\n      tag_13\n      jump\t// in\n    tag_12:\n      tag_14\n      jump\t// in\n    tag_11:\n      stop\n        /* \"prac71.sol\":11092:11306  function addMany(uint256 n) external {... */\n    tag_5:\n      tag_15\n      0x04\n      dup1\n      calldatasize\n      sub\n      dup2\n      add\n      swap1\n      tag_16\n      swap2\n      swap1\n      tag_17\n      jump\t// in\n    tag_16:\n      tag_18\n      jump\t// in\n    tag_15:\n      stop\n        /* \"prac71.sol\":10969:10990  uint256[] public data */\n    tag_6:\n      tag_19\n      0x04\n      dup1\n      calldatasize\n      sub\n      dup2\n      add\n      swap1\n      tag_20\n      swap2\n      swap1\n      tag_17\n      jump\t// in\n    tag_20:\n      tag_21\n      jump\t// in\n    tag_19:\n      mload(0x40)\n      tag_22\n      swap2\n      swap1\n      tag_10\n      jump\t// in\n    tag_22:\n      mload(0x40)\n      dup1\n      swap2\n      sub\n      swap1\n      return\n        /* \"prac71.sol\":12071:12193  function getLength()... */\n    tag_8:\n        /* \"prac71.sol\":12142:12149  uint256 */\n      0x00\n        /* \"prac71.sol\":12174:12178  data */\n      0x00\n        /* \"prac71.sol\":12174:12185  data.length */\n      dup1\n      sload\n      swap1\n      pop\n        /* \"prac71.sol\":12167:12185  return data.length */\n      swap1\n      pop\n        /* \"prac71.sol\":12071:12193  function getLength()... */\n      swap1\n      jump\t// out\n        /* \"prac71.sol\":11541:12063  function safeProcess(... */\n    tag_14:\n        /* \"prac71.sol\":11690:11693  100 */\n      0x64\n        /* \"prac71.sol\":11677:11686  batchSize */\n      dup2\n        /* \"prac71.sol\":11677:11693  batchSize <= 100 */\n      gt\n      iszero\n        /* \"prac71.sol\":11655:11736  require(... */\n      tag_25\n      jumpi\n      mload(0x40)\n      0x08c379a000000000000000000000000000000000000000000000000000000000\n      dup2\n      mstore\n      0x04\n      add\n      tag_26\n      swap1\n      tag_27\n      jump\t// in\n    tag_26:\n      mload(0x40)\n      dup1\n      swap2\n      sub\n      swap1\n      revert\n    tag_25:\n        /* \"prac71.sol\":11792:11796  data */\n      0x00\n        /* \"prac71.sol\":11792:11803  data.length */\n      dup1\n      sload\n      swap1\n      pop\n        /* \"prac71.sol\":11779:11788  batchSize */\n      dup2\n        /* \"prac71.sol\":11771:11776  start */\n      dup4\n        /* \"prac71.sol\":11771:11788  start + batchSize */\n      tag_28\n      swap2\n      swap1\n      tag_29\n      jump\t// in\n    tag_28:\n        /* \"prac71.sol\":11771:11803  start + batchSize <= data.length */\n      gt\n      iszero\n        /* \"prac71.sol\":11749:11844  require(... */\n      tag_30\n      jumpi\n      mload(0x40)\n      0x08c379a000000000000000000000000000000000000000000000000000000000\n      dup2\n      mstore\n      0x04\n      add\n      tag_31\n      swap1\n      tag_32\n      jump\t// in\n    tag_31:\n      mload(0x40)\n      dup1\n      swap2\n      sub\n      swap1\n      revert\n    tag_30:\n        /* \"prac71.sol\":11857:11868  uint256 sum */\n      0x00\n        /* \"prac71.sol\":11871:11872  0 */\n      0x00\n        /* \"prac71.sol\":11857:11872  uint256 sum = 0 */\n      swap1\n      pop\n        /* \"prac71.sol\":11904:11913  uint256 i */\n      0x00\n        /* \"prac71.sol\":11916:11921  start */\n      dup4\n        /* \"prac71.sol\":11904:11921  uint256 i = start */\n      swap1\n      pop\n        /* \"prac71.sol\":11885:12056  for (... */\n    tag_33:\n        /* \"prac71.sol\":11948:11957  batchSize */\n      dup3\n        /* \"prac71.sol\":11940:11945  start */\n      dup5\n        /* \"prac71.sol\":11940:11957  start + batchSize */\n      tag_36\n      swap2\n      swap1\n      tag_29\n      jump\t// in\n    tag_36:\n        /* \"prac71.sol\":11936:11937  i */\n      dup2\n        /* \"prac71.sol\":11936:11957  i < start + batchSize */\n      lt\n        /* \"prac71.sol\":11885:12056  for (... */\n      iszero\n      tag_34\n      jumpi\n        /* \"prac71.sol\":12009:12013  data */\n      0x00\n        /* \"prac71.sol\":12014:12015  i */\n      dup2\n        /* \"prac71.sol\":12009:12016  data[i] */\n      dup2\n      sload\n      dup2\n      lt\n      tag_37\n      jumpi\n      tag_38\n      tag_39\n      jump\t// in\n    tag_38:\n    tag_37:\n      swap1\n      0x00\n      mstore\n      keccak256(0x00, 0x20)\n      add\n      sload\n        /* \"prac71.sol\":12002:12016  sum += data[i] */\n      dup3\n      tag_41\n      swap2\n      swap1\n      tag_29\n      jump\t// in\n    tag_41:\n      swap2\n      pop\n        /* \"prac71.sol\":12041:12044  sum */\n      dup2\n        /* \"prac71.sol\":12031:12035  data */\n      0x00\n        /* \"prac71.sol\":12036:12037  i */\n      dup3\n        /* \"prac71.sol\":12031:12038  data[i] */\n      dup2\n      sload\n      dup2\n      lt\n      tag_42\n      jumpi\n      tag_43\n      tag_39\n      jump\t// in\n    tag_43:\n    tag_42:\n      swap1\n      0x00\n      mstore\n      keccak256(0x00, 0x20)\n      add\n        /* \"prac71.sol\":12031:12044  data[i] = sum */\n      dup2\n      swap1\n      sstore\n      pop\n        /* \"prac71.sol\":11972:11975  i++ */\n      dup1\n      dup1\n      0x01\n      add\n      swap2\n      pop\n      pop\n        /* \"prac71.sol\":11885:12056  for (... */\n      jump(tag_33)\n    tag_34:\n      pop\n        /* \"prac71.sol\":11644:12063  {... */\n      pop\n        /* \"prac71.sol\":11541:12063  function safeProcess(... */\n      pop\n      pop\n      jump\t// out\n        /* \"prac71.sol\":11092:11306  function addMany(uint256 n) external {... */\n    tag_18:\n        /* \"prac71.sol\":11169:11172  100 */\n      0x64\n        /* \"prac71.sol\":11164:11165  n */\n      dup2\n        /* \"prac71.sol\":11164:11172  n <= 100 */\n      gt\n      iszero\n        /* \"prac71.sol\":11142:11215  require(... */\n      tag_46\n      jumpi\n      mload(0x40)\n      0x08c379a000000000000000000000000000000000000000000000000000000000\n      dup2\n      mstore\n      0x04\n      add\n      tag_47\n      swap1\n      tag_27\n      jump\t// in\n    tag_47:\n      mload(0x40)\n      dup1\n      swap2\n      sub\n      swap1\n      revert\n    tag_46:\n        /* \"prac71.sol\":11233:11242  uint256 i */\n      0x00\n        /* \"prac71.sol\":11245:11246  0 */\n      0x00\n        /* \"prac71.sol\":11233:11246  uint256 i = 0 */\n      swap1\n      pop\n        /* \"prac71.sol\":11228:11299  for (uint256 i = 0; i < n; i++) {... */\n    tag_48:\n        /* \"prac71.sol\":11252:11253  n */\n      dup2\n        /* \"prac71.sol\":11248:11249  i */\n      dup2\n        /* \"prac71.sol\":11248:11253  i < n */\n      lt\n        /* \"prac71.sol\":11228:11299  for (uint256 i = 0; i < n; i++) {... */\n      iszero\n      tag_49\n      jumpi\n        /* \"prac71.sol\":11275:11279  data */\n      0x00\n        /* \"prac71.sol\":11285:11286  i */\n      dup2\n        /* \"prac71.sol\":11275:11287  data.push(i) */\n      swap1\n      dup1\n      0x01\n      dup2\n      sload\n      add\n      dup1\n      dup3\n      sstore\n      dup1\n      swap2\n      pop\n      pop\n      0x01\n      swap1\n      sub\n      swap1\n      0x00\n      mstore\n      keccak256(0x00, 0x20)\n      add\n      0x00\n      swap1\n      swap2\n      swap1\n      swap2\n      swap1\n      swap2\n      pop\n      sstore\n        /* \"prac71.sol\":11255:11258  i++ */\n      dup1\n      dup1\n      0x01\n      add\n      swap2\n      pop\n      pop\n        /* \"prac71.sol\":11228:11299  for (uint256 i = 0; i < n; i++) {... */\n      jump(tag_48)\n    tag_49:\n      pop\n        /* \"prac71.sol\":11092:11306  function addMany(uint256 n) external {... */\n      pop\n      jump\t// out\n        /* \"prac71.sol\":10969:10990  uint256[] public data */\n    tag_21:\n      0x00\n      dup2\n      dup2\n      sload\n      dup2\n      lt\n      tag_52\n      jumpi\n      0x00\n      dup1\n      revert\n    tag_52:\n      swap1\n      0x00\n      mstore\n      keccak256(0x00, 0x20)\n      add\n      0x00\n      swap2\n      pop\n      swap1\n      pop\n      sload\n      dup2\n      jump\t// out\n        /* \"#utility.yul\":7:84   */\n    tag_54:\n        /* \"#utility.yul\":44:51   */\n      0x00\n        /* \"#utility.yul\":73:78   */\n      dup2\n        /* \"#utility.yul\":62:78   */\n      swap1\n      pop\n        /* \"#utility.yul\":7:84   */\n      swap2\n      swap1\n      pop\n      jump\t// out\n        /* \"#utility.yul\":90:208   */\n    tag_55:\n        /* \"#utility.yul\":177:201   */\n      tag_70\n        /* \"#utility.yul\":195:200   */\n      dup2\n        /* \"#utility.yul\":177:201   */\n      tag_54\n      jump\t// in\n    tag_70:\n        /* \"#utility.yul\":172:175   */\n      dup3\n        /* \"#utility.yul\":165:202   */\n      mstore\n        /* \"#utility.yul\":90:208   */\n      pop\n      pop\n      jump\t// out\n        /* \"#utility.yul\":214:436   */\n    tag_10:\n        /* \"#utility.yul\":307:311   */\n      0x00\n        /* \"#utility.yul\":345:347   */\n      0x20\n        /* \"#utility.yul\":334:343   */\n      dup3\n        /* \"#utility.yul\":330:348   */\n      add\n        /* \"#utility.yul\":322:348   */\n      swap1\n      pop\n        /* \"#utility.yul\":358:429   */\n      tag_72\n        /* \"#utility.yul\":426:427   */\n      0x00\n        /* \"#utility.yul\":415:424   */\n      dup4\n        /* \"#utility.yul\":411:428   */\n      add\n        /* \"#utility.yul\":402:408   */\n      dup5\n        /* \"#utility.yul\":358:429   */\n      tag_55\n      jump\t// in\n    tag_72:\n        /* \"#utility.yul\":214:436   */\n      swap3\n      swap2\n      pop\n      pop\n      jump\t// out\n        /* \"#utility.yul\":523:640   */\n    tag_57:\n        /* \"#utility.yul\":632:633   */\n      0x00\n        /* \"#utility.yul\":629:630   */\n      0x00\n        /* \"#utility.yul\":622:634   */\n      revert\n        /* \"#utility.yul\":769:891   */\n    tag_59:\n        /* \"#utility.yul\":842:866   */\n      tag_77\n        /* \"#utility.yul\":860:865   */\n      dup2\n        /* \"#utility.yul\":842:866   */\n      tag_54\n      jump\t// in\n    tag_77:\n        /* \"#utility.yul\":835:840   */\n      dup2\n        /* \"#utility.yul\":832:867   */\n      eq\n        /* \"#utility.yul\":822:885   */\n      tag_78\n      jumpi\n        /* \"#utility.yul\":881:882   */\n      0x00\n        /* \"#utility.yul\":878:879   */\n      0x00\n        /* \"#utility.yul\":871:883   */\n      revert\n        /* \"#utility.yul\":822:885   */\n    tag_78:\n        /* \"#utility.yul\":769:891   */\n      pop\n      jump\t// out\n        /* \"#utility.yul\":897:1036   */\n    tag_60:\n        /* \"#utility.yul\":943:948   */\n      0x00\n        /* \"#utility.yul\":981:987   */\n      dup2\n        /* \"#utility.yul\":968:988   */\n      calldataload\n        /* \"#utility.yul\":959:988   */\n      swap1\n      pop\n        /* \"#utility.yul\":997:1030   */\n      tag_80\n        /* \"#utility.yul\":1024:1029   */\n      dup2\n        /* \"#utility.yul\":997:1030   */\n      tag_59\n      jump\t// in\n    tag_80:\n        /* \"#utility.yul\":897:1036   */\n      swap3\n      swap2\n      pop\n      pop\n      jump\t// out\n        /* \"#utility.yul\":1042:1516   */\n    tag_13:\n        /* \"#utility.yul\":1110:1116   */\n      0x00\n        /* \"#utility.yul\":1118:1124   */\n      0x00\n        /* \"#utility.yul\":1167:1169   */\n      0x40\n        /* \"#utility.yul\":1155:1164   */\n      dup4\n        /* \"#utility.yul\":1146:1153   */\n      dup6\n        /* \"#utility.yul\":1142:1165   */\n      sub\n        /* \"#utility.yul\":1138:1170   */\n      slt\n        /* \"#utility.yul\":1135:1254   */\n      iszero\n      tag_82\n      jumpi\n        /* \"#utility.yul\":1173:1252   */\n      tag_83\n      tag_57\n      jump\t// in\n    tag_83:\n        /* \"#utility.yul\":1135:1254   */\n    tag_82:\n        /* \"#utility.yul\":1293:1294   */\n      0x00\n        /* \"#utility.yul\":1318:1371   */\n      tag_84\n        /* \"#utility.yul\":1363:1370   */\n      dup6\n        /* \"#utility.yul\":1354:1360   */\n      dup3\n        /* \"#utility.yul\":1343:1352   */\n      dup7\n        /* \"#utility.yul\":1339:1361   */\n      add\n        /* \"#utility.yul\":1318:1371   */\n      tag_60\n      jump\t// in\n    tag_84:\n        /* \"#utility.yul\":1308:1371   */\n      swap3\n      pop\n        /* \"#utility.yul\":1264:1381   */\n      pop\n        /* \"#utility.yul\":1420:1422   */\n      0x20\n        /* \"#utility.yul\":1446:1499   */\n      tag_85\n        /* \"#utility.yul\":1491:1498   */\n      dup6\n        /* \"#utility.yul\":1482:1488   */\n      dup3\n        /* \"#utility.yul\":1471:1480   */\n      dup7\n        /* \"#utility.yul\":1467:1489   */\n      add\n        /* \"#utility.yul\":1446:1499   */\n      tag_60\n      jump\t// in\n    tag_85:\n        /* \"#utility.yul\":1436:1499   */\n      swap2\n      pop\n        /* \"#utility.yul\":1391:1509   */\n      pop\n        /* \"#utility.yul\":1042:1516   */\n      swap3\n      pop\n      swap3\n      swap1\n      pop\n      jump\t// out\n        /* \"#utility.yul\":1522:1851   */\n    tag_17:\n        /* \"#utility.yul\":1581:1587   */\n      0x00\n        /* \"#utility.yul\":1630:1632   */\n      0x20\n        /* \"#utility.yul\":1618:1627   */\n      dup3\n        /* \"#utility.yul\":1609:1616   */\n      dup5\n        /* \"#utility.yul\":1605:1628   */\n      sub\n        /* \"#utility.yul\":1601:1633   */\n      slt\n        /* \"#utility.yul\":1598:1717   */\n      iszero\n      tag_87\n      jumpi\n        /* \"#utility.yul\":1636:1715   */\n      tag_88\n      tag_57\n      jump\t// in\n    tag_88:\n        /* \"#utility.yul\":1598:1717   */\n    tag_87:\n        /* \"#utility.yul\":1756:1757   */\n      0x00\n        /* \"#utility.yul\":1781:1834   */\n      tag_89\n        /* \"#utility.yul\":1826:1833   */\n      dup5\n        /* \"#utility.yul\":1817:1823   */\n      dup3\n        /* \"#utility.yul\":1806:1815   */\n      dup6\n        /* \"#utility.yul\":1802:1824   */\n      add\n        /* \"#utility.yul\":1781:1834   */\n      tag_60\n      jump\t// in\n    tag_89:\n        /* \"#utility.yul\":1771:1834   */\n      swap2\n      pop\n        /* \"#utility.yul\":1727:1844   */\n      pop\n        /* \"#utility.yul\":1522:1851   */\n      swap3\n      swap2\n      pop\n      pop\n      jump\t// out\n        /* \"#utility.yul\":1857:2026   */\n    tag_61:\n        /* \"#utility.yul\":1941:1952   */\n      0x00\n        /* \"#utility.yul\":1975:1981   */\n      dup3\n        /* \"#utility.yul\":1970:1973   */\n      dup3\n        /* \"#utility.yul\":1963:1982   */\n      mstore\n        /* \"#utility.yul\":2015:2019   */\n      0x20\n        /* \"#utility.yul\":2010:2013   */\n      dup3\n        /* \"#utility.yul\":2006:2020   */\n      add\n        /* \"#utility.yul\":1991:2020   */\n      swap1\n      pop\n        /* \"#utility.yul\":1857:2026   */\n      swap3\n      swap2\n      pop\n      pop\n      jump\t// out\n        /* \"#utility.yul\":2032:2197   */\n    tag_62:\n        /* \"#utility.yul\":2172:2189   */\n      0x426174636820746f6f206c617267650000000000000000000000000000000000\n        /* \"#utility.yul\":2168:2169   */\n      0x00\n        /* \"#utility.yul\":2160:2166   */\n      dup3\n        /* \"#utility.yul\":2156:2170   */\n      add\n        /* \"#utility.yul\":2149:2190   */\n      mstore\n        /* \"#utility.yul\":2032:2197   */\n      pop\n      jump\t// out\n        /* \"#utility.yul\":2203:2569   */\n    tag_63:\n        /* \"#utility.yul\":2345:2348   */\n      0x00\n        /* \"#utility.yul\":2366:2433   */\n      tag_93\n        /* \"#utility.yul\":2430:2432   */\n      0x0f\n        /* \"#utility.yul\":2425:2428   */\n      dup4\n        /* \"#utility.yul\":2366:2433   */\n      tag_61\n      jump\t// in\n    tag_93:\n        /* \"#utility.yul\":2359:2433   */\n      swap2\n      pop\n        /* \"#utility.yul\":2442:2535   */\n      tag_94\n        /* \"#utility.yul\":2531:2534   */\n      dup3\n        /* \"#utility.yul\":2442:2535   */\n      tag_62\n      jump\t// in\n    tag_94:\n        /* \"#utility.yul\":2560:2562   */\n      0x20\n        /* \"#utility.yul\":2555:2558   */\n      dup3\n        /* \"#utility.yul\":2551:2563   */\n      add\n        /* \"#utility.yul\":2544:2563   */\n      swap1\n      pop\n        /* \"#utility.yul\":2203:2569   */\n      swap2\n      swap1\n      pop\n      jump\t// out\n        /* \"#utility.yul\":2575:2994   */\n    tag_27:\n        /* \"#utility.yul\":2741:2745   */\n      0x00\n        /* \"#utility.yul\":2779:2781   */\n      0x20\n        /* \"#utility.yul\":2768:2777   */\n      dup3\n        /* \"#utility.yul\":2764:2782   */\n      add\n        /* \"#utility.yul\":2756:2782   */\n      swap1\n      pop\n        /* \"#utility.yul\":2828:2837   */\n      dup2\n        /* \"#utility.yul\":2822:2826   */\n      dup2\n        /* \"#utility.yul\":2818:2838   */\n      sub\n        /* \"#utility.yul\":2814:2815   */\n      0x00\n        /* \"#utility.yul\":2803:2812   */\n      dup4\n        /* \"#utility.yul\":2799:2816   */\n      add\n        /* \"#utility.yul\":2792:2839   */\n      mstore\n        /* \"#utility.yul\":2856:2987   */\n      tag_96\n        /* \"#utility.yul\":2982:2986   */\n      dup2\n        /* \"#utility.yul\":2856:2987   */\n      tag_63\n      jump\t// in\n    tag_96:\n        /* \"#utility.yul\":2848:2987   */\n      swap1\n      pop\n        /* \"#utility.yul\":2575:2994   */\n      swap2\n      swap1\n      pop\n      jump\t// out\n        /* \"#utility.yul\":3000:3180   */\n    tag_64:\n        /* \"#utility.yul\":3048:3125   */\n      0x4e487b7100000000000000000000000000000000000000000000000000000000\n        /* \"#utility.yul\":3045:3046   */\n      0x00\n        /* \"#utility.yul\":3038:3126   */\n      mstore\n        /* \"#utility.yul\":3145:3149   */\n      0x11\n        /* \"#utility.yul\":3142:3143   */\n      0x04\n        /* \"#utility.yul\":3135:3150   */\n      mstore\n        /* \"#utility.yul\":3169:3173   */\n      0x24\n        /* \"#utility.yul\":3166:3167   */\n      0x00\n        /* \"#utility.yul\":3159:3174   */\n      revert\n        /* \"#utility.yul\":3186:3377   */\n    tag_29:\n        /* \"#utility.yul\":3226:3229   */\n      0x00\n        /* \"#utility.yul\":3245:3265   */\n      tag_99\n        /* \"#utility.yul\":3263:3264   */\n      dup3\n        /* \"#utility.yul\":3245:3265   */\n      tag_54\n      jump\t// in\n    tag_99:\n        /* \"#utility.yul\":3240:3265   */\n      swap2\n      pop\n        /* \"#utility.yul\":3279:3299   */\n      tag_100\n        /* \"#utility.yul\":3297:3298   */\n      dup4\n        /* \"#utility.yul\":3279:3299   */\n      tag_54\n      jump\t// in\n    tag_100:\n        /* \"#utility.yul\":3274:3299   */\n      swap3\n      pop\n        /* \"#utility.yul\":3322:3323   */\n      dup3\n        /* \"#utility.yul\":3319:3320   */\n      dup3\n        /* \"#utility.yul\":3315:3324   */\n      add\n        /* \"#utility.yul\":3308:3324   */\n      swap1\n      pop\n        /* \"#utility.yul\":3343:3346   */\n      dup1\n        /* \"#utility.yul\":3340:3341   */\n      dup3\n        /* \"#utility.yul\":3337:3347   */\n      gt\n        /* \"#utility.yul\":3334:3370   */\n      iszero\n      tag_101\n      jumpi\n        /* \"#utility.yul\":3350:3368   */\n      tag_102\n      tag_64\n      jump\t// in\n    tag_102:\n        /* \"#utility.yul\":3334:3370   */\n    tag_101:\n        /* \"#utility.yul\":3186:3377   */\n      swap3\n      swap2\n      pop\n      pop\n      jump\t// out\n        /* \"#utility.yul\":3383:3546   */\n    tag_65:\n        /* \"#utility.yul\":3523:3538   */\n      0x4f7574206f6620626f756e647300000000000000000000000000000000000000\n        /* \"#utility.yul\":3519:3520   */\n      0x00\n        /* \"#utility.yul\":3511:3517   */\n      dup3\n        /* \"#utility.yul\":3507:3521   */\n      add\n        /* \"#utility.yul\":3500:3539   */\n      mstore\n        /* \"#utility.yul\":3383:3546   */\n      pop\n      jump\t// out\n        /* \"#utility.yul\":3552:3918   */\n    tag_66:\n        /* \"#utility.yul\":3694:3697   */\n      0x00\n        /* \"#utility.yul\":3715:3782   */\n      tag_105\n        /* \"#utility.yul\":3779:3781   */\n      0x0d\n        /* \"#utility.yul\":3774:3777   */\n      dup4\n        /* \"#utility.yul\":3715:3782   */\n      tag_61\n      jump\t// in\n    tag_105:\n        /* \"#utility.yul\":3708:3782   */\n      swap2\n      pop\n        /* \"#utility.yul\":3791:3884   */\n      tag_106\n        /* \"#utility.yul\":3880:3883   */\n      dup3\n        /* \"#utility.yul\":3791:3884   */\n      tag_65\n      jump\t// in\n    tag_106:\n        /* \"#utility.yul\":3909:3911   */\n      0x20\n        /* \"#utility.yul\":3904:3907   */\n      dup3\n        /* \"#utility.yul\":3900:3912   */\n      add\n        /* \"#utility.yul\":3893:3912   */\n      swap1\n      pop\n        /* \"#utility.yul\":3552:3918   */\n      swap2\n      swap1\n      pop\n      jump\t// out\n        /* \"#utility.yul\":3924:4343   */\n    tag_32:\n        /* \"#utility.yul\":4090:4094   */\n      0x00\n        /* \"#utility.yul\":4128:4130   */\n      0x20\n        /* \"#utility.yul\":4117:4126   */\n      dup3\n        /* \"#utility.yul\":4113:4131   */\n      add\n        /* \"#utility.yul\":4105:4131   */\n      swap1\n      pop\n        /* \"#utility.yul\":4177:4186   */\n      dup2\n        /* \"#utility.yul\":4171:4175   */\n      dup2\n        /* \"#utility.yul\":4167:4187   */\n      sub\n        /* \"#utility.yul\":4163:4164   */\n      0x00\n        /* \"#utility.yul\":4152:4161   */\n      dup4\n        /* \"#utility.yul\":4148:4165   */\n      add\n        /* \"#utility.yul\":4141:4188   */\n      mstore\n        /* \"#utility.yul\":4205:4336   */\n      tag_108\n        /* \"#utility.yul\":4331:4335   */\n      dup2\n        /* \"#utility.yul\":4205:4336   */\n      tag_66\n      jump\t// in\n    tag_108:\n        /* \"#utility.yul\":4197:4336   */\n      swap1\n      pop\n        /* \"#utility.yul\":3924:4343   */\n      swap2\n      swap1\n      pop\n      jump\t// out\n        /* \"#utility.yul\":4349:4529   */\n    tag_39:\n        /* \"#utility.yul\":4397:4474   */\n      0x4e487b7100000000000000000000000000000000000000000000000000000000\n        /* \"#utility.yul\":4394:4395   */\n      0x00\n        /* \"#utility.yul\":4387:4475   */\n      mstore\n        /* \"#utility.yul\":4494:4498   */\n      0x32\n        /* \"#utility.yul\":4491:4492   */\n      0x04\n        /* \"#utility.yul\":4484:4499   */\n      mstore\n        /* \"#utility.yul\":4518:4522   */\n      0x24\n        /* \"#utility.yul\":4515:4516   */\n      0x00\n        /* \"#utility.yul\":4508:4523   */\n      revert\n\n    auxdata: 0xa264697066735822122089a0f76b622a90c1e4d2f30d1a804b9b01123d167e436fa6ee12000d141926a264736f6c63430008220033\n}\n",
				"bytecode": {
					"linkReferences": {},
					"object": "6080604052348015600e575f5ffd5b506104fe8061001c5f395ff3fe608060405234801561000f575f5ffd5b506004361061004a575f3560e01c8063be1c766b1461004e578063d03adfc51461006c578063d4d5e8d514610088578063f0ba8440146100a4575b5f5ffd5b6100566100d4565b60405161006391906102ab565b60405180910390f35b610086600480360381019061008191906102f2565b6100df565b005b6100a2600480360381019061009d9190610330565b6101ed565b005b6100be60048036038101906100b99190610330565b610274565b6040516100cb91906102ab565b60405180910390f35b5f5f80549050905090565b6064811115610123576040517f08c379a000000000000000000000000000000000000000000000000000000000815260040161011a906103b5565b60405180910390fd5b5f8054905081836101349190610400565b1115610175576040517f08c379a000000000000000000000000000000000000000000000000000000000815260040161016c9061047d565b60405180910390fd5b5f5f90505f8390505b828461018a9190610400565b8110156101e7575f81815481106101a4576101a361049b565b5b905f5260205f200154826101b89190610400565b9150815f82815481106101ce576101cd61049b565b5b905f5260205f200181905550808060010191505061017e565b50505050565b6064811115610231576040517f08c379a0000000000000000000000000000000000000000000000000000000008152600401610228906103b5565b60405180910390fd5b5f5f90505b81811015610270575f81908060018154018082558091505060019003905f5260205f20015f90919091909150558080600101915050610236565b5050565b5f8181548110610282575f80fd5b905f5260205f20015f915090505481565b5f819050919050565b6102a581610293565b82525050565b5f6020820190506102be5f83018461029c565b92915050565b5f5ffd5b6102d181610293565b81146102db575f5ffd5b50565b5f813590506102ec816102c8565b92915050565b5f5f60408385031215610308576103076102c4565b5b5f610315858286016102de565b9250506020610326858286016102de565b9150509250929050565b5f60208284031215610345576103446102c4565b5b5f610352848285016102de565b91505092915050565b5f82825260208201905092915050565b7f426174636820746f6f206c6172676500000000000000000000000000000000005f82015250565b5f61039f600f8361035b565b91506103aa8261036b565b602082019050919050565b5f6020820190508181035f8301526103cc81610393565b9050919050565b7f4e487b71000000000000000000000000000000000000000000000000000000005f52601160045260245ffd5b5f61040a82610293565b915061041583610293565b925082820190508082111561042d5761042c6103d3565b5b92915050565b7f4f7574206f6620626f756e6473000000000000000000000000000000000000005f82015250565b5f610467600d8361035b565b915061047282610433565b602082019050919050565b5f6020820190508181035f8301526104948161045b565b9050919050565b7f4e487b71000000000000000000000000000000000000000000000000000000005f52603260045260245ffdfea264697066735822122089a0f76b622a90c1e4d2f30d1a804b9b01123d167e436fa6ee12000d141926a264736f6c63430008220033",
					"opcodes": "PUSH1 0x80 PUSH1 0x40 MSTORE CALLVALUE DUP1 ISZERO PUSH1 0xE JUMPI PUSH0 PUSH0 REVERT JUMPDEST POP PUSH2 0x4FE DUP1 PUSH2 0x1C PUSH0 CODECOPY PUSH0 RETURN INVALID PUSH1 0x80 PUSH1 0x40 MSTORE CALLVALUE DUP1 ISZERO PUSH2 0xF JUMPI PUSH0 PUSH0 REVERT JUMPDEST POP PUSH1 0x4 CALLDATASIZE LT PUSH2 0x4A JUMPI PUSH0 CALLDATALOAD PUSH1 0xE0 SHR DUP1 PUSH4 0xBE1C766B EQ PUSH2 0x4E JUMPI DUP1 PUSH4 0xD03ADFC5 EQ PUSH2 0x6C JUMPI DUP1 PUSH4 0xD4D5E8D5 EQ PUSH2 0x88 JUMPI DUP1 PUSH4 0xF0BA8440 EQ PUSH2 0xA4 JUMPI JUMPDEST PUSH0 PUSH0 REVERT JUMPDEST PUSH2 0x56 PUSH2 0xD4 JUMP JUMPDEST PUSH1 0x40 MLOAD PUSH2 0x63 SWAP2 SWAP1 PUSH2 0x2AB JUMP JUMPDEST PUSH1 0x40 MLOAD DUP1 SWAP2 SUB SWAP1 RETURN JUMPDEST PUSH2 0x86 PUSH1 0x4 DUP1 CALLDATASIZE SUB DUP2 ADD SWAP1 PUSH2 0x81 SWAP2 SWAP1 PUSH2 0x2F2 JUMP JUMPDEST PUSH2 0xDF JUMP JUMPDEST STOP JUMPDEST PUSH2 0xA2 PUSH1 0x4 DUP1 CALLDATASIZE SUB DUP2 ADD SWAP1 PUSH2 0x9D SWAP2 SWAP1 PUSH2 0x330 JUMP JUMPDEST PUSH2 0x1ED JUMP JUMPDEST STOP JUMPDEST PUSH2 0xBE PUSH1 0x4 DUP1 CALLDATASIZE SUB DUP2 ADD SWAP1 PUSH2 0xB9 SWAP2 SWAP1 PUSH2 0x330 JUMP JUMPDEST PUSH2 0x274 JUMP JUMPDEST PUSH1 0x40 MLOAD PUSH2 0xCB SWAP2 SWAP1 PUSH2 0x2AB JUMP JUMPDEST PUSH1 0x40 MLOAD DUP1 SWAP2 SUB SWAP1 RETURN JUMPDEST PUSH0 PUSH0 DUP1 SLOAD SWAP1 POP SWAP1 POP SWAP1 JUMP JUMPDEST PUSH1 0x64 DUP2 GT ISZERO PUSH2 0x123 JUMPI PUSH1 0x40 MLOAD PUSH32 0x8C379A000000000000000000000000000000000000000000000000000000000 DUP2 MSTORE PUSH1 0x4 ADD PUSH2 0x11A SWAP1 PUSH2 0x3B5 JUMP JUMPDEST PUSH1 0x40 MLOAD DUP1 SWAP2 SUB SWAP1 REVERT JUMPDEST PUSH0 DUP1 SLOAD SWAP1 POP DUP2 DUP4 PUSH2 0x134 SWAP2 SWAP1 PUSH2 0x400 JUMP JUMPDEST GT ISZERO PUSH2 0x175 JUMPI PUSH1 0x40 MLOAD PUSH32 0x8C379A000000000000000000000000000000000000000000000000000000000 DUP2 MSTORE PUSH1 0x4 ADD PUSH2 0x16C SWAP1 PUSH2 0x47D JUMP JUMPDEST PUSH1 0x40 MLOAD DUP1 SWAP2 SUB SWAP1 REVERT JUMPDEST PUSH0 PUSH0 SWAP1 POP PUSH0 DUP4 SWAP1 POP JUMPDEST DUP3 DUP5 PUSH2 0x18A SWAP2 SWAP1 PUSH2 0x400 JUMP JUMPDEST DUP2 LT ISZERO PUSH2 0x1E7 JUMPI PUSH0 DUP2 DUP2 SLOAD DUP2 LT PUSH2 0x1A4 JUMPI PUSH2 0x1A3 PUSH2 0x49B JUMP JUMPDEST JUMPDEST SWAP1 PUSH0 MSTORE PUSH1 0x20 PUSH0 KECCAK256 ADD SLOAD DUP3 PUSH2 0x1B8 SWAP2 SWAP1 PUSH2 0x400 JUMP JUMPDEST SWAP2 POP DUP2 PUSH0 DUP3 DUP2 SLOAD DUP2 LT PUSH2 0x1CE JUMPI PUSH2 0x1CD PUSH2 0x49B JUMP JUMPDEST JUMPDEST SWAP1 PUSH0 MSTORE PUSH1 0x20 PUSH0 KECCAK256 ADD DUP2 SWAP1 SSTORE POP DUP1 DUP1 PUSH1 0x1 ADD SWAP2 POP POP PUSH2 0x17E JUMP JUMPDEST POP POP POP POP JUMP JUMPDEST PUSH1 0x64 DUP2 GT ISZERO PUSH2 0x231 JUMPI PUSH1 0x40 MLOAD PUSH32 0x8C379A000000000000000000000000000000000000000000000000000000000 DUP2 MSTORE PUSH1 0x4 ADD PUSH2 0x228 SWAP1 PUSH2 0x3B5 JUMP JUMPDEST PUSH1 0x40 MLOAD DUP1 SWAP2 SUB SWAP1 REVERT JUMPDEST PUSH0 PUSH0 SWAP1 POP JUMPDEST DUP2 DUP2 LT ISZERO PUSH2 0x270 JUMPI PUSH0 DUP2 SWAP1 DUP1 PUSH1 0x1 DUP2 SLOAD ADD DUP1 DUP3 SSTORE DUP1 SWAP2 POP POP PUSH1 0x1 SWAP1 SUB SWAP1 PUSH0 MSTORE PUSH1 0x20 PUSH0 KECCAK256 ADD PUSH0 SWAP1 SWAP2 SWAP1 SWAP2 SWAP1 SWAP2 POP SSTORE DUP1 DUP1 PUSH1 0x1 ADD SWAP2 POP POP PUSH2 0x236 JUMP JUMPDEST POP POP JUMP JUMPDEST PUSH0 DUP2 DUP2 SLOAD DUP2 LT PUSH2 0x282 JUMPI PUSH0 DUP1 REVERT JUMPDEST SWAP1 PUSH0 MSTORE PUSH1 0x20 PUSH0 KECCAK256 ADD PUSH0 SWAP2 POP SWAP1 POP SLOAD DUP2 JUMP JUMPDEST PUSH0 DUP2 SWAP1 POP SWAP2 SWAP1 POP JUMP JUMPDEST PUSH2 0x2A5 DUP2 PUSH2 0x293 JUMP JUMPDEST DUP3 MSTORE POP POP JUMP JUMPDEST PUSH0 PUSH1 0x20 DUP3 ADD SWAP1 POP PUSH2 0x2BE PUSH0 DUP4 ADD DUP5 PUSH2 0x29C JUMP JUMPDEST SWAP3 SWAP2 POP POP JUMP JUMPDEST PUSH0 PUSH0 REVERT JUMPDEST PUSH2 0x2D1 DUP2 PUSH2 0x293 JUMP JUMPDEST DUP2 EQ PUSH2 0x2DB JUMPI PUSH0 PUSH0 REVERT JUMPDEST POP JUMP JUMPDEST PUSH0 DUP2 CALLDATALOAD SWAP1 POP PUSH2 0x2EC DUP2 PUSH2 0x2C8 JUMP JUMPDEST SWAP3 SWAP2 POP POP JUMP JUMPDEST PUSH0 PUSH0 PUSH1 0x40 DUP4 DUP6 SUB SLT ISZERO PUSH2 0x308 JUMPI PUSH2 0x307 PUSH2 0x2C4 JUMP JUMPDEST JUMPDEST PUSH0 PUSH2 0x315 DUP6 DUP3 DUP7 ADD PUSH2 0x2DE JUMP JUMPDEST SWAP3 POP POP PUSH1 0x20 PUSH2 0x326 DUP6 DUP3 DUP7 ADD PUSH2 0x2DE JUMP JUMPDEST SWAP2 POP POP SWAP3 POP SWAP3 SWAP1 POP JUMP JUMPDEST PUSH0 PUSH1 0x20 DUP3 DUP5 SUB SLT ISZERO PUSH2 0x345 JUMPI PUSH2 0x344 PUSH2 0x2C4 JUMP JUMPDEST JUMPDEST PUSH0 PUSH2 0x352 DUP5 DUP3 DUP6 ADD PUSH2 0x2DE JUMP JUMPDEST SWAP2 POP POP SWAP3 SWAP2 POP POP JUMP JUMPDEST PUSH0 DUP3 DUP3 MSTORE PUSH1 0x20 DUP3 ADD SWAP1 POP SWAP3 SWAP2 POP POP JUMP JUMPDEST PUSH32 0x426174636820746F6F206C617267650000000000000000000000000000000000 PUSH0 DUP3 ADD MSTORE POP JUMP JUMPDEST PUSH0 PUSH2 0x39F PUSH1 0xF DUP4 PUSH2 0x35B JUMP JUMPDEST SWAP2 POP PUSH2 0x3AA DUP3 PUSH2 0x36B JUMP JUMPDEST PUSH1 0x20 DUP3 ADD SWAP1 POP SWAP2 SWAP1 POP JUMP JUMPDEST PUSH0 PUSH1 0x20 DUP3 ADD SWAP1 POP DUP2 DUP2 SUB PUSH0 DUP4 ADD MSTORE PUSH2 0x3CC DUP2 PUSH2 0x393 JUMP JUMPDEST SWAP1 POP SWAP2 SWAP1 POP JUMP JUMPDEST PUSH32 0x4E487B7100000000000000000000000000000000000000000000000000000000 PUSH0 MSTORE PUSH1 0x11 PUSH1 0x4 MSTORE PUSH1 0x24 PUSH0 REVERT JUMPDEST PUSH0 PUSH2 0x40A DUP3 PUSH2 0x293 JUMP JUMPDEST SWAP2 POP PUSH2 0x415 DUP4 PUSH2 0x293 JUMP JUMPDEST SWAP3 POP DUP3 DUP3 ADD SWAP1 POP DUP1 DUP3 GT ISZERO PUSH2 0x42D JUMPI PUSH2 0x42C PUSH2 0x3D3 JUMP JUMPDEST JUMPDEST SWAP3 SWAP2 POP POP JUMP JUMPDEST PUSH32 0x4F7574206F6620626F756E647300000000000000000000000000000000000000 PUSH0 DUP3 ADD MSTORE POP JUMP JUMPDEST PUSH0 PUSH2 0x467 PUSH1 0xD DUP4 PUSH2 0x35B JUMP JUMPDEST SWAP2 POP PUSH2 0x472 DUP3 PUSH2 0x433 JUMP JUMPDEST PUSH1 0x20 DUP3 ADD SWAP1 POP SWAP2 SWAP1 POP JUMP JUMPDEST PUSH0 PUSH1 0x20 DUP3 ADD SWAP1 POP DUP2 DUP2 SUB PUSH0 DUP4 ADD MSTORE PUSH2 0x494 DUP2 PUSH2 0x45B JUMP JUMPDEST SWAP1 POP SWAP2 SWAP1 POP JUMP JUMPDEST PUSH32 0x4E487B7100000000000000000000000000000000000000000000000000000000 PUSH0 MSTORE PUSH1 0x32 PUSH1 0x4 MSTORE PUSH1 0x24 PUSH0 REVERT INVALID LOG2 PUSH5 0x6970667358 0x22 SLT KECCAK256 DUP10 LOG0 0xF7 PUSH12 0x622A90C1E4D2F30D1A804B9B ADD SLT RETURNDATASIZE AND PUSH31 0x436FA6EE12000D141926A264736F6C63430008220033000000000000000000 "
				},
				"gasEstimates": {
					"creation": {
						"codeDepositCost": "255600",
						"executionCost": "292",
						"totalCost": "255892"
					},
					"external": {
						"addMany(uint256)": "infinite",
						"data(uint256)": "infinite",
						"getLength()": "2417",
						"safeProcess(uint256,uint256)": "infinite"
					}
				},
				"methodIdentifiers": {
					"addMany(uint256)": "d4d5e8d5",
					"data(uint256)": "f0ba8440",
					"getLength()": "be1c766b",
					"safeProcess(uint256,uint256)": "d03adfc5"
				}
			},
			"storageLayout": {
				"storage": [
					{
						"astId": 74,
						"contract": "prac71.sol:OutOfGasDemoPatched",
						"label": "data",
						"offset": 0,
						"slot": "0",
						"type": "t_array(t_uint256)dyn_storage"
					}
				],
				"types": {
					"t_array(t_uint256)dyn_storage": {
						"base": "t_uint256",
						"encoding": "dynamic_array",
						"label": "uint256[]",
						"numberOfBytes": "32"
					},
					"t_uint256": {
						"encoding": "inplace",
						"label": "uint256",
						"numberOfBytes": "32"
					}
				}
			},
			"userdoc": {
				"kind": "user",
				"methods": {},
				"version": 1
			}
		}
	}
}