{
	"prac71.sol": {
		"OutOfGasDemoVul": {
			"abi": [
				{
					"inputs": [
						{
							"internalType": "uint256",
							"name": "n",
							"type": "uint256"
						}
					],
					"name": "addMany",
					"outputs": [],
					"stateMutability": "nonpayable",
					"type": "function"
				},
				{
					"inputs": [],
					"name": "dangerousLoop",
					"outputs": [],
					"stateMutability": "nonpayable",
					"type": "function"
				},
				{
					"inputs": [
						{
							"internalType": "uint256",
							"name": "",
							"type": "uint256"
						}
					],
					"name": "data",
					"outputs": [
						{
							"internalType": "uint256",
							"name": "",
							"type": "uint256"
						}
					],
					"stateMutability": "view",
					"type": "function"
				},
				{
					"inputs": [],
					"name": "getLength",
					"outputs": [
						{
							"internalType": "uint256",
							"name": "",
							"type": "uint256"
						}
					],
					"stateMutability": "view",
					"type": "function"
				}
			],
			"devdoc": {
				"kind": "dev",
				"methods": {},
				"version": 1
			},
			"evm": {
				"assembly": "    /* \"prac71.sol\":1919:2813  contract OutOfGasDemoVul {... */\n  mstore(0x40, 0x80)\n  callvalue\n  dup1\n  iszero\n  tag_1\n  jumpi\n  revert(0x00, 0x00)\ntag_1:\n  pop\n  dataSize(sub_0)\n  dup1\n  dataOffset(sub_0)\n  0x00\n  codecopy\n  0x00\n  return\nstop\n\nsub_0: assembly {\n        /* \"prac71.sol\":1919:2813  contract OutOfGasDemoVul {... */\n      mstore(0x40, 0x80)\n      callvalue\n      dup1\n      iszero\n      tag_1\n      jumpi\n      revert(0x00, 0x00)\n    tag_1:\n      pop\n      jumpi(tag_2, lt(calldatasize, 0x04))\n      shr(0xe0, calldataload(0x00))\n      dup1\n      0x62a5f171\n      eq\n      tag_3\n      jumpi\n      dup1\n      0xbe1c766b\n      eq\n      tag_4\n      jumpi\n      dup1\n      0xd4d5e8d5\n      eq\n      tag_5\n      jumpi\n      dup1\n      0xf0ba8440\n      eq\n      tag_6\n      jumpi\n    tag_2:\n      revert(0x00, 0x00)\n        /* \"prac71.sol\":2487:2680  function dangerousLoop() external {... */\n    tag_3:\n      tag_7\n      tag_8\n      jump\t// in\n    tag_7:\n      stop\n        /* \"prac71.sol\":2688:2810  function getLength()... */\n    tag_4:\n      tag_9\n      tag_10\n      jump\t// in\n    tag_9:\n      mload(0x40)\n      tag_11\n      swap2\n      swap1\n      tag_12\n      jump\t// in\n    tag_11:\n      mload(0x40)\n      dup1\n      swap2\n      sub\n      swap1\n      return\n        /* \"prac71.sol\":2048:2174  function addMany(uint256 n) external {... */\n    tag_5:\n      tag_13\n      0x04\n      dup1\n      calldatasize\n      sub\n      dup2\n      add\n      swap1\n      tag_14\n      swap2\n      swap1\n      tag_15\n      jump\t// in\n    tag_14:\n      tag_16\n      jump\t// in\n    tag_13:\n      stop\n        /* \"prac71.sol\":1953:1974  uint256[] public data */\n    tag_6:\n      tag_17\n      0x04\n      dup1\n      calldatasize\n      sub\n      dup2\n      add\n      swap1\n      tag_18\n      swap2\n      swap1\n      tag_15\n      jump\t// in\n    tag_18:\n      tag_19\n      jump\t// in\n    tag_17:\n      mload(0x40)\n      tag_20\n      swap2\n      swap1\n      tag_12\n      jump\t// in\n    tag_20:\n      mload(0x40)\n      dup1\n      swap2\n      sub\n      swap1\n      return\n        /* \"prac71.sol\":2487:2680  function dangerousLoop() external {... */\n    tag_8:\n        /* \"prac71.sol\":2534:2545  uint256 sum */\n      0x00\n        /* \"prac71.sol\":2548:2549  0 */\n      0x00\n        /* \"prac71.sol\":2534:2549  uint256 sum = 0 */\n      swap1\n      pop\n        /* \"prac71.sol\":2567:2576  uint256 i */\n      0x00\n        /* \"prac71.sol\":2579:2580  0 */\n      0x00\n        /* \"prac71.sol\":2567:2580  uint256 i = 0 */\n      swap1\n      pop\n        /* \"prac71.sol\":2562:2673  for (uint256 i = 0; i < data.length; i++) {... */\n    tag_22:\n        /* \"prac71.sol\":2586:2590  data */\n      0x00\n        /* \"prac71.sol\":2586:2597  data.length */\n      dup1\n      sload\n      swap1\n      pop\n        /* \"prac71.sol\":2582:2583  i */\n      dup2\n        /* \"prac71.sol\":2582:2597  i < data.length */\n      lt\n        /* \"prac71.sol\":2562:2673  for (uint256 i = 0; i < data.length; i++) {... */\n      iszero\n      tag_23\n      jumpi\n        /* \"prac71.sol\":2626:2630  data */\n      0x00\n        /* \"prac71.sol\":2631:2632  i */\n      dup2\n        /* \"prac71.sol\":2626:2633  data[i] */\n      dup2\n      sload\n      dup2\n      lt\n      tag_25\n      jumpi\n      tag_26\n      tag_27\n      jump\t// in\n    tag_26:\n    tag_25:\n      swap1\n      0x00\n      mstore\n      keccak256(0x00, 0x20)\n      add\n      sload\n        /* \"prac71.sol\":2619:2633  sum += data[i] */\n      dup3\n      tag_29\n      swap2\n      swap1\n      tag_30\n      jump\t// in\n    tag_29:\n      swap2\n      pop\n        /* \"prac71.sol\":2658:2661  sum */\n      dup2\n        /* \"prac71.sol\":2648:2652  data */\n      0x00\n        /* \"prac71.sol\":2653:2654  i */\n      dup3\n        /* \"prac71.sol\":2648:2655  data[i] */\n      dup2\n      sload\n      dup2\n      lt\n      tag_31\n      jumpi\n      tag_32\n      tag_27\n      jump\t// in\n    tag_32:\n    tag_31:\n      swap1\n      0x00\n      mstore\n      keccak256(0x00, 0x20)\n      add\n        /* \"prac71.sol\":2648:2661  data[i] = sum */\n      dup2\n      swap1\n      sstore\n      pop\n        /* \"prac71.sol\":2599:2602  i++ */\n      dup1\n      dup1\n      0x01\n      add\n      swap2\n      pop\n      pop\n        /* \"prac71.sol\":2562:2673  for (uint256 i = 0; i < data.length; i++) {... */\n      jump(tag_22)\n    tag_23:\n      pop\n        /* \"prac71.sol\":2521:2680  {... */\n      pop\n        /* \"prac71.sol\":2487:2680  function dangerousLoop() external {... */\n      jump\t// out\n        /* \"prac71.sol\":2688:2810  function getLength()... */\n    tag_10:\n        /* \"prac71.sol\":2759:2766  uint256 */\n      0x00\n        /* \"prac71.sol\":2791:2795  data */\n      0x00\n        /* \"prac71.sol\":2791:2802  data.length */\n      dup1\n      sload\n      swap1\n      pop\n        /* \"prac71.sol\":2784:2802  return data.length */\n      swap1\n      pop\n        /* \"prac71.sol\":2688:2810  function getLength()... */\n      swap1\n      jump\t// out\n        /* \"prac71.sol\":2048:2174  function addMany(uint256 n) external {... */\n    tag_16:\n        /* \"prac71.sol\":2101:2110  uint256 i */\n      0x00\n        /* \"prac71.sol\":2113:2114  0 */\n      0x00\n        /* \"prac71.sol\":2101:2114  uint256 i = 0 */\n      swap1\n      pop\n        /* \"prac71.sol\":2096:2167  for (uint256 i = 0; i < n; i++) {... */\n    tag_36:\n        /* \"prac71.sol\":2120:2121  n */\n      dup2\n        /* \"prac71.sol\":2116:2117  i */\n      dup2\n        /* \"prac71.sol\":2116:2121  i < n */\n      lt\n        /* \"prac71.sol\":2096:2167  for (uint256 i = 0; i < n; i++) {... */\n      iszero\n      tag_37\n      jumpi\n        /* \"prac71.sol\":2143:2147  data */\n      0x00\n        /* \"prac71.sol\":2153:2154  i */\n      dup2\n        /* \"prac71.sol\":2143:2155  data.push(i) */\n      swap1\n      dup1\n      0x01\n      dup2\n      sload\n      add\n      dup1\n      dup3\n      sstore\n      dup1\n      swap2\n      pop\n      pop\n      0x01\n      swap1\n      sub\n      swap1\n      0x00\n      mstore\n      keccak256(0x00, 0x20)\n      add\n      0x00\n      swap1\n      swap2\n      swap1\n      swap2\n      swap1\n      swap2\n      pop\n      sstore\n        /* \"prac71.sol\":2123:2126  i++ */\n      dup1\n      dup1\n      0x01\n      add\n      swap2\n      pop\n      pop\n        /* \"prac71.sol\":2096:2167  for (uint256 i = 0; i < n; i++) {... */\n      jump(tag_36)\n    tag_37:\n      pop\n        /* \"prac71.sol\":2048:2174  function addMany(uint256 n) external {... */\n      pop\n      jump\t// out\n        /* \"prac71.sol\":1953:1974  uint256[] public data */\n    tag_19:\n      0x00\n      dup2\n      dup2\n      sload\n      dup2\n      lt\n      tag_40\n      jumpi\n      0x00\n      dup1\n      revert\n    tag_40:\n      swap1\n      0x00\n      mstore\n      keccak256(0x00, 0x20)\n      add\n      0x00\n      swap2\n      pop\n      swap1\n      pop\n      sload\n      dup2\n      jump\t// out\n        /* \"#utility.yul\":7:84   */\n    tag_42:\n        /* \"#utility.yul\":44:51   */\n      0x00\n        /* \"#utility.yul\":73:78   */\n      dup2\n        /* \"#utility.yul\":62:78   */\n      swap1\n      pop\n        /* \"#utility.yul\":7:84   */\n      swap2\n      swap1\n      pop\n      jump\t// out\n        /* \"#utility.yul\":90:208   */\n    tag_43:\n        /* \"#utility.yul\":177:201   */\n      tag_53\n        /* \"#utility.yul\":195:200   */\n      dup2\n        /* \"#utility.yul\":177:201   */\n      tag_42\n      jump\t// in\n    tag_53:\n        /* \"#utility.yul\":172:175   */\n      dup3\n        /* \"#utility.yul\":165:202   */\n      mstore\n        /* \"#utility.yul\":90:208   */\n      pop\n      pop\n      jump\t// out\n        /* \"#utility.yul\":214:436   */\n    tag_12:\n        /* \"#utility.yul\":307:311   */\n      0x00\n        /* \"#utility.yul\":345:347   */\n      0x20\n        /* \"#utility.yul\":334:343   */\n      dup3\n        /* \"#utility.yul\":330:348   */\n      add\n        /* \"#utility.yul\":322:348   */\n      swap1\n      pop\n        /* \"#utility.yul\":358:429   */\n      tag_55\n        /* \"#utility.yul\":426:427   */\n      0x00\n        /* \"#utility.yul\":415:424   */\n      dup4\n        /* \"#utility.yul\":411:428   */\n      add\n        /* \"#utility.yul\":402:408   */\n      dup5\n        /* \"#utility.yul\":358:429   */\n      tag_43\n      jump\t// in\n    tag_55:\n        /* \"#utility.yul\":214:436   */\n      swap3\n      swap2\n      pop\n      pop\n      jump\t// out\n        /* \"#utility.yul\":523:640   */\n    tag_45:\n        /* \"#utility.yul\":632:633   */\n      0x00\n        /* \"#utility.yul\":629:630   */\n      0x00\n        /* \"#utility.yul\":622:634   */\n      revert\n        /* \"#utility.yul\":769:891   */\n    tag_47:\n        /* \"#utility.yul\":842:866   */\n      tag_60\n        /* \"#utility.yul\":860:865   */\n      dup2\n        /* \"#utility.yul\":842:866   */\n      tag_42\n      jump\t// in\n    tag_60:\n        /* \"#utility.yul\":835:840   */\n      dup2\n        /* \"#utility.yul\":832:867   */\n      eq\n        /* \"#utility.yul\":822:885   */\n      tag_61\n      jumpi\n        /* \"#utility.yul\":881:882   */\n      0x00\n        /* \"#utility.yul\":878:879   */\n      0x00\n        /* \"#utility.yul\":871:883   */\n      revert\n        /* \"#utility.yul\":822:885   */\n    tag_61:\n        /* \"#utility.yul\":769:891   */\n      pop\n      jump\t// out\n        /* \"#utility.yul\":897:1036   */\n    tag_48:\n        /* \"#utility.yul\":943:948   */\n      0x00\n        /* \"#utility.yul\":981:987   */\n      dup2\n        /* \"#utility.yul\":968:988   */\n      calldataload\n        /* \"#utility.yul\":959:988   */\n      swap1\n      pop\n        /* \"#utility.yul\":997:1030   */\n      tag_63\n        /* \"#utility.yul\":1024:1029   */\n      dup2\n        /* \"#utility.yul\":997:1030   */\n      tag_47\n      jump\t// in\n    tag_63:\n        /* \"#utility.yul\":897:1036   */\n      swap3\n      swap2\n      pop\n      pop\n      jump\t// out\n        /* \"#utility.yul\":1042:1371   */\n    tag_15:\n        /* \"#utility.yul\":1101:1107   */\n      0x00\n        /* \"#utility.yul\":1150:1152   */\n      0x20\n        /* \"#utility.yul\":1138:1147   */\n      dup3\n        /* \"#utility.yul\":1129:1136   */\n      dup5\n        /* \"#utility.yul\":1125:1148   */\n      sub\n        /* \"#utility.yul\":1121:1153   */\n      slt\n        /* \"#utility.yul\":1118:1237   */\n      iszero\n      tag_65\n      jumpi\n        /* \"#utility.yul\":1156:1235   */\n      tag_66\n      tag_45\n      jump\t// in\n    tag_66:\n        /* \"#utility.yul\":1118:1237   */\n    tag_65:\n        /* \"#utility.yul\":1276:1277   */\n      0x00\n        /* \"#utility.yul\":1301:1354   */\n      tag_67\n        /* \"#utility.yul\":1346:1353   */\n      dup5\n        /* \"#utility.yul\":1337:1343   */\n      dup3\n        /* \"#utility.yul\":1326:1335   */\n      dup6\n        /* \"#utility.yul\":1322:1344   */\n      add\n        /* \"#utility.yul\":1301:1354   */\n      tag_48\n      jump\t// in\n    tag_67:\n        /* \"#utility.yul\":1291:1354   */\n      swap2\n      pop\n        /* \"#utility.yul\":1247:1364   */\n      pop\n        /* \"#utility.yul\":1042:1371   */\n      swap3\n      swap2\n      pop\n      pop\n      jump\t// out\n        /* \"#utility.yul\":1377:1557   */\n    tag_27:\n        /* \"#utility.yul\":1425:1502   */\n      0x4e487b7100000000000000000000000000000000000000000000000000000000\n        /* \"#utility.yul\":1422:1423   */\n      0x00\n        /* \"#utility.yul\":1415:1503   */\n      mstore\n        /* \"#utility.yul\":1522:1526   */\n      0x32\n        /* \"#utility.yul\":1519:1520   */\n      0x04\n        /* \"#utility.yul\":1512:1527   */\n      mstore\n        /* \"#utility.yul\":1546:1550   */\n      0x24\n        /* \"#utility.yul\":1543:1544   */\n      0x00\n        /* \"#utility.yul\":1536:1551   */\n      revert\n        /* \"#utility.yul\":1563:1743   */\n    tag_49:\n        /* \"#utility.yul\":1611:1688   */\n      0x4e487b7100000000000000000000000000000000000000000000000000000000\n        /* \"#utility.yul\":1608:1609   */\n      0x00\n        /* \"#utility.yul\":1601:1689   */\n      mstore\n        /* \"#utility.yul\":1708:1712   */\n      0x11\n        /* \"#utility.yul\":1705:1706   */\n      0x04\n        /* \"#utility.yul\":1698:1713   */\n      mstore\n        /* \"#utility.yul\":1732:1736   */\n      0x24\n        /* \"#utility.yul\":1729:1730   */\n      0x00\n        /* \"#utility.yul\":1722:1737   */\n      revert\n        /* \"#utility.yul\":1749:1940   */\n    tag_30:\n        /* \"#utility.yul\":1789:1792   */\n      0x00\n        /* \"#utility.yul\":1808:1828   */\n      tag_71\n        /* \"#utility.yul\":1826:1827   */\n      dup3\n        /* \"#utility.yul\":1808:1828   */\n      tag_42\n      jump\t// in\n    tag_71:\n        /* \"#utility.yul\":1803:1828   */\n      swap2\n      pop\n        /* \"#utility.yul\":1842:1862   */\n      tag_72\n        /* \"#utility.yul\":1860:1861   */\n      dup4\n        /* \"#utility.yul\":1842:1862   */\n      tag_42\n      jump\t// in\n    tag_72:\n        /* \"#utility.yul\":1837:1862   */\n      swap3\n      pop\n        /* \"#utility.yul\":1885:1886   */\n      dup3\n        /* \"#utility.yul\":1882:1883   */\n      dup3\n        /* \"#utility.yul\":1878:1887   */\n      add\n        /* \"#utility.yul\":1871:1887   */\n      swap1\n      pop\n        /* \"#utility.yul\":1906:1909   */\n      dup1\n        /* \"#utility.yul\":1903:1904   */\n      dup3\n        /* \"#utility.yul\":1900:1910   */\n      gt\n        /* \"#utility.yul\":1897:1933   */\n      iszero\n      tag_73\n      jumpi\n        /* \"#utility.yul\":1913:1931   */\n      tag_74\n      tag_49\n      jump\t// in\n    tag_74:\n        /* \"#utility.yul\":1897:1933   */\n    tag_73:\n        /* \"#utility.yul\":1749:1940   */\n      swap3\n      swap2\n      pop\n      pop\n      jump\t// out\n\n    auxdata: 0xa2646970667358221220045fec544550f8bbfa89ee3cf246ec140d5c226b5b8250bfb0a27e96a60fc06f64736f6c63430008220033\n}\n",
				"bytecode": {
					"linkReferences": {},
					"object": "6080604052348015600e575f5ffd5b506102eb8061001c5f395ff3fe608060405234801561000f575f5ffd5b506004361061004a575f3560e01c806362a5f1711461004e578063be1c766b14610058578063d4d5e8d514610076578063f0ba844014610092575b5f5ffd5b6100566100c2565b005b610060610131565b60405161006d91906101b6565b60405180910390f35b610090600480360381019061008b91906101fd565b61013c565b005b6100ac60048036038101906100a791906101fd565b61017f565b6040516100b991906101b6565b60405180910390f35b5f5f90505f5f90505b5f8054905081101561012d575f81815481106100ea576100e9610228565b5b905f5260205f200154826100fe9190610282565b9150815f828154811061011457610113610228565b5b905f5260205f20018190555080806001019150506100cb565b5050565b5f5f80549050905090565b5f5f90505b8181101561017b575f81908060018154018082558091505060019003905f5260205f20015f90919091909150558080600101915050610141565b5050565b5f818154811061018d575f80fd5b905f5260205f20015f915090505481565b5f819050919050565b6101b08161019e565b82525050565b5f6020820190506101c95f8301846101a7565b92915050565b5f5ffd5b6101dc8161019e565b81146101e6575f5ffd5b50565b5f813590506101f7816101d3565b92915050565b5f60208284031215610212576102116101cf565b5b5f61021f848285016101e9565b91505092915050565b7f4e487b71000000000000000000000000000000000000000000000000000000005f52603260045260245ffd5b7f4e487b71000000000000000000000000000000000000000000000000000000005f52601160045260245ffd5b5f61028c8261019e565b91506102978361019e565b92508282019050808211156102af576102ae610255565b5b9291505056fea2646970667358221220045fec544550f8bbfa89ee3cf246ec140d5c226b5b8250bfb0a27e96a60fc06f64736f6c63430008220033",
					"opcodes": "PUSH1 0x80 PUSH1 0x40 MSTORE CALLVALUE DUP1 ISZERO PUSH1 0xE JUMPI PUSH0 PUSH0 REVERT JUMPDEST POP PUSH2 0x2EB DUP1 PUSH2 0x1C PUSH0 CODECOPY PUSH0 RETURN INVALID PUSH1 0x80 PUSH1 0x40 MSTORE CALLVALUE DUP1 ISZERO PUSH2 0xF JUMPI PUSH0 PUSH0 REVERT JUMPDEST POP PUSH1 0x4 CALLDATASIZE LT PUSH2 0x4A JUMPI PUSH0 CALLDATALOAD PUSH1 0xE0 SHR DUP1 PUSH4 0x62A5F171 EQ PUSH2 0x4E JUMPI DUP1 PUSH4 0xBE1C766B EQ PUSH2 0x58 JUMPI DUP1 PUSH4 0xD4D5E8D5 EQ PUSH2 0x76 JUMPI DUP1 PUSH4 0xF0BA8440 EQ PUSH2 0x92 JUMPI JUMPDEST PUSH0 PUSH0 REVERT JUMPDEST PUSH2 0x56 PUSH2 0xC2 JUMP JUMPDEST STOP JUMPDEST PUSH2 0x60 PUSH2 0x131 JUMP JUMPDEST PUSH1 0x40 MLOAD PUSH2 0x6D SWAP2 SWAP1 PUSH2 0x1B6 JUMP JUMPDEST PUSH1 0x40 MLOAD DUP1 SWAP2 SUB SWAP1 RETURN JUMPDEST PUSH2 0x90 PUSH1 0x4 DUP1 CALLDATASIZE SUB DUP2 ADD SWAP1 PUSH2 0x8B SWAP2 SWAP1 PUSH2 0x1FD JUMP JUMPDEST PUSH2 0x13C JUMP JUMPDEST STOP JUMPDEST PUSH2 0xAC PUSH1 0x4 DUP1 CALLDATASIZE SUB DUP2 ADD SWAP1 PUSH2 0xA7 SWAP2 SWAP1 PUSH2 0x1FD JUMP JUMPDEST PUSH2 0x17F JUMP JUMPDEST PUSH1 0x40 MLOAD PUSH2 0xB9 SWAP2 SWAP1 PUSH2 0x1B6 JUMP JUMPDEST PUSH1 0x40 MLOAD DUP1 SWAP2 SUB SWAP1 RETURN JUMPDEST PUSH0 PUSH0 SWAP1 POP PUSH0 PUSH0 SWAP1 POP JUMPDEST PUSH0 DUP1 SLOAD SWAP1 POP DUP2 LT ISZERO PUSH2 0x12D JUMPI PUSH0 DUP2 DUP2 SLOAD DUP2 LT PUSH2 0xEA JUMPI PUSH2 0xE9 PUSH2 0x228 JUMP JUMPDEST JUMPDEST SWAP1 PUSH0 MSTORE PUSH1 0x20 PUSH0 KECCAK256 ADD SLOAD DUP3 PUSH2 0xFE SWAP2 SWAP1 PUSH2 0x282 JUMP JUMPDEST SWAP2 POP DUP2 PUSH0 DUP3 DUP2 SLOAD DUP2 LT PUSH2 0x114 JUMPI PUSH2 0x113 PUSH2 0x228 JUMP JUMPDEST JUMPDEST SWAP1 PUSH0 MSTORE PUSH1 0x20 PUSH0 KECCAK256 ADD DUP2 SWAP1 SSTORE POP DUP1 DUP1 PUSH1 0x1 ADD SWAP2 POP POP PUSH2 0xCB JUMP JUMPDEST POP POP JUMP JUMPDEST PUSH0 PUSH0 DUP1 SLOAD SWAP1 POP SWAP1 POP SWAP1 JUMP JUMPDEST PUSH0 PUSH0 SWAP1 POP JUMPDEST DUP2 DUP2 LT ISZERO PUSH2 0x17B JUMPI PUSH0 DUP2 SWAP1 DUP1 PUSH1 0x1 DUP2 SLOAD ADD DUP1 DUP3 SSTORE DUP1 SWAP2 POP POP PUSH1 0x1 SWAP1 SUB SWAP1 PUSH0 MSTORE PUSH1 0x20 PUSH0 KECCAK256 ADD PUSH0 SWAP1 SWAP2 SWAP1 SWAP2 SWAP1 SWAP2 POP SSTORE DUP1 DUP1 PUSH1 0x1 ADD SWAP2 POP POP PUSH2 0x141 JUMP JUMPDEST POP POP JUMP JUMPDEST PUSH0 DUP2 DUP2 SLOAD DUP2 LT PUSH2 0x18D JUMPI PUSH0 DUP1 REVERT JUMPDEST SWAP1 PUSH0 MSTORE PUSH1 0x20 PUSH0 KECCAK256 ADD PUSH0 SWAP2 POP SWAP1 POP SLOAD DUP2 JUMP JUMPDEST PUSH0 DUP2 SWAP1 POP SWAP2 SWAP1 POP JUMP JUMPDEST PUSH2 0x1B0 DUP2 PUSH2 0x19E JUMP JUMPDEST DUP3 MSTORE POP POP JUMP JUMPDEST PUSH0 PUSH1 0x20 DUP3 ADD SWAP1 POP PUSH2 0x1C9 PUSH0 DUP4 ADD DUP5 PUSH2 0x1A7 JUMP JUMPDEST SWAP3 SWAP2 POP POP JUMP JUMPDEST PUSH0 PUSH0 REVERT JUMPDEST PUSH2 0x1DC DUP2 PUSH2 0x19E JUMP JUMPDEST DUP2 EQ PUSH2 0x1E6 JUMPI PUSH0 PUSH0 REVERT JUMPDEST POP JUMP JUMPDEST PUSH0 DUP2 CALLDATALOAD SWAP1 POP PUSH2 0x1F7 DUP2 PUSH2 0x1D3 JUMP JUMPDEST SWAP3 SWAP2 POP POP JUMP JUMPDEST PUSH0 PUSH1 0x20 DUP3 DUP5 SUB SLT ISZERO PUSH2 0x212 JUMPI PUSH2 0x211 PUSH2 0x1CF JUMP JUMPDEST JUMPDEST PUSH0 PUSH2 0x21F DUP5 DUP3 DUP6 ADD PUSH2 0x1E9 JUMP JUMPDEST SWAP2 POP POP SWAP3 SWAP2 POP POP JUMP JUMPDEST PUSH32 0x4E487B7100000000000000000000000000000000000000000000000000000000 PUSH0 MSTORE PUSH1 0x32 PUSH1 0x4 MSTORE PUSH1 0x24 PUSH0 REVERT JUMPDEST PUSH32 0x4E487B7100000000000000000000000000000000000000000000000000000000 PUSH0 MSTORE PUSH1 0x11 PUSH1 0x4 MSTORE PUSH1 0x24 PUSH0 REVERT JUMPDEST PUSH0 PUSH2 0x28C DUP3 PUSH2 0x19E JUMP JUMPDEST SWAP2 POP PUSH2 0x297 DUP4 PUSH2 0x19E JUMP JUMPDEST SWAP3 POP DUP3 DUP3 ADD SWAP1 POP DUP1 DUP3 GT ISZERO PUSH2 0x2AF JUMPI PUSH2 0x2AE PUSH2 0x255 JUMP JUMPDEST JUMPDEST SWAP3 SWAP2 POP POP JUMP INVALID LOG2 PUSH5 0x6970667358 0x22 SLT KECCAK256 DIV PUSH0 EOFCREATE 0x54 GASLIMIT POP EXTCALL 0xBB STATICCALL DUP10 RETURNCONTRACT 0x3C CALLCODE CHAINID EOFCREATE 0x14 0xD TLOAD 0x22 PUSH12 0x5B8250BFB0A27E96A60FC06F PUSH5 0x736F6C6343 STOP ADDMOD 0x22 STOP CALLER "
				},
				"gasEstimates": {
					"creation": {
						"codeDepositCost": "149400",
						"executionCost": "194",
						"totalCost": "149594"
					},
					"external": {
						"addMany(uint256)": "infinite",
						"dangerousLoop()": "infinite",
						"data(uint256)": "infinite",
						"getLength()": "2439"
					}
				},
				"methodIdentifiers": {
					"addMany(uint256)": "d4d5e8d5",
					"dangerousLoop()": "62a5f171",
					"data(uint256)": "f0ba8440",
					"getLength()": "be1c766b"
				}
			},
			"storageLayout": {
				"storage": [
					{
						"astId": 4,
						"contract": "prac71.sol:OutOfGasDemoVul",
						"label": "data",
						"offset": 0,
						"slot": "0",
						"type": "t_array(t_uint256)dyn_storage"
					}
				],
				"types": {
					"t_array(t_uint256)dyn_storage": {
						"base": "t_uint256",
						"encoding": "dynamic_array",
						"label": "uint256[]",
						"numberOfBytes": "32"
					},
					"t_uint256": {
						"encoding": "inplace",
						"label": "uint256",
						"numberOfBytes": "32"
					}
				}
			},
			"userdoc": {
				"kind": "user",
				"methods": {},
				"version": 1
			}
		}
	}
}