{
	"prac22.sol": {
		"MemoryStructExampleVul": {
			"abi": [
				{
					"inputs": [],
					"name": "createMemoryStruct",
					"outputs": [
						{
							"internalType": "string",
							"name": "",
							"type": "string"
						},
						{
							"internalType": "uint256",
							"name": "",
							"type": "uint256"
						},
						{
							"internalType": "bool",
							"name": "",
							"type": "bool"
						}
					],
					"stateMutability": "pure",
					"type": "function"
				},
				{
					"inputs": [
						{
							"internalType": "string",
							"name": "_name",
							"type": "string"
						},
						{
							"internalType": "uint256",
							"name": "_age",
							"type": "uint256"
						},
						{
							"internalType": "bool",
							"name": "_active",
							"type": "bool"
						}
					],
					"name": "storeUser",
					"outputs": [],
					"stateMutability": "nonpayable",
					"type": "function"
				},
				{
					"inputs": [],
					"name": "storedUser",
					"outputs": [
						{
							"internalType": "string",
							"name": "name",
							"type": "string"
						},
						{
							"internalType": "uint256",
							"name": "age",
							"type": "uint256"
						},
						{
							"internalType": "bool",
							"name": "active",
							"type": "bool"
						}
					],
					"stateMutability": "view",
					"type": "function"
				}
			],
			"devdoc": {
				"kind": "dev",
				"methods": {},
				"version": 1
			},
			"evm": {
				"assembly": "    /* \"prac22.sol\":2013:2926  contract MemoryStructExampleVul {... */\n  mstore(0x40, 0x80)\n  callvalue\n  dup1\n  iszero\n  tag_1\n  jumpi\n  revert(0x00, 0x00)\ntag_1:\n  pop\n  dataSize(sub_0)\n  dup1\n  dataOffset(sub_0)\n  0x00\n  codecopy\n  0x00\n  return\nstop\n\nsub_0: assembly {\n        /* \"prac22.sol\":2013:2926  contract MemoryStructExampleVul {... */\n      mstore(0x40, 0x80)\n      callvalue\n      dup1\n      iszero\n      tag_1\n      jumpi\n      revert(0x00, 0x00)\n    tag_1:\n      pop\n      jumpi(tag_2, lt(calldatasize, 0x04))\n      shr(0xe0, calldataload(0x00))\n      dup1\n      0x3ed97dcb\n      eq\n      tag_3\n      jumpi\n      dup1\n      0x86132399\n      eq\n      tag_4\n      jumpi\n      dup1\n      0xe80c3f13\n      eq\n      tag_5\n      jumpi\n    tag_2:\n      revert(0x00, 0x00)\n        /* \"prac22.sol\":2179:2594  function createMemoryStruct()... */\n    tag_3:\n      tag_6\n      tag_7\n      jump\t// in\n    tag_6:\n      mload(0x40)\n      tag_8\n      swap4\n      swap3\n      swap2\n      swap1\n      tag_9\n      jump\t// in\n    tag_8:\n      mload(0x40)\n      dup1\n      swap2\n      sub\n      swap1\n      return\n        /* \"prac22.sol\":2671:2923  function storeUser(... */\n    tag_4:\n      tag_10\n      0x04\n      dup1\n      calldatasize\n      sub\n      dup2\n      add\n      swap1\n      tag_11\n      swap2\n      swap1\n      tag_12\n      jump\t// in\n    tag_11:\n      tag_13\n      jump\t// in\n    tag_10:\n      stop\n        /* \"prac22.sol\":2148:2170  User public storedUser */\n    tag_5:\n      tag_14\n      tag_15\n      jump\t// in\n    tag_14:\n      mload(0x40)\n      tag_16\n      swap4\n      swap3\n      swap2\n      swap1\n      tag_9\n      jump\t// in\n    tag_16:\n      mload(0x40)\n      dup1\n      swap2\n      sub\n      swap1\n      return\n        /* \"prac22.sol\":2179:2594  function createMemoryStruct()... */\n    tag_7:\n        /* \"prac22.sol\":2271:2284  string memory */\n      0x60\n        /* \"prac22.sol\":2299:2306  uint256 */\n      0x00\n        /* \"prac22.sol\":2321:2325  bool */\n      0x00\n        /* \"prac22.sol\":2353:2373  User memory tempUser */\n      0x00\n        /* \"prac22.sol\":2376:2470  User({... */\n      mload(0x40)\n      dup1\n      0x60\n      add\n      0x40\n      mstore\n      dup1\n      mload(0x40)\n      dup1\n      0x40\n      add\n      0x40\n      mstore\n      dup1\n      0x05\n      dup2\n      mstore\n      0x20\n      add\n      0x416c696365000000000000000000000000000000000000000000000000000000\n      dup2\n      mstore\n      pop\n      dup2\n      mstore\n      0x20\n      add\n        /* \"prac22.sol\":2429:2431  25 */\n      0x19\n        /* \"prac22.sol\":2376:2470  User({... */\n      dup2\n      mstore\n      0x20\n      add\n        /* \"prac22.sol\":2454:2458  true */\n      0x01\n        /* \"prac22.sol\":2376:2470  User({... */\n      iszero\n      iszero\n      dup2\n      mstore\n      pop\n        /* \"prac22.sol\":2353:2470  User memory tempUser = User({... */\n      swap1\n      pop\n        /* \"prac22.sol\":2505:2513  tempUser */\n      dup1\n        /* \"prac22.sol\":2505:2518  tempUser.name */\n      0x00\n      add\n      mload\n        /* \"prac22.sol\":2533:2541  tempUser */\n      dup2\n        /* \"prac22.sol\":2533:2545  tempUser.age */\n      0x20\n      add\n      mload\n        /* \"prac22.sol\":2560:2568  tempUser */\n      dup3\n        /* \"prac22.sol\":2560:2575  tempUser.active */\n      0x40\n      add\n      mload\n        /* \"prac22.sol\":2483:2586  return (... */\n      swap4\n      pop\n      swap4\n      pop\n      swap4\n      pop\n      pop\n        /* \"prac22.sol\":2179:2594  function createMemoryStruct()... */\n      swap1\n      swap2\n      swap3\n      jump\t// out\n        /* \"prac22.sol\":2671:2923  function storeUser(... */\n    tag_13:\n        /* \"prac22.sol\":2818:2915  User({... */\n      mload(0x40)\n      dup1\n      0x60\n      add\n      0x40\n      mstore\n      dup1\n        /* \"prac22.sol\":2844:2849  _name */\n      dup5\n        /* \"prac22.sol\":2818:2915  User({... */\n      dup2\n      mstore\n      0x20\n      add\n        /* \"prac22.sol\":2869:2873  _age */\n      dup4\n        /* \"prac22.sol\":2818:2915  User({... */\n      dup2\n      mstore\n      0x20\n      add\n        /* \"prac22.sol\":2896:2903  _active */\n      dup3\n        /* \"prac22.sol\":2818:2915  User({... */\n      iszero\n      iszero\n      dup2\n      mstore\n      pop\n        /* \"prac22.sol\":2805:2815  storedUser */\n      0x00\n        /* \"prac22.sol\":2805:2915  storedUser = User({... */\n      0x00\n      dup3\n      add\n      mload\n      dup2\n      0x00\n      add\n      swap1\n      dup2\n      tag_19\n      swap2\n      swap1\n      tag_20\n      jump\t// in\n    tag_19:\n      pop\n      0x20\n      dup3\n      add\n      mload\n      dup2\n      0x01\n      add\n      sstore\n      0x40\n      dup3\n      add\n      mload\n      dup2\n      0x02\n      add\n      exp(0x0100, 0x00)\n      dup2\n      sload\n      dup2\n      0xff\n      mul\n      not\n      and\n      swap1\n      dup4\n      iszero\n      iszero\n      mul\n      or\n      swap1\n      sstore\n      pop\n      swap1\n      pop\n      pop\n        /* \"prac22.sol\":2671:2923  function storeUser(... */\n      pop\n      pop\n      pop\n      jump\t// out\n        /* \"prac22.sol\":2148:2170  User public storedUser */\n    tag_15:\n      0x00\n      dup1\n      0x00\n      add\n      dup1\n      sload\n      tag_21\n      swap1\n      tag_22\n      jump\t// in\n    tag_21:\n      dup1\n      0x1f\n      add\n      0x20\n      dup1\n      swap2\n      div\n      mul\n      0x20\n      add\n      mload(0x40)\n      swap1\n      dup2\n      add\n      0x40\n      mstore\n      dup1\n      swap3\n      swap2\n      swap1\n      dup2\n      dup2\n      mstore\n      0x20\n      add\n      dup3\n      dup1\n      sload\n      tag_23\n      swap1\n      tag_22\n      jump\t// in\n    tag_23:\n      dup1\n      iszero\n      tag_24\n      jumpi\n      dup1\n      0x1f\n      lt\n      tag_25\n      jumpi\n      0x0100\n      dup1\n      dup4\n      sload\n      div\n      mul\n      dup4\n      mstore\n      swap2\n      0x20\n      add\n      swap2\n      jump(tag_24)\n    tag_25:\n      dup3\n      add\n      swap2\n      swap1\n      0x00\n      mstore\n      keccak256(0x00, 0x20)\n      swap1\n    tag_26:\n      dup2\n      sload\n      dup2\n      mstore\n      swap1\n      0x01\n      add\n      swap1\n      0x20\n      add\n      dup1\n      dup4\n      gt\n      tag_26\n      jumpi\n      dup3\n      swap1\n      sub\n      0x1f\n      and\n      dup3\n      add\n      swap2\n    tag_24:\n      pop\n      pop\n      pop\n      pop\n      pop\n      swap1\n      dup1\n      0x01\n      add\n      sload\n      swap1\n      dup1\n      0x02\n      add\n      0x00\n      swap1\n      sload\n      swap1\n      0x0100\n      exp\n      swap1\n      div\n      0xff\n      and\n      swap1\n      pop\n      dup4\n      jump\t// out\n        /* \"#utility.yul\":7:106   */\n    tag_27:\n        /* \"#utility.yul\":59:65   */\n      0x00\n        /* \"#utility.yul\":93:98   */\n      dup2\n        /* \"#utility.yul\":87:99   */\n      mload\n        /* \"#utility.yul\":77:99   */\n      swap1\n      pop\n        /* \"#utility.yul\":7:106   */\n      swap2\n      swap1\n      pop\n      jump\t// out\n        /* \"#utility.yul\":112:281   */\n    tag_28:\n        /* \"#utility.yul\":196:207   */\n      0x00\n        /* \"#utility.yul\":230:236   */\n      dup3\n        /* \"#utility.yul\":225:228   */\n      dup3\n        /* \"#utility.yul\":218:237   */\n      mstore\n        /* \"#utility.yul\":270:274   */\n      0x20\n        /* \"#utility.yul\":265:268   */\n      dup3\n        /* \"#utility.yul\":261:275   */\n      add\n        /* \"#utility.yul\":246:275   */\n      swap1\n      pop\n        /* \"#utility.yul\":112:281   */\n      swap3\n      swap2\n      pop\n      pop\n      jump\t// out\n        /* \"#utility.yul\":287:426   */\n    tag_29:\n        /* \"#utility.yul\":376:382   */\n      dup3\n        /* \"#utility.yul\":371:374   */\n      dup2\n        /* \"#utility.yul\":366:369   */\n      dup4\n        /* \"#utility.yul\":360:383   */\n      mcopy\n        /* \"#utility.yul\":417:418   */\n      0x00\n        /* \"#utility.yul\":408:414   */\n      dup4\n        /* \"#utility.yul\":403:406   */\n      dup4\n        /* \"#utility.yul\":399:415   */\n      add\n        /* \"#utility.yul\":392:419   */\n      mstore\n        /* \"#utility.yul\":287:426   */\n      pop\n      pop\n      pop\n      jump\t// out\n        /* \"#utility.yul\":432:534   */\n    tag_30:\n        /* \"#utility.yul\":473:479   */\n      0x00\n        /* \"#utility.yul\":524:526   */\n      0x1f\n        /* \"#utility.yul\":520:527   */\n      not\n        /* \"#utility.yul\":515:517   */\n      0x1f\n        /* \"#utility.yul\":508:513   */\n      dup4\n        /* \"#utility.yul\":504:518   */\n      add\n        /* \"#utility.yul\":500:528   */\n      and\n        /* \"#utility.yul\":490:528   */\n      swap1\n      pop\n        /* \"#utility.yul\":432:534   */\n      swap2\n      swap1\n      pop\n      jump\t// out\n        /* \"#utility.yul\":540:917   */\n    tag_31:\n        /* \"#utility.yul\":628:631   */\n      0x00\n        /* \"#utility.yul\":656:695   */\n      tag_74\n        /* \"#utility.yul\":689:694   */\n      dup3\n        /* \"#utility.yul\":656:695   */\n      tag_27\n      jump\t// in\n    tag_74:\n        /* \"#utility.yul\":711:782   */\n      tag_75\n        /* \"#utility.yul\":775:781   */\n      dup2\n        /* \"#utility.yul\":770:773   */\n      dup6\n        /* \"#utility.yul\":711:782   */\n      tag_28\n      jump\t// in\n    tag_75:\n        /* \"#utility.yul\":704:782   */\n      swap4\n      pop\n        /* \"#utility.yul\":791:856   */\n      tag_76\n        /* \"#utility.yul\":849:855   */\n      dup2\n        /* \"#utility.yul\":844:847   */\n      dup6\n        /* \"#utility.yul\":837:841   */\n      0x20\n        /* \"#utility.yul\":830:835   */\n      dup7\n        /* \"#utility.yul\":826:842   */\n      add\n        /* \"#utility.yul\":791:856   */\n      tag_29\n      jump\t// in\n    tag_76:\n        /* \"#utility.yul\":881:910   */\n      tag_77\n        /* \"#utility.yul\":903:909   */\n      dup2\n        /* \"#utility.yul\":881:910   */\n      tag_30\n      jump\t// in\n    tag_77:\n        /* \"#utility.yul\":876:879   */\n      dup5\n        /* \"#utility.yul\":872:911   */\n      add\n        /* \"#utility.yul\":865:911   */\n      swap2\n      pop\n        /* \"#utility.yul\":632:917   */\n      pop\n        /* \"#utility.yul\":540:917   */\n      swap3\n      swap2\n      pop\n      pop\n      jump\t// out\n        /* \"#utility.yul\":923:1000   */\n    tag_32:\n        /* \"#utility.yul\":960:967   */\n      0x00\n        /* \"#utility.yul\":989:994   */\n      dup2\n        /* \"#utility.yul\":978:994   */\n      swap1\n      pop\n        /* \"#utility.yul\":923:1000   */\n      swap2\n      swap1\n      pop\n      jump\t// out\n        /* \"#utility.yul\":1006:1124   */\n    tag_33:\n        /* \"#utility.yul\":1093:1117   */\n      tag_80\n        /* \"#utility.yul\":1111:1116   */\n      dup2\n        /* \"#utility.yul\":1093:1117   */\n      tag_32\n      jump\t// in\n    tag_80:\n        /* \"#utility.yul\":1088:1091   */\n      dup3\n        /* \"#utility.yul\":1081:1118   */\n      mstore\n        /* \"#utility.yul\":1006:1124   */\n      pop\n      pop\n      jump\t// out\n        /* \"#utility.yul\":1130:1220   */\n    tag_34:\n        /* \"#utility.yul\":1164:1171   */\n      0x00\n        /* \"#utility.yul\":1207:1212   */\n      dup2\n        /* \"#utility.yul\":1200:1213   */\n      iszero\n        /* \"#utility.yul\":1193:1214   */\n      iszero\n        /* \"#utility.yul\":1182:1214   */\n      swap1\n      pop\n        /* \"#utility.yul\":1130:1220   */\n      swap2\n      swap1\n      pop\n      jump\t// out\n        /* \"#utility.yul\":1226:1335   */\n    tag_35:\n        /* \"#utility.yul\":1307:1328   */\n      tag_83\n        /* \"#utility.yul\":1322:1327   */\n      dup2\n        /* \"#utility.yul\":1307:1328   */\n      tag_34\n      jump\t// in\n    tag_83:\n        /* \"#utility.yul\":1302:1305   */\n      dup3\n        /* \"#utility.yul\":1295:1329   */\n      mstore\n        /* \"#utility.yul\":1226:1335   */\n      pop\n      pop\n      jump\t// out\n        /* \"#utility.yul\":1341:1862   */\n    tag_9:\n        /* \"#utility.yul\":1504:1508   */\n      0x00\n        /* \"#utility.yul\":1542:1544   */\n      0x60\n        /* \"#utility.yul\":1531:1540   */\n      dup3\n        /* \"#utility.yul\":1527:1545   */\n      add\n        /* \"#utility.yul\":1519:1545   */\n      swap1\n      pop\n        /* \"#utility.yul\":1591:1600   */\n      dup2\n        /* \"#utility.yul\":1585:1589   */\n      dup2\n        /* \"#utility.yul\":1581:1601   */\n      sub\n        /* \"#utility.yul\":1577:1578   */\n      0x00\n        /* \"#utility.yul\":1566:1575   */\n      dup4\n        /* \"#utility.yul\":1562:1579   */\n      add\n        /* \"#utility.yul\":1555:1602   */\n      mstore\n        /* \"#utility.yul\":1619:1697   */\n      tag_85\n        /* \"#utility.yul\":1692:1696   */\n      dup2\n        /* \"#utility.yul\":1683:1689   */\n      dup7\n        /* \"#utility.yul\":1619:1697   */\n      tag_31\n      jump\t// in\n    tag_85:\n        /* \"#utility.yul\":1611:1697   */\n      swap1\n      pop\n        /* \"#utility.yul\":1707:1779   */\n      tag_86\n        /* \"#utility.yul\":1775:1777   */\n      0x20\n        /* \"#utility.yul\":1764:1773   */\n      dup4\n        /* \"#utility.yul\":1760:1778   */\n      add\n        /* \"#utility.yul\":1751:1757   */\n      dup6\n        /* \"#utility.yul\":1707:1779   */\n      tag_33\n      jump\t// in\n    tag_86:\n        /* \"#utility.yul\":1789:1855   */\n      tag_87\n        /* \"#utility.yul\":1851:1853   */\n      0x40\n        /* \"#utility.yul\":1840:1849   */\n      dup4\n        /* \"#utility.yul\":1836:1854   */\n      add\n        /* \"#utility.yul\":1827:1833   */\n      dup5\n        /* \"#utility.yul\":1789:1855   */\n      tag_35\n      jump\t// in\n    tag_87:\n        /* \"#utility.yul\":1341:1862   */\n      swap5\n      swap4\n      pop\n      pop\n      pop\n      pop\n      jump\t// out\n        /* \"#utility.yul\":1868:1943   */\n    tag_36:\n        /* \"#utility.yul\":1901:1907   */\n      0x00\n        /* \"#utility.yul\":1934:1936   */\n      0x40\n        /* \"#utility.yul\":1928:1937   */\n      mload\n        /* \"#utility.yul\":1918:1937   */\n      swap1\n      pop\n        /* \"#utility.yul\":1868:1943   */\n      swap1\n      jump\t// out\n        /* \"#utility.yul\":1949:2066   */\n    tag_37:\n        /* \"#utility.yul\":2058:2059   */\n      0x00\n        /* \"#utility.yul\":2055:2056   */\n      0x00\n        /* \"#utility.yul\":2048:2060   */\n      revert\n        /* \"#utility.yul\":2072:2189   */\n    tag_38:\n        /* \"#utility.yul\":2181:2182   */\n      0x00\n        /* \"#utility.yul\":2178:2179   */\n      0x00\n        /* \"#utility.yul\":2171:2183   */\n      revert\n        /* \"#utility.yul\":2195:2312   */\n    tag_39:\n        /* \"#utility.yul\":2304:2305   */\n      0x00\n        /* \"#utility.yul\":2301:2302   */\n      0x00\n        /* \"#utility.yul\":2294:2306   */\n      revert\n        /* \"#utility.yul\":2318:2435   */\n    tag_40:\n        /* \"#utility.yul\":2427:2428   */\n      0x00\n        /* \"#utility.yul\":2424:2425   */\n      0x00\n        /* \"#utility.yul\":2417:2429   */\n      revert\n        /* \"#utility.yul\":2441:2621   */\n    tag_41:\n        /* \"#utility.yul\":2489:2566   */\n      0x4e487b7100000000000000000000000000000000000000000000000000000000\n        /* \"#utility.yul\":2486:2487   */\n      0x00\n        /* \"#utility.yul\":2479:2567   */\n      mstore\n        /* \"#utility.yul\":2586:2590   */\n      0x41\n        /* \"#utility.yul\":2583:2584   */\n      0x04\n        /* \"#utility.yul\":2576:2591   */\n      mstore\n        /* \"#utility.yul\":2610:2614   */\n      0x24\n        /* \"#utility.yul\":2607:2608   */\n      0x00\n        /* \"#utility.yul\":2600:2615   */\n      revert\n        /* \"#utility.yul\":2627:2908   */\n    tag_42:\n        /* \"#utility.yul\":2710:2737   */\n      tag_95\n        /* \"#utility.yul\":2732:2736   */\n      dup3\n        /* \"#utility.yul\":2710:2737   */\n      tag_30\n      jump\t// in\n    tag_95:\n        /* \"#utility.yul\":2702:2708   */\n      dup2\n        /* \"#utility.yul\":2698:2738   */\n      add\n        /* \"#utility.yul\":2840:2846   */\n      dup2\n        /* \"#utility.yul\":2828:2838   */\n      dup2\n        /* \"#utility.yul\":2825:2847   */\n      lt\n        /* \"#utility.yul\":2804:2822   */\n      0xffffffffffffffff\n        /* \"#utility.yul\":2792:2802   */\n      dup3\n        /* \"#utility.yul\":2789:2823   */\n      gt\n        /* \"#utility.yul\":2786:2848   */\n      or\n        /* \"#utility.yul\":2783:2871   */\n      iszero\n      tag_96\n      jumpi\n        /* \"#utility.yul\":2851:2869   */\n      tag_97\n      tag_41\n      jump\t// in\n    tag_97:\n        /* \"#utility.yul\":2783:2871   */\n    tag_96:\n        /* \"#utility.yul\":2891:2901   */\n      dup1\n        /* \"#utility.yul\":2887:2889   */\n      0x40\n        /* \"#utility.yul\":2880:2902   */\n      mstore\n        /* \"#utility.yul\":2670:2908   */\n      pop\n        /* \"#utility.yul\":2627:2908   */\n      pop\n      pop\n      jump\t// out\n        /* \"#utility.yul\":2914:3043   */\n    tag_43:\n        /* \"#utility.yul\":2948:2954   */\n      0x00\n        /* \"#utility.yul\":2975:2995   */\n      tag_99\n      tag_36\n      jump\t// in\n    tag_99:\n        /* \"#utility.yul\":2965:2995   */\n      swap1\n      pop\n        /* \"#utility.yul\":3004:3037   */\n      tag_100\n        /* \"#utility.yul\":3032:3036   */\n      dup3\n        /* \"#utility.yul\":3024:3030   */\n      dup3\n        /* \"#utility.yul\":3004:3037   */\n      tag_42\n      jump\t// in\n    tag_100:\n        /* \"#utility.yul\":2914:3043   */\n      swap2\n      swap1\n      pop\n      jump\t// out\n        /* \"#utility.yul\":3049:3357   */\n    tag_44:\n        /* \"#utility.yul\":3111:3115   */\n      0x00\n        /* \"#utility.yul\":3201:3219   */\n      0xffffffffffffffff\n        /* \"#utility.yul\":3193:3199   */\n      dup3\n        /* \"#utility.yul\":3190:3220   */\n      gt\n        /* \"#utility.yul\":3187:3243   */\n      iszero\n      tag_102\n      jumpi\n        /* \"#utility.yul\":3223:3241   */\n      tag_103\n      tag_41\n      jump\t// in\n    tag_103:\n        /* \"#utility.yul\":3187:3243   */\n    tag_102:\n        /* \"#utility.yul\":3261:3290   */\n      tag_104\n        /* \"#utility.yul\":3283:3289   */\n      dup3\n        /* \"#utility.yul\":3261:3290   */\n      tag_30\n      jump\t// in\n    tag_104:\n        /* \"#utility.yul\":3253:3290   */\n      swap1\n      pop\n        /* \"#utility.yul\":3345:3349   */\n      0x20\n        /* \"#utility.yul\":3339:3343   */\n      dup2\n        /* \"#utility.yul\":3335:3350   */\n      add\n        /* \"#utility.yul\":3327:3350   */\n      swap1\n      pop\n        /* \"#utility.yul\":3049:3357   */\n      swap2\n      swap1\n      pop\n      jump\t// out\n        /* \"#utility.yul\":3363:3511   */\n    tag_45:\n        /* \"#utility.yul\":3461:3467   */\n      dup3\n        /* \"#utility.yul\":3456:3459   */\n      dup2\n        /* \"#utility.yul\":3451:3454   */\n      dup4\n        /* \"#utility.yul\":3438:3468   */\n      calldatacopy\n        /* \"#utility.yul\":3502:3503   */\n      0x00\n        /* \"#utility.yul\":3493:3499   */\n      dup4\n        /* \"#utility.yul\":3488:3491   */\n      dup4\n        /* \"#utility.yul\":3484:3500   */\n      add\n        /* \"#utility.yul\":3477:3504   */\n      mstore\n        /* \"#utility.yul\":3363:3511   */\n      pop\n      pop\n      pop\n      jump\t// out\n        /* \"#utility.yul\":3517:3942   */\n    tag_46:\n        /* \"#utility.yul\":3595:3600   */\n      0x00\n        /* \"#utility.yul\":3620:3686   */\n      tag_107\n        /* \"#utility.yul\":3636:3685   */\n      tag_108\n        /* \"#utility.yul\":3678:3684   */\n      dup5\n        /* \"#utility.yul\":3636:3685   */\n      tag_44\n      jump\t// in\n    tag_108:\n        /* \"#utility.yul\":3620:3686   */\n      tag_43\n      jump\t// in\n    tag_107:\n        /* \"#utility.yul\":3611:3686   */\n      swap1\n      pop\n        /* \"#utility.yul\":3709:3715   */\n      dup3\n        /* \"#utility.yul\":3702:3707   */\n      dup2\n        /* \"#utility.yul\":3695:3716   */\n      mstore\n        /* \"#utility.yul\":3747:3751   */\n      0x20\n        /* \"#utility.yul\":3740:3745   */\n      dup2\n        /* \"#utility.yul\":3736:3752   */\n      add\n        /* \"#utility.yul\":3785:3788   */\n      dup5\n        /* \"#utility.yul\":3776:3782   */\n      dup5\n        /* \"#utility.yul\":3771:3774   */\n      dup5\n        /* \"#utility.yul\":3767:3783   */\n      add\n        /* \"#utility.yul\":3764:3789   */\n      gt\n        /* \"#utility.yul\":3761:3873   */\n      iszero\n      tag_109\n      jumpi\n        /* \"#utility.yul\":3792:3871   */\n      tag_110\n      tag_40\n      jump\t// in\n    tag_110:\n        /* \"#utility.yul\":3761:3873   */\n    tag_109:\n        /* \"#utility.yul\":3882:3936   */\n      tag_111\n        /* \"#utility.yul\":3929:3935   */\n      dup5\n        /* \"#utility.yul\":3924:3927   */\n      dup3\n        /* \"#utility.yul\":3919:3922   */\n      dup6\n        /* \"#utility.yul\":3882:3936   */\n      tag_45\n      jump\t// in\n    tag_111:\n        /* \"#utility.yul\":3601:3942   */\n      pop\n        /* \"#utility.yul\":3517:3942   */\n      swap4\n      swap3\n      pop\n      pop\n      pop\n      jump\t// out\n        /* \"#utility.yul\":3962:4302   */\n    tag_47:\n        /* \"#utility.yul\":4018:4023   */\n      0x00\n        /* \"#utility.yul\":4067:4070   */\n      dup3\n        /* \"#utility.yul\":4060:4064   */\n      0x1f\n        /* \"#utility.yul\":4052:4058   */\n      dup4\n        /* \"#utility.yul\":4048:4065   */\n      add\n        /* \"#utility.yul\":4044:4071   */\n      slt\n        /* \"#utility.yul\":4034:4156   */\n      tag_113\n      jumpi\n        /* \"#utility.yul\":4075:4154   */\n      tag_114\n      tag_39\n      jump\t// in\n    tag_114:\n        /* \"#utility.yul\":4034:4156   */\n    tag_113:\n        /* \"#utility.yul\":4192:4198   */\n      dup2\n        /* \"#utility.yul\":4179:4199   */\n      calldataload\n        /* \"#utility.yul\":4217:4296   */\n      tag_115\n        /* \"#utility.yul\":4292:4295   */\n      dup5\n        /* \"#utility.yul\":4284:4290   */\n      dup3\n        /* \"#utility.yul\":4277:4281   */\n      0x20\n        /* \"#utility.yul\":4269:4275   */\n      dup7\n        /* \"#utility.yul\":4265:4282   */\n      add\n        /* \"#utility.yul\":4217:4296   */\n      tag_46\n      jump\t// in\n    tag_115:\n        /* \"#utility.yul\":4208:4296   */\n      swap2\n      pop\n        /* \"#utility.yul\":4024:4302   */\n      pop\n        /* \"#utility.yul\":3962:4302   */\n      swap3\n      swap2\n      pop\n      pop\n      jump\t// out\n        /* \"#utility.yul\":4308:4430   */\n    tag_48:\n        /* \"#utility.yul\":4381:4405   */\n      tag_117\n        /* \"#utility.yul\":4399:4404   */\n      dup2\n        /* \"#utility.yul\":4381:4405   */\n      tag_32\n      jump\t// in\n    tag_117:\n        /* \"#utility.yul\":4374:4379   */\n      dup2\n        /* \"#utility.yul\":4371:4406   */\n      eq\n        /* \"#utility.yul\":4361:4424   */\n      tag_118\n      jumpi\n        /* \"#utility.yul\":4420:4421   */\n      0x00\n        /* \"#utility.yul\":4417:4418   */\n      0x00\n        /* \"#utility.yul\":4410:4422   */\n      revert\n        /* \"#utility.yul\":4361:4424   */\n    tag_118:\n        /* \"#utility.yul\":4308:4430   */\n      pop\n      jump\t// out\n        /* \"#utility.yul\":4436:4575   */\n    tag_49:\n        /* \"#utility.yul\":4482:4487   */\n      0x00\n        /* \"#utility.yul\":4520:4526   */\n      dup2\n        /* \"#utility.yul\":4507:4527   */\n      calldataload\n        /* \"#utility.yul\":4498:4527   */\n      swap1\n      pop\n        /* \"#utility.yul\":4536:4569   */\n      tag_120\n        /* \"#utility.yul\":4563:4568   */\n      dup2\n        /* \"#utility.yul\":4536:4569   */\n      tag_48\n      jump\t// in\n    tag_120:\n        /* \"#utility.yul\":4436:4575   */\n      swap3\n      swap2\n      pop\n      pop\n      jump\t// out\n        /* \"#utility.yul\":4581:4697   */\n    tag_50:\n        /* \"#utility.yul\":4651:4672   */\n      tag_122\n        /* \"#utility.yul\":4666:4671   */\n      dup2\n        /* \"#utility.yul\":4651:4672   */\n      tag_34\n      jump\t// in\n    tag_122:\n        /* \"#utility.yul\":4644:4649   */\n      dup2\n        /* \"#utility.yul\":4641:4673   */\n      eq\n        /* \"#utility.yul\":4631:4691   */\n      tag_123\n      jumpi\n        /* \"#utility.yul\":4687:4688   */\n      0x00\n        /* \"#utility.yul\":4684:4685   */\n      0x00\n        /* \"#utility.yul\":4677:4689   */\n      revert\n        /* \"#utility.yul\":4631:4691   */\n    tag_123:\n        /* \"#utility.yul\":4581:4697   */\n      pop\n      jump\t// out\n        /* \"#utility.yul\":4703:4836   */\n    tag_51:\n        /* \"#utility.yul\":4746:4751   */\n      0x00\n        /* \"#utility.yul\":4784:4790   */\n      dup2\n        /* \"#utility.yul\":4771:4791   */\n      calldataload\n        /* \"#utility.yul\":4762:4791   */\n      swap1\n      pop\n        /* \"#utility.yul\":4800:4830   */\n      tag_125\n        /* \"#utility.yul\":4824:4829   */\n      dup2\n        /* \"#utility.yul\":4800:4830   */\n      tag_50\n      jump\t// in\n    tag_125:\n        /* \"#utility.yul\":4703:4836   */\n      swap3\n      swap2\n      pop\n      pop\n      jump\t// out\n        /* \"#utility.yul\":4842:5635   */\n    tag_12:\n        /* \"#utility.yul\":4926:4932   */\n      0x00\n        /* \"#utility.yul\":4934:4940   */\n      0x00\n        /* \"#utility.yul\":4942:4948   */\n      0x00\n        /* \"#utility.yul\":4991:4993   */\n      0x60\n        /* \"#utility.yul\":4979:4988   */\n      dup5\n        /* \"#utility.yul\":4970:4977   */\n      dup7\n        /* \"#utility.yul\":4966:4989   */\n      sub\n        /* \"#utility.yul\":4962:4994   */\n      slt\n        /* \"#utility.yul\":4959:5078   */\n      iszero\n      tag_127\n      jumpi\n        /* \"#utility.yul\":4997:5076   */\n      tag_128\n      tag_37\n      jump\t// in\n    tag_128:\n        /* \"#utility.yul\":4959:5078   */\n    tag_127:\n        /* \"#utility.yul\":5145:5146   */\n      0x00\n        /* \"#utility.yul\":5134:5143   */\n      dup5\n        /* \"#utility.yul\":5130:5147   */\n      add\n        /* \"#utility.yul\":5117:5148   */\n      calldataload\n        /* \"#utility.yul\":5175:5193   */\n      0xffffffffffffffff\n        /* \"#utility.yul\":5167:5173   */\n      dup2\n        /* \"#utility.yul\":5164:5194   */\n      gt\n        /* \"#utility.yul\":5161:5278   */\n      iszero\n      tag_129\n      jumpi\n        /* \"#utility.yul\":5197:5276   */\n      tag_130\n      tag_38\n      jump\t// in\n    tag_130:\n        /* \"#utility.yul\":5161:5278   */\n    tag_129:\n        /* \"#utility.yul\":5302:5365   */\n      tag_131\n        /* \"#utility.yul\":5357:5364   */\n      dup7\n        /* \"#utility.yul\":5348:5354   */\n      dup3\n        /* \"#utility.yul\":5337:5346   */\n      dup8\n        /* \"#utility.yul\":5333:5355   */\n      add\n        /* \"#utility.yul\":5302:5365   */\n      tag_47\n      jump\t// in\n    tag_131:\n        /* \"#utility.yul\":5292:5365   */\n      swap4\n      pop\n        /* \"#utility.yul\":5088:5375   */\n      pop\n        /* \"#utility.yul\":5414:5416   */\n      0x20\n        /* \"#utility.yul\":5440:5493   */\n      tag_132\n        /* \"#utility.yul\":5485:5492   */\n      dup7\n        /* \"#utility.yul\":5476:5482   */\n      dup3\n        /* \"#utility.yul\":5465:5474   */\n      dup8\n        /* \"#utility.yul\":5461:5483   */\n      add\n        /* \"#utility.yul\":5440:5493   */\n      tag_49\n      jump\t// in\n    tag_132:\n        /* \"#utility.yul\":5430:5493   */\n      swap3\n      pop\n        /* \"#utility.yul\":5385:5503   */\n      pop\n        /* \"#utility.yul\":5542:5544   */\n      0x40\n        /* \"#utility.yul\":5568:5618   */\n      tag_133\n        /* \"#utility.yul\":5610:5617   */\n      dup7\n        /* \"#utility.yul\":5601:5607   */\n      dup3\n        /* \"#utility.yul\":5590:5599   */\n      dup8\n        /* \"#utility.yul\":5586:5608   */\n      add\n        /* \"#utility.yul\":5568:5618   */\n      tag_51\n      jump\t// in\n    tag_133:\n        /* \"#utility.yul\":5558:5618   */\n      swap2\n      pop\n        /* \"#utility.yul\":5513:5628   */\n      pop\n        /* \"#utility.yul\":4842:5635   */\n      swap3\n      pop\n      swap3\n      pop\n      swap3\n      jump\t// out\n        /* \"#utility.yul\":5641:5821   */\n    tag_52:\n        /* \"#utility.yul\":5689:5766   */\n      0x4e487b7100000000000000000000000000000000000000000000000000000000\n        /* \"#utility.yul\":5686:5687   */\n      0x00\n        /* \"#utility.yul\":5679:5767   */\n      mstore\n        /* \"#utility.yul\":5786:5790   */\n      0x22\n        /* \"#utility.yul\":5783:5784   */\n      0x04\n        /* \"#utility.yul\":5776:5791   */\n      mstore\n        /* \"#utility.yul\":5810:5814   */\n      0x24\n        /* \"#utility.yul\":5807:5808   */\n      0x00\n        /* \"#utility.yul\":5800:5815   */\n      revert\n        /* \"#utility.yul\":5827:6147   */\n    tag_22:\n        /* \"#utility.yul\":5871:5877   */\n      0x00\n        /* \"#utility.yul\":5908:5909   */\n      0x02\n        /* \"#utility.yul\":5902:5906   */\n      dup3\n        /* \"#utility.yul\":5898:5910   */\n      div\n        /* \"#utility.yul\":5888:5910   */\n      swap1\n      pop\n        /* \"#utility.yul\":5955:5956   */\n      0x01\n        /* \"#utility.yul\":5949:5953   */\n      dup3\n        /* \"#utility.yul\":5945:5957   */\n      and\n        /* \"#utility.yul\":5976:5994   */\n      dup1\n        /* \"#utility.yul\":5966:6047   */\n      tag_136\n      jumpi\n        /* \"#utility.yul\":6032:6036   */\n      0x7f\n        /* \"#utility.yul\":6024:6030   */\n      dup3\n        /* \"#utility.yul\":6020:6037   */\n      and\n        /* \"#utility.yul\":6010:6037   */\n      swap2\n      pop\n        /* \"#utility.yul\":5966:6047   */\n    tag_136:\n        /* \"#utility.yul\":6094:6096   */\n      0x20\n        /* \"#utility.yul\":6086:6092   */\n      dup3\n        /* \"#utility.yul\":6083:6097   */\n      lt\n        /* \"#utility.yul\":6063:6081   */\n      dup2\n        /* \"#utility.yul\":6060:6098   */\n      sub\n        /* \"#utility.yul\":6057:6141   */\n      tag_137\n      jumpi\n        /* \"#utility.yul\":6113:6131   */\n      tag_138\n      tag_52\n      jump\t// in\n    tag_138:\n        /* \"#utility.yul\":6057:6141   */\n    tag_137:\n        /* \"#utility.yul\":5878:6147   */\n      pop\n        /* \"#utility.yul\":5827:6147   */\n      swap2\n      swap1\n      pop\n      jump\t// out\n        /* \"#utility.yul\":6153:6294   */\n    tag_53:\n        /* \"#utility.yul\":6202:6206   */\n      0x00\n        /* \"#utility.yul\":6225:6228   */\n      dup2\n        /* \"#utility.yul\":6217:6228   */\n      swap1\n      pop\n        /* \"#utility.yul\":6248:6251   */\n      dup2\n        /* \"#utility.yul\":6245:6246   */\n      0x00\n        /* \"#utility.yul\":6238:6252   */\n      mstore\n        /* \"#utility.yul\":6282:6286   */\n      0x20\n        /* \"#utility.yul\":6279:6280   */\n      0x00\n        /* \"#utility.yul\":6269:6287   */\n      keccak256\n        /* \"#utility.yul\":6261:6287   */\n      swap1\n      pop\n        /* \"#utility.yul\":6153:6294   */\n      swap2\n      swap1\n      pop\n      jump\t// out\n        /* \"#utility.yul\":6300:6393   */\n    tag_54:\n        /* \"#utility.yul\":6337:6343   */\n      0x00\n        /* \"#utility.yul\":6384:6386   */\n      0x20\n        /* \"#utility.yul\":6379:6381   */\n      0x1f\n        /* \"#utility.yul\":6372:6377   */\n      dup4\n        /* \"#utility.yul\":6368:6382   */\n      add\n        /* \"#utility.yul\":6364:6387   */\n      div\n        /* \"#utility.yul\":6354:6387   */\n      swap1\n      pop\n        /* \"#utility.yul\":6300:6393   */\n      swap2\n      swap1\n      pop\n      jump\t// out\n        /* \"#utility.yul\":6399:6506   */\n    tag_55:\n        /* \"#utility.yul\":6443:6451   */\n      0x00\n        /* \"#utility.yul\":6493:6498   */\n      dup3\n        /* \"#utility.yul\":6487:6491   */\n      dup3\n        /* \"#utility.yul\":6483:6499   */\n      shl\n        /* \"#utility.yul\":6462:6499   */\n      swap1\n      pop\n        /* \"#utility.yul\":6399:6506   */\n      swap3\n      swap2\n      pop\n      pop\n      jump\t// out\n        /* \"#utility.yul\":6512:6905   */\n    tag_56:\n        /* \"#utility.yul\":6581:6587   */\n      0x00\n        /* \"#utility.yul\":6631:6632   */\n      0x08\n        /* \"#utility.yul\":6619:6629   */\n      dup4\n        /* \"#utility.yul\":6615:6633   */\n      mul\n        /* \"#utility.yul\":6654:6751   */\n      tag_143\n        /* \"#utility.yul\":6684:6750   */\n      0xffffffffffffffffffffffffffffffffffffffffffffffffffffffffffffffff\n        /* \"#utility.yul\":6673:6682   */\n      dup3\n        /* \"#utility.yul\":6654:6751   */\n      tag_55\n      jump\t// in\n    tag_143:\n        /* \"#utility.yul\":6772:6811   */\n      tag_144\n        /* \"#utility.yul\":6802:6810   */\n      dup7\n        /* \"#utility.yul\":6791:6800   */\n      dup4\n        /* \"#utility.yul\":6772:6811   */\n      tag_55\n      jump\t// in\n    tag_144:\n        /* \"#utility.yul\":6760:6811   */\n      swap6\n      pop\n        /* \"#utility.yul\":6844:6848   */\n      dup1\n        /* \"#utility.yul\":6840:6849   */\n      not\n        /* \"#utility.yul\":6833:6838   */\n      dup5\n        /* \"#utility.yul\":6829:6850   */\n      and\n        /* \"#utility.yul\":6820:6850   */\n      swap4\n      pop\n        /* \"#utility.yul\":6893:6897   */\n      dup1\n        /* \"#utility.yul\":6883:6891   */\n      dup7\n        /* \"#utility.yul\":6879:6898   */\n      and\n        /* \"#utility.yul\":6872:6877   */\n      dup5\n        /* \"#utility.yul\":6869:6899   */\n      or\n        /* \"#utility.yul\":6859:6899   */\n      swap3\n      pop\n        /* \"#utility.yul\":6588:6905   */\n      pop\n      pop\n        /* \"#utility.yul\":6512:6905   */\n      swap4\n      swap3\n      pop\n      pop\n      pop\n      jump\t// out\n        /* \"#utility.yul\":6911:6971   */\n    tag_57:\n        /* \"#utility.yul\":6939:6942   */\n      0x00\n        /* \"#utility.yul\":6960:6965   */\n      dup2\n        /* \"#utility.yul\":6953:6965   */\n      swap1\n      pop\n        /* \"#utility.yul\":6911:6971   */\n      swap2\n      swap1\n      pop\n      jump\t// out\n        /* \"#utility.yul\":6977:7119   */\n    tag_58:\n        /* \"#utility.yul\":7027:7036   */\n      0x00\n        /* \"#utility.yul\":7060:7113   */\n      tag_147\n        /* \"#utility.yul\":7078:7112   */\n      tag_148\n        /* \"#utility.yul\":7087:7111   */\n      tag_149\n        /* \"#utility.yul\":7105:7110   */\n      dup5\n        /* \"#utility.yul\":7087:7111   */\n      tag_32\n      jump\t// in\n    tag_149:\n        /* \"#utility.yul\":7078:7112   */\n      tag_57\n      jump\t// in\n    tag_148:\n        /* \"#utility.yul\":7060:7113   */\n      tag_32\n      jump\t// in\n    tag_147:\n        /* \"#utility.yul\":7047:7113   */\n      swap1\n      pop\n        /* \"#utility.yul\":6977:7119   */\n      swap2\n      swap1\n      pop\n      jump\t// out\n        /* \"#utility.yul\":7125:7200   */\n    tag_59:\n        /* \"#utility.yul\":7168:7171   */\n      0x00\n        /* \"#utility.yul\":7189:7194   */\n      dup2\n        /* \"#utility.yul\":7182:7194   */\n      swap1\n      pop\n        /* \"#utility.yul\":7125:7200   */\n      swap2\n      swap1\n      pop\n      jump\t// out\n        /* \"#utility.yul\":7206:7475   */\n    tag_60:\n        /* \"#utility.yul\":7316:7355   */\n      tag_152\n        /* \"#utility.yul\":7347:7354   */\n      dup4\n        /* \"#utility.yul\":7316:7355   */\n      tag_58\n      jump\t// in\n    tag_152:\n        /* \"#utility.yul\":7377:7468   */\n      tag_153\n        /* \"#utility.yul\":7426:7467   */\n      tag_154\n        /* \"#utility.yul\":7450:7466   */\n      dup3\n        /* \"#utility.yul\":7426:7467   */\n      tag_59\n      jump\t// in\n    tag_154:\n        /* \"#utility.yul\":7418:7424   */\n      dup5\n        /* \"#utility.yul\":7411:7415   */\n      dup5\n        /* \"#utility.yul\":7405:7416   */\n      sload\n        /* \"#utility.yul\":7377:7468   */\n      tag_56\n      jump\t// in\n    tag_153:\n        /* \"#utility.yul\":7371:7375   */\n      dup3\n        /* \"#utility.yul\":7364:7469   */\n      sstore\n        /* \"#utility.yul\":7282:7475   */\n      pop\n        /* \"#utility.yul\":7206:7475   */\n      pop\n      pop\n      pop\n      jump\t// out\n        /* \"#utility.yul\":7481:7554   */\n    tag_61:\n        /* \"#utility.yul\":7526:7529   */\n      0x00\n        /* \"#utility.yul\":7547:7548   */\n      0x00\n        /* \"#utility.yul\":7540:7548   */\n      swap1\n      pop\n        /* \"#utility.yul\":7481:7554   */\n      swap1\n      jump\t// out\n        /* \"#utility.yul\":7560:7749   */\n    tag_62:\n        /* \"#utility.yul\":7637:7669   */\n      tag_157\n      tag_61\n      jump\t// in\n    tag_157:\n        /* \"#utility.yul\":7678:7743   */\n      tag_158\n        /* \"#utility.yul\":7736:7742   */\n      dup2\n        /* \"#utility.yul\":7728:7734   */\n      dup5\n        /* \"#utility.yul\":7722:7726   */\n      dup5\n        /* \"#utility.yul\":7678:7743   */\n      tag_60\n      jump\t// in\n    tag_158:\n        /* \"#utility.yul\":7613:7749   */\n      pop\n        /* \"#utility.yul\":7560:7749   */\n      pop\n      pop\n      jump\t// out\n        /* \"#utility.yul\":7755:7969   */\n    tag_63:\n        /* \"#utility.yul\":7840:7841   */\n      0x00\n        /* \"#utility.yul\":7825:7963   */\n    tag_160:\n        /* \"#utility.yul\":7850:7859   */\n      dup3\n        /* \"#utility.yul\":7847:7848   */\n      dup2\n        /* \"#utility.yul\":7844:7860   */\n      lt\n        /* \"#utility.yul\":7825:7963   */\n      iszero\n      tag_162\n      jumpi\n        /* \"#utility.yul\":7902:7953   */\n      tag_163\n        /* \"#utility.yul\":7951:7952   */\n      0x00\n        /* \"#utility.yul\":7947:7948   */\n      dup3\n        /* \"#utility.yul\":7936:7945   */\n      dup5\n        /* \"#utility.yul\":7932:7949   */\n      add\n        /* \"#utility.yul\":7902:7953   */\n      tag_62\n      jump\t// in\n    tag_163:\n        /* \"#utility.yul\":7875:7876   */\n      0x01\n        /* \"#utility.yul\":7872:7873   */\n      dup2\n        /* \"#utility.yul\":7868:7877   */\n      add\n        /* \"#utility.yul\":7863:7877   */\n      swap1\n      pop\n        /* \"#utility.yul\":7825:7963   */\n      jump(tag_160)\n    tag_162:\n        /* \"#utility.yul\":7829:7843   */\n      pop\n        /* \"#utility.yul\":7755:7969   */\n      pop\n      pop\n      jump\t// out\n        /* \"#utility.yul\":7975:8721   */\n    tag_64:\n        /* \"#utility.yul\":8076:8078   */\n      0x1f\n        /* \"#utility.yul\":8071:8074   */\n      dup3\n        /* \"#utility.yul\":8068:8079   */\n      gt\n        /* \"#utility.yul\":8065:8714   */\n      iszero\n      tag_165\n      jumpi\n        /* \"#utility.yul\":8105:8115   */\n      dup3\n        /* \"#utility.yul\":8100:8103   */\n      dup3\n        /* \"#utility.yul\":8097:8116   */\n      gt\n        /* \"#utility.yul\":8094:8704   */\n      iszero\n      tag_166\n      jumpi\n        /* \"#utility.yul\":8151:8189   */\n      tag_167\n        /* \"#utility.yul\":8183:8188   */\n      dup2\n        /* \"#utility.yul\":8151:8189   */\n      tag_53\n      jump\t// in\n    tag_167:\n        /* \"#utility.yul\":8226:8248   */\n      tag_168\n        /* \"#utility.yul\":8244:8247   */\n      dup4\n        /* \"#utility.yul\":8226:8248   */\n      tag_54\n      jump\t// in\n    tag_168:\n        /* \"#utility.yul\":8285:8314   */\n      tag_169\n        /* \"#utility.yul\":8303:8313   */\n      dup6\n        /* \"#utility.yul\":8285:8314   */\n      tag_54\n      jump\t// in\n    tag_169:\n        /* \"#utility.yul\":8475:8477   */\n      0x20\n        /* \"#utility.yul\":8463:8473   */\n      dup7\n        /* \"#utility.yul\":8460:8478   */\n      lt\n        /* \"#utility.yul\":8457:8536   */\n      iszero\n      tag_170\n      jumpi\n        /* \"#utility.yul\":8517:8518   */\n      0x00\n        /* \"#utility.yul\":8501:8518   */\n      swap1\n      pop\n        /* \"#utility.yul\":8457:8536   */\n    tag_170:\n        /* \"#utility.yul\":8586:8598   */\n      dup1\n        /* \"#utility.yul\":8576:8584   */\n      dup4\n        /* \"#utility.yul\":8572:8599   */\n      add\n        /* \"#utility.yul\":8616:8690   */\n      tag_171\n        /* \"#utility.yul\":8676:8688   */\n      dup3\n        /* \"#utility.yul\":8662:8674   */\n      dup5\n        /* \"#utility.yul\":8658:8689   */\n      sub\n        /* \"#utility.yul\":8645:8656   */\n      dup3\n        /* \"#utility.yul\":8616:8690   */\n      tag_63\n      jump\t// in\n    tag_171:\n        /* \"#utility.yul\":8117:8704   */\n      pop\n      pop\n      pop\n      pop\n        /* \"#utility.yul\":8094:8704   */\n    tag_166:\n        /* \"#utility.yul\":8065:8714   */\n    tag_165:\n        /* \"#utility.yul\":7975:8721   */\n      pop\n      pop\n      pop\n      jump\t// out\n        /* \"#utility.yul\":8727:8844   */\n    tag_65:\n        /* \"#utility.yul\":8781:8789   */\n      0x00\n        /* \"#utility.yul\":8831:8836   */\n      dup3\n        /* \"#utility.yul\":8825:8829   */\n      dup3\n        /* \"#utility.yul\":8821:8837   */\n      shr\n        /* \"#utility.yul\":8800:8837   */\n      swap1\n      pop\n        /* \"#utility.yul\":8727:8844   */\n      swap3\n      swap2\n      pop\n      pop\n      jump\t// out\n        /* \"#utility.yul\":8850:9019   */\n    tag_66:\n        /* \"#utility.yul\":8894:8900   */\n      0x00\n        /* \"#utility.yul\":8927:8978   */\n      tag_174\n        /* \"#utility.yul\":8975:8976   */\n      0x00\n        /* \"#utility.yul\":8971:8977   */\n      not\n        /* \"#utility.yul\":8963:8968   */\n      dup5\n        /* \"#utility.yul\":8960:8961   */\n      0x08\n        /* \"#utility.yul\":8956:8969   */\n      mul\n        /* \"#utility.yul\":8927:8978   */\n      tag_65\n      jump\t// in\n    tag_174:\n        /* \"#utility.yul\":8923:8979   */\n      not\n        /* \"#utility.yul\":9008:9012   */\n      dup1\n        /* \"#utility.yul\":9002:9006   */\n      dup4\n        /* \"#utility.yul\":8998:9013   */\n      and\n        /* \"#utility.yul\":8988:9013   */\n      swap2\n      pop\n        /* \"#utility.yul\":8901:9019   */\n      pop\n        /* \"#utility.yul\":8850:9019   */\n      swap3\n      swap2\n      pop\n      pop\n      jump\t// out\n        /* \"#utility.yul\":9024:9319   */\n    tag_67:\n        /* \"#utility.yul\":9100:9104   */\n      0x00\n        /* \"#utility.yul\":9246:9275   */\n      tag_176\n        /* \"#utility.yul\":9271:9274   */\n      dup4\n        /* \"#utility.yul\":9265:9269   */\n      dup4\n        /* \"#utility.yul\":9246:9275   */\n      tag_66\n      jump\t// in\n    tag_176:\n        /* \"#utility.yul\":9238:9275   */\n      swap2\n      pop\n        /* \"#utility.yul\":9308:9311   */\n      dup3\n        /* \"#utility.yul\":9305:9306   */\n      0x02\n        /* \"#utility.yul\":9301:9312   */\n      mul\n        /* \"#utility.yul\":9295:9299   */\n      dup3\n        /* \"#utility.yul\":9292:9313   */\n      or\n        /* \"#utility.yul\":9284:9313   */\n      swap1\n      pop\n        /* \"#utility.yul\":9024:9319   */\n      swap3\n      swap2\n      pop\n      pop\n      jump\t// out\n        /* \"#utility.yul\":9324:10719   */\n    tag_20:\n        /* \"#utility.yul\":9441:9478   */\n      tag_178\n        /* \"#utility.yul\":9474:9477   */\n      dup3\n        /* \"#utility.yul\":9441:9478   */\n      tag_27\n      jump\t// in\n    tag_178:\n        /* \"#utility.yul\":9543:9561   */\n      0xffffffffffffffff\n        /* \"#utility.yul\":9535:9541   */\n      dup2\n        /* \"#utility.yul\":9532:9562   */\n      gt\n        /* \"#utility.yul\":9529:9585   */\n      iszero\n      tag_179\n      jumpi\n        /* \"#utility.yul\":9565:9583   */\n      tag_180\n      tag_41\n      jump\t// in\n    tag_180:\n        /* \"#utility.yul\":9529:9585   */\n    tag_179:\n        /* \"#utility.yul\":9609:9647   */\n      tag_181\n        /* \"#utility.yul\":9641:9645   */\n      dup3\n        /* \"#utility.yul\":9635:9646   */\n      sload\n        /* \"#utility.yul\":9609:9647   */\n      tag_22\n      jump\t// in\n    tag_181:\n        /* \"#utility.yul\":9694:9761   */\n      tag_182\n        /* \"#utility.yul\":9754:9760   */\n      dup3\n        /* \"#utility.yul\":9746:9752   */\n      dup3\n        /* \"#utility.yul\":9740:9744   */\n      dup6\n        /* \"#utility.yul\":9694:9761   */\n      tag_64\n      jump\t// in\n    tag_182:\n        /* \"#utility.yul\":9788:9789   */\n      0x00\n        /* \"#utility.yul\":9812:9816   */\n      0x20\n        /* \"#utility.yul\":9799:9816   */\n      swap1\n      pop\n        /* \"#utility.yul\":9844:9846   */\n      0x1f\n        /* \"#utility.yul\":9836:9842   */\n      dup4\n        /* \"#utility.yul\":9833:9847   */\n      gt\n        /* \"#utility.yul\":9861:9862   */\n      0x01\n        /* \"#utility.yul\":9856:10474   */\n      dup2\n      eq\n      tag_184\n      jumpi\n        /* \"#utility.yul\":10518:10519   */\n      0x00\n        /* \"#utility.yul\":10535:10541   */\n      dup5\n        /* \"#utility.yul\":10532:10609   */\n      iszero\n      tag_185\n      jumpi\n        /* \"#utility.yul\":10584:10593   */\n      dup3\n        /* \"#utility.yul\":10579:10582   */\n      dup8\n        /* \"#utility.yul\":10575:10594   */\n      add\n        /* \"#utility.yul\":10569:10595   */\n      mload\n        /* \"#utility.yul\":10560:10595   */\n      swap1\n      pop\n        /* \"#utility.yul\":10532:10609   */\n    tag_185:\n        /* \"#utility.yul\":10635:10702   */\n      tag_186\n        /* \"#utility.yul\":10695:10701   */\n      dup6\n        /* \"#utility.yul\":10688:10693   */\n      dup3\n        /* \"#utility.yul\":10635:10702   */\n      tag_67\n      jump\t// in\n    tag_186:\n        /* \"#utility.yul\":10629:10633   */\n      dup7\n        /* \"#utility.yul\":10622:10703   */\n      sstore\n        /* \"#utility.yul\":10491:10713   */\n      pop\n        /* \"#utility.yul\":9826:10713   */\n      jump(tag_183)\n        /* \"#utility.yul\":9856:10474   */\n    tag_184:\n        /* \"#utility.yul\":9908:9912   */\n      0x1f\n        /* \"#utility.yul\":9904:9913   */\n      not\n        /* \"#utility.yul\":9896:9902   */\n      dup5\n        /* \"#utility.yul\":9892:9914   */\n      and\n        /* \"#utility.yul\":9942:9979   */\n      tag_187\n        /* \"#utility.yul\":9974:9978   */\n      dup7\n        /* \"#utility.yul\":9942:9979   */\n      tag_53\n      jump\t// in\n    tag_187:\n        /* \"#utility.yul\":10001:10002   */\n      0x00\n        /* \"#utility.yul\":10015:10223   */\n    tag_188:\n        /* \"#utility.yul\":10029:10036   */\n      dup3\n        /* \"#utility.yul\":10026:10027   */\n      dup2\n        /* \"#utility.yul\":10023:10037   */\n      lt\n        /* \"#utility.yul\":10015:10223   */\n      iszero\n      tag_190\n      jumpi\n        /* \"#utility.yul\":10108:10117   */\n      dup5\n        /* \"#utility.yul\":10103:10106   */\n      dup10\n        /* \"#utility.yul\":10099:10118   */\n      add\n        /* \"#utility.yul\":10093:10119   */\n      mload\n        /* \"#utility.yul\":10085:10091   */\n      dup3\n        /* \"#utility.yul\":10078:10120   */\n      sstore\n        /* \"#utility.yul\":10159:10160   */\n      0x01\n        /* \"#utility.yul\":10151:10157   */\n      dup3\n        /* \"#utility.yul\":10147:10161   */\n      add\n        /* \"#utility.yul\":10137:10161   */\n      swap2\n      pop\n        /* \"#utility.yul\":10206:10208   */\n      0x20\n        /* \"#utility.yul\":10195:10204   */\n      dup6\n        /* \"#utility.yul\":10191:10209   */\n      add\n        /* \"#utility.yul\":10178:10209   */\n      swap5\n      pop\n        /* \"#utility.yul\":10052:10056   */\n      0x20\n        /* \"#utility.yul\":10049:10050   */\n      dup2\n        /* \"#utility.yul\":10045:10057   */\n      add\n        /* \"#utility.yul\":10040:10057   */\n      swap1\n      pop\n        /* \"#utility.yul\":10015:10223   */\n      jump(tag_188)\n    tag_190:\n        /* \"#utility.yul\":10251:10257   */\n      dup7\n        /* \"#utility.yul\":10242:10249   */\n      dup4\n        /* \"#utility.yul\":10239:10258   */\n      lt\n        /* \"#utility.yul\":10236:10415   */\n      iszero\n      tag_191\n      jumpi\n        /* \"#utility.yul\":10309:10318   */\n      dup5\n        /* \"#utility.yul\":10304:10307   */\n      dup10\n        /* \"#utility.yul\":10300:10319   */\n      add\n        /* \"#utility.yul\":10294:10320   */\n      mload\n        /* \"#utility.yul\":10352:10400   */\n      tag_192\n        /* \"#utility.yul\":10394:10398   */\n      0x1f\n        /* \"#utility.yul\":10386:10392   */\n      dup10\n        /* \"#utility.yul\":10382:10399   */\n      and\n        /* \"#utility.yul\":10371:10380   */\n      dup3\n        /* \"#utility.yul\":10352:10400   */\n      tag_66\n      jump\t// in\n    tag_192:\n        /* \"#utility.yul\":10344:10350   */\n      dup4\n        /* \"#utility.yul\":10337:10401   */\n      sstore\n        /* \"#utility.yul\":10259:10415   */\n      pop\n        /* \"#utility.yul\":10236:10415   */\n    tag_191:\n        /* \"#utility.yul\":10461:10462   */\n      0x01\n        /* \"#utility.yul\":10457:10458   */\n      0x02\n        /* \"#utility.yul\":10449:10455   */\n      dup9\n        /* \"#utility.yul\":10445:10459   */\n      mul\n        /* \"#utility.yul\":10441:10463   */\n      add\n        /* \"#utility.yul\":10435:10439   */\n      dup9\n        /* \"#utility.yul\":10428:10464   */\n      sstore\n        /* \"#utility.yul\":9863:10474   */\n      pop\n      pop\n      pop\n        /* \"#utility.yul\":9826:10713   */\n    tag_183:\n      pop\n        /* \"#utility.yul\":9416:10719   */\n      pop\n      pop\n      pop\n        /* \"#utility.yul\":9324:10719   */\n      pop\n      pop\n      jump\t// out\n\n    auxdata: 0xa26469706673582212205ec4c2d4f9bf8e04d9ab1390e422b7133e6ea3a8358dfa805ac8902973b0c4a364736f6c63430008220033\n}\n",
				"bytecode": {
					"linkReferences": {},
					"object": "6080604052348015600e575f5ffd5b5061080d8061001c5f395ff3fe608060405234801561000f575f5ffd5b506004361061003f575f3560e01c80633ed97dcb146100435780638613239914610063578063e80c3f131461007f575b5f5ffd5b61004b61009f565b60405161005a939291906102c1565b60405180910390f35b61007d6004803603810190610078919061048e565b610114565b005b610087610177565b604051610096939291906102c1565b60405180910390f35b60605f5f5f60405180606001604052806040518060400160405280600581526020017f416c696365000000000000000000000000000000000000000000000000000000815250815260200160198152602001600115158152509050805f01518160200151826040015193509350935050909192565b60405180606001604052808481526020018381526020018215158152505f5f820151815f0190816101459190610708565b50602082015181600101556040820151816002015f6101000a81548160ff021916908315150217905550905050505050565b5f805f01805461018690610527565b80601f01602080910402602001604051908101604052809291908181526020018280546101b290610527565b80156101fd5780601f106101d4576101008083540402835291602001916101fd565b820191905f5260205f20905b8154815290600101906020018083116101e057829003601f168201915b505050505090806001015490806002015f9054906101000a900460ff16905083565b5f81519050919050565b5f82825260208201905092915050565b8281835e5f83830152505050565b5f601f19601f8301169050919050565b5f6102618261021f565b61026b8185610229565b935061027b818560208601610239565b61028481610247565b840191505092915050565b5f819050919050565b6102a18161028f565b82525050565b5f8115159050919050565b6102bb816102a7565b82525050565b5f6060820190508181035f8301526102d98186610257565b90506102e86020830185610298565b6102f560408301846102b2565b949350505050565b5f604051905090565b5f5ffd5b5f5ffd5b5f5ffd5b5f5ffd5b7f4e487b71000000000000000000000000000000000000000000000000000000005f52604160045260245ffd5b61034c82610247565b810181811067ffffffffffffffff8211171561036b5761036a610316565b5b80604052505050565b5f61037d6102fd565b90506103898282610343565b919050565b5f67ffffffffffffffff8211156103a8576103a7610316565b5b6103b182610247565b9050602081019050919050565b828183375f83830152505050565b5f6103de6103d98461038e565b610374565b9050828152602081018484840111156103fa576103f9610312565b5b6104058482856103be565b509392505050565b5f82601f8301126104215761042061030e565b5b81356104318482602086016103cc565b91505092915050565b6104438161028f565b811461044d575f5ffd5b50565b5f8135905061045e8161043a565b92915050565b61046d816102a7565b8114610477575f5ffd5b50565b5f8135905061048881610464565b92915050565b5f5f5f606084860312156104a5576104a4610306565b5b5f84013567ffffffffffffffff8111156104c2576104c161030a565b5b6104ce8682870161040d565b93505060206104df86828701610450565b92505060406104f08682870161047a565b9150509250925092565b7f4e487b71000000000000000000000000000000000000000000000000000000005f52602260045260245ffd5b5f600282049050600182168061053e57607f821691505b602082108103610551576105506104fa565b5b50919050565b5f819050815f5260205f209050919050565b5f6020601f8301049050919050565b5f82821b905092915050565b5f600883026105b37fffffffffffffffffffffffffffffffffffffffffffffffffffffffffffffffff82610578565b6105bd8683610578565b95508019841693508086168417925050509392505050565b5f819050919050565b5f6105f86105f36105ee8461028f565b6105d5565b61028f565b9050919050565b5f819050919050565b610611836105de565b61062561061d826105ff565b848454610584565b825550505050565b5f5f905090565b61063c61062d565b610647818484610608565b505050565b5f5b8281101561066d576106625f828401610634565b60018101905061064e565b505050565b601f8211156106c057828211156106bf5761068c81610557565b61069583610569565b61069e85610569565b60208610156106ab575f90505b8083016106ba8284038261064c565b505050505b5b505050565b5f82821c905092915050565b5f6106e05f19846008026106c5565b1980831691505092915050565b5f6106f883836106d1565b9150826002028217905092915050565b6107118261021f565b67ffffffffffffffff81111561072a57610729610316565b5b6107348254610527565b61073f828285610672565b5f60209050601f831160018114610770575f841561075e578287015190505b61076885826106ed565b8655506107cf565b601f19841661077e86610557565b5f5b828110156107a557848901518255600182019150602085019450602081019050610780565b868310156107c257848901516107be601f8916826106d1565b8355505b6001600288020188555050505b50505050505056fea26469706673582212205ec4c2d4f9bf8e04d9ab1390e422b7133e6ea3a8358dfa805ac8902973b0c4a364736f6c63430008220033",
					"opcodes": "PUSH1 0x80 PUSH1 0x40 MSTORE CALLVALUE DUP1 ISZERO PUSH1 0xE JUMPI PUSH0 PUSH0 REVERT JUMPDEST POP PUSH2 0x80D DUP1 PUSH2 0x1C PUSH0 CODECOPY PUSH0 RETURN INVALID PUSH1 0x80 PUSH1 0x40 MSTORE CALLVALUE DUP1 ISZERO PUSH2 0xF JUMPI PUSH0 PUSH0 REVERT JUMPDEST POP PUSH1 0x4 CALLDATASIZE LT PUSH2 0x3F JUMPI PUSH0 CALLDATALOAD PUSH1 0xE0 SHR DUP1 PUSH4 0x3ED97DCB EQ PUSH2 0x43 JUMPI DUP1 PUSH4 0x86132399 EQ PUSH2 0x63 JUMPI DUP1 PUSH4 0xE80C3F13 EQ PUSH2 0x7F JUMPI JUMPDEST PUSH0 PUSH0 REVERT JUMPDEST PUSH2 0x4B PUSH2 0x9F JUMP JUMPDEST PUSH1 0x40 MLOAD PUSH2 0x5A SWAP4 SWAP3 SWAP2 SWAP1 PUSH2 0x2C1 JUMP JUMPDEST PUSH1 0x40 MLOAD DUP1 SWAP2 SUB SWAP1 RETURN JUMPDEST PUSH2 0x7D PUSH1 0x4 DUP1 CALLDATASIZE SUB DUP2 ADD SWAP1 PUSH2 0x78 SWAP2 SWAP1 PUSH2 0x48E JUMP JUMPDEST PUSH2 0x114 JUMP JUMPDEST STOP JUMPDEST PUSH2 0x87 PUSH2 0x177 JUMP JUMPDEST PUSH1 0x40 MLOAD PUSH2 0x96 SWAP4 SWAP3 SWAP2 SWAP1 PUSH2 0x2C1 JUMP JUMPDEST PUSH1 0x40 MLOAD DUP1 SWAP2 SUB SWAP1 RETURN JUMPDEST PUSH1 0x60 PUSH0 PUSH0 PUSH0 PUSH1 0x40 MLOAD DUP1 PUSH1 0x60 ADD PUSH1 0x40 MSTORE DUP1 PUSH1 0x40 MLOAD DUP1 PUSH1 0x40 ADD PUSH1 0x40 MSTORE DUP1 PUSH1 0x5 DUP2 MSTORE PUSH1 0x20 ADD PUSH32 0x416C696365000000000000000000000000000000000000000000000000000000 DUP2 MSTORE POP DUP2 MSTORE PUSH1 0x20 ADD PUSH1 0x19 DUP2 MSTORE PUSH1 0x20 ADD PUSH1 0x1 ISZERO ISZERO DUP2 MSTORE POP SWAP1 POP DUP1 PUSH0 ADD MLOAD DUP2 PUSH1 0x20 ADD MLOAD DUP3 PUSH1 0x40 ADD MLOAD SWAP4 POP SWAP4 POP SWAP4 POP POP SWAP1 SWAP2 SWAP3 JUMP JUMPDEST PUSH1 0x40 MLOAD DUP1 PUSH1 0x60 ADD PUSH1 0x40 MSTORE DUP1 DUP5 DUP2 MSTORE PUSH1 0x20 ADD DUP4 DUP2 MSTORE PUSH1 0x20 ADD DUP3 ISZERO ISZERO DUP2 MSTORE POP PUSH0 PUSH0 DUP3 ADD MLOAD DUP2 PUSH0 ADD SWAP1 DUP2 PUSH2 0x145 SWAP2 SWAP1 PUSH2 0x708 JUMP JUMPDEST POP PUSH1 0x20 DUP3 ADD MLOAD DUP2 PUSH1 0x1 ADD SSTORE PUSH1 0x40 DUP3 ADD MLOAD DUP2 PUSH1 0x2 ADD PUSH0 PUSH2 0x100 EXP DUP2 SLOAD DUP2 PUSH1 0xFF MUL NOT AND SWAP1 DUP4 ISZERO ISZERO MUL OR SWAP1 SSTORE POP SWAP1 POP POP POP POP POP JUMP JUMPDEST PUSH0 DUP1 PUSH0 ADD DUP1 SLOAD PUSH2 0x186 SWAP1 PUSH2 0x527 JUMP JUMPDEST DUP1 PUSH1 0x1F ADD PUSH1 0x20 DUP1 SWAP2 DIV MUL PUSH1 0x20 ADD PUSH1 0x40 MLOAD SWAP1 DUP2 ADD PUSH1 0x40 MSTORE DUP1 SWAP3 SWAP2 SWAP1 DUP2 DUP2 MSTORE PUSH1 0x20 ADD DUP3 DUP1 SLOAD PUSH2 0x1B2 SWAP1 PUSH2 0x527 JUMP JUMPDEST DUP1 ISZERO PUSH2 0x1FD JUMPI DUP1 PUSH1 0x1F LT PUSH2 0x1D4 JUMPI PUSH2 0x100 DUP1 DUP4 SLOAD DIV MUL DUP4 MSTORE SWAP2 PUSH1 0x20 ADD SWAP2 PUSH2 0x1FD JUMP JUMPDEST DUP3 ADD SWAP2 SWAP1 PUSH0 MSTORE PUSH1 0x20 PUSH0 KECCAK256 SWAP1 JUMPDEST DUP2 SLOAD DUP2 MSTORE SWAP1 PUSH1 0x1 ADD SWAP1 PUSH1 0x20 ADD DUP1 DUP4 GT PUSH2 0x1E0 JUMPI DUP3 SWAP1 SUB PUSH1 0x1F AND DUP3 ADD SWAP2 JUMPDEST POP POP POP POP POP SWAP1 DUP1 PUSH1 0x1 ADD SLOAD SWAP1 DUP1 PUSH1 0x2 ADD PUSH0 SWAP1 SLOAD SWAP1 PUSH2 0x100 EXP SWAP1 DIV PUSH1 0xFF AND SWAP1 POP DUP4 JUMP JUMPDEST PUSH0 DUP2 MLOAD SWAP1 POP SWAP2 SWAP1 POP JUMP JUMPDEST PUSH0 DUP3 DUP3 MSTORE PUSH1 0x20 DUP3 ADD SWAP1 POP SWAP3 SWAP2 POP POP JUMP JUMPDEST DUP3 DUP2 DUP4 MCOPY PUSH0 DUP4 DUP4 ADD MSTORE POP POP POP JUMP JUMPDEST PUSH0 PUSH1 0x1F NOT PUSH1 0x1F DUP4 ADD AND SWAP1 POP SWAP2 SWAP1 POP JUMP JUMPDEST PUSH0 PUSH2 0x261 DUP3 PUSH2 0x21F JUMP JUMPDEST PUSH2 0x26B DUP2 DUP6 PUSH2 0x229 JUMP JUMPDEST SWAP4 POP PUSH2 0x27B DUP2 DUP6 PUSH1 0x20 DUP7 ADD PUSH2 0x239 JUMP JUMPDEST PUSH2 0x284 DUP2 PUSH2 0x247 JUMP JUMPDEST DUP5 ADD SWAP2 POP POP SWAP3 SWAP2 POP POP JUMP JUMPDEST PUSH0 DUP2 SWAP1 POP SWAP2 SWAP1 POP JUMP JUMPDEST PUSH2 0x2A1 DUP2 PUSH2 0x28F JUMP JUMPDEST DUP3 MSTORE POP POP JUMP JUMPDEST PUSH0 DUP2 ISZERO ISZERO SWAP1 POP SWAP2 SWAP1 POP JUMP JUMPDEST PUSH2 0x2BB DUP2 PUSH2 0x2A7 JUMP JUMPDEST DUP3 MSTORE POP POP JUMP JUMPDEST PUSH0 PUSH1 0x60 DUP3 ADD SWAP1 POP DUP2 DUP2 SUB PUSH0 DUP4 ADD MSTORE PUSH2 0x2D9 DUP2 DUP7 PUSH2 0x257 JUMP JUMPDEST SWAP1 POP PUSH2 0x2E8 PUSH1 0x20 DUP4 ADD DUP6 PUSH2 0x298 JUMP JUMPDEST PUSH2 0x2F5 PUSH1 0x40 DUP4 ADD DUP5 PUSH2 0x2B2 JUMP JUMPDEST SWAP5 SWAP4 POP POP POP POP JUMP JUMPDEST PUSH0 PUSH1 0x40 MLOAD SWAP1 POP SWAP1 JUMP JUMPDEST PUSH0 PUSH0 REVERT JUMPDEST PUSH0 PUSH0 REVERT JUMPDEST PUSH0 PUSH0 REVERT JUMPDEST PUSH0 PUSH0 REVERT JUMPDEST PUSH32 0x4E487B7100000000000000000000000000000000000000000000000000000000 PUSH0 MSTORE PUSH1 0x41 PUSH1 0x4 MSTORE PUSH1 0x24 PUSH0 REVERT JUMPDEST PUSH2 0x34C DUP3 PUSH2 0x247 JUMP JUMPDEST DUP2 ADD DUP2 DUP2 LT PUSH8 0xFFFFFFFFFFFFFFFF DUP3 GT OR ISZERO PUSH2 0x36B JUMPI PUSH2 0x36A PUSH2 0x316 JUMP JUMPDEST JUMPDEST DUP1 PUSH1 0x40 MSTORE POP POP POP JUMP JUMPDEST PUSH0 PUSH2 0x37D PUSH2 0x2FD JUMP JUMPDEST SWAP1 POP PUSH2 0x389 DUP3 DUP3 PUSH2 0x343 JUMP JUMPDEST SWAP2 SWAP1 POP JUMP JUMPDEST PUSH0 PUSH8 0xFFFFFFFFFFFFFFFF DUP3 GT ISZERO PUSH2 0x3A8 JUMPI PUSH2 0x3A7 PUSH2 0x316 JUMP JUMPDEST JUMPDEST PUSH2 0x3B1 DUP3 PUSH2 0x247 JUMP JUMPDEST SWAP1 POP PUSH1 0x20 DUP2 ADD SWAP1 POP SWAP2 SWAP1 POP JUMP JUMPDEST DUP3 DUP2 DUP4 CALLDATACOPY PUSH0 DUP4 DUP4 ADD MSTORE POP POP POP JUMP JUMPDEST PUSH0 PUSH2 0x3DE PUSH2 0x3D9 DUP5 PUSH2 0x38E JUMP JUMPDEST PUSH2 0x374 JUMP JUMPDEST SWAP1 POP DUP3 DUP2 MSTORE PUSH1 0x20 DUP2 ADD DUP5 DUP5 DUP5 ADD GT ISZERO PUSH2 0x3FA JUMPI PUSH2 0x3F9 PUSH2 0x312 JUMP JUMPDEST JUMPDEST PUSH2 0x405 DUP5 DUP3 DUP6 PUSH2 0x3BE JUMP JUMPDEST POP SWAP4 SWAP3 POP POP POP JUMP JUMPDEST PUSH0 DUP3 PUSH1 0x1F DUP4 ADD SLT PUSH2 0x421 JUMPI PUSH2 0x420 PUSH2 0x30E JUMP JUMPDEST JUMPDEST DUP2 CALLDATALOAD PUSH2 0x431 DUP5 DUP3 PUSH1 0x20 DUP7 ADD PUSH2 0x3CC JUMP JUMPDEST SWAP2 POP POP SWAP3 SWAP2 POP POP JUMP JUMPDEST PUSH2 0x443 DUP2 PUSH2 0x28F JUMP JUMPDEST DUP2 EQ PUSH2 0x44D JUMPI PUSH0 PUSH0 REVERT JUMPDEST POP JUMP JUMPDEST PUSH0 DUP2 CALLDATALOAD SWAP1 POP PUSH2 0x45E DUP2 PUSH2 0x43A JUMP JUMPDEST SWAP3 SWAP2 POP POP JUMP JUMPDEST PUSH2 0x46D DUP2 PUSH2 0x2A7 JUMP JUMPDEST DUP2 EQ PUSH2 0x477 JUMPI PUSH0 PUSH0 REVERT JUMPDEST POP JUMP JUMPDEST PUSH0 DUP2 CALLDATALOAD SWAP1 POP PUSH2 0x488 DUP2 PUSH2 0x464 JUMP JUMPDEST SWAP3 SWAP2 POP POP JUMP JUMPDEST PUSH0 PUSH0 PUSH0 PUSH1 0x60 DUP5 DUP7 SUB SLT ISZERO PUSH2 0x4A5 JUMPI PUSH2 0x4A4 PUSH2 0x306 JUMP JUMPDEST JUMPDEST PUSH0 DUP5 ADD CALLDATALOAD PUSH8 0xFFFFFFFFFFFFFFFF DUP2 GT ISZERO PUSH2 0x4C2 JUMPI PUSH2 0x4C1 PUSH2 0x30A JUMP JUMPDEST JUMPDEST PUSH2 0x4CE DUP7 DUP3 DUP8 ADD PUSH2 0x40D JUMP JUMPDEST SWAP4 POP POP PUSH1 0x20 PUSH2 0x4DF DUP7 DUP3 DUP8 ADD PUSH2 0x450 JUMP JUMPDEST SWAP3 POP POP PUSH1 0x40 PUSH2 0x4F0 DUP7 DUP3 DUP8 ADD PUSH2 0x47A JUMP JUMPDEST SWAP2 POP POP SWAP3 POP SWAP3 POP SWAP3 JUMP JUMPDEST PUSH32 0x4E487B7100000000000000000000000000000000000000000000000000000000 PUSH0 MSTORE PUSH1 0x22 PUSH1 0x4 MSTORE PUSH1 0x24 PUSH0 REVERT JUMPDEST PUSH0 PUSH1 0x2 DUP3 DIV SWAP1 POP PUSH1 0x1 DUP3 AND DUP1 PUSH2 0x53E JUMPI PUSH1 0x7F DUP3 AND SWAP2 POP JUMPDEST PUSH1 0x20 DUP3 LT DUP2 SUB PUSH2 0x551 JUMPI PUSH2 0x550 PUSH2 0x4FA JUMP JUMPDEST JUMPDEST POP SWAP2 SWAP1 POP JUMP JUMPDEST PUSH0 DUP2 SWAP1 POP DUP2 PUSH0 MSTORE PUSH1 0x20 PUSH0 KECCAK256 SWAP1 POP SWAP2 SWAP1 POP JUMP JUMPDEST PUSH0 PUSH1 0x20 PUSH1 0x1F DUP4 ADD DIV SWAP1 POP SWAP2 SWAP1 POP JUMP JUMPDEST PUSH0 DUP3 DUP3 SHL SWAP1 POP SWAP3 SWAP2 POP POP JUMP JUMPDEST PUSH0 PUSH1 0x8 DUP4 MUL PUSH2 0x5B3 PUSH32 0xFFFFFFFFFFFFFFFFFFFFFFFFFFFFFFFFFFFFFFFFFFFFFFFFFFFFFFFFFFFFFFFF DUP3 PUSH2 0x578 JUMP JUMPDEST PUSH2 0x5BD DUP7 DUP4 PUSH2 0x578 JUMP JUMPDEST SWAP6 POP DUP1 NOT DUP5 AND SWAP4 POP DUP1 DUP7 AND DUP5 OR SWAP3 POP POP POP SWAP4 SWAP3 POP POP POP JUMP JUMPDEST PUSH0 DUP2 SWAP1 POP SWAP2 SWAP1 POP JUMP JUMPDEST PUSH0 PUSH2 0x5F8 PUSH2 0x5F3 PUSH2 0x5EE DUP5 PUSH2 0x28F JUMP JUMPDEST PUSH2 0x5D5 JUMP JUMPDEST PUSH2 0x28F JUMP JUMPDEST SWAP1 POP SWAP2 SWAP1 POP JUMP JUMPDEST PUSH0 DUP2 SWAP1 POP SWAP2 SWAP1 POP JUMP JUMPDEST PUSH2 0x611 DUP4 PUSH2 0x5DE JUMP JUMPDEST PUSH2 0x625 PUSH2 0x61D DUP3 PUSH2 0x5FF JUMP JUMPDEST DUP5 DUP5 SLOAD PUSH2 0x584 JUMP JUMPDEST DUP3 SSTORE POP POP POP POP JUMP JUMPDEST PUSH0 PUSH0 SWAP1 POP SWAP1 JUMP JUMPDEST PUSH2 0x63C PUSH2 0x62D JUMP JUMPDEST PUSH2 0x647 DUP2 DUP5 DUP5 PUSH2 0x608 JUMP JUMPDEST POP POP POP JUMP JUMPDEST PUSH0 JUMPDEST DUP3 DUP2 LT ISZERO PUSH2 0x66D JUMPI PUSH2 0x662 PUSH0 DUP3 DUP5 ADD PUSH2 0x634 JUMP JUMPDEST PUSH1 0x1 DUP2 ADD SWAP1 POP PUSH2 0x64E JUMP JUMPDEST POP POP POP JUMP JUMPDEST PUSH1 0x1F DUP3 GT ISZERO PUSH2 0x6C0 JUMPI DUP3 DUP3 GT ISZERO PUSH2 0x6BF JUMPI PUSH2 0x68C DUP2 PUSH2 0x557 JUMP JUMPDEST PUSH2 0x695 DUP4 PUSH2 0x569 JUMP JUMPDEST PUSH2 0x69E DUP6 PUSH2 0x569 JUMP JUMPDEST PUSH1 0x20 DUP7 LT ISZERO PUSH2 0x6AB JUMPI PUSH0 SWAP1 POP JUMPDEST DUP1 DUP4 ADD PUSH2 0x6BA DUP3 DUP5 SUB DUP3 PUSH2 0x64C JUMP JUMPDEST POP POP POP POP JUMPDEST JUMPDEST POP POP POP JUMP JUMPDEST PUSH0 DUP3 DUP3 SHR SWAP1 POP SWAP3 SWAP2 POP POP JUMP JUMPDEST PUSH0 PUSH2 0x6E0 PUSH0 NOT DUP5 PUSH1 0x8 MUL PUSH2 0x6C5 JUMP JUMPDEST NOT DUP1 DUP4 AND SWAP2 POP POP SWAP3 SWAP2 POP POP JUMP JUMPDEST PUSH0 PUSH2 0x6F8 DUP4 DUP4 PUSH2 0x6D1 JUMP JUMPDEST SWAP2 POP DUP3 PUSH1 0x2 MUL DUP3 OR SWAP1 POP SWAP3 SWAP2 POP POP JUMP JUMPDEST PUSH2 0x711 DUP3 PUSH2 0x21F JUMP JUMPDEST PUSH8 0xFFFFFFFFFFFFFFFF DUP2 GT ISZERO PUSH2 0x72A JUMPI PUSH2 0x729 PUSH2 0x316 JUMP JUMPDEST JUMPDEST PUSH2 0x734 DUP3 SLOAD PUSH2 0x527 JUMP JUMPDEST PUSH2 0x73F DUP3 DUP3 DUP6 PUSH2 0x672 JUMP JUMPDEST PUSH0 PUSH1 0x20 SWAP1 POP PUSH1 0x1F DUP4 GT PUSH1 0x1 DUP2 EQ PUSH2 0x770 JUMPI PUSH0 DUP5 ISZERO PUSH2 0x75E JUMPI DUP3 DUP8 ADD MLOAD SWAP1 POP JUMPDEST PUSH2 0x768 DUP6 DUP3 PUSH2 0x6ED JUMP JUMPDEST DUP7 SSTORE POP PUSH2 0x7CF JUMP JUMPDEST PUSH1 0x1F NOT DUP5 AND PUSH2 0x77E DUP7 PUSH2 0x557 JUMP JUMPDEST PUSH0 JUMPDEST DUP3 DUP2 LT ISZERO PUSH2 0x7A5 JUMPI DUP5 DUP10 ADD MLOAD DUP3 SSTORE PUSH1 0x1 DUP3 ADD SWAP2 POP PUSH1 0x20 DUP6 ADD SWAP5 POP PUSH1 0x20 DUP2 ADD SWAP1 POP PUSH2 0x780 JUMP JUMPDEST DUP7 DUP4 LT ISZERO PUSH2 0x7C2 JUMPI DUP5 DUP10 ADD MLOAD PUSH2 0x7BE PUSH1 0x1F DUP10 AND DUP3 PUSH2 0x6D1 JUMP JUMPDEST DUP4 SSTORE POP JUMPDEST PUSH1 0x1 PUSH1 0x2 DUP9 MUL ADD DUP9 SSTORE POP POP POP JUMPDEST POP POP POP POP POP POP JUMP INVALID LOG2 PUSH5 0x6970667358 0x22 SLT KECCAK256 MCOPY 0xC4 0xC2 0xD4 EXTDELEGATECALL 0xBF DUP15 DIV 0xD9 0xAB SGT SWAP1 RETF 0x22 0xB7 SGT RETURNDATACOPY PUSH15 0xA3A8358DFA805AC8902973B0C4A364 PUSH20 0x6F6C634300082200330000000000000000000000 "
				},
				"gasEstimates": {
					"creation": {
						"codeDepositCost": "412200",
						"executionCost": "447",
						"totalCost": "412647"
					},
					"external": {
						"createMemoryStruct()": "infinite",
						"storeUser(string,uint256,bool)": "infinite",
						"storedUser()": "infinite"
					}
				},
				"methodIdentifiers": {
					"createMemoryStruct()": "3ed97dcb",
					"storeUser(string,uint256,bool)": "86132399",
					"storedUser()": "e80c3f13"
				}
			},
			"storageLayout": {
				"storage": [
					{
						"astId": 11,
						"contract": "prac22.sol:MemoryStructExampleVul",
						"label": "storedUser",
						"offset": 0,
						"slot": "0",
						"type": "t_struct(User)8_storage"
					}
				],
				"types": {
					"t_bool": {
						"encoding": "inplace",
						"label": "bool",
						"numberOfBytes": "1"
					},
					"t_string_storage": {
						"encoding": "bytes",
						"label": "string",
						"numberOfBytes": "32"
					},
					"t_struct(User)8_storage": {
						"encoding": "inplace",
						"label": "struct MemoryStructExampleVul.User",
						"members": [
							{
								"astId": 3,
								"contract": "prac22.sol:MemoryStructExampleVul",
								"label": "name",
								"offset": 0,
								"slot": "0",
								"type": "t_string_storage"
							},
							{
								"astId": 5,
								"contract": "prac22.sol:MemoryStructExampleVul",
								"label": "age",
								"offset": 0,
								"slot": "1",
								"type": "t_uint256"
							},
							{
								"astId": 7,
								"contract": "prac22.sol:MemoryStructExampleVul",
								"label": "active",
								"offset": 0,
								"slot": "2",
								"type": "t_bool"
							}
						],
						"numberOfBytes": "96"
					},
					"t_uint256": {
						"encoding": "inplace",
						"label": "uint256",
						"numberOfBytes": "32"
					}
				}
			},
			"userdoc": {
				"kind": "user",
				"methods": {},
				"version": 1
			}
		}
	}
}