{
	"prac38.sol": {
		"TransactionAtomicity": {
			"abi": [
				{
					"inputs": [
						{
							"internalType": "address",
							"name": "",
							"type": "address"
						}
					],
					"name": "balances",
					"outputs": [
						{
							"internalType": "uint256",
							"name": "",
							"type": "uint256"
						}
					],
					"stateMutability": "view",
					"type": "function"
				},
				{
					"inputs": [
						{
							"internalType": "uint256",
							"name": "_amount",
							"type": "uint256"
						}
					],
					"name": "brokenExecution",
					"outputs": [],
					"stateMutability": "nonpayable",
					"type": "function"
				},
				{
					"inputs": [],
					"name": "globalCounter",
					"outputs": [
						{
							"internalType": "uint256",
							"name": "",
							"type": "uint256"
						}
					],
					"stateMutability": "view",
					"type": "function"
				},
				{
					"inputs": [
						{
							"internalType": "uint256",
							"name": "_amount",
							"type": "uint256"
						}
					],
					"name": "safeExecution",
					"outputs": [],
					"stateMutability": "nonpayable",
					"type": "function"
				}
			],
			"devdoc": {
				"kind": "dev",
				"methods": {},
				"version": 1
			},
			"evm": {
				"assembly": "    /* \"prac38.sol\":1793:3538  contract TransactionAtomicity {... */\n  mstore(0x40, 0x80)\n  callvalue\n  dup1\n  iszero\n  tag_1\n  jumpi\n  revert(0x00, 0x00)\ntag_1:\n  pop\n  dataSize(sub_0)\n  dup1\n  dataOffset(sub_0)\n  0x00\n  codecopy\n  0x00\n  return\nstop\n\nsub_0: assembly {\n        /* \"prac38.sol\":1793:3538  contract TransactionAtomicity {... */\n      mstore(0x40, 0x80)\n      callvalue\n      dup1\n      iszero\n      tag_1\n      jumpi\n      revert(0x00, 0x00)\n    tag_1:\n      pop\n      jumpi(tag_2, lt(calldatasize, 0x04))\n      shr(0xe0, calldataload(0x00))\n      dup1\n      0x27e235e3\n      eq\n      tag_3\n      jumpi\n      dup1\n      0x3879aa81\n      eq\n      tag_4\n      jumpi\n      dup1\n      0x52091824\n      eq\n      tag_5\n      jumpi\n      dup1\n      0xd396a7a9\n      eq\n      tag_6\n      jumpi\n    tag_2:\n      revert(0x00, 0x00)\n        /* \"prac38.sol\":1961:2004  mapping(address => uint256) public balances */\n    tag_3:\n      tag_7\n      0x04\n      dup1\n      calldatasize\n      sub\n      dup2\n      add\n      swap1\n      tag_8\n      swap2\n      swap1\n      tag_9\n      jump\t// in\n    tag_8:\n      tag_10\n      jump\t// in\n    tag_7:\n      mload(0x40)\n      tag_11\n      swap2\n      swap1\n      tag_12\n      jump\t// in\n    tag_11:\n      mload(0x40)\n      dup1\n      swap2\n      sub\n      swap1\n      return\n        /* \"prac38.sol\":3085:3535  function safeExecution(... */\n    tag_4:\n      tag_13\n      0x04\n      dup1\n      calldatasize\n      sub\n      dup2\n      add\n      swap1\n      tag_14\n      swap2\n      swap1\n      tag_15\n      jump\t// in\n    tag_14:\n      tag_16\n      jump\t// in\n    tag_13:\n      stop\n        /* \"prac38.sol\":2186:2896  function brokenExecution(... */\n    tag_5:\n      tag_17\n      0x04\n      dup1\n      calldatasize\n      sub\n      dup2\n      add\n      swap1\n      tag_18\n      swap2\n      swap1\n      tag_15\n      jump\t// in\n    tag_18:\n      tag_19\n      jump\t// in\n    tag_17:\n      stop\n        /* \"prac38.sol\":1924:1952  uint256 public globalCounter */\n    tag_6:\n      tag_20\n      tag_21\n      jump\t// in\n    tag_20:\n      mload(0x40)\n      tag_22\n      swap2\n      swap1\n      tag_12\n      jump\t// in\n    tag_22:\n      mload(0x40)\n      dup1\n      swap2\n      sub\n      swap1\n      return\n        /* \"prac38.sol\":1961:2004  mapping(address => uint256) public balances */\n    tag_10:\n      mstore(0x20, 0x01)\n      dup1\n      0x00\n      mstore\n      keccak256(0x00, 0x40)\n      0x00\n      swap2\n      pop\n      swap1\n      pop\n      sload\n      dup2\n      jump\t// out\n        /* \"prac38.sol\":3085:3535  function safeExecution(... */\n    tag_16:\n        /* \"prac38.sol\":3271:3272  5 */\n      0x05\n        /* \"prac38.sol\":3260:3267  _amount */\n      dup2\n        /* \"prac38.sol\":3260:3272  _amount <= 5 */\n      gt\n      iszero\n        /* \"prac38.sol\":3238:3316  require(... */\n      tag_24\n      jumpi\n      mload(0x40)\n      0x08c379a000000000000000000000000000000000000000000000000000000000\n      dup2\n      mstore\n      0x04\n      add\n      tag_25\n      swap1\n      tag_26\n      jump\t// in\n    tag_25:\n      mload(0x40)\n      dup1\n      swap2\n      sub\n      swap1\n      revert\n    tag_24:\n        /* \"prac38.sol\":3441:3448  _amount */\n      dup1\n        /* \"prac38.sol\":3425:3438  globalCounter */\n      sload(0x00)\n        /* \"prac38.sol\":3425:3448  globalCounter + _amount */\n      tag_27\n      swap2\n      swap1\n      tag_28\n      jump\t// in\n    tag_27:\n        /* \"prac38.sol\":3396:3409  globalCounter */\n      0x00\n        /* \"prac38.sol\":3396:3448  globalCounter =... */\n      dup2\n      swap1\n      sstore\n      pop\n        /* \"prac38.sol\":3520:3527  _amount */\n      dup1\n        /* \"prac38.sol\":3497:3505  balances */\n      0x01\n        /* \"prac38.sol\":3497:3517  balances[msg.sender] */\n      0x00\n        /* \"prac38.sol\":3506:3516  msg.sender */\n      caller\n        /* \"prac38.sol\":3497:3517  balances[msg.sender] */\n      0xffffffffffffffffffffffffffffffffffffffff\n      and\n      0xffffffffffffffffffffffffffffffffffffffff\n      and\n      dup2\n      mstore\n      0x20\n      add\n      swap1\n      dup2\n      mstore\n      0x20\n      add\n      0x00\n      keccak256\n      sload\n        /* \"prac38.sol\":3497:3527  balances[msg.sender] + _amount */\n      tag_29\n      swap2\n      swap1\n      tag_28\n      jump\t// in\n    tag_29:\n        /* \"prac38.sol\":3461:3469  balances */\n      0x01\n        /* \"prac38.sol\":3461:3481  balances[msg.sender] */\n      0x00\n        /* \"prac38.sol\":3470:3480  msg.sender */\n      caller\n        /* \"prac38.sol\":3461:3481  balances[msg.sender] */\n      0xffffffffffffffffffffffffffffffffffffffff\n      and\n      0xffffffffffffffffffffffffffffffffffffffff\n      and\n      dup2\n      mstore\n      0x20\n      add\n      swap1\n      dup2\n      mstore\n      0x20\n      add\n      0x00\n      keccak256\n        /* \"prac38.sol\":3461:3527  balances[msg.sender] =... */\n      dup2\n      swap1\n      sstore\n      pop\n        /* \"prac38.sol\":3085:3535  function safeExecution(... */\n      pop\n      jump\t// out\n        /* \"prac38.sol\":2186:2896  function brokenExecution(... */\n    tag_19:\n        /* \"prac38.sol\":2444:2451  _amount */\n      dup1\n        /* \"prac38.sol\":2428:2441  globalCounter */\n      sload(0x00)\n        /* \"prac38.sol\":2428:2451  globalCounter + _amount */\n      tag_31\n      swap2\n      swap1\n      tag_28\n      jump\t// in\n    tag_31:\n        /* \"prac38.sol\":2399:2412  globalCounter */\n      0x00\n        /* \"prac38.sol\":2399:2451  globalCounter =... */\n      dup2\n      swap1\n      sstore\n      pop\n        /* \"prac38.sol\":2640:2647  _amount */\n      dup1\n        /* \"prac38.sol\":2617:2625  balances */\n      0x01\n        /* \"prac38.sol\":2617:2637  balances[msg.sender] */\n      0x00\n        /* \"prac38.sol\":2626:2636  msg.sender */\n      caller\n        /* \"prac38.sol\":2617:2637  balances[msg.sender] */\n      0xffffffffffffffffffffffffffffffffffffffff\n      and\n      0xffffffffffffffffffffffffffffffffffffffff\n      and\n      dup2\n      mstore\n      0x20\n      add\n      swap1\n      dup2\n      mstore\n      0x20\n      add\n      0x00\n      keccak256\n      sload\n        /* \"prac38.sol\":2617:2647  balances[msg.sender] + _amount */\n      tag_32\n      swap2\n      swap1\n      tag_28\n      jump\t// in\n    tag_32:\n        /* \"prac38.sol\":2581:2589  balances */\n      0x01\n        /* \"prac38.sol\":2581:2601  balances[msg.sender] */\n      0x00\n        /* \"prac38.sol\":2590:2600  msg.sender */\n      caller\n        /* \"prac38.sol\":2581:2601  balances[msg.sender] */\n      0xffffffffffffffffffffffffffffffffffffffff\n      and\n      0xffffffffffffffffffffffffffffffffffffffff\n      and\n      dup2\n      mstore\n      0x20\n      add\n      swap1\n      dup2\n      mstore\n      0x20\n      add\n      0x00\n      keccak256\n        /* \"prac38.sol\":2581:2647  balances[msg.sender] =... */\n      dup2\n      swap1\n      sstore\n      pop\n        /* \"prac38.sol\":2843:2844  5 */\n      0x05\n        /* \"prac38.sol\":2832:2839  _amount */\n      dup2\n        /* \"prac38.sol\":2832:2844  _amount <= 5 */\n      gt\n      iszero\n        /* \"prac38.sol\":2810:2888  require(... */\n      tag_33\n      jumpi\n      mload(0x40)\n      0x08c379a000000000000000000000000000000000000000000000000000000000\n      dup2\n      mstore\n      0x04\n      add\n      tag_34\n      swap1\n      tag_26\n      jump\t// in\n    tag_34:\n      mload(0x40)\n      dup1\n      swap2\n      sub\n      swap1\n      revert\n    tag_33:\n        /* \"prac38.sol\":2186:2896  function brokenExecution(... */\n      pop\n      jump\t// out\n        /* \"prac38.sol\":1924:1952  uint256 public globalCounter */\n    tag_21:\n      sload(0x00)\n      dup2\n      jump\t// out\n        /* \"#utility.yul\":88:205   */\n    tag_36:\n        /* \"#utility.yul\":197:198   */\n      0x00\n        /* \"#utility.yul\":194:195   */\n      0x00\n        /* \"#utility.yul\":187:199   */\n      revert\n        /* \"#utility.yul\":334:460   */\n    tag_38:\n        /* \"#utility.yul\":371:378   */\n      0x00\n        /* \"#utility.yul\":411:453   */\n      0xffffffffffffffffffffffffffffffffffffffff\n        /* \"#utility.yul\":404:409   */\n      dup3\n        /* \"#utility.yul\":400:454   */\n      and\n        /* \"#utility.yul\":389:454   */\n      swap1\n      pop\n        /* \"#utility.yul\":334:460   */\n      swap2\n      swap1\n      pop\n      jump\t// out\n        /* \"#utility.yul\":466:562   */\n    tag_39:\n        /* \"#utility.yul\":503:510   */\n      0x00\n        /* \"#utility.yul\":532:556   */\n      tag_56\n        /* \"#utility.yul\":550:555   */\n      dup3\n        /* \"#utility.yul\":532:556   */\n      tag_38\n      jump\t// in\n    tag_56:\n        /* \"#utility.yul\":521:556   */\n      swap1\n      pop\n        /* \"#utility.yul\":466:562   */\n      swap2\n      swap1\n      pop\n      jump\t// out\n        /* \"#utility.yul\":568:690   */\n    tag_40:\n        /* \"#utility.yul\":641:665   */\n      tag_58\n        /* \"#utility.yul\":659:664   */\n      dup2\n        /* \"#utility.yul\":641:665   */\n      tag_39\n      jump\t// in\n    tag_58:\n        /* \"#utility.yul\":634:639   */\n      dup2\n        /* \"#utility.yul\":631:666   */\n      eq\n        /* \"#utility.yul\":621:684   */\n      tag_59\n      jumpi\n        /* \"#utility.yul\":680:681   */\n      0x00\n        /* \"#utility.yul\":677:678   */\n      0x00\n        /* \"#utility.yul\":670:682   */\n      revert\n        /* \"#utility.yul\":621:684   */\n    tag_59:\n        /* \"#utility.yul\":568:690   */\n      pop\n      jump\t// out\n        /* \"#utility.yul\":696:835   */\n    tag_41:\n        /* \"#utility.yul\":742:747   */\n      0x00\n        /* \"#utility.yul\":780:786   */\n      dup2\n        /* \"#utility.yul\":767:787   */\n      calldataload\n        /* \"#utility.yul\":758:787   */\n      swap1\n      pop\n        /* \"#utility.yul\":796:829   */\n      tag_61\n        /* \"#utility.yul\":823:828   */\n      dup2\n        /* \"#utility.yul\":796:829   */\n      tag_40\n      jump\t// in\n    tag_61:\n        /* \"#utility.yul\":696:835   */\n      swap3\n      swap2\n      pop\n      pop\n      jump\t// out\n        /* \"#utility.yul\":841:1170   */\n    tag_9:\n        /* \"#utility.yul\":900:906   */\n      0x00\n        /* \"#utility.yul\":949:951   */\n      0x20\n        /* \"#utility.yul\":937:946   */\n      dup3\n        /* \"#utility.yul\":928:935   */\n      dup5\n        /* \"#utility.yul\":924:947   */\n      sub\n        /* \"#utility.yul\":920:952   */\n      slt\n        /* \"#utility.yul\":917:1036   */\n      iszero\n      tag_63\n      jumpi\n        /* \"#utility.yul\":955:1034   */\n      tag_64\n      tag_36\n      jump\t// in\n    tag_64:\n        /* \"#utility.yul\":917:1036   */\n    tag_63:\n        /* \"#utility.yul\":1075:1076   */\n      0x00\n        /* \"#utility.yul\":1100:1153   */\n      tag_65\n        /* \"#utility.yul\":1145:1152   */\n      dup5\n        /* \"#utility.yul\":1136:1142   */\n      dup3\n        /* \"#utility.yul\":1125:1134   */\n      dup6\n        /* \"#utility.yul\":1121:1143   */\n      add\n        /* \"#utility.yul\":1100:1153   */\n      tag_41\n      jump\t// in\n    tag_65:\n        /* \"#utility.yul\":1090:1153   */\n      swap2\n      pop\n        /* \"#utility.yul\":1046:1163   */\n      pop\n        /* \"#utility.yul\":841:1170   */\n      swap3\n      swap2\n      pop\n      pop\n      jump\t// out\n        /* \"#utility.yul\":1176:1253   */\n    tag_42:\n        /* \"#utility.yul\":1213:1220   */\n      0x00\n        /* \"#utility.yul\":1242:1247   */\n      dup2\n        /* \"#utility.yul\":1231:1247   */\n      swap1\n      pop\n        /* \"#utility.yul\":1176:1253   */\n      swap2\n      swap1\n      pop\n      jump\t// out\n        /* \"#utility.yul\":1259:1377   */\n    tag_43:\n        /* \"#utility.yul\":1346:1370   */\n      tag_68\n        /* \"#utility.yul\":1364:1369   */\n      dup2\n        /* \"#utility.yul\":1346:1370   */\n      tag_42\n      jump\t// in\n    tag_68:\n        /* \"#utility.yul\":1341:1344   */\n      dup3\n        /* \"#utility.yul\":1334:1371   */\n      mstore\n        /* \"#utility.yul\":1259:1377   */\n      pop\n      pop\n      jump\t// out\n        /* \"#utility.yul\":1383:1605   */\n    tag_12:\n        /* \"#utility.yul\":1476:1480   */\n      0x00\n        /* \"#utility.yul\":1514:1516   */\n      0x20\n        /* \"#utility.yul\":1503:1512   */\n      dup3\n        /* \"#utility.yul\":1499:1517   */\n      add\n        /* \"#utility.yul\":1491:1517   */\n      swap1\n      pop\n        /* \"#utility.yul\":1527:1598   */\n      tag_70\n        /* \"#utility.yul\":1595:1596   */\n      0x00\n        /* \"#utility.yul\":1584:1593   */\n      dup4\n        /* \"#utility.yul\":1580:1597   */\n      add\n        /* \"#utility.yul\":1571:1577   */\n      dup5\n        /* \"#utility.yul\":1527:1598   */\n      tag_43\n      jump\t// in\n    tag_70:\n        /* \"#utility.yul\":1383:1605   */\n      swap3\n      swap2\n      pop\n      pop\n      jump\t// out\n        /* \"#utility.yul\":1611:1733   */\n    tag_44:\n        /* \"#utility.yul\":1684:1708   */\n      tag_72\n        /* \"#utility.yul\":1702:1707   */\n      dup2\n        /* \"#utility.yul\":1684:1708   */\n      tag_42\n      jump\t// in\n    tag_72:\n        /* \"#utility.yul\":1677:1682   */\n      dup2\n        /* \"#utility.yul\":1674:1709   */\n      eq\n        /* \"#utility.yul\":1664:1727   */\n      tag_73\n      jumpi\n        /* \"#utility.yul\":1723:1724   */\n      0x00\n        /* \"#utility.yul\":1720:1721   */\n      0x00\n        /* \"#utility.yul\":1713:1725   */\n      revert\n        /* \"#utility.yul\":1664:1727   */\n    tag_73:\n        /* \"#utility.yul\":1611:1733   */\n      pop\n      jump\t// out\n        /* \"#utility.yul\":1739:1878   */\n    tag_45:\n        /* \"#utility.yul\":1785:1790   */\n      0x00\n        /* \"#utility.yul\":1823:1829   */\n      dup2\n        /* \"#utility.yul\":1810:1830   */\n      calldataload\n        /* \"#utility.yul\":1801:1830   */\n      swap1\n      pop\n        /* \"#utility.yul\":1839:1872   */\n      tag_75\n        /* \"#utility.yul\":1866:1871   */\n      dup2\n        /* \"#utility.yul\":1839:1872   */\n      tag_44\n      jump\t// in\n    tag_75:\n        /* \"#utility.yul\":1739:1878   */\n      swap3\n      swap2\n      pop\n      pop\n      jump\t// out\n        /* \"#utility.yul\":1884:2213   */\n    tag_15:\n        /* \"#utility.yul\":1943:1949   */\n      0x00\n        /* \"#utility.yul\":1992:1994   */\n      0x20\n        /* \"#utility.yul\":1980:1989   */\n      dup3\n        /* \"#utility.yul\":1971:1978   */\n      dup5\n        /* \"#utility.yul\":1967:1990   */\n      sub\n        /* \"#utility.yul\":1963:1995   */\n      slt\n        /* \"#utility.yul\":1960:2079   */\n      iszero\n      tag_77\n      jumpi\n        /* \"#utility.yul\":1998:2077   */\n      tag_78\n      tag_36\n      jump\t// in\n    tag_78:\n        /* \"#utility.yul\":1960:2079   */\n    tag_77:\n        /* \"#utility.yul\":2118:2119   */\n      0x00\n        /* \"#utility.yul\":2143:2196   */\n      tag_79\n        /* \"#utility.yul\":2188:2195   */\n      dup5\n        /* \"#utility.yul\":2179:2185   */\n      dup3\n        /* \"#utility.yul\":2168:2177   */\n      dup6\n        /* \"#utility.yul\":2164:2186   */\n      add\n        /* \"#utility.yul\":2143:2196   */\n      tag_45\n      jump\t// in\n    tag_79:\n        /* \"#utility.yul\":2133:2196   */\n      swap2\n      pop\n        /* \"#utility.yul\":2089:2206   */\n      pop\n        /* \"#utility.yul\":1884:2213   */\n      swap3\n      swap2\n      pop\n      pop\n      jump\t// out\n        /* \"#utility.yul\":2219:2388   */\n    tag_46:\n        /* \"#utility.yul\":2303:2314   */\n      0x00\n        /* \"#utility.yul\":2337:2343   */\n      dup3\n        /* \"#utility.yul\":2332:2335   */\n      dup3\n        /* \"#utility.yul\":2325:2344   */\n      mstore\n        /* \"#utility.yul\":2377:2381   */\n      0x20\n        /* \"#utility.yul\":2372:2375   */\n      dup3\n        /* \"#utility.yul\":2368:2382   */\n      add\n        /* \"#utility.yul\":2353:2382   */\n      swap1\n      pop\n        /* \"#utility.yul\":2219:2388   */\n      swap3\n      swap2\n      pop\n      pop\n      jump\t// out\n        /* \"#utility.yul\":2394:2560   */\n    tag_47:\n        /* \"#utility.yul\":2534:2552   */\n      0x416d6f756e7420746f6f206c6172676500000000000000000000000000000000\n        /* \"#utility.yul\":2530:2531   */\n      0x00\n        /* \"#utility.yul\":2522:2528   */\n      dup3\n        /* \"#utility.yul\":2518:2532   */\n      add\n        /* \"#utility.yul\":2511:2553   */\n      mstore\n        /* \"#utility.yul\":2394:2560   */\n      pop\n      jump\t// out\n        /* \"#utility.yul\":2566:2932   */\n    tag_48:\n        /* \"#utility.yul\":2708:2711   */\n      0x00\n        /* \"#utility.yul\":2729:2796   */\n      tag_83\n        /* \"#utility.yul\":2793:2795   */\n      0x10\n        /* \"#utility.yul\":2788:2791   */\n      dup4\n        /* \"#utility.yul\":2729:2796   */\n      tag_46\n      jump\t// in\n    tag_83:\n        /* \"#utility.yul\":2722:2796   */\n      swap2\n      pop\n        /* \"#utility.yul\":2805:2898   */\n      tag_84\n        /* \"#utility.yul\":2894:2897   */\n      dup3\n        /* \"#utility.yul\":2805:2898   */\n      tag_47\n      jump\t// in\n    tag_84:\n        /* \"#utility.yul\":2923:2925   */\n      0x20\n        /* \"#utility.yul\":2918:2921   */\n      dup3\n        /* \"#utility.yul\":2914:2926   */\n      add\n        /* \"#utility.yul\":2907:2926   */\n      swap1\n      pop\n        /* \"#utility.yul\":2566:2932   */\n      swap2\n      swap1\n      pop\n      jump\t// out\n        /* \"#utility.yul\":2938:3357   */\n    tag_26:\n        /* \"#utility.yul\":3104:3108   */\n      0x00\n        /* \"#utility.yul\":3142:3144   */\n      0x20\n        /* \"#utility.yul\":3131:3140   */\n      dup3\n        /* \"#utility.yul\":3127:3145   */\n      add\n        /* \"#utility.yul\":3119:3145   */\n      swap1\n      pop\n        /* \"#utility.yul\":3191:3200   */\n      dup2\n        /* \"#utility.yul\":3185:3189   */\n      dup2\n        /* \"#utility.yul\":3181:3201   */\n      sub\n        /* \"#utility.yul\":3177:3178   */\n      0x00\n        /* \"#utility.yul\":3166:3175   */\n      dup4\n        /* \"#utility.yul\":3162:3179   */\n      add\n        /* \"#utility.yul\":3155:3202   */\n      mstore\n        /* \"#utility.yul\":3219:3350   */\n      tag_86\n        /* \"#utility.yul\":3345:3349   */\n      dup2\n        /* \"#utility.yul\":3219:3350   */\n      tag_48\n      jump\t// in\n    tag_86:\n        /* \"#utility.yul\":3211:3350   */\n      swap1\n      pop\n        /* \"#utility.yul\":2938:3357   */\n      swap2\n      swap1\n      pop\n      jump\t// out\n        /* \"#utility.yul\":3363:3543   */\n    tag_49:\n        /* \"#utility.yul\":3411:3488   */\n      0x4e487b7100000000000000000000000000000000000000000000000000000000\n        /* \"#utility.yul\":3408:3409   */\n      0x00\n        /* \"#utility.yul\":3401:3489   */\n      mstore\n        /* \"#utility.yul\":3508:3512   */\n      0x11\n        /* \"#utility.yul\":3505:3506   */\n      0x04\n        /* \"#utility.yul\":3498:3513   */\n      mstore\n        /* \"#utility.yul\":3532:3536   */\n      0x24\n        /* \"#utility.yul\":3529:3530   */\n      0x00\n        /* \"#utility.yul\":3522:3537   */\n      revert\n        /* \"#utility.yul\":3549:3740   */\n    tag_28:\n        /* \"#utility.yul\":3589:3592   */\n      0x00\n        /* \"#utility.yul\":3608:3628   */\n      tag_89\n        /* \"#utility.yul\":3626:3627   */\n      dup3\n        /* \"#utility.yul\":3608:3628   */\n      tag_42\n      jump\t// in\n    tag_89:\n        /* \"#utility.yul\":3603:3628   */\n      swap2\n      pop\n        /* \"#utility.yul\":3642:3662   */\n      tag_90\n        /* \"#utility.yul\":3660:3661   */\n      dup4\n        /* \"#utility.yul\":3642:3662   */\n      tag_42\n      jump\t// in\n    tag_90:\n        /* \"#utility.yul\":3637:3662   */\n      swap3\n      pop\n        /* \"#utility.yul\":3685:3686   */\n      dup3\n        /* \"#utility.yul\":3682:3683   */\n      dup3\n        /* \"#utility.yul\":3678:3687   */\n      add\n        /* \"#utility.yul\":3671:3687   */\n      swap1\n      pop\n        /* \"#utility.yul\":3706:3709   */\n      dup1\n        /* \"#utility.yul\":3703:3704   */\n      dup3\n        /* \"#utility.yul\":3700:3710   */\n      gt\n        /* \"#utility.yul\":3697:3733   */\n      iszero\n      tag_91\n      jumpi\n        /* \"#utility.yul\":3713:3731   */\n      tag_92\n      tag_49\n      jump\t// in\n    tag_92:\n        /* \"#utility.yul\":3697:3733   */\n    tag_91:\n        /* \"#utility.yul\":3549:3740   */\n      swap3\n      swap2\n      pop\n      pop\n      jump\t// out\n\n    auxdata: 0xa264697066735822122023be14934df16f48180388e752e086f642569223f8815fc8eb1ae7a48022f90c64736f6c63430008220033\n}\n",
				"bytecode": {
					"linkReferences": {},
					"object": "6080604052348015600e575f5ffd5b506104d18061001c5f395ff3fe608060405234801561000f575f5ffd5b506004361061004a575f3560e01c806327e235e31461004e5780633879aa811461007e578063520918241461009a578063d396a7a9146100b6575b5f5ffd5b61006860048036038101906100639190610312565b6100d4565b6040516100759190610355565b60405180910390f35b61009860048036038101906100939190610398565b6100e9565b005b6100b460048036038101906100af9190610398565b6101cc565b005b6100be6102af565b6040516100cb9190610355565b60405180910390f35b6001602052805f5260405f205f915090505481565b600581111561012d576040517f08c379a00000000000000000000000000000000000000000000000000000000081526004016101249061041d565b60405180910390fd5b805f5461013a9190610468565b5f819055508060015f3373ffffffffffffffffffffffffffffffffffffffff1673ffffffffffffffffffffffffffffffffffffffff1681526020019081526020015f20546101889190610468565b60015f3373ffffffffffffffffffffffffffffffffffffffff1673ffffffffffffffffffffffffffffffffffffffff1681526020019081526020015f208190555050565b805f546101d99190610468565b5f819055508060015f3373ffffffffffffffffffffffffffffffffffffffff1673ffffffffffffffffffffffffffffffffffffffff1681526020019081526020015f20546102279190610468565b60015f3373ffffffffffffffffffffffffffffffffffffffff1673ffffffffffffffffffffffffffffffffffffffff1681526020019081526020015f208190555060058111156102ac576040517f08c379a00000000000000000000000000000000000000000000000000000000081526004016102a39061041d565b60405180910390fd5b50565b5f5481565b5f5ffd5b5f73ffffffffffffffffffffffffffffffffffffffff82169050919050565b5f6102e1826102b8565b9050919050565b6102f1816102d7565b81146102fb575f5ffd5b50565b5f8135905061030c816102e8565b92915050565b5f60208284031215610327576103266102b4565b5b5f610334848285016102fe565b91505092915050565b5f819050919050565b61034f8161033d565b82525050565b5f6020820190506103685f830184610346565b92915050565b6103778161033d565b8114610381575f5ffd5b50565b5f813590506103928161036e565b92915050565b5f602082840312156103ad576103ac6102b4565b5b5f6103ba84828501610384565b91505092915050565b5f82825260208201905092915050565b7f416d6f756e7420746f6f206c61726765000000000000000000000000000000005f82015250565b5f6104076010836103c3565b9150610412826103d3565b602082019050919050565b5f6020820190508181035f830152610434816103fb565b9050919050565b7f4e487b71000000000000000000000000000000000000000000000000000000005f52601160045260245ffd5b5f6104728261033d565b915061047d8361033d565b92508282019050808211156104955761049461043b565b5b9291505056fea264697066735822122023be14934df16f48180388e752e086f642569223f8815fc8eb1ae7a48022f90c64736f6c63430008220033",
					"opcodes": "PUSH1 0x80 PUSH1 0x40 MSTORE CALLVALUE DUP1 ISZERO PUSH1 0xE JUMPI PUSH0 PUSH0 REVERT JUMPDEST POP PUSH2 0x4D1 DUP1 PUSH2 0x1C PUSH0 CODECOPY PUSH0 RETURN INVALID PUSH1 0x80 PUSH1 0x40 MSTORE CALLVALUE DUP1 ISZERO PUSH2 0xF JUMPI PUSH0 PUSH0 REVERT JUMPDEST POP PUSH1 0x4 CALLDATASIZE LT PUSH2 0x4A JUMPI PUSH0 CALLDATALOAD PUSH1 0xE0 SHR DUP1 PUSH4 0x27E235E3 EQ PUSH2 0x4E JUMPI DUP1 PUSH4 0x3879AA81 EQ PUSH2 0x7E JUMPI DUP1 PUSH4 0x52091824 EQ PUSH2 0x9A JUMPI DUP1 PUSH4 0xD396A7A9 EQ PUSH2 0xB6 JUMPI JUMPDEST PUSH0 PUSH0 REVERT JUMPDEST PUSH2 0x68 PUSH1 0x4 DUP1 CALLDATASIZE SUB DUP2 ADD SWAP1 PUSH2 0x63 SWAP2 SWAP1 PUSH2 0x312 JUMP JUMPDEST PUSH2 0xD4 JUMP JUMPDEST PUSH1 0x40 MLOAD PUSH2 0x75 SWAP2 SWAP1 PUSH2 0x355 JUMP JUMPDEST PUSH1 0x40 MLOAD DUP1 SWAP2 SUB SWAP1 RETURN JUMPDEST PUSH2 0x98 PUSH1 0x4 DUP1 CALLDATASIZE SUB DUP2 ADD SWAP1 PUSH2 0x93 SWAP2 SWAP1 PUSH2 0x398 JUMP JUMPDEST PUSH2 0xE9 JUMP JUMPDEST STOP JUMPDEST PUSH2 0xB4 PUSH1 0x4 DUP1 CALLDATASIZE SUB DUP2 ADD SWAP1 PUSH2 0xAF SWAP2 SWAP1 PUSH2 0x398 JUMP JUMPDEST PUSH2 0x1CC JUMP JUMPDEST STOP JUMPDEST PUSH2 0xBE PUSH2 0x2AF JUMP JUMPDEST PUSH1 0x40 MLOAD PUSH2 0xCB SWAP2 SWAP1 PUSH2 0x355 JUMP JUMPDEST PUSH1 0x40 MLOAD DUP1 SWAP2 SUB SWAP1 RETURN JUMPDEST PUSH1 0x1 PUSH1 0x20 MSTORE DUP1 PUSH0 MSTORE PUSH1 0x40 PUSH0 KECCAK256 PUSH0 SWAP2 POP SWAP1 POP SLOAD DUP2 JUMP JUMPDEST PUSH1 0x5 DUP2 GT ISZERO PUSH2 0x12D JUMPI PUSH1 0x40 MLOAD PUSH32 0x8C379A000000000000000000000000000000000000000000000000000000000 DUP2 MSTORE PUSH1 0x4 ADD PUSH2 0x124 SWAP1 PUSH2 0x41D JUMP JUMPDEST PUSH1 0x40 MLOAD DUP1 SWAP2 SUB SWAP1 REVERT JUMPDEST DUP1 PUSH0 SLOAD PUSH2 0x13A SWAP2 SWAP1 PUSH2 0x468 JUMP JUMPDEST PUSH0 DUP2 SWAP1 SSTORE POP DUP1 PUSH1 0x1 PUSH0 CALLER PUSH20 0xFFFFFFFFFFFFFFFFFFFFFFFFFFFFFFFFFFFFFFFF AND PUSH20 0xFFFFFFFFFFFFFFFFFFFFFFFFFFFFFFFFFFFFFFFF AND DUP2 MSTORE PUSH1 0x20 ADD SWAP1 DUP2 MSTORE PUSH1 0x20 ADD PUSH0 KECCAK256 SLOAD PUSH2 0x188 SWAP2 SWAP1 PUSH2 0x468 JUMP JUMPDEST PUSH1 0x1 PUSH0 CALLER PUSH20 0xFFFFFFFFFFFFFFFFFFFFFFFFFFFFFFFFFFFFFFFF AND PUSH20 0xFFFFFFFFFFFFFFFFFFFFFFFFFFFFFFFFFFFFFFFF AND DUP2 MSTORE PUSH1 0x20 ADD SWAP1 DUP2 MSTORE PUSH1 0x20 ADD PUSH0 KECCAK256 DUP2 SWAP1 SSTORE POP POP JUMP JUMPDEST DUP1 PUSH0 SLOAD PUSH2 0x1D9 SWAP2 SWAP1 PUSH2 0x468 JUMP JUMPDEST PUSH0 DUP2 SWAP1 SSTORE POP DUP1 PUSH1 0x1 PUSH0 CALLER PUSH20 0xFFFFFFFFFFFFFFFFFFFFFFFFFFFFFFFFFFFFFFFF AND PUSH20 0xFFFFFFFFFFFFFFFFFFFFFFFFFFFFFFFFFFFFFFFF AND DUP2 MSTORE PUSH1 0x20 ADD SWAP1 DUP2 MSTORE PUSH1 0x20 ADD PUSH0 KECCAK256 SLOAD PUSH2 0x227 SWAP2 SWAP1 PUSH2 0x468 JUMP JUMPDEST PUSH1 0x1 PUSH0 CALLER PUSH20 0xFFFFFFFFFFFFFFFFFFFFFFFFFFFFFFFFFFFFFFFF AND PUSH20 0xFFFFFFFFFFFFFFFFFFFFFFFFFFFFFFFFFFFFFFFF AND DUP2 MSTORE PUSH1 0x20 ADD SWAP1 DUP2 MSTORE PUSH1 0x20 ADD PUSH0 KECCAK256 DUP2 SWAP1 SSTORE POP PUSH1 0x5 DUP2 GT ISZERO PUSH2 0x2AC JUMPI PUSH1 0x40 MLOAD PUSH32 0x8C379A000000000000000000000000000000000000000000000000000000000 DUP2 MSTORE PUSH1 0x4 ADD PUSH2 0x2A3 SWAP1 PUSH2 0x41D JUMP JUMPDEST PUSH1 0x40 MLOAD DUP1 SWAP2 SUB SWAP1 REVERT JUMPDEST POP JUMP JUMPDEST PUSH0 SLOAD DUP2 JUMP JUMPDEST PUSH0 PUSH0 REVERT JUMPDEST PUSH0 PUSH20 0xFFFFFFFFFFFFFFFFFFFFFFFFFFFFFFFFFFFFFFFF DUP3 AND SWAP1 POP SWAP2 SWAP1 POP JUMP JUMPDEST PUSH0 PUSH2 0x2E1 DUP3 PUSH2 0x2B8 JUMP JUMPDEST SWAP1 POP SWAP2 SWAP1 POP JUMP JUMPDEST PUSH2 0x2F1 DUP2 PUSH2 0x2D7 JUMP JUMPDEST DUP2 EQ PUSH2 0x2FB JUMPI PUSH0 PUSH0 REVERT JUMPDEST POP JUMP JUMPDEST PUSH0 DUP2 CALLDATALOAD SWAP1 POP PUSH2 0x30C DUP2 PUSH2 0x2E8 JUMP JUMPDEST SWAP3 SWAP2 POP POP JUMP JUMPDEST PUSH0 PUSH1 0x20 DUP3 DUP5 SUB SLT ISZERO PUSH2 0x327 JUMPI PUSH2 0x326 PUSH2 0x2B4 JUMP JUMPDEST JUMPDEST PUSH0 PUSH2 0x334 DUP5 DUP3 DUP6 ADD PUSH2 0x2FE JUMP JUMPDEST SWAP2 POP POP SWAP3 SWAP2 POP POP JUMP JUMPDEST PUSH0 DUP2 SWAP1 POP SWAP2 SWAP1 POP JUMP JUMPDEST PUSH2 0x34F DUP2 PUSH2 0x33D JUMP JUMPDEST DUP3 MSTORE POP POP JUMP JUMPDEST PUSH0 PUSH1 0x20 DUP3 ADD SWAP1 POP PUSH2 0x368 PUSH0 DUP4 ADD DUP5 PUSH2 0x346 JUMP JUMPDEST SWAP3 SWAP2 POP POP JUMP JUMPDEST PUSH2 0x377 DUP2 PUSH2 0x33D JUMP JUMPDEST DUP2 EQ PUSH2 0x381 JUMPI PUSH0 PUSH0 REVERT JUMPDEST POP JUMP JUMPDEST PUSH0 DUP2 CALLDATALOAD SWAP1 POP PUSH2 0x392 DUP2 PUSH2 0x36E JUMP JUMPDEST SWAP3 SWAP2 POP POP JUMP JUMPDEST PUSH0 PUSH1 0x20 DUP3 DUP5 SUB SLT ISZERO PUSH2 0x3AD JUMPI PUSH2 0x3AC PUSH2 0x2B4 JUMP JUMPDEST JUMPDEST PUSH0 PUSH2 0x3BA DUP5 DUP3 DUP6 ADD PUSH2 0x384 JUMP JUMPDEST SWAP2 POP POP SWAP3 SWAP2 POP POP JUMP JUMPDEST PUSH0 DUP3 DUP3 MSTORE PUSH1 0x20 DUP3 ADD SWAP1 POP SWAP3 SWAP2 POP POP JUMP JUMPDEST PUSH32 0x416D6F756E7420746F6F206C6172676500000000000000000000000000000000 PUSH0 DUP3 ADD MSTORE POP JUMP JUMPDEST PUSH0 PUSH2 0x407 PUSH1 0x10 DUP4 PUSH2 0x3C3 JUMP JUMPDEST SWAP2 POP PUSH2 0x412 DUP3 PUSH2 0x3D3 JUMP JUMPDEST PUSH1 0x20 DUP3 ADD SWAP1 POP SWAP2 SWAP1 POP JUMP JUMPDEST PUSH0 PUSH1 0x20 DUP3 ADD SWAP1 POP DUP2 DUP2 SUB PUSH0 DUP4 ADD MSTORE PUSH2 0x434 DUP2 PUSH2 0x3FB JUMP JUMPDEST SWAP1 POP SWAP2 SWAP1 POP JUMP JUMPDEST PUSH32 0x4E487B7100000000000000000000000000000000000000000000000000000000 PUSH0 MSTORE PUSH1 0x11 PUSH1 0x4 MSTORE PUSH1 0x24 PUSH0 REVERT JUMPDEST PUSH0 PUSH2 0x472 DUP3 PUSH2 0x33D JUMP JUMPDEST SWAP2 POP PUSH2 0x47D DUP4 PUSH2 0x33D JUMP JUMPDEST SWAP3 POP DUP3 DUP3 ADD SWAP1 POP DUP1 DUP3 GT ISZERO PUSH2 0x495 JUMPI PUSH2 0x494 PUSH2 0x43B JUMP JUMPDEST JUMPDEST SWAP3 SWAP2 POP POP JUMP INVALID LOG2 PUSH5 0x6970667358 0x22 SLT KECCAK256 0x23 0xBE EQ SWAP4 0x4D CALL PUSH16 0x48180388E752E086F642569223F8815F 0xC8 0xEB BYTE SWAPN 0xA4 DUP1 0x22 EXTDELEGATECALL 0xC PUSH5 0x736F6C6343 STOP ADDMOD 0x22 STOP CALLER "
				},
				"gasEstimates": {
					"creation": {
						"codeDepositCost": "246600",
						"executionCost": "285",
						"totalCost": "246885"
					},
					"external": {
						"balances(address)": "2780",
						"brokenExecution(uint256)": "infinite",
						"globalCounter()": "2468",
						"safeExecution(uint256)": "infinite"
					}
				},
				"methodIdentifiers": {
					"balances(address)": "27e235e3",
					"brokenExecution(uint256)": "52091824",
					"globalCounter()": "d396a7a9",
					"safeExecution(uint256)": "3879aa81"
				}
			},
			"storageLayout": {
				"storage": [
					{
						"astId": 3,
						"contract": "prac38.sol:TransactionAtomicity",
						"label": "globalCounter",
						"offset": 0,
						"slot": "0",
						"type": "t_uint256"
					},
					{
						"astId": 7,
						"contract": "prac38.sol:TransactionAtomicity",
						"label": "balances",
						"offset": 0,
						"slot": "1",
						"type": "t_mapping(t_address,t_uint256)"
					}
				],
				"types": {
					"t_address": {
						"encoding": "inplace",
						"label": "address",
						"numberOfBytes": "20"
					},
					"t_mapping(t_address,t_uint256)": {
						"encoding": "mapping",
						"key": "t_address",
						"label": "mapping(address => uint256)",
						"numberOfBytes": "32",
						"value": "t_uint256"
					},
					"t_uint256": {
						"encoding": "inplace",
						"label": "uint256",
						"numberOfBytes": "32"
					}
				}
			},
			"userdoc": {
				"kind": "user",
				"methods": {},
				"version": 1
			}
		}
	}
}