{
	"prac16.sol": {
		"LocalUintVariable": {
			"abi": [
				{
					"inputs": [
						{
							"internalType": "uint256",
							"name": "_a",
							"type": "uint256"
						},
						{
							"internalType": "uint256",
							"name": "_b",
							"type": "uint256"
						}
					],
					"name": "calculateSum",
					"outputs": [
						{
							"internalType": "uint256",
							"name": "",
							"type": "uint256"
						}
					],
					"stateMutability": "pure",
					"type": "function"
				},
				{
					"inputs": [
						{
							"internalType": "uint256",
							"name": "_a",
							"type": "uint256"
						},
						{
							"internalType": "uint256",
							"name": "_b",
							"type": "uint256"
						}
					],
					"name": "multiply",
					"outputs": [
						{
							"internalType": "uint256",
							"name": "result",
							"type": "uint256"
						}
					],
					"stateMutability": "pure",
					"type": "function"
				},
				{
					"inputs": [
						{
							"internalType": "uint256",
							"name": "_x",
							"type": "uint256"
						},
						{
							"internalType": "uint256",
							"name": "_y",
							"type": "uint256"
						}
					],
					"name": "safeLogic",
					"outputs": [],
					"stateMutability": "nonpayable",
					"type": "function"
				},
				{
					"inputs": [],
					"name": "storedValue",
					"outputs": [
						{
							"internalType": "uint256",
							"name": "",
							"type": "uint256"
						}
					],
					"stateMutability": "view",
					"type": "function"
				}
			],
			"devdoc": {
				"kind": "dev",
				"methods": {},
				"version": 1
			},
			"evm": {
				"assembly": "    /* \"prac16.sol\":12619:13354  contract LocalUintVariable {... */\n  mstore(0x40, 0x80)\n  callvalue\n  dup1\n  iszero\n  tag_1\n  jumpi\n  revert(0x00, 0x00)\ntag_1:\n  pop\n  dataSize(sub_0)\n  dup1\n  dataOffset(sub_0)\n  0x00\n  codecopy\n  0x00\n  return\nstop\n\nsub_0: assembly {\n        /* \"prac16.sol\":12619:13354  contract LocalUintVariable {... */\n      mstore(0x40, 0x80)\n      callvalue\n      dup1\n      iszero\n      tag_1\n      jumpi\n      revert(0x00, 0x00)\n    tag_1:\n      pop\n      jumpi(tag_2, lt(calldatasize, 0x04))\n      shr(0xe0, calldataload(0x00))\n      dup1\n      0x165c4a16\n      eq\n      tag_3\n      jumpi\n      dup1\n      0x6d619daa\n      eq\n      tag_4\n      jumpi\n      dup1\n      0x6e0571b8\n      eq\n      tag_5\n      jumpi\n      dup1\n      0xea4097bd\n      eq\n      tag_6\n      jumpi\n    tag_2:\n      revert(0x00, 0x00)\n        /* \"prac16.sol\":13165:13351  function multiply(uint256 _a, uint256 _b)... */\n    tag_3:\n      tag_7\n      0x04\n      dup1\n      calldatasize\n      sub\n      dup2\n      add\n      swap1\n      tag_8\n      swap2\n      swap1\n      tag_9\n      jump\t// in\n    tag_8:\n      tag_10\n      jump\t// in\n    tag_7:\n      mload(0x40)\n      tag_11\n      swap2\n      swap1\n      tag_12\n      jump\t// in\n    tag_11:\n      mload(0x40)\n      dup1\n      swap2\n      sub\n      swap1\n      return\n        /* \"prac16.sol\":12655:12681  uint256 public storedValue */\n    tag_4:\n      tag_13\n      tag_14\n      jump\t// in\n    tag_13:\n      mload(0x40)\n      tag_15\n      swap2\n      swap1\n      tag_12\n      jump\t// in\n    tag_15:\n      mload(0x40)\n      dup1\n      swap2\n      sub\n      swap1\n      return\n        /* \"prac16.sol\":12917:13157  function safeLogic(uint256 _x, uint256 _y)... */\n    tag_5:\n      tag_16\n      0x04\n      dup1\n      calldatasize\n      sub\n      dup2\n      add\n      swap1\n      tag_17\n      swap2\n      swap1\n      tag_9\n      jump\t// in\n    tag_17:\n      tag_18\n      jump\t// in\n    tag_16:\n      stop\n        /* \"prac16.sol\":12690:12909  function calculateSum(uint256 _a, uint256 _b)... */\n    tag_6:\n      tag_19\n      0x04\n      dup1\n      calldatasize\n      sub\n      dup2\n      add\n      swap1\n      tag_20\n      swap2\n      swap1\n      tag_9\n      jump\t// in\n    tag_20:\n      tag_21\n      jump\t// in\n    tag_19:\n      mload(0x40)\n      tag_22\n      swap2\n      swap1\n      tag_12\n      jump\t// in\n    tag_22:\n      mload(0x40)\n      dup1\n      swap2\n      sub\n      swap1\n      return\n        /* \"prac16.sol\":13165:13351  function multiply(uint256 _a, uint256 _b)... */\n    tag_10:\n        /* \"prac16.sol\":13255:13269  uint256 result */\n      0x00\n        /* \"prac16.sol\":13341:13343  _b */\n      dup2\n        /* \"prac16.sol\":13336:13338  _a */\n      dup4\n        /* \"prac16.sol\":13336:13343  _a * _b */\n      tag_24\n      swap2\n      swap1\n      tag_25\n      jump\t// in\n    tag_24:\n        /* \"prac16.sol\":13327:13343  result = _a * _b */\n      swap1\n      pop\n        /* \"prac16.sol\":13165:13351  function multiply(uint256 _a, uint256 _b)... */\n      swap3\n      swap2\n      pop\n      pop\n      jump\t// out\n        /* \"prac16.sol\":12655:12681  uint256 public storedValue */\n    tag_14:\n      sload(0x00)\n      dup2\n      jump\t// out\n        /* \"prac16.sol\":12917:13157  function safeLogic(uint256 _x, uint256 _y)... */\n    tag_18:\n        /* \"prac16.sol\":13030:13042  uint256 temp */\n      0x00\n        /* \"prac16.sol\":13045:13046  0 */\n      0x00\n        /* \"prac16.sol\":13030:13046  uint256 temp = 0 */\n      swap1\n      pop\n        /* \"prac16.sol\":13072:13073  0 */\n      0x00\n        /* \"prac16.sol\":13067:13069  _x */\n      dup4\n        /* \"prac16.sol\":13067:13073  _x > 0 */\n      gt\n        /* \"prac16.sol\":13059:13091  require(_x > 0, \"Invalid input\") */\n      tag_27\n      jumpi\n      mload(0x40)\n      0x08c379a000000000000000000000000000000000000000000000000000000000\n      dup2\n      mstore\n      0x04\n      add\n      tag_28\n      swap1\n      tag_29\n      jump\t// in\n    tag_28:\n      mload(0x40)\n      dup1\n      swap2\n      sub\n      swap1\n      revert\n    tag_27:\n        /* \"prac16.sol\":13116:13118  _y */\n      dup2\n        /* \"prac16.sol\":13111:13113  _x */\n      dup4\n        /* \"prac16.sol\":13111:13118  _x + _y */\n      tag_30\n      swap2\n      swap1\n      tag_31\n      jump\t// in\n    tag_30:\n        /* \"prac16.sol\":13104:13118  temp = _x + _y */\n      swap1\n      pop\n        /* \"prac16.sol\":13145:13149  temp */\n      dup1\n        /* \"prac16.sol\":13131:13142  storedValue */\n      0x00\n        /* \"prac16.sol\":13131:13149  storedValue = temp */\n      dup2\n      swap1\n      sstore\n      pop\n        /* \"prac16.sol\":12981:13157  {... */\n      pop\n        /* \"prac16.sol\":12917:13157  function safeLogic(uint256 _x, uint256 _y)... */\n      pop\n      pop\n      jump\t// out\n        /* \"prac16.sol\":12690:12909  function calculateSum(uint256 _a, uint256 _b)... */\n    tag_21:\n        /* \"prac16.sol\":12784:12791  uint256 */\n      0x00\n        /* \"prac16.sol\":12857:12868  uint256 sum */\n      0x00\n        /* \"prac16.sol\":12876:12878  _b */\n      dup3\n        /* \"prac16.sol\":12871:12873  _a */\n      dup5\n        /* \"prac16.sol\":12871:12878  _a + _b */\n      tag_33\n      swap2\n      swap1\n      tag_31\n      jump\t// in\n    tag_33:\n        /* \"prac16.sol\":12857:12878  uint256 sum = _a + _b */\n      swap1\n      pop\n        /* \"prac16.sol\":12898:12901  sum */\n      dup1\n        /* \"prac16.sol\":12891:12901  return sum */\n      swap2\n      pop\n      pop\n        /* \"prac16.sol\":12690:12909  function calculateSum(uint256 _a, uint256 _b)... */\n      swap3\n      swap2\n      pop\n      pop\n      jump\t// out\n        /* \"#utility.yul\":88:205   */\n    tag_35:\n        /* \"#utility.yul\":197:198   */\n      0x00\n        /* \"#utility.yul\":194:195   */\n      0x00\n        /* \"#utility.yul\":187:199   */\n      revert\n        /* \"#utility.yul\":334:411   */\n    tag_37:\n        /* \"#utility.yul\":371:378   */\n      0x00\n        /* \"#utility.yul\":400:405   */\n      dup2\n        /* \"#utility.yul\":389:405   */\n      swap1\n      pop\n        /* \"#utility.yul\":334:411   */\n      swap2\n      swap1\n      pop\n      jump\t// out\n        /* \"#utility.yul\":417:539   */\n    tag_38:\n        /* \"#utility.yul\":490:514   */\n      tag_51\n        /* \"#utility.yul\":508:513   */\n      dup2\n        /* \"#utility.yul\":490:514   */\n      tag_37\n      jump\t// in\n    tag_51:\n        /* \"#utility.yul\":483:488   */\n      dup2\n        /* \"#utility.yul\":480:515   */\n      eq\n        /* \"#utility.yul\":470:533   */\n      tag_52\n      jumpi\n        /* \"#utility.yul\":529:530   */\n      0x00\n        /* \"#utility.yul\":526:527   */\n      0x00\n        /* \"#utility.yul\":519:531   */\n      revert\n        /* \"#utility.yul\":470:533   */\n    tag_52:\n        /* \"#utility.yul\":417:539   */\n      pop\n      jump\t// out\n        /* \"#utility.yul\":545:684   */\n    tag_39:\n        /* \"#utility.yul\":591:596   */\n      0x00\n        /* \"#utility.yul\":629:635   */\n      dup2\n        /* \"#utility.yul\":616:636   */\n      calldataload\n        /* \"#utility.yul\":607:636   */\n      swap1\n      pop\n        /* \"#utility.yul\":645:678   */\n      tag_54\n        /* \"#utility.yul\":672:677   */\n      dup2\n        /* \"#utility.yul\":645:678   */\n      tag_38\n      jump\t// in\n    tag_54:\n        /* \"#utility.yul\":545:684   */\n      swap3\n      swap2\n      pop\n      pop\n      jump\t// out\n        /* \"#utility.yul\":690:1164   */\n    tag_9:\n        /* \"#utility.yul\":758:764   */\n      0x00\n        /* \"#utility.yul\":766:772   */\n      0x00\n        /* \"#utility.yul\":815:817   */\n      0x40\n        /* \"#utility.yul\":803:812   */\n      dup4\n        /* \"#utility.yul\":794:801   */\n      dup6\n        /* \"#utility.yul\":790:813   */\n      sub\n        /* \"#utility.yul\":786:818   */\n      slt\n        /* \"#utility.yul\":783:902   */\n      iszero\n      tag_56\n      jumpi\n        /* \"#utility.yul\":821:900   */\n      tag_57\n      tag_35\n      jump\t// in\n    tag_57:\n        /* \"#utility.yul\":783:902   */\n    tag_56:\n        /* \"#utility.yul\":941:942   */\n      0x00\n        /* \"#utility.yul\":966:1019   */\n      tag_58\n        /* \"#utility.yul\":1011:1018   */\n      dup6\n        /* \"#utility.yul\":1002:1008   */\n      dup3\n        /* \"#utility.yul\":991:1000   */\n      dup7\n        /* \"#utility.yul\":987:1009   */\n      add\n        /* \"#utility.yul\":966:1019   */\n      tag_39\n      jump\t// in\n    tag_58:\n        /* \"#utility.yul\":956:1019   */\n      swap3\n      pop\n        /* \"#utility.yul\":912:1029   */\n      pop\n        /* \"#utility.yul\":1068:1070   */\n      0x20\n        /* \"#utility.yul\":1094:1147   */\n      tag_59\n        /* \"#utility.yul\":1139:1146   */\n      dup6\n        /* \"#utility.yul\":1130:1136   */\n      dup3\n        /* \"#utility.yul\":1119:1128   */\n      dup7\n        /* \"#utility.yul\":1115:1137   */\n      add\n        /* \"#utility.yul\":1094:1147   */\n      tag_39\n      jump\t// in\n    tag_59:\n        /* \"#utility.yul\":1084:1147   */\n      swap2\n      pop\n        /* \"#utility.yul\":1039:1157   */\n      pop\n        /* \"#utility.yul\":690:1164   */\n      swap3\n      pop\n      swap3\n      swap1\n      pop\n      jump\t// out\n        /* \"#utility.yul\":1170:1288   */\n    tag_40:\n        /* \"#utility.yul\":1257:1281   */\n      tag_61\n        /* \"#utility.yul\":1275:1280   */\n      dup2\n        /* \"#utility.yul\":1257:1281   */\n      tag_37\n      jump\t// in\n    tag_61:\n        /* \"#utility.yul\":1252:1255   */\n      dup3\n        /* \"#utility.yul\":1245:1282   */\n      mstore\n        /* \"#utility.yul\":1170:1288   */\n      pop\n      pop\n      jump\t// out\n        /* \"#utility.yul\":1294:1516   */\n    tag_12:\n        /* \"#utility.yul\":1387:1391   */\n      0x00\n        /* \"#utility.yul\":1425:1427   */\n      0x20\n        /* \"#utility.yul\":1414:1423   */\n      dup3\n        /* \"#utility.yul\":1410:1428   */\n      add\n        /* \"#utility.yul\":1402:1428   */\n      swap1\n      pop\n        /* \"#utility.yul\":1438:1509   */\n      tag_63\n        /* \"#utility.yul\":1506:1507   */\n      0x00\n        /* \"#utility.yul\":1495:1504   */\n      dup4\n        /* \"#utility.yul\":1491:1508   */\n      add\n        /* \"#utility.yul\":1482:1488   */\n      dup5\n        /* \"#utility.yul\":1438:1509   */\n      tag_40\n      jump\t// in\n    tag_63:\n        /* \"#utility.yul\":1294:1516   */\n      swap3\n      swap2\n      pop\n      pop\n      jump\t// out\n        /* \"#utility.yul\":1522:1702   */\n    tag_41:\n        /* \"#utility.yul\":1570:1647   */\n      0x4e487b7100000000000000000000000000000000000000000000000000000000\n        /* \"#utility.yul\":1567:1568   */\n      0x00\n        /* \"#utility.yul\":1560:1648   */\n      mstore\n        /* \"#utility.yul\":1667:1671   */\n      0x11\n        /* \"#utility.yul\":1664:1665   */\n      0x04\n        /* \"#utility.yul\":1657:1672   */\n      mstore\n        /* \"#utility.yul\":1691:1695   */\n      0x24\n        /* \"#utility.yul\":1688:1689   */\n      0x00\n        /* \"#utility.yul\":1681:1696   */\n      revert\n        /* \"#utility.yul\":1708:2118   */\n    tag_25:\n        /* \"#utility.yul\":1748:1755   */\n      0x00\n        /* \"#utility.yul\":1771:1791   */\n      tag_66\n        /* \"#utility.yul\":1789:1790   */\n      dup3\n        /* \"#utility.yul\":1771:1791   */\n      tag_37\n      jump\t// in\n    tag_66:\n        /* \"#utility.yul\":1766:1791   */\n      swap2\n      pop\n        /* \"#utility.yul\":1805:1825   */\n      tag_67\n        /* \"#utility.yul\":1823:1824   */\n      dup4\n        /* \"#utility.yul\":1805:1825   */\n      tag_37\n      jump\t// in\n    tag_67:\n        /* \"#utility.yul\":1800:1825   */\n      swap3\n      pop\n        /* \"#utility.yul\":1860:1861   */\n      dup3\n        /* \"#utility.yul\":1857:1858   */\n      dup3\n        /* \"#utility.yul\":1853:1862   */\n      mul\n        /* \"#utility.yul\":1882:1912   */\n      tag_68\n        /* \"#utility.yul\":1900:1911   */\n      dup2\n        /* \"#utility.yul\":1882:1912   */\n      tag_37\n      jump\t// in\n    tag_68:\n        /* \"#utility.yul\":1871:1912   */\n      swap2\n      pop\n        /* \"#utility.yul\":2061:2062   */\n      dup3\n        /* \"#utility.yul\":2052:2059   */\n      dup3\n        /* \"#utility.yul\":2048:2063   */\n      div\n        /* \"#utility.yul\":2045:2046   */\n      dup5\n        /* \"#utility.yul\":2042:2064   */\n      eq\n        /* \"#utility.yul\":2022:2023   */\n      dup4\n        /* \"#utility.yul\":2015:2024   */\n      iszero\n        /* \"#utility.yul\":1995:2078   */\n      or\n        /* \"#utility.yul\":1972:2111   */\n      tag_69\n      jumpi\n        /* \"#utility.yul\":2091:2109   */\n      tag_70\n      tag_41\n      jump\t// in\n    tag_70:\n        /* \"#utility.yul\":1972:2111   */\n    tag_69:\n        /* \"#utility.yul\":1756:2118   */\n      pop\n        /* \"#utility.yul\":1708:2118   */\n      swap3\n      swap2\n      pop\n      pop\n      jump\t// out\n        /* \"#utility.yul\":2124:2293   */\n    tag_42:\n        /* \"#utility.yul\":2208:2219   */\n      0x00\n        /* \"#utility.yul\":2242:2248   */\n      dup3\n        /* \"#utility.yul\":2237:2240   */\n      dup3\n        /* \"#utility.yul\":2230:2249   */\n      mstore\n        /* \"#utility.yul\":2282:2286   */\n      0x20\n        /* \"#utility.yul\":2277:2280   */\n      dup3\n        /* \"#utility.yul\":2273:2287   */\n      add\n        /* \"#utility.yul\":2258:2287   */\n      swap1\n      pop\n        /* \"#utility.yul\":2124:2293   */\n      swap3\n      swap2\n      pop\n      pop\n      jump\t// out\n        /* \"#utility.yul\":2299:2462   */\n    tag_43:\n        /* \"#utility.yul\":2439:2454   */\n      0x496e76616c696420696e70757400000000000000000000000000000000000000\n        /* \"#utility.yul\":2435:2436   */\n      0x00\n        /* \"#utility.yul\":2427:2433   */\n      dup3\n        /* \"#utility.yul\":2423:2437   */\n      add\n        /* \"#utility.yul\":2416:2455   */\n      mstore\n        /* \"#utility.yul\":2299:2462   */\n      pop\n      jump\t// out\n        /* \"#utility.yul\":2468:2834   */\n    tag_44:\n        /* \"#utility.yul\":2610:2613   */\n      0x00\n        /* \"#utility.yul\":2631:2698   */\n      tag_74\n        /* \"#utility.yul\":2695:2697   */\n      0x0d\n        /* \"#utility.yul\":2690:2693   */\n      dup4\n        /* \"#utility.yul\":2631:2698   */\n      tag_42\n      jump\t// in\n    tag_74:\n        /* \"#utility.yul\":2624:2698   */\n      swap2\n      pop\n        /* \"#utility.yul\":2707:2800   */\n      tag_75\n        /* \"#utility.yul\":2796:2799   */\n      dup3\n        /* \"#utility.yul\":2707:2800   */\n      tag_43\n      jump\t// in\n    tag_75:\n        /* \"#utility.yul\":2825:2827   */\n      0x20\n        /* \"#utility.yul\":2820:2823   */\n      dup3\n        /* \"#utility.yul\":2816:2828   */\n      add\n        /* \"#utility.yul\":2809:2828   */\n      swap1\n      pop\n        /* \"#utility.yul\":2468:2834   */\n      swap2\n      swap1\n      pop\n      jump\t// out\n        /* \"#utility.yul\":2840:3259   */\n    tag_29:\n        /* \"#utility.yul\":3006:3010   */\n      0x00\n        /* \"#utility.yul\":3044:3046   */\n      0x20\n        /* \"#utility.yul\":3033:3042   */\n      dup3\n        /* \"#utility.yul\":3029:3047   */\n      add\n        /* \"#utility.yul\":3021:3047   */\n      swap1\n      pop\n        /* \"#utility.yul\":3093:3102   */\n      dup2\n        /* \"#utility.yul\":3087:3091   */\n      dup2\n        /* \"#utility.yul\":3083:3103   */\n      sub\n        /* \"#utility.yul\":3079:3080   */\n      0x00\n        /* \"#utility.yul\":3068:3077   */\n      dup4\n        /* \"#utility.yul\":3064:3081   */\n      add\n        /* \"#utility.yul\":3057:3104   */\n      mstore\n        /* \"#utility.yul\":3121:3252   */\n      tag_77\n        /* \"#utility.yul\":3247:3251   */\n      dup2\n        /* \"#utility.yul\":3121:3252   */\n      tag_44\n      jump\t// in\n    tag_77:\n        /* \"#utility.yul\":3113:3252   */\n      swap1\n      pop\n        /* \"#utility.yul\":2840:3259   */\n      swap2\n      swap1\n      pop\n      jump\t// out\n        /* \"#utility.yul\":3265:3456   */\n    tag_31:\n        /* \"#utility.yul\":3305:3308   */\n      0x00\n        /* \"#utility.yul\":3324:3344   */\n      tag_79\n        /* \"#utility.yul\":3342:3343   */\n      dup3\n        /* \"#utility.yul\":3324:3344   */\n      tag_37\n      jump\t// in\n    tag_79:\n        /* \"#utility.yul\":3319:3344   */\n      swap2\n      pop\n        /* \"#utility.yul\":3358:3378   */\n      tag_80\n        /* \"#utility.yul\":3376:3377   */\n      dup4\n        /* \"#utility.yul\":3358:3378   */\n      tag_37\n      jump\t// in\n    tag_80:\n        /* \"#utility.yul\":3353:3378   */\n      swap3\n      pop\n        /* \"#utility.yul\":3401:3402   */\n      dup3\n        /* \"#utility.yul\":3398:3399   */\n      dup3\n        /* \"#utility.yul\":3394:3403   */\n      add\n        /* \"#utility.yul\":3387:3403   */\n      swap1\n      pop\n        /* \"#utility.yul\":3422:3425   */\n      dup1\n        /* \"#utility.yul\":3419:3420   */\n      dup3\n        /* \"#utility.yul\":3416:3426   */\n      gt\n        /* \"#utility.yul\":3413:3449   */\n      iszero\n      tag_81\n      jumpi\n        /* \"#utility.yul\":3429:3447   */\n      tag_82\n      tag_41\n      jump\t// in\n    tag_82:\n        /* \"#utility.yul\":3413:3449   */\n    tag_81:\n        /* \"#utility.yul\":3265:3456   */\n      swap3\n      swap2\n      pop\n      pop\n      jump\t// out\n\n    auxdata: 0xa2646970667358221220e3a86806b3681aaa98946a5e96592c8cc5121add3d65e2d902a594b46f3ef79264736f6c63430008220033\n}\n",
				"bytecode": {
					"linkReferences": {},
					"object": "6080604052348015600e575f5ffd5b506103678061001c5f395ff3fe608060405234801561000f575f5ffd5b506004361061004a575f3560e01c8063165c4a161461004e5780636d619daa1461007e5780636e0571b81461009c578063ea4097bd146100b8575b5f5ffd5b610068600480360381019061006391906101b2565b6100e8565b60405161007591906101ff565b60405180910390f35b6100866100fd565b60405161009391906101ff565b60405180910390f35b6100b660048036038101906100b191906101b2565b610102565b005b6100d260048036038101906100cd91906101b2565b610161565b6040516100df91906101ff565b60405180910390f35b5f81836100f59190610245565b905092915050565b5f5481565b5f5f90505f8311610148576040517f08c379a000000000000000000000000000000000000000000000000000000000815260040161013f906102e0565b60405180910390fd5b818361015491906102fe565b9050805f81905550505050565b5f5f828461016f91906102fe565b90508091505092915050565b5f5ffd5b5f819050919050565b6101918161017f565b811461019b575f5ffd5b50565b5f813590506101ac81610188565b92915050565b5f5f604083850312156101c8576101c761017b565b5b5f6101d58582860161019e565b92505060206101e68582860161019e565b9150509250929050565b6101f98161017f565b82525050565b5f6020820190506102125f8301846101f0565b92915050565b7f4e487b71000000000000000000000000000000000000000000000000000000005f52601160045260245ffd5b5f61024f8261017f565b915061025a8361017f565b92508282026102688161017f565b9150828204841483151761027f5761027e610218565b5b5092915050565b5f82825260208201905092915050565b7f496e76616c696420696e707574000000000000000000000000000000000000005f82015250565b5f6102ca600d83610286565b91506102d582610296565b602082019050919050565b5f6020820190508181035f8301526102f7816102be565b9050919050565b5f6103088261017f565b91506103138361017f565b925082820190508082111561032b5761032a610218565b5b9291505056fea2646970667358221220e3a86806b3681aaa98946a5e96592c8cc5121add3d65e2d902a594b46f3ef79264736f6c63430008220033",
					"opcodes": "PUSH1 0x80 PUSH1 0x40 MSTORE CALLVALUE DUP1 ISZERO PUSH1 0xE JUMPI PUSH0 PUSH0 REVERT JUMPDEST POP PUSH2 0x367 DUP1 PUSH2 0x1C PUSH0 CODECOPY PUSH0 RETURN INVALID PUSH1 0x80 PUSH1 0x40 MSTORE CALLVALUE DUP1 ISZERO PUSH2 0xF JUMPI PUSH0 PUSH0 REVERT JUMPDEST POP PUSH1 0x4 CALLDATASIZE LT PUSH2 0x4A JUMPI PUSH0 CALLDATALOAD PUSH1 0xE0 SHR DUP1 PUSH4 0x165C4A16 EQ PUSH2 0x4E JUMPI DUP1 PUSH4 0x6D619DAA EQ PUSH2 0x7E JUMPI DUP1 PUSH4 0x6E0571B8 EQ PUSH2 0x9C JUMPI DUP1 PUSH4 0xEA4097BD EQ PUSH2 0xB8 JUMPI JUMPDEST PUSH0 PUSH0 REVERT JUMPDEST PUSH2 0x68 PUSH1 0x4 DUP1 CALLDATASIZE SUB DUP2 ADD SWAP1 PUSH2 0x63 SWAP2 SWAP1 PUSH2 0x1B2 JUMP JUMPDEST PUSH2 0xE8 JUMP JUMPDEST PUSH1 0x40 MLOAD PUSH2 0x75 SWAP2 SWAP1 PUSH2 0x1FF JUMP JUMPDEST PUSH1 0x40 MLOAD DUP1 SWAP2 SUB SWAP1 RETURN JUMPDEST PUSH2 0x86 PUSH2 0xFD JUMP JUMPDEST PUSH1 0x40 MLOAD PUSH2 0x93 SWAP2 SWAP1 PUSH2 0x1FF JUMP JUMPDEST PUSH1 0x40 MLOAD DUP1 SWAP2 SUB SWAP1 RETURN JUMPDEST PUSH2 0xB6 PUSH1 0x4 DUP1 CALLDATASIZE SUB DUP2 ADD SWAP1 PUSH2 0xB1 SWAP2 SWAP1 PUSH2 0x1B2 JUMP JUMPDEST PUSH2 0x102 JUMP JUMPDEST STOP JUMPDEST PUSH2 0xD2 PUSH1 0x4 DUP1 CALLDATASIZE SUB DUP2 ADD SWAP1 PUSH2 0xCD SWAP2 SWAP1 PUSH2 0x1B2 JUMP JUMPDEST PUSH2 0x161 JUMP JUMPDEST PUSH1 0x40 MLOAD PUSH2 0xDF SWAP2 SWAP1 PUSH2 0x1FF JUMP JUMPDEST PUSH1 0x40 MLOAD DUP1 SWAP2 SUB SWAP1 RETURN JUMPDEST PUSH0 DUP2 DUP4 PUSH2 0xF5 SWAP2 SWAP1 PUSH2 0x245 JUMP JUMPDEST SWAP1 POP SWAP3 SWAP2 POP POP JUMP JUMPDEST PUSH0 SLOAD DUP2 JUMP JUMPDEST PUSH0 PUSH0 SWAP1 POP PUSH0 DUP4 GT PUSH2 0x148 JUMPI PUSH1 0x40 MLOAD PUSH32 0x8C379A000000000000000000000000000000000000000000000000000000000 DUP2 MSTORE PUSH1 0x4 ADD PUSH2 0x13F SWAP1 PUSH2 0x2E0 JUMP JUMPDEST PUSH1 0x40 MLOAD DUP1 SWAP2 SUB SWAP1 REVERT JUMPDEST DUP2 DUP4 PUSH2 0x154 SWAP2 SWAP1 PUSH2 0x2FE JUMP JUMPDEST SWAP1 POP DUP1 PUSH0 DUP2 SWAP1 SSTORE POP POP POP POP JUMP JUMPDEST PUSH0 PUSH0 DUP3 DUP5 PUSH2 0x16F SWAP2 SWAP1 PUSH2 0x2FE JUMP JUMPDEST SWAP1 POP DUP1 SWAP2 POP POP SWAP3 SWAP2 POP POP JUMP JUMPDEST PUSH0 PUSH0 REVERT JUMPDEST PUSH0 DUP2 SWAP1 POP SWAP2 SWAP1 POP JUMP JUMPDEST PUSH2 0x191 DUP2 PUSH2 0x17F JUMP JUMPDEST DUP2 EQ PUSH2 0x19B JUMPI PUSH0 PUSH0 REVERT JUMPDEST POP JUMP JUMPDEST PUSH0 DUP2 CALLDATALOAD SWAP1 POP PUSH2 0x1AC DUP2 PUSH2 0x188 JUMP JUMPDEST SWAP3 SWAP2 POP POP JUMP JUMPDEST PUSH0 PUSH0 PUSH1 0x40 DUP4 DUP6 SUB SLT ISZERO PUSH2 0x1C8 JUMPI PUSH2 0x1C7 PUSH2 0x17B JUMP JUMPDEST JUMPDEST PUSH0 PUSH2 0x1D5 DUP6 DUP3 DUP7 ADD PUSH2 0x19E JUMP JUMPDEST SWAP3 POP POP PUSH1 0x20 PUSH2 0x1E6 DUP6 DUP3 DUP7 ADD PUSH2 0x19E JUMP JUMPDEST SWAP2 POP POP SWAP3 POP SWAP3 SWAP1 POP JUMP JUMPDEST PUSH2 0x1F9 DUP2 PUSH2 0x17F JUMP JUMPDEST DUP3 MSTORE POP POP JUMP JUMPDEST PUSH0 PUSH1 0x20 DUP3 ADD SWAP1 POP PUSH2 0x212 PUSH0 DUP4 ADD DUP5 PUSH2 0x1F0 JUMP JUMPDEST SWAP3 SWAP2 POP POP JUMP JUMPDEST PUSH32 0x4E487B7100000000000000000000000000000000000000000000000000000000 PUSH0 MSTORE PUSH1 0x11 PUSH1 0x4 MSTORE PUSH1 0x24 PUSH0 REVERT JUMPDEST PUSH0 PUSH2 0x24F DUP3 PUSH2 0x17F JUMP JUMPDEST SWAP2 POP PUSH2 0x25A DUP4 PUSH2 0x17F JUMP JUMPDEST SWAP3 POP DUP3 DUP3 MUL PUSH2 0x268 DUP2 PUSH2 0x17F JUMP JUMPDEST SWAP2 POP DUP3 DUP3 DIV DUP5 EQ DUP4 ISZERO OR PUSH2 0x27F JUMPI PUSH2 0x27E PUSH2 0x218 JUMP JUMPDEST JUMPDEST POP SWAP3 SWAP2 POP POP JUMP JUMPDEST PUSH0 DUP3 DUP3 MSTORE PUSH1 0x20 DUP3 ADD SWAP1 POP SWAP3 SWAP2 POP POP JUMP JUMPDEST PUSH32 0x496E76616C696420696E70757400000000000000000000000000000000000000 PUSH0 DUP3 ADD MSTORE POP JUMP JUMPDEST PUSH0 PUSH2 0x2CA PUSH1 0xD DUP4 PUSH2 0x286 JUMP JUMPDEST SWAP2 POP PUSH2 0x2D5 DUP3 PUSH2 0x296 JUMP JUMPDEST PUSH1 0x20 DUP3 ADD SWAP1 POP SWAP2 SWAP1 POP JUMP JUMPDEST PUSH0 PUSH1 0x20 DUP3 ADD SWAP1 POP DUP2 DUP2 SUB PUSH0 DUP4 ADD MSTORE PUSH2 0x2F7 DUP2 PUSH2 0x2BE JUMP JUMPDEST SWAP1 POP SWAP2 SWAP1 POP JUMP JUMPDEST PUSH0 PUSH2 0x308 DUP3 PUSH2 0x17F JUMP JUMPDEST SWAP2 POP PUSH2 0x313 DUP4 PUSH2 0x17F JUMP JUMPDEST SWAP3 POP DUP3 DUP3 ADD SWAP1 POP DUP1 DUP3 GT ISZERO PUSH2 0x32B JUMPI PUSH2 0x32A PUSH2 0x218 JUMP JUMPDEST JUMPDEST SWAP3 SWAP2 POP POP JUMP INVALID LOG2 PUSH5 0x6970667358 0x22 SLT KECCAK256 CALLF 0xA868 MOD 0xB3 PUSH9 0x1AAA98946A5E96592C DUP13 0xC5 SLT BYTE 0xDD RETURNDATASIZE PUSH6 0xE2D902A594B4 PUSH16 0x3EF79264736F6C634300082200330000 "
				},
				"gasEstimates": {
					"creation": {
						"codeDepositCost": "174200",
						"executionCost": "218",
						"totalCost": "174418"
					},
					"external": {
						"calculateSum(uint256,uint256)": "infinite",
						"multiply(uint256,uint256)": "infinite",
						"safeLogic(uint256,uint256)": "infinite",
						"storedValue()": "2424"
					}
				},
				"methodIdentifiers": {
					"calculateSum(uint256,uint256)": "ea4097bd",
					"multiply(uint256,uint256)": "165c4a16",
					"safeLogic(uint256,uint256)": "6e0571b8",
					"storedValue()": "6d619daa"
				}
			},
			"storageLayout": {
				"storage": [
					{
						"astId": 79,
						"contract": "prac16.sol:LocalUintVariable",
						"label": "storedValue",
						"offset": 0,
						"slot": "0",
						"type": "t_uint256"
					}
				],
				"types": {
					"t_uint256": {
						"encoding": "inplace",
						"label": "uint256",
						"numberOfBytes": "32"
					}
				}
			},
			"userdoc": {
				"kind": "user",
				"methods": {},
				"version": 1
			}
		}
	}
}