{
	"prac32.sol": {
		"ExternalCalldataOptimizationPatched": {
			"abi": [
				{
					"inputs": [],
					"stateMutability": "nonpayable",
					"type": "constructor"
				},
				{
					"inputs": [
						{
							"internalType": "uint256[]",
							"name": "_numbers",
							"type": "uint256[]"
						}
					],
					"name": "calculateSum",
					"outputs": [
						{
							"internalType": "uint256",
							"name": "",
							"type": "uint256"
						}
					],
					"stateMutability": "pure",
					"type": "function"
				},
				{
					"inputs": [
						{
							"internalType": "string",
							"name": "_message",
							"type": "string"
						}
					],
					"name": "echoMessage",
					"outputs": [
						{
							"internalType": "string",
							"name": "",
							"type": "string"
						}
					],
					"stateMutability": "pure",
					"type": "function"
				},
				{
					"inputs": [],
					"name": "owner",
					"outputs": [
						{
							"internalType": "address",
							"name": "",
							"type": "address"
						}
					],
					"stateMutability": "view",
					"type": "function"
				},
				{
					"inputs": [
						{
							"internalType": "uint256[]",
							"name": "_numbers",
							"type": "uint256[]"
						}
					],
					"name": "saveValues",
					"outputs": [],
					"stateMutability": "nonpayable",
					"type": "function"
				},
				{
					"inputs": [
						{
							"internalType": "uint256",
							"name": "",
							"type": "uint256"
						}
					],
					"name": "savedNumbers",
					"outputs": [
						{
							"internalType": "uint256",
							"name": "",
							"type": "uint256"
						}
					],
					"stateMutability": "view",
					"type": "function"
				}
			],
			"devdoc": {
				"kind": "dev",
				"methods": {},
				"version": 1
			},
			"evm": {
				"assembly": "    /* \"prac32.sol\":10373:11498  contract ExternalCalldataOptimizationPatched {... */\n  mstore(0x40, 0x80)\n    /* \"prac32.sol\":10494:10545  constructor() {... */\n  callvalue\n  dup1\n  iszero\n  tag_1\n  jumpi\n  revert(0x00, 0x00)\ntag_1:\n  pop\n    /* \"prac32.sol\":10527:10537  msg.sender */\n  caller\n    /* \"prac32.sol\":10519:10524  owner */\n  0x00\n  0x00\n    /* \"prac32.sol\":10519:10537  owner = msg.sender */\n  0x0100\n  exp\n  dup2\n  sload\n  dup2\n  0xffffffffffffffffffffffffffffffffffffffff\n  mul\n  not\n  and\n  swap1\n  dup4\n  0xffffffffffffffffffffffffffffffffffffffff\n  and\n  mul\n  or\n  swap1\n  sstore\n  pop\n    /* \"prac32.sol\":10373:11498  contract ExternalCalldataOptimizationPatched {... */\n  dataSize(sub_0)\n  dup1\n  dataOffset(sub_0)\n  0x00\n  codecopy\n  0x00\n  return\nstop\n\nsub_0: assembly {\n        /* \"prac32.sol\":10373:11498  contract ExternalCalldataOptimizationPatched {... */\n      mstore(0x40, 0x80)\n      callvalue\n      dup1\n      iszero\n      tag_1\n      jumpi\n      revert(0x00, 0x00)\n    tag_1:\n      pop\n      jumpi(tag_2, lt(calldatasize, 0x04))\n      shr(0xe0, calldataload(0x00))\n      dup1\n      0x034f55d2\n      eq\n      tag_3\n      jumpi\n      dup1\n      0x40f81363\n      eq\n      tag_4\n      jumpi\n      dup1\n      0x8da5cb5b\n      eq\n      tag_5\n      jumpi\n      dup1\n      0x99df5bbe\n      eq\n      tag_6\n      jumpi\n      dup1\n      0xe4f7d551\n      eq\n      tag_7\n      jumpi\n    tag_2:\n      revert(0x00, 0x00)\n        /* \"prac32.sol\":11027:11320  function calculateSum(... */\n    tag_3:\n      tag_8\n      0x04\n      dup1\n      calldatasize\n      sub\n      dup2\n      add\n      swap1\n      tag_9\n      swap2\n      swap1\n      tag_10\n      jump\t// in\n    tag_9:\n      tag_11\n      jump\t// in\n    tag_8:\n      mload(0x40)\n      tag_12\n      swap2\n      swap1\n      tag_13\n      jump\t// in\n    tag_12:\n      mload(0x40)\n      dup1\n      swap2\n      sub\n      swap1\n      return\n        /* \"prac32.sol\":10456:10485  uint256[] public savedNumbers */\n    tag_4:\n      tag_14\n      0x04\n      dup1\n      calldatasize\n      sub\n      dup2\n      add\n      swap1\n      tag_15\n      swap2\n      swap1\n      tag_16\n      jump\t// in\n    tag_15:\n      tag_17\n      jump\t// in\n    tag_14:\n      mload(0x40)\n      tag_18\n      swap2\n      swap1\n      tag_13\n      jump\t// in\n    tag_18:\n      mload(0x40)\n      dup1\n      swap2\n      sub\n      swap1\n      return\n        /* \"prac32.sol\":10427:10447  address public owner */\n    tag_5:\n      tag_19\n      tag_20\n      jump\t// in\n    tag_19:\n      mload(0x40)\n      tag_21\n      swap2\n      swap1\n      tag_22\n      jump\t// in\n    tag_21:\n      mload(0x40)\n      dup1\n      swap2\n      sub\n      swap1\n      return\n        /* \"prac32.sol\":11328:11495  function echoMessage(... */\n    tag_6:\n      tag_23\n      0x04\n      dup1\n      calldatasize\n      sub\n      dup2\n      add\n      swap1\n      tag_24\n      swap2\n      swap1\n      tag_25\n      jump\t// in\n    tag_24:\n      tag_26\n      jump\t// in\n    tag_23:\n      mload(0x40)\n      tag_27\n      swap2\n      swap1\n      tag_28\n      jump\t// in\n    tag_27:\n      mload(0x40)\n      dup1\n      swap2\n      sub\n      swap1\n      return\n        /* \"prac32.sol\":10691:11019  function saveValues(... */\n    tag_7:\n      tag_29\n      0x04\n      dup1\n      calldatasize\n      sub\n      dup2\n      add\n      swap1\n      tag_30\n      swap2\n      swap1\n      tag_10\n      jump\t// in\n    tag_30:\n      tag_31\n      jump\t// in\n    tag_29:\n      stop\n        /* \"prac32.sol\":11027:11320  function calculateSum(... */\n    tag_11:\n        /* \"prac32.sol\":11144:11151  uint256 */\n      0x00\n        /* \"prac32.sol\":11169:11182  uint256 total */\n      0x00\n        /* \"prac32.sol\":11200:11209  uint256 i */\n      0x00\n        /* \"prac32.sol\":11212:11213  0 */\n      0x00\n        /* \"prac32.sol\":11200:11213  uint256 i = 0 */\n      swap1\n      pop\n        /* \"prac32.sol\":11195:11288  for (uint256 i = 0; i < _numbers.length; i++) {... */\n    tag_33:\n        /* \"prac32.sol\":11219:11227  _numbers */\n      dup5\n      dup5\n        /* \"prac32.sol\":11219:11234  _numbers.length */\n      swap1\n      pop\n        /* \"prac32.sol\":11215:11216  i */\n      dup2\n        /* \"prac32.sol\":11215:11234  i < _numbers.length */\n      lt\n        /* \"prac32.sol\":11195:11288  for (uint256 i = 0; i < _numbers.length; i++) {... */\n      iszero\n      tag_34\n      jumpi\n        /* \"prac32.sol\":11265:11273  _numbers */\n      dup5\n      dup5\n        /* \"prac32.sol\":11274:11275  i */\n      dup3\n        /* \"prac32.sol\":11265:11276  _numbers[i] */\n      dup2\n      dup2\n      lt\n      tag_36\n      jumpi\n      tag_37\n      tag_38\n      jump\t// in\n    tag_37:\n    tag_36:\n      swap1\n      pop\n      0x20\n      mul\n      add\n      calldataload\n        /* \"prac32.sol\":11256:11276  total += _numbers[i] */\n      dup3\n      tag_39\n      swap2\n      swap1\n      tag_40\n      jump\t// in\n    tag_39:\n      swap2\n      pop\n        /* \"prac32.sol\":11236:11239  i++ */\n      dup1\n      dup1\n      0x01\n      add\n      swap2\n      pop\n      pop\n        /* \"prac32.sol\":11195:11288  for (uint256 i = 0; i < _numbers.length; i++) {... */\n      jump(tag_33)\n    tag_34:\n      pop\n        /* \"prac32.sol\":11307:11312  total */\n      dup1\n        /* \"prac32.sol\":11300:11312  return total */\n      swap2\n      pop\n      pop\n        /* \"prac32.sol\":11027:11320  function calculateSum(... */\n      swap3\n      swap2\n      pop\n      pop\n      jump\t// out\n        /* \"prac32.sol\":10456:10485  uint256[] public savedNumbers */\n    tag_17:\n      0x01\n      dup2\n      dup2\n      sload\n      dup2\n      lt\n      tag_41\n      jumpi\n      0x00\n      dup1\n      revert\n    tag_41:\n      swap1\n      0x00\n      mstore\n      keccak256(0x00, 0x20)\n      add\n      0x00\n      swap2\n      pop\n      swap1\n      pop\n      sload\n      dup2\n      jump\t// out\n        /* \"prac32.sol\":10427:10447  address public owner */\n    tag_20:\n      0x00\n      0x00\n      swap1\n      sload\n      swap1\n      0x0100\n      exp\n      swap1\n      div\n      0xffffffffffffffffffffffffffffffffffffffff\n      and\n      dup2\n      jump\t// out\n        /* \"prac32.sol\":11328:11495  function echoMessage(... */\n    tag_26:\n        /* \"prac32.sol\":11441:11454  string memory */\n      0x60\n        /* \"prac32.sol\":11479:11487  _message */\n      dup3\n      dup3\n        /* \"prac32.sol\":11472:11487  return _message */\n      dup1\n      dup1\n      0x1f\n      add\n      0x20\n      dup1\n      swap2\n      div\n      mul\n      0x20\n      add\n      mload(0x40)\n      swap1\n      dup2\n      add\n      0x40\n      mstore\n      dup1\n      swap4\n      swap3\n      swap2\n      swap1\n      dup2\n      dup2\n      mstore\n      0x20\n      add\n      dup4\n      dup4\n      dup1\n      dup3\n      dup5\n      calldatacopy\n      0x00\n      dup2\n      dup5\n      add\n      mstore\n      not(0x1f)\n      0x1f\n      dup3\n      add\n      and\n      swap1\n      pop\n      dup1\n      dup4\n      add\n      swap3\n      pop\n      pop\n      pop\n      pop\n      pop\n      pop\n      pop\n      swap1\n      pop\n        /* \"prac32.sol\":11328:11495  function echoMessage(... */\n      swap3\n      swap2\n      pop\n      pop\n      jump\t// out\n        /* \"prac32.sol\":10691:11019  function saveValues(... */\n    tag_31:\n        /* \"prac32.sol\":10621:10626  owner */\n      0x00\n      0x00\n      swap1\n      sload\n      swap1\n      0x0100\n      exp\n      swap1\n      div\n      0xffffffffffffffffffffffffffffffffffffffff\n      and\n        /* \"prac32.sol\":10607:10626  msg.sender == owner */\n      0xffffffffffffffffffffffffffffffffffffffff\n      and\n        /* \"prac32.sol\":10607:10617  msg.sender */\n      caller\n        /* \"prac32.sol\":10607:10626  msg.sender == owner */\n      0xffffffffffffffffffffffffffffffffffffffff\n      and\n      eq\n        /* \"prac32.sol\":10585:10663  require(... */\n      tag_45\n      jumpi\n      mload(0x40)\n      0x08c379a000000000000000000000000000000000000000000000000000000000\n      dup2\n      mstore\n      0x04\n      add\n      tag_46\n      swap1\n      tag_47\n      jump\t// in\n    tag_46:\n      mload(0x40)\n      dup1\n      swap2\n      sub\n      swap1\n      revert\n    tag_45:\n        /* \"prac32.sol\":10850:10853  100 */\n      0x64\n        /* \"prac32.sol\":10831:10839  _numbers */\n      dup3\n      dup3\n        /* \"prac32.sol\":10831:10846  _numbers.length */\n      swap1\n      pop\n        /* \"prac32.sol\":10831:10853  _numbers.length <= 100 */\n      gt\n      iszero\n        /* \"prac32.sol\":10809:10896  require(... */\n      tag_49\n      jumpi\n      mload(0x40)\n      0x08c379a000000000000000000000000000000000000000000000000000000000\n      dup2\n      mstore\n      0x04\n      add\n      tag_50\n      swap1\n      tag_51\n      jump\t// in\n    tag_50:\n      mload(0x40)\n      dup1\n      swap2\n      sub\n      swap1\n      revert\n    tag_49:\n        /* \"prac32.sol\":10914:10923  uint256 i */\n      0x00\n        /* \"prac32.sol\":10926:10927  0 */\n      0x00\n        /* \"prac32.sol\":10914:10927  uint256 i = 0 */\n      swap1\n      pop\n        /* \"prac32.sol\":10909:11012  for (uint256 i = 0; i < _numbers.length; i++) {... */\n    tag_52:\n        /* \"prac32.sol\":10933:10941  _numbers */\n      dup3\n      dup3\n        /* \"prac32.sol\":10933:10948  _numbers.length */\n      swap1\n      pop\n        /* \"prac32.sol\":10929:10930  i */\n      dup2\n        /* \"prac32.sol\":10929:10948  i < _numbers.length */\n      lt\n        /* \"prac32.sol\":10909:11012  for (uint256 i = 0; i < _numbers.length; i++) {... */\n      iszero\n      tag_53\n      jumpi\n        /* \"prac32.sol\":10970:10982  savedNumbers */\n      0x01\n        /* \"prac32.sol\":10988:10996  _numbers */\n      dup4\n      dup4\n        /* \"prac32.sol\":10997:10998  i */\n      dup4\n        /* \"prac32.sol\":10988:10999  _numbers[i] */\n      dup2\n      dup2\n      lt\n      tag_55\n      jumpi\n      tag_56\n      tag_38\n      jump\t// in\n    tag_56:\n    tag_55:\n      swap1\n      pop\n      0x20\n      mul\n      add\n      calldataload\n        /* \"prac32.sol\":10970:11000  savedNumbers.push(_numbers[i]) */\n      swap1\n      dup1\n      0x01\n      dup2\n      sload\n      add\n      dup1\n      dup3\n      sstore\n      dup1\n      swap2\n      pop\n      pop\n      0x01\n      swap1\n      sub\n      swap1\n      0x00\n      mstore\n      keccak256(0x00, 0x20)\n      add\n      0x00\n      swap1\n      swap2\n      swap1\n      swap2\n      swap1\n      swap2\n      pop\n      sstore\n        /* \"prac32.sol\":10950:10953  i++ */\n      dup1\n      dup1\n      0x01\n      add\n      swap2\n      pop\n      pop\n        /* \"prac32.sol\":10909:11012  for (uint256 i = 0; i < _numbers.length; i++) {... */\n      jump(tag_52)\n    tag_53:\n      pop\n        /* \"prac32.sol\":10691:11019  function saveValues(... */\n      pop\n      pop\n      jump\t// out\n        /* \"#utility.yul\":88:205   */\n    tag_59:\n        /* \"#utility.yul\":197:198   */\n      0x00\n        /* \"#utility.yul\":194:195   */\n      0x00\n        /* \"#utility.yul\":187:199   */\n      revert\n        /* \"#utility.yul\":211:328   */\n    tag_60:\n        /* \"#utility.yul\":320:321   */\n      0x00\n        /* \"#utility.yul\":317:318   */\n      0x00\n        /* \"#utility.yul\":310:322   */\n      revert\n        /* \"#utility.yul\":334:451   */\n    tag_61:\n        /* \"#utility.yul\":443:444   */\n      0x00\n        /* \"#utility.yul\":440:441   */\n      0x00\n        /* \"#utility.yul\":433:445   */\n      revert\n        /* \"#utility.yul\":457:574   */\n    tag_62:\n        /* \"#utility.yul\":566:567   */\n      0x00\n        /* \"#utility.yul\":563:564   */\n      0x00\n        /* \"#utility.yul\":556:568   */\n      revert\n        /* \"#utility.yul\":580:697   */\n    tag_63:\n        /* \"#utility.yul\":689:690   */\n      0x00\n        /* \"#utility.yul\":686:687   */\n      0x00\n        /* \"#utility.yul\":679:691   */\n      revert\n        /* \"#utility.yul\":720:1288   */\n    tag_64:\n        /* \"#utility.yul\":793:801   */\n      0x00\n        /* \"#utility.yul\":803:809   */\n      0x00\n        /* \"#utility.yul\":853:856   */\n      dup4\n        /* \"#utility.yul\":846:850   */\n      0x1f\n        /* \"#utility.yul\":838:844   */\n      dup5\n        /* \"#utility.yul\":834:851   */\n      add\n        /* \"#utility.yul\":830:857   */\n      slt\n        /* \"#utility.yul\":820:942   */\n      tag_91\n      jumpi\n        /* \"#utility.yul\":861:940   */\n      tag_92\n      tag_61\n      jump\t// in\n    tag_92:\n        /* \"#utility.yul\":820:942   */\n    tag_91:\n        /* \"#utility.yul\":974:980   */\n      dup3\n        /* \"#utility.yul\":961:981   */\n      calldataload\n        /* \"#utility.yul\":951:981   */\n      swap1\n      pop\n        /* \"#utility.yul\":1004:1022   */\n      0xffffffffffffffff\n        /* \"#utility.yul\":996:1002   */\n      dup2\n        /* \"#utility.yul\":993:1023   */\n      gt\n        /* \"#utility.yul\":990:1107   */\n      iszero\n      tag_93\n      jumpi\n        /* \"#utility.yul\":1026:1105   */\n      tag_94\n      tag_62\n      jump\t// in\n    tag_94:\n        /* \"#utility.yul\":990:1107   */\n    tag_93:\n        /* \"#utility.yul\":1140:1144   */\n      0x20\n        /* \"#utility.yul\":1132:1138   */\n      dup4\n        /* \"#utility.yul\":1128:1145   */\n      add\n        /* \"#utility.yul\":1116:1145   */\n      swap2\n      pop\n        /* \"#utility.yul\":1194:1197   */\n      dup4\n        /* \"#utility.yul\":1186:1190   */\n      0x20\n        /* \"#utility.yul\":1178:1184   */\n      dup3\n        /* \"#utility.yul\":1174:1191   */\n      mul\n        /* \"#utility.yul\":1164:1172   */\n      dup4\n        /* \"#utility.yul\":1160:1192   */\n      add\n        /* \"#utility.yul\":1157:1198   */\n      gt\n        /* \"#utility.yul\":1154:1282   */\n      iszero\n      tag_95\n      jumpi\n        /* \"#utility.yul\":1201:1280   */\n      tag_96\n      tag_63\n      jump\t// in\n    tag_96:\n        /* \"#utility.yul\":1154:1282   */\n    tag_95:\n        /* \"#utility.yul\":720:1288   */\n      swap3\n      pop\n      swap3\n      swap1\n      pop\n      jump\t// out\n        /* \"#utility.yul\":1294:1853   */\n    tag_10:\n        /* \"#utility.yul\":1380:1386   */\n      0x00\n        /* \"#utility.yul\":1388:1394   */\n      0x00\n        /* \"#utility.yul\":1437:1439   */\n      0x20\n        /* \"#utility.yul\":1425:1434   */\n      dup4\n        /* \"#utility.yul\":1416:1423   */\n      dup6\n        /* \"#utility.yul\":1412:1435   */\n      sub\n        /* \"#utility.yul\":1408:1440   */\n      slt\n        /* \"#utility.yul\":1405:1524   */\n      iszero\n      tag_98\n      jumpi\n        /* \"#utility.yul\":1443:1522   */\n      tag_99\n      tag_59\n      jump\t// in\n    tag_99:\n        /* \"#utility.yul\":1405:1524   */\n    tag_98:\n        /* \"#utility.yul\":1591:1592   */\n      0x00\n        /* \"#utility.yul\":1580:1589   */\n      dup4\n        /* \"#utility.yul\":1576:1593   */\n      add\n        /* \"#utility.yul\":1563:1594   */\n      calldataload\n        /* \"#utility.yul\":1621:1639   */\n      0xffffffffffffffff\n        /* \"#utility.yul\":1613:1619   */\n      dup2\n        /* \"#utility.yul\":1610:1640   */\n      gt\n        /* \"#utility.yul\":1607:1724   */\n      iszero\n      tag_100\n      jumpi\n        /* \"#utility.yul\":1643:1722   */\n      tag_101\n      tag_60\n      jump\t// in\n    tag_101:\n        /* \"#utility.yul\":1607:1724   */\n    tag_100:\n        /* \"#utility.yul\":1756:1836   */\n      tag_102\n        /* \"#utility.yul\":1828:1835   */\n      dup6\n        /* \"#utility.yul\":1819:1825   */\n      dup3\n        /* \"#utility.yul\":1808:1817   */\n      dup7\n        /* \"#utility.yul\":1804:1826   */\n      add\n        /* \"#utility.yul\":1756:1836   */\n      tag_64\n      jump\t// in\n    tag_102:\n        /* \"#utility.yul\":1738:1836   */\n      swap3\n      pop\n      swap3\n      pop\n        /* \"#utility.yul\":1534:1846   */\n      pop\n        /* \"#utility.yul\":1294:1853   */\n      swap3\n      pop\n      swap3\n      swap1\n      pop\n      jump\t// out\n        /* \"#utility.yul\":1859:1936   */\n    tag_65:\n        /* \"#utility.yul\":1896:1903   */\n      0x00\n        /* \"#utility.yul\":1925:1930   */\n      dup2\n        /* \"#utility.yul\":1914:1930   */\n      swap1\n      pop\n        /* \"#utility.yul\":1859:1936   */\n      swap2\n      swap1\n      pop\n      jump\t// out\n        /* \"#utility.yul\":1942:2060   */\n    tag_66:\n        /* \"#utility.yul\":2029:2053   */\n      tag_105\n        /* \"#utility.yul\":2047:2052   */\n      dup2\n        /* \"#utility.yul\":2029:2053   */\n      tag_65\n      jump\t// in\n    tag_105:\n        /* \"#utility.yul\":2024:2027   */\n      dup3\n        /* \"#utility.yul\":2017:2054   */\n      mstore\n        /* \"#utility.yul\":1942:2060   */\n      pop\n      pop\n      jump\t// out\n        /* \"#utility.yul\":2066:2288   */\n    tag_13:\n        /* \"#utility.yul\":2159:2163   */\n      0x00\n        /* \"#utility.yul\":2197:2199   */\n      0x20\n        /* \"#utility.yul\":2186:2195   */\n      dup3\n        /* \"#utility.yul\":2182:2200   */\n      add\n        /* \"#utility.yul\":2174:2200   */\n      swap1\n      pop\n        /* \"#utility.yul\":2210:2281   */\n      tag_107\n        /* \"#utility.yul\":2278:2279   */\n      0x00\n        /* \"#utility.yul\":2267:2276   */\n      dup4\n        /* \"#utility.yul\":2263:2280   */\n      add\n        /* \"#utility.yul\":2254:2260   */\n      dup5\n        /* \"#utility.yul\":2210:2281   */\n      tag_66\n      jump\t// in\n    tag_107:\n        /* \"#utility.yul\":2066:2288   */\n      swap3\n      swap2\n      pop\n      pop\n      jump\t// out\n        /* \"#utility.yul\":2294:2416   */\n    tag_67:\n        /* \"#utility.yul\":2367:2391   */\n      tag_109\n        /* \"#utility.yul\":2385:2390   */\n      dup2\n        /* \"#utility.yul\":2367:2391   */\n      tag_65\n      jump\t// in\n    tag_109:\n        /* \"#utility.yul\":2360:2365   */\n      dup2\n        /* \"#utility.yul\":2357:2392   */\n      eq\n        /* \"#utility.yul\":2347:2410   */\n      tag_110\n      jumpi\n        /* \"#utility.yul\":2406:2407   */\n      0x00\n        /* \"#utility.yul\":2403:2404   */\n      0x00\n        /* \"#utility.yul\":2396:2408   */\n      revert\n        /* \"#utility.yul\":2347:2410   */\n    tag_110:\n        /* \"#utility.yul\":2294:2416   */\n      pop\n      jump\t// out\n        /* \"#utility.yul\":2422:2561   */\n    tag_68:\n        /* \"#utility.yul\":2468:2473   */\n      0x00\n        /* \"#utility.yul\":2506:2512   */\n      dup2\n        /* \"#utility.yul\":2493:2513   */\n      calldataload\n        /* \"#utility.yul\":2484:2513   */\n      swap1\n      pop\n        /* \"#utility.yul\":2522:2555   */\n      tag_112\n        /* \"#utility.yul\":2549:2554   */\n      dup2\n        /* \"#utility.yul\":2522:2555   */\n      tag_67\n      jump\t// in\n    tag_112:\n        /* \"#utility.yul\":2422:2561   */\n      swap3\n      swap2\n      pop\n      pop\n      jump\t// out\n        /* \"#utility.yul\":2567:2896   */\n    tag_16:\n        /* \"#utility.yul\":2626:2632   */\n      0x00\n        /* \"#utility.yul\":2675:2677   */\n      0x20\n        /* \"#utility.yul\":2663:2672   */\n      dup3\n        /* \"#utility.yul\":2654:2661   */\n      dup5\n        /* \"#utility.yul\":2650:2673   */\n      sub\n        /* \"#utility.yul\":2646:2678   */\n      slt\n        /* \"#utility.yul\":2643:2762   */\n      iszero\n      tag_114\n      jumpi\n        /* \"#utility.yul\":2681:2760   */\n      tag_115\n      tag_59\n      jump\t// in\n    tag_115:\n        /* \"#utility.yul\":2643:2762   */\n    tag_114:\n        /* \"#utility.yul\":2801:2802   */\n      0x00\n        /* \"#utility.yul\":2826:2879   */\n      tag_116\n        /* \"#utility.yul\":2871:2878   */\n      dup5\n        /* \"#utility.yul\":2862:2868   */\n      dup3\n        /* \"#utility.yul\":2851:2860   */\n      dup6\n        /* \"#utility.yul\":2847:2869   */\n      add\n        /* \"#utility.yul\":2826:2879   */\n      tag_68\n      jump\t// in\n    tag_116:\n        /* \"#utility.yul\":2816:2879   */\n      swap2\n      pop\n        /* \"#utility.yul\":2772:2889   */\n      pop\n        /* \"#utility.yul\":2567:2896   */\n      swap3\n      swap2\n      pop\n      pop\n      jump\t// out\n        /* \"#utility.yul\":2902:3028   */\n    tag_69:\n        /* \"#utility.yul\":2939:2946   */\n      0x00\n        /* \"#utility.yul\":2979:3021   */\n      0xffffffffffffffffffffffffffffffffffffffff\n        /* \"#utility.yul\":2972:2977   */\n      dup3\n        /* \"#utility.yul\":2968:3022   */\n      and\n        /* \"#utility.yul\":2957:3022   */\n      swap1\n      pop\n        /* \"#utility.yul\":2902:3028   */\n      swap2\n      swap1\n      pop\n      jump\t// out\n        /* \"#utility.yul\":3034:3130   */\n    tag_70:\n        /* \"#utility.yul\":3071:3078   */\n      0x00\n        /* \"#utility.yul\":3100:3124   */\n      tag_119\n        /* \"#utility.yul\":3118:3123   */\n      dup3\n        /* \"#utility.yul\":3100:3124   */\n      tag_69\n      jump\t// in\n    tag_119:\n        /* \"#utility.yul\":3089:3124   */\n      swap1\n      pop\n        /* \"#utility.yul\":3034:3130   */\n      swap2\n      swap1\n      pop\n      jump\t// out\n        /* \"#utility.yul\":3136:3254   */\n    tag_71:\n        /* \"#utility.yul\":3223:3247   */\n      tag_121\n        /* \"#utility.yul\":3241:3246   */\n      dup2\n        /* \"#utility.yul\":3223:3247   */\n      tag_70\n      jump\t// in\n    tag_121:\n        /* \"#utility.yul\":3218:3221   */\n      dup3\n        /* \"#utility.yul\":3211:3248   */\n      mstore\n        /* \"#utility.yul\":3136:3254   */\n      pop\n      pop\n      jump\t// out\n        /* \"#utility.yul\":3260:3482   */\n    tag_22:\n        /* \"#utility.yul\":3353:3357   */\n      0x00\n        /* \"#utility.yul\":3391:3393   */\n      0x20\n        /* \"#utility.yul\":3380:3389   */\n      dup3\n        /* \"#utility.yul\":3376:3394   */\n      add\n        /* \"#utility.yul\":3368:3394   */\n      swap1\n      pop\n        /* \"#utility.yul\":3404:3475   */\n      tag_123\n        /* \"#utility.yul\":3472:3473   */\n      0x00\n        /* \"#utility.yul\":3461:3470   */\n      dup4\n        /* \"#utility.yul\":3457:3474   */\n      add\n        /* \"#utility.yul\":3448:3454   */\n      dup5\n        /* \"#utility.yul\":3404:3475   */\n      tag_71\n      jump\t// in\n    tag_123:\n        /* \"#utility.yul\":3260:3482   */\n      swap3\n      swap2\n      pop\n      pop\n      jump\t// out\n        /* \"#utility.yul\":3502:4055   */\n    tag_72:\n        /* \"#utility.yul\":3560:3568   */\n      0x00\n        /* \"#utility.yul\":3570:3576   */\n      0x00\n        /* \"#utility.yul\":3620:3623   */\n      dup4\n        /* \"#utility.yul\":3613:3617   */\n      0x1f\n        /* \"#utility.yul\":3605:3611   */\n      dup5\n        /* \"#utility.yul\":3601:3618   */\n      add\n        /* \"#utility.yul\":3597:3624   */\n      slt\n        /* \"#utility.yul\":3587:3709   */\n      tag_125\n      jumpi\n        /* \"#utility.yul\":3628:3707   */\n      tag_126\n      tag_61\n      jump\t// in\n    tag_126:\n        /* \"#utility.yul\":3587:3709   */\n    tag_125:\n        /* \"#utility.yul\":3741:3747   */\n      dup3\n        /* \"#utility.yul\":3728:3748   */\n      calldataload\n        /* \"#utility.yul\":3718:3748   */\n      swap1\n      pop\n        /* \"#utility.yul\":3771:3789   */\n      0xffffffffffffffff\n        /* \"#utility.yul\":3763:3769   */\n      dup2\n        /* \"#utility.yul\":3760:3790   */\n      gt\n        /* \"#utility.yul\":3757:3874   */\n      iszero\n      tag_127\n      jumpi\n        /* \"#utility.yul\":3793:3872   */\n      tag_128\n      tag_62\n      jump\t// in\n    tag_128:\n        /* \"#utility.yul\":3757:3874   */\n    tag_127:\n        /* \"#utility.yul\":3907:3911   */\n      0x20\n        /* \"#utility.yul\":3899:3905   */\n      dup4\n        /* \"#utility.yul\":3895:3912   */\n      add\n        /* \"#utility.yul\":3883:3912   */\n      swap2\n      pop\n        /* \"#utility.yul\":3961:3964   */\n      dup4\n        /* \"#utility.yul\":3953:3957   */\n      0x01\n        /* \"#utility.yul\":3945:3951   */\n      dup3\n        /* \"#utility.yul\":3941:3958   */\n      mul\n        /* \"#utility.yul\":3931:3939   */\n      dup4\n        /* \"#utility.yul\":3927:3959   */\n      add\n        /* \"#utility.yul\":3924:3965   */\n      gt\n        /* \"#utility.yul\":3921:4049   */\n      iszero\n      tag_129\n      jumpi\n        /* \"#utility.yul\":3968:4047   */\n      tag_130\n      tag_63\n      jump\t// in\n    tag_130:\n        /* \"#utility.yul\":3921:4049   */\n    tag_129:\n        /* \"#utility.yul\":3502:4055   */\n      swap3\n      pop\n      swap3\n      swap1\n      pop\n      jump\t// out\n        /* \"#utility.yul\":4061:4590   */\n    tag_25:\n        /* \"#utility.yul\":4132:4138   */\n      0x00\n        /* \"#utility.yul\":4140:4146   */\n      0x00\n        /* \"#utility.yul\":4189:4191   */\n      0x20\n        /* \"#utility.yul\":4177:4186   */\n      dup4\n        /* \"#utility.yul\":4168:4175   */\n      dup6\n        /* \"#utility.yul\":4164:4187   */\n      sub\n        /* \"#utility.yul\":4160:4192   */\n      slt\n        /* \"#utility.yul\":4157:4276   */\n      iszero\n      tag_132\n      jumpi\n        /* \"#utility.yul\":4195:4274   */\n      tag_133\n      tag_59\n      jump\t// in\n    tag_133:\n        /* \"#utility.yul\":4157:4276   */\n    tag_132:\n        /* \"#utility.yul\":4343:4344   */\n      0x00\n        /* \"#utility.yul\":4332:4341   */\n      dup4\n        /* \"#utility.yul\":4328:4345   */\n      add\n        /* \"#utility.yul\":4315:4346   */\n      calldataload\n        /* \"#utility.yul\":4373:4391   */\n      0xffffffffffffffff\n        /* \"#utility.yul\":4365:4371   */\n      dup2\n        /* \"#utility.yul\":4362:4392   */\n      gt\n        /* \"#utility.yul\":4359:4476   */\n      iszero\n      tag_134\n      jumpi\n        /* \"#utility.yul\":4395:4474   */\n      tag_135\n      tag_60\n      jump\t// in\n    tag_135:\n        /* \"#utility.yul\":4359:4476   */\n    tag_134:\n        /* \"#utility.yul\":4508:4573   */\n      tag_136\n        /* \"#utility.yul\":4565:4572   */\n      dup6\n        /* \"#utility.yul\":4556:4562   */\n      dup3\n        /* \"#utility.yul\":4545:4554   */\n      dup7\n        /* \"#utility.yul\":4541:4563   */\n      add\n        /* \"#utility.yul\":4508:4573   */\n      tag_72\n      jump\t// in\n    tag_136:\n        /* \"#utility.yul\":4490:4573   */\n      swap3\n      pop\n      swap3\n      pop\n        /* \"#utility.yul\":4286:4583   */\n      pop\n        /* \"#utility.yul\":4061:4590   */\n      swap3\n      pop\n      swap3\n      swap1\n      pop\n      jump\t// out\n        /* \"#utility.yul\":4596:4695   */\n    tag_73:\n        /* \"#utility.yul\":4648:4654   */\n      0x00\n        /* \"#utility.yul\":4682:4687   */\n      dup2\n        /* \"#utility.yul\":4676:4688   */\n      mload\n        /* \"#utility.yul\":4666:4688   */\n      swap1\n      pop\n        /* \"#utility.yul\":4596:4695   */\n      swap2\n      swap1\n      pop\n      jump\t// out\n        /* \"#utility.yul\":4701:4870   */\n    tag_74:\n        /* \"#utility.yul\":4785:4796   */\n      0x00\n        /* \"#utility.yul\":4819:4825   */\n      dup3\n        /* \"#utility.yul\":4814:4817   */\n      dup3\n        /* \"#utility.yul\":4807:4826   */\n      mstore\n        /* \"#utility.yul\":4859:4863   */\n      0x20\n        /* \"#utility.yul\":4854:4857   */\n      dup3\n        /* \"#utility.yul\":4850:4864   */\n      add\n        /* \"#utility.yul\":4835:4864   */\n      swap1\n      pop\n        /* \"#utility.yul\":4701:4870   */\n      swap3\n      swap2\n      pop\n      pop\n      jump\t// out\n        /* \"#utility.yul\":4876:5015   */\n    tag_75:\n        /* \"#utility.yul\":4965:4971   */\n      dup3\n        /* \"#utility.yul\":4960:4963   */\n      dup2\n        /* \"#utility.yul\":4955:4958   */\n      dup4\n        /* \"#utility.yul\":4949:4972   */\n      mcopy\n        /* \"#utility.yul\":5006:5007   */\n      0x00\n        /* \"#utility.yul\":4997:5003   */\n      dup4\n        /* \"#utility.yul\":4992:4995   */\n      dup4\n        /* \"#utility.yul\":4988:5004   */\n      add\n        /* \"#utility.yul\":4981:5008   */\n      mstore\n        /* \"#utility.yul\":4876:5015   */\n      pop\n      pop\n      pop\n      jump\t// out\n        /* \"#utility.yul\":5021:5123   */\n    tag_76:\n        /* \"#utility.yul\":5062:5068   */\n      0x00\n        /* \"#utility.yul\":5113:5115   */\n      0x1f\n        /* \"#utility.yul\":5109:5116   */\n      not\n        /* \"#utility.yul\":5104:5106   */\n      0x1f\n        /* \"#utility.yul\":5097:5102   */\n      dup4\n        /* \"#utility.yul\":5093:5107   */\n      add\n        /* \"#utility.yul\":5089:5117   */\n      and\n        /* \"#utility.yul\":5079:5117   */\n      swap1\n      pop\n        /* \"#utility.yul\":5021:5123   */\n      swap2\n      swap1\n      pop\n      jump\t// out\n        /* \"#utility.yul\":5129:5506   */\n    tag_77:\n        /* \"#utility.yul\":5217:5220   */\n      0x00\n        /* \"#utility.yul\":5245:5284   */\n      tag_142\n        /* \"#utility.yul\":5278:5283   */\n      dup3\n        /* \"#utility.yul\":5245:5284   */\n      tag_73\n      jump\t// in\n    tag_142:\n        /* \"#utility.yul\":5300:5371   */\n      tag_143\n        /* \"#utility.yul\":5364:5370   */\n      dup2\n        /* \"#utility.yul\":5359:5362   */\n      dup6\n        /* \"#utility.yul\":5300:5371   */\n      tag_74\n      jump\t// in\n    tag_143:\n        /* \"#utility.yul\":5293:5371   */\n      swap4\n      pop\n        /* \"#utility.yul\":5380:5445   */\n      tag_144\n        /* \"#utility.yul\":5438:5444   */\n      dup2\n        /* \"#utility.yul\":5433:5436   */\n      dup6\n        /* \"#utility.yul\":5426:5430   */\n      0x20\n        /* \"#utility.yul\":5419:5424   */\n      dup7\n        /* \"#utility.yul\":5415:5431   */\n      add\n        /* \"#utility.yul\":5380:5445   */\n      tag_75\n      jump\t// in\n    tag_144:\n        /* \"#utility.yul\":5470:5499   */\n      tag_145\n        /* \"#utility.yul\":5492:5498   */\n      dup2\n        /* \"#utility.yul\":5470:5499   */\n      tag_76\n      jump\t// in\n    tag_145:\n        /* \"#utility.yul\":5465:5468   */\n      dup5\n        /* \"#utility.yul\":5461:5500   */\n      add\n        /* \"#utility.yul\":5454:5500   */\n      swap2\n      pop\n        /* \"#utility.yul\":5221:5506   */\n      pop\n        /* \"#utility.yul\":5129:5506   */\n      swap3\n      swap2\n      pop\n      pop\n      jump\t// out\n        /* \"#utility.yul\":5512:5825   */\n    tag_28:\n        /* \"#utility.yul\":5625:5629   */\n      0x00\n        /* \"#utility.yul\":5663:5665   */\n      0x20\n        /* \"#utility.yul\":5652:5661   */\n      dup3\n        /* \"#utility.yul\":5648:5666   */\n      add\n        /* \"#utility.yul\":5640:5666   */\n      swap1\n      pop\n        /* \"#utility.yul\":5712:5721   */\n      dup2\n        /* \"#utility.yul\":5706:5710   */\n      dup2\n        /* \"#utility.yul\":5702:5722   */\n      sub\n        /* \"#utility.yul\":5698:5699   */\n      0x00\n        /* \"#utility.yul\":5687:5696   */\n      dup4\n        /* \"#utility.yul\":5683:5700   */\n      add\n        /* \"#utility.yul\":5676:5723   */\n      mstore\n        /* \"#utility.yul\":5740:5818   */\n      tag_147\n        /* \"#utility.yul\":5813:5817   */\n      dup2\n        /* \"#utility.yul\":5804:5810   */\n      dup5\n        /* \"#utility.yul\":5740:5818   */\n      tag_77\n      jump\t// in\n    tag_147:\n        /* \"#utility.yul\":5732:5818   */\n      swap1\n      pop\n        /* \"#utility.yul\":5512:5825   */\n      swap3\n      swap2\n      pop\n      pop\n      jump\t// out\n        /* \"#utility.yul\":5831:6011   */\n    tag_38:\n        /* \"#utility.yul\":5879:5956   */\n      0x4e487b7100000000000000000000000000000000000000000000000000000000\n        /* \"#utility.yul\":5876:5877   */\n      0x00\n        /* \"#utility.yul\":5869:5957   */\n      mstore\n        /* \"#utility.yul\":5976:5980   */\n      0x32\n        /* \"#utility.yul\":5973:5974   */\n      0x04\n        /* \"#utility.yul\":5966:5981   */\n      mstore\n        /* \"#utility.yul\":6000:6004   */\n      0x24\n        /* \"#utility.yul\":5997:5998   */\n      0x00\n        /* \"#utility.yul\":5990:6005   */\n      revert\n        /* \"#utility.yul\":6017:6197   */\n    tag_78:\n        /* \"#utility.yul\":6065:6142   */\n      0x4e487b7100000000000000000000000000000000000000000000000000000000\n        /* \"#utility.yul\":6062:6063   */\n      0x00\n        /* \"#utility.yul\":6055:6143   */\n      mstore\n        /* \"#utility.yul\":6162:6166   */\n      0x11\n        /* \"#utility.yul\":6159:6160   */\n      0x04\n        /* \"#utility.yul\":6152:6167   */\n      mstore\n        /* \"#utility.yul\":6186:6190   */\n      0x24\n        /* \"#utility.yul\":6183:6184   */\n      0x00\n        /* \"#utility.yul\":6176:6191   */\n      revert\n        /* \"#utility.yul\":6203:6394   */\n    tag_40:\n        /* \"#utility.yul\":6243:6246   */\n      0x00\n        /* \"#utility.yul\":6262:6282   */\n      tag_151\n        /* \"#utility.yul\":6280:6281   */\n      dup3\n        /* \"#utility.yul\":6262:6282   */\n      tag_65\n      jump\t// in\n    tag_151:\n        /* \"#utility.yul\":6257:6282   */\n      swap2\n      pop\n        /* \"#utility.yul\":6296:6316   */\n      tag_152\n        /* \"#utility.yul\":6314:6315   */\n      dup4\n        /* \"#utility.yul\":6296:6316   */\n      tag_65\n      jump\t// in\n    tag_152:\n        /* \"#utility.yul\":6291:6316   */\n      swap3\n      pop\n        /* \"#utility.yul\":6339:6340   */\n      dup3\n        /* \"#utility.yul\":6336:6337   */\n      dup3\n        /* \"#utility.yul\":6332:6341   */\n      add\n        /* \"#utility.yul\":6325:6341   */\n      swap1\n      pop\n        /* \"#utility.yul\":6360:6363   */\n      dup1\n        /* \"#utility.yul\":6357:6358   */\n      dup3\n        /* \"#utility.yul\":6354:6364   */\n      gt\n        /* \"#utility.yul\":6351:6387   */\n      iszero\n      tag_153\n      jumpi\n        /* \"#utility.yul\":6367:6385   */\n      tag_154\n      tag_78\n      jump\t// in\n    tag_154:\n        /* \"#utility.yul\":6351:6387   */\n    tag_153:\n        /* \"#utility.yul\":6203:6394   */\n      swap3\n      swap2\n      pop\n      pop\n      jump\t// out\n        /* \"#utility.yul\":6400:6559   */\n    tag_79:\n        /* \"#utility.yul\":6540:6551   */\n      0x4e6f74206f776e65720000000000000000000000000000000000000000000000\n        /* \"#utility.yul\":6536:6537   */\n      0x00\n        /* \"#utility.yul\":6528:6534   */\n      dup3\n        /* \"#utility.yul\":6524:6538   */\n      add\n        /* \"#utility.yul\":6517:6552   */\n      mstore\n        /* \"#utility.yul\":6400:6559   */\n      pop\n      jump\t// out\n        /* \"#utility.yul\":6565:6930   */\n    tag_80:\n        /* \"#utility.yul\":6707:6710   */\n      0x00\n        /* \"#utility.yul\":6728:6794   */\n      tag_157\n        /* \"#utility.yul\":6792:6793   */\n      0x09\n        /* \"#utility.yul\":6787:6790   */\n      dup4\n        /* \"#utility.yul\":6728:6794   */\n      tag_74\n      jump\t// in\n    tag_157:\n        /* \"#utility.yul\":6721:6794   */\n      swap2\n      pop\n        /* \"#utility.yul\":6803:6896   */\n      tag_158\n        /* \"#utility.yul\":6892:6895   */\n      dup3\n        /* \"#utility.yul\":6803:6896   */\n      tag_79\n      jump\t// in\n    tag_158:\n        /* \"#utility.yul\":6921:6923   */\n      0x20\n        /* \"#utility.yul\":6916:6919   */\n      dup3\n        /* \"#utility.yul\":6912:6924   */\n      add\n        /* \"#utility.yul\":6905:6924   */\n      swap1\n      pop\n        /* \"#utility.yul\":6565:6930   */\n      swap2\n      swap1\n      pop\n      jump\t// out\n        /* \"#utility.yul\":6936:7355   */\n    tag_47:\n        /* \"#utility.yul\":7102:7106   */\n      0x00\n        /* \"#utility.yul\":7140:7142   */\n      0x20\n        /* \"#utility.yul\":7129:7138   */\n      dup3\n        /* \"#utility.yul\":7125:7143   */\n      add\n        /* \"#utility.yul\":7117:7143   */\n      swap1\n      pop\n        /* \"#utility.yul\":7189:7198   */\n      dup2\n        /* \"#utility.yul\":7183:7187   */\n      dup2\n        /* \"#utility.yul\":7179:7199   */\n      sub\n        /* \"#utility.yul\":7175:7176   */\n      0x00\n        /* \"#utility.yul\":7164:7173   */\n      dup4\n        /* \"#utility.yul\":7160:7177   */\n      add\n        /* \"#utility.yul\":7153:7200   */\n      mstore\n        /* \"#utility.yul\":7217:7348   */\n      tag_160\n        /* \"#utility.yul\":7343:7347   */\n      dup2\n        /* \"#utility.yul\":7217:7348   */\n      tag_80\n      jump\t// in\n    tag_160:\n        /* \"#utility.yul\":7209:7348   */\n      swap1\n      pop\n        /* \"#utility.yul\":6936:7355   */\n      swap2\n      swap1\n      pop\n      jump\t// out\n        /* \"#utility.yul\":7361:7526   */\n    tag_81:\n        /* \"#utility.yul\":7501:7518   */\n      0x417272617920746f6f206c617267650000000000000000000000000000000000\n        /* \"#utility.yul\":7497:7498   */\n      0x00\n        /* \"#utility.yul\":7489:7495   */\n      dup3\n        /* \"#utility.yul\":7485:7499   */\n      add\n        /* \"#utility.yul\":7478:7519   */\n      mstore\n        /* \"#utility.yul\":7361:7526   */\n      pop\n      jump\t// out\n        /* \"#utility.yul\":7532:7898   */\n    tag_82:\n        /* \"#utility.yul\":7674:7677   */\n      0x00\n        /* \"#utility.yul\":7695:7762   */\n      tag_163\n        /* \"#utility.yul\":7759:7761   */\n      0x0f\n        /* \"#utility.yul\":7754:7757   */\n      dup4\n        /* \"#utility.yul\":7695:7762   */\n      tag_74\n      jump\t// in\n    tag_163:\n        /* \"#utility.yul\":7688:7762   */\n      swap2\n      pop\n        /* \"#utility.yul\":7771:7864   */\n      tag_164\n        /* \"#utility.yul\":7860:7863   */\n      dup3\n        /* \"#utility.yul\":7771:7864   */\n      tag_81\n      jump\t// in\n    tag_164:\n        /* \"#utility.yul\":7889:7891   */\n      0x20\n        /* \"#utility.yul\":7884:7887   */\n      dup3\n        /* \"#utility.yul\":7880:7892   */\n      add\n        /* \"#utility.yul\":7873:7892   */\n      swap1\n      pop\n        /* \"#utility.yul\":7532:7898   */\n      swap2\n      swap1\n      pop\n      jump\t// out\n        /* \"#utility.yul\":7904:8323   */\n    tag_51:\n        /* \"#utility.yul\":8070:8074   */\n      0x00\n        /* \"#utility.yul\":8108:8110   */\n      0x20\n        /* \"#utility.yul\":8097:8106   */\n      dup3\n        /* \"#utility.yul\":8093:8111   */\n      add\n        /* \"#utility.yul\":8085:8111   */\n      swap1\n      pop\n        /* \"#utility.yul\":8157:8166   */\n      dup2\n        /* \"#utility.yul\":8151:8155   */\n      dup2\n        /* \"#utility.yul\":8147:8167   */\n      sub\n        /* \"#utility.yul\":8143:8144   */\n      0x00\n        /* \"#utility.yul\":8132:8141   */\n      dup4\n        /* \"#utility.yul\":8128:8145   */\n      add\n        /* \"#utility.yul\":8121:8168   */\n      mstore\n        /* \"#utility.yul\":8185:8316   */\n      tag_166\n        /* \"#utility.yul\":8311:8315   */\n      dup2\n        /* \"#utility.yul\":8185:8316   */\n      tag_82\n      jump\t// in\n    tag_166:\n        /* \"#utility.yul\":8177:8316   */\n      swap1\n      pop\n        /* \"#utility.yul\":7904:8323   */\n      swap2\n      swap1\n      pop\n      jump\t// out\n\n    auxdata: 0xa26469706673582212207b81293e4b5393282fb6c77fe11db6c7c4bebc34337091994ce24abb1f956a4964736f6c63430008220033\n}\n",
				"bytecode": {
					"linkReferences": {},
					"object": "6080604052348015600e575f5ffd5b50335f5f6101000a81548173ffffffffffffffffffffffffffffffffffffffff021916908373ffffffffffffffffffffffffffffffffffffffff1602179055506107918061005b5f395ff3fe608060405234801561000f575f5ffd5b5060043610610055575f3560e01c8063034f55d21461005957806340f81363146100895780638da5cb5b146100b957806399df5bbe146100d7578063e4f7d55114610107575b5f5ffd5b610073600480360381019061006e91906103a5565b610123565b6040516100809190610408565b60405180910390f35b6100a3600480360381019061009e919061044b565b610174565b6040516100b09190610408565b60405180910390f35b6100c1610194565b6040516100ce91906104b5565b60405180910390f35b6100f160048036038101906100ec9190610523565b6101b8565b6040516100fe91906105de565b60405180910390f35b610121600480360381019061011c91906103a5565b610206565b005b5f5f5f5f90505b8484905081101561016957848482818110610148576101476105fe565b5b905060200201358261015a9190610658565b9150808060010191505061012a565b508091505092915050565b60018181548110610183575f80fd5b905f5260205f20015f915090505481565b5f5f9054906101000a900473ffffffffffffffffffffffffffffffffffffffff1681565b606082828080601f0160208091040260200160405190810160405280939291908181526020018383808284375f81840152601f19601f82011690508083019250505050505050905092915050565b5f5f9054906101000a900473ffffffffffffffffffffffffffffffffffffffff1673ffffffffffffffffffffffffffffffffffffffff163373ffffffffffffffffffffffffffffffffffffffff1614610294576040517f08c379a000000000000000000000000000000000000000000000000000000000815260040161028b906106d5565b60405180910390fd5b60648282905011156102db576040517f08c379a00000000000000000000000000000000000000000000000000000000081526004016102d29061073d565b60405180910390fd5b5f5f90505b82829050811015610337576001838383818110610300576102ff6105fe565b5b90506020020135908060018154018082558091505060019003905f5260205f20015f909190919091505580806001019150506102e0565b505050565b5f5ffd5b5f5ffd5b5f5ffd5b5f5ffd5b5f5ffd5b5f5f83601f84011261036557610364610344565b5b8235905067ffffffffffffffff81111561038257610381610348565b5b60208301915083602082028301111561039e5761039d61034c565b5b9250929050565b5f5f602083850312156103bb576103ba61033c565b5b5f83013567ffffffffffffffff8111156103d8576103d7610340565b5b6103e485828601610350565b92509250509250929050565b5f819050919050565b610402816103f0565b82525050565b5f60208201905061041b5f8301846103f9565b92915050565b61042a816103f0565b8114610434575f5ffd5b50565b5f8135905061044581610421565b92915050565b5f602082840312156104605761045f61033c565b5b5f61046d84828501610437565b91505092915050565b5f73ffffffffffffffffffffffffffffffffffffffff82169050919050565b5f61049f82610476565b9050919050565b6104af81610495565b82525050565b5f6020820190506104c85f8301846104a6565b92915050565b5f5f83601f8401126104e3576104e2610344565b5b8235905067ffffffffffffffff811115610500576104ff610348565b5b60208301915083600182028301111561051c5761051b61034c565b5b9250929050565b5f5f602083850312156105395761053861033c565b5b5f83013567ffffffffffffffff81111561055657610555610340565b5b610562858286016104ce565b92509250509250929050565b5f81519050919050565b5f82825260208201905092915050565b8281835e5f83830152505050565b5f601f19601f8301169050919050565b5f6105b08261056e565b6105ba8185610578565b93506105ca818560208601610588565b6105d381610596565b840191505092915050565b5f6020820190508181035f8301526105f681846105a6565b905092915050565b7f4e487b71000000000000000000000000000000000000000000000000000000005f52603260045260245ffd5b7f4e487b71000000000000000000000000000000000000000000000000000000005f52601160045260245ffd5b5f610662826103f0565b915061066d836103f0565b92508282019050808211156106855761068461062b565b5b92915050565b7f4e6f74206f776e657200000000000000000000000000000000000000000000005f82015250565b5f6106bf600983610578565b91506106ca8261068b565b602082019050919050565b5f6020820190508181035f8301526106ec816106b3565b9050919050565b7f417272617920746f6f206c6172676500000000000000000000000000000000005f82015250565b5f610727600f83610578565b9150610732826106f3565b602082019050919050565b5f6020820190508181035f8301526107548161071b565b905091905056fea26469706673582212207b81293e4b5393282fb6c77fe11db6c7c4bebc34337091994ce24abb1f956a4964736f6c63430008220033",
					"opcodes": "PUSH1 0x80 PUSH1 0x40 MSTORE CALLVALUE DUP1 ISZERO PUSH1 0xE JUMPI PUSH0 PUSH0 REVERT JUMPDEST POP CALLER PUSH0 PUSH0 PUSH2 0x100 EXP DUP2 SLOAD DUP2 PUSH20 0xFFFFFFFFFFFFFFFFFFFFFFFFFFFFFFFFFFFFFFFF MUL NOT AND SWAP1 DUP4 PUSH20 0xFFFFFFFFFFFFFFFFFFFFFFFFFFFFFFFFFFFFFFFF AND MUL OR SWAP1 SSTORE POP PUSH2 0x791 DUP1 PUSH2 0x5B PUSH0 CODECOPY PUSH0 RETURN INVALID PUSH1 0x80 PUSH1 0x40 MSTORE CALLVALUE DUP1 ISZERO PUSH2 0xF JUMPI PUSH0 PUSH0 REVERT JUMPDEST POP PUSH1 0x4 CALLDATASIZE LT PUSH2 0x55 JUMPI PUSH0 CALLDATALOAD PUSH1 0xE0 SHR DUP1 PUSH4 0x34F55D2 EQ PUSH2 0x59 JUMPI DUP1 PUSH4 0x40F81363 EQ PUSH2 0x89 JUMPI DUP1 PUSH4 0x8DA5CB5B EQ PUSH2 0xB9 JUMPI DUP1 PUSH4 0x99DF5BBE EQ PUSH2 0xD7 JUMPI DUP1 PUSH4 0xE4F7D551 EQ PUSH2 0x107 JUMPI JUMPDEST PUSH0 PUSH0 REVERT JUMPDEST PUSH2 0x73 PUSH1 0x4 DUP1 CALLDATASIZE SUB DUP2 ADD SWAP1 PUSH2 0x6E SWAP2 SWAP1 PUSH2 0x3A5 JUMP JUMPDEST PUSH2 0x123 JUMP JUMPDEST PUSH1 0x40 MLOAD PUSH2 0x80 SWAP2 SWAP1 PUSH2 0x408 JUMP JUMPDEST PUSH1 0x40 MLOAD DUP1 SWAP2 SUB SWAP1 RETURN JUMPDEST PUSH2 0xA3 PUSH1 0x4 DUP1 CALLDATASIZE SUB DUP2 ADD SWAP1 PUSH2 0x9E SWAP2 SWAP1 PUSH2 0x44B JUMP JUMPDEST PUSH2 0x174 JUMP JUMPDEST PUSH1 0x40 MLOAD PUSH2 0xB0 SWAP2 SWAP1 PUSH2 0x408 JUMP JUMPDEST PUSH1 0x40 MLOAD DUP1 SWAP2 SUB SWAP1 RETURN JUMPDEST PUSH2 0xC1 PUSH2 0x194 JUMP JUMPDEST PUSH1 0x40 MLOAD PUSH2 0xCE SWAP2 SWAP1 PUSH2 0x4B5 JUMP JUMPDEST PUSH1 0x40 MLOAD DUP1 SWAP2 SUB SWAP1 RETURN JUMPDEST PUSH2 0xF1 PUSH1 0x4 DUP1 CALLDATASIZE SUB DUP2 ADD SWAP1 PUSH2 0xEC SWAP2 SWAP1 PUSH2 0x523 JUMP JUMPDEST PUSH2 0x1B8 JUMP JUMPDEST PUSH1 0x40 MLOAD PUSH2 0xFE SWAP2 SWAP1 PUSH2 0x5DE JUMP JUMPDEST PUSH1 0x40 MLOAD DUP1 SWAP2 SUB SWAP1 RETURN JUMPDEST PUSH2 0x121 PUSH1 0x4 DUP1 CALLDATASIZE SUB DUP2 ADD SWAP1 PUSH2 0x11C SWAP2 SWAP1 PUSH2 0x3A5 JUMP JUMPDEST PUSH2 0x206 JUMP JUMPDEST STOP JUMPDEST PUSH0 PUSH0 PUSH0 PUSH0 SWAP1 POP JUMPDEST DUP5 DUP5 SWAP1 POP DUP2 LT ISZERO PUSH2 0x169 JUMPI DUP5 DUP5 DUP3 DUP2 DUP2 LT PUSH2 0x148 JUMPI PUSH2 0x147 PUSH2 0x5FE JUMP JUMPDEST JUMPDEST SWAP1 POP PUSH1 0x20 MUL ADD CALLDATALOAD DUP3 PUSH2 0x15A SWAP2 SWAP1 PUSH2 0x658 JUMP JUMPDEST SWAP2 POP DUP1 DUP1 PUSH1 0x1 ADD SWAP2 POP POP PUSH2 0x12A JUMP JUMPDEST POP DUP1 SWAP2 POP POP SWAP3 SWAP2 POP POP JUMP JUMPDEST PUSH1 0x1 DUP2 DUP2 SLOAD DUP2 LT PUSH2 0x183 JUMPI PUSH0 DUP1 REVERT JUMPDEST SWAP1 PUSH0 MSTORE PUSH1 0x20 PUSH0 KECCAK256 ADD PUSH0 SWAP2 POP SWAP1 POP SLOAD DUP2 JUMP JUMPDEST PUSH0 PUSH0 SWAP1 SLOAD SWAP1 PUSH2 0x100 EXP SWAP1 DIV PUSH20 0xFFFFFFFFFFFFFFFFFFFFFFFFFFFFFFFFFFFFFFFF AND DUP2 JUMP JUMPDEST PUSH1 0x60 DUP3 DUP3 DUP1 DUP1 PUSH1 0x1F ADD PUSH1 0x20 DUP1 SWAP2 DIV MUL PUSH1 0x20 ADD PUSH1 0x40 MLOAD SWAP1 DUP2 ADD PUSH1 0x40 MSTORE DUP1 SWAP4 SWAP3 SWAP2 SWAP1 DUP2 DUP2 MSTORE PUSH1 0x20 ADD DUP4 DUP4 DUP1 DUP3 DUP5 CALLDATACOPY PUSH0 DUP2 DUP5 ADD MSTORE PUSH1 0x1F NOT PUSH1 0x1F DUP3 ADD AND SWAP1 POP DUP1 DUP4 ADD SWAP3 POP POP POP POP POP POP POP SWAP1 POP SWAP3 SWAP2 POP POP JUMP JUMPDEST PUSH0 PUSH0 SWAP1 SLOAD SWAP1 PUSH2 0x100 EXP SWAP1 DIV PUSH20 0xFFFFFFFFFFFFFFFFFFFFFFFFFFFFFFFFFFFFFFFF AND PUSH20 0xFFFFFFFFFFFFFFFFFFFFFFFFFFFFFFFFFFFFFFFF AND CALLER PUSH20 0xFFFFFFFFFFFFFFFFFFFFFFFFFFFFFFFFFFFFFFFF AND EQ PUSH2 0x294 JUMPI PUSH1 0x40 MLOAD PUSH32 0x8C379A000000000000000000000000000000000000000000000000000000000 DUP2 MSTORE PUSH1 0x4 ADD PUSH2 0x28B SWAP1 PUSH2 0x6D5 JUMP JUMPDEST PUSH1 0x40 MLOAD DUP1 SWAP2 SUB SWAP1 REVERT JUMPDEST PUSH1 0x64 DUP3 DUP3 SWAP1 POP GT ISZERO PUSH2 0x2DB JUMPI PUSH1 0x40 MLOAD PUSH32 0x8C379A000000000000000000000000000000000000000000000000000000000 DUP2 MSTORE PUSH1 0x4 ADD PUSH2 0x2D2 SWAP1 PUSH2 0x73D JUMP JUMPDEST PUSH1 0x40 MLOAD DUP1 SWAP2 SUB SWAP1 REVERT JUMPDEST PUSH0 PUSH0 SWAP1 POP JUMPDEST DUP3 DUP3 SWAP1 POP DUP2 LT ISZERO PUSH2 0x337 JUMPI PUSH1 0x1 DUP4 DUP4 DUP4 DUP2 DUP2 LT PUSH2 0x300 JUMPI PUSH2 0x2FF PUSH2 0x5FE JUMP JUMPDEST JUMPDEST SWAP1 POP PUSH1 0x20 MUL ADD CALLDATALOAD SWAP1 DUP1 PUSH1 0x1 DUP2 SLOAD ADD DUP1 DUP3 SSTORE DUP1 SWAP2 POP POP PUSH1 0x1 SWAP1 SUB SWAP1 PUSH0 MSTORE PUSH1 0x20 PUSH0 KECCAK256 ADD PUSH0 SWAP1 SWAP2 SWAP1 SWAP2 SWAP1 SWAP2 POP SSTORE DUP1 DUP1 PUSH1 0x1 ADD SWAP2 POP POP PUSH2 0x2E0 JUMP JUMPDEST POP POP POP JUMP JUMPDEST PUSH0 PUSH0 REVERT JUMPDEST PUSH0 PUSH0 REVERT JUMPDEST PUSH0 PUSH0 REVERT JUMPDEST PUSH0 PUSH0 REVERT JUMPDEST PUSH0 PUSH0 REVERT JUMPDEST PUSH0 PUSH0 DUP4 PUSH1 0x1F DUP5 ADD SLT PUSH2 0x365 JUMPI PUSH2 0x364 PUSH2 0x344 JUMP JUMPDEST JUMPDEST DUP3 CALLDATALOAD SWAP1 POP PUSH8 0xFFFFFFFFFFFFFFFF DUP2 GT ISZERO PUSH2 0x382 JUMPI PUSH2 0x381 PUSH2 0x348 JUMP JUMPDEST JUMPDEST PUSH1 0x20 DUP4 ADD SWAP2 POP DUP4 PUSH1 0x20 DUP3 MUL DUP4 ADD GT ISZERO PUSH2 0x39E JUMPI PUSH2 0x39D PUSH2 0x34C JUMP JUMPDEST JUMPDEST SWAP3 POP SWAP3 SWAP1 POP JUMP JUMPDEST PUSH0 PUSH0 PUSH1 0x20 DUP4 DUP6 SUB SLT ISZERO PUSH2 0x3BB JUMPI PUSH2 0x3BA PUSH2 0x33C JUMP JUMPDEST JUMPDEST PUSH0 DUP4 ADD CALLDATALOAD PUSH8 0xFFFFFFFFFFFFFFFF DUP2 GT ISZERO PUSH2 0x3D8 JUMPI PUSH2 0x3D7 PUSH2 0x340 JUMP JUMPDEST JUMPDEST PUSH2 0x3E4 DUP6 DUP3 DUP7 ADD PUSH2 0x350 JUMP JUMPDEST SWAP3 POP SWAP3 POP POP SWAP3 POP SWAP3 SWAP1 POP JUMP JUMPDEST PUSH0 DUP2 SWAP1 POP SWAP2 SWAP1 POP JUMP JUMPDEST PUSH2 0x402 DUP2 PUSH2 0x3F0 JUMP JUMPDEST DUP3 MSTORE POP POP JUMP JUMPDEST PUSH0 PUSH1 0x20 DUP3 ADD SWAP1 POP PUSH2 0x41B PUSH0 DUP4 ADD DUP5 PUSH2 0x3F9 JUMP JUMPDEST SWAP3 SWAP2 POP POP JUMP JUMPDEST PUSH2 0x42A DUP2 PUSH2 0x3F0 JUMP JUMPDEST DUP2 EQ PUSH2 0x434 JUMPI PUSH0 PUSH0 REVERT JUMPDEST POP JUMP JUMPDEST PUSH0 DUP2 CALLDATALOAD SWAP1 POP PUSH2 0x445 DUP2 PUSH2 0x421 JUMP JUMPDEST SWAP3 SWAP2 POP POP JUMP JUMPDEST PUSH0 PUSH1 0x20 DUP3 DUP5 SUB SLT ISZERO PUSH2 0x460 JUMPI PUSH2 0x45F PUSH2 0x33C JUMP JUMPDEST JUMPDEST PUSH0 PUSH2 0x46D DUP5 DUP3 DUP6 ADD PUSH2 0x437 JUMP JUMPDEST SWAP2 POP POP SWAP3 SWAP2 POP POP JUMP JUMPDEST PUSH0 PUSH20 0xFFFFFFFFFFFFFFFFFFFFFFFFFFFFFFFFFFFFFFFF DUP3 AND SWAP1 POP SWAP2 SWAP1 POP JUMP JUMPDEST PUSH0 PUSH2 0x49F DUP3 PUSH2 0x476 JUMP JUMPDEST SWAP1 POP SWAP2 SWAP1 POP JUMP JUMPDEST PUSH2 0x4AF DUP2 PUSH2 0x495 JUMP JUMPDEST DUP3 MSTORE POP POP JUMP JUMPDEST PUSH0 PUSH1 0x20 DUP3 ADD SWAP1 POP PUSH2 0x4C8 PUSH0 DUP4 ADD DUP5 PUSH2 0x4A6 JUMP JUMPDEST SWAP3 SWAP2 POP POP JUMP JUMPDEST PUSH0 PUSH0 DUP4 PUSH1 0x1F DUP5 ADD SLT PUSH2 0x4E3 JUMPI PUSH2 0x4E2 PUSH2 0x344 JUMP JUMPDEST JUMPDEST DUP3 CALLDATALOAD SWAP1 POP PUSH8 0xFFFFFFFFFFFFFFFF DUP2 GT ISZERO PUSH2 0x500 JUMPI PUSH2 0x4FF PUSH2 0x348 JUMP JUMPDEST JUMPDEST PUSH1 0x20 DUP4 ADD SWAP2 POP DUP4 PUSH1 0x1 DUP3 MUL DUP4 ADD GT ISZERO PUSH2 0x51C JUMPI PUSH2 0x51B PUSH2 0x34C JUMP JUMPDEST JUMPDEST SWAP3 POP SWAP3 SWAP1 POP JUMP JUMPDEST PUSH0 PUSH0 PUSH1 0x20 DUP4 DUP6 SUB SLT ISZERO PUSH2 0x539 JUMPI PUSH2 0x538 PUSH2 0x33C JUMP JUMPDEST JUMPDEST PUSH0 DUP4 ADD CALLDATALOAD PUSH8 0xFFFFFFFFFFFFFFFF DUP2 GT ISZERO PUSH2 0x556 JUMPI PUSH2 0x555 PUSH2 0x340 JUMP JUMPDEST JUMPDEST PUSH2 0x562 DUP6 DUP3 DUP7 ADD PUSH2 0x4CE JUMP JUMPDEST SWAP3 POP SWAP3 POP POP SWAP3 POP SWAP3 SWAP1 POP JUMP JUMPDEST PUSH0 DUP2 MLOAD SWAP1 POP SWAP2 SWAP1 POP JUMP JUMPDEST PUSH0 DUP3 DUP3 MSTORE PUSH1 0x20 DUP3 ADD SWAP1 POP SWAP3 SWAP2 POP POP JUMP JUMPDEST DUP3 DUP2 DUP4 MCOPY PUSH0 DUP4 DUP4 ADD MSTORE POP POP POP JUMP JUMPDEST PUSH0 PUSH1 0x1F NOT PUSH1 0x1F DUP4 ADD AND SWAP1 POP SWAP2 SWAP1 POP JUMP JUMPDEST PUSH0 PUSH2 0x5B0 DUP3 PUSH2 0x56E JUMP JUMPDEST PUSH2 0x5BA DUP2 DUP6 PUSH2 0x578 JUMP JUMPDEST SWAP4 POP PUSH2 0x5CA DUP2 DUP6 PUSH1 0x20 DUP7 ADD PUSH2 0x588 JUMP JUMPDEST PUSH2 0x5D3 DUP2 PUSH2 0x596 JUMP JUMPDEST DUP5 ADD SWAP2 POP POP SWAP3 SWAP2 POP POP JUMP JUMPDEST PUSH0 PUSH1 0x20 DUP3 ADD SWAP1 POP DUP2 DUP2 SUB PUSH0 DUP4 ADD MSTORE PUSH2 0x5F6 DUP2 DUP5 PUSH2 0x5A6 JUMP JUMPDEST SWAP1 POP SWAP3 SWAP2 POP POP JUMP JUMPDEST PUSH32 0x4E487B7100000000000000000000000000000000000000000000000000000000 PUSH0 MSTORE PUSH1 0x32 PUSH1 0x4 MSTORE PUSH1 0x24 PUSH0 REVERT JUMPDEST PUSH32 0x4E487B7100000000000000000000000000000000000000000000000000000000 PUSH0 MSTORE PUSH1 0x11 PUSH1 0x4 MSTORE PUSH1 0x24 PUSH0 REVERT JUMPDEST PUSH0 PUSH2 0x662 DUP3 PUSH2 0x3F0 JUMP JUMPDEST SWAP2 POP PUSH2 0x66D DUP4 PUSH2 0x3F0 JUMP JUMPDEST SWAP3 POP DUP3 DUP3 ADD SWAP1 POP DUP1 DUP3 GT ISZERO PUSH2 0x685 JUMPI PUSH2 0x684 PUSH2 0x62B JUMP JUMPDEST JUMPDEST SWAP3 SWAP2 POP POP JUMP JUMPDEST PUSH32 0x4E6F74206F776E65720000000000000000000000000000000000000000000000 PUSH0 DUP3 ADD MSTORE POP JUMP JUMPDEST PUSH0 PUSH2 0x6BF PUSH1 0x9 DUP4 PUSH2 0x578 JUMP JUMPDEST SWAP2 POP PUSH2 0x6CA DUP3 PUSH2 0x68B JUMP JUMPDEST PUSH1 0x20 DUP3 ADD SWAP1 POP SWAP2 SWAP1 POP JUMP JUMPDEST PUSH0 PUSH1 0x20 DUP3 ADD SWAP1 POP DUP2 DUP2 SUB PUSH0 DUP4 ADD MSTORE PUSH2 0x6EC DUP2 PUSH2 0x6B3 JUMP JUMPDEST SWAP1 POP SWAP2 SWAP1 POP JUMP JUMPDEST PUSH32 0x417272617920746F6F206C617267650000000000000000000000000000000000 PUSH0 DUP3 ADD MSTORE POP JUMP JUMPDEST PUSH0 PUSH2 0x727 PUSH1 0xF DUP4 PUSH2 0x578 JUMP JUMPDEST SWAP2 POP PUSH2 0x732 DUP3 PUSH2 0x6F3 JUMP JUMPDEST PUSH1 0x20 DUP3 ADD SWAP1 POP SWAP2 SWAP1 POP JUMP JUMPDEST PUSH0 PUSH1 0x20 DUP3 ADD SWAP1 POP DUP2 DUP2 SUB PUSH0 DUP4 ADD MSTORE PUSH2 0x754 DUP2 PUSH2 0x71B JUMP JUMPDEST SWAP1 POP SWAP2 SWAP1 POP JUMP INVALID LOG2 PUSH5 0x6970667358 0x22 SLT KECCAK256 PUSH28 0x81293E4B5393282FB6C77FE11DB6C7C4BEBC34337091994CE24ABB1F SWAP6 PUSH11 0x4964736F6C634300082200 CALLER "
				},
				"gasEstimates": {
					"creation": {
						"codeDepositCost": "387400",
						"executionCost": "24686",
						"totalCost": "412086"
					},
					"external": {
						"calculateSum(uint256[])": "infinite",
						"echoMessage(string)": "infinite",
						"owner()": "2529",
						"saveValues(uint256[])": "infinite",
						"savedNumbers(uint256)": "infinite"
					}
				},
				"methodIdentifiers": {
					"calculateSum(uint256[])": "034f55d2",
					"echoMessage(string)": "99df5bbe",
					"owner()": "8da5cb5b",
					"saveValues(uint256[])": "e4f7d551",
					"savedNumbers(uint256)": "40f81363"
				}
			},
			"storageLayout": {
				"storage": [
					{
						"astId": 78,
						"contract": "prac32.sol:ExternalCalldataOptimizationPatched",
						"label": "owner",
						"offset": 0,
						"slot": "0",
						"type": "t_address"
					},
					{
						"astId": 81,
						"contract": "prac32.sol:ExternalCalldataOptimizationPatched",
						"label": "savedNumbers",
						"offset": 0,
						"slot": "1",
						"type": "t_array(t_uint256)dyn_storage"
					}
				],
				"types": {
					"t_address": {
						"encoding": "inplace",
						"label": "address",
						"numberOfBytes": "20"
					},
					"t_array(t_uint256)dyn_storage": {
						"base": "t_uint256",
						"encoding": "dynamic_array",
						"label": "uint256[]",
						"numberOfBytes": "32"
					},
					"t_uint256": {
						"encoding": "inplace",
						"label": "uint256",
						"numberOfBytes": "32"
					}
				}
			},
			"userdoc": {
				"kind": "user",
				"methods": {},
				"version": 1
			}
		}
	}
}