{
	"prac75.sol": {
		"MaxUintBoundaryTest": {
			"abi": [
				{
					"anonymous": false,
					"inputs": [
						{
							"indexed": false,
							"internalType": "uint256",
							"name": "value",
							"type": "uint256"
						}
					],
					"name": "ValueReceived",
					"type": "event"
				},
				{
					"inputs": [],
					"name": "calls",
					"outputs": [
						{
							"internalType": "uint256",
							"name": "",
							"type": "uint256"
						}
					],
					"stateMutability": "view",
					"type": "function"
				},
				{
					"inputs": [],
					"name": "lastValue",
					"outputs": [
						{
							"internalType": "uint256",
							"name": "",
							"type": "uint256"
						}
					],
					"stateMutability": "view",
					"type": "function"
				},
				{
					"inputs": [
						{
							"internalType": "uint256",
							"name": "value",
							"type": "uint256"
						}
					],
					"name": "safeSet",
					"outputs": [],
					"stateMutability": "nonpayable",
					"type": "function"
				},
				{
					"inputs": [
						{
							"internalType": "uint256",
							"name": "value",
							"type": "uint256"
						}
					],
					"name": "set",
					"outputs": [],
					"stateMutability": "nonpayable",
					"type": "function"
				},
				{
					"inputs": [
						{
							"internalType": "uint256",
							"name": "n",
							"type": "uint256"
						}
					],
					"name": "stressMax",
					"outputs": [],
					"stateMutability": "nonpayable",
					"type": "function"
				},
				{
					"inputs": [],
					"name": "sum",
					"outputs": [
						{
							"internalType": "uint256",
							"name": "",
							"type": "uint256"
						}
					],
					"stateMutability": "view",
					"type": "function"
				},
				{
					"inputs": [],
					"name": "testMaxUint",
					"outputs": [],
					"stateMutability": "nonpayable",
					"type": "function"
				}
			],
			"devdoc": {
				"kind": "dev",
				"methods": {},
				"version": 1
			},
			"evm": {
				"assembly": "    /* \"prac75.sol\":874:2316  contract MaxUintBoundaryTest {... */\n  mstore(0x40, 0x80)\n  callvalue\n  dup1\n  iszero\n  tag_1\n  jumpi\n  revert(0x00, 0x00)\ntag_1:\n  pop\n  dataSize(sub_0)\n  dup1\n  dataOffset(sub_0)\n  0x00\n  codecopy\n  0x00\n  return\nstop\n\nsub_0: assembly {\n        /* \"prac75.sol\":874:2316  contract MaxUintBoundaryTest {... */\n      mstore(0x40, 0x80)\n      callvalue\n      dup1\n      iszero\n      tag_1\n      jumpi\n      revert(0x00, 0x00)\n    tag_1:\n      pop\n      jumpi(tag_2, lt(calldatasize, 0x04))\n      shr(0xe0, calldataload(0x00))\n      dup1\n      0x60fe47b1\n      gt\n      tag_10\n      jumpi\n      dup1\n      0x60fe47b1\n      eq\n      tag_6\n      jumpi\n      dup1\n      0x853255cc\n      eq\n      tag_7\n      jumpi\n      dup1\n      0x9bad747c\n      eq\n      tag_8\n      jumpi\n      dup1\n      0xd55f8e68\n      eq\n      tag_9\n      jumpi\n      jump(tag_2)\n    tag_10:\n      dup1\n      0x20644867\n      eq\n      tag_3\n      jumpi\n      dup1\n      0x305f72b7\n      eq\n      tag_4\n      jumpi\n      dup1\n      0x43183834\n      eq\n      tag_5\n      jumpi\n    tag_2:\n      revert(0x00, 0x00)\n        /* \"prac75.sol\":1520:1623  function testMaxUint() external {... */\n    tag_3:\n      tag_11\n      tag_12\n      jump\t// in\n    tag_11:\n      stop\n        /* \"prac75.sol\":968:988  uint256 public calls */\n    tag_4:\n      tag_13\n      tag_14\n      jump\t// in\n    tag_13:\n      mload(0x40)\n      tag_15\n      swap2\n      swap1\n      tag_16\n      jump\t// in\n    tag_15:\n      mload(0x40)\n      dup1\n      swap2\n      sub\n      swap1\n      return\n        /* \"prac75.sol\":912:936  uint256 public lastValue */\n    tag_5:\n      tag_17\n      tag_18\n      jump\t// in\n    tag_17:\n      mload(0x40)\n      tag_19\n      swap2\n      swap1\n      tag_16\n      jump\t// in\n    tag_19:\n      mload(0x40)\n      dup1\n      swap2\n      sub\n      swap1\n      return\n        /* \"prac75.sol\":1197:1347  function set(uint256 value) public {... */\n    tag_6:\n      tag_20\n      0x04\n      dup1\n      calldatasize\n      sub\n      dup2\n      add\n      swap1\n      tag_21\n      swap2\n      swap1\n      tag_22\n      jump\t// in\n    tag_21:\n      tag_23\n      jump\t// in\n    tag_20:\n      stop\n        /* \"prac75.sol\":943:961  uint256 public sum */\n    tag_7:\n      tag_24\n      tag_25\n      jump\t// in\n    tag_24:\n      mload(0x40)\n      tag_26\n      swap2\n      swap1\n      tag_16\n      jump\t// in\n    tag_26:\n      mload(0x40)\n      dup1\n      swap2\n      sub\n      swap1\n      return\n        /* \"prac75.sol\":2129:2313  function safeSet(uint256 value) external {... */\n    tag_8:\n      tag_27\n      0x04\n      dup1\n      calldatasize\n      sub\n      dup2\n      add\n      swap1\n      tag_28\n      swap2\n      swap1\n      tag_22\n      jump\t// in\n    tag_28:\n      tag_29\n      jump\t// in\n    tag_27:\n      stop\n        /* \"prac75.sol\":1793:1961  function stressMax(uint256 n) external {... */\n    tag_9:\n      tag_30\n      0x04\n      dup1\n      calldatasize\n      sub\n      dup2\n      add\n      swap1\n      tag_31\n      swap2\n      swap1\n      tag_22\n      jump\t// in\n    tag_31:\n      tag_32\n      jump\t// in\n    tag_30:\n      stop\n        /* \"prac75.sol\":1520:1623  function testMaxUint() external {... */\n    tag_12:\n        /* \"prac75.sol\":1563:1574  uint256 max */\n      0x00\n        /* \"prac75.sol\":1577:1594  type(uint256).max */\n      0xffffffffffffffffffffffffffffffffffffffffffffffffffffffffffffffff\n        /* \"prac75.sol\":1563:1594  uint256 max = type(uint256).max */\n      swap1\n      pop\n        /* \"prac75.sol\":1607:1615  set(max) */\n      tag_34\n        /* \"prac75.sol\":1611:1614  max */\n      dup2\n        /* \"prac75.sol\":1607:1610  set */\n      tag_23\n        /* \"prac75.sol\":1607:1615  set(max) */\n      jump\t// in\n    tag_34:\n        /* \"prac75.sol\":1552:1623  {... */\n      pop\n        /* \"prac75.sol\":1520:1623  function testMaxUint() external {... */\n      jump\t// out\n        /* \"prac75.sol\":968:988  uint256 public calls */\n    tag_14:\n      sload(0x02)\n      dup2\n      jump\t// out\n        /* \"prac75.sol\":912:936  uint256 public lastValue */\n    tag_18:\n      sload(0x00)\n      dup2\n      jump\t// out\n        /* \"prac75.sol\":1197:1347  function set(uint256 value) public {... */\n    tag_23:\n        /* \"prac75.sol\":1255:1260  value */\n      dup1\n        /* \"prac75.sol\":1243:1252  lastValue */\n      0x00\n        /* \"prac75.sol\":1243:1260  lastValue = value */\n      dup2\n      swap1\n      sstore\n      pop\n        /* \"prac75.sol\":1278:1283  value */\n      dup1\n        /* \"prac75.sol\":1271:1274  sum */\n      0x01\n      0x00\n        /* \"prac75.sol\":1271:1283  sum += value */\n      dup3\n      dup3\n      sload\n      tag_36\n      swap2\n      swap1\n      tag_37\n      jump\t// in\n    tag_36:\n      swap3\n      pop\n      pop\n      dup2\n      swap1\n      sstore\n      pop\n        /* \"prac75.sol\":1294:1299  calls */\n      0x02\n      0x00\n        /* \"prac75.sol\":1294:1301  calls++ */\n      dup2\n      sload\n      dup1\n      swap3\n      swap2\n      swap1\n      tag_38\n      swap1\n      tag_39\n      jump\t// in\n    tag_38:\n      swap2\n      swap1\n      pop\n      sstore\n      pop\n        /* \"prac75.sol\":1319:1339  ValueReceived(value) */\n      0xe12e3b7047ff60a2dd763cf536a43597e5ce7fe7aa7476345bd4cd079912bcef\n        /* \"prac75.sol\":1333:1338  value */\n      dup2\n        /* \"prac75.sol\":1319:1339  ValueReceived(value) */\n      mload(0x40)\n      tag_40\n      swap2\n      swap1\n      tag_16\n      jump\t// in\n    tag_40:\n      mload(0x40)\n      dup1\n      swap2\n      sub\n      swap1\n      log1\n        /* \"prac75.sol\":1197:1347  function set(uint256 value) public {... */\n      pop\n      jump\t// out\n        /* \"prac75.sol\":943:961  uint256 public sum */\n    tag_25:\n      sload(0x01)\n      dup2\n      jump\t// out\n        /* \"prac75.sol\":2129:2313  function safeSet(uint256 value) external {... */\n    tag_29:\n        /* \"prac75.sol\":2197:2214  type(uint256).max */\n      0xffffffffffffffffffffffffffffffffffffffffffffffffffffffffffffffff\n        /* \"prac75.sol\":2189:2194  value */\n      dup2\n        /* \"prac75.sol\":2189:2214  value < type(uint256).max */\n      lt\n        /* \"prac75.sol\":2181:2234  require(value < type(uint256).max, \"Max not allowed\") */\n      tag_42\n      jumpi\n      mload(0x40)\n      0x08c379a000000000000000000000000000000000000000000000000000000000\n      dup2\n      mstore\n      0x04\n      add\n      tag_43\n      swap1\n      tag_44\n      jump\t// in\n    tag_43:\n      mload(0x40)\n      dup1\n      swap2\n      sub\n      swap1\n      revert\n    tag_42:\n        /* \"prac75.sol\":2259:2264  value */\n      dup1\n        /* \"prac75.sol\":2247:2256  lastValue */\n      0x00\n        /* \"prac75.sol\":2247:2264  lastValue = value */\n      dup2\n      swap1\n      sstore\n      pop\n        /* \"prac75.sol\":2282:2287  value */\n      dup1\n        /* \"prac75.sol\":2275:2278  sum */\n      0x01\n      0x00\n        /* \"prac75.sol\":2275:2287  sum += value */\n      dup3\n      dup3\n      sload\n      tag_45\n      swap2\n      swap1\n      tag_37\n      jump\t// in\n    tag_45:\n      swap3\n      pop\n      pop\n      dup2\n      swap1\n      sstore\n      pop\n        /* \"prac75.sol\":2298:2303  calls */\n      0x02\n      0x00\n        /* \"prac75.sol\":2298:2305  calls++ */\n      dup2\n      sload\n      dup1\n      swap3\n      swap2\n      swap1\n      tag_46\n      swap1\n      tag_39\n      jump\t// in\n    tag_46:\n      swap2\n      swap1\n      pop\n      sstore\n      pop\n        /* \"prac75.sol\":2129:2313  function safeSet(uint256 value) external {... */\n      pop\n      jump\t// out\n        /* \"prac75.sol\":1793:1961  function stressMax(uint256 n) external {... */\n    tag_32:\n        /* \"prac75.sol\":1843:1854  uint256 max */\n      0x00\n        /* \"prac75.sol\":1857:1874  type(uint256).max */\n      0xffffffffffffffffffffffffffffffffffffffffffffffffffffffffffffffff\n        /* \"prac75.sol\":1843:1874  uint256 max = type(uint256).max */\n      swap1\n      pop\n        /* \"prac75.sol\":1892:1901  uint256 i */\n      0x00\n        /* \"prac75.sol\":1904:1905  0 */\n      0x00\n        /* \"prac75.sol\":1892:1905  uint256 i = 0 */\n      swap1\n      pop\n        /* \"prac75.sol\":1887:1954  for (uint256 i = 0; i < n; i++) {... */\n    tag_48:\n        /* \"prac75.sol\":1911:1912  n */\n      dup3\n        /* \"prac75.sol\":1907:1908  i */\n      dup2\n        /* \"prac75.sol\":1907:1912  i < n */\n      lt\n        /* \"prac75.sol\":1887:1954  for (uint256 i = 0; i < n; i++) {... */\n      iszero\n      tag_49\n      jumpi\n        /* \"prac75.sol\":1934:1942  set(max) */\n      tag_51\n        /* \"prac75.sol\":1938:1941  max */\n      dup3\n        /* \"prac75.sol\":1934:1937  set */\n      tag_23\n        /* \"prac75.sol\":1934:1942  set(max) */\n      jump\t// in\n    tag_51:\n        /* \"prac75.sol\":1914:1917  i++ */\n      dup1\n      dup1\n      0x01\n      add\n      swap2\n      pop\n      pop\n        /* \"prac75.sol\":1887:1954  for (uint256 i = 0; i < n; i++) {... */\n      jump(tag_48)\n    tag_49:\n      pop\n        /* \"prac75.sol\":1832:1961  {... */\n      pop\n        /* \"prac75.sol\":1793:1961  function stressMax(uint256 n) external {... */\n      pop\n      jump\t// out\n        /* \"#utility.yul\":7:84   */\n    tag_52:\n        /* \"#utility.yul\":44:51   */\n      0x00\n        /* \"#utility.yul\":73:78   */\n      dup2\n        /* \"#utility.yul\":62:78   */\n      swap1\n      pop\n        /* \"#utility.yul\":7:84   */\n      swap2\n      swap1\n      pop\n      jump\t// out\n        /* \"#utility.yul\":90:208   */\n    tag_53:\n        /* \"#utility.yul\":177:201   */\n      tag_66\n        /* \"#utility.yul\":195:200   */\n      dup2\n        /* \"#utility.yul\":177:201   */\n      tag_52\n      jump\t// in\n    tag_66:\n        /* \"#utility.yul\":172:175   */\n      dup3\n        /* \"#utility.yul\":165:202   */\n      mstore\n        /* \"#utility.yul\":90:208   */\n      pop\n      pop\n      jump\t// out\n        /* \"#utility.yul\":214:436   */\n    tag_16:\n        /* \"#utility.yul\":307:311   */\n      0x00\n        /* \"#utility.yul\":345:347   */\n      0x20\n        /* \"#utility.yul\":334:343   */\n      dup3\n        /* \"#utility.yul\":330:348   */\n      add\n        /* \"#utility.yul\":322:348   */\n      swap1\n      pop\n        /* \"#utility.yul\":358:429   */\n      tag_68\n        /* \"#utility.yul\":426:427   */\n      0x00\n        /* \"#utility.yul\":415:424   */\n      dup4\n        /* \"#utility.yul\":411:428   */\n      add\n        /* \"#utility.yul\":402:408   */\n      dup5\n        /* \"#utility.yul\":358:429   */\n      tag_53\n      jump\t// in\n    tag_68:\n        /* \"#utility.yul\":214:436   */\n      swap3\n      swap2\n      pop\n      pop\n      jump\t// out\n        /* \"#utility.yul\":523:640   */\n    tag_55:\n        /* \"#utility.yul\":632:633   */\n      0x00\n        /* \"#utility.yul\":629:630   */\n      0x00\n        /* \"#utility.yul\":622:634   */\n      revert\n        /* \"#utility.yul\":769:891   */\n    tag_57:\n        /* \"#utility.yul\":842:866   */\n      tag_73\n        /* \"#utility.yul\":860:865   */\n      dup2\n        /* \"#utility.yul\":842:866   */\n      tag_52\n      jump\t// in\n    tag_73:\n        /* \"#utility.yul\":835:840   */\n      dup2\n        /* \"#utility.yul\":832:867   */\n      eq\n        /* \"#utility.yul\":822:885   */\n      tag_74\n      jumpi\n        /* \"#utility.yul\":881:882   */\n      0x00\n        /* \"#utility.yul\":878:879   */\n      0x00\n        /* \"#utility.yul\":871:883   */\n      revert\n        /* \"#utility.yul\":822:885   */\n    tag_74:\n        /* \"#utility.yul\":769:891   */\n      pop\n      jump\t// out\n        /* \"#utility.yul\":897:1036   */\n    tag_58:\n        /* \"#utility.yul\":943:948   */\n      0x00\n        /* \"#utility.yul\":981:987   */\n      dup2\n        /* \"#utility.yul\":968:988   */\n      calldataload\n        /* \"#utility.yul\":959:988   */\n      swap1\n      pop\n        /* \"#utility.yul\":997:1030   */\n      tag_76\n        /* \"#utility.yul\":1024:1029   */\n      dup2\n        /* \"#utility.yul\":997:1030   */\n      tag_57\n      jump\t// in\n    tag_76:\n        /* \"#utility.yul\":897:1036   */\n      swap3\n      swap2\n      pop\n      pop\n      jump\t// out\n        /* \"#utility.yul\":1042:1371   */\n    tag_22:\n        /* \"#utility.yul\":1101:1107   */\n      0x00\n        /* \"#utility.yul\":1150:1152   */\n      0x20\n        /* \"#utility.yul\":1138:1147   */\n      dup3\n        /* \"#utility.yul\":1129:1136   */\n      dup5\n        /* \"#utility.yul\":1125:1148   */\n      sub\n        /* \"#utility.yul\":1121:1153   */\n      slt\n        /* \"#utility.yul\":1118:1237   */\n      iszero\n      tag_78\n      jumpi\n        /* \"#utility.yul\":1156:1235   */\n      tag_79\n      tag_55\n      jump\t// in\n    tag_79:\n        /* \"#utility.yul\":1118:1237   */\n    tag_78:\n        /* \"#utility.yul\":1276:1277   */\n      0x00\n        /* \"#utility.yul\":1301:1354   */\n      tag_80\n        /* \"#utility.yul\":1346:1353   */\n      dup5\n        /* \"#utility.yul\":1337:1343   */\n      dup3\n        /* \"#utility.yul\":1326:1335   */\n      dup6\n        /* \"#utility.yul\":1322:1344   */\n      add\n        /* \"#utility.yul\":1301:1354   */\n      tag_58\n      jump\t// in\n    tag_80:\n        /* \"#utility.yul\":1291:1354   */\n      swap2\n      pop\n        /* \"#utility.yul\":1247:1364   */\n      pop\n        /* \"#utility.yul\":1042:1371   */\n      swap3\n      swap2\n      pop\n      pop\n      jump\t// out\n        /* \"#utility.yul\":1377:1557   */\n    tag_59:\n        /* \"#utility.yul\":1425:1502   */\n      0x4e487b7100000000000000000000000000000000000000000000000000000000\n        /* \"#utility.yul\":1422:1423   */\n      0x00\n        /* \"#utility.yul\":1415:1503   */\n      mstore\n        /* \"#utility.yul\":1522:1526   */\n      0x11\n        /* \"#utility.yul\":1519:1520   */\n      0x04\n        /* \"#utility.yul\":1512:1527   */\n      mstore\n        /* \"#utility.yul\":1546:1550   */\n      0x24\n        /* \"#utility.yul\":1543:1544   */\n      0x00\n        /* \"#utility.yul\":1536:1551   */\n      revert\n        /* \"#utility.yul\":1563:1754   */\n    tag_37:\n        /* \"#utility.yul\":1603:1606   */\n      0x00\n        /* \"#utility.yul\":1622:1642   */\n      tag_83\n        /* \"#utility.yul\":1640:1641   */\n      dup3\n        /* \"#utility.yul\":1622:1642   */\n      tag_52\n      jump\t// in\n    tag_83:\n        /* \"#utility.yul\":1617:1642   */\n      swap2\n      pop\n        /* \"#utility.yul\":1656:1676   */\n      tag_84\n        /* \"#utility.yul\":1674:1675   */\n      dup4\n        /* \"#utility.yul\":1656:1676   */\n      tag_52\n      jump\t// in\n    tag_84:\n        /* \"#utility.yul\":1651:1676   */\n      swap3\n      pop\n        /* \"#utility.yul\":1699:1700   */\n      dup3\n        /* \"#utility.yul\":1696:1697   */\n      dup3\n        /* \"#utility.yul\":1692:1701   */\n      add\n        /* \"#utility.yul\":1685:1701   */\n      swap1\n      pop\n        /* \"#utility.yul\":1720:1723   */\n      dup1\n        /* \"#utility.yul\":1717:1718   */\n      dup3\n        /* \"#utility.yul\":1714:1724   */\n      gt\n        /* \"#utility.yul\":1711:1747   */\n      iszero\n      tag_85\n      jumpi\n        /* \"#utility.yul\":1727:1745   */\n      tag_86\n      tag_59\n      jump\t// in\n    tag_86:\n        /* \"#utility.yul\":1711:1747   */\n    tag_85:\n        /* \"#utility.yul\":1563:1754   */\n      swap3\n      swap2\n      pop\n      pop\n      jump\t// out\n        /* \"#utility.yul\":1760:1993   */\n    tag_39:\n        /* \"#utility.yul\":1799:1802   */\n      0x00\n        /* \"#utility.yul\":1822:1846   */\n      tag_88\n        /* \"#utility.yul\":1840:1845   */\n      dup3\n        /* \"#utility.yul\":1822:1846   */\n      tag_52\n      jump\t// in\n    tag_88:\n        /* \"#utility.yul\":1813:1846   */\n      swap2\n      pop\n        /* \"#utility.yul\":1868:1934   */\n      0xffffffffffffffffffffffffffffffffffffffffffffffffffffffffffffffff\n        /* \"#utility.yul\":1861:1866   */\n      dup3\n        /* \"#utility.yul\":1858:1935   */\n      sub\n        /* \"#utility.yul\":1855:1958   */\n      tag_89\n      jumpi\n        /* \"#utility.yul\":1938:1956   */\n      tag_90\n      tag_59\n      jump\t// in\n    tag_90:\n        /* \"#utility.yul\":1855:1958   */\n    tag_89:\n        /* \"#utility.yul\":1985:1986   */\n      0x01\n        /* \"#utility.yul\":1978:1983   */\n      dup3\n        /* \"#utility.yul\":1974:1987   */\n      add\n        /* \"#utility.yul\":1967:1987   */\n      swap1\n      pop\n        /* \"#utility.yul\":1760:1993   */\n      swap2\n      swap1\n      pop\n      jump\t// out\n        /* \"#utility.yul\":1999:2168   */\n    tag_60:\n        /* \"#utility.yul\":2083:2094   */\n      0x00\n        /* \"#utility.yul\":2117:2123   */\n      dup3\n        /* \"#utility.yul\":2112:2115   */\n      dup3\n        /* \"#utility.yul\":2105:2124   */\n      mstore\n        /* \"#utility.yul\":2157:2161   */\n      0x20\n        /* \"#utility.yul\":2152:2155   */\n      dup3\n        /* \"#utility.yul\":2148:2162   */\n      add\n        /* \"#utility.yul\":2133:2162   */\n      swap1\n      pop\n        /* \"#utility.yul\":1999:2168   */\n      swap3\n      swap2\n      pop\n      pop\n      jump\t// out\n        /* \"#utility.yul\":2174:2339   */\n    tag_61:\n        /* \"#utility.yul\":2314:2331   */\n      0x4d6178206e6f7420616c6c6f7765640000000000000000000000000000000000\n        /* \"#utility.yul\":2310:2311   */\n      0x00\n        /* \"#utility.yul\":2302:2308   */\n      dup3\n        /* \"#utility.yul\":2298:2312   */\n      add\n        /* \"#utility.yul\":2291:2332   */\n      mstore\n        /* \"#utility.yul\":2174:2339   */\n      pop\n      jump\t// out\n        /* \"#utility.yul\":2345:2711   */\n    tag_62:\n        /* \"#utility.yul\":2487:2490   */\n      0x00\n        /* \"#utility.yul\":2508:2575   */\n      tag_94\n        /* \"#utility.yul\":2572:2574   */\n      0x0f\n        /* \"#utility.yul\":2567:2570   */\n      dup4\n        /* \"#utility.yul\":2508:2575   */\n      tag_60\n      jump\t// in\n    tag_94:\n        /* \"#utility.yul\":2501:2575   */\n      swap2\n      pop\n        /* \"#utility.yul\":2584:2677   */\n      tag_95\n        /* \"#utility.yul\":2673:2676   */\n      dup3\n        /* \"#utility.yul\":2584:2677   */\n      tag_61\n      jump\t// in\n    tag_95:\n        /* \"#utility.yul\":2702:2704   */\n      0x20\n        /* \"#utility.yul\":2697:2700   */\n      dup3\n        /* \"#utility.yul\":2693:2705   */\n      add\n        /* \"#utility.yul\":2686:2705   */\n      swap1\n      pop\n        /* \"#utility.yul\":2345:2711   */\n      swap2\n      swap1\n      pop\n      jump\t// out\n        /* \"#utility.yul\":2717:3136   */\n    tag_44:\n        /* \"#utility.yul\":2883:2887   */\n      0x00\n        /* \"#utility.yul\":2921:2923   */\n      0x20\n        /* \"#utility.yul\":2910:2919   */\n      dup3\n        /* \"#utility.yul\":2906:2924   */\n      add\n        /* \"#utility.yul\":2898:2924   */\n      swap1\n      pop\n        /* \"#utility.yul\":2970:2979   */\n      dup2\n        /* \"#utility.yul\":2964:2968   */\n      dup2\n        /* \"#utility.yul\":2960:2980   */\n      sub\n        /* \"#utility.yul\":2956:2957   */\n      0x00\n        /* \"#utility.yul\":2945:2954   */\n      dup4\n        /* \"#utility.yul\":2941:2958   */\n      add\n        /* \"#utility.yul\":2934:2981   */\n      mstore\n        /* \"#utility.yul\":2998:3129   */\n      tag_97\n        /* \"#utility.yul\":3124:3128   */\n      dup2\n        /* \"#utility.yul\":2998:3129   */\n      tag_62\n      jump\t// in\n    tag_97:\n        /* \"#utility.yul\":2990:3129   */\n      swap1\n      pop\n        /* \"#utility.yul\":2717:3136   */\n      swap2\n      swap1\n      pop\n      jump\t// out\n\n    auxdata: 0xa26469706673582212208a8caba88c11c9ed7bd34ab8416a94c27c353a207a8f23bde705c5e81a86063264736f6c63430008220033\n}\n",
				"bytecode": {
					"linkReferences": {},
					"object": "6080604052348015600e575f5ffd5b506104ac8061001c5f395ff3fe608060405234801561000f575f5ffd5b506004361061007b575f3560e01c806360fe47b11161005957806360fe47b1146100c5578063853255cc146100e15780639bad747c146100ff578063d55f8e681461011b5761007b565b8063206448671461007f578063305f72b71461008957806343183834146100a7575b5f5ffd5b610087610137565b005b610091610167565b60405161009e91906102e5565b60405180910390f35b6100af61016d565b6040516100bc91906102e5565b60405180910390f35b6100df60048036038101906100da919061032c565b610172565b005b6100e96101e1565b6040516100f691906102e5565b60405180910390f35b6101196004803603810190610114919061032c565b6101e7565b005b6101356004803603810190610130919061032c565b610281565b005b5f7fffffffffffffffffffffffffffffffffffffffffffffffffffffffffffffffff905061016481610172565b50565b60025481565b5f5481565b805f819055508060015f8282546101899190610384565b9250508190555060025f8154809291906101a2906103b7565b91905055507fe12e3b7047ff60a2dd763cf536a43597e5ce7fe7aa7476345bd4cd079912bcef816040516101d691906102e5565b60405180910390a150565b60015481565b7fffffffffffffffffffffffffffffffffffffffffffffffffffffffffffffffff8110610249576040517f08c379a000000000000000000000000000000000000000000000000000000000815260040161024090610458565b60405180910390fd5b805f819055508060015f8282546102609190610384565b9250508190555060025f815480929190610279906103b7565b919050555050565b5f7fffffffffffffffffffffffffffffffffffffffffffffffffffffffffffffffff90505f5f90505b828110156102c8576102bb82610172565b80806001019150506102aa565b505050565b5f819050919050565b6102df816102cd565b82525050565b5f6020820190506102f85f8301846102d6565b92915050565b5f5ffd5b61030b816102cd565b8114610315575f5ffd5b50565b5f8135905061032681610302565b92915050565b5f60208284031215610341576103406102fe565b5b5f61034e84828501610318565b91505092915050565b7f4e487b71000000000000000000000000000000000000000000000000000000005f52601160045260245ffd5b5f61038e826102cd565b9150610399836102cd565b92508282019050808211156103b1576103b0610357565b5b92915050565b5f6103c1826102cd565b91507fffffffffffffffffffffffffffffffffffffffffffffffffffffffffffffffff82036103f3576103f2610357565b5b600182019050919050565b5f82825260208201905092915050565b7f4d6178206e6f7420616c6c6f77656400000000000000000000000000000000005f82015250565b5f610442600f836103fe565b915061044d8261040e565b602082019050919050565b5f6020820190508181035f83015261046f81610436565b905091905056fea26469706673582212208a8caba88c11c9ed7bd34ab8416a94c27c353a207a8f23bde705c5e81a86063264736f6c63430008220033",
					"opcodes": "PUSH1 0x80 PUSH1 0x40 MSTORE CALLVALUE DUP1 ISZERO PUSH1 0xE JUMPI PUSH0 PUSH0 REVERT JUMPDEST POP PUSH2 0x4AC DUP1 PUSH2 0x1C PUSH0 CODECOPY PUSH0 RETURN INVALID PUSH1 0x80 PUSH1 0x40 MSTORE CALLVALUE DUP1 ISZERO PUSH2 0xF JUMPI PUSH0 PUSH0 REVERT JUMPDEST POP PUSH1 0x4 CALLDATASIZE LT PUSH2 0x7B JUMPI PUSH0 CALLDATALOAD PUSH1 0xE0 SHR DUP1 PUSH4 0x60FE47B1 GT PUSH2 0x59 JUMPI DUP1 PUSH4 0x60FE47B1 EQ PUSH2 0xC5 JUMPI DUP1 PUSH4 0x853255CC EQ PUSH2 0xE1 JUMPI DUP1 PUSH4 0x9BAD747C EQ PUSH2 0xFF JUMPI DUP1 PUSH4 0xD55F8E68 EQ PUSH2 0x11B JUMPI PUSH2 0x7B JUMP JUMPDEST DUP1 PUSH4 0x20644867 EQ PUSH2 0x7F JUMPI DUP1 PUSH4 0x305F72B7 EQ PUSH2 0x89 JUMPI DUP1 PUSH4 0x43183834 EQ PUSH2 0xA7 JUMPI JUMPDEST PUSH0 PUSH0 REVERT JUMPDEST PUSH2 0x87 PUSH2 0x137 JUMP JUMPDEST STOP JUMPDEST PUSH2 0x91 PUSH2 0x167 JUMP JUMPDEST PUSH1 0x40 MLOAD PUSH2 0x9E SWAP2 SWAP1 PUSH2 0x2E5 JUMP JUMPDEST PUSH1 0x40 MLOAD DUP1 SWAP2 SUB SWAP1 RETURN JUMPDEST PUSH2 0xAF PUSH2 0x16D JUMP JUMPDEST PUSH1 0x40 MLOAD PUSH2 0xBC SWAP2 SWAP1 PUSH2 0x2E5 JUMP JUMPDEST PUSH1 0x40 MLOAD DUP1 SWAP2 SUB SWAP1 RETURN JUMPDEST PUSH2 0xDF PUSH1 0x4 DUP1 CALLDATASIZE SUB DUP2 ADD SWAP1 PUSH2 0xDA SWAP2 SWAP1 PUSH2 0x32C JUMP JUMPDEST PUSH2 0x172 JUMP JUMPDEST STOP JUMPDEST PUSH2 0xE9 PUSH2 0x1E1 JUMP JUMPDEST PUSH1 0x40 MLOAD PUSH2 0xF6 SWAP2 SWAP1 PUSH2 0x2E5 JUMP JUMPDEST PUSH1 0x40 MLOAD DUP1 SWAP2 SUB SWAP1 RETURN JUMPDEST PUSH2 0x119 PUSH1 0x4 DUP1 CALLDATASIZE SUB DUP2 ADD SWAP1 PUSH2 0x114 SWAP2 SWAP1 PUSH2 0x32C JUMP JUMPDEST PUSH2 0x1E7 JUMP JUMPDEST STOP JUMPDEST PUSH2 0x135 PUSH1 0x4 DUP1 CALLDATASIZE SUB DUP2 ADD SWAP1 PUSH2 0x130 SWAP2 SWAP1 PUSH2 0x32C JUMP JUMPDEST PUSH2 0x281 JUMP JUMPDEST STOP JUMPDEST PUSH0 PUSH32 0xFFFFFFFFFFFFFFFFFFFFFFFFFFFFFFFFFFFFFFFFFFFFFFFFFFFFFFFFFFFFFFFF SWAP1 POP PUSH2 0x164 DUP2 PUSH2 0x172 JUMP JUMPDEST POP JUMP JUMPDEST PUSH1 0x2 SLOAD DUP2 JUMP JUMPDEST PUSH0 SLOAD DUP2 JUMP JUMPDEST DUP1 PUSH0 DUP2 SWAP1 SSTORE POP DUP1 PUSH1 0x1 PUSH0 DUP3 DUP3 SLOAD PUSH2 0x189 SWAP2 SWAP1 PUSH2 0x384 JUMP JUMPDEST SWAP3 POP POP DUP2 SWAP1 SSTORE POP PUSH1 0x2 PUSH0 DUP2 SLOAD DUP1 SWAP3 SWAP2 SWAP1 PUSH2 0x1A2 SWAP1 PUSH2 0x3B7 JUMP JUMPDEST SWAP2 SWAP1 POP SSTORE POP PUSH32 0xE12E3B7047FF60A2DD763CF536A43597E5CE7FE7AA7476345BD4CD079912BCEF DUP2 PUSH1 0x40 MLOAD PUSH2 0x1D6 SWAP2 SWAP1 PUSH2 0x2E5 JUMP JUMPDEST PUSH1 0x40 MLOAD DUP1 SWAP2 SUB SWAP1 LOG1 POP JUMP JUMPDEST PUSH1 0x1 SLOAD DUP2 JUMP JUMPDEST PUSH32 0xFFFFFFFFFFFFFFFFFFFFFFFFFFFFFFFFFFFFFFFFFFFFFFFFFFFFFFFFFFFFFFFF DUP2 LT PUSH2 0x249 JUMPI PUSH1 0x40 MLOAD PUSH32 0x8C379A000000000000000000000000000000000000000000000000000000000 DUP2 MSTORE PUSH1 0x4 ADD PUSH2 0x240 SWAP1 PUSH2 0x458 JUMP JUMPDEST PUSH1 0x40 MLOAD DUP1 SWAP2 SUB SWAP1 REVERT JUMPDEST DUP1 PUSH0 DUP2 SWAP1 SSTORE POP DUP1 PUSH1 0x1 PUSH0 DUP3 DUP3 SLOAD PUSH2 0x260 SWAP2 SWAP1 PUSH2 0x384 JUMP JUMPDEST SWAP3 POP POP DUP2 SWAP1 SSTORE POP PUSH1 0x2 PUSH0 DUP2 SLOAD DUP1 SWAP3 SWAP2 SWAP1 PUSH2 0x279 SWAP1 PUSH2 0x3B7 JUMP JUMPDEST SWAP2 SWAP1 POP SSTORE POP POP JUMP JUMPDEST PUSH0 PUSH32 0xFFFFFFFFFFFFFFFFFFFFFFFFFFFFFFFFFFFFFFFFFFFFFFFFFFFFFFFFFFFFFFFF SWAP1 POP PUSH0 PUSH0 SWAP1 POP JUMPDEST DUP3 DUP2 LT ISZERO PUSH2 0x2C8 JUMPI PUSH2 0x2BB DUP3 PUSH2 0x172 JUMP JUMPDEST DUP1 DUP1 PUSH1 0x1 ADD SWAP2 POP POP PUSH2 0x2AA JUMP JUMPDEST POP POP POP JUMP JUMPDEST PUSH0 DUP2 SWAP1 POP SWAP2 SWAP1 POP JUMP JUMPDEST PUSH2 0x2DF DUP2 PUSH2 0x2CD JUMP JUMPDEST DUP3 MSTORE POP POP JUMP JUMPDEST PUSH0 PUSH1 0x20 DUP3 ADD SWAP1 POP PUSH2 0x2F8 PUSH0 DUP4 ADD DUP5 PUSH2 0x2D6 JUMP JUMPDEST SWAP3 SWAP2 POP POP JUMP JUMPDEST PUSH0 PUSH0 REVERT JUMPDEST PUSH2 0x30B DUP2 PUSH2 0x2CD JUMP JUMPDEST DUP2 EQ PUSH2 0x315 JUMPI PUSH0 PUSH0 REVERT JUMPDEST POP JUMP JUMPDEST PUSH0 DUP2 CALLDATALOAD SWAP1 POP PUSH2 0x326 DUP2 PUSH2 0x302 JUMP JUMPDEST SWAP3 SWAP2 POP POP JUMP JUMPDEST PUSH0 PUSH1 0x20 DUP3 DUP5 SUB SLT ISZERO PUSH2 0x341 JUMPI PUSH2 0x340 PUSH2 0x2FE JUMP JUMPDEST JUMPDEST PUSH0 PUSH2 0x34E DUP5 DUP3 DUP6 ADD PUSH2 0x318 JUMP JUMPDEST SWAP2 POP POP SWAP3 SWAP2 POP POP JUMP JUMPDEST PUSH32 0x4E487B7100000000000000000000000000000000000000000000000000000000 PUSH0 MSTORE PUSH1 0x11 PUSH1 0x4 MSTORE PUSH1 0x24 PUSH0 REVERT JUMPDEST PUSH0 PUSH2 0x38E DUP3 PUSH2 0x2CD JUMP JUMPDEST SWAP2 POP PUSH2 0x399 DUP4 PUSH2 0x2CD JUMP JUMPDEST SWAP3 POP DUP3 DUP3 ADD SWAP1 POP DUP1 DUP3 GT ISZERO PUSH2 0x3B1 JUMPI PUSH2 0x3B0 PUSH2 0x357 JUMP JUMPDEST JUMPDEST SWAP3 SWAP2 POP POP JUMP JUMPDEST PUSH0 PUSH2 0x3C1 DUP3 PUSH2 0x2CD JUMP JUMPDEST SWAP2 POP PUSH32 0xFFFFFFFFFFFFFFFFFFFFFFFFFFFFFFFFFFFFFFFFFFFFFFFFFFFFFFFFFFFFFFFF DUP3 SUB PUSH2 0x3F3 JUMPI PUSH2 0x3F2 PUSH2 0x357 JUMP JUMPDEST JUMPDEST PUSH1 0x1 DUP3 ADD SWAP1 POP SWAP2 SWAP1 POP JUMP JUMPDEST PUSH0 DUP3 DUP3 MSTORE PUSH1 0x20 DUP3 ADD SWAP1 POP SWAP3 SWAP2 POP POP JUMP JUMPDEST PUSH32 0x4D6178206E6F7420616C6C6F7765640000000000000000000000000000000000 PUSH0 DUP3 ADD MSTORE POP JUMP JUMPDEST PUSH0 PUSH2 0x442 PUSH1 0xF DUP4 PUSH2 0x3FE JUMP JUMPDEST SWAP2 POP PUSH2 0x44D DUP3 PUSH2 0x40E JUMP JUMPDEST PUSH1 0x20 DUP3 ADD SWAP1 POP SWAP2 SWAP1 POP JUMP JUMPDEST PUSH0 PUSH1 0x20 DUP3 ADD SWAP1 POP DUP2 DUP2 SUB PUSH0 DUP4 ADD MSTORE PUSH2 0x46F DUP2 PUSH2 0x436 JUMP JUMPDEST SWAP1 POP SWAP2 SWAP1 POP JUMP INVALID LOG2 PUSH5 0x6970667358 0x22 SLT KECCAK256 DUP11 DUP13 0xAB 0xA8 DUP13 GT 0xC9 0xED PUSH28 0xD34AB8416A94C27C353A207A8F23BDE705C5E81A86063264736F6C63 NUMBER STOP ADDMOD 0x22 STOP CALLER "
				},
				"gasEstimates": {
					"creation": {
						"codeDepositCost": "239200",
						"executionCost": "279",
						"totalCost": "239479"
					},
					"external": {
						"calls()": "2448",
						"lastValue()": "2469",
						"safeSet(uint256)": "infinite",
						"set(uint256)": "infinite",
						"stressMax(uint256)": "infinite",
						"sum()": "2447",
						"testMaxUint()": "infinite"
					}
				},
				"methodIdentifiers": {
					"calls()": "305f72b7",
					"lastValue()": "43183834",
					"safeSet(uint256)": "9bad747c",
					"set(uint256)": "60fe47b1",
					"stressMax(uint256)": "d55f8e68",
					"sum()": "853255cc",
					"testMaxUint()": "20644867"
				}
			},
			"storageLayout": {
				"storage": [
					{
						"astId": 3,
						"contract": "prac75.sol:MaxUintBoundaryTest",
						"label": "lastValue",
						"offset": 0,
						"slot": "0",
						"type": "t_uint256"
					},
					{
						"astId": 5,
						"contract": "prac75.sol:MaxUintBoundaryTest",
						"label": "sum",
						"offset": 0,
						"slot": "1",
						"type": "t_uint256"
					},
					{
						"astId": 7,
						"contract": "prac75.sol:MaxUintBoundaryTest",
						"label": "calls",
						"offset": 0,
						"slot": "2",
						"type": "t_uint256"
					}
				],
				"types": {
					"t_uint256": {
						"encoding": "inplace",
						"label": "uint256",
						"numberOfBytes": "32"
					}
				}
			},
			"userdoc": {
				"kind": "user",
				"methods": {},
				"version": 1
			}
		}
	}
}