{
	"prac61.sol": {
		"SafeCallHandler": {
			"abi": [
				{
					"inputs": [],
					"name": "executionCounter",
					"outputs": [
						{
							"internalType": "uint256",
							"name": "",
							"type": "uint256"
						}
					],
					"stateMutability": "view",
					"type": "function"
				},
				{
					"inputs": [],
					"name": "lastData",
					"outputs": [
						{
							"internalType": "bytes",
							"name": "",
							"type": "bytes"
						}
					],
					"stateMutability": "view",
					"type": "function"
				},
				{
					"inputs": [],
					"name": "lastSuccess",
					"outputs": [
						{
							"internalType": "bool",
							"name": "",
							"type": "bool"
						}
					],
					"stateMutability": "view",
					"type": "function"
				},
				{
					"inputs": [
						{
							"internalType": "address payable",
							"name": "_target",
							"type": "address"
						}
					],
					"name": "safeETHTransfer",
					"outputs": [],
					"stateMutability": "payable",
					"type": "function"
				},
				{
					"inputs": [
						{
							"internalType": "address",
							"name": "_target",
							"type": "address"
						}
					],
					"name": "safeFailingCall",
					"outputs": [],
					"stateMutability": "nonpayable",
					"type": "function"
				},
				{
					"inputs": [
						{
							"internalType": "address",
							"name": "_target",
							"type": "address"
						}
					],
					"name": "safeFunctionCall",
					"outputs": [],
					"stateMutability": "nonpayable",
					"type": "function"
				}
			],
			"devdoc": {
				"kind": "dev",
				"methods": {},
				"version": 1
			},
			"evm": {
				"assembly": "    /* \"prac61.sol\":3474:6365  contract SafeCallHandler {... */\n  mstore(0x40, 0x80)\n  callvalue\n  dup1\n  iszero\n  tag_1\n  jumpi\n  revert(0x00, 0x00)\ntag_1:\n  pop\n  dataSize(sub_0)\n  dup1\n  dataOffset(sub_0)\n  0x00\n  codecopy\n  0x00\n  return\nstop\n\nsub_0: assembly {\n        /* \"prac61.sol\":3474:6365  contract SafeCallHandler {... */\n      mstore(0x40, 0x80)\n      jumpi(tag_1, lt(calldatasize, 0x04))\n      shr(0xe0, calldataload(0x00))\n      dup1\n      0x6e75ec\n      eq\n      tag_2\n      jumpi\n      dup1\n      0x2d6142a7\n      eq\n      tag_3\n      jumpi\n      dup1\n      0x540208ba\n      eq\n      tag_4\n      jumpi\n      dup1\n      0x816b9ae0\n      eq\n      tag_5\n      jumpi\n      dup1\n      0x9415bc59\n      eq\n      tag_6\n      jumpi\n      dup1\n      0xc6a50809\n      eq\n      tag_7\n      jumpi\n    tag_1:\n      revert(0x00, 0x00)\n        /* \"prac61.sol\":3579:3600  bytes public lastData */\n    tag_2:\n      callvalue\n      dup1\n      iszero\n      tag_8\n      jumpi\n      revert(0x00, 0x00)\n    tag_8:\n      pop\n      tag_9\n      tag_10\n      jump\t// in\n    tag_9:\n      mload(0x40)\n      tag_11\n      swap2\n      swap1\n      tag_12\n      jump\t// in\n    tag_11:\n      mload(0x40)\n      dup1\n      swap2\n      sub\n      swap1\n      return\n        /* \"prac61.sol\":4858:5590  function safeFailingCall(... */\n    tag_3:\n      callvalue\n      dup1\n      iszero\n      tag_13\n      jumpi\n      revert(0x00, 0x00)\n    tag_13:\n      pop\n      tag_14\n      0x04\n      dup1\n      calldatasize\n      sub\n      dup2\n      add\n      swap1\n      tag_15\n      swap2\n      swap1\n      tag_16\n      jump\t// in\n    tag_15:\n      tag_17\n      jump\t// in\n    tag_14:\n      stop\n        /* \"prac61.sol\":5757:6362  function safeETHTransfer(... */\n    tag_4:\n      tag_18\n      0x04\n      dup1\n      calldatasize\n      sub\n      dup2\n      add\n      swap1\n      tag_19\n      swap2\n      swap1\n      tag_20\n      jump\t// in\n    tag_19:\n      tag_21\n      jump\t// in\n    tag_18:\n      stop\n        /* \"prac61.sol\":3809:4691  function safeFunctionCall(... */\n    tag_5:\n      callvalue\n      dup1\n      iszero\n      tag_22\n      jumpi\n      revert(0x00, 0x00)\n    tag_22:\n      pop\n      tag_23\n      0x04\n      dup1\n      calldatasize\n      sub\n      dup2\n      add\n      swap1\n      tag_24\n      swap2\n      swap1\n      tag_16\n      jump\t// in\n    tag_24:\n      tag_25\n      jump\t// in\n    tag_23:\n      stop\n        /* \"prac61.sol\":3547:3570  bool public lastSuccess */\n    tag_6:\n      callvalue\n      dup1\n      iszero\n      tag_26\n      jumpi\n      revert(0x00, 0x00)\n    tag_26:\n      pop\n      tag_27\n      tag_28\n      jump\t// in\n    tag_27:\n      mload(0x40)\n      tag_29\n      swap2\n      swap1\n      tag_30\n      jump\t// in\n    tag_29:\n      mload(0x40)\n      dup1\n      swap2\n      sub\n      swap1\n      return\n        /* \"prac61.sol\":3609:3640  uint256 public executionCounter */\n    tag_7:\n      callvalue\n      dup1\n      iszero\n      tag_31\n      jumpi\n      revert(0x00, 0x00)\n    tag_31:\n      pop\n      tag_32\n      tag_33\n      jump\t// in\n    tag_32:\n      mload(0x40)\n      tag_34\n      swap2\n      swap1\n      tag_35\n      jump\t// in\n    tag_34:\n      mload(0x40)\n      dup1\n      swap2\n      sub\n      swap1\n      return\n        /* \"prac61.sol\":3579:3600  bytes public lastData */\n    tag_10:\n      0x01\n      dup1\n      sload\n      tag_36\n      swap1\n      tag_37\n      jump\t// in\n    tag_36:\n      dup1\n      0x1f\n      add\n      0x20\n      dup1\n      swap2\n      div\n      mul\n      0x20\n      add\n      mload(0x40)\n      swap1\n      dup2\n      add\n      0x40\n      mstore\n      dup1\n      swap3\n      swap2\n      swap1\n      dup2\n      dup2\n      mstore\n      0x20\n      add\n      dup3\n      dup1\n      sload\n      tag_38\n      swap1\n      tag_37\n      jump\t// in\n    tag_38:\n      dup1\n      iszero\n      tag_39\n      jumpi\n      dup1\n      0x1f\n      lt\n      tag_40\n      jumpi\n      0x0100\n      dup1\n      dup4\n      sload\n      div\n      mul\n      dup4\n      mstore\n      swap2\n      0x20\n      add\n      swap2\n      jump(tag_39)\n    tag_40:\n      dup3\n      add\n      swap2\n      swap1\n      0x00\n      mstore\n      keccak256(0x00, 0x20)\n      swap1\n    tag_41:\n      dup2\n      sload\n      dup2\n      mstore\n      swap1\n      0x01\n      add\n      swap1\n      0x20\n      add\n      dup1\n      dup4\n      gt\n      tag_41\n      jumpi\n      dup3\n      swap1\n      sub\n      0x1f\n      and\n      dup3\n      add\n      swap2\n    tag_39:\n      pop\n      pop\n      pop\n      pop\n      pop\n      dup2\n      jump\t// out\n        /* \"prac61.sol\":4858:5590  function safeFailingCall(... */\n    tag_17:\n        /* \"prac61.sol\":5009:5025  executionCounter */\n      0x02\n      0x00\n        /* \"prac61.sol\":5009:5027  executionCounter++ */\n      dup2\n      sload\n      dup1\n      swap3\n      swap2\n      swap1\n      tag_43\n      swap1\n      tag_44\n      jump\t// in\n    tag_43:\n      swap2\n      swap1\n      pop\n      sstore\n      pop\n        /* \"prac61.sol\":5104:5116  bool success */\n      0x00\n        /* \"prac61.sol\":5118:5135  bytes memory data */\n      0x00\n        /* \"prac61.sol\":5152:5159  _target */\n      dup3\n        /* \"prac61.sol\":5152:5164  _target.call */\n      0xffffffffffffffffffffffffffffffffffffffff\n      and\n        /* \"prac61.sol\":5183:5264  abi.encodeWithSignature(... */\n      add(0x24, mload(0x40))\n      mload(0x40)\n      0x20\n      dup2\n      dup4\n      sub\n      sub\n      dup2\n      mstore\n      swap1\n      0x40\n      mstore\n      and(not(0xffffffffffffffffffffffffffffffffffffffffffffffffffffffff), 0xca463e1900000000000000000000000000000000000000000000000000000000)\n      0x20\n      dup3\n      add\n      dup1\n      mload\n      0xffffffffffffffffffffffffffffffffffffffffffffffffffffffff\n      dup4\n      dup2\n      dup4\n      and\n      or\n      dup4\n      mstore\n      pop\n      pop\n      pop\n      pop\n        /* \"prac61.sol\":5152:5279  _target.call(... */\n      mload(0x40)\n      tag_45\n      swap2\n      swap1\n      tag_46\n      jump\t// in\n    tag_45:\n      0x00\n      mload(0x40)\n      dup1\n      dup4\n      sub\n      dup2\n      0x00\n      dup7\n      gas\n      call\n      swap2\n      pop\n      pop\n      returndatasize\n      dup1\n      0x00\n      dup2\n      eq\n      tag_49\n      jumpi\n      mload(0x40)\n      swap2\n      pop\n      and(add(returndatasize, 0x3f), not(0x1f))\n      dup3\n      add\n      0x40\n      mstore\n      returndatasize\n      dup3\n      mstore\n      returndatasize\n      0x00\n      0x20\n      dup5\n      add\n      returndatacopy\n      jump(tag_48)\n    tag_49:\n      0x60\n      swap2\n      pop\n    tag_48:\n      pop\n        /* \"prac61.sol\":5103:5279  (bool success, bytes memory data) =... */\n      swap2\n      pop\n      swap2\n      pop\n        /* \"prac61.sol\":5357:5364  success */\n      dup2\n        /* \"prac61.sol\":5343:5354  lastSuccess */\n      0x00\n      0x00\n        /* \"prac61.sol\":5343:5364  lastSuccess = success */\n      0x0100\n      exp\n      dup2\n      sload\n      dup2\n      0xff\n      mul\n      not\n      and\n      swap1\n      dup4\n      iszero\n      iszero\n      mul\n      or\n      swap1\n      sstore\n      pop\n        /* \"prac61.sol\":5388:5392  data */\n      dup1\n        /* \"prac61.sol\":5377:5385  lastData */\n      0x01\n        /* \"prac61.sol\":5377:5392  lastData = data */\n      swap1\n      dup2\n      tag_50\n      swap2\n      swap1\n      tag_51\n      jump\t// in\n    tag_50:\n      pop\n        /* \"prac61.sol\":5525:5532  success */\n      dup2\n        /* \"prac61.sol\":5503:5582  require(... */\n      tag_52\n      jumpi\n      mload(0x40)\n      0x08c379a000000000000000000000000000000000000000000000000000000000\n      dup2\n      mstore\n      0x04\n      add\n      tag_53\n      swap1\n      tag_54\n      jump\t// in\n    tag_53:\n      mload(0x40)\n      dup1\n      swap2\n      sub\n      swap1\n      revert\n    tag_52:\n        /* \"prac61.sol\":4939:5590  {... */\n      pop\n      pop\n        /* \"prac61.sol\":4858:5590  function safeFailingCall(... */\n      pop\n      jump\t// out\n        /* \"prac61.sol\":5757:6362  function safeETHTransfer(... */\n    tag_21:\n        /* \"prac61.sol\":5936:5948  bool success */\n      0x00\n        /* \"prac61.sol\":5950:5967  bytes memory data */\n      0x00\n        /* \"prac61.sol\":5984:5991  _target */\n      dup3\n        /* \"prac61.sol\":5984:5996  _target.call */\n      0xffffffffffffffffffffffffffffffffffffffff\n      and\n        /* \"prac61.sol\":6022:6031  msg.value */\n      callvalue\n        /* \"prac61.sol\":5984:6050  _target.call{... */\n      mload(0x40)\n      tag_56\n      swap1\n      tag_57\n      jump\t// in\n    tag_56:\n      0x00\n      mload(0x40)\n      dup1\n      dup4\n      sub\n      dup2\n      dup6\n      dup8\n      gas\n      call\n      swap3\n      pop\n      pop\n      pop\n      returndatasize\n      dup1\n      0x00\n      dup2\n      eq\n      tag_60\n      jumpi\n      mload(0x40)\n      swap2\n      pop\n      and(add(returndatasize, 0x3f), not(0x1f))\n      dup3\n      add\n      0x40\n      mstore\n      returndatasize\n      dup3\n      mstore\n      returndatasize\n      0x00\n      0x20\n      dup5\n      add\n      returndatacopy\n      jump(tag_59)\n    tag_60:\n      0x60\n      swap2\n      pop\n    tag_59:\n      pop\n        /* \"prac61.sol\":5935:6050  (bool success, bytes memory data) =... */\n      swap2\n      pop\n      swap2\n      pop\n        /* \"prac61.sol\":6129:6136  success */\n      dup2\n        /* \"prac61.sol\":6115:6126  lastSuccess */\n      0x00\n      0x00\n        /* \"prac61.sol\":6115:6136  lastSuccess = success */\n      0x0100\n      exp\n      dup2\n      sload\n      dup2\n      0xff\n      mul\n      not\n      and\n      swap1\n      dup4\n      iszero\n      iszero\n      mul\n      or\n      swap1\n      sstore\n      pop\n        /* \"prac61.sol\":6160:6164  data */\n      dup1\n        /* \"prac61.sol\":6149:6157  lastData */\n      0x01\n        /* \"prac61.sol\":6149:6164  lastData = data */\n      swap1\n      dup2\n      tag_61\n      swap2\n      swap1\n      tag_51\n      jump\t// in\n    tag_61:\n      pop\n        /* \"prac61.sol\":6300:6307  success */\n      dup2\n        /* \"prac61.sol\":6278:6354  require(... */\n      tag_62\n      jumpi\n      mload(0x40)\n      0x08c379a000000000000000000000000000000000000000000000000000000000\n      dup2\n      mstore\n      0x04\n      add\n      tag_63\n      swap1\n      tag_64\n      jump\t// in\n    tag_63:\n      mload(0x40)\n      dup1\n      swap2\n      sub\n      swap1\n      revert\n    tag_62:\n        /* \"prac61.sol\":5863:6362  {... */\n      pop\n      pop\n        /* \"prac61.sol\":5757:6362  function safeETHTransfer(... */\n      pop\n      jump\t// out\n        /* \"prac61.sol\":3809:4691  function safeFunctionCall(... */\n    tag_25:\n        /* \"prac61.sol\":3961:3977  executionCounter */\n      0x02\n      0x00\n        /* \"prac61.sol\":3961:3979  executionCounter++ */\n      dup2\n      sload\n      dup1\n      swap3\n      swap2\n      swap1\n      tag_66\n      swap1\n      tag_44\n      jump\t// in\n    tag_66:\n      swap2\n      swap1\n      pop\n      sstore\n      pop\n        /* \"prac61.sol\":4055:4067  bool success */\n      0x00\n        /* \"prac61.sol\":4069:4086  bytes memory data */\n      0x00\n        /* \"prac61.sol\":4103:4110  _target */\n      dup3\n        /* \"prac61.sol\":4103:4115  _target.call */\n      0xffffffffffffffffffffffffffffffffffffffff\n      and\n        /* \"prac61.sol\":4134:4218  abi.encodeWithSignature(... */\n      add(0x24, mload(0x40))\n      mload(0x40)\n      0x20\n      dup2\n      dup4\n      sub\n      sub\n      dup2\n      mstore\n      swap1\n      0x40\n      mstore\n      and(not(0xffffffffffffffffffffffffffffffffffffffffffffffffffffffff), 0x671bd39d00000000000000000000000000000000000000000000000000000000)\n      0x20\n      dup3\n      add\n      dup1\n      mload\n      0xffffffffffffffffffffffffffffffffffffffffffffffffffffffff\n      dup4\n      dup2\n      dup4\n      and\n      or\n      dup4\n      mstore\n      pop\n      pop\n      pop\n      pop\n        /* \"prac61.sol\":4103:4233  _target.call(... */\n      mload(0x40)\n      tag_67\n      swap2\n      swap1\n      tag_46\n      jump\t// in\n    tag_67:\n      0x00\n      mload(0x40)\n      dup1\n      dup4\n      sub\n      dup2\n      0x00\n      dup7\n      gas\n      call\n      swap2\n      pop\n      pop\n      returndatasize\n      dup1\n      0x00\n      dup2\n      eq\n      tag_70\n      jumpi\n      mload(0x40)\n      swap2\n      pop\n      and(add(returndatasize, 0x3f), not(0x1f))\n      dup3\n      add\n      0x40\n      mstore\n      returndatasize\n      dup3\n      mstore\n      returndatasize\n      0x00\n      0x20\n      dup5\n      add\n      returndatacopy\n      jump(tag_69)\n    tag_70:\n      0x60\n      swap2\n      pop\n    tag_69:\n      pop\n        /* \"prac61.sol\":4054:4233  (bool success, bytes memory data) =... */\n      swap2\n      pop\n      swap2\n      pop\n        /* \"prac61.sol\":4312:4319  success */\n      dup2\n        /* \"prac61.sol\":4298:4309  lastSuccess */\n      0x00\n      0x00\n        /* \"prac61.sol\":4298:4319  lastSuccess = success */\n      0x0100\n      exp\n      dup2\n      sload\n      dup2\n      0xff\n      mul\n      not\n      and\n      swap1\n      dup4\n      iszero\n      iszero\n      mul\n      or\n      swap1\n      sstore\n      pop\n        /* \"prac61.sol\":4343:4347  data */\n      dup1\n        /* \"prac61.sol\":4332:4340  lastData */\n      0x01\n        /* \"prac61.sol\":4332:4347  lastData = data */\n      swap1\n      dup2\n      tag_71\n      swap2\n      swap1\n      tag_51\n      jump\t// in\n    tag_71:\n      pop\n        /* \"prac61.sol\":4619:4626  success */\n      dup2\n        /* \"prac61.sol\":4597:4683  require(... */\n      tag_72\n      jumpi\n      mload(0x40)\n      0x08c379a000000000000000000000000000000000000000000000000000000000\n      dup2\n      mstore\n      0x04\n      add\n      tag_73\n      swap1\n      tag_74\n      jump\t// in\n    tag_73:\n      mload(0x40)\n      dup1\n      swap2\n      sub\n      swap1\n      revert\n    tag_72:\n        /* \"prac61.sol\":3891:4691  {... */\n      pop\n      pop\n        /* \"prac61.sol\":3809:4691  function safeFunctionCall(... */\n      pop\n      jump\t// out\n        /* \"prac61.sol\":3547:3570  bool public lastSuccess */\n    tag_28:\n      0x00\n      0x00\n      swap1\n      sload\n      swap1\n      0x0100\n      exp\n      swap1\n      div\n      0xff\n      and\n      dup2\n      jump\t// out\n        /* \"prac61.sol\":3609:3640  uint256 public executionCounter */\n    tag_33:\n      sload(0x02)\n      dup2\n      jump\t// out\n        /* \"#utility.yul\":7:105   */\n    tag_75:\n        /* \"#utility.yul\":58:64   */\n      0x00\n        /* \"#utility.yul\":92:97   */\n      dup2\n        /* \"#utility.yul\":86:98   */\n      mload\n        /* \"#utility.yul\":76:98   */\n      swap1\n      pop\n        /* \"#utility.yul\":7:105   */\n      swap2\n      swap1\n      pop\n      jump\t// out\n        /* \"#utility.yul\":111:279   */\n    tag_76:\n        /* \"#utility.yul\":194:205   */\n      0x00\n        /* \"#utility.yul\":228:234   */\n      dup3\n        /* \"#utility.yul\":223:226   */\n      dup3\n        /* \"#utility.yul\":216:235   */\n      mstore\n        /* \"#utility.yul\":268:272   */\n      0x20\n        /* \"#utility.yul\":263:266   */\n      dup3\n        /* \"#utility.yul\":259:273   */\n      add\n        /* \"#utility.yul\":244:273   */\n      swap1\n      pop\n        /* \"#utility.yul\":111:279   */\n      swap3\n      swap2\n      pop\n      pop\n      jump\t// out\n        /* \"#utility.yul\":285:424   */\n    tag_77:\n        /* \"#utility.yul\":374:380   */\n      dup3\n        /* \"#utility.yul\":369:372   */\n      dup2\n        /* \"#utility.yul\":364:367   */\n      dup4\n        /* \"#utility.yul\":358:381   */\n      mcopy\n        /* \"#utility.yul\":415:416   */\n      0x00\n        /* \"#utility.yul\":406:412   */\n      dup4\n        /* \"#utility.yul\":401:404   */\n      dup4\n        /* \"#utility.yul\":397:413   */\n      add\n        /* \"#utility.yul\":390:417   */\n      mstore\n        /* \"#utility.yul\":285:424   */\n      pop\n      pop\n      pop\n      jump\t// out\n        /* \"#utility.yul\":430:532   */\n    tag_78:\n        /* \"#utility.yul\":471:477   */\n      0x00\n        /* \"#utility.yul\":522:524   */\n      0x1f\n        /* \"#utility.yul\":518:525   */\n      not\n        /* \"#utility.yul\":513:515   */\n      0x1f\n        /* \"#utility.yul\":506:511   */\n      dup4\n        /* \"#utility.yul\":502:516   */\n      add\n        /* \"#utility.yul\":498:526   */\n      and\n        /* \"#utility.yul\":488:526   */\n      swap1\n      pop\n        /* \"#utility.yul\":430:532   */\n      swap2\n      swap1\n      pop\n      jump\t// out\n        /* \"#utility.yul\":538:911   */\n    tag_79:\n        /* \"#utility.yul\":624:627   */\n      0x00\n        /* \"#utility.yul\":652:690   */\n      tag_129\n        /* \"#utility.yul\":684:689   */\n      dup3\n        /* \"#utility.yul\":652:690   */\n      tag_75\n      jump\t// in\n    tag_129:\n        /* \"#utility.yul\":706:776   */\n      tag_130\n        /* \"#utility.yul\":769:775   */\n      dup2\n        /* \"#utility.yul\":764:767   */\n      dup6\n        /* \"#utility.yul\":706:776   */\n      tag_76\n      jump\t// in\n    tag_130:\n        /* \"#utility.yul\":699:776   */\n      swap4\n      pop\n        /* \"#utility.yul\":785:850   */\n      tag_131\n        /* \"#utility.yul\":843:849   */\n      dup2\n        /* \"#utility.yul\":838:841   */\n      dup6\n        /* \"#utility.yul\":831:835   */\n      0x20\n        /* \"#utility.yul\":824:829   */\n      dup7\n        /* \"#utility.yul\":820:836   */\n      add\n        /* \"#utility.yul\":785:850   */\n      tag_77\n      jump\t// in\n    tag_131:\n        /* \"#utility.yul\":875:904   */\n      tag_132\n        /* \"#utility.yul\":897:903   */\n      dup2\n        /* \"#utility.yul\":875:904   */\n      tag_78\n      jump\t// in\n    tag_132:\n        /* \"#utility.yul\":870:873   */\n      dup5\n        /* \"#utility.yul\":866:905   */\n      add\n        /* \"#utility.yul\":859:905   */\n      swap2\n      pop\n        /* \"#utility.yul\":628:911   */\n      pop\n        /* \"#utility.yul\":538:911   */\n      swap3\n      swap2\n      pop\n      pop\n      jump\t// out\n        /* \"#utility.yul\":917:1226   */\n    tag_12:\n        /* \"#utility.yul\":1028:1032   */\n      0x00\n        /* \"#utility.yul\":1066:1068   */\n      0x20\n        /* \"#utility.yul\":1055:1064   */\n      dup3\n        /* \"#utility.yul\":1051:1069   */\n      add\n        /* \"#utility.yul\":1043:1069   */\n      swap1\n      pop\n        /* \"#utility.yul\":1115:1124   */\n      dup2\n        /* \"#utility.yul\":1109:1113   */\n      dup2\n        /* \"#utility.yul\":1105:1125   */\n      sub\n        /* \"#utility.yul\":1101:1102   */\n      0x00\n        /* \"#utility.yul\":1090:1099   */\n      dup4\n        /* \"#utility.yul\":1086:1103   */\n      add\n        /* \"#utility.yul\":1079:1126   */\n      mstore\n        /* \"#utility.yul\":1143:1219   */\n      tag_134\n        /* \"#utility.yul\":1214:1218   */\n      dup2\n        /* \"#utility.yul\":1205:1211   */\n      dup5\n        /* \"#utility.yul\":1143:1219   */\n      tag_79\n      jump\t// in\n    tag_134:\n        /* \"#utility.yul\":1135:1219   */\n      swap1\n      pop\n        /* \"#utility.yul\":917:1226   */\n      swap3\n      swap2\n      pop\n      pop\n      jump\t// out\n        /* \"#utility.yul\":1313:1430   */\n    tag_81:\n        /* \"#utility.yul\":1422:1423   */\n      0x00\n        /* \"#utility.yul\":1419:1420   */\n      0x00\n        /* \"#utility.yul\":1412:1424   */\n      revert\n        /* \"#utility.yul\":1559:1685   */\n    tag_83:\n        /* \"#utility.yul\":1596:1603   */\n      0x00\n        /* \"#utility.yul\":1636:1678   */\n      0xffffffffffffffffffffffffffffffffffffffff\n        /* \"#utility.yul\":1629:1634   */\n      dup3\n        /* \"#utility.yul\":1625:1679   */\n      and\n        /* \"#utility.yul\":1614:1679   */\n      swap1\n      pop\n        /* \"#utility.yul\":1559:1685   */\n      swap2\n      swap1\n      pop\n      jump\t// out\n        /* \"#utility.yul\":1691:1787   */\n    tag_84:\n        /* \"#utility.yul\":1728:1735   */\n      0x00\n        /* \"#utility.yul\":1757:1781   */\n      tag_140\n        /* \"#utility.yul\":1775:1780   */\n      dup3\n        /* \"#utility.yul\":1757:1781   */\n      tag_83\n      jump\t// in\n    tag_140:\n        /* \"#utility.yul\":1746:1781   */\n      swap1\n      pop\n        /* \"#utility.yul\":1691:1787   */\n      swap2\n      swap1\n      pop\n      jump\t// out\n        /* \"#utility.yul\":1793:1915   */\n    tag_85:\n        /* \"#utility.yul\":1866:1890   */\n      tag_142\n        /* \"#utility.yul\":1884:1889   */\n      dup2\n        /* \"#utility.yul\":1866:1890   */\n      tag_84\n      jump\t// in\n    tag_142:\n        /* \"#utility.yul\":1859:1864   */\n      dup2\n        /* \"#utility.yul\":1856:1891   */\n      eq\n        /* \"#utility.yul\":1846:1909   */\n      tag_143\n      jumpi\n        /* \"#utility.yul\":1905:1906   */\n      0x00\n        /* \"#utility.yul\":1902:1903   */\n      0x00\n        /* \"#utility.yul\":1895:1907   */\n      revert\n        /* \"#utility.yul\":1846:1909   */\n    tag_143:\n        /* \"#utility.yul\":1793:1915   */\n      pop\n      jump\t// out\n        /* \"#utility.yul\":1921:2060   */\n    tag_86:\n        /* \"#utility.yul\":1967:1972   */\n      0x00\n        /* \"#utility.yul\":2005:2011   */\n      dup2\n        /* \"#utility.yul\":1992:2012   */\n      calldataload\n        /* \"#utility.yul\":1983:2012   */\n      swap1\n      pop\n        /* \"#utility.yul\":2021:2054   */\n      tag_145\n        /* \"#utility.yul\":2048:2053   */\n      dup2\n        /* \"#utility.yul\":2021:2054   */\n      tag_85\n      jump\t// in\n    tag_145:\n        /* \"#utility.yul\":1921:2060   */\n      swap3\n      swap2\n      pop\n      pop\n      jump\t// out\n        /* \"#utility.yul\":2066:2395   */\n    tag_16:\n        /* \"#utility.yul\":2125:2131   */\n      0x00\n        /* \"#utility.yul\":2174:2176   */\n      0x20\n        /* \"#utility.yul\":2162:2171   */\n      dup3\n        /* \"#utility.yul\":2153:2160   */\n      dup5\n        /* \"#utility.yul\":2149:2172   */\n      sub\n        /* \"#utility.yul\":2145:2177   */\n      slt\n        /* \"#utility.yul\":2142:2261   */\n      iszero\n      tag_147\n      jumpi\n        /* \"#utility.yul\":2180:2259   */\n      tag_148\n      tag_81\n      jump\t// in\n    tag_148:\n        /* \"#utility.yul\":2142:2261   */\n    tag_147:\n        /* \"#utility.yul\":2300:2301   */\n      0x00\n        /* \"#utility.yul\":2325:2378   */\n      tag_149\n        /* \"#utility.yul\":2370:2377   */\n      dup5\n        /* \"#utility.yul\":2361:2367   */\n      dup3\n        /* \"#utility.yul\":2350:2359   */\n      dup6\n        /* \"#utility.yul\":2346:2368   */\n      add\n        /* \"#utility.yul\":2325:2378   */\n      tag_86\n      jump\t// in\n    tag_149:\n        /* \"#utility.yul\":2315:2378   */\n      swap2\n      pop\n        /* \"#utility.yul\":2271:2388   */\n      pop\n        /* \"#utility.yul\":2066:2395   */\n      swap3\n      swap2\n      pop\n      pop\n      jump\t// out\n        /* \"#utility.yul\":2401:2505   */\n    tag_87:\n        /* \"#utility.yul\":2446:2453   */\n      0x00\n        /* \"#utility.yul\":2475:2499   */\n      tag_151\n        /* \"#utility.yul\":2493:2498   */\n      dup3\n        /* \"#utility.yul\":2475:2499   */\n      tag_83\n      jump\t// in\n    tag_151:\n        /* \"#utility.yul\":2464:2499   */\n      swap1\n      pop\n        /* \"#utility.yul\":2401:2505   */\n      swap2\n      swap1\n      pop\n      jump\t// out\n        /* \"#utility.yul\":2511:2649   */\n    tag_88:\n        /* \"#utility.yul\":2592:2624   */\n      tag_153\n        /* \"#utility.yul\":2618:2623   */\n      dup2\n        /* \"#utility.yul\":2592:2624   */\n      tag_87\n      jump\t// in\n    tag_153:\n        /* \"#utility.yul\":2585:2590   */\n      dup2\n        /* \"#utility.yul\":2582:2625   */\n      eq\n        /* \"#utility.yul\":2572:2643   */\n      tag_154\n      jumpi\n        /* \"#utility.yul\":2639:2640   */\n      0x00\n        /* \"#utility.yul\":2636:2637   */\n      0x00\n        /* \"#utility.yul\":2629:2641   */\n      revert\n        /* \"#utility.yul\":2572:2643   */\n    tag_154:\n        /* \"#utility.yul\":2511:2649   */\n      pop\n      jump\t// out\n        /* \"#utility.yul\":2655:2810   */\n    tag_89:\n        /* \"#utility.yul\":2709:2714   */\n      0x00\n        /* \"#utility.yul\":2747:2753   */\n      dup2\n        /* \"#utility.yul\":2734:2754   */\n      calldataload\n        /* \"#utility.yul\":2725:2754   */\n      swap1\n      pop\n        /* \"#utility.yul\":2763:2804   */\n      tag_156\n        /* \"#utility.yul\":2798:2803   */\n      dup2\n        /* \"#utility.yul\":2763:2804   */\n      tag_88\n      jump\t// in\n    tag_156:\n        /* \"#utility.yul\":2655:2810   */\n      swap3\n      swap2\n      pop\n      pop\n      jump\t// out\n        /* \"#utility.yul\":2816:3161   */\n    tag_20:\n        /* \"#utility.yul\":2883:2889   */\n      0x00\n        /* \"#utility.yul\":2932:2934   */\n      0x20\n        /* \"#utility.yul\":2920:2929   */\n      dup3\n        /* \"#utility.yul\":2911:2918   */\n      dup5\n        /* \"#utility.yul\":2907:2930   */\n      sub\n        /* \"#utility.yul\":2903:2935   */\n      slt\n        /* \"#utility.yul\":2900:3019   */\n      iszero\n      tag_158\n      jumpi\n        /* \"#utility.yul\":2938:3017   */\n      tag_159\n      tag_81\n      jump\t// in\n    tag_159:\n        /* \"#utility.yul\":2900:3019   */\n    tag_158:\n        /* \"#utility.yul\":3058:3059   */\n      0x00\n        /* \"#utility.yul\":3083:3144   */\n      tag_160\n        /* \"#utility.yul\":3136:3143   */\n      dup5\n        /* \"#utility.yul\":3127:3133   */\n      dup3\n        /* \"#utility.yul\":3116:3125   */\n      dup6\n        /* \"#utility.yul\":3112:3134   */\n      add\n        /* \"#utility.yul\":3083:3144   */\n      tag_89\n      jump\t// in\n    tag_160:\n        /* \"#utility.yul\":3073:3144   */\n      swap2\n      pop\n        /* \"#utility.yul\":3029:3154   */\n      pop\n        /* \"#utility.yul\":2816:3161   */\n      swap3\n      swap2\n      pop\n      pop\n      jump\t// out\n        /* \"#utility.yul\":3167:3257   */\n    tag_90:\n        /* \"#utility.yul\":3201:3208   */\n      0x00\n        /* \"#utility.yul\":3244:3249   */\n      dup2\n        /* \"#utility.yul\":3237:3250   */\n      iszero\n        /* \"#utility.yul\":3230:3251   */\n      iszero\n        /* \"#utility.yul\":3219:3251   */\n      swap1\n      pop\n        /* \"#utility.yul\":3167:3257   */\n      swap2\n      swap1\n      pop\n      jump\t// out\n        /* \"#utility.yul\":3263:3372   */\n    tag_91:\n        /* \"#utility.yul\":3344:3365   */\n      tag_163\n        /* \"#utility.yul\":3359:3364   */\n      dup2\n        /* \"#utility.yul\":3344:3365   */\n      tag_90\n      jump\t// in\n    tag_163:\n        /* \"#utility.yul\":3339:3342   */\n      dup3\n        /* \"#utility.yul\":3332:3366   */\n      mstore\n        /* \"#utility.yul\":3263:3372   */\n      pop\n      pop\n      jump\t// out\n        /* \"#utility.yul\":3378:3588   */\n    tag_30:\n        /* \"#utility.yul\":3465:3469   */\n      0x00\n        /* \"#utility.yul\":3503:3505   */\n      0x20\n        /* \"#utility.yul\":3492:3501   */\n      dup3\n        /* \"#utility.yul\":3488:3506   */\n      add\n        /* \"#utility.yul\":3480:3506   */\n      swap1\n      pop\n        /* \"#utility.yul\":3516:3581   */\n      tag_165\n        /* \"#utility.yul\":3578:3579   */\n      0x00\n        /* \"#utility.yul\":3567:3576   */\n      dup4\n        /* \"#utility.yul\":3563:3580   */\n      add\n        /* \"#utility.yul\":3554:3560   */\n      dup5\n        /* \"#utility.yul\":3516:3581   */\n      tag_91\n      jump\t// in\n    tag_165:\n        /* \"#utility.yul\":3378:3588   */\n      swap3\n      swap2\n      pop\n      pop\n      jump\t// out\n        /* \"#utility.yul\":3594:3671   */\n    tag_92:\n        /* \"#utility.yul\":3631:3638   */\n      0x00\n        /* \"#utility.yul\":3660:3665   */\n      dup2\n        /* \"#utility.yul\":3649:3665   */\n      swap1\n      pop\n        /* \"#utility.yul\":3594:3671   */\n      swap2\n      swap1\n      pop\n      jump\t// out\n        /* \"#utility.yul\":3677:3795   */\n    tag_93:\n        /* \"#utility.yul\":3764:3788   */\n      tag_168\n        /* \"#utility.yul\":3782:3787   */\n      dup2\n        /* \"#utility.yul\":3764:3788   */\n      tag_92\n      jump\t// in\n    tag_168:\n        /* \"#utility.yul\":3759:3762   */\n      dup3\n        /* \"#utility.yul\":3752:3789   */\n      mstore\n        /* \"#utility.yul\":3677:3795   */\n      pop\n      pop\n      jump\t// out\n        /* \"#utility.yul\":3801:4023   */\n    tag_35:\n        /* \"#utility.yul\":3894:3898   */\n      0x00\n        /* \"#utility.yul\":3932:3934   */\n      0x20\n        /* \"#utility.yul\":3921:3930   */\n      dup3\n        /* \"#utility.yul\":3917:3935   */\n      add\n        /* \"#utility.yul\":3909:3935   */\n      swap1\n      pop\n        /* \"#utility.yul\":3945:4016   */\n      tag_170\n        /* \"#utility.yul\":4013:4014   */\n      0x00\n        /* \"#utility.yul\":4002:4011   */\n      dup4\n        /* \"#utility.yul\":3998:4015   */\n      add\n        /* \"#utility.yul\":3989:3995   */\n      dup5\n        /* \"#utility.yul\":3945:4016   */\n      tag_93\n      jump\t// in\n    tag_170:\n        /* \"#utility.yul\":3801:4023   */\n      swap3\n      swap2\n      pop\n      pop\n      jump\t// out\n        /* \"#utility.yul\":4029:4209   */\n    tag_94:\n        /* \"#utility.yul\":4077:4154   */\n      0x4e487b7100000000000000000000000000000000000000000000000000000000\n        /* \"#utility.yul\":4074:4075   */\n      0x00\n        /* \"#utility.yul\":4067:4155   */\n      mstore\n        /* \"#utility.yul\":4174:4178   */\n      0x22\n        /* \"#utility.yul\":4171:4172   */\n      0x04\n        /* \"#utility.yul\":4164:4179   */\n      mstore\n        /* \"#utility.yul\":4198:4202   */\n      0x24\n        /* \"#utility.yul\":4195:4196   */\n      0x00\n        /* \"#utility.yul\":4188:4203   */\n      revert\n        /* \"#utility.yul\":4215:4535   */\n    tag_37:\n        /* \"#utility.yul\":4259:4265   */\n      0x00\n        /* \"#utility.yul\":4296:4297   */\n      0x02\n        /* \"#utility.yul\":4290:4294   */\n      dup3\n        /* \"#utility.yul\":4286:4298   */\n      div\n        /* \"#utility.yul\":4276:4298   */\n      swap1\n      pop\n        /* \"#utility.yul\":4343:4344   */\n      0x01\n        /* \"#utility.yul\":4337:4341   */\n      dup3\n        /* \"#utility.yul\":4333:4345   */\n      and\n        /* \"#utility.yul\":4364:4382   */\n      dup1\n        /* \"#utility.yul\":4354:4435   */\n      tag_173\n      jumpi\n        /* \"#utility.yul\":4420:4424   */\n      0x7f\n        /* \"#utility.yul\":4412:4418   */\n      dup3\n        /* \"#utility.yul\":4408:4425   */\n      and\n        /* \"#utility.yul\":4398:4425   */\n      swap2\n      pop\n        /* \"#utility.yul\":4354:4435   */\n    tag_173:\n        /* \"#utility.yul\":4482:4484   */\n      0x20\n        /* \"#utility.yul\":4474:4480   */\n      dup3\n        /* \"#utility.yul\":4471:4485   */\n      lt\n        /* \"#utility.yul\":4451:4469   */\n      dup2\n        /* \"#utility.yul\":4448:4486   */\n      sub\n        /* \"#utility.yul\":4445:4529   */\n      tag_174\n      jumpi\n        /* \"#utility.yul\":4501:4519   */\n      tag_175\n      tag_94\n      jump\t// in\n    tag_175:\n        /* \"#utility.yul\":4445:4529   */\n    tag_174:\n        /* \"#utility.yul\":4266:4535   */\n      pop\n        /* \"#utility.yul\":4215:4535   */\n      swap2\n      swap1\n      pop\n      jump\t// out\n        /* \"#utility.yul\":4541:4721   */\n    tag_95:\n        /* \"#utility.yul\":4589:4666   */\n      0x4e487b7100000000000000000000000000000000000000000000000000000000\n        /* \"#utility.yul\":4586:4587   */\n      0x00\n        /* \"#utility.yul\":4579:4667   */\n      mstore\n        /* \"#utility.yul\":4686:4690   */\n      0x11\n        /* \"#utility.yul\":4683:4684   */\n      0x04\n        /* \"#utility.yul\":4676:4691   */\n      mstore\n        /* \"#utility.yul\":4710:4714   */\n      0x24\n        /* \"#utility.yul\":4707:4708   */\n      0x00\n        /* \"#utility.yul\":4700:4715   */\n      revert\n        /* \"#utility.yul\":4727:4960   */\n    tag_44:\n        /* \"#utility.yul\":4766:4769   */\n      0x00\n        /* \"#utility.yul\":4789:4813   */\n      tag_178\n        /* \"#utility.yul\":4807:4812   */\n      dup3\n        /* \"#utility.yul\":4789:4813   */\n      tag_92\n      jump\t// in\n    tag_178:\n        /* \"#utility.yul\":4780:4813   */\n      swap2\n      pop\n        /* \"#utility.yul\":4835:4901   */\n      0xffffffffffffffffffffffffffffffffffffffffffffffffffffffffffffffff\n        /* \"#utility.yul\":4828:4833   */\n      dup3\n        /* \"#utility.yul\":4825:4902   */\n      sub\n        /* \"#utility.yul\":4822:4925   */\n      tag_179\n      jumpi\n        /* \"#utility.yul\":4905:4923   */\n      tag_180\n      tag_95\n      jump\t// in\n    tag_180:\n        /* \"#utility.yul\":4822:4925   */\n    tag_179:\n        /* \"#utility.yul\":4952:4953   */\n      0x01\n        /* \"#utility.yul\":4945:4950   */\n      dup3\n        /* \"#utility.yul\":4941:4954   */\n      add\n        /* \"#utility.yul\":4934:4954   */\n      swap1\n      pop\n        /* \"#utility.yul\":4727:4960   */\n      swap2\n      swap1\n      pop\n      jump\t// out\n        /* \"#utility.yul\":4966:5113   */\n    tag_96:\n        /* \"#utility.yul\":5067:5078   */\n      0x00\n        /* \"#utility.yul\":5104:5107   */\n      dup2\n        /* \"#utility.yul\":5089:5107   */\n      swap1\n      pop\n        /* \"#utility.yul\":4966:5113   */\n      swap3\n      swap2\n      pop\n      pop\n      jump\t// out\n        /* \"#utility.yul\":5119:5505   */\n    tag_97:\n        /* \"#utility.yul\":5223:5226   */\n      0x00\n        /* \"#utility.yul\":5251:5289   */\n      tag_183\n        /* \"#utility.yul\":5283:5288   */\n      dup3\n        /* \"#utility.yul\":5251:5289   */\n      tag_75\n      jump\t// in\n    tag_183:\n        /* \"#utility.yul\":5305:5393   */\n      tag_184\n        /* \"#utility.yul\":5386:5392   */\n      dup2\n        /* \"#utility.yul\":5381:5384   */\n      dup6\n        /* \"#utility.yul\":5305:5393   */\n      tag_96\n      jump\t// in\n    tag_184:\n        /* \"#utility.yul\":5298:5393   */\n      swap4\n      pop\n        /* \"#utility.yul\":5402:5467   */\n      tag_185\n        /* \"#utility.yul\":5460:5466   */\n      dup2\n        /* \"#utility.yul\":5455:5458   */\n      dup6\n        /* \"#utility.yul\":5448:5452   */\n      0x20\n        /* \"#utility.yul\":5441:5446   */\n      dup7\n        /* \"#utility.yul\":5437:5453   */\n      add\n        /* \"#utility.yul\":5402:5467   */\n      tag_77\n      jump\t// in\n    tag_185:\n        /* \"#utility.yul\":5492:5498   */\n      dup1\n        /* \"#utility.yul\":5487:5490   */\n      dup5\n        /* \"#utility.yul\":5483:5499   */\n      add\n        /* \"#utility.yul\":5476:5499   */\n      swap2\n      pop\n        /* \"#utility.yul\":5227:5505   */\n      pop\n        /* \"#utility.yul\":5119:5505   */\n      swap3\n      swap2\n      pop\n      pop\n      jump\t// out\n        /* \"#utility.yul\":5511:5782   */\n    tag_46:\n        /* \"#utility.yul\":5641:5644   */\n      0x00\n        /* \"#utility.yul\":5663:5756   */\n      tag_187\n        /* \"#utility.yul\":5752:5755   */\n      dup3\n        /* \"#utility.yul\":5743:5749   */\n      dup5\n        /* \"#utility.yul\":5663:5756   */\n      tag_97\n      jump\t// in\n    tag_187:\n        /* \"#utility.yul\":5656:5756   */\n      swap2\n      pop\n        /* \"#utility.yul\":5773:5776   */\n      dup2\n        /* \"#utility.yul\":5766:5776   */\n      swap1\n      pop\n        /* \"#utility.yul\":5511:5782   */\n      swap3\n      swap2\n      pop\n      pop\n      jump\t// out\n        /* \"#utility.yul\":5788:5968   */\n    tag_98:\n        /* \"#utility.yul\":5836:5913   */\n      0x4e487b7100000000000000000000000000000000000000000000000000000000\n        /* \"#utility.yul\":5833:5834   */\n      0x00\n        /* \"#utility.yul\":5826:5914   */\n      mstore\n        /* \"#utility.yul\":5933:5937   */\n      0x41\n        /* \"#utility.yul\":5930:5931   */\n      0x04\n        /* \"#utility.yul\":5923:5938   */\n      mstore\n        /* \"#utility.yul\":5957:5961   */\n      0x24\n        /* \"#utility.yul\":5954:5955   */\n      0x00\n        /* \"#utility.yul\":5947:5962   */\n      revert\n        /* \"#utility.yul\":5974:6114   */\n    tag_99:\n        /* \"#utility.yul\":6022:6026   */\n      0x00\n        /* \"#utility.yul\":6045:6048   */\n      dup2\n        /* \"#utility.yul\":6037:6048   */\n      swap1\n      pop\n        /* \"#utility.yul\":6068:6071   */\n      dup2\n        /* \"#utility.yul\":6065:6066   */\n      0x00\n        /* \"#utility.yul\":6058:6072   */\n      mstore\n        /* \"#utility.yul\":6102:6106   */\n      0x20\n        /* \"#utility.yul\":6099:6100   */\n      0x00\n        /* \"#utility.yul\":6089:6107   */\n      keccak256\n        /* \"#utility.yul\":6081:6107   */\n      swap1\n      pop\n        /* \"#utility.yul\":5974:6114   */\n      swap2\n      swap1\n      pop\n      jump\t// out\n        /* \"#utility.yul\":6120:6213   */\n    tag_100:\n        /* \"#utility.yul\":6157:6163   */\n      0x00\n        /* \"#utility.yul\":6204:6206   */\n      0x20\n        /* \"#utility.yul\":6199:6201   */\n      0x1f\n        /* \"#utility.yul\":6192:6197   */\n      dup4\n        /* \"#utility.yul\":6188:6202   */\n      add\n        /* \"#utility.yul\":6184:6207   */\n      div\n        /* \"#utility.yul\":6174:6207   */\n      swap1\n      pop\n        /* \"#utility.yul\":6120:6213   */\n      swap2\n      swap1\n      pop\n      jump\t// out\n        /* \"#utility.yul\":6219:6326   */\n    tag_101:\n        /* \"#utility.yul\":6263:6271   */\n      0x00\n        /* \"#utility.yul\":6313:6318   */\n      dup3\n        /* \"#utility.yul\":6307:6311   */\n      dup3\n        /* \"#utility.yul\":6303:6319   */\n      shl\n        /* \"#utility.yul\":6282:6319   */\n      swap1\n      pop\n        /* \"#utility.yul\":6219:6326   */\n      swap3\n      swap2\n      pop\n      pop\n      jump\t// out\n        /* \"#utility.yul\":6332:6725   */\n    tag_102:\n        /* \"#utility.yul\":6401:6407   */\n      0x00\n        /* \"#utility.yul\":6451:6452   */\n      0x08\n        /* \"#utility.yul\":6439:6449   */\n      dup4\n        /* \"#utility.yul\":6435:6453   */\n      mul\n        /* \"#utility.yul\":6474:6571   */\n      tag_193\n        /* \"#utility.yul\":6504:6570   */\n      0xffffffffffffffffffffffffffffffffffffffffffffffffffffffffffffffff\n        /* \"#utility.yul\":6493:6502   */\n      dup3\n        /* \"#utility.yul\":6474:6571   */\n      tag_101\n      jump\t// in\n    tag_193:\n        /* \"#utility.yul\":6592:6631   */\n      tag_194\n        /* \"#utility.yul\":6622:6630   */\n      dup7\n        /* \"#utility.yul\":6611:6620   */\n      dup4\n        /* \"#utility.yul\":6592:6631   */\n      tag_101\n      jump\t// in\n    tag_194:\n        /* \"#utility.yul\":6580:6631   */\n      swap6\n      pop\n        /* \"#utility.yul\":6664:6668   */\n      dup1\n        /* \"#utility.yul\":6660:6669   */\n      not\n        /* \"#utility.yul\":6653:6658   */\n      dup5\n        /* \"#utility.yul\":6649:6670   */\n      and\n        /* \"#utility.yul\":6640:6670   */\n      swap4\n      pop\n        /* \"#utility.yul\":6713:6717   */\n      dup1\n        /* \"#utility.yul\":6703:6711   */\n      dup7\n        /* \"#utility.yul\":6699:6718   */\n      and\n        /* \"#utility.yul\":6692:6697   */\n      dup5\n        /* \"#utility.yul\":6689:6719   */\n      or\n        /* \"#utility.yul\":6679:6719   */\n      swap3\n      pop\n        /* \"#utility.yul\":6408:6725   */\n      pop\n      pop\n        /* \"#utility.yul\":6332:6725   */\n      swap4\n      swap3\n      pop\n      pop\n      pop\n      jump\t// out\n        /* \"#utility.yul\":6731:6791   */\n    tag_103:\n        /* \"#utility.yul\":6759:6762   */\n      0x00\n        /* \"#utility.yul\":6780:6785   */\n      dup2\n        /* \"#utility.yul\":6773:6785   */\n      swap1\n      pop\n        /* \"#utility.yul\":6731:6791   */\n      swap2\n      swap1\n      pop\n      jump\t// out\n        /* \"#utility.yul\":6797:6939   */\n    tag_104:\n        /* \"#utility.yul\":6847:6856   */\n      0x00\n        /* \"#utility.yul\":6880:6933   */\n      tag_197\n        /* \"#utility.yul\":6898:6932   */\n      tag_198\n        /* \"#utility.yul\":6907:6931   */\n      tag_199\n        /* \"#utility.yul\":6925:6930   */\n      dup5\n        /* \"#utility.yul\":6907:6931   */\n      tag_92\n      jump\t// in\n    tag_199:\n        /* \"#utility.yul\":6898:6932   */\n      tag_103\n      jump\t// in\n    tag_198:\n        /* \"#utility.yul\":6880:6933   */\n      tag_92\n      jump\t// in\n    tag_197:\n        /* \"#utility.yul\":6867:6933   */\n      swap1\n      pop\n        /* \"#utility.yul\":6797:6939   */\n      swap2\n      swap1\n      pop\n      jump\t// out\n        /* \"#utility.yul\":6945:7020   */\n    tag_105:\n        /* \"#utility.yul\":6988:6991   */\n      0x00\n        /* \"#utility.yul\":7009:7014   */\n      dup2\n        /* \"#utility.yul\":7002:7014   */\n      swap1\n      pop\n        /* \"#utility.yul\":6945:7020   */\n      swap2\n      swap1\n      pop\n      jump\t// out\n        /* \"#utility.yul\":7026:7295   */\n    tag_106:\n        /* \"#utility.yul\":7136:7175   */\n      tag_202\n        /* \"#utility.yul\":7167:7174   */\n      dup4\n        /* \"#utility.yul\":7136:7175   */\n      tag_104\n      jump\t// in\n    tag_202:\n        /* \"#utility.yul\":7197:7288   */\n      tag_203\n        /* \"#utility.yul\":7246:7287   */\n      tag_204\n        /* \"#utility.yul\":7270:7286   */\n      dup3\n        /* \"#utility.yul\":7246:7287   */\n      tag_105\n      jump\t// in\n    tag_204:\n        /* \"#utility.yul\":7238:7244   */\n      dup5\n        /* \"#utility.yul\":7231:7235   */\n      dup5\n        /* \"#utility.yul\":7225:7236   */\n      sload\n        /* \"#utility.yul\":7197:7288   */\n      tag_102\n      jump\t// in\n    tag_203:\n        /* \"#utility.yul\":7191:7195   */\n      dup3\n        /* \"#utility.yul\":7184:7289   */\n      sstore\n        /* \"#utility.yul\":7102:7295   */\n      pop\n        /* \"#utility.yul\":7026:7295   */\n      pop\n      pop\n      pop\n      jump\t// out\n        /* \"#utility.yul\":7301:7374   */\n    tag_107:\n        /* \"#utility.yul\":7346:7349   */\n      0x00\n        /* \"#utility.yul\":7367:7368   */\n      0x00\n        /* \"#utility.yul\":7360:7368   */\n      swap1\n      pop\n        /* \"#utility.yul\":7301:7374   */\n      swap1\n      jump\t// out\n        /* \"#utility.yul\":7380:7569   */\n    tag_108:\n        /* \"#utility.yul\":7457:7489   */\n      tag_207\n      tag_107\n      jump\t// in\n    tag_207:\n        /* \"#utility.yul\":7498:7563   */\n      tag_208\n        /* \"#utility.yul\":7556:7562   */\n      dup2\n        /* \"#utility.yul\":7548:7554   */\n      dup5\n        /* \"#utility.yul\":7542:7546   */\n      dup5\n        /* \"#utility.yul\":7498:7563   */\n      tag_106\n      jump\t// in\n    tag_208:\n        /* \"#utility.yul\":7433:7569   */\n      pop\n        /* \"#utility.yul\":7380:7569   */\n      pop\n      pop\n      jump\t// out\n        /* \"#utility.yul\":7575:7789   */\n    tag_109:\n        /* \"#utility.yul\":7660:7661   */\n      0x00\n        /* \"#utility.yul\":7645:7783   */\n    tag_210:\n        /* \"#utility.yul\":7670:7679   */\n      dup3\n        /* \"#utility.yul\":7667:7668   */\n      dup2\n        /* \"#utility.yul\":7664:7680   */\n      lt\n        /* \"#utility.yul\":7645:7783   */\n      iszero\n      tag_212\n      jumpi\n        /* \"#utility.yul\":7722:7773   */\n      tag_213\n        /* \"#utility.yul\":7771:7772   */\n      0x00\n        /* \"#utility.yul\":7767:7768   */\n      dup3\n        /* \"#utility.yul\":7756:7765   */\n      dup5\n        /* \"#utility.yul\":7752:7769   */\n      add\n        /* \"#utility.yul\":7722:7773   */\n      tag_108\n      jump\t// in\n    tag_213:\n        /* \"#utility.yul\":7695:7696   */\n      0x01\n        /* \"#utility.yul\":7692:7693   */\n      dup2\n        /* \"#utility.yul\":7688:7697   */\n      add\n        /* \"#utility.yul\":7683:7697   */\n      swap1\n      pop\n        /* \"#utility.yul\":7645:7783   */\n      jump(tag_210)\n    tag_212:\n        /* \"#utility.yul\":7649:7663   */\n      pop\n        /* \"#utility.yul\":7575:7789   */\n      pop\n      pop\n      jump\t// out\n        /* \"#utility.yul\":7795:8539   */\n    tag_110:\n        /* \"#utility.yul\":7895:7897   */\n      0x1f\n        /* \"#utility.yul\":7890:7893   */\n      dup3\n        /* \"#utility.yul\":7887:7898   */\n      gt\n        /* \"#utility.yul\":7884:8532   */\n      iszero\n      tag_215\n      jumpi\n        /* \"#utility.yul\":7924:7934   */\n      dup3\n        /* \"#utility.yul\":7919:7922   */\n      dup3\n        /* \"#utility.yul\":7916:7935   */\n      gt\n        /* \"#utility.yul\":7913:8522   */\n      iszero\n      tag_216\n      jumpi\n        /* \"#utility.yul\":7970:8007   */\n      tag_217\n        /* \"#utility.yul\":8001:8006   */\n      dup2\n        /* \"#utility.yul\":7970:8007   */\n      tag_99\n      jump\t// in\n    tag_217:\n        /* \"#utility.yul\":8044:8066   */\n      tag_218\n        /* \"#utility.yul\":8062:8065   */\n      dup4\n        /* \"#utility.yul\":8044:8066   */\n      tag_100\n      jump\t// in\n    tag_218:\n        /* \"#utility.yul\":8103:8132   */\n      tag_219\n        /* \"#utility.yul\":8121:8131   */\n      dup6\n        /* \"#utility.yul\":8103:8132   */\n      tag_100\n      jump\t// in\n    tag_219:\n        /* \"#utility.yul\":8293:8295   */\n      0x20\n        /* \"#utility.yul\":8281:8291   */\n      dup7\n        /* \"#utility.yul\":8278:8296   */\n      lt\n        /* \"#utility.yul\":8275:8354   */\n      iszero\n      tag_220\n      jumpi\n        /* \"#utility.yul\":8335:8336   */\n      0x00\n        /* \"#utility.yul\":8319:8336   */\n      swap1\n      pop\n        /* \"#utility.yul\":8275:8354   */\n    tag_220:\n        /* \"#utility.yul\":8404:8416   */\n      dup1\n        /* \"#utility.yul\":8394:8402   */\n      dup4\n        /* \"#utility.yul\":8390:8417   */\n      add\n        /* \"#utility.yul\":8434:8508   */\n      tag_221\n        /* \"#utility.yul\":8494:8506   */\n      dup3\n        /* \"#utility.yul\":8480:8492   */\n      dup5\n        /* \"#utility.yul\":8476:8507   */\n      sub\n        /* \"#utility.yul\":8463:8474   */\n      dup3\n        /* \"#utility.yul\":8434:8508   */\n      tag_109\n      jump\t// in\n    tag_221:\n        /* \"#utility.yul\":7936:8522   */\n      pop\n      pop\n      pop\n      pop\n        /* \"#utility.yul\":7913:8522   */\n    tag_216:\n        /* \"#utility.yul\":7884:8532   */\n    tag_215:\n        /* \"#utility.yul\":7795:8539   */\n      pop\n      pop\n      pop\n      jump\t// out\n        /* \"#utility.yul\":8545:8662   */\n    tag_111:\n        /* \"#utility.yul\":8599:8607   */\n      0x00\n        /* \"#utility.yul\":8649:8654   */\n      dup3\n        /* \"#utility.yul\":8643:8647   */\n      dup3\n        /* \"#utility.yul\":8639:8655   */\n      shr\n        /* \"#utility.yul\":8618:8655   */\n      swap1\n      pop\n        /* \"#utility.yul\":8545:8662   */\n      swap3\n      swap2\n      pop\n      pop\n      jump\t// out\n        /* \"#utility.yul\":8668:8837   */\n    tag_112:\n        /* \"#utility.yul\":8712:8718   */\n      0x00\n        /* \"#utility.yul\":8745:8796   */\n      tag_224\n        /* \"#utility.yul\":8793:8794   */\n      0x00\n        /* \"#utility.yul\":8789:8795   */\n      not\n        /* \"#utility.yul\":8781:8786   */\n      dup5\n        /* \"#utility.yul\":8778:8779   */\n      0x08\n        /* \"#utility.yul\":8774:8787   */\n      mul\n        /* \"#utility.yul\":8745:8796   */\n      tag_111\n      jump\t// in\n    tag_224:\n        /* \"#utility.yul\":8741:8797   */\n      not\n        /* \"#utility.yul\":8826:8830   */\n      dup1\n        /* \"#utility.yul\":8820:8824   */\n      dup4\n        /* \"#utility.yul\":8816:8831   */\n      and\n        /* \"#utility.yul\":8806:8831   */\n      swap2\n      pop\n        /* \"#utility.yul\":8719:8837   */\n      pop\n        /* \"#utility.yul\":8668:8837   */\n      swap3\n      swap2\n      pop\n      pop\n      jump\t// out\n        /* \"#utility.yul\":8842:9137   */\n    tag_113:\n        /* \"#utility.yul\":8918:8922   */\n      0x00\n        /* \"#utility.yul\":9064:9093   */\n      tag_226\n        /* \"#utility.yul\":9089:9092   */\n      dup4\n        /* \"#utility.yul\":9083:9087   */\n      dup4\n        /* \"#utility.yul\":9064:9093   */\n      tag_112\n      jump\t// in\n    tag_226:\n        /* \"#utility.yul\":9056:9093   */\n      swap2\n      pop\n        /* \"#utility.yul\":9126:9129   */\n      dup3\n        /* \"#utility.yul\":9123:9124   */\n      0x02\n        /* \"#utility.yul\":9119:9130   */\n      mul\n        /* \"#utility.yul\":9113:9117   */\n      dup3\n        /* \"#utility.yul\":9110:9131   */\n      or\n        /* \"#utility.yul\":9102:9131   */\n      swap1\n      pop\n        /* \"#utility.yul\":8842:9137   */\n      swap3\n      swap2\n      pop\n      pop\n      jump\t// out\n        /* \"#utility.yul\":9142:10532   */\n    tag_51:\n        /* \"#utility.yul\":9257:9293   */\n      tag_228\n        /* \"#utility.yul\":9289:9292   */\n      dup3\n        /* \"#utility.yul\":9257:9293   */\n      tag_75\n      jump\t// in\n    tag_228:\n        /* \"#utility.yul\":9358:9376   */\n      0xffffffffffffffff\n        /* \"#utility.yul\":9350:9356   */\n      dup2\n        /* \"#utility.yul\":9347:9377   */\n      gt\n        /* \"#utility.yul\":9344:9400   */\n      iszero\n      tag_229\n      jumpi\n        /* \"#utility.yul\":9380:9398   */\n      tag_230\n      tag_98\n      jump\t// in\n    tag_230:\n        /* \"#utility.yul\":9344:9400   */\n    tag_229:\n        /* \"#utility.yul\":9424:9462   */\n      tag_231\n        /* \"#utility.yul\":9456:9460   */\n      dup3\n        /* \"#utility.yul\":9450:9461   */\n      sload\n        /* \"#utility.yul\":9424:9462   */\n      tag_37\n      jump\t// in\n    tag_231:\n        /* \"#utility.yul\":9509:9575   */\n      tag_232\n        /* \"#utility.yul\":9568:9574   */\n      dup3\n        /* \"#utility.yul\":9560:9566   */\n      dup3\n        /* \"#utility.yul\":9554:9558   */\n      dup6\n        /* \"#utility.yul\":9509:9575   */\n      tag_110\n      jump\t// in\n    tag_232:\n        /* \"#utility.yul\":9602:9603   */\n      0x00\n        /* \"#utility.yul\":9626:9630   */\n      0x20\n        /* \"#utility.yul\":9613:9630   */\n      swap1\n      pop\n        /* \"#utility.yul\":9658:9660   */\n      0x1f\n        /* \"#utility.yul\":9650:9656   */\n      dup4\n        /* \"#utility.yul\":9647:9661   */\n      gt\n        /* \"#utility.yul\":9675:9676   */\n      0x01\n        /* \"#utility.yul\":9670:10287   */\n      dup2\n      eq\n      tag_234\n      jumpi\n        /* \"#utility.yul\":10331:10332   */\n      0x00\n        /* \"#utility.yul\":10348:10354   */\n      dup5\n        /* \"#utility.yul\":10345:10422   */\n      iszero\n      tag_235\n      jumpi\n        /* \"#utility.yul\":10397:10406   */\n      dup3\n        /* \"#utility.yul\":10392:10395   */\n      dup8\n        /* \"#utility.yul\":10388:10407   */\n      add\n        /* \"#utility.yul\":10382:10408   */\n      mload\n        /* \"#utility.yul\":10373:10408   */\n      swap1\n      pop\n        /* \"#utility.yul\":10345:10422   */\n    tag_235:\n        /* \"#utility.yul\":10448:10515   */\n      tag_236\n        /* \"#utility.yul\":10508:10514   */\n      dup6\n        /* \"#utility.yul\":10501:10506   */\n      dup3\n        /* \"#utility.yul\":10448:10515   */\n      tag_113\n      jump\t// in\n    tag_236:\n        /* \"#utility.yul\":10442:10446   */\n      dup7\n        /* \"#utility.yul\":10435:10516   */\n      sstore\n        /* \"#utility.yul\":10304:10526   */\n      pop\n        /* \"#utility.yul\":9640:10526   */\n      jump(tag_233)\n        /* \"#utility.yul\":9670:10287   */\n    tag_234:\n        /* \"#utility.yul\":9722:9726   */\n      0x1f\n        /* \"#utility.yul\":9718:9727   */\n      not\n        /* \"#utility.yul\":9710:9716   */\n      dup5\n        /* \"#utility.yul\":9706:9728   */\n      and\n        /* \"#utility.yul\":9756:9792   */\n      tag_237\n        /* \"#utility.yul\":9787:9791   */\n      dup7\n        /* \"#utility.yul\":9756:9792   */\n      tag_99\n      jump\t// in\n    tag_237:\n        /* \"#utility.yul\":9814:9815   */\n      0x00\n        /* \"#utility.yul\":9828:10036   */\n    tag_238:\n        /* \"#utility.yul\":9842:9849   */\n      dup3\n        /* \"#utility.yul\":9839:9840   */\n      dup2\n        /* \"#utility.yul\":9836:9850   */\n      lt\n        /* \"#utility.yul\":9828:10036   */\n      iszero\n      tag_240\n      jumpi\n        /* \"#utility.yul\":9921:9930   */\n      dup5\n        /* \"#utility.yul\":9916:9919   */\n      dup10\n        /* \"#utility.yul\":9912:9931   */\n      add\n        /* \"#utility.yul\":9906:9932   */\n      mload\n        /* \"#utility.yul\":9898:9904   */\n      dup3\n        /* \"#utility.yul\":9891:9933   */\n      sstore\n        /* \"#utility.yul\":9972:9973   */\n      0x01\n        /* \"#utility.yul\":9964:9970   */\n      dup3\n        /* \"#utility.yul\":9960:9974   */\n      add\n        /* \"#utility.yul\":9950:9974   */\n      swap2\n      pop\n        /* \"#utility.yul\":10019:10021   */\n      0x20\n        /* \"#utility.yul\":10008:10017   */\n      dup6\n        /* \"#utility.yul\":10004:10022   */\n      add\n        /* \"#utility.yul\":9991:10022   */\n      swap5\n      pop\n        /* \"#utility.yul\":9865:9869   */\n      0x20\n        /* \"#utility.yul\":9862:9863   */\n      dup2\n        /* \"#utility.yul\":9858:9870   */\n      add\n        /* \"#utility.yul\":9853:9870   */\n      swap1\n      pop\n        /* \"#utility.yul\":9828:10036   */\n      jump(tag_238)\n    tag_240:\n        /* \"#utility.yul\":10064:10070   */\n      dup7\n        /* \"#utility.yul\":10055:10062   */\n      dup4\n        /* \"#utility.yul\":10052:10071   */\n      lt\n        /* \"#utility.yul\":10049:10228   */\n      iszero\n      tag_241\n      jumpi\n        /* \"#utility.yul\":10122:10131   */\n      dup5\n        /* \"#utility.yul\":10117:10120   */\n      dup10\n        /* \"#utility.yul\":10113:10132   */\n      add\n        /* \"#utility.yul\":10107:10133   */\n      mload\n        /* \"#utility.yul\":10165:10213   */\n      tag_242\n        /* \"#utility.yul\":10207:10211   */\n      0x1f\n        /* \"#utility.yul\":10199:10205   */\n      dup10\n        /* \"#utility.yul\":10195:10212   */\n      and\n        /* \"#utility.yul\":10184:10193   */\n      dup3\n        /* \"#utility.yul\":10165:10213   */\n      tag_112\n      jump\t// in\n    tag_242:\n        /* \"#utility.yul\":10157:10163   */\n      dup4\n        /* \"#utility.yul\":10150:10214   */\n      sstore\n        /* \"#utility.yul\":10072:10228   */\n      pop\n        /* \"#utility.yul\":10049:10228   */\n    tag_241:\n        /* \"#utility.yul\":10274:10275   */\n      0x01\n        /* \"#utility.yul\":10270:10271   */\n      0x02\n        /* \"#utility.yul\":10262:10268   */\n      dup9\n        /* \"#utility.yul\":10258:10272   */\n      mul\n        /* \"#utility.yul\":10254:10276   */\n      add\n        /* \"#utility.yul\":10248:10252   */\n      dup9\n        /* \"#utility.yul\":10241:10277   */\n      sstore\n        /* \"#utility.yul\":9677:10287   */\n      pop\n      pop\n      pop\n        /* \"#utility.yul\":9640:10526   */\n    tag_233:\n      pop\n        /* \"#utility.yul\":9232:10532   */\n      pop\n      pop\n      pop\n        /* \"#utility.yul\":9142:10532   */\n      pop\n      pop\n      jump\t// out\n        /* \"#utility.yul\":10538:10707   */\n    tag_114:\n        /* \"#utility.yul\":10622:10633   */\n      0x00\n        /* \"#utility.yul\":10656:10662   */\n      dup3\n        /* \"#utility.yul\":10651:10654   */\n      dup3\n        /* \"#utility.yul\":10644:10663   */\n      mstore\n        /* \"#utility.yul\":10696:10700   */\n      0x20\n        /* \"#utility.yul\":10691:10694   */\n      dup3\n        /* \"#utility.yul\":10687:10701   */\n      add\n        /* \"#utility.yul\":10672:10701   */\n      swap1\n      pop\n        /* \"#utility.yul\":10538:10707   */\n      swap3\n      swap2\n      pop\n      pop\n      jump\t// out\n        /* \"#utility.yul\":10713:10885   */\n    tag_115:\n        /* \"#utility.yul\":10853:10877   */\n      0x45787465726e616c2063616c6c20726576657274656400000000000000000000\n        /* \"#utility.yul\":10849:10850   */\n      0x00\n        /* \"#utility.yul\":10841:10847   */\n      dup3\n        /* \"#utility.yul\":10837:10851   */\n      add\n        /* \"#utility.yul\":10830:10878   */\n      mstore\n        /* \"#utility.yul\":10713:10885   */\n      pop\n      jump\t// out\n        /* \"#utility.yul\":10891:11257   */\n    tag_116:\n        /* \"#utility.yul\":11033:11036   */\n      0x00\n        /* \"#utility.yul\":11054:11121   */\n      tag_246\n        /* \"#utility.yul\":11118:11120   */\n      0x16\n        /* \"#utility.yul\":11113:11116   */\n      dup4\n        /* \"#utility.yul\":11054:11121   */\n      tag_114\n      jump\t// in\n    tag_246:\n        /* \"#utility.yul\":11047:11121   */\n      swap2\n      pop\n        /* \"#utility.yul\":11130:11223   */\n      tag_247\n        /* \"#utility.yul\":11219:11222   */\n      dup3\n        /* \"#utility.yul\":11130:11223   */\n      tag_115\n      jump\t// in\n    tag_247:\n        /* \"#utility.yul\":11248:11250   */\n      0x20\n        /* \"#utility.yul\":11243:11246   */\n      dup3\n        /* \"#utility.yul\":11239:11251   */\n      add\n        /* \"#utility.yul\":11232:11251   */\n      swap1\n      pop\n        /* \"#utility.yul\":10891:11257   */\n      swap2\n      swap1\n      pop\n      jump\t// out\n        /* \"#utility.yul\":11263:11682   */\n    tag_54:\n        /* \"#utility.yul\":11429:11433   */\n      0x00\n        /* \"#utility.yul\":11467:11469   */\n      0x20\n        /* \"#utility.yul\":11456:11465   */\n      dup3\n        /* \"#utility.yul\":11452:11470   */\n      add\n        /* \"#utility.yul\":11444:11470   */\n      swap1\n      pop\n        /* \"#utility.yul\":11516:11525   */\n      dup2\n        /* \"#utility.yul\":11510:11514   */\n      dup2\n        /* \"#utility.yul\":11506:11526   */\n      sub\n        /* \"#utility.yul\":11502:11503   */\n      0x00\n        /* \"#utility.yul\":11491:11500   */\n      dup4\n        /* \"#utility.yul\":11487:11504   */\n      add\n        /* \"#utility.yul\":11480:11527   */\n      mstore\n        /* \"#utility.yul\":11544:11675   */\n      tag_249\n        /* \"#utility.yul\":11670:11674   */\n      dup2\n        /* \"#utility.yul\":11544:11675   */\n      tag_116\n      jump\t// in\n    tag_249:\n        /* \"#utility.yul\":11536:11675   */\n      swap1\n      pop\n        /* \"#utility.yul\":11263:11682   */\n      swap2\n      swap1\n      pop\n      jump\t// out\n        /* \"#utility.yul\":11688:11802   */\n    tag_117:\n      pop\n      jump\t// out\n        /* \"#utility.yul\":11808:12206   */\n    tag_118:\n        /* \"#utility.yul\":11967:11970   */\n      0x00\n        /* \"#utility.yul\":11988:12071   */\n      tag_252\n        /* \"#utility.yul\":12069:12070   */\n      0x00\n        /* \"#utility.yul\":12064:12067   */\n      dup4\n        /* \"#utility.yul\":11988:12071   */\n      tag_96\n      jump\t// in\n    tag_252:\n        /* \"#utility.yul\":11981:12071   */\n      swap2\n      pop\n        /* \"#utility.yul\":12080:12173   */\n      tag_253\n        /* \"#utility.yul\":12169:12172   */\n      dup3\n        /* \"#utility.yul\":12080:12173   */\n      tag_117\n      jump\t// in\n    tag_253:\n        /* \"#utility.yul\":12198:12199   */\n      0x00\n        /* \"#utility.yul\":12193:12196   */\n      dup3\n        /* \"#utility.yul\":12189:12200   */\n      add\n        /* \"#utility.yul\":12182:12200   */\n      swap1\n      pop\n        /* \"#utility.yul\":11808:12206   */\n      swap2\n      swap1\n      pop\n      jump\t// out\n        /* \"#utility.yul\":12212:12591   */\n    tag_57:\n        /* \"#utility.yul\":12396:12399   */\n      0x00\n        /* \"#utility.yul\":12418:12565   */\n      tag_255\n        /* \"#utility.yul\":12561:12564   */\n      dup3\n        /* \"#utility.yul\":12418:12565   */\n      tag_118\n      jump\t// in\n    tag_255:\n        /* \"#utility.yul\":12411:12565   */\n      swap2\n      pop\n        /* \"#utility.yul\":12582:12585   */\n      dup2\n        /* \"#utility.yul\":12575:12585   */\n      swap1\n      pop\n        /* \"#utility.yul\":12212:12591   */\n      swap2\n      swap1\n      pop\n      jump\t// out\n        /* \"#utility.yul\":12597:12766   */\n    tag_119:\n        /* \"#utility.yul\":12737:12758   */\n      0x455448207472616e73666572206661696c656400000000000000000000000000\n        /* \"#utility.yul\":12733:12734   */\n      0x00\n        /* \"#utility.yul\":12725:12731   */\n      dup3\n        /* \"#utility.yul\":12721:12735   */\n      add\n        /* \"#utility.yul\":12714:12759   */\n      mstore\n        /* \"#utility.yul\":12597:12766   */\n      pop\n      jump\t// out\n        /* \"#utility.yul\":12772:13138   */\n    tag_120:\n        /* \"#utility.yul\":12914:12917   */\n      0x00\n        /* \"#utility.yul\":12935:13002   */\n      tag_258\n        /* \"#utility.yul\":12999:13001   */\n      0x13\n        /* \"#utility.yul\":12994:12997   */\n      dup4\n        /* \"#utility.yul\":12935:13002   */\n      tag_114\n      jump\t// in\n    tag_258:\n        /* \"#utility.yul\":12928:13002   */\n      swap2\n      pop\n        /* \"#utility.yul\":13011:13104   */\n      tag_259\n        /* \"#utility.yul\":13100:13103   */\n      dup3\n        /* \"#utility.yul\":13011:13104   */\n      tag_119\n      jump\t// in\n    tag_259:\n        /* \"#utility.yul\":13129:13131   */\n      0x20\n        /* \"#utility.yul\":13124:13127   */\n      dup3\n        /* \"#utility.yul\":13120:13132   */\n      add\n        /* \"#utility.yul\":13113:13132   */\n      swap1\n      pop\n        /* \"#utility.yul\":12772:13138   */\n      swap2\n      swap1\n      pop\n      jump\t// out\n        /* \"#utility.yul\":13144:13563   */\n    tag_64:\n        /* \"#utility.yul\":13310:13314   */\n      0x00\n        /* \"#utility.yul\":13348:13350   */\n      0x20\n        /* \"#utility.yul\":13337:13346   */\n      dup3\n        /* \"#utility.yul\":13333:13351   */\n      add\n        /* \"#utility.yul\":13325:13351   */\n      swap1\n      pop\n        /* \"#utility.yul\":13397:13406   */\n      dup2\n        /* \"#utility.yul\":13391:13395   */\n      dup2\n        /* \"#utility.yul\":13387:13407   */\n      sub\n        /* \"#utility.yul\":13383:13384   */\n      0x00\n        /* \"#utility.yul\":13372:13381   */\n      dup4\n        /* \"#utility.yul\":13368:13385   */\n      add\n        /* \"#utility.yul\":13361:13408   */\n      mstore\n        /* \"#utility.yul\":13425:13556   */\n      tag_261\n        /* \"#utility.yul\":13551:13555   */\n      dup2\n        /* \"#utility.yul\":13425:13556   */\n      tag_120\n      jump\t// in\n    tag_261:\n        /* \"#utility.yul\":13417:13556   */\n      swap1\n      pop\n        /* \"#utility.yul\":13144:13563   */\n      swap2\n      swap1\n      pop\n      jump\t// out\n        /* \"#utility.yul\":13569:13748   */\n    tag_121:\n        /* \"#utility.yul\":13709:13740   */\n      0x45787465726e616c2066756e6374696f6e2063616c6c206661696c6564000000\n        /* \"#utility.yul\":13705:13706   */\n      0x00\n        /* \"#utility.yul\":13697:13703   */\n      dup3\n        /* \"#utility.yul\":13693:13707   */\n      add\n        /* \"#utility.yul\":13686:13741   */\n      mstore\n        /* \"#utility.yul\":13569:13748   */\n      pop\n      jump\t// out\n        /* \"#utility.yul\":13754:14120   */\n    tag_122:\n        /* \"#utility.yul\":13896:13899   */\n      0x00\n        /* \"#utility.yul\":13917:13984   */\n      tag_264\n        /* \"#utility.yul\":13981:13983   */\n      0x1d\n        /* \"#utility.yul\":13976:13979   */\n      dup4\n        /* \"#utility.yul\":13917:13984   */\n      tag_114\n      jump\t// in\n    tag_264:\n        /* \"#utility.yul\":13910:13984   */\n      swap2\n      pop\n        /* \"#utility.yul\":13993:14086   */\n      tag_265\n        /* \"#utility.yul\":14082:14085   */\n      dup3\n        /* \"#utility.yul\":13993:14086   */\n      tag_121\n      jump\t// in\n    tag_265:\n        /* \"#utility.yul\":14111:14113   */\n      0x20\n        /* \"#utility.yul\":14106:14109   */\n      dup3\n        /* \"#utility.yul\":14102:14114   */\n      add\n        /* \"#utility.yul\":14095:14114   */\n      swap1\n      pop\n        /* \"#utility.yul\":13754:14120   */\n      swap2\n      swap1\n      pop\n      jump\t// out\n        /* \"#utility.yul\":14126:14545   */\n    tag_74:\n        /* \"#utility.yul\":14292:14296   */\n      0x00\n        /* \"#utility.yul\":14330:14332   */\n      0x20\n        /* \"#utility.yul\":14319:14328   */\n      dup3\n        /* \"#utility.yul\":14315:14333   */\n      add\n        /* \"#utility.yul\":14307:14333   */\n      swap1\n      pop\n        /* \"#utility.yul\":14379:14388   */\n      dup2\n        /* \"#utility.yul\":14373:14377   */\n      dup2\n        /* \"#utility.yul\":14369:14389   */\n      sub\n        /* \"#utility.yul\":14365:14366   */\n      0x00\n        /* \"#utility.yul\":14354:14363   */\n      dup4\n        /* \"#utility.yul\":14350:14367   */\n      add\n        /* \"#utility.yul\":14343:14390   */\n      mstore\n        /* \"#utility.yul\":14407:14538   */\n      tag_267\n        /* \"#utility.yul\":14533:14537   */\n      dup2\n        /* \"#utility.yul\":14407:14538   */\n      tag_122\n      jump\t// in\n    tag_267:\n        /* \"#utility.yul\":14399:14538   */\n      swap1\n      pop\n        /* \"#utility.yul\":14126:14545   */\n      swap2\n      swap1\n      pop\n      jump\t// out\n\n    auxdata: 0xa2646970667358221220baad239939bb92b3ad214e5181e60db21df42fe95586d437411f5584394d804164736f6c63430008220033\n}\n",
				"bytecode": {
					"linkReferences": {},
					"object": "6080604052348015600e575f5ffd5b50610d018061001c5f395ff3fe608060405260043610610053575f3560e01c80626e75ec146100575780632d6142a714610081578063540208ba146100a9578063816b9ae0146100c55780639415bc59146100ed578063c6a5080914610117575b5f5ffd5b348015610062575f5ffd5b5061006b610141565b604051610078919061060b565b60405180910390f35b34801561008c575f5ffd5b506100a760048036038101906100a29190610689565b6101cd565b005b6100c360048036038101906100be91906106ef565b61033d565b005b3480156100d0575f5ffd5b506100eb60048036038101906100e69190610689565b610414565b005b3480156100f8575f5ffd5b50610101610584565b60405161010e9190610734565b60405180910390f35b348015610122575f5ffd5b5061012b610595565b6040516101389190610765565b60405180910390f35b6001805461014e906107ab565b80601f016020809104026020016040519081016040528092919081815260200182805461017a906107ab565b80156101c55780601f1061019c576101008083540402835291602001916101c5565b820191905f5260205f20905b8154815290600101906020018083116101a857829003601f168201915b505050505081565b60025f8154809291906101df90610808565b91905055505f5f8273ffffffffffffffffffffffffffffffffffffffff166040516024016040516020818303038152906040527fca463e19000000000000000000000000000000000000000000000000000000007bffffffffffffffffffffffffffffffffffffffffffffffffffffffff19166020820180517bffffffffffffffffffffffffffffffffffffffffffffffffffffffff838183161783525050505060405161028d9190610889565b5f604051808303815f865af19150503d805f81146102c6576040519150601f19603f3d011682016040523d82523d5f602084013e6102cb565b606091505b5091509150815f5f6101000a81548160ff02191690831515021790555080600190816102f79190610a7d565b5081610338576040517f08c379a000000000000000000000000000000000000000000000000000000000815260040161032f90610ba6565b60405180910390fd5b505050565b5f5f8273ffffffffffffffffffffffffffffffffffffffff163460405161036390610be7565b5f6040518083038185875af1925050503d805f811461039d576040519150601f19603f3d011682016040523d82523d5f602084013e6103a2565b606091505b5091509150815f5f6101000a81548160ff02191690831515021790555080600190816103ce9190610a7d565b508161040f576040517f08c379a000000000000000000000000000000000000000000000000000000000815260040161040690610c45565b60405180910390fd5b505050565b60025f81548092919061042690610808565b91905055505f5f8273ffffffffffffffffffffffffffffffffffffffff166040516024016040516020818303038152906040527f671bd39d000000000000000000000000000000000000000000000000000000007bffffffffffffffffffffffffffffffffffffffffffffffffffffffff19166020820180517bffffffffffffffffffffffffffffffffffffffffffffffffffffffff83818316178352505050506040516104d49190610889565b5f604051808303815f865af19150503d805f811461050d576040519150601f19603f3d011682016040523d82523d5f602084013e610512565b606091505b5091509150815f5f6101000a81548160ff021916908315150217905550806001908161053e9190610a7d565b508161057f576040517f08c379a000000000000000000000000000000000000000000000000000000000815260040161057690610cad565b60405180910390fd5b505050565b5f5f9054906101000a900460ff1681565b60025481565b5f81519050919050565b5f82825260208201905092915050565b8281835e5f83830152505050565b5f601f19601f8301169050919050565b5f6105dd8261059b565b6105e781856105a5565b93506105f78185602086016105b5565b610600816105c3565b840191505092915050565b5f6020820190508181035f83015261062381846105d3565b905092915050565b5f5ffd5b5f73ffffffffffffffffffffffffffffffffffffffff82169050919050565b5f6106588261062f565b9050919050565b6106688161064e565b8114610672575f5ffd5b50565b5f813590506106838161065f565b92915050565b5f6020828403121561069e5761069d61062b565b5b5f6106ab84828501610675565b91505092915050565b5f6106be8261062f565b9050919050565b6106ce816106b4565b81146106d8575f5ffd5b50565b5f813590506106e9816106c5565b92915050565b5f602082840312156107045761070361062b565b5b5f610711848285016106db565b91505092915050565b5f8115159050919050565b61072e8161071a565b82525050565b5f6020820190506107475f830184610725565b92915050565b5f819050919050565b61075f8161074d565b82525050565b5f6020820190506107785f830184610756565b92915050565b7f4e487b71000000000000000000000000000000000000000000000000000000005f52602260045260245ffd5b5f60028204905060018216806107c257607f821691505b6020821081036107d5576107d461077e565b5b50919050565b7f4e487b71000000000000000000000000000000000000000000000000000000005f52601160045260245ffd5b5f6108128261074d565b91507fffffffffffffffffffffffffffffffffffffffffffffffffffffffffffffffff8203610844576108436107db565b5b600182019050919050565b5f81905092915050565b5f6108638261059b565b61086d818561084f565b935061087d8185602086016105b5565b80840191505092915050565b5f6108948284610859565b915081905092915050565b7f4e487b71000000000000000000000000000000000000000000000000000000005f52604160045260245ffd5b5f819050815f5260205f209050919050565b5f6020601f8301049050919050565b5f82821b905092915050565b5f600883026109287fffffffffffffffffffffffffffffffffffffffffffffffffffffffffffffffff826108ed565b61093286836108ed565b95508019841693508086168417925050509392505050565b5f819050919050565b5f61096d6109686109638461074d565b61094a565b61074d565b9050919050565b5f819050919050565b61098683610953565b61099a61099282610974565b8484546108f9565b825550505050565b5f5f905090565b6109b16109a2565b6109bc81848461097d565b505050565b5f5b828110156109e2576109d75f8284016109a9565b6001810190506109c3565b505050565b601f821115610a355782821115610a3457610a01816108cc565b610a0a836108de565b610a13856108de565b6020861015610a20575f90505b808301610a2f828403826109c1565b505050505b5b505050565b5f82821c905092915050565b5f610a555f1984600802610a3a565b1980831691505092915050565b5f610a6d8383610a46565b9150826002028217905092915050565b610a868261059b565b67ffffffffffffffff811115610a9f57610a9e61089f565b5b610aa982546107ab565b610ab48282856109e7565b5f60209050601f831160018114610ae5575f8415610ad3578287015190505b610add8582610a62565b865550610b44565b601f198416610af3866108cc565b5f5b82811015610b1a57848901518255600182019150602085019450602081019050610af5565b86831015610b375784890151610b33601f891682610a46565b8355505b6001600288020188555050505b505050505050565b5f82825260208201905092915050565b7f45787465726e616c2063616c6c207265766572746564000000000000000000005f82015250565b5f610b90601683610b4c565b9150610b9b82610b5c565b602082019050919050565b5f6020820190508181035f830152610bbd81610b84565b9050919050565b50565b5f610bd25f8361084f565b9150610bdd82610bc4565b5f82019050919050565b5f610bf182610bc7565b9150819050919050565b7f455448207472616e73666572206661696c6564000000000000000000000000005f82015250565b5f610c2f601383610b4c565b9150610c3a82610bfb565b602082019050919050565b5f6020820190508181035f830152610c5c81610c23565b9050919050565b7f45787465726e616c2066756e6374696f6e2063616c6c206661696c65640000005f82015250565b5f610c97601d83610b4c565b9150610ca282610c63565b602082019050919050565b5f6020820190508181035f830152610cc481610c8b565b905091905056fea2646970667358221220baad239939bb92b3ad214e5181e60db21df42fe95586d437411f5584394d804164736f6c63430008220033",
					"opcodes": "PUSH1 0x80 PUSH1 0x40 MSTORE CALLVALUE DUP1 ISZERO PUSH1 0xE JUMPI PUSH0 PUSH0 REVERT JUMPDEST POP PUSH2 0xD01 DUP1 PUSH2 0x1C PUSH0 CODECOPY PUSH0 RETURN INVALID PUSH1 0x80 PUSH1 0x40 MSTORE PUSH1 0x4 CALLDATASIZE LT PUSH2 0x53 JUMPI PUSH0 CALLDATALOAD PUSH1 0xE0 SHR DUP1 PUSH3 0x6E75EC EQ PUSH2 0x57 JUMPI DUP1 PUSH4 0x2D6142A7 EQ PUSH2 0x81 JUMPI DUP1 PUSH4 0x540208BA EQ PUSH2 0xA9 JUMPI DUP1 PUSH4 0x816B9AE0 EQ PUSH2 0xC5 JUMPI DUP1 PUSH4 0x9415BC59 EQ PUSH2 0xED JUMPI DUP1 PUSH4 0xC6A50809 EQ PUSH2 0x117 JUMPI JUMPDEST PUSH0 PUSH0 REVERT JUMPDEST CALLVALUE DUP1 ISZERO PUSH2 0x62 JUMPI PUSH0 PUSH0 REVERT JUMPDEST POP PUSH2 0x6B PUSH2 0x141 JUMP JUMPDEST PUSH1 0x40 MLOAD PUSH2 0x78 SWAP2 SWAP1 PUSH2 0x60B JUMP JUMPDEST PUSH1 0x40 MLOAD DUP1 SWAP2 SUB SWAP1 RETURN JUMPDEST CALLVALUE DUP1 ISZERO PUSH2 0x8C JUMPI PUSH0 PUSH0 REVERT JUMPDEST POP PUSH2 0xA7 PUSH1 0x4 DUP1 CALLDATASIZE SUB DUP2 ADD SWAP1 PUSH2 0xA2 SWAP2 SWAP1 PUSH2 0x689 JUMP JUMPDEST PUSH2 0x1CD JUMP JUMPDEST STOP JUMPDEST PUSH2 0xC3 PUSH1 0x4 DUP1 CALLDATASIZE SUB DUP2 ADD SWAP1 PUSH2 0xBE SWAP2 SWAP1 PUSH2 0x6EF JUMP JUMPDEST PUSH2 0x33D JUMP JUMPDEST STOP JUMPDEST CALLVALUE DUP1 ISZERO PUSH2 0xD0 JUMPI PUSH0 PUSH0 REVERT JUMPDEST POP PUSH2 0xEB PUSH1 0x4 DUP1 CALLDATASIZE SUB DUP2 ADD SWAP1 PUSH2 0xE6 SWAP2 SWAP1 PUSH2 0x689 JUMP JUMPDEST PUSH2 0x414 JUMP JUMPDEST STOP JUMPDEST CALLVALUE DUP1 ISZERO PUSH2 0xF8 JUMPI PUSH0 PUSH0 REVERT JUMPDEST POP PUSH2 0x101 PUSH2 0x584 JUMP JUMPDEST PUSH1 0x40 MLOAD PUSH2 0x10E SWAP2 SWAP1 PUSH2 0x734 JUMP JUMPDEST PUSH1 0x40 MLOAD DUP1 SWAP2 SUB SWAP1 RETURN JUMPDEST CALLVALUE DUP1 ISZERO PUSH2 0x122 JUMPI PUSH0 PUSH0 REVERT JUMPDEST POP PUSH2 0x12B PUSH2 0x595 JUMP JUMPDEST PUSH1 0x40 MLOAD PUSH2 0x138 SWAP2 SWAP1 PUSH2 0x765 JUMP JUMPDEST PUSH1 0x40 MLOAD DUP1 SWAP2 SUB SWAP1 RETURN JUMPDEST PUSH1 0x1 DUP1 SLOAD PUSH2 0x14E SWAP1 PUSH2 0x7AB JUMP JUMPDEST DUP1 PUSH1 0x1F ADD PUSH1 0x20 DUP1 SWAP2 DIV MUL PUSH1 0x20 ADD PUSH1 0x40 MLOAD SWAP1 DUP2 ADD PUSH1 0x40 MSTORE DUP1 SWAP3 SWAP2 SWAP1 DUP2 DUP2 MSTORE PUSH1 0x20 ADD DUP3 DUP1 SLOAD PUSH2 0x17A SWAP1 PUSH2 0x7AB JUMP JUMPDEST DUP1 ISZERO PUSH2 0x1C5 JUMPI DUP1 PUSH1 0x1F LT PUSH2 0x19C JUMPI PUSH2 0x100 DUP1 DUP4 SLOAD DIV MUL DUP4 MSTORE SWAP2 PUSH1 0x20 ADD SWAP2 PUSH2 0x1C5 JUMP JUMPDEST DUP3 ADD SWAP2 SWAP1 PUSH0 MSTORE PUSH1 0x20 PUSH0 KECCAK256 SWAP1 JUMPDEST DUP2 SLOAD DUP2 MSTORE SWAP1 PUSH1 0x1 ADD SWAP1 PUSH1 0x20 ADD DUP1 DUP4 GT PUSH2 0x1A8 JUMPI DUP3 SWAP1 SUB PUSH1 0x1F AND DUP3 ADD SWAP2 JUMPDEST POP POP POP POP POP DUP2 JUMP JUMPDEST PUSH1 0x2 PUSH0 DUP2 SLOAD DUP1 SWAP3 SWAP2 SWAP1 PUSH2 0x1DF SWAP1 PUSH2 0x808 JUMP JUMPDEST SWAP2 SWAP1 POP SSTORE POP PUSH0 PUSH0 DUP3 PUSH20 0xFFFFFFFFFFFFFFFFFFFFFFFFFFFFFFFFFFFFFFFF AND PUSH1 0x40 MLOAD PUSH1 0x24 ADD PUSH1 0x40 MLOAD PUSH1 0x20 DUP2 DUP4 SUB SUB DUP2 MSTORE SWAP1 PUSH1 0x40 MSTORE PUSH32 0xCA463E1900000000000000000000000000000000000000000000000000000000 PUSH28 0xFFFFFFFFFFFFFFFFFFFFFFFFFFFFFFFFFFFFFFFFFFFFFFFFFFFFFFFF NOT AND PUSH1 0x20 DUP3 ADD DUP1 MLOAD PUSH28 0xFFFFFFFFFFFFFFFFFFFFFFFFFFFFFFFFFFFFFFFFFFFFFFFFFFFFFFFF DUP4 DUP2 DUP4 AND OR DUP4 MSTORE POP POP POP POP PUSH1 0x40 MLOAD PUSH2 0x28D SWAP2 SWAP1 PUSH2 0x889 JUMP JUMPDEST PUSH0 PUSH1 0x40 MLOAD DUP1 DUP4 SUB DUP2 PUSH0 DUP7 GAS CALL SWAP2 POP POP RETURNDATASIZE DUP1 PUSH0 DUP2 EQ PUSH2 0x2C6 JUMPI PUSH1 0x40 MLOAD SWAP2 POP PUSH1 0x1F NOT PUSH1 0x3F RETURNDATASIZE ADD AND DUP3 ADD PUSH1 0x40 MSTORE RETURNDATASIZE DUP3 MSTORE RETURNDATASIZE PUSH0 PUSH1 0x20 DUP5 ADD RETURNDATACOPY PUSH2 0x2CB JUMP JUMPDEST PUSH1 0x60 SWAP2 POP JUMPDEST POP SWAP2 POP SWAP2 POP DUP2 PUSH0 PUSH0 PUSH2 0x100 EXP DUP2 SLOAD DUP2 PUSH1 0xFF MUL NOT AND SWAP1 DUP4 ISZERO ISZERO MUL OR SWAP1 SSTORE POP DUP1 PUSH1 0x1 SWAP1 DUP2 PUSH2 0x2F7 SWAP2 SWAP1 PUSH2 0xA7D JUMP JUMPDEST POP DUP2 PUSH2 0x338 JUMPI PUSH1 0x40 MLOAD PUSH32 0x8C379A000000000000000000000000000000000000000000000000000000000 DUP2 MSTORE PUSH1 0x4 ADD PUSH2 0x32F SWAP1 PUSH2 0xBA6 JUMP JUMPDEST PUSH1 0x40 MLOAD DUP1 SWAP2 SUB SWAP1 REVERT JUMPDEST POP POP POP JUMP JUMPDEST PUSH0 PUSH0 DUP3 PUSH20 0xFFFFFFFFFFFFFFFFFFFFFFFFFFFFFFFFFFFFFFFF AND CALLVALUE PUSH1 0x40 MLOAD PUSH2 0x363 SWAP1 PUSH2 0xBE7 JUMP JUMPDEST PUSH0 PUSH1 0x40 MLOAD DUP1 DUP4 SUB DUP2 DUP6 DUP8 GAS CALL SWAP3 POP POP POP RETURNDATASIZE DUP1 PUSH0 DUP2 EQ PUSH2 0x39D JUMPI PUSH1 0x40 MLOAD SWAP2 POP PUSH1 0x1F NOT PUSH1 0x3F RETURNDATASIZE ADD AND DUP3 ADD PUSH1 0x40 MSTORE RETURNDATASIZE DUP3 MSTORE RETURNDATASIZE PUSH0 PUSH1 0x20 DUP5 ADD RETURNDATACOPY PUSH2 0x3A2 JUMP JUMPDEST PUSH1 0x60 SWAP2 POP JUMPDEST POP SWAP2 POP SWAP2 POP DUP2 PUSH0 PUSH0 PUSH2 0x100 EXP DUP2 SLOAD DUP2 PUSH1 0xFF MUL NOT AND SWAP1 DUP4 ISZERO ISZERO MUL OR SWAP1 SSTORE POP DUP1 PUSH1 0x1 SWAP1 DUP2 PUSH2 0x3CE SWAP2 SWAP1 PUSH2 0xA7D JUMP JUMPDEST POP DUP2 PUSH2 0x40F JUMPI PUSH1 0x40 MLOAD PUSH32 0x8C379A000000000000000000000000000000000000000000000000000000000 DUP2 MSTORE PUSH1 0x4 ADD PUSH2 0x406 SWAP1 PUSH2 0xC45 JUMP JUMPDEST PUSH1 0x40 MLOAD DUP1 SWAP2 SUB SWAP1 REVERT JUMPDEST POP POP POP JUMP JUMPDEST PUSH1 0x2 PUSH0 DUP2 SLOAD DUP1 SWAP3 SWAP2 SWAP1 PUSH2 0x426 SWAP1 PUSH2 0x808 JUMP JUMPDEST SWAP2 SWAP1 POP SSTORE POP PUSH0 PUSH0 DUP3 PUSH20 0xFFFFFFFFFFFFFFFFFFFFFFFFFFFFFFFFFFFFFFFF AND PUSH1 0x40 MLOAD PUSH1 0x24 ADD PUSH1 0x40 MLOAD PUSH1 0x20 DUP2 DUP4 SUB SUB DUP2 MSTORE SWAP1 PUSH1 0x40 MSTORE PUSH32 0x671BD39D00000000000000000000000000000000000000000000000000000000 PUSH28 0xFFFFFFFFFFFFFFFFFFFFFFFFFFFFFFFFFFFFFFFFFFFFFFFFFFFFFFFF NOT AND PUSH1 0x20 DUP3 ADD DUP1 MLOAD PUSH28 0xFFFFFFFFFFFFFFFFFFFFFFFFFFFFFFFFFFFFFFFFFFFFFFFFFFFFFFFF DUP4 DUP2 DUP4 AND OR DUP4 MSTORE POP POP POP POP PUSH1 0x40 MLOAD PUSH2 0x4D4 SWAP2 SWAP1 PUSH2 0x889 JUMP JUMPDEST PUSH0 PUSH1 0x40 MLOAD DUP1 DUP4 SUB DUP2 PUSH0 DUP7 GAS CALL SWAP2 POP POP RETURNDATASIZE DUP1 PUSH0 DUP2 EQ PUSH2 0x50D JUMPI PUSH1 0x40 MLOAD SWAP2 POP PUSH1 0x1F NOT PUSH1 0x3F RETURNDATASIZE ADD AND DUP3 ADD PUSH1 0x40 MSTORE RETURNDATASIZE DUP3 MSTORE RETURNDATASIZE PUSH0 PUSH1 0x20 DUP5 ADD RETURNDATACOPY PUSH2 0x512 JUMP JUMPDEST PUSH1 0x60 SWAP2 POP JUMPDEST POP SWAP2 POP SWAP2 POP DUP2 PUSH0 PUSH0 PUSH2 0x100 EXP DUP2 SLOAD DUP2 PUSH1 0xFF MUL NOT AND SWAP1 DUP4 ISZERO ISZERO MUL OR SWAP1 SSTORE POP DUP1 PUSH1 0x1 SWAP1 DUP2 PUSH2 0x53E SWAP2 SWAP1 PUSH2 0xA7D JUMP JUMPDEST POP DUP2 PUSH2 0x57F JUMPI PUSH1 0x40 MLOAD PUSH32 0x8C379A000000000000000000000000000000000000000000000000000000000 DUP2 MSTORE PUSH1 0x4 ADD PUSH2 0x576 SWAP1 PUSH2 0xCAD JUMP JUMPDEST PUSH1 0x40 MLOAD DUP1 SWAP2 SUB SWAP1 REVERT JUMPDEST POP POP POP JUMP JUMPDEST PUSH0 PUSH0 SWAP1 SLOAD SWAP1 PUSH2 0x100 EXP SWAP1 DIV PUSH1 0xFF AND DUP2 JUMP JUMPDEST PUSH1 0x2 SLOAD DUP2 JUMP JUMPDEST PUSH0 DUP2 MLOAD SWAP1 POP SWAP2 SWAP1 POP JUMP JUMPDEST PUSH0 DUP3 DUP3 MSTORE PUSH1 0x20 DUP3 ADD SWAP1 POP SWAP3 SWAP2 POP POP JUMP JUMPDEST DUP3 DUP2 DUP4 MCOPY PUSH0 DUP4 DUP4 ADD MSTORE POP POP POP JUMP JUMPDEST PUSH0 PUSH1 0x1F NOT PUSH1 0x1F DUP4 ADD AND SWAP1 POP SWAP2 SWAP1 POP JUMP JUMPDEST PUSH0 PUSH2 0x5DD DUP3 PUSH2 0x59B JUMP JUMPDEST PUSH2 0x5E7 DUP2 DUP6 PUSH2 0x5A5 JUMP JUMPDEST SWAP4 POP PUSH2 0x5F7 DUP2 DUP6 PUSH1 0x20 DUP7 ADD PUSH2 0x5B5 JUMP JUMPDEST PUSH2 0x600 DUP2 PUSH2 0x5C3 JUMP JUMPDEST DUP5 ADD SWAP2 POP POP SWAP3 SWAP2 POP POP JUMP JUMPDEST PUSH0 PUSH1 0x20 DUP3 ADD SWAP1 POP DUP2 DUP2 SUB PUSH0 DUP4 ADD MSTORE PUSH2 0x623 DUP2 DUP5 PUSH2 0x5D3 JUMP JUMPDEST SWAP1 POP SWAP3 SWAP2 POP POP JUMP JUMPDEST PUSH0 PUSH0 REVERT JUMPDEST PUSH0 PUSH20 0xFFFFFFFFFFFFFFFFFFFFFFFFFFFFFFFFFFFFFFFF DUP3 AND SWAP1 POP SWAP2 SWAP1 POP JUMP JUMPDEST PUSH0 PUSH2 0x658 DUP3 PUSH2 0x62F JUMP JUMPDEST SWAP1 POP SWAP2 SWAP1 POP JUMP JUMPDEST PUSH2 0x668 DUP2 PUSH2 0x64E JUMP JUMPDEST DUP2 EQ PUSH2 0x672 JUMPI PUSH0 PUSH0 REVERT JUMPDEST POP JUMP JUMPDEST PUSH0 DUP2 CALLDATALOAD SWAP1 POP PUSH2 0x683 DUP2 PUSH2 0x65F JUMP JUMPDEST SWAP3 SWAP2 POP POP JUMP JUMPDEST PUSH0 PUSH1 0x20 DUP3 DUP5 SUB SLT ISZERO PUSH2 0x69E JUMPI PUSH2 0x69D PUSH2 0x62B JUMP JUMPDEST JUMPDEST PUSH0 PUSH2 0x6AB DUP5 DUP3 DUP6 ADD PUSH2 0x675 JUMP JUMPDEST SWAP2 POP POP SWAP3 SWAP2 POP POP JUMP JUMPDEST PUSH0 PUSH2 0x6BE DUP3 PUSH2 0x62F JUMP JUMPDEST SWAP1 POP SWAP2 SWAP1 POP JUMP JUMPDEST PUSH2 0x6CE DUP2 PUSH2 0x6B4 JUMP JUMPDEST DUP2 EQ PUSH2 0x6D8 JUMPI PUSH0 PUSH0 REVERT JUMPDEST POP JUMP JUMPDEST PUSH0 DUP2 CALLDATALOAD SWAP1 POP PUSH2 0x6E9 DUP2 PUSH2 0x6C5 JUMP JUMPDEST SWAP3 SWAP2 POP POP JUMP JUMPDEST PUSH0 PUSH1 0x20 DUP3 DUP5 SUB SLT ISZERO PUSH2 0x704 JUMPI PUSH2 0x703 PUSH2 0x62B JUMP JUMPDEST JUMPDEST PUSH0 PUSH2 0x711 DUP5 DUP3 DUP6 ADD PUSH2 0x6DB JUMP JUMPDEST SWAP2 POP POP SWAP3 SWAP2 POP POP JUMP JUMPDEST PUSH0 DUP2 ISZERO ISZERO SWAP1 POP SWAP2 SWAP1 POP JUMP JUMPDEST PUSH2 0x72E DUP2 PUSH2 0x71A JUMP JUMPDEST DUP3 MSTORE POP POP JUMP JUMPDEST PUSH0 PUSH1 0x20 DUP3 ADD SWAP1 POP PUSH2 0x747 PUSH0 DUP4 ADD DUP5 PUSH2 0x725 JUMP JUMPDEST SWAP3 SWAP2 POP POP JUMP JUMPDEST PUSH0 DUP2 SWAP1 POP SWAP2 SWAP1 POP JUMP JUMPDEST PUSH2 0x75F DUP2 PUSH2 0x74D JUMP JUMPDEST DUP3 MSTORE POP POP JUMP JUMPDEST PUSH0 PUSH1 0x20 DUP3 ADD SWAP1 POP PUSH2 0x778 PUSH0 DUP4 ADD DUP5 PUSH2 0x756 JUMP JUMPDEST SWAP3 SWAP2 POP POP JUMP JUMPDEST PUSH32 0x4E487B7100000000000000000000000000000000000000000000000000000000 PUSH0 MSTORE PUSH1 0x22 PUSH1 0x4 MSTORE PUSH1 0x24 PUSH0 REVERT JUMPDEST PUSH0 PUSH1 0x2 DUP3 DIV SWAP1 POP PUSH1 0x1 DUP3 AND DUP1 PUSH2 0x7C2 JUMPI PUSH1 0x7F DUP3 AND SWAP2 POP JUMPDEST PUSH1 0x20 DUP3 LT DUP2 SUB PUSH2 0x7D5 JUMPI PUSH2 0x7D4 PUSH2 0x77E JUMP JUMPDEST JUMPDEST POP SWAP2 SWAP1 POP JUMP JUMPDEST PUSH32 0x4E487B7100000000000000000000000000000000000000000000000000000000 PUSH0 MSTORE PUSH1 0x11 PUSH1 0x4 MSTORE PUSH1 0x24 PUSH0 REVERT JUMPDEST PUSH0 PUSH2 0x812 DUP3 PUSH2 0x74D JUMP JUMPDEST SWAP2 POP PUSH32 0xFFFFFFFFFFFFFFFFFFFFFFFFFFFFFFFFFFFFFFFFFFFFFFFFFFFFFFFFFFFFFFFF DUP3 SUB PUSH2 0x844 JUMPI PUSH2 0x843 PUSH2 0x7DB JUMP JUMPDEST JUMPDEST PUSH1 0x1 DUP3 ADD SWAP1 POP SWAP2 SWAP1 POP JUMP JUMPDEST PUSH0 DUP2 SWAP1 POP SWAP3 SWAP2 POP POP JUMP JUMPDEST PUSH0 PUSH2 0x863 DUP3 PUSH2 0x59B JUMP JUMPDEST PUSH2 0x86D DUP2 DUP6 PUSH2 0x84F JUMP JUMPDEST SWAP4 POP PUSH2 0x87D DUP2 DUP6 PUSH1 0x20 DUP7 ADD PUSH2 0x5B5 JUMP JUMPDEST DUP1 DUP5 ADD SWAP2 POP POP SWAP3 SWAP2 POP POP JUMP JUMPDEST PUSH0 PUSH2 0x894 DUP3 DUP5 PUSH2 0x859 JUMP JUMPDEST SWAP2 POP DUP2 SWAP1 POP SWAP3 SWAP2 POP POP JUMP JUMPDEST PUSH32 0x4E487B7100000000000000000000000000000000000000000000000000000000 PUSH0 MSTORE PUSH1 0x41 PUSH1 0x4 MSTORE PUSH1 0x24 PUSH0 REVERT JUMPDEST PUSH0 DUP2 SWAP1 POP DUP2 PUSH0 MSTORE PUSH1 0x20 PUSH0 KECCAK256 SWAP1 POP SWAP2 SWAP1 POP JUMP JUMPDEST PUSH0 PUSH1 0x20 PUSH1 0x1F DUP4 ADD DIV SWAP1 POP SWAP2 SWAP1 POP JUMP JUMPDEST PUSH0 DUP3 DUP3 SHL SWAP1 POP SWAP3 SWAP2 POP POP JUMP JUMPDEST PUSH0 PUSH1 0x8 DUP4 MUL PUSH2 0x928 PUSH32 0xFFFFFFFFFFFFFFFFFFFFFFFFFFFFFFFFFFFFFFFFFFFFFFFFFFFFFFFFFFFFFFFF DUP3 PUSH2 0x8ED JUMP JUMPDEST PUSH2 0x932 DUP7 DUP4 PUSH2 0x8ED JUMP JUMPDEST SWAP6 POP DUP1 NOT DUP5 AND SWAP4 POP DUP1 DUP7 AND DUP5 OR SWAP3 POP POP POP SWAP4 SWAP3 POP POP POP JUMP JUMPDEST PUSH0 DUP2 SWAP1 POP SWAP2 SWAP1 POP JUMP JUMPDEST PUSH0 PUSH2 0x96D PUSH2 0x968 PUSH2 0x963 DUP5 PUSH2 0x74D JUMP JUMPDEST PUSH2 0x94A JUMP JUMPDEST PUSH2 0x74D JUMP JUMPDEST SWAP1 POP SWAP2 SWAP1 POP JUMP JUMPDEST PUSH0 DUP2 SWAP1 POP SWAP2 SWAP1 POP JUMP JUMPDEST PUSH2 0x986 DUP4 PUSH2 0x953 JUMP JUMPDEST PUSH2 0x99A PUSH2 0x992 DUP3 PUSH2 0x974 JUMP JUMPDEST DUP5 DUP5 SLOAD PUSH2 0x8F9 JUMP JUMPDEST DUP3 SSTORE POP POP POP POP JUMP JUMPDEST PUSH0 PUSH0 SWAP1 POP SWAP1 JUMP JUMPDEST PUSH2 0x9B1 PUSH2 0x9A2 JUMP JUMPDEST PUSH2 0x9BC DUP2 DUP5 DUP5 PUSH2 0x97D JUMP JUMPDEST POP POP POP JUMP JUMPDEST PUSH0 JUMPDEST DUP3 DUP2 LT ISZERO PUSH2 0x9E2 JUMPI PUSH2 0x9D7 PUSH0 DUP3 DUP5 ADD PUSH2 0x9A9 JUMP JUMPDEST PUSH1 0x1 DUP2 ADD SWAP1 POP PUSH2 0x9C3 JUMP JUMPDEST POP POP POP JUMP JUMPDEST PUSH1 0x1F DUP3 GT ISZERO PUSH2 0xA35 JUMPI DUP3 DUP3 GT ISZERO PUSH2 0xA34 JUMPI PUSH2 0xA01 DUP2 PUSH2 0x8CC JUMP JUMPDEST PUSH2 0xA0A DUP4 PUSH2 0x8DE JUMP JUMPDEST PUSH2 0xA13 DUP6 PUSH2 0x8DE JUMP JUMPDEST PUSH1 0x20 DUP7 LT ISZERO PUSH2 0xA20 JUMPI PUSH0 SWAP1 POP JUMPDEST DUP1 DUP4 ADD PUSH2 0xA2F DUP3 DUP5 SUB DUP3 PUSH2 0x9C1 JUMP JUMPDEST POP POP POP POP JUMPDEST JUMPDEST POP POP POP JUMP JUMPDEST PUSH0 DUP3 DUP3 SHR SWAP1 POP SWAP3 SWAP2 POP POP JUMP JUMPDEST PUSH0 PUSH2 0xA55 PUSH0 NOT DUP5 PUSH1 0x8 MUL PUSH2 0xA3A JUMP JUMPDEST NOT DUP1 DUP4 AND SWAP2 POP POP SWAP3 SWAP2 POP POP JUMP JUMPDEST PUSH0 PUSH2 0xA6D DUP4 DUP4 PUSH2 0xA46 JUMP JUMPDEST SWAP2 POP DUP3 PUSH1 0x2 MUL DUP3 OR SWAP1 POP SWAP3 SWAP2 POP POP JUMP JUMPDEST PUSH2 0xA86 DUP3 PUSH2 0x59B JUMP JUMPDEST PUSH8 0xFFFFFFFFFFFFFFFF DUP2 GT ISZERO PUSH2 0xA9F JUMPI PUSH2 0xA9E PUSH2 0x89F JUMP JUMPDEST JUMPDEST PUSH2 0xAA9 DUP3 SLOAD PUSH2 0x7AB JUMP JUMPDEST PUSH2 0xAB4 DUP3 DUP3 DUP6 PUSH2 0x9E7 JUMP JUMPDEST PUSH0 PUSH1 0x20 SWAP1 POP PUSH1 0x1F DUP4 GT PUSH1 0x1 DUP2 EQ PUSH2 0xAE5 JUMPI PUSH0 DUP5 ISZERO PUSH2 0xAD3 JUMPI DUP3 DUP8 ADD MLOAD SWAP1 POP JUMPDEST PUSH2 0xADD DUP6 DUP3 PUSH2 0xA62 JUMP JUMPDEST DUP7 SSTORE POP PUSH2 0xB44 JUMP JUMPDEST PUSH1 0x1F NOT DUP5 AND PUSH2 0xAF3 DUP7 PUSH2 0x8CC JUMP JUMPDEST PUSH0 JUMPDEST DUP3 DUP2 LT ISZERO PUSH2 0xB1A JUMPI DUP5 DUP10 ADD MLOAD DUP3 SSTORE PUSH1 0x1 DUP3 ADD SWAP2 POP PUSH1 0x20 DUP6 ADD SWAP5 POP PUSH1 0x20 DUP2 ADD SWAP1 POP PUSH2 0xAF5 JUMP JUMPDEST DUP7 DUP4 LT ISZERO PUSH2 0xB37 JUMPI DUP5 DUP10 ADD MLOAD PUSH2 0xB33 PUSH1 0x1F DUP10 AND DUP3 PUSH2 0xA46 JUMP JUMPDEST DUP4 SSTORE POP JUMPDEST PUSH1 0x1 PUSH1 0x2 DUP9 MUL ADD DUP9 SSTORE POP POP POP JUMPDEST POP POP POP POP POP POP JUMP JUMPDEST PUSH0 DUP3 DUP3 MSTORE PUSH1 0x20 DUP3 ADD SWAP1 POP SWAP3 SWAP2 POP POP JUMP JUMPDEST PUSH32 0x45787465726E616C2063616C6C20726576657274656400000000000000000000 PUSH0 DUP3 ADD MSTORE POP JUMP JUMPDEST PUSH0 PUSH2 0xB90 PUSH1 0x16 DUP4 PUSH2 0xB4C JUMP JUMPDEST SWAP2 POP PUSH2 0xB9B DUP3 PUSH2 0xB5C JUMP JUMPDEST PUSH1 0x20 DUP3 ADD SWAP1 POP SWAP2 SWAP1 POP JUMP JUMPDEST PUSH0 PUSH1 0x20 DUP3 ADD SWAP1 POP DUP2 DUP2 SUB PUSH0 DUP4 ADD MSTORE PUSH2 0xBBD DUP2 PUSH2 0xB84 JUMP JUMPDEST SWAP1 POP SWAP2 SWAP1 POP JUMP JUMPDEST POP JUMP JUMPDEST PUSH0 PUSH2 0xBD2 PUSH0 DUP4 PUSH2 0x84F JUMP JUMPDEST SWAP2 POP PUSH2 0xBDD DUP3 PUSH2 0xBC4 JUMP JUMPDEST PUSH0 DUP3 ADD SWAP1 POP SWAP2 SWAP1 POP JUMP JUMPDEST PUSH0 PUSH2 0xBF1 DUP3 PUSH2 0xBC7 JUMP JUMPDEST SWAP2 POP DUP2 SWAP1 POP SWAP2 SWAP1 POP JUMP JUMPDEST PUSH32 0x455448207472616E73666572206661696C656400000000000000000000000000 PUSH0 DUP3 ADD MSTORE POP JUMP JUMPDEST PUSH0 PUSH2 0xC2F PUSH1 0x13 DUP4 PUSH2 0xB4C JUMP JUMPDEST SWAP2 POP PUSH2 0xC3A DUP3 PUSH2 0xBFB JUMP JUMPDEST PUSH1 0x20 DUP3 ADD SWAP1 POP SWAP2 SWAP1 POP JUMP JUMPDEST PUSH0 PUSH1 0x20 DUP3 ADD SWAP1 POP DUP2 DUP2 SUB PUSH0 DUP4 ADD MSTORE PUSH2 0xC5C DUP2 PUSH2 0xC23 JUMP JUMPDEST SWAP1 POP SWAP2 SWAP1 POP JUMP JUMPDEST PUSH32 0x45787465726E616C2066756E6374696F6E2063616C6C206661696C6564000000 PUSH0 DUP3 ADD MSTORE POP JUMP JUMPDEST PUSH0 PUSH2 0xC97 PUSH1 0x1D DUP4 PUSH2 0xB4C JUMP JUMPDEST SWAP2 POP PUSH2 0xCA2 DUP3 PUSH2 0xC63 JUMP JUMPDEST PUSH1 0x20 DUP3 ADD SWAP1 POP SWAP2 SWAP1 POP JUMP JUMPDEST PUSH0 PUSH1 0x20 DUP3 ADD SWAP1 POP DUP2 DUP2 SUB PUSH0 DUP4 ADD MSTORE PUSH2 0xCC4 DUP2 PUSH2 0xC8B JUMP JUMPDEST SWAP1 POP SWAP2 SWAP1 POP JUMP INVALID LOG2 PUSH5 0x6970667358 0x22 SLT KECCAK256 0xBA 0xAD 0x23 SWAP10 CODECOPY 0xBB SWAP3 0xB3 0xAD 0x21 0x4E MLOAD DUP2 DUPN 0xD 0xB2 SAR DELEGATECALL 0x2F 0xE9 SSTORE DUP7 0xD4 CALLDATACOPY COINBASE 0x1F SSTORE DUP5 CODECOPY 0x4D DUP1 COINBASE PUSH5 0x736F6C6343 STOP ADDMOD 0x22 STOP CALLER "
				},
				"gasEstimates": {
					"creation": {
						"codeDepositCost": "665800",
						"executionCost": "700",
						"totalCost": "666500"
					},
					"external": {
						"executionCounter()": "2513",
						"lastData()": "infinite",
						"lastSuccess()": "2531",
						"safeETHTransfer(address)": "infinite",
						"safeFailingCall(address)": "infinite",
						"safeFunctionCall(address)": "infinite"
					}
				},
				"methodIdentifiers": {
					"executionCounter()": "c6a50809",
					"lastData()": "006e75ec",
					"lastSuccess()": "9415bc59",
					"safeETHTransfer(address)": "540208ba",
					"safeFailingCall(address)": "2d6142a7",
					"safeFunctionCall(address)": "816b9ae0"
				}
			},
			"storageLayout": {
				"storage": [
					{
						"astId": 29,
						"contract": "prac61.sol:SafeCallHandler",
						"label": "lastSuccess",
						"offset": 0,
						"slot": "0",
						"type": "t_bool"
					},
					{
						"astId": 31,
						"contract": "prac61.sol:SafeCallHandler",
						"label": "lastData",
						"offset": 0,
						"slot": "1",
						"type": "t_bytes_storage"
					},
					{
						"astId": 33,
						"contract": "prac61.sol:SafeCallHandler",
						"label": "executionCounter",
						"offset": 0,
						"slot": "2",
						"type": "t_uint256"
					}
				],
				"types": {
					"t_bool": {
						"encoding": "inplace",
						"label": "bool",
						"numberOfBytes": "1"
					},
					"t_bytes_storage": {
						"encoding": "bytes",
						"label": "bytes",
						"numberOfBytes": "32"
					},
					"t_uint256": {
						"encoding": "inplace",
						"label": "uint256",
						"numberOfBytes": "32"
					}
				}
			},
			"userdoc": {
				"kind": "user",
				"methods": {},
				"version": 1
			}
		}
	}
}