{
	"prac49.sol": {
		"ReorderLogicVul": {
			"abi": [
				{
					"inputs": [
						{
							"internalType": "uint256",
							"name": "_deposit",
							"type": "uint256"
						}
					],
					"name": "badRewardUpdate",
					"outputs": [],
					"stateMutability": "nonpayable",
					"type": "function"
				},
				{
					"inputs": [
						{
							"internalType": "address",
							"name": "",
							"type": "address"
						}
					],
					"name": "balances",
					"outputs": [
						{
							"internalType": "uint256",
							"name": "",
							"type": "uint256"
						}
					],
					"stateMutability": "view",
					"type": "function"
				},
				{
					"inputs": [
						{
							"internalType": "address",
							"name": "",
							"type": "address"
						}
					],
					"name": "rewards",
					"outputs": [
						{
							"internalType": "uint256",
							"name": "",
							"type": "uint256"
						}
					],
					"stateMutability": "view",
					"type": "function"
				},
				{
					"inputs": [],
					"name": "safeDeposit",
					"outputs": [],
					"stateMutability": "payable",
					"type": "function"
				},
				{
					"inputs": [],
					"name": "totalBalance",
					"outputs": [
						{
							"internalType": "uint256",
							"name": "",
							"type": "uint256"
						}
					],
					"stateMutability": "view",
					"type": "function"
				},
				{
					"inputs": [
						{
							"internalType": "uint256",
							"name": "_amount",
							"type": "uint256"
						}
					],
					"name": "vulnerableWithdraw",
					"outputs": [],
					"stateMutability": "nonpayable",
					"type": "function"
				}
			],
			"devdoc": {
				"kind": "dev",
				"methods": {},
				"version": 1
			},
			"evm": {
				"assembly": "    /* \"prac49.sol\":1784:3532  contract ReorderLogicVul {... */\n  mstore(0x40, 0x80)\n  callvalue\n  dup1\n  iszero\n  tag_1\n  jumpi\n  revert(0x00, 0x00)\ntag_1:\n  pop\n  dataSize(sub_0)\n  dup1\n  dataOffset(sub_0)\n  0x00\n  codecopy\n  0x00\n  return\nstop\n\nsub_0: assembly {\n        /* \"prac49.sol\":1784:3532  contract ReorderLogicVul {... */\n      mstore(0x40, 0x80)\n      jumpi(tag_1, lt(calldatasize, 0x04))\n      shr(0xe0, calldataload(0x00))\n      dup1\n      0x0700037d\n      eq\n      tag_2\n      jumpi\n      dup1\n      0x27e235e3\n      eq\n      tag_3\n      jumpi\n      dup1\n      0x596c4bb4\n      eq\n      tag_4\n      jumpi\n      dup1\n      0x6e47b938\n      eq\n      tag_5\n      jumpi\n      dup1\n      0xad7a672f\n      eq\n      tag_6\n      jumpi\n      dup1\n      0xcc817673\n      eq\n      tag_7\n      jumpi\n    tag_1:\n      revert(0x00, 0x00)\n        /* \"prac49.sol\":1902:1944  mapping(address => uint256) public rewards */\n    tag_2:\n      callvalue\n      dup1\n      iszero\n      tag_8\n      jumpi\n      revert(0x00, 0x00)\n    tag_8:\n      pop\n      tag_9\n      0x04\n      dup1\n      calldatasize\n      sub\n      dup2\n      add\n      swap1\n      tag_10\n      swap2\n      swap1\n      tag_11\n      jump\t// in\n    tag_10:\n      tag_12\n      jump\t// in\n    tag_9:\n      mload(0x40)\n      tag_13\n      swap2\n      swap1\n      tag_14\n      jump\t// in\n    tag_13:\n      mload(0x40)\n      dup1\n      swap2\n      sub\n      swap1\n      return\n        /* \"prac49.sol\":1818:1861  mapping(address => uint256) public balances */\n    tag_3:\n      callvalue\n      dup1\n      iszero\n      tag_15\n      jumpi\n      revert(0x00, 0x00)\n    tag_15:\n      pop\n      tag_16\n      0x04\n      dup1\n      calldatasize\n      sub\n      dup2\n      add\n      swap1\n      tag_17\n      swap2\n      swap1\n      tag_11\n      jump\t// in\n    tag_17:\n      tag_18\n      jump\t// in\n    tag_16:\n      mload(0x40)\n      tag_19\n      swap2\n      swap1\n      tag_14\n      jump\t// in\n    tag_19:\n      mload(0x40)\n      dup1\n      swap2\n      sub\n      swap1\n      return\n        /* \"prac49.sol\":3268:3529  function badRewardUpdate(... */\n    tag_4:\n      callvalue\n      dup1\n      iszero\n      tag_20\n      jumpi\n      revert(0x00, 0x00)\n    tag_20:\n      pop\n      tag_21\n      0x04\n      dup1\n      calldatasize\n      sub\n      dup2\n      add\n      swap1\n      tag_22\n      swap2\n      swap1\n      tag_23\n      jump\t// in\n    tag_22:\n      tag_24\n      jump\t// in\n    tag_21:\n      stop\n        /* \"prac49.sol\":1953:2191  function safeDeposit()... */\n    tag_5:\n      tag_25\n      tag_26\n      jump\t// in\n    tag_25:\n      stop\n        /* \"prac49.sol\":1868:1895  uint256 public totalBalance */\n    tag_6:\n      callvalue\n      dup1\n      iszero\n      tag_27\n      jumpi\n      revert(0x00, 0x00)\n    tag_27:\n      pop\n      tag_28\n      tag_29\n      jump\t// in\n    tag_28:\n      mload(0x40)\n      tag_30\n      swap2\n      swap1\n      tag_14\n      jump\t// in\n    tag_30:\n      mload(0x40)\n      dup1\n      swap2\n      sub\n      swap1\n      return\n        /* \"prac49.sol\":2441:3095  function vulnerableWithdraw(... */\n    tag_7:\n      callvalue\n      dup1\n      iszero\n      tag_31\n      jumpi\n      revert(0x00, 0x00)\n    tag_31:\n      pop\n      tag_32\n      0x04\n      dup1\n      calldatasize\n      sub\n      dup2\n      add\n      swap1\n      tag_33\n      swap2\n      swap1\n      tag_23\n      jump\t// in\n    tag_33:\n      tag_34\n      jump\t// in\n    tag_32:\n      stop\n        /* \"prac49.sol\":1902:1944  mapping(address => uint256) public rewards */\n    tag_12:\n      mstore(0x20, 0x02)\n      dup1\n      0x00\n      mstore\n      keccak256(0x00, 0x40)\n      0x00\n      swap2\n      pop\n      swap1\n      pop\n      sload\n      dup2\n      jump\t// out\n        /* \"prac49.sol\":1818:1861  mapping(address => uint256) public balances */\n    tag_18:\n      mstore(0x20, 0x00)\n      dup1\n      0x00\n      mstore\n      keccak256(0x00, 0x40)\n      0x00\n      swap2\n      pop\n      swap1\n      pop\n      sload\n      dup2\n      jump\t// out\n        /* \"prac49.sol\":3268:3529  function badRewardUpdate(... */\n    tag_24:\n        /* \"prac49.sol\":3474:3476  10 */\n      0x0a\n        /* \"prac49.sol\":3451:3459  balances */\n      0x00\n        /* \"prac49.sol\":3451:3471  balances[msg.sender] */\n      0x00\n        /* \"prac49.sol\":3460:3470  msg.sender */\n      caller\n        /* \"prac49.sol\":3451:3471  balances[msg.sender] */\n      0xffffffffffffffffffffffffffffffffffffffff\n      and\n      0xffffffffffffffffffffffffffffffffffffffff\n      and\n      dup2\n      mstore\n      0x20\n      add\n      swap1\n      dup2\n      mstore\n      0x20\n      add\n      0x00\n      keccak256\n      sload\n        /* \"prac49.sol\":3451:3476  balances[msg.sender] / 10 */\n      tag_36\n      swap2\n      swap1\n      tag_37\n      jump\t// in\n    tag_36:\n        /* \"prac49.sol\":3416:3423  rewards */\n      0x02\n        /* \"prac49.sol\":3416:3435  rewards[msg.sender] */\n      0x00\n        /* \"prac49.sol\":3424:3434  msg.sender */\n      caller\n        /* \"prac49.sol\":3416:3435  rewards[msg.sender] */\n      0xffffffffffffffffffffffffffffffffffffffff\n      and\n      0xffffffffffffffffffffffffffffffffffffffff\n      and\n      dup2\n      mstore\n      0x20\n      add\n      swap1\n      dup2\n      mstore\n      0x20\n      add\n      0x00\n      keccak256\n        /* \"prac49.sol\":3416:3476  rewards[msg.sender] =... */\n      dup2\n      swap1\n      sstore\n      pop\n        /* \"prac49.sol\":3513:3521  _deposit */\n      dup1\n        /* \"prac49.sol\":3489:3497  balances */\n      0x00\n        /* \"prac49.sol\":3489:3509  balances[msg.sender] */\n      0x00\n        /* \"prac49.sol\":3498:3508  msg.sender */\n      caller\n        /* \"prac49.sol\":3489:3509  balances[msg.sender] */\n      0xffffffffffffffffffffffffffffffffffffffff\n      and\n      0xffffffffffffffffffffffffffffffffffffffff\n      and\n      dup2\n      mstore\n      0x20\n      add\n      swap1\n      dup2\n      mstore\n      0x20\n      add\n      0x00\n      keccak256\n      0x00\n        /* \"prac49.sol\":3489:3521  balances[msg.sender] += _deposit */\n      dup3\n      dup3\n      sload\n      tag_38\n      swap2\n      swap1\n      tag_39\n      jump\t// in\n    tag_38:\n      swap3\n      pop\n      pop\n      dup2\n      swap1\n      sstore\n      pop\n        /* \"prac49.sol\":3268:3529  function badRewardUpdate(... */\n      pop\n      jump\t// out\n        /* \"prac49.sol\":1953:2191  function safeDeposit()... */\n    tag_26:\n        /* \"prac49.sol\":2061:2062  0 */\n      0x00\n        /* \"prac49.sol\":2049:2058  msg.value */\n      callvalue\n        /* \"prac49.sol\":2049:2062  msg.value > 0 */\n      gt\n        /* \"prac49.sol\":2027:2101  require(... */\n      tag_41\n      jumpi\n      mload(0x40)\n      0x08c379a000000000000000000000000000000000000000000000000000000000\n      dup2\n      mstore\n      0x04\n      add\n      tag_42\n      swap1\n      tag_43\n      jump\t// in\n    tag_42:\n      mload(0x40)\n      dup1\n      swap2\n      sub\n      swap1\n      revert\n    tag_41:\n        /* \"prac49.sol\":2138:2147  msg.value */\n      callvalue\n        /* \"prac49.sol\":2114:2122  balances */\n      0x00\n        /* \"prac49.sol\":2114:2134  balances[msg.sender] */\n      0x00\n        /* \"prac49.sol\":2123:2133  msg.sender */\n      caller\n        /* \"prac49.sol\":2114:2134  balances[msg.sender] */\n      0xffffffffffffffffffffffffffffffffffffffff\n      and\n      0xffffffffffffffffffffffffffffffffffffffff\n      and\n      dup2\n      mstore\n      0x20\n      add\n      swap1\n      dup2\n      mstore\n      0x20\n      add\n      0x00\n      keccak256\n      0x00\n        /* \"prac49.sol\":2114:2147  balances[msg.sender] += msg.value */\n      dup3\n      dup3\n      sload\n      tag_44\n      swap2\n      swap1\n      tag_39\n      jump\t// in\n    tag_44:\n      swap3\n      pop\n      pop\n      dup2\n      swap1\n      sstore\n      pop\n        /* \"prac49.sol\":2174:2183  msg.value */\n      callvalue\n        /* \"prac49.sol\":2158:2170  totalBalance */\n      0x01\n      0x00\n        /* \"prac49.sol\":2158:2183  totalBalance += msg.value */\n      dup3\n      dup3\n      sload\n      tag_45\n      swap2\n      swap1\n      tag_39\n      jump\t// in\n    tag_45:\n      swap3\n      pop\n      pop\n      dup2\n      swap1\n      sstore\n      pop\n        /* \"prac49.sol\":1953:2191  function safeDeposit()... */\n      jump\t// out\n        /* \"prac49.sol\":1868:1895  uint256 public totalBalance */\n    tag_29:\n      sload(0x01)\n      dup2\n      jump\t// out\n        /* \"prac49.sol\":2441:3095  function vulnerableWithdraw(... */\n    tag_34:\n        /* \"prac49.sol\":2582:2589  _amount */\n      dup1\n        /* \"prac49.sol\":2558:2566  balances */\n      0x00\n        /* \"prac49.sol\":2558:2578  balances[msg.sender] */\n      0x00\n        /* \"prac49.sol\":2567:2577  msg.sender */\n      caller\n        /* \"prac49.sol\":2558:2578  balances[msg.sender] */\n      0xffffffffffffffffffffffffffffffffffffffff\n      and\n      0xffffffffffffffffffffffffffffffffffffffff\n      and\n      dup2\n      mstore\n      0x20\n      add\n      swap1\n      dup2\n      mstore\n      0x20\n      add\n      0x00\n      keccak256\n      sload\n        /* \"prac49.sol\":2558:2589  balances[msg.sender] >= _amount */\n      lt\n      iszero\n        /* \"prac49.sol\":2536:2637  require(... */\n      tag_47\n      jumpi\n      mload(0x40)\n      0x08c379a000000000000000000000000000000000000000000000000000000000\n      dup2\n      mstore\n      0x04\n      add\n      tag_48\n      swap1\n      tag_49\n      jump\t// in\n    tag_48:\n      mload(0x40)\n      dup1\n      swap2\n      sub\n      swap1\n      revert\n    tag_47:\n        /* \"prac49.sol\":2756:2768  bool success */\n      0x00\n        /* \"prac49.sol\":2795:2805  msg.sender */\n      caller\n        /* \"prac49.sol\":2787:2811  payable(msg.sender).call */\n      0xffffffffffffffffffffffffffffffffffffffff\n      and\n        /* \"prac49.sol\":2837:2844  _amount */\n      dup3\n        /* \"prac49.sol\":2787:2863  payable(msg.sender).call{... */\n      mload(0x40)\n      tag_50\n      swap1\n      tag_51\n      jump\t// in\n    tag_50:\n      0x00\n      mload(0x40)\n      dup1\n      dup4\n      sub\n      dup2\n      dup6\n      dup8\n      gas\n      call\n      swap3\n      pop\n      pop\n      pop\n      returndatasize\n      dup1\n      0x00\n      dup2\n      eq\n      tag_54\n      jumpi\n      mload(0x40)\n      swap2\n      pop\n      and(add(returndatasize, 0x3f), not(0x1f))\n      dup3\n      add\n      0x40\n      mstore\n      returndatasize\n      dup3\n      mstore\n      returndatasize\n      0x00\n      0x20\n      dup5\n      add\n      returndatacopy\n      jump(tag_53)\n    tag_54:\n      0x60\n      swap2\n      pop\n    tag_53:\n      pop\n        /* \"prac49.sol\":2755:2863  (bool success, ) =... */\n      pop\n      swap1\n      pop\n        /* \"prac49.sol\":2898:2905  success */\n      dup1\n        /* \"prac49.sol\":2876:2948  require(... */\n      tag_55\n      jumpi\n      mload(0x40)\n      0x08c379a000000000000000000000000000000000000000000000000000000000\n      dup2\n      mstore\n      0x04\n      add\n      tag_56\n      swap1\n      tag_57\n      jump\t// in\n    tag_56:\n      mload(0x40)\n      dup1\n      swap2\n      sub\n      swap1\n      revert\n    tag_55:\n        /* \"prac49.sol\":3046:3053  _amount */\n      dup2\n        /* \"prac49.sol\":3022:3030  balances */\n      0x00\n        /* \"prac49.sol\":3022:3042  balances[msg.sender] */\n      0x00\n        /* \"prac49.sol\":3031:3041  msg.sender */\n      caller\n        /* \"prac49.sol\":3022:3042  balances[msg.sender] */\n      0xffffffffffffffffffffffffffffffffffffffff\n      and\n      0xffffffffffffffffffffffffffffffffffffffff\n      and\n      dup2\n      mstore\n      0x20\n      add\n      swap1\n      dup2\n      mstore\n      0x20\n      add\n      0x00\n      keccak256\n      0x00\n        /* \"prac49.sol\":3022:3053  balances[msg.sender] -= _amount */\n      dup3\n      dup3\n      sload\n      tag_58\n      swap2\n      swap1\n      tag_59\n      jump\t// in\n    tag_58:\n      swap3\n      pop\n      pop\n      dup2\n      swap1\n      sstore\n      pop\n        /* \"prac49.sol\":3080:3087  _amount */\n      dup2\n        /* \"prac49.sol\":3064:3076  totalBalance */\n      0x01\n      0x00\n        /* \"prac49.sol\":3064:3087  totalBalance -= _amount */\n      dup3\n      dup3\n      sload\n      tag_60\n      swap2\n      swap1\n      tag_59\n      jump\t// in\n    tag_60:\n      swap3\n      pop\n      pop\n      dup2\n      swap1\n      sstore\n      pop\n        /* \"prac49.sol\":2525:3095  {... */\n      pop\n        /* \"prac49.sol\":2441:3095  function vulnerableWithdraw(... */\n      pop\n      jump\t// out\n        /* \"#utility.yul\":88:205   */\n    tag_62:\n        /* \"#utility.yul\":197:198   */\n      0x00\n        /* \"#utility.yul\":194:195   */\n      0x00\n        /* \"#utility.yul\":187:199   */\n      revert\n        /* \"#utility.yul\":334:460   */\n    tag_64:\n        /* \"#utility.yul\":371:378   */\n      0x00\n        /* \"#utility.yul\":411:453   */\n      0xffffffffffffffffffffffffffffffffffffffff\n        /* \"#utility.yul\":404:409   */\n      dup3\n        /* \"#utility.yul\":400:454   */\n      and\n        /* \"#utility.yul\":389:454   */\n      swap1\n      pop\n        /* \"#utility.yul\":334:460   */\n      swap2\n      swap1\n      pop\n      jump\t// out\n        /* \"#utility.yul\":466:562   */\n    tag_65:\n        /* \"#utility.yul\":503:510   */\n      0x00\n        /* \"#utility.yul\":532:556   */\n      tag_90\n        /* \"#utility.yul\":550:555   */\n      dup3\n        /* \"#utility.yul\":532:556   */\n      tag_64\n      jump\t// in\n    tag_90:\n        /* \"#utility.yul\":521:556   */\n      swap1\n      pop\n        /* \"#utility.yul\":466:562   */\n      swap2\n      swap1\n      pop\n      jump\t// out\n        /* \"#utility.yul\":568:690   */\n    tag_66:\n        /* \"#utility.yul\":641:665   */\n      tag_92\n        /* \"#utility.yul\":659:664   */\n      dup2\n        /* \"#utility.yul\":641:665   */\n      tag_65\n      jump\t// in\n    tag_92:\n        /* \"#utility.yul\":634:639   */\n      dup2\n        /* \"#utility.yul\":631:666   */\n      eq\n        /* \"#utility.yul\":621:684   */\n      tag_93\n      jumpi\n        /* \"#utility.yul\":680:681   */\n      0x00\n        /* \"#utility.yul\":677:678   */\n      0x00\n        /* \"#utility.yul\":670:682   */\n      revert\n        /* \"#utility.yul\":621:684   */\n    tag_93:\n        /* \"#utility.yul\":568:690   */\n      pop\n      jump\t// out\n        /* \"#utility.yul\":696:835   */\n    tag_67:\n        /* \"#utility.yul\":742:747   */\n      0x00\n        /* \"#utility.yul\":780:786   */\n      dup2\n        /* \"#utility.yul\":767:787   */\n      calldataload\n        /* \"#utility.yul\":758:787   */\n      swap1\n      pop\n        /* \"#utility.yul\":796:829   */\n      tag_95\n        /* \"#utility.yul\":823:828   */\n      dup2\n        /* \"#utility.yul\":796:829   */\n      tag_66\n      jump\t// in\n    tag_95:\n        /* \"#utility.yul\":696:835   */\n      swap3\n      swap2\n      pop\n      pop\n      jump\t// out\n        /* \"#utility.yul\":841:1170   */\n    tag_11:\n        /* \"#utility.yul\":900:906   */\n      0x00\n        /* \"#utility.yul\":949:951   */\n      0x20\n        /* \"#utility.yul\":937:946   */\n      dup3\n        /* \"#utility.yul\":928:935   */\n      dup5\n        /* \"#utility.yul\":924:947   */\n      sub\n        /* \"#utility.yul\":920:952   */\n      slt\n        /* \"#utility.yul\":917:1036   */\n      iszero\n      tag_97\n      jumpi\n        /* \"#utility.yul\":955:1034   */\n      tag_98\n      tag_62\n      jump\t// in\n    tag_98:\n        /* \"#utility.yul\":917:1036   */\n    tag_97:\n        /* \"#utility.yul\":1075:1076   */\n      0x00\n        /* \"#utility.yul\":1100:1153   */\n      tag_99\n        /* \"#utility.yul\":1145:1152   */\n      dup5\n        /* \"#utility.yul\":1136:1142   */\n      dup3\n        /* \"#utility.yul\":1125:1134   */\n      dup6\n        /* \"#utility.yul\":1121:1143   */\n      add\n        /* \"#utility.yul\":1100:1153   */\n      tag_67\n      jump\t// in\n    tag_99:\n        /* \"#utility.yul\":1090:1153   */\n      swap2\n      pop\n        /* \"#utility.yul\":1046:1163   */\n      pop\n        /* \"#utility.yul\":841:1170   */\n      swap3\n      swap2\n      pop\n      pop\n      jump\t// out\n        /* \"#utility.yul\":1176:1253   */\n    tag_68:\n        /* \"#utility.yul\":1213:1220   */\n      0x00\n        /* \"#utility.yul\":1242:1247   */\n      dup2\n        /* \"#utility.yul\":1231:1247   */\n      swap1\n      pop\n        /* \"#utility.yul\":1176:1253   */\n      swap2\n      swap1\n      pop\n      jump\t// out\n        /* \"#utility.yul\":1259:1377   */\n    tag_69:\n        /* \"#utility.yul\":1346:1370   */\n      tag_102\n        /* \"#utility.yul\":1364:1369   */\n      dup2\n        /* \"#utility.yul\":1346:1370   */\n      tag_68\n      jump\t// in\n    tag_102:\n        /* \"#utility.yul\":1341:1344   */\n      dup3\n        /* \"#utility.yul\":1334:1371   */\n      mstore\n        /* \"#utility.yul\":1259:1377   */\n      pop\n      pop\n      jump\t// out\n        /* \"#utility.yul\":1383:1605   */\n    tag_14:\n        /* \"#utility.yul\":1476:1480   */\n      0x00\n        /* \"#utility.yul\":1514:1516   */\n      0x20\n        /* \"#utility.yul\":1503:1512   */\n      dup3\n        /* \"#utility.yul\":1499:1517   */\n      add\n        /* \"#utility.yul\":1491:1517   */\n      swap1\n      pop\n        /* \"#utility.yul\":1527:1598   */\n      tag_104\n        /* \"#utility.yul\":1595:1596   */\n      0x00\n        /* \"#utility.yul\":1584:1593   */\n      dup4\n        /* \"#utility.yul\":1580:1597   */\n      add\n        /* \"#utility.yul\":1571:1577   */\n      dup5\n        /* \"#utility.yul\":1527:1598   */\n      tag_69\n      jump\t// in\n    tag_104:\n        /* \"#utility.yul\":1383:1605   */\n      swap3\n      swap2\n      pop\n      pop\n      jump\t// out\n        /* \"#utility.yul\":1611:1733   */\n    tag_70:\n        /* \"#utility.yul\":1684:1708   */\n      tag_106\n        /* \"#utility.yul\":1702:1707   */\n      dup2\n        /* \"#utility.yul\":1684:1708   */\n      tag_68\n      jump\t// in\n    tag_106:\n        /* \"#utility.yul\":1677:1682   */\n      dup2\n        /* \"#utility.yul\":1674:1709   */\n      eq\n        /* \"#utility.yul\":1664:1727   */\n      tag_107\n      jumpi\n        /* \"#utility.yul\":1723:1724   */\n      0x00\n        /* \"#utility.yul\":1720:1721   */\n      0x00\n        /* \"#utility.yul\":1713:1725   */\n      revert\n        /* \"#utility.yul\":1664:1727   */\n    tag_107:\n        /* \"#utility.yul\":1611:1733   */\n      pop\n      jump\t// out\n        /* \"#utility.yul\":1739:1878   */\n    tag_71:\n        /* \"#utility.yul\":1785:1790   */\n      0x00\n        /* \"#utility.yul\":1823:1829   */\n      dup2\n        /* \"#utility.yul\":1810:1830   */\n      calldataload\n        /* \"#utility.yul\":1801:1830   */\n      swap1\n      pop\n        /* \"#utility.yul\":1839:1872   */\n      tag_109\n        /* \"#utility.yul\":1866:1871   */\n      dup2\n        /* \"#utility.yul\":1839:1872   */\n      tag_70\n      jump\t// in\n    tag_109:\n        /* \"#utility.yul\":1739:1878   */\n      swap3\n      swap2\n      pop\n      pop\n      jump\t// out\n        /* \"#utility.yul\":1884:2213   */\n    tag_23:\n        /* \"#utility.yul\":1943:1949   */\n      0x00\n        /* \"#utility.yul\":1992:1994   */\n      0x20\n        /* \"#utility.yul\":1980:1989   */\n      dup3\n        /* \"#utility.yul\":1971:1978   */\n      dup5\n        /* \"#utility.yul\":1967:1990   */\n      sub\n        /* \"#utility.yul\":1963:1995   */\n      slt\n        /* \"#utility.yul\":1960:2079   */\n      iszero\n      tag_111\n      jumpi\n        /* \"#utility.yul\":1998:2077   */\n      tag_112\n      tag_62\n      jump\t// in\n    tag_112:\n        /* \"#utility.yul\":1960:2079   */\n    tag_111:\n        /* \"#utility.yul\":2118:2119   */\n      0x00\n        /* \"#utility.yul\":2143:2196   */\n      tag_113\n        /* \"#utility.yul\":2188:2195   */\n      dup5\n        /* \"#utility.yul\":2179:2185   */\n      dup3\n        /* \"#utility.yul\":2168:2177   */\n      dup6\n        /* \"#utility.yul\":2164:2186   */\n      add\n        /* \"#utility.yul\":2143:2196   */\n      tag_71\n      jump\t// in\n    tag_113:\n        /* \"#utility.yul\":2133:2196   */\n      swap2\n      pop\n        /* \"#utility.yul\":2089:2206   */\n      pop\n        /* \"#utility.yul\":1884:2213   */\n      swap3\n      swap2\n      pop\n      pop\n      jump\t// out\n        /* \"#utility.yul\":2219:2399   */\n    tag_72:\n        /* \"#utility.yul\":2267:2344   */\n      0x4e487b7100000000000000000000000000000000000000000000000000000000\n        /* \"#utility.yul\":2264:2265   */\n      0x00\n        /* \"#utility.yul\":2257:2345   */\n      mstore\n        /* \"#utility.yul\":2364:2368   */\n      0x12\n        /* \"#utility.yul\":2361:2362   */\n      0x04\n        /* \"#utility.yul\":2354:2369   */\n      mstore\n        /* \"#utility.yul\":2388:2392   */\n      0x24\n        /* \"#utility.yul\":2385:2386   */\n      0x00\n        /* \"#utility.yul\":2378:2393   */\n      revert\n        /* \"#utility.yul\":2405:2585   */\n    tag_73:\n        /* \"#utility.yul\":2453:2530   */\n      0x4e487b7100000000000000000000000000000000000000000000000000000000\n        /* \"#utility.yul\":2450:2451   */\n      0x00\n        /* \"#utility.yul\":2443:2531   */\n      mstore\n        /* \"#utility.yul\":2550:2554   */\n      0x11\n        /* \"#utility.yul\":2547:2548   */\n      0x04\n        /* \"#utility.yul\":2540:2555   */\n      mstore\n        /* \"#utility.yul\":2574:2578   */\n      0x24\n        /* \"#utility.yul\":2571:2572   */\n      0x00\n        /* \"#utility.yul\":2564:2579   */\n      revert\n        /* \"#utility.yul\":2591:2776   */\n    tag_37:\n        /* \"#utility.yul\":2631:2632   */\n      0x00\n        /* \"#utility.yul\":2648:2668   */\n      tag_117\n        /* \"#utility.yul\":2666:2667   */\n      dup3\n        /* \"#utility.yul\":2648:2668   */\n      tag_68\n      jump\t// in\n    tag_117:\n        /* \"#utility.yul\":2643:2668   */\n      swap2\n      pop\n        /* \"#utility.yul\":2682:2702   */\n      tag_118\n        /* \"#utility.yul\":2700:2701   */\n      dup4\n        /* \"#utility.yul\":2682:2702   */\n      tag_68\n      jump\t// in\n    tag_118:\n        /* \"#utility.yul\":2677:2702   */\n      swap3\n      pop\n        /* \"#utility.yul\":2721:2722   */\n      dup3\n        /* \"#utility.yul\":2711:2746   */\n      tag_119\n      jumpi\n        /* \"#utility.yul\":2726:2744   */\n      tag_120\n      tag_72\n      jump\t// in\n    tag_120:\n        /* \"#utility.yul\":2711:2746   */\n    tag_119:\n        /* \"#utility.yul\":2768:2769   */\n      dup3\n        /* \"#utility.yul\":2765:2766   */\n      dup3\n        /* \"#utility.yul\":2761:2770   */\n      div\n        /* \"#utility.yul\":2756:2770   */\n      swap1\n      pop\n        /* \"#utility.yul\":2591:2776   */\n      swap3\n      swap2\n      pop\n      pop\n      jump\t// out\n        /* \"#utility.yul\":2782:2973   */\n    tag_39:\n        /* \"#utility.yul\":2822:2825   */\n      0x00\n        /* \"#utility.yul\":2841:2861   */\n      tag_122\n        /* \"#utility.yul\":2859:2860   */\n      dup3\n        /* \"#utility.yul\":2841:2861   */\n      tag_68\n      jump\t// in\n    tag_122:\n        /* \"#utility.yul\":2836:2861   */\n      swap2\n      pop\n        /* \"#utility.yul\":2875:2895   */\n      tag_123\n        /* \"#utility.yul\":2893:2894   */\n      dup4\n        /* \"#utility.yul\":2875:2895   */\n      tag_68\n      jump\t// in\n    tag_123:\n        /* \"#utility.yul\":2870:2895   */\n      swap3\n      pop\n        /* \"#utility.yul\":2918:2919   */\n      dup3\n        /* \"#utility.yul\":2915:2916   */\n      dup3\n        /* \"#utility.yul\":2911:2920   */\n      add\n        /* \"#utility.yul\":2904:2920   */\n      swap1\n      pop\n        /* \"#utility.yul\":2939:2942   */\n      dup1\n        /* \"#utility.yul\":2936:2937   */\n      dup3\n        /* \"#utility.yul\":2933:2943   */\n      gt\n        /* \"#utility.yul\":2930:2966   */\n      iszero\n      tag_124\n      jumpi\n        /* \"#utility.yul\":2946:2964   */\n      tag_125\n      tag_73\n      jump\t// in\n    tag_125:\n        /* \"#utility.yul\":2930:2966   */\n    tag_124:\n        /* \"#utility.yul\":2782:2973   */\n      swap3\n      swap2\n      pop\n      pop\n      jump\t// out\n        /* \"#utility.yul\":2979:3148   */\n    tag_74:\n        /* \"#utility.yul\":3063:3074   */\n      0x00\n        /* \"#utility.yul\":3097:3103   */\n      dup3\n        /* \"#utility.yul\":3092:3095   */\n      dup3\n        /* \"#utility.yul\":3085:3104   */\n      mstore\n        /* \"#utility.yul\":3137:3141   */\n      0x20\n        /* \"#utility.yul\":3132:3135   */\n      dup3\n        /* \"#utility.yul\":3128:3142   */\n      add\n        /* \"#utility.yul\":3113:3142   */\n      swap1\n      pop\n        /* \"#utility.yul\":2979:3148   */\n      swap3\n      swap2\n      pop\n      pop\n      jump\t// out\n        /* \"#utility.yul\":3154:3315   */\n    tag_75:\n        /* \"#utility.yul\":3294:3307   */\n      0x4e6f204554482073656e74000000000000000000000000000000000000000000\n        /* \"#utility.yul\":3290:3291   */\n      0x00\n        /* \"#utility.yul\":3282:3288   */\n      dup3\n        /* \"#utility.yul\":3278:3292   */\n      add\n        /* \"#utility.yul\":3271:3308   */\n      mstore\n        /* \"#utility.yul\":3154:3315   */\n      pop\n      jump\t// out\n        /* \"#utility.yul\":3321:3687   */\n    tag_76:\n        /* \"#utility.yul\":3463:3466   */\n      0x00\n        /* \"#utility.yul\":3484:3551   */\n      tag_129\n        /* \"#utility.yul\":3548:3550   */\n      0x0b\n        /* \"#utility.yul\":3543:3546   */\n      dup4\n        /* \"#utility.yul\":3484:3551   */\n      tag_74\n      jump\t// in\n    tag_129:\n        /* \"#utility.yul\":3477:3551   */\n      swap2\n      pop\n        /* \"#utility.yul\":3560:3653   */\n      tag_130\n        /* \"#utility.yul\":3649:3652   */\n      dup3\n        /* \"#utility.yul\":3560:3653   */\n      tag_75\n      jump\t// in\n    tag_130:\n        /* \"#utility.yul\":3678:3680   */\n      0x20\n        /* \"#utility.yul\":3673:3676   */\n      dup3\n        /* \"#utility.yul\":3669:3681   */\n      add\n        /* \"#utility.yul\":3662:3681   */\n      swap1\n      pop\n        /* \"#utility.yul\":3321:3687   */\n      swap2\n      swap1\n      pop\n      jump\t// out\n        /* \"#utility.yul\":3693:4112   */\n    tag_43:\n        /* \"#utility.yul\":3859:3863   */\n      0x00\n        /* \"#utility.yul\":3897:3899   */\n      0x20\n        /* \"#utility.yul\":3886:3895   */\n      dup3\n        /* \"#utility.yul\":3882:3900   */\n      add\n        /* \"#utility.yul\":3874:3900   */\n      swap1\n      pop\n        /* \"#utility.yul\":3946:3955   */\n      dup2\n        /* \"#utility.yul\":3940:3944   */\n      dup2\n        /* \"#utility.yul\":3936:3956   */\n      sub\n        /* \"#utility.yul\":3932:3933   */\n      0x00\n        /* \"#utility.yul\":3921:3930   */\n      dup4\n        /* \"#utility.yul\":3917:3934   */\n      add\n        /* \"#utility.yul\":3910:3957   */\n      mstore\n        /* \"#utility.yul\":3974:4105   */\n      tag_132\n        /* \"#utility.yul\":4100:4104   */\n      dup2\n        /* \"#utility.yul\":3974:4105   */\n      tag_76\n      jump\t// in\n    tag_132:\n        /* \"#utility.yul\":3966:4105   */\n      swap1\n      pop\n        /* \"#utility.yul\":3693:4112   */\n      swap2\n      swap1\n      pop\n      jump\t// out\n        /* \"#utility.yul\":4118:4288   */\n    tag_77:\n        /* \"#utility.yul\":4258:4280   */\n      0x496e73756666696369656e742062616c616e6365000000000000000000000000\n        /* \"#utility.yul\":4254:4255   */\n      0x00\n        /* \"#utility.yul\":4246:4252   */\n      dup3\n        /* \"#utility.yul\":4242:4256   */\n      add\n        /* \"#utility.yul\":4235:4281   */\n      mstore\n        /* \"#utility.yul\":4118:4288   */\n      pop\n      jump\t// out\n        /* \"#utility.yul\":4294:4660   */\n    tag_78:\n        /* \"#utility.yul\":4436:4439   */\n      0x00\n        /* \"#utility.yul\":4457:4524   */\n      tag_135\n        /* \"#utility.yul\":4521:4523   */\n      0x14\n        /* \"#utility.yul\":4516:4519   */\n      dup4\n        /* \"#utility.yul\":4457:4524   */\n      tag_74\n      jump\t// in\n    tag_135:\n        /* \"#utility.yul\":4450:4524   */\n      swap2\n      pop\n        /* \"#utility.yul\":4533:4626   */\n      tag_136\n        /* \"#utility.yul\":4622:4625   */\n      dup3\n        /* \"#utility.yul\":4533:4626   */\n      tag_77\n      jump\t// in\n    tag_136:\n        /* \"#utility.yul\":4651:4653   */\n      0x20\n        /* \"#utility.yul\":4646:4649   */\n      dup3\n        /* \"#utility.yul\":4642:4654   */\n      add\n        /* \"#utility.yul\":4635:4654   */\n      swap1\n      pop\n        /* \"#utility.yul\":4294:4660   */\n      swap2\n      swap1\n      pop\n      jump\t// out\n        /* \"#utility.yul\":4666:5085   */\n    tag_49:\n        /* \"#utility.yul\":4832:4836   */\n      0x00\n        /* \"#utility.yul\":4870:4872   */\n      0x20\n        /* \"#utility.yul\":4859:4868   */\n      dup3\n        /* \"#utility.yul\":4855:4873   */\n      add\n        /* \"#utility.yul\":4847:4873   */\n      swap1\n      pop\n        /* \"#utility.yul\":4919:4928   */\n      dup2\n        /* \"#utility.yul\":4913:4917   */\n      dup2\n        /* \"#utility.yul\":4909:4929   */\n      sub\n        /* \"#utility.yul\":4905:4906   */\n      0x00\n        /* \"#utility.yul\":4894:4903   */\n      dup4\n        /* \"#utility.yul\":4890:4907   */\n      add\n        /* \"#utility.yul\":4883:4930   */\n      mstore\n        /* \"#utility.yul\":4947:5078   */\n      tag_138\n        /* \"#utility.yul\":5073:5077   */\n      dup2\n        /* \"#utility.yul\":4947:5078   */\n      tag_78\n      jump\t// in\n    tag_138:\n        /* \"#utility.yul\":4939:5078   */\n      swap1\n      pop\n        /* \"#utility.yul\":4666:5085   */\n      swap2\n      swap1\n      pop\n      jump\t// out\n        /* \"#utility.yul\":5091:5238   */\n    tag_79:\n        /* \"#utility.yul\":5192:5203   */\n      0x00\n        /* \"#utility.yul\":5229:5232   */\n      dup2\n        /* \"#utility.yul\":5214:5232   */\n      swap1\n      pop\n        /* \"#utility.yul\":5091:5238   */\n      swap3\n      swap2\n      pop\n      pop\n      jump\t// out\n        /* \"#utility.yul\":5244:5358   */\n    tag_80:\n      pop\n      jump\t// out\n        /* \"#utility.yul\":5364:5762   */\n    tag_81:\n        /* \"#utility.yul\":5523:5526   */\n      0x00\n        /* \"#utility.yul\":5544:5627   */\n      tag_142\n        /* \"#utility.yul\":5625:5626   */\n      0x00\n        /* \"#utility.yul\":5620:5623   */\n      dup4\n        /* \"#utility.yul\":5544:5627   */\n      tag_79\n      jump\t// in\n    tag_142:\n        /* \"#utility.yul\":5537:5627   */\n      swap2\n      pop\n        /* \"#utility.yul\":5636:5729   */\n      tag_143\n        /* \"#utility.yul\":5725:5728   */\n      dup3\n        /* \"#utility.yul\":5636:5729   */\n      tag_80\n      jump\t// in\n    tag_143:\n        /* \"#utility.yul\":5754:5755   */\n      0x00\n        /* \"#utility.yul\":5749:5752   */\n      dup3\n        /* \"#utility.yul\":5745:5756   */\n      add\n        /* \"#utility.yul\":5738:5756   */\n      swap1\n      pop\n        /* \"#utility.yul\":5364:5762   */\n      swap2\n      swap1\n      pop\n      jump\t// out\n        /* \"#utility.yul\":5768:6147   */\n    tag_51:\n        /* \"#utility.yul\":5952:5955   */\n      0x00\n        /* \"#utility.yul\":5974:6121   */\n      tag_145\n        /* \"#utility.yul\":6117:6120   */\n      dup3\n        /* \"#utility.yul\":5974:6121   */\n      tag_81\n      jump\t// in\n    tag_145:\n        /* \"#utility.yul\":5967:6121   */\n      swap2\n      pop\n        /* \"#utility.yul\":6138:6141   */\n      dup2\n        /* \"#utility.yul\":6131:6141   */\n      swap1\n      pop\n        /* \"#utility.yul\":5768:6147   */\n      swap2\n      swap1\n      pop\n      jump\t// out\n        /* \"#utility.yul\":6153:6318   */\n    tag_82:\n        /* \"#utility.yul\":6293:6310   */\n      0x5472616e73666572206661696c65640000000000000000000000000000000000\n        /* \"#utility.yul\":6289:6290   */\n      0x00\n        /* \"#utility.yul\":6281:6287   */\n      dup3\n        /* \"#utility.yul\":6277:6291   */\n      add\n        /* \"#utility.yul\":6270:6311   */\n      mstore\n        /* \"#utility.yul\":6153:6318   */\n      pop\n      jump\t// out\n        /* \"#utility.yul\":6324:6690   */\n    tag_83:\n        /* \"#utility.yul\":6466:6469   */\n      0x00\n        /* \"#utility.yul\":6487:6554   */\n      tag_148\n        /* \"#utility.yul\":6551:6553   */\n      0x0f\n        /* \"#utility.yul\":6546:6549   */\n      dup4\n        /* \"#utility.yul\":6487:6554   */\n      tag_74\n      jump\t// in\n    tag_148:\n        /* \"#utility.yul\":6480:6554   */\n      swap2\n      pop\n        /* \"#utility.yul\":6563:6656   */\n      tag_149\n        /* \"#utility.yul\":6652:6655   */\n      dup3\n        /* \"#utility.yul\":6563:6656   */\n      tag_82\n      jump\t// in\n    tag_149:\n        /* \"#utility.yul\":6681:6683   */\n      0x20\n        /* \"#utility.yul\":6676:6679   */\n      dup3\n        /* \"#utility.yul\":6672:6684   */\n      add\n        /* \"#utility.yul\":6665:6684   */\n      swap1\n      pop\n        /* \"#utility.yul\":6324:6690   */\n      swap2\n      swap1\n      pop\n      jump\t// out\n        /* \"#utility.yul\":6696:7115   */\n    tag_57:\n        /* \"#utility.yul\":6862:6866   */\n      0x00\n        /* \"#utility.yul\":6900:6902   */\n      0x20\n        /* \"#utility.yul\":6889:6898   */\n      dup3\n        /* \"#utility.yul\":6885:6903   */\n      add\n        /* \"#utility.yul\":6877:6903   */\n      swap1\n      pop\n        /* \"#utility.yul\":6949:6958   */\n      dup2\n        /* \"#utility.yul\":6943:6947   */\n      dup2\n        /* \"#utility.yul\":6939:6959   */\n      sub\n        /* \"#utility.yul\":6935:6936   */\n      0x00\n        /* \"#utility.yul\":6924:6933   */\n      dup4\n        /* \"#utility.yul\":6920:6937   */\n      add\n        /* \"#utility.yul\":6913:6960   */\n      mstore\n        /* \"#utility.yul\":6977:7108   */\n      tag_151\n        /* \"#utility.yul\":7103:7107   */\n      dup2\n        /* \"#utility.yul\":6977:7108   */\n      tag_83\n      jump\t// in\n    tag_151:\n        /* \"#utility.yul\":6969:7108   */\n      swap1\n      pop\n        /* \"#utility.yul\":6696:7115   */\n      swap2\n      swap1\n      pop\n      jump\t// out\n        /* \"#utility.yul\":7121:7315   */\n    tag_59:\n        /* \"#utility.yul\":7161:7165   */\n      0x00\n        /* \"#utility.yul\":7181:7201   */\n      tag_153\n        /* \"#utility.yul\":7199:7200   */\n      dup3\n        /* \"#utility.yul\":7181:7201   */\n      tag_68\n      jump\t// in\n    tag_153:\n        /* \"#utility.yul\":7176:7201   */\n      swap2\n      pop\n        /* \"#utility.yul\":7215:7235   */\n      tag_154\n        /* \"#utility.yul\":7233:7234   */\n      dup4\n        /* \"#utility.yul\":7215:7235   */\n      tag_68\n      jump\t// in\n    tag_154:\n        /* \"#utility.yul\":7210:7235   */\n      swap3\n      pop\n        /* \"#utility.yul\":7259:7260   */\n      dup3\n        /* \"#utility.yul\":7256:7257   */\n      dup3\n        /* \"#utility.yul\":7252:7261   */\n      sub\n        /* \"#utility.yul\":7244:7261   */\n      swap1\n      pop\n        /* \"#utility.yul\":7283:7284   */\n      dup2\n        /* \"#utility.yul\":7277:7281   */\n      dup2\n        /* \"#utility.yul\":7274:7285   */\n      gt\n        /* \"#utility.yul\":7271:7308   */\n      iszero\n      tag_155\n      jumpi\n        /* \"#utility.yul\":7288:7306   */\n      tag_156\n      tag_73\n      jump\t// in\n    tag_156:\n        /* \"#utility.yul\":7271:7308   */\n    tag_155:\n        /* \"#utility.yul\":7121:7315   */\n      swap3\n      swap2\n      pop\n      pop\n      jump\t// out\n\n    auxdata: 0xa26469706673582212207784128d3b0e3f6015901745f2e8be6f142eec7ad6767a3d8e635d7fb270d0c464736f6c63430008220033\n}\n",
				"bytecode": {
					"linkReferences": {},
					"object": "6080604052348015600e575f5ffd5b506108638061001c5f395ff3fe608060405260043610610054575f3560e01c80630700037d1461005857806327e235e314610094578063596c4bb4146100d05780636e47b938146100f8578063ad7a672f14610102578063cc8176731461012c575b5f5ffd5b348015610063575f5ffd5b5061007e60048036038101906100799190610503565b610154565b60405161008b9190610546565b60405180910390f35b34801561009f575f5ffd5b506100ba60048036038101906100b59190610503565b610169565b6040516100c79190610546565b60405180910390f35b3480156100db575f5ffd5b506100f660048036038101906100f19190610589565b61017d565b005b61010061025c565b005b34801561010d575f5ffd5b5061011661030a565b6040516101239190610546565b60405180910390f35b348015610137575f5ffd5b50610152600480360381019061014d9190610589565b610310565b005b6002602052805f5260405f205f915090505481565b5f602052805f5260405f205f915090505481565b600a5f5f3373ffffffffffffffffffffffffffffffffffffffff1673ffffffffffffffffffffffffffffffffffffffff1681526020019081526020015f20546101c6919061060e565b60025f3373ffffffffffffffffffffffffffffffffffffffff1673ffffffffffffffffffffffffffffffffffffffff1681526020019081526020015f2081905550805f5f3373ffffffffffffffffffffffffffffffffffffffff1673ffffffffffffffffffffffffffffffffffffffff1681526020019081526020015f205f828254610252919061063e565b9250508190555050565b5f341161029e576040517f08c379a0000000000000000000000000000000000000000000000000000000008152600401610295906106cb565b60405180910390fd5b345f5f3373ffffffffffffffffffffffffffffffffffffffff1673ffffffffffffffffffffffffffffffffffffffff1681526020019081526020015f205f8282546102e9919061063e565b925050819055503460015f828254610301919061063e565b92505081905550565b60015481565b805f5f3373ffffffffffffffffffffffffffffffffffffffff1673ffffffffffffffffffffffffffffffffffffffff1681526020019081526020015f2054101561038f576040517f08c379a000000000000000000000000000000000000000000000000000000000815260040161038690610733565b60405180910390fd5b5f3373ffffffffffffffffffffffffffffffffffffffff16826040516103b49061077e565b5f6040518083038185875af1925050503d805f81146103ee576040519150601f19603f3d011682016040523d82523d5f602084013e6103f3565b606091505b5050905080610437576040517f08c379a000000000000000000000000000000000000000000000000000000000815260040161042e906107dc565b60405180910390fd5b815f5f3373ffffffffffffffffffffffffffffffffffffffff1673ffffffffffffffffffffffffffffffffffffffff1681526020019081526020015f205f82825461048291906107fa565b925050819055508160015f82825461049a91906107fa565b925050819055505050565b5f5ffd5b5f73ffffffffffffffffffffffffffffffffffffffff82169050919050565b5f6104d2826104a9565b9050919050565b6104e2816104c8565b81146104ec575f5ffd5b50565b5f813590506104fd816104d9565b92915050565b5f60208284031215610518576105176104a5565b5b5f610525848285016104ef565b91505092915050565b5f819050919050565b6105408161052e565b82525050565b5f6020820190506105595f830184610537565b92915050565b6105688161052e565b8114610572575f5ffd5b50565b5f813590506105838161055f565b92915050565b5f6020828403121561059e5761059d6104a5565b5b5f6105ab84828501610575565b91505092915050565b7f4e487b71000000000000000000000000000000000000000000000000000000005f52601260045260245ffd5b7f4e487b71000000000000000000000000000000000000000000000000000000005f52601160045260245ffd5b5f6106188261052e565b91506106238361052e565b925082610633576106326105b4565b5b828204905092915050565b5f6106488261052e565b91506106538361052e565b925082820190508082111561066b5761066a6105e1565b5b92915050565b5f82825260208201905092915050565b7f4e6f204554482073656e740000000000000000000000000000000000000000005f82015250565b5f6106b5600b83610671565b91506106c082610681565b602082019050919050565b5f6020820190508181035f8301526106e2816106a9565b9050919050565b7f496e73756666696369656e742062616c616e63650000000000000000000000005f82015250565b5f61071d601483610671565b9150610728826106e9565b602082019050919050565b5f6020820190508181035f83015261074a81610711565b9050919050565b5f81905092915050565b50565b5f6107695f83610751565b91506107748261075b565b5f82019050919050565b5f6107888261075e565b9150819050919050565b7f5472616e73666572206661696c656400000000000000000000000000000000005f82015250565b5f6107c6600f83610671565b91506107d182610792565b602082019050919050565b5f6020820190508181035f8301526107f3816107ba565b9050919050565b5f6108048261052e565b915061080f8361052e565b9250828203905081811115610827576108266105e1565b5b9291505056fea26469706673582212207784128d3b0e3f6015901745f2e8be6f142eec7ad6767a3d8e635d7fb270d0c464736f6c63430008220033",
					"opcodes": "PUSH1 0x80 PUSH1 0x40 MSTORE CALLVALUE DUP1 ISZERO PUSH1 0xE JUMPI PUSH0 PUSH0 REVERT JUMPDEST POP PUSH2 0x863 DUP1 PUSH2 0x1C PUSH0 CODECOPY PUSH0 RETURN INVALID PUSH1 0x80 PUSH1 0x40 MSTORE PUSH1 0x4 CALLDATASIZE LT PUSH2 0x54 JUMPI PUSH0 CALLDATALOAD PUSH1 0xE0 SHR DUP1 PUSH4 0x700037D EQ PUSH2 0x58 JUMPI DUP1 PUSH4 0x27E235E3 EQ PUSH2 0x94 JUMPI DUP1 PUSH4 0x596C4BB4 EQ PUSH2 0xD0 JUMPI DUP1 PUSH4 0x6E47B938 EQ PUSH2 0xF8 JUMPI DUP1 PUSH4 0xAD7A672F EQ PUSH2 0x102 JUMPI DUP1 PUSH4 0xCC817673 EQ PUSH2 0x12C JUMPI JUMPDEST PUSH0 PUSH0 REVERT JUMPDEST CALLVALUE DUP1 ISZERO PUSH2 0x63 JUMPI PUSH0 PUSH0 REVERT JUMPDEST POP PUSH2 0x7E PUSH1 0x4 DUP1 CALLDATASIZE SUB DUP2 ADD SWAP1 PUSH2 0x79 SWAP2 SWAP1 PUSH2 0x503 JUMP JUMPDEST PUSH2 0x154 JUMP JUMPDEST PUSH1 0x40 MLOAD PUSH2 0x8B SWAP2 SWAP1 PUSH2 0x546 JUMP JUMPDEST PUSH1 0x40 MLOAD DUP1 SWAP2 SUB SWAP1 RETURN JUMPDEST CALLVALUE DUP1 ISZERO PUSH2 0x9F JUMPI PUSH0 PUSH0 REVERT JUMPDEST POP PUSH2 0xBA PUSH1 0x4 DUP1 CALLDATASIZE SUB DUP2 ADD SWAP1 PUSH2 0xB5 SWAP2 SWAP1 PUSH2 0x503 JUMP JUMPDEST PUSH2 0x169 JUMP JUMPDEST PUSH1 0x40 MLOAD PUSH2 0xC7 SWAP2 SWAP1 PUSH2 0x546 JUMP JUMPDEST PUSH1 0x40 MLOAD DUP1 SWAP2 SUB SWAP1 RETURN JUMPDEST CALLVALUE DUP1 ISZERO PUSH2 0xDB JUMPI PUSH0 PUSH0 REVERT JUMPDEST POP PUSH2 0xF6 PUSH1 0x4 DUP1 CALLDATASIZE SUB DUP2 ADD SWAP1 PUSH2 0xF1 SWAP2 SWAP1 PUSH2 0x589 JUMP JUMPDEST PUSH2 0x17D JUMP JUMPDEST STOP JUMPDEST PUSH2 0x100 PUSH2 0x25C JUMP JUMPDEST STOP JUMPDEST CALLVALUE DUP1 ISZERO PUSH2 0x10D JUMPI PUSH0 PUSH0 REVERT JUMPDEST POP PUSH2 0x116 PUSH2 0x30A JUMP JUMPDEST PUSH1 0x40 MLOAD PUSH2 0x123 SWAP2 SWAP1 PUSH2 0x546 JUMP JUMPDEST PUSH1 0x40 MLOAD DUP1 SWAP2 SUB SWAP1 RETURN JUMPDEST CALLVALUE DUP1 ISZERO PUSH2 0x137 JUMPI PUSH0 PUSH0 REVERT JUMPDEST POP PUSH2 0x152 PUSH1 0x4 DUP1 CALLDATASIZE SUB DUP2 ADD SWAP1 PUSH2 0x14D SWAP2 SWAP1 PUSH2 0x589 JUMP JUMPDEST PUSH2 0x310 JUMP JUMPDEST STOP JUMPDEST PUSH1 0x2 PUSH1 0x20 MSTORE DUP1 PUSH0 MSTORE PUSH1 0x40 PUSH0 KECCAK256 PUSH0 SWAP2 POP SWAP1 POP SLOAD DUP2 JUMP JUMPDEST PUSH0 PUSH1 0x20 MSTORE DUP1 PUSH0 MSTORE PUSH1 0x40 PUSH0 KECCAK256 PUSH0 SWAP2 POP SWAP1 POP SLOAD DUP2 JUMP JUMPDEST PUSH1 0xA PUSH0 PUSH0 CALLER PUSH20 0xFFFFFFFFFFFFFFFFFFFFFFFFFFFFFFFFFFFFFFFF AND PUSH20 0xFFFFFFFFFFFFFFFFFFFFFFFFFFFFFFFFFFFFFFFF AND DUP2 MSTORE PUSH1 0x20 ADD SWAP1 DUP2 MSTORE PUSH1 0x20 ADD PUSH0 KECCAK256 SLOAD PUSH2 0x1C6 SWAP2 SWAP1 PUSH2 0x60E JUMP JUMPDEST PUSH1 0x2 PUSH0 CALLER PUSH20 0xFFFFFFFFFFFFFFFFFFFFFFFFFFFFFFFFFFFFFFFF AND PUSH20 0xFFFFFFFFFFFFFFFFFFFFFFFFFFFFFFFFFFFFFFFF AND DUP2 MSTORE PUSH1 0x20 ADD SWAP1 DUP2 MSTORE PUSH1 0x20 ADD PUSH0 KECCAK256 DUP2 SWAP1 SSTORE POP DUP1 PUSH0 PUSH0 CALLER PUSH20 0xFFFFFFFFFFFFFFFFFFFFFFFFFFFFFFFFFFFFFFFF AND PUSH20 0xFFFFFFFFFFFFFFFFFFFFFFFFFFFFFFFFFFFFFFFF AND DUP2 MSTORE PUSH1 0x20 ADD SWAP1 DUP2 MSTORE PUSH1 0x20 ADD PUSH0 KECCAK256 PUSH0 DUP3 DUP3 SLOAD PUSH2 0x252 SWAP2 SWAP1 PUSH2 0x63E JUMP JUMPDEST SWAP3 POP POP DUP2 SWAP1 SSTORE POP POP JUMP JUMPDEST PUSH0 CALLVALUE GT PUSH2 0x29E JUMPI PUSH1 0x40 MLOAD PUSH32 0x8C379A000000000000000000000000000000000000000000000000000000000 DUP2 MSTORE PUSH1 0x4 ADD PUSH2 0x295 SWAP1 PUSH2 0x6CB JUMP JUMPDEST PUSH1 0x40 MLOAD DUP1 SWAP2 SUB SWAP1 REVERT JUMPDEST CALLVALUE PUSH0 PUSH0 CALLER PUSH20 0xFFFFFFFFFFFFFFFFFFFFFFFFFFFFFFFFFFFFFFFF AND PUSH20 0xFFFFFFFFFFFFFFFFFFFFFFFFFFFFFFFFFFFFFFFF AND DUP2 MSTORE PUSH1 0x20 ADD SWAP1 DUP2 MSTORE PUSH1 0x20 ADD PUSH0 KECCAK256 PUSH0 DUP3 DUP3 SLOAD PUSH2 0x2E9 SWAP2 SWAP1 PUSH2 0x63E JUMP JUMPDEST SWAP3 POP POP DUP2 SWAP1 SSTORE POP CALLVALUE PUSH1 0x1 PUSH0 DUP3 DUP3 SLOAD PUSH2 0x301 SWAP2 SWAP1 PUSH2 0x63E JUMP JUMPDEST SWAP3 POP POP DUP2 SWAP1 SSTORE POP JUMP JUMPDEST PUSH1 0x1 SLOAD DUP2 JUMP JUMPDEST DUP1 PUSH0 PUSH0 CALLER PUSH20 0xFFFFFFFFFFFFFFFFFFFFFFFFFFFFFFFFFFFFFFFF AND PUSH20 0xFFFFFFFFFFFFFFFFFFFFFFFFFFFFFFFFFFFFFFFF AND DUP2 MSTORE PUSH1 0x20 ADD SWAP1 DUP2 MSTORE PUSH1 0x20 ADD PUSH0 KECCAK256 SLOAD LT ISZERO PUSH2 0x38F JUMPI PUSH1 0x40 MLOAD PUSH32 0x8C379A000000000000000000000000000000000000000000000000000000000 DUP2 MSTORE PUSH1 0x4 ADD PUSH2 0x386 SWAP1 PUSH2 0x733 JUMP JUMPDEST PUSH1 0x40 MLOAD DUP1 SWAP2 SUB SWAP1 REVERT JUMPDEST PUSH0 CALLER PUSH20 0xFFFFFFFFFFFFFFFFFFFFFFFFFFFFFFFFFFFFFFFF AND DUP3 PUSH1 0x40 MLOAD PUSH2 0x3B4 SWAP1 PUSH2 0x77E JUMP JUMPDEST PUSH0 PUSH1 0x40 MLOAD DUP1 DUP4 SUB DUP2 DUP6 DUP8 GAS CALL SWAP3 POP POP POP RETURNDATASIZE DUP1 PUSH0 DUP2 EQ PUSH2 0x3EE JUMPI PUSH1 0x40 MLOAD SWAP2 POP PUSH1 0x1F NOT PUSH1 0x3F RETURNDATASIZE ADD AND DUP3 ADD PUSH1 0x40 MSTORE RETURNDATASIZE DUP3 MSTORE RETURNDATASIZE PUSH0 PUSH1 0x20 DUP5 ADD RETURNDATACOPY PUSH2 0x3F3 JUMP JUMPDEST PUSH1 0x60 SWAP2 POP JUMPDEST POP POP SWAP1 POP DUP1 PUSH2 0x437 JUMPI PUSH1 0x40 MLOAD PUSH32 0x8C379A000000000000000000000000000000000000000000000000000000000 DUP2 MSTORE PUSH1 0x4 ADD PUSH2 0x42E SWAP1 PUSH2 0x7DC JUMP JUMPDEST PUSH1 0x40 MLOAD DUP1 SWAP2 SUB SWAP1 REVERT JUMPDEST DUP2 PUSH0 PUSH0 CALLER PUSH20 0xFFFFFFFFFFFFFFFFFFFFFFFFFFFFFFFFFFFFFFFF AND PUSH20 0xFFFFFFFFFFFFFFFFFFFFFFFFFFFFFFFFFFFFFFFF AND DUP2 MSTORE PUSH1 0x20 ADD SWAP1 DUP2 MSTORE PUSH1 0x20 ADD PUSH0 KECCAK256 PUSH0 DUP3 DUP3 SLOAD PUSH2 0x482 SWAP2 SWAP1 PUSH2 0x7FA JUMP JUMPDEST SWAP3 POP POP DUP2 SWAP1 SSTORE POP DUP2 PUSH1 0x1 PUSH0 DUP3 DUP3 SLOAD PUSH2 0x49A SWAP2 SWAP1 PUSH2 0x7FA JUMP JUMPDEST SWAP3 POP POP DUP2 SWAP1 SSTORE POP POP POP JUMP JUMPDEST PUSH0 PUSH0 REVERT JUMPDEST PUSH0 PUSH20 0xFFFFFFFFFFFFFFFFFFFFFFFFFFFFFFFFFFFFFFFF DUP3 AND SWAP1 POP SWAP2 SWAP1 POP JUMP JUMPDEST PUSH0 PUSH2 0x4D2 DUP3 PUSH2 0x4A9 JUMP JUMPDEST SWAP1 POP SWAP2 SWAP1 POP JUMP JUMPDEST PUSH2 0x4E2 DUP2 PUSH2 0x4C8 JUMP JUMPDEST DUP2 EQ PUSH2 0x4EC JUMPI PUSH0 PUSH0 REVERT JUMPDEST POP JUMP JUMPDEST PUSH0 DUP2 CALLDATALOAD SWAP1 POP PUSH2 0x4FD DUP2 PUSH2 0x4D9 JUMP JUMPDEST SWAP3 SWAP2 POP POP JUMP JUMPDEST PUSH0 PUSH1 0x20 DUP3 DUP5 SUB SLT ISZERO PUSH2 0x518 JUMPI PUSH2 0x517 PUSH2 0x4A5 JUMP JUMPDEST JUMPDEST PUSH0 PUSH2 0x525 DUP5 DUP3 DUP6 ADD PUSH2 0x4EF JUMP JUMPDEST SWAP2 POP POP SWAP3 SWAP2 POP POP JUMP JUMPDEST PUSH0 DUP2 SWAP1 POP SWAP2 SWAP1 POP JUMP JUMPDEST PUSH2 0x540 DUP2 PUSH2 0x52E JUMP JUMPDEST DUP3 MSTORE POP POP JUMP JUMPDEST PUSH0 PUSH1 0x20 DUP3 ADD SWAP1 POP PUSH2 0x559 PUSH0 DUP4 ADD DUP5 PUSH2 0x537 JUMP JUMPDEST SWAP3 SWAP2 POP POP JUMP JUMPDEST PUSH2 0x568 DUP2 PUSH2 0x52E JUMP JUMPDEST DUP2 EQ PUSH2 0x572 JUMPI PUSH0 PUSH0 REVERT JUMPDEST POP JUMP JUMPDEST PUSH0 DUP2 CALLDATALOAD SWAP1 POP PUSH2 0x583 DUP2 PUSH2 0x55F JUMP JUMPDEST SWAP3 SWAP2 POP POP JUMP JUMPDEST PUSH0 PUSH1 0x20 DUP3 DUP5 SUB SLT ISZERO PUSH2 0x59E JUMPI PUSH2 0x59D PUSH2 0x4A5 JUMP JUMPDEST JUMPDEST PUSH0 PUSH2 0x5AB DUP5 DUP3 DUP6 ADD PUSH2 0x575 JUMP JUMPDEST SWAP2 POP POP SWAP3 SWAP2 POP POP JUMP JUMPDEST PUSH32 0x4E487B7100000000000000000000000000000000000000000000000000000000 PUSH0 MSTORE PUSH1 0x12 PUSH1 0x4 MSTORE PUSH1 0x24 PUSH0 REVERT JUMPDEST PUSH32 0x4E487B7100000000000000000000000000000000000000000000000000000000 PUSH0 MSTORE PUSH1 0x11 PUSH1 0x4 MSTORE PUSH1 0x24 PUSH0 REVERT JUMPDEST PUSH0 PUSH2 0x618 DUP3 PUSH2 0x52E JUMP JUMPDEST SWAP2 POP PUSH2 0x623 DUP4 PUSH2 0x52E JUMP JUMPDEST SWAP3 POP DUP3 PUSH2 0x633 JUMPI PUSH2 0x632 PUSH2 0x5B4 JUMP JUMPDEST JUMPDEST DUP3 DUP3 DIV SWAP1 POP SWAP3 SWAP2 POP POP JUMP JUMPDEST PUSH0 PUSH2 0x648 DUP3 PUSH2 0x52E JUMP JUMPDEST SWAP2 POP PUSH2 0x653 DUP4 PUSH2 0x52E JUMP JUMPDEST SWAP3 POP DUP3 DUP3 ADD SWAP1 POP DUP1 DUP3 GT ISZERO PUSH2 0x66B JUMPI PUSH2 0x66A PUSH2 0x5E1 JUMP JUMPDEST JUMPDEST SWAP3 SWAP2 POP POP JUMP JUMPDEST PUSH0 DUP3 DUP3 MSTORE PUSH1 0x20 DUP3 ADD SWAP1 POP SWAP3 SWAP2 POP POP JUMP JUMPDEST PUSH32 0x4E6F204554482073656E74000000000000000000000000000000000000000000 PUSH0 DUP3 ADD MSTORE POP JUMP JUMPDEST PUSH0 PUSH2 0x6B5 PUSH1 0xB DUP4 PUSH2 0x671 JUMP JUMPDEST SWAP2 POP PUSH2 0x6C0 DUP3 PUSH2 0x681 JUMP JUMPDEST PUSH1 0x20 DUP3 ADD SWAP1 POP SWAP2 SWAP1 POP JUMP JUMPDEST PUSH0 PUSH1 0x20 DUP3 ADD SWAP1 POP DUP2 DUP2 SUB PUSH0 DUP4 ADD MSTORE PUSH2 0x6E2 DUP2 PUSH2 0x6A9 JUMP JUMPDEST SWAP1 POP SWAP2 SWAP1 POP JUMP JUMPDEST PUSH32 0x496E73756666696369656E742062616C616E6365000000000000000000000000 PUSH0 DUP3 ADD MSTORE POP JUMP JUMPDEST PUSH0 PUSH2 0x71D PUSH1 0x14 DUP4 PUSH2 0x671 JUMP JUMPDEST SWAP2 POP PUSH2 0x728 DUP3 PUSH2 0x6E9 JUMP JUMPDEST PUSH1 0x20 DUP3 ADD SWAP1 POP SWAP2 SWAP1 POP JUMP JUMPDEST PUSH0 PUSH1 0x20 DUP3 ADD SWAP1 POP DUP2 DUP2 SUB PUSH0 DUP4 ADD MSTORE PUSH2 0x74A DUP2 PUSH2 0x711 JUMP JUMPDEST SWAP1 POP SWAP2 SWAP1 POP JUMP JUMPDEST PUSH0 DUP2 SWAP1 POP SWAP3 SWAP2 POP POP JUMP JUMPDEST POP JUMP JUMPDEST PUSH0 PUSH2 0x769 PUSH0 DUP4 PUSH2 0x751 JUMP JUMPDEST SWAP2 POP PUSH2 0x774 DUP3 PUSH2 0x75B JUMP JUMPDEST PUSH0 DUP3 ADD SWAP1 POP SWAP2 SWAP1 POP JUMP JUMPDEST PUSH0 PUSH2 0x788 DUP3 PUSH2 0x75E JUMP JUMPDEST SWAP2 POP DUP2 SWAP1 POP SWAP2 SWAP1 POP JUMP JUMPDEST PUSH32 0x5472616E73666572206661696C65640000000000000000000000000000000000 PUSH0 DUP3 ADD MSTORE POP JUMP JUMPDEST PUSH0 PUSH2 0x7C6 PUSH1 0xF DUP4 PUSH2 0x671 JUMP JUMPDEST SWAP2 POP PUSH2 0x7D1 DUP3 PUSH2 0x792 JUMP JUMPDEST PUSH1 0x20 DUP3 ADD SWAP1 POP SWAP2 SWAP1 POP JUMP JUMPDEST PUSH0 PUSH1 0x20 DUP3 ADD SWAP1 POP DUP2 DUP2 SUB PUSH0 DUP4 ADD MSTORE PUSH2 0x7F3 DUP2 PUSH2 0x7BA JUMP JUMPDEST SWAP1 POP SWAP2 SWAP1 POP JUMP JUMPDEST PUSH0 PUSH2 0x804 DUP3 PUSH2 0x52E JUMP JUMPDEST SWAP2 POP PUSH2 0x80F DUP4 PUSH2 0x52E JUMP JUMPDEST SWAP3 POP DUP3 DUP3 SUB SWAP1 POP DUP2 DUP2 GT ISZERO PUSH2 0x827 JUMPI PUSH2 0x826 PUSH2 0x5E1 JUMP JUMPDEST JUMPDEST SWAP3 SWAP2 POP POP JUMP INVALID LOG2 PUSH5 0x6970667358 0x22 SLT KECCAK256 PUSH24 0x84128D3B0E3F6015901745F2E8BE6F142EEC7AD6767A3D8E PUSH4 0x5D7FB270 0xD0 0xC4 PUSH5 0x736F6C6343 STOP ADDMOD 0x22 STOP CALLER "
				},
				"gasEstimates": {
					"creation": {
						"codeDepositCost": "429400",
						"executionCost": "466",
						"totalCost": "429866"
					},
					"external": {
						"badRewardUpdate(uint256)": "infinite",
						"balances(address)": "2801",
						"rewards(address)": "2780",
						"safeDeposit()": "infinite",
						"totalBalance()": "2491",
						"vulnerableWithdraw(uint256)": "infinite"
					}
				},
				"methodIdentifiers": {
					"badRewardUpdate(uint256)": "596c4bb4",
					"balances(address)": "27e235e3",
					"rewards(address)": "0700037d",
					"safeDeposit()": "6e47b938",
					"totalBalance()": "ad7a672f",
					"vulnerableWithdraw(uint256)": "cc817673"
				}
			},
			"storageLayout": {
				"storage": [
					{
						"astId": 5,
						"contract": "prac49.sol:ReorderLogicVul",
						"label": "balances",
						"offset": 0,
						"slot": "0",
						"type": "t_mapping(t_address,t_uint256)"
					},
					{
						"astId": 7,
						"contract": "prac49.sol:ReorderLogicVul",
						"label": "totalBalance",
						"offset": 0,
						"slot": "1",
						"type": "t_uint256"
					},
					{
						"astId": 11,
						"contract": "prac49.sol:ReorderLogicVul",
						"label": "rewards",
						"offset": 0,
						"slot": "2",
						"type": "t_mapping(t_address,t_uint256)"
					}
				],
				"types": {
					"t_address": {
						"encoding": "inplace",
						"label": "address",
						"numberOfBytes": "20"
					},
					"t_mapping(t_address,t_uint256)": {
						"encoding": "mapping",
						"key": "t_address",
						"label": "mapping(address => uint256)",
						"numberOfBytes": "32",
						"value": "t_uint256"
					},
					"t_uint256": {
						"encoding": "inplace",
						"label": "uint256",
						"numberOfBytes": "32"
					}
				}
			},
			"userdoc": {
				"kind": "user",
				"methods": {},
				"version": 1
			}
		}
	}
}