{
	"prac49.sol": {
		"ReorderLogic": {
			"abi": [
				{
					"inputs": [
						{
							"internalType": "address",
							"name": "",
							"type": "address"
						}
					],
					"name": "balances",
					"outputs": [
						{
							"internalType": "uint256",
							"name": "",
							"type": "uint256"
						}
					],
					"stateMutability": "view",
					"type": "function"
				},
				{
					"inputs": [
						{
							"internalType": "uint256",
							"name": "_deposit",
							"type": "uint256"
						}
					],
					"name": "rewardUpdate",
					"outputs": [],
					"stateMutability": "nonpayable",
					"type": "function"
				},
				{
					"inputs": [
						{
							"internalType": "address",
							"name": "",
							"type": "address"
						}
					],
					"name": "rewards",
					"outputs": [
						{
							"internalType": "uint256",
							"name": "",
							"type": "uint256"
						}
					],
					"stateMutability": "view",
					"type": "function"
				},
				{
					"inputs": [],
					"name": "safeDeposit",
					"outputs": [],
					"stateMutability": "payable",
					"type": "function"
				},
				{
					"inputs": [],
					"name": "totalBalance",
					"outputs": [
						{
							"internalType": "uint256",
							"name": "",
							"type": "uint256"
						}
					],
					"stateMutability": "view",
					"type": "function"
				},
				{
					"inputs": [
						{
							"internalType": "uint256",
							"name": "_amount",
							"type": "uint256"
						}
					],
					"name": "withdraw",
					"outputs": [],
					"stateMutability": "nonpayable",
					"type": "function"
				}
			],
			"devdoc": {
				"kind": "dev",
				"methods": {},
				"version": 1
			},
			"evm": {
				"assembly": "    /* \"prac49.sol\":12647:14591  contract ReorderLogic {... */\n  mstore(0x40, 0x80)\n  callvalue\n  dup1\n  iszero\n  tag_1\n  jumpi\n  revert(0x00, 0x00)\ntag_1:\n  pop\n  dataSize(sub_0)\n  dup1\n  dataOffset(sub_0)\n  0x00\n  codecopy\n  0x00\n  return\nstop\n\nsub_0: assembly {\n        /* \"prac49.sol\":12647:14591  contract ReorderLogic {... */\n      mstore(0x40, 0x80)\n      jumpi(tag_1, lt(calldatasize, 0x04))\n      shr(0xe0, calldataload(0x00))\n      dup1\n      0x0700037d\n      eq\n      tag_2\n      jumpi\n      dup1\n      0x27e235e3\n      eq\n      tag_3\n      jumpi\n      dup1\n      0x2e1a7d4d\n      eq\n      tag_4\n      jumpi\n      dup1\n      0x3d479cd5\n      eq\n      tag_5\n      jumpi\n      dup1\n      0x6e47b938\n      eq\n      tag_6\n      jumpi\n      dup1\n      0xad7a672f\n      eq\n      tag_7\n      jumpi\n    tag_1:\n      revert(0x00, 0x00)\n        /* \"prac49.sol\":12762:12804  mapping(address => uint256) public rewards */\n    tag_2:\n      callvalue\n      dup1\n      iszero\n      tag_8\n      jumpi\n      revert(0x00, 0x00)\n    tag_8:\n      pop\n      tag_9\n      0x04\n      dup1\n      calldatasize\n      sub\n      dup2\n      add\n      swap1\n      tag_10\n      swap2\n      swap1\n      tag_11\n      jump\t// in\n    tag_10:\n      tag_12\n      jump\t// in\n    tag_9:\n      mload(0x40)\n      tag_13\n      swap2\n      swap1\n      tag_14\n      jump\t// in\n    tag_13:\n      mload(0x40)\n      dup1\n      swap2\n      sub\n      swap1\n      return\n        /* \"prac49.sol\":12678:12721  mapping(address => uint256) public balances */\n    tag_3:\n      callvalue\n      dup1\n      iszero\n      tag_15\n      jumpi\n      revert(0x00, 0x00)\n    tag_15:\n      pop\n      tag_16\n      0x04\n      dup1\n      calldatasize\n      sub\n      dup2\n      add\n      swap1\n      tag_17\n      swap2\n      swap1\n      tag_11\n      jump\t// in\n    tag_17:\n      tag_18\n      jump\t// in\n    tag_16:\n      mload(0x40)\n      tag_19\n      swap2\n      swap1\n      tag_14\n      jump\t// in\n    tag_19:\n      mload(0x40)\n      dup1\n      swap2\n      sub\n      swap1\n      return\n        /* \"prac49.sol\":13486:14091  function withdraw(... */\n    tag_4:\n      callvalue\n      dup1\n      iszero\n      tag_20\n      jumpi\n      revert(0x00, 0x00)\n    tag_20:\n      pop\n      tag_21\n      0x04\n      dup1\n      calldatasize\n      sub\n      dup2\n      add\n      swap1\n      tag_22\n      swap2\n      swap1\n      tag_23\n      jump\t// in\n    tag_22:\n      tag_24\n      jump\t// in\n    tag_21:\n      stop\n        /* \"prac49.sol\":14261:14588  function rewardUpdate(... */\n    tag_5:\n      callvalue\n      dup1\n      iszero\n      tag_25\n      jumpi\n      revert(0x00, 0x00)\n    tag_25:\n      pop\n      tag_26\n      0x04\n      dup1\n      calldatasize\n      sub\n      dup2\n      add\n      swap1\n      tag_27\n      swap2\n      swap1\n      tag_23\n      jump\t// in\n    tag_27:\n      tag_28\n      jump\t// in\n    tag_26:\n      stop\n        /* \"prac49.sol\":13030:13268  function safeDeposit()... */\n    tag_6:\n      tag_29\n      tag_30\n      jump\t// in\n    tag_29:\n      stop\n        /* \"prac49.sol\":12728:12755  uint256 public totalBalance */\n    tag_7:\n      callvalue\n      dup1\n      iszero\n      tag_31\n      jumpi\n      revert(0x00, 0x00)\n    tag_31:\n      pop\n      tag_32\n      tag_33\n      jump\t// in\n    tag_32:\n      mload(0x40)\n      tag_34\n      swap2\n      swap1\n      tag_14\n      jump\t// in\n    tag_34:\n      mload(0x40)\n      dup1\n      swap2\n      sub\n      swap1\n      return\n        /* \"prac49.sol\":12762:12804  mapping(address => uint256) public rewards */\n    tag_12:\n      mstore(0x20, 0x02)\n      dup1\n      0x00\n      mstore\n      keccak256(0x00, 0x40)\n      0x00\n      swap2\n      pop\n      swap1\n      pop\n      sload\n      dup2\n      jump\t// out\n        /* \"prac49.sol\":12678:12721  mapping(address => uint256) public balances */\n    tag_18:\n      mstore(0x20, 0x00)\n      dup1\n      0x00\n      mstore\n      keccak256(0x00, 0x40)\n      0x00\n      swap2\n      pop\n      swap1\n      pop\n      sload\n      dup2\n      jump\t// out\n        /* \"prac49.sol\":13486:14091  function withdraw(... */\n    tag_24:\n        /* \"prac49.sol\":12899:12905  locked */\n      0x03\n      0x00\n      swap1\n      sload\n      swap1\n      0x0100\n      exp\n      swap1\n      div\n      0xff\n      and\n        /* \"prac49.sol\":12898:12905  !locked */\n      iszero\n        /* \"prac49.sol\":12876:12947  require(... */\n      tag_36\n      jumpi\n      mload(0x40)\n      0x08c379a000000000000000000000000000000000000000000000000000000000\n      dup2\n      mstore\n      0x04\n      add\n      tag_37\n      swap1\n      tag_38\n      jump\t// in\n    tag_37:\n      mload(0x40)\n      dup1\n      swap2\n      sub\n      swap1\n      revert\n    tag_36:\n        /* \"prac49.sol\":12969:12973  true */\n      0x01\n        /* \"prac49.sol\":12960:12966  locked */\n      0x03\n      0x00\n        /* \"prac49.sol\":12960:12973  locked = true */\n      0x0100\n      exp\n      dup2\n      sload\n      dup2\n      0xff\n      mul\n      not\n      and\n      swap1\n      dup4\n      iszero\n      iszero\n      mul\n      or\n      swap1\n      sstore\n      pop\n        /* \"prac49.sol\":13639:13646  _amount */\n      dup1\n        /* \"prac49.sol\":13615:13623  balances */\n      0x00\n        /* \"prac49.sol\":13615:13635  balances[msg.sender] */\n      0x00\n        /* \"prac49.sol\":13624:13634  msg.sender */\n      caller\n        /* \"prac49.sol\":13615:13635  balances[msg.sender] */\n      0xffffffffffffffffffffffffffffffffffffffff\n      and\n      0xffffffffffffffffffffffffffffffffffffffff\n      and\n      dup2\n      mstore\n      0x20\n      add\n      swap1\n      dup2\n      mstore\n      0x20\n      add\n      0x00\n      keccak256\n      sload\n        /* \"prac49.sol\":13615:13646  balances[msg.sender] >= _amount */\n      lt\n      iszero\n        /* \"prac49.sol\":13593:13694  require(... */\n      tag_40\n      jumpi\n      mload(0x40)\n      0x08c379a000000000000000000000000000000000000000000000000000000000\n      dup2\n      mstore\n      0x04\n      add\n      tag_41\n      swap1\n      tag_42\n      jump\t// in\n    tag_41:\n      mload(0x40)\n      dup1\n      swap2\n      sub\n      swap1\n      revert\n    tag_40:\n        /* \"prac49.sol\":13782:13789  _amount */\n      dup1\n        /* \"prac49.sol\":13758:13766  balances */\n      0x00\n        /* \"prac49.sol\":13758:13778  balances[msg.sender] */\n      0x00\n        /* \"prac49.sol\":13767:13777  msg.sender */\n      caller\n        /* \"prac49.sol\":13758:13778  balances[msg.sender] */\n      0xffffffffffffffffffffffffffffffffffffffff\n      and\n      0xffffffffffffffffffffffffffffffffffffffff\n      and\n      dup2\n      mstore\n      0x20\n      add\n      swap1\n      dup2\n      mstore\n      0x20\n      add\n      0x00\n      keccak256\n      0x00\n        /* \"prac49.sol\":13758:13789  balances[msg.sender] -= _amount */\n      dup3\n      dup3\n      sload\n      tag_43\n      swap2\n      swap1\n      tag_44\n      jump\t// in\n    tag_43:\n      swap3\n      pop\n      pop\n      dup2\n      swap1\n      sstore\n      pop\n        /* \"prac49.sol\":13816:13823  _amount */\n      dup1\n        /* \"prac49.sol\":13800:13812  totalBalance */\n      0x01\n      0x00\n        /* \"prac49.sol\":13800:13823  totalBalance -= _amount */\n      dup3\n      dup3\n      sload\n      tag_45\n      swap2\n      swap1\n      tag_44\n      jump\t// in\n    tag_45:\n      swap3\n      pop\n      pop\n      dup2\n      swap1\n      sstore\n      pop\n        /* \"prac49.sol\":13891:13903  bool success */\n      0x00\n        /* \"prac49.sol\":13930:13940  msg.sender */\n      caller\n        /* \"prac49.sol\":13922:13946  payable(msg.sender).call */\n      0xffffffffffffffffffffffffffffffffffffffff\n      and\n        /* \"prac49.sol\":13972:13979  _amount */\n      dup3\n        /* \"prac49.sol\":13922:13998  payable(msg.sender).call{... */\n      mload(0x40)\n      tag_46\n      swap1\n      tag_47\n      jump\t// in\n    tag_46:\n      0x00\n      mload(0x40)\n      dup1\n      dup4\n      sub\n      dup2\n      dup6\n      dup8\n      gas\n      call\n      swap3\n      pop\n      pop\n      pop\n      returndatasize\n      dup1\n      0x00\n      dup2\n      eq\n      tag_50\n      jumpi\n      mload(0x40)\n      swap2\n      pop\n      and(add(returndatasize, 0x3f), not(0x1f))\n      dup3\n      add\n      0x40\n      mstore\n      returndatasize\n      dup3\n      mstore\n      returndatasize\n      0x00\n      0x20\n      dup5\n      add\n      returndatacopy\n      jump(tag_49)\n    tag_50:\n      0x60\n      swap2\n      pop\n    tag_49:\n      pop\n        /* \"prac49.sol\":13890:13998  (bool success, ) =... */\n      pop\n      swap1\n      pop\n        /* \"prac49.sol\":14033:14040  success */\n      dup1\n        /* \"prac49.sol\":14011:14083  require(... */\n      tag_51\n      jumpi\n      mload(0x40)\n      0x08c379a000000000000000000000000000000000000000000000000000000000\n      dup2\n      mstore\n      0x04\n      add\n      tag_52\n      swap1\n      tag_53\n      jump\t// in\n    tag_52:\n      mload(0x40)\n      dup1\n      swap2\n      sub\n      swap1\n      revert\n    tag_51:\n        /* \"prac49.sol\":13582:14091  {... */\n      pop\n        /* \"prac49.sol\":13009:13014  false */\n      0x00\n        /* \"prac49.sol\":13000:13006  locked */\n      0x03\n      0x00\n        /* \"prac49.sol\":13000:13014  locked = false */\n      0x0100\n      exp\n      dup2\n      sload\n      dup2\n      0xff\n      mul\n      not\n      and\n      swap1\n      dup4\n      iszero\n      iszero\n      mul\n      or\n      swap1\n      sstore\n      pop\n        /* \"prac49.sol\":13486:14091  function withdraw(... */\n      pop\n      jump\t// out\n        /* \"prac49.sol\":14261:14588  function rewardUpdate(... */\n    tag_28:\n        /* \"prac49.sol\":14434:14442  _deposit */\n      dup1\n        /* \"prac49.sol\":14410:14418  balances */\n      0x00\n        /* \"prac49.sol\":14410:14430  balances[msg.sender] */\n      0x00\n        /* \"prac49.sol\":14419:14429  msg.sender */\n      caller\n        /* \"prac49.sol\":14410:14430  balances[msg.sender] */\n      0xffffffffffffffffffffffffffffffffffffffff\n      and\n      0xffffffffffffffffffffffffffffffffffffffff\n      and\n      dup2\n      mstore\n      0x20\n      add\n      swap1\n      dup2\n      mstore\n      0x20\n      add\n      0x00\n      keccak256\n      0x00\n        /* \"prac49.sol\":14410:14442  balances[msg.sender] += _deposit */\n      dup3\n      dup3\n      sload\n      tag_55\n      swap2\n      swap1\n      tag_56\n      jump\t// in\n    tag_55:\n      swap3\n      pop\n      pop\n      dup2\n      swap1\n      sstore\n      pop\n        /* \"prac49.sol\":14578:14580  10 */\n      0x0a\n        /* \"prac49.sol\":14555:14563  balances */\n      0x00\n        /* \"prac49.sol\":14555:14575  balances[msg.sender] */\n      0x00\n        /* \"prac49.sol\":14564:14574  msg.sender */\n      caller\n        /* \"prac49.sol\":14555:14575  balances[msg.sender] */\n      0xffffffffffffffffffffffffffffffffffffffff\n      and\n      0xffffffffffffffffffffffffffffffffffffffff\n      and\n      dup2\n      mstore\n      0x20\n      add\n      swap1\n      dup2\n      mstore\n      0x20\n      add\n      0x00\n      keccak256\n      sload\n        /* \"prac49.sol\":14555:14580  balances[msg.sender] / 10 */\n      tag_57\n      swap2\n      swap1\n      tag_58\n      jump\t// in\n    tag_57:\n        /* \"prac49.sol\":14520:14527  rewards */\n      0x02\n        /* \"prac49.sol\":14520:14539  rewards[msg.sender] */\n      0x00\n        /* \"prac49.sol\":14528:14538  msg.sender */\n      caller\n        /* \"prac49.sol\":14520:14539  rewards[msg.sender] */\n      0xffffffffffffffffffffffffffffffffffffffff\n      and\n      0xffffffffffffffffffffffffffffffffffffffff\n      and\n      dup2\n      mstore\n      0x20\n      add\n      swap1\n      dup2\n      mstore\n      0x20\n      add\n      0x00\n      keccak256\n        /* \"prac49.sol\":14520:14580  rewards[msg.sender] =... */\n      dup2\n      swap1\n      sstore\n      pop\n        /* \"prac49.sol\":14261:14588  function rewardUpdate(... */\n      pop\n      jump\t// out\n        /* \"prac49.sol\":13030:13268  function safeDeposit()... */\n    tag_30:\n        /* \"prac49.sol\":13138:13139  0 */\n      0x00\n        /* \"prac49.sol\":13126:13135  msg.value */\n      callvalue\n        /* \"prac49.sol\":13126:13139  msg.value > 0 */\n      gt\n        /* \"prac49.sol\":13104:13178  require(... */\n      tag_60\n      jumpi\n      mload(0x40)\n      0x08c379a000000000000000000000000000000000000000000000000000000000\n      dup2\n      mstore\n      0x04\n      add\n      tag_61\n      swap1\n      tag_62\n      jump\t// in\n    tag_61:\n      mload(0x40)\n      dup1\n      swap2\n      sub\n      swap1\n      revert\n    tag_60:\n        /* \"prac49.sol\":13215:13224  msg.value */\n      callvalue\n        /* \"prac49.sol\":13191:13199  balances */\n      0x00\n        /* \"prac49.sol\":13191:13211  balances[msg.sender] */\n      0x00\n        /* \"prac49.sol\":13200:13210  msg.sender */\n      caller\n        /* \"prac49.sol\":13191:13211  balances[msg.sender] */\n      0xffffffffffffffffffffffffffffffffffffffff\n      and\n      0xffffffffffffffffffffffffffffffffffffffff\n      and\n      dup2\n      mstore\n      0x20\n      add\n      swap1\n      dup2\n      mstore\n      0x20\n      add\n      0x00\n      keccak256\n      0x00\n        /* \"prac49.sol\":13191:13224  balances[msg.sender] += msg.value */\n      dup3\n      dup3\n      sload\n      tag_63\n      swap2\n      swap1\n      tag_56\n      jump\t// in\n    tag_63:\n      swap3\n      pop\n      pop\n      dup2\n      swap1\n      sstore\n      pop\n        /* \"prac49.sol\":13251:13260  msg.value */\n      callvalue\n        /* \"prac49.sol\":13235:13247  totalBalance */\n      0x01\n      0x00\n        /* \"prac49.sol\":13235:13260  totalBalance += msg.value */\n      dup3\n      dup3\n      sload\n      tag_64\n      swap2\n      swap1\n      tag_56\n      jump\t// in\n    tag_64:\n      swap3\n      pop\n      pop\n      dup2\n      swap1\n      sstore\n      pop\n        /* \"prac49.sol\":13030:13268  function safeDeposit()... */\n      jump\t// out\n        /* \"prac49.sol\":12728:12755  uint256 public totalBalance */\n    tag_33:\n      sload(0x01)\n      dup2\n      jump\t// out\n        /* \"#utility.yul\":88:205   */\n    tag_66:\n        /* \"#utility.yul\":197:198   */\n      0x00\n        /* \"#utility.yul\":194:195   */\n      0x00\n        /* \"#utility.yul\":187:199   */\n      revert\n        /* \"#utility.yul\":334:460   */\n    tag_68:\n        /* \"#utility.yul\":371:378   */\n      0x00\n        /* \"#utility.yul\":411:453   */\n      0xffffffffffffffffffffffffffffffffffffffff\n        /* \"#utility.yul\":404:409   */\n      dup3\n        /* \"#utility.yul\":400:454   */\n      and\n        /* \"#utility.yul\":389:454   */\n      swap1\n      pop\n        /* \"#utility.yul\":334:460   */\n      swap2\n      swap1\n      pop\n      jump\t// out\n        /* \"#utility.yul\":466:562   */\n    tag_69:\n        /* \"#utility.yul\":503:510   */\n      0x00\n        /* \"#utility.yul\":532:556   */\n      tag_96\n        /* \"#utility.yul\":550:555   */\n      dup3\n        /* \"#utility.yul\":532:556   */\n      tag_68\n      jump\t// in\n    tag_96:\n        /* \"#utility.yul\":521:556   */\n      swap1\n      pop\n        /* \"#utility.yul\":466:562   */\n      swap2\n      swap1\n      pop\n      jump\t// out\n        /* \"#utility.yul\":568:690   */\n    tag_70:\n        /* \"#utility.yul\":641:665   */\n      tag_98\n        /* \"#utility.yul\":659:664   */\n      dup2\n        /* \"#utility.yul\":641:665   */\n      tag_69\n      jump\t// in\n    tag_98:\n        /* \"#utility.yul\":634:639   */\n      dup2\n        /* \"#utility.yul\":631:666   */\n      eq\n        /* \"#utility.yul\":621:684   */\n      tag_99\n      jumpi\n        /* \"#utility.yul\":680:681   */\n      0x00\n        /* \"#utility.yul\":677:678   */\n      0x00\n        /* \"#utility.yul\":670:682   */\n      revert\n        /* \"#utility.yul\":621:684   */\n    tag_99:\n        /* \"#utility.yul\":568:690   */\n      pop\n      jump\t// out\n        /* \"#utility.yul\":696:835   */\n    tag_71:\n        /* \"#utility.yul\":742:747   */\n      0x00\n        /* \"#utility.yul\":780:786   */\n      dup2\n        /* \"#utility.yul\":767:787   */\n      calldataload\n        /* \"#utility.yul\":758:787   */\n      swap1\n      pop\n        /* \"#utility.yul\":796:829   */\n      tag_101\n        /* \"#utility.yul\":823:828   */\n      dup2\n        /* \"#utility.yul\":796:829   */\n      tag_70\n      jump\t// in\n    tag_101:\n        /* \"#utility.yul\":696:835   */\n      swap3\n      swap2\n      pop\n      pop\n      jump\t// out\n        /* \"#utility.yul\":841:1170   */\n    tag_11:\n        /* \"#utility.yul\":900:906   */\n      0x00\n        /* \"#utility.yul\":949:951   */\n      0x20\n        /* \"#utility.yul\":937:946   */\n      dup3\n        /* \"#utility.yul\":928:935   */\n      dup5\n        /* \"#utility.yul\":924:947   */\n      sub\n        /* \"#utility.yul\":920:952   */\n      slt\n        /* \"#utility.yul\":917:1036   */\n      iszero\n      tag_103\n      jumpi\n        /* \"#utility.yul\":955:1034   */\n      tag_104\n      tag_66\n      jump\t// in\n    tag_104:\n        /* \"#utility.yul\":917:1036   */\n    tag_103:\n        /* \"#utility.yul\":1075:1076   */\n      0x00\n        /* \"#utility.yul\":1100:1153   */\n      tag_105\n        /* \"#utility.yul\":1145:1152   */\n      dup5\n        /* \"#utility.yul\":1136:1142   */\n      dup3\n        /* \"#utility.yul\":1125:1134   */\n      dup6\n        /* \"#utility.yul\":1121:1143   */\n      add\n        /* \"#utility.yul\":1100:1153   */\n      tag_71\n      jump\t// in\n    tag_105:\n        /* \"#utility.yul\":1090:1153   */\n      swap2\n      pop\n        /* \"#utility.yul\":1046:1163   */\n      pop\n        /* \"#utility.yul\":841:1170   */\n      swap3\n      swap2\n      pop\n      pop\n      jump\t// out\n        /* \"#utility.yul\":1176:1253   */\n    tag_72:\n        /* \"#utility.yul\":1213:1220   */\n      0x00\n        /* \"#utility.yul\":1242:1247   */\n      dup2\n        /* \"#utility.yul\":1231:1247   */\n      swap1\n      pop\n        /* \"#utility.yul\":1176:1253   */\n      swap2\n      swap1\n      pop\n      jump\t// out\n        /* \"#utility.yul\":1259:1377   */\n    tag_73:\n        /* \"#utility.yul\":1346:1370   */\n      tag_108\n        /* \"#utility.yul\":1364:1369   */\n      dup2\n        /* \"#utility.yul\":1346:1370   */\n      tag_72\n      jump\t// in\n    tag_108:\n        /* \"#utility.yul\":1341:1344   */\n      dup3\n        /* \"#utility.yul\":1334:1371   */\n      mstore\n        /* \"#utility.yul\":1259:1377   */\n      pop\n      pop\n      jump\t// out\n        /* \"#utility.yul\":1383:1605   */\n    tag_14:\n        /* \"#utility.yul\":1476:1480   */\n      0x00\n        /* \"#utility.yul\":1514:1516   */\n      0x20\n        /* \"#utility.yul\":1503:1512   */\n      dup3\n        /* \"#utility.yul\":1499:1517   */\n      add\n        /* \"#utility.yul\":1491:1517   */\n      swap1\n      pop\n        /* \"#utility.yul\":1527:1598   */\n      tag_110\n        /* \"#utility.yul\":1595:1596   */\n      0x00\n        /* \"#utility.yul\":1584:1593   */\n      dup4\n        /* \"#utility.yul\":1580:1597   */\n      add\n        /* \"#utility.yul\":1571:1577   */\n      dup5\n        /* \"#utility.yul\":1527:1598   */\n      tag_73\n      jump\t// in\n    tag_110:\n        /* \"#utility.yul\":1383:1605   */\n      swap3\n      swap2\n      pop\n      pop\n      jump\t// out\n        /* \"#utility.yul\":1611:1733   */\n    tag_74:\n        /* \"#utility.yul\":1684:1708   */\n      tag_112\n        /* \"#utility.yul\":1702:1707   */\n      dup2\n        /* \"#utility.yul\":1684:1708   */\n      tag_72\n      jump\t// in\n    tag_112:\n        /* \"#utility.yul\":1677:1682   */\n      dup2\n        /* \"#utility.yul\":1674:1709   */\n      eq\n        /* \"#utility.yul\":1664:1727   */\n      tag_113\n      jumpi\n        /* \"#utility.yul\":1723:1724   */\n      0x00\n        /* \"#utility.yul\":1720:1721   */\n      0x00\n        /* \"#utility.yul\":1713:1725   */\n      revert\n        /* \"#utility.yul\":1664:1727   */\n    tag_113:\n        /* \"#utility.yul\":1611:1733   */\n      pop\n      jump\t// out\n        /* \"#utility.yul\":1739:1878   */\n    tag_75:\n        /* \"#utility.yul\":1785:1790   */\n      0x00\n        /* \"#utility.yul\":1823:1829   */\n      dup2\n        /* \"#utility.yul\":1810:1830   */\n      calldataload\n        /* \"#utility.yul\":1801:1830   */\n      swap1\n      pop\n        /* \"#utility.yul\":1839:1872   */\n      tag_115\n        /* \"#utility.yul\":1866:1871   */\n      dup2\n        /* \"#utility.yul\":1839:1872   */\n      tag_74\n      jump\t// in\n    tag_115:\n        /* \"#utility.yul\":1739:1878   */\n      swap3\n      swap2\n      pop\n      pop\n      jump\t// out\n        /* \"#utility.yul\":1884:2213   */\n    tag_23:\n        /* \"#utility.yul\":1943:1949   */\n      0x00\n        /* \"#utility.yul\":1992:1994   */\n      0x20\n        /* \"#utility.yul\":1980:1989   */\n      dup3\n        /* \"#utility.yul\":1971:1978   */\n      dup5\n        /* \"#utility.yul\":1967:1990   */\n      sub\n        /* \"#utility.yul\":1963:1995   */\n      slt\n        /* \"#utility.yul\":1960:2079   */\n      iszero\n      tag_117\n      jumpi\n        /* \"#utility.yul\":1998:2077   */\n      tag_118\n      tag_66\n      jump\t// in\n    tag_118:\n        /* \"#utility.yul\":1960:2079   */\n    tag_117:\n        /* \"#utility.yul\":2118:2119   */\n      0x00\n        /* \"#utility.yul\":2143:2196   */\n      tag_119\n        /* \"#utility.yul\":2188:2195   */\n      dup5\n        /* \"#utility.yul\":2179:2185   */\n      dup3\n        /* \"#utility.yul\":2168:2177   */\n      dup6\n        /* \"#utility.yul\":2164:2186   */\n      add\n        /* \"#utility.yul\":2143:2196   */\n      tag_75\n      jump\t// in\n    tag_119:\n        /* \"#utility.yul\":2133:2196   */\n      swap2\n      pop\n        /* \"#utility.yul\":2089:2206   */\n      pop\n        /* \"#utility.yul\":1884:2213   */\n      swap3\n      swap2\n      pop\n      pop\n      jump\t// out\n        /* \"#utility.yul\":2219:2388   */\n    tag_76:\n        /* \"#utility.yul\":2303:2314   */\n      0x00\n        /* \"#utility.yul\":2337:2343   */\n      dup3\n        /* \"#utility.yul\":2332:2335   */\n      dup3\n        /* \"#utility.yul\":2325:2344   */\n      mstore\n        /* \"#utility.yul\":2377:2381   */\n      0x20\n        /* \"#utility.yul\":2372:2375   */\n      dup3\n        /* \"#utility.yul\":2368:2382   */\n      add\n        /* \"#utility.yul\":2353:2382   */\n      swap1\n      pop\n        /* \"#utility.yul\":2219:2388   */\n      swap3\n      swap2\n      pop\n      pop\n      jump\t// out\n        /* \"#utility.yul\":2394:2558   */\n    tag_77:\n        /* \"#utility.yul\":2534:2550   */\n      0x5265656e7472616e742063616c6c000000000000000000000000000000000000\n        /* \"#utility.yul\":2530:2531   */\n      0x00\n        /* \"#utility.yul\":2522:2528   */\n      dup3\n        /* \"#utility.yul\":2518:2532   */\n      add\n        /* \"#utility.yul\":2511:2551   */\n      mstore\n        /* \"#utility.yul\":2394:2558   */\n      pop\n      jump\t// out\n        /* \"#utility.yul\":2564:2930   */\n    tag_78:\n        /* \"#utility.yul\":2706:2709   */\n      0x00\n        /* \"#utility.yul\":2727:2794   */\n      tag_123\n        /* \"#utility.yul\":2791:2793   */\n      0x0e\n        /* \"#utility.yul\":2786:2789   */\n      dup4\n        /* \"#utility.yul\":2727:2794   */\n      tag_76\n      jump\t// in\n    tag_123:\n        /* \"#utility.yul\":2720:2794   */\n      swap2\n      pop\n        /* \"#utility.yul\":2803:2896   */\n      tag_124\n        /* \"#utility.yul\":2892:2895   */\n      dup3\n        /* \"#utility.yul\":2803:2896   */\n      tag_77\n      jump\t// in\n    tag_124:\n        /* \"#utility.yul\":2921:2923   */\n      0x20\n        /* \"#utility.yul\":2916:2919   */\n      dup3\n        /* \"#utility.yul\":2912:2924   */\n      add\n        /* \"#utility.yul\":2905:2924   */\n      swap1\n      pop\n        /* \"#utility.yul\":2564:2930   */\n      swap2\n      swap1\n      pop\n      jump\t// out\n        /* \"#utility.yul\":2936:3355   */\n    tag_38:\n        /* \"#utility.yul\":3102:3106   */\n      0x00\n        /* \"#utility.yul\":3140:3142   */\n      0x20\n        /* \"#utility.yul\":3129:3138   */\n      dup3\n        /* \"#utility.yul\":3125:3143   */\n      add\n        /* \"#utility.yul\":3117:3143   */\n      swap1\n      pop\n        /* \"#utility.yul\":3189:3198   */\n      dup2\n        /* \"#utility.yul\":3183:3187   */\n      dup2\n        /* \"#utility.yul\":3179:3199   */\n      sub\n        /* \"#utility.yul\":3175:3176   */\n      0x00\n        /* \"#utility.yul\":3164:3173   */\n      dup4\n        /* \"#utility.yul\":3160:3177   */\n      add\n        /* \"#utility.yul\":3153:3200   */\n      mstore\n        /* \"#utility.yul\":3217:3348   */\n      tag_126\n        /* \"#utility.yul\":3343:3347   */\n      dup2\n        /* \"#utility.yul\":3217:3348   */\n      tag_78\n      jump\t// in\n    tag_126:\n        /* \"#utility.yul\":3209:3348   */\n      swap1\n      pop\n        /* \"#utility.yul\":2936:3355   */\n      swap2\n      swap1\n      pop\n      jump\t// out\n        /* \"#utility.yul\":3361:3531   */\n    tag_79:\n        /* \"#utility.yul\":3501:3523   */\n      0x496e73756666696369656e742062616c616e6365000000000000000000000000\n        /* \"#utility.yul\":3497:3498   */\n      0x00\n        /* \"#utility.yul\":3489:3495   */\n      dup3\n        /* \"#utility.yul\":3485:3499   */\n      add\n        /* \"#utility.yul\":3478:3524   */\n      mstore\n        /* \"#utility.yul\":3361:3531   */\n      pop\n      jump\t// out\n        /* \"#utility.yul\":3537:3903   */\n    tag_80:\n        /* \"#utility.yul\":3679:3682   */\n      0x00\n        /* \"#utility.yul\":3700:3767   */\n      tag_129\n        /* \"#utility.yul\":3764:3766   */\n      0x14\n        /* \"#utility.yul\":3759:3762   */\n      dup4\n        /* \"#utility.yul\":3700:3767   */\n      tag_76\n      jump\t// in\n    tag_129:\n        /* \"#utility.yul\":3693:3767   */\n      swap2\n      pop\n        /* \"#utility.yul\":3776:3869   */\n      tag_130\n        /* \"#utility.yul\":3865:3868   */\n      dup3\n        /* \"#utility.yul\":3776:3869   */\n      tag_79\n      jump\t// in\n    tag_130:\n        /* \"#utility.yul\":3894:3896   */\n      0x20\n        /* \"#utility.yul\":3889:3892   */\n      dup3\n        /* \"#utility.yul\":3885:3897   */\n      add\n        /* \"#utility.yul\":3878:3897   */\n      swap1\n      pop\n        /* \"#utility.yul\":3537:3903   */\n      swap2\n      swap1\n      pop\n      jump\t// out\n        /* \"#utility.yul\":3909:4328   */\n    tag_42:\n        /* \"#utility.yul\":4075:4079   */\n      0x00\n        /* \"#utility.yul\":4113:4115   */\n      0x20\n        /* \"#utility.yul\":4102:4111   */\n      dup3\n        /* \"#utility.yul\":4098:4116   */\n      add\n        /* \"#utility.yul\":4090:4116   */\n      swap1\n      pop\n        /* \"#utility.yul\":4162:4171   */\n      dup2\n        /* \"#utility.yul\":4156:4160   */\n      dup2\n        /* \"#utility.yul\":4152:4172   */\n      sub\n        /* \"#utility.yul\":4148:4149   */\n      0x00\n        /* \"#utility.yul\":4137:4146   */\n      dup4\n        /* \"#utility.yul\":4133:4150   */\n      add\n        /* \"#utility.yul\":4126:4173   */\n      mstore\n        /* \"#utility.yul\":4190:4321   */\n      tag_132\n        /* \"#utility.yul\":4316:4320   */\n      dup2\n        /* \"#utility.yul\":4190:4321   */\n      tag_80\n      jump\t// in\n    tag_132:\n        /* \"#utility.yul\":4182:4321   */\n      swap1\n      pop\n        /* \"#utility.yul\":3909:4328   */\n      swap2\n      swap1\n      pop\n      jump\t// out\n        /* \"#utility.yul\":4334:4514   */\n    tag_81:\n        /* \"#utility.yul\":4382:4459   */\n      0x4e487b7100000000000000000000000000000000000000000000000000000000\n        /* \"#utility.yul\":4379:4380   */\n      0x00\n        /* \"#utility.yul\":4372:4460   */\n      mstore\n        /* \"#utility.yul\":4479:4483   */\n      0x11\n        /* \"#utility.yul\":4476:4477   */\n      0x04\n        /* \"#utility.yul\":4469:4484   */\n      mstore\n        /* \"#utility.yul\":4503:4507   */\n      0x24\n        /* \"#utility.yul\":4500:4501   */\n      0x00\n        /* \"#utility.yul\":4493:4508   */\n      revert\n        /* \"#utility.yul\":4520:4714   */\n    tag_44:\n        /* \"#utility.yul\":4560:4564   */\n      0x00\n        /* \"#utility.yul\":4580:4600   */\n      tag_135\n        /* \"#utility.yul\":4598:4599   */\n      dup3\n        /* \"#utility.yul\":4580:4600   */\n      tag_72\n      jump\t// in\n    tag_135:\n        /* \"#utility.yul\":4575:4600   */\n      swap2\n      pop\n        /* \"#utility.yul\":4614:4634   */\n      tag_136\n        /* \"#utility.yul\":4632:4633   */\n      dup4\n        /* \"#utility.yul\":4614:4634   */\n      tag_72\n      jump\t// in\n    tag_136:\n        /* \"#utility.yul\":4609:4634   */\n      swap3\n      pop\n        /* \"#utility.yul\":4658:4659   */\n      dup3\n        /* \"#utility.yul\":4655:4656   */\n      dup3\n        /* \"#utility.yul\":4651:4660   */\n      sub\n        /* \"#utility.yul\":4643:4660   */\n      swap1\n      pop\n        /* \"#utility.yul\":4682:4683   */\n      dup2\n        /* \"#utility.yul\":4676:4680   */\n      dup2\n        /* \"#utility.yul\":4673:4684   */\n      gt\n        /* \"#utility.yul\":4670:4707   */\n      iszero\n      tag_137\n      jumpi\n        /* \"#utility.yul\":4687:4705   */\n      tag_138\n      tag_81\n      jump\t// in\n    tag_138:\n        /* \"#utility.yul\":4670:4707   */\n    tag_137:\n        /* \"#utility.yul\":4520:4714   */\n      swap3\n      swap2\n      pop\n      pop\n      jump\t// out\n        /* \"#utility.yul\":4720:4867   */\n    tag_82:\n        /* \"#utility.yul\":4821:4832   */\n      0x00\n        /* \"#utility.yul\":4858:4861   */\n      dup2\n        /* \"#utility.yul\":4843:4861   */\n      swap1\n      pop\n        /* \"#utility.yul\":4720:4867   */\n      swap3\n      swap2\n      pop\n      pop\n      jump\t// out\n        /* \"#utility.yul\":4873:4987   */\n    tag_83:\n      pop\n      jump\t// out\n        /* \"#utility.yul\":4993:5391   */\n    tag_84:\n        /* \"#utility.yul\":5152:5155   */\n      0x00\n        /* \"#utility.yul\":5173:5256   */\n      tag_142\n        /* \"#utility.yul\":5254:5255   */\n      0x00\n        /* \"#utility.yul\":5249:5252   */\n      dup4\n        /* \"#utility.yul\":5173:5256   */\n      tag_82\n      jump\t// in\n    tag_142:\n        /* \"#utility.yul\":5166:5256   */\n      swap2\n      pop\n        /* \"#utility.yul\":5265:5358   */\n      tag_143\n        /* \"#utility.yul\":5354:5357   */\n      dup3\n        /* \"#utility.yul\":5265:5358   */\n      tag_83\n      jump\t// in\n    tag_143:\n        /* \"#utility.yul\":5383:5384   */\n      0x00\n        /* \"#utility.yul\":5378:5381   */\n      dup3\n        /* \"#utility.yul\":5374:5385   */\n      add\n        /* \"#utility.yul\":5367:5385   */\n      swap1\n      pop\n        /* \"#utility.yul\":4993:5391   */\n      swap2\n      swap1\n      pop\n      jump\t// out\n        /* \"#utility.yul\":5397:5776   */\n    tag_47:\n        /* \"#utility.yul\":5581:5584   */\n      0x00\n        /* \"#utility.yul\":5603:5750   */\n      tag_145\n        /* \"#utility.yul\":5746:5749   */\n      dup3\n        /* \"#utility.yul\":5603:5750   */\n      tag_84\n      jump\t// in\n    tag_145:\n        /* \"#utility.yul\":5596:5750   */\n      swap2\n      pop\n        /* \"#utility.yul\":5767:5770   */\n      dup2\n        /* \"#utility.yul\":5760:5770   */\n      swap1\n      pop\n        /* \"#utility.yul\":5397:5776   */\n      swap2\n      swap1\n      pop\n      jump\t// out\n        /* \"#utility.yul\":5782:5947   */\n    tag_85:\n        /* \"#utility.yul\":5922:5939   */\n      0x5472616e73666572206661696c65640000000000000000000000000000000000\n        /* \"#utility.yul\":5918:5919   */\n      0x00\n        /* \"#utility.yul\":5910:5916   */\n      dup3\n        /* \"#utility.yul\":5906:5920   */\n      add\n        /* \"#utility.yul\":5899:5940   */\n      mstore\n        /* \"#utility.yul\":5782:5947   */\n      pop\n      jump\t// out\n        /* \"#utility.yul\":5953:6319   */\n    tag_86:\n        /* \"#utility.yul\":6095:6098   */\n      0x00\n        /* \"#utility.yul\":6116:6183   */\n      tag_148\n        /* \"#utility.yul\":6180:6182   */\n      0x0f\n        /* \"#utility.yul\":6175:6178   */\n      dup4\n        /* \"#utility.yul\":6116:6183   */\n      tag_76\n      jump\t// in\n    tag_148:\n        /* \"#utility.yul\":6109:6183   */\n      swap2\n      pop\n        /* \"#utility.yul\":6192:6285   */\n      tag_149\n        /* \"#utility.yul\":6281:6284   */\n      dup3\n        /* \"#utility.yul\":6192:6285   */\n      tag_85\n      jump\t// in\n    tag_149:\n        /* \"#utility.yul\":6310:6312   */\n      0x20\n        /* \"#utility.yul\":6305:6308   */\n      dup3\n        /* \"#utility.yul\":6301:6313   */\n      add\n        /* \"#utility.yul\":6294:6313   */\n      swap1\n      pop\n        /* \"#utility.yul\":5953:6319   */\n      swap2\n      swap1\n      pop\n      jump\t// out\n        /* \"#utility.yul\":6325:6744   */\n    tag_53:\n        /* \"#utility.yul\":6491:6495   */\n      0x00\n        /* \"#utility.yul\":6529:6531   */\n      0x20\n        /* \"#utility.yul\":6518:6527   */\n      dup3\n        /* \"#utility.yul\":6514:6532   */\n      add\n        /* \"#utility.yul\":6506:6532   */\n      swap1\n      pop\n        /* \"#utility.yul\":6578:6587   */\n      dup2\n        /* \"#utility.yul\":6572:6576   */\n      dup2\n        /* \"#utility.yul\":6568:6588   */\n      sub\n        /* \"#utility.yul\":6564:6565   */\n      0x00\n        /* \"#utility.yul\":6553:6562   */\n      dup4\n        /* \"#utility.yul\":6549:6566   */\n      add\n        /* \"#utility.yul\":6542:6589   */\n      mstore\n        /* \"#utility.yul\":6606:6737   */\n      tag_151\n        /* \"#utility.yul\":6732:6736   */\n      dup2\n        /* \"#utility.yul\":6606:6737   */\n      tag_86\n      jump\t// in\n    tag_151:\n        /* \"#utility.yul\":6598:6737   */\n      swap1\n      pop\n        /* \"#utility.yul\":6325:6744   */\n      swap2\n      swap1\n      pop\n      jump\t// out\n        /* \"#utility.yul\":6750:6941   */\n    tag_56:\n        /* \"#utility.yul\":6790:6793   */\n      0x00\n        /* \"#utility.yul\":6809:6829   */\n      tag_153\n        /* \"#utility.yul\":6827:6828   */\n      dup3\n        /* \"#utility.yul\":6809:6829   */\n      tag_72\n      jump\t// in\n    tag_153:\n        /* \"#utility.yul\":6804:6829   */\n      swap2\n      pop\n        /* \"#utility.yul\":6843:6863   */\n      tag_154\n        /* \"#utility.yul\":6861:6862   */\n      dup4\n        /* \"#utility.yul\":6843:6863   */\n      tag_72\n      jump\t// in\n    tag_154:\n        /* \"#utility.yul\":6838:6863   */\n      swap3\n      pop\n        /* \"#utility.yul\":6886:6887   */\n      dup3\n        /* \"#utility.yul\":6883:6884   */\n      dup3\n        /* \"#utility.yul\":6879:6888   */\n      add\n        /* \"#utility.yul\":6872:6888   */\n      swap1\n      pop\n        /* \"#utility.yul\":6907:6910   */\n      dup1\n        /* \"#utility.yul\":6904:6905   */\n      dup3\n        /* \"#utility.yul\":6901:6911   */\n      gt\n        /* \"#utility.yul\":6898:6934   */\n      iszero\n      tag_155\n      jumpi\n        /* \"#utility.yul\":6914:6932   */\n      tag_156\n      tag_81\n      jump\t// in\n    tag_156:\n        /* \"#utility.yul\":6898:6934   */\n    tag_155:\n        /* \"#utility.yul\":6750:6941   */\n      swap3\n      swap2\n      pop\n      pop\n      jump\t// out\n        /* \"#utility.yul\":6947:7127   */\n    tag_87:\n        /* \"#utility.yul\":6995:7072   */\n      0x4e487b7100000000000000000000000000000000000000000000000000000000\n        /* \"#utility.yul\":6992:6993   */\n      0x00\n        /* \"#utility.yul\":6985:7073   */\n      mstore\n        /* \"#utility.yul\":7092:7096   */\n      0x12\n        /* \"#utility.yul\":7089:7090   */\n      0x04\n        /* \"#utility.yul\":7082:7097   */\n      mstore\n        /* \"#utility.yul\":7116:7120   */\n      0x24\n        /* \"#utility.yul\":7113:7114   */\n      0x00\n        /* \"#utility.yul\":7106:7121   */\n      revert\n        /* \"#utility.yul\":7133:7318   */\n    tag_58:\n        /* \"#utility.yul\":7173:7174   */\n      0x00\n        /* \"#utility.yul\":7190:7210   */\n      tag_159\n        /* \"#utility.yul\":7208:7209   */\n      dup3\n        /* \"#utility.yul\":7190:7210   */\n      tag_72\n      jump\t// in\n    tag_159:\n        /* \"#utility.yul\":7185:7210   */\n      swap2\n      pop\n        /* \"#utility.yul\":7224:7244   */\n      tag_160\n        /* \"#utility.yul\":7242:7243   */\n      dup4\n        /* \"#utility.yul\":7224:7244   */\n      tag_72\n      jump\t// in\n    tag_160:\n        /* \"#utility.yul\":7219:7244   */\n      swap3\n      pop\n        /* \"#utility.yul\":7263:7264   */\n      dup3\n        /* \"#utility.yul\":7253:7288   */\n      tag_161\n      jumpi\n        /* \"#utility.yul\":7268:7286   */\n      tag_162\n      tag_87\n      jump\t// in\n    tag_162:\n        /* \"#utility.yul\":7253:7288   */\n    tag_161:\n        /* \"#utility.yul\":7310:7311   */\n      dup3\n        /* \"#utility.yul\":7307:7308   */\n      dup3\n        /* \"#utility.yul\":7303:7312   */\n      div\n        /* \"#utility.yul\":7298:7312   */\n      swap1\n      pop\n        /* \"#utility.yul\":7133:7318   */\n      swap3\n      swap2\n      pop\n      pop\n      jump\t// out\n        /* \"#utility.yul\":7324:7485   */\n    tag_88:\n        /* \"#utility.yul\":7464:7477   */\n      0x4e6f204554482073656e74000000000000000000000000000000000000000000\n        /* \"#utility.yul\":7460:7461   */\n      0x00\n        /* \"#utility.yul\":7452:7458   */\n      dup3\n        /* \"#utility.yul\":7448:7462   */\n      add\n        /* \"#utility.yul\":7441:7478   */\n      mstore\n        /* \"#utility.yul\":7324:7485   */\n      pop\n      jump\t// out\n        /* \"#utility.yul\":7491:7857   */\n    tag_89:\n        /* \"#utility.yul\":7633:7636   */\n      0x00\n        /* \"#utility.yul\":7654:7721   */\n      tag_165\n        /* \"#utility.yul\":7718:7720   */\n      0x0b\n        /* \"#utility.yul\":7713:7716   */\n      dup4\n        /* \"#utility.yul\":7654:7721   */\n      tag_76\n      jump\t// in\n    tag_165:\n        /* \"#utility.yul\":7647:7721   */\n      swap2\n      pop\n        /* \"#utility.yul\":7730:7823   */\n      tag_166\n        /* \"#utility.yul\":7819:7822   */\n      dup3\n        /* \"#utility.yul\":7730:7823   */\n      tag_88\n      jump\t// in\n    tag_166:\n        /* \"#utility.yul\":7848:7850   */\n      0x20\n        /* \"#utility.yul\":7843:7846   */\n      dup3\n        /* \"#utility.yul\":7839:7851   */\n      add\n        /* \"#utility.yul\":7832:7851   */\n      swap1\n      pop\n        /* \"#utility.yul\":7491:7857   */\n      swap2\n      swap1\n      pop\n      jump\t// out\n        /* \"#utility.yul\":7863:8282   */\n    tag_62:\n        /* \"#utility.yul\":8029:8033   */\n      0x00\n        /* \"#utility.yul\":8067:8069   */\n      0x20\n        /* \"#utility.yul\":8056:8065   */\n      dup3\n        /* \"#utility.yul\":8052:8070   */\n      add\n        /* \"#utility.yul\":8044:8070   */\n      swap1\n      pop\n        /* \"#utility.yul\":8116:8125   */\n      dup2\n        /* \"#utility.yul\":8110:8114   */\n      dup2\n        /* \"#utility.yul\":8106:8126   */\n      sub\n        /* \"#utility.yul\":8102:8103   */\n      0x00\n        /* \"#utility.yul\":8091:8100   */\n      dup4\n        /* \"#utility.yul\":8087:8104   */\n      add\n        /* \"#utility.yul\":8080:8127   */\n      mstore\n        /* \"#utility.yul\":8144:8275   */\n      tag_168\n        /* \"#utility.yul\":8270:8274   */\n      dup2\n        /* \"#utility.yul\":8144:8275   */\n      tag_89\n      jump\t// in\n    tag_168:\n        /* \"#utility.yul\":8136:8275   */\n      swap1\n      pop\n        /* \"#utility.yul\":7863:8282   */\n      swap2\n      swap1\n      pop\n      jump\t// out\n\n    auxdata: 0xa2646970667358221220e6d2a553c5f8a5a07d6f628a1e212278a281a598b58af19082d1be8254935db764736f6c63430008220033\n}\n",
				"bytecode": {
					"linkReferences": {},
					"object": "6080604052348015600e575f5ffd5b5061094d8061001c5f395ff3fe608060405260043610610054575f3560e01c80630700037d1461005857806327e235e3146100945780632e1a7d4d146100d05780633d479cd5146100f85780636e47b93814610120578063ad7a672f1461012a575b5f5ffd5b348015610063575f5ffd5b5061007e60048036038101906100799190610585565b610154565b60405161008b91906105c8565b60405180910390f35b34801561009f575f5ffd5b506100ba60048036038101906100b59190610585565b610169565b6040516100c791906105c8565b60405180910390f35b3480156100db575f5ffd5b506100f660048036038101906100f1919061060b565b61017d565b005b348015610103575f5ffd5b5061011e6004803603810190610119919061060b565b610394565b005b610128610473565b005b348015610135575f5ffd5b5061013e610521565b60405161014b91906105c8565b60405180910390f35b6002602052805f5260405f205f915090505481565b5f602052805f5260405f205f915090505481565b60035f9054906101000a900460ff16156101cc576040517f08c379a00000000000000000000000000000000000000000000000000000000081526004016101c390610690565b60405180910390fd5b600160035f6101000a81548160ff021916908315150217905550805f5f3373ffffffffffffffffffffffffffffffffffffffff1673ffffffffffffffffffffffffffffffffffffffff1681526020019081526020015f20541015610265576040517f08c379a000000000000000000000000000000000000000000000000000000000815260040161025c906106f8565b60405180910390fd5b805f5f3373ffffffffffffffffffffffffffffffffffffffff1673ffffffffffffffffffffffffffffffffffffffff1681526020019081526020015f205f8282546102b09190610743565b925050819055508060015f8282546102c89190610743565b925050819055505f3373ffffffffffffffffffffffffffffffffffffffff16826040516102f4906107a3565b5f6040518083038185875af1925050503d805f811461032e576040519150601f19603f3d011682016040523d82523d5f602084013e610333565b606091505b5050905080610377576040517f08c379a000000000000000000000000000000000000000000000000000000000815260040161036e90610801565b60405180910390fd5b505f60035f6101000a81548160ff02191690831515021790555050565b805f5f3373ffffffffffffffffffffffffffffffffffffffff1673ffffffffffffffffffffffffffffffffffffffff1681526020019081526020015f205f8282546103df919061081f565b92505081905550600a5f5f3373ffffffffffffffffffffffffffffffffffffffff1673ffffffffffffffffffffffffffffffffffffffff1681526020019081526020015f205461042f919061087f565b60025f3373ffffffffffffffffffffffffffffffffffffffff1673ffffffffffffffffffffffffffffffffffffffff1681526020019081526020015f208190555050565b5f34116104b5576040517f08c379a00000000000000000000000000000000000000000000000000000000081526004016104ac906108f9565b60405180910390fd5b345f5f3373ffffffffffffffffffffffffffffffffffffffff1673ffffffffffffffffffffffffffffffffffffffff1681526020019081526020015f205f828254610500919061081f565b925050819055503460015f828254610518919061081f565b92505081905550565b60015481565b5f5ffd5b5f73ffffffffffffffffffffffffffffffffffffffff82169050919050565b5f6105548261052b565b9050919050565b6105648161054a565b811461056e575f5ffd5b50565b5f8135905061057f8161055b565b92915050565b5f6020828403121561059a57610599610527565b5b5f6105a784828501610571565b91505092915050565b5f819050919050565b6105c2816105b0565b82525050565b5f6020820190506105db5f8301846105b9565b92915050565b6105ea816105b0565b81146105f4575f5ffd5b50565b5f81359050610605816105e1565b92915050565b5f602082840312156106205761061f610527565b5b5f61062d848285016105f7565b91505092915050565b5f82825260208201905092915050565b7f5265656e7472616e742063616c6c0000000000000000000000000000000000005f82015250565b5f61067a600e83610636565b915061068582610646565b602082019050919050565b5f6020820190508181035f8301526106a78161066e565b9050919050565b7f496e73756666696369656e742062616c616e63650000000000000000000000005f82015250565b5f6106e2601483610636565b91506106ed826106ae565b602082019050919050565b5f6020820190508181035f83015261070f816106d6565b9050919050565b7f4e487b71000000000000000000000000000000000000000000000000000000005f52601160045260245ffd5b5f61074d826105b0565b9150610758836105b0565b92508282039050818111156107705761076f610716565b5b92915050565b5f81905092915050565b50565b5f61078e5f83610776565b915061079982610780565b5f82019050919050565b5f6107ad82610783565b9150819050919050565b7f5472616e73666572206661696c656400000000000000000000000000000000005f82015250565b5f6107eb600f83610636565b91506107f6826107b7565b602082019050919050565b5f6020820190508181035f830152610818816107df565b9050919050565b5f610829826105b0565b9150610834836105b0565b925082820190508082111561084c5761084b610716565b5b92915050565b7f4e487b71000000000000000000000000000000000000000000000000000000005f52601260045260245ffd5b5f610889826105b0565b9150610894836105b0565b9250826108a4576108a3610852565b5b828204905092915050565b7f4e6f204554482073656e740000000000000000000000000000000000000000005f82015250565b5f6108e3600b83610636565b91506108ee826108af565b602082019050919050565b5f6020820190508181035f830152610910816108d7565b905091905056fea2646970667358221220e6d2a553c5f8a5a07d6f628a1e212278a281a598b58af19082d1be8254935db764736f6c63430008220033",
					"opcodes": "PUSH1 0x80 PUSH1 0x40 MSTORE CALLVALUE DUP1 ISZERO PUSH1 0xE JUMPI PUSH0 PUSH0 REVERT JUMPDEST POP PUSH2 0x94D DUP1 PUSH2 0x1C PUSH0 CODECOPY PUSH0 RETURN INVALID PUSH1 0x80 PUSH1 0x40 MSTORE PUSH1 0x4 CALLDATASIZE LT PUSH2 0x54 JUMPI PUSH0 CALLDATALOAD PUSH1 0xE0 SHR DUP1 PUSH4 0x700037D EQ PUSH2 0x58 JUMPI DUP1 PUSH4 0x27E235E3 EQ PUSH2 0x94 JUMPI DUP1 PUSH4 0x2E1A7D4D EQ PUSH2 0xD0 JUMPI DUP1 PUSH4 0x3D479CD5 EQ PUSH2 0xF8 JUMPI DUP1 PUSH4 0x6E47B938 EQ PUSH2 0x120 JUMPI DUP1 PUSH4 0xAD7A672F EQ PUSH2 0x12A JUMPI JUMPDEST PUSH0 PUSH0 REVERT JUMPDEST CALLVALUE DUP1 ISZERO PUSH2 0x63 JUMPI PUSH0 PUSH0 REVERT JUMPDEST POP PUSH2 0x7E PUSH1 0x4 DUP1 CALLDATASIZE SUB DUP2 ADD SWAP1 PUSH2 0x79 SWAP2 SWAP1 PUSH2 0x585 JUMP JUMPDEST PUSH2 0x154 JUMP JUMPDEST PUSH1 0x40 MLOAD PUSH2 0x8B SWAP2 SWAP1 PUSH2 0x5C8 JUMP JUMPDEST PUSH1 0x40 MLOAD DUP1 SWAP2 SUB SWAP1 RETURN JUMPDEST CALLVALUE DUP1 ISZERO PUSH2 0x9F JUMPI PUSH0 PUSH0 REVERT JUMPDEST POP PUSH2 0xBA PUSH1 0x4 DUP1 CALLDATASIZE SUB DUP2 ADD SWAP1 PUSH2 0xB5 SWAP2 SWAP1 PUSH2 0x585 JUMP JUMPDEST PUSH2 0x169 JUMP JUMPDEST PUSH1 0x40 MLOAD PUSH2 0xC7 SWAP2 SWAP1 PUSH2 0x5C8 JUMP JUMPDEST PUSH1 0x40 MLOAD DUP1 SWAP2 SUB SWAP1 RETURN JUMPDEST CALLVALUE DUP1 ISZERO PUSH2 0xDB JUMPI PUSH0 PUSH0 REVERT JUMPDEST POP PUSH2 0xF6 PUSH1 0x4 DUP1 CALLDATASIZE SUB DUP2 ADD SWAP1 PUSH2 0xF1 SWAP2 SWAP1 PUSH2 0x60B JUMP JUMPDEST PUSH2 0x17D JUMP JUMPDEST STOP JUMPDEST CALLVALUE DUP1 ISZERO PUSH2 0x103 JUMPI PUSH0 PUSH0 REVERT JUMPDEST POP PUSH2 0x11E PUSH1 0x4 DUP1 CALLDATASIZE SUB DUP2 ADD SWAP1 PUSH2 0x119 SWAP2 SWAP1 PUSH2 0x60B JUMP JUMPDEST PUSH2 0x394 JUMP JUMPDEST STOP JUMPDEST PUSH2 0x128 PUSH2 0x473 JUMP JUMPDEST STOP JUMPDEST CALLVALUE DUP1 ISZERO PUSH2 0x135 JUMPI PUSH0 PUSH0 REVERT JUMPDEST POP PUSH2 0x13E PUSH2 0x521 JUMP JUMPDEST PUSH1 0x40 MLOAD PUSH2 0x14B SWAP2 SWAP1 PUSH2 0x5C8 JUMP JUMPDEST PUSH1 0x40 MLOAD DUP1 SWAP2 SUB SWAP1 RETURN JUMPDEST PUSH1 0x2 PUSH1 0x20 MSTORE DUP1 PUSH0 MSTORE PUSH1 0x40 PUSH0 KECCAK256 PUSH0 SWAP2 POP SWAP1 POP SLOAD DUP2 JUMP JUMPDEST PUSH0 PUSH1 0x20 MSTORE DUP1 PUSH0 MSTORE PUSH1 0x40 PUSH0 KECCAK256 PUSH0 SWAP2 POP SWAP1 POP SLOAD DUP2 JUMP JUMPDEST PUSH1 0x3 PUSH0 SWAP1 SLOAD SWAP1 PUSH2 0x100 EXP SWAP1 DIV PUSH1 0xFF AND ISZERO PUSH2 0x1CC JUMPI PUSH1 0x40 MLOAD PUSH32 0x8C379A000000000000000000000000000000000000000000000000000000000 DUP2 MSTORE PUSH1 0x4 ADD PUSH2 0x1C3 SWAP1 PUSH2 0x690 JUMP JUMPDEST PUSH1 0x40 MLOAD DUP1 SWAP2 SUB SWAP1 REVERT JUMPDEST PUSH1 0x1 PUSH1 0x3 PUSH0 PUSH2 0x100 EXP DUP2 SLOAD DUP2 PUSH1 0xFF MUL NOT AND SWAP1 DUP4 ISZERO ISZERO MUL OR SWAP1 SSTORE POP DUP1 PUSH0 PUSH0 CALLER PUSH20 0xFFFFFFFFFFFFFFFFFFFFFFFFFFFFFFFFFFFFFFFF AND PUSH20 0xFFFFFFFFFFFFFFFFFFFFFFFFFFFFFFFFFFFFFFFF AND DUP2 MSTORE PUSH1 0x20 ADD SWAP1 DUP2 MSTORE PUSH1 0x20 ADD PUSH0 KECCAK256 SLOAD LT ISZERO PUSH2 0x265 JUMPI PUSH1 0x40 MLOAD PUSH32 0x8C379A000000000000000000000000000000000000000000000000000000000 DUP2 MSTORE PUSH1 0x4 ADD PUSH2 0x25C SWAP1 PUSH2 0x6F8 JUMP JUMPDEST PUSH1 0x40 MLOAD DUP1 SWAP2 SUB SWAP1 REVERT JUMPDEST DUP1 PUSH0 PUSH0 CALLER PUSH20 0xFFFFFFFFFFFFFFFFFFFFFFFFFFFFFFFFFFFFFFFF AND PUSH20 0xFFFFFFFFFFFFFFFFFFFFFFFFFFFFFFFFFFFFFFFF AND DUP2 MSTORE PUSH1 0x20 ADD SWAP1 DUP2 MSTORE PUSH1 0x20 ADD PUSH0 KECCAK256 PUSH0 DUP3 DUP3 SLOAD PUSH2 0x2B0 SWAP2 SWAP1 PUSH2 0x743 JUMP JUMPDEST SWAP3 POP POP DUP2 SWAP1 SSTORE POP DUP1 PUSH1 0x1 PUSH0 DUP3 DUP3 SLOAD PUSH2 0x2C8 SWAP2 SWAP1 PUSH2 0x743 JUMP JUMPDEST SWAP3 POP POP DUP2 SWAP1 SSTORE POP PUSH0 CALLER PUSH20 0xFFFFFFFFFFFFFFFFFFFFFFFFFFFFFFFFFFFFFFFF AND DUP3 PUSH1 0x40 MLOAD PUSH2 0x2F4 SWAP1 PUSH2 0x7A3 JUMP JUMPDEST PUSH0 PUSH1 0x40 MLOAD DUP1 DUP4 SUB DUP2 DUP6 DUP8 GAS CALL SWAP3 POP POP POP RETURNDATASIZE DUP1 PUSH0 DUP2 EQ PUSH2 0x32E JUMPI PUSH1 0x40 MLOAD SWAP2 POP PUSH1 0x1F NOT PUSH1 0x3F RETURNDATASIZE ADD AND DUP3 ADD PUSH1 0x40 MSTORE RETURNDATASIZE DUP3 MSTORE RETURNDATASIZE PUSH0 PUSH1 0x20 DUP5 ADD RETURNDATACOPY PUSH2 0x333 JUMP JUMPDEST PUSH1 0x60 SWAP2 POP JUMPDEST POP POP SWAP1 POP DUP1 PUSH2 0x377 JUMPI PUSH1 0x40 MLOAD PUSH32 0x8C379A000000000000000000000000000000000000000000000000000000000 DUP2 MSTORE PUSH1 0x4 ADD PUSH2 0x36E SWAP1 PUSH2 0x801 JUMP JUMPDEST PUSH1 0x40 MLOAD DUP1 SWAP2 SUB SWAP1 REVERT JUMPDEST POP PUSH0 PUSH1 0x3 PUSH0 PUSH2 0x100 EXP DUP2 SLOAD DUP2 PUSH1 0xFF MUL NOT AND SWAP1 DUP4 ISZERO ISZERO MUL OR SWAP1 SSTORE POP POP JUMP JUMPDEST DUP1 PUSH0 PUSH0 CALLER PUSH20 0xFFFFFFFFFFFFFFFFFFFFFFFFFFFFFFFFFFFFFFFF AND PUSH20 0xFFFFFFFFFFFFFFFFFFFFFFFFFFFFFFFFFFFFFFFF AND DUP2 MSTORE PUSH1 0x20 ADD SWAP1 DUP2 MSTORE PUSH1 0x20 ADD PUSH0 KECCAK256 PUSH0 DUP3 DUP3 SLOAD PUSH2 0x3DF SWAP2 SWAP1 PUSH2 0x81F JUMP JUMPDEST SWAP3 POP POP DUP2 SWAP1 SSTORE POP PUSH1 0xA PUSH0 PUSH0 CALLER PUSH20 0xFFFFFFFFFFFFFFFFFFFFFFFFFFFFFFFFFFFFFFFF AND PUSH20 0xFFFFFFFFFFFFFFFFFFFFFFFFFFFFFFFFFFFFFFFF AND DUP2 MSTORE PUSH1 0x20 ADD SWAP1 DUP2 MSTORE PUSH1 0x20 ADD PUSH0 KECCAK256 SLOAD PUSH2 0x42F SWAP2 SWAP1 PUSH2 0x87F JUMP JUMPDEST PUSH1 0x2 PUSH0 CALLER PUSH20 0xFFFFFFFFFFFFFFFFFFFFFFFFFFFFFFFFFFFFFFFF AND PUSH20 0xFFFFFFFFFFFFFFFFFFFFFFFFFFFFFFFFFFFFFFFF AND DUP2 MSTORE PUSH1 0x20 ADD SWAP1 DUP2 MSTORE PUSH1 0x20 ADD PUSH0 KECCAK256 DUP2 SWAP1 SSTORE POP POP JUMP JUMPDEST PUSH0 CALLVALUE GT PUSH2 0x4B5 JUMPI PUSH1 0x40 MLOAD PUSH32 0x8C379A000000000000000000000000000000000000000000000000000000000 DUP2 MSTORE PUSH1 0x4 ADD PUSH2 0x4AC SWAP1 PUSH2 0x8F9 JUMP JUMPDEST PUSH1 0x40 MLOAD DUP1 SWAP2 SUB SWAP1 REVERT JUMPDEST CALLVALUE PUSH0 PUSH0 CALLER PUSH20 0xFFFFFFFFFFFFFFFFFFFFFFFFFFFFFFFFFFFFFFFF AND PUSH20 0xFFFFFFFFFFFFFFFFFFFFFFFFFFFFFFFFFFFFFFFF AND DUP2 MSTORE PUSH1 0x20 ADD SWAP1 DUP2 MSTORE PUSH1 0x20 ADD PUSH0 KECCAK256 PUSH0 DUP3 DUP3 SLOAD PUSH2 0x500 SWAP2 SWAP1 PUSH2 0x81F JUMP JUMPDEST SWAP3 POP POP DUP2 SWAP1 SSTORE POP CALLVALUE PUSH1 0x1 PUSH0 DUP3 DUP3 SLOAD PUSH2 0x518 SWAP2 SWAP1 PUSH2 0x81F JUMP JUMPDEST SWAP3 POP POP DUP2 SWAP1 SSTORE POP JUMP JUMPDEST PUSH1 0x1 SLOAD DUP2 JUMP JUMPDEST PUSH0 PUSH0 REVERT JUMPDEST PUSH0 PUSH20 0xFFFFFFFFFFFFFFFFFFFFFFFFFFFFFFFFFFFFFFFF DUP3 AND SWAP1 POP SWAP2 SWAP1 POP JUMP JUMPDEST PUSH0 PUSH2 0x554 DUP3 PUSH2 0x52B JUMP JUMPDEST SWAP1 POP SWAP2 SWAP1 POP JUMP JUMPDEST PUSH2 0x564 DUP2 PUSH2 0x54A JUMP JUMPDEST DUP2 EQ PUSH2 0x56E JUMPI PUSH0 PUSH0 REVERT JUMPDEST POP JUMP JUMPDEST PUSH0 DUP2 CALLDATALOAD SWAP1 POP PUSH2 0x57F DUP2 PUSH2 0x55B JUMP JUMPDEST SWAP3 SWAP2 POP POP JUMP JUMPDEST PUSH0 PUSH1 0x20 DUP3 DUP5 SUB SLT ISZERO PUSH2 0x59A JUMPI PUSH2 0x599 PUSH2 0x527 JUMP JUMPDEST JUMPDEST PUSH0 PUSH2 0x5A7 DUP5 DUP3 DUP6 ADD PUSH2 0x571 JUMP JUMPDEST SWAP2 POP POP SWAP3 SWAP2 POP POP JUMP JUMPDEST PUSH0 DUP2 SWAP1 POP SWAP2 SWAP1 POP JUMP JUMPDEST PUSH2 0x5C2 DUP2 PUSH2 0x5B0 JUMP JUMPDEST DUP3 MSTORE POP POP JUMP JUMPDEST PUSH0 PUSH1 0x20 DUP3 ADD SWAP1 POP PUSH2 0x5DB PUSH0 DUP4 ADD DUP5 PUSH2 0x5B9 JUMP JUMPDEST SWAP3 SWAP2 POP POP JUMP JUMPDEST PUSH2 0x5EA DUP2 PUSH2 0x5B0 JUMP JUMPDEST DUP2 EQ PUSH2 0x5F4 JUMPI PUSH0 PUSH0 REVERT JUMPDEST POP JUMP JUMPDEST PUSH0 DUP2 CALLDATALOAD SWAP1 POP PUSH2 0x605 DUP2 PUSH2 0x5E1 JUMP JUMPDEST SWAP3 SWAP2 POP POP JUMP JUMPDEST PUSH0 PUSH1 0x20 DUP3 DUP5 SUB SLT ISZERO PUSH2 0x620 JUMPI PUSH2 0x61F PUSH2 0x527 JUMP JUMPDEST JUMPDEST PUSH0 PUSH2 0x62D DUP5 DUP3 DUP6 ADD PUSH2 0x5F7 JUMP JUMPDEST SWAP2 POP POP SWAP3 SWAP2 POP POP JUMP JUMPDEST PUSH0 DUP3 DUP3 MSTORE PUSH1 0x20 DUP3 ADD SWAP1 POP SWAP3 SWAP2 POP POP JUMP JUMPDEST PUSH32 0x5265656E7472616E742063616C6C000000000000000000000000000000000000 PUSH0 DUP3 ADD MSTORE POP JUMP JUMPDEST PUSH0 PUSH2 0x67A PUSH1 0xE DUP4 PUSH2 0x636 JUMP JUMPDEST SWAP2 POP PUSH2 0x685 DUP3 PUSH2 0x646 JUMP JUMPDEST PUSH1 0x20 DUP3 ADD SWAP1 POP SWAP2 SWAP1 POP JUMP JUMPDEST PUSH0 PUSH1 0x20 DUP3 ADD SWAP1 POP DUP2 DUP2 SUB PUSH0 DUP4 ADD MSTORE PUSH2 0x6A7 DUP2 PUSH2 0x66E JUMP JUMPDEST SWAP1 POP SWAP2 SWAP1 POP JUMP JUMPDEST PUSH32 0x496E73756666696369656E742062616C616E6365000000000000000000000000 PUSH0 DUP3 ADD MSTORE POP JUMP JUMPDEST PUSH0 PUSH2 0x6E2 PUSH1 0x14 DUP4 PUSH2 0x636 JUMP JUMPDEST SWAP2 POP PUSH2 0x6ED DUP3 PUSH2 0x6AE JUMP JUMPDEST PUSH1 0x20 DUP3 ADD SWAP1 POP SWAP2 SWAP1 POP JUMP JUMPDEST PUSH0 PUSH1 0x20 DUP3 ADD SWAP1 POP DUP2 DUP2 SUB PUSH0 DUP4 ADD MSTORE PUSH2 0x70F DUP2 PUSH2 0x6D6 JUMP JUMPDEST SWAP1 POP SWAP2 SWAP1 POP JUMP JUMPDEST PUSH32 0x4E487B7100000000000000000000000000000000000000000000000000000000 PUSH0 MSTORE PUSH1 0x11 PUSH1 0x4 MSTORE PUSH1 0x24 PUSH0 REVERT JUMPDEST PUSH0 PUSH2 0x74D DUP3 PUSH2 0x5B0 JUMP JUMPDEST SWAP2 POP PUSH2 0x758 DUP4 PUSH2 0x5B0 JUMP JUMPDEST SWAP3 POP DUP3 DUP3 SUB SWAP1 POP DUP2 DUP2 GT ISZERO PUSH2 0x770 JUMPI PUSH2 0x76F PUSH2 0x716 JUMP JUMPDEST JUMPDEST SWAP3 SWAP2 POP POP JUMP JUMPDEST PUSH0 DUP2 SWAP1 POP SWAP3 SWAP2 POP POP JUMP JUMPDEST POP JUMP JUMPDEST PUSH0 PUSH2 0x78E PUSH0 DUP4 PUSH2 0x776 JUMP JUMPDEST SWAP2 POP PUSH2 0x799 DUP3 PUSH2 0x780 JUMP JUMPDEST PUSH0 DUP3 ADD SWAP1 POP SWAP2 SWAP1 POP JUMP JUMPDEST PUSH0 PUSH2 0x7AD DUP3 PUSH2 0x783 JUMP JUMPDEST SWAP2 POP DUP2 SWAP1 POP SWAP2 SWAP1 POP JUMP JUMPDEST PUSH32 0x5472616E73666572206661696C65640000000000000000000000000000000000 PUSH0 DUP3 ADD MSTORE POP JUMP JUMPDEST PUSH0 PUSH2 0x7EB PUSH1 0xF DUP4 PUSH2 0x636 JUMP JUMPDEST SWAP2 POP PUSH2 0x7F6 DUP3 PUSH2 0x7B7 JUMP JUMPDEST PUSH1 0x20 DUP3 ADD SWAP1 POP SWAP2 SWAP1 POP JUMP JUMPDEST PUSH0 PUSH1 0x20 DUP3 ADD SWAP1 POP DUP2 DUP2 SUB PUSH0 DUP4 ADD MSTORE PUSH2 0x818 DUP2 PUSH2 0x7DF JUMP JUMPDEST SWAP1 POP SWAP2 SWAP1 POP JUMP JUMPDEST PUSH0 PUSH2 0x829 DUP3 PUSH2 0x5B0 JUMP JUMPDEST SWAP2 POP PUSH2 0x834 DUP4 PUSH2 0x5B0 JUMP JUMPDEST SWAP3 POP DUP3 DUP3 ADD SWAP1 POP DUP1 DUP3 GT ISZERO PUSH2 0x84C JUMPI PUSH2 0x84B PUSH2 0x716 JUMP JUMPDEST JUMPDEST SWAP3 SWAP2 POP POP JUMP JUMPDEST PUSH32 0x4E487B7100000000000000000000000000000000000000000000000000000000 PUSH0 MSTORE PUSH1 0x12 PUSH1 0x4 MSTORE PUSH1 0x24 PUSH0 REVERT JUMPDEST PUSH0 PUSH2 0x889 DUP3 PUSH2 0x5B0 JUMP JUMPDEST SWAP2 POP PUSH2 0x894 DUP4 PUSH2 0x5B0 JUMP JUMPDEST SWAP3 POP DUP3 PUSH2 0x8A4 JUMPI PUSH2 0x8A3 PUSH2 0x852 JUMP JUMPDEST JUMPDEST DUP3 DUP3 DIV SWAP1 POP SWAP3 SWAP2 POP POP JUMP JUMPDEST PUSH32 0x4E6F204554482073656E74000000000000000000000000000000000000000000 PUSH0 DUP3 ADD MSTORE POP JUMP JUMPDEST PUSH0 PUSH2 0x8E3 PUSH1 0xB DUP4 PUSH2 0x636 JUMP JUMPDEST SWAP2 POP PUSH2 0x8EE DUP3 PUSH2 0x8AF JUMP JUMPDEST PUSH1 0x20 DUP3 ADD SWAP1 POP SWAP2 SWAP1 POP JUMP JUMPDEST PUSH0 PUSH1 0x20 DUP3 ADD SWAP1 POP DUP2 DUP2 SUB PUSH0 DUP4 ADD MSTORE PUSH2 0x910 DUP2 PUSH2 0x8D7 JUMP JUMPDEST SWAP1 POP SWAP2 SWAP1 POP JUMP INVALID LOG2 PUSH5 0x6970667358 0x22 SLT KECCAK256 DUPN 0xD2 0xA5 MSTORE8 0xC5 EXTCALL 0xA5 LOG0 PUSH30 0x6F628A1E212278A281A598B58AF19082D1BE8254935DB764736F6C634300 ADDMOD 0x22 STOP CALLER "
				},
				"gasEstimates": {
					"creation": {
						"codeDepositCost": "476200",
						"executionCost": "509",
						"totalCost": "476709"
					},
					"external": {
						"balances(address)": "2801",
						"rewardUpdate(uint256)": "infinite",
						"rewards(address)": "2780",
						"safeDeposit()": "infinite",
						"totalBalance()": "2513",
						"withdraw(uint256)": "infinite"
					}
				},
				"methodIdentifiers": {
					"balances(address)": "27e235e3",
					"rewardUpdate(uint256)": "3d479cd5",
					"rewards(address)": "0700037d",
					"safeDeposit()": "6e47b938",
					"totalBalance()": "ad7a672f",
					"withdraw(uint256)": "2e1a7d4d"
				}
			},
			"storageLayout": {
				"storage": [
					{
						"astId": 111,
						"contract": "prac49.sol:ReorderLogic",
						"label": "balances",
						"offset": 0,
						"slot": "0",
						"type": "t_mapping(t_address,t_uint256)"
					},
					{
						"astId": 113,
						"contract": "prac49.sol:ReorderLogic",
						"label": "totalBalance",
						"offset": 0,
						"slot": "1",
						"type": "t_uint256"
					},
					{
						"astId": 117,
						"contract": "prac49.sol:ReorderLogic",
						"label": "rewards",
						"offset": 0,
						"slot": "2",
						"type": "t_mapping(t_address,t_uint256)"
					},
					{
						"astId": 119,
						"contract": "prac49.sol:ReorderLogic",
						"label": "locked",
						"offset": 0,
						"slot": "3",
						"type": "t_bool"
					}
				],
				"types": {
					"t_address": {
						"encoding": "inplace",
						"label": "address",
						"numberOfBytes": "20"
					},
					"t_bool": {
						"encoding": "inplace",
						"label": "bool",
						"numberOfBytes": "1"
					},
					"t_mapping(t_address,t_uint256)": {
						"encoding": "mapping",
						"key": "t_address",
						"label": "mapping(address => uint256)",
						"numberOfBytes": "32",
						"value": "t_uint256"
					},
					"t_uint256": {
						"encoding": "inplace",
						"label": "uint256",
						"numberOfBytes": "32"
					}
				}
			},
			"userdoc": {
				"kind": "user",
				"methods": {},
				"version": 1
			}
		}
	}
}