{
	"prac50.sol": {
		"DebugExecutionTracingVul": {
			"abi": [
				{
					"inputs": [
						{
							"internalType": "address",
							"name": "",
							"type": "address"
						}
					],
					"name": "balances",
					"outputs": [
						{
							"internalType": "uint256",
							"name": "",
							"type": "uint256"
						}
					],
					"stateMutability": "view",
					"type": "function"
				},
				{
					"inputs": [
						{
							"internalType": "address",
							"name": "",
							"type": "address"
						}
					],
					"name": "bonuses",
					"outputs": [
						{
							"internalType": "uint256",
							"name": "",
							"type": "uint256"
						}
					],
					"stateMutability": "view",
					"type": "function"
				},
				{
					"inputs": [
						{
							"internalType": "uint256",
							"name": "_amount",
							"type": "uint256"
						}
					],
					"name": "vulnerableReward",
					"outputs": [],
					"stateMutability": "nonpayable",
					"type": "function"
				}
			],
			"devdoc": {
				"kind": "dev",
				"methods": {},
				"version": 1
			},
			"evm": {
				"assembly": "    /* \"prac50.sol\":1759:2270  contract DebugExecutionTracingVul{... */\n  mstore(0x40, 0x80)\n  callvalue\n  dup1\n  iszero\n  tag_1\n  jumpi\n  revert(0x00, 0x00)\ntag_1:\n  pop\n  dataSize(sub_0)\n  dup1\n  dataOffset(sub_0)\n  0x00\n  codecopy\n  0x00\n  return\nstop\n\nsub_0: assembly {\n        /* \"prac50.sol\":1759:2270  contract DebugExecutionTracingVul{... */\n      mstore(0x40, 0x80)\n      callvalue\n      dup1\n      iszero\n      tag_1\n      jumpi\n      revert(0x00, 0x00)\n    tag_1:\n      pop\n      jumpi(tag_2, lt(calldatasize, 0x04))\n      shr(0xe0, calldataload(0x00))\n      dup1\n      0x0430fb4b\n      eq\n      tag_3\n      jumpi\n      dup1\n      0x27e235e3\n      eq\n      tag_4\n      jumpi\n      dup1\n      0x6615be7f\n      eq\n      tag_5\n      jumpi\n    tag_2:\n      revert(0x00, 0x00)\n        /* \"prac50.sol\":1851:1893  mapping(address => uint256) public bonuses */\n    tag_3:\n      tag_6\n      0x04\n      dup1\n      calldatasize\n      sub\n      dup2\n      add\n      swap1\n      tag_7\n      swap2\n      swap1\n      tag_8\n      jump\t// in\n    tag_7:\n      tag_9\n      jump\t// in\n    tag_6:\n      mload(0x40)\n      tag_10\n      swap2\n      swap1\n      tag_11\n      jump\t// in\n    tag_10:\n      mload(0x40)\n      dup1\n      swap2\n      sub\n      swap1\n      return\n        /* \"prac50.sol\":1801:1844  mapping(address => uint256) public balances */\n    tag_4:\n      tag_12\n      0x04\n      dup1\n      calldatasize\n      sub\n      dup2\n      add\n      swap1\n      tag_13\n      swap2\n      swap1\n      tag_8\n      jump\t// in\n    tag_13:\n      tag_14\n      jump\t// in\n    tag_12:\n      mload(0x40)\n      tag_15\n      swap2\n      swap1\n      tag_11\n      jump\t// in\n    tag_15:\n      mload(0x40)\n      dup1\n      swap2\n      sub\n      swap1\n      return\n        /* \"prac50.sol\":1999:2267  function vulnerableReward(... */\n    tag_5:\n      tag_16\n      0x04\n      dup1\n      calldatasize\n      sub\n      dup2\n      add\n      swap1\n      tag_17\n      swap2\n      swap1\n      tag_18\n      jump\t// in\n    tag_17:\n      tag_19\n      jump\t// in\n    tag_16:\n      stop\n        /* \"prac50.sol\":1851:1893  mapping(address => uint256) public bonuses */\n    tag_9:\n      mstore(0x20, 0x01)\n      dup1\n      0x00\n      mstore\n      keccak256(0x00, 0x40)\n      0x00\n      swap2\n      pop\n      swap1\n      pop\n      sload\n      dup2\n      jump\t// out\n        /* \"prac50.sol\":1801:1844  mapping(address => uint256) public balances */\n    tag_14:\n      mstore(0x20, 0x00)\n      dup1\n      0x00\n      mstore\n      keccak256(0x00, 0x40)\n      0x00\n      swap2\n      pop\n      swap1\n      pop\n      sload\n      dup2\n      jump\t// out\n        /* \"prac50.sol\":1999:2267  function vulnerableReward(... */\n    tag_19:\n        /* \"prac50.sol\":2179:2181  10 */\n      0x0a\n        /* \"prac50.sol\":2156:2164  balances */\n      0x00\n        /* \"prac50.sol\":2156:2176  balances[msg.sender] */\n      0x00\n        /* \"prac50.sol\":2165:2175  msg.sender */\n      caller\n        /* \"prac50.sol\":2156:2176  balances[msg.sender] */\n      0xffffffffffffffffffffffffffffffffffffffff\n      and\n      0xffffffffffffffffffffffffffffffffffffffff\n      and\n      dup2\n      mstore\n      0x20\n      add\n      swap1\n      dup2\n      mstore\n      0x20\n      add\n      0x00\n      keccak256\n      sload\n        /* \"prac50.sol\":2156:2181  balances[msg.sender] / 10 */\n      tag_21\n      swap2\n      swap1\n      tag_22\n      jump\t// in\n    tag_21:\n        /* \"prac50.sol\":2121:2128  bonuses */\n      0x01\n        /* \"prac50.sol\":2121:2140  bonuses[msg.sender] */\n      0x00\n        /* \"prac50.sol\":2129:2139  msg.sender */\n      caller\n        /* \"prac50.sol\":2121:2140  bonuses[msg.sender] */\n      0xffffffffffffffffffffffffffffffffffffffff\n      and\n      0xffffffffffffffffffffffffffffffffffffffff\n      and\n      dup2\n      mstore\n      0x20\n      add\n      swap1\n      dup2\n      mstore\n      0x20\n      add\n      0x00\n      keccak256\n        /* \"prac50.sol\":2121:2181  bonuses[msg.sender] =... */\n      dup2\n      swap1\n      sstore\n      pop\n        /* \"prac50.sol\":2252:2259  _amount */\n      dup1\n        /* \"prac50.sol\":2228:2236  balances */\n      0x00\n        /* \"prac50.sol\":2228:2248  balances[msg.sender] */\n      0x00\n        /* \"prac50.sol\":2237:2247  msg.sender */\n      caller\n        /* \"prac50.sol\":2228:2248  balances[msg.sender] */\n      0xffffffffffffffffffffffffffffffffffffffff\n      and\n      0xffffffffffffffffffffffffffffffffffffffff\n      and\n      dup2\n      mstore\n      0x20\n      add\n      swap1\n      dup2\n      mstore\n      0x20\n      add\n      0x00\n      keccak256\n      0x00\n        /* \"prac50.sol\":2228:2259  balances[msg.sender] += _amount */\n      dup3\n      dup3\n      sload\n      tag_23\n      swap2\n      swap1\n      tag_24\n      jump\t// in\n    tag_23:\n      swap3\n      pop\n      pop\n      dup2\n      swap1\n      sstore\n      pop\n        /* \"prac50.sol\":1999:2267  function vulnerableReward(... */\n      pop\n      jump\t// out\n        /* \"#utility.yul\":88:205   */\n    tag_26:\n        /* \"#utility.yul\":197:198   */\n      0x00\n        /* \"#utility.yul\":194:195   */\n      0x00\n        /* \"#utility.yul\":187:199   */\n      revert\n        /* \"#utility.yul\":334:460   */\n    tag_28:\n        /* \"#utility.yul\":371:378   */\n      0x00\n        /* \"#utility.yul\":411:453   */\n      0xffffffffffffffffffffffffffffffffffffffff\n        /* \"#utility.yul\":404:409   */\n      dup3\n        /* \"#utility.yul\":400:454   */\n      and\n        /* \"#utility.yul\":389:454   */\n      swap1\n      pop\n        /* \"#utility.yul\":334:460   */\n      swap2\n      swap1\n      pop\n      jump\t// out\n        /* \"#utility.yul\":466:562   */\n    tag_29:\n        /* \"#utility.yul\":503:510   */\n      0x00\n        /* \"#utility.yul\":532:556   */\n      tag_44\n        /* \"#utility.yul\":550:555   */\n      dup3\n        /* \"#utility.yul\":532:556   */\n      tag_28\n      jump\t// in\n    tag_44:\n        /* \"#utility.yul\":521:556   */\n      swap1\n      pop\n        /* \"#utility.yul\":466:562   */\n      swap2\n      swap1\n      pop\n      jump\t// out\n        /* \"#utility.yul\":568:690   */\n    tag_30:\n        /* \"#utility.yul\":641:665   */\n      tag_46\n        /* \"#utility.yul\":659:664   */\n      dup2\n        /* \"#utility.yul\":641:665   */\n      tag_29\n      jump\t// in\n    tag_46:\n        /* \"#utility.yul\":634:639   */\n      dup2\n        /* \"#utility.yul\":631:666   */\n      eq\n        /* \"#utility.yul\":621:684   */\n      tag_47\n      jumpi\n        /* \"#utility.yul\":680:681   */\n      0x00\n        /* \"#utility.yul\":677:678   */\n      0x00\n        /* \"#utility.yul\":670:682   */\n      revert\n        /* \"#utility.yul\":621:684   */\n    tag_47:\n        /* \"#utility.yul\":568:690   */\n      pop\n      jump\t// out\n        /* \"#utility.yul\":696:835   */\n    tag_31:\n        /* \"#utility.yul\":742:747   */\n      0x00\n        /* \"#utility.yul\":780:786   */\n      dup2\n        /* \"#utility.yul\":767:787   */\n      calldataload\n        /* \"#utility.yul\":758:787   */\n      swap1\n      pop\n        /* \"#utility.yul\":796:829   */\n      tag_49\n        /* \"#utility.yul\":823:828   */\n      dup2\n        /* \"#utility.yul\":796:829   */\n      tag_30\n      jump\t// in\n    tag_49:\n        /* \"#utility.yul\":696:835   */\n      swap3\n      swap2\n      pop\n      pop\n      jump\t// out\n        /* \"#utility.yul\":841:1170   */\n    tag_8:\n        /* \"#utility.yul\":900:906   */\n      0x00\n        /* \"#utility.yul\":949:951   */\n      0x20\n        /* \"#utility.yul\":937:946   */\n      dup3\n        /* \"#utility.yul\":928:935   */\n      dup5\n        /* \"#utility.yul\":924:947   */\n      sub\n        /* \"#utility.yul\":920:952   */\n      slt\n        /* \"#utility.yul\":917:1036   */\n      iszero\n      tag_51\n      jumpi\n        /* \"#utility.yul\":955:1034   */\n      tag_52\n      tag_26\n      jump\t// in\n    tag_52:\n        /* \"#utility.yul\":917:1036   */\n    tag_51:\n        /* \"#utility.yul\":1075:1076   */\n      0x00\n        /* \"#utility.yul\":1100:1153   */\n      tag_53\n        /* \"#utility.yul\":1145:1152   */\n      dup5\n        /* \"#utility.yul\":1136:1142   */\n      dup3\n        /* \"#utility.yul\":1125:1134   */\n      dup6\n        /* \"#utility.yul\":1121:1143   */\n      add\n        /* \"#utility.yul\":1100:1153   */\n      tag_31\n      jump\t// in\n    tag_53:\n        /* \"#utility.yul\":1090:1153   */\n      swap2\n      pop\n        /* \"#utility.yul\":1046:1163   */\n      pop\n        /* \"#utility.yul\":841:1170   */\n      swap3\n      swap2\n      pop\n      pop\n      jump\t// out\n        /* \"#utility.yul\":1176:1253   */\n    tag_32:\n        /* \"#utility.yul\":1213:1220   */\n      0x00\n        /* \"#utility.yul\":1242:1247   */\n      dup2\n        /* \"#utility.yul\":1231:1247   */\n      swap1\n      pop\n        /* \"#utility.yul\":1176:1253   */\n      swap2\n      swap1\n      pop\n      jump\t// out\n        /* \"#utility.yul\":1259:1377   */\n    tag_33:\n        /* \"#utility.yul\":1346:1370   */\n      tag_56\n        /* \"#utility.yul\":1364:1369   */\n      dup2\n        /* \"#utility.yul\":1346:1370   */\n      tag_32\n      jump\t// in\n    tag_56:\n        /* \"#utility.yul\":1341:1344   */\n      dup3\n        /* \"#utility.yul\":1334:1371   */\n      mstore\n        /* \"#utility.yul\":1259:1377   */\n      pop\n      pop\n      jump\t// out\n        /* \"#utility.yul\":1383:1605   */\n    tag_11:\n        /* \"#utility.yul\":1476:1480   */\n      0x00\n        /* \"#utility.yul\":1514:1516   */\n      0x20\n        /* \"#utility.yul\":1503:1512   */\n      dup3\n        /* \"#utility.yul\":1499:1517   */\n      add\n        /* \"#utility.yul\":1491:1517   */\n      swap1\n      pop\n        /* \"#utility.yul\":1527:1598   */\n      tag_58\n        /* \"#utility.yul\":1595:1596   */\n      0x00\n        /* \"#utility.yul\":1584:1593   */\n      dup4\n        /* \"#utility.yul\":1580:1597   */\n      add\n        /* \"#utility.yul\":1571:1577   */\n      dup5\n        /* \"#utility.yul\":1527:1598   */\n      tag_33\n      jump\t// in\n    tag_58:\n        /* \"#utility.yul\":1383:1605   */\n      swap3\n      swap2\n      pop\n      pop\n      jump\t// out\n        /* \"#utility.yul\":1611:1733   */\n    tag_34:\n        /* \"#utility.yul\":1684:1708   */\n      tag_60\n        /* \"#utility.yul\":1702:1707   */\n      dup2\n        /* \"#utility.yul\":1684:1708   */\n      tag_32\n      jump\t// in\n    tag_60:\n        /* \"#utility.yul\":1677:1682   */\n      dup2\n        /* \"#utility.yul\":1674:1709   */\n      eq\n        /* \"#utility.yul\":1664:1727   */\n      tag_61\n      jumpi\n        /* \"#utility.yul\":1723:1724   */\n      0x00\n        /* \"#utility.yul\":1720:1721   */\n      0x00\n        /* \"#utility.yul\":1713:1725   */\n      revert\n        /* \"#utility.yul\":1664:1727   */\n    tag_61:\n        /* \"#utility.yul\":1611:1733   */\n      pop\n      jump\t// out\n        /* \"#utility.yul\":1739:1878   */\n    tag_35:\n        /* \"#utility.yul\":1785:1790   */\n      0x00\n        /* \"#utility.yul\":1823:1829   */\n      dup2\n        /* \"#utility.yul\":1810:1830   */\n      calldataload\n        /* \"#utility.yul\":1801:1830   */\n      swap1\n      pop\n        /* \"#utility.yul\":1839:1872   */\n      tag_63\n        /* \"#utility.yul\":1866:1871   */\n      dup2\n        /* \"#utility.yul\":1839:1872   */\n      tag_34\n      jump\t// in\n    tag_63:\n        /* \"#utility.yul\":1739:1878   */\n      swap3\n      swap2\n      pop\n      pop\n      jump\t// out\n        /* \"#utility.yul\":1884:2213   */\n    tag_18:\n        /* \"#utility.yul\":1943:1949   */\n      0x00\n        /* \"#utility.yul\":1992:1994   */\n      0x20\n        /* \"#utility.yul\":1980:1989   */\n      dup3\n        /* \"#utility.yul\":1971:1978   */\n      dup5\n        /* \"#utility.yul\":1967:1990   */\n      sub\n        /* \"#utility.yul\":1963:1995   */\n      slt\n        /* \"#utility.yul\":1960:2079   */\n      iszero\n      tag_65\n      jumpi\n        /* \"#utility.yul\":1998:2077   */\n      tag_66\n      tag_26\n      jump\t// in\n    tag_66:\n        /* \"#utility.yul\":1960:2079   */\n    tag_65:\n        /* \"#utility.yul\":2118:2119   */\n      0x00\n        /* \"#utility.yul\":2143:2196   */\n      tag_67\n        /* \"#utility.yul\":2188:2195   */\n      dup5\n        /* \"#utility.yul\":2179:2185   */\n      dup3\n        /* \"#utility.yul\":2168:2177   */\n      dup6\n        /* \"#utility.yul\":2164:2186   */\n      add\n        /* \"#utility.yul\":2143:2196   */\n      tag_35\n      jump\t// in\n    tag_67:\n        /* \"#utility.yul\":2133:2196   */\n      swap2\n      pop\n        /* \"#utility.yul\":2089:2206   */\n      pop\n        /* \"#utility.yul\":1884:2213   */\n      swap3\n      swap2\n      pop\n      pop\n      jump\t// out\n        /* \"#utility.yul\":2219:2399   */\n    tag_36:\n        /* \"#utility.yul\":2267:2344   */\n      0x4e487b7100000000000000000000000000000000000000000000000000000000\n        /* \"#utility.yul\":2264:2265   */\n      0x00\n        /* \"#utility.yul\":2257:2345   */\n      mstore\n        /* \"#utility.yul\":2364:2368   */\n      0x12\n        /* \"#utility.yul\":2361:2362   */\n      0x04\n        /* \"#utility.yul\":2354:2369   */\n      mstore\n        /* \"#utility.yul\":2388:2392   */\n      0x24\n        /* \"#utility.yul\":2385:2386   */\n      0x00\n        /* \"#utility.yul\":2378:2393   */\n      revert\n        /* \"#utility.yul\":2405:2585   */\n    tag_37:\n        /* \"#utility.yul\":2453:2530   */\n      0x4e487b7100000000000000000000000000000000000000000000000000000000\n        /* \"#utility.yul\":2450:2451   */\n      0x00\n        /* \"#utility.yul\":2443:2531   */\n      mstore\n        /* \"#utility.yul\":2550:2554   */\n      0x11\n        /* \"#utility.yul\":2547:2548   */\n      0x04\n        /* \"#utility.yul\":2540:2555   */\n      mstore\n        /* \"#utility.yul\":2574:2578   */\n      0x24\n        /* \"#utility.yul\":2571:2572   */\n      0x00\n        /* \"#utility.yul\":2564:2579   */\n      revert\n        /* \"#utility.yul\":2591:2776   */\n    tag_22:\n        /* \"#utility.yul\":2631:2632   */\n      0x00\n        /* \"#utility.yul\":2648:2668   */\n      tag_71\n        /* \"#utility.yul\":2666:2667   */\n      dup3\n        /* \"#utility.yul\":2648:2668   */\n      tag_32\n      jump\t// in\n    tag_71:\n        /* \"#utility.yul\":2643:2668   */\n      swap2\n      pop\n        /* \"#utility.yul\":2682:2702   */\n      tag_72\n        /* \"#utility.yul\":2700:2701   */\n      dup4\n        /* \"#utility.yul\":2682:2702   */\n      tag_32\n      jump\t// in\n    tag_72:\n        /* \"#utility.yul\":2677:2702   */\n      swap3\n      pop\n        /* \"#utility.yul\":2721:2722   */\n      dup3\n        /* \"#utility.yul\":2711:2746   */\n      tag_73\n      jumpi\n        /* \"#utility.yul\":2726:2744   */\n      tag_74\n      tag_36\n      jump\t// in\n    tag_74:\n        /* \"#utility.yul\":2711:2746   */\n    tag_73:\n        /* \"#utility.yul\":2768:2769   */\n      dup3\n        /* \"#utility.yul\":2765:2766   */\n      dup3\n        /* \"#utility.yul\":2761:2770   */\n      div\n        /* \"#utility.yul\":2756:2770   */\n      swap1\n      pop\n        /* \"#utility.yul\":2591:2776   */\n      swap3\n      swap2\n      pop\n      pop\n      jump\t// out\n        /* \"#utility.yul\":2782:2973   */\n    tag_24:\n        /* \"#utility.yul\":2822:2825   */\n      0x00\n        /* \"#utility.yul\":2841:2861   */\n      tag_76\n        /* \"#utility.yul\":2859:2860   */\n      dup3\n        /* \"#utility.yul\":2841:2861   */\n      tag_32\n      jump\t// in\n    tag_76:\n        /* \"#utility.yul\":2836:2861   */\n      swap2\n      pop\n        /* \"#utility.yul\":2875:2895   */\n      tag_77\n        /* \"#utility.yul\":2893:2894   */\n      dup4\n        /* \"#utility.yul\":2875:2895   */\n      tag_32\n      jump\t// in\n    tag_77:\n        /* \"#utility.yul\":2870:2895   */\n      swap3\n      pop\n        /* \"#utility.yul\":2918:2919   */\n      dup3\n        /* \"#utility.yul\":2915:2916   */\n      dup3\n        /* \"#utility.yul\":2911:2920   */\n      add\n        /* \"#utility.yul\":2904:2920   */\n      swap1\n      pop\n        /* \"#utility.yul\":2939:2942   */\n      dup1\n        /* \"#utility.yul\":2936:2937   */\n      dup3\n        /* \"#utility.yul\":2933:2943   */\n      gt\n        /* \"#utility.yul\":2930:2966   */\n      iszero\n      tag_78\n      jumpi\n        /* \"#utility.yul\":2946:2964   */\n      tag_79\n      tag_37\n      jump\t// in\n    tag_79:\n        /* \"#utility.yul\":2930:2966   */\n    tag_78:\n        /* \"#utility.yul\":2782:2973   */\n      swap3\n      swap2\n      pop\n      pop\n      jump\t// out\n\n    auxdata: 0xa2646970667358221220d17ad6143c8efffbdb2bfc16c4337248efe2bf8e975bd7aa9cee73a60e2e399d64736f6c63430008220033\n}\n",
				"bytecode": {
					"linkReferences": {},
					"object": "6080604052348015600e575f5ffd5b506103c98061001c5f395ff3fe608060405234801561000f575f5ffd5b506004361061003f575f3560e01c80630430fb4b1461004357806327e235e3146100735780636615be7f146100a3575b5f5ffd5b61005d60048036038101906100589190610225565b6100bf565b60405161006a9190610268565b60405180910390f35b61008d60048036038101906100889190610225565b6100d4565b60405161009a9190610268565b60405180910390f35b6100bd60048036038101906100b891906102ab565b6100e8565b005b6001602052805f5260405f205f915090505481565b5f602052805f5260405f205f915090505481565b600a5f5f3373ffffffffffffffffffffffffffffffffffffffff1673ffffffffffffffffffffffffffffffffffffffff1681526020019081526020015f20546101319190610330565b60015f3373ffffffffffffffffffffffffffffffffffffffff1673ffffffffffffffffffffffffffffffffffffffff1681526020019081526020015f2081905550805f5f3373ffffffffffffffffffffffffffffffffffffffff1673ffffffffffffffffffffffffffffffffffffffff1681526020019081526020015f205f8282546101bd9190610360565b9250508190555050565b5f5ffd5b5f73ffffffffffffffffffffffffffffffffffffffff82169050919050565b5f6101f4826101cb565b9050919050565b610204816101ea565b811461020e575f5ffd5b50565b5f8135905061021f816101fb565b92915050565b5f6020828403121561023a576102396101c7565b5b5f61024784828501610211565b91505092915050565b5f819050919050565b61026281610250565b82525050565b5f60208201905061027b5f830184610259565b92915050565b61028a81610250565b8114610294575f5ffd5b50565b5f813590506102a581610281565b92915050565b5f602082840312156102c0576102bf6101c7565b5b5f6102cd84828501610297565b91505092915050565b7f4e487b71000000000000000000000000000000000000000000000000000000005f52601260045260245ffd5b7f4e487b71000000000000000000000000000000000000000000000000000000005f52601160045260245ffd5b5f61033a82610250565b915061034583610250565b925082610355576103546102d6565b5b828204905092915050565b5f61036a82610250565b915061037583610250565b925082820190508082111561038d5761038c610303565b5b9291505056fea2646970667358221220d17ad6143c8efffbdb2bfc16c4337248efe2bf8e975bd7aa9cee73a60e2e399d64736f6c63430008220033",
					"opcodes": "PUSH1 0x80 PUSH1 0x40 MSTORE CALLVALUE DUP1 ISZERO PUSH1 0xE JUMPI PUSH0 PUSH0 REVERT JUMPDEST POP PUSH2 0x3C9 DUP1 PUSH2 0x1C PUSH0 CODECOPY PUSH0 RETURN INVALID PUSH1 0x80 PUSH1 0x40 MSTORE CALLVALUE DUP1 ISZERO PUSH2 0xF JUMPI PUSH0 PUSH0 REVERT JUMPDEST POP PUSH1 0x4 CALLDATASIZE LT PUSH2 0x3F JUMPI PUSH0 CALLDATALOAD PUSH1 0xE0 SHR DUP1 PUSH4 0x430FB4B EQ PUSH2 0x43 JUMPI DUP1 PUSH4 0x27E235E3 EQ PUSH2 0x73 JUMPI DUP1 PUSH4 0x6615BE7F EQ PUSH2 0xA3 JUMPI JUMPDEST PUSH0 PUSH0 REVERT JUMPDEST PUSH2 0x5D PUSH1 0x4 DUP1 CALLDATASIZE SUB DUP2 ADD SWAP1 PUSH2 0x58 SWAP2 SWAP1 PUSH2 0x225 JUMP JUMPDEST PUSH2 0xBF JUMP JUMPDEST PUSH1 0x40 MLOAD PUSH2 0x6A SWAP2 SWAP1 PUSH2 0x268 JUMP JUMPDEST PUSH1 0x40 MLOAD DUP1 SWAP2 SUB SWAP1 RETURN JUMPDEST PUSH2 0x8D PUSH1 0x4 DUP1 CALLDATASIZE SUB DUP2 ADD SWAP1 PUSH2 0x88 SWAP2 SWAP1 PUSH2 0x225 JUMP JUMPDEST PUSH2 0xD4 JUMP JUMPDEST PUSH1 0x40 MLOAD PUSH2 0x9A SWAP2 SWAP1 PUSH2 0x268 JUMP JUMPDEST PUSH1 0x40 MLOAD DUP1 SWAP2 SUB SWAP1 RETURN JUMPDEST PUSH2 0xBD PUSH1 0x4 DUP1 CALLDATASIZE SUB DUP2 ADD SWAP1 PUSH2 0xB8 SWAP2 SWAP1 PUSH2 0x2AB JUMP JUMPDEST PUSH2 0xE8 JUMP JUMPDEST STOP JUMPDEST PUSH1 0x1 PUSH1 0x20 MSTORE DUP1 PUSH0 MSTORE PUSH1 0x40 PUSH0 KECCAK256 PUSH0 SWAP2 POP SWAP1 POP SLOAD DUP2 JUMP JUMPDEST PUSH0 PUSH1 0x20 MSTORE DUP1 PUSH0 MSTORE PUSH1 0x40 PUSH0 KECCAK256 PUSH0 SWAP2 POP SWAP1 POP SLOAD DUP2 JUMP JUMPDEST PUSH1 0xA PUSH0 PUSH0 CALLER PUSH20 0xFFFFFFFFFFFFFFFFFFFFFFFFFFFFFFFFFFFFFFFF AND PUSH20 0xFFFFFFFFFFFFFFFFFFFFFFFFFFFFFFFFFFFFFFFF AND DUP2 MSTORE PUSH1 0x20 ADD SWAP1 DUP2 MSTORE PUSH1 0x20 ADD PUSH0 KECCAK256 SLOAD PUSH2 0x131 SWAP2 SWAP1 PUSH2 0x330 JUMP JUMPDEST PUSH1 0x1 PUSH0 CALLER PUSH20 0xFFFFFFFFFFFFFFFFFFFFFFFFFFFFFFFFFFFFFFFF AND PUSH20 0xFFFFFFFFFFFFFFFFFFFFFFFFFFFFFFFFFFFFFFFF AND DUP2 MSTORE PUSH1 0x20 ADD SWAP1 DUP2 MSTORE PUSH1 0x20 ADD PUSH0 KECCAK256 DUP2 SWAP1 SSTORE POP DUP1 PUSH0 PUSH0 CALLER PUSH20 0xFFFFFFFFFFFFFFFFFFFFFFFFFFFFFFFFFFFFFFFF AND PUSH20 0xFFFFFFFFFFFFFFFFFFFFFFFFFFFFFFFFFFFFFFFF AND DUP2 MSTORE PUSH1 0x20 ADD SWAP1 DUP2 MSTORE PUSH1 0x20 ADD PUSH0 KECCAK256 PUSH0 DUP3 DUP3 SLOAD PUSH2 0x1BD SWAP2 SWAP1 PUSH2 0x360 JUMP JUMPDEST SWAP3 POP POP DUP2 SWAP1 SSTORE POP POP JUMP JUMPDEST PUSH0 PUSH0 REVERT JUMPDEST PUSH0 PUSH20 0xFFFFFFFFFFFFFFFFFFFFFFFFFFFFFFFFFFFFFFFF DUP3 AND SWAP1 POP SWAP2 SWAP1 POP JUMP JUMPDEST PUSH0 PUSH2 0x1F4 DUP3 PUSH2 0x1CB JUMP JUMPDEST SWAP1 POP SWAP2 SWAP1 POP JUMP JUMPDEST PUSH2 0x204 DUP2 PUSH2 0x1EA JUMP JUMPDEST DUP2 EQ PUSH2 0x20E JUMPI PUSH0 PUSH0 REVERT JUMPDEST POP JUMP JUMPDEST PUSH0 DUP2 CALLDATALOAD SWAP1 POP PUSH2 0x21F DUP2 PUSH2 0x1FB JUMP JUMPDEST SWAP3 SWAP2 POP POP JUMP JUMPDEST PUSH0 PUSH1 0x20 DUP3 DUP5 SUB SLT ISZERO PUSH2 0x23A JUMPI PUSH2 0x239 PUSH2 0x1C7 JUMP JUMPDEST JUMPDEST PUSH0 PUSH2 0x247 DUP5 DUP3 DUP6 ADD PUSH2 0x211 JUMP JUMPDEST SWAP2 POP POP SWAP3 SWAP2 POP POP JUMP JUMPDEST PUSH0 DUP2 SWAP1 POP SWAP2 SWAP1 POP JUMP JUMPDEST PUSH2 0x262 DUP2 PUSH2 0x250 JUMP JUMPDEST DUP3 MSTORE POP POP JUMP JUMPDEST PUSH0 PUSH1 0x20 DUP3 ADD SWAP1 POP PUSH2 0x27B PUSH0 DUP4 ADD DUP5 PUSH2 0x259 JUMP JUMPDEST SWAP3 SWAP2 POP POP JUMP JUMPDEST PUSH2 0x28A DUP2 PUSH2 0x250 JUMP JUMPDEST DUP2 EQ PUSH2 0x294 JUMPI PUSH0 PUSH0 REVERT JUMPDEST POP JUMP JUMPDEST PUSH0 DUP2 CALLDATALOAD SWAP1 POP PUSH2 0x2A5 DUP2 PUSH2 0x281 JUMP JUMPDEST SWAP3 SWAP2 POP POP JUMP JUMPDEST PUSH0 PUSH1 0x20 DUP3 DUP5 SUB SLT ISZERO PUSH2 0x2C0 JUMPI PUSH2 0x2BF PUSH2 0x1C7 JUMP JUMPDEST JUMPDEST PUSH0 PUSH2 0x2CD DUP5 DUP3 DUP6 ADD PUSH2 0x297 JUMP JUMPDEST SWAP2 POP POP SWAP3 SWAP2 POP POP JUMP JUMPDEST PUSH32 0x4E487B7100000000000000000000000000000000000000000000000000000000 PUSH0 MSTORE PUSH1 0x12 PUSH1 0x4 MSTORE PUSH1 0x24 PUSH0 REVERT JUMPDEST PUSH32 0x4E487B7100000000000000000000000000000000000000000000000000000000 PUSH0 MSTORE PUSH1 0x11 PUSH1 0x4 MSTORE PUSH1 0x24 PUSH0 REVERT JUMPDEST PUSH0 PUSH2 0x33A DUP3 PUSH2 0x250 JUMP JUMPDEST SWAP2 POP PUSH2 0x345 DUP4 PUSH2 0x250 JUMP JUMPDEST SWAP3 POP DUP3 PUSH2 0x355 JUMPI PUSH2 0x354 PUSH2 0x2D6 JUMP JUMPDEST JUMPDEST DUP3 DUP3 DIV SWAP1 POP SWAP3 SWAP2 POP POP JUMP JUMPDEST PUSH0 PUSH2 0x36A DUP3 PUSH2 0x250 JUMP JUMPDEST SWAP2 POP PUSH2 0x375 DUP4 PUSH2 0x250 JUMP JUMPDEST SWAP3 POP DUP3 DUP3 ADD SWAP1 POP DUP1 DUP3 GT ISZERO PUSH2 0x38D JUMPI PUSH2 0x38C PUSH2 0x303 JUMP JUMPDEST JUMPDEST SWAP3 SWAP2 POP POP JUMP INVALID LOG2 PUSH5 0x6970667358 0x22 SLT KECCAK256 DATALOADN 0x7AD6 EQ EXTCODECOPY DUP15 SELFDESTRUCT EXTSTATICCALL 0xDB 0x2B 0xFC AND 0xC4 CALLER PUSH19 0x48EFE2BF8E975BD7AA9CEE73A60E2E399D6473 PUSH16 0x6C634300082200330000000000000000 "
				},
				"gasEstimates": {
					"creation": {
						"codeDepositCost": "193800",
						"executionCost": "236",
						"totalCost": "194036"
					},
					"external": {
						"balances(address)": "2801",
						"bonuses(address)": "2780",
						"vulnerableReward(uint256)": "infinite"
					}
				},
				"methodIdentifiers": {
					"balances(address)": "27e235e3",
					"bonuses(address)": "0430fb4b",
					"vulnerableReward(uint256)": "6615be7f"
				}
			},
			"storageLayout": {
				"storage": [
					{
						"astId": 5,
						"contract": "prac50.sol:DebugExecutionTracingVul",
						"label": "balances",
						"offset": 0,
						"slot": "0",
						"type": "t_mapping(t_address,t_uint256)"
					},
					{
						"astId": 9,
						"contract": "prac50.sol:DebugExecutionTracingVul",
						"label": "bonuses",
						"offset": 0,
						"slot": "1",
						"type": "t_mapping(t_address,t_uint256)"
					}
				],
				"types": {
					"t_address": {
						"encoding": "inplace",
						"label": "address",
						"numberOfBytes": "20"
					},
					"t_mapping(t_address,t_uint256)": {
						"encoding": "mapping",
						"key": "t_address",
						"label": "mapping(address => uint256)",
						"numberOfBytes": "32",
						"value": "t_uint256"
					},
					"t_uint256": {
						"encoding": "inplace",
						"label": "uint256",
						"numberOfBytes": "32"
					}
				}
			},
			"userdoc": {
				"kind": "user",
				"methods": {},
				"version": 1
			}
		}
	}
}