{
	"prac70.sol": {
		"CalldataGasVul": {
			"abi": [
				{
					"inputs": [],
					"name": "getTotalElements",
					"outputs": [
						{
							"internalType": "uint256",
							"name": "",
							"type": "uint256"
						}
					],
					"stateMutability": "view",
					"type": "function"
				},
				{
					"inputs": [
						{
							"internalType": "uint256[]",
							"name": "data",
							"type": "uint256[]"
						}
					],
					"name": "processCalldataArray",
					"outputs": [],
					"stateMutability": "nonpayable",
					"type": "function"
				},
				{
					"inputs": [],
					"name": "totalElements",
					"outputs": [
						{
							"internalType": "uint256",
							"name": "",
							"type": "uint256"
						}
					],
					"stateMutability": "view",
					"type": "function"
				},
				{
					"inputs": [],
					"name": "totalSum",
					"outputs": [
						{
							"internalType": "uint256",
							"name": "",
							"type": "uint256"
						}
					],
					"stateMutability": "view",
					"type": "function"
				}
			],
			"devdoc": {
				"kind": "dev",
				"methods": {},
				"version": 1
			},
			"evm": {
				"assembly": "    /* \"prac70.sol\":1737:2541  contract CalldataGasVul {... */\n  mstore(0x40, 0x80)\n  callvalue\n  dup1\n  iszero\n  tag_1\n  jumpi\n  revert(0x00, 0x00)\ntag_1:\n  pop\n  dataSize(sub_0)\n  dup1\n  dataOffset(sub_0)\n  0x00\n  codecopy\n  0x00\n  return\nstop\n\nsub_0: assembly {\n        /* \"prac70.sol\":1737:2541  contract CalldataGasVul {... */\n      mstore(0x40, 0x80)\n      callvalue\n      dup1\n      iszero\n      tag_1\n      jumpi\n      revert(0x00, 0x00)\n    tag_1:\n      pop\n      jumpi(tag_2, lt(calldatasize, 0x04))\n      shr(0xe0, calldataload(0x00))\n      dup1\n      0x416e366d\n      eq\n      tag_3\n      jumpi\n      dup1\n      0x4869f99d\n      eq\n      tag_4\n      jumpi\n      dup1\n      0x7aa63a86\n      eq\n      tag_5\n      jumpi\n      dup1\n      0x8af77bd7\n      eq\n      tag_6\n      jumpi\n    tag_2:\n      revert(0x00, 0x00)\n        /* \"prac70.sol\":2061:2399  function processCalldataArray(... */\n    tag_3:\n      tag_7\n      0x04\n      dup1\n      calldatasize\n      sub\n      dup2\n      add\n      swap1\n      tag_8\n      swap2\n      swap1\n      tag_9\n      jump\t// in\n    tag_8:\n      tag_10\n      jump\t// in\n    tag_7:\n      stop\n        /* \"prac70.sol\":1770:1793  uint256 public totalSum */\n    tag_4:\n      tag_11\n      tag_12\n      jump\t// in\n    tag_11:\n      mload(0x40)\n      tag_13\n      swap2\n      swap1\n      tag_14\n      jump\t// in\n    tag_13:\n      mload(0x40)\n      dup1\n      swap2\n      sub\n      swap1\n      return\n        /* \"prac70.sol\":2407:2538  function getTotalElements()... */\n    tag_5:\n      tag_15\n      tag_16\n      jump\t// in\n    tag_15:\n      mload(0x40)\n      tag_17\n      swap2\n      swap1\n      tag_14\n      jump\t// in\n    tag_17:\n      mload(0x40)\n      dup1\n      swap2\n      sub\n      swap1\n      return\n        /* \"prac70.sol\":1800:1828  uint256 public totalElements */\n    tag_6:\n      tag_18\n      tag_19\n      jump\t// in\n    tag_18:\n      mload(0x40)\n      tag_20\n      swap2\n      swap1\n      tag_14\n      jump\t// in\n    tag_20:\n      mload(0x40)\n      dup1\n      swap2\n      sub\n      swap1\n      return\n        /* \"prac70.sol\":2061:2399  function processCalldataArray(... */\n    tag_10:\n        /* \"prac70.sol\":2166:2177  uint256 sum */\n      0x00\n        /* \"prac70.sol\":2180:2181  0 */\n      0x00\n        /* \"prac70.sol\":2166:2181  uint256 sum = 0 */\n      swap1\n      pop\n        /* \"prac70.sol\":2199:2208  uint256 i */\n      0x00\n        /* \"prac70.sol\":2211:2212  0 */\n      0x00\n        /* \"prac70.sol\":2199:2212  uint256 i = 0 */\n      swap1\n      pop\n        /* \"prac70.sol\":2194:2365  for (uint256 i = 0; i < data.length; i++) {... */\n    tag_22:\n        /* \"prac70.sol\":2218:2222  data */\n      dup4\n      dup4\n        /* \"prac70.sol\":2218:2229  data.length */\n      swap1\n      pop\n        /* \"prac70.sol\":2214:2215  i */\n      dup2\n        /* \"prac70.sol\":2214:2229  i < data.length */\n      lt\n        /* \"prac70.sol\":2194:2365  for (uint256 i = 0; i < data.length; i++) {... */\n      iszero\n      tag_23\n      jumpi\n        /* \"prac70.sol\":2258:2262  data */\n      dup4\n      dup4\n        /* \"prac70.sol\":2263:2264  i */\n      dup3\n        /* \"prac70.sol\":2258:2265  data[i] */\n      dup2\n      dup2\n      lt\n      tag_25\n      jumpi\n      tag_26\n      tag_27\n      jump\t// in\n    tag_26:\n    tag_25:\n      swap1\n      pop\n      0x20\n      mul\n      add\n      calldataload\n        /* \"prac70.sol\":2251:2265  sum += data[i] */\n      dup3\n      tag_28\n      swap2\n      swap1\n      tag_29\n      jump\t// in\n    tag_28:\n      swap2\n      pop\n        /* \"prac70.sol\":2338:2351  totalElements */\n      0x01\n      0x00\n        /* \"prac70.sol\":2338:2353  totalElements++ */\n      dup2\n      sload\n      dup1\n      swap3\n      swap2\n      swap1\n      tag_30\n      swap1\n      tag_31\n      jump\t// in\n    tag_30:\n      swap2\n      swap1\n      pop\n      sstore\n      pop\n        /* \"prac70.sol\":2231:2234  i++ */\n      dup1\n      dup1\n      0x01\n      add\n      swap2\n      pop\n      pop\n        /* \"prac70.sol\":2194:2365  for (uint256 i = 0; i < data.length; i++) {... */\n      jump(tag_22)\n    tag_23:\n      pop\n        /* \"prac70.sol\":2388:2391  sum */\n      dup1\n        /* \"prac70.sol\":2377:2385  totalSum */\n      0x00\n        /* \"prac70.sol\":2377:2391  totalSum = sum */\n      dup2\n      swap1\n      sstore\n      pop\n        /* \"prac70.sol\":2155:2399  {... */\n      pop\n        /* \"prac70.sol\":2061:2399  function processCalldataArray(... */\n      pop\n      pop\n      jump\t// out\n        /* \"prac70.sol\":1770:1793  uint256 public totalSum */\n    tag_12:\n      sload(0x00)\n      dup2\n      jump\t// out\n        /* \"prac70.sol\":2407:2538  function getTotalElements()... */\n    tag_16:\n        /* \"prac70.sol\":2485:2492  uint256 */\n      0x00\n        /* \"prac70.sol\":2517:2530  totalElements */\n      sload(0x01)\n        /* \"prac70.sol\":2510:2530  return totalElements */\n      swap1\n      pop\n        /* \"prac70.sol\":2407:2538  function getTotalElements()... */\n      swap1\n      jump\t// out\n        /* \"prac70.sol\":1800:1828  uint256 public totalElements */\n    tag_19:\n      sload(0x01)\n      dup2\n      jump\t// out\n        /* \"#utility.yul\":88:205   */\n    tag_34:\n        /* \"#utility.yul\":197:198   */\n      0x00\n        /* \"#utility.yul\":194:195   */\n      0x00\n        /* \"#utility.yul\":187:199   */\n      revert\n        /* \"#utility.yul\":211:328   */\n    tag_35:\n        /* \"#utility.yul\":320:321   */\n      0x00\n        /* \"#utility.yul\":317:318   */\n      0x00\n        /* \"#utility.yul\":310:322   */\n      revert\n        /* \"#utility.yul\":334:451   */\n    tag_36:\n        /* \"#utility.yul\":443:444   */\n      0x00\n        /* \"#utility.yul\":440:441   */\n      0x00\n        /* \"#utility.yul\":433:445   */\n      revert\n        /* \"#utility.yul\":457:574   */\n    tag_37:\n        /* \"#utility.yul\":566:567   */\n      0x00\n        /* \"#utility.yul\":563:564   */\n      0x00\n        /* \"#utility.yul\":556:568   */\n      revert\n        /* \"#utility.yul\":580:697   */\n    tag_38:\n        /* \"#utility.yul\":689:690   */\n      0x00\n        /* \"#utility.yul\":686:687   */\n      0x00\n        /* \"#utility.yul\":679:691   */\n      revert\n        /* \"#utility.yul\":720:1288   */\n    tag_39:\n        /* \"#utility.yul\":793:801   */\n      0x00\n        /* \"#utility.yul\":803:809   */\n      0x00\n        /* \"#utility.yul\":853:856   */\n      dup4\n        /* \"#utility.yul\":846:850   */\n      0x1f\n        /* \"#utility.yul\":838:844   */\n      dup5\n        /* \"#utility.yul\":834:851   */\n      add\n        /* \"#utility.yul\":830:857   */\n      slt\n        /* \"#utility.yul\":820:942   */\n      tag_51\n      jumpi\n        /* \"#utility.yul\":861:940   */\n      tag_52\n      tag_36\n      jump\t// in\n    tag_52:\n        /* \"#utility.yul\":820:942   */\n    tag_51:\n        /* \"#utility.yul\":974:980   */\n      dup3\n        /* \"#utility.yul\":961:981   */\n      calldataload\n        /* \"#utility.yul\":951:981   */\n      swap1\n      pop\n        /* \"#utility.yul\":1004:1022   */\n      0xffffffffffffffff\n        /* \"#utility.yul\":996:1002   */\n      dup2\n        /* \"#utility.yul\":993:1023   */\n      gt\n        /* \"#utility.yul\":990:1107   */\n      iszero\n      tag_53\n      jumpi\n        /* \"#utility.yul\":1026:1105   */\n      tag_54\n      tag_37\n      jump\t// in\n    tag_54:\n        /* \"#utility.yul\":990:1107   */\n    tag_53:\n        /* \"#utility.yul\":1140:1144   */\n      0x20\n        /* \"#utility.yul\":1132:1138   */\n      dup4\n        /* \"#utility.yul\":1128:1145   */\n      add\n        /* \"#utility.yul\":1116:1145   */\n      swap2\n      pop\n        /* \"#utility.yul\":1194:1197   */\n      dup4\n        /* \"#utility.yul\":1186:1190   */\n      0x20\n        /* \"#utility.yul\":1178:1184   */\n      dup3\n        /* \"#utility.yul\":1174:1191   */\n      mul\n        /* \"#utility.yul\":1164:1172   */\n      dup4\n        /* \"#utility.yul\":1160:1192   */\n      add\n        /* \"#utility.yul\":1157:1198   */\n      gt\n        /* \"#utility.yul\":1154:1282   */\n      iszero\n      tag_55\n      jumpi\n        /* \"#utility.yul\":1201:1280   */\n      tag_56\n      tag_38\n      jump\t// in\n    tag_56:\n        /* \"#utility.yul\":1154:1282   */\n    tag_55:\n        /* \"#utility.yul\":720:1288   */\n      swap3\n      pop\n      swap3\n      swap1\n      pop\n      jump\t// out\n        /* \"#utility.yul\":1294:1853   */\n    tag_9:\n        /* \"#utility.yul\":1380:1386   */\n      0x00\n        /* \"#utility.yul\":1388:1394   */\n      0x00\n        /* \"#utility.yul\":1437:1439   */\n      0x20\n        /* \"#utility.yul\":1425:1434   */\n      dup4\n        /* \"#utility.yul\":1416:1423   */\n      dup6\n        /* \"#utility.yul\":1412:1435   */\n      sub\n        /* \"#utility.yul\":1408:1440   */\n      slt\n        /* \"#utility.yul\":1405:1524   */\n      iszero\n      tag_58\n      jumpi\n        /* \"#utility.yul\":1443:1522   */\n      tag_59\n      tag_34\n      jump\t// in\n    tag_59:\n        /* \"#utility.yul\":1405:1524   */\n    tag_58:\n        /* \"#utility.yul\":1591:1592   */\n      0x00\n        /* \"#utility.yul\":1580:1589   */\n      dup4\n        /* \"#utility.yul\":1576:1593   */\n      add\n        /* \"#utility.yul\":1563:1594   */\n      calldataload\n        /* \"#utility.yul\":1621:1639   */\n      0xffffffffffffffff\n        /* \"#utility.yul\":1613:1619   */\n      dup2\n        /* \"#utility.yul\":1610:1640   */\n      gt\n        /* \"#utility.yul\":1607:1724   */\n      iszero\n      tag_60\n      jumpi\n        /* \"#utility.yul\":1643:1722   */\n      tag_61\n      tag_35\n      jump\t// in\n    tag_61:\n        /* \"#utility.yul\":1607:1724   */\n    tag_60:\n        /* \"#utility.yul\":1756:1836   */\n      tag_62\n        /* \"#utility.yul\":1828:1835   */\n      dup6\n        /* \"#utility.yul\":1819:1825   */\n      dup3\n        /* \"#utility.yul\":1808:1817   */\n      dup7\n        /* \"#utility.yul\":1804:1826   */\n      add\n        /* \"#utility.yul\":1756:1836   */\n      tag_39\n      jump\t// in\n    tag_62:\n        /* \"#utility.yul\":1738:1836   */\n      swap3\n      pop\n      swap3\n      pop\n        /* \"#utility.yul\":1534:1846   */\n      pop\n        /* \"#utility.yul\":1294:1853   */\n      swap3\n      pop\n      swap3\n      swap1\n      pop\n      jump\t// out\n        /* \"#utility.yul\":1859:1936   */\n    tag_40:\n        /* \"#utility.yul\":1896:1903   */\n      0x00\n        /* \"#utility.yul\":1925:1930   */\n      dup2\n        /* \"#utility.yul\":1914:1930   */\n      swap1\n      pop\n        /* \"#utility.yul\":1859:1936   */\n      swap2\n      swap1\n      pop\n      jump\t// out\n        /* \"#utility.yul\":1942:2060   */\n    tag_41:\n        /* \"#utility.yul\":2029:2053   */\n      tag_65\n        /* \"#utility.yul\":2047:2052   */\n      dup2\n        /* \"#utility.yul\":2029:2053   */\n      tag_40\n      jump\t// in\n    tag_65:\n        /* \"#utility.yul\":2024:2027   */\n      dup3\n        /* \"#utility.yul\":2017:2054   */\n      mstore\n        /* \"#utility.yul\":1942:2060   */\n      pop\n      pop\n      jump\t// out\n        /* \"#utility.yul\":2066:2288   */\n    tag_14:\n        /* \"#utility.yul\":2159:2163   */\n      0x00\n        /* \"#utility.yul\":2197:2199   */\n      0x20\n        /* \"#utility.yul\":2186:2195   */\n      dup3\n        /* \"#utility.yul\":2182:2200   */\n      add\n        /* \"#utility.yul\":2174:2200   */\n      swap1\n      pop\n        /* \"#utility.yul\":2210:2281   */\n      tag_67\n        /* \"#utility.yul\":2278:2279   */\n      0x00\n        /* \"#utility.yul\":2267:2276   */\n      dup4\n        /* \"#utility.yul\":2263:2280   */\n      add\n        /* \"#utility.yul\":2254:2260   */\n      dup5\n        /* \"#utility.yul\":2210:2281   */\n      tag_41\n      jump\t// in\n    tag_67:\n        /* \"#utility.yul\":2066:2288   */\n      swap3\n      swap2\n      pop\n      pop\n      jump\t// out\n        /* \"#utility.yul\":2294:2474   */\n    tag_27:\n        /* \"#utility.yul\":2342:2419   */\n      0x4e487b7100000000000000000000000000000000000000000000000000000000\n        /* \"#utility.yul\":2339:2340   */\n      0x00\n        /* \"#utility.yul\":2332:2420   */\n      mstore\n        /* \"#utility.yul\":2439:2443   */\n      0x32\n        /* \"#utility.yul\":2436:2437   */\n      0x04\n        /* \"#utility.yul\":2429:2444   */\n      mstore\n        /* \"#utility.yul\":2463:2467   */\n      0x24\n        /* \"#utility.yul\":2460:2461   */\n      0x00\n        /* \"#utility.yul\":2453:2468   */\n      revert\n        /* \"#utility.yul\":2480:2660   */\n    tag_42:\n        /* \"#utility.yul\":2528:2605   */\n      0x4e487b7100000000000000000000000000000000000000000000000000000000\n        /* \"#utility.yul\":2525:2526   */\n      0x00\n        /* \"#utility.yul\":2518:2606   */\n      mstore\n        /* \"#utility.yul\":2625:2629   */\n      0x11\n        /* \"#utility.yul\":2622:2623   */\n      0x04\n        /* \"#utility.yul\":2615:2630   */\n      mstore\n        /* \"#utility.yul\":2649:2653   */\n      0x24\n        /* \"#utility.yul\":2646:2647   */\n      0x00\n        /* \"#utility.yul\":2639:2654   */\n      revert\n        /* \"#utility.yul\":2666:2857   */\n    tag_29:\n        /* \"#utility.yul\":2706:2709   */\n      0x00\n        /* \"#utility.yul\":2725:2745   */\n      tag_71\n        /* \"#utility.yul\":2743:2744   */\n      dup3\n        /* \"#utility.yul\":2725:2745   */\n      tag_40\n      jump\t// in\n    tag_71:\n        /* \"#utility.yul\":2720:2745   */\n      swap2\n      pop\n        /* \"#utility.yul\":2759:2779   */\n      tag_72\n        /* \"#utility.yul\":2777:2778   */\n      dup4\n        /* \"#utility.yul\":2759:2779   */\n      tag_40\n      jump\t// in\n    tag_72:\n        /* \"#utility.yul\":2754:2779   */\n      swap3\n      pop\n        /* \"#utility.yul\":2802:2803   */\n      dup3\n        /* \"#utility.yul\":2799:2800   */\n      dup3\n        /* \"#utility.yul\":2795:2804   */\n      add\n        /* \"#utility.yul\":2788:2804   */\n      swap1\n      pop\n        /* \"#utility.yul\":2823:2826   */\n      dup1\n        /* \"#utility.yul\":2820:2821   */\n      dup3\n        /* \"#utility.yul\":2817:2827   */\n      gt\n        /* \"#utility.yul\":2814:2850   */\n      iszero\n      tag_73\n      jumpi\n        /* \"#utility.yul\":2830:2848   */\n      tag_74\n      tag_42\n      jump\t// in\n    tag_74:\n        /* \"#utility.yul\":2814:2850   */\n    tag_73:\n        /* \"#utility.yul\":2666:2857   */\n      swap3\n      swap2\n      pop\n      pop\n      jump\t// out\n        /* \"#utility.yul\":2863:3096   */\n    tag_31:\n        /* \"#utility.yul\":2902:2905   */\n      0x00\n        /* \"#utility.yul\":2925:2949   */\n      tag_76\n        /* \"#utility.yul\":2943:2948   */\n      dup3\n        /* \"#utility.yul\":2925:2949   */\n      tag_40\n      jump\t// in\n    tag_76:\n        /* \"#utility.yul\":2916:2949   */\n      swap2\n      pop\n        /* \"#utility.yul\":2971:3037   */\n      0xffffffffffffffffffffffffffffffffffffffffffffffffffffffffffffffff\n        /* \"#utility.yul\":2964:2969   */\n      dup3\n        /* \"#utility.yul\":2961:3038   */\n      sub\n        /* \"#utility.yul\":2958:3061   */\n      tag_77\n      jumpi\n        /* \"#utility.yul\":3041:3059   */\n      tag_78\n      tag_42\n      jump\t// in\n    tag_78:\n        /* \"#utility.yul\":2958:3061   */\n    tag_77:\n        /* \"#utility.yul\":3088:3089   */\n      0x01\n        /* \"#utility.yul\":3081:3086   */\n      dup3\n        /* \"#utility.yul\":3077:3090   */\n      add\n        /* \"#utility.yul\":3070:3090   */\n      swap1\n      pop\n        /* \"#utility.yul\":2863:3096   */\n      swap2\n      swap1\n      pop\n      jump\t// out\n\n    auxdata: 0xa2646970667358221220733fe34c181e49b340739bad3d645fdb6bd2ee8af7c4841d8f235759a4b217e664736f6c63430008220033\n}\n",
				"bytecode": {
					"linkReferences": {},
					"object": "6080604052348015600e575f5ffd5b506103328061001c5f395ff3fe608060405234801561000f575f5ffd5b506004361061004a575f3560e01c8063416e366d1461004e5780634869f99d1461006a5780637aa63a86146100885780638af77bd7146100a6575b5f5ffd5b610068600480360381019061006391906101ac565b6100c4565b005b61007261012f565b60405161007f919061020f565b60405180910390f35b610090610134565b60405161009d919061020f565b60405180910390f35b6100ae61013d565b6040516100bb919061020f565b60405180910390f35b5f5f90505f5f90505b83839050811015610123578383828181106100eb576100ea610228565b5b90506020020135826100fd9190610282565b915060015f815480929190610111906102b5565b919050555080806001019150506100cd565b50805f81905550505050565b5f5481565b5f600154905090565b60015481565b5f5ffd5b5f5ffd5b5f5ffd5b5f5ffd5b5f5ffd5b5f5f83601f84011261016c5761016b61014b565b5b8235905067ffffffffffffffff8111156101895761018861014f565b5b6020830191508360208202830111156101a5576101a4610153565b5b9250929050565b5f5f602083850312156101c2576101c1610143565b5b5f83013567ffffffffffffffff8111156101df576101de610147565b5b6101eb85828601610157565b92509250509250929050565b5f819050919050565b610209816101f7565b82525050565b5f6020820190506102225f830184610200565b92915050565b7f4e487b71000000000000000000000000000000000000000000000000000000005f52603260045260245ffd5b7f4e487b71000000000000000000000000000000000000000000000000000000005f52601160045260245ffd5b5f61028c826101f7565b9150610297836101f7565b92508282019050808211156102af576102ae610255565b5b92915050565b5f6102bf826101f7565b91507fffffffffffffffffffffffffffffffffffffffffffffffffffffffffffffffff82036102f1576102f0610255565b5b60018201905091905056fea2646970667358221220733fe34c181e49b340739bad3d645fdb6bd2ee8af7c4841d8f235759a4b217e664736f6c63430008220033",
					"opcodes": "PUSH1 0x80 PUSH1 0x40 MSTORE CALLVALUE DUP1 ISZERO PUSH1 0xE JUMPI PUSH0 PUSH0 REVERT JUMPDEST POP PUSH2 0x332 DUP1 PUSH2 0x1C PUSH0 CODECOPY PUSH0 RETURN INVALID PUSH1 0x80 PUSH1 0x40 MSTORE CALLVALUE DUP1 ISZERO PUSH2 0xF JUMPI PUSH0 PUSH0 REVERT JUMPDEST POP PUSH1 0x4 CALLDATASIZE LT PUSH2 0x4A JUMPI PUSH0 CALLDATALOAD PUSH1 0xE0 SHR DUP1 PUSH4 0x416E366D EQ PUSH2 0x4E JUMPI DUP1 PUSH4 0x4869F99D EQ PUSH2 0x6A JUMPI DUP1 PUSH4 0x7AA63A86 EQ PUSH2 0x88 JUMPI DUP1 PUSH4 0x8AF77BD7 EQ PUSH2 0xA6 JUMPI JUMPDEST PUSH0 PUSH0 REVERT JUMPDEST PUSH2 0x68 PUSH1 0x4 DUP1 CALLDATASIZE SUB DUP2 ADD SWAP1 PUSH2 0x63 SWAP2 SWAP1 PUSH2 0x1AC JUMP JUMPDEST PUSH2 0xC4 JUMP JUMPDEST STOP JUMPDEST PUSH2 0x72 PUSH2 0x12F JUMP JUMPDEST PUSH1 0x40 MLOAD PUSH2 0x7F SWAP2 SWAP1 PUSH2 0x20F JUMP JUMPDEST PUSH1 0x40 MLOAD DUP1 SWAP2 SUB SWAP1 RETURN JUMPDEST PUSH2 0x90 PUSH2 0x134 JUMP JUMPDEST PUSH1 0x40 MLOAD PUSH2 0x9D SWAP2 SWAP1 PUSH2 0x20F JUMP JUMPDEST PUSH1 0x40 MLOAD DUP1 SWAP2 SUB SWAP1 RETURN JUMPDEST PUSH2 0xAE PUSH2 0x13D JUMP JUMPDEST PUSH1 0x40 MLOAD PUSH2 0xBB SWAP2 SWAP1 PUSH2 0x20F JUMP JUMPDEST PUSH1 0x40 MLOAD DUP1 SWAP2 SUB SWAP1 RETURN JUMPDEST PUSH0 PUSH0 SWAP1 POP PUSH0 PUSH0 SWAP1 POP JUMPDEST DUP4 DUP4 SWAP1 POP DUP2 LT ISZERO PUSH2 0x123 JUMPI DUP4 DUP4 DUP3 DUP2 DUP2 LT PUSH2 0xEB JUMPI PUSH2 0xEA PUSH2 0x228 JUMP JUMPDEST JUMPDEST SWAP1 POP PUSH1 0x20 MUL ADD CALLDATALOAD DUP3 PUSH2 0xFD SWAP2 SWAP1 PUSH2 0x282 JUMP JUMPDEST SWAP2 POP PUSH1 0x1 PUSH0 DUP2 SLOAD DUP1 SWAP3 SWAP2 SWAP1 PUSH2 0x111 SWAP1 PUSH2 0x2B5 JUMP JUMPDEST SWAP2 SWAP1 POP SSTORE POP DUP1 DUP1 PUSH1 0x1 ADD SWAP2 POP POP PUSH2 0xCD JUMP JUMPDEST POP DUP1 PUSH0 DUP2 SWAP1 SSTORE POP POP POP POP JUMP JUMPDEST PUSH0 SLOAD DUP2 JUMP JUMPDEST PUSH0 PUSH1 0x1 SLOAD SWAP1 POP SWAP1 JUMP JUMPDEST PUSH1 0x1 SLOAD DUP2 JUMP JUMPDEST PUSH0 PUSH0 REVERT JUMPDEST PUSH0 PUSH0 REVERT JUMPDEST PUSH0 PUSH0 REVERT JUMPDEST PUSH0 PUSH0 REVERT JUMPDEST PUSH0 PUSH0 REVERT JUMPDEST PUSH0 PUSH0 DUP4 PUSH1 0x1F DUP5 ADD SLT PUSH2 0x16C JUMPI PUSH2 0x16B PUSH2 0x14B JUMP JUMPDEST JUMPDEST DUP3 CALLDATALOAD SWAP1 POP PUSH8 0xFFFFFFFFFFFFFFFF DUP2 GT ISZERO PUSH2 0x189 JUMPI PUSH2 0x188 PUSH2 0x14F JUMP JUMPDEST JUMPDEST PUSH1 0x20 DUP4 ADD SWAP2 POP DUP4 PUSH1 0x20 DUP3 MUL DUP4 ADD GT ISZERO PUSH2 0x1A5 JUMPI PUSH2 0x1A4 PUSH2 0x153 JUMP JUMPDEST JUMPDEST SWAP3 POP SWAP3 SWAP1 POP JUMP JUMPDEST PUSH0 PUSH0 PUSH1 0x20 DUP4 DUP6 SUB SLT ISZERO PUSH2 0x1C2 JUMPI PUSH2 0x1C1 PUSH2 0x143 JUMP JUMPDEST JUMPDEST PUSH0 DUP4 ADD CALLDATALOAD PUSH8 0xFFFFFFFFFFFFFFFF DUP2 GT ISZERO PUSH2 0x1DF JUMPI PUSH2 0x1DE PUSH2 0x147 JUMP JUMPDEST JUMPDEST PUSH2 0x1EB DUP6 DUP3 DUP7 ADD PUSH2 0x157 JUMP JUMPDEST SWAP3 POP SWAP3 POP POP SWAP3 POP SWAP3 SWAP1 POP JUMP JUMPDEST PUSH0 DUP2 SWAP1 POP SWAP2 SWAP1 POP JUMP JUMPDEST PUSH2 0x209 DUP2 PUSH2 0x1F7 JUMP JUMPDEST DUP3 MSTORE POP POP JUMP JUMPDEST PUSH0 PUSH1 0x20 DUP3 ADD SWAP1 POP PUSH2 0x222 PUSH0 DUP4 ADD DUP5 PUSH2 0x200 JUMP JUMPDEST SWAP3 SWAP2 POP POP JUMP JUMPDEST PUSH32 0x4E487B7100000000000000000000000000000000000000000000000000000000 PUSH0 MSTORE PUSH1 0x32 PUSH1 0x4 MSTORE PUSH1 0x24 PUSH0 REVERT JUMPDEST PUSH32 0x4E487B7100000000000000000000000000000000000000000000000000000000 PUSH0 MSTORE PUSH1 0x11 PUSH1 0x4 MSTORE PUSH1 0x24 PUSH0 REVERT JUMPDEST PUSH0 PUSH2 0x28C DUP3 PUSH2 0x1F7 JUMP JUMPDEST SWAP2 POP PUSH2 0x297 DUP4 PUSH2 0x1F7 JUMP JUMPDEST SWAP3 POP DUP3 DUP3 ADD SWAP1 POP DUP1 DUP3 GT ISZERO PUSH2 0x2AF JUMPI PUSH2 0x2AE PUSH2 0x255 JUMP JUMPDEST JUMPDEST SWAP3 SWAP2 POP POP JUMP JUMPDEST PUSH0 PUSH2 0x2BF DUP3 PUSH2 0x1F7 JUMP JUMPDEST SWAP2 POP PUSH32 0xFFFFFFFFFFFFFFFFFFFFFFFFFFFFFFFFFFFFFFFFFFFFFFFFFFFFFFFFFFFFFFFF DUP3 SUB PUSH2 0x2F1 JUMPI PUSH2 0x2F0 PUSH2 0x255 JUMP JUMPDEST JUMPDEST PUSH1 0x1 DUP3 ADD SWAP1 POP SWAP2 SWAP1 POP JUMP INVALID LOG2 PUSH5 0x6970667358 0x22 SLT KECCAK256 PUSH20 0x3FE34C181E49B340739BAD3D645FDB6BD2EE8AF7 0xC4 DUP5 SAR DUP16 0x23 JUMPI MSIZE LOG4 0xB2 OR DUPN 0x64 PUSH20 0x6F6C634300082200330000000000000000000000 "
				},
				"gasEstimates": {
					"creation": {
						"codeDepositCost": "163600",
						"executionCost": "206",
						"totalCost": "163806"
					},
					"external": {
						"getTotalElements()": "2454",
						"processCalldataArray(uint256[])": "infinite",
						"totalElements()": "2469",
						"totalSum()": "2424"
					}
				},
				"methodIdentifiers": {
					"getTotalElements()": "7aa63a86",
					"processCalldataArray(uint256[])": "416e366d",
					"totalElements()": "8af77bd7",
					"totalSum()": "4869f99d"
				}
			},
			"storageLayout": {
				"storage": [
					{
						"astId": 3,
						"contract": "prac70.sol:CalldataGasVul",
						"label": "totalSum",
						"offset": 0,
						"slot": "0",
						"type": "t_uint256"
					},
					{
						"astId": 5,
						"contract": "prac70.sol:CalldataGasVul",
						"label": "totalElements",
						"offset": 0,
						"slot": "1",
						"type": "t_uint256"
					}
				],
				"types": {
					"t_uint256": {
						"encoding": "inplace",
						"label": "uint256",
						"numberOfBytes": "32"
					}
				}
			},
			"userdoc": {
				"kind": "user",
				"methods": {},
				"version": 1
			}
		}
	}
}