{
	"prac6.sol": {
		"StructStorage": {
			"abi": [
				{
					"inputs": [
						{
							"internalType": "address",
							"name": "_user",
							"type": "address"
						}
					],
					"name": "getUser",
					"outputs": [
						{
							"internalType": "string",
							"name": "",
							"type": "string"
						},
						{
							"internalType": "uint256",
							"name": "",
							"type": "uint256"
						},
						{
							"internalType": "address",
							"name": "",
							"type": "address"
						},
						{
							"internalType": "bool",
							"name": "",
							"type": "bool"
						}
					],
					"stateMutability": "view",
					"type": "function"
				},
				{
					"inputs": [
						{
							"internalType": "string",
							"name": "_name",
							"type": "string"
						},
						{
							"internalType": "uint256",
							"name": "_age",
							"type": "uint256"
						},
						{
							"internalType": "address",
							"name": "_wallet",
							"type": "address"
						},
						{
							"internalType": "bool",
							"name": "_isActive",
							"type": "bool"
						}
					],
					"name": "storeUser",
					"outputs": [],
					"stateMutability": "nonpayable",
					"type": "function"
				},
				{
					"inputs": [
						{
							"internalType": "address",
							"name": "",
							"type": "address"
						}
					],
					"name": "users",
					"outputs": [
						{
							"internalType": "string",
							"name": "name",
							"type": "string"
						},
						{
							"internalType": "uint256",
							"name": "age",
							"type": "uint256"
						},
						{
							"internalType": "address",
							"name": "wallet",
							"type": "address"
						},
						{
							"internalType": "bool",
							"name": "isActive",
							"type": "bool"
						}
					],
					"stateMutability": "view",
					"type": "function"
				}
			],
			"devdoc": {
				"kind": "dev",
				"methods": {},
				"version": 1
			},
			"evm": {
				"assembly": "    /* \"prac6.sol\":10036:10891  contract StructStorage {... */\n  mstore(0x40, 0x80)\n  callvalue\n  dup1\n  iszero\n  tag_1\n  jumpi\n  revert(0x00, 0x00)\ntag_1:\n  pop\n  dataSize(sub_0)\n  dup1\n  dataOffset(sub_0)\n  0x00\n  codecopy\n  0x00\n  return\nstop\n\nsub_0: assembly {\n        /* \"prac6.sol\":10036:10891  contract StructStorage {... */\n      mstore(0x40, 0x80)\n      callvalue\n      dup1\n      iszero\n      tag_1\n      jumpi\n      revert(0x00, 0x00)\n    tag_1:\n      pop\n      jumpi(tag_2, lt(calldatasize, 0x04))\n      shr(0xe0, calldataload(0x00))\n      dup1\n      0x6f77926b\n      eq\n      tag_3\n      jumpi\n      dup1\n      0xa87430ba\n      eq\n      tag_4\n      jumpi\n      dup1\n      0xacc8ac6c\n      eq\n      tag_5\n      jumpi\n    tag_2:\n      revert(0x00, 0x00)\n        /* \"prac6.sol\":10519:10888  function getUser(address _user)... */\n    tag_3:\n      tag_6\n      0x04\n      dup1\n      calldatasize\n      sub\n      dup2\n      add\n      swap1\n      tag_7\n      swap2\n      swap1\n      tag_8\n      jump\t// in\n    tag_7:\n      tag_9\n      jump\t// in\n    tag_6:\n      mload(0x40)\n      tag_10\n      swap5\n      swap4\n      swap3\n      swap2\n      swap1\n      tag_11\n      jump\t// in\n    tag_10:\n      mload(0x40)\n      dup1\n      swap2\n      sub\n      swap1\n      return\n        /* \"prac6.sol\":10189:10226  mapping(address => User) public users */\n    tag_4:\n      tag_12\n      0x04\n      dup1\n      calldatasize\n      sub\n      dup2\n      add\n      swap1\n      tag_13\n      swap2\n      swap1\n      tag_8\n      jump\t// in\n    tag_13:\n      tag_14\n      jump\t// in\n    tag_12:\n      mload(0x40)\n      tag_15\n      swap5\n      swap4\n      swap3\n      swap2\n      swap1\n      tag_11\n      jump\t// in\n    tag_15:\n      mload(0x40)\n      dup1\n      swap2\n      sub\n      swap1\n      return\n        /* \"prac6.sol\":10235:10511  function storeUser(... */\n    tag_5:\n      tag_16\n      0x04\n      dup1\n      calldatasize\n      sub\n      dup2\n      add\n      swap1\n      tag_17\n      swap2\n      swap1\n      tag_18\n      jump\t// in\n    tag_17:\n      tag_19\n      jump\t// in\n    tag_16:\n      stop\n        /* \"prac6.sol\":10519:10888  function getUser(address _user)... */\n    tag_9:\n        /* \"prac6.sol\":10613:10626  string memory */\n      0x60\n        /* \"prac6.sol\":10641:10648  uint256 */\n      0x00\n        /* \"prac6.sol\":10663:10670  address */\n      0x00\n        /* \"prac6.sol\":10685:10689  bool */\n      0x00\n        /* \"prac6.sol\":10717:10733  User memory user */\n      0x00\n        /* \"prac6.sol\":10736:10741  users */\n      0x00\n        /* \"prac6.sol\":10736:10748  users[_user] */\n      0x00\n        /* \"prac6.sol\":10742:10747  _user */\n      dup8\n        /* \"prac6.sol\":10736:10748  users[_user] */\n      0xffffffffffffffffffffffffffffffffffffffff\n      and\n      0xffffffffffffffffffffffffffffffffffffffff\n      and\n      dup2\n      mstore\n      0x20\n      add\n      swap1\n      dup2\n      mstore\n      0x20\n      add\n      0x00\n      keccak256\n        /* \"prac6.sol\":10717:10748  User memory user = users[_user] */\n      mload(0x40)\n      dup1\n      0x80\n      add\n      0x40\n      mstore\n      swap1\n      dup2\n      0x00\n      dup3\n      add\n      dup1\n      sload\n      tag_21\n      swap1\n      tag_22\n      jump\t// in\n    tag_21:\n      dup1\n      0x1f\n      add\n      0x20\n      dup1\n      swap2\n      div\n      mul\n      0x20\n      add\n      mload(0x40)\n      swap1\n      dup2\n      add\n      0x40\n      mstore\n      dup1\n      swap3\n      swap2\n      swap1\n      dup2\n      dup2\n      mstore\n      0x20\n      add\n      dup3\n      dup1\n      sload\n      tag_23\n      swap1\n      tag_22\n      jump\t// in\n    tag_23:\n      dup1\n      iszero\n      tag_24\n      jumpi\n      dup1\n      0x1f\n      lt\n      tag_25\n      jumpi\n      0x0100\n      dup1\n      dup4\n      sload\n      div\n      mul\n      dup4\n      mstore\n      swap2\n      0x20\n      add\n      swap2\n      jump(tag_24)\n    tag_25:\n      dup3\n      add\n      swap2\n      swap1\n      0x00\n      mstore\n      keccak256(0x00, 0x20)\n      swap1\n    tag_26:\n      dup2\n      sload\n      dup2\n      mstore\n      swap1\n      0x01\n      add\n      swap1\n      0x20\n      add\n      dup1\n      dup4\n      gt\n      tag_26\n      jumpi\n      dup3\n      swap1\n      sub\n      0x1f\n      and\n      dup3\n      add\n      swap2\n    tag_24:\n      pop\n      pop\n      pop\n      pop\n      pop\n      dup2\n      mstore\n      0x20\n      add\n      0x01\n      dup3\n      add\n      sload\n      dup2\n      mstore\n      0x20\n      add\n      0x02\n      dup3\n      add\n      0x00\n      swap1\n      sload\n      swap1\n      0x0100\n      exp\n      swap1\n      div\n      0xffffffffffffffffffffffffffffffffffffffff\n      and\n      0xffffffffffffffffffffffffffffffffffffffff\n      and\n      0xffffffffffffffffffffffffffffffffffffffff\n      and\n      dup2\n      mstore\n      0x20\n      add\n      0x02\n      dup3\n      add\n      0x14\n      swap1\n      sload\n      swap1\n      0x0100\n      exp\n      swap1\n      div\n      0xff\n      and\n      iszero\n      iszero\n      iszero\n      iszero\n      dup2\n      mstore\n      pop\n      pop\n      swap1\n      pop\n        /* \"prac6.sol\":10783:10787  user */\n      dup1\n        /* \"prac6.sol\":10783:10792  user.name */\n      0x00\n      add\n      mload\n        /* \"prac6.sol\":10807:10811  user */\n      dup2\n        /* \"prac6.sol\":10807:10815  user.age */\n      0x20\n      add\n      mload\n        /* \"prac6.sol\":10830:10834  user */\n      dup3\n        /* \"prac6.sol\":10830:10841  user.wallet */\n      0x40\n      add\n      mload\n        /* \"prac6.sol\":10856:10860  user */\n      dup4\n        /* \"prac6.sol\":10856:10869  user.isActive */\n      0x60\n      add\n      mload\n        /* \"prac6.sol\":10761:10880  return (... */\n      swap5\n      pop\n      swap5\n      pop\n      swap5\n      pop\n      swap5\n      pop\n      pop\n        /* \"prac6.sol\":10519:10888  function getUser(address _user)... */\n      swap2\n      swap4\n      pop\n      swap2\n      swap4\n      jump\t// out\n        /* \"prac6.sol\":10189:10226  mapping(address => User) public users */\n    tag_14:\n      mstore(0x20, 0x00)\n      dup1\n      0x00\n      mstore\n      keccak256(0x00, 0x40)\n      0x00\n      swap2\n      pop\n      swap1\n      pop\n      dup1\n      0x00\n      add\n      dup1\n      sload\n      tag_27\n      swap1\n      tag_22\n      jump\t// in\n    tag_27:\n      dup1\n      0x1f\n      add\n      0x20\n      dup1\n      swap2\n      div\n      mul\n      0x20\n      add\n      mload(0x40)\n      swap1\n      dup2\n      add\n      0x40\n      mstore\n      dup1\n      swap3\n      swap2\n      swap1\n      dup2\n      dup2\n      mstore\n      0x20\n      add\n      dup3\n      dup1\n      sload\n      tag_28\n      swap1\n      tag_22\n      jump\t// in\n    tag_28:\n      dup1\n      iszero\n      tag_29\n      jumpi\n      dup1\n      0x1f\n      lt\n      tag_30\n      jumpi\n      0x0100\n      dup1\n      dup4\n      sload\n      div\n      mul\n      dup4\n      mstore\n      swap2\n      0x20\n      add\n      swap2\n      jump(tag_29)\n    tag_30:\n      dup3\n      add\n      swap2\n      swap1\n      0x00\n      mstore\n      keccak256(0x00, 0x20)\n      swap1\n    tag_31:\n      dup2\n      sload\n      dup2\n      mstore\n      swap1\n      0x01\n      add\n      swap1\n      0x20\n      add\n      dup1\n      dup4\n      gt\n      tag_31\n      jumpi\n      dup3\n      swap1\n      sub\n      0x1f\n      and\n      dup3\n      add\n      swap2\n    tag_29:\n      pop\n      pop\n      pop\n      pop\n      pop\n      swap1\n      dup1\n      0x01\n      add\n      sload\n      swap1\n      dup1\n      0x02\n      add\n      0x00\n      swap1\n      sload\n      swap1\n      0x0100\n      exp\n      swap1\n      div\n      0xffffffffffffffffffffffffffffffffffffffff\n      and\n      swap1\n      dup1\n      0x02\n      add\n      0x14\n      swap1\n      sload\n      swap1\n      0x0100\n      exp\n      swap1\n      div\n      0xff\n      and\n      swap1\n      pop\n      dup5\n      jump\t// out\n        /* \"prac6.sol\":10235:10511  function storeUser(... */\n    tag_19:\n        /* \"prac6.sol\":10403:10503  User(... */\n      mload(0x40)\n      dup1\n      0x80\n      add\n      0x40\n      mstore\n      dup1\n        /* \"prac6.sol\":10422:10427  _name */\n      dup6\n        /* \"prac6.sol\":10403:10503  User(... */\n      dup2\n      mstore\n      0x20\n      add\n        /* \"prac6.sol\":10442:10446  _age */\n      dup5\n        /* \"prac6.sol\":10403:10503  User(... */\n      dup2\n      mstore\n      0x20\n      add\n        /* \"prac6.sol\":10461:10468  _wallet */\n      dup4\n        /* \"prac6.sol\":10403:10503  User(... */\n      0xffffffffffffffffffffffffffffffffffffffff\n      and\n      dup2\n      mstore\n      0x20\n      add\n        /* \"prac6.sol\":10483:10492  _isActive */\n      dup3\n        /* \"prac6.sol\":10403:10503  User(... */\n      iszero\n      iszero\n      dup2\n      mstore\n      pop\n        /* \"prac6.sol\":10383:10388  users */\n      0x00\n        /* \"prac6.sol\":10383:10400  users[msg.sender] */\n      0x00\n        /* \"prac6.sol\":10389:10399  msg.sender */\n      caller\n        /* \"prac6.sol\":10383:10400  users[msg.sender] */\n      0xffffffffffffffffffffffffffffffffffffffff\n      and\n      0xffffffffffffffffffffffffffffffffffffffff\n      and\n      dup2\n      mstore\n      0x20\n      add\n      swap1\n      dup2\n      mstore\n      0x20\n      add\n      0x00\n      keccak256\n        /* \"prac6.sol\":10383:10503  users[msg.sender] = User(... */\n      0x00\n      dup3\n      add\n      mload\n      dup2\n      0x00\n      add\n      swap1\n      dup2\n      tag_33\n      swap2\n      swap1\n      tag_34\n      jump\t// in\n    tag_33:\n      pop\n      0x20\n      dup3\n      add\n      mload\n      dup2\n      0x01\n      add\n      sstore\n      0x40\n      dup3\n      add\n      mload\n      dup2\n      0x02\n      add\n      exp(0x0100, 0x00)\n      dup2\n      sload\n      dup2\n      0xffffffffffffffffffffffffffffffffffffffff\n      mul\n      not\n      and\n      swap1\n      dup4\n      0xffffffffffffffffffffffffffffffffffffffff\n      and\n      mul\n      or\n      swap1\n      sstore\n      pop\n      0x60\n      dup3\n      add\n      mload\n      dup2\n      0x02\n      add\n      exp(0x0100, 0x14)\n      dup2\n      sload\n      dup2\n      0xff\n      mul\n      not\n      and\n      swap1\n      dup4\n      iszero\n      iszero\n      mul\n      or\n      swap1\n      sstore\n      pop\n      swap1\n      pop\n      pop\n        /* \"prac6.sol\":10235:10511  function storeUser(... */\n      pop\n      pop\n      pop\n      pop\n      jump\t// out\n        /* \"#utility.yul\":7:82   */\n    tag_35:\n        /* \"#utility.yul\":40:46   */\n      0x00\n        /* \"#utility.yul\":73:75   */\n      0x40\n        /* \"#utility.yul\":67:76   */\n      mload\n        /* \"#utility.yul\":57:76   */\n      swap1\n      pop\n        /* \"#utility.yul\":7:82   */\n      swap1\n      jump\t// out\n        /* \"#utility.yul\":88:205   */\n    tag_36:\n        /* \"#utility.yul\":197:198   */\n      0x00\n        /* \"#utility.yul\":194:195   */\n      0x00\n        /* \"#utility.yul\":187:199   */\n      revert\n        /* \"#utility.yul\":211:328   */\n    tag_37:\n        /* \"#utility.yul\":320:321   */\n      0x00\n        /* \"#utility.yul\":317:318   */\n      0x00\n        /* \"#utility.yul\":310:322   */\n      revert\n        /* \"#utility.yul\":334:460   */\n    tag_38:\n        /* \"#utility.yul\":371:378   */\n      0x00\n        /* \"#utility.yul\":411:453   */\n      0xffffffffffffffffffffffffffffffffffffffff\n        /* \"#utility.yul\":404:409   */\n      dup3\n        /* \"#utility.yul\":400:454   */\n      and\n        /* \"#utility.yul\":389:454   */\n      swap1\n      pop\n        /* \"#utility.yul\":334:460   */\n      swap2\n      swap1\n      pop\n      jump\t// out\n        /* \"#utility.yul\":466:562   */\n    tag_39:\n        /* \"#utility.yul\":503:510   */\n      0x00\n        /* \"#utility.yul\":532:556   */\n      tag_87\n        /* \"#utility.yul\":550:555   */\n      dup3\n        /* \"#utility.yul\":532:556   */\n      tag_38\n      jump\t// in\n    tag_87:\n        /* \"#utility.yul\":521:556   */\n      swap1\n      pop\n        /* \"#utility.yul\":466:562   */\n      swap2\n      swap1\n      pop\n      jump\t// out\n        /* \"#utility.yul\":568:690   */\n    tag_40:\n        /* \"#utility.yul\":641:665   */\n      tag_89\n        /* \"#utility.yul\":659:664   */\n      dup2\n        /* \"#utility.yul\":641:665   */\n      tag_39\n      jump\t// in\n    tag_89:\n        /* \"#utility.yul\":634:639   */\n      dup2\n        /* \"#utility.yul\":631:666   */\n      eq\n        /* \"#utility.yul\":621:684   */\n      tag_90\n      jumpi\n        /* \"#utility.yul\":680:681   */\n      0x00\n        /* \"#utility.yul\":677:678   */\n      0x00\n        /* \"#utility.yul\":670:682   */\n      revert\n        /* \"#utility.yul\":621:684   */\n    tag_90:\n        /* \"#utility.yul\":568:690   */\n      pop\n      jump\t// out\n        /* \"#utility.yul\":696:835   */\n    tag_41:\n        /* \"#utility.yul\":742:747   */\n      0x00\n        /* \"#utility.yul\":780:786   */\n      dup2\n        /* \"#utility.yul\":767:787   */\n      calldataload\n        /* \"#utility.yul\":758:787   */\n      swap1\n      pop\n        /* \"#utility.yul\":796:829   */\n      tag_92\n        /* \"#utility.yul\":823:828   */\n      dup2\n        /* \"#utility.yul\":796:829   */\n      tag_40\n      jump\t// in\n    tag_92:\n        /* \"#utility.yul\":696:835   */\n      swap3\n      swap2\n      pop\n      pop\n      jump\t// out\n        /* \"#utility.yul\":841:1170   */\n    tag_8:\n        /* \"#utility.yul\":900:906   */\n      0x00\n        /* \"#utility.yul\":949:951   */\n      0x20\n        /* \"#utility.yul\":937:946   */\n      dup3\n        /* \"#utility.yul\":928:935   */\n      dup5\n        /* \"#utility.yul\":924:947   */\n      sub\n        /* \"#utility.yul\":920:952   */\n      slt\n        /* \"#utility.yul\":917:1036   */\n      iszero\n      tag_94\n      jumpi\n        /* \"#utility.yul\":955:1034   */\n      tag_95\n      tag_36\n      jump\t// in\n    tag_95:\n        /* \"#utility.yul\":917:1036   */\n    tag_94:\n        /* \"#utility.yul\":1075:1076   */\n      0x00\n        /* \"#utility.yul\":1100:1153   */\n      tag_96\n        /* \"#utility.yul\":1145:1152   */\n      dup5\n        /* \"#utility.yul\":1136:1142   */\n      dup3\n        /* \"#utility.yul\":1125:1134   */\n      dup6\n        /* \"#utility.yul\":1121:1143   */\n      add\n        /* \"#utility.yul\":1100:1153   */\n      tag_41\n      jump\t// in\n    tag_96:\n        /* \"#utility.yul\":1090:1153   */\n      swap2\n      pop\n        /* \"#utility.yul\":1046:1163   */\n      pop\n        /* \"#utility.yul\":841:1170   */\n      swap3\n      swap2\n      pop\n      pop\n      jump\t// out\n        /* \"#utility.yul\":1176:1275   */\n    tag_42:\n        /* \"#utility.yul\":1228:1234   */\n      0x00\n        /* \"#utility.yul\":1262:1267   */\n      dup2\n        /* \"#utility.yul\":1256:1268   */\n      mload\n        /* \"#utility.yul\":1246:1268   */\n      swap1\n      pop\n        /* \"#utility.yul\":1176:1275   */\n      swap2\n      swap1\n      pop\n      jump\t// out\n        /* \"#utility.yul\":1281:1450   */\n    tag_43:\n        /* \"#utility.yul\":1365:1376   */\n      0x00\n        /* \"#utility.yul\":1399:1405   */\n      dup3\n        /* \"#utility.yul\":1394:1397   */\n      dup3\n        /* \"#utility.yul\":1387:1406   */\n      mstore\n        /* \"#utility.yul\":1439:1443   */\n      0x20\n        /* \"#utility.yul\":1434:1437   */\n      dup3\n        /* \"#utility.yul\":1430:1444   */\n      add\n        /* \"#utility.yul\":1415:1444   */\n      swap1\n      pop\n        /* \"#utility.yul\":1281:1450   */\n      swap3\n      swap2\n      pop\n      pop\n      jump\t// out\n        /* \"#utility.yul\":1456:1595   */\n    tag_44:\n        /* \"#utility.yul\":1545:1551   */\n      dup3\n        /* \"#utility.yul\":1540:1543   */\n      dup2\n        /* \"#utility.yul\":1535:1538   */\n      dup4\n        /* \"#utility.yul\":1529:1552   */\n      mcopy\n        /* \"#utility.yul\":1586:1587   */\n      0x00\n        /* \"#utility.yul\":1577:1583   */\n      dup4\n        /* \"#utility.yul\":1572:1575   */\n      dup4\n        /* \"#utility.yul\":1568:1584   */\n      add\n        /* \"#utility.yul\":1561:1588   */\n      mstore\n        /* \"#utility.yul\":1456:1595   */\n      pop\n      pop\n      pop\n      jump\t// out\n        /* \"#utility.yul\":1601:1703   */\n    tag_45:\n        /* \"#utility.yul\":1642:1648   */\n      0x00\n        /* \"#utility.yul\":1693:1695   */\n      0x1f\n        /* \"#utility.yul\":1689:1696   */\n      not\n        /* \"#utility.yul\":1684:1686   */\n      0x1f\n        /* \"#utility.yul\":1677:1682   */\n      dup4\n        /* \"#utility.yul\":1673:1687   */\n      add\n        /* \"#utility.yul\":1669:1697   */\n      and\n        /* \"#utility.yul\":1659:1697   */\n      swap1\n      pop\n        /* \"#utility.yul\":1601:1703   */\n      swap2\n      swap1\n      pop\n      jump\t// out\n        /* \"#utility.yul\":1709:2086   */\n    tag_46:\n        /* \"#utility.yul\":1797:1800   */\n      0x00\n        /* \"#utility.yul\":1825:1864   */\n      tag_102\n        /* \"#utility.yul\":1858:1863   */\n      dup3\n        /* \"#utility.yul\":1825:1864   */\n      tag_42\n      jump\t// in\n    tag_102:\n        /* \"#utility.yul\":1880:1951   */\n      tag_103\n        /* \"#utility.yul\":1944:1950   */\n      dup2\n        /* \"#utility.yul\":1939:1942   */\n      dup6\n        /* \"#utility.yul\":1880:1951   */\n      tag_43\n      jump\t// in\n    tag_103:\n        /* \"#utility.yul\":1873:1951   */\n      swap4\n      pop\n        /* \"#utility.yul\":1960:2025   */\n      tag_104\n        /* \"#utility.yul\":2018:2024   */\n      dup2\n        /* \"#utility.yul\":2013:2016   */\n      dup6\n        /* \"#utility.yul\":2006:2010   */\n      0x20\n        /* \"#utility.yul\":1999:2004   */\n      dup7\n        /* \"#utility.yul\":1995:2011   */\n      add\n        /* \"#utility.yul\":1960:2025   */\n      tag_44\n      jump\t// in\n    tag_104:\n        /* \"#utility.yul\":2050:2079   */\n      tag_105\n        /* \"#utility.yul\":2072:2078   */\n      dup2\n        /* \"#utility.yul\":2050:2079   */\n      tag_45\n      jump\t// in\n    tag_105:\n        /* \"#utility.yul\":2045:2048   */\n      dup5\n        /* \"#utility.yul\":2041:2080   */\n      add\n        /* \"#utility.yul\":2034:2080   */\n      swap2\n      pop\n        /* \"#utility.yul\":1801:2086   */\n      pop\n        /* \"#utility.yul\":1709:2086   */\n      swap3\n      swap2\n      pop\n      pop\n      jump\t// out\n        /* \"#utility.yul\":2092:2169   */\n    tag_47:\n        /* \"#utility.yul\":2129:2136   */\n      0x00\n        /* \"#utility.yul\":2158:2163   */\n      dup2\n        /* \"#utility.yul\":2147:2163   */\n      swap1\n      pop\n        /* \"#utility.yul\":2092:2169   */\n      swap2\n      swap1\n      pop\n      jump\t// out\n        /* \"#utility.yul\":2175:2293   */\n    tag_48:\n        /* \"#utility.yul\":2262:2286   */\n      tag_108\n        /* \"#utility.yul\":2280:2285   */\n      dup2\n        /* \"#utility.yul\":2262:2286   */\n      tag_47\n      jump\t// in\n    tag_108:\n        /* \"#utility.yul\":2257:2260   */\n      dup3\n        /* \"#utility.yul\":2250:2287   */\n      mstore\n        /* \"#utility.yul\":2175:2293   */\n      pop\n      pop\n      jump\t// out\n        /* \"#utility.yul\":2299:2417   */\n    tag_49:\n        /* \"#utility.yul\":2386:2410   */\n      tag_110\n        /* \"#utility.yul\":2404:2409   */\n      dup2\n        /* \"#utility.yul\":2386:2410   */\n      tag_39\n      jump\t// in\n    tag_110:\n        /* \"#utility.yul\":2381:2384   */\n      dup3\n        /* \"#utility.yul\":2374:2411   */\n      mstore\n        /* \"#utility.yul\":2299:2417   */\n      pop\n      pop\n      jump\t// out\n        /* \"#utility.yul\":2423:2513   */\n    tag_50:\n        /* \"#utility.yul\":2457:2464   */\n      0x00\n        /* \"#utility.yul\":2500:2505   */\n      dup2\n        /* \"#utility.yul\":2493:2506   */\n      iszero\n        /* \"#utility.yul\":2486:2507   */\n      iszero\n        /* \"#utility.yul\":2475:2507   */\n      swap1\n      pop\n        /* \"#utility.yul\":2423:2513   */\n      swap2\n      swap1\n      pop\n      jump\t// out\n        /* \"#utility.yul\":2519:2628   */\n    tag_51:\n        /* \"#utility.yul\":2600:2621   */\n      tag_113\n        /* \"#utility.yul\":2615:2620   */\n      dup2\n        /* \"#utility.yul\":2600:2621   */\n      tag_50\n      jump\t// in\n    tag_113:\n        /* \"#utility.yul\":2595:2598   */\n      dup3\n        /* \"#utility.yul\":2588:2622   */\n      mstore\n        /* \"#utility.yul\":2519:2628   */\n      pop\n      pop\n      jump\t// out\n        /* \"#utility.yul\":2634:3266   */\n    tag_11:\n        /* \"#utility.yul\":2825:2829   */\n      0x00\n        /* \"#utility.yul\":2863:2866   */\n      0x80\n        /* \"#utility.yul\":2852:2861   */\n      dup3\n        /* \"#utility.yul\":2848:2867   */\n      add\n        /* \"#utility.yul\":2840:2867   */\n      swap1\n      pop\n        /* \"#utility.yul\":2913:2922   */\n      dup2\n        /* \"#utility.yul\":2907:2911   */\n      dup2\n        /* \"#utility.yul\":2903:2923   */\n      sub\n        /* \"#utility.yul\":2899:2900   */\n      0x00\n        /* \"#utility.yul\":2888:2897   */\n      dup4\n        /* \"#utility.yul\":2884:2901   */\n      add\n        /* \"#utility.yul\":2877:2924   */\n      mstore\n        /* \"#utility.yul\":2941:3019   */\n      tag_115\n        /* \"#utility.yul\":3014:3018   */\n      dup2\n        /* \"#utility.yul\":3005:3011   */\n      dup8\n        /* \"#utility.yul\":2941:3019   */\n      tag_46\n      jump\t// in\n    tag_115:\n        /* \"#utility.yul\":2933:3019   */\n      swap1\n      pop\n        /* \"#utility.yul\":3029:3101   */\n      tag_116\n        /* \"#utility.yul\":3097:3099   */\n      0x20\n        /* \"#utility.yul\":3086:3095   */\n      dup4\n        /* \"#utility.yul\":3082:3100   */\n      add\n        /* \"#utility.yul\":3073:3079   */\n      dup7\n        /* \"#utility.yul\":3029:3101   */\n      tag_48\n      jump\t// in\n    tag_116:\n        /* \"#utility.yul\":3111:3183   */\n      tag_117\n        /* \"#utility.yul\":3179:3181   */\n      0x40\n        /* \"#utility.yul\":3168:3177   */\n      dup4\n        /* \"#utility.yul\":3164:3182   */\n      add\n        /* \"#utility.yul\":3155:3161   */\n      dup6\n        /* \"#utility.yul\":3111:3183   */\n      tag_49\n      jump\t// in\n    tag_117:\n        /* \"#utility.yul\":3193:3259   */\n      tag_118\n        /* \"#utility.yul\":3255:3257   */\n      0x60\n        /* \"#utility.yul\":3244:3253   */\n      dup4\n        /* \"#utility.yul\":3240:3258   */\n      add\n        /* \"#utility.yul\":3231:3237   */\n      dup5\n        /* \"#utility.yul\":3193:3259   */\n      tag_51\n      jump\t// in\n    tag_118:\n        /* \"#utility.yul\":2634:3266   */\n      swap6\n      swap5\n      pop\n      pop\n      pop\n      pop\n      pop\n      jump\t// out\n        /* \"#utility.yul\":3272:3389   */\n    tag_52:\n        /* \"#utility.yul\":3381:3382   */\n      0x00\n        /* \"#utility.yul\":3378:3379   */\n      0x00\n        /* \"#utility.yul\":3371:3383   */\n      revert\n        /* \"#utility.yul\":3395:3512   */\n    tag_53:\n        /* \"#utility.yul\":3504:3505   */\n      0x00\n        /* \"#utility.yul\":3501:3502   */\n      0x00\n        /* \"#utility.yul\":3494:3506   */\n      revert\n        /* \"#utility.yul\":3518:3698   */\n    tag_54:\n        /* \"#utility.yul\":3566:3643   */\n      0x4e487b7100000000000000000000000000000000000000000000000000000000\n        /* \"#utility.yul\":3563:3564   */\n      0x00\n        /* \"#utility.yul\":3556:3644   */\n      mstore\n        /* \"#utility.yul\":3663:3667   */\n      0x41\n        /* \"#utility.yul\":3660:3661   */\n      0x04\n        /* \"#utility.yul\":3653:3668   */\n      mstore\n        /* \"#utility.yul\":3687:3691   */\n      0x24\n        /* \"#utility.yul\":3684:3685   */\n      0x00\n        /* \"#utility.yul\":3677:3692   */\n      revert\n        /* \"#utility.yul\":3704:3985   */\n    tag_55:\n        /* \"#utility.yul\":3787:3814   */\n      tag_123\n        /* \"#utility.yul\":3809:3813   */\n      dup3\n        /* \"#utility.yul\":3787:3814   */\n      tag_45\n      jump\t// in\n    tag_123:\n        /* \"#utility.yul\":3779:3785   */\n      dup2\n        /* \"#utility.yul\":3775:3815   */\n      add\n        /* \"#utility.yul\":3917:3923   */\n      dup2\n        /* \"#utility.yul\":3905:3915   */\n      dup2\n        /* \"#utility.yul\":3902:3924   */\n      lt\n        /* \"#utility.yul\":3881:3899   */\n      0xffffffffffffffff\n        /* \"#utility.yul\":3869:3879   */\n      dup3\n        /* \"#utility.yul\":3866:3900   */\n      gt\n        /* \"#utility.yul\":3863:3925   */\n      or\n        /* \"#utility.yul\":3860:3948   */\n      iszero\n      tag_124\n      jumpi\n        /* \"#utility.yul\":3928:3946   */\n      tag_125\n      tag_54\n      jump\t// in\n    tag_125:\n        /* \"#utility.yul\":3860:3948   */\n    tag_124:\n        /* \"#utility.yul\":3968:3978   */\n      dup1\n        /* \"#utility.yul\":3964:3966   */\n      0x40\n        /* \"#utility.yul\":3957:3979   */\n      mstore\n        /* \"#utility.yul\":3747:3985   */\n      pop\n        /* \"#utility.yul\":3704:3985   */\n      pop\n      pop\n      jump\t// out\n        /* \"#utility.yul\":3991:4120   */\n    tag_56:\n        /* \"#utility.yul\":4025:4031   */\n      0x00\n        /* \"#utility.yul\":4052:4072   */\n      tag_127\n      tag_35\n      jump\t// in\n    tag_127:\n        /* \"#utility.yul\":4042:4072   */\n      swap1\n      pop\n        /* \"#utility.yul\":4081:4114   */\n      tag_128\n        /* \"#utility.yul\":4109:4113   */\n      dup3\n        /* \"#utility.yul\":4101:4107   */\n      dup3\n        /* \"#utility.yul\":4081:4114   */\n      tag_55\n      jump\t// in\n    tag_128:\n        /* \"#utility.yul\":3991:4120   */\n      swap2\n      swap1\n      pop\n      jump\t// out\n        /* \"#utility.yul\":4126:4434   */\n    tag_57:\n        /* \"#utility.yul\":4188:4192   */\n      0x00\n        /* \"#utility.yul\":4278:4296   */\n      0xffffffffffffffff\n        /* \"#utility.yul\":4270:4276   */\n      dup3\n        /* \"#utility.yul\":4267:4297   */\n      gt\n        /* \"#utility.yul\":4264:4320   */\n      iszero\n      tag_130\n      jumpi\n        /* \"#utility.yul\":4300:4318   */\n      tag_131\n      tag_54\n      jump\t// in\n    tag_131:\n        /* \"#utility.yul\":4264:4320   */\n    tag_130:\n        /* \"#utility.yul\":4338:4367   */\n      tag_132\n        /* \"#utility.yul\":4360:4366   */\n      dup3\n        /* \"#utility.yul\":4338:4367   */\n      tag_45\n      jump\t// in\n    tag_132:\n        /* \"#utility.yul\":4330:4367   */\n      swap1\n      pop\n        /* \"#utility.yul\":4422:4426   */\n      0x20\n        /* \"#utility.yul\":4416:4420   */\n      dup2\n        /* \"#utility.yul\":4412:4427   */\n      add\n        /* \"#utility.yul\":4404:4427   */\n      swap1\n      pop\n        /* \"#utility.yul\":4126:4434   */\n      swap2\n      swap1\n      pop\n      jump\t// out\n        /* \"#utility.yul\":4440:4588   */\n    tag_58:\n        /* \"#utility.yul\":4538:4544   */\n      dup3\n        /* \"#utility.yul\":4533:4536   */\n      dup2\n        /* \"#utility.yul\":4528:4531   */\n      dup4\n        /* \"#utility.yul\":4515:4545   */\n      calldatacopy\n        /* \"#utility.yul\":4579:4580   */\n      0x00\n        /* \"#utility.yul\":4570:4576   */\n      dup4\n        /* \"#utility.yul\":4565:4568   */\n      dup4\n        /* \"#utility.yul\":4561:4577   */\n      add\n        /* \"#utility.yul\":4554:4581   */\n      mstore\n        /* \"#utility.yul\":4440:4588   */\n      pop\n      pop\n      pop\n      jump\t// out\n        /* \"#utility.yul\":4594:5019   */\n    tag_59:\n        /* \"#utility.yul\":4672:4677   */\n      0x00\n        /* \"#utility.yul\":4697:4763   */\n      tag_135\n        /* \"#utility.yul\":4713:4762   */\n      tag_136\n        /* \"#utility.yul\":4755:4761   */\n      dup5\n        /* \"#utility.yul\":4713:4762   */\n      tag_57\n      jump\t// in\n    tag_136:\n        /* \"#utility.yul\":4697:4763   */\n      tag_56\n      jump\t// in\n    tag_135:\n        /* \"#utility.yul\":4688:4763   */\n      swap1\n      pop\n        /* \"#utility.yul\":4786:4792   */\n      dup3\n        /* \"#utility.yul\":4779:4784   */\n      dup2\n        /* \"#utility.yul\":4772:4793   */\n      mstore\n        /* \"#utility.yul\":4824:4828   */\n      0x20\n        /* \"#utility.yul\":4817:4822   */\n      dup2\n        /* \"#utility.yul\":4813:4829   */\n      add\n        /* \"#utility.yul\":4862:4865   */\n      dup5\n        /* \"#utility.yul\":4853:4859   */\n      dup5\n        /* \"#utility.yul\":4848:4851   */\n      dup5\n        /* \"#utility.yul\":4844:4860   */\n      add\n        /* \"#utility.yul\":4841:4866   */\n      gt\n        /* \"#utility.yul\":4838:4950   */\n      iszero\n      tag_137\n      jumpi\n        /* \"#utility.yul\":4869:4948   */\n      tag_138\n      tag_53\n      jump\t// in\n    tag_138:\n        /* \"#utility.yul\":4838:4950   */\n    tag_137:\n        /* \"#utility.yul\":4959:5013   */\n      tag_139\n        /* \"#utility.yul\":5006:5012   */\n      dup5\n        /* \"#utility.yul\":5001:5004   */\n      dup3\n        /* \"#utility.yul\":4996:4999   */\n      dup6\n        /* \"#utility.yul\":4959:5013   */\n      tag_58\n      jump\t// in\n    tag_139:\n        /* \"#utility.yul\":4678:5019   */\n      pop\n        /* \"#utility.yul\":4594:5019   */\n      swap4\n      swap3\n      pop\n      pop\n      pop\n      jump\t// out\n        /* \"#utility.yul\":5039:5379   */\n    tag_60:\n        /* \"#utility.yul\":5095:5100   */\n      0x00\n        /* \"#utility.yul\":5144:5147   */\n      dup3\n        /* \"#utility.yul\":5137:5141   */\n      0x1f\n        /* \"#utility.yul\":5129:5135   */\n      dup4\n        /* \"#utility.yul\":5125:5142   */\n      add\n        /* \"#utility.yul\":5121:5148   */\n      slt\n        /* \"#utility.yul\":5111:5233   */\n      tag_141\n      jumpi\n        /* \"#utility.yul\":5152:5231   */\n      tag_142\n      tag_52\n      jump\t// in\n    tag_142:\n        /* \"#utility.yul\":5111:5233   */\n    tag_141:\n        /* \"#utility.yul\":5269:5275   */\n      dup2\n        /* \"#utility.yul\":5256:5276   */\n      calldataload\n        /* \"#utility.yul\":5294:5373   */\n      tag_143\n        /* \"#utility.yul\":5369:5372   */\n      dup5\n        /* \"#utility.yul\":5361:5367   */\n      dup3\n        /* \"#utility.yul\":5354:5358   */\n      0x20\n        /* \"#utility.yul\":5346:5352   */\n      dup7\n        /* \"#utility.yul\":5342:5359   */\n      add\n        /* \"#utility.yul\":5294:5373   */\n      tag_59\n      jump\t// in\n    tag_143:\n        /* \"#utility.yul\":5285:5373   */\n      swap2\n      pop\n        /* \"#utility.yul\":5101:5379   */\n      pop\n        /* \"#utility.yul\":5039:5379   */\n      swap3\n      swap2\n      pop\n      pop\n      jump\t// out\n        /* \"#utility.yul\":5385:5507   */\n    tag_61:\n        /* \"#utility.yul\":5458:5482   */\n      tag_145\n        /* \"#utility.yul\":5476:5481   */\n      dup2\n        /* \"#utility.yul\":5458:5482   */\n      tag_47\n      jump\t// in\n    tag_145:\n        /* \"#utility.yul\":5451:5456   */\n      dup2\n        /* \"#utility.yul\":5448:5483   */\n      eq\n        /* \"#utility.yul\":5438:5501   */\n      tag_146\n      jumpi\n        /* \"#utility.yul\":5497:5498   */\n      0x00\n        /* \"#utility.yul\":5494:5495   */\n      0x00\n        /* \"#utility.yul\":5487:5499   */\n      revert\n        /* \"#utility.yul\":5438:5501   */\n    tag_146:\n        /* \"#utility.yul\":5385:5507   */\n      pop\n      jump\t// out\n        /* \"#utility.yul\":5513:5652   */\n    tag_62:\n        /* \"#utility.yul\":5559:5564   */\n      0x00\n        /* \"#utility.yul\":5597:5603   */\n      dup2\n        /* \"#utility.yul\":5584:5604   */\n      calldataload\n        /* \"#utility.yul\":5575:5604   */\n      swap1\n      pop\n        /* \"#utility.yul\":5613:5646   */\n      tag_148\n        /* \"#utility.yul\":5640:5645   */\n      dup2\n        /* \"#utility.yul\":5613:5646   */\n      tag_61\n      jump\t// in\n    tag_148:\n        /* \"#utility.yul\":5513:5652   */\n      swap3\n      swap2\n      pop\n      pop\n      jump\t// out\n        /* \"#utility.yul\":5658:5774   */\n    tag_63:\n        /* \"#utility.yul\":5728:5749   */\n      tag_150\n        /* \"#utility.yul\":5743:5748   */\n      dup2\n        /* \"#utility.yul\":5728:5749   */\n      tag_50\n      jump\t// in\n    tag_150:\n        /* \"#utility.yul\":5721:5726   */\n      dup2\n        /* \"#utility.yul\":5718:5750   */\n      eq\n        /* \"#utility.yul\":5708:5768   */\n      tag_151\n      jumpi\n        /* \"#utility.yul\":5764:5765   */\n      0x00\n        /* \"#utility.yul\":5761:5762   */\n      0x00\n        /* \"#utility.yul\":5754:5766   */\n      revert\n        /* \"#utility.yul\":5708:5768   */\n    tag_151:\n        /* \"#utility.yul\":5658:5774   */\n      pop\n      jump\t// out\n        /* \"#utility.yul\":5780:5913   */\n    tag_64:\n        /* \"#utility.yul\":5823:5828   */\n      0x00\n        /* \"#utility.yul\":5861:5867   */\n      dup2\n        /* \"#utility.yul\":5848:5868   */\n      calldataload\n        /* \"#utility.yul\":5839:5868   */\n      swap1\n      pop\n        /* \"#utility.yul\":5877:5907   */\n      tag_153\n        /* \"#utility.yul\":5901:5906   */\n      dup2\n        /* \"#utility.yul\":5877:5907   */\n      tag_63\n      jump\t// in\n    tag_153:\n        /* \"#utility.yul\":5780:5913   */\n      swap3\n      swap2\n      pop\n      pop\n      jump\t// out\n        /* \"#utility.yul\":5919:6858   */\n    tag_18:\n        /* \"#utility.yul\":6012:6018   */\n      0x00\n        /* \"#utility.yul\":6020:6026   */\n      0x00\n        /* \"#utility.yul\":6028:6034   */\n      0x00\n        /* \"#utility.yul\":6036:6042   */\n      0x00\n        /* \"#utility.yul\":6085:6088   */\n      0x80\n        /* \"#utility.yul\":6073:6082   */\n      dup6\n        /* \"#utility.yul\":6064:6071   */\n      dup8\n        /* \"#utility.yul\":6060:6083   */\n      sub\n        /* \"#utility.yul\":6056:6089   */\n      slt\n        /* \"#utility.yul\":6053:6173   */\n      iszero\n      tag_155\n      jumpi\n        /* \"#utility.yul\":6092:6171   */\n      tag_156\n      tag_36\n      jump\t// in\n    tag_156:\n        /* \"#utility.yul\":6053:6173   */\n    tag_155:\n        /* \"#utility.yul\":6240:6241   */\n      0x00\n        /* \"#utility.yul\":6229:6238   */\n      dup6\n        /* \"#utility.yul\":6225:6242   */\n      add\n        /* \"#utility.yul\":6212:6243   */\n      calldataload\n        /* \"#utility.yul\":6270:6288   */\n      0xffffffffffffffff\n        /* \"#utility.yul\":6262:6268   */\n      dup2\n        /* \"#utility.yul\":6259:6289   */\n      gt\n        /* \"#utility.yul\":6256:6373   */\n      iszero\n      tag_157\n      jumpi\n        /* \"#utility.yul\":6292:6371   */\n      tag_158\n      tag_37\n      jump\t// in\n    tag_158:\n        /* \"#utility.yul\":6256:6373   */\n    tag_157:\n        /* \"#utility.yul\":6397:6460   */\n      tag_159\n        /* \"#utility.yul\":6452:6459   */\n      dup8\n        /* \"#utility.yul\":6443:6449   */\n      dup3\n        /* \"#utility.yul\":6432:6441   */\n      dup9\n        /* \"#utility.yul\":6428:6450   */\n      add\n        /* \"#utility.yul\":6397:6460   */\n      tag_60\n      jump\t// in\n    tag_159:\n        /* \"#utility.yul\":6387:6460   */\n      swap5\n      pop\n        /* \"#utility.yul\":6183:6470   */\n      pop\n        /* \"#utility.yul\":6509:6511   */\n      0x20\n        /* \"#utility.yul\":6535:6588   */\n      tag_160\n        /* \"#utility.yul\":6580:6587   */\n      dup8\n        /* \"#utility.yul\":6571:6577   */\n      dup3\n        /* \"#utility.yul\":6560:6569   */\n      dup9\n        /* \"#utility.yul\":6556:6578   */\n      add\n        /* \"#utility.yul\":6535:6588   */\n      tag_62\n      jump\t// in\n    tag_160:\n        /* \"#utility.yul\":6525:6588   */\n      swap4\n      pop\n        /* \"#utility.yul\":6480:6598   */\n      pop\n        /* \"#utility.yul\":6637:6639   */\n      0x40\n        /* \"#utility.yul\":6663:6716   */\n      tag_161\n        /* \"#utility.yul\":6708:6715   */\n      dup8\n        /* \"#utility.yul\":6699:6705   */\n      dup3\n        /* \"#utility.yul\":6688:6697   */\n      dup9\n        /* \"#utility.yul\":6684:6706   */\n      add\n        /* \"#utility.yul\":6663:6716   */\n      tag_41\n      jump\t// in\n    tag_161:\n        /* \"#utility.yul\":6653:6716   */\n      swap3\n      pop\n        /* \"#utility.yul\":6608:6726   */\n      pop\n        /* \"#utility.yul\":6765:6767   */\n      0x60\n        /* \"#utility.yul\":6791:6841   */\n      tag_162\n        /* \"#utility.yul\":6833:6840   */\n      dup8\n        /* \"#utility.yul\":6824:6830   */\n      dup3\n        /* \"#utility.yul\":6813:6822   */\n      dup9\n        /* \"#utility.yul\":6809:6831   */\n      add\n        /* \"#utility.yul\":6791:6841   */\n      tag_64\n      jump\t// in\n    tag_162:\n        /* \"#utility.yul\":6781:6841   */\n      swap2\n      pop\n        /* \"#utility.yul\":6736:6851   */\n      pop\n        /* \"#utility.yul\":5919:6858   */\n      swap3\n      swap6\n      swap2\n      swap5\n      pop\n      swap3\n      pop\n      jump\t// out\n        /* \"#utility.yul\":6864:7044   */\n    tag_65:\n        /* \"#utility.yul\":6912:6989   */\n      0x4e487b7100000000000000000000000000000000000000000000000000000000\n        /* \"#utility.yul\":6909:6910   */\n      0x00\n        /* \"#utility.yul\":6902:6990   */\n      mstore\n        /* \"#utility.yul\":7009:7013   */\n      0x22\n        /* \"#utility.yul\":7006:7007   */\n      0x04\n        /* \"#utility.yul\":6999:7014   */\n      mstore\n        /* \"#utility.yul\":7033:7037   */\n      0x24\n        /* \"#utility.yul\":7030:7031   */\n      0x00\n        /* \"#utility.yul\":7023:7038   */\n      revert\n        /* \"#utility.yul\":7050:7370   */\n    tag_22:\n        /* \"#utility.yul\":7094:7100   */\n      0x00\n        /* \"#utility.yul\":7131:7132   */\n      0x02\n        /* \"#utility.yul\":7125:7129   */\n      dup3\n        /* \"#utility.yul\":7121:7133   */\n      div\n        /* \"#utility.yul\":7111:7133   */\n      swap1\n      pop\n        /* \"#utility.yul\":7178:7179   */\n      0x01\n        /* \"#utility.yul\":7172:7176   */\n      dup3\n        /* \"#utility.yul\":7168:7180   */\n      and\n        /* \"#utility.yul\":7199:7217   */\n      dup1\n        /* \"#utility.yul\":7189:7270   */\n      tag_165\n      jumpi\n        /* \"#utility.yul\":7255:7259   */\n      0x7f\n        /* \"#utility.yul\":7247:7253   */\n      dup3\n        /* \"#utility.yul\":7243:7260   */\n      and\n        /* \"#utility.yul\":7233:7260   */\n      swap2\n      pop\n        /* \"#utility.yul\":7189:7270   */\n    tag_165:\n        /* \"#utility.yul\":7317:7319   */\n      0x20\n        /* \"#utility.yul\":7309:7315   */\n      dup3\n        /* \"#utility.yul\":7306:7320   */\n      lt\n        /* \"#utility.yul\":7286:7304   */\n      dup2\n        /* \"#utility.yul\":7283:7321   */\n      sub\n        /* \"#utility.yul\":7280:7364   */\n      tag_166\n      jumpi\n        /* \"#utility.yul\":7336:7354   */\n      tag_167\n      tag_65\n      jump\t// in\n    tag_167:\n        /* \"#utility.yul\":7280:7364   */\n    tag_166:\n        /* \"#utility.yul\":7101:7370   */\n      pop\n        /* \"#utility.yul\":7050:7370   */\n      swap2\n      swap1\n      pop\n      jump\t// out\n        /* \"#utility.yul\":7376:7517   */\n    tag_66:\n        /* \"#utility.yul\":7425:7429   */\n      0x00\n        /* \"#utility.yul\":7448:7451   */\n      dup2\n        /* \"#utility.yul\":7440:7451   */\n      swap1\n      pop\n        /* \"#utility.yul\":7471:7474   */\n      dup2\n        /* \"#utility.yul\":7468:7469   */\n      0x00\n        /* \"#utility.yul\":7461:7475   */\n      mstore\n        /* \"#utility.yul\":7505:7509   */\n      0x20\n        /* \"#utility.yul\":7502:7503   */\n      0x00\n        /* \"#utility.yul\":7492:7510   */\n      keccak256\n        /* \"#utility.yul\":7484:7510   */\n      swap1\n      pop\n        /* \"#utility.yul\":7376:7517   */\n      swap2\n      swap1\n      pop\n      jump\t// out\n        /* \"#utility.yul\":7523:7616   */\n    tag_67:\n        /* \"#utility.yul\":7560:7566   */\n      0x00\n        /* \"#utility.yul\":7607:7609   */\n      0x20\n        /* \"#utility.yul\":7602:7604   */\n      0x1f\n        /* \"#utility.yul\":7595:7600   */\n      dup4\n        /* \"#utility.yul\":7591:7605   */\n      add\n        /* \"#utility.yul\":7587:7610   */\n      div\n        /* \"#utility.yul\":7577:7610   */\n      swap1\n      pop\n        /* \"#utility.yul\":7523:7616   */\n      swap2\n      swap1\n      pop\n      jump\t// out\n        /* \"#utility.yul\":7622:7729   */\n    tag_68:\n        /* \"#utility.yul\":7666:7674   */\n      0x00\n        /* \"#utility.yul\":7716:7721   */\n      dup3\n        /* \"#utility.yul\":7710:7714   */\n      dup3\n        /* \"#utility.yul\":7706:7722   */\n      shl\n        /* \"#utility.yul\":7685:7722   */\n      swap1\n      pop\n        /* \"#utility.yul\":7622:7729   */\n      swap3\n      swap2\n      pop\n      pop\n      jump\t// out\n        /* \"#utility.yul\":7735:8128   */\n    tag_69:\n        /* \"#utility.yul\":7804:7810   */\n      0x00\n        /* \"#utility.yul\":7854:7855   */\n      0x08\n        /* \"#utility.yul\":7842:7852   */\n      dup4\n        /* \"#utility.yul\":7838:7856   */\n      mul\n        /* \"#utility.yul\":7877:7974   */\n      tag_172\n        /* \"#utility.yul\":7907:7973   */\n      0xffffffffffffffffffffffffffffffffffffffffffffffffffffffffffffffff\n        /* \"#utility.yul\":7896:7905   */\n      dup3\n        /* \"#utility.yul\":7877:7974   */\n      tag_68\n      jump\t// in\n    tag_172:\n        /* \"#utility.yul\":7995:8034   */\n      tag_173\n        /* \"#utility.yul\":8025:8033   */\n      dup7\n        /* \"#utility.yul\":8014:8023   */\n      dup4\n        /* \"#utility.yul\":7995:8034   */\n      tag_68\n      jump\t// in\n    tag_173:\n        /* \"#utility.yul\":7983:8034   */\n      swap6\n      pop\n        /* \"#utility.yul\":8067:8071   */\n      dup1\n        /* \"#utility.yul\":8063:8072   */\n      not\n        /* \"#utility.yul\":8056:8061   */\n      dup5\n        /* \"#utility.yul\":8052:8073   */\n      and\n        /* \"#utility.yul\":8043:8073   */\n      swap4\n      pop\n        /* \"#utility.yul\":8116:8120   */\n      dup1\n        /* \"#utility.yul\":8106:8114   */\n      dup7\n        /* \"#utility.yul\":8102:8121   */\n      and\n        /* \"#utility.yul\":8095:8100   */\n      dup5\n        /* \"#utility.yul\":8092:8122   */\n      or\n        /* \"#utility.yul\":8082:8122   */\n      swap3\n      pop\n        /* \"#utility.yul\":7811:8128   */\n      pop\n      pop\n        /* \"#utility.yul\":7735:8128   */\n      swap4\n      swap3\n      pop\n      pop\n      pop\n      jump\t// out\n        /* \"#utility.yul\":8134:8194   */\n    tag_70:\n        /* \"#utility.yul\":8162:8165   */\n      0x00\n        /* \"#utility.yul\":8183:8188   */\n      dup2\n        /* \"#utility.yul\":8176:8188   */\n      swap1\n      pop\n        /* \"#utility.yul\":8134:8194   */\n      swap2\n      swap1\n      pop\n      jump\t// out\n        /* \"#utility.yul\":8200:8342   */\n    tag_71:\n        /* \"#utility.yul\":8250:8259   */\n      0x00\n        /* \"#utility.yul\":8283:8336   */\n      tag_176\n        /* \"#utility.yul\":8301:8335   */\n      tag_177\n        /* \"#utility.yul\":8310:8334   */\n      tag_178\n        /* \"#utility.yul\":8328:8333   */\n      dup5\n        /* \"#utility.yul\":8310:8334   */\n      tag_47\n      jump\t// in\n    tag_178:\n        /* \"#utility.yul\":8301:8335   */\n      tag_70\n      jump\t// in\n    tag_177:\n        /* \"#utility.yul\":8283:8336   */\n      tag_47\n      jump\t// in\n    tag_176:\n        /* \"#utility.yul\":8270:8336   */\n      swap1\n      pop\n        /* \"#utility.yul\":8200:8342   */\n      swap2\n      swap1\n      pop\n      jump\t// out\n        /* \"#utility.yul\":8348:8423   */\n    tag_72:\n        /* \"#utility.yul\":8391:8394   */\n      0x00\n        /* \"#utility.yul\":8412:8417   */\n      dup2\n        /* \"#utility.yul\":8405:8417   */\n      swap1\n      pop\n        /* \"#utility.yul\":8348:8423   */\n      swap2\n      swap1\n      pop\n      jump\t// out\n        /* \"#utility.yul\":8429:8698   */\n    tag_73:\n        /* \"#utility.yul\":8539:8578   */\n      tag_181\n        /* \"#utility.yul\":8570:8577   */\n      dup4\n        /* \"#utility.yul\":8539:8578   */\n      tag_71\n      jump\t// in\n    tag_181:\n        /* \"#utility.yul\":8600:8691   */\n      tag_182\n        /* \"#utility.yul\":8649:8690   */\n      tag_183\n        /* \"#utility.yul\":8673:8689   */\n      dup3\n        /* \"#utility.yul\":8649:8690   */\n      tag_72\n      jump\t// in\n    tag_183:\n        /* \"#utility.yul\":8641:8647   */\n      dup5\n        /* \"#utility.yul\":8634:8638   */\n      dup5\n        /* \"#utility.yul\":8628:8639   */\n      sload\n        /* \"#utility.yul\":8600:8691   */\n      tag_69\n      jump\t// in\n    tag_182:\n        /* \"#utility.yul\":8594:8598   */\n      dup3\n        /* \"#utility.yul\":8587:8692   */\n      sstore\n        /* \"#utility.yul\":8505:8698   */\n      pop\n        /* \"#utility.yul\":8429:8698   */\n      pop\n      pop\n      pop\n      jump\t// out\n        /* \"#utility.yul\":8704:8777   */\n    tag_74:\n        /* \"#utility.yul\":8749:8752   */\n      0x00\n        /* \"#utility.yul\":8770:8771   */\n      0x00\n        /* \"#utility.yul\":8763:8771   */\n      swap1\n      pop\n        /* \"#utility.yul\":8704:8777   */\n      swap1\n      jump\t// out\n        /* \"#utility.yul\":8783:8972   */\n    tag_75:\n        /* \"#utility.yul\":8860:8892   */\n      tag_186\n      tag_74\n      jump\t// in\n    tag_186:\n        /* \"#utility.yul\":8901:8966   */\n      tag_187\n        /* \"#utility.yul\":8959:8965   */\n      dup2\n        /* \"#utility.yul\":8951:8957   */\n      dup5\n        /* \"#utility.yul\":8945:8949   */\n      dup5\n        /* \"#utility.yul\":8901:8966   */\n      tag_73\n      jump\t// in\n    tag_187:\n        /* \"#utility.yul\":8836:8972   */\n      pop\n        /* \"#utility.yul\":8783:8972   */\n      pop\n      pop\n      jump\t// out\n        /* \"#utility.yul\":8978:9192   */\n    tag_76:\n        /* \"#utility.yul\":9063:9064   */\n      0x00\n        /* \"#utility.yul\":9048:9186   */\n    tag_189:\n        /* \"#utility.yul\":9073:9082   */\n      dup3\n        /* \"#utility.yul\":9070:9071   */\n      dup2\n        /* \"#utility.yul\":9067:9083   */\n      lt\n        /* \"#utility.yul\":9048:9186   */\n      iszero\n      tag_191\n      jumpi\n        /* \"#utility.yul\":9125:9176   */\n      tag_192\n        /* \"#utility.yul\":9174:9175   */\n      0x00\n        /* \"#utility.yul\":9170:9171   */\n      dup3\n        /* \"#utility.yul\":9159:9168   */\n      dup5\n        /* \"#utility.yul\":9155:9172   */\n      add\n        /* \"#utility.yul\":9125:9176   */\n      tag_75\n      jump\t// in\n    tag_192:\n        /* \"#utility.yul\":9098:9099   */\n      0x01\n        /* \"#utility.yul\":9095:9096   */\n      dup2\n        /* \"#utility.yul\":9091:9100   */\n      add\n        /* \"#utility.yul\":9086:9100   */\n      swap1\n      pop\n        /* \"#utility.yul\":9048:9186   */\n      jump(tag_189)\n    tag_191:\n        /* \"#utility.yul\":9052:9066   */\n      pop\n        /* \"#utility.yul\":8978:9192   */\n      pop\n      pop\n      jump\t// out\n        /* \"#utility.yul\":9198:9944   */\n    tag_77:\n        /* \"#utility.yul\":9299:9301   */\n      0x1f\n        /* \"#utility.yul\":9294:9297   */\n      dup3\n        /* \"#utility.yul\":9291:9302   */\n      gt\n        /* \"#utility.yul\":9288:9937   */\n      iszero\n      tag_194\n      jumpi\n        /* \"#utility.yul\":9328:9338   */\n      dup3\n        /* \"#utility.yul\":9323:9326   */\n      dup3\n        /* \"#utility.yul\":9320:9339   */\n      gt\n        /* \"#utility.yul\":9317:9927   */\n      iszero\n      tag_195\n      jumpi\n        /* \"#utility.yul\":9374:9412   */\n      tag_196\n        /* \"#utility.yul\":9406:9411   */\n      dup2\n        /* \"#utility.yul\":9374:9412   */\n      tag_66\n      jump\t// in\n    tag_196:\n        /* \"#utility.yul\":9449:9471   */\n      tag_197\n        /* \"#utility.yul\":9467:9470   */\n      dup4\n        /* \"#utility.yul\":9449:9471   */\n      tag_67\n      jump\t// in\n    tag_197:\n        /* \"#utility.yul\":9508:9537   */\n      tag_198\n        /* \"#utility.yul\":9526:9536   */\n      dup6\n        /* \"#utility.yul\":9508:9537   */\n      tag_67\n      jump\t// in\n    tag_198:\n        /* \"#utility.yul\":9698:9700   */\n      0x20\n        /* \"#utility.yul\":9686:9696   */\n      dup7\n        /* \"#utility.yul\":9683:9701   */\n      lt\n        /* \"#utility.yul\":9680:9759   */\n      iszero\n      tag_199\n      jumpi\n        /* \"#utility.yul\":9740:9741   */\n      0x00\n        /* \"#utility.yul\":9724:9741   */\n      swap1\n      pop\n        /* \"#utility.yul\":9680:9759   */\n    tag_199:\n        /* \"#utility.yul\":9809:9821   */\n      dup1\n        /* \"#utility.yul\":9799:9807   */\n      dup4\n        /* \"#utility.yul\":9795:9822   */\n      add\n        /* \"#utility.yul\":9839:9913   */\n      tag_200\n        /* \"#utility.yul\":9899:9911   */\n      dup3\n        /* \"#utility.yul\":9885:9897   */\n      dup5\n        /* \"#utility.yul\":9881:9912   */\n      sub\n        /* \"#utility.yul\":9868:9879   */\n      dup3\n        /* \"#utility.yul\":9839:9913   */\n      tag_76\n      jump\t// in\n    tag_200:\n        /* \"#utility.yul\":9340:9927   */\n      pop\n      pop\n      pop\n      pop\n        /* \"#utility.yul\":9317:9927   */\n    tag_195:\n        /* \"#utility.yul\":9288:9937   */\n    tag_194:\n        /* \"#utility.yul\":9198:9944   */\n      pop\n      pop\n      pop\n      jump\t// out\n        /* \"#utility.yul\":9950:10067   */\n    tag_78:\n        /* \"#utility.yul\":10004:10012   */\n      0x00\n        /* \"#utility.yul\":10054:10059   */\n      dup3\n        /* \"#utility.yul\":10048:10052   */\n      dup3\n        /* \"#utility.yul\":10044:10060   */\n      shr\n        /* \"#utility.yul\":10023:10060   */\n      swap1\n      pop\n        /* \"#utility.yul\":9950:10067   */\n      swap3\n      swap2\n      pop\n      pop\n      jump\t// out\n        /* \"#utility.yul\":10073:10242   */\n    tag_79:\n        /* \"#utility.yul\":10117:10123   */\n      0x00\n        /* \"#utility.yul\":10150:10201   */\n      tag_203\n        /* \"#utility.yul\":10198:10199   */\n      0x00\n        /* \"#utility.yul\":10194:10200   */\n      not\n        /* \"#utility.yul\":10186:10191   */\n      dup5\n        /* \"#utility.yul\":10183:10184   */\n      0x08\n        /* \"#utility.yul\":10179:10192   */\n      mul\n        /* \"#utility.yul\":10150:10201   */\n      tag_78\n      jump\t// in\n    tag_203:\n        /* \"#utility.yul\":10146:10202   */\n      not\n        /* \"#utility.yul\":10231:10235   */\n      dup1\n        /* \"#utility.yul\":10225:10229   */\n      dup4\n        /* \"#utility.yul\":10221:10236   */\n      and\n        /* \"#utility.yul\":10211:10236   */\n      swap2\n      pop\n        /* \"#utility.yul\":10124:10242   */\n      pop\n        /* \"#utility.yul\":10073:10242   */\n      swap3\n      swap2\n      pop\n      pop\n      jump\t// out\n        /* \"#utility.yul\":10247:10542   */\n    tag_80:\n        /* \"#utility.yul\":10323:10327   */\n      0x00\n        /* \"#utility.yul\":10469:10498   */\n      tag_205\n        /* \"#utility.yul\":10494:10497   */\n      dup4\n        /* \"#utility.yul\":10488:10492   */\n      dup4\n        /* \"#utility.yul\":10469:10498   */\n      tag_79\n      jump\t// in\n    tag_205:\n        /* \"#utility.yul\":10461:10498   */\n      swap2\n      pop\n        /* \"#utility.yul\":10531:10534   */\n      dup3\n        /* \"#utility.yul\":10528:10529   */\n      0x02\n        /* \"#utility.yul\":10524:10535   */\n      mul\n        /* \"#utility.yul\":10518:10522   */\n      dup3\n        /* \"#utility.yul\":10515:10536   */\n      or\n        /* \"#utility.yul\":10507:10536   */\n      swap1\n      pop\n        /* \"#utility.yul\":10247:10542   */\n      swap3\n      swap2\n      pop\n      pop\n      jump\t// out\n        /* \"#utility.yul\":10547:11942   */\n    tag_34:\n        /* \"#utility.yul\":10664:10701   */\n      tag_207\n        /* \"#utility.yul\":10697:10700   */\n      dup3\n        /* \"#utility.yul\":10664:10701   */\n      tag_42\n      jump\t// in\n    tag_207:\n        /* \"#utility.yul\":10766:10784   */\n      0xffffffffffffffff\n        /* \"#utility.yul\":10758:10764   */\n      dup2\n        /* \"#utility.yul\":10755:10785   */\n      gt\n        /* \"#utility.yul\":10752:10808   */\n      iszero\n      tag_208\n      jumpi\n        /* \"#utility.yul\":10788:10806   */\n      tag_209\n      tag_54\n      jump\t// in\n    tag_209:\n        /* \"#utility.yul\":10752:10808   */\n    tag_208:\n        /* \"#utility.yul\":10832:10870   */\n      tag_210\n        /* \"#utility.yul\":10864:10868   */\n      dup3\n        /* \"#utility.yul\":10858:10869   */\n      sload\n        /* \"#utility.yul\":10832:10870   */\n      tag_22\n      jump\t// in\n    tag_210:\n        /* \"#utility.yul\":10917:10984   */\n      tag_211\n        /* \"#utility.yul\":10977:10983   */\n      dup3\n        /* \"#utility.yul\":10969:10975   */\n      dup3\n        /* \"#utility.yul\":10963:10967   */\n      dup6\n        /* \"#utility.yul\":10917:10984   */\n      tag_77\n      jump\t// in\n    tag_211:\n        /* \"#utility.yul\":11011:11012   */\n      0x00\n        /* \"#utility.yul\":11035:11039   */\n      0x20\n        /* \"#utility.yul\":11022:11039   */\n      swap1\n      pop\n        /* \"#utility.yul\":11067:11069   */\n      0x1f\n        /* \"#utility.yul\":11059:11065   */\n      dup4\n        /* \"#utility.yul\":11056:11070   */\n      gt\n        /* \"#utility.yul\":11084:11085   */\n      0x01\n        /* \"#utility.yul\":11079:11697   */\n      dup2\n      eq\n      tag_213\n      jumpi\n        /* \"#utility.yul\":11741:11742   */\n      0x00\n        /* \"#utility.yul\":11758:11764   */\n      dup5\n        /* \"#utility.yul\":11755:11832   */\n      iszero\n      tag_214\n      jumpi\n        /* \"#utility.yul\":11807:11816   */\n      dup3\n        /* \"#utility.yul\":11802:11805   */\n      dup8\n        /* \"#utility.yul\":11798:11817   */\n      add\n        /* \"#utility.yul\":11792:11818   */\n      mload\n        /* \"#utility.yul\":11783:11818   */\n      swap1\n      pop\n        /* \"#utility.yul\":11755:11832   */\n    tag_214:\n        /* \"#utility.yul\":11858:11925   */\n      tag_215\n        /* \"#utility.yul\":11918:11924   */\n      dup6\n        /* \"#utility.yul\":11911:11916   */\n      dup3\n        /* \"#utility.yul\":11858:11925   */\n      tag_80\n      jump\t// in\n    tag_215:\n        /* \"#utility.yul\":11852:11856   */\n      dup7\n        /* \"#utility.yul\":11845:11926   */\n      sstore\n        /* \"#utility.yul\":11714:11936   */\n      pop\n        /* \"#utility.yul\":11049:11936   */\n      jump(tag_212)\n        /* \"#utility.yul\":11079:11697   */\n    tag_213:\n        /* \"#utility.yul\":11131:11135   */\n      0x1f\n        /* \"#utility.yul\":11127:11136   */\n      not\n        /* \"#utility.yul\":11119:11125   */\n      dup5\n        /* \"#utility.yul\":11115:11137   */\n      and\n        /* \"#utility.yul\":11165:11202   */\n      tag_216\n        /* \"#utility.yul\":11197:11201   */\n      dup7\n        /* \"#utility.yul\":11165:11202   */\n      tag_66\n      jump\t// in\n    tag_216:\n        /* \"#utility.yul\":11224:11225   */\n      0x00\n        /* \"#utility.yul\":11238:11446   */\n    tag_217:\n        /* \"#utility.yul\":11252:11259   */\n      dup3\n        /* \"#utility.yul\":11249:11250   */\n      dup2\n        /* \"#utility.yul\":11246:11260   */\n      lt\n        /* \"#utility.yul\":11238:11446   */\n      iszero\n      tag_219\n      jumpi\n        /* \"#utility.yul\":11331:11340   */\n      dup5\n        /* \"#utility.yul\":11326:11329   */\n      dup10\n        /* \"#utility.yul\":11322:11341   */\n      add\n        /* \"#utility.yul\":11316:11342   */\n      mload\n        /* \"#utility.yul\":11308:11314   */\n      dup3\n        /* \"#utility.yul\":11301:11343   */\n      sstore\n        /* \"#utility.yul\":11382:11383   */\n      0x01\n        /* \"#utility.yul\":11374:11380   */\n      dup3\n        /* \"#utility.yul\":11370:11384   */\n      add\n        /* \"#utility.yul\":11360:11384   */\n      swap2\n      pop\n        /* \"#utility.yul\":11429:11431   */\n      0x20\n        /* \"#utility.yul\":11418:11427   */\n      dup6\n        /* \"#utility.yul\":11414:11432   */\n      add\n        /* \"#utility.yul\":11401:11432   */\n      swap5\n      pop\n        /* \"#utility.yul\":11275:11279   */\n      0x20\n        /* \"#utility.yul\":11272:11273   */\n      dup2\n        /* \"#utility.yul\":11268:11280   */\n      add\n        /* \"#utility.yul\":11263:11280   */\n      swap1\n      pop\n        /* \"#utility.yul\":11238:11446   */\n      jump(tag_217)\n    tag_219:\n        /* \"#utility.yul\":11474:11480   */\n      dup7\n        /* \"#utility.yul\":11465:11472   */\n      dup4\n        /* \"#utility.yul\":11462:11481   */\n      lt\n        /* \"#utility.yul\":11459:11638   */\n      iszero\n      tag_220\n      jumpi\n        /* \"#utility.yul\":11532:11541   */\n      dup5\n        /* \"#utility.yul\":11527:11530   */\n      dup10\n        /* \"#utility.yul\":11523:11542   */\n      add\n        /* \"#utility.yul\":11517:11543   */\n      mload\n        /* \"#utility.yul\":11575:11623   */\n      tag_221\n        /* \"#utility.yul\":11617:11621   */\n      0x1f\n        /* \"#utility.yul\":11609:11615   */\n      dup10\n        /* \"#utility.yul\":11605:11622   */\n      and\n        /* \"#utility.yul\":11594:11603   */\n      dup3\n        /* \"#utility.yul\":11575:11623   */\n      tag_79\n      jump\t// in\n    tag_221:\n        /* \"#utility.yul\":11567:11573   */\n      dup4\n        /* \"#utility.yul\":11560:11624   */\n      sstore\n        /* \"#utility.yul\":11482:11638   */\n      pop\n        /* \"#utility.yul\":11459:11638   */\n    tag_220:\n        /* \"#utility.yul\":11684:11685   */\n      0x01\n        /* \"#utility.yul\":11680:11681   */\n      0x02\n        /* \"#utility.yul\":11672:11678   */\n      dup9\n        /* \"#utility.yul\":11668:11682   */\n      mul\n        /* \"#utility.yul\":11664:11686   */\n      add\n        /* \"#utility.yul\":11658:11662   */\n      dup9\n        /* \"#utility.yul\":11651:11687   */\n      sstore\n        /* \"#utility.yul\":11086:11697   */\n      pop\n      pop\n      pop\n        /* \"#utility.yul\":11049:11936   */\n    tag_212:\n      pop\n        /* \"#utility.yul\":10639:11942   */\n      pop\n      pop\n      pop\n        /* \"#utility.yul\":10547:11942   */\n      pop\n      pop\n      jump\t// out\n\n    auxdata: 0xa264697066735822122079a26453caadf7c6be338e2c698321b39506eb319e72ef3f67448d888fac5c1364736f6c63430008220033\n}\n",
				"bytecode": {
					"linkReferences": {},
					"object": "6080604052348015600e575f5ffd5b50610ac38061001c5f395ff3fe608060405234801561000f575f5ffd5b506004361061003f575f3560e01c80636f77926b14610043578063a87430ba14610076578063acc8ac6c146100a9575b5f5ffd5b61005d6004803603810190610058919061048a565b6100c5565b60405161006d9493929190610566565b60405180910390f35b610090600480360381019061008b919061048a565b610240565b6040516100a09493929190610566565b60405180910390f35b6100c360048036038101906100be9190610730565b61031d565b005b60605f5f5f5f5f5f8773ffffffffffffffffffffffffffffffffffffffff1673ffffffffffffffffffffffffffffffffffffffff1681526020019081526020015f206040518060800160405290815f82018054610121906107dd565b80601f016020809104026020016040519081016040528092919081815260200182805461014d906107dd565b80156101985780601f1061016f57610100808354040283529160200191610198565b820191905f5260205f20905b81548152906001019060200180831161017b57829003601f168201915b5050505050815260200160018201548152602001600282015f9054906101000a900473ffffffffffffffffffffffffffffffffffffffff1673ffffffffffffffffffffffffffffffffffffffff1673ffffffffffffffffffffffffffffffffffffffff1681526020016002820160149054906101000a900460ff1615151515815250509050805f01518160200151826040015183606001519450945094509450509193509193565b5f602052805f5260405f205f91509050805f01805461025e906107dd565b80601f016020809104026020016040519081016040528092919081815260200182805461028a906107dd565b80156102d55780601f106102ac576101008083540402835291602001916102d5565b820191905f5260205f20905b8154815290600101906020018083116102b857829003601f168201915b505050505090806001015490806002015f9054906101000a900473ffffffffffffffffffffffffffffffffffffffff16908060020160149054906101000a900460ff16905084565b60405180608001604052808581526020018481526020018373ffffffffffffffffffffffffffffffffffffffff1681526020018215158152505f5f3373ffffffffffffffffffffffffffffffffffffffff1673ffffffffffffffffffffffffffffffffffffffff1681526020019081526020015f205f820151815f0190816103a591906109be565b50602082015181600101556040820151816002015f6101000a81548173ffffffffffffffffffffffffffffffffffffffff021916908373ffffffffffffffffffffffffffffffffffffffff16021790555060608201518160020160146101000a81548160ff02191690831515021790555090505050505050565b5f604051905090565b5f5ffd5b5f5ffd5b5f73ffffffffffffffffffffffffffffffffffffffff82169050919050565b5f61045982610430565b9050919050565b6104698161044f565b8114610473575f5ffd5b50565b5f8135905061048481610460565b92915050565b5f6020828403121561049f5761049e610428565b5b5f6104ac84828501610476565b91505092915050565b5f81519050919050565b5f82825260208201905092915050565b8281835e5f83830152505050565b5f601f19601f8301169050919050565b5f6104f7826104b5565b61050181856104bf565b93506105118185602086016104cf565b61051a816104dd565b840191505092915050565b5f819050919050565b61053781610525565b82525050565b6105468161044f565b82525050565b5f8115159050919050565b6105608161054c565b82525050565b5f6080820190508181035f83015261057e81876104ed565b905061058d602083018661052e565b61059a604083018561053d565b6105a76060830184610557565b95945050505050565b5f5ffd5b5f5ffd5b7f4e487b71000000000000000000000000000000000000000000000000000000005f52604160045260245ffd5b6105ee826104dd565b810181811067ffffffffffffffff8211171561060d5761060c6105b8565b5b80604052505050565b5f61061f61041f565b905061062b82826105e5565b919050565b5f67ffffffffffffffff82111561064a576106496105b8565b5b610653826104dd565b9050602081019050919050565b828183375f83830152505050565b5f61068061067b84610630565b610616565b90508281526020810184848401111561069c5761069b6105b4565b5b6106a7848285610660565b509392505050565b5f82601f8301126106c3576106c26105b0565b5b81356106d384826020860161066e565b91505092915050565b6106e581610525565b81146106ef575f5ffd5b50565b5f81359050610700816106dc565b92915050565b61070f8161054c565b8114610719575f5ffd5b50565b5f8135905061072a81610706565b92915050565b5f5f5f5f6080858703121561074857610747610428565b5b5f85013567ffffffffffffffff8111156107655761076461042c565b5b610771878288016106af565b9450506020610782878288016106f2565b935050604061079387828801610476565b92505060606107a48782880161071c565b91505092959194509250565b7f4e487b71000000000000000000000000000000000000000000000000000000005f52602260045260245ffd5b5f60028204905060018216806107f457607f821691505b602082108103610807576108066107b0565b5b50919050565b5f819050815f5260205f209050919050565b5f6020601f8301049050919050565b5f82821b905092915050565b5f600883026108697fffffffffffffffffffffffffffffffffffffffffffffffffffffffffffffffff8261082e565b610873868361082e565b95508019841693508086168417925050509392505050565b5f819050919050565b5f6108ae6108a96108a484610525565b61088b565b610525565b9050919050565b5f819050919050565b6108c783610894565b6108db6108d3826108b5565b84845461083a565b825550505050565b5f5f905090565b6108f26108e3565b6108fd8184846108be565b505050565b5f5b82811015610923576109185f8284016108ea565b600181019050610904565b505050565b601f8211156109765782821115610975576109428161080d565b61094b8361081f565b6109548561081f565b6020861015610961575f90505b80830161097082840382610902565b505050505b5b505050565b5f82821c905092915050565b5f6109965f198460080261097b565b1980831691505092915050565b5f6109ae8383610987565b9150826002028217905092915050565b6109c7826104b5565b67ffffffffffffffff8111156109e0576109df6105b8565b5b6109ea82546107dd565b6109f5828285610928565b5f60209050601f831160018114610a26575f8415610a14578287015190505b610a1e85826109a3565b865550610a85565b601f198416610a348661080d565b5f5b82811015610a5b57848901518255600182019150602085019450602081019050610a36565b86831015610a785784890151610a74601f891682610987565b8355505b6001600288020188555050505b50505050505056fea264697066735822122079a26453caadf7c6be338e2c698321b39506eb319e72ef3f67448d888fac5c1364736f6c63430008220033",
					"opcodes": "PUSH1 0x80 PUSH1 0x40 MSTORE CALLVALUE DUP1 ISZERO PUSH1 0xE JUMPI PUSH0 PUSH0 REVERT JUMPDEST POP PUSH2 0xAC3 DUP1 PUSH2 0x1C PUSH0 CODECOPY PUSH0 RETURN INVALID PUSH1 0x80 PUSH1 0x40 MSTORE CALLVALUE DUP1 ISZERO PUSH2 0xF JUMPI PUSH0 PUSH0 REVERT JUMPDEST POP PUSH1 0x4 CALLDATASIZE LT PUSH2 0x3F JUMPI PUSH0 CALLDATALOAD PUSH1 0xE0 SHR DUP1 PUSH4 0x6F77926B EQ PUSH2 0x43 JUMPI DUP1 PUSH4 0xA87430BA EQ PUSH2 0x76 JUMPI DUP1 PUSH4 0xACC8AC6C EQ PUSH2 0xA9 JUMPI JUMPDEST PUSH0 PUSH0 REVERT JUMPDEST PUSH2 0x5D PUSH1 0x4 DUP1 CALLDATASIZE SUB DUP2 ADD SWAP1 PUSH2 0x58 SWAP2 SWAP1 PUSH2 0x48A JUMP JUMPDEST PUSH2 0xC5 JUMP JUMPDEST PUSH1 0x40 MLOAD PUSH2 0x6D SWAP5 SWAP4 SWAP3 SWAP2 SWAP1 PUSH2 0x566 JUMP JUMPDEST PUSH1 0x40 MLOAD DUP1 SWAP2 SUB SWAP1 RETURN JUMPDEST PUSH2 0x90 PUSH1 0x4 DUP1 CALLDATASIZE SUB DUP2 ADD SWAP1 PUSH2 0x8B SWAP2 SWAP1 PUSH2 0x48A JUMP JUMPDEST PUSH2 0x240 JUMP JUMPDEST PUSH1 0x40 MLOAD PUSH2 0xA0 SWAP5 SWAP4 SWAP3 SWAP2 SWAP1 PUSH2 0x566 JUMP JUMPDEST PUSH1 0x40 MLOAD DUP1 SWAP2 SUB SWAP1 RETURN JUMPDEST PUSH2 0xC3 PUSH1 0x4 DUP1 CALLDATASIZE SUB DUP2 ADD SWAP1 PUSH2 0xBE SWAP2 SWAP1 PUSH2 0x730 JUMP JUMPDEST PUSH2 0x31D JUMP JUMPDEST STOP JUMPDEST PUSH1 0x60 PUSH0 PUSH0 PUSH0 PUSH0 PUSH0 PUSH0 DUP8 PUSH20 0xFFFFFFFFFFFFFFFFFFFFFFFFFFFFFFFFFFFFFFFF AND PUSH20 0xFFFFFFFFFFFFFFFFFFFFFFFFFFFFFFFFFFFFFFFF AND DUP2 MSTORE PUSH1 0x20 ADD SWAP1 DUP2 MSTORE PUSH1 0x20 ADD PUSH0 KECCAK256 PUSH1 0x40 MLOAD DUP1 PUSH1 0x80 ADD PUSH1 0x40 MSTORE SWAP1 DUP2 PUSH0 DUP3 ADD DUP1 SLOAD PUSH2 0x121 SWAP1 PUSH2 0x7DD JUMP JUMPDEST DUP1 PUSH1 0x1F ADD PUSH1 0x20 DUP1 SWAP2 DIV MUL PUSH1 0x20 ADD PUSH1 0x40 MLOAD SWAP1 DUP2 ADD PUSH1 0x40 MSTORE DUP1 SWAP3 SWAP2 SWAP1 DUP2 DUP2 MSTORE PUSH1 0x20 ADD DUP3 DUP1 SLOAD PUSH2 0x14D SWAP1 PUSH2 0x7DD JUMP JUMPDEST DUP1 ISZERO PUSH2 0x198 JUMPI DUP1 PUSH1 0x1F LT PUSH2 0x16F JUMPI PUSH2 0x100 DUP1 DUP4 SLOAD DIV MUL DUP4 MSTORE SWAP2 PUSH1 0x20 ADD SWAP2 PUSH2 0x198 JUMP JUMPDEST DUP3 ADD SWAP2 SWAP1 PUSH0 MSTORE PUSH1 0x20 PUSH0 KECCAK256 SWAP1 JUMPDEST DUP2 SLOAD DUP2 MSTORE SWAP1 PUSH1 0x1 ADD SWAP1 PUSH1 0x20 ADD DUP1 DUP4 GT PUSH2 0x17B JUMPI DUP3 SWAP1 SUB PUSH1 0x1F AND DUP3 ADD SWAP2 JUMPDEST POP POP POP POP POP DUP2 MSTORE PUSH1 0x20 ADD PUSH1 0x1 DUP3 ADD SLOAD DUP2 MSTORE PUSH1 0x20 ADD PUSH1 0x2 DUP3 ADD PUSH0 SWAP1 SLOAD SWAP1 PUSH2 0x100 EXP SWAP1 DIV PUSH20 0xFFFFFFFFFFFFFFFFFFFFFFFFFFFFFFFFFFFFFFFF AND PUSH20 0xFFFFFFFFFFFFFFFFFFFFFFFFFFFFFFFFFFFFFFFF AND PUSH20 0xFFFFFFFFFFFFFFFFFFFFFFFFFFFFFFFFFFFFFFFF AND DUP2 MSTORE PUSH1 0x20 ADD PUSH1 0x2 DUP3 ADD PUSH1 0x14 SWAP1 SLOAD SWAP1 PUSH2 0x100 EXP SWAP1 DIV PUSH1 0xFF AND ISZERO ISZERO ISZERO ISZERO DUP2 MSTORE POP POP SWAP1 POP DUP1 PUSH0 ADD MLOAD DUP2 PUSH1 0x20 ADD MLOAD DUP3 PUSH1 0x40 ADD MLOAD DUP4 PUSH1 0x60 ADD MLOAD SWAP5 POP SWAP5 POP SWAP5 POP SWAP5 POP POP SWAP2 SWAP4 POP SWAP2 SWAP4 JUMP JUMPDEST PUSH0 PUSH1 0x20 MSTORE DUP1 PUSH0 MSTORE PUSH1 0x40 PUSH0 KECCAK256 PUSH0 SWAP2 POP SWAP1 POP DUP1 PUSH0 ADD DUP1 SLOAD PUSH2 0x25E SWAP1 PUSH2 0x7DD JUMP JUMPDEST DUP1 PUSH1 0x1F ADD PUSH1 0x20 DUP1 SWAP2 DIV MUL PUSH1 0x20 ADD PUSH1 0x40 MLOAD SWAP1 DUP2 ADD PUSH1 0x40 MSTORE DUP1 SWAP3 SWAP2 SWAP1 DUP2 DUP2 MSTORE PUSH1 0x20 ADD DUP3 DUP1 SLOAD PUSH2 0x28A SWAP1 PUSH2 0x7DD JUMP JUMPDEST DUP1 ISZERO PUSH2 0x2D5 JUMPI DUP1 PUSH1 0x1F LT PUSH2 0x2AC JUMPI PUSH2 0x100 DUP1 DUP4 SLOAD DIV MUL DUP4 MSTORE SWAP2 PUSH1 0x20 ADD SWAP2 PUSH2 0x2D5 JUMP JUMPDEST DUP3 ADD SWAP2 SWAP1 PUSH0 MSTORE PUSH1 0x20 PUSH0 KECCAK256 SWAP1 JUMPDEST DUP2 SLOAD DUP2 MSTORE SWAP1 PUSH1 0x1 ADD SWAP1 PUSH1 0x20 ADD DUP1 DUP4 GT PUSH2 0x2B8 JUMPI DUP3 SWAP1 SUB PUSH1 0x1F AND DUP3 ADD SWAP2 JUMPDEST POP POP POP POP POP SWAP1 DUP1 PUSH1 0x1 ADD SLOAD SWAP1 DUP1 PUSH1 0x2 ADD PUSH0 SWAP1 SLOAD SWAP1 PUSH2 0x100 EXP SWAP1 DIV PUSH20 0xFFFFFFFFFFFFFFFFFFFFFFFFFFFFFFFFFFFFFFFF AND SWAP1 DUP1 PUSH1 0x2 ADD PUSH1 0x14 SWAP1 SLOAD SWAP1 PUSH2 0x100 EXP SWAP1 DIV PUSH1 0xFF AND SWAP1 POP DUP5 JUMP JUMPDEST PUSH1 0x40 MLOAD DUP1 PUSH1 0x80 ADD PUSH1 0x40 MSTORE DUP1 DUP6 DUP2 MSTORE PUSH1 0x20 ADD DUP5 DUP2 MSTORE PUSH1 0x20 ADD DUP4 PUSH20 0xFFFFFFFFFFFFFFFFFFFFFFFFFFFFFFFFFFFFFFFF AND DUP2 MSTORE PUSH1 0x20 ADD DUP3 ISZERO ISZERO DUP2 MSTORE POP PUSH0 PUSH0 CALLER PUSH20 0xFFFFFFFFFFFFFFFFFFFFFFFFFFFFFFFFFFFFFFFF AND PUSH20 0xFFFFFFFFFFFFFFFFFFFFFFFFFFFFFFFFFFFFFFFF AND DUP2 MSTORE PUSH1 0x20 ADD SWAP1 DUP2 MSTORE PUSH1 0x20 ADD PUSH0 KECCAK256 PUSH0 DUP3 ADD MLOAD DUP2 PUSH0 ADD SWAP1 DUP2 PUSH2 0x3A5 SWAP2 SWAP1 PUSH2 0x9BE JUMP JUMPDEST POP PUSH1 0x20 DUP3 ADD MLOAD DUP2 PUSH1 0x1 ADD SSTORE PUSH1 0x40 DUP3 ADD MLOAD DUP2 PUSH1 0x2 ADD PUSH0 PUSH2 0x100 EXP DUP2 SLOAD DUP2 PUSH20 0xFFFFFFFFFFFFFFFFFFFFFFFFFFFFFFFFFFFFFFFF MUL NOT AND SWAP1 DUP4 PUSH20 0xFFFFFFFFFFFFFFFFFFFFFFFFFFFFFFFFFFFFFFFF AND MUL OR SWAP1 SSTORE POP PUSH1 0x60 DUP3 ADD MLOAD DUP2 PUSH1 0x2 ADD PUSH1 0x14 PUSH2 0x100 EXP DUP2 SLOAD DUP2 PUSH1 0xFF MUL NOT AND SWAP1 DUP4 ISZERO ISZERO MUL OR SWAP1 SSTORE POP SWAP1 POP POP POP POP POP POP JUMP JUMPDEST PUSH0 PUSH1 0x40 MLOAD SWAP1 POP SWAP1 JUMP JUMPDEST PUSH0 PUSH0 REVERT JUMPDEST PUSH0 PUSH0 REVERT JUMPDEST PUSH0 PUSH20 0xFFFFFFFFFFFFFFFFFFFFFFFFFFFFFFFFFFFFFFFF DUP3 AND SWAP1 POP SWAP2 SWAP1 POP JUMP JUMPDEST PUSH0 PUSH2 0x459 DUP3 PUSH2 0x430 JUMP JUMPDEST SWAP1 POP SWAP2 SWAP1 POP JUMP JUMPDEST PUSH2 0x469 DUP2 PUSH2 0x44F JUMP JUMPDEST DUP2 EQ PUSH2 0x473 JUMPI PUSH0 PUSH0 REVERT JUMPDEST POP JUMP JUMPDEST PUSH0 DUP2 CALLDATALOAD SWAP1 POP PUSH2 0x484 DUP2 PUSH2 0x460 JUMP JUMPDEST SWAP3 SWAP2 POP POP JUMP JUMPDEST PUSH0 PUSH1 0x20 DUP3 DUP5 SUB SLT ISZERO PUSH2 0x49F JUMPI PUSH2 0x49E PUSH2 0x428 JUMP JUMPDEST JUMPDEST PUSH0 PUSH2 0x4AC DUP5 DUP3 DUP6 ADD PUSH2 0x476 JUMP JUMPDEST SWAP2 POP POP SWAP3 SWAP2 POP POP JUMP JUMPDEST PUSH0 DUP2 MLOAD SWAP1 POP SWAP2 SWAP1 POP JUMP JUMPDEST PUSH0 DUP3 DUP3 MSTORE PUSH1 0x20 DUP3 ADD SWAP1 POP SWAP3 SWAP2 POP POP JUMP JUMPDEST DUP3 DUP2 DUP4 MCOPY PUSH0 DUP4 DUP4 ADD MSTORE POP POP POP JUMP JUMPDEST PUSH0 PUSH1 0x1F NOT PUSH1 0x1F DUP4 ADD AND SWAP1 POP SWAP2 SWAP1 POP JUMP JUMPDEST PUSH0 PUSH2 0x4F7 DUP3 PUSH2 0x4B5 JUMP JUMPDEST PUSH2 0x501 DUP2 DUP6 PUSH2 0x4BF JUMP JUMPDEST SWAP4 POP PUSH2 0x511 DUP2 DUP6 PUSH1 0x20 DUP7 ADD PUSH2 0x4CF JUMP JUMPDEST PUSH2 0x51A DUP2 PUSH2 0x4DD JUMP JUMPDEST DUP5 ADD SWAP2 POP POP SWAP3 SWAP2 POP POP JUMP JUMPDEST PUSH0 DUP2 SWAP1 POP SWAP2 SWAP1 POP JUMP JUMPDEST PUSH2 0x537 DUP2 PUSH2 0x525 JUMP JUMPDEST DUP3 MSTORE POP POP JUMP JUMPDEST PUSH2 0x546 DUP2 PUSH2 0x44F JUMP JUMPDEST DUP3 MSTORE POP POP JUMP JUMPDEST PUSH0 DUP2 ISZERO ISZERO SWAP1 POP SWAP2 SWAP1 POP JUMP JUMPDEST PUSH2 0x560 DUP2 PUSH2 0x54C JUMP JUMPDEST DUP3 MSTORE POP POP JUMP JUMPDEST PUSH0 PUSH1 0x80 DUP3 ADD SWAP1 POP DUP2 DUP2 SUB PUSH0 DUP4 ADD MSTORE PUSH2 0x57E DUP2 DUP8 PUSH2 0x4ED JUMP JUMPDEST SWAP1 POP PUSH2 0x58D PUSH1 0x20 DUP4 ADD DUP7 PUSH2 0x52E JUMP JUMPDEST PUSH2 0x59A PUSH1 0x40 DUP4 ADD DUP6 PUSH2 0x53D JUMP JUMPDEST PUSH2 0x5A7 PUSH1 0x60 DUP4 ADD DUP5 PUSH2 0x557 JUMP JUMPDEST SWAP6 SWAP5 POP POP POP POP POP JUMP JUMPDEST PUSH0 PUSH0 REVERT JUMPDEST PUSH0 PUSH0 REVERT JUMPDEST PUSH32 0x4E487B7100000000000000000000000000000000000000000000000000000000 PUSH0 MSTORE PUSH1 0x41 PUSH1 0x4 MSTORE PUSH1 0x24 PUSH0 REVERT JUMPDEST PUSH2 0x5EE DUP3 PUSH2 0x4DD JUMP JUMPDEST DUP2 ADD DUP2 DUP2 LT PUSH8 0xFFFFFFFFFFFFFFFF DUP3 GT OR ISZERO PUSH2 0x60D JUMPI PUSH2 0x60C PUSH2 0x5B8 JUMP JUMPDEST JUMPDEST DUP1 PUSH1 0x40 MSTORE POP POP POP JUMP JUMPDEST PUSH0 PUSH2 0x61F PUSH2 0x41F JUMP JUMPDEST SWAP1 POP PUSH2 0x62B DUP3 DUP3 PUSH2 0x5E5 JUMP JUMPDEST SWAP2 SWAP1 POP JUMP JUMPDEST PUSH0 PUSH8 0xFFFFFFFFFFFFFFFF DUP3 GT ISZERO PUSH2 0x64A JUMPI PUSH2 0x649 PUSH2 0x5B8 JUMP JUMPDEST JUMPDEST PUSH2 0x653 DUP3 PUSH2 0x4DD JUMP JUMPDEST SWAP1 POP PUSH1 0x20 DUP2 ADD SWAP1 POP SWAP2 SWAP1 POP JUMP JUMPDEST DUP3 DUP2 DUP4 CALLDATACOPY PUSH0 DUP4 DUP4 ADD MSTORE POP POP POP JUMP JUMPDEST PUSH0 PUSH2 0x680 PUSH2 0x67B DUP5 PUSH2 0x630 JUMP JUMPDEST PUSH2 0x616 JUMP JUMPDEST SWAP1 POP DUP3 DUP2 MSTORE PUSH1 0x20 DUP2 ADD DUP5 DUP5 DUP5 ADD GT ISZERO PUSH2 0x69C JUMPI PUSH2 0x69B PUSH2 0x5B4 JUMP JUMPDEST JUMPDEST PUSH2 0x6A7 DUP5 DUP3 DUP6 PUSH2 0x660 JUMP JUMPDEST POP SWAP4 SWAP3 POP POP POP JUMP JUMPDEST PUSH0 DUP3 PUSH1 0x1F DUP4 ADD SLT PUSH2 0x6C3 JUMPI PUSH2 0x6C2 PUSH2 0x5B0 JUMP JUMPDEST JUMPDEST DUP2 CALLDATALOAD PUSH2 0x6D3 DUP5 DUP3 PUSH1 0x20 DUP7 ADD PUSH2 0x66E JUMP JUMPDEST SWAP2 POP POP SWAP3 SWAP2 POP POP JUMP JUMPDEST PUSH2 0x6E5 DUP2 PUSH2 0x525 JUMP JUMPDEST DUP2 EQ PUSH2 0x6EF JUMPI PUSH0 PUSH0 REVERT JUMPDEST POP JUMP JUMPDEST PUSH0 DUP2 CALLDATALOAD SWAP1 POP PUSH2 0x700 DUP2 PUSH2 0x6DC JUMP JUMPDEST SWAP3 SWAP2 POP POP JUMP JUMPDEST PUSH2 0x70F DUP2 PUSH2 0x54C JUMP JUMPDEST DUP2 EQ PUSH2 0x719 JUMPI PUSH0 PUSH0 REVERT JUMPDEST POP JUMP JUMPDEST PUSH0 DUP2 CALLDATALOAD SWAP1 POP PUSH2 0x72A DUP2 PUSH2 0x706 JUMP JUMPDEST SWAP3 SWAP2 POP POP JUMP JUMPDEST PUSH0 PUSH0 PUSH0 PUSH0 PUSH1 0x80 DUP6 DUP8 SUB SLT ISZERO PUSH2 0x748 JUMPI PUSH2 0x747 PUSH2 0x428 JUMP JUMPDEST JUMPDEST PUSH0 DUP6 ADD CALLDATALOAD PUSH8 0xFFFFFFFFFFFFFFFF DUP2 GT ISZERO PUSH2 0x765 JUMPI PUSH2 0x764 PUSH2 0x42C JUMP JUMPDEST JUMPDEST PUSH2 0x771 DUP8 DUP3 DUP9 ADD PUSH2 0x6AF JUMP JUMPDEST SWAP5 POP POP PUSH1 0x20 PUSH2 0x782 DUP8 DUP3 DUP9 ADD PUSH2 0x6F2 JUMP JUMPDEST SWAP4 POP POP PUSH1 0x40 PUSH2 0x793 DUP8 DUP3 DUP9 ADD PUSH2 0x476 JUMP JUMPDEST SWAP3 POP POP PUSH1 0x60 PUSH2 0x7A4 DUP8 DUP3 DUP9 ADD PUSH2 0x71C JUMP JUMPDEST SWAP2 POP POP SWAP3 SWAP6 SWAP2 SWAP5 POP SWAP3 POP JUMP JUMPDEST PUSH32 0x4E487B7100000000000000000000000000000000000000000000000000000000 PUSH0 MSTORE PUSH1 0x22 PUSH1 0x4 MSTORE PUSH1 0x24 PUSH0 REVERT JUMPDEST PUSH0 PUSH1 0x2 DUP3 DIV SWAP1 POP PUSH1 0x1 DUP3 AND DUP1 PUSH2 0x7F4 JUMPI PUSH1 0x7F DUP3 AND SWAP2 POP JUMPDEST PUSH1 0x20 DUP3 LT DUP2 SUB PUSH2 0x807 JUMPI PUSH2 0x806 PUSH2 0x7B0 JUMP JUMPDEST JUMPDEST POP SWAP2 SWAP1 POP JUMP JUMPDEST PUSH0 DUP2 SWAP1 POP DUP2 PUSH0 MSTORE PUSH1 0x20 PUSH0 KECCAK256 SWAP1 POP SWAP2 SWAP1 POP JUMP JUMPDEST PUSH0 PUSH1 0x20 PUSH1 0x1F DUP4 ADD DIV SWAP1 POP SWAP2 SWAP1 POP JUMP JUMPDEST PUSH0 DUP3 DUP3 SHL SWAP1 POP SWAP3 SWAP2 POP POP JUMP JUMPDEST PUSH0 PUSH1 0x8 DUP4 MUL PUSH2 0x869 PUSH32 0xFFFFFFFFFFFFFFFFFFFFFFFFFFFFFFFFFFFFFFFFFFFFFFFFFFFFFFFFFFFFFFFF DUP3 PUSH2 0x82E JUMP JUMPDEST PUSH2 0x873 DUP7 DUP4 PUSH2 0x82E JUMP JUMPDEST SWAP6 POP DUP1 NOT DUP5 AND SWAP4 POP DUP1 DUP7 AND DUP5 OR SWAP3 POP POP POP SWAP4 SWAP3 POP POP POP JUMP JUMPDEST PUSH0 DUP2 SWAP1 POP SWAP2 SWAP1 POP JUMP JUMPDEST PUSH0 PUSH2 0x8AE PUSH2 0x8A9 PUSH2 0x8A4 DUP5 PUSH2 0x525 JUMP JUMPDEST PUSH2 0x88B JUMP JUMPDEST PUSH2 0x525 JUMP JUMPDEST SWAP1 POP SWAP2 SWAP1 POP JUMP JUMPDEST PUSH0 DUP2 SWAP1 POP SWAP2 SWAP1 POP JUMP JUMPDEST PUSH2 0x8C7 DUP4 PUSH2 0x894 JUMP JUMPDEST PUSH2 0x8DB PUSH2 0x8D3 DUP3 PUSH2 0x8B5 JUMP JUMPDEST DUP5 DUP5 SLOAD PUSH2 0x83A JUMP JUMPDEST DUP3 SSTORE POP POP POP POP JUMP JUMPDEST PUSH0 PUSH0 SWAP1 POP SWAP1 JUMP JUMPDEST PUSH2 0x8F2 PUSH2 0x8E3 JUMP JUMPDEST PUSH2 0x8FD DUP2 DUP5 DUP5 PUSH2 0x8BE JUMP JUMPDEST POP POP POP JUMP JUMPDEST PUSH0 JUMPDEST DUP3 DUP2 LT ISZERO PUSH2 0x923 JUMPI PUSH2 0x918 PUSH0 DUP3 DUP5 ADD PUSH2 0x8EA JUMP JUMPDEST PUSH1 0x1 DUP2 ADD SWAP1 POP PUSH2 0x904 JUMP JUMPDEST POP POP POP JUMP JUMPDEST PUSH1 0x1F DUP3 GT ISZERO PUSH2 0x976 JUMPI DUP3 DUP3 GT ISZERO PUSH2 0x975 JUMPI PUSH2 0x942 DUP2 PUSH2 0x80D JUMP JUMPDEST PUSH2 0x94B DUP4 PUSH2 0x81F JUMP JUMPDEST PUSH2 0x954 DUP6 PUSH2 0x81F JUMP JUMPDEST PUSH1 0x20 DUP7 LT ISZERO PUSH2 0x961 JUMPI PUSH0 SWAP1 POP JUMPDEST DUP1 DUP4 ADD PUSH2 0x970 DUP3 DUP5 SUB DUP3 PUSH2 0x902 JUMP JUMPDEST POP POP POP POP JUMPDEST JUMPDEST POP POP POP JUMP JUMPDEST PUSH0 DUP3 DUP3 SHR SWAP1 POP SWAP3 SWAP2 POP POP JUMP JUMPDEST PUSH0 PUSH2 0x996 PUSH0 NOT DUP5 PUSH1 0x8 MUL PUSH2 0x97B JUMP JUMPDEST NOT DUP1 DUP4 AND SWAP2 POP POP SWAP3 SWAP2 POP POP JUMP JUMPDEST PUSH0 PUSH2 0x9AE DUP4 DUP4 PUSH2 0x987 JUMP JUMPDEST SWAP2 POP DUP3 PUSH1 0x2 MUL DUP3 OR SWAP1 POP SWAP3 SWAP2 POP POP JUMP JUMPDEST PUSH2 0x9C7 DUP3 PUSH2 0x4B5 JUMP JUMPDEST PUSH8 0xFFFFFFFFFFFFFFFF DUP2 GT ISZERO PUSH2 0x9E0 JUMPI PUSH2 0x9DF PUSH2 0x5B8 JUMP JUMPDEST JUMPDEST PUSH2 0x9EA DUP3 SLOAD PUSH2 0x7DD JUMP JUMPDEST PUSH2 0x9F5 DUP3 DUP3 DUP6 PUSH2 0x928 JUMP JUMPDEST PUSH0 PUSH1 0x20 SWAP1 POP PUSH1 0x1F DUP4 GT PUSH1 0x1 DUP2 EQ PUSH2 0xA26 JUMPI PUSH0 DUP5 ISZERO PUSH2 0xA14 JUMPI DUP3 DUP8 ADD MLOAD SWAP1 POP JUMPDEST PUSH2 0xA1E DUP6 DUP3 PUSH2 0x9A3 JUMP JUMPDEST DUP7 SSTORE POP PUSH2 0xA85 JUMP JUMPDEST PUSH1 0x1F NOT DUP5 AND PUSH2 0xA34 DUP7 PUSH2 0x80D JUMP JUMPDEST PUSH0 JUMPDEST DUP3 DUP2 LT ISZERO PUSH2 0xA5B JUMPI DUP5 DUP10 ADD MLOAD DUP3 SSTORE PUSH1 0x1 DUP3 ADD SWAP2 POP PUSH1 0x20 DUP6 ADD SWAP5 POP PUSH1 0x20 DUP2 ADD SWAP1 POP PUSH2 0xA36 JUMP JUMPDEST DUP7 DUP4 LT ISZERO PUSH2 0xA78 JUMPI DUP5 DUP10 ADD MLOAD PUSH2 0xA74 PUSH1 0x1F DUP10 AND DUP3 PUSH2 0x987 JUMP JUMPDEST DUP4 SSTORE POP JUMPDEST PUSH1 0x1 PUSH1 0x2 DUP9 MUL ADD DUP9 SSTORE POP POP POP JUMPDEST POP POP POP POP POP POP JUMP INVALID LOG2 PUSH5 0x6970667358 0x22 SLT KECCAK256 PUSH26 0xA26453CAADF7C6BE338E2C698321B39506EB319E72EF3F67448D DUP9 DUP16 0xAC TLOAD SGT PUSH5 0x736F6C6343 STOP ADDMOD 0x22 STOP CALLER "
				},
				"gasEstimates": {
					"creation": {
						"codeDepositCost": "551000",
						"executionCost": "585",
						"totalCost": "551585"
					},
					"external": {
						"getUser(address)": "infinite",
						"storeUser(string,uint256,address,bool)": "infinite",
						"users(address)": "infinite"
					}
				},
				"methodIdentifiers": {
					"getUser(address)": "6f77926b",
					"storeUser(string,uint256,address,bool)": "acc8ac6c",
					"users(address)": "a87430ba"
				}
			},
			"storageLayout": {
				"storage": [
					{
						"astId": 94,
						"contract": "prac6.sol:StructStorage",
						"label": "users",
						"offset": 0,
						"slot": "0",
						"type": "t_mapping(t_address,t_struct(User)89_storage)"
					}
				],
				"types": {
					"t_address": {
						"encoding": "inplace",
						"label": "address",
						"numberOfBytes": "20"
					},
					"t_bool": {
						"encoding": "inplace",
						"label": "bool",
						"numberOfBytes": "1"
					},
					"t_mapping(t_address,t_struct(User)89_storage)": {
						"encoding": "mapping",
						"key": "t_address",
						"label": "mapping(address => struct StructStorage.User)",
						"numberOfBytes": "32",
						"value": "t_struct(User)89_storage"
					},
					"t_string_storage": {
						"encoding": "bytes",
						"label": "string",
						"numberOfBytes": "32"
					},
					"t_struct(User)89_storage": {
						"encoding": "inplace",
						"label": "struct StructStorage.User",
						"members": [
							{
								"astId": 82,
								"contract": "prac6.sol:StructStorage",
								"label": "name",
								"offset": 0,
								"slot": "0",
								"type": "t_string_storage"
							},
							{
								"astId": 84,
								"contract": "prac6.sol:StructStorage",
								"label": "age",
								"offset": 0,
								"slot": "1",
								"type": "t_uint256"
							},
							{
								"astId": 86,
								"contract": "prac6.sol:StructStorage",
								"label": "wallet",
								"offset": 0,
								"slot": "2",
								"type": "t_address"
							},
							{
								"astId": 88,
								"contract": "prac6.sol:StructStorage",
								"label": "isActive",
								"offset": 20,
								"slot": "2",
								"type": "t_bool"
							}
						],
						"numberOfBytes": "96"
					},
					"t_uint256": {
						"encoding": "inplace",
						"label": "uint256",
						"numberOfBytes": "32"
					}
				}
			},
			"userdoc": {
				"kind": "user",
				"methods": {},
				"version": 1
			}
		}
	}
}