{
	"prac73.sol": {
		"StressTestCallsVul": {
			"abi": [
				{
					"inputs": [],
					"name": "counter",
					"outputs": [
						{
							"internalType": "uint256",
							"name": "",
							"type": "uint256"
						}
					],
					"stateMutability": "view",
					"type": "function"
				},
				{
					"inputs": [
						{
							"internalType": "uint256",
							"name": "times",
							"type": "uint256"
						}
					],
					"name": "externalStyleStress",
					"outputs": [],
					"stateMutability": "nonpayable",
					"type": "function"
				},
				{
					"inputs": [],
					"name": "getHistoryLength",
					"outputs": [
						{
							"internalType": "uint256",
							"name": "",
							"type": "uint256"
						}
					],
					"stateMutability": "view",
					"type": "function"
				},
				{
					"inputs": [
						{
							"internalType": "uint256",
							"name": "",
							"type": "uint256"
						}
					],
					"name": "history",
					"outputs": [
						{
							"internalType": "uint256",
							"name": "",
							"type": "uint256"
						}
					],
					"stateMutability": "view",
					"type": "function"
				},
				{
					"inputs": [],
					"name": "reset",
					"outputs": [],
					"stateMutability": "nonpayable",
					"type": "function"
				},
				{
					"inputs": [
						{
							"internalType": "uint256",
							"name": "value",
							"type": "uint256"
						}
					],
					"name": "singleCall",
					"outputs": [],
					"stateMutability": "nonpayable",
					"type": "function"
				},
				{
					"inputs": [
						{
							"internalType": "uint256",
							"name": "times",
							"type": "uint256"
						}
					],
					"name": "stressTest",
					"outputs": [],
					"stateMutability": "nonpayable",
					"type": "function"
				},
				{
					"inputs": [],
					"name": "totalCalls",
					"outputs": [
						{
							"internalType": "uint256",
							"name": "",
							"type": "uint256"
						}
					],
					"stateMutability": "view",
					"type": "function"
				}
			],
			"devdoc": {
				"kind": "dev",
				"methods": {},
				"version": 1
			},
			"evm": {
				"assembly": "    /* \"prac73.sol\":1700:2905  contract StressTestCallsVul {... */\n  mstore(0x40, 0x80)\n  callvalue\n  dup1\n  iszero\n  tag_1\n  jumpi\n  revert(0x00, 0x00)\ntag_1:\n  pop\n  dataSize(sub_0)\n  dup1\n  dataOffset(sub_0)\n  0x00\n  codecopy\n  0x00\n  return\nstop\n\nsub_0: assembly {\n        /* \"prac73.sol\":1700:2905  contract StressTestCallsVul {... */\n      mstore(0x40, 0x80)\n      callvalue\n      dup1\n      iszero\n      tag_1\n      jumpi\n      revert(0x00, 0x00)\n    tag_1:\n      pop\n      jumpi(tag_2, lt(calldatasize, 0x04))\n      shr(0xe0, calldataload(0x00))\n      dup1\n      0xa7a38f0b\n      gt\n      tag_11\n      jumpi\n      dup1\n      0xa7a38f0b\n      eq\n      tag_7\n      jumpi\n      dup1\n      0xd826f88f\n      eq\n      tag_8\n      jumpi\n      dup1\n      0xde5021e0\n      eq\n      tag_9\n      jumpi\n      dup1\n      0xe93116b6\n      eq\n      tag_10\n      jumpi\n      jump(tag_2)\n    tag_11:\n      dup1\n      0x2326305f\n      eq\n      tag_3\n      jumpi\n      dup1\n      0x3af3f24f\n      eq\n      tag_4\n      jumpi\n      dup1\n      0x5478f468\n      eq\n      tag_5\n      jumpi\n      dup1\n      0x61bc221a\n      eq\n      tag_6\n      jumpi\n    tag_2:\n      revert(0x00, 0x00)\n        /* \"prac73.sol\":2261:2413  function stressTest(uint256 times)... */\n    tag_3:\n      tag_12\n      0x04\n      dup1\n      calldatasize\n      sub\n      dup2\n      add\n      swap1\n      tag_13\n      swap2\n      swap1\n      tag_14\n      jump\t// in\n    tag_13:\n      tag_15\n      jump\t// in\n    tag_12:\n      stop\n        /* \"prac73.sol\":1766:1791  uint256 public totalCalls */\n    tag_4:\n      tag_16\n      tag_17\n      jump\t// in\n    tag_16:\n      mload(0x40)\n      tag_18\n      swap2\n      swap1\n      tag_19\n      jump\t// in\n    tag_18:\n      mload(0x40)\n      dup1\n      swap2\n      sub\n      swap1\n      return\n        /* \"prac73.sol\":2770:2902  function getHistoryLength()... */\n    tag_5:\n      tag_20\n      tag_21\n      jump\t// in\n    tag_20:\n      mload(0x40)\n      tag_22\n      swap2\n      swap1\n      tag_19\n      jump\t// in\n    tag_22:\n      mload(0x40)\n      dup1\n      swap2\n      sub\n      swap1\n      return\n        /* \"prac73.sol\":1737:1759  uint256 public counter */\n    tag_6:\n      tag_23\n      tag_24\n      jump\t// in\n    tag_23:\n      mload(0x40)\n      tag_25\n      swap2\n      swap1\n      tag_19\n      jump\t// in\n    tag_25:\n      mload(0x40)\n      dup1\n      swap2\n      sub\n      swap1\n      return\n        /* \"prac73.sol\":1800:1824  uint256[] public history */\n    tag_7:\n      tag_26\n      0x04\n      dup1\n      calldatasize\n      sub\n      dup2\n      add\n      swap1\n      tag_27\n      swap2\n      swap1\n      tag_14\n      jump\t// in\n    tag_27:\n      tag_28\n      jump\t// in\n    tag_26:\n      mload(0x40)\n      tag_29\n      swap2\n      swap1\n      tag_19\n      jump\t// in\n    tag_29:\n      mload(0x40)\n      dup1\n      swap2\n      sub\n      swap1\n      return\n        /* \"prac73.sol\":2656:2762  function reset() external {... */\n    tag_8:\n      tag_30\n      tag_31\n      jump\t// in\n    tag_30:\n      stop\n        /* \"prac73.sol\":1833:1972  function singleCall(uint256 value)... */\n    tag_9:\n      tag_32\n      0x04\n      dup1\n      calldatasize\n      sub\n      dup2\n      add\n      swap1\n      tag_33\n      swap2\n      swap1\n      tag_14\n      jump\t// in\n    tag_33:\n      tag_34\n      jump\t// in\n    tag_32:\n      stop\n        /* \"prac73.sol\":2482:2648  function externalStyleStress(uint256 times)... */\n    tag_10:\n      tag_35\n      0x04\n      dup1\n      calldatasize\n      sub\n      dup2\n      add\n      swap1\n      tag_36\n      swap2\n      swap1\n      tag_14\n      jump\t// in\n    tag_36:\n      tag_37\n      jump\t// in\n    tag_35:\n      stop\n        /* \"prac73.sol\":2261:2413  function stressTest(uint256 times)... */\n    tag_15:\n        /* \"prac73.sol\":2335:2344  uint256 i */\n      0x00\n        /* \"prac73.sol\":2347:2348  0 */\n      0x00\n        /* \"prac73.sol\":2335:2348  uint256 i = 0 */\n      swap1\n      pop\n        /* \"prac73.sol\":2330:2406  for (uint256 i = 0; i < times; i++) {... */\n    tag_39:\n        /* \"prac73.sol\":2354:2359  times */\n      dup2\n        /* \"prac73.sol\":2350:2351  i */\n      dup2\n        /* \"prac73.sol\":2350:2359  i < times */\n      lt\n        /* \"prac73.sol\":2330:2406  for (uint256 i = 0; i < times; i++) {... */\n      iszero\n      tag_40\n      jumpi\n        /* \"prac73.sol\":2381:2394  singleCall(i) */\n      tag_42\n        /* \"prac73.sol\":2392:2393  i */\n      dup2\n        /* \"prac73.sol\":2381:2391  singleCall */\n      tag_34\n        /* \"prac73.sol\":2381:2394  singleCall(i) */\n      jump\t// in\n    tag_42:\n        /* \"prac73.sol\":2361:2364  i++ */\n      dup1\n      dup1\n      0x01\n      add\n      swap2\n      pop\n      pop\n        /* \"prac73.sol\":2330:2406  for (uint256 i = 0; i < times; i++) {... */\n      jump(tag_39)\n    tag_40:\n      pop\n        /* \"prac73.sol\":2261:2413  function stressTest(uint256 times)... */\n      pop\n      jump\t// out\n        /* \"prac73.sol\":1766:1791  uint256 public totalCalls */\n    tag_17:\n      sload(0x01)\n      dup2\n      jump\t// out\n        /* \"prac73.sol\":2770:2902  function getHistoryLength()... */\n    tag_21:\n        /* \"prac73.sol\":2848:2855  uint256 */\n      0x00\n        /* \"prac73.sol\":2880:2887  history */\n      0x02\n        /* \"prac73.sol\":2880:2894  history.length */\n      dup1\n      sload\n      swap1\n      pop\n        /* \"prac73.sol\":2873:2894  return history.length */\n      swap1\n      pop\n        /* \"prac73.sol\":2770:2902  function getHistoryLength()... */\n      swap1\n      jump\t// out\n        /* \"prac73.sol\":1737:1759  uint256 public counter */\n    tag_24:\n      sload(0x00)\n      dup2\n      jump\t// out\n        /* \"prac73.sol\":1800:1824  uint256[] public history */\n    tag_28:\n      0x02\n      dup2\n      dup2\n      sload\n      dup2\n      lt\n      tag_44\n      jumpi\n      0x00\n      dup1\n      revert\n    tag_44:\n      swap1\n      0x00\n      mstore\n      keccak256(0x00, 0x20)\n      add\n      0x00\n      swap2\n      pop\n      swap1\n      pop\n      sload\n      dup2\n      jump\t// out\n        /* \"prac73.sol\":2656:2762  function reset() external {... */\n    tag_31:\n        /* \"prac73.sol\":2703:2704  0 */\n      0x00\n        /* \"prac73.sol\":2693:2700  counter */\n      0x00\n        /* \"prac73.sol\":2693:2704  counter = 0 */\n      dup2\n      swap1\n      sstore\n      pop\n        /* \"prac73.sol\":2728:2729  0 */\n      0x00\n        /* \"prac73.sol\":2715:2725  totalCalls */\n      0x01\n        /* \"prac73.sol\":2715:2729  totalCalls = 0 */\n      dup2\n      swap1\n      sstore\n      pop\n        /* \"prac73.sol\":2747:2754  history */\n      0x02\n      0x00\n        /* \"prac73.sol\":2740:2754  delete history */\n      tag_47\n      swap2\n      swap1\n      tag_48\n      jump\t// in\n    tag_47:\n        /* \"prac73.sol\":2656:2762  function reset() external {... */\n      jump\t// out\n        /* \"prac73.sol\":1833:1972  function singleCall(uint256 value)... */\n    tag_34:\n        /* \"prac73.sol\":1900:1907  counter */\n      0x00\n      0x00\n        /* \"prac73.sol\":1900:1909  counter++ */\n      dup2\n      sload\n      dup1\n      swap3\n      swap2\n      swap1\n      tag_50\n      swap1\n      tag_51\n      jump\t// in\n    tag_50:\n      swap2\n      swap1\n      pop\n      sstore\n      pop\n        /* \"prac73.sol\":1920:1930  totalCalls */\n      0x01\n      0x00\n        /* \"prac73.sol\":1920:1932  totalCalls++ */\n      dup2\n      sload\n      dup1\n      swap3\n      swap2\n      swap1\n      tag_52\n      swap1\n      tag_51\n      jump\t// in\n    tag_52:\n      swap2\n      swap1\n      pop\n      sstore\n      pop\n        /* \"prac73.sol\":1945:1952  history */\n      0x02\n        /* \"prac73.sol\":1958:1963  value */\n      dup2\n        /* \"prac73.sol\":1945:1964  history.push(value) */\n      swap1\n      dup1\n      0x01\n      dup2\n      sload\n      add\n      dup1\n      dup3\n      sstore\n      dup1\n      swap2\n      pop\n      pop\n      0x01\n      swap1\n      sub\n      swap1\n      0x00\n      mstore\n      keccak256(0x00, 0x20)\n      add\n      0x00\n      swap1\n      swap2\n      swap1\n      swap2\n      swap1\n      swap2\n      pop\n      sstore\n        /* \"prac73.sol\":1833:1972  function singleCall(uint256 value)... */\n      pop\n      jump\t// out\n        /* \"prac73.sol\":2482:2648  function externalStyleStress(uint256 times)... */\n    tag_37:\n        /* \"prac73.sol\":2565:2574  uint256 i */\n      0x00\n        /* \"prac73.sol\":2577:2578  0 */\n      0x00\n        /* \"prac73.sol\":2565:2578  uint256 i = 0 */\n      swap1\n      pop\n        /* \"prac73.sol\":2560:2641  for (uint256 i = 0; i < times; i++) {... */\n    tag_55:\n        /* \"prac73.sol\":2584:2589  times */\n      dup2\n        /* \"prac73.sol\":2580:2581  i */\n      dup2\n        /* \"prac73.sol\":2580:2589  i < times */\n      lt\n        /* \"prac73.sol\":2560:2641  for (uint256 i = 0; i < times; i++) {... */\n      iszero\n      tag_56\n      jumpi\n        /* \"prac73.sol\":2611:2615  this */\n      address\n        /* \"prac73.sol\":2611:2626  this.singleCall */\n      0xffffffffffffffffffffffffffffffffffffffff\n      and\n      0xde5021e0\n        /* \"prac73.sol\":2627:2628  i */\n      dup3\n        /* \"prac73.sol\":2611:2629  this.singleCall(i) */\n      mload(0x40)\n      dup3\n      0xffffffff\n      and\n      0xe0\n      shl\n      dup2\n      mstore\n      0x04\n      add\n      tag_58\n      swap2\n      swap1\n      tag_19\n      jump\t// in\n    tag_58:\n      0x00\n      mload(0x40)\n      dup1\n      dup4\n      sub\n      dup2\n      0x00\n      dup8\n      dup1\n      extcodesize\n      iszero\n      dup1\n      iszero\n      tag_59\n      jumpi\n      revert(0x00, 0x00)\n    tag_59:\n      pop\n      gas\n      call\n      iszero\n      dup1\n      iszero\n      tag_61\n      jumpi\n      returndatacopy(0x00, 0x00, returndatasize)\n      revert(0x00, returndatasize)\n    tag_61:\n      pop\n      pop\n      pop\n      pop\n        /* \"prac73.sol\":2591:2594  i++ */\n      dup1\n      dup1\n      0x01\n      add\n      swap2\n      pop\n      pop\n        /* \"prac73.sol\":2560:2641  for (uint256 i = 0; i < times; i++) {... */\n      jump(tag_55)\n    tag_56:\n      pop\n        /* \"prac73.sol\":2482:2648  function externalStyleStress(uint256 times)... */\n      pop\n      jump\t// out\n    tag_48:\n      pop\n      dup1\n      sload\n      0x00\n      dup3\n      sstore\n      swap1\n      0x00\n      mstore\n      keccak256(0x00, 0x20)\n      swap1\n      tag_63\n      swap2\n      swap1\n      tag_64\n      jump\t// in\n    tag_63:\n      jump\t// out\n    tag_64:\n      0x00\n    tag_65:\n      dup1\n      dup3\n      gt\n      iszero\n      tag_66\n      jumpi\n      dup3\n      dup2\n      add\n      0x00\n      swap1\n      sstore\n      0x01\n      add\n      jump(tag_65)\n    tag_66:\n      pop\n      pop\n      pop\n      jump\t// out\n        /* \"#utility.yul\":88:205   */\n    tag_68:\n        /* \"#utility.yul\":197:198   */\n      0x00\n        /* \"#utility.yul\":194:195   */\n      0x00\n        /* \"#utility.yul\":187:199   */\n      revert\n        /* \"#utility.yul\":334:411   */\n    tag_70:\n        /* \"#utility.yul\":371:378   */\n      0x00\n        /* \"#utility.yul\":400:405   */\n      dup2\n        /* \"#utility.yul\":389:405   */\n      swap1\n      pop\n        /* \"#utility.yul\":334:411   */\n      swap2\n      swap1\n      pop\n      jump\t// out\n        /* \"#utility.yul\":417:539   */\n    tag_71:\n        /* \"#utility.yul\":490:514   */\n      tag_81\n        /* \"#utility.yul\":508:513   */\n      dup2\n        /* \"#utility.yul\":490:514   */\n      tag_70\n      jump\t// in\n    tag_81:\n        /* \"#utility.yul\":483:488   */\n      dup2\n        /* \"#utility.yul\":480:515   */\n      eq\n        /* \"#utility.yul\":470:533   */\n      tag_82\n      jumpi\n        /* \"#utility.yul\":529:530   */\n      0x00\n        /* \"#utility.yul\":526:527   */\n      0x00\n        /* \"#utility.yul\":519:531   */\n      revert\n        /* \"#utility.yul\":470:533   */\n    tag_82:\n        /* \"#utility.yul\":417:539   */\n      pop\n      jump\t// out\n        /* \"#utility.yul\":545:684   */\n    tag_72:\n        /* \"#utility.yul\":591:596   */\n      0x00\n        /* \"#utility.yul\":629:635   */\n      dup2\n        /* \"#utility.yul\":616:636   */\n      calldataload\n        /* \"#utility.yul\":607:636   */\n      swap1\n      pop\n        /* \"#utility.yul\":645:678   */\n      tag_84\n        /* \"#utility.yul\":672:677   */\n      dup2\n        /* \"#utility.yul\":645:678   */\n      tag_71\n      jump\t// in\n    tag_84:\n        /* \"#utility.yul\":545:684   */\n      swap3\n      swap2\n      pop\n      pop\n      jump\t// out\n        /* \"#utility.yul\":690:1019   */\n    tag_14:\n        /* \"#utility.yul\":749:755   */\n      0x00\n        /* \"#utility.yul\":798:800   */\n      0x20\n        /* \"#utility.yul\":786:795   */\n      dup3\n        /* \"#utility.yul\":777:784   */\n      dup5\n        /* \"#utility.yul\":773:796   */\n      sub\n        /* \"#utility.yul\":769:801   */\n      slt\n        /* \"#utility.yul\":766:885   */\n      iszero\n      tag_86\n      jumpi\n        /* \"#utility.yul\":804:883   */\n      tag_87\n      tag_68\n      jump\t// in\n    tag_87:\n        /* \"#utility.yul\":766:885   */\n    tag_86:\n        /* \"#utility.yul\":924:925   */\n      0x00\n        /* \"#utility.yul\":949:1002   */\n      tag_88\n        /* \"#utility.yul\":994:1001   */\n      dup5\n        /* \"#utility.yul\":985:991   */\n      dup3\n        /* \"#utility.yul\":974:983   */\n      dup6\n        /* \"#utility.yul\":970:992   */\n      add\n        /* \"#utility.yul\":949:1002   */\n      tag_72\n      jump\t// in\n    tag_88:\n        /* \"#utility.yul\":939:1002   */\n      swap2\n      pop\n        /* \"#utility.yul\":895:1012   */\n      pop\n        /* \"#utility.yul\":690:1019   */\n      swap3\n      swap2\n      pop\n      pop\n      jump\t// out\n        /* \"#utility.yul\":1025:1143   */\n    tag_73:\n        /* \"#utility.yul\":1112:1136   */\n      tag_90\n        /* \"#utility.yul\":1130:1135   */\n      dup2\n        /* \"#utility.yul\":1112:1136   */\n      tag_70\n      jump\t// in\n    tag_90:\n        /* \"#utility.yul\":1107:1110   */\n      dup3\n        /* \"#utility.yul\":1100:1137   */\n      mstore\n        /* \"#utility.yul\":1025:1143   */\n      pop\n      pop\n      jump\t// out\n        /* \"#utility.yul\":1149:1371   */\n    tag_19:\n        /* \"#utility.yul\":1242:1246   */\n      0x00\n        /* \"#utility.yul\":1280:1282   */\n      0x20\n        /* \"#utility.yul\":1269:1278   */\n      dup3\n        /* \"#utility.yul\":1265:1283   */\n      add\n        /* \"#utility.yul\":1257:1283   */\n      swap1\n      pop\n        /* \"#utility.yul\":1293:1364   */\n      tag_92\n        /* \"#utility.yul\":1361:1362   */\n      0x00\n        /* \"#utility.yul\":1350:1359   */\n      dup4\n        /* \"#utility.yul\":1346:1363   */\n      add\n        /* \"#utility.yul\":1337:1343   */\n      dup5\n        /* \"#utility.yul\":1293:1364   */\n      tag_73\n      jump\t// in\n    tag_92:\n        /* \"#utility.yul\":1149:1371   */\n      swap3\n      swap2\n      pop\n      pop\n      jump\t// out\n        /* \"#utility.yul\":1377:1557   */\n    tag_74:\n        /* \"#utility.yul\":1425:1502   */\n      0x4e487b7100000000000000000000000000000000000000000000000000000000\n        /* \"#utility.yul\":1422:1423   */\n      0x00\n        /* \"#utility.yul\":1415:1503   */\n      mstore\n        /* \"#utility.yul\":1522:1526   */\n      0x11\n        /* \"#utility.yul\":1519:1520   */\n      0x04\n        /* \"#utility.yul\":1512:1527   */\n      mstore\n        /* \"#utility.yul\":1546:1550   */\n      0x24\n        /* \"#utility.yul\":1543:1544   */\n      0x00\n        /* \"#utility.yul\":1536:1551   */\n      revert\n        /* \"#utility.yul\":1563:1796   */\n    tag_51:\n        /* \"#utility.yul\":1602:1605   */\n      0x00\n        /* \"#utility.yul\":1625:1649   */\n      tag_95\n        /* \"#utility.yul\":1643:1648   */\n      dup3\n        /* \"#utility.yul\":1625:1649   */\n      tag_70\n      jump\t// in\n    tag_95:\n        /* \"#utility.yul\":1616:1649   */\n      swap2\n      pop\n        /* \"#utility.yul\":1671:1737   */\n      0xffffffffffffffffffffffffffffffffffffffffffffffffffffffffffffffff\n        /* \"#utility.yul\":1664:1669   */\n      dup3\n        /* \"#utility.yul\":1661:1738   */\n      sub\n        /* \"#utility.yul\":1658:1761   */\n      tag_96\n      jumpi\n        /* \"#utility.yul\":1741:1759   */\n      tag_97\n      tag_74\n      jump\t// in\n    tag_97:\n        /* \"#utility.yul\":1658:1761   */\n    tag_96:\n        /* \"#utility.yul\":1788:1789   */\n      0x01\n        /* \"#utility.yul\":1781:1786   */\n      dup3\n        /* \"#utility.yul\":1777:1790   */\n      add\n        /* \"#utility.yul\":1770:1790   */\n      swap1\n      pop\n        /* \"#utility.yul\":1563:1796   */\n      swap2\n      swap1\n      pop\n      jump\t// out\n\n    auxdata: 0xa2646970667358221220c32e4d4e16aa4804f18be156926291db48ad6f54896362916933862fcb6f957564736f6c63430008220033\n}\n",
				"bytecode": {
					"linkReferences": {},
					"object": "6080604052348015600e575f5ffd5b506104318061001c5f395ff3fe608060405234801561000f575f5ffd5b5060043610610086575f3560e01c8063a7a38f0b11610059578063a7a38f0b14610100578063d826f88f14610130578063de5021e01461013a578063e93116b61461015657610086565b80632326305f1461008a5780633af3f24f146100a65780635478f468146100c457806361bc221a146100e2575b5f5ffd5b6100a4600480360381019061009f9190610334565b610172565b005b6100ae610199565b6040516100bb919061036e565b60405180910390f35b6100cc61019f565b6040516100d9919061036e565b60405180910390f35b6100ea6101ab565b6040516100f7919061036e565b60405180910390f35b61011a60048036038101906101159190610334565b6101b0565b604051610127919061036e565b60405180910390f35b6101386101d0565b005b610154600480360381019061014f9190610334565b6101ec565b005b610170600480360381019061016b9190610334565b610242565b005b5f5f90505b8181101561019557610188816101ec565b8080600101915050610177565b5050565b60015481565b5f600280549050905090565b5f5481565b600281815481106101bf575f80fd5b905f5260205f20015f915090505481565b5f5f819055505f60018190555060025f6101ea91906102c6565b565b5f5f8154809291906101fd906103b4565b919050555060015f815480929190610214906103b4565b9190505550600281908060018154018082558091505060019003905f5260205f20015f909190919091505550565b5f5f90505b818110156102c2573073ffffffffffffffffffffffffffffffffffffffff1663de5021e0826040518263ffffffff1660e01b8152600401610288919061036e565b5f604051808303815f87803b15801561029f575f5ffd5b505af11580156102b1573d5f5f3e3d5ffd5b505050508080600101915050610247565b5050565b5080545f8255905f5260205f20906102de91906102e0565b565b5f5b808211156102f8578281015f90556001016102e2565b505050565b5f5ffd5b5f819050919050565b61031381610301565b811461031d575f5ffd5b50565b5f8135905061032e8161030a565b92915050565b5f60208284031215610349576103486102fd565b5b5f61035684828501610320565b91505092915050565b61036881610301565b82525050565b5f6020820190506103815f83018461035f565b92915050565b7f4e487b71000000000000000000000000000000000000000000000000000000005f52601160045260245ffd5b5f6103be82610301565b91507fffffffffffffffffffffffffffffffffffffffffffffffffffffffffffffffff82036103f0576103ef610387565b5b60018201905091905056fea2646970667358221220c32e4d4e16aa4804f18be156926291db48ad6f54896362916933862fcb6f957564736f6c63430008220033",
					"opcodes": "PUSH1 0x80 PUSH1 0x40 MSTORE CALLVALUE DUP1 ISZERO PUSH1 0xE JUMPI PUSH0 PUSH0 REVERT JUMPDEST POP PUSH2 0x431 DUP1 PUSH2 0x1C PUSH0 CODECOPY PUSH0 RETURN INVALID PUSH1 0x80 PUSH1 0x40 MSTORE CALLVALUE DUP1 ISZERO PUSH2 0xF JUMPI PUSH0 PUSH0 REVERT JUMPDEST POP PUSH1 0x4 CALLDATASIZE LT PUSH2 0x86 JUMPI PUSH0 CALLDATALOAD PUSH1 0xE0 SHR DUP1 PUSH4 0xA7A38F0B GT PUSH2 0x59 JUMPI DUP1 PUSH4 0xA7A38F0B EQ PUSH2 0x100 JUMPI DUP1 PUSH4 0xD826F88F EQ PUSH2 0x130 JUMPI DUP1 PUSH4 0xDE5021E0 EQ PUSH2 0x13A JUMPI DUP1 PUSH4 0xE93116B6 EQ PUSH2 0x156 JUMPI PUSH2 0x86 JUMP JUMPDEST DUP1 PUSH4 0x2326305F EQ PUSH2 0x8A JUMPI DUP1 PUSH4 0x3AF3F24F EQ PUSH2 0xA6 JUMPI DUP1 PUSH4 0x5478F468 EQ PUSH2 0xC4 JUMPI DUP1 PUSH4 0x61BC221A EQ PUSH2 0xE2 JUMPI JUMPDEST PUSH0 PUSH0 REVERT JUMPDEST PUSH2 0xA4 PUSH1 0x4 DUP1 CALLDATASIZE SUB DUP2 ADD SWAP1 PUSH2 0x9F SWAP2 SWAP1 PUSH2 0x334 JUMP JUMPDEST PUSH2 0x172 JUMP JUMPDEST STOP JUMPDEST PUSH2 0xAE PUSH2 0x199 JUMP JUMPDEST PUSH1 0x40 MLOAD PUSH2 0xBB SWAP2 SWAP1 PUSH2 0x36E JUMP JUMPDEST PUSH1 0x40 MLOAD DUP1 SWAP2 SUB SWAP1 RETURN JUMPDEST PUSH2 0xCC PUSH2 0x19F JUMP JUMPDEST PUSH1 0x40 MLOAD PUSH2 0xD9 SWAP2 SWAP1 PUSH2 0x36E JUMP JUMPDEST PUSH1 0x40 MLOAD DUP1 SWAP2 SUB SWAP1 RETURN JUMPDEST PUSH2 0xEA PUSH2 0x1AB JUMP JUMPDEST PUSH1 0x40 MLOAD PUSH2 0xF7 SWAP2 SWAP1 PUSH2 0x36E JUMP JUMPDEST PUSH1 0x40 MLOAD DUP1 SWAP2 SUB SWAP1 RETURN JUMPDEST PUSH2 0x11A PUSH1 0x4 DUP1 CALLDATASIZE SUB DUP2 ADD SWAP1 PUSH2 0x115 SWAP2 SWAP1 PUSH2 0x334 JUMP JUMPDEST PUSH2 0x1B0 JUMP JUMPDEST PUSH1 0x40 MLOAD PUSH2 0x127 SWAP2 SWAP1 PUSH2 0x36E JUMP JUMPDEST PUSH1 0x40 MLOAD DUP1 SWAP2 SUB SWAP1 RETURN JUMPDEST PUSH2 0x138 PUSH2 0x1D0 JUMP JUMPDEST STOP JUMPDEST PUSH2 0x154 PUSH1 0x4 DUP1 CALLDATASIZE SUB DUP2 ADD SWAP1 PUSH2 0x14F SWAP2 SWAP1 PUSH2 0x334 JUMP JUMPDEST PUSH2 0x1EC JUMP JUMPDEST STOP JUMPDEST PUSH2 0x170 PUSH1 0x4 DUP1 CALLDATASIZE SUB DUP2 ADD SWAP1 PUSH2 0x16B SWAP2 SWAP1 PUSH2 0x334 JUMP JUMPDEST PUSH2 0x242 JUMP JUMPDEST STOP JUMPDEST PUSH0 PUSH0 SWAP1 POP JUMPDEST DUP2 DUP2 LT ISZERO PUSH2 0x195 JUMPI PUSH2 0x188 DUP2 PUSH2 0x1EC JUMP JUMPDEST DUP1 DUP1 PUSH1 0x1 ADD SWAP2 POP POP PUSH2 0x177 JUMP JUMPDEST POP POP JUMP JUMPDEST PUSH1 0x1 SLOAD DUP2 JUMP JUMPDEST PUSH0 PUSH1 0x2 DUP1 SLOAD SWAP1 POP SWAP1 POP SWAP1 JUMP JUMPDEST PUSH0 SLOAD DUP2 JUMP JUMPDEST PUSH1 0x2 DUP2 DUP2 SLOAD DUP2 LT PUSH2 0x1BF JUMPI PUSH0 DUP1 REVERT JUMPDEST SWAP1 PUSH0 MSTORE PUSH1 0x20 PUSH0 KECCAK256 ADD PUSH0 SWAP2 POP SWAP1 POP SLOAD DUP2 JUMP JUMPDEST PUSH0 PUSH0 DUP2 SWAP1 SSTORE POP PUSH0 PUSH1 0x1 DUP2 SWAP1 SSTORE POP PUSH1 0x2 PUSH0 PUSH2 0x1EA SWAP2 SWAP1 PUSH2 0x2C6 JUMP JUMPDEST JUMP JUMPDEST PUSH0 PUSH0 DUP2 SLOAD DUP1 SWAP3 SWAP2 SWAP1 PUSH2 0x1FD SWAP1 PUSH2 0x3B4 JUMP JUMPDEST SWAP2 SWAP1 POP SSTORE POP PUSH1 0x1 PUSH0 DUP2 SLOAD DUP1 SWAP3 SWAP2 SWAP1 PUSH2 0x214 SWAP1 PUSH2 0x3B4 JUMP JUMPDEST SWAP2 SWAP1 POP SSTORE POP PUSH1 0x2 DUP2 SWAP1 DUP1 PUSH1 0x1 DUP2 SLOAD ADD DUP1 DUP3 SSTORE DUP1 SWAP2 POP POP PUSH1 0x1 SWAP1 SUB SWAP1 PUSH0 MSTORE PUSH1 0x20 PUSH0 KECCAK256 ADD PUSH0 SWAP1 SWAP2 SWAP1 SWAP2 SWAP1 SWAP2 POP SSTORE POP JUMP JUMPDEST PUSH0 PUSH0 SWAP1 POP JUMPDEST DUP2 DUP2 LT ISZERO PUSH2 0x2C2 JUMPI ADDRESS PUSH20 0xFFFFFFFFFFFFFFFFFFFFFFFFFFFFFFFFFFFFFFFF AND PUSH4 0xDE5021E0 DUP3 PUSH1 0x40 MLOAD DUP3 PUSH4 0xFFFFFFFF AND PUSH1 0xE0 SHL DUP2 MSTORE PUSH1 0x4 ADD PUSH2 0x288 SWAP2 SWAP1 PUSH2 0x36E JUMP JUMPDEST PUSH0 PUSH1 0x40 MLOAD DUP1 DUP4 SUB DUP2 PUSH0 DUP8 DUP1 EXTCODESIZE ISZERO DUP1 ISZERO PUSH2 0x29F JUMPI PUSH0 PUSH0 REVERT JUMPDEST POP GAS CALL ISZERO DUP1 ISZERO PUSH2 0x2B1 JUMPI RETURNDATASIZE PUSH0 PUSH0 RETURNDATACOPY RETURNDATASIZE PUSH0 REVERT JUMPDEST POP POP POP POP DUP1 DUP1 PUSH1 0x1 ADD SWAP2 POP POP PUSH2 0x247 JUMP JUMPDEST POP POP JUMP JUMPDEST POP DUP1 SLOAD PUSH0 DUP3 SSTORE SWAP1 PUSH0 MSTORE PUSH1 0x20 PUSH0 KECCAK256 SWAP1 PUSH2 0x2DE SWAP2 SWAP1 PUSH2 0x2E0 JUMP JUMPDEST JUMP JUMPDEST PUSH0 JUMPDEST DUP1 DUP3 GT ISZERO PUSH2 0x2F8 JUMPI DUP3 DUP2 ADD PUSH0 SWAP1 SSTORE PUSH1 0x1 ADD PUSH2 0x2E2 JUMP JUMPDEST POP POP POP JUMP JUMPDEST PUSH0 PUSH0 REVERT JUMPDEST PUSH0 DUP2 SWAP1 POP SWAP2 SWAP1 POP JUMP JUMPDEST PUSH2 0x313 DUP2 PUSH2 0x301 JUMP JUMPDEST DUP2 EQ PUSH2 0x31D JUMPI PUSH0 PUSH0 REVERT JUMPDEST POP JUMP JUMPDEST PUSH0 DUP2 CALLDATALOAD SWAP1 POP PUSH2 0x32E DUP2 PUSH2 0x30A JUMP JUMPDEST SWAP3 SWAP2 POP POP JUMP JUMPDEST PUSH0 PUSH1 0x20 DUP3 DUP5 SUB SLT ISZERO PUSH2 0x349 JUMPI PUSH2 0x348 PUSH2 0x2FD JUMP JUMPDEST JUMPDEST PUSH0 PUSH2 0x356 DUP5 DUP3 DUP6 ADD PUSH2 0x320 JUMP JUMPDEST SWAP2 POP POP SWAP3 SWAP2 POP POP JUMP JUMPDEST PUSH2 0x368 DUP2 PUSH2 0x301 JUMP JUMPDEST DUP3 MSTORE POP POP JUMP JUMPDEST PUSH0 PUSH1 0x20 DUP3 ADD SWAP1 POP PUSH2 0x381 PUSH0 DUP4 ADD DUP5 PUSH2 0x35F JUMP JUMPDEST SWAP3 SWAP2 POP POP JUMP JUMPDEST PUSH32 0x4E487B7100000000000000000000000000000000000000000000000000000000 PUSH0 MSTORE PUSH1 0x11 PUSH1 0x4 MSTORE PUSH1 0x24 PUSH0 REVERT JUMPDEST PUSH0 PUSH2 0x3BE DUP3 PUSH2 0x301 JUMP JUMPDEST SWAP2 POP PUSH32 0xFFFFFFFFFFFFFFFFFFFFFFFFFFFFFFFFFFFFFFFFFFFFFFFFFFFFFFFFFFFFFFFF DUP3 SUB PUSH2 0x3F0 JUMPI PUSH2 0x3EF PUSH2 0x387 JUMP JUMPDEST JUMPDEST PUSH1 0x1 DUP3 ADD SWAP1 POP SWAP2 SWAP1 POP JUMP INVALID LOG2 PUSH5 0x6970667358 0x22 SLT KECCAK256 0xC3 0x2E 0x4D 0x4E AND 0xAA BASEFEE DIV CALL DUP12 RJUMPI 0x5692 PUSH3 0x91DB48 0xAD PUSH16 0x54896362916933862FCB6F957564736F PUSH13 0x63430008220033000000000000 "
				},
				"gasEstimates": {
					"creation": {
						"codeDepositCost": "214600",
						"executionCost": "255",
						"totalCost": "214855"
					},
					"external": {
						"counter()": "2491",
						"externalStyleStress(uint256)": "infinite",
						"getHistoryLength()": "2485",
						"history(uint256)": "infinite",
						"reset()": "infinite",
						"singleCall(uint256)": "infinite",
						"stressTest(uint256)": "infinite",
						"totalCalls()": "2448"
					}
				},
				"methodIdentifiers": {
					"counter()": "61bc221a",
					"externalStyleStress(uint256)": "e93116b6",
					"getHistoryLength()": "5478f468",
					"history(uint256)": "a7a38f0b",
					"reset()": "d826f88f",
					"singleCall(uint256)": "de5021e0",
					"stressTest(uint256)": "2326305f",
					"totalCalls()": "3af3f24f"
				}
			},
			"storageLayout": {
				"storage": [
					{
						"astId": 3,
						"contract": "prac73.sol:StressTestCallsVul",
						"label": "counter",
						"offset": 0,
						"slot": "0",
						"type": "t_uint256"
					},
					{
						"astId": 5,
						"contract": "prac73.sol:StressTestCallsVul",
						"label": "totalCalls",
						"offset": 0,
						"slot": "1",
						"type": "t_uint256"
					},
					{
						"astId": 8,
						"contract": "prac73.sol:StressTestCallsVul",
						"label": "history",
						"offset": 0,
						"slot": "2",
						"type": "t_array(t_uint256)dyn_storage"
					}
				],
				"types": {
					"t_array(t_uint256)dyn_storage": {
						"base": "t_uint256",
						"encoding": "dynamic_array",
						"label": "uint256[]",
						"numberOfBytes": "32"
					},
					"t_uint256": {
						"encoding": "inplace",
						"label": "uint256",
						"numberOfBytes": "32"
					}
				}
			},
			"userdoc": {
				"kind": "user",
				"methods": {},
				"version": 1
			}
		}
	}
}