{
	"prac64.sol": {
		"ETHSenderPatched": {
			"abi": [
				{
					"inputs": [],
					"name": "contractBalance",
					"outputs": [
						{
							"internalType": "uint256",
							"name": "",
							"type": "uint256"
						}
					],
					"stateMutability": "view",
					"type": "function"
				},
				{
					"inputs": [],
					"name": "lastSuccess",
					"outputs": [
						{
							"internalType": "bool",
							"name": "",
							"type": "bool"
						}
					],
					"stateMutability": "view",
					"type": "function"
				},
				{
					"inputs": [
						{
							"internalType": "address payable",
							"name": "_receiver",
							"type": "address"
						}
					],
					"name": "safeSend",
					"outputs": [],
					"stateMutability": "payable",
					"type": "function"
				},
				{
					"inputs": [],
					"name": "totalSent",
					"outputs": [
						{
							"internalType": "uint256",
							"name": "",
							"type": "uint256"
						}
					],
					"stateMutability": "view",
					"type": "function"
				}
			],
			"devdoc": {
				"kind": "dev",
				"methods": {},
				"version": 1
			},
			"evm": {
				"assembly": "    /* \"prac64.sol\":15444:16206  contract ETHSenderPatched {... */\n  mstore(0x40, 0x80)\n  callvalue\n  dup1\n  iszero\n  tag_1\n  jumpi\n  revert(0x00, 0x00)\ntag_1:\n  pop\n  dataSize(sub_0)\n  dup1\n  dataOffset(sub_0)\n  0x00\n  codecopy\n  0x00\n  return\nstop\n\nsub_0: assembly {\n        /* \"prac64.sol\":15444:16206  contract ETHSenderPatched {... */\n      mstore(0x40, 0x80)\n      jumpi(tag_1, lt(calldatasize, 0x04))\n      shr(0xe0, calldataload(0x00))\n      dup1\n      0x4401a6e4\n      eq\n      tag_2\n      jumpi\n      dup1\n      0x46f99063\n      eq\n      tag_3\n      jumpi\n      dup1\n      0x8b7afe2e\n      eq\n      tag_4\n      jumpi\n      dup1\n      0x9415bc59\n      eq\n      tag_5\n      jumpi\n    tag_1:\n      revert(0x00, 0x00)\n        /* \"prac64.sol\":15699:16057  function safeSend(... */\n    tag_2:\n      tag_6\n      0x04\n      dup1\n      calldatasize\n      sub\n      dup2\n      add\n      swap1\n      tag_7\n      swap2\n      swap1\n      tag_8\n      jump\t// in\n    tag_7:\n      tag_9\n      jump\t// in\n    tag_6:\n      stop\n        /* \"prac64.sol\":15509:15533  uint256 public totalSent */\n    tag_3:\n      callvalue\n      dup1\n      iszero\n      tag_10\n      jumpi\n      revert(0x00, 0x00)\n    tag_10:\n      pop\n      tag_11\n      tag_12\n      jump\t// in\n    tag_11:\n      mload(0x40)\n      tag_13\n      swap2\n      swap1\n      tag_14\n      jump\t// in\n    tag_13:\n      mload(0x40)\n      dup1\n      swap2\n      sub\n      swap1\n      return\n        /* \"prac64.sol\":16065:16203  function contractBalance()... */\n    tag_4:\n      callvalue\n      dup1\n      iszero\n      tag_15\n      jumpi\n      revert(0x00, 0x00)\n    tag_15:\n      pop\n      tag_16\n      tag_17\n      jump\t// in\n    tag_16:\n      mload(0x40)\n      tag_18\n      swap2\n      swap1\n      tag_14\n      jump\t// in\n    tag_18:\n      mload(0x40)\n      dup1\n      swap2\n      sub\n      swap1\n      return\n        /* \"prac64.sol\":15479:15502  bool public lastSuccess */\n    tag_5:\n      callvalue\n      dup1\n      iszero\n      tag_19\n      jumpi\n      revert(0x00, 0x00)\n    tag_19:\n      pop\n      tag_20\n      tag_21\n      jump\t// in\n    tag_20:\n      mload(0x40)\n      tag_22\n      swap2\n      swap1\n      tag_23\n      jump\t// in\n    tag_22:\n      mload(0x40)\n      dup1\n      swap2\n      sub\n      swap1\n      return\n        /* \"prac64.sol\":15699:16057  function safeSend(... */\n    tag_9:\n        /* \"prac64.sol\":15812:15824  bool success */\n      0x00\n        /* \"prac64.sol\":15830:15839  _receiver */\n      dup2\n        /* \"prac64.sol\":15830:15844  _receiver.call */\n      0xffffffffffffffffffffffffffffffffffffffff\n      and\n        /* \"prac64.sol\":15852:15861  msg.value */\n      callvalue\n        /* \"prac64.sol\":15830:15866  _receiver.call{value: msg.value}(\"\") */\n      mload(0x40)\n      tag_25\n      swap1\n      tag_26\n      jump\t// in\n    tag_25:\n      0x00\n      mload(0x40)\n      dup1\n      dup4\n      sub\n      dup2\n      dup6\n      dup8\n      gas\n      call\n      swap3\n      pop\n      pop\n      pop\n      returndatasize\n      dup1\n      0x00\n      dup2\n      eq\n      tag_29\n      jumpi\n      mload(0x40)\n      swap2\n      pop\n      and(add(returndatasize, 0x3f), not(0x1f))\n      dup3\n      add\n      0x40\n      mstore\n      returndatasize\n      dup3\n      mstore\n      returndatasize\n      0x00\n      0x20\n      dup5\n      add\n      returndatacopy\n      jump(tag_28)\n    tag_29:\n      0x60\n      swap2\n      pop\n    tag_28:\n      pop\n        /* \"prac64.sol\":15811:15866  (bool success, ) = _receiver.call{value: msg.value}(\"\") */\n      pop\n      swap1\n      pop\n        /* \"prac64.sol\":15893:15900  success */\n      dup1\n        /* \"prac64.sol\":15879:15890  lastSuccess */\n      0x00\n      0x00\n        /* \"prac64.sol\":15879:15900  lastSuccess = success */\n      0x0100\n      exp\n      dup2\n      sload\n      dup2\n      0xff\n      mul\n      not\n      and\n      swap1\n      dup4\n      iszero\n      iszero\n      mul\n      or\n      swap1\n      sstore\n      pop\n        /* \"prac64.sol\":15921:15928  success */\n      dup1\n        /* \"prac64.sol\":15913:15952  require(success, \"ETH transfer failed\") */\n      tag_30\n      jumpi\n      mload(0x40)\n      0x08c379a000000000000000000000000000000000000000000000000000000000\n      dup2\n      mstore\n      0x04\n      add\n      tag_31\n      swap1\n      tag_32\n      jump\t// in\n    tag_31:\n      mload(0x40)\n      dup1\n      swap2\n      sub\n      swap1\n      revert\n    tag_30:\n        /* \"prac64.sol\":16040:16049  msg.value */\n      callvalue\n        /* \"prac64.sol\":16027:16036  totalSent */\n      0x01\n      0x00\n        /* \"prac64.sol\":16027:16049  totalSent += msg.value */\n      dup3\n      dup3\n      sload\n      tag_33\n      swap2\n      swap1\n      tag_34\n      jump\t// in\n    tag_33:\n      swap3\n      pop\n      pop\n      dup2\n      swap1\n      sstore\n      pop\n        /* \"prac64.sol\":15800:16057  {... */\n      pop\n        /* \"prac64.sol\":15699:16057  function safeSend(... */\n      pop\n      jump\t// out\n        /* \"prac64.sol\":15509:15533  uint256 public totalSent */\n    tag_12:\n      sload(0x01)\n      dup2\n      jump\t// out\n        /* \"prac64.sol\":16065:16203  function contractBalance()... */\n    tag_17:\n        /* \"prac64.sol\":16142:16149  uint256 */\n      0x00\n        /* \"prac64.sol\":16174:16195  address(this).balance */\n      selfbalance\n        /* \"prac64.sol\":16167:16195  return address(this).balance */\n      swap1\n      pop\n        /* \"prac64.sol\":16065:16203  function contractBalance()... */\n      swap1\n      jump\t// out\n        /* \"prac64.sol\":15479:15502  bool public lastSuccess */\n    tag_21:\n      0x00\n      0x00\n      swap1\n      sload\n      swap1\n      0x0100\n      exp\n      swap1\n      div\n      0xff\n      and\n      dup2\n      jump\t// out\n        /* \"#utility.yul\":88:205   */\n    tag_37:\n        /* \"#utility.yul\":197:198   */\n      0x00\n        /* \"#utility.yul\":194:195   */\n      0x00\n        /* \"#utility.yul\":187:199   */\n      revert\n        /* \"#utility.yul\":334:460   */\n    tag_39:\n        /* \"#utility.yul\":371:378   */\n      0x00\n        /* \"#utility.yul\":411:453   */\n      0xffffffffffffffffffffffffffffffffffffffff\n        /* \"#utility.yul\":404:409   */\n      dup3\n        /* \"#utility.yul\":400:454   */\n      and\n        /* \"#utility.yul\":389:454   */\n      swap1\n      pop\n        /* \"#utility.yul\":334:460   */\n      swap2\n      swap1\n      pop\n      jump\t// out\n        /* \"#utility.yul\":466:570   */\n    tag_40:\n        /* \"#utility.yul\":511:518   */\n      0x00\n        /* \"#utility.yul\":540:564   */\n      tag_60\n        /* \"#utility.yul\":558:563   */\n      dup3\n        /* \"#utility.yul\":540:564   */\n      tag_39\n      jump\t// in\n    tag_60:\n        /* \"#utility.yul\":529:564   */\n      swap1\n      pop\n        /* \"#utility.yul\":466:570   */\n      swap2\n      swap1\n      pop\n      jump\t// out\n        /* \"#utility.yul\":576:714   */\n    tag_41:\n        /* \"#utility.yul\":657:689   */\n      tag_62\n        /* \"#utility.yul\":683:688   */\n      dup2\n        /* \"#utility.yul\":657:689   */\n      tag_40\n      jump\t// in\n    tag_62:\n        /* \"#utility.yul\":650:655   */\n      dup2\n        /* \"#utility.yul\":647:690   */\n      eq\n        /* \"#utility.yul\":637:708   */\n      tag_63\n      jumpi\n        /* \"#utility.yul\":704:705   */\n      0x00\n        /* \"#utility.yul\":701:702   */\n      0x00\n        /* \"#utility.yul\":694:706   */\n      revert\n        /* \"#utility.yul\":637:708   */\n    tag_63:\n        /* \"#utility.yul\":576:714   */\n      pop\n      jump\t// out\n        /* \"#utility.yul\":720:875   */\n    tag_42:\n        /* \"#utility.yul\":774:779   */\n      0x00\n        /* \"#utility.yul\":812:818   */\n      dup2\n        /* \"#utility.yul\":799:819   */\n      calldataload\n        /* \"#utility.yul\":790:819   */\n      swap1\n      pop\n        /* \"#utility.yul\":828:869   */\n      tag_65\n        /* \"#utility.yul\":863:868   */\n      dup2\n        /* \"#utility.yul\":828:869   */\n      tag_41\n      jump\t// in\n    tag_65:\n        /* \"#utility.yul\":720:875   */\n      swap3\n      swap2\n      pop\n      pop\n      jump\t// out\n        /* \"#utility.yul\":881:1226   */\n    tag_8:\n        /* \"#utility.yul\":948:954   */\n      0x00\n        /* \"#utility.yul\":997:999   */\n      0x20\n        /* \"#utility.yul\":985:994   */\n      dup3\n        /* \"#utility.yul\":976:983   */\n      dup5\n        /* \"#utility.yul\":972:995   */\n      sub\n        /* \"#utility.yul\":968:1000   */\n      slt\n        /* \"#utility.yul\":965:1084   */\n      iszero\n      tag_67\n      jumpi\n        /* \"#utility.yul\":1003:1082   */\n      tag_68\n      tag_37\n      jump\t// in\n    tag_68:\n        /* \"#utility.yul\":965:1084   */\n    tag_67:\n        /* \"#utility.yul\":1123:1124   */\n      0x00\n        /* \"#utility.yul\":1148:1209   */\n      tag_69\n        /* \"#utility.yul\":1201:1208   */\n      dup5\n        /* \"#utility.yul\":1192:1198   */\n      dup3\n        /* \"#utility.yul\":1181:1190   */\n      dup6\n        /* \"#utility.yul\":1177:1199   */\n      add\n        /* \"#utility.yul\":1148:1209   */\n      tag_42\n      jump\t// in\n    tag_69:\n        /* \"#utility.yul\":1138:1209   */\n      swap2\n      pop\n        /* \"#utility.yul\":1094:1219   */\n      pop\n        /* \"#utility.yul\":881:1226   */\n      swap3\n      swap2\n      pop\n      pop\n      jump\t// out\n        /* \"#utility.yul\":1232:1309   */\n    tag_43:\n        /* \"#utility.yul\":1269:1276   */\n      0x00\n        /* \"#utility.yul\":1298:1303   */\n      dup2\n        /* \"#utility.yul\":1287:1303   */\n      swap1\n      pop\n        /* \"#utility.yul\":1232:1309   */\n      swap2\n      swap1\n      pop\n      jump\t// out\n        /* \"#utility.yul\":1315:1433   */\n    tag_44:\n        /* \"#utility.yul\":1402:1426   */\n      tag_72\n        /* \"#utility.yul\":1420:1425   */\n      dup2\n        /* \"#utility.yul\":1402:1426   */\n      tag_43\n      jump\t// in\n    tag_72:\n        /* \"#utility.yul\":1397:1400   */\n      dup3\n        /* \"#utility.yul\":1390:1427   */\n      mstore\n        /* \"#utility.yul\":1315:1433   */\n      pop\n      pop\n      jump\t// out\n        /* \"#utility.yul\":1439:1661   */\n    tag_14:\n        /* \"#utility.yul\":1532:1536   */\n      0x00\n        /* \"#utility.yul\":1570:1572   */\n      0x20\n        /* \"#utility.yul\":1559:1568   */\n      dup3\n        /* \"#utility.yul\":1555:1573   */\n      add\n        /* \"#utility.yul\":1547:1573   */\n      swap1\n      pop\n        /* \"#utility.yul\":1583:1654   */\n      tag_74\n        /* \"#utility.yul\":1651:1652   */\n      0x00\n        /* \"#utility.yul\":1640:1649   */\n      dup4\n        /* \"#utility.yul\":1636:1653   */\n      add\n        /* \"#utility.yul\":1627:1633   */\n      dup5\n        /* \"#utility.yul\":1583:1654   */\n      tag_44\n      jump\t// in\n    tag_74:\n        /* \"#utility.yul\":1439:1661   */\n      swap3\n      swap2\n      pop\n      pop\n      jump\t// out\n        /* \"#utility.yul\":1667:1757   */\n    tag_45:\n        /* \"#utility.yul\":1701:1708   */\n      0x00\n        /* \"#utility.yul\":1744:1749   */\n      dup2\n        /* \"#utility.yul\":1737:1750   */\n      iszero\n        /* \"#utility.yul\":1730:1751   */\n      iszero\n        /* \"#utility.yul\":1719:1751   */\n      swap1\n      pop\n        /* \"#utility.yul\":1667:1757   */\n      swap2\n      swap1\n      pop\n      jump\t// out\n        /* \"#utility.yul\":1763:1872   */\n    tag_46:\n        /* \"#utility.yul\":1844:1865   */\n      tag_77\n        /* \"#utility.yul\":1859:1864   */\n      dup2\n        /* \"#utility.yul\":1844:1865   */\n      tag_45\n      jump\t// in\n    tag_77:\n        /* \"#utility.yul\":1839:1842   */\n      dup3\n        /* \"#utility.yul\":1832:1866   */\n      mstore\n        /* \"#utility.yul\":1763:1872   */\n      pop\n      pop\n      jump\t// out\n        /* \"#utility.yul\":1878:2088   */\n    tag_23:\n        /* \"#utility.yul\":1965:1969   */\n      0x00\n        /* \"#utility.yul\":2003:2005   */\n      0x20\n        /* \"#utility.yul\":1992:2001   */\n      dup3\n        /* \"#utility.yul\":1988:2006   */\n      add\n        /* \"#utility.yul\":1980:2006   */\n      swap1\n      pop\n        /* \"#utility.yul\":2016:2081   */\n      tag_79\n        /* \"#utility.yul\":2078:2079   */\n      0x00\n        /* \"#utility.yul\":2067:2076   */\n      dup4\n        /* \"#utility.yul\":2063:2080   */\n      add\n        /* \"#utility.yul\":2054:2060   */\n      dup5\n        /* \"#utility.yul\":2016:2081   */\n      tag_46\n      jump\t// in\n    tag_79:\n        /* \"#utility.yul\":1878:2088   */\n      swap3\n      swap2\n      pop\n      pop\n      jump\t// out\n        /* \"#utility.yul\":2094:2241   */\n    tag_47:\n        /* \"#utility.yul\":2195:2206   */\n      0x00\n        /* \"#utility.yul\":2232:2235   */\n      dup2\n        /* \"#utility.yul\":2217:2235   */\n      swap1\n      pop\n        /* \"#utility.yul\":2094:2241   */\n      swap3\n      swap2\n      pop\n      pop\n      jump\t// out\n        /* \"#utility.yul\":2247:2361   */\n    tag_48:\n      pop\n      jump\t// out\n        /* \"#utility.yul\":2367:2765   */\n    tag_49:\n        /* \"#utility.yul\":2526:2529   */\n      0x00\n        /* \"#utility.yul\":2547:2630   */\n      tag_83\n        /* \"#utility.yul\":2628:2629   */\n      0x00\n        /* \"#utility.yul\":2623:2626   */\n      dup4\n        /* \"#utility.yul\":2547:2630   */\n      tag_47\n      jump\t// in\n    tag_83:\n        /* \"#utility.yul\":2540:2630   */\n      swap2\n      pop\n        /* \"#utility.yul\":2639:2732   */\n      tag_84\n        /* \"#utility.yul\":2728:2731   */\n      dup3\n        /* \"#utility.yul\":2639:2732   */\n      tag_48\n      jump\t// in\n    tag_84:\n        /* \"#utility.yul\":2757:2758   */\n      0x00\n        /* \"#utility.yul\":2752:2755   */\n      dup3\n        /* \"#utility.yul\":2748:2759   */\n      add\n        /* \"#utility.yul\":2741:2759   */\n      swap1\n      pop\n        /* \"#utility.yul\":2367:2765   */\n      swap2\n      swap1\n      pop\n      jump\t// out\n        /* \"#utility.yul\":2771:3150   */\n    tag_26:\n        /* \"#utility.yul\":2955:2958   */\n      0x00\n        /* \"#utility.yul\":2977:3124   */\n      tag_86\n        /* \"#utility.yul\":3120:3123   */\n      dup3\n        /* \"#utility.yul\":2977:3124   */\n      tag_49\n      jump\t// in\n    tag_86:\n        /* \"#utility.yul\":2970:3124   */\n      swap2\n      pop\n        /* \"#utility.yul\":3141:3144   */\n      dup2\n        /* \"#utility.yul\":3134:3144   */\n      swap1\n      pop\n        /* \"#utility.yul\":2771:3150   */\n      swap2\n      swap1\n      pop\n      jump\t// out\n        /* \"#utility.yul\":3156:3325   */\n    tag_50:\n        /* \"#utility.yul\":3240:3251   */\n      0x00\n        /* \"#utility.yul\":3274:3280   */\n      dup3\n        /* \"#utility.yul\":3269:3272   */\n      dup3\n        /* \"#utility.yul\":3262:3281   */\n      mstore\n        /* \"#utility.yul\":3314:3318   */\n      0x20\n        /* \"#utility.yul\":3309:3312   */\n      dup3\n        /* \"#utility.yul\":3305:3319   */\n      add\n        /* \"#utility.yul\":3290:3319   */\n      swap1\n      pop\n        /* \"#utility.yul\":3156:3325   */\n      swap3\n      swap2\n      pop\n      pop\n      jump\t// out\n        /* \"#utility.yul\":3331:3500   */\n    tag_51:\n        /* \"#utility.yul\":3471:3492   */\n      0x455448207472616e73666572206661696c656400000000000000000000000000\n        /* \"#utility.yul\":3467:3468   */\n      0x00\n        /* \"#utility.yul\":3459:3465   */\n      dup3\n        /* \"#utility.yul\":3455:3469   */\n      add\n        /* \"#utility.yul\":3448:3493   */\n      mstore\n        /* \"#utility.yul\":3331:3500   */\n      pop\n      jump\t// out\n        /* \"#utility.yul\":3506:3872   */\n    tag_52:\n        /* \"#utility.yul\":3648:3651   */\n      0x00\n        /* \"#utility.yul\":3669:3736   */\n      tag_90\n        /* \"#utility.yul\":3733:3735   */\n      0x13\n        /* \"#utility.yul\":3728:3731   */\n      dup4\n        /* \"#utility.yul\":3669:3736   */\n      tag_50\n      jump\t// in\n    tag_90:\n        /* \"#utility.yul\":3662:3736   */\n      swap2\n      pop\n        /* \"#utility.yul\":3745:3838   */\n      tag_91\n        /* \"#utility.yul\":3834:3837   */\n      dup3\n        /* \"#utility.yul\":3745:3838   */\n      tag_51\n      jump\t// in\n    tag_91:\n        /* \"#utility.yul\":3863:3865   */\n      0x20\n        /* \"#utility.yul\":3858:3861   */\n      dup3\n        /* \"#utility.yul\":3854:3866   */\n      add\n        /* \"#utility.yul\":3847:3866   */\n      swap1\n      pop\n        /* \"#utility.yul\":3506:3872   */\n      swap2\n      swap1\n      pop\n      jump\t// out\n        /* \"#utility.yul\":3878:4297   */\n    tag_32:\n        /* \"#utility.yul\":4044:4048   */\n      0x00\n        /* \"#utility.yul\":4082:4084   */\n      0x20\n        /* \"#utility.yul\":4071:4080   */\n      dup3\n        /* \"#utility.yul\":4067:4085   */\n      add\n        /* \"#utility.yul\":4059:4085   */\n      swap1\n      pop\n        /* \"#utility.yul\":4131:4140   */\n      dup2\n        /* \"#utility.yul\":4125:4129   */\n      dup2\n        /* \"#utility.yul\":4121:4141   */\n      sub\n        /* \"#utility.yul\":4117:4118   */\n      0x00\n        /* \"#utility.yul\":4106:4115   */\n      dup4\n        /* \"#utility.yul\":4102:4119   */\n      add\n        /* \"#utility.yul\":4095:4142   */\n      mstore\n        /* \"#utility.yul\":4159:4290   */\n      tag_93\n        /* \"#utility.yul\":4285:4289   */\n      dup2\n        /* \"#utility.yul\":4159:4290   */\n      tag_52\n      jump\t// in\n    tag_93:\n        /* \"#utility.yul\":4151:4290   */\n      swap1\n      pop\n        /* \"#utility.yul\":3878:4297   */\n      swap2\n      swap1\n      pop\n      jump\t// out\n        /* \"#utility.yul\":4303:4483   */\n    tag_53:\n        /* \"#utility.yul\":4351:4428   */\n      0x4e487b7100000000000000000000000000000000000000000000000000000000\n        /* \"#utility.yul\":4348:4349   */\n      0x00\n        /* \"#utility.yul\":4341:4429   */\n      mstore\n        /* \"#utility.yul\":4448:4452   */\n      0x11\n        /* \"#utility.yul\":4445:4446   */\n      0x04\n        /* \"#utility.yul\":4438:4453   */\n      mstore\n        /* \"#utility.yul\":4472:4476   */\n      0x24\n        /* \"#utility.yul\":4469:4470   */\n      0x00\n        /* \"#utility.yul\":4462:4477   */\n      revert\n        /* \"#utility.yul\":4489:4680   */\n    tag_34:\n        /* \"#utility.yul\":4529:4532   */\n      0x00\n        /* \"#utility.yul\":4548:4568   */\n      tag_96\n        /* \"#utility.yul\":4566:4567   */\n      dup3\n        /* \"#utility.yul\":4548:4568   */\n      tag_43\n      jump\t// in\n    tag_96:\n        /* \"#utility.yul\":4543:4568   */\n      swap2\n      pop\n        /* \"#utility.yul\":4582:4602   */\n      tag_97\n        /* \"#utility.yul\":4600:4601   */\n      dup4\n        /* \"#utility.yul\":4582:4602   */\n      tag_43\n      jump\t// in\n    tag_97:\n        /* \"#utility.yul\":4577:4602   */\n      swap3\n      pop\n        /* \"#utility.yul\":4625:4626   */\n      dup3\n        /* \"#utility.yul\":4622:4623   */\n      dup3\n        /* \"#utility.yul\":4618:4627   */\n      add\n        /* \"#utility.yul\":4611:4627   */\n      swap1\n      pop\n        /* \"#utility.yul\":4646:4649   */\n      dup1\n        /* \"#utility.yul\":4643:4644   */\n      dup3\n        /* \"#utility.yul\":4640:4650   */\n      gt\n        /* \"#utility.yul\":4637:4673   */\n      iszero\n      tag_98\n      jumpi\n        /* \"#utility.yul\":4653:4671   */\n      tag_99\n      tag_53\n      jump\t// in\n    tag_99:\n        /* \"#utility.yul\":4637:4673   */\n    tag_98:\n        /* \"#utility.yul\":4489:4680   */\n      swap3\n      swap2\n      pop\n      pop\n      jump\t// out\n\n    auxdata: 0xa264697066735822122088a7542f46c14d304c502147efb80c02fa259d85b515ce76ecd04bdec77af5b564736f6c63430008220033\n}\n",
				"bytecode": {
					"linkReferences": {},
					"object": "6080604052348015600e575f5ffd5b506104128061001c5f395ff3fe60806040526004361061003e575f3560e01c80634401a6e41461004257806346f990631461005e5780638b7afe2e146100885780639415bc59146100b2575b5f5ffd5b61005c60048036038101906100579190610234565b6100dc565b005b348015610069575f5ffd5b506100726101b8565b60405161007f9190610277565b60405180910390f35b348015610093575f5ffd5b5061009c6101be565b6040516100a99190610277565b60405180910390f35b3480156100bd575f5ffd5b506100c66101c5565b6040516100d391906102aa565b60405180910390f35b5f8173ffffffffffffffffffffffffffffffffffffffff1634604051610101906102f0565b5f6040518083038185875af1925050503d805f811461013b576040519150601f19603f3d011682016040523d82523d5f602084013e610140565b606091505b50509050805f5f6101000a81548160ff0219169083151502179055508061019c576040517f08c379a00000000000000000000000000000000000000000000000000000000081526004016101939061035e565b60405180910390fd5b3460015f8282546101ad91906103a9565b925050819055505050565b60015481565b5f47905090565b5f5f9054906101000a900460ff1681565b5f5ffd5b5f73ffffffffffffffffffffffffffffffffffffffff82169050919050565b5f610203826101da565b9050919050565b610213816101f9565b811461021d575f5ffd5b50565b5f8135905061022e8161020a565b92915050565b5f60208284031215610249576102486101d6565b5b5f61025684828501610220565b91505092915050565b5f819050919050565b6102718161025f565b82525050565b5f60208201905061028a5f830184610268565b92915050565b5f8115159050919050565b6102a481610290565b82525050565b5f6020820190506102bd5f83018461029b565b92915050565b5f81905092915050565b50565b5f6102db5f836102c3565b91506102e6826102cd565b5f82019050919050565b5f6102fa826102d0565b9150819050919050565b5f82825260208201905092915050565b7f455448207472616e73666572206661696c6564000000000000000000000000005f82015250565b5f610348601383610304565b915061035382610314565b602082019050919050565b5f6020820190508181035f8301526103758161033c565b9050919050565b7f4e487b71000000000000000000000000000000000000000000000000000000005f52601160045260245ffd5b5f6103b38261025f565b91506103be8361025f565b92508282019050808211156103d6576103d561037c565b5b9291505056fea264697066735822122088a7542f46c14d304c502147efb80c02fa259d85b515ce76ecd04bdec77af5b564736f6c63430008220033",
					"opcodes": "PUSH1 0x80 PUSH1 0x40 MSTORE CALLVALUE DUP1 ISZERO PUSH1 0xE JUMPI PUSH0 PUSH0 REVERT JUMPDEST POP PUSH2 0x412 DUP1 PUSH2 0x1C PUSH0 CODECOPY PUSH0 RETURN INVALID PUSH1 0x80 PUSH1 0x40 MSTORE PUSH1 0x4 CALLDATASIZE LT PUSH2 0x3E JUMPI PUSH0 CALLDATALOAD PUSH1 0xE0 SHR DUP1 PUSH4 0x4401A6E4 EQ PUSH2 0x42 JUMPI DUP1 PUSH4 0x46F99063 EQ PUSH2 0x5E JUMPI DUP1 PUSH4 0x8B7AFE2E EQ PUSH2 0x88 JUMPI DUP1 PUSH4 0x9415BC59 EQ PUSH2 0xB2 JUMPI JUMPDEST PUSH0 PUSH0 REVERT JUMPDEST PUSH2 0x5C PUSH1 0x4 DUP1 CALLDATASIZE SUB DUP2 ADD SWAP1 PUSH2 0x57 SWAP2 SWAP1 PUSH2 0x234 JUMP JUMPDEST PUSH2 0xDC JUMP JUMPDEST STOP JUMPDEST CALLVALUE DUP1 ISZERO PUSH2 0x69 JUMPI PUSH0 PUSH0 REVERT JUMPDEST POP PUSH2 0x72 PUSH2 0x1B8 JUMP JUMPDEST PUSH1 0x40 MLOAD PUSH2 0x7F SWAP2 SWAP1 PUSH2 0x277 JUMP JUMPDEST PUSH1 0x40 MLOAD DUP1 SWAP2 SUB SWAP1 RETURN JUMPDEST CALLVALUE DUP1 ISZERO PUSH2 0x93 JUMPI PUSH0 PUSH0 REVERT JUMPDEST POP PUSH2 0x9C PUSH2 0x1BE JUMP JUMPDEST PUSH1 0x40 MLOAD PUSH2 0xA9 SWAP2 SWAP1 PUSH2 0x277 JUMP JUMPDEST PUSH1 0x40 MLOAD DUP1 SWAP2 SUB SWAP1 RETURN JUMPDEST CALLVALUE DUP1 ISZERO PUSH2 0xBD JUMPI PUSH0 PUSH0 REVERT JUMPDEST POP PUSH2 0xC6 PUSH2 0x1C5 JUMP JUMPDEST PUSH1 0x40 MLOAD PUSH2 0xD3 SWAP2 SWAP1 PUSH2 0x2AA JUMP JUMPDEST PUSH1 0x40 MLOAD DUP1 SWAP2 SUB SWAP1 RETURN JUMPDEST PUSH0 DUP2 PUSH20 0xFFFFFFFFFFFFFFFFFFFFFFFFFFFFFFFFFFFFFFFF AND CALLVALUE PUSH1 0x40 MLOAD PUSH2 0x101 SWAP1 PUSH2 0x2F0 JUMP JUMPDEST PUSH0 PUSH1 0x40 MLOAD DUP1 DUP4 SUB DUP2 DUP6 DUP8 GAS CALL SWAP3 POP POP POP RETURNDATASIZE DUP1 PUSH0 DUP2 EQ PUSH2 0x13B JUMPI PUSH1 0x40 MLOAD SWAP2 POP PUSH1 0x1F NOT PUSH1 0x3F RETURNDATASIZE ADD AND DUP3 ADD PUSH1 0x40 MSTORE RETURNDATASIZE DUP3 MSTORE RETURNDATASIZE PUSH0 PUSH1 0x20 DUP5 ADD RETURNDATACOPY PUSH2 0x140 JUMP JUMPDEST PUSH1 0x60 SWAP2 POP JUMPDEST POP POP SWAP1 POP DUP1 PUSH0 PUSH0 PUSH2 0x100 EXP DUP2 SLOAD DUP2 PUSH1 0xFF MUL NOT AND SWAP1 DUP4 ISZERO ISZERO MUL OR SWAP1 SSTORE POP DUP1 PUSH2 0x19C JUMPI PUSH1 0x40 MLOAD PUSH32 0x8C379A000000000000000000000000000000000000000000000000000000000 DUP2 MSTORE PUSH1 0x4 ADD PUSH2 0x193 SWAP1 PUSH2 0x35E JUMP JUMPDEST PUSH1 0x40 MLOAD DUP1 SWAP2 SUB SWAP1 REVERT JUMPDEST CALLVALUE PUSH1 0x1 PUSH0 DUP3 DUP3 SLOAD PUSH2 0x1AD SWAP2 SWAP1 PUSH2 0x3A9 JUMP JUMPDEST SWAP3 POP POP DUP2 SWAP1 SSTORE POP POP POP JUMP JUMPDEST PUSH1 0x1 SLOAD DUP2 JUMP JUMPDEST PUSH0 SELFBALANCE SWAP1 POP SWAP1 JUMP JUMPDEST PUSH0 PUSH0 SWAP1 SLOAD SWAP1 PUSH2 0x100 EXP SWAP1 DIV PUSH1 0xFF AND DUP2 JUMP JUMPDEST PUSH0 PUSH0 REVERT JUMPDEST PUSH0 PUSH20 0xFFFFFFFFFFFFFFFFFFFFFFFFFFFFFFFFFFFFFFFF DUP3 AND SWAP1 POP SWAP2 SWAP1 POP JUMP JUMPDEST PUSH0 PUSH2 0x203 DUP3 PUSH2 0x1DA JUMP JUMPDEST SWAP1 POP SWAP2 SWAP1 POP JUMP JUMPDEST PUSH2 0x213 DUP2 PUSH2 0x1F9 JUMP JUMPDEST DUP2 EQ PUSH2 0x21D JUMPI PUSH0 PUSH0 REVERT JUMPDEST POP JUMP JUMPDEST PUSH0 DUP2 CALLDATALOAD SWAP1 POP PUSH2 0x22E DUP2 PUSH2 0x20A JUMP JUMPDEST SWAP3 SWAP2 POP POP JUMP JUMPDEST PUSH0 PUSH1 0x20 DUP3 DUP5 SUB SLT ISZERO PUSH2 0x249 JUMPI PUSH2 0x248 PUSH2 0x1D6 JUMP JUMPDEST JUMPDEST PUSH0 PUSH2 0x256 DUP5 DUP3 DUP6 ADD PUSH2 0x220 JUMP JUMPDEST SWAP2 POP POP SWAP3 SWAP2 POP POP JUMP JUMPDEST PUSH0 DUP2 SWAP1 POP SWAP2 SWAP1 POP JUMP JUMPDEST PUSH2 0x271 DUP2 PUSH2 0x25F JUMP JUMPDEST DUP3 MSTORE POP POP JUMP JUMPDEST PUSH0 PUSH1 0x20 DUP3 ADD SWAP1 POP PUSH2 0x28A PUSH0 DUP4 ADD DUP5 PUSH2 0x268 JUMP JUMPDEST SWAP3 SWAP2 POP POP JUMP JUMPDEST PUSH0 DUP2 ISZERO ISZERO SWAP1 POP SWAP2 SWAP1 POP JUMP JUMPDEST PUSH2 0x2A4 DUP2 PUSH2 0x290 JUMP JUMPDEST DUP3 MSTORE POP POP JUMP JUMPDEST PUSH0 PUSH1 0x20 DUP3 ADD SWAP1 POP PUSH2 0x2BD PUSH0 DUP4 ADD DUP5 PUSH2 0x29B JUMP JUMPDEST SWAP3 SWAP2 POP POP JUMP JUMPDEST PUSH0 DUP2 SWAP1 POP SWAP3 SWAP2 POP POP JUMP JUMPDEST POP JUMP JUMPDEST PUSH0 PUSH2 0x2DB PUSH0 DUP4 PUSH2 0x2C3 JUMP JUMPDEST SWAP2 POP PUSH2 0x2E6 DUP3 PUSH2 0x2CD JUMP JUMPDEST PUSH0 DUP3 ADD SWAP1 POP SWAP2 SWAP1 POP JUMP JUMPDEST PUSH0 PUSH2 0x2FA DUP3 PUSH2 0x2D0 JUMP JUMPDEST SWAP2 POP DUP2 SWAP1 POP SWAP2 SWAP1 POP JUMP JUMPDEST PUSH0 DUP3 DUP3 MSTORE PUSH1 0x20 DUP3 ADD SWAP1 POP SWAP3 SWAP2 POP POP JUMP JUMPDEST PUSH32 0x455448207472616E73666572206661696C656400000000000000000000000000 PUSH0 DUP3 ADD MSTORE POP JUMP JUMPDEST PUSH0 PUSH2 0x348 PUSH1 0x13 DUP4 PUSH2 0x304 JUMP JUMPDEST SWAP2 POP PUSH2 0x353 DUP3 PUSH2 0x314 JUMP JUMPDEST PUSH1 0x20 DUP3 ADD SWAP1 POP SWAP2 SWAP1 POP JUMP JUMPDEST PUSH0 PUSH1 0x20 DUP3 ADD SWAP1 POP DUP2 DUP2 SUB PUSH0 DUP4 ADD MSTORE PUSH2 0x375 DUP2 PUSH2 0x33C JUMP JUMPDEST SWAP1 POP SWAP2 SWAP1 POP JUMP JUMPDEST PUSH32 0x4E487B7100000000000000000000000000000000000000000000000000000000 PUSH0 MSTORE PUSH1 0x11 PUSH1 0x4 MSTORE PUSH1 0x24 PUSH0 REVERT JUMPDEST PUSH0 PUSH2 0x3B3 DUP3 PUSH2 0x25F JUMP JUMPDEST SWAP2 POP PUSH2 0x3BE DUP4 PUSH2 0x25F JUMP JUMPDEST SWAP3 POP DUP3 DUP3 ADD SWAP1 POP DUP1 DUP3 GT ISZERO PUSH2 0x3D6 JUMPI PUSH2 0x3D5 PUSH2 0x37C JUMP JUMPDEST JUMPDEST SWAP3 SWAP2 POP POP JUMP INVALID LOG2 PUSH5 0x6970667358 0x22 SLT KECCAK256 DUP9 0xA7 SLOAD 0x2F CHAINID 0xC1 0x4D ADDRESS 0x4C POP 0x21 SELFBALANCE 0xEF 0xB8 0xC MUL STATICCALL 0x25 SWAP14 DUP6 0xB5 ISZERO 0xCE PUSH23 0xECD04BDEC77AF5B564736F6C6343000822003300000000 "
				},
				"gasEstimates": {
					"creation": {
						"codeDepositCost": "208400",
						"executionCost": "249",
						"totalCost": "208649"
					},
					"external": {
						"contractBalance()": "356",
						"lastSuccess()": "2509",
						"safeSend(address)": "infinite",
						"totalSent()": "2425"
					}
				},
				"methodIdentifiers": {
					"contractBalance()": "8b7afe2e",
					"lastSuccess()": "9415bc59",
					"safeSend(address)": "4401a6e4",
					"totalSent()": "46f99063"
				}
			},
			"storageLayout": {
				"storage": [
					{
						"astId": 70,
						"contract": "prac64.sol:ETHSenderPatched",
						"label": "lastSuccess",
						"offset": 0,
						"slot": "0",
						"type": "t_bool"
					},
					{
						"astId": 72,
						"contract": "prac64.sol:ETHSenderPatched",
						"label": "totalSent",
						"offset": 0,
						"slot": "1",
						"type": "t_uint256"
					}
				],
				"types": {
					"t_bool": {
						"encoding": "inplace",
						"label": "bool",
						"numberOfBytes": "1"
					},
					"t_uint256": {
						"encoding": "inplace",
						"label": "uint256",
						"numberOfBytes": "32"
					}
				}
			},
			"userdoc": {
				"kind": "user",
				"methods": {},
				"version": 1
			}
		}
	}
}