{
	"prac64.sol": {
		"ETHSenderVul": {
			"abi": [
				{
					"inputs": [],
					"name": "contractBalance",
					"outputs": [
						{
							"internalType": "uint256",
							"name": "",
							"type": "uint256"
						}
					],
					"stateMutability": "view",
					"type": "function"
				},
				{
					"inputs": [
						{
							"internalType": "address payable",
							"name": "_receiver",
							"type": "address"
						}
					],
					"name": "dangerousSend",
					"outputs": [],
					"stateMutability": "payable",
					"type": "function"
				},
				{
					"inputs": [],
					"name": "lastSuccess",
					"outputs": [
						{
							"internalType": "bool",
							"name": "",
							"type": "bool"
						}
					],
					"stateMutability": "view",
					"type": "function"
				},
				{
					"inputs": [],
					"name": "totalSent",
					"outputs": [
						{
							"internalType": "uint256",
							"name": "",
							"type": "uint256"
						}
					],
					"stateMutability": "view",
					"type": "function"
				}
			],
			"devdoc": {
				"kind": "dev",
				"methods": {},
				"version": 1
			},
			"evm": {
				"assembly": "    /* \"prac64.sol\":2033:2901  contract ETHSenderVul {... */\n  mstore(0x40, 0x80)\n  callvalue\n  dup1\n  iszero\n  tag_1\n  jumpi\n  revert(0x00, 0x00)\ntag_1:\n  pop\n  dataSize(sub_0)\n  dup1\n  dataOffset(sub_0)\n  0x00\n  codecopy\n  0x00\n  return\nstop\n\nsub_0: assembly {\n        /* \"prac64.sol\":2033:2901  contract ETHSenderVul {... */\n      mstore(0x40, 0x80)\n      jumpi(tag_1, lt(calldatasize, 0x04))\n      shr(0xe0, calldataload(0x00))\n      dup1\n      0x41456ddb\n      eq\n      tag_2\n      jumpi\n      dup1\n      0x46f99063\n      eq\n      tag_3\n      jumpi\n      dup1\n      0x8b7afe2e\n      eq\n      tag_4\n      jumpi\n      dup1\n      0x9415bc59\n      eq\n      tag_5\n      jumpi\n    tag_1:\n      revert(0x00, 0x00)\n        /* \"prac64.sol\":2334:2752  function dangerousSend(... */\n    tag_2:\n      tag_6\n      0x04\n      dup1\n      calldatasize\n      sub\n      dup2\n      add\n      swap1\n      tag_7\n      swap2\n      swap1\n      tag_8\n      jump\t// in\n    tag_7:\n      tag_9\n      jump\t// in\n    tag_6:\n      stop\n        /* \"prac64.sol\":2094:2118  uint256 public totalSent */\n    tag_3:\n      callvalue\n      dup1\n      iszero\n      tag_10\n      jumpi\n      revert(0x00, 0x00)\n    tag_10:\n      pop\n      tag_11\n      tag_12\n      jump\t// in\n    tag_11:\n      mload(0x40)\n      tag_13\n      swap2\n      swap1\n      tag_14\n      jump\t// in\n    tag_13:\n      mload(0x40)\n      dup1\n      swap2\n      sub\n      swap1\n      return\n        /* \"prac64.sol\":2760:2898  function contractBalance()... */\n    tag_4:\n      callvalue\n      dup1\n      iszero\n      tag_15\n      jumpi\n      revert(0x00, 0x00)\n    tag_15:\n      pop\n      tag_16\n      tag_17\n      jump\t// in\n    tag_16:\n      mload(0x40)\n      tag_18\n      swap2\n      swap1\n      tag_14\n      jump\t// in\n    tag_18:\n      mload(0x40)\n      dup1\n      swap2\n      sub\n      swap1\n      return\n        /* \"prac64.sol\":2064:2087  bool public lastSuccess */\n    tag_5:\n      callvalue\n      dup1\n      iszero\n      tag_19\n      jumpi\n      revert(0x00, 0x00)\n    tag_19:\n      pop\n      tag_20\n      tag_21\n      jump\t// in\n    tag_20:\n      mload(0x40)\n      tag_22\n      swap2\n      swap1\n      tag_23\n      jump\t// in\n    tag_22:\n      mload(0x40)\n      dup1\n      swap2\n      sub\n      swap1\n      return\n        /* \"prac64.sol\":2334:2752  function dangerousSend(... */\n    tag_9:\n        /* \"prac64.sol\":2487:2499  bool success */\n      0x00\n        /* \"prac64.sol\":2505:2514  _receiver */\n      dup2\n        /* \"prac64.sol\":2505:2519  _receiver.call */\n      0xffffffffffffffffffffffffffffffffffffffff\n      and\n        /* \"prac64.sol\":2527:2536  msg.value */\n      callvalue\n        /* \"prac64.sol\":2505:2541  _receiver.call{value: msg.value}(\"\") */\n      mload(0x40)\n      tag_25\n      swap1\n      tag_26\n      jump\t// in\n    tag_25:\n      0x00\n      mload(0x40)\n      dup1\n      dup4\n      sub\n      dup2\n      dup6\n      dup8\n      gas\n      call\n      swap3\n      pop\n      pop\n      pop\n      returndatasize\n      dup1\n      0x00\n      dup2\n      eq\n      tag_29\n      jumpi\n      mload(0x40)\n      swap2\n      pop\n      and(add(returndatasize, 0x3f), not(0x1f))\n      dup3\n      add\n      0x40\n      mstore\n      returndatasize\n      dup3\n      mstore\n      returndatasize\n      0x00\n      0x20\n      dup5\n      add\n      returndatacopy\n      jump(tag_28)\n    tag_29:\n      0x60\n      swap2\n      pop\n    tag_28:\n      pop\n        /* \"prac64.sol\":2486:2541  (bool success, ) = _receiver.call{value: msg.value}(\"\") */\n      pop\n      swap1\n      pop\n        /* \"prac64.sol\":2614:2623  msg.value */\n      callvalue\n        /* \"prac64.sol\":2601:2610  totalSent */\n      0x01\n      0x00\n        /* \"prac64.sol\":2601:2623  totalSent += msg.value */\n      dup3\n      dup3\n      sload\n      tag_30\n      swap2\n      swap1\n      tag_31\n      jump\t// in\n    tag_30:\n      swap3\n      pop\n      pop\n      dup2\n      swap1\n      sstore\n      pop\n        /* \"prac64.sol\":2735:2744  msg.value */\n      callvalue\n        /* \"prac64.sol\":2722:2731  totalSent */\n      0x01\n      0x00\n        /* \"prac64.sol\":2722:2744  totalSent += msg.value */\n      dup3\n      dup3\n      sload\n      tag_32\n      swap2\n      swap1\n      tag_31\n      jump\t// in\n    tag_32:\n      swap3\n      pop\n      pop\n      dup2\n      swap1\n      sstore\n      pop\n        /* \"prac64.sol\":2440:2752  {... */\n      pop\n        /* \"prac64.sol\":2334:2752  function dangerousSend(... */\n      pop\n      jump\t// out\n        /* \"prac64.sol\":2094:2118  uint256 public totalSent */\n    tag_12:\n      sload(0x01)\n      dup2\n      jump\t// out\n        /* \"prac64.sol\":2760:2898  function contractBalance()... */\n    tag_17:\n        /* \"prac64.sol\":2837:2844  uint256 */\n      0x00\n        /* \"prac64.sol\":2869:2890  address(this).balance */\n      selfbalance\n        /* \"prac64.sol\":2862:2890  return address(this).balance */\n      swap1\n      pop\n        /* \"prac64.sol\":2760:2898  function contractBalance()... */\n      swap1\n      jump\t// out\n        /* \"prac64.sol\":2064:2087  bool public lastSuccess */\n    tag_21:\n      0x00\n      0x00\n      swap1\n      sload\n      swap1\n      0x0100\n      exp\n      swap1\n      div\n      0xff\n      and\n      dup2\n      jump\t// out\n        /* \"#utility.yul\":88:205   */\n    tag_35:\n        /* \"#utility.yul\":197:198   */\n      0x00\n        /* \"#utility.yul\":194:195   */\n      0x00\n        /* \"#utility.yul\":187:199   */\n      revert\n        /* \"#utility.yul\":334:460   */\n    tag_37:\n        /* \"#utility.yul\":371:378   */\n      0x00\n        /* \"#utility.yul\":411:453   */\n      0xffffffffffffffffffffffffffffffffffffffff\n        /* \"#utility.yul\":404:409   */\n      dup3\n        /* \"#utility.yul\":400:454   */\n      and\n        /* \"#utility.yul\":389:454   */\n      swap1\n      pop\n        /* \"#utility.yul\":334:460   */\n      swap2\n      swap1\n      pop\n      jump\t// out\n        /* \"#utility.yul\":466:570   */\n    tag_38:\n        /* \"#utility.yul\":511:518   */\n      0x00\n        /* \"#utility.yul\":540:564   */\n      tag_55\n        /* \"#utility.yul\":558:563   */\n      dup3\n        /* \"#utility.yul\":540:564   */\n      tag_37\n      jump\t// in\n    tag_55:\n        /* \"#utility.yul\":529:564   */\n      swap1\n      pop\n        /* \"#utility.yul\":466:570   */\n      swap2\n      swap1\n      pop\n      jump\t// out\n        /* \"#utility.yul\":576:714   */\n    tag_39:\n        /* \"#utility.yul\":657:689   */\n      tag_57\n        /* \"#utility.yul\":683:688   */\n      dup2\n        /* \"#utility.yul\":657:689   */\n      tag_38\n      jump\t// in\n    tag_57:\n        /* \"#utility.yul\":650:655   */\n      dup2\n        /* \"#utility.yul\":647:690   */\n      eq\n        /* \"#utility.yul\":637:708   */\n      tag_58\n      jumpi\n        /* \"#utility.yul\":704:705   */\n      0x00\n        /* \"#utility.yul\":701:702   */\n      0x00\n        /* \"#utility.yul\":694:706   */\n      revert\n        /* \"#utility.yul\":637:708   */\n    tag_58:\n        /* \"#utility.yul\":576:714   */\n      pop\n      jump\t// out\n        /* \"#utility.yul\":720:875   */\n    tag_40:\n        /* \"#utility.yul\":774:779   */\n      0x00\n        /* \"#utility.yul\":812:818   */\n      dup2\n        /* \"#utility.yul\":799:819   */\n      calldataload\n        /* \"#utility.yul\":790:819   */\n      swap1\n      pop\n        /* \"#utility.yul\":828:869   */\n      tag_60\n        /* \"#utility.yul\":863:868   */\n      dup2\n        /* \"#utility.yul\":828:869   */\n      tag_39\n      jump\t// in\n    tag_60:\n        /* \"#utility.yul\":720:875   */\n      swap3\n      swap2\n      pop\n      pop\n      jump\t// out\n        /* \"#utility.yul\":881:1226   */\n    tag_8:\n        /* \"#utility.yul\":948:954   */\n      0x00\n        /* \"#utility.yul\":997:999   */\n      0x20\n        /* \"#utility.yul\":985:994   */\n      dup3\n        /* \"#utility.yul\":976:983   */\n      dup5\n        /* \"#utility.yul\":972:995   */\n      sub\n        /* \"#utility.yul\":968:1000   */\n      slt\n        /* \"#utility.yul\":965:1084   */\n      iszero\n      tag_62\n      jumpi\n        /* \"#utility.yul\":1003:1082   */\n      tag_63\n      tag_35\n      jump\t// in\n    tag_63:\n        /* \"#utility.yul\":965:1084   */\n    tag_62:\n        /* \"#utility.yul\":1123:1124   */\n      0x00\n        /* \"#utility.yul\":1148:1209   */\n      tag_64\n        /* \"#utility.yul\":1201:1208   */\n      dup5\n        /* \"#utility.yul\":1192:1198   */\n      dup3\n        /* \"#utility.yul\":1181:1190   */\n      dup6\n        /* \"#utility.yul\":1177:1199   */\n      add\n        /* \"#utility.yul\":1148:1209   */\n      tag_40\n      jump\t// in\n    tag_64:\n        /* \"#utility.yul\":1138:1209   */\n      swap2\n      pop\n        /* \"#utility.yul\":1094:1219   */\n      pop\n        /* \"#utility.yul\":881:1226   */\n      swap3\n      swap2\n      pop\n      pop\n      jump\t// out\n        /* \"#utility.yul\":1232:1309   */\n    tag_41:\n        /* \"#utility.yul\":1269:1276   */\n      0x00\n        /* \"#utility.yul\":1298:1303   */\n      dup2\n        /* \"#utility.yul\":1287:1303   */\n      swap1\n      pop\n        /* \"#utility.yul\":1232:1309   */\n      swap2\n      swap1\n      pop\n      jump\t// out\n        /* \"#utility.yul\":1315:1433   */\n    tag_42:\n        /* \"#utility.yul\":1402:1426   */\n      tag_67\n        /* \"#utility.yul\":1420:1425   */\n      dup2\n        /* \"#utility.yul\":1402:1426   */\n      tag_41\n      jump\t// in\n    tag_67:\n        /* \"#utility.yul\":1397:1400   */\n      dup3\n        /* \"#utility.yul\":1390:1427   */\n      mstore\n        /* \"#utility.yul\":1315:1433   */\n      pop\n      pop\n      jump\t// out\n        /* \"#utility.yul\":1439:1661   */\n    tag_14:\n        /* \"#utility.yul\":1532:1536   */\n      0x00\n        /* \"#utility.yul\":1570:1572   */\n      0x20\n        /* \"#utility.yul\":1559:1568   */\n      dup3\n        /* \"#utility.yul\":1555:1573   */\n      add\n        /* \"#utility.yul\":1547:1573   */\n      swap1\n      pop\n        /* \"#utility.yul\":1583:1654   */\n      tag_69\n        /* \"#utility.yul\":1651:1652   */\n      0x00\n        /* \"#utility.yul\":1640:1649   */\n      dup4\n        /* \"#utility.yul\":1636:1653   */\n      add\n        /* \"#utility.yul\":1627:1633   */\n      dup5\n        /* \"#utility.yul\":1583:1654   */\n      tag_42\n      jump\t// in\n    tag_69:\n        /* \"#utility.yul\":1439:1661   */\n      swap3\n      swap2\n      pop\n      pop\n      jump\t// out\n        /* \"#utility.yul\":1667:1757   */\n    tag_43:\n        /* \"#utility.yul\":1701:1708   */\n      0x00\n        /* \"#utility.yul\":1744:1749   */\n      dup2\n        /* \"#utility.yul\":1737:1750   */\n      iszero\n        /* \"#utility.yul\":1730:1751   */\n      iszero\n        /* \"#utility.yul\":1719:1751   */\n      swap1\n      pop\n        /* \"#utility.yul\":1667:1757   */\n      swap2\n      swap1\n      pop\n      jump\t// out\n        /* \"#utility.yul\":1763:1872   */\n    tag_44:\n        /* \"#utility.yul\":1844:1865   */\n      tag_72\n        /* \"#utility.yul\":1859:1864   */\n      dup2\n        /* \"#utility.yul\":1844:1865   */\n      tag_43\n      jump\t// in\n    tag_72:\n        /* \"#utility.yul\":1839:1842   */\n      dup3\n        /* \"#utility.yul\":1832:1866   */\n      mstore\n        /* \"#utility.yul\":1763:1872   */\n      pop\n      pop\n      jump\t// out\n        /* \"#utility.yul\":1878:2088   */\n    tag_23:\n        /* \"#utility.yul\":1965:1969   */\n      0x00\n        /* \"#utility.yul\":2003:2005   */\n      0x20\n        /* \"#utility.yul\":1992:2001   */\n      dup3\n        /* \"#utility.yul\":1988:2006   */\n      add\n        /* \"#utility.yul\":1980:2006   */\n      swap1\n      pop\n        /* \"#utility.yul\":2016:2081   */\n      tag_74\n        /* \"#utility.yul\":2078:2079   */\n      0x00\n        /* \"#utility.yul\":2067:2076   */\n      dup4\n        /* \"#utility.yul\":2063:2080   */\n      add\n        /* \"#utility.yul\":2054:2060   */\n      dup5\n        /* \"#utility.yul\":2016:2081   */\n      tag_44\n      jump\t// in\n    tag_74:\n        /* \"#utility.yul\":1878:2088   */\n      swap3\n      swap2\n      pop\n      pop\n      jump\t// out\n        /* \"#utility.yul\":2094:2241   */\n    tag_45:\n        /* \"#utility.yul\":2195:2206   */\n      0x00\n        /* \"#utility.yul\":2232:2235   */\n      dup2\n        /* \"#utility.yul\":2217:2235   */\n      swap1\n      pop\n        /* \"#utility.yul\":2094:2241   */\n      swap3\n      swap2\n      pop\n      pop\n      jump\t// out\n        /* \"#utility.yul\":2247:2361   */\n    tag_46:\n      pop\n      jump\t// out\n        /* \"#utility.yul\":2367:2765   */\n    tag_47:\n        /* \"#utility.yul\":2526:2529   */\n      0x00\n        /* \"#utility.yul\":2547:2630   */\n      tag_78\n        /* \"#utility.yul\":2628:2629   */\n      0x00\n        /* \"#utility.yul\":2623:2626   */\n      dup4\n        /* \"#utility.yul\":2547:2630   */\n      tag_45\n      jump\t// in\n    tag_78:\n        /* \"#utility.yul\":2540:2630   */\n      swap2\n      pop\n        /* \"#utility.yul\":2639:2732   */\n      tag_79\n        /* \"#utility.yul\":2728:2731   */\n      dup3\n        /* \"#utility.yul\":2639:2732   */\n      tag_46\n      jump\t// in\n    tag_79:\n        /* \"#utility.yul\":2757:2758   */\n      0x00\n        /* \"#utility.yul\":2752:2755   */\n      dup3\n        /* \"#utility.yul\":2748:2759   */\n      add\n        /* \"#utility.yul\":2741:2759   */\n      swap1\n      pop\n        /* \"#utility.yul\":2367:2765   */\n      swap2\n      swap1\n      pop\n      jump\t// out\n        /* \"#utility.yul\":2771:3150   */\n    tag_26:\n        /* \"#utility.yul\":2955:2958   */\n      0x00\n        /* \"#utility.yul\":2977:3124   */\n      tag_81\n        /* \"#utility.yul\":3120:3123   */\n      dup3\n        /* \"#utility.yul\":2977:3124   */\n      tag_47\n      jump\t// in\n    tag_81:\n        /* \"#utility.yul\":2970:3124   */\n      swap2\n      pop\n        /* \"#utility.yul\":3141:3144   */\n      dup2\n        /* \"#utility.yul\":3134:3144   */\n      swap1\n      pop\n        /* \"#utility.yul\":2771:3150   */\n      swap2\n      swap1\n      pop\n      jump\t// out\n        /* \"#utility.yul\":3156:3336   */\n    tag_48:\n        /* \"#utility.yul\":3204:3281   */\n      0x4e487b7100000000000000000000000000000000000000000000000000000000\n        /* \"#utility.yul\":3201:3202   */\n      0x00\n        /* \"#utility.yul\":3194:3282   */\n      mstore\n        /* \"#utility.yul\":3301:3305   */\n      0x11\n        /* \"#utility.yul\":3298:3299   */\n      0x04\n        /* \"#utility.yul\":3291:3306   */\n      mstore\n        /* \"#utility.yul\":3325:3329   */\n      0x24\n        /* \"#utility.yul\":3322:3323   */\n      0x00\n        /* \"#utility.yul\":3315:3330   */\n      revert\n        /* \"#utility.yul\":3342:3533   */\n    tag_31:\n        /* \"#utility.yul\":3382:3385   */\n      0x00\n        /* \"#utility.yul\":3401:3421   */\n      tag_84\n        /* \"#utility.yul\":3419:3420   */\n      dup3\n        /* \"#utility.yul\":3401:3421   */\n      tag_41\n      jump\t// in\n    tag_84:\n        /* \"#utility.yul\":3396:3421   */\n      swap2\n      pop\n        /* \"#utility.yul\":3435:3455   */\n      tag_85\n        /* \"#utility.yul\":3453:3454   */\n      dup4\n        /* \"#utility.yul\":3435:3455   */\n      tag_41\n      jump\t// in\n    tag_85:\n        /* \"#utility.yul\":3430:3455   */\n      swap3\n      pop\n        /* \"#utility.yul\":3478:3479   */\n      dup3\n        /* \"#utility.yul\":3475:3476   */\n      dup3\n        /* \"#utility.yul\":3471:3480   */\n      add\n        /* \"#utility.yul\":3464:3480   */\n      swap1\n      pop\n        /* \"#utility.yul\":3499:3502   */\n      dup1\n        /* \"#utility.yul\":3496:3497   */\n      dup3\n        /* \"#utility.yul\":3493:3503   */\n      gt\n        /* \"#utility.yul\":3490:3526   */\n      iszero\n      tag_86\n      jumpi\n        /* \"#utility.yul\":3506:3524   */\n      tag_87\n      tag_48\n      jump\t// in\n    tag_87:\n        /* \"#utility.yul\":3490:3526   */\n    tag_86:\n        /* \"#utility.yul\":3342:3533   */\n      swap3\n      swap2\n      pop\n      pop\n      jump\t// out\n\n    auxdata: 0xa2646970667358221220cb19db6d9729248601376a2b30189ccd7b3822e1c0cd45423a62be683694091b64736f6c63430008220033\n}\n",
				"bytecode": {
					"linkReferences": {},
					"object": "6080604052348015600e575f5ffd5b5061035a8061001c5f395ff3fe60806040526004361061003e575f3560e01c806341456ddb1461004257806346f990631461005e5780638b7afe2e146100885780639415bc59146100b2575b5f5ffd5b61005c600480360381019061005791906101f4565b6100dc565b005b348015610069575f5ffd5b50610072610178565b60405161007f9190610237565b60405180910390f35b348015610093575f5ffd5b5061009c61017e565b6040516100a99190610237565b60405180910390f35b3480156100bd575f5ffd5b506100c6610185565b6040516100d3919061026a565b60405180910390f35b5f8173ffffffffffffffffffffffffffffffffffffffff1634604051610101906102b0565b5f6040518083038185875af1925050503d805f811461013b576040519150601f19603f3d011682016040523d82523d5f602084013e610140565b606091505b505090503460015f82825461015591906102f1565b925050819055503460015f82825461016d91906102f1565b925050819055505050565b60015481565b5f47905090565b5f5f9054906101000a900460ff1681565b5f5ffd5b5f73ffffffffffffffffffffffffffffffffffffffff82169050919050565b5f6101c38261019a565b9050919050565b6101d3816101b9565b81146101dd575f5ffd5b50565b5f813590506101ee816101ca565b92915050565b5f6020828403121561020957610208610196565b5b5f610216848285016101e0565b91505092915050565b5f819050919050565b6102318161021f565b82525050565b5f60208201905061024a5f830184610228565b92915050565b5f8115159050919050565b61026481610250565b82525050565b5f60208201905061027d5f83018461025b565b92915050565b5f81905092915050565b50565b5f61029b5f83610283565b91506102a68261028d565b5f82019050919050565b5f6102ba82610290565b9150819050919050565b7f4e487b71000000000000000000000000000000000000000000000000000000005f52601160045260245ffd5b5f6102fb8261021f565b91506103068361021f565b925082820190508082111561031e5761031d6102c4565b5b9291505056fea2646970667358221220cb19db6d9729248601376a2b30189ccd7b3822e1c0cd45423a62be683694091b64736f6c63430008220033",
					"opcodes": "PUSH1 0x80 PUSH1 0x40 MSTORE CALLVALUE DUP1 ISZERO PUSH1 0xE JUMPI PUSH0 PUSH0 REVERT JUMPDEST POP PUSH2 0x35A DUP1 PUSH2 0x1C PUSH0 CODECOPY PUSH0 RETURN INVALID PUSH1 0x80 PUSH1 0x40 MSTORE PUSH1 0x4 CALLDATASIZE LT PUSH2 0x3E JUMPI PUSH0 CALLDATALOAD PUSH1 0xE0 SHR DUP1 PUSH4 0x41456DDB EQ PUSH2 0x42 JUMPI DUP1 PUSH4 0x46F99063 EQ PUSH2 0x5E JUMPI DUP1 PUSH4 0x8B7AFE2E EQ PUSH2 0x88 JUMPI DUP1 PUSH4 0x9415BC59 EQ PUSH2 0xB2 JUMPI JUMPDEST PUSH0 PUSH0 REVERT JUMPDEST PUSH2 0x5C PUSH1 0x4 DUP1 CALLDATASIZE SUB DUP2 ADD SWAP1 PUSH2 0x57 SWAP2 SWAP1 PUSH2 0x1F4 JUMP JUMPDEST PUSH2 0xDC JUMP JUMPDEST STOP JUMPDEST CALLVALUE DUP1 ISZERO PUSH2 0x69 JUMPI PUSH0 PUSH0 REVERT JUMPDEST POP PUSH2 0x72 PUSH2 0x178 JUMP JUMPDEST PUSH1 0x40 MLOAD PUSH2 0x7F SWAP2 SWAP1 PUSH2 0x237 JUMP JUMPDEST PUSH1 0x40 MLOAD DUP1 SWAP2 SUB SWAP1 RETURN JUMPDEST CALLVALUE DUP1 ISZERO PUSH2 0x93 JUMPI PUSH0 PUSH0 REVERT JUMPDEST POP PUSH2 0x9C PUSH2 0x17E JUMP JUMPDEST PUSH1 0x40 MLOAD PUSH2 0xA9 SWAP2 SWAP1 PUSH2 0x237 JUMP JUMPDEST PUSH1 0x40 MLOAD DUP1 SWAP2 SUB SWAP1 RETURN JUMPDEST CALLVALUE DUP1 ISZERO PUSH2 0xBD JUMPI PUSH0 PUSH0 REVERT JUMPDEST POP PUSH2 0xC6 PUSH2 0x185 JUMP JUMPDEST PUSH1 0x40 MLOAD PUSH2 0xD3 SWAP2 SWAP1 PUSH2 0x26A JUMP JUMPDEST PUSH1 0x40 MLOAD DUP1 SWAP2 SUB SWAP1 RETURN JUMPDEST PUSH0 DUP2 PUSH20 0xFFFFFFFFFFFFFFFFFFFFFFFFFFFFFFFFFFFFFFFF AND CALLVALUE PUSH1 0x40 MLOAD PUSH2 0x101 SWAP1 PUSH2 0x2B0 JUMP JUMPDEST PUSH0 PUSH1 0x40 MLOAD DUP1 DUP4 SUB DUP2 DUP6 DUP8 GAS CALL SWAP3 POP POP POP RETURNDATASIZE DUP1 PUSH0 DUP2 EQ PUSH2 0x13B JUMPI PUSH1 0x40 MLOAD SWAP2 POP PUSH1 0x1F NOT PUSH1 0x3F RETURNDATASIZE ADD AND DUP3 ADD PUSH1 0x40 MSTORE RETURNDATASIZE DUP3 MSTORE RETURNDATASIZE PUSH0 PUSH1 0x20 DUP5 ADD RETURNDATACOPY PUSH2 0x140 JUMP JUMPDEST PUSH1 0x60 SWAP2 POP JUMPDEST POP POP SWAP1 POP CALLVALUE PUSH1 0x1 PUSH0 DUP3 DUP3 SLOAD PUSH2 0x155 SWAP2 SWAP1 PUSH2 0x2F1 JUMP JUMPDEST SWAP3 POP POP DUP2 SWAP1 SSTORE POP CALLVALUE PUSH1 0x1 PUSH0 DUP3 DUP3 SLOAD PUSH2 0x16D SWAP2 SWAP1 PUSH2 0x2F1 JUMP JUMPDEST SWAP3 POP POP DUP2 SWAP1 SSTORE POP POP POP JUMP JUMPDEST PUSH1 0x1 SLOAD DUP2 JUMP JUMPDEST PUSH0 SELFBALANCE SWAP1 POP SWAP1 JUMP JUMPDEST PUSH0 PUSH0 SWAP1 SLOAD SWAP1 PUSH2 0x100 EXP SWAP1 DIV PUSH1 0xFF AND DUP2 JUMP JUMPDEST PUSH0 PUSH0 REVERT JUMPDEST PUSH0 PUSH20 0xFFFFFFFFFFFFFFFFFFFFFFFFFFFFFFFFFFFFFFFF DUP3 AND SWAP1 POP SWAP2 SWAP1 POP JUMP JUMPDEST PUSH0 PUSH2 0x1C3 DUP3 PUSH2 0x19A JUMP JUMPDEST SWAP1 POP SWAP2 SWAP1 POP JUMP JUMPDEST PUSH2 0x1D3 DUP2 PUSH2 0x1B9 JUMP JUMPDEST DUP2 EQ PUSH2 0x1DD JUMPI PUSH0 PUSH0 REVERT JUMPDEST POP JUMP JUMPDEST PUSH0 DUP2 CALLDATALOAD SWAP1 POP PUSH2 0x1EE DUP2 PUSH2 0x1CA JUMP JUMPDEST SWAP3 SWAP2 POP POP JUMP JUMPDEST PUSH0 PUSH1 0x20 DUP3 DUP5 SUB SLT ISZERO PUSH2 0x209 JUMPI PUSH2 0x208 PUSH2 0x196 JUMP JUMPDEST JUMPDEST PUSH0 PUSH2 0x216 DUP5 DUP3 DUP6 ADD PUSH2 0x1E0 JUMP JUMPDEST SWAP2 POP POP SWAP3 SWAP2 POP POP JUMP JUMPDEST PUSH0 DUP2 SWAP1 POP SWAP2 SWAP1 POP JUMP JUMPDEST PUSH2 0x231 DUP2 PUSH2 0x21F JUMP JUMPDEST DUP3 MSTORE POP POP JUMP JUMPDEST PUSH0 PUSH1 0x20 DUP3 ADD SWAP1 POP PUSH2 0x24A PUSH0 DUP4 ADD DUP5 PUSH2 0x228 JUMP JUMPDEST SWAP3 SWAP2 POP POP JUMP JUMPDEST PUSH0 DUP2 ISZERO ISZERO SWAP1 POP SWAP2 SWAP1 POP JUMP JUMPDEST PUSH2 0x264 DUP2 PUSH2 0x250 JUMP JUMPDEST DUP3 MSTORE POP POP JUMP JUMPDEST PUSH0 PUSH1 0x20 DUP3 ADD SWAP1 POP PUSH2 0x27D PUSH0 DUP4 ADD DUP5 PUSH2 0x25B JUMP JUMPDEST SWAP3 SWAP2 POP POP JUMP JUMPDEST PUSH0 DUP2 SWAP1 POP SWAP3 SWAP2 POP POP JUMP JUMPDEST POP JUMP JUMPDEST PUSH0 PUSH2 0x29B PUSH0 DUP4 PUSH2 0x283 JUMP JUMPDEST SWAP2 POP PUSH2 0x2A6 DUP3 PUSH2 0x28D JUMP JUMPDEST PUSH0 DUP3 ADD SWAP1 POP SWAP2 SWAP1 POP JUMP JUMPDEST PUSH0 PUSH2 0x2BA DUP3 PUSH2 0x290 JUMP JUMPDEST SWAP2 POP DUP2 SWAP1 POP SWAP2 SWAP1 POP JUMP JUMPDEST PUSH32 0x4E487B7100000000000000000000000000000000000000000000000000000000 PUSH0 MSTORE PUSH1 0x11 PUSH1 0x4 MSTORE PUSH1 0x24 PUSH0 REVERT JUMPDEST PUSH0 PUSH2 0x2FB DUP3 PUSH2 0x21F JUMP JUMPDEST SWAP2 POP PUSH2 0x306 DUP4 PUSH2 0x21F JUMP JUMPDEST SWAP3 POP DUP3 DUP3 ADD SWAP1 POP DUP1 DUP3 GT ISZERO PUSH2 0x31E JUMPI PUSH2 0x31D PUSH2 0x2C4 JUMP JUMPDEST JUMPDEST SWAP3 SWAP2 POP POP JUMP INVALID LOG2 PUSH5 0x6970667358 0x22 SLT KECCAK256 0xCB NOT 0xDB PUSH14 0x9729248601376A2B30189CCD7B38 0x22 RJUMPI 0xC0CD GASLIMIT TIMESTAMP GASPRICE PUSH3 0xBE6836 SWAP5 MULMOD SHL PUSH5 0x736F6C6343 STOP ADDMOD 0x22 STOP CALLER "
				},
				"gasEstimates": {
					"creation": {
						"codeDepositCost": "171600",
						"executionCost": "212",
						"totalCost": "171812"
					},
					"external": {
						"contractBalance()": "356",
						"dangerousSend(address)": "infinite",
						"lastSuccess()": "2509",
						"totalSent()": "2425"
					}
				},
				"methodIdentifiers": {
					"contractBalance()": "8b7afe2e",
					"dangerousSend(address)": "41456ddb",
					"lastSuccess()": "9415bc59",
					"totalSent()": "46f99063"
				}
			},
			"storageLayout": {
				"storage": [
					{
						"astId": 13,
						"contract": "prac64.sol:ETHSenderVul",
						"label": "lastSuccess",
						"offset": 0,
						"slot": "0",
						"type": "t_bool"
					},
					{
						"astId": 15,
						"contract": "prac64.sol:ETHSenderVul",
						"label": "totalSent",
						"offset": 0,
						"slot": "1",
						"type": "t_uint256"
					}
				],
				"types": {
					"t_bool": {
						"encoding": "inplace",
						"label": "bool",
						"numberOfBytes": "1"
					},
					"t_uint256": {
						"encoding": "inplace",
						"label": "uint256",
						"numberOfBytes": "32"
					}
				}
			},
			"userdoc": {
				"kind": "user",
				"methods": {},
				"version": 1
			}
		}
	}
}