{
	"prac81.sol": {
		"SecureProxy": {
			"abi": [
				{
					"inputs": [
						{
							"internalType": "address",
							"name": "_logic",
							"type": "address"
						}
					],
					"stateMutability": "nonpayable",
					"type": "constructor"
				},
				{
					"inputs": [],
					"name": "logic",
					"outputs": [
						{
							"internalType": "address",
							"name": "",
							"type": "address"
						}
					],
					"stateMutability": "view",
					"type": "function"
				},
				{
					"inputs": [],
					"name": "num",
					"outputs": [
						{
							"internalType": "uint256",
							"name": "",
							"type": "uint256"
						}
					],
					"stateMutability": "view",
					"type": "function"
				},
				{
					"inputs": [],
					"name": "owner",
					"outputs": [
						{
							"internalType": "address",
							"name": "",
							"type": "address"
						}
					],
					"stateMutability": "view",
					"type": "function"
				},
				{
					"inputs": [],
					"name": "sender",
					"outputs": [
						{
							"internalType": "address",
							"name": "",
							"type": "address"
						}
					],
					"stateMutability": "view",
					"type": "function"
				},
				{
					"inputs": [
						{
							"internalType": "uint256",
							"name": "_num",
							"type": "uint256"
						}
					],
					"name": "setViaDelegate",
					"outputs": [],
					"stateMutability": "payable",
					"type": "function"
				}
			],
			"devdoc": {
				"kind": "dev",
				"methods": {},
				"version": 1
			},
			"evm": {
				"assembly": "    /* \"prac81.sol\":4303:5040  contract SecureProxy {... */\n  mstore(0x40, 0xa0)\n    /* \"prac81.sol\":4454:4603  constructor(address _logic) {... */\n  callvalue\n  dup1\n  iszero\n  tag_1\n  jumpi\n  revert(0x00, 0x00)\ntag_1:\n  pop\n  mload(0x40)\n  sub(codesize, bytecodeSize)\n  dup1\n  bytecodeSize\n  dup4\n  codecopy\n  dup2\n  dup2\n  add\n  0x40\n  mstore\n  dup2\n  add\n  swap1\n  tag_2\n  swap2\n  swap1\n  tag_3\n  jump\t// in\ntag_2:\n    /* \"prac81.sol\":4519:4520  0 */\n  0x00\n    /* \"prac81.sol\":4501:4521  _logic != address(0) */\n  0xffffffffffffffffffffffffffffffffffffffff\n  and\n    /* \"prac81.sol\":4501:4507  _logic */\n  dup2\n    /* \"prac81.sol\":4501:4521  _logic != address(0) */\n  0xffffffffffffffffffffffffffffffffffffffff\n  and\n  sub\n    /* \"prac81.sol\":4493:4539  require(_logic != address(0), \"Invalid logic\") */\n  tag_6\n  jumpi\n  mload(0x40)\n  0x08c379a000000000000000000000000000000000000000000000000000000000\n  dup2\n  mstore\n  0x04\n  add\n  tag_7\n  swap1\n  tag_8\n  jump\t// in\ntag_7:\n  mload(0x40)\n  dup1\n  swap2\n  sub\n  swap1\n  revert\ntag_6:\n    /* \"prac81.sol\":4560:4566  _logic */\n  dup1\n    /* \"prac81.sol\":4552:4566  logic = _logic */\n  0xffffffffffffffffffffffffffffffffffffffff\n  and\n  0x80\n  dup2\n  0xffffffffffffffffffffffffffffffffffffffff\n  and\n  dup2\n  mstore\n  pop\n  pop\n    /* \"prac81.sol\":4585:4595  msg.sender */\n  caller\n    /* \"prac81.sol\":4577:4582  owner */\n  0x02\n  0x00\n    /* \"prac81.sol\":4577:4595  owner = msg.sender */\n  0x0100\n  exp\n  dup2\n  sload\n  dup2\n  0xffffffffffffffffffffffffffffffffffffffff\n  mul\n  not\n  and\n  swap1\n  dup4\n  0xffffffffffffffffffffffffffffffffffffffff\n  and\n  mul\n  or\n  swap1\n  sstore\n  pop\n    /* \"prac81.sol\":4454:4603  constructor(address _logic) {... */\n  pop\n    /* \"prac81.sol\":4303:5040  contract SecureProxy {... */\n  jump(tag_9)\n    /* \"#utility.yul\":88:205   */\ntag_11:\n    /* \"#utility.yul\":197:198   */\n  0x00\n    /* \"#utility.yul\":194:195   */\n  0x00\n    /* \"#utility.yul\":187:199   */\n  revert\n    /* \"#utility.yul\":334:460   */\ntag_13:\n    /* \"#utility.yul\":371:378   */\n  0x00\n    /* \"#utility.yul\":411:453   */\n  0xffffffffffffffffffffffffffffffffffffffff\n    /* \"#utility.yul\":404:409   */\n  dup3\n    /* \"#utility.yul\":400:454   */\n  and\n    /* \"#utility.yul\":389:454   */\n  swap1\n  pop\n    /* \"#utility.yul\":334:460   */\n  swap2\n  swap1\n  pop\n  jump\t// out\n    /* \"#utility.yul\":466:562   */\ntag_14:\n    /* \"#utility.yul\":503:510   */\n  0x00\n    /* \"#utility.yul\":532:556   */\n  tag_26\n    /* \"#utility.yul\":550:555   */\n  dup3\n    /* \"#utility.yul\":532:556   */\n  tag_13\n  jump\t// in\ntag_26:\n    /* \"#utility.yul\":521:556   */\n  swap1\n  pop\n    /* \"#utility.yul\":466:562   */\n  swap2\n  swap1\n  pop\n  jump\t// out\n    /* \"#utility.yul\":568:690   */\ntag_15:\n    /* \"#utility.yul\":641:665   */\n  tag_28\n    /* \"#utility.yul\":659:664   */\n  dup2\n    /* \"#utility.yul\":641:665   */\n  tag_14\n  jump\t// in\ntag_28:\n    /* \"#utility.yul\":634:639   */\n  dup2\n    /* \"#utility.yul\":631:666   */\n  eq\n    /* \"#utility.yul\":621:684   */\n  tag_29\n  jumpi\n    /* \"#utility.yul\":680:681   */\n  0x00\n    /* \"#utility.yul\":677:678   */\n  0x00\n    /* \"#utility.yul\":670:682   */\n  revert\n    /* \"#utility.yul\":621:684   */\ntag_29:\n    /* \"#utility.yul\":568:690   */\n  pop\n  jump\t// out\n    /* \"#utility.yul\":696:839   */\ntag_16:\n    /* \"#utility.yul\":753:758   */\n  0x00\n    /* \"#utility.yul\":784:790   */\n  dup2\n    /* \"#utility.yul\":778:791   */\n  mload\n    /* \"#utility.yul\":769:791   */\n  swap1\n  pop\n    /* \"#utility.yul\":800:833   */\n  tag_31\n    /* \"#utility.yul\":827:832   */\n  dup2\n    /* \"#utility.yul\":800:833   */\n  tag_15\n  jump\t// in\ntag_31:\n    /* \"#utility.yul\":696:839   */\n  swap3\n  swap2\n  pop\n  pop\n  jump\t// out\n    /* \"#utility.yul\":845:1196   */\ntag_3:\n    /* \"#utility.yul\":915:921   */\n  0x00\n    /* \"#utility.yul\":964:966   */\n  0x20\n    /* \"#utility.yul\":952:961   */\n  dup3\n    /* \"#utility.yul\":943:950   */\n  dup5\n    /* \"#utility.yul\":939:962   */\n  sub\n    /* \"#utility.yul\":935:967   */\n  slt\n    /* \"#utility.yul\":932:1051   */\n  iszero\n  tag_33\n  jumpi\n    /* \"#utility.yul\":970:1049   */\n  tag_34\n  tag_11\n  jump\t// in\ntag_34:\n    /* \"#utility.yul\":932:1051   */\ntag_33:\n    /* \"#utility.yul\":1090:1091   */\n  0x00\n    /* \"#utility.yul\":1115:1179   */\n  tag_35\n    /* \"#utility.yul\":1171:1178   */\n  dup5\n    /* \"#utility.yul\":1162:1168   */\n  dup3\n    /* \"#utility.yul\":1151:1160   */\n  dup6\n    /* \"#utility.yul\":1147:1169   */\n  add\n    /* \"#utility.yul\":1115:1179   */\n  tag_16\n  jump\t// in\ntag_35:\n    /* \"#utility.yul\":1105:1179   */\n  swap2\n  pop\n    /* \"#utility.yul\":1061:1189   */\n  pop\n    /* \"#utility.yul\":845:1196   */\n  swap3\n  swap2\n  pop\n  pop\n  jump\t// out\n    /* \"#utility.yul\":1202:1371   */\ntag_17:\n    /* \"#utility.yul\":1286:1297   */\n  0x00\n    /* \"#utility.yul\":1320:1326   */\n  dup3\n    /* \"#utility.yul\":1315:1318   */\n  dup3\n    /* \"#utility.yul\":1308:1327   */\n  mstore\n    /* \"#utility.yul\":1360:1364   */\n  0x20\n    /* \"#utility.yul\":1355:1358   */\n  dup3\n    /* \"#utility.yul\":1351:1365   */\n  add\n    /* \"#utility.yul\":1336:1365   */\n  swap1\n  pop\n    /* \"#utility.yul\":1202:1371   */\n  swap3\n  swap2\n  pop\n  pop\n  jump\t// out\n    /* \"#utility.yul\":1377:1540   */\ntag_18:\n    /* \"#utility.yul\":1517:1532   */\n  0x496e76616c6964206c6f67696300000000000000000000000000000000000000\n    /* \"#utility.yul\":1513:1514   */\n  0x00\n    /* \"#utility.yul\":1505:1511   */\n  dup3\n    /* \"#utility.yul\":1501:1515   */\n  add\n    /* \"#utility.yul\":1494:1533   */\n  mstore\n    /* \"#utility.yul\":1377:1540   */\n  pop\n  jump\t// out\n    /* \"#utility.yul\":1546:1912   */\ntag_19:\n    /* \"#utility.yul\":1688:1691   */\n  0x00\n    /* \"#utility.yul\":1709:1776   */\n  tag_39\n    /* \"#utility.yul\":1773:1775   */\n  0x0d\n    /* \"#utility.yul\":1768:1771   */\n  dup4\n    /* \"#utility.yul\":1709:1776   */\n  tag_17\n  jump\t// in\ntag_39:\n    /* \"#utility.yul\":1702:1776   */\n  swap2\n  pop\n    /* \"#utility.yul\":1785:1878   */\n  tag_40\n    /* \"#utility.yul\":1874:1877   */\n  dup3\n    /* \"#utility.yul\":1785:1878   */\n  tag_18\n  jump\t// in\ntag_40:\n    /* \"#utility.yul\":1903:1905   */\n  0x20\n    /* \"#utility.yul\":1898:1901   */\n  dup3\n    /* \"#utility.yul\":1894:1906   */\n  add\n    /* \"#utility.yul\":1887:1906   */\n  swap1\n  pop\n    /* \"#utility.yul\":1546:1912   */\n  swap2\n  swap1\n  pop\n  jump\t// out\n    /* \"#utility.yul\":1918:2337   */\ntag_8:\n    /* \"#utility.yul\":2084:2088   */\n  0x00\n    /* \"#utility.yul\":2122:2124   */\n  0x20\n    /* \"#utility.yul\":2111:2120   */\n  dup3\n    /* \"#utility.yul\":2107:2125   */\n  add\n    /* \"#utility.yul\":2099:2125   */\n  swap1\n  pop\n    /* \"#utility.yul\":2171:2180   */\n  dup2\n    /* \"#utility.yul\":2165:2169   */\n  dup2\n    /* \"#utility.yul\":2161:2181   */\n  sub\n    /* \"#utility.yul\":2157:2158   */\n  0x00\n    /* \"#utility.yul\":2146:2155   */\n  dup4\n    /* \"#utility.yul\":2142:2159   */\n  add\n    /* \"#utility.yul\":2135:2182   */\n  mstore\n    /* \"#utility.yul\":2199:2330   */\n  tag_42\n    /* \"#utility.yul\":2325:2329   */\n  dup2\n    /* \"#utility.yul\":2199:2330   */\n  tag_19\n  jump\t// in\ntag_42:\n    /* \"#utility.yul\":2191:2330   */\n  swap1\n  pop\n    /* \"#utility.yul\":1918:2337   */\n  swap2\n  swap1\n  pop\n  jump\t// out\n    /* \"prac81.sol\":4303:5040  contract SecureProxy {... */\ntag_9:\n  mload(0x80)\n  codecopy(0x00, dataOffset(sub_0), dataSize(sub_0))\n  0x00\n  assignImmutable(\"0xcc193713febc75d3d9bd2f9ce113f403ff19633f15c8cdbcf79756ae23e77f9a\")\n  return(0x00, dataSize(sub_0))\nstop\n\nsub_0: assembly {\n        /* \"prac81.sol\":4303:5040  contract SecureProxy {... */\n      mstore(0x40, 0x80)\n      jumpi(tag_1, lt(calldatasize, 0x04))\n      shr(0xe0, calldataload(0x00))\n      dup1\n      0x4e70b1dc\n      eq\n      tag_2\n      jumpi\n      dup1\n      0x67e404ce\n      eq\n      tag_3\n      jumpi\n      dup1\n      0x8da5cb5b\n      eq\n      tag_4\n      jumpi\n      dup1\n      0xd7dfa0dd\n      eq\n      tag_5\n      jumpi\n      dup1\n      0xdf939062\n      eq\n      tag_6\n      jumpi\n    tag_1:\n      revert(0x00, 0x00)\n        /* \"prac81.sol\":4333:4351  uint256 public num */\n    tag_2:\n      callvalue\n      dup1\n      iszero\n      tag_7\n      jumpi\n      revert(0x00, 0x00)\n    tag_7:\n      pop\n      tag_8\n      tag_9\n      jump\t// in\n    tag_8:\n      mload(0x40)\n      tag_10\n      swap2\n      swap1\n      tag_11\n      jump\t// in\n    tag_10:\n      mload(0x40)\n      dup1\n      swap2\n      sub\n      swap1\n      return\n        /* \"prac81.sol\":4358:4379  address public sender */\n    tag_3:\n      callvalue\n      dup1\n      iszero\n      tag_12\n      jumpi\n      revert(0x00, 0x00)\n    tag_12:\n      pop\n      tag_13\n      tag_14\n      jump\t// in\n    tag_13:\n      mload(0x40)\n      tag_15\n      swap2\n      swap1\n      tag_16\n      jump\t// in\n    tag_15:\n      mload(0x40)\n      dup1\n      swap2\n      sub\n      swap1\n      return\n        /* \"prac81.sol\":4425:4445  address public owner */\n    tag_4:\n      callvalue\n      dup1\n      iszero\n      tag_17\n      jumpi\n      revert(0x00, 0x00)\n    tag_17:\n      pop\n      tag_18\n      tag_19\n      jump\t// in\n    tag_18:\n      mload(0x40)\n      tag_20\n      swap2\n      swap1\n      tag_16\n      jump\t// in\n    tag_20:\n      mload(0x40)\n      dup1\n      swap2\n      sub\n      swap1\n      return\n        /* \"prac81.sol\":4388:4418  address public immutable logic */\n    tag_5:\n      callvalue\n      dup1\n      iszero\n      tag_21\n      jumpi\n      revert(0x00, 0x00)\n    tag_21:\n      pop\n      tag_22\n      tag_23\n      jump\t// in\n    tag_22:\n      mload(0x40)\n      tag_24\n      swap2\n      swap1\n      tag_16\n      jump\t// in\n    tag_24:\n      mload(0x40)\n      dup1\n      swap2\n      sub\n      swap1\n      return\n        /* \"prac81.sol\":4712:5037  function setViaDelegate(uint256 _num)... */\n    tag_6:\n      tag_25\n      0x04\n      dup1\n      calldatasize\n      sub\n      dup2\n      add\n      swap1\n      tag_26\n      swap2\n      swap1\n      tag_27\n      jump\t// in\n    tag_26:\n      tag_28\n      jump\t// in\n    tag_25:\n      stop\n        /* \"prac81.sol\":4333:4351  uint256 public num */\n    tag_9:\n      sload(0x00)\n      dup2\n      jump\t// out\n        /* \"prac81.sol\":4358:4379  address public sender */\n    tag_14:\n      0x01\n      0x00\n      swap1\n      sload\n      swap1\n      0x0100\n      exp\n      swap1\n      div\n      0xffffffffffffffffffffffffffffffffffffffff\n      and\n      dup2\n      jump\t// out\n        /* \"prac81.sol\":4425:4445  address public owner */\n    tag_19:\n      0x02\n      0x00\n      swap1\n      sload\n      swap1\n      0x0100\n      exp\n      swap1\n      div\n      0xffffffffffffffffffffffffffffffffffffffff\n      and\n      dup2\n      jump\t// out\n        /* \"prac81.sol\":4388:4418  address public immutable logic */\n    tag_23:\n      immutable(\"0xcc193713febc75d3d9bd2f9ce113f403ff19633f15c8cdbcf79756ae23e77f9a\")\n      dup2\n      jump\t// out\n        /* \"prac81.sol\":4712:5037  function setViaDelegate(uint256 _num)... */\n    tag_28:\n        /* \"prac81.sol\":4665:4670  owner */\n      0x02\n      0x00\n      swap1\n      sload\n      swap1\n      0x0100\n      exp\n      swap1\n      div\n      0xffffffffffffffffffffffffffffffffffffffff\n      and\n        /* \"prac81.sol\":4651:4670  msg.sender == owner */\n      0xffffffffffffffffffffffffffffffffffffffff\n      and\n        /* \"prac81.sol\":4651:4661  msg.sender */\n      caller\n        /* \"prac81.sol\":4651:4670  msg.sender == owner */\n      0xffffffffffffffffffffffffffffffffffffffff\n      and\n      eq\n        /* \"prac81.sol\":4643:4684  require(msg.sender == owner, \"Not owner\") */\n      tag_30\n      jumpi\n      mload(0x40)\n      0x08c379a000000000000000000000000000000000000000000000000000000000\n      dup2\n      mstore\n      0x04\n      add\n      tag_31\n      swap1\n      tag_32\n      jump\t// in\n    tag_31:\n      mload(0x40)\n      dup1\n      swap2\n      sub\n      swap1\n      revert\n    tag_30:\n        /* \"prac81.sol\":4821:4833  bool success */\n      0x00\n        /* \"prac81.sol\":4839:4844  logic */\n      immutable(\"0xcc193713febc75d3d9bd2f9ce113f403ff19633f15c8cdbcf79756ae23e77f9a\")\n        /* \"prac81.sol\":4839:4857  logic.delegatecall */\n      0xffffffffffffffffffffffffffffffffffffffff\n      and\n        /* \"prac81.sol\":4947:4951  _num */\n      dup3\n        /* \"prac81.sol\":4872:4966  abi.encodeWithSignature(... */\n      add(0x24, mload(0x40))\n      tag_34\n      swap2\n      swap1\n      tag_11\n      jump\t// in\n    tag_34:\n      mload(0x40)\n      0x20\n      dup2\n      dup4\n      sub\n      sub\n      dup2\n      mstore\n      swap1\n      0x40\n      mstore\n      and(not(0xffffffffffffffffffffffffffffffffffffffffffffffffffffffff), 0x60fe47b100000000000000000000000000000000000000000000000000000000)\n      0x20\n      dup3\n      add\n      dup1\n      mload\n      0xffffffffffffffffffffffffffffffffffffffffffffffffffffffff\n      dup4\n      dup2\n      dup4\n      and\n      or\n      dup4\n      mstore\n      pop\n      pop\n      pop\n      pop\n        /* \"prac81.sol\":4839:4977  logic.delegatecall(... */\n      mload(0x40)\n      tag_35\n      swap2\n      swap1\n      tag_36\n      jump\t// in\n    tag_35:\n      0x00\n      mload(0x40)\n      dup1\n      dup4\n      sub\n      dup2\n      dup6\n      gas\n      delegatecall\n      swap2\n      pop\n      pop\n      returndatasize\n      dup1\n      0x00\n      dup2\n      eq\n      tag_39\n      jumpi\n      mload(0x40)\n      swap2\n      pop\n      and(add(returndatasize, 0x3f), not(0x1f))\n      dup3\n      add\n      0x40\n      mstore\n      returndatasize\n      dup3\n      mstore\n      returndatasize\n      0x00\n      0x20\n      dup5\n      add\n      returndatacopy\n      jump(tag_38)\n    tag_39:\n      0x60\n      swap2\n      pop\n    tag_38:\n      pop\n        /* \"prac81.sol\":4820:4977  (bool success, ) = logic.delegatecall(... */\n      pop\n      swap1\n      pop\n        /* \"prac81.sol\":4998:5005  success */\n      dup1\n        /* \"prac81.sol\":4990:5029  require(success, \"delegatecall failed\") */\n      tag_40\n      jumpi\n      mload(0x40)\n      0x08c379a000000000000000000000000000000000000000000000000000000000\n      dup2\n      mstore\n      0x04\n      add\n      tag_41\n      swap1\n      tag_42\n      jump\t// in\n    tag_41:\n      mload(0x40)\n      dup1\n      swap2\n      sub\n      swap1\n      revert\n    tag_40:\n        /* \"prac81.sol\":4809:5037  {... */\n      pop\n        /* \"prac81.sol\":4712:5037  function setViaDelegate(uint256 _num)... */\n      pop\n      jump\t// out\n        /* \"#utility.yul\":7:84   */\n    tag_43:\n        /* \"#utility.yul\":44:51   */\n      0x00\n        /* \"#utility.yul\":73:78   */\n      dup2\n        /* \"#utility.yul\":62:78   */\n      swap1\n      pop\n        /* \"#utility.yul\":7:84   */\n      swap2\n      swap1\n      pop\n      jump\t// out\n        /* \"#utility.yul\":90:208   */\n    tag_44:\n        /* \"#utility.yul\":177:201   */\n      tag_65\n        /* \"#utility.yul\":195:200   */\n      dup2\n        /* \"#utility.yul\":177:201   */\n      tag_43\n      jump\t// in\n    tag_65:\n        /* \"#utility.yul\":172:175   */\n      dup3\n        /* \"#utility.yul\":165:202   */\n      mstore\n        /* \"#utility.yul\":90:208   */\n      pop\n      pop\n      jump\t// out\n        /* \"#utility.yul\":214:436   */\n    tag_11:\n        /* \"#utility.yul\":307:311   */\n      0x00\n        /* \"#utility.yul\":345:347   */\n      0x20\n        /* \"#utility.yul\":334:343   */\n      dup3\n        /* \"#utility.yul\":330:348   */\n      add\n        /* \"#utility.yul\":322:348   */\n      swap1\n      pop\n        /* \"#utility.yul\":358:429   */\n      tag_67\n        /* \"#utility.yul\":426:427   */\n      0x00\n        /* \"#utility.yul\":415:424   */\n      dup4\n        /* \"#utility.yul\":411:428   */\n      add\n        /* \"#utility.yul\":402:408   */\n      dup5\n        /* \"#utility.yul\":358:429   */\n      tag_44\n      jump\t// in\n    tag_67:\n        /* \"#utility.yul\":214:436   */\n      swap3\n      swap2\n      pop\n      pop\n      jump\t// out\n        /* \"#utility.yul\":442:568   */\n    tag_45:\n        /* \"#utility.yul\":479:486   */\n      0x00\n        /* \"#utility.yul\":519:561   */\n      0xffffffffffffffffffffffffffffffffffffffff\n        /* \"#utility.yul\":512:517   */\n      dup3\n        /* \"#utility.yul\":508:562   */\n      and\n        /* \"#utility.yul\":497:562   */\n      swap1\n      pop\n        /* \"#utility.yul\":442:568   */\n      swap2\n      swap1\n      pop\n      jump\t// out\n        /* \"#utility.yul\":574:670   */\n    tag_46:\n        /* \"#utility.yul\":611:618   */\n      0x00\n        /* \"#utility.yul\":640:664   */\n      tag_70\n        /* \"#utility.yul\":658:663   */\n      dup3\n        /* \"#utility.yul\":640:664   */\n      tag_45\n      jump\t// in\n    tag_70:\n        /* \"#utility.yul\":629:664   */\n      swap1\n      pop\n        /* \"#utility.yul\":574:670   */\n      swap2\n      swap1\n      pop\n      jump\t// out\n        /* \"#utility.yul\":676:794   */\n    tag_47:\n        /* \"#utility.yul\":763:787   */\n      tag_72\n        /* \"#utility.yul\":781:786   */\n      dup2\n        /* \"#utility.yul\":763:787   */\n      tag_46\n      jump\t// in\n    tag_72:\n        /* \"#utility.yul\":758:761   */\n      dup3\n        /* \"#utility.yul\":751:788   */\n      mstore\n        /* \"#utility.yul\":676:794   */\n      pop\n      pop\n      jump\t// out\n        /* \"#utility.yul\":800:1022   */\n    tag_16:\n        /* \"#utility.yul\":893:897   */\n      0x00\n        /* \"#utility.yul\":931:933   */\n      0x20\n        /* \"#utility.yul\":920:929   */\n      dup3\n        /* \"#utility.yul\":916:934   */\n      add\n        /* \"#utility.yul\":908:934   */\n      swap1\n      pop\n        /* \"#utility.yul\":944:1015   */\n      tag_74\n        /* \"#utility.yul\":1012:1013   */\n      0x00\n        /* \"#utility.yul\":1001:1010   */\n      dup4\n        /* \"#utility.yul\":997:1014   */\n      add\n        /* \"#utility.yul\":988:994   */\n      dup5\n        /* \"#utility.yul\":944:1015   */\n      tag_47\n      jump\t// in\n    tag_74:\n        /* \"#utility.yul\":800:1022   */\n      swap3\n      swap2\n      pop\n      pop\n      jump\t// out\n        /* \"#utility.yul\":1109:1226   */\n    tag_49:\n        /* \"#utility.yul\":1218:1219   */\n      0x00\n        /* \"#utility.yul\":1215:1216   */\n      0x00\n        /* \"#utility.yul\":1208:1220   */\n      revert\n        /* \"#utility.yul\":1355:1477   */\n    tag_51:\n        /* \"#utility.yul\":1428:1452   */\n      tag_79\n        /* \"#utility.yul\":1446:1451   */\n      dup2\n        /* \"#utility.yul\":1428:1452   */\n      tag_43\n      jump\t// in\n    tag_79:\n        /* \"#utility.yul\":1421:1426   */\n      dup2\n        /* \"#utility.yul\":1418:1453   */\n      eq\n        /* \"#utility.yul\":1408:1471   */\n      tag_80\n      jumpi\n        /* \"#utility.yul\":1467:1468   */\n      0x00\n        /* \"#utility.yul\":1464:1465   */\n      0x00\n        /* \"#utility.yul\":1457:1469   */\n      revert\n        /* \"#utility.yul\":1408:1471   */\n    tag_80:\n        /* \"#utility.yul\":1355:1477   */\n      pop\n      jump\t// out\n        /* \"#utility.yul\":1483:1622   */\n    tag_52:\n        /* \"#utility.yul\":1529:1534   */\n      0x00\n        /* \"#utility.yul\":1567:1573   */\n      dup2\n        /* \"#utility.yul\":1554:1574   */\n      calldataload\n        /* \"#utility.yul\":1545:1574   */\n      swap1\n      pop\n        /* \"#utility.yul\":1583:1616   */\n      tag_82\n        /* \"#utility.yul\":1610:1615   */\n      dup2\n        /* \"#utility.yul\":1583:1616   */\n      tag_51\n      jump\t// in\n    tag_82:\n        /* \"#utility.yul\":1483:1622   */\n      swap3\n      swap2\n      pop\n      pop\n      jump\t// out\n        /* \"#utility.yul\":1628:1957   */\n    tag_27:\n        /* \"#utility.yul\":1687:1693   */\n      0x00\n        /* \"#utility.yul\":1736:1738   */\n      0x20\n        /* \"#utility.yul\":1724:1733   */\n      dup3\n        /* \"#utility.yul\":1715:1722   */\n      dup5\n        /* \"#utility.yul\":1711:1734   */\n      sub\n        /* \"#utility.yul\":1707:1739   */\n      slt\n        /* \"#utility.yul\":1704:1823   */\n      iszero\n      tag_84\n      jumpi\n        /* \"#utility.yul\":1742:1821   */\n      tag_85\n      tag_49\n      jump\t// in\n    tag_85:\n        /* \"#utility.yul\":1704:1823   */\n    tag_84:\n        /* \"#utility.yul\":1862:1863   */\n      0x00\n        /* \"#utility.yul\":1887:1940   */\n      tag_86\n        /* \"#utility.yul\":1932:1939   */\n      dup5\n        /* \"#utility.yul\":1923:1929   */\n      dup3\n        /* \"#utility.yul\":1912:1921   */\n      dup6\n        /* \"#utility.yul\":1908:1930   */\n      add\n        /* \"#utility.yul\":1887:1940   */\n      tag_52\n      jump\t// in\n    tag_86:\n        /* \"#utility.yul\":1877:1940   */\n      swap2\n      pop\n        /* \"#utility.yul\":1833:1950   */\n      pop\n        /* \"#utility.yul\":1628:1957   */\n      swap3\n      swap2\n      pop\n      pop\n      jump\t// out\n        /* \"#utility.yul\":1963:2132   */\n    tag_53:\n        /* \"#utility.yul\":2047:2058   */\n      0x00\n        /* \"#utility.yul\":2081:2087   */\n      dup3\n        /* \"#utility.yul\":2076:2079   */\n      dup3\n        /* \"#utility.yul\":2069:2088   */\n      mstore\n        /* \"#utility.yul\":2121:2125   */\n      0x20\n        /* \"#utility.yul\":2116:2119   */\n      dup3\n        /* \"#utility.yul\":2112:2126   */\n      add\n        /* \"#utility.yul\":2097:2126   */\n      swap1\n      pop\n        /* \"#utility.yul\":1963:2132   */\n      swap3\n      swap2\n      pop\n      pop\n      jump\t// out\n        /* \"#utility.yul\":2138:2297   */\n    tag_54:\n        /* \"#utility.yul\":2278:2289   */\n      0x4e6f74206f776e65720000000000000000000000000000000000000000000000\n        /* \"#utility.yul\":2274:2275   */\n      0x00\n        /* \"#utility.yul\":2266:2272   */\n      dup3\n        /* \"#utility.yul\":2262:2276   */\n      add\n        /* \"#utility.yul\":2255:2290   */\n      mstore\n        /* \"#utility.yul\":2138:2297   */\n      pop\n      jump\t// out\n        /* \"#utility.yul\":2303:2668   */\n    tag_55:\n        /* \"#utility.yul\":2445:2448   */\n      0x00\n        /* \"#utility.yul\":2466:2532   */\n      tag_90\n        /* \"#utility.yul\":2530:2531   */\n      0x09\n        /* \"#utility.yul\":2525:2528   */\n      dup4\n        /* \"#utility.yul\":2466:2532   */\n      tag_53\n      jump\t// in\n    tag_90:\n        /* \"#utility.yul\":2459:2532   */\n      swap2\n      pop\n        /* \"#utility.yul\":2541:2634   */\n      tag_91\n        /* \"#utility.yul\":2630:2633   */\n      dup3\n        /* \"#utility.yul\":2541:2634   */\n      tag_54\n      jump\t// in\n    tag_91:\n        /* \"#utility.yul\":2659:2661   */\n      0x20\n        /* \"#utility.yul\":2654:2657   */\n      dup3\n        /* \"#utility.yul\":2650:2662   */\n      add\n        /* \"#utility.yul\":2643:2662   */\n      swap1\n      pop\n        /* \"#utility.yul\":2303:2668   */\n      swap2\n      swap1\n      pop\n      jump\t// out\n        /* \"#utility.yul\":2674:3093   */\n    tag_32:\n        /* \"#utility.yul\":2840:2844   */\n      0x00\n        /* \"#utility.yul\":2878:2880   */\n      0x20\n        /* \"#utility.yul\":2867:2876   */\n      dup3\n        /* \"#utility.yul\":2863:2881   */\n      add\n        /* \"#utility.yul\":2855:2881   */\n      swap1\n      pop\n        /* \"#utility.yul\":2927:2936   */\n      dup2\n        /* \"#utility.yul\":2921:2925   */\n      dup2\n        /* \"#utility.yul\":2917:2937   */\n      sub\n        /* \"#utility.yul\":2913:2914   */\n      0x00\n        /* \"#utility.yul\":2902:2911   */\n      dup4\n        /* \"#utility.yul\":2898:2915   */\n      add\n        /* \"#utility.yul\":2891:2938   */\n      mstore\n        /* \"#utility.yul\":2955:3086   */\n      tag_93\n        /* \"#utility.yul\":3081:3085   */\n      dup2\n        /* \"#utility.yul\":2955:3086   */\n      tag_55\n      jump\t// in\n    tag_93:\n        /* \"#utility.yul\":2947:3086   */\n      swap1\n      pop\n        /* \"#utility.yul\":2674:3093   */\n      swap2\n      swap1\n      pop\n      jump\t// out\n        /* \"#utility.yul\":3099:3197   */\n    tag_56:\n        /* \"#utility.yul\":3150:3156   */\n      0x00\n        /* \"#utility.yul\":3184:3189   */\n      dup2\n        /* \"#utility.yul\":3178:3190   */\n      mload\n        /* \"#utility.yul\":3168:3190   */\n      swap1\n      pop\n        /* \"#utility.yul\":3099:3197   */\n      swap2\n      swap1\n      pop\n      jump\t// out\n        /* \"#utility.yul\":3203:3350   */\n    tag_57:\n        /* \"#utility.yul\":3304:3315   */\n      0x00\n        /* \"#utility.yul\":3341:3344   */\n      dup2\n        /* \"#utility.yul\":3326:3344   */\n      swap1\n      pop\n        /* \"#utility.yul\":3203:3350   */\n      swap3\n      swap2\n      pop\n      pop\n      jump\t// out\n        /* \"#utility.yul\":3356:3495   */\n    tag_58:\n        /* \"#utility.yul\":3445:3451   */\n      dup3\n        /* \"#utility.yul\":3440:3443   */\n      dup2\n        /* \"#utility.yul\":3435:3438   */\n      dup4\n        /* \"#utility.yul\":3429:3452   */\n      mcopy\n        /* \"#utility.yul\":3486:3487   */\n      0x00\n        /* \"#utility.yul\":3477:3483   */\n      dup4\n        /* \"#utility.yul\":3472:3475   */\n      dup4\n        /* \"#utility.yul\":3468:3484   */\n      add\n        /* \"#utility.yul\":3461:3488   */\n      mstore\n        /* \"#utility.yul\":3356:3495   */\n      pop\n      pop\n      pop\n      jump\t// out\n        /* \"#utility.yul\":3501:3887   */\n    tag_59:\n        /* \"#utility.yul\":3605:3608   */\n      0x00\n        /* \"#utility.yul\":3633:3671   */\n      tag_98\n        /* \"#utility.yul\":3665:3670   */\n      dup3\n        /* \"#utility.yul\":3633:3671   */\n      tag_56\n      jump\t// in\n    tag_98:\n        /* \"#utility.yul\":3687:3775   */\n      tag_99\n        /* \"#utility.yul\":3768:3774   */\n      dup2\n        /* \"#utility.yul\":3763:3766   */\n      dup6\n        /* \"#utility.yul\":3687:3775   */\n      tag_57\n      jump\t// in\n    tag_99:\n        /* \"#utility.yul\":3680:3775   */\n      swap4\n      pop\n        /* \"#utility.yul\":3784:3849   */\n      tag_100\n        /* \"#utility.yul\":3842:3848   */\n      dup2\n        /* \"#utility.yul\":3837:3840   */\n      dup6\n        /* \"#utility.yul\":3830:3834   */\n      0x20\n        /* \"#utility.yul\":3823:3828   */\n      dup7\n        /* \"#utility.yul\":3819:3835   */\n      add\n        /* \"#utility.yul\":3784:3849   */\n      tag_58\n      jump\t// in\n    tag_100:\n        /* \"#utility.yul\":3874:3880   */\n      dup1\n        /* \"#utility.yul\":3869:3872   */\n      dup5\n        /* \"#utility.yul\":3865:3881   */\n      add\n        /* \"#utility.yul\":3858:3881   */\n      swap2\n      pop\n        /* \"#utility.yul\":3609:3887   */\n      pop\n        /* \"#utility.yul\":3501:3887   */\n      swap3\n      swap2\n      pop\n      pop\n      jump\t// out\n        /* \"#utility.yul\":3893:4164   */\n    tag_36:\n        /* \"#utility.yul\":4023:4026   */\n      0x00\n        /* \"#utility.yul\":4045:4138   */\n      tag_102\n        /* \"#utility.yul\":4134:4137   */\n      dup3\n        /* \"#utility.yul\":4125:4131   */\n      dup5\n        /* \"#utility.yul\":4045:4138   */\n      tag_59\n      jump\t// in\n    tag_102:\n        /* \"#utility.yul\":4038:4138   */\n      swap2\n      pop\n        /* \"#utility.yul\":4155:4158   */\n      dup2\n        /* \"#utility.yul\":4148:4158   */\n      swap1\n      pop\n        /* \"#utility.yul\":3893:4164   */\n      swap3\n      swap2\n      pop\n      pop\n      jump\t// out\n        /* \"#utility.yul\":4170:4339   */\n    tag_60:\n        /* \"#utility.yul\":4310:4331   */\n      0x64656c656761746563616c6c206661696c656400000000000000000000000000\n        /* \"#utility.yul\":4306:4307   */\n      0x00\n        /* \"#utility.yul\":4298:4304   */\n      dup3\n        /* \"#utility.yul\":4294:4308   */\n      add\n        /* \"#utility.yul\":4287:4332   */\n      mstore\n        /* \"#utility.yul\":4170:4339   */\n      pop\n      jump\t// out\n        /* \"#utility.yul\":4345:4711   */\n    tag_61:\n        /* \"#utility.yul\":4487:4490   */\n      0x00\n        /* \"#utility.yul\":4508:4575   */\n      tag_105\n        /* \"#utility.yul\":4572:4574   */\n      0x13\n        /* \"#utility.yul\":4567:4570   */\n      dup4\n        /* \"#utility.yul\":4508:4575   */\n      tag_53\n      jump\t// in\n    tag_105:\n        /* \"#utility.yul\":4501:4575   */\n      swap2\n      pop\n        /* \"#utility.yul\":4584:4677   */\n      tag_106\n        /* \"#utility.yul\":4673:4676   */\n      dup3\n        /* \"#utility.yul\":4584:4677   */\n      tag_60\n      jump\t// in\n    tag_106:\n        /* \"#utility.yul\":4702:4704   */\n      0x20\n        /* \"#utility.yul\":4697:4700   */\n      dup3\n        /* \"#utility.yul\":4693:4705   */\n      add\n        /* \"#utility.yul\":4686:4705   */\n      swap1\n      pop\n        /* \"#utility.yul\":4345:4711   */\n      swap2\n      swap1\n      pop\n      jump\t// out\n        /* \"#utility.yul\":4717:5136   */\n    tag_42:\n        /* \"#utility.yul\":4883:4887   */\n      0x00\n        /* \"#utility.yul\":4921:4923   */\n      0x20\n        /* \"#utility.yul\":4910:4919   */\n      dup3\n        /* \"#utility.yul\":4906:4924   */\n      add\n        /* \"#utility.yul\":4898:4924   */\n      swap1\n      pop\n        /* \"#utility.yul\":4970:4979   */\n      dup2\n        /* \"#utility.yul\":4964:4968   */\n      dup2\n        /* \"#utility.yul\":4960:4980   */\n      sub\n        /* \"#utility.yul\":4956:4957   */\n      0x00\n        /* \"#utility.yul\":4945:4954   */\n      dup4\n        /* \"#utility.yul\":4941:4958   */\n      add\n        /* \"#utility.yul\":4934:4981   */\n      mstore\n        /* \"#utility.yul\":4998:5129   */\n      tag_108\n        /* \"#utility.yul\":5124:5128   */\n      dup2\n        /* \"#utility.yul\":4998:5129   */\n      tag_61\n      jump\t// in\n    tag_108:\n        /* \"#utility.yul\":4990:5129   */\n      swap1\n      pop\n        /* \"#utility.yul\":4717:5136   */\n      swap2\n      swap1\n      pop\n      jump\t// out\n\n    auxdata: 0xa2646970667358221220e9943211c0d2fdbb8d58f7c2003efe1fb877116ca3f69f8443e2860aeab5781564736f6c63430008220033\n}\n",
				"bytecode": {
					"linkReferences": {},
					"object": "60a060405234801561000f575f5ffd5b5060405161080438038061080483398181016040528101906100319190610177565b5f73ffffffffffffffffffffffffffffffffffffffff168173ffffffffffffffffffffffffffffffffffffffff160361009f576040517f08c379a0000000000000000000000000000000000000000000000000000000008152600401610096906101fc565b60405180910390fd5b8073ffffffffffffffffffffffffffffffffffffffff1660808173ffffffffffffffffffffffffffffffffffffffff16815250503360025f6101000a81548173ffffffffffffffffffffffffffffffffffffffff021916908373ffffffffffffffffffffffffffffffffffffffff1602179055505061021a565b5f5ffd5b5f73ffffffffffffffffffffffffffffffffffffffff82169050919050565b5f6101468261011d565b9050919050565b6101568161013c565b8114610160575f5ffd5b50565b5f815190506101718161014d565b92915050565b5f6020828403121561018c5761018b610119565b5b5f61019984828501610163565b91505092915050565b5f82825260208201905092915050565b7f496e76616c6964206c6f676963000000000000000000000000000000000000005f82015250565b5f6101e6600d836101a2565b91506101f1826101b2565b602082019050919050565b5f6020820190508181035f830152610213816101da565b9050919050565b6080516105cb6102395f395f8181610162015261021601526105cb5ff3fe608060405260043610610049575f3560e01c80634e70b1dc1461004d57806367e404ce146100775780638da5cb5b146100a1578063d7dfa0dd146100cb578063df939062146100f5575b5f5ffd5b348015610058575f5ffd5b50610061610111565b60405161006e9190610383565b60405180910390f35b348015610082575f5ffd5b5061008b610116565b60405161009891906103db565b60405180910390f35b3480156100ac575f5ffd5b506100b561013b565b6040516100c291906103db565b60405180910390f35b3480156100d6575f5ffd5b506100df610160565b6040516100ec91906103db565b60405180910390f35b61010f600480360381019061010a9190610422565b610184565b005b5f5481565b60015f9054906101000a900473ffffffffffffffffffffffffffffffffffffffff1681565b60025f9054906101000a900473ffffffffffffffffffffffffffffffffffffffff1681565b7f000000000000000000000000000000000000000000000000000000000000000081565b60025f9054906101000a900473ffffffffffffffffffffffffffffffffffffffff1673ffffffffffffffffffffffffffffffffffffffff163373ffffffffffffffffffffffffffffffffffffffff1614610213576040517f08c379a000000000000000000000000000000000000000000000000000000000815260040161020a906104a7565b60405180910390fd5b5f7f000000000000000000000000000000000000000000000000000000000000000073ffffffffffffffffffffffffffffffffffffffff168260405160240161025c9190610383565b6040516020818303038152906040527f60fe47b1000000000000000000000000000000000000000000000000000000007bffffffffffffffffffffffffffffffffffffffffffffffffffffffff19166020820180517bffffffffffffffffffffffffffffffffffffffffffffffffffffffff83818316178352505050506040516102e69190610517565b5f60405180830381855af49150503d805f811461031e576040519150601f19603f3d011682016040523d82523d5f602084013e610323565b606091505b5050905080610367576040517f08c379a000000000000000000000000000000000000000000000000000000000815260040161035e90610577565b60405180910390fd5b5050565b5f819050919050565b61037d8161036b565b82525050565b5f6020820190506103965f830184610374565b92915050565b5f73ffffffffffffffffffffffffffffffffffffffff82169050919050565b5f6103c58261039c565b9050919050565b6103d5816103bb565b82525050565b5f6020820190506103ee5f8301846103cc565b92915050565b5f5ffd5b6104018161036b565b811461040b575f5ffd5b50565b5f8135905061041c816103f8565b92915050565b5f60208284031215610437576104366103f4565b5b5f6104448482850161040e565b91505092915050565b5f82825260208201905092915050565b7f4e6f74206f776e657200000000000000000000000000000000000000000000005f82015250565b5f61049160098361044d565b915061049c8261045d565b602082019050919050565b5f6020820190508181035f8301526104be81610485565b9050919050565b5f81519050919050565b5f81905092915050565b8281835e5f83830152505050565b5f6104f1826104c5565b6104fb81856104cf565b935061050b8185602086016104d9565b80840191505092915050565b5f61052282846104e7565b915081905092915050565b7f64656c656761746563616c6c206661696c6564000000000000000000000000005f82015250565b5f61056160138361044d565b915061056c8261052d565b602082019050919050565b5f6020820190508181035f83015261058e81610555565b905091905056fea2646970667358221220e9943211c0d2fdbb8d58f7c2003efe1fb877116ca3f69f8443e2860aeab5781564736f6c63430008220033",
					"opcodes": "PUSH1 0xA0 PUSH1 0x40 MSTORE CALLVALUE DUP1 ISZERO PUSH2 0xF JUMPI PUSH0 PUSH0 REVERT JUMPDEST POP PUSH1 0x40 MLOAD PUSH2 0x804 CODESIZE SUB DUP1 PUSH2 0x804 DUP4 CODECOPY DUP2 DUP2 ADD PUSH1 0x40 MSTORE DUP2 ADD SWAP1 PUSH2 0x31 SWAP2 SWAP1 PUSH2 0x177 JUMP JUMPDEST PUSH0 PUSH20 0xFFFFFFFFFFFFFFFFFFFFFFFFFFFFFFFFFFFFFFFF AND DUP2 PUSH20 0xFFFFFFFFFFFFFFFFFFFFFFFFFFFFFFFFFFFFFFFF AND SUB PUSH2 0x9F JUMPI PUSH1 0x40 MLOAD PUSH32 0x8C379A000000000000000000000000000000000000000000000000000000000 DUP2 MSTORE PUSH1 0x4 ADD PUSH2 0x96 SWAP1 PUSH2 0x1FC JUMP JUMPDEST PUSH1 0x40 MLOAD DUP1 SWAP2 SUB SWAP1 REVERT JUMPDEST DUP1 PUSH20 0xFFFFFFFFFFFFFFFFFFFFFFFFFFFFFFFFFFFFFFFF AND PUSH1 0x80 DUP2 PUSH20 0xFFFFFFFFFFFFFFFFFFFFFFFFFFFFFFFFFFFFFFFF AND DUP2 MSTORE POP POP CALLER PUSH1 0x2 PUSH0 PUSH2 0x100 EXP DUP2 SLOAD DUP2 PUSH20 0xFFFFFFFFFFFFFFFFFFFFFFFFFFFFFFFFFFFFFFFF MUL NOT AND SWAP1 DUP4 PUSH20 0xFFFFFFFFFFFFFFFFFFFFFFFFFFFFFFFFFFFFFFFF AND MUL OR SWAP1 SSTORE POP POP PUSH2 0x21A JUMP JUMPDEST PUSH0 PUSH0 REVERT JUMPDEST PUSH0 PUSH20 0xFFFFFFFFFFFFFFFFFFFFFFFFFFFFFFFFFFFFFFFF DUP3 AND SWAP1 POP SWAP2 SWAP1 POP JUMP JUMPDEST PUSH0 PUSH2 0x146 DUP3 PUSH2 0x11D JUMP JUMPDEST SWAP1 POP SWAP2 SWAP1 POP JUMP JUMPDEST PUSH2 0x156 DUP2 PUSH2 0x13C JUMP JUMPDEST DUP2 EQ PUSH2 0x160 JUMPI PUSH0 PUSH0 REVERT JUMPDEST POP JUMP JUMPDEST PUSH0 DUP2 MLOAD SWAP1 POP PUSH2 0x171 DUP2 PUSH2 0x14D JUMP JUMPDEST SWAP3 SWAP2 POP POP JUMP JUMPDEST PUSH0 PUSH1 0x20 DUP3 DUP5 SUB SLT ISZERO PUSH2 0x18C JUMPI PUSH2 0x18B PUSH2 0x119 JUMP JUMPDEST JUMPDEST PUSH0 PUSH2 0x199 DUP5 DUP3 DUP6 ADD PUSH2 0x163 JUMP JUMPDEST SWAP2 POP POP SWAP3 SWAP2 POP POP JUMP JUMPDEST PUSH0 DUP3 DUP3 MSTORE PUSH1 0x20 DUP3 ADD SWAP1 POP SWAP3 SWAP2 POP POP JUMP JUMPDEST PUSH32 0x496E76616C6964206C6F67696300000000000000000000000000000000000000 PUSH0 DUP3 ADD MSTORE POP JUMP JUMPDEST PUSH0 PUSH2 0x1E6 PUSH1 0xD DUP4 PUSH2 0x1A2 JUMP JUMPDEST SWAP2 POP PUSH2 0x1F1 DUP3 PUSH2 0x1B2 JUMP JUMPDEST PUSH1 0x20 DUP3 ADD SWAP1 POP SWAP2 SWAP1 POP JUMP JUMPDEST PUSH0 PUSH1 0x20 DUP3 ADD SWAP1 POP DUP2 DUP2 SUB PUSH0 DUP4 ADD MSTORE PUSH2 0x213 DUP2 PUSH2 0x1DA JUMP JUMPDEST SWAP1 POP SWAP2 SWAP1 POP JUMP JUMPDEST PUSH1 0x80 MLOAD PUSH2 0x5CB PUSH2 0x239 PUSH0 CODECOPY PUSH0 DUP2 DUP2 PUSH2 0x162 ADD MSTORE PUSH2 0x216 ADD MSTORE PUSH2 0x5CB PUSH0 RETURN INVALID PUSH1 0x80 PUSH1 0x40 MSTORE PUSH1 0x4 CALLDATASIZE LT PUSH2 0x49 JUMPI PUSH0 CALLDATALOAD PUSH1 0xE0 SHR DUP1 PUSH4 0x4E70B1DC EQ PUSH2 0x4D JUMPI DUP1 PUSH4 0x67E404CE EQ PUSH2 0x77 JUMPI DUP1 PUSH4 0x8DA5CB5B EQ PUSH2 0xA1 JUMPI DUP1 PUSH4 0xD7DFA0DD EQ PUSH2 0xCB JUMPI DUP1 PUSH4 0xDF939062 EQ PUSH2 0xF5 JUMPI JUMPDEST PUSH0 PUSH0 REVERT JUMPDEST CALLVALUE DUP1 ISZERO PUSH2 0x58 JUMPI PUSH0 PUSH0 REVERT JUMPDEST POP PUSH2 0x61 PUSH2 0x111 JUMP JUMPDEST PUSH1 0x40 MLOAD PUSH2 0x6E SWAP2 SWAP1 PUSH2 0x383 JUMP JUMPDEST PUSH1 0x40 MLOAD DUP1 SWAP2 SUB SWAP1 RETURN JUMPDEST CALLVALUE DUP1 ISZERO PUSH2 0x82 JUMPI PUSH0 PUSH0 REVERT JUMPDEST POP PUSH2 0x8B PUSH2 0x116 JUMP JUMPDEST PUSH1 0x40 MLOAD PUSH2 0x98 SWAP2 SWAP1 PUSH2 0x3DB JUMP JUMPDEST PUSH1 0x40 MLOAD DUP1 SWAP2 SUB SWAP1 RETURN JUMPDEST CALLVALUE DUP1 ISZERO PUSH2 0xAC JUMPI PUSH0 PUSH0 REVERT JUMPDEST POP PUSH2 0xB5 PUSH2 0x13B JUMP JUMPDEST PUSH1 0x40 MLOAD PUSH2 0xC2 SWAP2 SWAP1 PUSH2 0x3DB JUMP JUMPDEST PUSH1 0x40 MLOAD DUP1 SWAP2 SUB SWAP1 RETURN JUMPDEST CALLVALUE DUP1 ISZERO PUSH2 0xD6 JUMPI PUSH0 PUSH0 REVERT JUMPDEST POP PUSH2 0xDF PUSH2 0x160 JUMP JUMPDEST PUSH1 0x40 MLOAD PUSH2 0xEC SWAP2 SWAP1 PUSH2 0x3DB JUMP JUMPDEST PUSH1 0x40 MLOAD DUP1 SWAP2 SUB SWAP1 RETURN JUMPDEST PUSH2 0x10F PUSH1 0x4 DUP1 CALLDATASIZE SUB DUP2 ADD SWAP1 PUSH2 0x10A SWAP2 SWAP1 PUSH2 0x422 JUMP JUMPDEST PUSH2 0x184 JUMP JUMPDEST STOP JUMPDEST PUSH0 SLOAD DUP2 JUMP JUMPDEST PUSH1 0x1 PUSH0 SWAP1 SLOAD SWAP1 PUSH2 0x100 EXP SWAP1 DIV PUSH20 0xFFFFFFFFFFFFFFFFFFFFFFFFFFFFFFFFFFFFFFFF AND DUP2 JUMP JUMPDEST PUSH1 0x2 PUSH0 SWAP1 SLOAD SWAP1 PUSH2 0x100 EXP SWAP1 DIV PUSH20 0xFFFFFFFFFFFFFFFFFFFFFFFFFFFFFFFFFFFFFFFF AND DUP2 JUMP JUMPDEST PUSH32 0x0 DUP2 JUMP JUMPDEST PUSH1 0x2 PUSH0 SWAP1 SLOAD SWAP1 PUSH2 0x100 EXP SWAP1 DIV PUSH20 0xFFFFFFFFFFFFFFFFFFFFFFFFFFFFFFFFFFFFFFFF AND PUSH20 0xFFFFFFFFFFFFFFFFFFFFFFFFFFFFFFFFFFFFFFFF AND CALLER PUSH20 0xFFFFFFFFFFFFFFFFFFFFFFFFFFFFFFFFFFFFFFFF AND EQ PUSH2 0x213 JUMPI PUSH1 0x40 MLOAD PUSH32 0x8C379A000000000000000000000000000000000000000000000000000000000 DUP2 MSTORE PUSH1 0x4 ADD PUSH2 0x20A SWAP1 PUSH2 0x4A7 JUMP JUMPDEST PUSH1 0x40 MLOAD DUP1 SWAP2 SUB SWAP1 REVERT JUMPDEST PUSH0 PUSH32 0x0 PUSH20 0xFFFFFFFFFFFFFFFFFFFFFFFFFFFFFFFFFFFFFFFF AND DUP3 PUSH1 0x40 MLOAD PUSH1 0x24 ADD PUSH2 0x25C SWAP2 SWAP1 PUSH2 0x383 JUMP JUMPDEST PUSH1 0x40 MLOAD PUSH1 0x20 DUP2 DUP4 SUB SUB DUP2 MSTORE SWAP1 PUSH1 0x40 MSTORE PUSH32 0x60FE47B100000000000000000000000000000000000000000000000000000000 PUSH28 0xFFFFFFFFFFFFFFFFFFFFFFFFFFFFFFFFFFFFFFFFFFFFFFFFFFFFFFFF NOT AND PUSH1 0x20 DUP3 ADD DUP1 MLOAD PUSH28 0xFFFFFFFFFFFFFFFFFFFFFFFFFFFFFFFFFFFFFFFFFFFFFFFFFFFFFFFF DUP4 DUP2 DUP4 AND OR DUP4 MSTORE POP POP POP POP PUSH1 0x40 MLOAD PUSH2 0x2E6 SWAP2 SWAP1 PUSH2 0x517 JUMP JUMPDEST PUSH0 PUSH1 0x40 MLOAD DUP1 DUP4 SUB DUP2 DUP6 GAS DELEGATECALL SWAP2 POP POP RETURNDATASIZE DUP1 PUSH0 DUP2 EQ PUSH2 0x31E JUMPI PUSH1 0x40 MLOAD SWAP2 POP PUSH1 0x1F NOT PUSH1 0x3F RETURNDATASIZE ADD AND DUP3 ADD PUSH1 0x40 MSTORE RETURNDATASIZE DUP3 MSTORE RETURNDATASIZE PUSH0 PUSH1 0x20 DUP5 ADD RETURNDATACOPY PUSH2 0x323 JUMP JUMPDEST PUSH1 0x60 SWAP2 POP JUMPDEST POP POP SWAP1 POP DUP1 PUSH2 0x367 JUMPI PUSH1 0x40 MLOAD PUSH32 0x8C379A000000000000000000000000000000000000000000000000000000000 DUP2 MSTORE PUSH1 0x4 ADD PUSH2 0x35E SWAP1 PUSH2 0x577 JUMP JUMPDEST PUSH1 0x40 MLOAD DUP1 SWAP2 SUB SWAP1 REVERT JUMPDEST POP POP JUMP JUMPDEST PUSH0 DUP2 SWAP1 POP SWAP2 SWAP1 POP JUMP JUMPDEST PUSH2 0x37D DUP2 PUSH2 0x36B JUMP JUMPDEST DUP3 MSTORE POP POP JUMP JUMPDEST PUSH0 PUSH1 0x20 DUP3 ADD SWAP1 POP PUSH2 0x396 PUSH0 DUP4 ADD DUP5 PUSH2 0x374 JUMP JUMPDEST SWAP3 SWAP2 POP POP JUMP JUMPDEST PUSH0 PUSH20 0xFFFFFFFFFFFFFFFFFFFFFFFFFFFFFFFFFFFFFFFF DUP3 AND SWAP1 POP SWAP2 SWAP1 POP JUMP JUMPDEST PUSH0 PUSH2 0x3C5 DUP3 PUSH2 0x39C JUMP JUMPDEST SWAP1 POP SWAP2 SWAP1 POP JUMP JUMPDEST PUSH2 0x3D5 DUP2 PUSH2 0x3BB JUMP JUMPDEST DUP3 MSTORE POP POP JUMP JUMPDEST PUSH0 PUSH1 0x20 DUP3 ADD SWAP1 POP PUSH2 0x3EE PUSH0 DUP4 ADD DUP5 PUSH2 0x3CC JUMP JUMPDEST SWAP3 SWAP2 POP POP JUMP JUMPDEST PUSH0 PUSH0 REVERT JUMPDEST PUSH2 0x401 DUP2 PUSH2 0x36B JUMP JUMPDEST DUP2 EQ PUSH2 0x40B JUMPI PUSH0 PUSH0 REVERT JUMPDEST POP JUMP JUMPDEST PUSH0 DUP2 CALLDATALOAD SWAP1 POP PUSH2 0x41C DUP2 PUSH2 0x3F8 JUMP JUMPDEST SWAP3 SWAP2 POP POP JUMP JUMPDEST PUSH0 PUSH1 0x20 DUP3 DUP5 SUB SLT ISZERO PUSH2 0x437 JUMPI PUSH2 0x436 PUSH2 0x3F4 JUMP JUMPDEST JUMPDEST PUSH0 PUSH2 0x444 DUP5 DUP3 DUP6 ADD PUSH2 0x40E JUMP JUMPDEST SWAP2 POP POP SWAP3 SWAP2 POP POP JUMP JUMPDEST PUSH0 DUP3 DUP3 MSTORE PUSH1 0x20 DUP3 ADD SWAP1 POP SWAP3 SWAP2 POP POP JUMP JUMPDEST PUSH32 0x4E6F74206F776E65720000000000000000000000000000000000000000000000 PUSH0 DUP3 ADD MSTORE POP JUMP JUMPDEST PUSH0 PUSH2 0x491 PUSH1 0x9 DUP4 PUSH2 0x44D JUMP JUMPDEST SWAP2 POP PUSH2 0x49C DUP3 PUSH2 0x45D JUMP JUMPDEST PUSH1 0x20 DUP3 ADD SWAP1 POP SWAP2 SWAP1 POP JUMP JUMPDEST PUSH0 PUSH1 0x20 DUP3 ADD SWAP1 POP DUP2 DUP2 SUB PUSH0 DUP4 ADD MSTORE PUSH2 0x4BE DUP2 PUSH2 0x485 JUMP JUMPDEST SWAP1 POP SWAP2 SWAP1 POP JUMP JUMPDEST PUSH0 DUP2 MLOAD SWAP1 POP SWAP2 SWAP1 POP JUMP JUMPDEST PUSH0 DUP2 SWAP1 POP SWAP3 SWAP2 POP POP JUMP JUMPDEST DUP3 DUP2 DUP4 MCOPY PUSH0 DUP4 DUP4 ADD MSTORE POP POP POP JUMP JUMPDEST PUSH0 PUSH2 0x4F1 DUP3 PUSH2 0x4C5 JUMP JUMPDEST PUSH2 0x4FB DUP2 DUP6 PUSH2 0x4CF JUMP JUMPDEST SWAP4 POP PUSH2 0x50B DUP2 DUP6 PUSH1 0x20 DUP7 ADD PUSH2 0x4D9 JUMP JUMPDEST DUP1 DUP5 ADD SWAP2 POP POP SWAP3 SWAP2 POP POP JUMP JUMPDEST PUSH0 PUSH2 0x522 DUP3 DUP5 PUSH2 0x4E7 JUMP JUMPDEST SWAP2 POP DUP2 SWAP1 POP SWAP3 SWAP2 POP POP JUMP JUMPDEST PUSH32 0x64656C656761746563616C6C206661696C656400000000000000000000000000 PUSH0 DUP3 ADD MSTORE POP JUMP JUMPDEST PUSH0 PUSH2 0x561 PUSH1 0x13 DUP4 PUSH2 0x44D JUMP JUMPDEST SWAP2 POP PUSH2 0x56C DUP3 PUSH2 0x52D JUMP JUMPDEST PUSH1 0x20 DUP3 ADD SWAP1 POP SWAP2 SWAP1 POP JUMP JUMPDEST PUSH0 PUSH1 0x20 DUP3 ADD SWAP1 POP DUP2 DUP2 SUB PUSH0 DUP4 ADD MSTORE PUSH2 0x58E DUP2 PUSH2 0x555 JUMP JUMPDEST SWAP1 POP SWAP2 SWAP1 POP JUMP INVALID LOG2 PUSH5 0x6970667358 0x22 SLT KECCAK256 0xE9 SWAP5 ORIGIN GT 0xC0 0xD2 REVERT 0xBB DUP14 PC 0xF7 0xC2 STOP RETURNDATACOPY INVALID 0x1F 0xB8 PUSH24 0x116CA3F69F8443E2860AEAB5781564736F6C634300082200 CALLER "
				},
				"gasEstimates": {
					"creation": {
						"codeDepositCost": "296600",
						"executionCost": "infinite",
						"totalCost": "infinite"
					},
					"external": {
						"logic()": "infinite",
						"num()": "2402",
						"owner()": "2530",
						"sender()": "2508",
						"setViaDelegate(uint256)": "infinite"
					}
				},
				"methodIdentifiers": {
					"logic()": "d7dfa0dd",
					"num()": "4e70b1dc",
					"owner()": "8da5cb5b",
					"sender()": "67e404ce",
					"setViaDelegate(uint256)": "df939062"
				}
			},
			"storageLayout": {
				"storage": [
					{
						"astId": 82,
						"contract": "prac81.sol:SecureProxy",
						"label": "num",
						"offset": 0,
						"slot": "0",
						"type": "t_uint256"
					},
					{
						"astId": 84,
						"contract": "prac81.sol:SecureProxy",
						"label": "sender",
						"offset": 0,
						"slot": "1",
						"type": "t_address"
					},
					{
						"astId": 88,
						"contract": "prac81.sol:SecureProxy",
						"label": "owner",
						"offset": 0,
						"slot": "2",
						"type": "t_address"
					}
				],
				"types": {
					"t_address": {
						"encoding": "inplace",
						"label": "address",
						"numberOfBytes": "20"
					},
					"t_uint256": {
						"encoding": "inplace",
						"label": "uint256",
						"numberOfBytes": "32"
					}
				}
			},
			"userdoc": {
				"kind": "user",
				"methods": {},
				"version": 1
			}
		}
	}
}