{
	"prac52.sol": {
		"EthTransferMechanicsVul": {
			"abi": [
				{
					"inputs": [
						{
							"internalType": "address",
							"name": "",
							"type": "address"
						}
					],
					"name": "balances",
					"outputs": [
						{
							"internalType": "uint256",
							"name": "",
							"type": "uint256"
						}
					],
					"stateMutability": "view",
					"type": "function"
				},
				{
					"inputs": [],
					"name": "contractBalance",
					"outputs": [
						{
							"internalType": "uint256",
							"name": "",
							"type": "uint256"
						}
					],
					"stateMutability": "view",
					"type": "function"
				},
				{
					"inputs": [],
					"name": "deposit",
					"outputs": [],
					"stateMutability": "payable",
					"type": "function"
				},
				{
					"inputs": [
						{
							"internalType": "uint256",
							"name": "_amount",
							"type": "uint256"
						}
					],
					"name": "withdraw",
					"outputs": [],
					"stateMutability": "nonpayable",
					"type": "function"
				}
			],
			"devdoc": {
				"kind": "dev",
				"methods": {},
				"version": 1
			},
			"evm": {
				"assembly": "    /* \"prac52.sol\":1773:2944  contract EthTransferMechanicsVul {... */\n  mstore(0x40, 0x80)\n  callvalue\n  dup1\n  iszero\n  tag_1\n  jumpi\n  revert(0x00, 0x00)\ntag_1:\n  pop\n  dataSize(sub_0)\n  dup1\n  dataOffset(sub_0)\n  0x00\n  codecopy\n  0x00\n  return\nstop\n\nsub_0: assembly {\n        /* \"prac52.sol\":1773:2944  contract EthTransferMechanicsVul {... */\n      mstore(0x40, 0x80)\n      jumpi(tag_1, lt(calldatasize, 0x04))\n      shr(0xe0, calldataload(0x00))\n      dup1\n      0x27e235e3\n      eq\n      tag_2\n      jumpi\n      dup1\n      0x2e1a7d4d\n      eq\n      tag_3\n      jumpi\n      dup1\n      0x8b7afe2e\n      eq\n      tag_4\n      jumpi\n      dup1\n      0xd0e30db0\n      eq\n      tag_5\n      jumpi\n    tag_1:\n      revert(0x00, 0x00)\n        /* \"prac52.sol\":1815:1858  mapping(address => uint256) public balances */\n    tag_2:\n      callvalue\n      dup1\n      iszero\n      tag_6\n      jumpi\n      revert(0x00, 0x00)\n    tag_6:\n      pop\n      tag_7\n      0x04\n      dup1\n      calldatasize\n      sub\n      dup2\n      add\n      swap1\n      tag_8\n      swap2\n      swap1\n      tag_9\n      jump\t// in\n    tag_8:\n      tag_10\n      jump\t// in\n    tag_7:\n      mload(0x40)\n      tag_11\n      swap2\n      swap1\n      tag_12\n      jump\t// in\n    tag_11:\n      mload(0x40)\n      dup1\n      swap2\n      sub\n      swap1\n      return\n        /* \"prac52.sol\":2170:2795  function withdraw(... */\n    tag_3:\n      callvalue\n      dup1\n      iszero\n      tag_13\n      jumpi\n      revert(0x00, 0x00)\n    tag_13:\n      pop\n      tag_14\n      0x04\n      dup1\n      calldatasize\n      sub\n      dup2\n      add\n      swap1\n      tag_15\n      swap2\n      swap1\n      tag_16\n      jump\t// in\n    tag_15:\n      tag_17\n      jump\t// in\n    tag_14:\n      stop\n        /* \"prac52.sol\":2803:2941  function contractBalance()... */\n    tag_4:\n      callvalue\n      dup1\n      iszero\n      tag_18\n      jumpi\n      revert(0x00, 0x00)\n    tag_18:\n      pop\n      tag_19\n      tag_20\n      jump\t// in\n    tag_19:\n      mload(0x40)\n      tag_21\n      swap2\n      swap1\n      tag_12\n      jump\t// in\n    tag_21:\n      mload(0x40)\n      dup1\n      swap2\n      sub\n      swap1\n      return\n        /* \"prac52.sol\":1867:2065  function deposit()... */\n    tag_5:\n      tag_22\n      tag_23\n      jump\t// in\n    tag_22:\n      stop\n        /* \"prac52.sol\":1815:1858  mapping(address => uint256) public balances */\n    tag_10:\n      mstore(0x20, 0x00)\n      dup1\n      0x00\n      mstore\n      keccak256(0x00, 0x40)\n      0x00\n      swap2\n      pop\n      swap1\n      pop\n      sload\n      dup2\n      jump\t// out\n        /* \"prac52.sol\":2170:2795  function withdraw(... */\n    tag_17:\n        /* \"prac52.sol\":2301:2308  _amount */\n      dup1\n        /* \"prac52.sol\":2277:2285  balances */\n      0x00\n        /* \"prac52.sol\":2277:2297  balances[msg.sender] */\n      0x00\n        /* \"prac52.sol\":2286:2296  msg.sender */\n      caller\n        /* \"prac52.sol\":2277:2297  balances[msg.sender] */\n      0xffffffffffffffffffffffffffffffffffffffff\n      and\n      0xffffffffffffffffffffffffffffffffffffffff\n      and\n      dup2\n      mstore\n      0x20\n      add\n      swap1\n      dup2\n      mstore\n      0x20\n      add\n      0x00\n      keccak256\n      sload\n        /* \"prac52.sol\":2277:2308  balances[msg.sender] >= _amount */\n      lt\n      iszero\n        /* \"prac52.sol\":2255:2356  require(... */\n      tag_25\n      jumpi\n      mload(0x40)\n      0x08c379a000000000000000000000000000000000000000000000000000000000\n      dup2\n      mstore\n      0x04\n      add\n      tag_26\n      swap1\n      tag_27\n      jump\t// in\n    tag_26:\n      mload(0x40)\n      dup1\n      swap2\n      sub\n      swap1\n      revert\n    tag_25:\n        /* \"prac52.sol\":2449:2461  bool success */\n      0x00\n        /* \"prac52.sol\":2488:2498  msg.sender */\n      caller\n        /* \"prac52.sol\":2480:2504  payable(msg.sender).call */\n      0xffffffffffffffffffffffffffffffffffffffff\n      and\n        /* \"prac52.sol\":2512:2519  _amount */\n      dup3\n        /* \"prac52.sol\":2480:2524  payable(msg.sender).call{value: _amount}(\"\") */\n      mload(0x40)\n      tag_28\n      swap1\n      tag_29\n      jump\t// in\n    tag_28:\n      0x00\n      mload(0x40)\n      dup1\n      dup4\n      sub\n      dup2\n      dup6\n      dup8\n      gas\n      call\n      swap3\n      pop\n      pop\n      pop\n      returndatasize\n      dup1\n      0x00\n      dup2\n      eq\n      tag_32\n      jumpi\n      mload(0x40)\n      swap2\n      pop\n      and(add(returndatasize, 0x3f), not(0x1f))\n      dup3\n      add\n      0x40\n      mstore\n      returndatasize\n      dup3\n      mstore\n      returndatasize\n      0x00\n      0x20\n      dup5\n      add\n      returndatacopy\n      jump(tag_31)\n    tag_32:\n      0x60\n      swap2\n      pop\n    tag_31:\n      pop\n        /* \"prac52.sol\":2448:2524  (bool success, ) =... */\n      pop\n      swap1\n      pop\n        /* \"prac52.sol\":2559:2566  success */\n      dup1\n        /* \"prac52.sol\":2537:2609  require(... */\n      tag_33\n      jumpi\n      mload(0x40)\n      0x08c379a000000000000000000000000000000000000000000000000000000000\n      dup2\n      mstore\n      0x04\n      add\n      tag_34\n      swap1\n      tag_35\n      jump\t// in\n    tag_34:\n      mload(0x40)\n      dup1\n      swap2\n      sub\n      swap1\n      revert\n    tag_33:\n        /* \"prac52.sol\":2780:2787  _amount */\n      dup2\n        /* \"prac52.sol\":2756:2764  balances */\n      0x00\n        /* \"prac52.sol\":2756:2776  balances[msg.sender] */\n      0x00\n        /* \"prac52.sol\":2765:2775  msg.sender */\n      caller\n        /* \"prac52.sol\":2756:2776  balances[msg.sender] */\n      0xffffffffffffffffffffffffffffffffffffffff\n      and\n      0xffffffffffffffffffffffffffffffffffffffff\n      and\n      dup2\n      mstore\n      0x20\n      add\n      swap1\n      dup2\n      mstore\n      0x20\n      add\n      0x00\n      keccak256\n      0x00\n        /* \"prac52.sol\":2756:2787  balances[msg.sender] -= _amount */\n      dup3\n      dup3\n      sload\n      tag_36\n      swap2\n      swap1\n      tag_37\n      jump\t// in\n    tag_36:\n      swap3\n      pop\n      pop\n      dup2\n      swap1\n      sstore\n      pop\n        /* \"prac52.sol\":2244:2795  {... */\n      pop\n        /* \"prac52.sol\":2170:2795  function withdraw(... */\n      pop\n      jump\t// out\n        /* \"prac52.sol\":2803:2941  function contractBalance()... */\n    tag_20:\n        /* \"prac52.sol\":2880:2887  uint256 */\n      0x00\n        /* \"prac52.sol\":2912:2933  address(this).balance */\n      selfbalance\n        /* \"prac52.sol\":2905:2933  return address(this).balance */\n      swap1\n      pop\n        /* \"prac52.sol\":2803:2941  function contractBalance()... */\n      swap1\n      jump\t// out\n        /* \"prac52.sol\":1867:2065  function deposit()... */\n    tag_23:\n        /* \"prac52.sol\":1971:1972  0 */\n      0x00\n        /* \"prac52.sol\":1959:1968  msg.value */\n      callvalue\n        /* \"prac52.sol\":1959:1972  msg.value > 0 */\n      gt\n        /* \"prac52.sol\":1937:2011  require(... */\n      tag_40\n      jumpi\n      mload(0x40)\n      0x08c379a000000000000000000000000000000000000000000000000000000000\n      dup2\n      mstore\n      0x04\n      add\n      tag_41\n      swap1\n      tag_42\n      jump\t// in\n    tag_41:\n      mload(0x40)\n      dup1\n      swap2\n      sub\n      swap1\n      revert\n    tag_40:\n        /* \"prac52.sol\":2048:2057  msg.value */\n      callvalue\n        /* \"prac52.sol\":2024:2032  balances */\n      0x00\n        /* \"prac52.sol\":2024:2044  balances[msg.sender] */\n      0x00\n        /* \"prac52.sol\":2033:2043  msg.sender */\n      caller\n        /* \"prac52.sol\":2024:2044  balances[msg.sender] */\n      0xffffffffffffffffffffffffffffffffffffffff\n      and\n      0xffffffffffffffffffffffffffffffffffffffff\n      and\n      dup2\n      mstore\n      0x20\n      add\n      swap1\n      dup2\n      mstore\n      0x20\n      add\n      0x00\n      keccak256\n      0x00\n        /* \"prac52.sol\":2024:2057  balances[msg.sender] += msg.value */\n      dup3\n      dup3\n      sload\n      tag_43\n      swap2\n      swap1\n      tag_44\n      jump\t// in\n    tag_43:\n      swap3\n      pop\n      pop\n      dup2\n      swap1\n      sstore\n      pop\n        /* \"prac52.sol\":1867:2065  function deposit()... */\n      jump\t// out\n        /* \"#utility.yul\":88:205   */\n    tag_46:\n        /* \"#utility.yul\":197:198   */\n      0x00\n        /* \"#utility.yul\":194:195   */\n      0x00\n        /* \"#utility.yul\":187:199   */\n      revert\n        /* \"#utility.yul\":334:460   */\n    tag_48:\n        /* \"#utility.yul\":371:378   */\n      0x00\n        /* \"#utility.yul\":411:453   */\n      0xffffffffffffffffffffffffffffffffffffffff\n        /* \"#utility.yul\":404:409   */\n      dup3\n        /* \"#utility.yul\":400:454   */\n      and\n        /* \"#utility.yul\":389:454   */\n      swap1\n      pop\n        /* \"#utility.yul\":334:460   */\n      swap2\n      swap1\n      pop\n      jump\t// out\n        /* \"#utility.yul\":466:562   */\n    tag_49:\n        /* \"#utility.yul\":503:510   */\n      0x00\n        /* \"#utility.yul\":532:556   */\n      tag_73\n        /* \"#utility.yul\":550:555   */\n      dup3\n        /* \"#utility.yul\":532:556   */\n      tag_48\n      jump\t// in\n    tag_73:\n        /* \"#utility.yul\":521:556   */\n      swap1\n      pop\n        /* \"#utility.yul\":466:562   */\n      swap2\n      swap1\n      pop\n      jump\t// out\n        /* \"#utility.yul\":568:690   */\n    tag_50:\n        /* \"#utility.yul\":641:665   */\n      tag_75\n        /* \"#utility.yul\":659:664   */\n      dup2\n        /* \"#utility.yul\":641:665   */\n      tag_49\n      jump\t// in\n    tag_75:\n        /* \"#utility.yul\":634:639   */\n      dup2\n        /* \"#utility.yul\":631:666   */\n      eq\n        /* \"#utility.yul\":621:684   */\n      tag_76\n      jumpi\n        /* \"#utility.yul\":680:681   */\n      0x00\n        /* \"#utility.yul\":677:678   */\n      0x00\n        /* \"#utility.yul\":670:682   */\n      revert\n        /* \"#utility.yul\":621:684   */\n    tag_76:\n        /* \"#utility.yul\":568:690   */\n      pop\n      jump\t// out\n        /* \"#utility.yul\":696:835   */\n    tag_51:\n        /* \"#utility.yul\":742:747   */\n      0x00\n        /* \"#utility.yul\":780:786   */\n      dup2\n        /* \"#utility.yul\":767:787   */\n      calldataload\n        /* \"#utility.yul\":758:787   */\n      swap1\n      pop\n        /* \"#utility.yul\":796:829   */\n      tag_78\n        /* \"#utility.yul\":823:828   */\n      dup2\n        /* \"#utility.yul\":796:829   */\n      tag_50\n      jump\t// in\n    tag_78:\n        /* \"#utility.yul\":696:835   */\n      swap3\n      swap2\n      pop\n      pop\n      jump\t// out\n        /* \"#utility.yul\":841:1170   */\n    tag_9:\n        /* \"#utility.yul\":900:906   */\n      0x00\n        /* \"#utility.yul\":949:951   */\n      0x20\n        /* \"#utility.yul\":937:946   */\n      dup3\n        /* \"#utility.yul\":928:935   */\n      dup5\n        /* \"#utility.yul\":924:947   */\n      sub\n        /* \"#utility.yul\":920:952   */\n      slt\n        /* \"#utility.yul\":917:1036   */\n      iszero\n      tag_80\n      jumpi\n        /* \"#utility.yul\":955:1034   */\n      tag_81\n      tag_46\n      jump\t// in\n    tag_81:\n        /* \"#utility.yul\":917:1036   */\n    tag_80:\n        /* \"#utility.yul\":1075:1076   */\n      0x00\n        /* \"#utility.yul\":1100:1153   */\n      tag_82\n        /* \"#utility.yul\":1145:1152   */\n      dup5\n        /* \"#utility.yul\":1136:1142   */\n      dup3\n        /* \"#utility.yul\":1125:1134   */\n      dup6\n        /* \"#utility.yul\":1121:1143   */\n      add\n        /* \"#utility.yul\":1100:1153   */\n      tag_51\n      jump\t// in\n    tag_82:\n        /* \"#utility.yul\":1090:1153   */\n      swap2\n      pop\n        /* \"#utility.yul\":1046:1163   */\n      pop\n        /* \"#utility.yul\":841:1170   */\n      swap3\n      swap2\n      pop\n      pop\n      jump\t// out\n        /* \"#utility.yul\":1176:1253   */\n    tag_52:\n        /* \"#utility.yul\":1213:1220   */\n      0x00\n        /* \"#utility.yul\":1242:1247   */\n      dup2\n        /* \"#utility.yul\":1231:1247   */\n      swap1\n      pop\n        /* \"#utility.yul\":1176:1253   */\n      swap2\n      swap1\n      pop\n      jump\t// out\n        /* \"#utility.yul\":1259:1377   */\n    tag_53:\n        /* \"#utility.yul\":1346:1370   */\n      tag_85\n        /* \"#utility.yul\":1364:1369   */\n      dup2\n        /* \"#utility.yul\":1346:1370   */\n      tag_52\n      jump\t// in\n    tag_85:\n        /* \"#utility.yul\":1341:1344   */\n      dup3\n        /* \"#utility.yul\":1334:1371   */\n      mstore\n        /* \"#utility.yul\":1259:1377   */\n      pop\n      pop\n      jump\t// out\n        /* \"#utility.yul\":1383:1605   */\n    tag_12:\n        /* \"#utility.yul\":1476:1480   */\n      0x00\n        /* \"#utility.yul\":1514:1516   */\n      0x20\n        /* \"#utility.yul\":1503:1512   */\n      dup3\n        /* \"#utility.yul\":1499:1517   */\n      add\n        /* \"#utility.yul\":1491:1517   */\n      swap1\n      pop\n        /* \"#utility.yul\":1527:1598   */\n      tag_87\n        /* \"#utility.yul\":1595:1596   */\n      0x00\n        /* \"#utility.yul\":1584:1593   */\n      dup4\n        /* \"#utility.yul\":1580:1597   */\n      add\n        /* \"#utility.yul\":1571:1577   */\n      dup5\n        /* \"#utility.yul\":1527:1598   */\n      tag_53\n      jump\t// in\n    tag_87:\n        /* \"#utility.yul\":1383:1605   */\n      swap3\n      swap2\n      pop\n      pop\n      jump\t// out\n        /* \"#utility.yul\":1611:1733   */\n    tag_54:\n        /* \"#utility.yul\":1684:1708   */\n      tag_89\n        /* \"#utility.yul\":1702:1707   */\n      dup2\n        /* \"#utility.yul\":1684:1708   */\n      tag_52\n      jump\t// in\n    tag_89:\n        /* \"#utility.yul\":1677:1682   */\n      dup2\n        /* \"#utility.yul\":1674:1709   */\n      eq\n        /* \"#utility.yul\":1664:1727   */\n      tag_90\n      jumpi\n        /* \"#utility.yul\":1723:1724   */\n      0x00\n        /* \"#utility.yul\":1720:1721   */\n      0x00\n        /* \"#utility.yul\":1713:1725   */\n      revert\n        /* \"#utility.yul\":1664:1727   */\n    tag_90:\n        /* \"#utility.yul\":1611:1733   */\n      pop\n      jump\t// out\n        /* \"#utility.yul\":1739:1878   */\n    tag_55:\n        /* \"#utility.yul\":1785:1790   */\n      0x00\n        /* \"#utility.yul\":1823:1829   */\n      dup2\n        /* \"#utility.yul\":1810:1830   */\n      calldataload\n        /* \"#utility.yul\":1801:1830   */\n      swap1\n      pop\n        /* \"#utility.yul\":1839:1872   */\n      tag_92\n        /* \"#utility.yul\":1866:1871   */\n      dup2\n        /* \"#utility.yul\":1839:1872   */\n      tag_54\n      jump\t// in\n    tag_92:\n        /* \"#utility.yul\":1739:1878   */\n      swap3\n      swap2\n      pop\n      pop\n      jump\t// out\n        /* \"#utility.yul\":1884:2213   */\n    tag_16:\n        /* \"#utility.yul\":1943:1949   */\n      0x00\n        /* \"#utility.yul\":1992:1994   */\n      0x20\n        /* \"#utility.yul\":1980:1989   */\n      dup3\n        /* \"#utility.yul\":1971:1978   */\n      dup5\n        /* \"#utility.yul\":1967:1990   */\n      sub\n        /* \"#utility.yul\":1963:1995   */\n      slt\n        /* \"#utility.yul\":1960:2079   */\n      iszero\n      tag_94\n      jumpi\n        /* \"#utility.yul\":1998:2077   */\n      tag_95\n      tag_46\n      jump\t// in\n    tag_95:\n        /* \"#utility.yul\":1960:2079   */\n    tag_94:\n        /* \"#utility.yul\":2118:2119   */\n      0x00\n        /* \"#utility.yul\":2143:2196   */\n      tag_96\n        /* \"#utility.yul\":2188:2195   */\n      dup5\n        /* \"#utility.yul\":2179:2185   */\n      dup3\n        /* \"#utility.yul\":2168:2177   */\n      dup6\n        /* \"#utility.yul\":2164:2186   */\n      add\n        /* \"#utility.yul\":2143:2196   */\n      tag_55\n      jump\t// in\n    tag_96:\n        /* \"#utility.yul\":2133:2196   */\n      swap2\n      pop\n        /* \"#utility.yul\":2089:2206   */\n      pop\n        /* \"#utility.yul\":1884:2213   */\n      swap3\n      swap2\n      pop\n      pop\n      jump\t// out\n        /* \"#utility.yul\":2219:2388   */\n    tag_56:\n        /* \"#utility.yul\":2303:2314   */\n      0x00\n        /* \"#utility.yul\":2337:2343   */\n      dup3\n        /* \"#utility.yul\":2332:2335   */\n      dup3\n        /* \"#utility.yul\":2325:2344   */\n      mstore\n        /* \"#utility.yul\":2377:2381   */\n      0x20\n        /* \"#utility.yul\":2372:2375   */\n      dup3\n        /* \"#utility.yul\":2368:2382   */\n      add\n        /* \"#utility.yul\":2353:2382   */\n      swap1\n      pop\n        /* \"#utility.yul\":2219:2388   */\n      swap3\n      swap2\n      pop\n      pop\n      jump\t// out\n        /* \"#utility.yul\":2394:2564   */\n    tag_57:\n        /* \"#utility.yul\":2534:2556   */\n      0x496e73756666696369656e742062616c616e6365000000000000000000000000\n        /* \"#utility.yul\":2530:2531   */\n      0x00\n        /* \"#utility.yul\":2522:2528   */\n      dup3\n        /* \"#utility.yul\":2518:2532   */\n      add\n        /* \"#utility.yul\":2511:2557   */\n      mstore\n        /* \"#utility.yul\":2394:2564   */\n      pop\n      jump\t// out\n        /* \"#utility.yul\":2570:2936   */\n    tag_58:\n        /* \"#utility.yul\":2712:2715   */\n      0x00\n        /* \"#utility.yul\":2733:2800   */\n      tag_100\n        /* \"#utility.yul\":2797:2799   */\n      0x14\n        /* \"#utility.yul\":2792:2795   */\n      dup4\n        /* \"#utility.yul\":2733:2800   */\n      tag_56\n      jump\t// in\n    tag_100:\n        /* \"#utility.yul\":2726:2800   */\n      swap2\n      pop\n        /* \"#utility.yul\":2809:2902   */\n      tag_101\n        /* \"#utility.yul\":2898:2901   */\n      dup3\n        /* \"#utility.yul\":2809:2902   */\n      tag_57\n      jump\t// in\n    tag_101:\n        /* \"#utility.yul\":2927:2929   */\n      0x20\n        /* \"#utility.yul\":2922:2925   */\n      dup3\n        /* \"#utility.yul\":2918:2930   */\n      add\n        /* \"#utility.yul\":2911:2930   */\n      swap1\n      pop\n        /* \"#utility.yul\":2570:2936   */\n      swap2\n      swap1\n      pop\n      jump\t// out\n        /* \"#utility.yul\":2942:3361   */\n    tag_27:\n        /* \"#utility.yul\":3108:3112   */\n      0x00\n        /* \"#utility.yul\":3146:3148   */\n      0x20\n        /* \"#utility.yul\":3135:3144   */\n      dup3\n        /* \"#utility.yul\":3131:3149   */\n      add\n        /* \"#utility.yul\":3123:3149   */\n      swap1\n      pop\n        /* \"#utility.yul\":3195:3204   */\n      dup2\n        /* \"#utility.yul\":3189:3193   */\n      dup2\n        /* \"#utility.yul\":3185:3205   */\n      sub\n        /* \"#utility.yul\":3181:3182   */\n      0x00\n        /* \"#utility.yul\":3170:3179   */\n      dup4\n        /* \"#utility.yul\":3166:3183   */\n      add\n        /* \"#utility.yul\":3159:3206   */\n      mstore\n        /* \"#utility.yul\":3223:3354   */\n      tag_103\n        /* \"#utility.yul\":3349:3353   */\n      dup2\n        /* \"#utility.yul\":3223:3354   */\n      tag_58\n      jump\t// in\n    tag_103:\n        /* \"#utility.yul\":3215:3354   */\n      swap1\n      pop\n        /* \"#utility.yul\":2942:3361   */\n      swap2\n      swap1\n      pop\n      jump\t// out\n        /* \"#utility.yul\":3367:3514   */\n    tag_59:\n        /* \"#utility.yul\":3468:3479   */\n      0x00\n        /* \"#utility.yul\":3505:3508   */\n      dup2\n        /* \"#utility.yul\":3490:3508   */\n      swap1\n      pop\n        /* \"#utility.yul\":3367:3514   */\n      swap3\n      swap2\n      pop\n      pop\n      jump\t// out\n        /* \"#utility.yul\":3520:3634   */\n    tag_60:\n      pop\n      jump\t// out\n        /* \"#utility.yul\":3640:4038   */\n    tag_61:\n        /* \"#utility.yul\":3799:3802   */\n      0x00\n        /* \"#utility.yul\":3820:3903   */\n      tag_107\n        /* \"#utility.yul\":3901:3902   */\n      0x00\n        /* \"#utility.yul\":3896:3899   */\n      dup4\n        /* \"#utility.yul\":3820:3903   */\n      tag_59\n      jump\t// in\n    tag_107:\n        /* \"#utility.yul\":3813:3903   */\n      swap2\n      pop\n        /* \"#utility.yul\":3912:4005   */\n      tag_108\n        /* \"#utility.yul\":4001:4004   */\n      dup3\n        /* \"#utility.yul\":3912:4005   */\n      tag_60\n      jump\t// in\n    tag_108:\n        /* \"#utility.yul\":4030:4031   */\n      0x00\n        /* \"#utility.yul\":4025:4028   */\n      dup3\n        /* \"#utility.yul\":4021:4032   */\n      add\n        /* \"#utility.yul\":4014:4032   */\n      swap1\n      pop\n        /* \"#utility.yul\":3640:4038   */\n      swap2\n      swap1\n      pop\n      jump\t// out\n        /* \"#utility.yul\":4044:4423   */\n    tag_29:\n        /* \"#utility.yul\":4228:4231   */\n      0x00\n        /* \"#utility.yul\":4250:4397   */\n      tag_110\n        /* \"#utility.yul\":4393:4396   */\n      dup3\n        /* \"#utility.yul\":4250:4397   */\n      tag_61\n      jump\t// in\n    tag_110:\n        /* \"#utility.yul\":4243:4397   */\n      swap2\n      pop\n        /* \"#utility.yul\":4414:4417   */\n      dup2\n        /* \"#utility.yul\":4407:4417   */\n      swap1\n      pop\n        /* \"#utility.yul\":4044:4423   */\n      swap2\n      swap1\n      pop\n      jump\t// out\n        /* \"#utility.yul\":4429:4594   */\n    tag_62:\n        /* \"#utility.yul\":4569:4586   */\n      0x5472616e73666572206661696c65640000000000000000000000000000000000\n        /* \"#utility.yul\":4565:4566   */\n      0x00\n        /* \"#utility.yul\":4557:4563   */\n      dup3\n        /* \"#utility.yul\":4553:4567   */\n      add\n        /* \"#utility.yul\":4546:4587   */\n      mstore\n        /* \"#utility.yul\":4429:4594   */\n      pop\n      jump\t// out\n        /* \"#utility.yul\":4600:4966   */\n    tag_63:\n        /* \"#utility.yul\":4742:4745   */\n      0x00\n        /* \"#utility.yul\":4763:4830   */\n      tag_113\n        /* \"#utility.yul\":4827:4829   */\n      0x0f\n        /* \"#utility.yul\":4822:4825   */\n      dup4\n        /* \"#utility.yul\":4763:4830   */\n      tag_56\n      jump\t// in\n    tag_113:\n        /* \"#utility.yul\":4756:4830   */\n      swap2\n      pop\n        /* \"#utility.yul\":4839:4932   */\n      tag_114\n        /* \"#utility.yul\":4928:4931   */\n      dup3\n        /* \"#utility.yul\":4839:4932   */\n      tag_62\n      jump\t// in\n    tag_114:\n        /* \"#utility.yul\":4957:4959   */\n      0x20\n        /* \"#utility.yul\":4952:4955   */\n      dup3\n        /* \"#utility.yul\":4948:4960   */\n      add\n        /* \"#utility.yul\":4941:4960   */\n      swap1\n      pop\n        /* \"#utility.yul\":4600:4966   */\n      swap2\n      swap1\n      pop\n      jump\t// out\n        /* \"#utility.yul\":4972:5391   */\n    tag_35:\n        /* \"#utility.yul\":5138:5142   */\n      0x00\n        /* \"#utility.yul\":5176:5178   */\n      0x20\n        /* \"#utility.yul\":5165:5174   */\n      dup3\n        /* \"#utility.yul\":5161:5179   */\n      add\n        /* \"#utility.yul\":5153:5179   */\n      swap1\n      pop\n        /* \"#utility.yul\":5225:5234   */\n      dup2\n        /* \"#utility.yul\":5219:5223   */\n      dup2\n        /* \"#utility.yul\":5215:5235   */\n      sub\n        /* \"#utility.yul\":5211:5212   */\n      0x00\n        /* \"#utility.yul\":5200:5209   */\n      dup4\n        /* \"#utility.yul\":5196:5213   */\n      add\n        /* \"#utility.yul\":5189:5236   */\n      mstore\n        /* \"#utility.yul\":5253:5384   */\n      tag_116\n        /* \"#utility.yul\":5379:5383   */\n      dup2\n        /* \"#utility.yul\":5253:5384   */\n      tag_63\n      jump\t// in\n    tag_116:\n        /* \"#utility.yul\":5245:5384   */\n      swap1\n      pop\n        /* \"#utility.yul\":4972:5391   */\n      swap2\n      swap1\n      pop\n      jump\t// out\n        /* \"#utility.yul\":5397:5577   */\n    tag_64:\n        /* \"#utility.yul\":5445:5522   */\n      0x4e487b7100000000000000000000000000000000000000000000000000000000\n        /* \"#utility.yul\":5442:5443   */\n      0x00\n        /* \"#utility.yul\":5435:5523   */\n      mstore\n        /* \"#utility.yul\":5542:5546   */\n      0x11\n        /* \"#utility.yul\":5539:5540   */\n      0x04\n        /* \"#utility.yul\":5532:5547   */\n      mstore\n        /* \"#utility.yul\":5566:5570   */\n      0x24\n        /* \"#utility.yul\":5563:5564   */\n      0x00\n        /* \"#utility.yul\":5556:5571   */\n      revert\n        /* \"#utility.yul\":5583:5777   */\n    tag_37:\n        /* \"#utility.yul\":5623:5627   */\n      0x00\n        /* \"#utility.yul\":5643:5663   */\n      tag_119\n        /* \"#utility.yul\":5661:5662   */\n      dup3\n        /* \"#utility.yul\":5643:5663   */\n      tag_52\n      jump\t// in\n    tag_119:\n        /* \"#utility.yul\":5638:5663   */\n      swap2\n      pop\n        /* \"#utility.yul\":5677:5697   */\n      tag_120\n        /* \"#utility.yul\":5695:5696   */\n      dup4\n        /* \"#utility.yul\":5677:5697   */\n      tag_52\n      jump\t// in\n    tag_120:\n        /* \"#utility.yul\":5672:5697   */\n      swap3\n      pop\n        /* \"#utility.yul\":5721:5722   */\n      dup3\n        /* \"#utility.yul\":5718:5719   */\n      dup3\n        /* \"#utility.yul\":5714:5723   */\n      sub\n        /* \"#utility.yul\":5706:5723   */\n      swap1\n      pop\n        /* \"#utility.yul\":5745:5746   */\n      dup2\n        /* \"#utility.yul\":5739:5743   */\n      dup2\n        /* \"#utility.yul\":5736:5747   */\n      gt\n        /* \"#utility.yul\":5733:5770   */\n      iszero\n      tag_121\n      jumpi\n        /* \"#utility.yul\":5750:5768   */\n      tag_122\n      tag_64\n      jump\t// in\n    tag_122:\n        /* \"#utility.yul\":5733:5770   */\n    tag_121:\n        /* \"#utility.yul\":5583:5777   */\n      swap3\n      swap2\n      pop\n      pop\n      jump\t// out\n        /* \"#utility.yul\":5783:5944   */\n    tag_65:\n        /* \"#utility.yul\":5923:5936   */\n      0x4e6f204554482073656e74000000000000000000000000000000000000000000\n        /* \"#utility.yul\":5919:5920   */\n      0x00\n        /* \"#utility.yul\":5911:5917   */\n      dup3\n        /* \"#utility.yul\":5907:5921   */\n      add\n        /* \"#utility.yul\":5900:5937   */\n      mstore\n        /* \"#utility.yul\":5783:5944   */\n      pop\n      jump\t// out\n        /* \"#utility.yul\":5950:6316   */\n    tag_66:\n        /* \"#utility.yul\":6092:6095   */\n      0x00\n        /* \"#utility.yul\":6113:6180   */\n      tag_125\n        /* \"#utility.yul\":6177:6179   */\n      0x0b\n        /* \"#utility.yul\":6172:6175   */\n      dup4\n        /* \"#utility.yul\":6113:6180   */\n      tag_56\n      jump\t// in\n    tag_125:\n        /* \"#utility.yul\":6106:6180   */\n      swap2\n      pop\n        /* \"#utility.yul\":6189:6282   */\n      tag_126\n        /* \"#utility.yul\":6278:6281   */\n      dup3\n        /* \"#utility.yul\":6189:6282   */\n      tag_65\n      jump\t// in\n    tag_126:\n        /* \"#utility.yul\":6307:6309   */\n      0x20\n        /* \"#utility.yul\":6302:6305   */\n      dup3\n        /* \"#utility.yul\":6298:6310   */\n      add\n        /* \"#utility.yul\":6291:6310   */\n      swap1\n      pop\n        /* \"#utility.yul\":5950:6316   */\n      swap2\n      swap1\n      pop\n      jump\t// out\n        /* \"#utility.yul\":6322:6741   */\n    tag_42:\n        /* \"#utility.yul\":6488:6492   */\n      0x00\n        /* \"#utility.yul\":6526:6528   */\n      0x20\n        /* \"#utility.yul\":6515:6524   */\n      dup3\n        /* \"#utility.yul\":6511:6529   */\n      add\n        /* \"#utility.yul\":6503:6529   */\n      swap1\n      pop\n        /* \"#utility.yul\":6575:6584   */\n      dup2\n        /* \"#utility.yul\":6569:6573   */\n      dup2\n        /* \"#utility.yul\":6565:6585   */\n      sub\n        /* \"#utility.yul\":6561:6562   */\n      0x00\n        /* \"#utility.yul\":6550:6559   */\n      dup4\n        /* \"#utility.yul\":6546:6563   */\n      add\n        /* \"#utility.yul\":6539:6586   */\n      mstore\n        /* \"#utility.yul\":6603:6734   */\n      tag_128\n        /* \"#utility.yul\":6729:6733   */\n      dup2\n        /* \"#utility.yul\":6603:6734   */\n      tag_66\n      jump\t// in\n    tag_128:\n        /* \"#utility.yul\":6595:6734   */\n      swap1\n      pop\n        /* \"#utility.yul\":6322:6741   */\n      swap2\n      swap1\n      pop\n      jump\t// out\n        /* \"#utility.yul\":6747:6938   */\n    tag_44:\n        /* \"#utility.yul\":6787:6790   */\n      0x00\n        /* \"#utility.yul\":6806:6826   */\n      tag_130\n        /* \"#utility.yul\":6824:6825   */\n      dup3\n        /* \"#utility.yul\":6806:6826   */\n      tag_52\n      jump\t// in\n    tag_130:\n        /* \"#utility.yul\":6801:6826   */\n      swap2\n      pop\n        /* \"#utility.yul\":6840:6860   */\n      tag_131\n        /* \"#utility.yul\":6858:6859   */\n      dup4\n        /* \"#utility.yul\":6840:6860   */\n      tag_52\n      jump\t// in\n    tag_131:\n        /* \"#utility.yul\":6835:6860   */\n      swap3\n      pop\n        /* \"#utility.yul\":6883:6884   */\n      dup3\n        /* \"#utility.yul\":6880:6881   */\n      dup3\n        /* \"#utility.yul\":6876:6885   */\n      add\n        /* \"#utility.yul\":6869:6885   */\n      swap1\n      pop\n        /* \"#utility.yul\":6904:6907   */\n      dup1\n        /* \"#utility.yul\":6901:6902   */\n      dup3\n        /* \"#utility.yul\":6898:6908   */\n      gt\n        /* \"#utility.yul\":6895:6931   */\n      iszero\n      tag_132\n      jumpi\n        /* \"#utility.yul\":6911:6929   */\n      tag_133\n      tag_64\n      jump\t// in\n    tag_133:\n        /* \"#utility.yul\":6895:6931   */\n    tag_132:\n        /* \"#utility.yul\":6747:6938   */\n      swap3\n      swap2\n      pop\n      pop\n      jump\t// out\n\n    auxdata: 0xa26469706673582212209cf0a21449fb29920bb14b6d20e58304c53a0c101cc6fe2ece579580efe1d12964736f6c63430008220033\n}\n",
				"bytecode": {
					"linkReferences": {},
					"object": "6080604052348015600e575f5ffd5b506106698061001c5f395ff3fe60806040526004361061003e575f3560e01c806327e235e3146100425780632e1a7d4d1461007e5780638b7afe2e146100a6578063d0e30db0146100d0575b5f5ffd5b34801561004d575f5ffd5b5061006860048036038101906100639190610366565b6100da565b60405161007591906103a9565b60405180910390f35b348015610089575f5ffd5b506100a4600480360381019061009f91906103ec565b6100ee565b005b3480156100b1575f5ffd5b506100ba61026b565b6040516100c791906103a9565b60405180910390f35b6100d8610272565b005b5f602052805f5260405f205f915090505481565b805f5f3373ffffffffffffffffffffffffffffffffffffffff1673ffffffffffffffffffffffffffffffffffffffff1681526020019081526020015f2054101561016d576040517f08c379a000000000000000000000000000000000000000000000000000000000815260040161016490610471565b60405180910390fd5b5f3373ffffffffffffffffffffffffffffffffffffffff1682604051610192906104bc565b5f6040518083038185875af1925050503d805f81146101cc576040519150601f19603f3d011682016040523d82523d5f602084013e6101d1565b606091505b5050905080610215576040517f08c379a000000000000000000000000000000000000000000000000000000000815260040161020c9061051a565b60405180910390fd5b815f5f3373ffffffffffffffffffffffffffffffffffffffff1673ffffffffffffffffffffffffffffffffffffffff1681526020019081526020015f205f8282546102609190610565565b925050819055505050565b5f47905090565b5f34116102b4576040517f08c379a00000000000000000000000000000000000000000000000000000000081526004016102ab906105e2565b60405180910390fd5b345f5f3373ffffffffffffffffffffffffffffffffffffffff1673ffffffffffffffffffffffffffffffffffffffff1681526020019081526020015f205f8282546102ff9190610600565b92505081905550565b5f5ffd5b5f73ffffffffffffffffffffffffffffffffffffffff82169050919050565b5f6103358261030c565b9050919050565b6103458161032b565b811461034f575f5ffd5b50565b5f813590506103608161033c565b92915050565b5f6020828403121561037b5761037a610308565b5b5f61038884828501610352565b91505092915050565b5f819050919050565b6103a381610391565b82525050565b5f6020820190506103bc5f83018461039a565b92915050565b6103cb81610391565b81146103d5575f5ffd5b50565b5f813590506103e6816103c2565b92915050565b5f6020828403121561040157610400610308565b5b5f61040e848285016103d8565b91505092915050565b5f82825260208201905092915050565b7f496e73756666696369656e742062616c616e63650000000000000000000000005f82015250565b5f61045b601483610417565b915061046682610427565b602082019050919050565b5f6020820190508181035f8301526104888161044f565b9050919050565b5f81905092915050565b50565b5f6104a75f8361048f565b91506104b282610499565b5f82019050919050565b5f6104c68261049c565b9150819050919050565b7f5472616e73666572206661696c656400000000000000000000000000000000005f82015250565b5f610504600f83610417565b915061050f826104d0565b602082019050919050565b5f6020820190508181035f830152610531816104f8565b9050919050565b7f4e487b71000000000000000000000000000000000000000000000000000000005f52601160045260245ffd5b5f61056f82610391565b915061057a83610391565b925082820390508181111561059257610591610538565b5b92915050565b7f4e6f204554482073656e740000000000000000000000000000000000000000005f82015250565b5f6105cc600b83610417565b91506105d782610598565b602082019050919050565b5f6020820190508181035f8301526105f9816105c0565b9050919050565b5f61060a82610391565b915061061583610391565b925082820190508082111561062d5761062c610538565b5b9291505056fea26469706673582212209cf0a21449fb29920bb14b6d20e58304c53a0c101cc6fe2ece579580efe1d12964736f6c63430008220033",
					"opcodes": "PUSH1 0x80 PUSH1 0x40 MSTORE CALLVALUE DUP1 ISZERO PUSH1 0xE JUMPI PUSH0 PUSH0 REVERT JUMPDEST POP PUSH2 0x669 DUP1 PUSH2 0x1C PUSH0 CODECOPY PUSH0 RETURN INVALID PUSH1 0x80 PUSH1 0x40 MSTORE PUSH1 0x4 CALLDATASIZE LT PUSH2 0x3E JUMPI PUSH0 CALLDATALOAD PUSH1 0xE0 SHR DUP1 PUSH4 0x27E235E3 EQ PUSH2 0x42 JUMPI DUP1 PUSH4 0x2E1A7D4D EQ PUSH2 0x7E JUMPI DUP1 PUSH4 0x8B7AFE2E EQ PUSH2 0xA6 JUMPI DUP1 PUSH4 0xD0E30DB0 EQ PUSH2 0xD0 JUMPI JUMPDEST PUSH0 PUSH0 REVERT JUMPDEST CALLVALUE DUP1 ISZERO PUSH2 0x4D JUMPI PUSH0 PUSH0 REVERT JUMPDEST POP PUSH2 0x68 PUSH1 0x4 DUP1 CALLDATASIZE SUB DUP2 ADD SWAP1 PUSH2 0x63 SWAP2 SWAP1 PUSH2 0x366 JUMP JUMPDEST PUSH2 0xDA JUMP JUMPDEST PUSH1 0x40 MLOAD PUSH2 0x75 SWAP2 SWAP1 PUSH2 0x3A9 JUMP JUMPDEST PUSH1 0x40 MLOAD DUP1 SWAP2 SUB SWAP1 RETURN JUMPDEST CALLVALUE DUP1 ISZERO PUSH2 0x89 JUMPI PUSH0 PUSH0 REVERT JUMPDEST POP PUSH2 0xA4 PUSH1 0x4 DUP1 CALLDATASIZE SUB DUP2 ADD SWAP1 PUSH2 0x9F SWAP2 SWAP1 PUSH2 0x3EC JUMP JUMPDEST PUSH2 0xEE JUMP JUMPDEST STOP JUMPDEST CALLVALUE DUP1 ISZERO PUSH2 0xB1 JUMPI PUSH0 PUSH0 REVERT JUMPDEST POP PUSH2 0xBA PUSH2 0x26B JUMP JUMPDEST PUSH1 0x40 MLOAD PUSH2 0xC7 SWAP2 SWAP1 PUSH2 0x3A9 JUMP JUMPDEST PUSH1 0x40 MLOAD DUP1 SWAP2 SUB SWAP1 RETURN JUMPDEST PUSH2 0xD8 PUSH2 0x272 JUMP JUMPDEST STOP JUMPDEST PUSH0 PUSH1 0x20 MSTORE DUP1 PUSH0 MSTORE PUSH1 0x40 PUSH0 KECCAK256 PUSH0 SWAP2 POP SWAP1 POP SLOAD DUP2 JUMP JUMPDEST DUP1 PUSH0 PUSH0 CALLER PUSH20 0xFFFFFFFFFFFFFFFFFFFFFFFFFFFFFFFFFFFFFFFF AND PUSH20 0xFFFFFFFFFFFFFFFFFFFFFFFFFFFFFFFFFFFFFFFF AND DUP2 MSTORE PUSH1 0x20 ADD SWAP1 DUP2 MSTORE PUSH1 0x20 ADD PUSH0 KECCAK256 SLOAD LT ISZERO PUSH2 0x16D JUMPI PUSH1 0x40 MLOAD PUSH32 0x8C379A000000000000000000000000000000000000000000000000000000000 DUP2 MSTORE PUSH1 0x4 ADD PUSH2 0x164 SWAP1 PUSH2 0x471 JUMP JUMPDEST PUSH1 0x40 MLOAD DUP1 SWAP2 SUB SWAP1 REVERT JUMPDEST PUSH0 CALLER PUSH20 0xFFFFFFFFFFFFFFFFFFFFFFFFFFFFFFFFFFFFFFFF AND DUP3 PUSH1 0x40 MLOAD PUSH2 0x192 SWAP1 PUSH2 0x4BC JUMP JUMPDEST PUSH0 PUSH1 0x40 MLOAD DUP1 DUP4 SUB DUP2 DUP6 DUP8 GAS CALL SWAP3 POP POP POP RETURNDATASIZE DUP1 PUSH0 DUP2 EQ PUSH2 0x1CC JUMPI PUSH1 0x40 MLOAD SWAP2 POP PUSH1 0x1F NOT PUSH1 0x3F RETURNDATASIZE ADD AND DUP3 ADD PUSH1 0x40 MSTORE RETURNDATASIZE DUP3 MSTORE RETURNDATASIZE PUSH0 PUSH1 0x20 DUP5 ADD RETURNDATACOPY PUSH2 0x1D1 JUMP JUMPDEST PUSH1 0x60 SWAP2 POP JUMPDEST POP POP SWAP1 POP DUP1 PUSH2 0x215 JUMPI PUSH1 0x40 MLOAD PUSH32 0x8C379A000000000000000000000000000000000000000000000000000000000 DUP2 MSTORE PUSH1 0x4 ADD PUSH2 0x20C SWAP1 PUSH2 0x51A JUMP JUMPDEST PUSH1 0x40 MLOAD DUP1 SWAP2 SUB SWAP1 REVERT JUMPDEST DUP2 PUSH0 PUSH0 CALLER PUSH20 0xFFFFFFFFFFFFFFFFFFFFFFFFFFFFFFFFFFFFFFFF AND PUSH20 0xFFFFFFFFFFFFFFFFFFFFFFFFFFFFFFFFFFFFFFFF AND DUP2 MSTORE PUSH1 0x20 ADD SWAP1 DUP2 MSTORE PUSH1 0x20 ADD PUSH0 KECCAK256 PUSH0 DUP3 DUP3 SLOAD PUSH2 0x260 SWAP2 SWAP1 PUSH2 0x565 JUMP JUMPDEST SWAP3 POP POP DUP2 SWAP1 SSTORE POP POP POP JUMP JUMPDEST PUSH0 SELFBALANCE SWAP1 POP SWAP1 JUMP JUMPDEST PUSH0 CALLVALUE GT PUSH2 0x2B4 JUMPI PUSH1 0x40 MLOAD PUSH32 0x8C379A000000000000000000000000000000000000000000000000000000000 DUP2 MSTORE PUSH1 0x4 ADD PUSH2 0x2AB SWAP1 PUSH2 0x5E2 JUMP JUMPDEST PUSH1 0x40 MLOAD DUP1 SWAP2 SUB SWAP1 REVERT JUMPDEST CALLVALUE PUSH0 PUSH0 CALLER PUSH20 0xFFFFFFFFFFFFFFFFFFFFFFFFFFFFFFFFFFFFFFFF AND PUSH20 0xFFFFFFFFFFFFFFFFFFFFFFFFFFFFFFFFFFFFFFFF AND DUP2 MSTORE PUSH1 0x20 ADD SWAP1 DUP2 MSTORE PUSH1 0x20 ADD PUSH0 KECCAK256 PUSH0 DUP3 DUP3 SLOAD PUSH2 0x2FF SWAP2 SWAP1 PUSH2 0x600 JUMP JUMPDEST SWAP3 POP POP DUP2 SWAP1 SSTORE POP JUMP JUMPDEST PUSH0 PUSH0 REVERT JUMPDEST PUSH0 PUSH20 0xFFFFFFFFFFFFFFFFFFFFFFFFFFFFFFFFFFFFFFFF DUP3 AND SWAP1 POP SWAP2 SWAP1 POP JUMP JUMPDEST PUSH0 PUSH2 0x335 DUP3 PUSH2 0x30C JUMP JUMPDEST SWAP1 POP SWAP2 SWAP1 POP JUMP JUMPDEST PUSH2 0x345 DUP2 PUSH2 0x32B JUMP JUMPDEST DUP2 EQ PUSH2 0x34F JUMPI PUSH0 PUSH0 REVERT JUMPDEST POP JUMP JUMPDEST PUSH0 DUP2 CALLDATALOAD SWAP1 POP PUSH2 0x360 DUP2 PUSH2 0x33C JUMP JUMPDEST SWAP3 SWAP2 POP POP JUMP JUMPDEST PUSH0 PUSH1 0x20 DUP3 DUP5 SUB SLT ISZERO PUSH2 0x37B JUMPI PUSH2 0x37A PUSH2 0x308 JUMP JUMPDEST JUMPDEST PUSH0 PUSH2 0x388 DUP5 DUP3 DUP6 ADD PUSH2 0x352 JUMP JUMPDEST SWAP2 POP POP SWAP3 SWAP2 POP POP JUMP JUMPDEST PUSH0 DUP2 SWAP1 POP SWAP2 SWAP1 POP JUMP JUMPDEST PUSH2 0x3A3 DUP2 PUSH2 0x391 JUMP JUMPDEST DUP3 MSTORE POP POP JUMP JUMPDEST PUSH0 PUSH1 0x20 DUP3 ADD SWAP1 POP PUSH2 0x3BC PUSH0 DUP4 ADD DUP5 PUSH2 0x39A JUMP JUMPDEST SWAP3 SWAP2 POP POP JUMP JUMPDEST PUSH2 0x3CB DUP2 PUSH2 0x391 JUMP JUMPDEST DUP2 EQ PUSH2 0x3D5 JUMPI PUSH0 PUSH0 REVERT JUMPDEST POP JUMP JUMPDEST PUSH0 DUP2 CALLDATALOAD SWAP1 POP PUSH2 0x3E6 DUP2 PUSH2 0x3C2 JUMP JUMPDEST SWAP3 SWAP2 POP POP JUMP JUMPDEST PUSH0 PUSH1 0x20 DUP3 DUP5 SUB SLT ISZERO PUSH2 0x401 JUMPI PUSH2 0x400 PUSH2 0x308 JUMP JUMPDEST JUMPDEST PUSH0 PUSH2 0x40E DUP5 DUP3 DUP6 ADD PUSH2 0x3D8 JUMP JUMPDEST SWAP2 POP POP SWAP3 SWAP2 POP POP JUMP JUMPDEST PUSH0 DUP3 DUP3 MSTORE PUSH1 0x20 DUP3 ADD SWAP1 POP SWAP3 SWAP2 POP POP JUMP JUMPDEST PUSH32 0x496E73756666696369656E742062616C616E6365000000000000000000000000 PUSH0 DUP3 ADD MSTORE POP JUMP JUMPDEST PUSH0 PUSH2 0x45B PUSH1 0x14 DUP4 PUSH2 0x417 JUMP JUMPDEST SWAP2 POP PUSH2 0x466 DUP3 PUSH2 0x427 JUMP JUMPDEST PUSH1 0x20 DUP3 ADD SWAP1 POP SWAP2 SWAP1 POP JUMP JUMPDEST PUSH0 PUSH1 0x20 DUP3 ADD SWAP1 POP DUP2 DUP2 SUB PUSH0 DUP4 ADD MSTORE PUSH2 0x488 DUP2 PUSH2 0x44F JUMP JUMPDEST SWAP1 POP SWAP2 SWAP1 POP JUMP JUMPDEST PUSH0 DUP2 SWAP1 POP SWAP3 SWAP2 POP POP JUMP JUMPDEST POP JUMP JUMPDEST PUSH0 PUSH2 0x4A7 PUSH0 DUP4 PUSH2 0x48F JUMP JUMPDEST SWAP2 POP PUSH2 0x4B2 DUP3 PUSH2 0x499 JUMP JUMPDEST PUSH0 DUP3 ADD SWAP1 POP SWAP2 SWAP1 POP JUMP JUMPDEST PUSH0 PUSH2 0x4C6 DUP3 PUSH2 0x49C JUMP JUMPDEST SWAP2 POP DUP2 SWAP1 POP SWAP2 SWAP1 POP JUMP JUMPDEST PUSH32 0x5472616E73666572206661696C65640000000000000000000000000000000000 PUSH0 DUP3 ADD MSTORE POP JUMP JUMPDEST PUSH0 PUSH2 0x504 PUSH1 0xF DUP4 PUSH2 0x417 JUMP JUMPDEST SWAP2 POP PUSH2 0x50F DUP3 PUSH2 0x4D0 JUMP JUMPDEST PUSH1 0x20 DUP3 ADD SWAP1 POP SWAP2 SWAP1 POP JUMP JUMPDEST PUSH0 PUSH1 0x20 DUP3 ADD SWAP1 POP DUP2 DUP2 SUB PUSH0 DUP4 ADD MSTORE PUSH2 0x531 DUP2 PUSH2 0x4F8 JUMP JUMPDEST SWAP1 POP SWAP2 SWAP1 POP JUMP JUMPDEST PUSH32 0x4E487B7100000000000000000000000000000000000000000000000000000000 PUSH0 MSTORE PUSH1 0x11 PUSH1 0x4 MSTORE PUSH1 0x24 PUSH0 REVERT JUMPDEST PUSH0 PUSH2 0x56F DUP3 PUSH2 0x391 JUMP JUMPDEST SWAP2 POP PUSH2 0x57A DUP4 PUSH2 0x391 JUMP JUMPDEST SWAP3 POP DUP3 DUP3 SUB SWAP1 POP DUP2 DUP2 GT ISZERO PUSH2 0x592 JUMPI PUSH2 0x591 PUSH2 0x538 JUMP JUMPDEST JUMPDEST SWAP3 SWAP2 POP POP JUMP JUMPDEST PUSH32 0x4E6F204554482073656E74000000000000000000000000000000000000000000 PUSH0 DUP3 ADD MSTORE POP JUMP JUMPDEST PUSH0 PUSH2 0x5CC PUSH1 0xB DUP4 PUSH2 0x417 JUMP JUMPDEST SWAP2 POP PUSH2 0x5D7 DUP3 PUSH2 0x598 JUMP JUMPDEST PUSH1 0x20 DUP3 ADD SWAP1 POP SWAP2 SWAP1 POP JUMP JUMPDEST PUSH0 PUSH1 0x20 DUP3 ADD SWAP1 POP DUP2 DUP2 SUB PUSH0 DUP4 ADD MSTORE PUSH2 0x5F9 DUP2 PUSH2 0x5C0 JUMP JUMPDEST SWAP1 POP SWAP2 SWAP1 POP JUMP JUMPDEST PUSH0 PUSH2 0x60A DUP3 PUSH2 0x391 JUMP JUMPDEST SWAP2 POP PUSH2 0x615 DUP4 PUSH2 0x391 JUMP JUMPDEST SWAP3 POP DUP3 DUP3 ADD SWAP1 POP DUP1 DUP3 GT ISZERO PUSH2 0x62D JUMPI PUSH2 0x62C PUSH2 0x538 JUMP JUMPDEST JUMPDEST SWAP3 SWAP2 POP POP JUMP INVALID LOG2 PUSH5 0x6970667358 0x22 SLT KECCAK256 SWAP13 CREATE LOG2 EQ BLOBHASH EXTSTATICCALL 0x29 SWAP3 SIGNEXTEND 0xB1 0x4B PUSH14 0x20E58304C53A0C101CC6FE2ECE57 SWAP6 DUP1 0xEF RJUMPI 0xD129 PUSH5 0x736F6C6343 STOP ADDMOD 0x22 STOP CALLER "
				},
				"gasEstimates": {
					"creation": {
						"codeDepositCost": "328200",
						"executionCost": "366",
						"totalCost": "328566"
					},
					"external": {
						"balances(address)": "2779",
						"contractBalance()": "356",
						"deposit()": "infinite",
						"withdraw(uint256)": "infinite"
					}
				},
				"methodIdentifiers": {
					"balances(address)": "27e235e3",
					"contractBalance()": "8b7afe2e",
					"deposit()": "d0e30db0",
					"withdraw(uint256)": "2e1a7d4d"
				}
			},
			"storageLayout": {
				"storage": [
					{
						"astId": 5,
						"contract": "prac52.sol:EthTransferMechanicsVul",
						"label": "balances",
						"offset": 0,
						"slot": "0",
						"type": "t_mapping(t_address,t_uint256)"
					}
				],
				"types": {
					"t_address": {
						"encoding": "inplace",
						"label": "address",
						"numberOfBytes": "20"
					},
					"t_mapping(t_address,t_uint256)": {
						"encoding": "mapping",
						"key": "t_address",
						"label": "mapping(address => uint256)",
						"numberOfBytes": "32",
						"value": "t_uint256"
					},
					"t_uint256": {
						"encoding": "inplace",
						"label": "uint256",
						"numberOfBytes": "32"
					}
				}
			},
			"userdoc": {
				"kind": "user",
				"methods": {},
				"version": 1
			}
		}
	}
}