{
	"prac40.sol": {
		"NestedIfConditions": {
			"abi": [
				{
					"inputs": [],
					"stateMutability": "nonpayable",
					"type": "constructor"
				},
				{
					"inputs": [],
					"name": "BlacklistedUser",
					"type": "error"
				},
				{
					"inputs": [],
					"name": "ContractPaused",
					"type": "error"
				},
				{
					"inputs": [],
					"name": "NotOwner",
					"type": "error"
				},
				{
					"inputs": [
						{
							"internalType": "address",
							"name": "",
							"type": "address"
						}
					],
					"name": "blacklisted",
					"outputs": [
						{
							"internalType": "bool",
							"name": "",
							"type": "bool"
						}
					],
					"stateMutability": "view",
					"type": "function"
				},
				{
					"inputs": [
						{
							"internalType": "address",
							"name": "",
							"type": "address"
						}
					],
					"name": "levels",
					"outputs": [
						{
							"internalType": "string",
							"name": "",
							"type": "string"
						}
					],
					"stateMutability": "view",
					"type": "function"
				},
				{
					"inputs": [],
					"name": "owner",
					"outputs": [
						{
							"internalType": "address",
							"name": "",
							"type": "address"
						}
					],
					"stateMutability": "view",
					"type": "function"
				},
				{
					"inputs": [
						{
							"internalType": "address",
							"name": "_user",
							"type": "address"
						}
					],
					"name": "ownerBonus",
					"outputs": [],
					"stateMutability": "nonpayable",
					"type": "function"
				},
				{
					"inputs": [],
					"name": "paused",
					"outputs": [
						{
							"internalType": "bool",
							"name": "",
							"type": "bool"
						}
					],
					"stateMutability": "view",
					"type": "function"
				},
				{
					"inputs": [
						{
							"internalType": "address",
							"name": "",
							"type": "address"
						}
					],
					"name": "scores",
					"outputs": [
						{
							"internalType": "uint256",
							"name": "",
							"type": "uint256"
						}
					],
					"stateMutability": "view",
					"type": "function"
				},
				{
					"inputs": [
						{
							"internalType": "address",
							"name": "",
							"type": "address"
						}
					],
					"name": "vipUsers",
					"outputs": [
						{
							"internalType": "bool",
							"name": "",
							"type": "bool"
						}
					],
					"stateMutability": "view",
					"type": "function"
				}
			],
			"devdoc": {
				"kind": "dev",
				"methods": {},
				"version": 1
			},
			"evm": {
				"assembly": "    /* \"prac40.sol\":11111:12140  contract NestedIfConditions {... */\n  mstore(0x40, 0x80)\n    /* \"prac40.sol\":11488:11539  constructor() {... */\n  callvalue\n  dup1\n  iszero\n  tag_1\n  jumpi\n  revert(0x00, 0x00)\ntag_1:\n  pop\n    /* \"prac40.sol\":11521:11531  msg.sender */\n  caller\n    /* \"prac40.sol\":11513:11518  owner */\n  0x00\n  0x00\n    /* \"prac40.sol\":11513:11531  owner = msg.sender */\n  0x0100\n  exp\n  dup2\n  sload\n  dup2\n  0xffffffffffffffffffffffffffffffffffffffff\n  mul\n  not\n  and\n  swap1\n  dup4\n  0xffffffffffffffffffffffffffffffffffffffff\n  and\n  mul\n  or\n  swap1\n  sstore\n  pop\n    /* \"prac40.sol\":11111:12140  contract NestedIfConditions {... */\n  dataSize(sub_0)\n  dup1\n  dataOffset(sub_0)\n  0x00\n  codecopy\n  0x00\n  return\nstop\n\nsub_0: assembly {\n        /* \"prac40.sol\":11111:12140  contract NestedIfConditions {... */\n      mstore(0x40, 0x80)\n      callvalue\n      dup1\n      iszero\n      tag_1\n      jumpi\n      revert(0x00, 0x00)\n    tag_1:\n      pop\n      jumpi(tag_2, lt(calldatasize, 0x04))\n      shr(0xe0, calldataload(0x00))\n      dup1\n      0x5c975abb\n      gt\n      tag_10\n      jumpi\n      dup1\n      0x5c975abb\n      eq\n      tag_6\n      jumpi\n      dup1\n      0x76dd110f\n      eq\n      tag_7\n      jumpi\n      dup1\n      0x8da5cb5b\n      eq\n      tag_8\n      jumpi\n      dup1\n      0xdbac26e9\n      eq\n      tag_9\n      jumpi\n      jump(tag_2)\n    tag_10:\n      dup1\n      0x421a9ab1\n      eq\n      tag_3\n      jumpi\n      dup1\n      0x47082db3\n      eq\n      tag_4\n      jumpi\n      dup1\n      0x4a257567\n      eq\n      tag_5\n      jumpi\n    tag_2:\n      revert(0x00, 0x00)\n        /* \"prac40.sol\":11360:11400  mapping(address => bool) public vipUsers */\n    tag_3:\n      tag_11\n      0x04\n      dup1\n      calldatasize\n      sub\n      dup2\n      add\n      swap1\n      tag_12\n      swap2\n      swap1\n      tag_13\n      jump\t// in\n    tag_12:\n      tag_14\n      jump\t// in\n    tag_11:\n      mload(0x40)\n      tag_15\n      swap2\n      swap1\n      tag_16\n      jump\t// in\n    tag_15:\n      mload(0x40)\n      dup1\n      swap2\n      sub\n      swap1\n      return\n        /* \"prac40.sol\":11311:11351  mapping(address => string) public levels */\n    tag_4:\n      tag_17\n      0x04\n      dup1\n      calldatasize\n      sub\n      dup2\n      add\n      swap1\n      tag_18\n      swap2\n      swap1\n      tag_13\n      jump\t// in\n    tag_18:\n      tag_19\n      jump\t// in\n    tag_17:\n      mload(0x40)\n      tag_20\n      swap2\n      swap1\n      tag_21\n      jump\t// in\n    tag_20:\n      mload(0x40)\n      dup1\n      swap2\n      sub\n      swap1\n      return\n        /* \"prac40.sol\":11547:12137  function ownerBonus(... */\n    tag_5:\n      tag_22\n      0x04\n      dup1\n      calldatasize\n      sub\n      dup2\n      add\n      swap1\n      tag_23\n      swap2\n      swap1\n      tag_13\n      jump\t// in\n    tag_23:\n      tag_24\n      jump\t// in\n    tag_22:\n      stop\n        /* \"prac40.sol\":11461:11479  bool public paused */\n    tag_6:\n      tag_25\n      tag_26\n      jump\t// in\n    tag_25:\n      mload(0x40)\n      tag_27\n      swap2\n      swap1\n      tag_16\n      jump\t// in\n    tag_27:\n      mload(0x40)\n      dup1\n      swap2\n      sub\n      swap1\n      return\n        /* \"prac40.sol\":11261:11302  mapping(address => uint256) public scores */\n    tag_7:\n      tag_28\n      0x04\n      dup1\n      calldatasize\n      sub\n      dup2\n      add\n      swap1\n      tag_29\n      swap2\n      swap1\n      tag_13\n      jump\t// in\n    tag_29:\n      tag_30\n      jump\t// in\n    tag_28:\n      mload(0x40)\n      tag_31\n      swap2\n      swap1\n      tag_32\n      jump\t// in\n    tag_31:\n      mload(0x40)\n      dup1\n      swap2\n      sub\n      swap1\n      return\n        /* \"prac40.sol\":11232:11252  address public owner */\n    tag_8:\n      tag_33\n      tag_34\n      jump\t// in\n    tag_33:\n      mload(0x40)\n      tag_35\n      swap2\n      swap1\n      tag_36\n      jump\t// in\n    tag_35:\n      mload(0x40)\n      dup1\n      swap2\n      sub\n      swap1\n      return\n        /* \"prac40.sol\":11409:11452  mapping(address => bool) public blacklisted */\n    tag_9:\n      tag_37\n      0x04\n      dup1\n      calldatasize\n      sub\n      dup2\n      add\n      swap1\n      tag_38\n      swap2\n      swap1\n      tag_13\n      jump\t// in\n    tag_38:\n      tag_39\n      jump\t// in\n    tag_37:\n      mload(0x40)\n      tag_40\n      swap2\n      swap1\n      tag_16\n      jump\t// in\n    tag_40:\n      mload(0x40)\n      dup1\n      swap2\n      sub\n      swap1\n      return\n        /* \"prac40.sol\":11360:11400  mapping(address => bool) public vipUsers */\n    tag_14:\n      mstore(0x20, 0x03)\n      dup1\n      0x00\n      mstore\n      keccak256(0x00, 0x40)\n      0x00\n      swap2\n      pop\n      sload\n      swap1\n      0x0100\n      exp\n      swap1\n      div\n      0xff\n      and\n      dup2\n      jump\t// out\n        /* \"prac40.sol\":11311:11351  mapping(address => string) public levels */\n    tag_19:\n      mstore(0x20, 0x02)\n      dup1\n      0x00\n      mstore\n      keccak256(0x00, 0x40)\n      0x00\n      swap2\n      pop\n      swap1\n      pop\n      dup1\n      sload\n      tag_41\n      swap1\n      tag_42\n      jump\t// in\n    tag_41:\n      dup1\n      0x1f\n      add\n      0x20\n      dup1\n      swap2\n      div\n      mul\n      0x20\n      add\n      mload(0x40)\n      swap1\n      dup2\n      add\n      0x40\n      mstore\n      dup1\n      swap3\n      swap2\n      swap1\n      dup2\n      dup2\n      mstore\n      0x20\n      add\n      dup3\n      dup1\n      sload\n      tag_43\n      swap1\n      tag_42\n      jump\t// in\n    tag_43:\n      dup1\n      iszero\n      tag_44\n      jumpi\n      dup1\n      0x1f\n      lt\n      tag_45\n      jumpi\n      0x0100\n      dup1\n      dup4\n      sload\n      div\n      mul\n      dup4\n      mstore\n      swap2\n      0x20\n      add\n      swap2\n      jump(tag_44)\n    tag_45:\n      dup3\n      add\n      swap2\n      swap1\n      0x00\n      mstore\n      keccak256(0x00, 0x20)\n      swap1\n    tag_46:\n      dup2\n      sload\n      dup2\n      mstore\n      swap1\n      0x01\n      add\n      swap1\n      0x20\n      add\n      dup1\n      dup4\n      gt\n      tag_46\n      jumpi\n      dup3\n      swap1\n      sub\n      0x1f\n      and\n      dup3\n      add\n      swap2\n    tag_44:\n      pop\n      pop\n      pop\n      pop\n      pop\n      dup2\n      jump\t// out\n        /* \"prac40.sol\":11547:12137  function ownerBonus(... */\n    tag_24:\n        /* \"prac40.sol\":11682:11688  paused */\n      0x05\n      0x00\n      swap1\n      sload\n      swap1\n      0x0100\n      exp\n      swap1\n      div\n      0xff\n      and\n        /* \"prac40.sol\":11678:11740  if (paused) {... */\n      iszero\n      tag_48\n      jumpi\n        /* \"prac40.sol\":11712:11728  ContractPaused() */\n      mload(0x40)\n      0xab35696f00000000000000000000000000000000000000000000000000000000\n      dup2\n      mstore\n      0x04\n      add\n      mload(0x40)\n      dup1\n      swap2\n      sub\n      swap1\n      revert\n        /* \"prac40.sol\":11678:11740  if (paused) {... */\n    tag_48:\n        /* \"prac40.sol\":11816:11821  owner */\n      0x00\n      0x00\n      swap1\n      sload\n      swap1\n      0x0100\n      exp\n      swap1\n      div\n      0xffffffffffffffffffffffffffffffffffffffff\n      and\n        /* \"prac40.sol\":11802:11821  msg.sender != owner */\n      0xffffffffffffffffffffffffffffffffffffffff\n      and\n        /* \"prac40.sol\":11802:11812  msg.sender */\n      caller\n        /* \"prac40.sol\":11802:11821  msg.sender != owner */\n      0xffffffffffffffffffffffffffffffffffffffff\n      and\n      eq\n        /* \"prac40.sol\":11798:11867  if (msg.sender != owner) {... */\n      tag_49\n      jumpi\n        /* \"prac40.sol\":11845:11855  NotOwner() */\n      mload(0x40)\n      0x30cd747100000000000000000000000000000000000000000000000000000000\n      dup2\n      mstore\n      0x04\n      add\n      mload(0x40)\n      dup1\n      swap2\n      sub\n      swap1\n      revert\n        /* \"prac40.sol\":11798:11867  if (msg.sender != owner) {... */\n    tag_49:\n        /* \"prac40.sol\":11929:11940  blacklisted */\n      0x04\n        /* \"prac40.sol\":11929:11947  blacklisted[_user] */\n      0x00\n        /* \"prac40.sol\":11941:11946  _user */\n      dup3\n        /* \"prac40.sol\":11929:11947  blacklisted[_user] */\n      0xffffffffffffffffffffffffffffffffffffffff\n      and\n      0xffffffffffffffffffffffffffffffffffffffff\n      and\n      dup2\n      mstore\n      0x20\n      add\n      swap1\n      dup2\n      mstore\n      0x20\n      add\n      0x00\n      keccak256\n      0x00\n      swap1\n      sload\n      swap1\n      0x0100\n      exp\n      swap1\n      div\n      0xff\n      and\n        /* \"prac40.sol\":11925:12000  if (blacklisted[_user]) {... */\n      iszero\n      tag_50\n      jumpi\n        /* \"prac40.sol\":11971:11988  BlacklistedUser() */\n      mload(0x40)\n      0xd9a60d2d00000000000000000000000000000000000000000000000000000000\n      dup2\n      mstore\n      0x04\n      add\n      mload(0x40)\n      dup1\n      swap2\n      sub\n      swap1\n      revert\n        /* \"prac40.sol\":11925:12000  if (blacklisted[_user]) {... */\n    tag_50:\n        /* \"prac40.sol\":12078:12080  80 */\n      0x50\n        /* \"prac40.sol\":12061:12067  scores */\n      0x01\n        /* \"prac40.sol\":12061:12074  scores[_user] */\n      0x00\n        /* \"prac40.sol\":12068:12073  _user */\n      dup4\n        /* \"prac40.sol\":12061:12074  scores[_user] */\n      0xffffffffffffffffffffffffffffffffffffffff\n      and\n      0xffffffffffffffffffffffffffffffffffffffff\n      and\n      dup2\n      mstore\n      0x20\n      add\n      swap1\n      dup2\n      mstore\n      0x20\n      add\n      0x00\n      keccak256\n      sload\n        /* \"prac40.sol\":12061:12080  scores[_user] >= 80 */\n      lt\n        /* \"prac40.sol\":12057:12130  if (scores[_user] >= 80) {... */\n      tag_51\n      jumpi\n        /* \"prac40.sol\":12116:12118  20 */\n      0x14\n        /* \"prac40.sol\":12099:12105  scores */\n      0x01\n        /* \"prac40.sol\":12099:12112  scores[_user] */\n      0x00\n        /* \"prac40.sol\":12106:12111  _user */\n      dup4\n        /* \"prac40.sol\":12099:12112  scores[_user] */\n      0xffffffffffffffffffffffffffffffffffffffff\n      and\n      0xffffffffffffffffffffffffffffffffffffffff\n      and\n      dup2\n      mstore\n      0x20\n      add\n      swap1\n      dup2\n      mstore\n      0x20\n      add\n      0x00\n      keccak256\n      0x00\n        /* \"prac40.sol\":12099:12118  scores[_user] += 20 */\n      dup3\n      dup3\n      sload\n      tag_52\n      swap2\n      swap1\n      tag_53\n      jump\t// in\n    tag_52:\n      swap3\n      pop\n      pop\n      dup2\n      swap1\n      sstore\n      pop\n        /* \"prac40.sol\":12057:12130  if (scores[_user] >= 80) {... */\n    tag_51:\n        /* \"prac40.sol\":11547:12137  function ownerBonus(... */\n      pop\n      jump\t// out\n        /* \"prac40.sol\":11461:11479  bool public paused */\n    tag_26:\n      0x05\n      0x00\n      swap1\n      sload\n      swap1\n      0x0100\n      exp\n      swap1\n      div\n      0xff\n      and\n      dup2\n      jump\t// out\n        /* \"prac40.sol\":11261:11302  mapping(address => uint256) public scores */\n    tag_30:\n      mstore(0x20, 0x01)\n      dup1\n      0x00\n      mstore\n      keccak256(0x00, 0x40)\n      0x00\n      swap2\n      pop\n      swap1\n      pop\n      sload\n      dup2\n      jump\t// out\n        /* \"prac40.sol\":11232:11252  address public owner */\n    tag_34:\n      0x00\n      0x00\n      swap1\n      sload\n      swap1\n      0x0100\n      exp\n      swap1\n      div\n      0xffffffffffffffffffffffffffffffffffffffff\n      and\n      dup2\n      jump\t// out\n        /* \"prac40.sol\":11409:11452  mapping(address => bool) public blacklisted */\n    tag_39:\n      mstore(0x20, 0x04)\n      dup1\n      0x00\n      mstore\n      keccak256(0x00, 0x40)\n      0x00\n      swap2\n      pop\n      sload\n      swap1\n      0x0100\n      exp\n      swap1\n      div\n      0xff\n      and\n      dup2\n      jump\t// out\n        /* \"#utility.yul\":88:205   */\n    tag_55:\n        /* \"#utility.yul\":197:198   */\n      0x00\n        /* \"#utility.yul\":194:195   */\n      0x00\n        /* \"#utility.yul\":187:199   */\n      revert\n        /* \"#utility.yul\":334:460   */\n    tag_57:\n        /* \"#utility.yul\":371:378   */\n      0x00\n        /* \"#utility.yul\":411:453   */\n      0xffffffffffffffffffffffffffffffffffffffff\n        /* \"#utility.yul\":404:409   */\n      dup3\n        /* \"#utility.yul\":400:454   */\n      and\n        /* \"#utility.yul\":389:454   */\n      swap1\n      pop\n        /* \"#utility.yul\":334:460   */\n      swap2\n      swap1\n      pop\n      jump\t// out\n        /* \"#utility.yul\":466:562   */\n    tag_58:\n        /* \"#utility.yul\":503:510   */\n      0x00\n        /* \"#utility.yul\":532:556   */\n      tag_79\n        /* \"#utility.yul\":550:555   */\n      dup3\n        /* \"#utility.yul\":532:556   */\n      tag_57\n      jump\t// in\n    tag_79:\n        /* \"#utility.yul\":521:556   */\n      swap1\n      pop\n        /* \"#utility.yul\":466:562   */\n      swap2\n      swap1\n      pop\n      jump\t// out\n        /* \"#utility.yul\":568:690   */\n    tag_59:\n        /* \"#utility.yul\":641:665   */\n      tag_81\n        /* \"#utility.yul\":659:664   */\n      dup2\n        /* \"#utility.yul\":641:665   */\n      tag_58\n      jump\t// in\n    tag_81:\n        /* \"#utility.yul\":634:639   */\n      dup2\n        /* \"#utility.yul\":631:666   */\n      eq\n        /* \"#utility.yul\":621:684   */\n      tag_82\n      jumpi\n        /* \"#utility.yul\":680:681   */\n      0x00\n        /* \"#utility.yul\":677:678   */\n      0x00\n        /* \"#utility.yul\":670:682   */\n      revert\n        /* \"#utility.yul\":621:684   */\n    tag_82:\n        /* \"#utility.yul\":568:690   */\n      pop\n      jump\t// out\n        /* \"#utility.yul\":696:835   */\n    tag_60:\n        /* \"#utility.yul\":742:747   */\n      0x00\n        /* \"#utility.yul\":780:786   */\n      dup2\n        /* \"#utility.yul\":767:787   */\n      calldataload\n        /* \"#utility.yul\":758:787   */\n      swap1\n      pop\n        /* \"#utility.yul\":796:829   */\n      tag_84\n        /* \"#utility.yul\":823:828   */\n      dup2\n        /* \"#utility.yul\":796:829   */\n      tag_59\n      jump\t// in\n    tag_84:\n        /* \"#utility.yul\":696:835   */\n      swap3\n      swap2\n      pop\n      pop\n      jump\t// out\n        /* \"#utility.yul\":841:1170   */\n    tag_13:\n        /* \"#utility.yul\":900:906   */\n      0x00\n        /* \"#utility.yul\":949:951   */\n      0x20\n        /* \"#utility.yul\":937:946   */\n      dup3\n        /* \"#utility.yul\":928:935   */\n      dup5\n        /* \"#utility.yul\":924:947   */\n      sub\n        /* \"#utility.yul\":920:952   */\n      slt\n        /* \"#utility.yul\":917:1036   */\n      iszero\n      tag_86\n      jumpi\n        /* \"#utility.yul\":955:1034   */\n      tag_87\n      tag_55\n      jump\t// in\n    tag_87:\n        /* \"#utility.yul\":917:1036   */\n    tag_86:\n        /* \"#utility.yul\":1075:1076   */\n      0x00\n        /* \"#utility.yul\":1100:1153   */\n      tag_88\n        /* \"#utility.yul\":1145:1152   */\n      dup5\n        /* \"#utility.yul\":1136:1142   */\n      dup3\n        /* \"#utility.yul\":1125:1134   */\n      dup6\n        /* \"#utility.yul\":1121:1143   */\n      add\n        /* \"#utility.yul\":1100:1153   */\n      tag_60\n      jump\t// in\n    tag_88:\n        /* \"#utility.yul\":1090:1153   */\n      swap2\n      pop\n        /* \"#utility.yul\":1046:1163   */\n      pop\n        /* \"#utility.yul\":841:1170   */\n      swap3\n      swap2\n      pop\n      pop\n      jump\t// out\n        /* \"#utility.yul\":1176:1266   */\n    tag_61:\n        /* \"#utility.yul\":1210:1217   */\n      0x00\n        /* \"#utility.yul\":1253:1258   */\n      dup2\n        /* \"#utility.yul\":1246:1259   */\n      iszero\n        /* \"#utility.yul\":1239:1260   */\n      iszero\n        /* \"#utility.yul\":1228:1260   */\n      swap1\n      pop\n        /* \"#utility.yul\":1176:1266   */\n      swap2\n      swap1\n      pop\n      jump\t// out\n        /* \"#utility.yul\":1272:1381   */\n    tag_62:\n        /* \"#utility.yul\":1353:1374   */\n      tag_91\n        /* \"#utility.yul\":1368:1373   */\n      dup2\n        /* \"#utility.yul\":1353:1374   */\n      tag_61\n      jump\t// in\n    tag_91:\n        /* \"#utility.yul\":1348:1351   */\n      dup3\n        /* \"#utility.yul\":1341:1375   */\n      mstore\n        /* \"#utility.yul\":1272:1381   */\n      pop\n      pop\n      jump\t// out\n        /* \"#utility.yul\":1387:1597   */\n    tag_16:\n        /* \"#utility.yul\":1474:1478   */\n      0x00\n        /* \"#utility.yul\":1512:1514   */\n      0x20\n        /* \"#utility.yul\":1501:1510   */\n      dup3\n        /* \"#utility.yul\":1497:1515   */\n      add\n        /* \"#utility.yul\":1489:1515   */\n      swap1\n      pop\n        /* \"#utility.yul\":1525:1590   */\n      tag_93\n        /* \"#utility.yul\":1587:1588   */\n      0x00\n        /* \"#utility.yul\":1576:1585   */\n      dup4\n        /* \"#utility.yul\":1572:1589   */\n      add\n        /* \"#utility.yul\":1563:1569   */\n      dup5\n        /* \"#utility.yul\":1525:1590   */\n      tag_62\n      jump\t// in\n    tag_93:\n        /* \"#utility.yul\":1387:1597   */\n      swap3\n      swap2\n      pop\n      pop\n      jump\t// out\n        /* \"#utility.yul\":1603:1702   */\n    tag_63:\n        /* \"#utility.yul\":1655:1661   */\n      0x00\n        /* \"#utility.yul\":1689:1694   */\n      dup2\n        /* \"#utility.yul\":1683:1695   */\n      mload\n        /* \"#utility.yul\":1673:1695   */\n      swap1\n      pop\n        /* \"#utility.yul\":1603:1702   */\n      swap2\n      swap1\n      pop\n      jump\t// out\n        /* \"#utility.yul\":1708:1877   */\n    tag_64:\n        /* \"#utility.yul\":1792:1803   */\n      0x00\n        /* \"#utility.yul\":1826:1832   */\n      dup3\n        /* \"#utility.yul\":1821:1824   */\n      dup3\n        /* \"#utility.yul\":1814:1833   */\n      mstore\n        /* \"#utility.yul\":1866:1870   */\n      0x20\n        /* \"#utility.yul\":1861:1864   */\n      dup3\n        /* \"#utility.yul\":1857:1871   */\n      add\n        /* \"#utility.yul\":1842:1871   */\n      swap1\n      pop\n        /* \"#utility.yul\":1708:1877   */\n      swap3\n      swap2\n      pop\n      pop\n      jump\t// out\n        /* \"#utility.yul\":1883:2022   */\n    tag_65:\n        /* \"#utility.yul\":1972:1978   */\n      dup3\n        /* \"#utility.yul\":1967:1970   */\n      dup2\n        /* \"#utility.yul\":1962:1965   */\n      dup4\n        /* \"#utility.yul\":1956:1979   */\n      mcopy\n        /* \"#utility.yul\":2013:2014   */\n      0x00\n        /* \"#utility.yul\":2004:2010   */\n      dup4\n        /* \"#utility.yul\":1999:2002   */\n      dup4\n        /* \"#utility.yul\":1995:2011   */\n      add\n        /* \"#utility.yul\":1988:2015   */\n      mstore\n        /* \"#utility.yul\":1883:2022   */\n      pop\n      pop\n      pop\n      jump\t// out\n        /* \"#utility.yul\":2028:2130   */\n    tag_66:\n        /* \"#utility.yul\":2069:2075   */\n      0x00\n        /* \"#utility.yul\":2120:2122   */\n      0x1f\n        /* \"#utility.yul\":2116:2123   */\n      not\n        /* \"#utility.yul\":2111:2113   */\n      0x1f\n        /* \"#utility.yul\":2104:2109   */\n      dup4\n        /* \"#utility.yul\":2100:2114   */\n      add\n        /* \"#utility.yul\":2096:2124   */\n      and\n        /* \"#utility.yul\":2086:2124   */\n      swap1\n      pop\n        /* \"#utility.yul\":2028:2130   */\n      swap2\n      swap1\n      pop\n      jump\t// out\n        /* \"#utility.yul\":2136:2513   */\n    tag_67:\n        /* \"#utility.yul\":2224:2227   */\n      0x00\n        /* \"#utility.yul\":2252:2291   */\n      tag_99\n        /* \"#utility.yul\":2285:2290   */\n      dup3\n        /* \"#utility.yul\":2252:2291   */\n      tag_63\n      jump\t// in\n    tag_99:\n        /* \"#utility.yul\":2307:2378   */\n      tag_100\n        /* \"#utility.yul\":2371:2377   */\n      dup2\n        /* \"#utility.yul\":2366:2369   */\n      dup6\n        /* \"#utility.yul\":2307:2378   */\n      tag_64\n      jump\t// in\n    tag_100:\n        /* \"#utility.yul\":2300:2378   */\n      swap4\n      pop\n        /* \"#utility.yul\":2387:2452   */\n      tag_101\n        /* \"#utility.yul\":2445:2451   */\n      dup2\n        /* \"#utility.yul\":2440:2443   */\n      dup6\n        /* \"#utility.yul\":2433:2437   */\n      0x20\n        /* \"#utility.yul\":2426:2431   */\n      dup7\n        /* \"#utility.yul\":2422:2438   */\n      add\n        /* \"#utility.yul\":2387:2452   */\n      tag_65\n      jump\t// in\n    tag_101:\n        /* \"#utility.yul\":2477:2506   */\n      tag_102\n        /* \"#utility.yul\":2499:2505   */\n      dup2\n        /* \"#utility.yul\":2477:2506   */\n      tag_66\n      jump\t// in\n    tag_102:\n        /* \"#utility.yul\":2472:2475   */\n      dup5\n        /* \"#utility.yul\":2468:2507   */\n      add\n        /* \"#utility.yul\":2461:2507   */\n      swap2\n      pop\n        /* \"#utility.yul\":2228:2513   */\n      pop\n        /* \"#utility.yul\":2136:2513   */\n      swap3\n      swap2\n      pop\n      pop\n      jump\t// out\n        /* \"#utility.yul\":2519:2832   */\n    tag_21:\n        /* \"#utility.yul\":2632:2636   */\n      0x00\n        /* \"#utility.yul\":2670:2672   */\n      0x20\n        /* \"#utility.yul\":2659:2668   */\n      dup3\n        /* \"#utility.yul\":2655:2673   */\n      add\n        /* \"#utility.yul\":2647:2673   */\n      swap1\n      pop\n        /* \"#utility.yul\":2719:2728   */\n      dup2\n        /* \"#utility.yul\":2713:2717   */\n      dup2\n        /* \"#utility.yul\":2709:2729   */\n      sub\n        /* \"#utility.yul\":2705:2706   */\n      0x00\n        /* \"#utility.yul\":2694:2703   */\n      dup4\n        /* \"#utility.yul\":2690:2707   */\n      add\n        /* \"#utility.yul\":2683:2730   */\n      mstore\n        /* \"#utility.yul\":2747:2825   */\n      tag_104\n        /* \"#utility.yul\":2820:2824   */\n      dup2\n        /* \"#utility.yul\":2811:2817   */\n      dup5\n        /* \"#utility.yul\":2747:2825   */\n      tag_67\n      jump\t// in\n    tag_104:\n        /* \"#utility.yul\":2739:2825   */\n      swap1\n      pop\n        /* \"#utility.yul\":2519:2832   */\n      swap3\n      swap2\n      pop\n      pop\n      jump\t// out\n        /* \"#utility.yul\":2838:2915   */\n    tag_68:\n        /* \"#utility.yul\":2875:2882   */\n      0x00\n        /* \"#utility.yul\":2904:2909   */\n      dup2\n        /* \"#utility.yul\":2893:2909   */\n      swap1\n      pop\n        /* \"#utility.yul\":2838:2915   */\n      swap2\n      swap1\n      pop\n      jump\t// out\n        /* \"#utility.yul\":2921:3039   */\n    tag_69:\n        /* \"#utility.yul\":3008:3032   */\n      tag_107\n        /* \"#utility.yul\":3026:3031   */\n      dup2\n        /* \"#utility.yul\":3008:3032   */\n      tag_68\n      jump\t// in\n    tag_107:\n        /* \"#utility.yul\":3003:3006   */\n      dup3\n        /* \"#utility.yul\":2996:3033   */\n      mstore\n        /* \"#utility.yul\":2921:3039   */\n      pop\n      pop\n      jump\t// out\n        /* \"#utility.yul\":3045:3267   */\n    tag_32:\n        /* \"#utility.yul\":3138:3142   */\n      0x00\n        /* \"#utility.yul\":3176:3178   */\n      0x20\n        /* \"#utility.yul\":3165:3174   */\n      dup3\n        /* \"#utility.yul\":3161:3179   */\n      add\n        /* \"#utility.yul\":3153:3179   */\n      swap1\n      pop\n        /* \"#utility.yul\":3189:3260   */\n      tag_109\n        /* \"#utility.yul\":3257:3258   */\n      0x00\n        /* \"#utility.yul\":3246:3255   */\n      dup4\n        /* \"#utility.yul\":3242:3259   */\n      add\n        /* \"#utility.yul\":3233:3239   */\n      dup5\n        /* \"#utility.yul\":3189:3260   */\n      tag_69\n      jump\t// in\n    tag_109:\n        /* \"#utility.yul\":3045:3267   */\n      swap3\n      swap2\n      pop\n      pop\n      jump\t// out\n        /* \"#utility.yul\":3273:3391   */\n    tag_70:\n        /* \"#utility.yul\":3360:3384   */\n      tag_111\n        /* \"#utility.yul\":3378:3383   */\n      dup2\n        /* \"#utility.yul\":3360:3384   */\n      tag_58\n      jump\t// in\n    tag_111:\n        /* \"#utility.yul\":3355:3358   */\n      dup3\n        /* \"#utility.yul\":3348:3385   */\n      mstore\n        /* \"#utility.yul\":3273:3391   */\n      pop\n      pop\n      jump\t// out\n        /* \"#utility.yul\":3397:3619   */\n    tag_36:\n        /* \"#utility.yul\":3490:3494   */\n      0x00\n        /* \"#utility.yul\":3528:3530   */\n      0x20\n        /* \"#utility.yul\":3517:3526   */\n      dup3\n        /* \"#utility.yul\":3513:3531   */\n      add\n        /* \"#utility.yul\":3505:3531   */\n      swap1\n      pop\n        /* \"#utility.yul\":3541:3612   */\n      tag_113\n        /* \"#utility.yul\":3609:3610   */\n      0x00\n        /* \"#utility.yul\":3598:3607   */\n      dup4\n        /* \"#utility.yul\":3594:3611   */\n      add\n        /* \"#utility.yul\":3585:3591   */\n      dup5\n        /* \"#utility.yul\":3541:3612   */\n      tag_70\n      jump\t// in\n    tag_113:\n        /* \"#utility.yul\":3397:3619   */\n      swap3\n      swap2\n      pop\n      pop\n      jump\t// out\n        /* \"#utility.yul\":3625:3805   */\n    tag_71:\n        /* \"#utility.yul\":3673:3750   */\n      0x4e487b7100000000000000000000000000000000000000000000000000000000\n        /* \"#utility.yul\":3670:3671   */\n      0x00\n        /* \"#utility.yul\":3663:3751   */\n      mstore\n        /* \"#utility.yul\":3770:3774   */\n      0x22\n        /* \"#utility.yul\":3767:3768   */\n      0x04\n        /* \"#utility.yul\":3760:3775   */\n      mstore\n        /* \"#utility.yul\":3794:3798   */\n      0x24\n        /* \"#utility.yul\":3791:3792   */\n      0x00\n        /* \"#utility.yul\":3784:3799   */\n      revert\n        /* \"#utility.yul\":3811:4131   */\n    tag_42:\n        /* \"#utility.yul\":3855:3861   */\n      0x00\n        /* \"#utility.yul\":3892:3893   */\n      0x02\n        /* \"#utility.yul\":3886:3890   */\n      dup3\n        /* \"#utility.yul\":3882:3894   */\n      div\n        /* \"#utility.yul\":3872:3894   */\n      swap1\n      pop\n        /* \"#utility.yul\":3939:3940   */\n      0x01\n        /* \"#utility.yul\":3933:3937   */\n      dup3\n        /* \"#utility.yul\":3929:3941   */\n      and\n        /* \"#utility.yul\":3960:3978   */\n      dup1\n        /* \"#utility.yul\":3950:4031   */\n      tag_116\n      jumpi\n        /* \"#utility.yul\":4016:4020   */\n      0x7f\n        /* \"#utility.yul\":4008:4014   */\n      dup3\n        /* \"#utility.yul\":4004:4021   */\n      and\n        /* \"#utility.yul\":3994:4021   */\n      swap2\n      pop\n        /* \"#utility.yul\":3950:4031   */\n    tag_116:\n        /* \"#utility.yul\":4078:4080   */\n      0x20\n        /* \"#utility.yul\":4070:4076   */\n      dup3\n        /* \"#utility.yul\":4067:4081   */\n      lt\n        /* \"#utility.yul\":4047:4065   */\n      dup2\n        /* \"#utility.yul\":4044:4082   */\n      sub\n        /* \"#utility.yul\":4041:4125   */\n      tag_117\n      jumpi\n        /* \"#utility.yul\":4097:4115   */\n      tag_118\n      tag_71\n      jump\t// in\n    tag_118:\n        /* \"#utility.yul\":4041:4125   */\n    tag_117:\n        /* \"#utility.yul\":3862:4131   */\n      pop\n        /* \"#utility.yul\":3811:4131   */\n      swap2\n      swap1\n      pop\n      jump\t// out\n        /* \"#utility.yul\":4137:4317   */\n    tag_72:\n        /* \"#utility.yul\":4185:4262   */\n      0x4e487b7100000000000000000000000000000000000000000000000000000000\n        /* \"#utility.yul\":4182:4183   */\n      0x00\n        /* \"#utility.yul\":4175:4263   */\n      mstore\n        /* \"#utility.yul\":4282:4286   */\n      0x11\n        /* \"#utility.yul\":4279:4280   */\n      0x04\n        /* \"#utility.yul\":4272:4287   */\n      mstore\n        /* \"#utility.yul\":4306:4310   */\n      0x24\n        /* \"#utility.yul\":4303:4304   */\n      0x00\n        /* \"#utility.yul\":4296:4311   */\n      revert\n        /* \"#utility.yul\":4323:4514   */\n    tag_53:\n        /* \"#utility.yul\":4363:4366   */\n      0x00\n        /* \"#utility.yul\":4382:4402   */\n      tag_121\n        /* \"#utility.yul\":4400:4401   */\n      dup3\n        /* \"#utility.yul\":4382:4402   */\n      tag_68\n      jump\t// in\n    tag_121:\n        /* \"#utility.yul\":4377:4402   */\n      swap2\n      pop\n        /* \"#utility.yul\":4416:4436   */\n      tag_122\n        /* \"#utility.yul\":4434:4435   */\n      dup4\n        /* \"#utility.yul\":4416:4436   */\n      tag_68\n      jump\t// in\n    tag_122:\n        /* \"#utility.yul\":4411:4436   */\n      swap3\n      pop\n        /* \"#utility.yul\":4459:4460   */\n      dup3\n        /* \"#utility.yul\":4456:4457   */\n      dup3\n        /* \"#utility.yul\":4452:4461   */\n      add\n        /* \"#utility.yul\":4445:4461   */\n      swap1\n      pop\n        /* \"#utility.yul\":4480:4483   */\n      dup1\n        /* \"#utility.yul\":4477:4478   */\n      dup3\n        /* \"#utility.yul\":4474:4484   */\n      gt\n        /* \"#utility.yul\":4471:4507   */\n      iszero\n      tag_123\n      jumpi\n        /* \"#utility.yul\":4487:4505   */\n      tag_124\n      tag_72\n      jump\t// in\n    tag_124:\n        /* \"#utility.yul\":4471:4507   */\n    tag_123:\n        /* \"#utility.yul\":4323:4514   */\n      swap3\n      swap2\n      pop\n      pop\n      jump\t// out\n\n    auxdata: 0xa26469706673582212200c1d1ca59ddaa58039e65f82647ab500a99e07b0586e77b3f5f3a5da66ef00ca64736f6c63430008220033\n}\n",
				"bytecode": {
					"linkReferences": {},
					"object": "6080604052348015600e575f5ffd5b50335f5f6101000a81548173ffffffffffffffffffffffffffffffffffffffff021916908373ffffffffffffffffffffffffffffffffffffffff1602179055506107388061005b5f395ff3fe608060405234801561000f575f5ffd5b506004361061007b575f3560e01c80635c975abb116100595780635c975abb146100fb57806376dd110f146101195780638da5cb5b14610149578063dbac26e9146101675761007b565b8063421a9ab11461007f57806347082db3146100af5780634a257567146100df575b5f5ffd5b610099600480360381019061009491906104fe565b610197565b6040516100a69190610543565b60405180910390f35b6100c960048036038101906100c491906104fe565b6101b4565b6040516100d691906105cc565b60405180910390f35b6100f960048036038101906100f491906104fe565b61024f565b005b610103610438565b6040516101109190610543565b60405180910390f35b610133600480360381019061012e91906104fe565b61044a565b6040516101409190610604565b60405180910390f35b61015161045f565b60405161015e919061062c565b60405180910390f35b610181600480360381019061017c91906104fe565b610483565b60405161018e9190610543565b60405180910390f35b6003602052805f5260405f205f915054906101000a900460ff1681565b6002602052805f5260405f205f9150905080546101d090610672565b80601f01602080910402602001604051908101604052809291908181526020018280546101fc90610672565b80156102475780601f1061021e57610100808354040283529160200191610247565b820191905f5260205f20905b81548152906001019060200180831161022a57829003601f168201915b505050505081565b60055f9054906101000a900460ff1615610295576040517fab35696f00000000000000000000000000000000000000000000000000000000815260040160405180910390fd5b5f5f9054906101000a900473ffffffffffffffffffffffffffffffffffffffff1673ffffffffffffffffffffffffffffffffffffffff163373ffffffffffffffffffffffffffffffffffffffff161461031a576040517f30cd747100000000000000000000000000000000000000000000000000000000815260040160405180910390fd5b60045f8273ffffffffffffffffffffffffffffffffffffffff1673ffffffffffffffffffffffffffffffffffffffff1681526020019081526020015f205f9054906101000a900460ff161561039b576040517fd9a60d2d00000000000000000000000000000000000000000000000000000000815260040160405180910390fd5b605060015f8373ffffffffffffffffffffffffffffffffffffffff1673ffffffffffffffffffffffffffffffffffffffff1681526020019081526020015f20541061043557601460015f8373ffffffffffffffffffffffffffffffffffffffff1673ffffffffffffffffffffffffffffffffffffffff1681526020019081526020015f205f82825461042d91906106cf565b925050819055505b50565b60055f9054906101000a900460ff1681565b6001602052805f5260405f205f915090505481565b5f5f9054906101000a900473ffffffffffffffffffffffffffffffffffffffff1681565b6004602052805f5260405f205f915054906101000a900460ff1681565b5f5ffd5b5f73ffffffffffffffffffffffffffffffffffffffff82169050919050565b5f6104cd826104a4565b9050919050565b6104dd816104c3565b81146104e7575f5ffd5b50565b5f813590506104f8816104d4565b92915050565b5f60208284031215610513576105126104a0565b5b5f610520848285016104ea565b91505092915050565b5f8115159050919050565b61053d81610529565b82525050565b5f6020820190506105565f830184610534565b92915050565b5f81519050919050565b5f82825260208201905092915050565b8281835e5f83830152505050565b5f601f19601f8301169050919050565b5f61059e8261055c565b6105a88185610566565b93506105b8818560208601610576565b6105c181610584565b840191505092915050565b5f6020820190508181035f8301526105e48184610594565b905092915050565b5f819050919050565b6105fe816105ec565b82525050565b5f6020820190506106175f8301846105f5565b92915050565b610626816104c3565b82525050565b5f60208201905061063f5f83018461061d565b92915050565b7f4e487b71000000000000000000000000000000000000000000000000000000005f52602260045260245ffd5b5f600282049050600182168061068957607f821691505b60208210810361069c5761069b610645565b5b50919050565b7f4e487b71000000000000000000000000000000000000000000000000000000005f52601160045260245ffd5b5f6106d9826105ec565b91506106e4836105ec565b92508282019050808211156106fc576106fb6106a2565b5b9291505056fea26469706673582212200c1d1ca59ddaa58039e65f82647ab500a99e07b0586e77b3f5f3a5da66ef00ca64736f6c63430008220033",
					"opcodes": "PUSH1 0x80 PUSH1 0x40 MSTORE CALLVALUE DUP1 ISZERO PUSH1 0xE JUMPI PUSH0 PUSH0 REVERT JUMPDEST POP CALLER PUSH0 PUSH0 PUSH2 0x100 EXP DUP2 SLOAD DUP2 PUSH20 0xFFFFFFFFFFFFFFFFFFFFFFFFFFFFFFFFFFFFFFFF MUL NOT AND SWAP1 DUP4 PUSH20 0xFFFFFFFFFFFFFFFFFFFFFFFFFFFFFFFFFFFFFFFF AND MUL OR SWAP1 SSTORE POP PUSH2 0x738 DUP1 PUSH2 0x5B PUSH0 CODECOPY PUSH0 RETURN INVALID PUSH1 0x80 PUSH1 0x40 MSTORE CALLVALUE DUP1 ISZERO PUSH2 0xF JUMPI PUSH0 PUSH0 REVERT JUMPDEST POP PUSH1 0x4 CALLDATASIZE LT PUSH2 0x7B JUMPI PUSH0 CALLDATALOAD PUSH1 0xE0 SHR DUP1 PUSH4 0x5C975ABB GT PUSH2 0x59 JUMPI DUP1 PUSH4 0x5C975ABB EQ PUSH2 0xFB JUMPI DUP1 PUSH4 0x76DD110F EQ PUSH2 0x119 JUMPI DUP1 PUSH4 0x8DA5CB5B EQ PUSH2 0x149 JUMPI DUP1 PUSH4 0xDBAC26E9 EQ PUSH2 0x167 JUMPI PUSH2 0x7B JUMP JUMPDEST DUP1 PUSH4 0x421A9AB1 EQ PUSH2 0x7F JUMPI DUP1 PUSH4 0x47082DB3 EQ PUSH2 0xAF JUMPI DUP1 PUSH4 0x4A257567 EQ PUSH2 0xDF JUMPI JUMPDEST PUSH0 PUSH0 REVERT JUMPDEST PUSH2 0x99 PUSH1 0x4 DUP1 CALLDATASIZE SUB DUP2 ADD SWAP1 PUSH2 0x94 SWAP2 SWAP1 PUSH2 0x4FE JUMP JUMPDEST PUSH2 0x197 JUMP JUMPDEST PUSH1 0x40 MLOAD PUSH2 0xA6 SWAP2 SWAP1 PUSH2 0x543 JUMP JUMPDEST PUSH1 0x40 MLOAD DUP1 SWAP2 SUB SWAP1 RETURN JUMPDEST PUSH2 0xC9 PUSH1 0x4 DUP1 CALLDATASIZE SUB DUP2 ADD SWAP1 PUSH2 0xC4 SWAP2 SWAP1 PUSH2 0x4FE JUMP JUMPDEST PUSH2 0x1B4 JUMP JUMPDEST PUSH1 0x40 MLOAD PUSH2 0xD6 SWAP2 SWAP1 PUSH2 0x5CC JUMP JUMPDEST PUSH1 0x40 MLOAD DUP1 SWAP2 SUB SWAP1 RETURN JUMPDEST PUSH2 0xF9 PUSH1 0x4 DUP1 CALLDATASIZE SUB DUP2 ADD SWAP1 PUSH2 0xF4 SWAP2 SWAP1 PUSH2 0x4FE JUMP JUMPDEST PUSH2 0x24F JUMP JUMPDEST STOP JUMPDEST PUSH2 0x103 PUSH2 0x438 JUMP JUMPDEST PUSH1 0x40 MLOAD PUSH2 0x110 SWAP2 SWAP1 PUSH2 0x543 JUMP JUMPDEST PUSH1 0x40 MLOAD DUP1 SWAP2 SUB SWAP1 RETURN JUMPDEST PUSH2 0x133 PUSH1 0x4 DUP1 CALLDATASIZE SUB DUP2 ADD SWAP1 PUSH2 0x12E SWAP2 SWAP1 PUSH2 0x4FE JUMP JUMPDEST PUSH2 0x44A JUMP JUMPDEST PUSH1 0x40 MLOAD PUSH2 0x140 SWAP2 SWAP1 PUSH2 0x604 JUMP JUMPDEST PUSH1 0x40 MLOAD DUP1 SWAP2 SUB SWAP1 RETURN JUMPDEST PUSH2 0x151 PUSH2 0x45F JUMP JUMPDEST PUSH1 0x40 MLOAD PUSH2 0x15E SWAP2 SWAP1 PUSH2 0x62C JUMP JUMPDEST PUSH1 0x40 MLOAD DUP1 SWAP2 SUB SWAP1 RETURN JUMPDEST PUSH2 0x181 PUSH1 0x4 DUP1 CALLDATASIZE SUB DUP2 ADD SWAP1 PUSH2 0x17C SWAP2 SWAP1 PUSH2 0x4FE JUMP JUMPDEST PUSH2 0x483 JUMP JUMPDEST PUSH1 0x40 MLOAD PUSH2 0x18E SWAP2 SWAP1 PUSH2 0x543 JUMP JUMPDEST PUSH1 0x40 MLOAD DUP1 SWAP2 SUB SWAP1 RETURN JUMPDEST PUSH1 0x3 PUSH1 0x20 MSTORE DUP1 PUSH0 MSTORE PUSH1 0x40 PUSH0 KECCAK256 PUSH0 SWAP2 POP SLOAD SWAP1 PUSH2 0x100 EXP SWAP1 DIV PUSH1 0xFF AND DUP2 JUMP JUMPDEST PUSH1 0x2 PUSH1 0x20 MSTORE DUP1 PUSH0 MSTORE PUSH1 0x40 PUSH0 KECCAK256 PUSH0 SWAP2 POP SWAP1 POP DUP1 SLOAD PUSH2 0x1D0 SWAP1 PUSH2 0x672 JUMP JUMPDEST DUP1 PUSH1 0x1F ADD PUSH1 0x20 DUP1 SWAP2 DIV MUL PUSH1 0x20 ADD PUSH1 0x40 MLOAD SWAP1 DUP2 ADD PUSH1 0x40 MSTORE DUP1 SWAP3 SWAP2 SWAP1 DUP2 DUP2 MSTORE PUSH1 0x20 ADD DUP3 DUP1 SLOAD PUSH2 0x1FC SWAP1 PUSH2 0x672 JUMP JUMPDEST DUP1 ISZERO PUSH2 0x247 JUMPI DUP1 PUSH1 0x1F LT PUSH2 0x21E JUMPI PUSH2 0x100 DUP1 DUP4 SLOAD DIV MUL DUP4 MSTORE SWAP2 PUSH1 0x20 ADD SWAP2 PUSH2 0x247 JUMP JUMPDEST DUP3 ADD SWAP2 SWAP1 PUSH0 MSTORE PUSH1 0x20 PUSH0 KECCAK256 SWAP1 JUMPDEST DUP2 SLOAD DUP2 MSTORE SWAP1 PUSH1 0x1 ADD SWAP1 PUSH1 0x20 ADD DUP1 DUP4 GT PUSH2 0x22A JUMPI DUP3 SWAP1 SUB PUSH1 0x1F AND DUP3 ADD SWAP2 JUMPDEST POP POP POP POP POP DUP2 JUMP JUMPDEST PUSH1 0x5 PUSH0 SWAP1 SLOAD SWAP1 PUSH2 0x100 EXP SWAP1 DIV PUSH1 0xFF AND ISZERO PUSH2 0x295 JUMPI PUSH1 0x40 MLOAD PUSH32 0xAB35696F00000000000000000000000000000000000000000000000000000000 DUP2 MSTORE PUSH1 0x4 ADD PUSH1 0x40 MLOAD DUP1 SWAP2 SUB SWAP1 REVERT JUMPDEST PUSH0 PUSH0 SWAP1 SLOAD SWAP1 PUSH2 0x100 EXP SWAP1 DIV PUSH20 0xFFFFFFFFFFFFFFFFFFFFFFFFFFFFFFFFFFFFFFFF AND PUSH20 0xFFFFFFFFFFFFFFFFFFFFFFFFFFFFFFFFFFFFFFFF AND CALLER PUSH20 0xFFFFFFFFFFFFFFFFFFFFFFFFFFFFFFFFFFFFFFFF AND EQ PUSH2 0x31A JUMPI PUSH1 0x40 MLOAD PUSH32 0x30CD747100000000000000000000000000000000000000000000000000000000 DUP2 MSTORE PUSH1 0x4 ADD PUSH1 0x40 MLOAD DUP1 SWAP2 SUB SWAP1 REVERT JUMPDEST PUSH1 0x4 PUSH0 DUP3 PUSH20 0xFFFFFFFFFFFFFFFFFFFFFFFFFFFFFFFFFFFFFFFF AND PUSH20 0xFFFFFFFFFFFFFFFFFFFFFFFFFFFFFFFFFFFFFFFF AND DUP2 MSTORE PUSH1 0x20 ADD SWAP1 DUP2 MSTORE PUSH1 0x20 ADD PUSH0 KECCAK256 PUSH0 SWAP1 SLOAD SWAP1 PUSH2 0x100 EXP SWAP1 DIV PUSH1 0xFF AND ISZERO PUSH2 0x39B JUMPI PUSH1 0x40 MLOAD PUSH32 0xD9A60D2D00000000000000000000000000000000000000000000000000000000 DUP2 MSTORE PUSH1 0x4 ADD PUSH1 0x40 MLOAD DUP1 SWAP2 SUB SWAP1 REVERT JUMPDEST PUSH1 0x50 PUSH1 0x1 PUSH0 DUP4 PUSH20 0xFFFFFFFFFFFFFFFFFFFFFFFFFFFFFFFFFFFFFFFF AND PUSH20 0xFFFFFFFFFFFFFFFFFFFFFFFFFFFFFFFFFFFFFFFF AND DUP2 MSTORE PUSH1 0x20 ADD SWAP1 DUP2 MSTORE PUSH1 0x20 ADD PUSH0 KECCAK256 SLOAD LT PUSH2 0x435 JUMPI PUSH1 0x14 PUSH1 0x1 PUSH0 DUP4 PUSH20 0xFFFFFFFFFFFFFFFFFFFFFFFFFFFFFFFFFFFFFFFF AND PUSH20 0xFFFFFFFFFFFFFFFFFFFFFFFFFFFFFFFFFFFFFFFF AND DUP2 MSTORE PUSH1 0x20 ADD SWAP1 DUP2 MSTORE PUSH1 0x20 ADD PUSH0 KECCAK256 PUSH0 DUP3 DUP3 SLOAD PUSH2 0x42D SWAP2 SWAP1 PUSH2 0x6CF JUMP JUMPDEST SWAP3 POP POP DUP2 SWAP1 SSTORE POP JUMPDEST POP JUMP JUMPDEST PUSH1 0x5 PUSH0 SWAP1 SLOAD SWAP1 PUSH2 0x100 EXP SWAP1 DIV PUSH1 0xFF AND DUP2 JUMP JUMPDEST PUSH1 0x1 PUSH1 0x20 MSTORE DUP1 PUSH0 MSTORE PUSH1 0x40 PUSH0 KECCAK256 PUSH0 SWAP2 POP SWAP1 POP SLOAD DUP2 JUMP JUMPDEST PUSH0 PUSH0 SWAP1 SLOAD SWAP1 PUSH2 0x100 EXP SWAP1 DIV PUSH20 0xFFFFFFFFFFFFFFFFFFFFFFFFFFFFFFFFFFFFFFFF AND DUP2 JUMP JUMPDEST PUSH1 0x4 PUSH1 0x20 MSTORE DUP1 PUSH0 MSTORE PUSH1 0x40 PUSH0 KECCAK256 PUSH0 SWAP2 POP SLOAD SWAP1 PUSH2 0x100 EXP SWAP1 DIV PUSH1 0xFF AND DUP2 JUMP JUMPDEST PUSH0 PUSH0 REVERT JUMPDEST PUSH0 PUSH20 0xFFFFFFFFFFFFFFFFFFFFFFFFFFFFFFFFFFFFFFFF DUP3 AND SWAP1 POP SWAP2 SWAP1 POP JUMP JUMPDEST PUSH0 PUSH2 0x4CD DUP3 PUSH2 0x4A4 JUMP JUMPDEST SWAP1 POP SWAP2 SWAP1 POP JUMP JUMPDEST PUSH2 0x4DD DUP2 PUSH2 0x4C3 JUMP JUMPDEST DUP2 EQ PUSH2 0x4E7 JUMPI PUSH0 PUSH0 REVERT JUMPDEST POP JUMP JUMPDEST PUSH0 DUP2 CALLDATALOAD SWAP1 POP PUSH2 0x4F8 DUP2 PUSH2 0x4D4 JUMP JUMPDEST SWAP3 SWAP2 POP POP JUMP JUMPDEST PUSH0 PUSH1 0x20 DUP3 DUP5 SUB SLT ISZERO PUSH2 0x513 JUMPI PUSH2 0x512 PUSH2 0x4A0 JUMP JUMPDEST JUMPDEST PUSH0 PUSH2 0x520 DUP5 DUP3 DUP6 ADD PUSH2 0x4EA JUMP JUMPDEST SWAP2 POP POP SWAP3 SWAP2 POP POP JUMP JUMPDEST PUSH0 DUP2 ISZERO ISZERO SWAP1 POP SWAP2 SWAP1 POP JUMP JUMPDEST PUSH2 0x53D DUP2 PUSH2 0x529 JUMP JUMPDEST DUP3 MSTORE POP POP JUMP JUMPDEST PUSH0 PUSH1 0x20 DUP3 ADD SWAP1 POP PUSH2 0x556 PUSH0 DUP4 ADD DUP5 PUSH2 0x534 JUMP JUMPDEST SWAP3 SWAP2 POP POP JUMP JUMPDEST PUSH0 DUP2 MLOAD SWAP1 POP SWAP2 SWAP1 POP JUMP JUMPDEST PUSH0 DUP3 DUP3 MSTORE PUSH1 0x20 DUP3 ADD SWAP1 POP SWAP3 SWAP2 POP POP JUMP JUMPDEST DUP3 DUP2 DUP4 MCOPY PUSH0 DUP4 DUP4 ADD MSTORE POP POP POP JUMP JUMPDEST PUSH0 PUSH1 0x1F NOT PUSH1 0x1F DUP4 ADD AND SWAP1 POP SWAP2 SWAP1 POP JUMP JUMPDEST PUSH0 PUSH2 0x59E DUP3 PUSH2 0x55C JUMP JUMPDEST PUSH2 0x5A8 DUP2 DUP6 PUSH2 0x566 JUMP JUMPDEST SWAP4 POP PUSH2 0x5B8 DUP2 DUP6 PUSH1 0x20 DUP7 ADD PUSH2 0x576 JUMP JUMPDEST PUSH2 0x5C1 DUP2 PUSH2 0x584 JUMP JUMPDEST DUP5 ADD SWAP2 POP POP SWAP3 SWAP2 POP POP JUMP JUMPDEST PUSH0 PUSH1 0x20 DUP3 ADD SWAP1 POP DUP2 DUP2 SUB PUSH0 DUP4 ADD MSTORE PUSH2 0x5E4 DUP2 DUP5 PUSH2 0x594 JUMP JUMPDEST SWAP1 POP SWAP3 SWAP2 POP POP JUMP JUMPDEST PUSH0 DUP2 SWAP1 POP SWAP2 SWAP1 POP JUMP JUMPDEST PUSH2 0x5FE DUP2 PUSH2 0x5EC JUMP JUMPDEST DUP3 MSTORE POP POP JUMP JUMPDEST PUSH0 PUSH1 0x20 DUP3 ADD SWAP1 POP PUSH2 0x617 PUSH0 DUP4 ADD DUP5 PUSH2 0x5F5 JUMP JUMPDEST SWAP3 SWAP2 POP POP JUMP JUMPDEST PUSH2 0x626 DUP2 PUSH2 0x4C3 JUMP JUMPDEST DUP3 MSTORE POP POP JUMP JUMPDEST PUSH0 PUSH1 0x20 DUP3 ADD SWAP1 POP PUSH2 0x63F PUSH0 DUP4 ADD DUP5 PUSH2 0x61D JUMP JUMPDEST SWAP3 SWAP2 POP POP JUMP JUMPDEST PUSH32 0x4E487B7100000000000000000000000000000000000000000000000000000000 PUSH0 MSTORE PUSH1 0x22 PUSH1 0x4 MSTORE PUSH1 0x24 PUSH0 REVERT JUMPDEST PUSH0 PUSH1 0x2 DUP3 DIV SWAP1 POP PUSH1 0x1 DUP3 AND DUP1 PUSH2 0x689 JUMPI PUSH1 0x7F DUP3 AND SWAP2 POP JUMPDEST PUSH1 0x20 DUP3 LT DUP2 SUB PUSH2 0x69C JUMPI PUSH2 0x69B PUSH2 0x645 JUMP JUMPDEST JUMPDEST POP SWAP2 SWAP1 POP JUMP JUMPDEST PUSH32 0x4E487B7100000000000000000000000000000000000000000000000000000000 PUSH0 MSTORE PUSH1 0x11 PUSH1 0x4 MSTORE PUSH1 0x24 PUSH0 REVERT JUMPDEST PUSH0 PUSH2 0x6D9 DUP3 PUSH2 0x5EC JUMP JUMPDEST SWAP2 POP PUSH2 0x6E4 DUP4 PUSH2 0x5EC JUMP JUMPDEST SWAP3 POP DUP3 DUP3 ADD SWAP1 POP DUP1 DUP3 GT ISZERO PUSH2 0x6FC JUMPI PUSH2 0x6FB PUSH2 0x6A2 JUMP JUMPDEST JUMPDEST SWAP3 SWAP2 POP POP JUMP INVALID LOG2 PUSH5 0x6970667358 0x22 SLT KECCAK256 0xC SAR SHR 0xA5 SWAP14 0xDA 0xA5 DUP1 CODECOPY DUPN 0x5F DUP3 PUSH5 0x7AB500A99E SMOD 0xB0 PC PUSH15 0x77B3F5F3A5DA66EF00CA64736F6C63 NUMBER STOP ADDMOD 0x22 STOP CALLER "
				},
				"gasEstimates": {
					"creation": {
						"codeDepositCost": "369600",
						"executionCost": "24667",
						"totalCost": "394267"
					},
					"external": {
						"blacklisted(address)": "2899",
						"levels(address)": "infinite",
						"owner()": "2551",
						"ownerBonus(address)": "infinite",
						"paused()": "2466",
						"scores(address)": "2824",
						"vipUsers(address)": "2834"
					}
				},
				"methodIdentifiers": {
					"blacklisted(address)": "dbac26e9",
					"levels(address)": "47082db3",
					"owner()": "8da5cb5b",
					"ownerBonus(address)": "4a257567",
					"paused()": "5c975abb",
					"scores(address)": "76dd110f",
					"vipUsers(address)": "421a9ab1"
				}
			},
			"storageLayout": {
				"storage": [
					{
						"astId": 65,
						"contract": "prac40.sol:NestedIfConditions",
						"label": "owner",
						"offset": 0,
						"slot": "0",
						"type": "t_address"
					},
					{
						"astId": 69,
						"contract": "prac40.sol:NestedIfConditions",
						"label": "scores",
						"offset": 0,
						"slot": "1",
						"type": "t_mapping(t_address,t_uint256)"
					},
					{
						"astId": 73,
						"contract": "prac40.sol:NestedIfConditions",
						"label": "levels",
						"offset": 0,
						"slot": "2",
						"type": "t_mapping(t_address,t_string_storage)"
					},
					{
						"astId": 77,
						"contract": "prac40.sol:NestedIfConditions",
						"label": "vipUsers",
						"offset": 0,
						"slot": "3",
						"type": "t_mapping(t_address,t_bool)"
					},
					{
						"astId": 81,
						"contract": "prac40.sol:NestedIfConditions",
						"label": "blacklisted",
						"offset": 0,
						"slot": "4",
						"type": "t_mapping(t_address,t_bool)"
					},
					{
						"astId": 83,
						"contract": "prac40.sol:NestedIfConditions",
						"label": "paused",
						"offset": 0,
						"slot": "5",
						"type": "t_bool"
					}
				],
				"types": {
					"t_address": {
						"encoding": "inplace",
						"label": "address",
						"numberOfBytes": "20"
					},
					"t_bool": {
						"encoding": "inplace",
						"label": "bool",
						"numberOfBytes": "1"
					},
					"t_mapping(t_address,t_bool)": {
						"encoding": "mapping",
						"key": "t_address",
						"label": "mapping(address => bool)",
						"numberOfBytes": "32",
						"value": "t_bool"
					},
					"t_mapping(t_address,t_string_storage)": {
						"encoding": "mapping",
						"key": "t_address",
						"label": "mapping(address => string)",
						"numberOfBytes": "32",
						"value": "t_string_storage"
					},
					"t_mapping(t_address,t_uint256)": {
						"encoding": "mapping",
						"key": "t_address",
						"label": "mapping(address => uint256)",
						"numberOfBytes": "32",
						"value": "t_uint256"
					},
					"t_string_storage": {
						"encoding": "bytes",
						"label": "string",
						"numberOfBytes": "32"
					},
					"t_uint256": {
						"encoding": "inplace",
						"label": "uint256",
						"numberOfBytes": "32"
					}
				}
			},
			"userdoc": {
				"kind": "user",
				"methods": {},
				"version": 1
			}
		}
	}
}