{
	"prac12.sol": {
		"StatePersistence": {
			"abi": [
				{
					"anonymous": false,
					"inputs": [
						{
							"indexed": false,
							"internalType": "uint256",
							"name": "oldValue",
							"type": "uint256"
						},
						{
							"indexed": false,
							"internalType": "uint256",
							"name": "newValue",
							"type": "uint256"
						}
					],
					"name": "CounterUpdated",
					"type": "event"
				},
				{
					"inputs": [],
					"name": "counter",
					"outputs": [
						{
							"internalType": "uint256",
							"name": "",
							"type": "uint256"
						}
					],
					"stateMutability": "view",
					"type": "function"
				},
				{
					"inputs": [],
					"name": "getCounter",
					"outputs": [
						{
							"internalType": "uint256",
							"name": "",
							"type": "uint256"
						}
					],
					"stateMutability": "view",
					"type": "function"
				},
				{
					"inputs": [],
					"name": "increment",
					"outputs": [],
					"stateMutability": "nonpayable",
					"type": "function"
				},
				{
					"inputs": [],
					"name": "previousCounter",
					"outputs": [
						{
							"internalType": "uint256",
							"name": "",
							"type": "uint256"
						}
					],
					"stateMutability": "view",
					"type": "function"
				},
				{
					"inputs": [
						{
							"internalType": "uint256",
							"name": "_value",
							"type": "uint256"
						}
					],
					"name": "setCounter",
					"outputs": [],
					"stateMutability": "nonpayable",
					"type": "function"
				}
			],
			"devdoc": {
				"kind": "dev",
				"methods": {},
				"version": 1
			},
			"evm": {
				"assembly": "    /* \"prac12.sol\":10380:11140  contract StatePersistence {... */\n  mstore(0x40, 0x80)\n  callvalue\n  dup1\n  iszero\n  tag_1\n  jumpi\n  revert(0x00, 0x00)\ntag_1:\n  pop\n  dataSize(sub_0)\n  dup1\n  dataOffset(sub_0)\n  0x00\n  codecopy\n  0x00\n  return\nstop\n\nsub_0: assembly {\n        /* \"prac12.sol\":10380:11140  contract StatePersistence {... */\n      mstore(0x40, 0x80)\n      callvalue\n      dup1\n      iszero\n      tag_1\n      jumpi\n      revert(0x00, 0x00)\n    tag_1:\n      pop\n      jumpi(tag_2, lt(calldatasize, 0x04))\n      shr(0xe0, calldataload(0x00))\n      dup1\n      0x61bc221a\n      eq\n      tag_3\n      jumpi\n      dup1\n      0x8ada066e\n      eq\n      tag_4\n      jumpi\n      dup1\n      0x8bb5d9c3\n      eq\n      tag_5\n      jumpi\n      dup1\n      0xd09de08a\n      eq\n      tag_6\n      jumpi\n      dup1\n      0xfb63ace9\n      eq\n      tag_7\n      jumpi\n    tag_2:\n      revert(0x00, 0x00)\n        /* \"prac12.sol\":10415:10437  uint256 public counter */\n    tag_3:\n      tag_8\n      tag_9\n      jump\t// in\n    tag_8:\n      mload(0x40)\n      tag_10\n      swap2\n      swap1\n      tag_11\n      jump\t// in\n    tag_10:\n      mload(0x40)\n      dup1\n      swap2\n      sub\n      swap1\n      return\n        /* \"prac12.sol\":11050:11137  function getCounter() public view returns (uint256) {... */\n    tag_4:\n      tag_12\n      tag_13\n      jump\t// in\n    tag_12:\n      mload(0x40)\n      tag_14\n      swap2\n      swap1\n      tag_11\n      jump\t// in\n    tag_14:\n      mload(0x40)\n      dup1\n      swap2\n      sub\n      swap1\n      return\n        /* \"prac12.sol\":10825:11042  function setCounter(uint256 _value) public {... */\n    tag_5:\n      tag_15\n      0x04\n      dup1\n      calldatasize\n      sub\n      dup2\n      add\n      swap1\n      tag_16\n      swap2\n      swap1\n      tag_17\n      jump\t// in\n    tag_16:\n      tag_18\n      jump\t// in\n    tag_15:\n      stop\n        /* \"prac12.sol\":10610:10817  function increment() public {... */\n    tag_6:\n      tag_19\n      tag_20\n      jump\t// in\n    tag_19:\n      stop\n        /* \"prac12.sol\":10444:10474  uint256 public previousCounter */\n    tag_7:\n      tag_21\n      tag_22\n      jump\t// in\n    tag_21:\n      mload(0x40)\n      tag_23\n      swap2\n      swap1\n      tag_11\n      jump\t// in\n    tag_23:\n      mload(0x40)\n      dup1\n      swap2\n      sub\n      swap1\n      return\n        /* \"prac12.sol\":10415:10437  uint256 public counter */\n    tag_9:\n      sload(0x00)\n      dup2\n      jump\t// out\n        /* \"prac12.sol\":11050:11137  function getCounter() public view returns (uint256) {... */\n    tag_13:\n        /* \"prac12.sol\":11093:11100  uint256 */\n      0x00\n        /* \"prac12.sol\":11122:11129  counter */\n      sload(0x00)\n        /* \"prac12.sol\":11115:11129  return counter */\n      swap1\n      pop\n        /* \"prac12.sol\":11050:11137  function getCounter() public view returns (uint256) {... */\n      swap1\n      jump\t// out\n        /* \"prac12.sol\":10825:11042  function setCounter(uint256 _value) public {... */\n    tag_18:\n        /* \"prac12.sol\":10940:10947  counter */\n      sload(0x00)\n        /* \"prac12.sol\":10922:10937  previousCounter */\n      0x01\n        /* \"prac12.sol\":10922:10947  previousCounter = counter */\n      dup2\n      swap1\n      sstore\n      pop\n        /* \"prac12.sol\":10970:10976  _value */\n      dup1\n        /* \"prac12.sol\":10960:10967  counter */\n      0x00\n        /* \"prac12.sol\":10960:10976  counter = _value */\n      dup2\n      swap1\n      sstore\n      pop\n        /* \"prac12.sol\":10994:11034  CounterUpdated(previousCounter, counter) */\n      0x28bab7182b1f3ed84e1006088a7e959b8999f63af651809d61a39e97b026fcde\n        /* \"prac12.sol\":11009:11024  previousCounter */\n      sload(0x01)\n        /* \"prac12.sol\":11026:11033  counter */\n      sload(0x00)\n        /* \"prac12.sol\":10994:11034  CounterUpdated(previousCounter, counter) */\n      mload(0x40)\n      tag_26\n      swap3\n      swap2\n      swap1\n      tag_27\n      jump\t// in\n    tag_26:\n      mload(0x40)\n      dup1\n      swap2\n      sub\n      swap1\n      log1\n        /* \"prac12.sol\":10825:11042  function setCounter(uint256 _value) public {... */\n      pop\n      jump\t// out\n        /* \"prac12.sol\":10610:10817  function increment() public {... */\n    tag_20:\n        /* \"prac12.sol\":10710:10717  counter */\n      sload(0x00)\n        /* \"prac12.sol\":10692:10707  previousCounter */\n      0x01\n        /* \"prac12.sol\":10692:10717  previousCounter = counter */\n      dup2\n      swap1\n      sstore\n      pop\n        /* \"prac12.sol\":10750:10751  1 */\n      0x01\n        /* \"prac12.sol\":10740:10747  counter */\n      sload(0x00)\n        /* \"prac12.sol\":10740:10751  counter + 1 */\n      tag_29\n      swap2\n      swap1\n      tag_30\n      jump\t// in\n    tag_29:\n        /* \"prac12.sol\":10730:10737  counter */\n      0x00\n        /* \"prac12.sol\":10730:10751  counter = counter + 1 */\n      dup2\n      swap1\n      sstore\n      pop\n        /* \"prac12.sol\":10769:10809  CounterUpdated(previousCounter, counter) */\n      0x28bab7182b1f3ed84e1006088a7e959b8999f63af651809d61a39e97b026fcde\n        /* \"prac12.sol\":10784:10799  previousCounter */\n      sload(0x01)\n        /* \"prac12.sol\":10801:10808  counter */\n      sload(0x00)\n        /* \"prac12.sol\":10769:10809  CounterUpdated(previousCounter, counter) */\n      mload(0x40)\n      tag_31\n      swap3\n      swap2\n      swap1\n      tag_27\n      jump\t// in\n    tag_31:\n      mload(0x40)\n      dup1\n      swap2\n      sub\n      swap1\n      log1\n        /* \"prac12.sol\":10610:10817  function increment() public {... */\n      jump\t// out\n        /* \"prac12.sol\":10444:10474  uint256 public previousCounter */\n    tag_22:\n      sload(0x01)\n      dup2\n      jump\t// out\n        /* \"#utility.yul\":7:84   */\n    tag_32:\n        /* \"#utility.yul\":44:51   */\n      0x00\n        /* \"#utility.yul\":73:78   */\n      dup2\n        /* \"#utility.yul\":62:78   */\n      swap1\n      pop\n        /* \"#utility.yul\":7:84   */\n      swap2\n      swap1\n      pop\n      jump\t// out\n        /* \"#utility.yul\":90:208   */\n    tag_33:\n        /* \"#utility.yul\":177:201   */\n      tag_43\n        /* \"#utility.yul\":195:200   */\n      dup2\n        /* \"#utility.yul\":177:201   */\n      tag_32\n      jump\t// in\n    tag_43:\n        /* \"#utility.yul\":172:175   */\n      dup3\n        /* \"#utility.yul\":165:202   */\n      mstore\n        /* \"#utility.yul\":90:208   */\n      pop\n      pop\n      jump\t// out\n        /* \"#utility.yul\":214:436   */\n    tag_11:\n        /* \"#utility.yul\":307:311   */\n      0x00\n        /* \"#utility.yul\":345:347   */\n      0x20\n        /* \"#utility.yul\":334:343   */\n      dup3\n        /* \"#utility.yul\":330:348   */\n      add\n        /* \"#utility.yul\":322:348   */\n      swap1\n      pop\n        /* \"#utility.yul\":358:429   */\n      tag_45\n        /* \"#utility.yul\":426:427   */\n      0x00\n        /* \"#utility.yul\":415:424   */\n      dup4\n        /* \"#utility.yul\":411:428   */\n      add\n        /* \"#utility.yul\":402:408   */\n      dup5\n        /* \"#utility.yul\":358:429   */\n      tag_33\n      jump\t// in\n    tag_45:\n        /* \"#utility.yul\":214:436   */\n      swap3\n      swap2\n      pop\n      pop\n      jump\t// out\n        /* \"#utility.yul\":523:640   */\n    tag_35:\n        /* \"#utility.yul\":632:633   */\n      0x00\n        /* \"#utility.yul\":629:630   */\n      0x00\n        /* \"#utility.yul\":622:634   */\n      revert\n        /* \"#utility.yul\":769:891   */\n    tag_37:\n        /* \"#utility.yul\":842:866   */\n      tag_50\n        /* \"#utility.yul\":860:865   */\n      dup2\n        /* \"#utility.yul\":842:866   */\n      tag_32\n      jump\t// in\n    tag_50:\n        /* \"#utility.yul\":835:840   */\n      dup2\n        /* \"#utility.yul\":832:867   */\n      eq\n        /* \"#utility.yul\":822:885   */\n      tag_51\n      jumpi\n        /* \"#utility.yul\":881:882   */\n      0x00\n        /* \"#utility.yul\":878:879   */\n      0x00\n        /* \"#utility.yul\":871:883   */\n      revert\n        /* \"#utility.yul\":822:885   */\n    tag_51:\n        /* \"#utility.yul\":769:891   */\n      pop\n      jump\t// out\n        /* \"#utility.yul\":897:1036   */\n    tag_38:\n        /* \"#utility.yul\":943:948   */\n      0x00\n        /* \"#utility.yul\":981:987   */\n      dup2\n        /* \"#utility.yul\":968:988   */\n      calldataload\n        /* \"#utility.yul\":959:988   */\n      swap1\n      pop\n        /* \"#utility.yul\":997:1030   */\n      tag_53\n        /* \"#utility.yul\":1024:1029   */\n      dup2\n        /* \"#utility.yul\":997:1030   */\n      tag_37\n      jump\t// in\n    tag_53:\n        /* \"#utility.yul\":897:1036   */\n      swap3\n      swap2\n      pop\n      pop\n      jump\t// out\n        /* \"#utility.yul\":1042:1371   */\n    tag_17:\n        /* \"#utility.yul\":1101:1107   */\n      0x00\n        /* \"#utility.yul\":1150:1152   */\n      0x20\n        /* \"#utility.yul\":1138:1147   */\n      dup3\n        /* \"#utility.yul\":1129:1136   */\n      dup5\n        /* \"#utility.yul\":1125:1148   */\n      sub\n        /* \"#utility.yul\":1121:1153   */\n      slt\n        /* \"#utility.yul\":1118:1237   */\n      iszero\n      tag_55\n      jumpi\n        /* \"#utility.yul\":1156:1235   */\n      tag_56\n      tag_35\n      jump\t// in\n    tag_56:\n        /* \"#utility.yul\":1118:1237   */\n    tag_55:\n        /* \"#utility.yul\":1276:1277   */\n      0x00\n        /* \"#utility.yul\":1301:1354   */\n      tag_57\n        /* \"#utility.yul\":1346:1353   */\n      dup5\n        /* \"#utility.yul\":1337:1343   */\n      dup3\n        /* \"#utility.yul\":1326:1335   */\n      dup6\n        /* \"#utility.yul\":1322:1344   */\n      add\n        /* \"#utility.yul\":1301:1354   */\n      tag_38\n      jump\t// in\n    tag_57:\n        /* \"#utility.yul\":1291:1354   */\n      swap2\n      pop\n        /* \"#utility.yul\":1247:1364   */\n      pop\n        /* \"#utility.yul\":1042:1371   */\n      swap3\n      swap2\n      pop\n      pop\n      jump\t// out\n        /* \"#utility.yul\":1377:1709   */\n    tag_27:\n        /* \"#utility.yul\":1498:1502   */\n      0x00\n        /* \"#utility.yul\":1536:1538   */\n      0x40\n        /* \"#utility.yul\":1525:1534   */\n      dup3\n        /* \"#utility.yul\":1521:1539   */\n      add\n        /* \"#utility.yul\":1513:1539   */\n      swap1\n      pop\n        /* \"#utility.yul\":1549:1620   */\n      tag_59\n        /* \"#utility.yul\":1617:1618   */\n      0x00\n        /* \"#utility.yul\":1606:1615   */\n      dup4\n        /* \"#utility.yul\":1602:1619   */\n      add\n        /* \"#utility.yul\":1593:1599   */\n      dup6\n        /* \"#utility.yul\":1549:1620   */\n      tag_33\n      jump\t// in\n    tag_59:\n        /* \"#utility.yul\":1630:1702   */\n      tag_60\n        /* \"#utility.yul\":1698:1700   */\n      0x20\n        /* \"#utility.yul\":1687:1696   */\n      dup4\n        /* \"#utility.yul\":1683:1701   */\n      add\n        /* \"#utility.yul\":1674:1680   */\n      dup5\n        /* \"#utility.yul\":1630:1702   */\n      tag_33\n      jump\t// in\n    tag_60:\n        /* \"#utility.yul\":1377:1709   */\n      swap4\n      swap3\n      pop\n      pop\n      pop\n      jump\t// out\n        /* \"#utility.yul\":1715:1895   */\n    tag_39:\n        /* \"#utility.yul\":1763:1840   */\n      0x4e487b7100000000000000000000000000000000000000000000000000000000\n        /* \"#utility.yul\":1760:1761   */\n      0x00\n        /* \"#utility.yul\":1753:1841   */\n      mstore\n        /* \"#utility.yul\":1860:1864   */\n      0x11\n        /* \"#utility.yul\":1857:1858   */\n      0x04\n        /* \"#utility.yul\":1850:1865   */\n      mstore\n        /* \"#utility.yul\":1884:1888   */\n      0x24\n        /* \"#utility.yul\":1881:1882   */\n      0x00\n        /* \"#utility.yul\":1874:1889   */\n      revert\n        /* \"#utility.yul\":1901:2092   */\n    tag_30:\n        /* \"#utility.yul\":1941:1944   */\n      0x00\n        /* \"#utility.yul\":1960:1980   */\n      tag_63\n        /* \"#utility.yul\":1978:1979   */\n      dup3\n        /* \"#utility.yul\":1960:1980   */\n      tag_32\n      jump\t// in\n    tag_63:\n        /* \"#utility.yul\":1955:1980   */\n      swap2\n      pop\n        /* \"#utility.yul\":1994:2014   */\n      tag_64\n        /* \"#utility.yul\":2012:2013   */\n      dup4\n        /* \"#utility.yul\":1994:2014   */\n      tag_32\n      jump\t// in\n    tag_64:\n        /* \"#utility.yul\":1989:2014   */\n      swap3\n      pop\n        /* \"#utility.yul\":2037:2038   */\n      dup3\n        /* \"#utility.yul\":2034:2035   */\n      dup3\n        /* \"#utility.yul\":2030:2039   */\n      add\n        /* \"#utility.yul\":2023:2039   */\n      swap1\n      pop\n        /* \"#utility.yul\":2058:2061   */\n      dup1\n        /* \"#utility.yul\":2055:2056   */\n      dup3\n        /* \"#utility.yul\":2052:2062   */\n      gt\n        /* \"#utility.yul\":2049:2085   */\n      iszero\n      tag_65\n      jumpi\n        /* \"#utility.yul\":2065:2083   */\n      tag_66\n      tag_39\n      jump\t// in\n    tag_66:\n        /* \"#utility.yul\":2049:2085   */\n    tag_65:\n        /* \"#utility.yul\":1901:2092   */\n      swap3\n      swap2\n      pop\n      pop\n      jump\t// out\n\n    auxdata: 0xa26469706673582212207a5067255113d078b2aee8327f246c54a2439fe706c691e0d33c7fea25d7f98564736f6c63430008220033\n}\n",
				"bytecode": {
					"linkReferences": {},
					"object": "6080604052348015600e575f5ffd5b506102d98061001c5f395ff3fe608060405234801561000f575f5ffd5b5060043610610055575f3560e01c806361bc221a146100595780638ada066e146100775780638bb5d9c314610095578063d09de08a146100b1578063fb63ace9146100bb575b5f5ffd5b6100616100d9565b60405161006e91906101aa565b60405180910390f35b61007f6100de565b60405161008c91906101aa565b60405180910390f35b6100af60048036038101906100aa91906101f1565b6100e6565b005b6100b9610133565b005b6100c361018c565b6040516100d091906101aa565b60405180910390f35b5f5481565b5f5f54905090565b5f54600181905550805f819055507f28bab7182b1f3ed84e1006088a7e959b8999f63af651809d61a39e97b026fcde6001545f5460405161012892919061021c565b60405180910390a150565b5f5460018190555060015f546101499190610270565b5f819055507f28bab7182b1f3ed84e1006088a7e959b8999f63af651809d61a39e97b026fcde6001545f5460405161018292919061021c565b60405180910390a1565b60015481565b5f819050919050565b6101a481610192565b82525050565b5f6020820190506101bd5f83018461019b565b92915050565b5f5ffd5b6101d081610192565b81146101da575f5ffd5b50565b5f813590506101eb816101c7565b92915050565b5f60208284031215610206576102056101c3565b5b5f610213848285016101dd565b91505092915050565b5f60408201905061022f5f83018561019b565b61023c602083018461019b565b9392505050565b7f4e487b71000000000000000000000000000000000000000000000000000000005f52601160045260245ffd5b5f61027a82610192565b915061028583610192565b925082820190508082111561029d5761029c610243565b5b9291505056fea26469706673582212207a5067255113d078b2aee8327f246c54a2439fe706c691e0d33c7fea25d7f98564736f6c63430008220033",
					"opcodes": "PUSH1 0x80 PUSH1 0x40 MSTORE CALLVALUE DUP1 ISZERO PUSH1 0xE JUMPI PUSH0 PUSH0 REVERT JUMPDEST POP PUSH2 0x2D9 DUP1 PUSH2 0x1C PUSH0 CODECOPY PUSH0 RETURN INVALID PUSH1 0x80 PUSH1 0x40 MSTORE CALLVALUE DUP1 ISZERO PUSH2 0xF JUMPI PUSH0 PUSH0 REVERT JUMPDEST POP PUSH1 0x4 CALLDATASIZE LT PUSH2 0x55 JUMPI PUSH0 CALLDATALOAD PUSH1 0xE0 SHR DUP1 PUSH4 0x61BC221A EQ PUSH2 0x59 JUMPI DUP1 PUSH4 0x8ADA066E EQ PUSH2 0x77 JUMPI DUP1 PUSH4 0x8BB5D9C3 EQ PUSH2 0x95 JUMPI DUP1 PUSH4 0xD09DE08A EQ PUSH2 0xB1 JUMPI DUP1 PUSH4 0xFB63ACE9 EQ PUSH2 0xBB JUMPI JUMPDEST PUSH0 PUSH0 REVERT JUMPDEST PUSH2 0x61 PUSH2 0xD9 JUMP JUMPDEST PUSH1 0x40 MLOAD PUSH2 0x6E SWAP2 SWAP1 PUSH2 0x1AA JUMP JUMPDEST PUSH1 0x40 MLOAD DUP1 SWAP2 SUB SWAP1 RETURN JUMPDEST PUSH2 0x7F PUSH2 0xDE JUMP JUMPDEST PUSH1 0x40 MLOAD PUSH2 0x8C SWAP2 SWAP1 PUSH2 0x1AA JUMP JUMPDEST PUSH1 0x40 MLOAD DUP1 SWAP2 SUB SWAP1 RETURN JUMPDEST PUSH2 0xAF PUSH1 0x4 DUP1 CALLDATASIZE SUB DUP2 ADD SWAP1 PUSH2 0xAA SWAP2 SWAP1 PUSH2 0x1F1 JUMP JUMPDEST PUSH2 0xE6 JUMP JUMPDEST STOP JUMPDEST PUSH2 0xB9 PUSH2 0x133 JUMP JUMPDEST STOP JUMPDEST PUSH2 0xC3 PUSH2 0x18C JUMP JUMPDEST PUSH1 0x40 MLOAD PUSH2 0xD0 SWAP2 SWAP1 PUSH2 0x1AA JUMP JUMPDEST PUSH1 0x40 MLOAD DUP1 SWAP2 SUB SWAP1 RETURN JUMPDEST PUSH0 SLOAD DUP2 JUMP JUMPDEST PUSH0 PUSH0 SLOAD SWAP1 POP SWAP1 JUMP JUMPDEST PUSH0 SLOAD PUSH1 0x1 DUP2 SWAP1 SSTORE POP DUP1 PUSH0 DUP2 SWAP1 SSTORE POP PUSH32 0x28BAB7182B1F3ED84E1006088A7E959B8999F63AF651809D61A39E97B026FCDE PUSH1 0x1 SLOAD PUSH0 SLOAD PUSH1 0x40 MLOAD PUSH2 0x128 SWAP3 SWAP2 SWAP1 PUSH2 0x21C JUMP JUMPDEST PUSH1 0x40 MLOAD DUP1 SWAP2 SUB SWAP1 LOG1 POP JUMP JUMPDEST PUSH0 SLOAD PUSH1 0x1 DUP2 SWAP1 SSTORE POP PUSH1 0x1 PUSH0 SLOAD PUSH2 0x149 SWAP2 SWAP1 PUSH2 0x270 JUMP JUMPDEST PUSH0 DUP2 SWAP1 SSTORE POP PUSH32 0x28BAB7182B1F3ED84E1006088A7E959B8999F63AF651809D61A39E97B026FCDE PUSH1 0x1 SLOAD PUSH0 SLOAD PUSH1 0x40 MLOAD PUSH2 0x182 SWAP3 SWAP2 SWAP1 PUSH2 0x21C JUMP JUMPDEST PUSH1 0x40 MLOAD DUP1 SWAP2 SUB SWAP1 LOG1 JUMP JUMPDEST PUSH1 0x1 SLOAD DUP2 JUMP JUMPDEST PUSH0 DUP2 SWAP1 POP SWAP2 SWAP1 POP JUMP JUMPDEST PUSH2 0x1A4 DUP2 PUSH2 0x192 JUMP JUMPDEST DUP3 MSTORE POP POP JUMP JUMPDEST PUSH0 PUSH1 0x20 DUP3 ADD SWAP1 POP PUSH2 0x1BD PUSH0 DUP4 ADD DUP5 PUSH2 0x19B JUMP JUMPDEST SWAP3 SWAP2 POP POP JUMP JUMPDEST PUSH0 PUSH0 REVERT JUMPDEST PUSH2 0x1D0 DUP2 PUSH2 0x192 JUMP JUMPDEST DUP2 EQ PUSH2 0x1DA JUMPI PUSH0 PUSH0 REVERT JUMPDEST POP JUMP JUMPDEST PUSH0 DUP2 CALLDATALOAD SWAP1 POP PUSH2 0x1EB DUP2 PUSH2 0x1C7 JUMP JUMPDEST SWAP3 SWAP2 POP POP JUMP JUMPDEST PUSH0 PUSH1 0x20 DUP3 DUP5 SUB SLT ISZERO PUSH2 0x206 JUMPI PUSH2 0x205 PUSH2 0x1C3 JUMP JUMPDEST JUMPDEST PUSH0 PUSH2 0x213 DUP5 DUP3 DUP6 ADD PUSH2 0x1DD JUMP JUMPDEST SWAP2 POP POP SWAP3 SWAP2 POP POP JUMP JUMPDEST PUSH0 PUSH1 0x40 DUP3 ADD SWAP1 POP PUSH2 0x22F PUSH0 DUP4 ADD DUP6 PUSH2 0x19B JUMP JUMPDEST PUSH2 0x23C PUSH1 0x20 DUP4 ADD DUP5 PUSH2 0x19B JUMP JUMPDEST SWAP4 SWAP3 POP POP POP JUMP JUMPDEST PUSH32 0x4E487B7100000000000000000000000000000000000000000000000000000000 PUSH0 MSTORE PUSH1 0x11 PUSH1 0x4 MSTORE PUSH1 0x24 PUSH0 REVERT JUMPDEST PUSH0 PUSH2 0x27A DUP3 PUSH2 0x192 JUMP JUMPDEST SWAP2 POP PUSH2 0x285 DUP4 PUSH2 0x192 JUMP JUMPDEST SWAP3 POP DUP3 DUP3 ADD SWAP1 POP DUP1 DUP3 GT ISZERO PUSH2 0x29D JUMPI PUSH2 0x29C PUSH2 0x243 JUMP JUMPDEST JUMPDEST SWAP3 SWAP2 POP POP JUMP INVALID LOG2 PUSH5 0x6970667358 0x22 SLT KECCAK256 PUSH27 0x5067255113D078B2AEE8327F246C54A2439FE706C691E0D33C7FEA 0x25 0xD7 EXTDELEGATECALL DUP6 PUSH5 0x736F6C6343 STOP ADDMOD 0x22 STOP CALLER "
				},
				"gasEstimates": {
					"creation": {
						"codeDepositCost": "145800",
						"executionCost": "188",
						"totalCost": "145988"
					},
					"external": {
						"counter()": "2402",
						"getCounter()": "2431",
						"increment()": "infinite",
						"previousCounter()": "2491",
						"setCounter(uint256)": "infinite"
					}
				},
				"methodIdentifiers": {
					"counter()": "61bc221a",
					"getCounter()": "8ada066e",
					"increment()": "d09de08a",
					"previousCounter()": "fb63ace9",
					"setCounter(uint256)": "8bb5d9c3"
				}
			},
			"storageLayout": {
				"storage": [
					{
						"astId": 87,
						"contract": "prac12.sol:StatePersistence",
						"label": "counter",
						"offset": 0,
						"slot": "0",
						"type": "t_uint256"
					},
					{
						"astId": 89,
						"contract": "prac12.sol:StatePersistence",
						"label": "previousCounter",
						"offset": 0,
						"slot": "1",
						"type": "t_uint256"
					}
				],
				"types": {
					"t_uint256": {
						"encoding": "inplace",
						"label": "uint256",
						"numberOfBytes": "32"
					}
				}
			},
			"userdoc": {
				"kind": "user",
				"methods": {},
				"version": 1
			}
		}
	}
}