{
	"prac28.sol": {
		"ReadCalldataValuesPatched": {
			"abi": [
				{
					"inputs": [],
					"stateMutability": "nonpayable",
					"type": "constructor"
				},
				{
					"inputs": [],
					"name": "lastMessage",
					"outputs": [
						{
							"internalType": "string",
							"name": "",
							"type": "string"
						}
					],
					"stateMutability": "view",
					"type": "function"
				},
				{
					"inputs": [],
					"name": "lastNumber",
					"outputs": [
						{
							"internalType": "uint256",
							"name": "",
							"type": "uint256"
						}
					],
					"stateMutability": "view",
					"type": "function"
				},
				{
					"inputs": [],
					"name": "owner",
					"outputs": [
						{
							"internalType": "address",
							"name": "",
							"type": "address"
						}
					],
					"stateMutability": "view",
					"type": "function"
				},
				{
					"inputs": [
						{
							"internalType": "uint256",
							"name": "_number",
							"type": "uint256"
						},
						{
							"internalType": "string",
							"name": "_message",
							"type": "string"
						}
					],
					"name": "saveInput",
					"outputs": [],
					"stateMutability": "nonpayable",
					"type": "function"
				}
			],
			"devdoc": {
				"kind": "dev",
				"methods": {},
				"version": 1
			},
			"evm": {
				"assembly": "    /* \"prac28.sol\":10836:11376  contract ReadCalldataValuesPatched {... */\n  mstore(0x40, 0x80)\n    /* \"prac28.sol\":10975:11026  constructor() {... */\n  callvalue\n  dup1\n  iszero\n  tag_1\n  jumpi\n  revert(0x00, 0x00)\ntag_1:\n  pop\n    /* \"prac28.sol\":11008:11018  msg.sender */\n  caller\n    /* \"prac28.sol\":11000:11005  owner */\n  0x02\n  0x00\n    /* \"prac28.sol\":11000:11018  owner = msg.sender */\n  0x0100\n  exp\n  dup2\n  sload\n  dup2\n  0xffffffffffffffffffffffffffffffffffffffff\n  mul\n  not\n  and\n  swap1\n  dup4\n  0xffffffffffffffffffffffffffffffffffffffff\n  and\n  mul\n  or\n  swap1\n  sstore\n  pop\n    /* \"prac28.sol\":10836:11376  contract ReadCalldataValuesPatched {... */\n  dataSize(sub_0)\n  dup1\n  dataOffset(sub_0)\n  0x00\n  codecopy\n  0x00\n  return\nstop\n\nsub_0: assembly {\n        /* \"prac28.sol\":10836:11376  contract ReadCalldataValuesPatched {... */\n      mstore(0x40, 0x80)\n      callvalue\n      dup1\n      iszero\n      tag_1\n      jumpi\n      revert(0x00, 0x00)\n    tag_1:\n      pop\n      jumpi(tag_2, lt(calldatasize, 0x04))\n      shr(0xe0, calldataload(0x00))\n      dup1\n      0x17679e13\n      eq\n      tag_3\n      jumpi\n      dup1\n      0x32970710\n      eq\n      tag_4\n      jumpi\n      dup1\n      0x8da5cb5b\n      eq\n      tag_5\n      jumpi\n      dup1\n      0xb3db9f1a\n      eq\n      tag_6\n      jumpi\n    tag_2:\n      revert(0x00, 0x00)\n        /* \"prac28.sol\":11172:11373  function saveInput(... */\n    tag_3:\n      tag_7\n      0x04\n      dup1\n      calldatasize\n      sub\n      dup2\n      add\n      swap1\n      tag_8\n      swap2\n      swap1\n      tag_9\n      jump\t// in\n    tag_8:\n      tag_10\n      jump\t// in\n    tag_7:\n      stop\n        /* \"prac28.sol\":10912:10937  string public lastMessage */\n    tag_4:\n      tag_11\n      tag_12\n      jump\t// in\n    tag_11:\n      mload(0x40)\n      tag_13\n      swap2\n      swap1\n      tag_14\n      jump\t// in\n    tag_13:\n      mload(0x40)\n      dup1\n      swap2\n      sub\n      swap1\n      return\n        /* \"prac28.sol\":10946:10966  address public owner */\n    tag_5:\n      tag_15\n      tag_16\n      jump\t// in\n    tag_15:\n      mload(0x40)\n      tag_17\n      swap2\n      swap1\n      tag_18\n      jump\t// in\n    tag_17:\n      mload(0x40)\n      dup1\n      swap2\n      sub\n      swap1\n      return\n        /* \"prac28.sol\":10880:10905  uint256 public lastNumber */\n    tag_6:\n      tag_19\n      tag_20\n      jump\t// in\n    tag_19:\n      mload(0x40)\n      tag_21\n      swap2\n      swap1\n      tag_22\n      jump\t// in\n    tag_21:\n      mload(0x40)\n      dup1\n      swap2\n      sub\n      swap1\n      return\n        /* \"prac28.sol\":11172:11373  function saveInput(... */\n    tag_10:\n        /* \"prac28.sol\":11102:11107  owner */\n      0x02\n      0x00\n      swap1\n      sload\n      swap1\n      0x0100\n      exp\n      swap1\n      div\n      0xffffffffffffffffffffffffffffffffffffffff\n      and\n        /* \"prac28.sol\":11088:11107  msg.sender == owner */\n      0xffffffffffffffffffffffffffffffffffffffff\n      and\n        /* \"prac28.sol\":11088:11098  msg.sender */\n      caller\n        /* \"prac28.sol\":11088:11107  msg.sender == owner */\n      0xffffffffffffffffffffffffffffffffffffffff\n      and\n      eq\n        /* \"prac28.sol\":11066:11144  require(... */\n      tag_24\n      jumpi\n      mload(0x40)\n      0x08c379a000000000000000000000000000000000000000000000000000000000\n      dup2\n      mstore\n      0x04\n      add\n      tag_25\n      swap1\n      tag_26\n      jump\t// in\n    tag_25:\n      mload(0x40)\n      dup1\n      swap2\n      sub\n      swap1\n      revert\n    tag_24:\n        /* \"prac28.sol\":11325:11332  _number */\n      dup3\n        /* \"prac28.sol\":11312:11322  lastNumber */\n      0x00\n        /* \"prac28.sol\":11312:11332  lastNumber = _number */\n      dup2\n      swap1\n      sstore\n      pop\n        /* \"prac28.sol\":11357:11365  _message */\n      dup2\n      dup2\n        /* \"prac28.sol\":11343:11354  lastMessage */\n      0x01\n        /* \"prac28.sol\":11343:11365  lastMessage = _message */\n      swap2\n      dup3\n      tag_28\n      swap3\n      swap2\n      swap1\n      tag_29\n      jump\t// in\n    tag_28:\n      pop\n        /* \"prac28.sol\":11172:11373  function saveInput(... */\n      pop\n      pop\n      pop\n      jump\t// out\n        /* \"prac28.sol\":10912:10937  string public lastMessage */\n    tag_12:\n      0x01\n      dup1\n      sload\n      tag_30\n      swap1\n      tag_31\n      jump\t// in\n    tag_30:\n      dup1\n      0x1f\n      add\n      0x20\n      dup1\n      swap2\n      div\n      mul\n      0x20\n      add\n      mload(0x40)\n      swap1\n      dup2\n      add\n      0x40\n      mstore\n      dup1\n      swap3\n      swap2\n      swap1\n      dup2\n      dup2\n      mstore\n      0x20\n      add\n      dup3\n      dup1\n      sload\n      tag_32\n      swap1\n      tag_31\n      jump\t// in\n    tag_32:\n      dup1\n      iszero\n      tag_33\n      jumpi\n      dup1\n      0x1f\n      lt\n      tag_34\n      jumpi\n      0x0100\n      dup1\n      dup4\n      sload\n      div\n      mul\n      dup4\n      mstore\n      swap2\n      0x20\n      add\n      swap2\n      jump(tag_33)\n    tag_34:\n      dup3\n      add\n      swap2\n      swap1\n      0x00\n      mstore\n      keccak256(0x00, 0x20)\n      swap1\n    tag_35:\n      dup2\n      sload\n      dup2\n      mstore\n      swap1\n      0x01\n      add\n      swap1\n      0x20\n      add\n      dup1\n      dup4\n      gt\n      tag_35\n      jumpi\n      dup3\n      swap1\n      sub\n      0x1f\n      and\n      dup3\n      add\n      swap2\n    tag_33:\n      pop\n      pop\n      pop\n      pop\n      pop\n      dup2\n      jump\t// out\n        /* \"prac28.sol\":10946:10966  address public owner */\n    tag_16:\n      0x02\n      0x00\n      swap1\n      sload\n      swap1\n      0x0100\n      exp\n      swap1\n      div\n      0xffffffffffffffffffffffffffffffffffffffff\n      and\n      dup2\n      jump\t// out\n        /* \"prac28.sol\":10880:10905  uint256 public lastNumber */\n    tag_20:\n      sload(0x00)\n      dup2\n      jump\t// out\n        /* \"#utility.yul\":88:205   */\n    tag_37:\n        /* \"#utility.yul\":197:198   */\n      0x00\n        /* \"#utility.yul\":194:195   */\n      0x00\n        /* \"#utility.yul\":187:199   */\n      revert\n        /* \"#utility.yul\":211:328   */\n    tag_38:\n        /* \"#utility.yul\":320:321   */\n      0x00\n        /* \"#utility.yul\":317:318   */\n      0x00\n        /* \"#utility.yul\":310:322   */\n      revert\n        /* \"#utility.yul\":334:411   */\n    tag_39:\n        /* \"#utility.yul\":371:378   */\n      0x00\n        /* \"#utility.yul\":400:405   */\n      dup2\n        /* \"#utility.yul\":389:405   */\n      swap1\n      pop\n        /* \"#utility.yul\":334:411   */\n      swap2\n      swap1\n      pop\n      jump\t// out\n        /* \"#utility.yul\":417:539   */\n    tag_40:\n        /* \"#utility.yul\":490:514   */\n      tag_81\n        /* \"#utility.yul\":508:513   */\n      dup2\n        /* \"#utility.yul\":490:514   */\n      tag_39\n      jump\t// in\n    tag_81:\n        /* \"#utility.yul\":483:488   */\n      dup2\n        /* \"#utility.yul\":480:515   */\n      eq\n        /* \"#utility.yul\":470:533   */\n      tag_82\n      jumpi\n        /* \"#utility.yul\":529:530   */\n      0x00\n        /* \"#utility.yul\":526:527   */\n      0x00\n        /* \"#utility.yul\":519:531   */\n      revert\n        /* \"#utility.yul\":470:533   */\n    tag_82:\n        /* \"#utility.yul\":417:539   */\n      pop\n      jump\t// out\n        /* \"#utility.yul\":545:684   */\n    tag_41:\n        /* \"#utility.yul\":591:596   */\n      0x00\n        /* \"#utility.yul\":629:635   */\n      dup2\n        /* \"#utility.yul\":616:636   */\n      calldataload\n        /* \"#utility.yul\":607:636   */\n      swap1\n      pop\n        /* \"#utility.yul\":645:678   */\n      tag_84\n        /* \"#utility.yul\":672:677   */\n      dup2\n        /* \"#utility.yul\":645:678   */\n      tag_40\n      jump\t// in\n    tag_84:\n        /* \"#utility.yul\":545:684   */\n      swap3\n      swap2\n      pop\n      pop\n      jump\t// out\n        /* \"#utility.yul\":690:807   */\n    tag_42:\n        /* \"#utility.yul\":799:800   */\n      0x00\n        /* \"#utility.yul\":796:797   */\n      0x00\n        /* \"#utility.yul\":789:801   */\n      revert\n        /* \"#utility.yul\":813:930   */\n    tag_43:\n        /* \"#utility.yul\":922:923   */\n      0x00\n        /* \"#utility.yul\":919:920   */\n      0x00\n        /* \"#utility.yul\":912:924   */\n      revert\n        /* \"#utility.yul\":936:1053   */\n    tag_44:\n        /* \"#utility.yul\":1045:1046   */\n      0x00\n        /* \"#utility.yul\":1042:1043   */\n      0x00\n        /* \"#utility.yul\":1035:1047   */\n      revert\n        /* \"#utility.yul\":1073:1626   */\n    tag_45:\n        /* \"#utility.yul\":1131:1139   */\n      0x00\n        /* \"#utility.yul\":1141:1147   */\n      0x00\n        /* \"#utility.yul\":1191:1194   */\n      dup4\n        /* \"#utility.yul\":1184:1188   */\n      0x1f\n        /* \"#utility.yul\":1176:1182   */\n      dup5\n        /* \"#utility.yul\":1172:1189   */\n      add\n        /* \"#utility.yul\":1168:1195   */\n      slt\n        /* \"#utility.yul\":1158:1280   */\n      tag_89\n      jumpi\n        /* \"#utility.yul\":1199:1278   */\n      tag_90\n      tag_42\n      jump\t// in\n    tag_90:\n        /* \"#utility.yul\":1158:1280   */\n    tag_89:\n        /* \"#utility.yul\":1312:1318   */\n      dup3\n        /* \"#utility.yul\":1299:1319   */\n      calldataload\n        /* \"#utility.yul\":1289:1319   */\n      swap1\n      pop\n        /* \"#utility.yul\":1342:1360   */\n      0xffffffffffffffff\n        /* \"#utility.yul\":1334:1340   */\n      dup2\n        /* \"#utility.yul\":1331:1361   */\n      gt\n        /* \"#utility.yul\":1328:1445   */\n      iszero\n      tag_91\n      jumpi\n        /* \"#utility.yul\":1364:1443   */\n      tag_92\n      tag_43\n      jump\t// in\n    tag_92:\n        /* \"#utility.yul\":1328:1445   */\n    tag_91:\n        /* \"#utility.yul\":1478:1482   */\n      0x20\n        /* \"#utility.yul\":1470:1476   */\n      dup4\n        /* \"#utility.yul\":1466:1483   */\n      add\n        /* \"#utility.yul\":1454:1483   */\n      swap2\n      pop\n        /* \"#utility.yul\":1532:1535   */\n      dup4\n        /* \"#utility.yul\":1524:1528   */\n      0x01\n        /* \"#utility.yul\":1516:1522   */\n      dup3\n        /* \"#utility.yul\":1512:1529   */\n      mul\n        /* \"#utility.yul\":1502:1510   */\n      dup4\n        /* \"#utility.yul\":1498:1530   */\n      add\n        /* \"#utility.yul\":1495:1536   */\n      gt\n        /* \"#utility.yul\":1492:1620   */\n      iszero\n      tag_93\n      jumpi\n        /* \"#utility.yul\":1539:1618   */\n      tag_94\n      tag_44\n      jump\t// in\n    tag_94:\n        /* \"#utility.yul\":1492:1620   */\n    tag_93:\n        /* \"#utility.yul\":1073:1626   */\n      swap3\n      pop\n      swap3\n      swap1\n      pop\n      jump\t// out\n        /* \"#utility.yul\":1632:2306   */\n    tag_9:\n        /* \"#utility.yul\":1712:1718   */\n      0x00\n        /* \"#utility.yul\":1720:1726   */\n      0x00\n        /* \"#utility.yul\":1728:1734   */\n      0x00\n        /* \"#utility.yul\":1777:1779   */\n      0x40\n        /* \"#utility.yul\":1765:1774   */\n      dup5\n        /* \"#utility.yul\":1756:1763   */\n      dup7\n        /* \"#utility.yul\":1752:1775   */\n      sub\n        /* \"#utility.yul\":1748:1780   */\n      slt\n        /* \"#utility.yul\":1745:1864   */\n      iszero\n      tag_96\n      jumpi\n        /* \"#utility.yul\":1783:1862   */\n      tag_97\n      tag_37\n      jump\t// in\n    tag_97:\n        /* \"#utility.yul\":1745:1864   */\n    tag_96:\n        /* \"#utility.yul\":1903:1904   */\n      0x00\n        /* \"#utility.yul\":1928:1981   */\n      tag_98\n        /* \"#utility.yul\":1973:1980   */\n      dup7\n        /* \"#utility.yul\":1964:1970   */\n      dup3\n        /* \"#utility.yul\":1953:1962   */\n      dup8\n        /* \"#utility.yul\":1949:1971   */\n      add\n        /* \"#utility.yul\":1928:1981   */\n      tag_41\n      jump\t// in\n    tag_98:\n        /* \"#utility.yul\":1918:1981   */\n      swap4\n      pop\n        /* \"#utility.yul\":1874:1991   */\n      pop\n        /* \"#utility.yul\":2058:2060   */\n      0x20\n        /* \"#utility.yul\":2047:2056   */\n      dup5\n        /* \"#utility.yul\":2043:2061   */\n      add\n        /* \"#utility.yul\":2030:2062   */\n      calldataload\n        /* \"#utility.yul\":2089:2107   */\n      0xffffffffffffffff\n        /* \"#utility.yul\":2081:2087   */\n      dup2\n        /* \"#utility.yul\":2078:2108   */\n      gt\n        /* \"#utility.yul\":2075:2192   */\n      iszero\n      tag_99\n      jumpi\n        /* \"#utility.yul\":2111:2190   */\n      tag_100\n      tag_38\n      jump\t// in\n    tag_100:\n        /* \"#utility.yul\":2075:2192   */\n    tag_99:\n        /* \"#utility.yul\":2224:2289   */\n      tag_101\n        /* \"#utility.yul\":2281:2288   */\n      dup7\n        /* \"#utility.yul\":2272:2278   */\n      dup3\n        /* \"#utility.yul\":2261:2270   */\n      dup8\n        /* \"#utility.yul\":2257:2279   */\n      add\n        /* \"#utility.yul\":2224:2289   */\n      tag_45\n      jump\t// in\n    tag_101:\n        /* \"#utility.yul\":2206:2289   */\n      swap3\n      pop\n      swap3\n      pop\n        /* \"#utility.yul\":2001:2299   */\n      pop\n        /* \"#utility.yul\":1632:2306   */\n      swap3\n      pop\n      swap3\n      pop\n      swap3\n      jump\t// out\n        /* \"#utility.yul\":2312:2411   */\n    tag_46:\n        /* \"#utility.yul\":2364:2370   */\n      0x00\n        /* \"#utility.yul\":2398:2403   */\n      dup2\n        /* \"#utility.yul\":2392:2404   */\n      mload\n        /* \"#utility.yul\":2382:2404   */\n      swap1\n      pop\n        /* \"#utility.yul\":2312:2411   */\n      swap2\n      swap1\n      pop\n      jump\t// out\n        /* \"#utility.yul\":2417:2586   */\n    tag_47:\n        /* \"#utility.yul\":2501:2512   */\n      0x00\n        /* \"#utility.yul\":2535:2541   */\n      dup3\n        /* \"#utility.yul\":2530:2533   */\n      dup3\n        /* \"#utility.yul\":2523:2542   */\n      mstore\n        /* \"#utility.yul\":2575:2579   */\n      0x20\n        /* \"#utility.yul\":2570:2573   */\n      dup3\n        /* \"#utility.yul\":2566:2580   */\n      add\n        /* \"#utility.yul\":2551:2580   */\n      swap1\n      pop\n        /* \"#utility.yul\":2417:2586   */\n      swap3\n      swap2\n      pop\n      pop\n      jump\t// out\n        /* \"#utility.yul\":2592:2731   */\n    tag_48:\n        /* \"#utility.yul\":2681:2687   */\n      dup3\n        /* \"#utility.yul\":2676:2679   */\n      dup2\n        /* \"#utility.yul\":2671:2674   */\n      dup4\n        /* \"#utility.yul\":2665:2688   */\n      mcopy\n        /* \"#utility.yul\":2722:2723   */\n      0x00\n        /* \"#utility.yul\":2713:2719   */\n      dup4\n        /* \"#utility.yul\":2708:2711   */\n      dup4\n        /* \"#utility.yul\":2704:2720   */\n      add\n        /* \"#utility.yul\":2697:2724   */\n      mstore\n        /* \"#utility.yul\":2592:2731   */\n      pop\n      pop\n      pop\n      jump\t// out\n        /* \"#utility.yul\":2737:2839   */\n    tag_49:\n        /* \"#utility.yul\":2778:2784   */\n      0x00\n        /* \"#utility.yul\":2829:2831   */\n      0x1f\n        /* \"#utility.yul\":2825:2832   */\n      not\n        /* \"#utility.yul\":2820:2822   */\n      0x1f\n        /* \"#utility.yul\":2813:2818   */\n      dup4\n        /* \"#utility.yul\":2809:2823   */\n      add\n        /* \"#utility.yul\":2805:2833   */\n      and\n        /* \"#utility.yul\":2795:2833   */\n      swap1\n      pop\n        /* \"#utility.yul\":2737:2839   */\n      swap2\n      swap1\n      pop\n      jump\t// out\n        /* \"#utility.yul\":2845:3222   */\n    tag_50:\n        /* \"#utility.yul\":2933:2936   */\n      0x00\n        /* \"#utility.yul\":2961:3000   */\n      tag_107\n        /* \"#utility.yul\":2994:2999   */\n      dup3\n        /* \"#utility.yul\":2961:3000   */\n      tag_46\n      jump\t// in\n    tag_107:\n        /* \"#utility.yul\":3016:3087   */\n      tag_108\n        /* \"#utility.yul\":3080:3086   */\n      dup2\n        /* \"#utility.yul\":3075:3078   */\n      dup6\n        /* \"#utility.yul\":3016:3087   */\n      tag_47\n      jump\t// in\n    tag_108:\n        /* \"#utility.yul\":3009:3087   */\n      swap4\n      pop\n        /* \"#utility.yul\":3096:3161   */\n      tag_109\n        /* \"#utility.yul\":3154:3160   */\n      dup2\n        /* \"#utility.yul\":3149:3152   */\n      dup6\n        /* \"#utility.yul\":3142:3146   */\n      0x20\n        /* \"#utility.yul\":3135:3140   */\n      dup7\n        /* \"#utility.yul\":3131:3147   */\n      add\n        /* \"#utility.yul\":3096:3161   */\n      tag_48\n      jump\t// in\n    tag_109:\n        /* \"#utility.yul\":3186:3215   */\n      tag_110\n        /* \"#utility.yul\":3208:3214   */\n      dup2\n        /* \"#utility.yul\":3186:3215   */\n      tag_49\n      jump\t// in\n    tag_110:\n        /* \"#utility.yul\":3181:3184   */\n      dup5\n        /* \"#utility.yul\":3177:3216   */\n      add\n        /* \"#utility.yul\":3170:3216   */\n      swap2\n      pop\n        /* \"#utility.yul\":2937:3222   */\n      pop\n        /* \"#utility.yul\":2845:3222   */\n      swap3\n      swap2\n      pop\n      pop\n      jump\t// out\n        /* \"#utility.yul\":3228:3541   */\n    tag_14:\n        /* \"#utility.yul\":3341:3345   */\n      0x00\n        /* \"#utility.yul\":3379:3381   */\n      0x20\n        /* \"#utility.yul\":3368:3377   */\n      dup3\n        /* \"#utility.yul\":3364:3382   */\n      add\n        /* \"#utility.yul\":3356:3382   */\n      swap1\n      pop\n        /* \"#utility.yul\":3428:3437   */\n      dup2\n        /* \"#utility.yul\":3422:3426   */\n      dup2\n        /* \"#utility.yul\":3418:3438   */\n      sub\n        /* \"#utility.yul\":3414:3415   */\n      0x00\n        /* \"#utility.yul\":3403:3412   */\n      dup4\n        /* \"#utility.yul\":3399:3416   */\n      add\n        /* \"#utility.yul\":3392:3439   */\n      mstore\n        /* \"#utility.yul\":3456:3534   */\n      tag_112\n        /* \"#utility.yul\":3529:3533   */\n      dup2\n        /* \"#utility.yul\":3520:3526   */\n      dup5\n        /* \"#utility.yul\":3456:3534   */\n      tag_50\n      jump\t// in\n    tag_112:\n        /* \"#utility.yul\":3448:3534   */\n      swap1\n      pop\n        /* \"#utility.yul\":3228:3541   */\n      swap3\n      swap2\n      pop\n      pop\n      jump\t// out\n        /* \"#utility.yul\":3547:3673   */\n    tag_51:\n        /* \"#utility.yul\":3584:3591   */\n      0x00\n        /* \"#utility.yul\":3624:3666   */\n      0xffffffffffffffffffffffffffffffffffffffff\n        /* \"#utility.yul\":3617:3622   */\n      dup3\n        /* \"#utility.yul\":3613:3667   */\n      and\n        /* \"#utility.yul\":3602:3667   */\n      swap1\n      pop\n        /* \"#utility.yul\":3547:3673   */\n      swap2\n      swap1\n      pop\n      jump\t// out\n        /* \"#utility.yul\":3679:3775   */\n    tag_52:\n        /* \"#utility.yul\":3716:3723   */\n      0x00\n        /* \"#utility.yul\":3745:3769   */\n      tag_115\n        /* \"#utility.yul\":3763:3768   */\n      dup3\n        /* \"#utility.yul\":3745:3769   */\n      tag_51\n      jump\t// in\n    tag_115:\n        /* \"#utility.yul\":3734:3769   */\n      swap1\n      pop\n        /* \"#utility.yul\":3679:3775   */\n      swap2\n      swap1\n      pop\n      jump\t// out\n        /* \"#utility.yul\":3781:3899   */\n    tag_53:\n        /* \"#utility.yul\":3868:3892   */\n      tag_117\n        /* \"#utility.yul\":3886:3891   */\n      dup2\n        /* \"#utility.yul\":3868:3892   */\n      tag_52\n      jump\t// in\n    tag_117:\n        /* \"#utility.yul\":3863:3866   */\n      dup3\n        /* \"#utility.yul\":3856:3893   */\n      mstore\n        /* \"#utility.yul\":3781:3899   */\n      pop\n      pop\n      jump\t// out\n        /* \"#utility.yul\":3905:4127   */\n    tag_18:\n        /* \"#utility.yul\":3998:4002   */\n      0x00\n        /* \"#utility.yul\":4036:4038   */\n      0x20\n        /* \"#utility.yul\":4025:4034   */\n      dup3\n        /* \"#utility.yul\":4021:4039   */\n      add\n        /* \"#utility.yul\":4013:4039   */\n      swap1\n      pop\n        /* \"#utility.yul\":4049:4120   */\n      tag_119\n        /* \"#utility.yul\":4117:4118   */\n      0x00\n        /* \"#utility.yul\":4106:4115   */\n      dup4\n        /* \"#utility.yul\":4102:4119   */\n      add\n        /* \"#utility.yul\":4093:4099   */\n      dup5\n        /* \"#utility.yul\":4049:4120   */\n      tag_53\n      jump\t// in\n    tag_119:\n        /* \"#utility.yul\":3905:4127   */\n      swap3\n      swap2\n      pop\n      pop\n      jump\t// out\n        /* \"#utility.yul\":4133:4251   */\n    tag_54:\n        /* \"#utility.yul\":4220:4244   */\n      tag_121\n        /* \"#utility.yul\":4238:4243   */\n      dup2\n        /* \"#utility.yul\":4220:4244   */\n      tag_39\n      jump\t// in\n    tag_121:\n        /* \"#utility.yul\":4215:4218   */\n      dup3\n        /* \"#utility.yul\":4208:4245   */\n      mstore\n        /* \"#utility.yul\":4133:4251   */\n      pop\n      pop\n      jump\t// out\n        /* \"#utility.yul\":4257:4479   */\n    tag_22:\n        /* \"#utility.yul\":4350:4354   */\n      0x00\n        /* \"#utility.yul\":4388:4390   */\n      0x20\n        /* \"#utility.yul\":4377:4386   */\n      dup3\n        /* \"#utility.yul\":4373:4391   */\n      add\n        /* \"#utility.yul\":4365:4391   */\n      swap1\n      pop\n        /* \"#utility.yul\":4401:4472   */\n      tag_123\n        /* \"#utility.yul\":4469:4470   */\n      0x00\n        /* \"#utility.yul\":4458:4467   */\n      dup4\n        /* \"#utility.yul\":4454:4471   */\n      add\n        /* \"#utility.yul\":4445:4451   */\n      dup5\n        /* \"#utility.yul\":4401:4472   */\n      tag_54\n      jump\t// in\n    tag_123:\n        /* \"#utility.yul\":4257:4479   */\n      swap3\n      swap2\n      pop\n      pop\n      jump\t// out\n        /* \"#utility.yul\":4485:4644   */\n    tag_55:\n        /* \"#utility.yul\":4625:4636   */\n      0x4e6f74206f776e65720000000000000000000000000000000000000000000000\n        /* \"#utility.yul\":4621:4622   */\n      0x00\n        /* \"#utility.yul\":4613:4619   */\n      dup3\n        /* \"#utility.yul\":4609:4623   */\n      add\n        /* \"#utility.yul\":4602:4637   */\n      mstore\n        /* \"#utility.yul\":4485:4644   */\n      pop\n      jump\t// out\n        /* \"#utility.yul\":4650:5015   */\n    tag_56:\n        /* \"#utility.yul\":4792:4795   */\n      0x00\n        /* \"#utility.yul\":4813:4879   */\n      tag_126\n        /* \"#utility.yul\":4877:4878   */\n      0x09\n        /* \"#utility.yul\":4872:4875   */\n      dup4\n        /* \"#utility.yul\":4813:4879   */\n      tag_47\n      jump\t// in\n    tag_126:\n        /* \"#utility.yul\":4806:4879   */\n      swap2\n      pop\n        /* \"#utility.yul\":4888:4981   */\n      tag_127\n        /* \"#utility.yul\":4977:4980   */\n      dup3\n        /* \"#utility.yul\":4888:4981   */\n      tag_55\n      jump\t// in\n    tag_127:\n        /* \"#utility.yul\":5006:5008   */\n      0x20\n        /* \"#utility.yul\":5001:5004   */\n      dup3\n        /* \"#utility.yul\":4997:5009   */\n      add\n        /* \"#utility.yul\":4990:5009   */\n      swap1\n      pop\n        /* \"#utility.yul\":4650:5015   */\n      swap2\n      swap1\n      pop\n      jump\t// out\n        /* \"#utility.yul\":5021:5440   */\n    tag_26:\n        /* \"#utility.yul\":5187:5191   */\n      0x00\n        /* \"#utility.yul\":5225:5227   */\n      0x20\n        /* \"#utility.yul\":5214:5223   */\n      dup3\n        /* \"#utility.yul\":5210:5228   */\n      add\n        /* \"#utility.yul\":5202:5228   */\n      swap1\n      pop\n        /* \"#utility.yul\":5274:5283   */\n      dup2\n        /* \"#utility.yul\":5268:5272   */\n      dup2\n        /* \"#utility.yul\":5264:5284   */\n      sub\n        /* \"#utility.yul\":5260:5261   */\n      0x00\n        /* \"#utility.yul\":5249:5258   */\n      dup4\n        /* \"#utility.yul\":5245:5262   */\n      add\n        /* \"#utility.yul\":5238:5285   */\n      mstore\n        /* \"#utility.yul\":5302:5433   */\n      tag_129\n        /* \"#utility.yul\":5428:5432   */\n      dup2\n        /* \"#utility.yul\":5302:5433   */\n      tag_56\n      jump\t// in\n    tag_129:\n        /* \"#utility.yul\":5294:5433   */\n      swap1\n      pop\n        /* \"#utility.yul\":5021:5440   */\n      swap2\n      swap1\n      pop\n      jump\t// out\n        /* \"#utility.yul\":5446:5543   */\n    tag_57:\n        /* \"#utility.yul\":5505:5511   */\n      0x00\n        /* \"#utility.yul\":5533:5536   */\n      dup3\n        /* \"#utility.yul\":5523:5536   */\n      swap1\n      pop\n        /* \"#utility.yul\":5446:5543   */\n      swap3\n      swap2\n      pop\n      pop\n      jump\t// out\n        /* \"#utility.yul\":5549:5729   */\n    tag_58:\n        /* \"#utility.yul\":5597:5674   */\n      0x4e487b7100000000000000000000000000000000000000000000000000000000\n        /* \"#utility.yul\":5594:5595   */\n      0x00\n        /* \"#utility.yul\":5587:5675   */\n      mstore\n        /* \"#utility.yul\":5694:5698   */\n      0x41\n        /* \"#utility.yul\":5691:5692   */\n      0x04\n        /* \"#utility.yul\":5684:5699   */\n      mstore\n        /* \"#utility.yul\":5718:5722   */\n      0x24\n        /* \"#utility.yul\":5715:5716   */\n      0x00\n        /* \"#utility.yul\":5708:5723   */\n      revert\n        /* \"#utility.yul\":5735:5915   */\n    tag_59:\n        /* \"#utility.yul\":5783:5860   */\n      0x4e487b7100000000000000000000000000000000000000000000000000000000\n        /* \"#utility.yul\":5780:5781   */\n      0x00\n        /* \"#utility.yul\":5773:5861   */\n      mstore\n        /* \"#utility.yul\":5880:5884   */\n      0x22\n        /* \"#utility.yul\":5877:5878   */\n      0x04\n        /* \"#utility.yul\":5870:5885   */\n      mstore\n        /* \"#utility.yul\":5904:5908   */\n      0x24\n        /* \"#utility.yul\":5901:5902   */\n      0x00\n        /* \"#utility.yul\":5894:5909   */\n      revert\n        /* \"#utility.yul\":5921:6241   */\n    tag_31:\n        /* \"#utility.yul\":5965:5971   */\n      0x00\n        /* \"#utility.yul\":6002:6003   */\n      0x02\n        /* \"#utility.yul\":5996:6000   */\n      dup3\n        /* \"#utility.yul\":5992:6004   */\n      div\n        /* \"#utility.yul\":5982:6004   */\n      swap1\n      pop\n        /* \"#utility.yul\":6049:6050   */\n      0x01\n        /* \"#utility.yul\":6043:6047   */\n      dup3\n        /* \"#utility.yul\":6039:6051   */\n      and\n        /* \"#utility.yul\":6070:6088   */\n      dup1\n        /* \"#utility.yul\":6060:6141   */\n      tag_134\n      jumpi\n        /* \"#utility.yul\":6126:6130   */\n      0x7f\n        /* \"#utility.yul\":6118:6124   */\n      dup3\n        /* \"#utility.yul\":6114:6131   */\n      and\n        /* \"#utility.yul\":6104:6131   */\n      swap2\n      pop\n        /* \"#utility.yul\":6060:6141   */\n    tag_134:\n        /* \"#utility.yul\":6188:6190   */\n      0x20\n        /* \"#utility.yul\":6180:6186   */\n      dup3\n        /* \"#utility.yul\":6177:6191   */\n      lt\n        /* \"#utility.yul\":6157:6175   */\n      dup2\n        /* \"#utility.yul\":6154:6192   */\n      sub\n        /* \"#utility.yul\":6151:6235   */\n      tag_135\n      jumpi\n        /* \"#utility.yul\":6207:6225   */\n      tag_136\n      tag_59\n      jump\t// in\n    tag_136:\n        /* \"#utility.yul\":6151:6235   */\n    tag_135:\n        /* \"#utility.yul\":5972:6241   */\n      pop\n        /* \"#utility.yul\":5921:6241   */\n      swap2\n      swap1\n      pop\n      jump\t// out\n        /* \"#utility.yul\":6247:6388   */\n    tag_60:\n        /* \"#utility.yul\":6296:6300   */\n      0x00\n        /* \"#utility.yul\":6319:6322   */\n      dup2\n        /* \"#utility.yul\":6311:6322   */\n      swap1\n      pop\n        /* \"#utility.yul\":6342:6345   */\n      dup2\n        /* \"#utility.yul\":6339:6340   */\n      0x00\n        /* \"#utility.yul\":6332:6346   */\n      mstore\n        /* \"#utility.yul\":6376:6380   */\n      0x20\n        /* \"#utility.yul\":6373:6374   */\n      0x00\n        /* \"#utility.yul\":6363:6381   */\n      keccak256\n        /* \"#utility.yul\":6355:6381   */\n      swap1\n      pop\n        /* \"#utility.yul\":6247:6388   */\n      swap2\n      swap1\n      pop\n      jump\t// out\n        /* \"#utility.yul\":6394:6487   */\n    tag_61:\n        /* \"#utility.yul\":6431:6437   */\n      0x00\n        /* \"#utility.yul\":6478:6480   */\n      0x20\n        /* \"#utility.yul\":6473:6475   */\n      0x1f\n        /* \"#utility.yul\":6466:6471   */\n      dup4\n        /* \"#utility.yul\":6462:6476   */\n      add\n        /* \"#utility.yul\":6458:6481   */\n      div\n        /* \"#utility.yul\":6448:6481   */\n      swap1\n      pop\n        /* \"#utility.yul\":6394:6487   */\n      swap2\n      swap1\n      pop\n      jump\t// out\n        /* \"#utility.yul\":6493:6600   */\n    tag_62:\n        /* \"#utility.yul\":6537:6545   */\n      0x00\n        /* \"#utility.yul\":6587:6592   */\n      dup3\n        /* \"#utility.yul\":6581:6585   */\n      dup3\n        /* \"#utility.yul\":6577:6593   */\n      shl\n        /* \"#utility.yul\":6556:6593   */\n      swap1\n      pop\n        /* \"#utility.yul\":6493:6600   */\n      swap3\n      swap2\n      pop\n      pop\n      jump\t// out\n        /* \"#utility.yul\":6606:6999   */\n    tag_63:\n        /* \"#utility.yul\":6675:6681   */\n      0x00\n        /* \"#utility.yul\":6725:6726   */\n      0x08\n        /* \"#utility.yul\":6713:6723   */\n      dup4\n        /* \"#utility.yul\":6709:6727   */\n      mul\n        /* \"#utility.yul\":6748:6845   */\n      tag_141\n        /* \"#utility.yul\":6778:6844   */\n      0xffffffffffffffffffffffffffffffffffffffffffffffffffffffffffffffff\n        /* \"#utility.yul\":6767:6776   */\n      dup3\n        /* \"#utility.yul\":6748:6845   */\n      tag_62\n      jump\t// in\n    tag_141:\n        /* \"#utility.yul\":6866:6905   */\n      tag_142\n        /* \"#utility.yul\":6896:6904   */\n      dup7\n        /* \"#utility.yul\":6885:6894   */\n      dup4\n        /* \"#utility.yul\":6866:6905   */\n      tag_62\n      jump\t// in\n    tag_142:\n        /* \"#utility.yul\":6854:6905   */\n      swap6\n      pop\n        /* \"#utility.yul\":6938:6942   */\n      dup1\n        /* \"#utility.yul\":6934:6943   */\n      not\n        /* \"#utility.yul\":6927:6932   */\n      dup5\n        /* \"#utility.yul\":6923:6944   */\n      and\n        /* \"#utility.yul\":6914:6944   */\n      swap4\n      pop\n        /* \"#utility.yul\":6987:6991   */\n      dup1\n        /* \"#utility.yul\":6977:6985   */\n      dup7\n        /* \"#utility.yul\":6973:6992   */\n      and\n        /* \"#utility.yul\":6966:6971   */\n      dup5\n        /* \"#utility.yul\":6963:6993   */\n      or\n        /* \"#utility.yul\":6953:6993   */\n      swap3\n      pop\n        /* \"#utility.yul\":6682:6999   */\n      pop\n      pop\n        /* \"#utility.yul\":6606:6999   */\n      swap4\n      swap3\n      pop\n      pop\n      pop\n      jump\t// out\n        /* \"#utility.yul\":7005:7065   */\n    tag_64:\n        /* \"#utility.yul\":7033:7036   */\n      0x00\n        /* \"#utility.yul\":7054:7059   */\n      dup2\n        /* \"#utility.yul\":7047:7059   */\n      swap1\n      pop\n        /* \"#utility.yul\":7005:7065   */\n      swap2\n      swap1\n      pop\n      jump\t// out\n        /* \"#utility.yul\":7071:7213   */\n    tag_65:\n        /* \"#utility.yul\":7121:7130   */\n      0x00\n        /* \"#utility.yul\":7154:7207   */\n      tag_145\n        /* \"#utility.yul\":7172:7206   */\n      tag_146\n        /* \"#utility.yul\":7181:7205   */\n      tag_147\n        /* \"#utility.yul\":7199:7204   */\n      dup5\n        /* \"#utility.yul\":7181:7205   */\n      tag_39\n      jump\t// in\n    tag_147:\n        /* \"#utility.yul\":7172:7206   */\n      tag_64\n      jump\t// in\n    tag_146:\n        /* \"#utility.yul\":7154:7207   */\n      tag_39\n      jump\t// in\n    tag_145:\n        /* \"#utility.yul\":7141:7207   */\n      swap1\n      pop\n        /* \"#utility.yul\":7071:7213   */\n      swap2\n      swap1\n      pop\n      jump\t// out\n        /* \"#utility.yul\":7219:7294   */\n    tag_66:\n        /* \"#utility.yul\":7262:7265   */\n      0x00\n        /* \"#utility.yul\":7283:7288   */\n      dup2\n        /* \"#utility.yul\":7276:7288   */\n      swap1\n      pop\n        /* \"#utility.yul\":7219:7294   */\n      swap2\n      swap1\n      pop\n      jump\t// out\n        /* \"#utility.yul\":7300:7569   */\n    tag_67:\n        /* \"#utility.yul\":7410:7449   */\n      tag_150\n        /* \"#utility.yul\":7441:7448   */\n      dup4\n        /* \"#utility.yul\":7410:7449   */\n      tag_65\n      jump\t// in\n    tag_150:\n        /* \"#utility.yul\":7471:7562   */\n      tag_151\n        /* \"#utility.yul\":7520:7561   */\n      tag_152\n        /* \"#utility.yul\":7544:7560   */\n      dup3\n        /* \"#utility.yul\":7520:7561   */\n      tag_66\n      jump\t// in\n    tag_152:\n        /* \"#utility.yul\":7512:7518   */\n      dup5\n        /* \"#utility.yul\":7505:7509   */\n      dup5\n        /* \"#utility.yul\":7499:7510   */\n      sload\n        /* \"#utility.yul\":7471:7562   */\n      tag_63\n      jump\t// in\n    tag_151:\n        /* \"#utility.yul\":7465:7469   */\n      dup3\n        /* \"#utility.yul\":7458:7563   */\n      sstore\n        /* \"#utility.yul\":7376:7569   */\n      pop\n        /* \"#utility.yul\":7300:7569   */\n      pop\n      pop\n      pop\n      jump\t// out\n        /* \"#utility.yul\":7575:7648   */\n    tag_68:\n        /* \"#utility.yul\":7620:7623   */\n      0x00\n        /* \"#utility.yul\":7641:7642   */\n      0x00\n        /* \"#utility.yul\":7634:7642   */\n      swap1\n      pop\n        /* \"#utility.yul\":7575:7648   */\n      swap1\n      jump\t// out\n        /* \"#utility.yul\":7654:7843   */\n    tag_69:\n        /* \"#utility.yul\":7731:7763   */\n      tag_155\n      tag_68\n      jump\t// in\n    tag_155:\n        /* \"#utility.yul\":7772:7837   */\n      tag_156\n        /* \"#utility.yul\":7830:7836   */\n      dup2\n        /* \"#utility.yul\":7822:7828   */\n      dup5\n        /* \"#utility.yul\":7816:7820   */\n      dup5\n        /* \"#utility.yul\":7772:7837   */\n      tag_67\n      jump\t// in\n    tag_156:\n        /* \"#utility.yul\":7707:7843   */\n      pop\n        /* \"#utility.yul\":7654:7843   */\n      pop\n      pop\n      jump\t// out\n        /* \"#utility.yul\":7849:8063   */\n    tag_70:\n        /* \"#utility.yul\":7934:7935   */\n      0x00\n        /* \"#utility.yul\":7919:8057   */\n    tag_158:\n        /* \"#utility.yul\":7944:7953   */\n      dup3\n        /* \"#utility.yul\":7941:7942   */\n      dup2\n        /* \"#utility.yul\":7938:7954   */\n      lt\n        /* \"#utility.yul\":7919:8057   */\n      iszero\n      tag_160\n      jumpi\n        /* \"#utility.yul\":7996:8047   */\n      tag_161\n        /* \"#utility.yul\":8045:8046   */\n      0x00\n        /* \"#utility.yul\":8041:8042   */\n      dup3\n        /* \"#utility.yul\":8030:8039   */\n      dup5\n        /* \"#utility.yul\":8026:8043   */\n      add\n        /* \"#utility.yul\":7996:8047   */\n      tag_69\n      jump\t// in\n    tag_161:\n        /* \"#utility.yul\":7969:7970   */\n      0x01\n        /* \"#utility.yul\":7966:7967   */\n      dup2\n        /* \"#utility.yul\":7962:7971   */\n      add\n        /* \"#utility.yul\":7957:7971   */\n      swap1\n      pop\n        /* \"#utility.yul\":7919:8057   */\n      jump(tag_158)\n    tag_160:\n        /* \"#utility.yul\":7923:7937   */\n      pop\n        /* \"#utility.yul\":7849:8063   */\n      pop\n      pop\n      jump\t// out\n        /* \"#utility.yul\":8069:8815   */\n    tag_71:\n        /* \"#utility.yul\":8170:8172   */\n      0x1f\n        /* \"#utility.yul\":8165:8168   */\n      dup3\n        /* \"#utility.yul\":8162:8173   */\n      gt\n        /* \"#utility.yul\":8159:8808   */\n      iszero\n      tag_163\n      jumpi\n        /* \"#utility.yul\":8199:8209   */\n      dup3\n        /* \"#utility.yul\":8194:8197   */\n      dup3\n        /* \"#utility.yul\":8191:8210   */\n      gt\n        /* \"#utility.yul\":8188:8798   */\n      iszero\n      tag_164\n      jumpi\n        /* \"#utility.yul\":8245:8283   */\n      tag_165\n        /* \"#utility.yul\":8277:8282   */\n      dup2\n        /* \"#utility.yul\":8245:8283   */\n      tag_60\n      jump\t// in\n    tag_165:\n        /* \"#utility.yul\":8320:8342   */\n      tag_166\n        /* \"#utility.yul\":8338:8341   */\n      dup4\n        /* \"#utility.yul\":8320:8342   */\n      tag_61\n      jump\t// in\n    tag_166:\n        /* \"#utility.yul\":8379:8408   */\n      tag_167\n        /* \"#utility.yul\":8397:8407   */\n      dup6\n        /* \"#utility.yul\":8379:8408   */\n      tag_61\n      jump\t// in\n    tag_167:\n        /* \"#utility.yul\":8569:8571   */\n      0x20\n        /* \"#utility.yul\":8557:8567   */\n      dup7\n        /* \"#utility.yul\":8554:8572   */\n      lt\n        /* \"#utility.yul\":8551:8630   */\n      iszero\n      tag_168\n      jumpi\n        /* \"#utility.yul\":8611:8612   */\n      0x00\n        /* \"#utility.yul\":8595:8612   */\n      swap1\n      pop\n        /* \"#utility.yul\":8551:8630   */\n    tag_168:\n        /* \"#utility.yul\":8680:8692   */\n      dup1\n        /* \"#utility.yul\":8670:8678   */\n      dup4\n        /* \"#utility.yul\":8666:8693   */\n      add\n        /* \"#utility.yul\":8710:8784   */\n      tag_169\n        /* \"#utility.yul\":8770:8782   */\n      dup3\n        /* \"#utility.yul\":8756:8768   */\n      dup5\n        /* \"#utility.yul\":8752:8783   */\n      sub\n        /* \"#utility.yul\":8739:8750   */\n      dup3\n        /* \"#utility.yul\":8710:8784   */\n      tag_70\n      jump\t// in\n    tag_169:\n        /* \"#utility.yul\":8211:8798   */\n      pop\n      pop\n      pop\n      pop\n        /* \"#utility.yul\":8188:8798   */\n    tag_164:\n        /* \"#utility.yul\":8159:8808   */\n    tag_163:\n        /* \"#utility.yul\":8069:8815   */\n      pop\n      pop\n      pop\n      jump\t// out\n        /* \"#utility.yul\":8821:8938   */\n    tag_72:\n        /* \"#utility.yul\":8875:8883   */\n      0x00\n        /* \"#utility.yul\":8925:8930   */\n      dup3\n        /* \"#utility.yul\":8919:8923   */\n      dup3\n        /* \"#utility.yul\":8915:8931   */\n      shr\n        /* \"#utility.yul\":8894:8931   */\n      swap1\n      pop\n        /* \"#utility.yul\":8821:8938   */\n      swap3\n      swap2\n      pop\n      pop\n      jump\t// out\n        /* \"#utility.yul\":8944:9113   */\n    tag_73:\n        /* \"#utility.yul\":8988:8994   */\n      0x00\n        /* \"#utility.yul\":9021:9072   */\n      tag_172\n        /* \"#utility.yul\":9069:9070   */\n      0x00\n        /* \"#utility.yul\":9065:9071   */\n      not\n        /* \"#utility.yul\":9057:9062   */\n      dup5\n        /* \"#utility.yul\":9054:9055   */\n      0x08\n        /* \"#utility.yul\":9050:9063   */\n      mul\n        /* \"#utility.yul\":9021:9072   */\n      tag_72\n      jump\t// in\n    tag_172:\n        /* \"#utility.yul\":9017:9073   */\n      not\n        /* \"#utility.yul\":9102:9106   */\n      dup1\n        /* \"#utility.yul\":9096:9100   */\n      dup4\n        /* \"#utility.yul\":9092:9107   */\n      and\n        /* \"#utility.yul\":9082:9107   */\n      swap2\n      pop\n        /* \"#utility.yul\":8995:9113   */\n      pop\n        /* \"#utility.yul\":8944:9113   */\n      swap3\n      swap2\n      pop\n      pop\n      jump\t// out\n        /* \"#utility.yul\":9118:9413   */\n    tag_74:\n        /* \"#utility.yul\":9194:9198   */\n      0x00\n        /* \"#utility.yul\":9340:9369   */\n      tag_174\n        /* \"#utility.yul\":9365:9368   */\n      dup4\n        /* \"#utility.yul\":9359:9363   */\n      dup4\n        /* \"#utility.yul\":9340:9369   */\n      tag_73\n      jump\t// in\n    tag_174:\n        /* \"#utility.yul\":9332:9369   */\n      swap2\n      pop\n        /* \"#utility.yul\":9402:9405   */\n      dup3\n        /* \"#utility.yul\":9399:9400   */\n      0x02\n        /* \"#utility.yul\":9395:9406   */\n      mul\n        /* \"#utility.yul\":9389:9393   */\n      dup3\n        /* \"#utility.yul\":9386:9407   */\n      or\n        /* \"#utility.yul\":9378:9407   */\n      swap1\n      pop\n        /* \"#utility.yul\":9118:9413   */\n      swap3\n      swap2\n      pop\n      pop\n      jump\t// out\n        /* \"#utility.yul\":9418:10821   */\n    tag_29:\n        /* \"#utility.yul\":9542:9586   */\n      tag_176\n        /* \"#utility.yul\":9582:9585   */\n      dup4\n        /* \"#utility.yul\":9577:9580   */\n      dup4\n        /* \"#utility.yul\":9542:9586   */\n      tag_57\n      jump\t// in\n    tag_176:\n        /* \"#utility.yul\":9651:9669   */\n      0xffffffffffffffff\n        /* \"#utility.yul\":9643:9649   */\n      dup2\n        /* \"#utility.yul\":9640:9670   */\n      gt\n        /* \"#utility.yul\":9637:9693   */\n      iszero\n      tag_177\n      jumpi\n        /* \"#utility.yul\":9673:9691   */\n      tag_178\n      tag_58\n      jump\t// in\n    tag_178:\n        /* \"#utility.yul\":9637:9693   */\n    tag_177:\n        /* \"#utility.yul\":9717:9755   */\n      tag_179\n        /* \"#utility.yul\":9749:9753   */\n      dup3\n        /* \"#utility.yul\":9743:9754   */\n      sload\n        /* \"#utility.yul\":9717:9755   */\n      tag_31\n      jump\t// in\n    tag_179:\n        /* \"#utility.yul\":9802:9869   */\n      tag_180\n        /* \"#utility.yul\":9862:9868   */\n      dup3\n        /* \"#utility.yul\":9854:9860   */\n      dup3\n        /* \"#utility.yul\":9848:9852   */\n      dup6\n        /* \"#utility.yul\":9802:9869   */\n      tag_71\n      jump\t// in\n    tag_180:\n        /* \"#utility.yul\":9896:9897   */\n      0x00\n        /* \"#utility.yul\":9925:9927   */\n      0x1f\n        /* \"#utility.yul\":9917:9923   */\n      dup4\n        /* \"#utility.yul\":9914:9928   */\n      gt\n        /* \"#utility.yul\":9942:9943   */\n      0x01\n        /* \"#utility.yul\":9937:10569   */\n      dup2\n      eq\n      tag_182\n      jumpi\n        /* \"#utility.yul\":10613:10614   */\n      0x00\n        /* \"#utility.yul\":10630:10636   */\n      dup5\n        /* \"#utility.yul\":10627:10711   */\n      iszero\n      tag_183\n      jumpi\n        /* \"#utility.yul\":10686:10695   */\n      dup3\n        /* \"#utility.yul\":10681:10684   */\n      dup8\n        /* \"#utility.yul\":10677:10696   */\n      add\n        /* \"#utility.yul\":10664:10697   */\n      calldataload\n        /* \"#utility.yul\":10655:10697   */\n      swap1\n      pop\n        /* \"#utility.yul\":10627:10711   */\n    tag_183:\n        /* \"#utility.yul\":10737:10804   */\n      tag_184\n        /* \"#utility.yul\":10797:10803   */\n      dup6\n        /* \"#utility.yul\":10790:10795   */\n      dup3\n        /* \"#utility.yul\":10737:10804   */\n      tag_74\n      jump\t// in\n    tag_184:\n        /* \"#utility.yul\":10731:10735   */\n      dup7\n        /* \"#utility.yul\":10724:10805   */\n      sstore\n        /* \"#utility.yul\":10586:10815   */\n      pop\n        /* \"#utility.yul\":9907:10815   */\n      jump(tag_181)\n        /* \"#utility.yul\":9937:10569   */\n    tag_182:\n        /* \"#utility.yul\":9989:9993   */\n      0x1f\n        /* \"#utility.yul\":9985:9994   */\n      not\n        /* \"#utility.yul\":9977:9983   */\n      dup5\n        /* \"#utility.yul\":9973:9995   */\n      and\n        /* \"#utility.yul\":10023:10060   */\n      tag_185\n        /* \"#utility.yul\":10055:10059   */\n      dup7\n        /* \"#utility.yul\":10023:10060   */\n      tag_60\n      jump\t// in\n    tag_185:\n        /* \"#utility.yul\":10082:10083   */\n      0x00\n        /* \"#utility.yul\":10096:10311   */\n    tag_186:\n        /* \"#utility.yul\":10110:10117   */\n      dup3\n        /* \"#utility.yul\":10107:10108   */\n      dup2\n        /* \"#utility.yul\":10104:10118   */\n      lt\n        /* \"#utility.yul\":10096:10311   */\n      iszero\n      tag_188\n      jumpi\n        /* \"#utility.yul\":10196:10205   */\n      dup5\n        /* \"#utility.yul\":10191:10194   */\n      dup10\n        /* \"#utility.yul\":10187:10206   */\n      add\n        /* \"#utility.yul\":10174:10207   */\n      calldataload\n        /* \"#utility.yul\":10166:10172   */\n      dup3\n        /* \"#utility.yul\":10159:10208   */\n      sstore\n        /* \"#utility.yul\":10247:10248   */\n      0x01\n        /* \"#utility.yul\":10239:10245   */\n      dup3\n        /* \"#utility.yul\":10235:10249   */\n      add\n        /* \"#utility.yul\":10225:10249   */\n      swap2\n      pop\n        /* \"#utility.yul\":10294:10296   */\n      0x20\n        /* \"#utility.yul\":10283:10292   */\n      dup6\n        /* \"#utility.yul\":10279:10297   */\n      add\n        /* \"#utility.yul\":10266:10297   */\n      swap5\n      pop\n        /* \"#utility.yul\":10133:10137   */\n      0x20\n        /* \"#utility.yul\":10130:10131   */\n      dup2\n        /* \"#utility.yul\":10126:10138   */\n      add\n        /* \"#utility.yul\":10121:10138   */\n      swap1\n      pop\n        /* \"#utility.yul\":10096:10311   */\n      jump(tag_186)\n    tag_188:\n        /* \"#utility.yul\":10339:10345   */\n      dup7\n        /* \"#utility.yul\":10330:10337   */\n      dup4\n        /* \"#utility.yul\":10327:10346   */\n      lt\n        /* \"#utility.yul\":10324:10510   */\n      iszero\n      tag_189\n      jumpi\n        /* \"#utility.yul\":10404:10413   */\n      dup5\n        /* \"#utility.yul\":10399:10402   */\n      dup10\n        /* \"#utility.yul\":10395:10414   */\n      add\n        /* \"#utility.yul\":10382:10415   */\n      calldataload\n        /* \"#utility.yul\":10447:10495   */\n      tag_190\n        /* \"#utility.yul\":10489:10493   */\n      0x1f\n        /* \"#utility.yul\":10481:10487   */\n      dup10\n        /* \"#utility.yul\":10477:10494   */\n      and\n        /* \"#utility.yul\":10466:10475   */\n      dup3\n        /* \"#utility.yul\":10447:10495   */\n      tag_73\n      jump\t// in\n    tag_190:\n        /* \"#utility.yul\":10439:10445   */\n      dup4\n        /* \"#utility.yul\":10432:10496   */\n      sstore\n        /* \"#utility.yul\":10347:10510   */\n      pop\n        /* \"#utility.yul\":10324:10510   */\n    tag_189:\n        /* \"#utility.yul\":10556:10557   */\n      0x01\n        /* \"#utility.yul\":10552:10553   */\n      0x02\n        /* \"#utility.yul\":10544:10550   */\n      dup9\n        /* \"#utility.yul\":10540:10554   */\n      mul\n        /* \"#utility.yul\":10536:10558   */\n      add\n        /* \"#utility.yul\":10530:10534   */\n      dup9\n        /* \"#utility.yul\":10523:10559   */\n      sstore\n        /* \"#utility.yul\":9944:10569   */\n      pop\n      pop\n      pop\n        /* \"#utility.yul\":9907:10815   */\n    tag_181:\n      pop\n        /* \"#utility.yul\":9517:10821   */\n      pop\n      pop\n      pop\n        /* \"#utility.yul\":9418:10821   */\n      pop\n      pop\n      pop\n      jump\t// out\n\n    auxdata: 0xa2646970667358221220b493c6972a7c4da805c47010d22ad53621cbae9c1bfdc2d1709aad6a4160334064736f6c63430008220033\n}\n",
				"bytecode": {
					"linkReferences": {},
					"object": "6080604052348015600e575f5ffd5b503360025f6101000a81548173ffffffffffffffffffffffffffffffffffffffff021916908373ffffffffffffffffffffffffffffffffffffffff1602179055506107df8061005c5f395ff3fe608060405234801561000f575f5ffd5b506004361061004a575f3560e01c806317679e131461004e578063329707101461006a5780638da5cb5b14610088578063b3db9f1a146100a6575b5f5ffd5b610068600480360381019061006391906102c2565b6100c4565b005b610072610170565b60405161007f919061038f565b60405180910390f35b6100906101fc565b60405161009d91906103ee565b60405180910390f35b6100ae610221565b6040516100bb9190610416565b60405180910390f35b60025f9054906101000a900473ffffffffffffffffffffffffffffffffffffffff1673ffffffffffffffffffffffffffffffffffffffff163373ffffffffffffffffffffffffffffffffffffffff1614610153576040517f08c379a000000000000000000000000000000000000000000000000000000000815260040161014a90610479565b60405180910390fd5b825f8190555081816001918261016a9291906106dc565b50505050565b6001805461017d906104fb565b80601f01602080910402602001604051908101604052809291908181526020018280546101a9906104fb565b80156101f45780601f106101cb576101008083540402835291602001916101f4565b820191905f5260205f20905b8154815290600101906020018083116101d757829003601f168201915b505050505081565b60025f9054906101000a900473ffffffffffffffffffffffffffffffffffffffff1681565b5f5481565b5f5ffd5b5f5ffd5b5f819050919050565b6102408161022e565b811461024a575f5ffd5b50565b5f8135905061025b81610237565b92915050565b5f5ffd5b5f5ffd5b5f5ffd5b5f5f83601f84011261028257610281610261565b5b8235905067ffffffffffffffff81111561029f5761029e610265565b5b6020830191508360018202830111156102bb576102ba610269565b5b9250929050565b5f5f5f604084860312156102d9576102d8610226565b5b5f6102e68682870161024d565b935050602084013567ffffffffffffffff8111156103075761030661022a565b5b6103138682870161026d565b92509250509250925092565b5f81519050919050565b5f82825260208201905092915050565b8281835e5f83830152505050565b5f601f19601f8301169050919050565b5f6103618261031f565b61036b8185610329565b935061037b818560208601610339565b61038481610347565b840191505092915050565b5f6020820190508181035f8301526103a78184610357565b905092915050565b5f73ffffffffffffffffffffffffffffffffffffffff82169050919050565b5f6103d8826103af565b9050919050565b6103e8816103ce565b82525050565b5f6020820190506104015f8301846103df565b92915050565b6104108161022e565b82525050565b5f6020820190506104295f830184610407565b92915050565b7f4e6f74206f776e657200000000000000000000000000000000000000000000005f82015250565b5f610463600983610329565b915061046e8261042f565b602082019050919050565b5f6020820190508181035f83015261049081610457565b9050919050565b5f82905092915050565b7f4e487b71000000000000000000000000000000000000000000000000000000005f52604160045260245ffd5b7f4e487b71000000000000000000000000000000000000000000000000000000005f52602260045260245ffd5b5f600282049050600182168061051257607f821691505b602082108103610525576105246104ce565b5b50919050565b5f819050815f5260205f209050919050565b5f6020601f8301049050919050565b5f82821b905092915050565b5f600883026105877fffffffffffffffffffffffffffffffffffffffffffffffffffffffffffffffff8261054c565b610591868361054c565b95508019841693508086168417925050509392505050565b5f819050919050565b5f6105cc6105c76105c28461022e565b6105a9565b61022e565b9050919050565b5f819050919050565b6105e5836105b2565b6105f96105f1826105d3565b848454610558565b825550505050565b5f5f905090565b610610610601565b61061b8184846105dc565b505050565b5f5b82811015610641576106365f828401610608565b600181019050610622565b505050565b601f8211156106945782821115610693576106608161052b565b6106698361053d565b6106728561053d565b602086101561067f575f90505b80830161068e82840382610620565b505050505b5b505050565b5f82821c905092915050565b5f6106b45f1984600802610699565b1980831691505092915050565b5f6106cc83836106a5565b9150826002028217905092915050565b6106e68383610497565b67ffffffffffffffff8111156106ff576106fe6104a1565b5b61070982546104fb565b610714828285610646565b5f601f831160018114610741575f841561072f578287013590505b61073985826106c1565b8655506107a0565b601f19841661074f8661052b565b5f5b8281101561077657848901358255600182019150602085019450602081019050610751565b86831015610793578489013561078f601f8916826106a5565b8355505b6001600288020188555050505b5050505050505056fea2646970667358221220b493c6972a7c4da805c47010d22ad53621cbae9c1bfdc2d1709aad6a4160334064736f6c63430008220033",
					"opcodes": "PUSH1 0x80 PUSH1 0x40 MSTORE CALLVALUE DUP1 ISZERO PUSH1 0xE JUMPI PUSH0 PUSH0 REVERT JUMPDEST POP CALLER PUSH1 0x2 PUSH0 PUSH2 0x100 EXP DUP2 SLOAD DUP2 PUSH20 0xFFFFFFFFFFFFFFFFFFFFFFFFFFFFFFFFFFFFFFFF MUL NOT AND SWAP1 DUP4 PUSH20 0xFFFFFFFFFFFFFFFFFFFFFFFFFFFFFFFFFFFFFFFF AND MUL OR SWAP1 SSTORE POP PUSH2 0x7DF DUP1 PUSH2 0x5C PUSH0 CODECOPY PUSH0 RETURN INVALID PUSH1 0x80 PUSH1 0x40 MSTORE CALLVALUE DUP1 ISZERO PUSH2 0xF JUMPI PUSH0 PUSH0 REVERT JUMPDEST POP PUSH1 0x4 CALLDATASIZE LT PUSH2 0x4A JUMPI PUSH0 CALLDATALOAD PUSH1 0xE0 SHR DUP1 PUSH4 0x17679E13 EQ PUSH2 0x4E JUMPI DUP1 PUSH4 0x32970710 EQ PUSH2 0x6A JUMPI DUP1 PUSH4 0x8DA5CB5B EQ PUSH2 0x88 JUMPI DUP1 PUSH4 0xB3DB9F1A EQ PUSH2 0xA6 JUMPI JUMPDEST PUSH0 PUSH0 REVERT JUMPDEST PUSH2 0x68 PUSH1 0x4 DUP1 CALLDATASIZE SUB DUP2 ADD SWAP1 PUSH2 0x63 SWAP2 SWAP1 PUSH2 0x2C2 JUMP JUMPDEST PUSH2 0xC4 JUMP JUMPDEST STOP JUMPDEST PUSH2 0x72 PUSH2 0x170 JUMP JUMPDEST PUSH1 0x40 MLOAD PUSH2 0x7F SWAP2 SWAP1 PUSH2 0x38F JUMP JUMPDEST PUSH1 0x40 MLOAD DUP1 SWAP2 SUB SWAP1 RETURN JUMPDEST PUSH2 0x90 PUSH2 0x1FC JUMP JUMPDEST PUSH1 0x40 MLOAD PUSH2 0x9D SWAP2 SWAP1 PUSH2 0x3EE JUMP JUMPDEST PUSH1 0x40 MLOAD DUP1 SWAP2 SUB SWAP1 RETURN JUMPDEST PUSH2 0xAE PUSH2 0x221 JUMP JUMPDEST PUSH1 0x40 MLOAD PUSH2 0xBB SWAP2 SWAP1 PUSH2 0x416 JUMP JUMPDEST PUSH1 0x40 MLOAD DUP1 SWAP2 SUB SWAP1 RETURN JUMPDEST PUSH1 0x2 PUSH0 SWAP1 SLOAD SWAP1 PUSH2 0x100 EXP SWAP1 DIV PUSH20 0xFFFFFFFFFFFFFFFFFFFFFFFFFFFFFFFFFFFFFFFF AND PUSH20 0xFFFFFFFFFFFFFFFFFFFFFFFFFFFFFFFFFFFFFFFF AND CALLER PUSH20 0xFFFFFFFFFFFFFFFFFFFFFFFFFFFFFFFFFFFFFFFF AND EQ PUSH2 0x153 JUMPI PUSH1 0x40 MLOAD PUSH32 0x8C379A000000000000000000000000000000000000000000000000000000000 DUP2 MSTORE PUSH1 0x4 ADD PUSH2 0x14A SWAP1 PUSH2 0x479 JUMP JUMPDEST PUSH1 0x40 MLOAD DUP1 SWAP2 SUB SWAP1 REVERT JUMPDEST DUP3 PUSH0 DUP2 SWAP1 SSTORE POP DUP2 DUP2 PUSH1 0x1 SWAP2 DUP3 PUSH2 0x16A SWAP3 SWAP2 SWAP1 PUSH2 0x6DC JUMP JUMPDEST POP POP POP POP JUMP JUMPDEST PUSH1 0x1 DUP1 SLOAD PUSH2 0x17D SWAP1 PUSH2 0x4FB JUMP JUMPDEST DUP1 PUSH1 0x1F ADD PUSH1 0x20 DUP1 SWAP2 DIV MUL PUSH1 0x20 ADD PUSH1 0x40 MLOAD SWAP1 DUP2 ADD PUSH1 0x40 MSTORE DUP1 SWAP3 SWAP2 SWAP1 DUP2 DUP2 MSTORE PUSH1 0x20 ADD DUP3 DUP1 SLOAD PUSH2 0x1A9 SWAP1 PUSH2 0x4FB JUMP JUMPDEST DUP1 ISZERO PUSH2 0x1F4 JUMPI DUP1 PUSH1 0x1F LT PUSH2 0x1CB JUMPI PUSH2 0x100 DUP1 DUP4 SLOAD DIV MUL DUP4 MSTORE SWAP2 PUSH1 0x20 ADD SWAP2 PUSH2 0x1F4 JUMP JUMPDEST DUP3 ADD SWAP2 SWAP1 PUSH0 MSTORE PUSH1 0x20 PUSH0 KECCAK256 SWAP1 JUMPDEST DUP2 SLOAD DUP2 MSTORE SWAP1 PUSH1 0x1 ADD SWAP1 PUSH1 0x20 ADD DUP1 DUP4 GT PUSH2 0x1D7 JUMPI DUP3 SWAP1 SUB PUSH1 0x1F AND DUP3 ADD SWAP2 JUMPDEST POP POP POP POP POP DUP2 JUMP JUMPDEST PUSH1 0x2 PUSH0 SWAP1 SLOAD SWAP1 PUSH2 0x100 EXP SWAP1 DIV PUSH20 0xFFFFFFFFFFFFFFFFFFFFFFFFFFFFFFFFFFFFFFFF AND DUP2 JUMP JUMPDEST PUSH0 SLOAD DUP2 JUMP JUMPDEST PUSH0 PUSH0 REVERT JUMPDEST PUSH0 PUSH0 REVERT JUMPDEST PUSH0 DUP2 SWAP1 POP SWAP2 SWAP1 POP JUMP JUMPDEST PUSH2 0x240 DUP2 PUSH2 0x22E JUMP JUMPDEST DUP2 EQ PUSH2 0x24A JUMPI PUSH0 PUSH0 REVERT JUMPDEST POP JUMP JUMPDEST PUSH0 DUP2 CALLDATALOAD SWAP1 POP PUSH2 0x25B DUP2 PUSH2 0x237 JUMP JUMPDEST SWAP3 SWAP2 POP POP JUMP JUMPDEST PUSH0 PUSH0 REVERT JUMPDEST PUSH0 PUSH0 REVERT JUMPDEST PUSH0 PUSH0 REVERT JUMPDEST PUSH0 PUSH0 DUP4 PUSH1 0x1F DUP5 ADD SLT PUSH2 0x282 JUMPI PUSH2 0x281 PUSH2 0x261 JUMP JUMPDEST JUMPDEST DUP3 CALLDATALOAD SWAP1 POP PUSH8 0xFFFFFFFFFFFFFFFF DUP2 GT ISZERO PUSH2 0x29F JUMPI PUSH2 0x29E PUSH2 0x265 JUMP JUMPDEST JUMPDEST PUSH1 0x20 DUP4 ADD SWAP2 POP DUP4 PUSH1 0x1 DUP3 MUL DUP4 ADD GT ISZERO PUSH2 0x2BB JUMPI PUSH2 0x2BA PUSH2 0x269 JUMP JUMPDEST JUMPDEST SWAP3 POP SWAP3 SWAP1 POP JUMP JUMPDEST PUSH0 PUSH0 PUSH0 PUSH1 0x40 DUP5 DUP7 SUB SLT ISZERO PUSH2 0x2D9 JUMPI PUSH2 0x2D8 PUSH2 0x226 JUMP JUMPDEST JUMPDEST PUSH0 PUSH2 0x2E6 DUP7 DUP3 DUP8 ADD PUSH2 0x24D JUMP JUMPDEST SWAP4 POP POP PUSH1 0x20 DUP5 ADD CALLDATALOAD PUSH8 0xFFFFFFFFFFFFFFFF DUP2 GT ISZERO PUSH2 0x307 JUMPI PUSH2 0x306 PUSH2 0x22A JUMP JUMPDEST JUMPDEST PUSH2 0x313 DUP7 DUP3 DUP8 ADD PUSH2 0x26D JUMP JUMPDEST SWAP3 POP SWAP3 POP POP SWAP3 POP SWAP3 POP SWAP3 JUMP JUMPDEST PUSH0 DUP2 MLOAD SWAP1 POP SWAP2 SWAP1 POP JUMP JUMPDEST PUSH0 DUP3 DUP3 MSTORE PUSH1 0x20 DUP3 ADD SWAP1 POP SWAP3 SWAP2 POP POP JUMP JUMPDEST DUP3 DUP2 DUP4 MCOPY PUSH0 DUP4 DUP4 ADD MSTORE POP POP POP JUMP JUMPDEST PUSH0 PUSH1 0x1F NOT PUSH1 0x1F DUP4 ADD AND SWAP1 POP SWAP2 SWAP1 POP JUMP JUMPDEST PUSH0 PUSH2 0x361 DUP3 PUSH2 0x31F JUMP JUMPDEST PUSH2 0x36B DUP2 DUP6 PUSH2 0x329 JUMP JUMPDEST SWAP4 POP PUSH2 0x37B DUP2 DUP6 PUSH1 0x20 DUP7 ADD PUSH2 0x339 JUMP JUMPDEST PUSH2 0x384 DUP2 PUSH2 0x347 JUMP JUMPDEST DUP5 ADD SWAP2 POP POP SWAP3 SWAP2 POP POP JUMP JUMPDEST PUSH0 PUSH1 0x20 DUP3 ADD SWAP1 POP DUP2 DUP2 SUB PUSH0 DUP4 ADD MSTORE PUSH2 0x3A7 DUP2 DUP5 PUSH2 0x357 JUMP JUMPDEST SWAP1 POP SWAP3 SWAP2 POP POP JUMP JUMPDEST PUSH0 PUSH20 0xFFFFFFFFFFFFFFFFFFFFFFFFFFFFFFFFFFFFFFFF DUP3 AND SWAP1 POP SWAP2 SWAP1 POP JUMP JUMPDEST PUSH0 PUSH2 0x3D8 DUP3 PUSH2 0x3AF JUMP JUMPDEST SWAP1 POP SWAP2 SWAP1 POP JUMP JUMPDEST PUSH2 0x3E8 DUP2 PUSH2 0x3CE JUMP JUMPDEST DUP3 MSTORE POP POP JUMP JUMPDEST PUSH0 PUSH1 0x20 DUP3 ADD SWAP1 POP PUSH2 0x401 PUSH0 DUP4 ADD DUP5 PUSH2 0x3DF JUMP JUMPDEST SWAP3 SWAP2 POP POP JUMP JUMPDEST PUSH2 0x410 DUP2 PUSH2 0x22E JUMP JUMPDEST DUP3 MSTORE POP POP JUMP JUMPDEST PUSH0 PUSH1 0x20 DUP3 ADD SWAP1 POP PUSH2 0x429 PUSH0 DUP4 ADD DUP5 PUSH2 0x407 JUMP JUMPDEST SWAP3 SWAP2 POP POP JUMP JUMPDEST PUSH32 0x4E6F74206F776E65720000000000000000000000000000000000000000000000 PUSH0 DUP3 ADD MSTORE POP JUMP JUMPDEST PUSH0 PUSH2 0x463 PUSH1 0x9 DUP4 PUSH2 0x329 JUMP JUMPDEST SWAP2 POP PUSH2 0x46E DUP3 PUSH2 0x42F JUMP JUMPDEST PUSH1 0x20 DUP3 ADD SWAP1 POP SWAP2 SWAP1 POP JUMP JUMPDEST PUSH0 PUSH1 0x20 DUP3 ADD SWAP1 POP DUP2 DUP2 SUB PUSH0 DUP4 ADD MSTORE PUSH2 0x490 DUP2 PUSH2 0x457 JUMP JUMPDEST SWAP1 POP SWAP2 SWAP1 POP JUMP JUMPDEST PUSH0 DUP3 SWAP1 POP SWAP3 SWAP2 POP POP JUMP JUMPDEST PUSH32 0x4E487B7100000000000000000000000000000000000000000000000000000000 PUSH0 MSTORE PUSH1 0x41 PUSH1 0x4 MSTORE PUSH1 0x24 PUSH0 REVERT JUMPDEST PUSH32 0x4E487B7100000000000000000000000000000000000000000000000000000000 PUSH0 MSTORE PUSH1 0x22 PUSH1 0x4 MSTORE PUSH1 0x24 PUSH0 REVERT JUMPDEST PUSH0 PUSH1 0x2 DUP3 DIV SWAP1 POP PUSH1 0x1 DUP3 AND DUP1 PUSH2 0x512 JUMPI PUSH1 0x7F DUP3 AND SWAP2 POP JUMPDEST PUSH1 0x20 DUP3 LT DUP2 SUB PUSH2 0x525 JUMPI PUSH2 0x524 PUSH2 0x4CE JUMP JUMPDEST JUMPDEST POP SWAP2 SWAP1 POP JUMP JUMPDEST PUSH0 DUP2 SWAP1 POP DUP2 PUSH0 MSTORE PUSH1 0x20 PUSH0 KECCAK256 SWAP1 POP SWAP2 SWAP1 POP JUMP JUMPDEST PUSH0 PUSH1 0x20 PUSH1 0x1F DUP4 ADD DIV SWAP1 POP SWAP2 SWAP1 POP JUMP JUMPDEST PUSH0 DUP3 DUP3 SHL SWAP1 POP SWAP3 SWAP2 POP POP JUMP JUMPDEST PUSH0 PUSH1 0x8 DUP4 MUL PUSH2 0x587 PUSH32 0xFFFFFFFFFFFFFFFFFFFFFFFFFFFFFFFFFFFFFFFFFFFFFFFFFFFFFFFFFFFFFFFF DUP3 PUSH2 0x54C JUMP JUMPDEST PUSH2 0x591 DUP7 DUP4 PUSH2 0x54C JUMP JUMPDEST SWAP6 POP DUP1 NOT DUP5 AND SWAP4 POP DUP1 DUP7 AND DUP5 OR SWAP3 POP POP POP SWAP4 SWAP3 POP POP POP JUMP JUMPDEST PUSH0 DUP2 SWAP1 POP SWAP2 SWAP1 POP JUMP JUMPDEST PUSH0 PUSH2 0x5CC PUSH2 0x5C7 PUSH2 0x5C2 DUP5 PUSH2 0x22E JUMP JUMPDEST PUSH2 0x5A9 JUMP JUMPDEST PUSH2 0x22E JUMP JUMPDEST SWAP1 POP SWAP2 SWAP1 POP JUMP JUMPDEST PUSH0 DUP2 SWAP1 POP SWAP2 SWAP1 POP JUMP JUMPDEST PUSH2 0x5E5 DUP4 PUSH2 0x5B2 JUMP JUMPDEST PUSH2 0x5F9 PUSH2 0x5F1 DUP3 PUSH2 0x5D3 JUMP JUMPDEST DUP5 DUP5 SLOAD PUSH2 0x558 JUMP JUMPDEST DUP3 SSTORE POP POP POP POP JUMP JUMPDEST PUSH0 PUSH0 SWAP1 POP SWAP1 JUMP JUMPDEST PUSH2 0x610 PUSH2 0x601 JUMP JUMPDEST PUSH2 0x61B DUP2 DUP5 DUP5 PUSH2 0x5DC JUMP JUMPDEST POP POP POP JUMP JUMPDEST PUSH0 JUMPDEST DUP3 DUP2 LT ISZERO PUSH2 0x641 JUMPI PUSH2 0x636 PUSH0 DUP3 DUP5 ADD PUSH2 0x608 JUMP JUMPDEST PUSH1 0x1 DUP2 ADD SWAP1 POP PUSH2 0x622 JUMP JUMPDEST POP POP POP JUMP JUMPDEST PUSH1 0x1F DUP3 GT ISZERO PUSH2 0x694 JUMPI DUP3 DUP3 GT ISZERO PUSH2 0x693 JUMPI PUSH2 0x660 DUP2 PUSH2 0x52B JUMP JUMPDEST PUSH2 0x669 DUP4 PUSH2 0x53D JUMP JUMPDEST PUSH2 0x672 DUP6 PUSH2 0x53D JUMP JUMPDEST PUSH1 0x20 DUP7 LT ISZERO PUSH2 0x67F JUMPI PUSH0 SWAP1 POP JUMPDEST DUP1 DUP4 ADD PUSH2 0x68E DUP3 DUP5 SUB DUP3 PUSH2 0x620 JUMP JUMPDEST POP POP POP POP JUMPDEST JUMPDEST POP POP POP JUMP JUMPDEST PUSH0 DUP3 DUP3 SHR SWAP1 POP SWAP3 SWAP2 POP POP JUMP JUMPDEST PUSH0 PUSH2 0x6B4 PUSH0 NOT DUP5 PUSH1 0x8 MUL PUSH2 0x699 JUMP JUMPDEST NOT DUP1 DUP4 AND SWAP2 POP POP SWAP3 SWAP2 POP POP JUMP JUMPDEST PUSH0 PUSH2 0x6CC DUP4 DUP4 PUSH2 0x6A5 JUMP JUMPDEST SWAP2 POP DUP3 PUSH1 0x2 MUL DUP3 OR SWAP1 POP SWAP3 SWAP2 POP POP JUMP JUMPDEST PUSH2 0x6E6 DUP4 DUP4 PUSH2 0x497 JUMP JUMPDEST PUSH8 0xFFFFFFFFFFFFFFFF DUP2 GT ISZERO PUSH2 0x6FF JUMPI PUSH2 0x6FE PUSH2 0x4A1 JUMP JUMPDEST JUMPDEST PUSH2 0x709 DUP3 SLOAD PUSH2 0x4FB JUMP JUMPDEST PUSH2 0x714 DUP3 DUP3 DUP6 PUSH2 0x646 JUMP JUMPDEST PUSH0 PUSH1 0x1F DUP4 GT PUSH1 0x1 DUP2 EQ PUSH2 0x741 JUMPI PUSH0 DUP5 ISZERO PUSH2 0x72F JUMPI DUP3 DUP8 ADD CALLDATALOAD SWAP1 POP JUMPDEST PUSH2 0x739 DUP6 DUP3 PUSH2 0x6C1 JUMP JUMPDEST DUP7 SSTORE POP PUSH2 0x7A0 JUMP JUMPDEST PUSH1 0x1F NOT DUP5 AND PUSH2 0x74F DUP7 PUSH2 0x52B JUMP JUMPDEST PUSH0 JUMPDEST DUP3 DUP2 LT ISZERO PUSH2 0x776 JUMPI DUP5 DUP10 ADD CALLDATALOAD DUP3 SSTORE PUSH1 0x1 DUP3 ADD SWAP2 POP PUSH1 0x20 DUP6 ADD SWAP5 POP PUSH1 0x20 DUP2 ADD SWAP1 POP PUSH2 0x751 JUMP JUMPDEST DUP7 DUP4 LT ISZERO PUSH2 0x793 JUMPI DUP5 DUP10 ADD CALLDATALOAD PUSH2 0x78F PUSH1 0x1F DUP10 AND DUP3 PUSH2 0x6A5 JUMP JUMPDEST DUP4 SSTORE POP JUMPDEST PUSH1 0x1 PUSH1 0x2 DUP9 MUL ADD DUP9 SSTORE POP POP POP JUMPDEST POP POP POP POP POP POP POP JUMP INVALID LOG2 PUSH5 0x6970667358 0x22 SLT KECCAK256 0xB4 SWAP4 0xC6 SWAP8 0x2A PUSH29 0x4DA805C47010D22AD53621CBAE9C1BFDC2D1709AAD6A4160334064736F PUSH13 0x63430008220033000000000000 "
				},
				"gasEstimates": {
					"creation": {
						"codeDepositCost": "403000",
						"executionCost": "24699",
						"totalCost": "427699"
					},
					"external": {
						"lastMessage()": "infinite",
						"lastNumber()": "2468",
						"owner()": "2530",
						"saveInput(uint256,string)": "infinite"
					}
				},
				"methodIdentifiers": {
					"lastMessage()": "32970710",
					"lastNumber()": "b3db9f1a",
					"owner()": "8da5cb5b",
					"saveInput(uint256,string)": "17679e13"
				}
			},
			"storageLayout": {
				"storage": [
					{
						"astId": 24,
						"contract": "prac28.sol:ReadCalldataValuesPatched",
						"label": "lastNumber",
						"offset": 0,
						"slot": "0",
						"type": "t_uint256"
					},
					{
						"astId": 26,
						"contract": "prac28.sol:ReadCalldataValuesPatched",
						"label": "lastMessage",
						"offset": 0,
						"slot": "1",
						"type": "t_string_storage"
					},
					{
						"astId": 28,
						"contract": "prac28.sol:ReadCalldataValuesPatched",
						"label": "owner",
						"offset": 0,
						"slot": "2",
						"type": "t_address"
					}
				],
				"types": {
					"t_address": {
						"encoding": "inplace",
						"label": "address",
						"numberOfBytes": "20"
					},
					"t_string_storage": {
						"encoding": "bytes",
						"label": "string",
						"numberOfBytes": "32"
					},
					"t_uint256": {
						"encoding": "inplace",
						"label": "uint256",
						"numberOfBytes": "32"
					}
				}
			},
			"userdoc": {
				"kind": "user",
				"methods": {},
				"version": 1
			}
		}
	}
}