{
	"prac28.sol": {
		"ReadCalldataValuesVul": {
			"abi": [
				{
					"inputs": [],
					"name": "lastMessage",
					"outputs": [
						{
							"internalType": "string",
							"name": "",
							"type": "string"
						}
					],
					"stateMutability": "view",
					"type": "function"
				},
				{
					"inputs": [],
					"name": "lastNumber",
					"outputs": [
						{
							"internalType": "uint256",
							"name": "",
							"type": "uint256"
						}
					],
					"stateMutability": "view",
					"type": "function"
				},
				{
					"inputs": [
						{
							"internalType": "uint256",
							"name": "_number",
							"type": "uint256"
						},
						{
							"internalType": "string",
							"name": "_message",
							"type": "string"
						}
					],
					"name": "saveInput",
					"outputs": [],
					"stateMutability": "nonpayable",
					"type": "function"
				}
			],
			"devdoc": {
				"kind": "dev",
				"methods": {},
				"version": 1
			},
			"evm": {
				"assembly": "    /* \"prac28.sol\":1847:2179  contract ReadCalldataValuesVul {... */\n  mstore(0x40, 0x80)\n  callvalue\n  dup1\n  iszero\n  tag_1\n  jumpi\n  revert(0x00, 0x00)\ntag_1:\n  pop\n  dataSize(sub_0)\n  dup1\n  dataOffset(sub_0)\n  0x00\n  codecopy\n  0x00\n  return\nstop\n\nsub_0: assembly {\n        /* \"prac28.sol\":1847:2179  contract ReadCalldataValuesVul {... */\n      mstore(0x40, 0x80)\n      callvalue\n      dup1\n      iszero\n      tag_1\n      jumpi\n      revert(0x00, 0x00)\n    tag_1:\n      pop\n      jumpi(tag_2, lt(calldatasize, 0x04))\n      shr(0xe0, calldataload(0x00))\n      dup1\n      0x17679e13\n      eq\n      tag_3\n      jumpi\n      dup1\n      0x32970710\n      eq\n      tag_4\n      jumpi\n      dup1\n      0xb3db9f1a\n      eq\n      tag_5\n      jumpi\n    tag_2:\n      revert(0x00, 0x00)\n        /* \"prac28.sol\":1953:2176  function saveInput(... */\n    tag_3:\n      tag_6\n      0x04\n      dup1\n      calldatasize\n      sub\n      dup2\n      add\n      swap1\n      tag_7\n      swap2\n      swap1\n      tag_8\n      jump\t// in\n    tag_7:\n      tag_9\n      jump\t// in\n    tag_6:\n      stop\n        /* \"prac28.sol\":1919:1944  string public lastMessage */\n    tag_4:\n      tag_10\n      tag_11\n      jump\t// in\n    tag_10:\n      mload(0x40)\n      tag_12\n      swap2\n      swap1\n      tag_13\n      jump\t// in\n    tag_12:\n      mload(0x40)\n      dup1\n      swap2\n      sub\n      swap1\n      return\n        /* \"prac28.sol\":1887:1912  uint256 public lastNumber */\n    tag_5:\n      tag_14\n      tag_15\n      jump\t// in\n    tag_14:\n      mload(0x40)\n      tag_16\n      swap2\n      swap1\n      tag_17\n      jump\t// in\n    tag_16:\n      mload(0x40)\n      dup1\n      swap2\n      sub\n      swap1\n      return\n        /* \"prac28.sol\":1953:2176  function saveInput(... */\n    tag_9:\n        /* \"prac28.sol\":2128:2135  _number */\n      dup3\n        /* \"prac28.sol\":2115:2125  lastNumber */\n      0x00\n        /* \"prac28.sol\":2115:2135  lastNumber = _number */\n      dup2\n      swap1\n      sstore\n      pop\n        /* \"prac28.sol\":2160:2168  _message */\n      dup2\n      dup2\n        /* \"prac28.sol\":2146:2157  lastMessage */\n      0x01\n        /* \"prac28.sol\":2146:2168  lastMessage = _message */\n      swap2\n      dup3\n      tag_19\n      swap3\n      swap2\n      swap1\n      tag_20\n      jump\t// in\n    tag_19:\n      pop\n        /* \"prac28.sol\":1953:2176  function saveInput(... */\n      pop\n      pop\n      pop\n      jump\t// out\n        /* \"prac28.sol\":1919:1944  string public lastMessage */\n    tag_11:\n      0x01\n      dup1\n      sload\n      tag_21\n      swap1\n      tag_22\n      jump\t// in\n    tag_21:\n      dup1\n      0x1f\n      add\n      0x20\n      dup1\n      swap2\n      div\n      mul\n      0x20\n      add\n      mload(0x40)\n      swap1\n      dup2\n      add\n      0x40\n      mstore\n      dup1\n      swap3\n      swap2\n      swap1\n      dup2\n      dup2\n      mstore\n      0x20\n      add\n      dup3\n      dup1\n      sload\n      tag_23\n      swap1\n      tag_22\n      jump\t// in\n    tag_23:\n      dup1\n      iszero\n      tag_24\n      jumpi\n      dup1\n      0x1f\n      lt\n      tag_25\n      jumpi\n      0x0100\n      dup1\n      dup4\n      sload\n      div\n      mul\n      dup4\n      mstore\n      swap2\n      0x20\n      add\n      swap2\n      jump(tag_24)\n    tag_25:\n      dup3\n      add\n      swap2\n      swap1\n      0x00\n      mstore\n      keccak256(0x00, 0x20)\n      swap1\n    tag_26:\n      dup2\n      sload\n      dup2\n      mstore\n      swap1\n      0x01\n      add\n      swap1\n      0x20\n      add\n      dup1\n      dup4\n      gt\n      tag_26\n      jumpi\n      dup3\n      swap1\n      sub\n      0x1f\n      and\n      dup3\n      add\n      swap2\n    tag_24:\n      pop\n      pop\n      pop\n      pop\n      pop\n      dup2\n      jump\t// out\n        /* \"prac28.sol\":1887:1912  uint256 public lastNumber */\n    tag_15:\n      sload(0x00)\n      dup2\n      jump\t// out\n        /* \"#utility.yul\":88:205   */\n    tag_28:\n        /* \"#utility.yul\":197:198   */\n      0x00\n        /* \"#utility.yul\":194:195   */\n      0x00\n        /* \"#utility.yul\":187:199   */\n      revert\n        /* \"#utility.yul\":211:328   */\n    tag_29:\n        /* \"#utility.yul\":320:321   */\n      0x00\n        /* \"#utility.yul\":317:318   */\n      0x00\n        /* \"#utility.yul\":310:322   */\n      revert\n        /* \"#utility.yul\":334:411   */\n    tag_30:\n        /* \"#utility.yul\":371:378   */\n      0x00\n        /* \"#utility.yul\":400:405   */\n      dup2\n        /* \"#utility.yul\":389:405   */\n      swap1\n      pop\n        /* \"#utility.yul\":334:411   */\n      swap2\n      swap1\n      pop\n      jump\t// out\n        /* \"#utility.yul\":417:539   */\n    tag_31:\n        /* \"#utility.yul\":490:514   */\n      tag_67\n        /* \"#utility.yul\":508:513   */\n      dup2\n        /* \"#utility.yul\":490:514   */\n      tag_30\n      jump\t// in\n    tag_67:\n        /* \"#utility.yul\":483:488   */\n      dup2\n        /* \"#utility.yul\":480:515   */\n      eq\n        /* \"#utility.yul\":470:533   */\n      tag_68\n      jumpi\n        /* \"#utility.yul\":529:530   */\n      0x00\n        /* \"#utility.yul\":526:527   */\n      0x00\n        /* \"#utility.yul\":519:531   */\n      revert\n        /* \"#utility.yul\":470:533   */\n    tag_68:\n        /* \"#utility.yul\":417:539   */\n      pop\n      jump\t// out\n        /* \"#utility.yul\":545:684   */\n    tag_32:\n        /* \"#utility.yul\":591:596   */\n      0x00\n        /* \"#utility.yul\":629:635   */\n      dup2\n        /* \"#utility.yul\":616:636   */\n      calldataload\n        /* \"#utility.yul\":607:636   */\n      swap1\n      pop\n        /* \"#utility.yul\":645:678   */\n      tag_70\n        /* \"#utility.yul\":672:677   */\n      dup2\n        /* \"#utility.yul\":645:678   */\n      tag_31\n      jump\t// in\n    tag_70:\n        /* \"#utility.yul\":545:684   */\n      swap3\n      swap2\n      pop\n      pop\n      jump\t// out\n        /* \"#utility.yul\":690:807   */\n    tag_33:\n        /* \"#utility.yul\":799:800   */\n      0x00\n        /* \"#utility.yul\":796:797   */\n      0x00\n        /* \"#utility.yul\":789:801   */\n      revert\n        /* \"#utility.yul\":813:930   */\n    tag_34:\n        /* \"#utility.yul\":922:923   */\n      0x00\n        /* \"#utility.yul\":919:920   */\n      0x00\n        /* \"#utility.yul\":912:924   */\n      revert\n        /* \"#utility.yul\":936:1053   */\n    tag_35:\n        /* \"#utility.yul\":1045:1046   */\n      0x00\n        /* \"#utility.yul\":1042:1043   */\n      0x00\n        /* \"#utility.yul\":1035:1047   */\n      revert\n        /* \"#utility.yul\":1073:1626   */\n    tag_36:\n        /* \"#utility.yul\":1131:1139   */\n      0x00\n        /* \"#utility.yul\":1141:1147   */\n      0x00\n        /* \"#utility.yul\":1191:1194   */\n      dup4\n        /* \"#utility.yul\":1184:1188   */\n      0x1f\n        /* \"#utility.yul\":1176:1182   */\n      dup5\n        /* \"#utility.yul\":1172:1189   */\n      add\n        /* \"#utility.yul\":1168:1195   */\n      slt\n        /* \"#utility.yul\":1158:1280   */\n      tag_75\n      jumpi\n        /* \"#utility.yul\":1199:1278   */\n      tag_76\n      tag_33\n      jump\t// in\n    tag_76:\n        /* \"#utility.yul\":1158:1280   */\n    tag_75:\n        /* \"#utility.yul\":1312:1318   */\n      dup3\n        /* \"#utility.yul\":1299:1319   */\n      calldataload\n        /* \"#utility.yul\":1289:1319   */\n      swap1\n      pop\n        /* \"#utility.yul\":1342:1360   */\n      0xffffffffffffffff\n        /* \"#utility.yul\":1334:1340   */\n      dup2\n        /* \"#utility.yul\":1331:1361   */\n      gt\n        /* \"#utility.yul\":1328:1445   */\n      iszero\n      tag_77\n      jumpi\n        /* \"#utility.yul\":1364:1443   */\n      tag_78\n      tag_34\n      jump\t// in\n    tag_78:\n        /* \"#utility.yul\":1328:1445   */\n    tag_77:\n        /* \"#utility.yul\":1478:1482   */\n      0x20\n        /* \"#utility.yul\":1470:1476   */\n      dup4\n        /* \"#utility.yul\":1466:1483   */\n      add\n        /* \"#utility.yul\":1454:1483   */\n      swap2\n      pop\n        /* \"#utility.yul\":1532:1535   */\n      dup4\n        /* \"#utility.yul\":1524:1528   */\n      0x01\n        /* \"#utility.yul\":1516:1522   */\n      dup3\n        /* \"#utility.yul\":1512:1529   */\n      mul\n        /* \"#utility.yul\":1502:1510   */\n      dup4\n        /* \"#utility.yul\":1498:1530   */\n      add\n        /* \"#utility.yul\":1495:1536   */\n      gt\n        /* \"#utility.yul\":1492:1620   */\n      iszero\n      tag_79\n      jumpi\n        /* \"#utility.yul\":1539:1618   */\n      tag_80\n      tag_35\n      jump\t// in\n    tag_80:\n        /* \"#utility.yul\":1492:1620   */\n    tag_79:\n        /* \"#utility.yul\":1073:1626   */\n      swap3\n      pop\n      swap3\n      swap1\n      pop\n      jump\t// out\n        /* \"#utility.yul\":1632:2306   */\n    tag_8:\n        /* \"#utility.yul\":1712:1718   */\n      0x00\n        /* \"#utility.yul\":1720:1726   */\n      0x00\n        /* \"#utility.yul\":1728:1734   */\n      0x00\n        /* \"#utility.yul\":1777:1779   */\n      0x40\n        /* \"#utility.yul\":1765:1774   */\n      dup5\n        /* \"#utility.yul\":1756:1763   */\n      dup7\n        /* \"#utility.yul\":1752:1775   */\n      sub\n        /* \"#utility.yul\":1748:1780   */\n      slt\n        /* \"#utility.yul\":1745:1864   */\n      iszero\n      tag_82\n      jumpi\n        /* \"#utility.yul\":1783:1862   */\n      tag_83\n      tag_28\n      jump\t// in\n    tag_83:\n        /* \"#utility.yul\":1745:1864   */\n    tag_82:\n        /* \"#utility.yul\":1903:1904   */\n      0x00\n        /* \"#utility.yul\":1928:1981   */\n      tag_84\n        /* \"#utility.yul\":1973:1980   */\n      dup7\n        /* \"#utility.yul\":1964:1970   */\n      dup3\n        /* \"#utility.yul\":1953:1962   */\n      dup8\n        /* \"#utility.yul\":1949:1971   */\n      add\n        /* \"#utility.yul\":1928:1981   */\n      tag_32\n      jump\t// in\n    tag_84:\n        /* \"#utility.yul\":1918:1981   */\n      swap4\n      pop\n        /* \"#utility.yul\":1874:1991   */\n      pop\n        /* \"#utility.yul\":2058:2060   */\n      0x20\n        /* \"#utility.yul\":2047:2056   */\n      dup5\n        /* \"#utility.yul\":2043:2061   */\n      add\n        /* \"#utility.yul\":2030:2062   */\n      calldataload\n        /* \"#utility.yul\":2089:2107   */\n      0xffffffffffffffff\n        /* \"#utility.yul\":2081:2087   */\n      dup2\n        /* \"#utility.yul\":2078:2108   */\n      gt\n        /* \"#utility.yul\":2075:2192   */\n      iszero\n      tag_85\n      jumpi\n        /* \"#utility.yul\":2111:2190   */\n      tag_86\n      tag_29\n      jump\t// in\n    tag_86:\n        /* \"#utility.yul\":2075:2192   */\n    tag_85:\n        /* \"#utility.yul\":2224:2289   */\n      tag_87\n        /* \"#utility.yul\":2281:2288   */\n      dup7\n        /* \"#utility.yul\":2272:2278   */\n      dup3\n        /* \"#utility.yul\":2261:2270   */\n      dup8\n        /* \"#utility.yul\":2257:2279   */\n      add\n        /* \"#utility.yul\":2224:2289   */\n      tag_36\n      jump\t// in\n    tag_87:\n        /* \"#utility.yul\":2206:2289   */\n      swap3\n      pop\n      swap3\n      pop\n        /* \"#utility.yul\":2001:2299   */\n      pop\n        /* \"#utility.yul\":1632:2306   */\n      swap3\n      pop\n      swap3\n      pop\n      swap3\n      jump\t// out\n        /* \"#utility.yul\":2312:2411   */\n    tag_37:\n        /* \"#utility.yul\":2364:2370   */\n      0x00\n        /* \"#utility.yul\":2398:2403   */\n      dup2\n        /* \"#utility.yul\":2392:2404   */\n      mload\n        /* \"#utility.yul\":2382:2404   */\n      swap1\n      pop\n        /* \"#utility.yul\":2312:2411   */\n      swap2\n      swap1\n      pop\n      jump\t// out\n        /* \"#utility.yul\":2417:2586   */\n    tag_38:\n        /* \"#utility.yul\":2501:2512   */\n      0x00\n        /* \"#utility.yul\":2535:2541   */\n      dup3\n        /* \"#utility.yul\":2530:2533   */\n      dup3\n        /* \"#utility.yul\":2523:2542   */\n      mstore\n        /* \"#utility.yul\":2575:2579   */\n      0x20\n        /* \"#utility.yul\":2570:2573   */\n      dup3\n        /* \"#utility.yul\":2566:2580   */\n      add\n        /* \"#utility.yul\":2551:2580   */\n      swap1\n      pop\n        /* \"#utility.yul\":2417:2586   */\n      swap3\n      swap2\n      pop\n      pop\n      jump\t// out\n        /* \"#utility.yul\":2592:2731   */\n    tag_39:\n        /* \"#utility.yul\":2681:2687   */\n      dup3\n        /* \"#utility.yul\":2676:2679   */\n      dup2\n        /* \"#utility.yul\":2671:2674   */\n      dup4\n        /* \"#utility.yul\":2665:2688   */\n      mcopy\n        /* \"#utility.yul\":2722:2723   */\n      0x00\n        /* \"#utility.yul\":2713:2719   */\n      dup4\n        /* \"#utility.yul\":2708:2711   */\n      dup4\n        /* \"#utility.yul\":2704:2720   */\n      add\n        /* \"#utility.yul\":2697:2724   */\n      mstore\n        /* \"#utility.yul\":2592:2731   */\n      pop\n      pop\n      pop\n      jump\t// out\n        /* \"#utility.yul\":2737:2839   */\n    tag_40:\n        /* \"#utility.yul\":2778:2784   */\n      0x00\n        /* \"#utility.yul\":2829:2831   */\n      0x1f\n        /* \"#utility.yul\":2825:2832   */\n      not\n        /* \"#utility.yul\":2820:2822   */\n      0x1f\n        /* \"#utility.yul\":2813:2818   */\n      dup4\n        /* \"#utility.yul\":2809:2823   */\n      add\n        /* \"#utility.yul\":2805:2833   */\n      and\n        /* \"#utility.yul\":2795:2833   */\n      swap1\n      pop\n        /* \"#utility.yul\":2737:2839   */\n      swap2\n      swap1\n      pop\n      jump\t// out\n        /* \"#utility.yul\":2845:3222   */\n    tag_41:\n        /* \"#utility.yul\":2933:2936   */\n      0x00\n        /* \"#utility.yul\":2961:3000   */\n      tag_93\n        /* \"#utility.yul\":2994:2999   */\n      dup3\n        /* \"#utility.yul\":2961:3000   */\n      tag_37\n      jump\t// in\n    tag_93:\n        /* \"#utility.yul\":3016:3087   */\n      tag_94\n        /* \"#utility.yul\":3080:3086   */\n      dup2\n        /* \"#utility.yul\":3075:3078   */\n      dup6\n        /* \"#utility.yul\":3016:3087   */\n      tag_38\n      jump\t// in\n    tag_94:\n        /* \"#utility.yul\":3009:3087   */\n      swap4\n      pop\n        /* \"#utility.yul\":3096:3161   */\n      tag_95\n        /* \"#utility.yul\":3154:3160   */\n      dup2\n        /* \"#utility.yul\":3149:3152   */\n      dup6\n        /* \"#utility.yul\":3142:3146   */\n      0x20\n        /* \"#utility.yul\":3135:3140   */\n      dup7\n        /* \"#utility.yul\":3131:3147   */\n      add\n        /* \"#utility.yul\":3096:3161   */\n      tag_39\n      jump\t// in\n    tag_95:\n        /* \"#utility.yul\":3186:3215   */\n      tag_96\n        /* \"#utility.yul\":3208:3214   */\n      dup2\n        /* \"#utility.yul\":3186:3215   */\n      tag_40\n      jump\t// in\n    tag_96:\n        /* \"#utility.yul\":3181:3184   */\n      dup5\n        /* \"#utility.yul\":3177:3216   */\n      add\n        /* \"#utility.yul\":3170:3216   */\n      swap2\n      pop\n        /* \"#utility.yul\":2937:3222   */\n      pop\n        /* \"#utility.yul\":2845:3222   */\n      swap3\n      swap2\n      pop\n      pop\n      jump\t// out\n        /* \"#utility.yul\":3228:3541   */\n    tag_13:\n        /* \"#utility.yul\":3341:3345   */\n      0x00\n        /* \"#utility.yul\":3379:3381   */\n      0x20\n        /* \"#utility.yul\":3368:3377   */\n      dup3\n        /* \"#utility.yul\":3364:3382   */\n      add\n        /* \"#utility.yul\":3356:3382   */\n      swap1\n      pop\n        /* \"#utility.yul\":3428:3437   */\n      dup2\n        /* \"#utility.yul\":3422:3426   */\n      dup2\n        /* \"#utility.yul\":3418:3438   */\n      sub\n        /* \"#utility.yul\":3414:3415   */\n      0x00\n        /* \"#utility.yul\":3403:3412   */\n      dup4\n        /* \"#utility.yul\":3399:3416   */\n      add\n        /* \"#utility.yul\":3392:3439   */\n      mstore\n        /* \"#utility.yul\":3456:3534   */\n      tag_98\n        /* \"#utility.yul\":3529:3533   */\n      dup2\n        /* \"#utility.yul\":3520:3526   */\n      dup5\n        /* \"#utility.yul\":3456:3534   */\n      tag_41\n      jump\t// in\n    tag_98:\n        /* \"#utility.yul\":3448:3534   */\n      swap1\n      pop\n        /* \"#utility.yul\":3228:3541   */\n      swap3\n      swap2\n      pop\n      pop\n      jump\t// out\n        /* \"#utility.yul\":3547:3665   */\n    tag_42:\n        /* \"#utility.yul\":3634:3658   */\n      tag_100\n        /* \"#utility.yul\":3652:3657   */\n      dup2\n        /* \"#utility.yul\":3634:3658   */\n      tag_30\n      jump\t// in\n    tag_100:\n        /* \"#utility.yul\":3629:3632   */\n      dup3\n        /* \"#utility.yul\":3622:3659   */\n      mstore\n        /* \"#utility.yul\":3547:3665   */\n      pop\n      pop\n      jump\t// out\n        /* \"#utility.yul\":3671:3893   */\n    tag_17:\n        /* \"#utility.yul\":3764:3768   */\n      0x00\n        /* \"#utility.yul\":3802:3804   */\n      0x20\n        /* \"#utility.yul\":3791:3800   */\n      dup3\n        /* \"#utility.yul\":3787:3805   */\n      add\n        /* \"#utility.yul\":3779:3805   */\n      swap1\n      pop\n        /* \"#utility.yul\":3815:3886   */\n      tag_102\n        /* \"#utility.yul\":3883:3884   */\n      0x00\n        /* \"#utility.yul\":3872:3881   */\n      dup4\n        /* \"#utility.yul\":3868:3885   */\n      add\n        /* \"#utility.yul\":3859:3865   */\n      dup5\n        /* \"#utility.yul\":3815:3886   */\n      tag_42\n      jump\t// in\n    tag_102:\n        /* \"#utility.yul\":3671:3893   */\n      swap3\n      swap2\n      pop\n      pop\n      jump\t// out\n        /* \"#utility.yul\":3899:3996   */\n    tag_43:\n        /* \"#utility.yul\":3958:3964   */\n      0x00\n        /* \"#utility.yul\":3986:3989   */\n      dup3\n        /* \"#utility.yul\":3976:3989   */\n      swap1\n      pop\n        /* \"#utility.yul\":3899:3996   */\n      swap3\n      swap2\n      pop\n      pop\n      jump\t// out\n        /* \"#utility.yul\":4002:4182   */\n    tag_44:\n        /* \"#utility.yul\":4050:4127   */\n      0x4e487b7100000000000000000000000000000000000000000000000000000000\n        /* \"#utility.yul\":4047:4048   */\n      0x00\n        /* \"#utility.yul\":4040:4128   */\n      mstore\n        /* \"#utility.yul\":4147:4151   */\n      0x41\n        /* \"#utility.yul\":4144:4145   */\n      0x04\n        /* \"#utility.yul\":4137:4152   */\n      mstore\n        /* \"#utility.yul\":4171:4175   */\n      0x24\n        /* \"#utility.yul\":4168:4169   */\n      0x00\n        /* \"#utility.yul\":4161:4176   */\n      revert\n        /* \"#utility.yul\":4188:4368   */\n    tag_45:\n        /* \"#utility.yul\":4236:4313   */\n      0x4e487b7100000000000000000000000000000000000000000000000000000000\n        /* \"#utility.yul\":4233:4234   */\n      0x00\n        /* \"#utility.yul\":4226:4314   */\n      mstore\n        /* \"#utility.yul\":4333:4337   */\n      0x22\n        /* \"#utility.yul\":4330:4331   */\n      0x04\n        /* \"#utility.yul\":4323:4338   */\n      mstore\n        /* \"#utility.yul\":4357:4361   */\n      0x24\n        /* \"#utility.yul\":4354:4355   */\n      0x00\n        /* \"#utility.yul\":4347:4362   */\n      revert\n        /* \"#utility.yul\":4374:4694   */\n    tag_22:\n        /* \"#utility.yul\":4418:4424   */\n      0x00\n        /* \"#utility.yul\":4455:4456   */\n      0x02\n        /* \"#utility.yul\":4449:4453   */\n      dup3\n        /* \"#utility.yul\":4445:4457   */\n      div\n        /* \"#utility.yul\":4435:4457   */\n      swap1\n      pop\n        /* \"#utility.yul\":4502:4503   */\n      0x01\n        /* \"#utility.yul\":4496:4500   */\n      dup3\n        /* \"#utility.yul\":4492:4504   */\n      and\n        /* \"#utility.yul\":4523:4541   */\n      dup1\n        /* \"#utility.yul\":4513:4594   */\n      tag_107\n      jumpi\n        /* \"#utility.yul\":4579:4583   */\n      0x7f\n        /* \"#utility.yul\":4571:4577   */\n      dup3\n        /* \"#utility.yul\":4567:4584   */\n      and\n        /* \"#utility.yul\":4557:4584   */\n      swap2\n      pop\n        /* \"#utility.yul\":4513:4594   */\n    tag_107:\n        /* \"#utility.yul\":4641:4643   */\n      0x20\n        /* \"#utility.yul\":4633:4639   */\n      dup3\n        /* \"#utility.yul\":4630:4644   */\n      lt\n        /* \"#utility.yul\":4610:4628   */\n      dup2\n        /* \"#utility.yul\":4607:4645   */\n      sub\n        /* \"#utility.yul\":4604:4688   */\n      tag_108\n      jumpi\n        /* \"#utility.yul\":4660:4678   */\n      tag_109\n      tag_45\n      jump\t// in\n    tag_109:\n        /* \"#utility.yul\":4604:4688   */\n    tag_108:\n        /* \"#utility.yul\":4425:4694   */\n      pop\n        /* \"#utility.yul\":4374:4694   */\n      swap2\n      swap1\n      pop\n      jump\t// out\n        /* \"#utility.yul\":4700:4841   */\n    tag_46:\n        /* \"#utility.yul\":4749:4753   */\n      0x00\n        /* \"#utility.yul\":4772:4775   */\n      dup2\n        /* \"#utility.yul\":4764:4775   */\n      swap1\n      pop\n        /* \"#utility.yul\":4795:4798   */\n      dup2\n        /* \"#utility.yul\":4792:4793   */\n      0x00\n        /* \"#utility.yul\":4785:4799   */\n      mstore\n        /* \"#utility.yul\":4829:4833   */\n      0x20\n        /* \"#utility.yul\":4826:4827   */\n      0x00\n        /* \"#utility.yul\":4816:4834   */\n      keccak256\n        /* \"#utility.yul\":4808:4834   */\n      swap1\n      pop\n        /* \"#utility.yul\":4700:4841   */\n      swap2\n      swap1\n      pop\n      jump\t// out\n        /* \"#utility.yul\":4847:4940   */\n    tag_47:\n        /* \"#utility.yul\":4884:4890   */\n      0x00\n        /* \"#utility.yul\":4931:4933   */\n      0x20\n        /* \"#utility.yul\":4926:4928   */\n      0x1f\n        /* \"#utility.yul\":4919:4924   */\n      dup4\n        /* \"#utility.yul\":4915:4929   */\n      add\n        /* \"#utility.yul\":4911:4934   */\n      div\n        /* \"#utility.yul\":4901:4934   */\n      swap1\n      pop\n        /* \"#utility.yul\":4847:4940   */\n      swap2\n      swap1\n      pop\n      jump\t// out\n        /* \"#utility.yul\":4946:5053   */\n    tag_48:\n        /* \"#utility.yul\":4990:4998   */\n      0x00\n        /* \"#utility.yul\":5040:5045   */\n      dup3\n        /* \"#utility.yul\":5034:5038   */\n      dup3\n        /* \"#utility.yul\":5030:5046   */\n      shl\n        /* \"#utility.yul\":5009:5046   */\n      swap1\n      pop\n        /* \"#utility.yul\":4946:5053   */\n      swap3\n      swap2\n      pop\n      pop\n      jump\t// out\n        /* \"#utility.yul\":5059:5452   */\n    tag_49:\n        /* \"#utility.yul\":5128:5134   */\n      0x00\n        /* \"#utility.yul\":5178:5179   */\n      0x08\n        /* \"#utility.yul\":5166:5176   */\n      dup4\n        /* \"#utility.yul\":5162:5180   */\n      mul\n        /* \"#utility.yul\":5201:5298   */\n      tag_114\n        /* \"#utility.yul\":5231:5297   */\n      0xffffffffffffffffffffffffffffffffffffffffffffffffffffffffffffffff\n        /* \"#utility.yul\":5220:5229   */\n      dup3\n        /* \"#utility.yul\":5201:5298   */\n      tag_48\n      jump\t// in\n    tag_114:\n        /* \"#utility.yul\":5319:5358   */\n      tag_115\n        /* \"#utility.yul\":5349:5357   */\n      dup7\n        /* \"#utility.yul\":5338:5347   */\n      dup4\n        /* \"#utility.yul\":5319:5358   */\n      tag_48\n      jump\t// in\n    tag_115:\n        /* \"#utility.yul\":5307:5358   */\n      swap6\n      pop\n        /* \"#utility.yul\":5391:5395   */\n      dup1\n        /* \"#utility.yul\":5387:5396   */\n      not\n        /* \"#utility.yul\":5380:5385   */\n      dup5\n        /* \"#utility.yul\":5376:5397   */\n      and\n        /* \"#utility.yul\":5367:5397   */\n      swap4\n      pop\n        /* \"#utility.yul\":5440:5444   */\n      dup1\n        /* \"#utility.yul\":5430:5438   */\n      dup7\n        /* \"#utility.yul\":5426:5445   */\n      and\n        /* \"#utility.yul\":5419:5424   */\n      dup5\n        /* \"#utility.yul\":5416:5446   */\n      or\n        /* \"#utility.yul\":5406:5446   */\n      swap3\n      pop\n        /* \"#utility.yul\":5135:5452   */\n      pop\n      pop\n        /* \"#utility.yul\":5059:5452   */\n      swap4\n      swap3\n      pop\n      pop\n      pop\n      jump\t// out\n        /* \"#utility.yul\":5458:5518   */\n    tag_50:\n        /* \"#utility.yul\":5486:5489   */\n      0x00\n        /* \"#utility.yul\":5507:5512   */\n      dup2\n        /* \"#utility.yul\":5500:5512   */\n      swap1\n      pop\n        /* \"#utility.yul\":5458:5518   */\n      swap2\n      swap1\n      pop\n      jump\t// out\n        /* \"#utility.yul\":5524:5666   */\n    tag_51:\n        /* \"#utility.yul\":5574:5583   */\n      0x00\n        /* \"#utility.yul\":5607:5660   */\n      tag_118\n        /* \"#utility.yul\":5625:5659   */\n      tag_119\n        /* \"#utility.yul\":5634:5658   */\n      tag_120\n        /* \"#utility.yul\":5652:5657   */\n      dup5\n        /* \"#utility.yul\":5634:5658   */\n      tag_30\n      jump\t// in\n    tag_120:\n        /* \"#utility.yul\":5625:5659   */\n      tag_50\n      jump\t// in\n    tag_119:\n        /* \"#utility.yul\":5607:5660   */\n      tag_30\n      jump\t// in\n    tag_118:\n        /* \"#utility.yul\":5594:5660   */\n      swap1\n      pop\n        /* \"#utility.yul\":5524:5666   */\n      swap2\n      swap1\n      pop\n      jump\t// out\n        /* \"#utility.yul\":5672:5747   */\n    tag_52:\n        /* \"#utility.yul\":5715:5718   */\n      0x00\n        /* \"#utility.yul\":5736:5741   */\n      dup2\n        /* \"#utility.yul\":5729:5741   */\n      swap1\n      pop\n        /* \"#utility.yul\":5672:5747   */\n      swap2\n      swap1\n      pop\n      jump\t// out\n        /* \"#utility.yul\":5753:6022   */\n    tag_53:\n        /* \"#utility.yul\":5863:5902   */\n      tag_123\n        /* \"#utility.yul\":5894:5901   */\n      dup4\n        /* \"#utility.yul\":5863:5902   */\n      tag_51\n      jump\t// in\n    tag_123:\n        /* \"#utility.yul\":5924:6015   */\n      tag_124\n        /* \"#utility.yul\":5973:6014   */\n      tag_125\n        /* \"#utility.yul\":5997:6013   */\n      dup3\n        /* \"#utility.yul\":5973:6014   */\n      tag_52\n      jump\t// in\n    tag_125:\n        /* \"#utility.yul\":5965:5971   */\n      dup5\n        /* \"#utility.yul\":5958:5962   */\n      dup5\n        /* \"#utility.yul\":5952:5963   */\n      sload\n        /* \"#utility.yul\":5924:6015   */\n      tag_49\n      jump\t// in\n    tag_124:\n        /* \"#utility.yul\":5918:5922   */\n      dup3\n        /* \"#utility.yul\":5911:6016   */\n      sstore\n        /* \"#utility.yul\":5829:6022   */\n      pop\n        /* \"#utility.yul\":5753:6022   */\n      pop\n      pop\n      pop\n      jump\t// out\n        /* \"#utility.yul\":6028:6101   */\n    tag_54:\n        /* \"#utility.yul\":6073:6076   */\n      0x00\n        /* \"#utility.yul\":6094:6095   */\n      0x00\n        /* \"#utility.yul\":6087:6095   */\n      swap1\n      pop\n        /* \"#utility.yul\":6028:6101   */\n      swap1\n      jump\t// out\n        /* \"#utility.yul\":6107:6296   */\n    tag_55:\n        /* \"#utility.yul\":6184:6216   */\n      tag_128\n      tag_54\n      jump\t// in\n    tag_128:\n        /* \"#utility.yul\":6225:6290   */\n      tag_129\n        /* \"#utility.yul\":6283:6289   */\n      dup2\n        /* \"#utility.yul\":6275:6281   */\n      dup5\n        /* \"#utility.yul\":6269:6273   */\n      dup5\n        /* \"#utility.yul\":6225:6290   */\n      tag_53\n      jump\t// in\n    tag_129:\n        /* \"#utility.yul\":6160:6296   */\n      pop\n        /* \"#utility.yul\":6107:6296   */\n      pop\n      pop\n      jump\t// out\n        /* \"#utility.yul\":6302:6516   */\n    tag_56:\n        /* \"#utility.yul\":6387:6388   */\n      0x00\n        /* \"#utility.yul\":6372:6510   */\n    tag_131:\n        /* \"#utility.yul\":6397:6406   */\n      dup3\n        /* \"#utility.yul\":6394:6395   */\n      dup2\n        /* \"#utility.yul\":6391:6407   */\n      lt\n        /* \"#utility.yul\":6372:6510   */\n      iszero\n      tag_133\n      jumpi\n        /* \"#utility.yul\":6449:6500   */\n      tag_134\n        /* \"#utility.yul\":6498:6499   */\n      0x00\n        /* \"#utility.yul\":6494:6495   */\n      dup3\n        /* \"#utility.yul\":6483:6492   */\n      dup5\n        /* \"#utility.yul\":6479:6496   */\n      add\n        /* \"#utility.yul\":6449:6500   */\n      tag_55\n      jump\t// in\n    tag_134:\n        /* \"#utility.yul\":6422:6423   */\n      0x01\n        /* \"#utility.yul\":6419:6420   */\n      dup2\n        /* \"#utility.yul\":6415:6424   */\n      add\n        /* \"#utility.yul\":6410:6424   */\n      swap1\n      pop\n        /* \"#utility.yul\":6372:6510   */\n      jump(tag_131)\n    tag_133:\n        /* \"#utility.yul\":6376:6390   */\n      pop\n        /* \"#utility.yul\":6302:6516   */\n      pop\n      pop\n      jump\t// out\n        /* \"#utility.yul\":6522:7268   */\n    tag_57:\n        /* \"#utility.yul\":6623:6625   */\n      0x1f\n        /* \"#utility.yul\":6618:6621   */\n      dup3\n        /* \"#utility.yul\":6615:6626   */\n      gt\n        /* \"#utility.yul\":6612:7261   */\n      iszero\n      tag_136\n      jumpi\n        /* \"#utility.yul\":6652:6662   */\n      dup3\n        /* \"#utility.yul\":6647:6650   */\n      dup3\n        /* \"#utility.yul\":6644:6663   */\n      gt\n        /* \"#utility.yul\":6641:7251   */\n      iszero\n      tag_137\n      jumpi\n        /* \"#utility.yul\":6698:6736   */\n      tag_138\n        /* \"#utility.yul\":6730:6735   */\n      dup2\n        /* \"#utility.yul\":6698:6736   */\n      tag_46\n      jump\t// in\n    tag_138:\n        /* \"#utility.yul\":6773:6795   */\n      tag_139\n        /* \"#utility.yul\":6791:6794   */\n      dup4\n        /* \"#utility.yul\":6773:6795   */\n      tag_47\n      jump\t// in\n    tag_139:\n        /* \"#utility.yul\":6832:6861   */\n      tag_140\n        /* \"#utility.yul\":6850:6860   */\n      dup6\n        /* \"#utility.yul\":6832:6861   */\n      tag_47\n      jump\t// in\n    tag_140:\n        /* \"#utility.yul\":7022:7024   */\n      0x20\n        /* \"#utility.yul\":7010:7020   */\n      dup7\n        /* \"#utility.yul\":7007:7025   */\n      lt\n        /* \"#utility.yul\":7004:7083   */\n      iszero\n      tag_141\n      jumpi\n        /* \"#utility.yul\":7064:7065   */\n      0x00\n        /* \"#utility.yul\":7048:7065   */\n      swap1\n      pop\n        /* \"#utility.yul\":7004:7083   */\n    tag_141:\n        /* \"#utility.yul\":7133:7145   */\n      dup1\n        /* \"#utility.yul\":7123:7131   */\n      dup4\n        /* \"#utility.yul\":7119:7146   */\n      add\n        /* \"#utility.yul\":7163:7237   */\n      tag_142\n        /* \"#utility.yul\":7223:7235   */\n      dup3\n        /* \"#utility.yul\":7209:7221   */\n      dup5\n        /* \"#utility.yul\":7205:7236   */\n      sub\n        /* \"#utility.yul\":7192:7203   */\n      dup3\n        /* \"#utility.yul\":7163:7237   */\n      tag_56\n      jump\t// in\n    tag_142:\n        /* \"#utility.yul\":6664:7251   */\n      pop\n      pop\n      pop\n      pop\n        /* \"#utility.yul\":6641:7251   */\n    tag_137:\n        /* \"#utility.yul\":6612:7261   */\n    tag_136:\n        /* \"#utility.yul\":6522:7268   */\n      pop\n      pop\n      pop\n      jump\t// out\n        /* \"#utility.yul\":7274:7391   */\n    tag_58:\n        /* \"#utility.yul\":7328:7336   */\n      0x00\n        /* \"#utility.yul\":7378:7383   */\n      dup3\n        /* \"#utility.yul\":7372:7376   */\n      dup3\n        /* \"#utility.yul\":7368:7384   */\n      shr\n        /* \"#utility.yul\":7347:7384   */\n      swap1\n      pop\n        /* \"#utility.yul\":7274:7391   */\n      swap3\n      swap2\n      pop\n      pop\n      jump\t// out\n        /* \"#utility.yul\":7397:7566   */\n    tag_59:\n        /* \"#utility.yul\":7441:7447   */\n      0x00\n        /* \"#utility.yul\":7474:7525   */\n      tag_145\n        /* \"#utility.yul\":7522:7523   */\n      0x00\n        /* \"#utility.yul\":7518:7524   */\n      not\n        /* \"#utility.yul\":7510:7515   */\n      dup5\n        /* \"#utility.yul\":7507:7508   */\n      0x08\n        /* \"#utility.yul\":7503:7516   */\n      mul\n        /* \"#utility.yul\":7474:7525   */\n      tag_58\n      jump\t// in\n    tag_145:\n        /* \"#utility.yul\":7470:7526   */\n      not\n        /* \"#utility.yul\":7555:7559   */\n      dup1\n        /* \"#utility.yul\":7549:7553   */\n      dup4\n        /* \"#utility.yul\":7545:7560   */\n      and\n        /* \"#utility.yul\":7535:7560   */\n      swap2\n      pop\n        /* \"#utility.yul\":7448:7566   */\n      pop\n        /* \"#utility.yul\":7397:7566   */\n      swap3\n      swap2\n      pop\n      pop\n      jump\t// out\n        /* \"#utility.yul\":7571:7866   */\n    tag_60:\n        /* \"#utility.yul\":7647:7651   */\n      0x00\n        /* \"#utility.yul\":7793:7822   */\n      tag_147\n        /* \"#utility.yul\":7818:7821   */\n      dup4\n        /* \"#utility.yul\":7812:7816   */\n      dup4\n        /* \"#utility.yul\":7793:7822   */\n      tag_59\n      jump\t// in\n    tag_147:\n        /* \"#utility.yul\":7785:7822   */\n      swap2\n      pop\n        /* \"#utility.yul\":7855:7858   */\n      dup3\n        /* \"#utility.yul\":7852:7853   */\n      0x02\n        /* \"#utility.yul\":7848:7859   */\n      mul\n        /* \"#utility.yul\":7842:7846   */\n      dup3\n        /* \"#utility.yul\":7839:7860   */\n      or\n        /* \"#utility.yul\":7831:7860   */\n      swap1\n      pop\n        /* \"#utility.yul\":7571:7866   */\n      swap3\n      swap2\n      pop\n      pop\n      jump\t// out\n        /* \"#utility.yul\":7871:9274   */\n    tag_20:\n        /* \"#utility.yul\":7995:8039   */\n      tag_149\n        /* \"#utility.yul\":8035:8038   */\n      dup4\n        /* \"#utility.yul\":8030:8033   */\n      dup4\n        /* \"#utility.yul\":7995:8039   */\n      tag_43\n      jump\t// in\n    tag_149:\n        /* \"#utility.yul\":8104:8122   */\n      0xffffffffffffffff\n        /* \"#utility.yul\":8096:8102   */\n      dup2\n        /* \"#utility.yul\":8093:8123   */\n      gt\n        /* \"#utility.yul\":8090:8146   */\n      iszero\n      tag_150\n      jumpi\n        /* \"#utility.yul\":8126:8144   */\n      tag_151\n      tag_44\n      jump\t// in\n    tag_151:\n        /* \"#utility.yul\":8090:8146   */\n    tag_150:\n        /* \"#utility.yul\":8170:8208   */\n      tag_152\n        /* \"#utility.yul\":8202:8206   */\n      dup3\n        /* \"#utility.yul\":8196:8207   */\n      sload\n        /* \"#utility.yul\":8170:8208   */\n      tag_22\n      jump\t// in\n    tag_152:\n        /* \"#utility.yul\":8255:8322   */\n      tag_153\n        /* \"#utility.yul\":8315:8321   */\n      dup3\n        /* \"#utility.yul\":8307:8313   */\n      dup3\n        /* \"#utility.yul\":8301:8305   */\n      dup6\n        /* \"#utility.yul\":8255:8322   */\n      tag_57\n      jump\t// in\n    tag_153:\n        /* \"#utility.yul\":8349:8350   */\n      0x00\n        /* \"#utility.yul\":8378:8380   */\n      0x1f\n        /* \"#utility.yul\":8370:8376   */\n      dup4\n        /* \"#utility.yul\":8367:8381   */\n      gt\n        /* \"#utility.yul\":8395:8396   */\n      0x01\n        /* \"#utility.yul\":8390:9022   */\n      dup2\n      eq\n      tag_155\n      jumpi\n        /* \"#utility.yul\":9066:9067   */\n      0x00\n        /* \"#utility.yul\":9083:9089   */\n      dup5\n        /* \"#utility.yul\":9080:9164   */\n      iszero\n      tag_156\n      jumpi\n        /* \"#utility.yul\":9139:9148   */\n      dup3\n        /* \"#utility.yul\":9134:9137   */\n      dup8\n        /* \"#utility.yul\":9130:9149   */\n      add\n        /* \"#utility.yul\":9117:9150   */\n      calldataload\n        /* \"#utility.yul\":9108:9150   */\n      swap1\n      pop\n        /* \"#utility.yul\":9080:9164   */\n    tag_156:\n        /* \"#utility.yul\":9190:9257   */\n      tag_157\n        /* \"#utility.yul\":9250:9256   */\n      dup6\n        /* \"#utility.yul\":9243:9248   */\n      dup3\n        /* \"#utility.yul\":9190:9257   */\n      tag_60\n      jump\t// in\n    tag_157:\n        /* \"#utility.yul\":9184:9188   */\n      dup7\n        /* \"#utility.yul\":9177:9258   */\n      sstore\n        /* \"#utility.yul\":9039:9268   */\n      pop\n        /* \"#utility.yul\":8360:9268   */\n      jump(tag_154)\n        /* \"#utility.yul\":8390:9022   */\n    tag_155:\n        /* \"#utility.yul\":8442:8446   */\n      0x1f\n        /* \"#utility.yul\":8438:8447   */\n      not\n        /* \"#utility.yul\":8430:8436   */\n      dup5\n        /* \"#utility.yul\":8426:8448   */\n      and\n        /* \"#utility.yul\":8476:8513   */\n      tag_158\n        /* \"#utility.yul\":8508:8512   */\n      dup7\n        /* \"#utility.yul\":8476:8513   */\n      tag_46\n      jump\t// in\n    tag_158:\n        /* \"#utility.yul\":8535:8536   */\n      0x00\n        /* \"#utility.yul\":8549:8764   */\n    tag_159:\n        /* \"#utility.yul\":8563:8570   */\n      dup3\n        /* \"#utility.yul\":8560:8561   */\n      dup2\n        /* \"#utility.yul\":8557:8571   */\n      lt\n        /* \"#utility.yul\":8549:8764   */\n      iszero\n      tag_161\n      jumpi\n        /* \"#utility.yul\":8649:8658   */\n      dup5\n        /* \"#utility.yul\":8644:8647   */\n      dup10\n        /* \"#utility.yul\":8640:8659   */\n      add\n        /* \"#utility.yul\":8627:8660   */\n      calldataload\n        /* \"#utility.yul\":8619:8625   */\n      dup3\n        /* \"#utility.yul\":8612:8661   */\n      sstore\n        /* \"#utility.yul\":8700:8701   */\n      0x01\n        /* \"#utility.yul\":8692:8698   */\n      dup3\n        /* \"#utility.yul\":8688:8702   */\n      add\n        /* \"#utility.yul\":8678:8702   */\n      swap2\n      pop\n        /* \"#utility.yul\":8747:8749   */\n      0x20\n        /* \"#utility.yul\":8736:8745   */\n      dup6\n        /* \"#utility.yul\":8732:8750   */\n      add\n        /* \"#utility.yul\":8719:8750   */\n      swap5\n      pop\n        /* \"#utility.yul\":8586:8590   */\n      0x20\n        /* \"#utility.yul\":8583:8584   */\n      dup2\n        /* \"#utility.yul\":8579:8591   */\n      add\n        /* \"#utility.yul\":8574:8591   */\n      swap1\n      pop\n        /* \"#utility.yul\":8549:8764   */\n      jump(tag_159)\n    tag_161:\n        /* \"#utility.yul\":8792:8798   */\n      dup7\n        /* \"#utility.yul\":8783:8790   */\n      dup4\n        /* \"#utility.yul\":8780:8799   */\n      lt\n        /* \"#utility.yul\":8777:8963   */\n      iszero\n      tag_162\n      jumpi\n        /* \"#utility.yul\":8857:8866   */\n      dup5\n        /* \"#utility.yul\":8852:8855   */\n      dup10\n        /* \"#utility.yul\":8848:8867   */\n      add\n        /* \"#utility.yul\":8835:8868   */\n      calldataload\n        /* \"#utility.yul\":8900:8948   */\n      tag_163\n        /* \"#utility.yul\":8942:8946   */\n      0x1f\n        /* \"#utility.yul\":8934:8940   */\n      dup10\n        /* \"#utility.yul\":8930:8947   */\n      and\n        /* \"#utility.yul\":8919:8928   */\n      dup3\n        /* \"#utility.yul\":8900:8948   */\n      tag_59\n      jump\t// in\n    tag_163:\n        /* \"#utility.yul\":8892:8898   */\n      dup4\n        /* \"#utility.yul\":8885:8949   */\n      sstore\n        /* \"#utility.yul\":8800:8963   */\n      pop\n        /* \"#utility.yul\":8777:8963   */\n    tag_162:\n        /* \"#utility.yul\":9009:9010   */\n      0x01\n        /* \"#utility.yul\":9005:9006   */\n      0x02\n        /* \"#utility.yul\":8997:9003   */\n      dup9\n        /* \"#utility.yul\":8993:9007   */\n      mul\n        /* \"#utility.yul\":8989:9011   */\n      add\n        /* \"#utility.yul\":8983:8987   */\n      dup9\n        /* \"#utility.yul\":8976:9012   */\n      sstore\n        /* \"#utility.yul\":8397:9022   */\n      pop\n      pop\n      pop\n        /* \"#utility.yul\":8360:9268   */\n    tag_154:\n      pop\n        /* \"#utility.yul\":7970:9274   */\n      pop\n      pop\n      pop\n        /* \"#utility.yul\":7871:9274   */\n      pop\n      pop\n      pop\n      jump\t// out\n\n    auxdata: 0xa26469706673582212204a17adb583d4d72f6d1abd47e152fef3608038a3a52829af91a65259c8beafa664736f6c63430008220033\n}\n",
				"bytecode": {
					"linkReferences": {},
					"object": "6080604052348015600e575f5ffd5b506106428061001c5f395ff3fe608060405234801561000f575f5ffd5b506004361061003f575f3560e01c806317679e1314610043578063329707101461005f578063b3db9f1a1461007d575b5f5ffd5b61005d600480360381019061005891906101e5565b61009b565b005b6100676100b8565b60405161007491906102b2565b60405180910390f35b610085610144565b60405161009291906102e1565b60405180910390f35b825f819055508181600191826100b292919061053f565b50505050565b600180546100c59061035e565b80601f01602080910402602001604051908101604052809291908181526020018280546100f19061035e565b801561013c5780601f106101135761010080835404028352916020019161013c565b820191905f5260205f20905b81548152906001019060200180831161011f57829003601f168201915b505050505081565b5f5481565b5f5ffd5b5f5ffd5b5f819050919050565b61016381610151565b811461016d575f5ffd5b50565b5f8135905061017e8161015a565b92915050565b5f5ffd5b5f5ffd5b5f5ffd5b5f5f83601f8401126101a5576101a4610184565b5b8235905067ffffffffffffffff8111156101c2576101c1610188565b5b6020830191508360018202830111156101de576101dd61018c565b5b9250929050565b5f5f5f604084860312156101fc576101fb610149565b5b5f61020986828701610170565b935050602084013567ffffffffffffffff81111561022a5761022961014d565b5b61023686828701610190565b92509250509250925092565b5f81519050919050565b5f82825260208201905092915050565b8281835e5f83830152505050565b5f601f19601f8301169050919050565b5f61028482610242565b61028e818561024c565b935061029e81856020860161025c565b6102a78161026a565b840191505092915050565b5f6020820190508181035f8301526102ca818461027a565b905092915050565b6102db81610151565b82525050565b5f6020820190506102f45f8301846102d2565b92915050565b5f82905092915050565b7f4e487b71000000000000000000000000000000000000000000000000000000005f52604160045260245ffd5b7f4e487b71000000000000000000000000000000000000000000000000000000005f52602260045260245ffd5b5f600282049050600182168061037557607f821691505b60208210810361038857610387610331565b5b50919050565b5f819050815f5260205f209050919050565b5f6020601f8301049050919050565b5f82821b905092915050565b5f600883026103ea7fffffffffffffffffffffffffffffffffffffffffffffffffffffffffffffffff826103af565b6103f486836103af565b95508019841693508086168417925050509392505050565b5f819050919050565b5f61042f61042a61042584610151565b61040c565b610151565b9050919050565b5f819050919050565b61044883610415565b61045c61045482610436565b8484546103bb565b825550505050565b5f5f905090565b610473610464565b61047e81848461043f565b505050565b5f5b828110156104a4576104995f82840161046b565b600181019050610485565b505050565b601f8211156104f757828211156104f6576104c38161038e565b6104cc836103a0565b6104d5856103a0565b60208610156104e2575f90505b8083016104f182840382610483565b505050505b5b505050565b5f82821c905092915050565b5f6105175f19846008026104fc565b1980831691505092915050565b5f61052f8383610508565b9150826002028217905092915050565b61054983836102fa565b67ffffffffffffffff81111561056257610561610304565b5b61056c825461035e565b6105778282856104a9565b5f601f8311600181146105a4575f8415610592578287013590505b61059c8582610524565b865550610603565b601f1984166105b28661038e565b5f5b828110156105d9578489013582556001820191506020850194506020810190506105b4565b868310156105f657848901356105f2601f891682610508565b8355505b6001600288020188555050505b5050505050505056fea26469706673582212204a17adb583d4d72f6d1abd47e152fef3608038a3a52829af91a65259c8beafa664736f6c63430008220033",
					"opcodes": "PUSH1 0x80 PUSH1 0x40 MSTORE CALLVALUE DUP1 ISZERO PUSH1 0xE JUMPI PUSH0 PUSH0 REVERT JUMPDEST POP PUSH2 0x642 DUP1 PUSH2 0x1C PUSH0 CODECOPY PUSH0 RETURN INVALID PUSH1 0x80 PUSH1 0x40 MSTORE CALLVALUE DUP1 ISZERO PUSH2 0xF JUMPI PUSH0 PUSH0 REVERT JUMPDEST POP PUSH1 0x4 CALLDATASIZE LT PUSH2 0x3F JUMPI PUSH0 CALLDATALOAD PUSH1 0xE0 SHR DUP1 PUSH4 0x17679E13 EQ PUSH2 0x43 JUMPI DUP1 PUSH4 0x32970710 EQ PUSH2 0x5F JUMPI DUP1 PUSH4 0xB3DB9F1A EQ PUSH2 0x7D JUMPI JUMPDEST PUSH0 PUSH0 REVERT JUMPDEST PUSH2 0x5D PUSH1 0x4 DUP1 CALLDATASIZE SUB DUP2 ADD SWAP1 PUSH2 0x58 SWAP2 SWAP1 PUSH2 0x1E5 JUMP JUMPDEST PUSH2 0x9B JUMP JUMPDEST STOP JUMPDEST PUSH2 0x67 PUSH2 0xB8 JUMP JUMPDEST PUSH1 0x40 MLOAD PUSH2 0x74 SWAP2 SWAP1 PUSH2 0x2B2 JUMP JUMPDEST PUSH1 0x40 MLOAD DUP1 SWAP2 SUB SWAP1 RETURN JUMPDEST PUSH2 0x85 PUSH2 0x144 JUMP JUMPDEST PUSH1 0x40 MLOAD PUSH2 0x92 SWAP2 SWAP1 PUSH2 0x2E1 JUMP JUMPDEST PUSH1 0x40 MLOAD DUP1 SWAP2 SUB SWAP1 RETURN JUMPDEST DUP3 PUSH0 DUP2 SWAP1 SSTORE POP DUP2 DUP2 PUSH1 0x1 SWAP2 DUP3 PUSH2 0xB2 SWAP3 SWAP2 SWAP1 PUSH2 0x53F JUMP JUMPDEST POP POP POP POP JUMP JUMPDEST PUSH1 0x1 DUP1 SLOAD PUSH2 0xC5 SWAP1 PUSH2 0x35E JUMP JUMPDEST DUP1 PUSH1 0x1F ADD PUSH1 0x20 DUP1 SWAP2 DIV MUL PUSH1 0x20 ADD PUSH1 0x40 MLOAD SWAP1 DUP2 ADD PUSH1 0x40 MSTORE DUP1 SWAP3 SWAP2 SWAP1 DUP2 DUP2 MSTORE PUSH1 0x20 ADD DUP3 DUP1 SLOAD PUSH2 0xF1 SWAP1 PUSH2 0x35E JUMP JUMPDEST DUP1 ISZERO PUSH2 0x13C JUMPI DUP1 PUSH1 0x1F LT PUSH2 0x113 JUMPI PUSH2 0x100 DUP1 DUP4 SLOAD DIV MUL DUP4 MSTORE SWAP2 PUSH1 0x20 ADD SWAP2 PUSH2 0x13C JUMP JUMPDEST DUP3 ADD SWAP2 SWAP1 PUSH0 MSTORE PUSH1 0x20 PUSH0 KECCAK256 SWAP1 JUMPDEST DUP2 SLOAD DUP2 MSTORE SWAP1 PUSH1 0x1 ADD SWAP1 PUSH1 0x20 ADD DUP1 DUP4 GT PUSH2 0x11F JUMPI DUP3 SWAP1 SUB PUSH1 0x1F AND DUP3 ADD SWAP2 JUMPDEST POP POP POP POP POP DUP2 JUMP JUMPDEST PUSH0 SLOAD DUP2 JUMP JUMPDEST PUSH0 PUSH0 REVERT JUMPDEST PUSH0 PUSH0 REVERT JUMPDEST PUSH0 DUP2 SWAP1 POP SWAP2 SWAP1 POP JUMP JUMPDEST PUSH2 0x163 DUP2 PUSH2 0x151 JUMP JUMPDEST DUP2 EQ PUSH2 0x16D JUMPI PUSH0 PUSH0 REVERT JUMPDEST POP JUMP JUMPDEST PUSH0 DUP2 CALLDATALOAD SWAP1 POP PUSH2 0x17E DUP2 PUSH2 0x15A JUMP JUMPDEST SWAP3 SWAP2 POP POP JUMP JUMPDEST PUSH0 PUSH0 REVERT JUMPDEST PUSH0 PUSH0 REVERT JUMPDEST PUSH0 PUSH0 REVERT JUMPDEST PUSH0 PUSH0 DUP4 PUSH1 0x1F DUP5 ADD SLT PUSH2 0x1A5 JUMPI PUSH2 0x1A4 PUSH2 0x184 JUMP JUMPDEST JUMPDEST DUP3 CALLDATALOAD SWAP1 POP PUSH8 0xFFFFFFFFFFFFFFFF DUP2 GT ISZERO PUSH2 0x1C2 JUMPI PUSH2 0x1C1 PUSH2 0x188 JUMP JUMPDEST JUMPDEST PUSH1 0x20 DUP4 ADD SWAP2 POP DUP4 PUSH1 0x1 DUP3 MUL DUP4 ADD GT ISZERO PUSH2 0x1DE JUMPI PUSH2 0x1DD PUSH2 0x18C JUMP JUMPDEST JUMPDEST SWAP3 POP SWAP3 SWAP1 POP JUMP JUMPDEST PUSH0 PUSH0 PUSH0 PUSH1 0x40 DUP5 DUP7 SUB SLT ISZERO PUSH2 0x1FC JUMPI PUSH2 0x1FB PUSH2 0x149 JUMP JUMPDEST JUMPDEST PUSH0 PUSH2 0x209 DUP7 DUP3 DUP8 ADD PUSH2 0x170 JUMP JUMPDEST SWAP4 POP POP PUSH1 0x20 DUP5 ADD CALLDATALOAD PUSH8 0xFFFFFFFFFFFFFFFF DUP2 GT ISZERO PUSH2 0x22A JUMPI PUSH2 0x229 PUSH2 0x14D JUMP JUMPDEST JUMPDEST PUSH2 0x236 DUP7 DUP3 DUP8 ADD PUSH2 0x190 JUMP JUMPDEST SWAP3 POP SWAP3 POP POP SWAP3 POP SWAP3 POP SWAP3 JUMP JUMPDEST PUSH0 DUP2 MLOAD SWAP1 POP SWAP2 SWAP1 POP JUMP JUMPDEST PUSH0 DUP3 DUP3 MSTORE PUSH1 0x20 DUP3 ADD SWAP1 POP SWAP3 SWAP2 POP POP JUMP JUMPDEST DUP3 DUP2 DUP4 MCOPY PUSH0 DUP4 DUP4 ADD MSTORE POP POP POP JUMP JUMPDEST PUSH0 PUSH1 0x1F NOT PUSH1 0x1F DUP4 ADD AND SWAP1 POP SWAP2 SWAP1 POP JUMP JUMPDEST PUSH0 PUSH2 0x284 DUP3 PUSH2 0x242 JUMP JUMPDEST PUSH2 0x28E DUP2 DUP6 PUSH2 0x24C JUMP JUMPDEST SWAP4 POP PUSH2 0x29E DUP2 DUP6 PUSH1 0x20 DUP7 ADD PUSH2 0x25C JUMP JUMPDEST PUSH2 0x2A7 DUP2 PUSH2 0x26A JUMP JUMPDEST DUP5 ADD SWAP2 POP POP SWAP3 SWAP2 POP POP JUMP JUMPDEST PUSH0 PUSH1 0x20 DUP3 ADD SWAP1 POP DUP2 DUP2 SUB PUSH0 DUP4 ADD MSTORE PUSH2 0x2CA DUP2 DUP5 PUSH2 0x27A JUMP JUMPDEST SWAP1 POP SWAP3 SWAP2 POP POP JUMP JUMPDEST PUSH2 0x2DB DUP2 PUSH2 0x151 JUMP JUMPDEST DUP3 MSTORE POP POP JUMP JUMPDEST PUSH0 PUSH1 0x20 DUP3 ADD SWAP1 POP PUSH2 0x2F4 PUSH0 DUP4 ADD DUP5 PUSH2 0x2D2 JUMP JUMPDEST SWAP3 SWAP2 POP POP JUMP JUMPDEST PUSH0 DUP3 SWAP1 POP SWAP3 SWAP2 POP POP JUMP JUMPDEST PUSH32 0x4E487B7100000000000000000000000000000000000000000000000000000000 PUSH0 MSTORE PUSH1 0x41 PUSH1 0x4 MSTORE PUSH1 0x24 PUSH0 REVERT JUMPDEST PUSH32 0x4E487B7100000000000000000000000000000000000000000000000000000000 PUSH0 MSTORE PUSH1 0x22 PUSH1 0x4 MSTORE PUSH1 0x24 PUSH0 REVERT JUMPDEST PUSH0 PUSH1 0x2 DUP3 DIV SWAP1 POP PUSH1 0x1 DUP3 AND DUP1 PUSH2 0x375 JUMPI PUSH1 0x7F DUP3 AND SWAP2 POP JUMPDEST PUSH1 0x20 DUP3 LT DUP2 SUB PUSH2 0x388 JUMPI PUSH2 0x387 PUSH2 0x331 JUMP JUMPDEST JUMPDEST POP SWAP2 SWAP1 POP JUMP JUMPDEST PUSH0 DUP2 SWAP1 POP DUP2 PUSH0 MSTORE PUSH1 0x20 PUSH0 KECCAK256 SWAP1 POP SWAP2 SWAP1 POP JUMP JUMPDEST PUSH0 PUSH1 0x20 PUSH1 0x1F DUP4 ADD DIV SWAP1 POP SWAP2 SWAP1 POP JUMP JUMPDEST PUSH0 DUP3 DUP3 SHL SWAP1 POP SWAP3 SWAP2 POP POP JUMP JUMPDEST PUSH0 PUSH1 0x8 DUP4 MUL PUSH2 0x3EA PUSH32 0xFFFFFFFFFFFFFFFFFFFFFFFFFFFFFFFFFFFFFFFFFFFFFFFFFFFFFFFFFFFFFFFF DUP3 PUSH2 0x3AF JUMP JUMPDEST PUSH2 0x3F4 DUP7 DUP4 PUSH2 0x3AF JUMP JUMPDEST SWAP6 POP DUP1 NOT DUP5 AND SWAP4 POP DUP1 DUP7 AND DUP5 OR SWAP3 POP POP POP SWAP4 SWAP3 POP POP POP JUMP JUMPDEST PUSH0 DUP2 SWAP1 POP SWAP2 SWAP1 POP JUMP JUMPDEST PUSH0 PUSH2 0x42F PUSH2 0x42A PUSH2 0x425 DUP5 PUSH2 0x151 JUMP JUMPDEST PUSH2 0x40C JUMP JUMPDEST PUSH2 0x151 JUMP JUMPDEST SWAP1 POP SWAP2 SWAP1 POP JUMP JUMPDEST PUSH0 DUP2 SWAP1 POP SWAP2 SWAP1 POP JUMP JUMPDEST PUSH2 0x448 DUP4 PUSH2 0x415 JUMP JUMPDEST PUSH2 0x45C PUSH2 0x454 DUP3 PUSH2 0x436 JUMP JUMPDEST DUP5 DUP5 SLOAD PUSH2 0x3BB JUMP JUMPDEST DUP3 SSTORE POP POP POP POP JUMP JUMPDEST PUSH0 PUSH0 SWAP1 POP SWAP1 JUMP JUMPDEST PUSH2 0x473 PUSH2 0x464 JUMP JUMPDEST PUSH2 0x47E DUP2 DUP5 DUP5 PUSH2 0x43F JUMP JUMPDEST POP POP POP JUMP JUMPDEST PUSH0 JUMPDEST DUP3 DUP2 LT ISZERO PUSH2 0x4A4 JUMPI PUSH2 0x499 PUSH0 DUP3 DUP5 ADD PUSH2 0x46B JUMP JUMPDEST PUSH1 0x1 DUP2 ADD SWAP1 POP PUSH2 0x485 JUMP JUMPDEST POP POP POP JUMP JUMPDEST PUSH1 0x1F DUP3 GT ISZERO PUSH2 0x4F7 JUMPI DUP3 DUP3 GT ISZERO PUSH2 0x4F6 JUMPI PUSH2 0x4C3 DUP2 PUSH2 0x38E JUMP JUMPDEST PUSH2 0x4CC DUP4 PUSH2 0x3A0 JUMP JUMPDEST PUSH2 0x4D5 DUP6 PUSH2 0x3A0 JUMP JUMPDEST PUSH1 0x20 DUP7 LT ISZERO PUSH2 0x4E2 JUMPI PUSH0 SWAP1 POP JUMPDEST DUP1 DUP4 ADD PUSH2 0x4F1 DUP3 DUP5 SUB DUP3 PUSH2 0x483 JUMP JUMPDEST POP POP POP POP JUMPDEST JUMPDEST POP POP POP JUMP JUMPDEST PUSH0 DUP3 DUP3 SHR SWAP1 POP SWAP3 SWAP2 POP POP JUMP JUMPDEST PUSH0 PUSH2 0x517 PUSH0 NOT DUP5 PUSH1 0x8 MUL PUSH2 0x4FC JUMP JUMPDEST NOT DUP1 DUP4 AND SWAP2 POP POP SWAP3 SWAP2 POP POP JUMP JUMPDEST PUSH0 PUSH2 0x52F DUP4 DUP4 PUSH2 0x508 JUMP JUMPDEST SWAP2 POP DUP3 PUSH1 0x2 MUL DUP3 OR SWAP1 POP SWAP3 SWAP2 POP POP JUMP JUMPDEST PUSH2 0x549 DUP4 DUP4 PUSH2 0x2FA JUMP JUMPDEST PUSH8 0xFFFFFFFFFFFFFFFF DUP2 GT ISZERO PUSH2 0x562 JUMPI PUSH2 0x561 PUSH2 0x304 JUMP JUMPDEST JUMPDEST PUSH2 0x56C DUP3 SLOAD PUSH2 0x35E JUMP JUMPDEST PUSH2 0x577 DUP3 DUP3 DUP6 PUSH2 0x4A9 JUMP JUMPDEST PUSH0 PUSH1 0x1F DUP4 GT PUSH1 0x1 DUP2 EQ PUSH2 0x5A4 JUMPI PUSH0 DUP5 ISZERO PUSH2 0x592 JUMPI DUP3 DUP8 ADD CALLDATALOAD SWAP1 POP JUMPDEST PUSH2 0x59C DUP6 DUP3 PUSH2 0x524 JUMP JUMPDEST DUP7 SSTORE POP PUSH2 0x603 JUMP JUMPDEST PUSH1 0x1F NOT DUP5 AND PUSH2 0x5B2 DUP7 PUSH2 0x38E JUMP JUMPDEST PUSH0 JUMPDEST DUP3 DUP2 LT ISZERO PUSH2 0x5D9 JUMPI DUP5 DUP10 ADD CALLDATALOAD DUP3 SSTORE PUSH1 0x1 DUP3 ADD SWAP2 POP PUSH1 0x20 DUP6 ADD SWAP5 POP PUSH1 0x20 DUP2 ADD SWAP1 POP PUSH2 0x5B4 JUMP JUMPDEST DUP7 DUP4 LT ISZERO PUSH2 0x5F6 JUMPI DUP5 DUP10 ADD CALLDATALOAD PUSH2 0x5F2 PUSH1 0x1F DUP10 AND DUP3 PUSH2 0x508 JUMP JUMPDEST DUP4 SSTORE POP JUMPDEST PUSH1 0x1 PUSH1 0x2 DUP9 MUL ADD DUP9 SSTORE POP POP POP JUMPDEST POP POP POP POP POP POP POP JUMP INVALID LOG2 PUSH5 0x6970667358 0x22 SLT KECCAK256 BLOBBASEFEE OR 0xAD 0xB5 DUP4 0xD4 0xD7 0x2F PUSH14 0x1ABD47E152FEF3608038A3A52829 0xAF SWAP2 0xA6 MSTORE MSIZE 0xC8 0xBE 0xAF 0xA6 PUSH5 0x736F6C6343 STOP ADDMOD 0x22 STOP CALLER "
				},
				"gasEstimates": {
					"creation": {
						"codeDepositCost": "320400",
						"executionCost": "360",
						"totalCost": "320760"
					},
					"external": {
						"lastMessage()": "infinite",
						"lastNumber()": "2446",
						"saveInput(uint256,string)": "infinite"
					}
				},
				"methodIdentifiers": {
					"lastMessage()": "32970710",
					"lastNumber()": "b3db9f1a",
					"saveInput(uint256,string)": "17679e13"
				}
			},
			"storageLayout": {
				"storage": [
					{
						"astId": 3,
						"contract": "prac28.sol:ReadCalldataValuesVul",
						"label": "lastNumber",
						"offset": 0,
						"slot": "0",
						"type": "t_uint256"
					},
					{
						"astId": 5,
						"contract": "prac28.sol:ReadCalldataValuesVul",
						"label": "lastMessage",
						"offset": 0,
						"slot": "1",
						"type": "t_string_storage"
					}
				],
				"types": {
					"t_string_storage": {
						"encoding": "bytes",
						"label": "string",
						"numberOfBytes": "32"
					},
					"t_uint256": {
						"encoding": "inplace",
						"label": "uint256",
						"numberOfBytes": "32"
					}
				}
			},
			"userdoc": {
				"kind": "user",
				"methods": {},
				"version": 1
			}
		}
	}
}