{
	"prac3.sol": {
		"StoreAddress": {
			"abi": [
				{
					"inputs": [],
					"stateMutability": "nonpayable",
					"type": "constructor"
				},
				{
					"inputs": [],
					"name": "getAddress",
					"outputs": [
						{
							"internalType": "address",
							"name": "",
							"type": "address"
						}
					],
					"stateMutability": "view",
					"type": "function"
				},
				{
					"inputs": [],
					"name": "owner",
					"outputs": [
						{
							"internalType": "address",
							"name": "",
							"type": "address"
						}
					],
					"stateMutability": "view",
					"type": "function"
				},
				{
					"inputs": [
						{
							"internalType": "address",
							"name": "_newAddress",
							"type": "address"
						}
					],
					"name": "storeAddress",
					"outputs": [],
					"stateMutability": "nonpayable",
					"type": "function"
				},
				{
					"inputs": [],
					"name": "userAddress",
					"outputs": [
						{
							"internalType": "address",
							"name": "",
							"type": "address"
						}
					],
					"stateMutability": "view",
					"type": "function"
				}
			],
			"devdoc": {
				"kind": "dev",
				"methods": {},
				"version": 1
			},
			"evm": {
				"assembly": "    /* \"prac3.sol\":8102:8587  contract StoreAddress {... */\n  mstore(0x40, 0x80)\n    /* \"prac3.sol\":8195:8246  constructor() {... */\n  callvalue\n  dup1\n  iszero\n  tag_1\n  jumpi\n  revert(0x00, 0x00)\ntag_1:\n  pop\n    /* \"prac3.sol\":8228:8238  msg.sender */\n  caller\n    /* \"prac3.sol\":8220:8225  owner */\n  0x00\n  0x00\n    /* \"prac3.sol\":8220:8238  owner = msg.sender */\n  0x0100\n  exp\n  dup2\n  sload\n  dup2\n  0xffffffffffffffffffffffffffffffffffffffff\n  mul\n  not\n  and\n  swap1\n  dup4\n  0xffffffffffffffffffffffffffffffffffffffff\n  and\n  mul\n  or\n  swap1\n  sstore\n  pop\n    /* \"prac3.sol\":8102:8587  contract StoreAddress {... */\n  dataSize(sub_0)\n  dup1\n  dataOffset(sub_0)\n  0x00\n  codecopy\n  0x00\n  return\nstop\n\nsub_0: assembly {\n        /* \"prac3.sol\":8102:8587  contract StoreAddress {... */\n      mstore(0x40, 0x80)\n      callvalue\n      dup1\n      iszero\n      tag_1\n      jumpi\n      revert(0x00, 0x00)\n    tag_1:\n      pop\n      jumpi(tag_2, lt(calldatasize, 0x04))\n      shr(0xe0, calldataload(0x00))\n      dup1\n      0x38cc4831\n      eq\n      tag_3\n      jumpi\n      dup1\n      0x7128666b\n      eq\n      tag_4\n      jumpi\n      dup1\n      0x8da5cb5b\n      eq\n      tag_5\n      jumpi\n      dup1\n      0xe4128fb3\n      eq\n      tag_6\n      jumpi\n    tag_2:\n      revert(0x00, 0x00)\n        /* \"prac3.sol\":8495:8584  function getAddress() public view returns (address) {... */\n    tag_3:\n      tag_7\n      tag_8\n      jump\t// in\n    tag_7:\n      mload(0x40)\n      tag_9\n      swap2\n      swap1\n      tag_10\n      jump\t// in\n    tag_9:\n      mload(0x40)\n      dup1\n      swap2\n      sub\n      swap1\n      return\n        /* \"prac3.sol\":8254:8487  function storeAddress(address _newAddress) public {... */\n    tag_4:\n      tag_11\n      0x04\n      dup1\n      calldatasize\n      sub\n      dup2\n      add\n      swap1\n      tag_12\n      swap2\n      swap1\n      tag_13\n      jump\t// in\n    tag_12:\n      tag_14\n      jump\t// in\n    tag_11:\n      stop\n        /* \"prac3.sol\":8133:8153  address public owner */\n    tag_5:\n      tag_15\n      tag_16\n      jump\t// in\n    tag_15:\n      mload(0x40)\n      tag_17\n      swap2\n      swap1\n      tag_10\n      jump\t// in\n    tag_17:\n      mload(0x40)\n      dup1\n      swap2\n      sub\n      swap1\n      return\n        /* \"prac3.sol\":8160:8186  address public userAddress */\n    tag_6:\n      tag_18\n      tag_19\n      jump\t// in\n    tag_18:\n      mload(0x40)\n      tag_20\n      swap2\n      swap1\n      tag_10\n      jump\t// in\n    tag_20:\n      mload(0x40)\n      dup1\n      swap2\n      sub\n      swap1\n      return\n        /* \"prac3.sol\":8495:8584  function getAddress() public view returns (address) {... */\n    tag_8:\n        /* \"prac3.sol\":8538:8545  address */\n      0x00\n        /* \"prac3.sol\":8565:8576  userAddress */\n      0x01\n      0x00\n      swap1\n      sload\n      swap1\n      0x0100\n      exp\n      swap1\n      div\n      0xffffffffffffffffffffffffffffffffffffffff\n      and\n        /* \"prac3.sol\":8558:8576  return userAddress */\n      swap1\n      pop\n        /* \"prac3.sol\":8495:8584  function getAddress() public view returns (address) {... */\n      swap1\n      jump\t// out\n        /* \"prac3.sol\":8254:8487  function storeAddress(address _newAddress) public {... */\n    tag_14:\n        /* \"prac3.sol\":8337:8342  owner */\n      0x00\n      0x00\n      swap1\n      sload\n      swap1\n      0x0100\n      exp\n      swap1\n      div\n      0xffffffffffffffffffffffffffffffffffffffff\n      and\n        /* \"prac3.sol\":8323:8342  msg.sender == owner */\n      0xffffffffffffffffffffffffffffffffffffffff\n      and\n        /* \"prac3.sol\":8323:8333  msg.sender */\n      caller\n        /* \"prac3.sol\":8323:8342  msg.sender == owner */\n      0xffffffffffffffffffffffffffffffffffffffff\n      and\n      eq\n        /* \"prac3.sol\":8315:8368  require(msg.sender == owner, \"Only owner can update\") */\n      tag_23\n      jumpi\n      mload(0x40)\n      0x08c379a000000000000000000000000000000000000000000000000000000000\n      dup2\n      mstore\n      0x04\n      add\n      tag_24\n      swap1\n      tag_25\n      jump\t// in\n    tag_24:\n      mload(0x40)\n      dup1\n      swap2\n      sub\n      swap1\n      revert\n    tag_23:\n        /* \"prac3.sol\":8410:8411  0 */\n      0x00\n        /* \"prac3.sol\":8387:8412  _newAddress != address(0) */\n      0xffffffffffffffffffffffffffffffffffffffff\n      and\n        /* \"prac3.sol\":8387:8398  _newAddress */\n      dup2\n        /* \"prac3.sol\":8387:8412  _newAddress != address(0) */\n      0xffffffffffffffffffffffffffffffffffffffff\n      and\n      sub\n        /* \"prac3.sol\":8379:8441  require(_newAddress != address(0), \"Zero address not allowed\") */\n      tag_26\n      jumpi\n      mload(0x40)\n      0x08c379a000000000000000000000000000000000000000000000000000000000\n      dup2\n      mstore\n      0x04\n      add\n      tag_27\n      swap1\n      tag_28\n      jump\t// in\n    tag_27:\n      mload(0x40)\n      dup1\n      swap2\n      sub\n      swap1\n      revert\n    tag_26:\n        /* \"prac3.sol\":8468:8479  _newAddress */\n      dup1\n        /* \"prac3.sol\":8454:8465  userAddress */\n      0x01\n      0x00\n        /* \"prac3.sol\":8454:8479  userAddress = _newAddress */\n      0x0100\n      exp\n      dup2\n      sload\n      dup2\n      0xffffffffffffffffffffffffffffffffffffffff\n      mul\n      not\n      and\n      swap1\n      dup4\n      0xffffffffffffffffffffffffffffffffffffffff\n      and\n      mul\n      or\n      swap1\n      sstore\n      pop\n        /* \"prac3.sol\":8254:8487  function storeAddress(address _newAddress) public {... */\n      pop\n      jump\t// out\n        /* \"prac3.sol\":8133:8153  address public owner */\n    tag_16:\n      0x00\n      0x00\n      swap1\n      sload\n      swap1\n      0x0100\n      exp\n      swap1\n      div\n      0xffffffffffffffffffffffffffffffffffffffff\n      and\n      dup2\n      jump\t// out\n        /* \"prac3.sol\":8160:8186  address public userAddress */\n    tag_19:\n      0x01\n      0x00\n      swap1\n      sload\n      swap1\n      0x0100\n      exp\n      swap1\n      div\n      0xffffffffffffffffffffffffffffffffffffffff\n      and\n      dup2\n      jump\t// out\n        /* \"#utility.yul\":7:133   */\n    tag_29:\n        /* \"#utility.yul\":44:51   */\n      0x00\n        /* \"#utility.yul\":84:126   */\n      0xffffffffffffffffffffffffffffffffffffffff\n        /* \"#utility.yul\":77:82   */\n      dup3\n        /* \"#utility.yul\":73:127   */\n      and\n        /* \"#utility.yul\":62:127   */\n      swap1\n      pop\n        /* \"#utility.yul\":7:133   */\n      swap2\n      swap1\n      pop\n      jump\t// out\n        /* \"#utility.yul\":139:235   */\n    tag_30:\n        /* \"#utility.yul\":176:183   */\n      0x00\n        /* \"#utility.yul\":205:229   */\n      tag_45\n        /* \"#utility.yul\":223:228   */\n      dup3\n        /* \"#utility.yul\":205:229   */\n      tag_29\n      jump\t// in\n    tag_45:\n        /* \"#utility.yul\":194:229   */\n      swap1\n      pop\n        /* \"#utility.yul\":139:235   */\n      swap2\n      swap1\n      pop\n      jump\t// out\n        /* \"#utility.yul\":241:359   */\n    tag_31:\n        /* \"#utility.yul\":328:352   */\n      tag_47\n        /* \"#utility.yul\":346:351   */\n      dup2\n        /* \"#utility.yul\":328:352   */\n      tag_30\n      jump\t// in\n    tag_47:\n        /* \"#utility.yul\":323:326   */\n      dup3\n        /* \"#utility.yul\":316:353   */\n      mstore\n        /* \"#utility.yul\":241:359   */\n      pop\n      pop\n      jump\t// out\n        /* \"#utility.yul\":365:587   */\n    tag_10:\n        /* \"#utility.yul\":458:462   */\n      0x00\n        /* \"#utility.yul\":496:498   */\n      0x20\n        /* \"#utility.yul\":485:494   */\n      dup3\n        /* \"#utility.yul\":481:499   */\n      add\n        /* \"#utility.yul\":473:499   */\n      swap1\n      pop\n        /* \"#utility.yul\":509:580   */\n      tag_49\n        /* \"#utility.yul\":577:578   */\n      0x00\n        /* \"#utility.yul\":566:575   */\n      dup4\n        /* \"#utility.yul\":562:579   */\n      add\n        /* \"#utility.yul\":553:559   */\n      dup5\n        /* \"#utility.yul\":509:580   */\n      tag_31\n      jump\t// in\n    tag_49:\n        /* \"#utility.yul\":365:587   */\n      swap3\n      swap2\n      pop\n      pop\n      jump\t// out\n        /* \"#utility.yul\":674:791   */\n    tag_33:\n        /* \"#utility.yul\":783:784   */\n      0x00\n        /* \"#utility.yul\":780:781   */\n      0x00\n        /* \"#utility.yul\":773:785   */\n      revert\n        /* \"#utility.yul\":920:1042   */\n    tag_35:\n        /* \"#utility.yul\":993:1017   */\n      tag_54\n        /* \"#utility.yul\":1011:1016   */\n      dup2\n        /* \"#utility.yul\":993:1017   */\n      tag_30\n      jump\t// in\n    tag_54:\n        /* \"#utility.yul\":986:991   */\n      dup2\n        /* \"#utility.yul\":983:1018   */\n      eq\n        /* \"#utility.yul\":973:1036   */\n      tag_55\n      jumpi\n        /* \"#utility.yul\":1032:1033   */\n      0x00\n        /* \"#utility.yul\":1029:1030   */\n      0x00\n        /* \"#utility.yul\":1022:1034   */\n      revert\n        /* \"#utility.yul\":973:1036   */\n    tag_55:\n        /* \"#utility.yul\":920:1042   */\n      pop\n      jump\t// out\n        /* \"#utility.yul\":1048:1187   */\n    tag_36:\n        /* \"#utility.yul\":1094:1099   */\n      0x00\n        /* \"#utility.yul\":1132:1138   */\n      dup2\n        /* \"#utility.yul\":1119:1139   */\n      calldataload\n        /* \"#utility.yul\":1110:1139   */\n      swap1\n      pop\n        /* \"#utility.yul\":1148:1181   */\n      tag_57\n        /* \"#utility.yul\":1175:1180   */\n      dup2\n        /* \"#utility.yul\":1148:1181   */\n      tag_35\n      jump\t// in\n    tag_57:\n        /* \"#utility.yul\":1048:1187   */\n      swap3\n      swap2\n      pop\n      pop\n      jump\t// out\n        /* \"#utility.yul\":1193:1522   */\n    tag_13:\n        /* \"#utility.yul\":1252:1258   */\n      0x00\n        /* \"#utility.yul\":1301:1303   */\n      0x20\n        /* \"#utility.yul\":1289:1298   */\n      dup3\n        /* \"#utility.yul\":1280:1287   */\n      dup5\n        /* \"#utility.yul\":1276:1299   */\n      sub\n        /* \"#utility.yul\":1272:1304   */\n      slt\n        /* \"#utility.yul\":1269:1388   */\n      iszero\n      tag_59\n      jumpi\n        /* \"#utility.yul\":1307:1386   */\n      tag_60\n      tag_33\n      jump\t// in\n    tag_60:\n        /* \"#utility.yul\":1269:1388   */\n    tag_59:\n        /* \"#utility.yul\":1427:1428   */\n      0x00\n        /* \"#utility.yul\":1452:1505   */\n      tag_61\n        /* \"#utility.yul\":1497:1504   */\n      dup5\n        /* \"#utility.yul\":1488:1494   */\n      dup3\n        /* \"#utility.yul\":1477:1486   */\n      dup6\n        /* \"#utility.yul\":1473:1495   */\n      add\n        /* \"#utility.yul\":1452:1505   */\n      tag_36\n      jump\t// in\n    tag_61:\n        /* \"#utility.yul\":1442:1505   */\n      swap2\n      pop\n        /* \"#utility.yul\":1398:1515   */\n      pop\n        /* \"#utility.yul\":1193:1522   */\n      swap3\n      swap2\n      pop\n      pop\n      jump\t// out\n        /* \"#utility.yul\":1528:1697   */\n    tag_37:\n        /* \"#utility.yul\":1612:1623   */\n      0x00\n        /* \"#utility.yul\":1646:1652   */\n      dup3\n        /* \"#utility.yul\":1641:1644   */\n      dup3\n        /* \"#utility.yul\":1634:1653   */\n      mstore\n        /* \"#utility.yul\":1686:1690   */\n      0x20\n        /* \"#utility.yul\":1681:1684   */\n      dup3\n        /* \"#utility.yul\":1677:1691   */\n      add\n        /* \"#utility.yul\":1662:1691   */\n      swap1\n      pop\n        /* \"#utility.yul\":1528:1697   */\n      swap3\n      swap2\n      pop\n      pop\n      jump\t// out\n        /* \"#utility.yul\":1703:1874   */\n    tag_38:\n        /* \"#utility.yul\":1843:1866   */\n      0x4f6e6c79206f776e65722063616e207570646174650000000000000000000000\n        /* \"#utility.yul\":1839:1840   */\n      0x00\n        /* \"#utility.yul\":1831:1837   */\n      dup3\n        /* \"#utility.yul\":1827:1841   */\n      add\n        /* \"#utility.yul\":1820:1867   */\n      mstore\n        /* \"#utility.yul\":1703:1874   */\n      pop\n      jump\t// out\n        /* \"#utility.yul\":1880:2246   */\n    tag_39:\n        /* \"#utility.yul\":2022:2025   */\n      0x00\n        /* \"#utility.yul\":2043:2110   */\n      tag_65\n        /* \"#utility.yul\":2107:2109   */\n      0x15\n        /* \"#utility.yul\":2102:2105   */\n      dup4\n        /* \"#utility.yul\":2043:2110   */\n      tag_37\n      jump\t// in\n    tag_65:\n        /* \"#utility.yul\":2036:2110   */\n      swap2\n      pop\n        /* \"#utility.yul\":2119:2212   */\n      tag_66\n        /* \"#utility.yul\":2208:2211   */\n      dup3\n        /* \"#utility.yul\":2119:2212   */\n      tag_38\n      jump\t// in\n    tag_66:\n        /* \"#utility.yul\":2237:2239   */\n      0x20\n        /* \"#utility.yul\":2232:2235   */\n      dup3\n        /* \"#utility.yul\":2228:2240   */\n      add\n        /* \"#utility.yul\":2221:2240   */\n      swap1\n      pop\n        /* \"#utility.yul\":1880:2246   */\n      swap2\n      swap1\n      pop\n      jump\t// out\n        /* \"#utility.yul\":2252:2671   */\n    tag_25:\n        /* \"#utility.yul\":2418:2422   */\n      0x00\n        /* \"#utility.yul\":2456:2458   */\n      0x20\n        /* \"#utility.yul\":2445:2454   */\n      dup3\n        /* \"#utility.yul\":2441:2459   */\n      add\n        /* \"#utility.yul\":2433:2459   */\n      swap1\n      pop\n        /* \"#utility.yul\":2505:2514   */\n      dup2\n        /* \"#utility.yul\":2499:2503   */\n      dup2\n        /* \"#utility.yul\":2495:2515   */\n      sub\n        /* \"#utility.yul\":2491:2492   */\n      0x00\n        /* \"#utility.yul\":2480:2489   */\n      dup4\n        /* \"#utility.yul\":2476:2493   */\n      add\n        /* \"#utility.yul\":2469:2516   */\n      mstore\n        /* \"#utility.yul\":2533:2664   */\n      tag_68\n        /* \"#utility.yul\":2659:2663   */\n      dup2\n        /* \"#utility.yul\":2533:2664   */\n      tag_39\n      jump\t// in\n    tag_68:\n        /* \"#utility.yul\":2525:2664   */\n      swap1\n      pop\n        /* \"#utility.yul\":2252:2671   */\n      swap2\n      swap1\n      pop\n      jump\t// out\n        /* \"#utility.yul\":2677:2851   */\n    tag_40:\n        /* \"#utility.yul\":2817:2843   */\n      0x5a65726f2061646472657373206e6f7420616c6c6f7765640000000000000000\n        /* \"#utility.yul\":2813:2814   */\n      0x00\n        /* \"#utility.yul\":2805:2811   */\n      dup3\n        /* \"#utility.yul\":2801:2815   */\n      add\n        /* \"#utility.yul\":2794:2844   */\n      mstore\n        /* \"#utility.yul\":2677:2851   */\n      pop\n      jump\t// out\n        /* \"#utility.yul\":2857:3223   */\n    tag_41:\n        /* \"#utility.yul\":2999:3002   */\n      0x00\n        /* \"#utility.yul\":3020:3087   */\n      tag_71\n        /* \"#utility.yul\":3084:3086   */\n      0x18\n        /* \"#utility.yul\":3079:3082   */\n      dup4\n        /* \"#utility.yul\":3020:3087   */\n      tag_37\n      jump\t// in\n    tag_71:\n        /* \"#utility.yul\":3013:3087   */\n      swap2\n      pop\n        /* \"#utility.yul\":3096:3189   */\n      tag_72\n        /* \"#utility.yul\":3185:3188   */\n      dup3\n        /* \"#utility.yul\":3096:3189   */\n      tag_40\n      jump\t// in\n    tag_72:\n        /* \"#utility.yul\":3214:3216   */\n      0x20\n        /* \"#utility.yul\":3209:3212   */\n      dup3\n        /* \"#utility.yul\":3205:3217   */\n      add\n        /* \"#utility.yul\":3198:3217   */\n      swap1\n      pop\n        /* \"#utility.yul\":2857:3223   */\n      swap2\n      swap1\n      pop\n      jump\t// out\n        /* \"#utility.yul\":3229:3648   */\n    tag_28:\n        /* \"#utility.yul\":3395:3399   */\n      0x00\n        /* \"#utility.yul\":3433:3435   */\n      0x20\n        /* \"#utility.yul\":3422:3431   */\n      dup3\n        /* \"#utility.yul\":3418:3436   */\n      add\n        /* \"#utility.yul\":3410:3436   */\n      swap1\n      pop\n        /* \"#utility.yul\":3482:3491   */\n      dup2\n        /* \"#utility.yul\":3476:3480   */\n      dup2\n        /* \"#utility.yul\":3472:3492   */\n      sub\n        /* \"#utility.yul\":3468:3469   */\n      0x00\n        /* \"#utility.yul\":3457:3466   */\n      dup4\n        /* \"#utility.yul\":3453:3470   */\n      add\n        /* \"#utility.yul\":3446:3493   */\n      mstore\n        /* \"#utility.yul\":3510:3641   */\n      tag_74\n        /* \"#utility.yul\":3636:3640   */\n      dup2\n        /* \"#utility.yul\":3510:3641   */\n      tag_41\n      jump\t// in\n    tag_74:\n        /* \"#utility.yul\":3502:3641   */\n      swap1\n      pop\n        /* \"#utility.yul\":3229:3648   */\n      swap2\n      swap1\n      pop\n      jump\t// out\n\n    auxdata: 0xa26469706673582212203319a12efa85961efa1bd145fc0c0116eb59398aefa09a1406cbcfa4da1256f664736f6c63430008220033\n}\n",
				"bytecode": {
					"linkReferences": {},
					"object": "6080604052348015600e575f5ffd5b50335f5f6101000a81548173ffffffffffffffffffffffffffffffffffffffff021916908373ffffffffffffffffffffffffffffffffffffffff16021790555061043b8061005b5f395ff3fe608060405234801561000f575f5ffd5b506004361061004a575f3560e01c806338cc48311461004e5780637128666b1461006c5780638da5cb5b14610088578063e4128fb3146100a6575b5f5ffd5b6100566100c4565b60405161006391906102b3565b60405180910390f35b610086600480360381019061008191906102fa565b6100ec565b005b61009061022b565b60405161009d91906102b3565b60405180910390f35b6100ae61024f565b6040516100bb91906102b3565b60405180910390f35b5f60015f9054906101000a900473ffffffffffffffffffffffffffffffffffffffff16905090565b5f5f9054906101000a900473ffffffffffffffffffffffffffffffffffffffff1673ffffffffffffffffffffffffffffffffffffffff163373ffffffffffffffffffffffffffffffffffffffff161461017a576040517f08c379a00000000000000000000000000000000000000000000000000000000081526004016101719061037f565b60405180910390fd5b5f73ffffffffffffffffffffffffffffffffffffffff168173ffffffffffffffffffffffffffffffffffffffff16036101e8576040517f08c379a00000000000000000000000000000000000000000000000000000000081526004016101df906103e7565b60405180910390fd5b8060015f6101000a81548173ffffffffffffffffffffffffffffffffffffffff021916908373ffffffffffffffffffffffffffffffffffffffff16021790555050565b5f5f9054906101000a900473ffffffffffffffffffffffffffffffffffffffff1681565b60015f9054906101000a900473ffffffffffffffffffffffffffffffffffffffff1681565b5f73ffffffffffffffffffffffffffffffffffffffff82169050919050565b5f61029d82610274565b9050919050565b6102ad81610293565b82525050565b5f6020820190506102c65f8301846102a4565b92915050565b5f5ffd5b6102d981610293565b81146102e3575f5ffd5b50565b5f813590506102f4816102d0565b92915050565b5f6020828403121561030f5761030e6102cc565b5b5f61031c848285016102e6565b91505092915050565b5f82825260208201905092915050565b7f4f6e6c79206f776e65722063616e2075706461746500000000000000000000005f82015250565b5f610369601583610325565b915061037482610335565b602082019050919050565b5f6020820190508181035f8301526103968161035d565b9050919050565b7f5a65726f2061646472657373206e6f7420616c6c6f77656400000000000000005f82015250565b5f6103d1601883610325565b91506103dc8261039d565b602082019050919050565b5f6020820190508181035f8301526103fe816103c5565b905091905056fea26469706673582212203319a12efa85961efa1bd145fc0c0116eb59398aefa09a1406cbcfa4da1256f664736f6c63430008220033",
					"opcodes": "PUSH1 0x80 PUSH1 0x40 MSTORE CALLVALUE DUP1 ISZERO PUSH1 0xE JUMPI PUSH0 PUSH0 REVERT JUMPDEST POP CALLER PUSH0 PUSH0 PUSH2 0x100 EXP DUP2 SLOAD DUP2 PUSH20 0xFFFFFFFFFFFFFFFFFFFFFFFFFFFFFFFFFFFFFFFF MUL NOT AND SWAP1 DUP4 PUSH20 0xFFFFFFFFFFFFFFFFFFFFFFFFFFFFFFFFFFFFFFFF AND MUL OR SWAP1 SSTORE POP PUSH2 0x43B DUP1 PUSH2 0x5B PUSH0 CODECOPY PUSH0 RETURN INVALID PUSH1 0x80 PUSH1 0x40 MSTORE CALLVALUE DUP1 ISZERO PUSH2 0xF JUMPI PUSH0 PUSH0 REVERT JUMPDEST POP PUSH1 0x4 CALLDATASIZE LT PUSH2 0x4A JUMPI PUSH0 CALLDATALOAD PUSH1 0xE0 SHR DUP1 PUSH4 0x38CC4831 EQ PUSH2 0x4E JUMPI DUP1 PUSH4 0x7128666B EQ PUSH2 0x6C JUMPI DUP1 PUSH4 0x8DA5CB5B EQ PUSH2 0x88 JUMPI DUP1 PUSH4 0xE4128FB3 EQ PUSH2 0xA6 JUMPI JUMPDEST PUSH0 PUSH0 REVERT JUMPDEST PUSH2 0x56 PUSH2 0xC4 JUMP JUMPDEST PUSH1 0x40 MLOAD PUSH2 0x63 SWAP2 SWAP1 PUSH2 0x2B3 JUMP JUMPDEST PUSH1 0x40 MLOAD DUP1 SWAP2 SUB SWAP1 RETURN JUMPDEST PUSH2 0x86 PUSH1 0x4 DUP1 CALLDATASIZE SUB DUP2 ADD SWAP1 PUSH2 0x81 SWAP2 SWAP1 PUSH2 0x2FA JUMP JUMPDEST PUSH2 0xEC JUMP JUMPDEST STOP JUMPDEST PUSH2 0x90 PUSH2 0x22B JUMP JUMPDEST PUSH1 0x40 MLOAD PUSH2 0x9D SWAP2 SWAP1 PUSH2 0x2B3 JUMP JUMPDEST PUSH1 0x40 MLOAD DUP1 SWAP2 SUB SWAP1 RETURN JUMPDEST PUSH2 0xAE PUSH2 0x24F JUMP JUMPDEST PUSH1 0x40 MLOAD PUSH2 0xBB SWAP2 SWAP1 PUSH2 0x2B3 JUMP JUMPDEST PUSH1 0x40 MLOAD DUP1 SWAP2 SUB SWAP1 RETURN JUMPDEST PUSH0 PUSH1 0x1 PUSH0 SWAP1 SLOAD SWAP1 PUSH2 0x100 EXP SWAP1 DIV PUSH20 0xFFFFFFFFFFFFFFFFFFFFFFFFFFFFFFFFFFFFFFFF AND SWAP1 POP SWAP1 JUMP JUMPDEST PUSH0 PUSH0 SWAP1 SLOAD SWAP1 PUSH2 0x100 EXP SWAP1 DIV PUSH20 0xFFFFFFFFFFFFFFFFFFFFFFFFFFFFFFFFFFFFFFFF AND PUSH20 0xFFFFFFFFFFFFFFFFFFFFFFFFFFFFFFFFFFFFFFFF AND CALLER PUSH20 0xFFFFFFFFFFFFFFFFFFFFFFFFFFFFFFFFFFFFFFFF AND EQ PUSH2 0x17A JUMPI PUSH1 0x40 MLOAD PUSH32 0x8C379A000000000000000000000000000000000000000000000000000000000 DUP2 MSTORE PUSH1 0x4 ADD PUSH2 0x171 SWAP1 PUSH2 0x37F JUMP JUMPDEST PUSH1 0x40 MLOAD DUP1 SWAP2 SUB SWAP1 REVERT JUMPDEST PUSH0 PUSH20 0xFFFFFFFFFFFFFFFFFFFFFFFFFFFFFFFFFFFFFFFF AND DUP2 PUSH20 0xFFFFFFFFFFFFFFFFFFFFFFFFFFFFFFFFFFFFFFFF AND SUB PUSH2 0x1E8 JUMPI PUSH1 0x40 MLOAD PUSH32 0x8C379A000000000000000000000000000000000000000000000000000000000 DUP2 MSTORE PUSH1 0x4 ADD PUSH2 0x1DF SWAP1 PUSH2 0x3E7 JUMP JUMPDEST PUSH1 0x40 MLOAD DUP1 SWAP2 SUB SWAP1 REVERT JUMPDEST DUP1 PUSH1 0x1 PUSH0 PUSH2 0x100 EXP DUP2 SLOAD DUP2 PUSH20 0xFFFFFFFFFFFFFFFFFFFFFFFFFFFFFFFFFFFFFFFF MUL NOT AND SWAP1 DUP4 PUSH20 0xFFFFFFFFFFFFFFFFFFFFFFFFFFFFFFFFFFFFFFFF AND MUL OR SWAP1 SSTORE POP POP JUMP JUMPDEST PUSH0 PUSH0 SWAP1 SLOAD SWAP1 PUSH2 0x100 EXP SWAP1 DIV PUSH20 0xFFFFFFFFFFFFFFFFFFFFFFFFFFFFFFFFFFFFFFFF AND DUP2 JUMP JUMPDEST PUSH1 0x1 PUSH0 SWAP1 SLOAD SWAP1 PUSH2 0x100 EXP SWAP1 DIV PUSH20 0xFFFFFFFFFFFFFFFFFFFFFFFFFFFFFFFFFFFFFFFF AND DUP2 JUMP JUMPDEST PUSH0 PUSH20 0xFFFFFFFFFFFFFFFFFFFFFFFFFFFFFFFFFFFFFFFF DUP3 AND SWAP1 POP SWAP2 SWAP1 POP JUMP JUMPDEST PUSH0 PUSH2 0x29D DUP3 PUSH2 0x274 JUMP JUMPDEST SWAP1 POP SWAP2 SWAP1 POP JUMP JUMPDEST PUSH2 0x2AD DUP2 PUSH2 0x293 JUMP JUMPDEST DUP3 MSTORE POP POP JUMP JUMPDEST PUSH0 PUSH1 0x20 DUP3 ADD SWAP1 POP PUSH2 0x2C6 PUSH0 DUP4 ADD DUP5 PUSH2 0x2A4 JUMP JUMPDEST SWAP3 SWAP2 POP POP JUMP JUMPDEST PUSH0 PUSH0 REVERT JUMPDEST PUSH2 0x2D9 DUP2 PUSH2 0x293 JUMP JUMPDEST DUP2 EQ PUSH2 0x2E3 JUMPI PUSH0 PUSH0 REVERT JUMPDEST POP JUMP JUMPDEST PUSH0 DUP2 CALLDATALOAD SWAP1 POP PUSH2 0x2F4 DUP2 PUSH2 0x2D0 JUMP JUMPDEST SWAP3 SWAP2 POP POP JUMP JUMPDEST PUSH0 PUSH1 0x20 DUP3 DUP5 SUB SLT ISZERO PUSH2 0x30F JUMPI PUSH2 0x30E PUSH2 0x2CC JUMP JUMPDEST JUMPDEST PUSH0 PUSH2 0x31C DUP5 DUP3 DUP6 ADD PUSH2 0x2E6 JUMP JUMPDEST SWAP2 POP POP SWAP3 SWAP2 POP POP JUMP JUMPDEST PUSH0 DUP3 DUP3 MSTORE PUSH1 0x20 DUP3 ADD SWAP1 POP SWAP3 SWAP2 POP POP JUMP JUMPDEST PUSH32 0x4F6E6C79206F776E65722063616E207570646174650000000000000000000000 PUSH0 DUP3 ADD MSTORE POP JUMP JUMPDEST PUSH0 PUSH2 0x369 PUSH1 0x15 DUP4 PUSH2 0x325 JUMP JUMPDEST SWAP2 POP PUSH2 0x374 DUP3 PUSH2 0x335 JUMP JUMPDEST PUSH1 0x20 DUP3 ADD SWAP1 POP SWAP2 SWAP1 POP JUMP JUMPDEST PUSH0 PUSH1 0x20 DUP3 ADD SWAP1 POP DUP2 DUP2 SUB PUSH0 DUP4 ADD MSTORE PUSH2 0x396 DUP2 PUSH2 0x35D JUMP JUMPDEST SWAP1 POP SWAP2 SWAP1 POP JUMP JUMPDEST PUSH32 0x5A65726F2061646472657373206E6F7420616C6C6F7765640000000000000000 PUSH0 DUP3 ADD MSTORE POP JUMP JUMPDEST PUSH0 PUSH2 0x3D1 PUSH1 0x18 DUP4 PUSH2 0x325 JUMP JUMPDEST SWAP2 POP PUSH2 0x3DC DUP3 PUSH2 0x39D JUMP JUMPDEST PUSH1 0x20 DUP3 ADD SWAP1 POP SWAP2 SWAP1 POP JUMP JUMPDEST PUSH0 PUSH1 0x20 DUP3 ADD SWAP1 POP DUP2 DUP2 SUB PUSH0 DUP4 ADD MSTORE PUSH2 0x3FE DUP2 PUSH2 0x3C5 JUMP JUMPDEST SWAP1 POP SWAP2 SWAP1 POP JUMP INVALID LOG2 PUSH5 0x6970667358 0x22 SLT KECCAK256 CALLER NOT LOG1 0x2E STATICCALL DUP6 SWAP7 CLZ STATICCALL SHL DATALOADN 0x45FC 0xC ADD AND 0xEB MSIZE CODECOPY DUP11 0xEF LOG0 SWAP11 EQ MOD 0xCB 0xCF LOG4 0xDA SLT JUMP 0xF6 PUSH5 0x736F6C6343 STOP ADDMOD 0x22 STOP CALLER "
				},
				"gasEstimates": {
					"creation": {
						"codeDepositCost": "216600",
						"executionCost": "24519",
						"totalCost": "241119"
					},
					"external": {
						"getAddress()": "2493",
						"owner()": "2529",
						"storeAddress(address)": "26917",
						"userAddress()": "2552"
					}
				},
				"methodIdentifiers": {
					"getAddress()": "38cc4831",
					"owner()": "8da5cb5b",
					"storeAddress(address)": "7128666b",
					"userAddress()": "e4128fb3"
				}
			},
			"storageLayout": {
				"storage": [
					{
						"astId": 43,
						"contract": "prac3.sol:StoreAddress",
						"label": "owner",
						"offset": 0,
						"slot": "0",
						"type": "t_address"
					},
					{
						"astId": 45,
						"contract": "prac3.sol:StoreAddress",
						"label": "userAddress",
						"offset": 0,
						"slot": "1",
						"type": "t_address"
					}
				],
				"types": {
					"t_address": {
						"encoding": "inplace",
						"label": "address",
						"numberOfBytes": "20"
					}
				}
			},
			"userdoc": {
				"kind": "user",
				"methods": {},
				"version": 1
			}
		}
	}
}