{
	"prac42.sol": {
		"InternalFunctionFlow": {
			"abi": [
				{
					"inputs": [],
					"name": "AmountTooLarge",
					"type": "error"
				},
				{
					"inputs": [],
					"name": "InvalidAmount",
					"type": "error"
				},
				{
					"inputs": [],
					"name": "MAX_CREDIT",
					"outputs": [
						{
							"internalType": "uint256",
							"name": "",
							"type": "uint256"
						}
					],
					"stateMutability": "view",
					"type": "function"
				},
				{
					"inputs": [
						{
							"internalType": "address",
							"name": "",
							"type": "address"
						}
					],
					"name": "balances",
					"outputs": [
						{
							"internalType": "uint256",
							"name": "",
							"type": "uint256"
						}
					],
					"stateMutability": "view",
					"type": "function"
				},
				{
					"inputs": [
						{
							"internalType": "uint256",
							"name": "_amount",
							"type": "uint256"
						}
					],
					"name": "deposit",
					"outputs": [],
					"stateMutability": "nonpayable",
					"type": "function"
				},
				{
					"inputs": [
						{
							"internalType": "uint256",
							"name": "_amount",
							"type": "uint256"
						}
					],
					"name": "depositWithBonus",
					"outputs": [],
					"stateMutability": "nonpayable",
					"type": "function"
				},
				{
					"inputs": [],
					"name": "totalDeposits",
					"outputs": [
						{
							"internalType": "uint256",
							"name": "",
							"type": "uint256"
						}
					],
					"stateMutability": "view",
					"type": "function"
				}
			],
			"devdoc": {
				"kind": "dev",
				"methods": {},
				"version": 1
			},
			"evm": {
				"assembly": "    /* \"prac42.sol\":12821:14476  contract InternalFunctionFlow {... */\n  mstore(0x40, 0x80)\n  callvalue\n  dup1\n  iszero\n  tag_1\n  jumpi\n  revert(0x00, 0x00)\ntag_1:\n  pop\n  dataSize(sub_0)\n  dup1\n  dataOffset(sub_0)\n  0x00\n  codecopy\n  0x00\n  return\nstop\n\nsub_0: assembly {\n        /* \"prac42.sol\":12821:14476  contract InternalFunctionFlow {... */\n      mstore(0x40, 0x80)\n      callvalue\n      dup1\n      iszero\n      tag_1\n      jumpi\n      revert(0x00, 0x00)\n    tag_1:\n      pop\n      jumpi(tag_2, lt(calldatasize, 0x04))\n      shr(0xe0, calldataload(0x00))\n      dup1\n      0xd321cd\n      eq\n      tag_3\n      jumpi\n      dup1\n      0x27e235e3\n      eq\n      tag_4\n      jumpi\n      dup1\n      0x2f7c9ed6\n      eq\n      tag_5\n      jumpi\n      dup1\n      0x7d882097\n      eq\n      tag_6\n      jumpi\n      dup1\n      0xb6b55f25\n      eq\n      tag_7\n      jumpi\n    tag_2:\n      revert(0x00, 0x00)\n        /* \"prac42.sol\":13008:13048  uint256 public constant MAX_CREDIT = 100 */\n    tag_3:\n      tag_8\n      tag_9\n      jump\t// in\n    tag_8:\n      mload(0x40)\n      tag_10\n      swap2\n      swap1\n      tag_11\n      jump\t// in\n    tag_10:\n      mload(0x40)\n      dup1\n      swap2\n      sub\n      swap1\n      return\n        /* \"prac42.sol\":12919:12962  mapping(address => uint256) public balances */\n    tag_4:\n      tag_12\n      0x04\n      dup1\n      calldatasize\n      sub\n      dup2\n      add\n      swap1\n      tag_13\n      swap2\n      swap1\n      tag_14\n      jump\t// in\n    tag_13:\n      tag_15\n      jump\t// in\n    tag_12:\n      mload(0x40)\n      tag_16\n      swap2\n      swap1\n      tag_11\n      jump\t// in\n    tag_16:\n      mload(0x40)\n      dup1\n      swap2\n      sub\n      swap1\n      return\n        /* \"prac42.sol\":13905:14473  function depositWithBonus(... */\n    tag_5:\n      tag_17\n      0x04\n      dup1\n      calldatasize\n      sub\n      dup2\n      add\n      swap1\n      tag_18\n      swap2\n      swap1\n      tag_19\n      jump\t// in\n    tag_18:\n      tag_20\n      jump\t// in\n    tag_17:\n      stop\n        /* \"prac42.sol\":12971:12999  uint256 public totalDeposits */\n    tag_6:\n      tag_21\n      tag_22\n      jump\t// in\n    tag_21:\n      mload(0x40)\n      tag_23\n      swap2\n      swap1\n      tag_11\n      jump\t// in\n    tag_23:\n      mload(0x40)\n      dup1\n      swap2\n      sub\n      swap1\n      return\n        /* \"prac42.sol\":13057:13295  function deposit(... */\n    tag_7:\n      tag_24\n      0x04\n      dup1\n      calldatasize\n      sub\n      dup2\n      add\n      swap1\n      tag_25\n      swap2\n      swap1\n      tag_19\n      jump\t// in\n    tag_25:\n      tag_26\n      jump\t// in\n    tag_24:\n      stop\n        /* \"prac42.sol\":13008:13048  uint256 public constant MAX_CREDIT = 100 */\n    tag_9:\n        /* \"prac42.sol\":13045:13048  100 */\n      0x64\n        /* \"prac42.sol\":13008:13048  uint256 public constant MAX_CREDIT = 100 */\n      dup2\n      jump\t// out\n        /* \"prac42.sol\":12919:12962  mapping(address => uint256) public balances */\n    tag_15:\n      mstore(0x20, 0x00)\n      dup1\n      0x00\n      mstore\n      keccak256(0x00, 0x40)\n      0x00\n      swap2\n      pop\n      swap1\n      pop\n      sload\n      dup2\n      jump\t// out\n        /* \"prac42.sol\":13905:14473  function depositWithBonus(... */\n    tag_20:\n        /* \"prac42.sol\":13998:14022  _validateAmount(_amount) */\n      tag_28\n        /* \"prac42.sol\":14014:14021  _amount */\n      dup2\n        /* \"prac42.sol\":13998:14013  _validateAmount */\n      tag_29\n        /* \"prac42.sol\":13998:14022  _validateAmount(_amount) */\n      jump\t// in\n    tag_28:\n        /* \"prac42.sol\":14035:14048  uint256 bonus */\n      0x00\n        /* \"prac42.sol\":14064:14088  _calculateBonus(_amount) */\n      tag_30\n        /* \"prac42.sol\":14080:14087  _amount */\n      dup3\n        /* \"prac42.sol\":14064:14079  _calculateBonus */\n      tag_31\n        /* \"prac42.sol\":14064:14088  _calculateBonus(_amount) */\n      jump\t// in\n    tag_30:\n        /* \"prac42.sol\":14035:14088  uint256 bonus =... */\n      swap1\n      pop\n        /* \"prac42.sol\":14101:14120  uint256 finalAmount */\n      0x00\n        /* \"prac42.sol\":14146:14151  bonus */\n      dup2\n        /* \"prac42.sol\":14136:14143  _amount */\n      dup4\n        /* \"prac42.sol\":14136:14151  _amount + bonus */\n      tag_32\n      swap2\n      swap1\n      tag_33\n      jump\t// in\n    tag_32:\n        /* \"prac42.sol\":14101:14151  uint256 finalAmount =... */\n      swap1\n      pop\n        /* \"prac42.sol\":13045:13048  100 */\n      0x64\n        /* \"prac42.sol\":14250:14261  finalAmount */\n      dup2\n        /* \"prac42.sol\":14250:14274  finalAmount > MAX_CREDIT */\n      gt\n        /* \"prac42.sol\":14232:14336  if (... */\n      iszero\n      tag_34\n      jumpi\n        /* \"prac42.sol\":14308:14324  AmountTooLarge() */\n      mload(0x40)\n      0x0625040100000000000000000000000000000000000000000000000000000000\n      dup2\n      mstore\n      0x04\n      add\n      mload(0x40)\n      dup1\n      swap2\n      sub\n      swap1\n      revert\n        /* \"prac42.sol\":14232:14336  if (... */\n    tag_34:\n        /* \"prac42.sol\":14348:14424  _updateBalance(... */\n      tag_35\n        /* \"prac42.sol\":14377:14387  msg.sender */\n      caller\n        /* \"prac42.sol\":14402:14413  finalAmount */\n      dup3\n        /* \"prac42.sol\":14348:14362  _updateBalance */\n      tag_36\n        /* \"prac42.sol\":14348:14424  _updateBalance(... */\n      jump\t// in\n    tag_35:\n        /* \"prac42.sol\":14454:14465  finalAmount */\n      dup1\n        /* \"prac42.sol\":14437:14450  totalDeposits */\n      0x01\n      0x00\n        /* \"prac42.sol\":14437:14465  totalDeposits += finalAmount */\n      dup3\n      dup3\n      sload\n      tag_37\n      swap2\n      swap1\n      tag_33\n      jump\t// in\n    tag_37:\n      swap3\n      pop\n      pop\n      dup2\n      swap1\n      sstore\n      pop\n        /* \"prac42.sol\":13987:14473  {... */\n      pop\n      pop\n        /* \"prac42.sol\":13905:14473  function depositWithBonus(... */\n      pop\n      jump\t// out\n        /* \"prac42.sol\":12971:12999  uint256 public totalDeposits */\n    tag_22:\n      sload(0x01)\n      dup2\n      jump\t// out\n        /* \"prac42.sol\":13057:13295  function deposit(... */\n    tag_26:\n        /* \"prac42.sol\":13141:13165  _validateAmount(_amount) */\n      tag_39\n        /* \"prac42.sol\":13157:13164  _amount */\n      dup2\n        /* \"prac42.sol\":13141:13156  _validateAmount */\n      tag_29\n        /* \"prac42.sol\":13141:13165  _validateAmount(_amount) */\n      jump\t// in\n    tag_39:\n        /* \"prac42.sol\":13178:13250  _updateBalance(... */\n      tag_40\n        /* \"prac42.sol\":13207:13217  msg.sender */\n      caller\n        /* \"prac42.sol\":13232:13239  _amount */\n      dup3\n        /* \"prac42.sol\":13178:13192  _updateBalance */\n      tag_36\n        /* \"prac42.sol\":13178:13250  _updateBalance(... */\n      jump\t// in\n    tag_40:\n        /* \"prac42.sol\":13280:13287  _amount */\n      dup1\n        /* \"prac42.sol\":13263:13276  totalDeposits */\n      0x01\n      0x00\n        /* \"prac42.sol\":13263:13287  totalDeposits += _amount */\n      dup3\n      dup3\n      sload\n      tag_41\n      swap2\n      swap1\n      tag_33\n      jump\t// in\n    tag_41:\n      swap3\n      pop\n      pop\n      dup2\n      swap1\n      sstore\n      pop\n        /* \"prac42.sol\":13057:13295  function deposit(... */\n      pop\n      jump\t// out\n        /* \"prac42.sol\":13303:13564  function _validateAmount(... */\n    tag_29:\n        /* \"prac42.sol\":13424:13425  0 */\n      0x00\n        /* \"prac42.sol\":13413:13420  _amount */\n      dup2\n        /* \"prac42.sol\":13413:13425  _amount == 0 */\n      sub\n        /* \"prac42.sol\":13409:13476  if (_amount == 0) {... */\n      tag_43\n      jumpi\n        /* \"prac42.sol\":13449:13464  InvalidAmount() */\n      mload(0x40)\n      0x2c5211c600000000000000000000000000000000000000000000000000000000\n      dup2\n      mstore\n      0x04\n      add\n      mload(0x40)\n      dup1\n      swap2\n      sub\n      swap1\n      revert\n        /* \"prac42.sol\":13409:13476  if (_amount == 0) {... */\n    tag_43:\n        /* \"prac42.sol\":13502:13505  100 */\n      0x64\n        /* \"prac42.sol\":13492:13499  _amount */\n      dup2\n        /* \"prac42.sol\":13492:13505  _amount > 100 */\n      gt\n        /* \"prac42.sol\":13488:13557  if (_amount > 100) {... */\n      iszero\n      tag_44\n      jumpi\n        /* \"prac42.sol\":13529:13545  AmountTooLarge() */\n      mload(0x40)\n      0x0625040100000000000000000000000000000000000000000000000000000000\n      dup2\n      mstore\n      0x04\n      add\n      mload(0x40)\n      dup1\n      swap2\n      sub\n      swap1\n      revert\n        /* \"prac42.sol\":13488:13557  if (_amount > 100) {... */\n    tag_44:\n        /* \"prac42.sol\":13303:13564  function _validateAmount(... */\n      pop\n      jump\t// out\n        /* \"prac42.sol\":13729:13897  function _calculateBonus(... */\n    tag_31:\n        /* \"prac42.sol\":13837:13844  uint256 */\n      0x00\n        /* \"prac42.sol\":13886:13889  100 */\n      0x64\n        /* \"prac42.sol\":13880:13882  10 */\n      0x0a\n        /* \"prac42.sol\":13870:13877  _amount */\n      dup4\n        /* \"prac42.sol\":13870:13882  _amount * 10 */\n      tag_46\n      swap2\n      swap1\n      tag_47\n      jump\t// in\n    tag_46:\n        /* \"prac42.sol\":13869:13889  (_amount * 10) / 100 */\n      tag_48\n      swap2\n      swap1\n      tag_49\n      jump\t// in\n    tag_48:\n        /* \"prac42.sol\":13862:13889  return (_amount * 10) / 100 */\n      swap1\n      pop\n        /* \"prac42.sol\":13729:13897  function _calculateBonus(... */\n      swap2\n      swap1\n      pop\n      jump\t// out\n        /* \"prac42.sol\":13572:13721  function _updateBalance(... */\n    tag_36:\n        /* \"prac42.sol\":13706:13713  _amount */\n      dup1\n        /* \"prac42.sol\":13687:13695  balances */\n      0x00\n        /* \"prac42.sol\":13687:13702  balances[_user] */\n      0x00\n        /* \"prac42.sol\":13696:13701  _user */\n      dup5\n        /* \"prac42.sol\":13687:13702  balances[_user] */\n      0xffffffffffffffffffffffffffffffffffffffff\n      and\n      0xffffffffffffffffffffffffffffffffffffffff\n      and\n      dup2\n      mstore\n      0x20\n      add\n      swap1\n      dup2\n      mstore\n      0x20\n      add\n      0x00\n      keccak256\n      0x00\n        /* \"prac42.sol\":13687:13713  balances[_user] += _amount */\n      dup3\n      dup3\n      sload\n      tag_51\n      swap2\n      swap1\n      tag_33\n      jump\t// in\n    tag_51:\n      swap3\n      pop\n      pop\n      dup2\n      swap1\n      sstore\n      pop\n        /* \"prac42.sol\":13572:13721  function _updateBalance(... */\n      pop\n      pop\n      jump\t// out\n        /* \"#utility.yul\":7:84   */\n    tag_52:\n        /* \"#utility.yul\":44:51   */\n      0x00\n        /* \"#utility.yul\":73:78   */\n      dup2\n        /* \"#utility.yul\":62:78   */\n      swap1\n      pop\n        /* \"#utility.yul\":7:84   */\n      swap2\n      swap1\n      pop\n      jump\t// out\n        /* \"#utility.yul\":90:208   */\n    tag_53:\n        /* \"#utility.yul\":177:201   */\n      tag_68\n        /* \"#utility.yul\":195:200   */\n      dup2\n        /* \"#utility.yul\":177:201   */\n      tag_52\n      jump\t// in\n    tag_68:\n        /* \"#utility.yul\":172:175   */\n      dup3\n        /* \"#utility.yul\":165:202   */\n      mstore\n        /* \"#utility.yul\":90:208   */\n      pop\n      pop\n      jump\t// out\n        /* \"#utility.yul\":214:436   */\n    tag_11:\n        /* \"#utility.yul\":307:311   */\n      0x00\n        /* \"#utility.yul\":345:347   */\n      0x20\n        /* \"#utility.yul\":334:343   */\n      dup3\n        /* \"#utility.yul\":330:348   */\n      add\n        /* \"#utility.yul\":322:348   */\n      swap1\n      pop\n        /* \"#utility.yul\":358:429   */\n      tag_70\n        /* \"#utility.yul\":426:427   */\n      0x00\n        /* \"#utility.yul\":415:424   */\n      dup4\n        /* \"#utility.yul\":411:428   */\n      add\n        /* \"#utility.yul\":402:408   */\n      dup5\n        /* \"#utility.yul\":358:429   */\n      tag_53\n      jump\t// in\n    tag_70:\n        /* \"#utility.yul\":214:436   */\n      swap3\n      swap2\n      pop\n      pop\n      jump\t// out\n        /* \"#utility.yul\":523:640   */\n    tag_55:\n        /* \"#utility.yul\":632:633   */\n      0x00\n        /* \"#utility.yul\":629:630   */\n      0x00\n        /* \"#utility.yul\":622:634   */\n      revert\n        /* \"#utility.yul\":769:895   */\n    tag_57:\n        /* \"#utility.yul\":806:813   */\n      0x00\n        /* \"#utility.yul\":846:888   */\n      0xffffffffffffffffffffffffffffffffffffffff\n        /* \"#utility.yul\":839:844   */\n      dup3\n        /* \"#utility.yul\":835:889   */\n      and\n        /* \"#utility.yul\":824:889   */\n      swap1\n      pop\n        /* \"#utility.yul\":769:895   */\n      swap2\n      swap1\n      pop\n      jump\t// out\n        /* \"#utility.yul\":901:997   */\n    tag_58:\n        /* \"#utility.yul\":938:945   */\n      0x00\n        /* \"#utility.yul\":967:991   */\n      tag_76\n        /* \"#utility.yul\":985:990   */\n      dup3\n        /* \"#utility.yul\":967:991   */\n      tag_57\n      jump\t// in\n    tag_76:\n        /* \"#utility.yul\":956:991   */\n      swap1\n      pop\n        /* \"#utility.yul\":901:997   */\n      swap2\n      swap1\n      pop\n      jump\t// out\n        /* \"#utility.yul\":1003:1125   */\n    tag_59:\n        /* \"#utility.yul\":1076:1100   */\n      tag_78\n        /* \"#utility.yul\":1094:1099   */\n      dup2\n        /* \"#utility.yul\":1076:1100   */\n      tag_58\n      jump\t// in\n    tag_78:\n        /* \"#utility.yul\":1069:1074   */\n      dup2\n        /* \"#utility.yul\":1066:1101   */\n      eq\n        /* \"#utility.yul\":1056:1119   */\n      tag_79\n      jumpi\n        /* \"#utility.yul\":1115:1116   */\n      0x00\n        /* \"#utility.yul\":1112:1113   */\n      0x00\n        /* \"#utility.yul\":1105:1117   */\n      revert\n        /* \"#utility.yul\":1056:1119   */\n    tag_79:\n        /* \"#utility.yul\":1003:1125   */\n      pop\n      jump\t// out\n        /* \"#utility.yul\":1131:1270   */\n    tag_60:\n        /* \"#utility.yul\":1177:1182   */\n      0x00\n        /* \"#utility.yul\":1215:1221   */\n      dup2\n        /* \"#utility.yul\":1202:1222   */\n      calldataload\n        /* \"#utility.yul\":1193:1222   */\n      swap1\n      pop\n        /* \"#utility.yul\":1231:1264   */\n      tag_81\n        /* \"#utility.yul\":1258:1263   */\n      dup2\n        /* \"#utility.yul\":1231:1264   */\n      tag_59\n      jump\t// in\n    tag_81:\n        /* \"#utility.yul\":1131:1270   */\n      swap3\n      swap2\n      pop\n      pop\n      jump\t// out\n        /* \"#utility.yul\":1276:1605   */\n    tag_14:\n        /* \"#utility.yul\":1335:1341   */\n      0x00\n        /* \"#utility.yul\":1384:1386   */\n      0x20\n        /* \"#utility.yul\":1372:1381   */\n      dup3\n        /* \"#utility.yul\":1363:1370   */\n      dup5\n        /* \"#utility.yul\":1359:1382   */\n      sub\n        /* \"#utility.yul\":1355:1387   */\n      slt\n        /* \"#utility.yul\":1352:1471   */\n      iszero\n      tag_83\n      jumpi\n        /* \"#utility.yul\":1390:1469   */\n      tag_84\n      tag_55\n      jump\t// in\n    tag_84:\n        /* \"#utility.yul\":1352:1471   */\n    tag_83:\n        /* \"#utility.yul\":1510:1511   */\n      0x00\n        /* \"#utility.yul\":1535:1588   */\n      tag_85\n        /* \"#utility.yul\":1580:1587   */\n      dup5\n        /* \"#utility.yul\":1571:1577   */\n      dup3\n        /* \"#utility.yul\":1560:1569   */\n      dup6\n        /* \"#utility.yul\":1556:1578   */\n      add\n        /* \"#utility.yul\":1535:1588   */\n      tag_60\n      jump\t// in\n    tag_85:\n        /* \"#utility.yul\":1525:1588   */\n      swap2\n      pop\n        /* \"#utility.yul\":1481:1598   */\n      pop\n        /* \"#utility.yul\":1276:1605   */\n      swap3\n      swap2\n      pop\n      pop\n      jump\t// out\n        /* \"#utility.yul\":1611:1733   */\n    tag_61:\n        /* \"#utility.yul\":1684:1708   */\n      tag_87\n        /* \"#utility.yul\":1702:1707   */\n      dup2\n        /* \"#utility.yul\":1684:1708   */\n      tag_52\n      jump\t// in\n    tag_87:\n        /* \"#utility.yul\":1677:1682   */\n      dup2\n        /* \"#utility.yul\":1674:1709   */\n      eq\n        /* \"#utility.yul\":1664:1727   */\n      tag_88\n      jumpi\n        /* \"#utility.yul\":1723:1724   */\n      0x00\n        /* \"#utility.yul\":1720:1721   */\n      0x00\n        /* \"#utility.yul\":1713:1725   */\n      revert\n        /* \"#utility.yul\":1664:1727   */\n    tag_88:\n        /* \"#utility.yul\":1611:1733   */\n      pop\n      jump\t// out\n        /* \"#utility.yul\":1739:1878   */\n    tag_62:\n        /* \"#utility.yul\":1785:1790   */\n      0x00\n        /* \"#utility.yul\":1823:1829   */\n      dup2\n        /* \"#utility.yul\":1810:1830   */\n      calldataload\n        /* \"#utility.yul\":1801:1830   */\n      swap1\n      pop\n        /* \"#utility.yul\":1839:1872   */\n      tag_90\n        /* \"#utility.yul\":1866:1871   */\n      dup2\n        /* \"#utility.yul\":1839:1872   */\n      tag_61\n      jump\t// in\n    tag_90:\n        /* \"#utility.yul\":1739:1878   */\n      swap3\n      swap2\n      pop\n      pop\n      jump\t// out\n        /* \"#utility.yul\":1884:2213   */\n    tag_19:\n        /* \"#utility.yul\":1943:1949   */\n      0x00\n        /* \"#utility.yul\":1992:1994   */\n      0x20\n        /* \"#utility.yul\":1980:1989   */\n      dup3\n        /* \"#utility.yul\":1971:1978   */\n      dup5\n        /* \"#utility.yul\":1967:1990   */\n      sub\n        /* \"#utility.yul\":1963:1995   */\n      slt\n        /* \"#utility.yul\":1960:2079   */\n      iszero\n      tag_92\n      jumpi\n        /* \"#utility.yul\":1998:2077   */\n      tag_93\n      tag_55\n      jump\t// in\n    tag_93:\n        /* \"#utility.yul\":1960:2079   */\n    tag_92:\n        /* \"#utility.yul\":2118:2119   */\n      0x00\n        /* \"#utility.yul\":2143:2196   */\n      tag_94\n        /* \"#utility.yul\":2188:2195   */\n      dup5\n        /* \"#utility.yul\":2179:2185   */\n      dup3\n        /* \"#utility.yul\":2168:2177   */\n      dup6\n        /* \"#utility.yul\":2164:2186   */\n      add\n        /* \"#utility.yul\":2143:2196   */\n      tag_62\n      jump\t// in\n    tag_94:\n        /* \"#utility.yul\":2133:2196   */\n      swap2\n      pop\n        /* \"#utility.yul\":2089:2206   */\n      pop\n        /* \"#utility.yul\":1884:2213   */\n      swap3\n      swap2\n      pop\n      pop\n      jump\t// out\n        /* \"#utility.yul\":2219:2399   */\n    tag_63:\n        /* \"#utility.yul\":2267:2344   */\n      0x4e487b7100000000000000000000000000000000000000000000000000000000\n        /* \"#utility.yul\":2264:2265   */\n      0x00\n        /* \"#utility.yul\":2257:2345   */\n      mstore\n        /* \"#utility.yul\":2364:2368   */\n      0x11\n        /* \"#utility.yul\":2361:2362   */\n      0x04\n        /* \"#utility.yul\":2354:2369   */\n      mstore\n        /* \"#utility.yul\":2388:2392   */\n      0x24\n        /* \"#utility.yul\":2385:2386   */\n      0x00\n        /* \"#utility.yul\":2378:2393   */\n      revert\n        /* \"#utility.yul\":2405:2596   */\n    tag_33:\n        /* \"#utility.yul\":2445:2448   */\n      0x00\n        /* \"#utility.yul\":2464:2484   */\n      tag_97\n        /* \"#utility.yul\":2482:2483   */\n      dup3\n        /* \"#utility.yul\":2464:2484   */\n      tag_52\n      jump\t// in\n    tag_97:\n        /* \"#utility.yul\":2459:2484   */\n      swap2\n      pop\n        /* \"#utility.yul\":2498:2518   */\n      tag_98\n        /* \"#utility.yul\":2516:2517   */\n      dup4\n        /* \"#utility.yul\":2498:2518   */\n      tag_52\n      jump\t// in\n    tag_98:\n        /* \"#utility.yul\":2493:2518   */\n      swap3\n      pop\n        /* \"#utility.yul\":2541:2542   */\n      dup3\n        /* \"#utility.yul\":2538:2539   */\n      dup3\n        /* \"#utility.yul\":2534:2543   */\n      add\n        /* \"#utility.yul\":2527:2543   */\n      swap1\n      pop\n        /* \"#utility.yul\":2562:2565   */\n      dup1\n        /* \"#utility.yul\":2559:2560   */\n      dup3\n        /* \"#utility.yul\":2556:2566   */\n      gt\n        /* \"#utility.yul\":2553:2589   */\n      iszero\n      tag_99\n      jumpi\n        /* \"#utility.yul\":2569:2587   */\n      tag_100\n      tag_63\n      jump\t// in\n    tag_100:\n        /* \"#utility.yul\":2553:2589   */\n    tag_99:\n        /* \"#utility.yul\":2405:2596   */\n      swap3\n      swap2\n      pop\n      pop\n      jump\t// out\n        /* \"#utility.yul\":2602:3012   */\n    tag_47:\n        /* \"#utility.yul\":2642:2649   */\n      0x00\n        /* \"#utility.yul\":2665:2685   */\n      tag_102\n        /* \"#utility.yul\":2683:2684   */\n      dup3\n        /* \"#utility.yul\":2665:2685   */\n      tag_52\n      jump\t// in\n    tag_102:\n        /* \"#utility.yul\":2660:2685   */\n      swap2\n      pop\n        /* \"#utility.yul\":2699:2719   */\n      tag_103\n        /* \"#utility.yul\":2717:2718   */\n      dup4\n        /* \"#utility.yul\":2699:2719   */\n      tag_52\n      jump\t// in\n    tag_103:\n        /* \"#utility.yul\":2694:2719   */\n      swap3\n      pop\n        /* \"#utility.yul\":2754:2755   */\n      dup3\n        /* \"#utility.yul\":2751:2752   */\n      dup3\n        /* \"#utility.yul\":2747:2756   */\n      mul\n        /* \"#utility.yul\":2776:2806   */\n      tag_104\n        /* \"#utility.yul\":2794:2805   */\n      dup2\n        /* \"#utility.yul\":2776:2806   */\n      tag_52\n      jump\t// in\n    tag_104:\n        /* \"#utility.yul\":2765:2806   */\n      swap2\n      pop\n        /* \"#utility.yul\":2955:2956   */\n      dup3\n        /* \"#utility.yul\":2946:2953   */\n      dup3\n        /* \"#utility.yul\":2942:2957   */\n      div\n        /* \"#utility.yul\":2939:2940   */\n      dup5\n        /* \"#utility.yul\":2936:2958   */\n      eq\n        /* \"#utility.yul\":2916:2917   */\n      dup4\n        /* \"#utility.yul\":2909:2918   */\n      iszero\n        /* \"#utility.yul\":2889:2972   */\n      or\n        /* \"#utility.yul\":2866:3005   */\n      tag_105\n      jumpi\n        /* \"#utility.yul\":2985:3003   */\n      tag_106\n      tag_63\n      jump\t// in\n    tag_106:\n        /* \"#utility.yul\":2866:3005   */\n    tag_105:\n        /* \"#utility.yul\":2650:3012   */\n      pop\n        /* \"#utility.yul\":2602:3012   */\n      swap3\n      swap2\n      pop\n      pop\n      jump\t// out\n        /* \"#utility.yul\":3018:3198   */\n    tag_64:\n        /* \"#utility.yul\":3066:3143   */\n      0x4e487b7100000000000000000000000000000000000000000000000000000000\n        /* \"#utility.yul\":3063:3064   */\n      0x00\n        /* \"#utility.yul\":3056:3144   */\n      mstore\n        /* \"#utility.yul\":3163:3167   */\n      0x12\n        /* \"#utility.yul\":3160:3161   */\n      0x04\n        /* \"#utility.yul\":3153:3168   */\n      mstore\n        /* \"#utility.yul\":3187:3191   */\n      0x24\n        /* \"#utility.yul\":3184:3185   */\n      0x00\n        /* \"#utility.yul\":3177:3192   */\n      revert\n        /* \"#utility.yul\":3204:3389   */\n    tag_49:\n        /* \"#utility.yul\":3244:3245   */\n      0x00\n        /* \"#utility.yul\":3261:3281   */\n      tag_109\n        /* \"#utility.yul\":3279:3280   */\n      dup3\n        /* \"#utility.yul\":3261:3281   */\n      tag_52\n      jump\t// in\n    tag_109:\n        /* \"#utility.yul\":3256:3281   */\n      swap2\n      pop\n        /* \"#utility.yul\":3295:3315   */\n      tag_110\n        /* \"#utility.yul\":3313:3314   */\n      dup4\n        /* \"#utility.yul\":3295:3315   */\n      tag_52\n      jump\t// in\n    tag_110:\n        /* \"#utility.yul\":3290:3315   */\n      swap3\n      pop\n        /* \"#utility.yul\":3334:3335   */\n      dup3\n        /* \"#utility.yul\":3324:3359   */\n      tag_111\n      jumpi\n        /* \"#utility.yul\":3339:3357   */\n      tag_112\n      tag_64\n      jump\t// in\n    tag_112:\n        /* \"#utility.yul\":3324:3359   */\n    tag_111:\n        /* \"#utility.yul\":3381:3382   */\n      dup3\n        /* \"#utility.yul\":3378:3379   */\n      dup3\n        /* \"#utility.yul\":3374:3383   */\n      div\n        /* \"#utility.yul\":3369:3383   */\n      swap1\n      pop\n        /* \"#utility.yul\":3204:3389   */\n      swap3\n      swap2\n      pop\n      pop\n      jump\t// out\n\n    auxdata: 0xa2646970667358221220a774096c0e15d2e4237fe8a2acbb5acaac1d634819aeb6f86a36725ccbe5625564736f6c63430008220033\n}\n",
				"bytecode": {
					"linkReferences": {},
					"object": "6080604052348015600e575f5ffd5b506105008061001c5f395ff3fe608060405234801561000f575f5ffd5b5060043610610054575f3560e01c8062d321cd1461005857806327e235e3146100765780632f7c9ed6146100a65780637d882097146100c2578063b6b55f25146100e0575b5f5ffd5b6100606100fc565b60405161006d91906102d5565b60405180910390f35b610090600480360381019061008b919061034c565b610101565b60405161009d91906102d5565b60405180910390f35b6100c060048036038101906100bb91906103a1565b610115565b005b6100ca61019b565b6040516100d791906102d5565b60405180910390f35b6100fa60048036038101906100f591906103a1565b6101a1565b005b606481565b5f602052805f5260405f205f915090505481565b61011e816101cf565b5f61012882610246565b90505f818361013791906103f9565b90506064811115610174576040517f0625040100000000000000000000000000000000000000000000000000000000815260040160405180910390fd5b61017e3382610267565b8060015f82825461018f91906103f9565b92505081905550505050565b60015481565b6101aa816101cf565b6101b43382610267565b8060015f8282546101c591906103f9565b9250508190555050565b5f8103610208576040517f2c5211c600000000000000000000000000000000000000000000000000000000815260040160405180910390fd5b6064811115610243576040517f0625040100000000000000000000000000000000000000000000000000000000815260040160405180910390fd5b50565b5f6064600a83610256919061042c565b610260919061049a565b9050919050565b805f5f8473ffffffffffffffffffffffffffffffffffffffff1673ffffffffffffffffffffffffffffffffffffffff1681526020019081526020015f205f8282546102b291906103f9565b925050819055505050565b5f819050919050565b6102cf816102bd565b82525050565b5f6020820190506102e85f8301846102c6565b92915050565b5f5ffd5b5f73ffffffffffffffffffffffffffffffffffffffff82169050919050565b5f61031b826102f2565b9050919050565b61032b81610311565b8114610335575f5ffd5b50565b5f8135905061034681610322565b92915050565b5f60208284031215610361576103606102ee565b5b5f61036e84828501610338565b91505092915050565b610380816102bd565b811461038a575f5ffd5b50565b5f8135905061039b81610377565b92915050565b5f602082840312156103b6576103b56102ee565b5b5f6103c38482850161038d565b91505092915050565b7f4e487b71000000000000000000000000000000000000000000000000000000005f52601160045260245ffd5b5f610403826102bd565b915061040e836102bd565b9250828201905080821115610426576104256103cc565b5b92915050565b5f610436826102bd565b9150610441836102bd565b925082820261044f816102bd565b91508282048414831517610466576104656103cc565b5b5092915050565b7f4e487b71000000000000000000000000000000000000000000000000000000005f52601260045260245ffd5b5f6104a4826102bd565b91506104af836102bd565b9250826104bf576104be61046d565b5b82820490509291505056fea2646970667358221220a774096c0e15d2e4237fe8a2acbb5acaac1d634819aeb6f86a36725ccbe5625564736f6c63430008220033",
					"opcodes": "PUSH1 0x80 PUSH1 0x40 MSTORE CALLVALUE DUP1 ISZERO PUSH1 0xE JUMPI PUSH0 PUSH0 REVERT JUMPDEST POP PUSH2 0x500 DUP1 PUSH2 0x1C PUSH0 CODECOPY PUSH0 RETURN INVALID PUSH1 0x80 PUSH1 0x40 MSTORE CALLVALUE DUP1 ISZERO PUSH2 0xF JUMPI PUSH0 PUSH0 REVERT JUMPDEST POP PUSH1 0x4 CALLDATASIZE LT PUSH2 0x54 JUMPI PUSH0 CALLDATALOAD PUSH1 0xE0 SHR DUP1 PUSH3 0xD321CD EQ PUSH2 0x58 JUMPI DUP1 PUSH4 0x27E235E3 EQ PUSH2 0x76 JUMPI DUP1 PUSH4 0x2F7C9ED6 EQ PUSH2 0xA6 JUMPI DUP1 PUSH4 0x7D882097 EQ PUSH2 0xC2 JUMPI DUP1 PUSH4 0xB6B55F25 EQ PUSH2 0xE0 JUMPI JUMPDEST PUSH0 PUSH0 REVERT JUMPDEST PUSH2 0x60 PUSH2 0xFC JUMP JUMPDEST PUSH1 0x40 MLOAD PUSH2 0x6D SWAP2 SWAP1 PUSH2 0x2D5 JUMP JUMPDEST PUSH1 0x40 MLOAD DUP1 SWAP2 SUB SWAP1 RETURN JUMPDEST PUSH2 0x90 PUSH1 0x4 DUP1 CALLDATASIZE SUB DUP2 ADD SWAP1 PUSH2 0x8B SWAP2 SWAP1 PUSH2 0x34C JUMP JUMPDEST PUSH2 0x101 JUMP JUMPDEST PUSH1 0x40 MLOAD PUSH2 0x9D SWAP2 SWAP1 PUSH2 0x2D5 JUMP JUMPDEST PUSH1 0x40 MLOAD DUP1 SWAP2 SUB SWAP1 RETURN JUMPDEST PUSH2 0xC0 PUSH1 0x4 DUP1 CALLDATASIZE SUB DUP2 ADD SWAP1 PUSH2 0xBB SWAP2 SWAP1 PUSH2 0x3A1 JUMP JUMPDEST PUSH2 0x115 JUMP JUMPDEST STOP JUMPDEST PUSH2 0xCA PUSH2 0x19B JUMP JUMPDEST PUSH1 0x40 MLOAD PUSH2 0xD7 SWAP2 SWAP1 PUSH2 0x2D5 JUMP JUMPDEST PUSH1 0x40 MLOAD DUP1 SWAP2 SUB SWAP1 RETURN JUMPDEST PUSH2 0xFA PUSH1 0x4 DUP1 CALLDATASIZE SUB DUP2 ADD SWAP1 PUSH2 0xF5 SWAP2 SWAP1 PUSH2 0x3A1 JUMP JUMPDEST PUSH2 0x1A1 JUMP JUMPDEST STOP JUMPDEST PUSH1 0x64 DUP2 JUMP JUMPDEST PUSH0 PUSH1 0x20 MSTORE DUP1 PUSH0 MSTORE PUSH1 0x40 PUSH0 KECCAK256 PUSH0 SWAP2 POP SWAP1 POP SLOAD DUP2 JUMP JUMPDEST PUSH2 0x11E DUP2 PUSH2 0x1CF JUMP JUMPDEST PUSH0 PUSH2 0x128 DUP3 PUSH2 0x246 JUMP JUMPDEST SWAP1 POP PUSH0 DUP2 DUP4 PUSH2 0x137 SWAP2 SWAP1 PUSH2 0x3F9 JUMP JUMPDEST SWAP1 POP PUSH1 0x64 DUP2 GT ISZERO PUSH2 0x174 JUMPI PUSH1 0x40 MLOAD PUSH32 0x625040100000000000000000000000000000000000000000000000000000000 DUP2 MSTORE PUSH1 0x4 ADD PUSH1 0x40 MLOAD DUP1 SWAP2 SUB SWAP1 REVERT JUMPDEST PUSH2 0x17E CALLER DUP3 PUSH2 0x267 JUMP JUMPDEST DUP1 PUSH1 0x1 PUSH0 DUP3 DUP3 SLOAD PUSH2 0x18F SWAP2 SWAP1 PUSH2 0x3F9 JUMP JUMPDEST SWAP3 POP POP DUP2 SWAP1 SSTORE POP POP POP POP JUMP JUMPDEST PUSH1 0x1 SLOAD DUP2 JUMP JUMPDEST PUSH2 0x1AA DUP2 PUSH2 0x1CF JUMP JUMPDEST PUSH2 0x1B4 CALLER DUP3 PUSH2 0x267 JUMP JUMPDEST DUP1 PUSH1 0x1 PUSH0 DUP3 DUP3 SLOAD PUSH2 0x1C5 SWAP2 SWAP1 PUSH2 0x3F9 JUMP JUMPDEST SWAP3 POP POP DUP2 SWAP1 SSTORE POP POP JUMP JUMPDEST PUSH0 DUP2 SUB PUSH2 0x208 JUMPI PUSH1 0x40 MLOAD PUSH32 0x2C5211C600000000000000000000000000000000000000000000000000000000 DUP2 MSTORE PUSH1 0x4 ADD PUSH1 0x40 MLOAD DUP1 SWAP2 SUB SWAP1 REVERT JUMPDEST PUSH1 0x64 DUP2 GT ISZERO PUSH2 0x243 JUMPI PUSH1 0x40 MLOAD PUSH32 0x625040100000000000000000000000000000000000000000000000000000000 DUP2 MSTORE PUSH1 0x4 ADD PUSH1 0x40 MLOAD DUP1 SWAP2 SUB SWAP1 REVERT JUMPDEST POP JUMP JUMPDEST PUSH0 PUSH1 0x64 PUSH1 0xA DUP4 PUSH2 0x256 SWAP2 SWAP1 PUSH2 0x42C JUMP JUMPDEST PUSH2 0x260 SWAP2 SWAP1 PUSH2 0x49A JUMP JUMPDEST SWAP1 POP SWAP2 SWAP1 POP JUMP JUMPDEST DUP1 PUSH0 PUSH0 DUP5 PUSH20 0xFFFFFFFFFFFFFFFFFFFFFFFFFFFFFFFFFFFFFFFF AND PUSH20 0xFFFFFFFFFFFFFFFFFFFFFFFFFFFFFFFFFFFFFFFF AND DUP2 MSTORE PUSH1 0x20 ADD SWAP1 DUP2 MSTORE PUSH1 0x20 ADD PUSH0 KECCAK256 PUSH0 DUP3 DUP3 SLOAD PUSH2 0x2B2 SWAP2 SWAP1 PUSH2 0x3F9 JUMP JUMPDEST SWAP3 POP POP DUP2 SWAP1 SSTORE POP POP POP JUMP JUMPDEST PUSH0 DUP2 SWAP1 POP SWAP2 SWAP1 POP JUMP JUMPDEST PUSH2 0x2CF DUP2 PUSH2 0x2BD JUMP JUMPDEST DUP3 MSTORE POP POP JUMP JUMPDEST PUSH0 PUSH1 0x20 DUP3 ADD SWAP1 POP PUSH2 0x2E8 PUSH0 DUP4 ADD DUP5 PUSH2 0x2C6 JUMP JUMPDEST SWAP3 SWAP2 POP POP JUMP JUMPDEST PUSH0 PUSH0 REVERT JUMPDEST PUSH0 PUSH20 0xFFFFFFFFFFFFFFFFFFFFFFFFFFFFFFFFFFFFFFFF DUP3 AND SWAP1 POP SWAP2 SWAP1 POP JUMP JUMPDEST PUSH0 PUSH2 0x31B DUP3 PUSH2 0x2F2 JUMP JUMPDEST SWAP1 POP SWAP2 SWAP1 POP JUMP JUMPDEST PUSH2 0x32B DUP2 PUSH2 0x311 JUMP JUMPDEST DUP2 EQ PUSH2 0x335 JUMPI PUSH0 PUSH0 REVERT JUMPDEST POP JUMP JUMPDEST PUSH0 DUP2 CALLDATALOAD SWAP1 POP PUSH2 0x346 DUP2 PUSH2 0x322 JUMP JUMPDEST SWAP3 SWAP2 POP POP JUMP JUMPDEST PUSH0 PUSH1 0x20 DUP3 DUP5 SUB SLT ISZERO PUSH2 0x361 JUMPI PUSH2 0x360 PUSH2 0x2EE JUMP JUMPDEST JUMPDEST PUSH0 PUSH2 0x36E DUP5 DUP3 DUP6 ADD PUSH2 0x338 JUMP JUMPDEST SWAP2 POP POP SWAP3 SWAP2 POP POP JUMP JUMPDEST PUSH2 0x380 DUP2 PUSH2 0x2BD JUMP JUMPDEST DUP2 EQ PUSH2 0x38A JUMPI PUSH0 PUSH0 REVERT JUMPDEST POP JUMP JUMPDEST PUSH0 DUP2 CALLDATALOAD SWAP1 POP PUSH2 0x39B DUP2 PUSH2 0x377 JUMP JUMPDEST SWAP3 SWAP2 POP POP JUMP JUMPDEST PUSH0 PUSH1 0x20 DUP3 DUP5 SUB SLT ISZERO PUSH2 0x3B6 JUMPI PUSH2 0x3B5 PUSH2 0x2EE JUMP JUMPDEST JUMPDEST PUSH0 PUSH2 0x3C3 DUP5 DUP3 DUP6 ADD PUSH2 0x38D JUMP JUMPDEST SWAP2 POP POP SWAP3 SWAP2 POP POP JUMP JUMPDEST PUSH32 0x4E487B7100000000000000000000000000000000000000000000000000000000 PUSH0 MSTORE PUSH1 0x11 PUSH1 0x4 MSTORE PUSH1 0x24 PUSH0 REVERT JUMPDEST PUSH0 PUSH2 0x403 DUP3 PUSH2 0x2BD JUMP JUMPDEST SWAP2 POP PUSH2 0x40E DUP4 PUSH2 0x2BD JUMP JUMPDEST SWAP3 POP DUP3 DUP3 ADD SWAP1 POP DUP1 DUP3 GT ISZERO PUSH2 0x426 JUMPI PUSH2 0x425 PUSH2 0x3CC JUMP JUMPDEST JUMPDEST SWAP3 SWAP2 POP POP JUMP JUMPDEST PUSH0 PUSH2 0x436 DUP3 PUSH2 0x2BD JUMP JUMPDEST SWAP2 POP PUSH2 0x441 DUP4 PUSH2 0x2BD JUMP JUMPDEST SWAP3 POP DUP3 DUP3 MUL PUSH2 0x44F DUP2 PUSH2 0x2BD JUMP JUMPDEST SWAP2 POP DUP3 DUP3 DIV DUP5 EQ DUP4 ISZERO OR PUSH2 0x466 JUMPI PUSH2 0x465 PUSH2 0x3CC JUMP JUMPDEST JUMPDEST POP SWAP3 SWAP2 POP POP JUMP JUMPDEST PUSH32 0x4E487B7100000000000000000000000000000000000000000000000000000000 PUSH0 MSTORE PUSH1 0x12 PUSH1 0x4 MSTORE PUSH1 0x24 PUSH0 REVERT JUMPDEST PUSH0 PUSH2 0x4A4 DUP3 PUSH2 0x2BD JUMP JUMPDEST SWAP2 POP PUSH2 0x4AF DUP4 PUSH2 0x2BD JUMP JUMPDEST SWAP3 POP DUP3 PUSH2 0x4BF JUMPI PUSH2 0x4BE PUSH2 0x46D JUMP JUMPDEST JUMPDEST DUP3 DUP3 DIV SWAP1 POP SWAP3 SWAP2 POP POP JUMP INVALID LOG2 PUSH5 0x6970667358 0x22 SLT KECCAK256 0xA7 PUSH21 0x96C0E15D2E4237FE8A2ACBB5ACAAC1D634819AEB6 EXTCALL PUSH11 0x36725CCBE5625564736F6C PUSH4 0x43000822 STOP CALLER "
				},
				"gasEstimates": {
					"creation": {
						"codeDepositCost": "256000",
						"executionCost": "292",
						"totalCost": "256292"
					},
					"external": {
						"MAX_CREDIT()": "303",
						"balances(address)": "2801",
						"deposit(uint256)": "infinite",
						"depositWithBonus(uint256)": "infinite",
						"totalDeposits()": "2469"
					},
					"internal": {
						"_calculateBonus(uint256)": "infinite",
						"_updateBalance(address,uint256)": "infinite",
						"_validateAmount(uint256)": "infinite"
					}
				},
				"methodIdentifiers": {
					"MAX_CREDIT()": "00d321cd",
					"balances(address)": "27e235e3",
					"deposit(uint256)": "b6b55f25",
					"depositWithBonus(uint256)": "2f7c9ed6",
					"totalDeposits()": "7d882097"
				}
			},
			"storageLayout": {
				"storage": [
					{
						"astId": 116,
						"contract": "prac42.sol:InternalFunctionFlow",
						"label": "balances",
						"offset": 0,
						"slot": "0",
						"type": "t_mapping(t_address,t_uint256)"
					},
					{
						"astId": 118,
						"contract": "prac42.sol:InternalFunctionFlow",
						"label": "totalDeposits",
						"offset": 0,
						"slot": "1",
						"type": "t_uint256"
					}
				],
				"types": {
					"t_address": {
						"encoding": "inplace",
						"label": "address",
						"numberOfBytes": "20"
					},
					"t_mapping(t_address,t_uint256)": {
						"encoding": "mapping",
						"key": "t_address",
						"label": "mapping(address => uint256)",
						"numberOfBytes": "32",
						"value": "t_uint256"
					},
					"t_uint256": {
						"encoding": "inplace",
						"label": "uint256",
						"numberOfBytes": "32"
					}
				}
			},
			"userdoc": {
				"kind": "user",
				"methods": {},
				"version": 1
			}
		}
	}
}