{
	"prac42.sol": {
		"InternalFunctionFlowVul": {
			"abi": [
				{
					"inputs": [
						{
							"internalType": "address",
							"name": "",
							"type": "address"
						}
					],
					"name": "balances",
					"outputs": [
						{
							"internalType": "uint256",
							"name": "",
							"type": "uint256"
						}
					],
					"stateMutability": "view",
					"type": "function"
				},
				{
					"inputs": [
						{
							"internalType": "uint256",
							"name": "_amount",
							"type": "uint256"
						}
					],
					"name": "deposit",
					"outputs": [],
					"stateMutability": "nonpayable",
					"type": "function"
				},
				{
					"inputs": [
						{
							"internalType": "uint256",
							"name": "_amount",
							"type": "uint256"
						}
					],
					"name": "depositWithBonus",
					"outputs": [],
					"stateMutability": "nonpayable",
					"type": "function"
				},
				{
					"inputs": [],
					"name": "totalDeposits",
					"outputs": [
						{
							"internalType": "uint256",
							"name": "",
							"type": "uint256"
						}
					],
					"stateMutability": "view",
					"type": "function"
				}
			],
			"devdoc": {
				"kind": "dev",
				"methods": {},
				"version": 1
			},
			"evm": {
				"assembly": "    /* \"prac42.sol\":1884:3399  contract InternalFunctionFlowVul {... */\n  mstore(0x40, 0x80)\n  callvalue\n  dup1\n  iszero\n  tag_1\n  jumpi\n  revert(0x00, 0x00)\ntag_1:\n  pop\n  dataSize(sub_0)\n  dup1\n  dataOffset(sub_0)\n  0x00\n  codecopy\n  0x00\n  return\nstop\n\nsub_0: assembly {\n        /* \"prac42.sol\":1884:3399  contract InternalFunctionFlowVul {... */\n      mstore(0x40, 0x80)\n      callvalue\n      dup1\n      iszero\n      tag_1\n      jumpi\n      revert(0x00, 0x00)\n    tag_1:\n      pop\n      jumpi(tag_2, lt(calldatasize, 0x04))\n      shr(0xe0, calldataload(0x00))\n      dup1\n      0x27e235e3\n      eq\n      tag_3\n      jumpi\n      dup1\n      0x2f7c9ed6\n      eq\n      tag_4\n      jumpi\n      dup1\n      0x7d882097\n      eq\n      tag_5\n      jumpi\n      dup1\n      0xb6b55f25\n      eq\n      tag_6\n      jumpi\n    tag_2:\n      revert(0x00, 0x00)\n        /* \"prac42.sol\":1926:1969  mapping(address => uint256) public balances */\n    tag_3:\n      tag_7\n      0x04\n      dup1\n      calldatasize\n      sub\n      dup2\n      add\n      swap1\n      tag_8\n      swap2\n      swap1\n      tag_9\n      jump\t// in\n    tag_8:\n      tag_10\n      jump\t// in\n    tag_7:\n      mload(0x40)\n      tag_11\n      swap2\n      swap1\n      tag_12\n      jump\t// in\n    tag_11:\n      mload(0x40)\n      dup1\n      swap2\n      sub\n      swap1\n      return\n        /* \"prac42.sol\":3052:3396  function depositWithBonus(... */\n    tag_4:\n      tag_13\n      0x04\n      dup1\n      calldatasize\n      sub\n      dup2\n      add\n      swap1\n      tag_14\n      swap2\n      swap1\n      tag_15\n      jump\t// in\n    tag_14:\n      tag_16\n      jump\t// in\n    tag_13:\n      stop\n        /* \"prac42.sol\":1978:2006  uint256 public totalDeposits */\n    tag_5:\n      tag_17\n      tag_18\n      jump\t// in\n    tag_17:\n      mload(0x40)\n      tag_19\n      swap2\n      swap1\n      tag_12\n      jump\t// in\n    tag_19:\n      mload(0x40)\n      dup1\n      swap2\n      sub\n      swap1\n      return\n        /* \"prac42.sol\":2015:2225  function deposit(uint256 _amount) external {... */\n    tag_6:\n      tag_20\n      0x04\n      dup1\n      calldatasize\n      sub\n      dup2\n      add\n      swap1\n      tag_21\n      swap2\n      swap1\n      tag_15\n      jump\t// in\n    tag_21:\n      tag_22\n      jump\t// in\n    tag_20:\n      stop\n        /* \"prac42.sol\":1926:1969  mapping(address => uint256) public balances */\n    tag_10:\n      mstore(0x20, 0x00)\n      dup1\n      0x00\n      mstore\n      keccak256(0x00, 0x40)\n      0x00\n      swap2\n      pop\n      swap1\n      pop\n      sload\n      dup2\n      jump\t// out\n        /* \"prac42.sol\":3052:3396  function depositWithBonus(... */\n    tag_16:\n        /* \"prac42.sol\":3145:3169  _validateAmount(_amount) */\n      tag_24\n        /* \"prac42.sol\":3161:3168  _amount */\n      dup2\n        /* \"prac42.sol\":3145:3160  _validateAmount */\n      tag_25\n        /* \"prac42.sol\":3145:3169  _validateAmount(_amount) */\n      jump\t// in\n    tag_24:\n        /* \"prac42.sol\":3182:3195  uint256 bonus */\n      0x00\n        /* \"prac42.sol\":3211:3235  _calculateBonus(_amount) */\n      tag_26\n        /* \"prac42.sol\":3227:3234  _amount */\n      dup3\n        /* \"prac42.sol\":3211:3226  _calculateBonus */\n      tag_27\n        /* \"prac42.sol\":3211:3235  _calculateBonus(_amount) */\n      jump\t// in\n    tag_26:\n        /* \"prac42.sol\":3182:3235  uint256 bonus =... */\n      swap1\n      pop\n        /* \"prac42.sol\":3248:3328  _updateBalance(... */\n      tag_28\n        /* \"prac42.sol\":3277:3287  msg.sender */\n      caller\n        /* \"prac42.sol\":3312:3317  bonus */\n      dup3\n        /* \"prac42.sol\":3302:3309  _amount */\n      dup5\n        /* \"prac42.sol\":3302:3317  _amount + bonus */\n      tag_29\n      swap2\n      swap1\n      tag_30\n      jump\t// in\n    tag_29:\n        /* \"prac42.sol\":3248:3262  _updateBalance */\n      tag_31\n        /* \"prac42.sol\":3248:3328  _updateBalance(... */\n      jump\t// in\n    tag_28:\n        /* \"prac42.sol\":3382:3387  bonus */\n      dup1\n        /* \"prac42.sol\":3372:3379  _amount */\n      dup3\n        /* \"prac42.sol\":3372:3387  _amount + bonus */\n      tag_32\n      swap2\n      swap1\n      tag_30\n      jump\t// in\n    tag_32:\n        /* \"prac42.sol\":3341:3354  totalDeposits */\n      0x01\n      0x00\n        /* \"prac42.sol\":3341:3388  totalDeposits +=... */\n      dup3\n      dup3\n      sload\n      tag_33\n      swap2\n      swap1\n      tag_30\n      jump\t// in\n    tag_33:\n      swap3\n      pop\n      pop\n      dup2\n      swap1\n      sstore\n      pop\n        /* \"prac42.sol\":3134:3396  {... */\n      pop\n        /* \"prac42.sol\":3052:3396  function depositWithBonus(... */\n      pop\n      jump\t// out\n        /* \"prac42.sol\":1978:2006  uint256 public totalDeposits */\n    tag_18:\n      sload(0x01)\n      dup2\n      jump\t// out\n        /* \"prac42.sol\":2015:2225  function deposit(uint256 _amount) external {... */\n    tag_22:\n        /* \"prac42.sol\":2071:2095  _validateAmount(_amount) */\n      tag_35\n        /* \"prac42.sol\":2087:2094  _amount */\n      dup2\n        /* \"prac42.sol\":2071:2086  _validateAmount */\n      tag_25\n        /* \"prac42.sol\":2071:2095  _validateAmount(_amount) */\n      jump\t// in\n    tag_35:\n        /* \"prac42.sol\":2108:2180  _updateBalance(... */\n      tag_36\n        /* \"prac42.sol\":2137:2147  msg.sender */\n      caller\n        /* \"prac42.sol\":2162:2169  _amount */\n      dup3\n        /* \"prac42.sol\":2108:2122  _updateBalance */\n      tag_31\n        /* \"prac42.sol\":2108:2180  _updateBalance(... */\n      jump\t// in\n    tag_36:\n        /* \"prac42.sol\":2210:2217  _amount */\n      dup1\n        /* \"prac42.sol\":2193:2206  totalDeposits */\n      0x01\n      0x00\n        /* \"prac42.sol\":2193:2217  totalDeposits += _amount */\n      dup3\n      dup3\n      sload\n      tag_37\n      swap2\n      swap1\n      tag_30\n      jump\t// in\n    tag_37:\n      swap3\n      pop\n      pop\n      dup2\n      swap1\n      sstore\n      pop\n        /* \"prac42.sol\":2015:2225  function deposit(uint256 _amount) external {... */\n      pop\n      jump\t// out\n        /* \"prac42.sol\":2233:2519  function _validateAmount(... */\n    tag_25:\n        /* \"prac42.sol\":2371:2372  0 */\n      0x00\n        /* \"prac42.sol\":2361:2368  _amount */\n      dup2\n        /* \"prac42.sol\":2361:2372  _amount > 0 */\n      gt\n        /* \"prac42.sol\":2339:2418  require(... */\n      tag_39\n      jumpi\n      mload(0x40)\n      0x08c379a000000000000000000000000000000000000000000000000000000000\n      dup2\n      mstore\n      0x04\n      add\n      tag_40\n      swap1\n      tag_41\n      jump\t// in\n    tag_40:\n      mload(0x40)\n      dup1\n      swap2\n      sub\n      swap1\n      revert\n    tag_39:\n        /* \"prac42.sol\":2464:2467  100 */\n      0x64\n        /* \"prac42.sol\":2453:2460  _amount */\n      dup2\n        /* \"prac42.sol\":2453:2467  _amount <= 100 */\n      gt\n      iszero\n        /* \"prac42.sol\":2431:2511  require(... */\n      tag_42\n      jumpi\n      mload(0x40)\n      0x08c379a000000000000000000000000000000000000000000000000000000000\n      dup2\n      mstore\n      0x04\n      add\n      tag_43\n      swap1\n      tag_44\n      jump\t// in\n    tag_43:\n      mload(0x40)\n      dup1\n      swap2\n      sub\n      swap1\n      revert\n    tag_42:\n        /* \"prac42.sol\":2233:2519  function _validateAmount(... */\n      pop\n      jump\t// out\n        /* \"prac42.sol\":2684:2852  function _calculateBonus(... */\n    tag_27:\n        /* \"prac42.sol\":2792:2799  uint256 */\n      0x00\n        /* \"prac42.sol\":2841:2844  100 */\n      0x64\n        /* \"prac42.sol\":2835:2837  10 */\n      0x0a\n        /* \"prac42.sol\":2825:2832  _amount */\n      dup4\n        /* \"prac42.sol\":2825:2837  _amount * 10 */\n      tag_46\n      swap2\n      swap1\n      tag_47\n      jump\t// in\n    tag_46:\n        /* \"prac42.sol\":2824:2844  (_amount * 10) / 100 */\n      tag_48\n      swap2\n      swap1\n      tag_49\n      jump\t// in\n    tag_48:\n        /* \"prac42.sol\":2817:2844  return (_amount * 10) / 100 */\n      swap1\n      pop\n        /* \"prac42.sol\":2684:2852  function _calculateBonus(... */\n      swap2\n      swap1\n      pop\n      jump\t// out\n        /* \"prac42.sol\":2527:2676  function _updateBalance(... */\n    tag_31:\n        /* \"prac42.sol\":2661:2668  _amount */\n      dup1\n        /* \"prac42.sol\":2642:2650  balances */\n      0x00\n        /* \"prac42.sol\":2642:2657  balances[_user] */\n      0x00\n        /* \"prac42.sol\":2651:2656  _user */\n      dup5\n        /* \"prac42.sol\":2642:2657  balances[_user] */\n      0xffffffffffffffffffffffffffffffffffffffff\n      and\n      0xffffffffffffffffffffffffffffffffffffffff\n      and\n      dup2\n      mstore\n      0x20\n      add\n      swap1\n      dup2\n      mstore\n      0x20\n      add\n      0x00\n      keccak256\n      0x00\n        /* \"prac42.sol\":2642:2668  balances[_user] += _amount */\n      dup3\n      dup3\n      sload\n      tag_51\n      swap2\n      swap1\n      tag_30\n      jump\t// in\n    tag_51:\n      swap3\n      pop\n      pop\n      dup2\n      swap1\n      sstore\n      pop\n        /* \"prac42.sol\":2527:2676  function _updateBalance(... */\n      pop\n      pop\n      jump\t// out\n        /* \"#utility.yul\":88:205   */\n    tag_53:\n        /* \"#utility.yul\":197:198   */\n      0x00\n        /* \"#utility.yul\":194:195   */\n      0x00\n        /* \"#utility.yul\":187:199   */\n      revert\n        /* \"#utility.yul\":334:460   */\n    tag_55:\n        /* \"#utility.yul\":371:378   */\n      0x00\n        /* \"#utility.yul\":411:453   */\n      0xffffffffffffffffffffffffffffffffffffffff\n        /* \"#utility.yul\":404:409   */\n      dup3\n        /* \"#utility.yul\":400:454   */\n      and\n        /* \"#utility.yul\":389:454   */\n      swap1\n      pop\n        /* \"#utility.yul\":334:460   */\n      swap2\n      swap1\n      pop\n      jump\t// out\n        /* \"#utility.yul\":466:562   */\n    tag_56:\n        /* \"#utility.yul\":503:510   */\n      0x00\n        /* \"#utility.yul\":532:556   */\n      tag_76\n        /* \"#utility.yul\":550:555   */\n      dup3\n        /* \"#utility.yul\":532:556   */\n      tag_55\n      jump\t// in\n    tag_76:\n        /* \"#utility.yul\":521:556   */\n      swap1\n      pop\n        /* \"#utility.yul\":466:562   */\n      swap2\n      swap1\n      pop\n      jump\t// out\n        /* \"#utility.yul\":568:690   */\n    tag_57:\n        /* \"#utility.yul\":641:665   */\n      tag_78\n        /* \"#utility.yul\":659:664   */\n      dup2\n        /* \"#utility.yul\":641:665   */\n      tag_56\n      jump\t// in\n    tag_78:\n        /* \"#utility.yul\":634:639   */\n      dup2\n        /* \"#utility.yul\":631:666   */\n      eq\n        /* \"#utility.yul\":621:684   */\n      tag_79\n      jumpi\n        /* \"#utility.yul\":680:681   */\n      0x00\n        /* \"#utility.yul\":677:678   */\n      0x00\n        /* \"#utility.yul\":670:682   */\n      revert\n        /* \"#utility.yul\":621:684   */\n    tag_79:\n        /* \"#utility.yul\":568:690   */\n      pop\n      jump\t// out\n        /* \"#utility.yul\":696:835   */\n    tag_58:\n        /* \"#utility.yul\":742:747   */\n      0x00\n        /* \"#utility.yul\":780:786   */\n      dup2\n        /* \"#utility.yul\":767:787   */\n      calldataload\n        /* \"#utility.yul\":758:787   */\n      swap1\n      pop\n        /* \"#utility.yul\":796:829   */\n      tag_81\n        /* \"#utility.yul\":823:828   */\n      dup2\n        /* \"#utility.yul\":796:829   */\n      tag_57\n      jump\t// in\n    tag_81:\n        /* \"#utility.yul\":696:835   */\n      swap3\n      swap2\n      pop\n      pop\n      jump\t// out\n        /* \"#utility.yul\":841:1170   */\n    tag_9:\n        /* \"#utility.yul\":900:906   */\n      0x00\n        /* \"#utility.yul\":949:951   */\n      0x20\n        /* \"#utility.yul\":937:946   */\n      dup3\n        /* \"#utility.yul\":928:935   */\n      dup5\n        /* \"#utility.yul\":924:947   */\n      sub\n        /* \"#utility.yul\":920:952   */\n      slt\n        /* \"#utility.yul\":917:1036   */\n      iszero\n      tag_83\n      jumpi\n        /* \"#utility.yul\":955:1034   */\n      tag_84\n      tag_53\n      jump\t// in\n    tag_84:\n        /* \"#utility.yul\":917:1036   */\n    tag_83:\n        /* \"#utility.yul\":1075:1076   */\n      0x00\n        /* \"#utility.yul\":1100:1153   */\n      tag_85\n        /* \"#utility.yul\":1145:1152   */\n      dup5\n        /* \"#utility.yul\":1136:1142   */\n      dup3\n        /* \"#utility.yul\":1125:1134   */\n      dup6\n        /* \"#utility.yul\":1121:1143   */\n      add\n        /* \"#utility.yul\":1100:1153   */\n      tag_58\n      jump\t// in\n    tag_85:\n        /* \"#utility.yul\":1090:1153   */\n      swap2\n      pop\n        /* \"#utility.yul\":1046:1163   */\n      pop\n        /* \"#utility.yul\":841:1170   */\n      swap3\n      swap2\n      pop\n      pop\n      jump\t// out\n        /* \"#utility.yul\":1176:1253   */\n    tag_59:\n        /* \"#utility.yul\":1213:1220   */\n      0x00\n        /* \"#utility.yul\":1242:1247   */\n      dup2\n        /* \"#utility.yul\":1231:1247   */\n      swap1\n      pop\n        /* \"#utility.yul\":1176:1253   */\n      swap2\n      swap1\n      pop\n      jump\t// out\n        /* \"#utility.yul\":1259:1377   */\n    tag_60:\n        /* \"#utility.yul\":1346:1370   */\n      tag_88\n        /* \"#utility.yul\":1364:1369   */\n      dup2\n        /* \"#utility.yul\":1346:1370   */\n      tag_59\n      jump\t// in\n    tag_88:\n        /* \"#utility.yul\":1341:1344   */\n      dup3\n        /* \"#utility.yul\":1334:1371   */\n      mstore\n        /* \"#utility.yul\":1259:1377   */\n      pop\n      pop\n      jump\t// out\n        /* \"#utility.yul\":1383:1605   */\n    tag_12:\n        /* \"#utility.yul\":1476:1480   */\n      0x00\n        /* \"#utility.yul\":1514:1516   */\n      0x20\n        /* \"#utility.yul\":1503:1512   */\n      dup3\n        /* \"#utility.yul\":1499:1517   */\n      add\n        /* \"#utility.yul\":1491:1517   */\n      swap1\n      pop\n        /* \"#utility.yul\":1527:1598   */\n      tag_90\n        /* \"#utility.yul\":1595:1596   */\n      0x00\n        /* \"#utility.yul\":1584:1593   */\n      dup4\n        /* \"#utility.yul\":1580:1597   */\n      add\n        /* \"#utility.yul\":1571:1577   */\n      dup5\n        /* \"#utility.yul\":1527:1598   */\n      tag_60\n      jump\t// in\n    tag_90:\n        /* \"#utility.yul\":1383:1605   */\n      swap3\n      swap2\n      pop\n      pop\n      jump\t// out\n        /* \"#utility.yul\":1611:1733   */\n    tag_61:\n        /* \"#utility.yul\":1684:1708   */\n      tag_92\n        /* \"#utility.yul\":1702:1707   */\n      dup2\n        /* \"#utility.yul\":1684:1708   */\n      tag_59\n      jump\t// in\n    tag_92:\n        /* \"#utility.yul\":1677:1682   */\n      dup2\n        /* \"#utility.yul\":1674:1709   */\n      eq\n        /* \"#utility.yul\":1664:1727   */\n      tag_93\n      jumpi\n        /* \"#utility.yul\":1723:1724   */\n      0x00\n        /* \"#utility.yul\":1720:1721   */\n      0x00\n        /* \"#utility.yul\":1713:1725   */\n      revert\n        /* \"#utility.yul\":1664:1727   */\n    tag_93:\n        /* \"#utility.yul\":1611:1733   */\n      pop\n      jump\t// out\n        /* \"#utility.yul\":1739:1878   */\n    tag_62:\n        /* \"#utility.yul\":1785:1790   */\n      0x00\n        /* \"#utility.yul\":1823:1829   */\n      dup2\n        /* \"#utility.yul\":1810:1830   */\n      calldataload\n        /* \"#utility.yul\":1801:1830   */\n      swap1\n      pop\n        /* \"#utility.yul\":1839:1872   */\n      tag_95\n        /* \"#utility.yul\":1866:1871   */\n      dup2\n        /* \"#utility.yul\":1839:1872   */\n      tag_61\n      jump\t// in\n    tag_95:\n        /* \"#utility.yul\":1739:1878   */\n      swap3\n      swap2\n      pop\n      pop\n      jump\t// out\n        /* \"#utility.yul\":1884:2213   */\n    tag_15:\n        /* \"#utility.yul\":1943:1949   */\n      0x00\n        /* \"#utility.yul\":1992:1994   */\n      0x20\n        /* \"#utility.yul\":1980:1989   */\n      dup3\n        /* \"#utility.yul\":1971:1978   */\n      dup5\n        /* \"#utility.yul\":1967:1990   */\n      sub\n        /* \"#utility.yul\":1963:1995   */\n      slt\n        /* \"#utility.yul\":1960:2079   */\n      iszero\n      tag_97\n      jumpi\n        /* \"#utility.yul\":1998:2077   */\n      tag_98\n      tag_53\n      jump\t// in\n    tag_98:\n        /* \"#utility.yul\":1960:2079   */\n    tag_97:\n        /* \"#utility.yul\":2118:2119   */\n      0x00\n        /* \"#utility.yul\":2143:2196   */\n      tag_99\n        /* \"#utility.yul\":2188:2195   */\n      dup5\n        /* \"#utility.yul\":2179:2185   */\n      dup3\n        /* \"#utility.yul\":2168:2177   */\n      dup6\n        /* \"#utility.yul\":2164:2186   */\n      add\n        /* \"#utility.yul\":2143:2196   */\n      tag_62\n      jump\t// in\n    tag_99:\n        /* \"#utility.yul\":2133:2196   */\n      swap2\n      pop\n        /* \"#utility.yul\":2089:2206   */\n      pop\n        /* \"#utility.yul\":1884:2213   */\n      swap3\n      swap2\n      pop\n      pop\n      jump\t// out\n        /* \"#utility.yul\":2219:2399   */\n    tag_63:\n        /* \"#utility.yul\":2267:2344   */\n      0x4e487b7100000000000000000000000000000000000000000000000000000000\n        /* \"#utility.yul\":2264:2265   */\n      0x00\n        /* \"#utility.yul\":2257:2345   */\n      mstore\n        /* \"#utility.yul\":2364:2368   */\n      0x11\n        /* \"#utility.yul\":2361:2362   */\n      0x04\n        /* \"#utility.yul\":2354:2369   */\n      mstore\n        /* \"#utility.yul\":2388:2392   */\n      0x24\n        /* \"#utility.yul\":2385:2386   */\n      0x00\n        /* \"#utility.yul\":2378:2393   */\n      revert\n        /* \"#utility.yul\":2405:2596   */\n    tag_30:\n        /* \"#utility.yul\":2445:2448   */\n      0x00\n        /* \"#utility.yul\":2464:2484   */\n      tag_102\n        /* \"#utility.yul\":2482:2483   */\n      dup3\n        /* \"#utility.yul\":2464:2484   */\n      tag_59\n      jump\t// in\n    tag_102:\n        /* \"#utility.yul\":2459:2484   */\n      swap2\n      pop\n        /* \"#utility.yul\":2498:2518   */\n      tag_103\n        /* \"#utility.yul\":2516:2517   */\n      dup4\n        /* \"#utility.yul\":2498:2518   */\n      tag_59\n      jump\t// in\n    tag_103:\n        /* \"#utility.yul\":2493:2518   */\n      swap3\n      pop\n        /* \"#utility.yul\":2541:2542   */\n      dup3\n        /* \"#utility.yul\":2538:2539   */\n      dup3\n        /* \"#utility.yul\":2534:2543   */\n      add\n        /* \"#utility.yul\":2527:2543   */\n      swap1\n      pop\n        /* \"#utility.yul\":2562:2565   */\n      dup1\n        /* \"#utility.yul\":2559:2560   */\n      dup3\n        /* \"#utility.yul\":2556:2566   */\n      gt\n        /* \"#utility.yul\":2553:2589   */\n      iszero\n      tag_104\n      jumpi\n        /* \"#utility.yul\":2569:2587   */\n      tag_105\n      tag_63\n      jump\t// in\n    tag_105:\n        /* \"#utility.yul\":2553:2589   */\n    tag_104:\n        /* \"#utility.yul\":2405:2596   */\n      swap3\n      swap2\n      pop\n      pop\n      jump\t// out\n        /* \"#utility.yul\":2602:2771   */\n    tag_64:\n        /* \"#utility.yul\":2686:2697   */\n      0x00\n        /* \"#utility.yul\":2720:2726   */\n      dup3\n        /* \"#utility.yul\":2715:2718   */\n      dup3\n        /* \"#utility.yul\":2708:2727   */\n      mstore\n        /* \"#utility.yul\":2760:2764   */\n      0x20\n        /* \"#utility.yul\":2755:2758   */\n      dup3\n        /* \"#utility.yul\":2751:2765   */\n      add\n        /* \"#utility.yul\":2736:2765   */\n      swap1\n      pop\n        /* \"#utility.yul\":2602:2771   */\n      swap3\n      swap2\n      pop\n      pop\n      jump\t// out\n        /* \"#utility.yul\":2777:2945   */\n    tag_65:\n        /* \"#utility.yul\":2917:2937   */\n      0x416d6f756e74206d757374206265203e20300000000000000000000000000000\n        /* \"#utility.yul\":2913:2914   */\n      0x00\n        /* \"#utility.yul\":2905:2911   */\n      dup3\n        /* \"#utility.yul\":2901:2915   */\n      add\n        /* \"#utility.yul\":2894:2938   */\n      mstore\n        /* \"#utility.yul\":2777:2945   */\n      pop\n      jump\t// out\n        /* \"#utility.yul\":2951:3317   */\n    tag_66:\n        /* \"#utility.yul\":3093:3096   */\n      0x00\n        /* \"#utility.yul\":3114:3181   */\n      tag_109\n        /* \"#utility.yul\":3178:3180   */\n      0x12\n        /* \"#utility.yul\":3173:3176   */\n      dup4\n        /* \"#utility.yul\":3114:3181   */\n      tag_64\n      jump\t// in\n    tag_109:\n        /* \"#utility.yul\":3107:3181   */\n      swap2\n      pop\n        /* \"#utility.yul\":3190:3283   */\n      tag_110\n        /* \"#utility.yul\":3279:3282   */\n      dup3\n        /* \"#utility.yul\":3190:3283   */\n      tag_65\n      jump\t// in\n    tag_110:\n        /* \"#utility.yul\":3308:3310   */\n      0x20\n        /* \"#utility.yul\":3303:3306   */\n      dup3\n        /* \"#utility.yul\":3299:3311   */\n      add\n        /* \"#utility.yul\":3292:3311   */\n      swap1\n      pop\n        /* \"#utility.yul\":2951:3317   */\n      swap2\n      swap1\n      pop\n      jump\t// out\n        /* \"#utility.yul\":3323:3742   */\n    tag_41:\n        /* \"#utility.yul\":3489:3493   */\n      0x00\n        /* \"#utility.yul\":3527:3529   */\n      0x20\n        /* \"#utility.yul\":3516:3525   */\n      dup3\n        /* \"#utility.yul\":3512:3530   */\n      add\n        /* \"#utility.yul\":3504:3530   */\n      swap1\n      pop\n        /* \"#utility.yul\":3576:3585   */\n      dup2\n        /* \"#utility.yul\":3570:3574   */\n      dup2\n        /* \"#utility.yul\":3566:3586   */\n      sub\n        /* \"#utility.yul\":3562:3563   */\n      0x00\n        /* \"#utility.yul\":3551:3560   */\n      dup4\n        /* \"#utility.yul\":3547:3564   */\n      add\n        /* \"#utility.yul\":3540:3587   */\n      mstore\n        /* \"#utility.yul\":3604:3735   */\n      tag_112\n        /* \"#utility.yul\":3730:3734   */\n      dup2\n        /* \"#utility.yul\":3604:3735   */\n      tag_66\n      jump\t// in\n    tag_112:\n        /* \"#utility.yul\":3596:3735   */\n      swap1\n      pop\n        /* \"#utility.yul\":3323:3742   */\n      swap2\n      swap1\n      pop\n      jump\t// out\n        /* \"#utility.yul\":3748:3914   */\n    tag_67:\n        /* \"#utility.yul\":3888:3906   */\n      0x416d6f756e7420746f6f206c6172676500000000000000000000000000000000\n        /* \"#utility.yul\":3884:3885   */\n      0x00\n        /* \"#utility.yul\":3876:3882   */\n      dup3\n        /* \"#utility.yul\":3872:3886   */\n      add\n        /* \"#utility.yul\":3865:3907   */\n      mstore\n        /* \"#utility.yul\":3748:3914   */\n      pop\n      jump\t// out\n        /* \"#utility.yul\":3920:4286   */\n    tag_68:\n        /* \"#utility.yul\":4062:4065   */\n      0x00\n        /* \"#utility.yul\":4083:4150   */\n      tag_115\n        /* \"#utility.yul\":4147:4149   */\n      0x10\n        /* \"#utility.yul\":4142:4145   */\n      dup4\n        /* \"#utility.yul\":4083:4150   */\n      tag_64\n      jump\t// in\n    tag_115:\n        /* \"#utility.yul\":4076:4150   */\n      swap2\n      pop\n        /* \"#utility.yul\":4159:4252   */\n      tag_116\n        /* \"#utility.yul\":4248:4251   */\n      dup3\n        /* \"#utility.yul\":4159:4252   */\n      tag_67\n      jump\t// in\n    tag_116:\n        /* \"#utility.yul\":4277:4279   */\n      0x20\n        /* \"#utility.yul\":4272:4275   */\n      dup3\n        /* \"#utility.yul\":4268:4280   */\n      add\n        /* \"#utility.yul\":4261:4280   */\n      swap1\n      pop\n        /* \"#utility.yul\":3920:4286   */\n      swap2\n      swap1\n      pop\n      jump\t// out\n        /* \"#utility.yul\":4292:4711   */\n    tag_44:\n        /* \"#utility.yul\":4458:4462   */\n      0x00\n        /* \"#utility.yul\":4496:4498   */\n      0x20\n        /* \"#utility.yul\":4485:4494   */\n      dup3\n        /* \"#utility.yul\":4481:4499   */\n      add\n        /* \"#utility.yul\":4473:4499   */\n      swap1\n      pop\n        /* \"#utility.yul\":4545:4554   */\n      dup2\n        /* \"#utility.yul\":4539:4543   */\n      dup2\n        /* \"#utility.yul\":4535:4555   */\n      sub\n        /* \"#utility.yul\":4531:4532   */\n      0x00\n        /* \"#utility.yul\":4520:4529   */\n      dup4\n        /* \"#utility.yul\":4516:4533   */\n      add\n        /* \"#utility.yul\":4509:4556   */\n      mstore\n        /* \"#utility.yul\":4573:4704   */\n      tag_118\n        /* \"#utility.yul\":4699:4703   */\n      dup2\n        /* \"#utility.yul\":4573:4704   */\n      tag_68\n      jump\t// in\n    tag_118:\n        /* \"#utility.yul\":4565:4704   */\n      swap1\n      pop\n        /* \"#utility.yul\":4292:4711   */\n      swap2\n      swap1\n      pop\n      jump\t// out\n        /* \"#utility.yul\":4717:5127   */\n    tag_47:\n        /* \"#utility.yul\":4757:4764   */\n      0x00\n        /* \"#utility.yul\":4780:4800   */\n      tag_120\n        /* \"#utility.yul\":4798:4799   */\n      dup3\n        /* \"#utility.yul\":4780:4800   */\n      tag_59\n      jump\t// in\n    tag_120:\n        /* \"#utility.yul\":4775:4800   */\n      swap2\n      pop\n        /* \"#utility.yul\":4814:4834   */\n      tag_121\n        /* \"#utility.yul\":4832:4833   */\n      dup4\n        /* \"#utility.yul\":4814:4834   */\n      tag_59\n      jump\t// in\n    tag_121:\n        /* \"#utility.yul\":4809:4834   */\n      swap3\n      pop\n        /* \"#utility.yul\":4869:4870   */\n      dup3\n        /* \"#utility.yul\":4866:4867   */\n      dup3\n        /* \"#utility.yul\":4862:4871   */\n      mul\n        /* \"#utility.yul\":4891:4921   */\n      tag_122\n        /* \"#utility.yul\":4909:4920   */\n      dup2\n        /* \"#utility.yul\":4891:4921   */\n      tag_59\n      jump\t// in\n    tag_122:\n        /* \"#utility.yul\":4880:4921   */\n      swap2\n      pop\n        /* \"#utility.yul\":5070:5071   */\n      dup3\n        /* \"#utility.yul\":5061:5068   */\n      dup3\n        /* \"#utility.yul\":5057:5072   */\n      div\n        /* \"#utility.yul\":5054:5055   */\n      dup5\n        /* \"#utility.yul\":5051:5073   */\n      eq\n        /* \"#utility.yul\":5031:5032   */\n      dup4\n        /* \"#utility.yul\":5024:5033   */\n      iszero\n        /* \"#utility.yul\":5004:5087   */\n      or\n        /* \"#utility.yul\":4981:5120   */\n      tag_123\n      jumpi\n        /* \"#utility.yul\":5100:5118   */\n      tag_124\n      tag_63\n      jump\t// in\n    tag_124:\n        /* \"#utility.yul\":4981:5120   */\n    tag_123:\n        /* \"#utility.yul\":4765:5127   */\n      pop\n        /* \"#utility.yul\":4717:5127   */\n      swap3\n      swap2\n      pop\n      pop\n      jump\t// out\n        /* \"#utility.yul\":5133:5313   */\n    tag_69:\n        /* \"#utility.yul\":5181:5258   */\n      0x4e487b7100000000000000000000000000000000000000000000000000000000\n        /* \"#utility.yul\":5178:5179   */\n      0x00\n        /* \"#utility.yul\":5171:5259   */\n      mstore\n        /* \"#utility.yul\":5278:5282   */\n      0x12\n        /* \"#utility.yul\":5275:5276   */\n      0x04\n        /* \"#utility.yul\":5268:5283   */\n      mstore\n        /* \"#utility.yul\":5302:5306   */\n      0x24\n        /* \"#utility.yul\":5299:5300   */\n      0x00\n        /* \"#utility.yul\":5292:5307   */\n      revert\n        /* \"#utility.yul\":5319:5504   */\n    tag_49:\n        /* \"#utility.yul\":5359:5360   */\n      0x00\n        /* \"#utility.yul\":5376:5396   */\n      tag_127\n        /* \"#utility.yul\":5394:5395   */\n      dup3\n        /* \"#utility.yul\":5376:5396   */\n      tag_59\n      jump\t// in\n    tag_127:\n        /* \"#utility.yul\":5371:5396   */\n      swap2\n      pop\n        /* \"#utility.yul\":5410:5430   */\n      tag_128\n        /* \"#utility.yul\":5428:5429   */\n      dup4\n        /* \"#utility.yul\":5410:5430   */\n      tag_59\n      jump\t// in\n    tag_128:\n        /* \"#utility.yul\":5405:5430   */\n      swap3\n      pop\n        /* \"#utility.yul\":5449:5450   */\n      dup3\n        /* \"#utility.yul\":5439:5474   */\n      tag_129\n      jumpi\n        /* \"#utility.yul\":5454:5472   */\n      tag_130\n      tag_69\n      jump\t// in\n    tag_130:\n        /* \"#utility.yul\":5439:5474   */\n    tag_129:\n        /* \"#utility.yul\":5496:5497   */\n      dup3\n        /* \"#utility.yul\":5493:5494   */\n      dup3\n        /* \"#utility.yul\":5489:5498   */\n      div\n        /* \"#utility.yul\":5484:5498   */\n      swap1\n      pop\n        /* \"#utility.yul\":5319:5504   */\n      swap3\n      swap2\n      pop\n      pop\n      jump\t// out\n\n    auxdata: 0xa2646970667358221220474a46c32b9bf4c8241f8bb4832062841e8fe048c4f9455abf0a4ea2ce92f9bc64736f6c63430008220033\n}\n",
				"bytecode": {
					"linkReferences": {},
					"object": "6080604052348015600e575f5ffd5b506105908061001c5f395ff3fe608060405234801561000f575f5ffd5b506004361061004a575f3560e01c806327e235e31461004e5780632f7c9ed61461007e5780637d8820971461009a578063b6b55f25146100b8575b5f5ffd5b610068600480360381019061006391906102cb565b6100d4565b604051610075919061030e565b60405180910390f35b61009860048036038101906100939190610351565b6100e8565b005b6100a2610139565b6040516100af919061030e565b60405180910390f35b6100d260048036038101906100cd9190610351565b61013f565b005b5f602052805f5260405f205f915090505481565b6100f18161016d565b5f6100fb826101f6565b905061011233828461010d91906103a9565b610217565b808261011e91906103a9565b60015f82825461012e91906103a9565b925050819055505050565b60015481565b6101488161016d565b6101523382610217565b8060015f82825461016391906103a9565b9250508190555050565b5f81116101af576040517f08c379a00000000000000000000000000000000000000000000000000000000081526004016101a690610436565b60405180910390fd5b60648111156101f3576040517f08c379a00000000000000000000000000000000000000000000000000000000081526004016101ea9061049e565b60405180910390fd5b50565b5f6064600a8361020691906104bc565b610210919061052a565b9050919050565b805f5f8473ffffffffffffffffffffffffffffffffffffffff1673ffffffffffffffffffffffffffffffffffffffff1681526020019081526020015f205f82825461026291906103a9565b925050819055505050565b5f5ffd5b5f73ffffffffffffffffffffffffffffffffffffffff82169050919050565b5f61029a82610271565b9050919050565b6102aa81610290565b81146102b4575f5ffd5b50565b5f813590506102c5816102a1565b92915050565b5f602082840312156102e0576102df61026d565b5b5f6102ed848285016102b7565b91505092915050565b5f819050919050565b610308816102f6565b82525050565b5f6020820190506103215f8301846102ff565b92915050565b610330816102f6565b811461033a575f5ffd5b50565b5f8135905061034b81610327565b92915050565b5f602082840312156103665761036561026d565b5b5f6103738482850161033d565b91505092915050565b7f4e487b71000000000000000000000000000000000000000000000000000000005f52601160045260245ffd5b5f6103b3826102f6565b91506103be836102f6565b92508282019050808211156103d6576103d561037c565b5b92915050565b5f82825260208201905092915050565b7f416d6f756e74206d757374206265203e203000000000000000000000000000005f82015250565b5f6104206012836103dc565b915061042b826103ec565b602082019050919050565b5f6020820190508181035f83015261044d81610414565b9050919050565b7f416d6f756e7420746f6f206c61726765000000000000000000000000000000005f82015250565b5f6104886010836103dc565b915061049382610454565b602082019050919050565b5f6020820190508181035f8301526104b58161047c565b9050919050565b5f6104c6826102f6565b91506104d1836102f6565b92508282026104df816102f6565b915082820484148315176104f6576104f561037c565b5b5092915050565b7f4e487b71000000000000000000000000000000000000000000000000000000005f52601260045260245ffd5b5f610534826102f6565b915061053f836102f6565b92508261054f5761054e6104fd565b5b82820490509291505056fea2646970667358221220474a46c32b9bf4c8241f8bb4832062841e8fe048c4f9455abf0a4ea2ce92f9bc64736f6c63430008220033",
					"opcodes": "PUSH1 0x80 PUSH1 0x40 MSTORE CALLVALUE DUP1 ISZERO PUSH1 0xE JUMPI PUSH0 PUSH0 REVERT JUMPDEST POP PUSH2 0x590 DUP1 PUSH2 0x1C PUSH0 CODECOPY PUSH0 RETURN INVALID PUSH1 0x80 PUSH1 0x40 MSTORE CALLVALUE DUP1 ISZERO PUSH2 0xF JUMPI PUSH0 PUSH0 REVERT JUMPDEST POP PUSH1 0x4 CALLDATASIZE LT PUSH2 0x4A JUMPI PUSH0 CALLDATALOAD PUSH1 0xE0 SHR DUP1 PUSH4 0x27E235E3 EQ PUSH2 0x4E JUMPI DUP1 PUSH4 0x2F7C9ED6 EQ PUSH2 0x7E JUMPI DUP1 PUSH4 0x7D882097 EQ PUSH2 0x9A JUMPI DUP1 PUSH4 0xB6B55F25 EQ PUSH2 0xB8 JUMPI JUMPDEST PUSH0 PUSH0 REVERT JUMPDEST PUSH2 0x68 PUSH1 0x4 DUP1 CALLDATASIZE SUB DUP2 ADD SWAP1 PUSH2 0x63 SWAP2 SWAP1 PUSH2 0x2CB JUMP JUMPDEST PUSH2 0xD4 JUMP JUMPDEST PUSH1 0x40 MLOAD PUSH2 0x75 SWAP2 SWAP1 PUSH2 0x30E JUMP JUMPDEST PUSH1 0x40 MLOAD DUP1 SWAP2 SUB SWAP1 RETURN JUMPDEST PUSH2 0x98 PUSH1 0x4 DUP1 CALLDATASIZE SUB DUP2 ADD SWAP1 PUSH2 0x93 SWAP2 SWAP1 PUSH2 0x351 JUMP JUMPDEST PUSH2 0xE8 JUMP JUMPDEST STOP JUMPDEST PUSH2 0xA2 PUSH2 0x139 JUMP JUMPDEST PUSH1 0x40 MLOAD PUSH2 0xAF SWAP2 SWAP1 PUSH2 0x30E JUMP JUMPDEST PUSH1 0x40 MLOAD DUP1 SWAP2 SUB SWAP1 RETURN JUMPDEST PUSH2 0xD2 PUSH1 0x4 DUP1 CALLDATASIZE SUB DUP2 ADD SWAP1 PUSH2 0xCD SWAP2 SWAP1 PUSH2 0x351 JUMP JUMPDEST PUSH2 0x13F JUMP JUMPDEST STOP JUMPDEST PUSH0 PUSH1 0x20 MSTORE DUP1 PUSH0 MSTORE PUSH1 0x40 PUSH0 KECCAK256 PUSH0 SWAP2 POP SWAP1 POP SLOAD DUP2 JUMP JUMPDEST PUSH2 0xF1 DUP2 PUSH2 0x16D JUMP JUMPDEST PUSH0 PUSH2 0xFB DUP3 PUSH2 0x1F6 JUMP JUMPDEST SWAP1 POP PUSH2 0x112 CALLER DUP3 DUP5 PUSH2 0x10D SWAP2 SWAP1 PUSH2 0x3A9 JUMP JUMPDEST PUSH2 0x217 JUMP JUMPDEST DUP1 DUP3 PUSH2 0x11E SWAP2 SWAP1 PUSH2 0x3A9 JUMP JUMPDEST PUSH1 0x1 PUSH0 DUP3 DUP3 SLOAD PUSH2 0x12E SWAP2 SWAP1 PUSH2 0x3A9 JUMP JUMPDEST SWAP3 POP POP DUP2 SWAP1 SSTORE POP POP POP JUMP JUMPDEST PUSH1 0x1 SLOAD DUP2 JUMP JUMPDEST PUSH2 0x148 DUP2 PUSH2 0x16D JUMP JUMPDEST PUSH2 0x152 CALLER DUP3 PUSH2 0x217 JUMP JUMPDEST DUP1 PUSH1 0x1 PUSH0 DUP3 DUP3 SLOAD PUSH2 0x163 SWAP2 SWAP1 PUSH2 0x3A9 JUMP JUMPDEST SWAP3 POP POP DUP2 SWAP1 SSTORE POP POP JUMP JUMPDEST PUSH0 DUP2 GT PUSH2 0x1AF JUMPI PUSH1 0x40 MLOAD PUSH32 0x8C379A000000000000000000000000000000000000000000000000000000000 DUP2 MSTORE PUSH1 0x4 ADD PUSH2 0x1A6 SWAP1 PUSH2 0x436 JUMP JUMPDEST PUSH1 0x40 MLOAD DUP1 SWAP2 SUB SWAP1 REVERT JUMPDEST PUSH1 0x64 DUP2 GT ISZERO PUSH2 0x1F3 JUMPI PUSH1 0x40 MLOAD PUSH32 0x8C379A000000000000000000000000000000000000000000000000000000000 DUP2 MSTORE PUSH1 0x4 ADD PUSH2 0x1EA SWAP1 PUSH2 0x49E JUMP JUMPDEST PUSH1 0x40 MLOAD DUP1 SWAP2 SUB SWAP1 REVERT JUMPDEST POP JUMP JUMPDEST PUSH0 PUSH1 0x64 PUSH1 0xA DUP4 PUSH2 0x206 SWAP2 SWAP1 PUSH2 0x4BC JUMP JUMPDEST PUSH2 0x210 SWAP2 SWAP1 PUSH2 0x52A JUMP JUMPDEST SWAP1 POP SWAP2 SWAP1 POP JUMP JUMPDEST DUP1 PUSH0 PUSH0 DUP5 PUSH20 0xFFFFFFFFFFFFFFFFFFFFFFFFFFFFFFFFFFFFFFFF AND PUSH20 0xFFFFFFFFFFFFFFFFFFFFFFFFFFFFFFFFFFFFFFFF AND DUP2 MSTORE PUSH1 0x20 ADD SWAP1 DUP2 MSTORE PUSH1 0x20 ADD PUSH0 KECCAK256 PUSH0 DUP3 DUP3 SLOAD PUSH2 0x262 SWAP2 SWAP1 PUSH2 0x3A9 JUMP JUMPDEST SWAP3 POP POP DUP2 SWAP1 SSTORE POP POP POP JUMP JUMPDEST PUSH0 PUSH0 REVERT JUMPDEST PUSH0 PUSH20 0xFFFFFFFFFFFFFFFFFFFFFFFFFFFFFFFFFFFFFFFF DUP3 AND SWAP1 POP SWAP2 SWAP1 POP JUMP JUMPDEST PUSH0 PUSH2 0x29A DUP3 PUSH2 0x271 JUMP JUMPDEST SWAP1 POP SWAP2 SWAP1 POP JUMP JUMPDEST PUSH2 0x2AA DUP2 PUSH2 0x290 JUMP JUMPDEST DUP2 EQ PUSH2 0x2B4 JUMPI PUSH0 PUSH0 REVERT JUMPDEST POP JUMP JUMPDEST PUSH0 DUP2 CALLDATALOAD SWAP1 POP PUSH2 0x2C5 DUP2 PUSH2 0x2A1 JUMP JUMPDEST SWAP3 SWAP2 POP POP JUMP JUMPDEST PUSH0 PUSH1 0x20 DUP3 DUP5 SUB SLT ISZERO PUSH2 0x2E0 JUMPI PUSH2 0x2DF PUSH2 0x26D JUMP JUMPDEST JUMPDEST PUSH0 PUSH2 0x2ED DUP5 DUP3 DUP6 ADD PUSH2 0x2B7 JUMP JUMPDEST SWAP2 POP POP SWAP3 SWAP2 POP POP JUMP JUMPDEST PUSH0 DUP2 SWAP1 POP SWAP2 SWAP1 POP JUMP JUMPDEST PUSH2 0x308 DUP2 PUSH2 0x2F6 JUMP JUMPDEST DUP3 MSTORE POP POP JUMP JUMPDEST PUSH0 PUSH1 0x20 DUP3 ADD SWAP1 POP PUSH2 0x321 PUSH0 DUP4 ADD DUP5 PUSH2 0x2FF JUMP JUMPDEST SWAP3 SWAP2 POP POP JUMP JUMPDEST PUSH2 0x330 DUP2 PUSH2 0x2F6 JUMP JUMPDEST DUP2 EQ PUSH2 0x33A JUMPI PUSH0 PUSH0 REVERT JUMPDEST POP JUMP JUMPDEST PUSH0 DUP2 CALLDATALOAD SWAP1 POP PUSH2 0x34B DUP2 PUSH2 0x327 JUMP JUMPDEST SWAP3 SWAP2 POP POP JUMP JUMPDEST PUSH0 PUSH1 0x20 DUP3 DUP5 SUB SLT ISZERO PUSH2 0x366 JUMPI PUSH2 0x365 PUSH2 0x26D JUMP JUMPDEST JUMPDEST PUSH0 PUSH2 0x373 DUP5 DUP3 DUP6 ADD PUSH2 0x33D JUMP JUMPDEST SWAP2 POP POP SWAP3 SWAP2 POP POP JUMP JUMPDEST PUSH32 0x4E487B7100000000000000000000000000000000000000000000000000000000 PUSH0 MSTORE PUSH1 0x11 PUSH1 0x4 MSTORE PUSH1 0x24 PUSH0 REVERT JUMPDEST PUSH0 PUSH2 0x3B3 DUP3 PUSH2 0x2F6 JUMP JUMPDEST SWAP2 POP PUSH2 0x3BE DUP4 PUSH2 0x2F6 JUMP JUMPDEST SWAP3 POP DUP3 DUP3 ADD SWAP1 POP DUP1 DUP3 GT ISZERO PUSH2 0x3D6 JUMPI PUSH2 0x3D5 PUSH2 0x37C JUMP JUMPDEST JUMPDEST SWAP3 SWAP2 POP POP JUMP JUMPDEST PUSH0 DUP3 DUP3 MSTORE PUSH1 0x20 DUP3 ADD SWAP1 POP SWAP3 SWAP2 POP POP JUMP JUMPDEST PUSH32 0x416D6F756E74206D757374206265203E20300000000000000000000000000000 PUSH0 DUP3 ADD MSTORE POP JUMP JUMPDEST PUSH0 PUSH2 0x420 PUSH1 0x12 DUP4 PUSH2 0x3DC JUMP JUMPDEST SWAP2 POP PUSH2 0x42B DUP3 PUSH2 0x3EC JUMP JUMPDEST PUSH1 0x20 DUP3 ADD SWAP1 POP SWAP2 SWAP1 POP JUMP JUMPDEST PUSH0 PUSH1 0x20 DUP3 ADD SWAP1 POP DUP2 DUP2 SUB PUSH0 DUP4 ADD MSTORE PUSH2 0x44D DUP2 PUSH2 0x414 JUMP JUMPDEST SWAP1 POP SWAP2 SWAP1 POP JUMP JUMPDEST PUSH32 0x416D6F756E7420746F6F206C6172676500000000000000000000000000000000 PUSH0 DUP3 ADD MSTORE POP JUMP JUMPDEST PUSH0 PUSH2 0x488 PUSH1 0x10 DUP4 PUSH2 0x3DC JUMP JUMPDEST SWAP2 POP PUSH2 0x493 DUP3 PUSH2 0x454 JUMP JUMPDEST PUSH1 0x20 DUP3 ADD SWAP1 POP SWAP2 SWAP1 POP JUMP JUMPDEST PUSH0 PUSH1 0x20 DUP3 ADD SWAP1 POP DUP2 DUP2 SUB PUSH0 DUP4 ADD MSTORE PUSH2 0x4B5 DUP2 PUSH2 0x47C JUMP JUMPDEST SWAP1 POP SWAP2 SWAP1 POP JUMP JUMPDEST PUSH0 PUSH2 0x4C6 DUP3 PUSH2 0x2F6 JUMP JUMPDEST SWAP2 POP PUSH2 0x4D1 DUP4 PUSH2 0x2F6 JUMP JUMPDEST SWAP3 POP DUP3 DUP3 MUL PUSH2 0x4DF DUP2 PUSH2 0x2F6 JUMP JUMPDEST SWAP2 POP DUP3 DUP3 DIV DUP5 EQ DUP4 ISZERO OR PUSH2 0x4F6 JUMPI PUSH2 0x4F5 PUSH2 0x37C JUMP JUMPDEST JUMPDEST POP SWAP3 SWAP2 POP POP JUMP JUMPDEST PUSH32 0x4E487B7100000000000000000000000000000000000000000000000000000000 PUSH0 MSTORE PUSH1 0x12 PUSH1 0x4 MSTORE PUSH1 0x24 PUSH0 REVERT JUMPDEST PUSH0 PUSH2 0x534 DUP3 PUSH2 0x2F6 JUMP JUMPDEST SWAP2 POP PUSH2 0x53F DUP4 PUSH2 0x2F6 JUMP JUMPDEST SWAP3 POP DUP3 PUSH2 0x54F JUMPI PUSH2 0x54E PUSH2 0x4FD JUMP JUMPDEST JUMPDEST DUP3 DUP3 DIV SWAP1 POP SWAP3 SWAP2 POP POP JUMP INVALID LOG2 PUSH5 0x6970667358 0x22 SLT KECCAK256 SELFBALANCE BLOBBASEFEE CHAINID 0xC3 0x2B SWAP12 DELEGATECALL 0xC8 0x24 0x1F DUP12 0xB4 DUP4 KECCAK256 PUSH3 0x841E8F RJUMP 0x48C4 EXTDELEGATECALL GASLIMIT GAS 0xBF EXP 0x4E LOG2 0xCE SWAP3 EXTDELEGATECALL 0xBC PUSH5 0x736F6C6343 STOP ADDMOD 0x22 STOP CALLER "
				},
				"gasEstimates": {
					"creation": {
						"codeDepositCost": "284800",
						"executionCost": "322",
						"totalCost": "285122"
					},
					"external": {
						"balances(address)": "2779",
						"deposit(uint256)": "infinite",
						"depositWithBonus(uint256)": "infinite",
						"totalDeposits()": "2447"
					},
					"internal": {
						"_calculateBonus(uint256)": "infinite",
						"_updateBalance(address,uint256)": "infinite",
						"_validateAmount(uint256)": "infinite"
					}
				},
				"methodIdentifiers": {
					"balances(address)": "27e235e3",
					"deposit(uint256)": "b6b55f25",
					"depositWithBonus(uint256)": "2f7c9ed6",
					"totalDeposits()": "7d882097"
				}
			},
			"storageLayout": {
				"storage": [
					{
						"astId": 5,
						"contract": "prac42.sol:InternalFunctionFlowVul",
						"label": "balances",
						"offset": 0,
						"slot": "0",
						"type": "t_mapping(t_address,t_uint256)"
					},
					{
						"astId": 7,
						"contract": "prac42.sol:InternalFunctionFlowVul",
						"label": "totalDeposits",
						"offset": 0,
						"slot": "1",
						"type": "t_uint256"
					}
				],
				"types": {
					"t_address": {
						"encoding": "inplace",
						"label": "address",
						"numberOfBytes": "20"
					},
					"t_mapping(t_address,t_uint256)": {
						"encoding": "mapping",
						"key": "t_address",
						"label": "mapping(address => uint256)",
						"numberOfBytes": "32",
						"value": "t_uint256"
					},
					"t_uint256": {
						"encoding": "inplace",
						"label": "uint256",
						"numberOfBytes": "32"
					}
				}
			},
			"userdoc": {
				"kind": "user",
				"methods": {},
				"version": 1
			}
		}
	}
}