{
	"prac60.sol": {
		"DangerousUncheckedCallVul": {
			"abi": [
				{
					"inputs": [
						{
							"internalType": "address",
							"name": "",
							"type": "address"
						}
					],
					"name": "balances",
					"outputs": [
						{
							"internalType": "uint256",
							"name": "",
							"type": "uint256"
						}
					],
					"stateMutability": "view",
					"type": "function"
				},
				{
					"inputs": [],
					"name": "contractBalance",
					"outputs": [
						{
							"internalType": "uint256",
							"name": "",
							"type": "uint256"
						}
					],
					"stateMutability": "view",
					"type": "function"
				},
				{
					"inputs": [
						{
							"internalType": "address payable",
							"name": "_receiver",
							"type": "address"
						},
						{
							"internalType": "uint256",
							"name": "_amount",
							"type": "uint256"
						}
					],
					"name": "dangerousWithdraw",
					"outputs": [],
					"stateMutability": "nonpayable",
					"type": "function"
				},
				{
					"inputs": [],
					"name": "deposit",
					"outputs": [],
					"stateMutability": "payable",
					"type": "function"
				},
				{
					"inputs": [
						{
							"internalType": "address",
							"name": "",
							"type": "address"
						}
					],
					"name": "withdrawn",
					"outputs": [
						{
							"internalType": "bool",
							"name": "",
							"type": "bool"
						}
					],
					"stateMutability": "view",
					"type": "function"
				}
			],
			"devdoc": {
				"kind": "dev",
				"methods": {},
				"version": 1
			},
			"evm": {
				"assembly": "    /* \"prac60.sol\":2480:3580  contract DangerousUncheckedCallVul {... */\n  mstore(0x40, 0x80)\n  callvalue\n  dup1\n  iszero\n  tag_1\n  jumpi\n  revert(0x00, 0x00)\ntag_1:\n  pop\n  dataSize(sub_0)\n  dup1\n  dataOffset(sub_0)\n  0x00\n  codecopy\n  0x00\n  return\nstop\n\nsub_0: assembly {\n        /* \"prac60.sol\":2480:3580  contract DangerousUncheckedCallVul {... */\n      mstore(0x40, 0x80)\n      jumpi(tag_1, lt(calldatasize, 0x04))\n      shr(0xe0, calldataload(0x00))\n      dup1\n      0x27e235e3\n      eq\n      tag_2\n      jumpi\n      dup1\n      0x6ef61092\n      eq\n      tag_3\n      jumpi\n      dup1\n      0x8b7afe2e\n      eq\n      tag_4\n      jumpi\n      dup1\n      0xd0e30db0\n      eq\n      tag_5\n      jumpi\n      dup1\n      0xf9087315\n      eq\n      tag_6\n      jumpi\n    tag_1:\n      revert(0x00, 0x00)\n        /* \"prac60.sol\":2524:2567  mapping(address => uint256) public balances */\n    tag_2:\n      callvalue\n      dup1\n      iszero\n      tag_7\n      jumpi\n      revert(0x00, 0x00)\n    tag_7:\n      pop\n      tag_8\n      0x04\n      dup1\n      calldatasize\n      sub\n      dup2\n      add\n      swap1\n      tag_9\n      swap2\n      swap1\n      tag_10\n      jump\t// in\n    tag_9:\n      tag_11\n      jump\t// in\n    tag_8:\n      mload(0x40)\n      tag_12\n      swap2\n      swap1\n      tag_13\n      jump\t// in\n    tag_12:\n      mload(0x40)\n      dup1\n      swap2\n      sub\n      swap1\n      return\n        /* \"prac60.sol\":2576:2617  mapping(address => bool) public withdrawn */\n    tag_3:\n      callvalue\n      dup1\n      iszero\n      tag_14\n      jumpi\n      revert(0x00, 0x00)\n    tag_14:\n      pop\n      tag_15\n      0x04\n      dup1\n      calldatasize\n      sub\n      dup2\n      add\n      swap1\n      tag_16\n      swap2\n      swap1\n      tag_10\n      jump\t// in\n    tag_16:\n      tag_17\n      jump\t// in\n    tag_15:\n      mload(0x40)\n      tag_18\n      swap2\n      swap1\n      tag_19\n      jump\t// in\n    tag_18:\n      mload(0x40)\n      dup1\n      swap2\n      sub\n      swap1\n      return\n        /* \"prac60.sol\":3440:3577  function contractBalance()... */\n    tag_4:\n      callvalue\n      dup1\n      iszero\n      tag_20\n      jumpi\n      revert(0x00, 0x00)\n    tag_20:\n      pop\n      tag_21\n      tag_22\n      jump\t// in\n    tag_21:\n      mload(0x40)\n      tag_23\n      swap2\n      swap1\n      tag_13\n      jump\t// in\n    tag_23:\n      mload(0x40)\n      dup1\n      swap2\n      sub\n      swap1\n      return\n        /* \"prac60.sol\":2626:2714  function deposit() external payable {... */\n    tag_5:\n      tag_24\n      tag_25\n      jump\t// in\n    tag_24:\n      stop\n        /* \"prac60.sol\":2814:3432  function dangerousWithdraw(... */\n    tag_6:\n      callvalue\n      dup1\n      iszero\n      tag_26\n      jumpi\n      revert(0x00, 0x00)\n    tag_26:\n      pop\n      tag_27\n      0x04\n      dup1\n      calldatasize\n      sub\n      dup2\n      add\n      swap1\n      tag_28\n      swap2\n      swap1\n      tag_29\n      jump\t// in\n    tag_28:\n      tag_30\n      jump\t// in\n    tag_27:\n      stop\n        /* \"prac60.sol\":2524:2567  mapping(address => uint256) public balances */\n    tag_11:\n      mstore(0x20, 0x00)\n      dup1\n      0x00\n      mstore\n      keccak256(0x00, 0x40)\n      0x00\n      swap2\n      pop\n      swap1\n      pop\n      sload\n      dup2\n      jump\t// out\n        /* \"prac60.sol\":2576:2617  mapping(address => bool) public withdrawn */\n    tag_17:\n      mstore(0x20, 0x01)\n      dup1\n      0x00\n      mstore\n      keccak256(0x00, 0x40)\n      0x00\n      swap2\n      pop\n      sload\n      swap1\n      0x0100\n      exp\n      swap1\n      div\n      0xff\n      and\n      dup2\n      jump\t// out\n        /* \"prac60.sol\":3440:3577  function contractBalance()... */\n    tag_22:\n        /* \"prac60.sol\":3516:3523  uint256 */\n      0x00\n        /* \"prac60.sol\":3548:3569  address(this).balance */\n      selfbalance\n        /* \"prac60.sol\":3541:3569  return address(this).balance */\n      swap1\n      pop\n        /* \"prac60.sol\":3440:3577  function contractBalance()... */\n      swap1\n      jump\t// out\n        /* \"prac60.sol\":2626:2714  function deposit() external payable {... */\n    tag_25:\n        /* \"prac60.sol\":2697:2706  msg.value */\n      callvalue\n        /* \"prac60.sol\":2673:2681  balances */\n      0x00\n        /* \"prac60.sol\":2673:2693  balances[msg.sender] */\n      0x00\n        /* \"prac60.sol\":2682:2692  msg.sender */\n      caller\n        /* \"prac60.sol\":2673:2693  balances[msg.sender] */\n      0xffffffffffffffffffffffffffffffffffffffff\n      and\n      0xffffffffffffffffffffffffffffffffffffffff\n      and\n      dup2\n      mstore\n      0x20\n      add\n      swap1\n      dup2\n      mstore\n      0x20\n      add\n      0x00\n      keccak256\n      0x00\n        /* \"prac60.sol\":2673:2706  balances[msg.sender] += msg.value */\n      dup3\n      dup3\n      sload\n      tag_33\n      swap2\n      swap1\n      tag_34\n      jump\t// in\n    tag_33:\n      swap3\n      pop\n      pop\n      dup2\n      swap1\n      sstore\n      pop\n        /* \"prac60.sol\":2626:2714  function deposit() external payable {... */\n      jump\t// out\n        /* \"prac60.sol\":2814:3432  function dangerousWithdraw(... */\n    tag_30:\n        /* \"prac60.sol\":2978:2985  _amount */\n      dup1\n        /* \"prac60.sol\":2954:2962  balances */\n      0x00\n        /* \"prac60.sol\":2954:2974  balances[msg.sender] */\n      0x00\n        /* \"prac60.sol\":2963:2973  msg.sender */\n      caller\n        /* \"prac60.sol\":2954:2974  balances[msg.sender] */\n      0xffffffffffffffffffffffffffffffffffffffff\n      and\n      0xffffffffffffffffffffffffffffffffffffffff\n      and\n      dup2\n      mstore\n      0x20\n      add\n      swap1\n      dup2\n      mstore\n      0x20\n      add\n      0x00\n      keccak256\n      sload\n        /* \"prac60.sol\":2954:2985  balances[msg.sender] >= _amount */\n      lt\n      iszero\n        /* \"prac60.sol\":2932:3033  require(... */\n      tag_36\n      jumpi\n      mload(0x40)\n      0x08c379a000000000000000000000000000000000000000000000000000000000\n      dup2\n      mstore\n      0x04\n      add\n      tag_37\n      swap1\n      tag_38\n      jump\t// in\n    tag_37:\n      mload(0x40)\n      dup1\n      swap2\n      sub\n      swap1\n      revert\n    tag_36:\n        /* \"prac60.sol\":3070:3077  _amount */\n      dup1\n        /* \"prac60.sol\":3046:3054  balances */\n      0x00\n        /* \"prac60.sol\":3046:3066  balances[msg.sender] */\n      0x00\n        /* \"prac60.sol\":3055:3065  msg.sender */\n      caller\n        /* \"prac60.sol\":3046:3066  balances[msg.sender] */\n      0xffffffffffffffffffffffffffffffffffffffff\n      and\n      0xffffffffffffffffffffffffffffffffffffffff\n      and\n      dup2\n      mstore\n      0x20\n      add\n      swap1\n      dup2\n      mstore\n      0x20\n      add\n      0x00\n      keccak256\n      0x00\n        /* \"prac60.sol\":3046:3077  balances[msg.sender] -= _amount */\n      dup3\n      dup3\n      sload\n      tag_39\n      swap2\n      swap1\n      tag_40\n      jump\t// in\n    tag_39:\n      swap3\n      pop\n      pop\n      dup2\n      swap1\n      sstore\n      pop\n        /* \"prac60.sol\":3114:3118  true */\n      0x01\n        /* \"prac60.sol\":3090:3099  withdrawn */\n      dup1\n        /* \"prac60.sol\":3090:3111  withdrawn[msg.sender] */\n      0x00\n        /* \"prac60.sol\":3100:3110  msg.sender */\n      caller\n        /* \"prac60.sol\":3090:3111  withdrawn[msg.sender] */\n      0xffffffffffffffffffffffffffffffffffffffff\n      and\n      0xffffffffffffffffffffffffffffffffffffffff\n      and\n      dup2\n      mstore\n      0x20\n      add\n      swap1\n      dup2\n      mstore\n      0x20\n      add\n      0x00\n      keccak256\n      0x00\n        /* \"prac60.sol\":3090:3118  withdrawn[msg.sender] = true */\n      0x0100\n      exp\n      dup2\n      sload\n      dup2\n      0xff\n      mul\n      not\n      and\n      swap1\n      dup4\n      iszero\n      iszero\n      mul\n      or\n      swap1\n      sstore\n      pop\n        /* \"prac60.sol\":3168:3177  _receiver */\n      dup2\n        /* \"prac60.sol\":3168:3182  _receiver.call */\n      0xffffffffffffffffffffffffffffffffffffffff\n      and\n        /* \"prac60.sol\":3190:3197  _amount */\n      dup2\n        /* \"prac60.sol\":3168:3202  _receiver.call{value: _amount}(\"\") */\n      mload(0x40)\n      tag_41\n      swap1\n      tag_42\n      jump\t// in\n    tag_41:\n      0x00\n      mload(0x40)\n      dup1\n      dup4\n      sub\n      dup2\n      dup6\n      dup8\n      gas\n      call\n      swap3\n      pop\n      pop\n      pop\n      returndatasize\n      dup1\n      0x00\n      dup2\n      eq\n      tag_45\n      jumpi\n      mload(0x40)\n      swap2\n      pop\n      and(add(returndatasize, 0x3f), not(0x1f))\n      dup3\n      add\n      0x40\n      mstore\n      returndatasize\n      dup3\n      mstore\n      returndatasize\n      0x00\n      0x20\n      dup5\n      add\n      returndatacopy\n      jump(tag_44)\n    tag_45:\n      0x60\n      swap2\n      pop\n    tag_44:\n      pop\n      pop\n      pop\n        /* \"prac60.sol\":2814:3432  function dangerousWithdraw(... */\n      pop\n      pop\n      jump\t// out\n        /* \"#utility.yul\":88:205   */\n    tag_47:\n        /* \"#utility.yul\":197:198   */\n      0x00\n        /* \"#utility.yul\":194:195   */\n      0x00\n        /* \"#utility.yul\":187:199   */\n      revert\n        /* \"#utility.yul\":334:460   */\n    tag_49:\n        /* \"#utility.yul\":371:378   */\n      0x00\n        /* \"#utility.yul\":411:453   */\n      0xffffffffffffffffffffffffffffffffffffffff\n        /* \"#utility.yul\":404:409   */\n      dup3\n        /* \"#utility.yul\":400:454   */\n      and\n        /* \"#utility.yul\":389:454   */\n      swap1\n      pop\n        /* \"#utility.yul\":334:460   */\n      swap2\n      swap1\n      pop\n      jump\t// out\n        /* \"#utility.yul\":466:562   */\n    tag_50:\n        /* \"#utility.yul\":503:510   */\n      0x00\n        /* \"#utility.yul\":532:556   */\n      tag_75\n        /* \"#utility.yul\":550:555   */\n      dup3\n        /* \"#utility.yul\":532:556   */\n      tag_49\n      jump\t// in\n    tag_75:\n        /* \"#utility.yul\":521:556   */\n      swap1\n      pop\n        /* \"#utility.yul\":466:562   */\n      swap2\n      swap1\n      pop\n      jump\t// out\n        /* \"#utility.yul\":568:690   */\n    tag_51:\n        /* \"#utility.yul\":641:665   */\n      tag_77\n        /* \"#utility.yul\":659:664   */\n      dup2\n        /* \"#utility.yul\":641:665   */\n      tag_50\n      jump\t// in\n    tag_77:\n        /* \"#utility.yul\":634:639   */\n      dup2\n        /* \"#utility.yul\":631:666   */\n      eq\n        /* \"#utility.yul\":621:684   */\n      tag_78\n      jumpi\n        /* \"#utility.yul\":680:681   */\n      0x00\n        /* \"#utility.yul\":677:678   */\n      0x00\n        /* \"#utility.yul\":670:682   */\n      revert\n        /* \"#utility.yul\":621:684   */\n    tag_78:\n        /* \"#utility.yul\":568:690   */\n      pop\n      jump\t// out\n        /* \"#utility.yul\":696:835   */\n    tag_52:\n        /* \"#utility.yul\":742:747   */\n      0x00\n        /* \"#utility.yul\":780:786   */\n      dup2\n        /* \"#utility.yul\":767:787   */\n      calldataload\n        /* \"#utility.yul\":758:787   */\n      swap1\n      pop\n        /* \"#utility.yul\":796:829   */\n      tag_80\n        /* \"#utility.yul\":823:828   */\n      dup2\n        /* \"#utility.yul\":796:829   */\n      tag_51\n      jump\t// in\n    tag_80:\n        /* \"#utility.yul\":696:835   */\n      swap3\n      swap2\n      pop\n      pop\n      jump\t// out\n        /* \"#utility.yul\":841:1170   */\n    tag_10:\n        /* \"#utility.yul\":900:906   */\n      0x00\n        /* \"#utility.yul\":949:951   */\n      0x20\n        /* \"#utility.yul\":937:946   */\n      dup3\n        /* \"#utility.yul\":928:935   */\n      dup5\n        /* \"#utility.yul\":924:947   */\n      sub\n        /* \"#utility.yul\":920:952   */\n      slt\n        /* \"#utility.yul\":917:1036   */\n      iszero\n      tag_82\n      jumpi\n        /* \"#utility.yul\":955:1034   */\n      tag_83\n      tag_47\n      jump\t// in\n    tag_83:\n        /* \"#utility.yul\":917:1036   */\n    tag_82:\n        /* \"#utility.yul\":1075:1076   */\n      0x00\n        /* \"#utility.yul\":1100:1153   */\n      tag_84\n        /* \"#utility.yul\":1145:1152   */\n      dup5\n        /* \"#utility.yul\":1136:1142   */\n      dup3\n        /* \"#utility.yul\":1125:1134   */\n      dup6\n        /* \"#utility.yul\":1121:1143   */\n      add\n        /* \"#utility.yul\":1100:1153   */\n      tag_52\n      jump\t// in\n    tag_84:\n        /* \"#utility.yul\":1090:1153   */\n      swap2\n      pop\n        /* \"#utility.yul\":1046:1163   */\n      pop\n        /* \"#utility.yul\":841:1170   */\n      swap3\n      swap2\n      pop\n      pop\n      jump\t// out\n        /* \"#utility.yul\":1176:1253   */\n    tag_53:\n        /* \"#utility.yul\":1213:1220   */\n      0x00\n        /* \"#utility.yul\":1242:1247   */\n      dup2\n        /* \"#utility.yul\":1231:1247   */\n      swap1\n      pop\n        /* \"#utility.yul\":1176:1253   */\n      swap2\n      swap1\n      pop\n      jump\t// out\n        /* \"#utility.yul\":1259:1377   */\n    tag_54:\n        /* \"#utility.yul\":1346:1370   */\n      tag_87\n        /* \"#utility.yul\":1364:1369   */\n      dup2\n        /* \"#utility.yul\":1346:1370   */\n      tag_53\n      jump\t// in\n    tag_87:\n        /* \"#utility.yul\":1341:1344   */\n      dup3\n        /* \"#utility.yul\":1334:1371   */\n      mstore\n        /* \"#utility.yul\":1259:1377   */\n      pop\n      pop\n      jump\t// out\n        /* \"#utility.yul\":1383:1605   */\n    tag_13:\n        /* \"#utility.yul\":1476:1480   */\n      0x00\n        /* \"#utility.yul\":1514:1516   */\n      0x20\n        /* \"#utility.yul\":1503:1512   */\n      dup3\n        /* \"#utility.yul\":1499:1517   */\n      add\n        /* \"#utility.yul\":1491:1517   */\n      swap1\n      pop\n        /* \"#utility.yul\":1527:1598   */\n      tag_89\n        /* \"#utility.yul\":1595:1596   */\n      0x00\n        /* \"#utility.yul\":1584:1593   */\n      dup4\n        /* \"#utility.yul\":1580:1597   */\n      add\n        /* \"#utility.yul\":1571:1577   */\n      dup5\n        /* \"#utility.yul\":1527:1598   */\n      tag_54\n      jump\t// in\n    tag_89:\n        /* \"#utility.yul\":1383:1605   */\n      swap3\n      swap2\n      pop\n      pop\n      jump\t// out\n        /* \"#utility.yul\":1611:1701   */\n    tag_55:\n        /* \"#utility.yul\":1645:1652   */\n      0x00\n        /* \"#utility.yul\":1688:1693   */\n      dup2\n        /* \"#utility.yul\":1681:1694   */\n      iszero\n        /* \"#utility.yul\":1674:1695   */\n      iszero\n        /* \"#utility.yul\":1663:1695   */\n      swap1\n      pop\n        /* \"#utility.yul\":1611:1701   */\n      swap2\n      swap1\n      pop\n      jump\t// out\n        /* \"#utility.yul\":1707:1816   */\n    tag_56:\n        /* \"#utility.yul\":1788:1809   */\n      tag_92\n        /* \"#utility.yul\":1803:1808   */\n      dup2\n        /* \"#utility.yul\":1788:1809   */\n      tag_55\n      jump\t// in\n    tag_92:\n        /* \"#utility.yul\":1783:1786   */\n      dup3\n        /* \"#utility.yul\":1776:1810   */\n      mstore\n        /* \"#utility.yul\":1707:1816   */\n      pop\n      pop\n      jump\t// out\n        /* \"#utility.yul\":1822:2032   */\n    tag_19:\n        /* \"#utility.yul\":1909:1913   */\n      0x00\n        /* \"#utility.yul\":1947:1949   */\n      0x20\n        /* \"#utility.yul\":1936:1945   */\n      dup3\n        /* \"#utility.yul\":1932:1950   */\n      add\n        /* \"#utility.yul\":1924:1950   */\n      swap1\n      pop\n        /* \"#utility.yul\":1960:2025   */\n      tag_94\n        /* \"#utility.yul\":2022:2023   */\n      0x00\n        /* \"#utility.yul\":2011:2020   */\n      dup4\n        /* \"#utility.yul\":2007:2024   */\n      add\n        /* \"#utility.yul\":1998:2004   */\n      dup5\n        /* \"#utility.yul\":1960:2025   */\n      tag_56\n      jump\t// in\n    tag_94:\n        /* \"#utility.yul\":1822:2032   */\n      swap3\n      swap2\n      pop\n      pop\n      jump\t// out\n        /* \"#utility.yul\":2038:2142   */\n    tag_57:\n        /* \"#utility.yul\":2083:2090   */\n      0x00\n        /* \"#utility.yul\":2112:2136   */\n      tag_96\n        /* \"#utility.yul\":2130:2135   */\n      dup3\n        /* \"#utility.yul\":2112:2136   */\n      tag_49\n      jump\t// in\n    tag_96:\n        /* \"#utility.yul\":2101:2136   */\n      swap1\n      pop\n        /* \"#utility.yul\":2038:2142   */\n      swap2\n      swap1\n      pop\n      jump\t// out\n        /* \"#utility.yul\":2148:2286   */\n    tag_58:\n        /* \"#utility.yul\":2229:2261   */\n      tag_98\n        /* \"#utility.yul\":2255:2260   */\n      dup2\n        /* \"#utility.yul\":2229:2261   */\n      tag_57\n      jump\t// in\n    tag_98:\n        /* \"#utility.yul\":2222:2227   */\n      dup2\n        /* \"#utility.yul\":2219:2262   */\n      eq\n        /* \"#utility.yul\":2209:2280   */\n      tag_99\n      jumpi\n        /* \"#utility.yul\":2276:2277   */\n      0x00\n        /* \"#utility.yul\":2273:2274   */\n      0x00\n        /* \"#utility.yul\":2266:2278   */\n      revert\n        /* \"#utility.yul\":2209:2280   */\n    tag_99:\n        /* \"#utility.yul\":2148:2286   */\n      pop\n      jump\t// out\n        /* \"#utility.yul\":2292:2447   */\n    tag_59:\n        /* \"#utility.yul\":2346:2351   */\n      0x00\n        /* \"#utility.yul\":2384:2390   */\n      dup2\n        /* \"#utility.yul\":2371:2391   */\n      calldataload\n        /* \"#utility.yul\":2362:2391   */\n      swap1\n      pop\n        /* \"#utility.yul\":2400:2441   */\n      tag_101\n        /* \"#utility.yul\":2435:2440   */\n      dup2\n        /* \"#utility.yul\":2400:2441   */\n      tag_58\n      jump\t// in\n    tag_101:\n        /* \"#utility.yul\":2292:2447   */\n      swap3\n      swap2\n      pop\n      pop\n      jump\t// out\n        /* \"#utility.yul\":2453:2575   */\n    tag_60:\n        /* \"#utility.yul\":2526:2550   */\n      tag_103\n        /* \"#utility.yul\":2544:2549   */\n      dup2\n        /* \"#utility.yul\":2526:2550   */\n      tag_53\n      jump\t// in\n    tag_103:\n        /* \"#utility.yul\":2519:2524   */\n      dup2\n        /* \"#utility.yul\":2516:2551   */\n      eq\n        /* \"#utility.yul\":2506:2569   */\n      tag_104\n      jumpi\n        /* \"#utility.yul\":2565:2566   */\n      0x00\n        /* \"#utility.yul\":2562:2563   */\n      0x00\n        /* \"#utility.yul\":2555:2567   */\n      revert\n        /* \"#utility.yul\":2506:2569   */\n    tag_104:\n        /* \"#utility.yul\":2453:2575   */\n      pop\n      jump\t// out\n        /* \"#utility.yul\":2581:2720   */\n    tag_61:\n        /* \"#utility.yul\":2627:2632   */\n      0x00\n        /* \"#utility.yul\":2665:2671   */\n      dup2\n        /* \"#utility.yul\":2652:2672   */\n      calldataload\n        /* \"#utility.yul\":2643:2672   */\n      swap1\n      pop\n        /* \"#utility.yul\":2681:2714   */\n      tag_106\n        /* \"#utility.yul\":2708:2713   */\n      dup2\n        /* \"#utility.yul\":2681:2714   */\n      tag_60\n      jump\t// in\n    tag_106:\n        /* \"#utility.yul\":2581:2720   */\n      swap3\n      swap2\n      pop\n      pop\n      jump\t// out\n        /* \"#utility.yul\":2726:3216   */\n    tag_29:\n        /* \"#utility.yul\":2802:2808   */\n      0x00\n        /* \"#utility.yul\":2810:2816   */\n      0x00\n        /* \"#utility.yul\":2859:2861   */\n      0x40\n        /* \"#utility.yul\":2847:2856   */\n      dup4\n        /* \"#utility.yul\":2838:2845   */\n      dup6\n        /* \"#utility.yul\":2834:2857   */\n      sub\n        /* \"#utility.yul\":2830:2862   */\n      slt\n        /* \"#utility.yul\":2827:2946   */\n      iszero\n      tag_108\n      jumpi\n        /* \"#utility.yul\":2865:2944   */\n      tag_109\n      tag_47\n      jump\t// in\n    tag_109:\n        /* \"#utility.yul\":2827:2946   */\n    tag_108:\n        /* \"#utility.yul\":2985:2986   */\n      0x00\n        /* \"#utility.yul\":3010:3071   */\n      tag_110\n        /* \"#utility.yul\":3063:3070   */\n      dup6\n        /* \"#utility.yul\":3054:3060   */\n      dup3\n        /* \"#utility.yul\":3043:3052   */\n      dup7\n        /* \"#utility.yul\":3039:3061   */\n      add\n        /* \"#utility.yul\":3010:3071   */\n      tag_59\n      jump\t// in\n    tag_110:\n        /* \"#utility.yul\":3000:3071   */\n      swap3\n      pop\n        /* \"#utility.yul\":2956:3081   */\n      pop\n        /* \"#utility.yul\":3120:3122   */\n      0x20\n        /* \"#utility.yul\":3146:3199   */\n      tag_111\n        /* \"#utility.yul\":3191:3198   */\n      dup6\n        /* \"#utility.yul\":3182:3188   */\n      dup3\n        /* \"#utility.yul\":3171:3180   */\n      dup7\n        /* \"#utility.yul\":3167:3189   */\n      add\n        /* \"#utility.yul\":3146:3199   */\n      tag_61\n      jump\t// in\n    tag_111:\n        /* \"#utility.yul\":3136:3199   */\n      swap2\n      pop\n        /* \"#utility.yul\":3091:3209   */\n      pop\n        /* \"#utility.yul\":2726:3216   */\n      swap3\n      pop\n      swap3\n      swap1\n      pop\n      jump\t// out\n        /* \"#utility.yul\":3222:3402   */\n    tag_62:\n        /* \"#utility.yul\":3270:3347   */\n      0x4e487b7100000000000000000000000000000000000000000000000000000000\n        /* \"#utility.yul\":3267:3268   */\n      0x00\n        /* \"#utility.yul\":3260:3348   */\n      mstore\n        /* \"#utility.yul\":3367:3371   */\n      0x11\n        /* \"#utility.yul\":3364:3365   */\n      0x04\n        /* \"#utility.yul\":3357:3372   */\n      mstore\n        /* \"#utility.yul\":3391:3395   */\n      0x24\n        /* \"#utility.yul\":3388:3389   */\n      0x00\n        /* \"#utility.yul\":3381:3396   */\n      revert\n        /* \"#utility.yul\":3408:3599   */\n    tag_34:\n        /* \"#utility.yul\":3448:3451   */\n      0x00\n        /* \"#utility.yul\":3467:3487   */\n      tag_114\n        /* \"#utility.yul\":3485:3486   */\n      dup3\n        /* \"#utility.yul\":3467:3487   */\n      tag_53\n      jump\t// in\n    tag_114:\n        /* \"#utility.yul\":3462:3487   */\n      swap2\n      pop\n        /* \"#utility.yul\":3501:3521   */\n      tag_115\n        /* \"#utility.yul\":3519:3520   */\n      dup4\n        /* \"#utility.yul\":3501:3521   */\n      tag_53\n      jump\t// in\n    tag_115:\n        /* \"#utility.yul\":3496:3521   */\n      swap3\n      pop\n        /* \"#utility.yul\":3544:3545   */\n      dup3\n        /* \"#utility.yul\":3541:3542   */\n      dup3\n        /* \"#utility.yul\":3537:3546   */\n      add\n        /* \"#utility.yul\":3530:3546   */\n      swap1\n      pop\n        /* \"#utility.yul\":3565:3568   */\n      dup1\n        /* \"#utility.yul\":3562:3563   */\n      dup3\n        /* \"#utility.yul\":3559:3569   */\n      gt\n        /* \"#utility.yul\":3556:3592   */\n      iszero\n      tag_116\n      jumpi\n        /* \"#utility.yul\":3572:3590   */\n      tag_117\n      tag_62\n      jump\t// in\n    tag_117:\n        /* \"#utility.yul\":3556:3592   */\n    tag_116:\n        /* \"#utility.yul\":3408:3599   */\n      swap3\n      swap2\n      pop\n      pop\n      jump\t// out\n        /* \"#utility.yul\":3605:3774   */\n    tag_63:\n        /* \"#utility.yul\":3689:3700   */\n      0x00\n        /* \"#utility.yul\":3723:3729   */\n      dup3\n        /* \"#utility.yul\":3718:3721   */\n      dup3\n        /* \"#utility.yul\":3711:3730   */\n      mstore\n        /* \"#utility.yul\":3763:3767   */\n      0x20\n        /* \"#utility.yul\":3758:3761   */\n      dup3\n        /* \"#utility.yul\":3754:3768   */\n      add\n        /* \"#utility.yul\":3739:3768   */\n      swap1\n      pop\n        /* \"#utility.yul\":3605:3774   */\n      swap3\n      swap2\n      pop\n      pop\n      jump\t// out\n        /* \"#utility.yul\":3780:3950   */\n    tag_64:\n        /* \"#utility.yul\":3920:3942   */\n      0x496e73756666696369656e742062616c616e6365000000000000000000000000\n        /* \"#utility.yul\":3916:3917   */\n      0x00\n        /* \"#utility.yul\":3908:3914   */\n      dup3\n        /* \"#utility.yul\":3904:3918   */\n      add\n        /* \"#utility.yul\":3897:3943   */\n      mstore\n        /* \"#utility.yul\":3780:3950   */\n      pop\n      jump\t// out\n        /* \"#utility.yul\":3956:4322   */\n    tag_65:\n        /* \"#utility.yul\":4098:4101   */\n      0x00\n        /* \"#utility.yul\":4119:4186   */\n      tag_121\n        /* \"#utility.yul\":4183:4185   */\n      0x14\n        /* \"#utility.yul\":4178:4181   */\n      dup4\n        /* \"#utility.yul\":4119:4186   */\n      tag_63\n      jump\t// in\n    tag_121:\n        /* \"#utility.yul\":4112:4186   */\n      swap2\n      pop\n        /* \"#utility.yul\":4195:4288   */\n      tag_122\n        /* \"#utility.yul\":4284:4287   */\n      dup3\n        /* \"#utility.yul\":4195:4288   */\n      tag_64\n      jump\t// in\n    tag_122:\n        /* \"#utility.yul\":4313:4315   */\n      0x20\n        /* \"#utility.yul\":4308:4311   */\n      dup3\n        /* \"#utility.yul\":4304:4316   */\n      add\n        /* \"#utility.yul\":4297:4316   */\n      swap1\n      pop\n        /* \"#utility.yul\":3956:4322   */\n      swap2\n      swap1\n      pop\n      jump\t// out\n        /* \"#utility.yul\":4328:4747   */\n    tag_38:\n        /* \"#utility.yul\":4494:4498   */\n      0x00\n        /* \"#utility.yul\":4532:4534   */\n      0x20\n        /* \"#utility.yul\":4521:4530   */\n      dup3\n        /* \"#utility.yul\":4517:4535   */\n      add\n        /* \"#utility.yul\":4509:4535   */\n      swap1\n      pop\n        /* \"#utility.yul\":4581:4590   */\n      dup2\n        /* \"#utility.yul\":4575:4579   */\n      dup2\n        /* \"#utility.yul\":4571:4591   */\n      sub\n        /* \"#utility.yul\":4567:4568   */\n      0x00\n        /* \"#utility.yul\":4556:4565   */\n      dup4\n        /* \"#utility.yul\":4552:4569   */\n      add\n        /* \"#utility.yul\":4545:4592   */\n      mstore\n        /* \"#utility.yul\":4609:4740   */\n      tag_124\n        /* \"#utility.yul\":4735:4739   */\n      dup2\n        /* \"#utility.yul\":4609:4740   */\n      tag_65\n      jump\t// in\n    tag_124:\n        /* \"#utility.yul\":4601:4740   */\n      swap1\n      pop\n        /* \"#utility.yul\":4328:4747   */\n      swap2\n      swap1\n      pop\n      jump\t// out\n        /* \"#utility.yul\":4753:4947   */\n    tag_40:\n        /* \"#utility.yul\":4793:4797   */\n      0x00\n        /* \"#utility.yul\":4813:4833   */\n      tag_126\n        /* \"#utility.yul\":4831:4832   */\n      dup3\n        /* \"#utility.yul\":4813:4833   */\n      tag_53\n      jump\t// in\n    tag_126:\n        /* \"#utility.yul\":4808:4833   */\n      swap2\n      pop\n        /* \"#utility.yul\":4847:4867   */\n      tag_127\n        /* \"#utility.yul\":4865:4866   */\n      dup4\n        /* \"#utility.yul\":4847:4867   */\n      tag_53\n      jump\t// in\n    tag_127:\n        /* \"#utility.yul\":4842:4867   */\n      swap3\n      pop\n        /* \"#utility.yul\":4891:4892   */\n      dup3\n        /* \"#utility.yul\":4888:4889   */\n      dup3\n        /* \"#utility.yul\":4884:4893   */\n      sub\n        /* \"#utility.yul\":4876:4893   */\n      swap1\n      pop\n        /* \"#utility.yul\":4915:4916   */\n      dup2\n        /* \"#utility.yul\":4909:4913   */\n      dup2\n        /* \"#utility.yul\":4906:4917   */\n      gt\n        /* \"#utility.yul\":4903:4940   */\n      iszero\n      tag_128\n      jumpi\n        /* \"#utility.yul\":4920:4938   */\n      tag_129\n      tag_62\n      jump\t// in\n    tag_129:\n        /* \"#utility.yul\":4903:4940   */\n    tag_128:\n        /* \"#utility.yul\":4753:4947   */\n      swap3\n      swap2\n      pop\n      pop\n      jump\t// out\n        /* \"#utility.yul\":4953:5100   */\n    tag_66:\n        /* \"#utility.yul\":5054:5065   */\n      0x00\n        /* \"#utility.yul\":5091:5094   */\n      dup2\n        /* \"#utility.yul\":5076:5094   */\n      swap1\n      pop\n        /* \"#utility.yul\":4953:5100   */\n      swap3\n      swap2\n      pop\n      pop\n      jump\t// out\n        /* \"#utility.yul\":5106:5220   */\n    tag_67:\n      pop\n      jump\t// out\n        /* \"#utility.yul\":5226:5624   */\n    tag_68:\n        /* \"#utility.yul\":5385:5388   */\n      0x00\n        /* \"#utility.yul\":5406:5489   */\n      tag_133\n        /* \"#utility.yul\":5487:5488   */\n      0x00\n        /* \"#utility.yul\":5482:5485   */\n      dup4\n        /* \"#utility.yul\":5406:5489   */\n      tag_66\n      jump\t// in\n    tag_133:\n        /* \"#utility.yul\":5399:5489   */\n      swap2\n      pop\n        /* \"#utility.yul\":5498:5591   */\n      tag_134\n        /* \"#utility.yul\":5587:5590   */\n      dup3\n        /* \"#utility.yul\":5498:5591   */\n      tag_67\n      jump\t// in\n    tag_134:\n        /* \"#utility.yul\":5616:5617   */\n      0x00\n        /* \"#utility.yul\":5611:5614   */\n      dup3\n        /* \"#utility.yul\":5607:5618   */\n      add\n        /* \"#utility.yul\":5600:5618   */\n      swap1\n      pop\n        /* \"#utility.yul\":5226:5624   */\n      swap2\n      swap1\n      pop\n      jump\t// out\n        /* \"#utility.yul\":5630:6009   */\n    tag_42:\n        /* \"#utility.yul\":5814:5817   */\n      0x00\n        /* \"#utility.yul\":5836:5983   */\n      tag_136\n        /* \"#utility.yul\":5979:5982   */\n      dup3\n        /* \"#utility.yul\":5836:5983   */\n      tag_68\n      jump\t// in\n    tag_136:\n        /* \"#utility.yul\":5829:5983   */\n      swap2\n      pop\n        /* \"#utility.yul\":6000:6003   */\n      dup2\n        /* \"#utility.yul\":5993:6003   */\n      swap1\n      pop\n        /* \"#utility.yul\":5630:6009   */\n      swap2\n      swap1\n      pop\n      jump\t// out\n\n    auxdata: 0xa264697066735822122027751f5b9e1c97dae353a49888755009a129f2dd1d79f812b478ac3df4c0040564736f6c63430008220033\n}\n",
				"bytecode": {
					"linkReferences": {},
					"object": "6080604052348015600e575f5ffd5b5061064e8061001c5f395ff3fe608060405260043610610049575f3560e01c806327e235e31461004d5780636ef61092146100895780638b7afe2e146100c5578063d0e30db0146100ef578063f9087315146100f9575b5f5ffd5b348015610058575f5ffd5b50610073600480360381019061006e919061039a565b610121565b60405161008091906103dd565b60405180910390f35b348015610094575f5ffd5b506100af60048036038101906100aa919061039a565b610135565b6040516100bc9190610410565b60405180910390f35b3480156100d0575f5ffd5b506100d9610152565b6040516100e691906103dd565b60405180910390f35b6100f7610159565b005b348015610104575f5ffd5b5061011f600480360381019061011a919061048e565b6101ad565b005b5f602052805f5260405f205f915090505481565b6001602052805f5260405f205f915054906101000a900460ff1681565b5f47905090565b345f5f3373ffffffffffffffffffffffffffffffffffffffff1673ffffffffffffffffffffffffffffffffffffffff1681526020019081526020015f205f8282546101a491906104f9565b92505081905550565b805f5f3373ffffffffffffffffffffffffffffffffffffffff1673ffffffffffffffffffffffffffffffffffffffff1681526020019081526020015f2054101561022c576040517f08c379a000000000000000000000000000000000000000000000000000000000815260040161022390610586565b60405180910390fd5b805f5f3373ffffffffffffffffffffffffffffffffffffffff1673ffffffffffffffffffffffffffffffffffffffff1681526020019081526020015f205f82825461027791906105a4565b925050819055506001805f3373ffffffffffffffffffffffffffffffffffffffff1673ffffffffffffffffffffffffffffffffffffffff1681526020019081526020015f205f6101000a81548160ff0219169083151502179055508173ffffffffffffffffffffffffffffffffffffffff16816040516102f690610604565b5f6040518083038185875af1925050503d805f8114610330576040519150601f19603f3d011682016040523d82523d5f602084013e610335565b606091505b5050505050565b5f5ffd5b5f73ffffffffffffffffffffffffffffffffffffffff82169050919050565b5f61036982610340565b9050919050565b6103798161035f565b8114610383575f5ffd5b50565b5f8135905061039481610370565b92915050565b5f602082840312156103af576103ae61033c565b5b5f6103bc84828501610386565b91505092915050565b5f819050919050565b6103d7816103c5565b82525050565b5f6020820190506103f05f8301846103ce565b92915050565b5f8115159050919050565b61040a816103f6565b82525050565b5f6020820190506104235f830184610401565b92915050565b5f61043382610340565b9050919050565b61044381610429565b811461044d575f5ffd5b50565b5f8135905061045e8161043a565b92915050565b61046d816103c5565b8114610477575f5ffd5b50565b5f8135905061048881610464565b92915050565b5f5f604083850312156104a4576104a361033c565b5b5f6104b185828601610450565b92505060206104c28582860161047a565b9150509250929050565b7f4e487b71000000000000000000000000000000000000000000000000000000005f52601160045260245ffd5b5f610503826103c5565b915061050e836103c5565b9250828201905080821115610526576105256104cc565b5b92915050565b5f82825260208201905092915050565b7f496e73756666696369656e742062616c616e63650000000000000000000000005f82015250565b5f61057060148361052c565b915061057b8261053c565b602082019050919050565b5f6020820190508181035f83015261059d81610564565b9050919050565b5f6105ae826103c5565b91506105b9836103c5565b92508282039050818111156105d1576105d06104cc565b5b92915050565b5f81905092915050565b50565b5f6105ef5f836105d7565b91506105fa826105e1565b5f82019050919050565b5f61060e826105e4565b915081905091905056fea264697066735822122027751f5b9e1c97dae353a49888755009a129f2dd1d79f812b478ac3df4c0040564736f6c63430008220033",
					"opcodes": "PUSH1 0x80 PUSH1 0x40 MSTORE CALLVALUE DUP1 ISZERO PUSH1 0xE JUMPI PUSH0 PUSH0 REVERT JUMPDEST POP PUSH2 0x64E DUP1 PUSH2 0x1C PUSH0 CODECOPY PUSH0 RETURN INVALID PUSH1 0x80 PUSH1 0x40 MSTORE PUSH1 0x4 CALLDATASIZE LT PUSH2 0x49 JUMPI PUSH0 CALLDATALOAD PUSH1 0xE0 SHR DUP1 PUSH4 0x27E235E3 EQ PUSH2 0x4D JUMPI DUP1 PUSH4 0x6EF61092 EQ PUSH2 0x89 JUMPI DUP1 PUSH4 0x8B7AFE2E EQ PUSH2 0xC5 JUMPI DUP1 PUSH4 0xD0E30DB0 EQ PUSH2 0xEF JUMPI DUP1 PUSH4 0xF9087315 EQ PUSH2 0xF9 JUMPI JUMPDEST PUSH0 PUSH0 REVERT JUMPDEST CALLVALUE DUP1 ISZERO PUSH2 0x58 JUMPI PUSH0 PUSH0 REVERT JUMPDEST POP PUSH2 0x73 PUSH1 0x4 DUP1 CALLDATASIZE SUB DUP2 ADD SWAP1 PUSH2 0x6E SWAP2 SWAP1 PUSH2 0x39A JUMP JUMPDEST PUSH2 0x121 JUMP JUMPDEST PUSH1 0x40 MLOAD PUSH2 0x80 SWAP2 SWAP1 PUSH2 0x3DD JUMP JUMPDEST PUSH1 0x40 MLOAD DUP1 SWAP2 SUB SWAP1 RETURN JUMPDEST CALLVALUE DUP1 ISZERO PUSH2 0x94 JUMPI PUSH0 PUSH0 REVERT JUMPDEST POP PUSH2 0xAF PUSH1 0x4 DUP1 CALLDATASIZE SUB DUP2 ADD SWAP1 PUSH2 0xAA SWAP2 SWAP1 PUSH2 0x39A JUMP JUMPDEST PUSH2 0x135 JUMP JUMPDEST PUSH1 0x40 MLOAD PUSH2 0xBC SWAP2 SWAP1 PUSH2 0x410 JUMP JUMPDEST PUSH1 0x40 MLOAD DUP1 SWAP2 SUB SWAP1 RETURN JUMPDEST CALLVALUE DUP1 ISZERO PUSH2 0xD0 JUMPI PUSH0 PUSH0 REVERT JUMPDEST POP PUSH2 0xD9 PUSH2 0x152 JUMP JUMPDEST PUSH1 0x40 MLOAD PUSH2 0xE6 SWAP2 SWAP1 PUSH2 0x3DD JUMP JUMPDEST PUSH1 0x40 MLOAD DUP1 SWAP2 SUB SWAP1 RETURN JUMPDEST PUSH2 0xF7 PUSH2 0x159 JUMP JUMPDEST STOP JUMPDEST CALLVALUE DUP1 ISZERO PUSH2 0x104 JUMPI PUSH0 PUSH0 REVERT JUMPDEST POP PUSH2 0x11F PUSH1 0x4 DUP1 CALLDATASIZE SUB DUP2 ADD SWAP1 PUSH2 0x11A SWAP2 SWAP1 PUSH2 0x48E JUMP JUMPDEST PUSH2 0x1AD JUMP JUMPDEST STOP JUMPDEST PUSH0 PUSH1 0x20 MSTORE DUP1 PUSH0 MSTORE PUSH1 0x40 PUSH0 KECCAK256 PUSH0 SWAP2 POP SWAP1 POP SLOAD DUP2 JUMP JUMPDEST PUSH1 0x1 PUSH1 0x20 MSTORE DUP1 PUSH0 MSTORE PUSH1 0x40 PUSH0 KECCAK256 PUSH0 SWAP2 POP SLOAD SWAP1 PUSH2 0x100 EXP SWAP1 DIV PUSH1 0xFF AND DUP2 JUMP JUMPDEST PUSH0 SELFBALANCE SWAP1 POP SWAP1 JUMP JUMPDEST CALLVALUE PUSH0 PUSH0 CALLER PUSH20 0xFFFFFFFFFFFFFFFFFFFFFFFFFFFFFFFFFFFFFFFF AND PUSH20 0xFFFFFFFFFFFFFFFFFFFFFFFFFFFFFFFFFFFFFFFF AND DUP2 MSTORE PUSH1 0x20 ADD SWAP1 DUP2 MSTORE PUSH1 0x20 ADD PUSH0 KECCAK256 PUSH0 DUP3 DUP3 SLOAD PUSH2 0x1A4 SWAP2 SWAP1 PUSH2 0x4F9 JUMP JUMPDEST SWAP3 POP POP DUP2 SWAP1 SSTORE POP JUMP JUMPDEST DUP1 PUSH0 PUSH0 CALLER PUSH20 0xFFFFFFFFFFFFFFFFFFFFFFFFFFFFFFFFFFFFFFFF AND PUSH20 0xFFFFFFFFFFFFFFFFFFFFFFFFFFFFFFFFFFFFFFFF AND DUP2 MSTORE PUSH1 0x20 ADD SWAP1 DUP2 MSTORE PUSH1 0x20 ADD PUSH0 KECCAK256 SLOAD LT ISZERO PUSH2 0x22C JUMPI PUSH1 0x40 MLOAD PUSH32 0x8C379A000000000000000000000000000000000000000000000000000000000 DUP2 MSTORE PUSH1 0x4 ADD PUSH2 0x223 SWAP1 PUSH2 0x586 JUMP JUMPDEST PUSH1 0x40 MLOAD DUP1 SWAP2 SUB SWAP1 REVERT JUMPDEST DUP1 PUSH0 PUSH0 CALLER PUSH20 0xFFFFFFFFFFFFFFFFFFFFFFFFFFFFFFFFFFFFFFFF AND PUSH20 0xFFFFFFFFFFFFFFFFFFFFFFFFFFFFFFFFFFFFFFFF AND DUP2 MSTORE PUSH1 0x20 ADD SWAP1 DUP2 MSTORE PUSH1 0x20 ADD PUSH0 KECCAK256 PUSH0 DUP3 DUP3 SLOAD PUSH2 0x277 SWAP2 SWAP1 PUSH2 0x5A4 JUMP JUMPDEST SWAP3 POP POP DUP2 SWAP1 SSTORE POP PUSH1 0x1 DUP1 PUSH0 CALLER PUSH20 0xFFFFFFFFFFFFFFFFFFFFFFFFFFFFFFFFFFFFFFFF AND PUSH20 0xFFFFFFFFFFFFFFFFFFFFFFFFFFFFFFFFFFFFFFFF AND DUP2 MSTORE PUSH1 0x20 ADD SWAP1 DUP2 MSTORE PUSH1 0x20 ADD PUSH0 KECCAK256 PUSH0 PUSH2 0x100 EXP DUP2 SLOAD DUP2 PUSH1 0xFF MUL NOT AND SWAP1 DUP4 ISZERO ISZERO MUL OR SWAP1 SSTORE POP DUP2 PUSH20 0xFFFFFFFFFFFFFFFFFFFFFFFFFFFFFFFFFFFFFFFF AND DUP2 PUSH1 0x40 MLOAD PUSH2 0x2F6 SWAP1 PUSH2 0x604 JUMP JUMPDEST PUSH0 PUSH1 0x40 MLOAD DUP1 DUP4 SUB DUP2 DUP6 DUP8 GAS CALL SWAP3 POP POP POP RETURNDATASIZE DUP1 PUSH0 DUP2 EQ PUSH2 0x330 JUMPI PUSH1 0x40 MLOAD SWAP2 POP PUSH1 0x1F NOT PUSH1 0x3F RETURNDATASIZE ADD AND DUP3 ADD PUSH1 0x40 MSTORE RETURNDATASIZE DUP3 MSTORE RETURNDATASIZE PUSH0 PUSH1 0x20 DUP5 ADD RETURNDATACOPY PUSH2 0x335 JUMP JUMPDEST PUSH1 0x60 SWAP2 POP JUMPDEST POP POP POP POP POP JUMP JUMPDEST PUSH0 PUSH0 REVERT JUMPDEST PUSH0 PUSH20 0xFFFFFFFFFFFFFFFFFFFFFFFFFFFFFFFFFFFFFFFF DUP3 AND SWAP1 POP SWAP2 SWAP1 POP JUMP JUMPDEST PUSH0 PUSH2 0x369 DUP3 PUSH2 0x340 JUMP JUMPDEST SWAP1 POP SWAP2 SWAP1 POP JUMP JUMPDEST PUSH2 0x379 DUP2 PUSH2 0x35F JUMP JUMPDEST DUP2 EQ PUSH2 0x383 JUMPI PUSH0 PUSH0 REVERT JUMPDEST POP JUMP JUMPDEST PUSH0 DUP2 CALLDATALOAD SWAP1 POP PUSH2 0x394 DUP2 PUSH2 0x370 JUMP JUMPDEST SWAP3 SWAP2 POP POP JUMP JUMPDEST PUSH0 PUSH1 0x20 DUP3 DUP5 SUB SLT ISZERO PUSH2 0x3AF JUMPI PUSH2 0x3AE PUSH2 0x33C JUMP JUMPDEST JUMPDEST PUSH0 PUSH2 0x3BC DUP5 DUP3 DUP6 ADD PUSH2 0x386 JUMP JUMPDEST SWAP2 POP POP SWAP3 SWAP2 POP POP JUMP JUMPDEST PUSH0 DUP2 SWAP1 POP SWAP2 SWAP1 POP JUMP JUMPDEST PUSH2 0x3D7 DUP2 PUSH2 0x3C5 JUMP JUMPDEST DUP3 MSTORE POP POP JUMP JUMPDEST PUSH0 PUSH1 0x20 DUP3 ADD SWAP1 POP PUSH2 0x3F0 PUSH0 DUP4 ADD DUP5 PUSH2 0x3CE JUMP JUMPDEST SWAP3 SWAP2 POP POP JUMP JUMPDEST PUSH0 DUP2 ISZERO ISZERO SWAP1 POP SWAP2 SWAP1 POP JUMP JUMPDEST PUSH2 0x40A DUP2 PUSH2 0x3F6 JUMP JUMPDEST DUP3 MSTORE POP POP JUMP JUMPDEST PUSH0 PUSH1 0x20 DUP3 ADD SWAP1 POP PUSH2 0x423 PUSH0 DUP4 ADD DUP5 PUSH2 0x401 JUMP JUMPDEST SWAP3 SWAP2 POP POP JUMP JUMPDEST PUSH0 PUSH2 0x433 DUP3 PUSH2 0x340 JUMP JUMPDEST SWAP1 POP SWAP2 SWAP1 POP JUMP JUMPDEST PUSH2 0x443 DUP2 PUSH2 0x429 JUMP JUMPDEST DUP2 EQ PUSH2 0x44D JUMPI PUSH0 PUSH0 REVERT JUMPDEST POP JUMP JUMPDEST PUSH0 DUP2 CALLDATALOAD SWAP1 POP PUSH2 0x45E DUP2 PUSH2 0x43A JUMP JUMPDEST SWAP3 SWAP2 POP POP JUMP JUMPDEST PUSH2 0x46D DUP2 PUSH2 0x3C5 JUMP JUMPDEST DUP2 EQ PUSH2 0x477 JUMPI PUSH0 PUSH0 REVERT JUMPDEST POP JUMP JUMPDEST PUSH0 DUP2 CALLDATALOAD SWAP1 POP PUSH2 0x488 DUP2 PUSH2 0x464 JUMP JUMPDEST SWAP3 SWAP2 POP POP JUMP JUMPDEST PUSH0 PUSH0 PUSH1 0x40 DUP4 DUP6 SUB SLT ISZERO PUSH2 0x4A4 JUMPI PUSH2 0x4A3 PUSH2 0x33C JUMP JUMPDEST JUMPDEST PUSH0 PUSH2 0x4B1 DUP6 DUP3 DUP7 ADD PUSH2 0x450 JUMP JUMPDEST SWAP3 POP POP PUSH1 0x20 PUSH2 0x4C2 DUP6 DUP3 DUP7 ADD PUSH2 0x47A JUMP JUMPDEST SWAP2 POP POP SWAP3 POP SWAP3 SWAP1 POP JUMP JUMPDEST PUSH32 0x4E487B7100000000000000000000000000000000000000000000000000000000 PUSH0 MSTORE PUSH1 0x11 PUSH1 0x4 MSTORE PUSH1 0x24 PUSH0 REVERT JUMPDEST PUSH0 PUSH2 0x503 DUP3 PUSH2 0x3C5 JUMP JUMPDEST SWAP2 POP PUSH2 0x50E DUP4 PUSH2 0x3C5 JUMP JUMPDEST SWAP3 POP DUP3 DUP3 ADD SWAP1 POP DUP1 DUP3 GT ISZERO PUSH2 0x526 JUMPI PUSH2 0x525 PUSH2 0x4CC JUMP JUMPDEST JUMPDEST SWAP3 SWAP2 POP POP JUMP JUMPDEST PUSH0 DUP3 DUP3 MSTORE PUSH1 0x20 DUP3 ADD SWAP1 POP SWAP3 SWAP2 POP POP JUMP JUMPDEST PUSH32 0x496E73756666696369656E742062616C616E6365000000000000000000000000 PUSH0 DUP3 ADD MSTORE POP JUMP JUMPDEST PUSH0 PUSH2 0x570 PUSH1 0x14 DUP4 PUSH2 0x52C JUMP JUMPDEST SWAP2 POP PUSH2 0x57B DUP3 PUSH2 0x53C JUMP JUMPDEST PUSH1 0x20 DUP3 ADD SWAP1 POP SWAP2 SWAP1 POP JUMP JUMPDEST PUSH0 PUSH1 0x20 DUP3 ADD SWAP1 POP DUP2 DUP2 SUB PUSH0 DUP4 ADD MSTORE PUSH2 0x59D DUP2 PUSH2 0x564 JUMP JUMPDEST SWAP1 POP SWAP2 SWAP1 POP JUMP JUMPDEST PUSH0 PUSH2 0x5AE DUP3 PUSH2 0x3C5 JUMP JUMPDEST SWAP2 POP PUSH2 0x5B9 DUP4 PUSH2 0x3C5 JUMP JUMPDEST SWAP3 POP DUP3 DUP3 SUB SWAP1 POP DUP2 DUP2 GT ISZERO PUSH2 0x5D1 JUMPI PUSH2 0x5D0 PUSH2 0x4CC JUMP JUMPDEST JUMPDEST SWAP3 SWAP2 POP POP JUMP JUMPDEST PUSH0 DUP2 SWAP1 POP SWAP3 SWAP2 POP POP JUMP JUMPDEST POP JUMP JUMPDEST PUSH0 PUSH2 0x5EF PUSH0 DUP4 PUSH2 0x5D7 JUMP JUMPDEST SWAP2 POP PUSH2 0x5FA DUP3 PUSH2 0x5E1 JUMP JUMPDEST PUSH0 DUP3 ADD SWAP1 POP SWAP2 SWAP1 POP JUMP JUMPDEST PUSH0 PUSH2 0x60E DUP3 PUSH2 0x5E4 JUMP JUMPDEST SWAP2 POP DUP2 SWAP1 POP SWAP2 SWAP1 POP JUMP INVALID LOG2 PUSH5 0x6970667358 0x22 SLT KECCAK256 0x27 PUSH22 0x1F5B9E1C97DAE353A49888755009A129F2DD1D79F812 0xB4 PUSH25 0xAC3DF4C0040564736F6C634300082200330000000000000000 "
				},
				"gasEstimates": {
					"creation": {
						"codeDepositCost": "322800",
						"executionCost": "360",
						"totalCost": "323160"
					},
					"external": {
						"balances(address)": "2779",
						"contractBalance()": "356",
						"dangerousWithdraw(address,uint256)": "infinite",
						"deposit()": "infinite",
						"withdrawn(address)": "2833"
					}
				},
				"methodIdentifiers": {
					"balances(address)": "27e235e3",
					"contractBalance()": "8b7afe2e",
					"dangerousWithdraw(address,uint256)": "f9087315",
					"deposit()": "d0e30db0",
					"withdrawn(address)": "6ef61092"
				}
			},
			"storageLayout": {
				"storage": [
					{
						"astId": 31,
						"contract": "prac60.sol:DangerousUncheckedCallVul",
						"label": "balances",
						"offset": 0,
						"slot": "0",
						"type": "t_mapping(t_address,t_uint256)"
					},
					{
						"astId": 35,
						"contract": "prac60.sol:DangerousUncheckedCallVul",
						"label": "withdrawn",
						"offset": 0,
						"slot": "1",
						"type": "t_mapping(t_address,t_bool)"
					}
				],
				"types": {
					"t_address": {
						"encoding": "inplace",
						"label": "address",
						"numberOfBytes": "20"
					},
					"t_bool": {
						"encoding": "inplace",
						"label": "bool",
						"numberOfBytes": "1"
					},
					"t_mapping(t_address,t_bool)": {
						"encoding": "mapping",
						"key": "t_address",
						"label": "mapping(address => bool)",
						"numberOfBytes": "32",
						"value": "t_bool"
					},
					"t_mapping(t_address,t_uint256)": {
						"encoding": "mapping",
						"key": "t_address",
						"label": "mapping(address => uint256)",
						"numberOfBytes": "32",
						"value": "t_uint256"
					},
					"t_uint256": {
						"encoding": "inplace",
						"label": "uint256",
						"numberOfBytes": "32"
					}
				}
			},
			"userdoc": {
				"kind": "user",
				"methods": {},
				"version": 1
			}
		}
	}
}