{
	"prac60.sol": {
		"DangerousUncheckedCallPatched": {
			"abi": [
				{
					"inputs": [
						{
							"internalType": "address",
							"name": "",
							"type": "address"
						}
					],
					"name": "balances",
					"outputs": [
						{
							"internalType": "uint256",
							"name": "",
							"type": "uint256"
						}
					],
					"stateMutability": "view",
					"type": "function"
				},
				{
					"inputs": [],
					"name": "contractBalance",
					"outputs": [
						{
							"internalType": "uint256",
							"name": "",
							"type": "uint256"
						}
					],
					"stateMutability": "view",
					"type": "function"
				},
				{
					"inputs": [],
					"name": "deposit",
					"outputs": [],
					"stateMutability": "payable",
					"type": "function"
				},
				{
					"inputs": [
						{
							"internalType": "address payable",
							"name": "_receiver",
							"type": "address"
						},
						{
							"internalType": "uint256",
							"name": "_amount",
							"type": "uint256"
						}
					],
					"name": "safeWithdraw",
					"outputs": [],
					"stateMutability": "nonpayable",
					"type": "function"
				},
				{
					"inputs": [
						{
							"internalType": "address",
							"name": "",
							"type": "address"
						}
					],
					"name": "withdrawn",
					"outputs": [
						{
							"internalType": "bool",
							"name": "",
							"type": "bool"
						}
					],
					"stateMutability": "view",
					"type": "function"
				}
			],
			"devdoc": {
				"kind": "dev",
				"methods": {},
				"version": 1
			},
			"evm": {
				"assembly": "    /* \"prac60.sol\":15408:16278  contract DangerousUncheckedCallPatched {... */\n  mstore(0x40, 0x80)\n  callvalue\n  dup1\n  iszero\n  tag_1\n  jumpi\n  revert(0x00, 0x00)\ntag_1:\n  pop\n  dataSize(sub_0)\n  dup1\n  dataOffset(sub_0)\n  0x00\n  codecopy\n  0x00\n  return\nstop\n\nsub_0: assembly {\n        /* \"prac60.sol\":15408:16278  contract DangerousUncheckedCallPatched {... */\n      mstore(0x40, 0x80)\n      jumpi(tag_1, lt(calldatasize, 0x04))\n      shr(0xe0, calldataload(0x00))\n      dup1\n      0x27e235e3\n      eq\n      tag_2\n      jumpi\n      dup1\n      0x5058c460\n      eq\n      tag_3\n      jumpi\n      dup1\n      0x6ef61092\n      eq\n      tag_4\n      jumpi\n      dup1\n      0x8b7afe2e\n      eq\n      tag_5\n      jumpi\n      dup1\n      0xd0e30db0\n      eq\n      tag_6\n      jumpi\n    tag_1:\n      revert(0x00, 0x00)\n        /* \"prac60.sol\":15456:15499  mapping(address => uint256) public balances */\n    tag_2:\n      callvalue\n      dup1\n      iszero\n      tag_7\n      jumpi\n      revert(0x00, 0x00)\n    tag_7:\n      pop\n      tag_8\n      0x04\n      dup1\n      calldatasize\n      sub\n      dup2\n      add\n      swap1\n      tag_9\n      swap2\n      swap1\n      tag_10\n      jump\t// in\n    tag_9:\n      tag_11\n      jump\t// in\n    tag_8:\n      mload(0x40)\n      tag_12\n      swap2\n      swap1\n      tag_13\n      jump\t// in\n    tag_12:\n      mload(0x40)\n      dup1\n      swap2\n      sub\n      swap1\n      return\n        /* \"prac60.sol\":15654:16129  function safeWithdraw(... */\n    tag_3:\n      callvalue\n      dup1\n      iszero\n      tag_14\n      jumpi\n      revert(0x00, 0x00)\n    tag_14:\n      pop\n      tag_15\n      0x04\n      dup1\n      calldatasize\n      sub\n      dup2\n      add\n      swap1\n      tag_16\n      swap2\n      swap1\n      tag_17\n      jump\t// in\n    tag_16:\n      tag_18\n      jump\t// in\n    tag_15:\n      stop\n        /* \"prac60.sol\":15508:15549  mapping(address => bool) public withdrawn */\n    tag_4:\n      callvalue\n      dup1\n      iszero\n      tag_19\n      jumpi\n      revert(0x00, 0x00)\n    tag_19:\n      pop\n      tag_20\n      0x04\n      dup1\n      calldatasize\n      sub\n      dup2\n      add\n      swap1\n      tag_21\n      swap2\n      swap1\n      tag_10\n      jump\t// in\n    tag_21:\n      tag_22\n      jump\t// in\n    tag_20:\n      mload(0x40)\n      tag_23\n      swap2\n      swap1\n      tag_24\n      jump\t// in\n    tag_23:\n      mload(0x40)\n      dup1\n      swap2\n      sub\n      swap1\n      return\n        /* \"prac60.sol\":16137:16275  function contractBalance()... */\n    tag_5:\n      callvalue\n      dup1\n      iszero\n      tag_25\n      jumpi\n      revert(0x00, 0x00)\n    tag_25:\n      pop\n      tag_26\n      tag_27\n      jump\t// in\n    tag_26:\n      mload(0x40)\n      tag_28\n      swap2\n      swap1\n      tag_13\n      jump\t// in\n    tag_28:\n      mload(0x40)\n      dup1\n      swap2\n      sub\n      swap1\n      return\n        /* \"prac60.sol\":15558:15646  function deposit() external payable {... */\n    tag_6:\n      tag_29\n      tag_30\n      jump\t// in\n    tag_29:\n      stop\n        /* \"prac60.sol\":15456:15499  mapping(address => uint256) public balances */\n    tag_11:\n      mstore(0x20, 0x00)\n      dup1\n      0x00\n      mstore\n      keccak256(0x00, 0x40)\n      0x00\n      swap2\n      pop\n      swap1\n      pop\n      sload\n      dup2\n      jump\t// out\n        /* \"prac60.sol\":15654:16129  function safeWithdraw(... */\n    tag_18:\n        /* \"prac60.sol\":15813:15820  _amount */\n      dup1\n        /* \"prac60.sol\":15789:15797  balances */\n      0x00\n        /* \"prac60.sol\":15789:15809  balances[msg.sender] */\n      0x00\n        /* \"prac60.sol\":15798:15808  msg.sender */\n      caller\n        /* \"prac60.sol\":15789:15809  balances[msg.sender] */\n      0xffffffffffffffffffffffffffffffffffffffff\n      and\n      0xffffffffffffffffffffffffffffffffffffffff\n      and\n      dup2\n      mstore\n      0x20\n      add\n      swap1\n      dup2\n      mstore\n      0x20\n      add\n      0x00\n      keccak256\n      sload\n        /* \"prac60.sol\":15789:15820  balances[msg.sender] >= _amount */\n      lt\n      iszero\n        /* \"prac60.sol\":15767:15868  require(... */\n      tag_32\n      jumpi\n      mload(0x40)\n      0x08c379a000000000000000000000000000000000000000000000000000000000\n      dup2\n      mstore\n      0x04\n      add\n      tag_33\n      swap1\n      tag_34\n      jump\t// in\n    tag_33:\n      mload(0x40)\n      dup1\n      swap2\n      sub\n      swap1\n      revert\n    tag_32:\n        /* \"prac60.sol\":15882:15894  bool success */\n      0x00\n        /* \"prac60.sol\":15913:15922  _receiver */\n      dup3\n        /* \"prac60.sol\":15913:15927  _receiver.call */\n      0xffffffffffffffffffffffffffffffffffffffff\n      and\n        /* \"prac60.sol\":15935:15942  _amount */\n      dup3\n        /* \"prac60.sol\":15913:15947  _receiver.call{value: _amount}(\"\") */\n      mload(0x40)\n      tag_35\n      swap1\n      tag_36\n      jump\t// in\n    tag_35:\n      0x00\n      mload(0x40)\n      dup1\n      dup4\n      sub\n      dup2\n      dup6\n      dup8\n      gas\n      call\n      swap3\n      pop\n      pop\n      pop\n      returndatasize\n      dup1\n      0x00\n      dup2\n      eq\n      tag_39\n      jumpi\n      mload(0x40)\n      swap2\n      pop\n      and(add(returndatasize, 0x3f), not(0x1f))\n      dup3\n      add\n      0x40\n      mstore\n      returndatasize\n      dup3\n      mstore\n      returndatasize\n      0x00\n      0x20\n      dup5\n      add\n      returndatacopy\n      jump(tag_38)\n    tag_39:\n      0x60\n      swap2\n      pop\n    tag_38:\n      pop\n        /* \"prac60.sol\":15881:15947  (bool success, ) =... */\n      pop\n      swap1\n      pop\n        /* \"prac60.sol\":15982:15989  success */\n      dup1\n        /* \"prac60.sol\":15960:16036  require(... */\n      tag_40\n      jumpi\n      mload(0x40)\n      0x08c379a000000000000000000000000000000000000000000000000000000000\n      dup2\n      mstore\n      0x04\n      add\n      tag_41\n      swap1\n      tag_42\n      jump\t// in\n    tag_41:\n      mload(0x40)\n      dup1\n      swap2\n      sub\n      swap1\n      revert\n    tag_40:\n        /* \"prac60.sol\":16073:16080  _amount */\n      dup2\n        /* \"prac60.sol\":16049:16057  balances */\n      0x00\n        /* \"prac60.sol\":16049:16069  balances[msg.sender] */\n      0x00\n        /* \"prac60.sol\":16058:16068  msg.sender */\n      caller\n        /* \"prac60.sol\":16049:16069  balances[msg.sender] */\n      0xffffffffffffffffffffffffffffffffffffffff\n      and\n      0xffffffffffffffffffffffffffffffffffffffff\n      and\n      dup2\n      mstore\n      0x20\n      add\n      swap1\n      dup2\n      mstore\n      0x20\n      add\n      0x00\n      keccak256\n      0x00\n        /* \"prac60.sol\":16049:16080  balances[msg.sender] -= _amount */\n      dup3\n      dup3\n      sload\n      tag_43\n      swap2\n      swap1\n      tag_44\n      jump\t// in\n    tag_43:\n      swap3\n      pop\n      pop\n      dup2\n      swap1\n      sstore\n      pop\n        /* \"prac60.sol\":16117:16121  true */\n      0x01\n        /* \"prac60.sol\":16093:16102  withdrawn */\n      dup1\n        /* \"prac60.sol\":16093:16114  withdrawn[msg.sender] */\n      0x00\n        /* \"prac60.sol\":16103:16113  msg.sender */\n      caller\n        /* \"prac60.sol\":16093:16114  withdrawn[msg.sender] */\n      0xffffffffffffffffffffffffffffffffffffffff\n      and\n      0xffffffffffffffffffffffffffffffffffffffff\n      and\n      dup2\n      mstore\n      0x20\n      add\n      swap1\n      dup2\n      mstore\n      0x20\n      add\n      0x00\n      keccak256\n      0x00\n        /* \"prac60.sol\":16093:16121  withdrawn[msg.sender] = true */\n      0x0100\n      exp\n      dup2\n      sload\n      dup2\n      0xff\n      mul\n      not\n      and\n      swap1\n      dup4\n      iszero\n      iszero\n      mul\n      or\n      swap1\n      sstore\n      pop\n        /* \"prac60.sol\":15754:16129  {... */\n      pop\n        /* \"prac60.sol\":15654:16129  function safeWithdraw(... */\n      pop\n      pop\n      jump\t// out\n        /* \"prac60.sol\":15508:15549  mapping(address => bool) public withdrawn */\n    tag_22:\n      mstore(0x20, 0x01)\n      dup1\n      0x00\n      mstore\n      keccak256(0x00, 0x40)\n      0x00\n      swap2\n      pop\n      sload\n      swap1\n      0x0100\n      exp\n      swap1\n      div\n      0xff\n      and\n      dup2\n      jump\t// out\n        /* \"prac60.sol\":16137:16275  function contractBalance()... */\n    tag_27:\n        /* \"prac60.sol\":16214:16221  uint256 */\n      0x00\n        /* \"prac60.sol\":16246:16267  address(this).balance */\n      selfbalance\n        /* \"prac60.sol\":16239:16267  return address(this).balance */\n      swap1\n      pop\n        /* \"prac60.sol\":16137:16275  function contractBalance()... */\n      swap1\n      jump\t// out\n        /* \"prac60.sol\":15558:15646  function deposit() external payable {... */\n    tag_30:\n        /* \"prac60.sol\":15629:15638  msg.value */\n      callvalue\n        /* \"prac60.sol\":15605:15613  balances */\n      0x00\n        /* \"prac60.sol\":15605:15625  balances[msg.sender] */\n      0x00\n        /* \"prac60.sol\":15614:15624  msg.sender */\n      caller\n        /* \"prac60.sol\":15605:15625  balances[msg.sender] */\n      0xffffffffffffffffffffffffffffffffffffffff\n      and\n      0xffffffffffffffffffffffffffffffffffffffff\n      and\n      dup2\n      mstore\n      0x20\n      add\n      swap1\n      dup2\n      mstore\n      0x20\n      add\n      0x00\n      keccak256\n      0x00\n        /* \"prac60.sol\":15605:15638  balances[msg.sender] += msg.value */\n      dup3\n      dup3\n      sload\n      tag_47\n      swap2\n      swap1\n      tag_48\n      jump\t// in\n    tag_47:\n      swap3\n      pop\n      pop\n      dup2\n      swap1\n      sstore\n      pop\n        /* \"prac60.sol\":15558:15646  function deposit() external payable {... */\n      jump\t// out\n        /* \"#utility.yul\":88:205   */\n    tag_50:\n        /* \"#utility.yul\":197:198   */\n      0x00\n        /* \"#utility.yul\":194:195   */\n      0x00\n        /* \"#utility.yul\":187:199   */\n      revert\n        /* \"#utility.yul\":334:460   */\n    tag_52:\n        /* \"#utility.yul\":371:378   */\n      0x00\n        /* \"#utility.yul\":411:453   */\n      0xffffffffffffffffffffffffffffffffffffffff\n        /* \"#utility.yul\":404:409   */\n      dup3\n        /* \"#utility.yul\":400:454   */\n      and\n        /* \"#utility.yul\":389:454   */\n      swap1\n      pop\n        /* \"#utility.yul\":334:460   */\n      swap2\n      swap1\n      pop\n      jump\t// out\n        /* \"#utility.yul\":466:562   */\n    tag_53:\n        /* \"#utility.yul\":503:510   */\n      0x00\n        /* \"#utility.yul\":532:556   */\n      tag_80\n        /* \"#utility.yul\":550:555   */\n      dup3\n        /* \"#utility.yul\":532:556   */\n      tag_52\n      jump\t// in\n    tag_80:\n        /* \"#utility.yul\":521:556   */\n      swap1\n      pop\n        /* \"#utility.yul\":466:562   */\n      swap2\n      swap1\n      pop\n      jump\t// out\n        /* \"#utility.yul\":568:690   */\n    tag_54:\n        /* \"#utility.yul\":641:665   */\n      tag_82\n        /* \"#utility.yul\":659:664   */\n      dup2\n        /* \"#utility.yul\":641:665   */\n      tag_53\n      jump\t// in\n    tag_82:\n        /* \"#utility.yul\":634:639   */\n      dup2\n        /* \"#utility.yul\":631:666   */\n      eq\n        /* \"#utility.yul\":621:684   */\n      tag_83\n      jumpi\n        /* \"#utility.yul\":680:681   */\n      0x00\n        /* \"#utility.yul\":677:678   */\n      0x00\n        /* \"#utility.yul\":670:682   */\n      revert\n        /* \"#utility.yul\":621:684   */\n    tag_83:\n        /* \"#utility.yul\":568:690   */\n      pop\n      jump\t// out\n        /* \"#utility.yul\":696:835   */\n    tag_55:\n        /* \"#utility.yul\":742:747   */\n      0x00\n        /* \"#utility.yul\":780:786   */\n      dup2\n        /* \"#utility.yul\":767:787   */\n      calldataload\n        /* \"#utility.yul\":758:787   */\n      swap1\n      pop\n        /* \"#utility.yul\":796:829   */\n      tag_85\n        /* \"#utility.yul\":823:828   */\n      dup2\n        /* \"#utility.yul\":796:829   */\n      tag_54\n      jump\t// in\n    tag_85:\n        /* \"#utility.yul\":696:835   */\n      swap3\n      swap2\n      pop\n      pop\n      jump\t// out\n        /* \"#utility.yul\":841:1170   */\n    tag_10:\n        /* \"#utility.yul\":900:906   */\n      0x00\n        /* \"#utility.yul\":949:951   */\n      0x20\n        /* \"#utility.yul\":937:946   */\n      dup3\n        /* \"#utility.yul\":928:935   */\n      dup5\n        /* \"#utility.yul\":924:947   */\n      sub\n        /* \"#utility.yul\":920:952   */\n      slt\n        /* \"#utility.yul\":917:1036   */\n      iszero\n      tag_87\n      jumpi\n        /* \"#utility.yul\":955:1034   */\n      tag_88\n      tag_50\n      jump\t// in\n    tag_88:\n        /* \"#utility.yul\":917:1036   */\n    tag_87:\n        /* \"#utility.yul\":1075:1076   */\n      0x00\n        /* \"#utility.yul\":1100:1153   */\n      tag_89\n        /* \"#utility.yul\":1145:1152   */\n      dup5\n        /* \"#utility.yul\":1136:1142   */\n      dup3\n        /* \"#utility.yul\":1125:1134   */\n      dup6\n        /* \"#utility.yul\":1121:1143   */\n      add\n        /* \"#utility.yul\":1100:1153   */\n      tag_55\n      jump\t// in\n    tag_89:\n        /* \"#utility.yul\":1090:1153   */\n      swap2\n      pop\n        /* \"#utility.yul\":1046:1163   */\n      pop\n        /* \"#utility.yul\":841:1170   */\n      swap3\n      swap2\n      pop\n      pop\n      jump\t// out\n        /* \"#utility.yul\":1176:1253   */\n    tag_56:\n        /* \"#utility.yul\":1213:1220   */\n      0x00\n        /* \"#utility.yul\":1242:1247   */\n      dup2\n        /* \"#utility.yul\":1231:1247   */\n      swap1\n      pop\n        /* \"#utility.yul\":1176:1253   */\n      swap2\n      swap1\n      pop\n      jump\t// out\n        /* \"#utility.yul\":1259:1377   */\n    tag_57:\n        /* \"#utility.yul\":1346:1370   */\n      tag_92\n        /* \"#utility.yul\":1364:1369   */\n      dup2\n        /* \"#utility.yul\":1346:1370   */\n      tag_56\n      jump\t// in\n    tag_92:\n        /* \"#utility.yul\":1341:1344   */\n      dup3\n        /* \"#utility.yul\":1334:1371   */\n      mstore\n        /* \"#utility.yul\":1259:1377   */\n      pop\n      pop\n      jump\t// out\n        /* \"#utility.yul\":1383:1605   */\n    tag_13:\n        /* \"#utility.yul\":1476:1480   */\n      0x00\n        /* \"#utility.yul\":1514:1516   */\n      0x20\n        /* \"#utility.yul\":1503:1512   */\n      dup3\n        /* \"#utility.yul\":1499:1517   */\n      add\n        /* \"#utility.yul\":1491:1517   */\n      swap1\n      pop\n        /* \"#utility.yul\":1527:1598   */\n      tag_94\n        /* \"#utility.yul\":1595:1596   */\n      0x00\n        /* \"#utility.yul\":1584:1593   */\n      dup4\n        /* \"#utility.yul\":1580:1597   */\n      add\n        /* \"#utility.yul\":1571:1577   */\n      dup5\n        /* \"#utility.yul\":1527:1598   */\n      tag_57\n      jump\t// in\n    tag_94:\n        /* \"#utility.yul\":1383:1605   */\n      swap3\n      swap2\n      pop\n      pop\n      jump\t// out\n        /* \"#utility.yul\":1611:1715   */\n    tag_58:\n        /* \"#utility.yul\":1656:1663   */\n      0x00\n        /* \"#utility.yul\":1685:1709   */\n      tag_96\n        /* \"#utility.yul\":1703:1708   */\n      dup3\n        /* \"#utility.yul\":1685:1709   */\n      tag_52\n      jump\t// in\n    tag_96:\n        /* \"#utility.yul\":1674:1709   */\n      swap1\n      pop\n        /* \"#utility.yul\":1611:1715   */\n      swap2\n      swap1\n      pop\n      jump\t// out\n        /* \"#utility.yul\":1721:1859   */\n    tag_59:\n        /* \"#utility.yul\":1802:1834   */\n      tag_98\n        /* \"#utility.yul\":1828:1833   */\n      dup2\n        /* \"#utility.yul\":1802:1834   */\n      tag_58\n      jump\t// in\n    tag_98:\n        /* \"#utility.yul\":1795:1800   */\n      dup2\n        /* \"#utility.yul\":1792:1835   */\n      eq\n        /* \"#utility.yul\":1782:1853   */\n      tag_99\n      jumpi\n        /* \"#utility.yul\":1849:1850   */\n      0x00\n        /* \"#utility.yul\":1846:1847   */\n      0x00\n        /* \"#utility.yul\":1839:1851   */\n      revert\n        /* \"#utility.yul\":1782:1853   */\n    tag_99:\n        /* \"#utility.yul\":1721:1859   */\n      pop\n      jump\t// out\n        /* \"#utility.yul\":1865:2020   */\n    tag_60:\n        /* \"#utility.yul\":1919:1924   */\n      0x00\n        /* \"#utility.yul\":1957:1963   */\n      dup2\n        /* \"#utility.yul\":1944:1964   */\n      calldataload\n        /* \"#utility.yul\":1935:1964   */\n      swap1\n      pop\n        /* \"#utility.yul\":1973:2014   */\n      tag_101\n        /* \"#utility.yul\":2008:2013   */\n      dup2\n        /* \"#utility.yul\":1973:2014   */\n      tag_59\n      jump\t// in\n    tag_101:\n        /* \"#utility.yul\":1865:2020   */\n      swap3\n      swap2\n      pop\n      pop\n      jump\t// out\n        /* \"#utility.yul\":2026:2148   */\n    tag_61:\n        /* \"#utility.yul\":2099:2123   */\n      tag_103\n        /* \"#utility.yul\":2117:2122   */\n      dup2\n        /* \"#utility.yul\":2099:2123   */\n      tag_56\n      jump\t// in\n    tag_103:\n        /* \"#utility.yul\":2092:2097   */\n      dup2\n        /* \"#utility.yul\":2089:2124   */\n      eq\n        /* \"#utility.yul\":2079:2142   */\n      tag_104\n      jumpi\n        /* \"#utility.yul\":2138:2139   */\n      0x00\n        /* \"#utility.yul\":2135:2136   */\n      0x00\n        /* \"#utility.yul\":2128:2140   */\n      revert\n        /* \"#utility.yul\":2079:2142   */\n    tag_104:\n        /* \"#utility.yul\":2026:2148   */\n      pop\n      jump\t// out\n        /* \"#utility.yul\":2154:2293   */\n    tag_62:\n        /* \"#utility.yul\":2200:2205   */\n      0x00\n        /* \"#utility.yul\":2238:2244   */\n      dup2\n        /* \"#utility.yul\":2225:2245   */\n      calldataload\n        /* \"#utility.yul\":2216:2245   */\n      swap1\n      pop\n        /* \"#utility.yul\":2254:2287   */\n      tag_106\n        /* \"#utility.yul\":2281:2286   */\n      dup2\n        /* \"#utility.yul\":2254:2287   */\n      tag_61\n      jump\t// in\n    tag_106:\n        /* \"#utility.yul\":2154:2293   */\n      swap3\n      swap2\n      pop\n      pop\n      jump\t// out\n        /* \"#utility.yul\":2299:2789   */\n    tag_17:\n        /* \"#utility.yul\":2375:2381   */\n      0x00\n        /* \"#utility.yul\":2383:2389   */\n      0x00\n        /* \"#utility.yul\":2432:2434   */\n      0x40\n        /* \"#utility.yul\":2420:2429   */\n      dup4\n        /* \"#utility.yul\":2411:2418   */\n      dup6\n        /* \"#utility.yul\":2407:2430   */\n      sub\n        /* \"#utility.yul\":2403:2435   */\n      slt\n        /* \"#utility.yul\":2400:2519   */\n      iszero\n      tag_108\n      jumpi\n        /* \"#utility.yul\":2438:2517   */\n      tag_109\n      tag_50\n      jump\t// in\n    tag_109:\n        /* \"#utility.yul\":2400:2519   */\n    tag_108:\n        /* \"#utility.yul\":2558:2559   */\n      0x00\n        /* \"#utility.yul\":2583:2644   */\n      tag_110\n        /* \"#utility.yul\":2636:2643   */\n      dup6\n        /* \"#utility.yul\":2627:2633   */\n      dup3\n        /* \"#utility.yul\":2616:2625   */\n      dup7\n        /* \"#utility.yul\":2612:2634   */\n      add\n        /* \"#utility.yul\":2583:2644   */\n      tag_60\n      jump\t// in\n    tag_110:\n        /* \"#utility.yul\":2573:2644   */\n      swap3\n      pop\n        /* \"#utility.yul\":2529:2654   */\n      pop\n        /* \"#utility.yul\":2693:2695   */\n      0x20\n        /* \"#utility.yul\":2719:2772   */\n      tag_111\n        /* \"#utility.yul\":2764:2771   */\n      dup6\n        /* \"#utility.yul\":2755:2761   */\n      dup3\n        /* \"#utility.yul\":2744:2753   */\n      dup7\n        /* \"#utility.yul\":2740:2762   */\n      add\n        /* \"#utility.yul\":2719:2772   */\n      tag_62\n      jump\t// in\n    tag_111:\n        /* \"#utility.yul\":2709:2772   */\n      swap2\n      pop\n        /* \"#utility.yul\":2664:2782   */\n      pop\n        /* \"#utility.yul\":2299:2789   */\n      swap3\n      pop\n      swap3\n      swap1\n      pop\n      jump\t// out\n        /* \"#utility.yul\":2795:2885   */\n    tag_63:\n        /* \"#utility.yul\":2829:2836   */\n      0x00\n        /* \"#utility.yul\":2872:2877   */\n      dup2\n        /* \"#utility.yul\":2865:2878   */\n      iszero\n        /* \"#utility.yul\":2858:2879   */\n      iszero\n        /* \"#utility.yul\":2847:2879   */\n      swap1\n      pop\n        /* \"#utility.yul\":2795:2885   */\n      swap2\n      swap1\n      pop\n      jump\t// out\n        /* \"#utility.yul\":2891:3000   */\n    tag_64:\n        /* \"#utility.yul\":2972:2993   */\n      tag_114\n        /* \"#utility.yul\":2987:2992   */\n      dup2\n        /* \"#utility.yul\":2972:2993   */\n      tag_63\n      jump\t// in\n    tag_114:\n        /* \"#utility.yul\":2967:2970   */\n      dup3\n        /* \"#utility.yul\":2960:2994   */\n      mstore\n        /* \"#utility.yul\":2891:3000   */\n      pop\n      pop\n      jump\t// out\n        /* \"#utility.yul\":3006:3216   */\n    tag_24:\n        /* \"#utility.yul\":3093:3097   */\n      0x00\n        /* \"#utility.yul\":3131:3133   */\n      0x20\n        /* \"#utility.yul\":3120:3129   */\n      dup3\n        /* \"#utility.yul\":3116:3134   */\n      add\n        /* \"#utility.yul\":3108:3134   */\n      swap1\n      pop\n        /* \"#utility.yul\":3144:3209   */\n      tag_116\n        /* \"#utility.yul\":3206:3207   */\n      0x00\n        /* \"#utility.yul\":3195:3204   */\n      dup4\n        /* \"#utility.yul\":3191:3208   */\n      add\n        /* \"#utility.yul\":3182:3188   */\n      dup5\n        /* \"#utility.yul\":3144:3209   */\n      tag_64\n      jump\t// in\n    tag_116:\n        /* \"#utility.yul\":3006:3216   */\n      swap3\n      swap2\n      pop\n      pop\n      jump\t// out\n        /* \"#utility.yul\":3222:3391   */\n    tag_65:\n        /* \"#utility.yul\":3306:3317   */\n      0x00\n        /* \"#utility.yul\":3340:3346   */\n      dup3\n        /* \"#utility.yul\":3335:3338   */\n      dup3\n        /* \"#utility.yul\":3328:3347   */\n      mstore\n        /* \"#utility.yul\":3380:3384   */\n      0x20\n        /* \"#utility.yul\":3375:3378   */\n      dup3\n        /* \"#utility.yul\":3371:3385   */\n      add\n        /* \"#utility.yul\":3356:3385   */\n      swap1\n      pop\n        /* \"#utility.yul\":3222:3391   */\n      swap3\n      swap2\n      pop\n      pop\n      jump\t// out\n        /* \"#utility.yul\":3397:3567   */\n    tag_66:\n        /* \"#utility.yul\":3537:3559   */\n      0x496e73756666696369656e742062616c616e6365000000000000000000000000\n        /* \"#utility.yul\":3533:3534   */\n      0x00\n        /* \"#utility.yul\":3525:3531   */\n      dup3\n        /* \"#utility.yul\":3521:3535   */\n      add\n        /* \"#utility.yul\":3514:3560   */\n      mstore\n        /* \"#utility.yul\":3397:3567   */\n      pop\n      jump\t// out\n        /* \"#utility.yul\":3573:3939   */\n    tag_67:\n        /* \"#utility.yul\":3715:3718   */\n      0x00\n        /* \"#utility.yul\":3736:3803   */\n      tag_120\n        /* \"#utility.yul\":3800:3802   */\n      0x14\n        /* \"#utility.yul\":3795:3798   */\n      dup4\n        /* \"#utility.yul\":3736:3803   */\n      tag_65\n      jump\t// in\n    tag_120:\n        /* \"#utility.yul\":3729:3803   */\n      swap2\n      pop\n        /* \"#utility.yul\":3812:3905   */\n      tag_121\n        /* \"#utility.yul\":3901:3904   */\n      dup3\n        /* \"#utility.yul\":3812:3905   */\n      tag_66\n      jump\t// in\n    tag_121:\n        /* \"#utility.yul\":3930:3932   */\n      0x20\n        /* \"#utility.yul\":3925:3928   */\n      dup3\n        /* \"#utility.yul\":3921:3933   */\n      add\n        /* \"#utility.yul\":3914:3933   */\n      swap1\n      pop\n        /* \"#utility.yul\":3573:3939   */\n      swap2\n      swap1\n      pop\n      jump\t// out\n        /* \"#utility.yul\":3945:4364   */\n    tag_34:\n        /* \"#utility.yul\":4111:4115   */\n      0x00\n        /* \"#utility.yul\":4149:4151   */\n      0x20\n        /* \"#utility.yul\":4138:4147   */\n      dup3\n        /* \"#utility.yul\":4134:4152   */\n      add\n        /* \"#utility.yul\":4126:4152   */\n      swap1\n      pop\n        /* \"#utility.yul\":4198:4207   */\n      dup2\n        /* \"#utility.yul\":4192:4196   */\n      dup2\n        /* \"#utility.yul\":4188:4208   */\n      sub\n        /* \"#utility.yul\":4184:4185   */\n      0x00\n        /* \"#utility.yul\":4173:4182   */\n      dup4\n        /* \"#utility.yul\":4169:4186   */\n      add\n        /* \"#utility.yul\":4162:4209   */\n      mstore\n        /* \"#utility.yul\":4226:4357   */\n      tag_123\n        /* \"#utility.yul\":4352:4356   */\n      dup2\n        /* \"#utility.yul\":4226:4357   */\n      tag_67\n      jump\t// in\n    tag_123:\n        /* \"#utility.yul\":4218:4357   */\n      swap1\n      pop\n        /* \"#utility.yul\":3945:4364   */\n      swap2\n      swap1\n      pop\n      jump\t// out\n        /* \"#utility.yul\":4370:4517   */\n    tag_68:\n        /* \"#utility.yul\":4471:4482   */\n      0x00\n        /* \"#utility.yul\":4508:4511   */\n      dup2\n        /* \"#utility.yul\":4493:4511   */\n      swap1\n      pop\n        /* \"#utility.yul\":4370:4517   */\n      swap3\n      swap2\n      pop\n      pop\n      jump\t// out\n        /* \"#utility.yul\":4523:4637   */\n    tag_69:\n      pop\n      jump\t// out\n        /* \"#utility.yul\":4643:5041   */\n    tag_70:\n        /* \"#utility.yul\":4802:4805   */\n      0x00\n        /* \"#utility.yul\":4823:4906   */\n      tag_127\n        /* \"#utility.yul\":4904:4905   */\n      0x00\n        /* \"#utility.yul\":4899:4902   */\n      dup4\n        /* \"#utility.yul\":4823:4906   */\n      tag_68\n      jump\t// in\n    tag_127:\n        /* \"#utility.yul\":4816:4906   */\n      swap2\n      pop\n        /* \"#utility.yul\":4915:5008   */\n      tag_128\n        /* \"#utility.yul\":5004:5007   */\n      dup3\n        /* \"#utility.yul\":4915:5008   */\n      tag_69\n      jump\t// in\n    tag_128:\n        /* \"#utility.yul\":5033:5034   */\n      0x00\n        /* \"#utility.yul\":5028:5031   */\n      dup3\n        /* \"#utility.yul\":5024:5035   */\n      add\n        /* \"#utility.yul\":5017:5035   */\n      swap1\n      pop\n        /* \"#utility.yul\":4643:5041   */\n      swap2\n      swap1\n      pop\n      jump\t// out\n        /* \"#utility.yul\":5047:5426   */\n    tag_36:\n        /* \"#utility.yul\":5231:5234   */\n      0x00\n        /* \"#utility.yul\":5253:5400   */\n      tag_130\n        /* \"#utility.yul\":5396:5399   */\n      dup3\n        /* \"#utility.yul\":5253:5400   */\n      tag_70\n      jump\t// in\n    tag_130:\n        /* \"#utility.yul\":5246:5400   */\n      swap2\n      pop\n        /* \"#utility.yul\":5417:5420   */\n      dup2\n        /* \"#utility.yul\":5410:5420   */\n      swap1\n      pop\n        /* \"#utility.yul\":5047:5426   */\n      swap2\n      swap1\n      pop\n      jump\t// out\n        /* \"#utility.yul\":5432:5601   */\n    tag_71:\n        /* \"#utility.yul\":5572:5593   */\n      0x455448207472616e73666572206661696c656400000000000000000000000000\n        /* \"#utility.yul\":5568:5569   */\n      0x00\n        /* \"#utility.yul\":5560:5566   */\n      dup3\n        /* \"#utility.yul\":5556:5570   */\n      add\n        /* \"#utility.yul\":5549:5594   */\n      mstore\n        /* \"#utility.yul\":5432:5601   */\n      pop\n      jump\t// out\n        /* \"#utility.yul\":5607:5973   */\n    tag_72:\n        /* \"#utility.yul\":5749:5752   */\n      0x00\n        /* \"#utility.yul\":5770:5837   */\n      tag_133\n        /* \"#utility.yul\":5834:5836   */\n      0x13\n        /* \"#utility.yul\":5829:5832   */\n      dup4\n        /* \"#utility.yul\":5770:5837   */\n      tag_65\n      jump\t// in\n    tag_133:\n        /* \"#utility.yul\":5763:5837   */\n      swap2\n      pop\n        /* \"#utility.yul\":5846:5939   */\n      tag_134\n        /* \"#utility.yul\":5935:5938   */\n      dup3\n        /* \"#utility.yul\":5846:5939   */\n      tag_71\n      jump\t// in\n    tag_134:\n        /* \"#utility.yul\":5964:5966   */\n      0x20\n        /* \"#utility.yul\":5959:5962   */\n      dup3\n        /* \"#utility.yul\":5955:5967   */\n      add\n        /* \"#utility.yul\":5948:5967   */\n      swap1\n      pop\n        /* \"#utility.yul\":5607:5973   */\n      swap2\n      swap1\n      pop\n      jump\t// out\n        /* \"#utility.yul\":5979:6398   */\n    tag_42:\n        /* \"#utility.yul\":6145:6149   */\n      0x00\n        /* \"#utility.yul\":6183:6185   */\n      0x20\n        /* \"#utility.yul\":6172:6181   */\n      dup3\n        /* \"#utility.yul\":6168:6186   */\n      add\n        /* \"#utility.yul\":6160:6186   */\n      swap1\n      pop\n        /* \"#utility.yul\":6232:6241   */\n      dup2\n        /* \"#utility.yul\":6226:6230   */\n      dup2\n        /* \"#utility.yul\":6222:6242   */\n      sub\n        /* \"#utility.yul\":6218:6219   */\n      0x00\n        /* \"#utility.yul\":6207:6216   */\n      dup4\n        /* \"#utility.yul\":6203:6220   */\n      add\n        /* \"#utility.yul\":6196:6243   */\n      mstore\n        /* \"#utility.yul\":6260:6391   */\n      tag_136\n        /* \"#utility.yul\":6386:6390   */\n      dup2\n        /* \"#utility.yul\":6260:6391   */\n      tag_72\n      jump\t// in\n    tag_136:\n        /* \"#utility.yul\":6252:6391   */\n      swap1\n      pop\n        /* \"#utility.yul\":5979:6398   */\n      swap2\n      swap1\n      pop\n      jump\t// out\n        /* \"#utility.yul\":6404:6584   */\n    tag_73:\n        /* \"#utility.yul\":6452:6529   */\n      0x4e487b7100000000000000000000000000000000000000000000000000000000\n        /* \"#utility.yul\":6449:6450   */\n      0x00\n        /* \"#utility.yul\":6442:6530   */\n      mstore\n        /* \"#utility.yul\":6549:6553   */\n      0x11\n        /* \"#utility.yul\":6546:6547   */\n      0x04\n        /* \"#utility.yul\":6539:6554   */\n      mstore\n        /* \"#utility.yul\":6573:6577   */\n      0x24\n        /* \"#utility.yul\":6570:6571   */\n      0x00\n        /* \"#utility.yul\":6563:6578   */\n      revert\n        /* \"#utility.yul\":6590:6784   */\n    tag_44:\n        /* \"#utility.yul\":6630:6634   */\n      0x00\n        /* \"#utility.yul\":6650:6670   */\n      tag_139\n        /* \"#utility.yul\":6668:6669   */\n      dup3\n        /* \"#utility.yul\":6650:6670   */\n      tag_56\n      jump\t// in\n    tag_139:\n        /* \"#utility.yul\":6645:6670   */\n      swap2\n      pop\n        /* \"#utility.yul\":6684:6704   */\n      tag_140\n        /* \"#utility.yul\":6702:6703   */\n      dup4\n        /* \"#utility.yul\":6684:6704   */\n      tag_56\n      jump\t// in\n    tag_140:\n        /* \"#utility.yul\":6679:6704   */\n      swap3\n      pop\n        /* \"#utility.yul\":6728:6729   */\n      dup3\n        /* \"#utility.yul\":6725:6726   */\n      dup3\n        /* \"#utility.yul\":6721:6730   */\n      sub\n        /* \"#utility.yul\":6713:6730   */\n      swap1\n      pop\n        /* \"#utility.yul\":6752:6753   */\n      dup2\n        /* \"#utility.yul\":6746:6750   */\n      dup2\n        /* \"#utility.yul\":6743:6754   */\n      gt\n        /* \"#utility.yul\":6740:6777   */\n      iszero\n      tag_141\n      jumpi\n        /* \"#utility.yul\":6757:6775   */\n      tag_142\n      tag_73\n      jump\t// in\n    tag_142:\n        /* \"#utility.yul\":6740:6777   */\n    tag_141:\n        /* \"#utility.yul\":6590:6784   */\n      swap3\n      swap2\n      pop\n      pop\n      jump\t// out\n        /* \"#utility.yul\":6790:6981   */\n    tag_48:\n        /* \"#utility.yul\":6830:6833   */\n      0x00\n        /* \"#utility.yul\":6849:6869   */\n      tag_144\n        /* \"#utility.yul\":6867:6868   */\n      dup3\n        /* \"#utility.yul\":6849:6869   */\n      tag_56\n      jump\t// in\n    tag_144:\n        /* \"#utility.yul\":6844:6869   */\n      swap2\n      pop\n        /* \"#utility.yul\":6883:6903   */\n      tag_145\n        /* \"#utility.yul\":6901:6902   */\n      dup4\n        /* \"#utility.yul\":6883:6903   */\n      tag_56\n      jump\t// in\n    tag_145:\n        /* \"#utility.yul\":6878:6903   */\n      swap3\n      pop\n        /* \"#utility.yul\":6926:6927   */\n      dup3\n        /* \"#utility.yul\":6923:6924   */\n      dup3\n        /* \"#utility.yul\":6919:6928   */\n      add\n        /* \"#utility.yul\":6912:6928   */\n      swap1\n      pop\n        /* \"#utility.yul\":6947:6950   */\n      dup1\n        /* \"#utility.yul\":6944:6945   */\n      dup3\n        /* \"#utility.yul\":6941:6951   */\n      gt\n        /* \"#utility.yul\":6938:6974   */\n      iszero\n      tag_146\n      jumpi\n        /* \"#utility.yul\":6954:6972   */\n      tag_147\n      tag_73\n      jump\t// in\n    tag_147:\n        /* \"#utility.yul\":6938:6974   */\n    tag_146:\n        /* \"#utility.yul\":6790:6981   */\n      swap3\n      swap2\n      pop\n      pop\n      jump\t// out\n\n    auxdata: 0xa2646970667358221220aeaad2cb5465b5f2e3d19ea3b858aa8d20109b4f8c71e08f5ef0e580bab0e85364736f6c63430008220033\n}\n",
				"bytecode": {
					"linkReferences": {},
					"object": "6080604052348015600e575f5ffd5b506106f98061001c5f395ff3fe608060405260043610610049575f3560e01c806327e235e31461004d5780635058c460146100895780636ef61092146100b15780638b7afe2e146100ed578063d0e30db014610117575b5f5ffd5b348015610058575f5ffd5b50610073600480360381019061006e91906103dd565b610121565b6040516100809190610420565b60405180910390f35b348015610094575f5ffd5b506100af60048036038101906100aa919061049e565b610135565b005b3480156100bc575f5ffd5b506100d760048036038101906100d291906103dd565b610307565b6040516100e491906104f6565b60405180910390f35b3480156100f8575f5ffd5b50610101610324565b60405161010e9190610420565b60405180910390f35b61011f61032b565b005b5f602052805f5260405f205f915090505481565b805f5f3373ffffffffffffffffffffffffffffffffffffffff1673ffffffffffffffffffffffffffffffffffffffff1681526020019081526020015f205410156101b4576040517f08c379a00000000000000000000000000000000000000000000000000000000081526004016101ab90610569565b60405180910390fd5b5f8273ffffffffffffffffffffffffffffffffffffffff16826040516101d9906105b4565b5f6040518083038185875af1925050503d805f8114610213576040519150601f19603f3d011682016040523d82523d5f602084013e610218565b606091505b505090508061025c576040517f08c379a000000000000000000000000000000000000000000000000000000000815260040161025390610612565b60405180910390fd5b815f5f3373ffffffffffffffffffffffffffffffffffffffff1673ffffffffffffffffffffffffffffffffffffffff1681526020019081526020015f205f8282546102a7919061065d565b925050819055506001805f3373ffffffffffffffffffffffffffffffffffffffff1673ffffffffffffffffffffffffffffffffffffffff1681526020019081526020015f205f6101000a81548160ff021916908315150217905550505050565b6001602052805f5260405f205f915054906101000a900460ff1681565b5f47905090565b345f5f3373ffffffffffffffffffffffffffffffffffffffff1673ffffffffffffffffffffffffffffffffffffffff1681526020019081526020015f205f8282546103769190610690565b92505081905550565b5f5ffd5b5f73ffffffffffffffffffffffffffffffffffffffff82169050919050565b5f6103ac82610383565b9050919050565b6103bc816103a2565b81146103c6575f5ffd5b50565b5f813590506103d7816103b3565b92915050565b5f602082840312156103f2576103f161037f565b5b5f6103ff848285016103c9565b91505092915050565b5f819050919050565b61041a81610408565b82525050565b5f6020820190506104335f830184610411565b92915050565b5f61044382610383565b9050919050565b61045381610439565b811461045d575f5ffd5b50565b5f8135905061046e8161044a565b92915050565b61047d81610408565b8114610487575f5ffd5b50565b5f8135905061049881610474565b92915050565b5f5f604083850312156104b4576104b361037f565b5b5f6104c185828601610460565b92505060206104d28582860161048a565b9150509250929050565b5f8115159050919050565b6104f0816104dc565b82525050565b5f6020820190506105095f8301846104e7565b92915050565b5f82825260208201905092915050565b7f496e73756666696369656e742062616c616e63650000000000000000000000005f82015250565b5f61055360148361050f565b915061055e8261051f565b602082019050919050565b5f6020820190508181035f83015261058081610547565b9050919050565b5f81905092915050565b50565b5f61059f5f83610587565b91506105aa82610591565b5f82019050919050565b5f6105be82610594565b9150819050919050565b7f455448207472616e73666572206661696c6564000000000000000000000000005f82015250565b5f6105fc60138361050f565b9150610607826105c8565b602082019050919050565b5f6020820190508181035f830152610629816105f0565b9050919050565b7f4e487b71000000000000000000000000000000000000000000000000000000005f52601160045260245ffd5b5f61066782610408565b915061067283610408565b925082820390508181111561068a57610689610630565b5b92915050565b5f61069a82610408565b91506106a583610408565b92508282019050808211156106bd576106bc610630565b5b9291505056fea2646970667358221220aeaad2cb5465b5f2e3d19ea3b858aa8d20109b4f8c71e08f5ef0e580bab0e85364736f6c63430008220033",
					"opcodes": "PUSH1 0x80 PUSH1 0x40 MSTORE CALLVALUE DUP1 ISZERO PUSH1 0xE JUMPI PUSH0 PUSH0 REVERT JUMPDEST POP PUSH2 0x6F9 DUP1 PUSH2 0x1C PUSH0 CODECOPY PUSH0 RETURN INVALID PUSH1 0x80 PUSH1 0x40 MSTORE PUSH1 0x4 CALLDATASIZE LT PUSH2 0x49 JUMPI PUSH0 CALLDATALOAD PUSH1 0xE0 SHR DUP1 PUSH4 0x27E235E3 EQ PUSH2 0x4D JUMPI DUP1 PUSH4 0x5058C460 EQ PUSH2 0x89 JUMPI DUP1 PUSH4 0x6EF61092 EQ PUSH2 0xB1 JUMPI DUP1 PUSH4 0x8B7AFE2E EQ PUSH2 0xED JUMPI DUP1 PUSH4 0xD0E30DB0 EQ PUSH2 0x117 JUMPI JUMPDEST PUSH0 PUSH0 REVERT JUMPDEST CALLVALUE DUP1 ISZERO PUSH2 0x58 JUMPI PUSH0 PUSH0 REVERT JUMPDEST POP PUSH2 0x73 PUSH1 0x4 DUP1 CALLDATASIZE SUB DUP2 ADD SWAP1 PUSH2 0x6E SWAP2 SWAP1 PUSH2 0x3DD JUMP JUMPDEST PUSH2 0x121 JUMP JUMPDEST PUSH1 0x40 MLOAD PUSH2 0x80 SWAP2 SWAP1 PUSH2 0x420 JUMP JUMPDEST PUSH1 0x40 MLOAD DUP1 SWAP2 SUB SWAP1 RETURN JUMPDEST CALLVALUE DUP1 ISZERO PUSH2 0x94 JUMPI PUSH0 PUSH0 REVERT JUMPDEST POP PUSH2 0xAF PUSH1 0x4 DUP1 CALLDATASIZE SUB DUP2 ADD SWAP1 PUSH2 0xAA SWAP2 SWAP1 PUSH2 0x49E JUMP JUMPDEST PUSH2 0x135 JUMP JUMPDEST STOP JUMPDEST CALLVALUE DUP1 ISZERO PUSH2 0xBC JUMPI PUSH0 PUSH0 REVERT JUMPDEST POP PUSH2 0xD7 PUSH1 0x4 DUP1 CALLDATASIZE SUB DUP2 ADD SWAP1 PUSH2 0xD2 SWAP2 SWAP1 PUSH2 0x3DD JUMP JUMPDEST PUSH2 0x307 JUMP JUMPDEST PUSH1 0x40 MLOAD PUSH2 0xE4 SWAP2 SWAP1 PUSH2 0x4F6 JUMP JUMPDEST PUSH1 0x40 MLOAD DUP1 SWAP2 SUB SWAP1 RETURN JUMPDEST CALLVALUE DUP1 ISZERO PUSH2 0xF8 JUMPI PUSH0 PUSH0 REVERT JUMPDEST POP PUSH2 0x101 PUSH2 0x324 JUMP JUMPDEST PUSH1 0x40 MLOAD PUSH2 0x10E SWAP2 SWAP1 PUSH2 0x420 JUMP JUMPDEST PUSH1 0x40 MLOAD DUP1 SWAP2 SUB SWAP1 RETURN JUMPDEST PUSH2 0x11F PUSH2 0x32B JUMP JUMPDEST STOP JUMPDEST PUSH0 PUSH1 0x20 MSTORE DUP1 PUSH0 MSTORE PUSH1 0x40 PUSH0 KECCAK256 PUSH0 SWAP2 POP SWAP1 POP SLOAD DUP2 JUMP JUMPDEST DUP1 PUSH0 PUSH0 CALLER PUSH20 0xFFFFFFFFFFFFFFFFFFFFFFFFFFFFFFFFFFFFFFFF AND PUSH20 0xFFFFFFFFFFFFFFFFFFFFFFFFFFFFFFFFFFFFFFFF AND DUP2 MSTORE PUSH1 0x20 ADD SWAP1 DUP2 MSTORE PUSH1 0x20 ADD PUSH0 KECCAK256 SLOAD LT ISZERO PUSH2 0x1B4 JUMPI PUSH1 0x40 MLOAD PUSH32 0x8C379A000000000000000000000000000000000000000000000000000000000 DUP2 MSTORE PUSH1 0x4 ADD PUSH2 0x1AB SWAP1 PUSH2 0x569 JUMP JUMPDEST PUSH1 0x40 MLOAD DUP1 SWAP2 SUB SWAP1 REVERT JUMPDEST PUSH0 DUP3 PUSH20 0xFFFFFFFFFFFFFFFFFFFFFFFFFFFFFFFFFFFFFFFF AND DUP3 PUSH1 0x40 MLOAD PUSH2 0x1D9 SWAP1 PUSH2 0x5B4 JUMP JUMPDEST PUSH0 PUSH1 0x40 MLOAD DUP1 DUP4 SUB DUP2 DUP6 DUP8 GAS CALL SWAP3 POP POP POP RETURNDATASIZE DUP1 PUSH0 DUP2 EQ PUSH2 0x213 JUMPI PUSH1 0x40 MLOAD SWAP2 POP PUSH1 0x1F NOT PUSH1 0x3F RETURNDATASIZE ADD AND DUP3 ADD PUSH1 0x40 MSTORE RETURNDATASIZE DUP3 MSTORE RETURNDATASIZE PUSH0 PUSH1 0x20 DUP5 ADD RETURNDATACOPY PUSH2 0x218 JUMP JUMPDEST PUSH1 0x60 SWAP2 POP JUMPDEST POP POP SWAP1 POP DUP1 PUSH2 0x25C JUMPI PUSH1 0x40 MLOAD PUSH32 0x8C379A000000000000000000000000000000000000000000000000000000000 DUP2 MSTORE PUSH1 0x4 ADD PUSH2 0x253 SWAP1 PUSH2 0x612 JUMP JUMPDEST PUSH1 0x40 MLOAD DUP1 SWAP2 SUB SWAP1 REVERT JUMPDEST DUP2 PUSH0 PUSH0 CALLER PUSH20 0xFFFFFFFFFFFFFFFFFFFFFFFFFFFFFFFFFFFFFFFF AND PUSH20 0xFFFFFFFFFFFFFFFFFFFFFFFFFFFFFFFFFFFFFFFF AND DUP2 MSTORE PUSH1 0x20 ADD SWAP1 DUP2 MSTORE PUSH1 0x20 ADD PUSH0 KECCAK256 PUSH0 DUP3 DUP3 SLOAD PUSH2 0x2A7 SWAP2 SWAP1 PUSH2 0x65D JUMP JUMPDEST SWAP3 POP POP DUP2 SWAP1 SSTORE POP PUSH1 0x1 DUP1 PUSH0 CALLER PUSH20 0xFFFFFFFFFFFFFFFFFFFFFFFFFFFFFFFFFFFFFFFF AND PUSH20 0xFFFFFFFFFFFFFFFFFFFFFFFFFFFFFFFFFFFFFFFF AND DUP2 MSTORE PUSH1 0x20 ADD SWAP1 DUP2 MSTORE PUSH1 0x20 ADD PUSH0 KECCAK256 PUSH0 PUSH2 0x100 EXP DUP2 SLOAD DUP2 PUSH1 0xFF MUL NOT AND SWAP1 DUP4 ISZERO ISZERO MUL OR SWAP1 SSTORE POP POP POP POP JUMP JUMPDEST PUSH1 0x1 PUSH1 0x20 MSTORE DUP1 PUSH0 MSTORE PUSH1 0x40 PUSH0 KECCAK256 PUSH0 SWAP2 POP SLOAD SWAP1 PUSH2 0x100 EXP SWAP1 DIV PUSH1 0xFF AND DUP2 JUMP JUMPDEST PUSH0 SELFBALANCE SWAP1 POP SWAP1 JUMP JUMPDEST CALLVALUE PUSH0 PUSH0 CALLER PUSH20 0xFFFFFFFFFFFFFFFFFFFFFFFFFFFFFFFFFFFFFFFF AND PUSH20 0xFFFFFFFFFFFFFFFFFFFFFFFFFFFFFFFFFFFFFFFF AND DUP2 MSTORE PUSH1 0x20 ADD SWAP1 DUP2 MSTORE PUSH1 0x20 ADD PUSH0 KECCAK256 PUSH0 DUP3 DUP3 SLOAD PUSH2 0x376 SWAP2 SWAP1 PUSH2 0x690 JUMP JUMPDEST SWAP3 POP POP DUP2 SWAP1 SSTORE POP JUMP JUMPDEST PUSH0 PUSH0 REVERT JUMPDEST PUSH0 PUSH20 0xFFFFFFFFFFFFFFFFFFFFFFFFFFFFFFFFFFFFFFFF DUP3 AND SWAP1 POP SWAP2 SWAP1 POP JUMP JUMPDEST PUSH0 PUSH2 0x3AC DUP3 PUSH2 0x383 JUMP JUMPDEST SWAP1 POP SWAP2 SWAP1 POP JUMP JUMPDEST PUSH2 0x3BC DUP2 PUSH2 0x3A2 JUMP JUMPDEST DUP2 EQ PUSH2 0x3C6 JUMPI PUSH0 PUSH0 REVERT JUMPDEST POP JUMP JUMPDEST PUSH0 DUP2 CALLDATALOAD SWAP1 POP PUSH2 0x3D7 DUP2 PUSH2 0x3B3 JUMP JUMPDEST SWAP3 SWAP2 POP POP JUMP JUMPDEST PUSH0 PUSH1 0x20 DUP3 DUP5 SUB SLT ISZERO PUSH2 0x3F2 JUMPI PUSH2 0x3F1 PUSH2 0x37F JUMP JUMPDEST JUMPDEST PUSH0 PUSH2 0x3FF DUP5 DUP3 DUP6 ADD PUSH2 0x3C9 JUMP JUMPDEST SWAP2 POP POP SWAP3 SWAP2 POP POP JUMP JUMPDEST PUSH0 DUP2 SWAP1 POP SWAP2 SWAP1 POP JUMP JUMPDEST PUSH2 0x41A DUP2 PUSH2 0x408 JUMP JUMPDEST DUP3 MSTORE POP POP JUMP JUMPDEST PUSH0 PUSH1 0x20 DUP3 ADD SWAP1 POP PUSH2 0x433 PUSH0 DUP4 ADD DUP5 PUSH2 0x411 JUMP JUMPDEST SWAP3 SWAP2 POP POP JUMP JUMPDEST PUSH0 PUSH2 0x443 DUP3 PUSH2 0x383 JUMP JUMPDEST SWAP1 POP SWAP2 SWAP1 POP JUMP JUMPDEST PUSH2 0x453 DUP2 PUSH2 0x439 JUMP JUMPDEST DUP2 EQ PUSH2 0x45D JUMPI PUSH0 PUSH0 REVERT JUMPDEST POP JUMP JUMPDEST PUSH0 DUP2 CALLDATALOAD SWAP1 POP PUSH2 0x46E DUP2 PUSH2 0x44A JUMP JUMPDEST SWAP3 SWAP2 POP POP JUMP JUMPDEST PUSH2 0x47D DUP2 PUSH2 0x408 JUMP JUMPDEST DUP2 EQ PUSH2 0x487 JUMPI PUSH0 PUSH0 REVERT JUMPDEST POP JUMP JUMPDEST PUSH0 DUP2 CALLDATALOAD SWAP1 POP PUSH2 0x498 DUP2 PUSH2 0x474 JUMP JUMPDEST SWAP3 SWAP2 POP POP JUMP JUMPDEST PUSH0 PUSH0 PUSH1 0x40 DUP4 DUP6 SUB SLT ISZERO PUSH2 0x4B4 JUMPI PUSH2 0x4B3 PUSH2 0x37F JUMP JUMPDEST JUMPDEST PUSH0 PUSH2 0x4C1 DUP6 DUP3 DUP7 ADD PUSH2 0x460 JUMP JUMPDEST SWAP3 POP POP PUSH1 0x20 PUSH2 0x4D2 DUP6 DUP3 DUP7 ADD PUSH2 0x48A JUMP JUMPDEST SWAP2 POP POP SWAP3 POP SWAP3 SWAP1 POP JUMP JUMPDEST PUSH0 DUP2 ISZERO ISZERO SWAP1 POP SWAP2 SWAP1 POP JUMP JUMPDEST PUSH2 0x4F0 DUP2 PUSH2 0x4DC JUMP JUMPDEST DUP3 MSTORE POP POP JUMP JUMPDEST PUSH0 PUSH1 0x20 DUP3 ADD SWAP1 POP PUSH2 0x509 PUSH0 DUP4 ADD DUP5 PUSH2 0x4E7 JUMP JUMPDEST SWAP3 SWAP2 POP POP JUMP JUMPDEST PUSH0 DUP3 DUP3 MSTORE PUSH1 0x20 DUP3 ADD SWAP1 POP SWAP3 SWAP2 POP POP JUMP JUMPDEST PUSH32 0x496E73756666696369656E742062616C616E6365000000000000000000000000 PUSH0 DUP3 ADD MSTORE POP JUMP JUMPDEST PUSH0 PUSH2 0x553 PUSH1 0x14 DUP4 PUSH2 0x50F JUMP JUMPDEST SWAP2 POP PUSH2 0x55E DUP3 PUSH2 0x51F JUMP JUMPDEST PUSH1 0x20 DUP3 ADD SWAP1 POP SWAP2 SWAP1 POP JUMP JUMPDEST PUSH0 PUSH1 0x20 DUP3 ADD SWAP1 POP DUP2 DUP2 SUB PUSH0 DUP4 ADD MSTORE PUSH2 0x580 DUP2 PUSH2 0x547 JUMP JUMPDEST SWAP1 POP SWAP2 SWAP1 POP JUMP JUMPDEST PUSH0 DUP2 SWAP1 POP SWAP3 SWAP2 POP POP JUMP JUMPDEST POP JUMP JUMPDEST PUSH0 PUSH2 0x59F PUSH0 DUP4 PUSH2 0x587 JUMP JUMPDEST SWAP2 POP PUSH2 0x5AA DUP3 PUSH2 0x591 JUMP JUMPDEST PUSH0 DUP3 ADD SWAP1 POP SWAP2 SWAP1 POP JUMP JUMPDEST PUSH0 PUSH2 0x5BE DUP3 PUSH2 0x594 JUMP JUMPDEST SWAP2 POP DUP2 SWAP1 POP SWAP2 SWAP1 POP JUMP JUMPDEST PUSH32 0x455448207472616E73666572206661696C656400000000000000000000000000 PUSH0 DUP3 ADD MSTORE POP JUMP JUMPDEST PUSH0 PUSH2 0x5FC PUSH1 0x13 DUP4 PUSH2 0x50F JUMP JUMPDEST SWAP2 POP PUSH2 0x607 DUP3 PUSH2 0x5C8 JUMP JUMPDEST PUSH1 0x20 DUP3 ADD SWAP1 POP SWAP2 SWAP1 POP JUMP JUMPDEST PUSH0 PUSH1 0x20 DUP3 ADD SWAP1 POP DUP2 DUP2 SUB PUSH0 DUP4 ADD MSTORE PUSH2 0x629 DUP2 PUSH2 0x5F0 JUMP JUMPDEST SWAP1 POP SWAP2 SWAP1 POP JUMP JUMPDEST PUSH32 0x4E487B7100000000000000000000000000000000000000000000000000000000 PUSH0 MSTORE PUSH1 0x11 PUSH1 0x4 MSTORE PUSH1 0x24 PUSH0 REVERT JUMPDEST PUSH0 PUSH2 0x667 DUP3 PUSH2 0x408 JUMP JUMPDEST SWAP2 POP PUSH2 0x672 DUP4 PUSH2 0x408 JUMP JUMPDEST SWAP3 POP DUP3 DUP3 SUB SWAP1 POP DUP2 DUP2 GT ISZERO PUSH2 0x68A JUMPI PUSH2 0x689 PUSH2 0x630 JUMP JUMPDEST JUMPDEST SWAP3 SWAP2 POP POP JUMP JUMPDEST PUSH0 PUSH2 0x69A DUP3 PUSH2 0x408 JUMP JUMPDEST SWAP2 POP PUSH2 0x6A5 DUP4 PUSH2 0x408 JUMP JUMPDEST SWAP3 POP DUP3 DUP3 ADD SWAP1 POP DUP1 DUP3 GT ISZERO PUSH2 0x6BD JUMPI PUSH2 0x6BC PUSH2 0x630 JUMP JUMPDEST JUMPDEST SWAP3 SWAP2 POP POP JUMP INVALID LOG2 PUSH5 0x6970667358 0x22 SLT KECCAK256 0xAE 0xAA 0xD2 0xCB SLOAD PUSH6 0xB5F2E3D19EA3 0xB8 PC 0xAA DUP14 KECCAK256 LT SWAP12 0x4F DUP13 PUSH18 0xE08F5EF0E580BAB0E85364736F6C63430008 0x22 STOP CALLER "
				},
				"gasEstimates": {
					"creation": {
						"codeDepositCost": "357000",
						"executionCost": "391",
						"totalCost": "357391"
					},
					"external": {
						"balances(address)": "2779",
						"contractBalance()": "378",
						"deposit()": "infinite",
						"safeWithdraw(address,uint256)": "infinite",
						"withdrawn(address)": "2855"
					}
				},
				"methodIdentifiers": {
					"balances(address)": "27e235e3",
					"contractBalance()": "8b7afe2e",
					"deposit()": "d0e30db0",
					"safeWithdraw(address,uint256)": "5058c460",
					"withdrawn(address)": "6ef61092"
				}
			},
			"storageLayout": {
				"storage": [
					{
						"astId": 104,
						"contract": "prac60.sol:DangerousUncheckedCallPatched",
						"label": "balances",
						"offset": 0,
						"slot": "0",
						"type": "t_mapping(t_address,t_uint256)"
					},
					{
						"astId": 108,
						"contract": "prac60.sol:DangerousUncheckedCallPatched",
						"label": "withdrawn",
						"offset": 0,
						"slot": "1",
						"type": "t_mapping(t_address,t_bool)"
					}
				],
				"types": {
					"t_address": {
						"encoding": "inplace",
						"label": "address",
						"numberOfBytes": "20"
					},
					"t_bool": {
						"encoding": "inplace",
						"label": "bool",
						"numberOfBytes": "1"
					},
					"t_mapping(t_address,t_bool)": {
						"encoding": "mapping",
						"key": "t_address",
						"label": "mapping(address => bool)",
						"numberOfBytes": "32",
						"value": "t_bool"
					},
					"t_mapping(t_address,t_uint256)": {
						"encoding": "mapping",
						"key": "t_address",
						"label": "mapping(address => uint256)",
						"numberOfBytes": "32",
						"value": "t_uint256"
					},
					"t_uint256": {
						"encoding": "inplace",
						"label": "uint256",
						"numberOfBytes": "32"
					}
				}
			},
			"userdoc": {
				"kind": "user",
				"methods": {},
				"version": 1
			}
		}
	}
}