{
	"prac83.sol": {
		"LogicV2Patched": {
			"abi": [
				{
					"inputs": [],
					"name": "initialized",
					"outputs": [
						{
							"internalType": "bool",
							"name": "",
							"type": "bool"
						}
					],
					"stateMutability": "view",
					"type": "function"
				},
				{
					"inputs": [],
					"name": "owner",
					"outputs": [
						{
							"internalType": "address",
							"name": "",
							"type": "address"
						}
					],
					"stateMutability": "view",
					"type": "function"
				},
				{
					"inputs": [
						{
							"internalType": "uint256",
							"name": "_value",
							"type": "uint256"
						}
					],
					"name": "setValue",
					"outputs": [],
					"stateMutability": "nonpayable",
					"type": "function"
				},
				{
					"inputs": [
						{
							"internalType": "uint256",
							"name": "_value",
							"type": "uint256"
						}
					],
					"name": "setValueIncrement",
					"outputs": [],
					"stateMutability": "nonpayable",
					"type": "function"
				},
				{
					"inputs": [],
					"name": "value",
					"outputs": [
						{
							"internalType": "uint256",
							"name": "",
							"type": "uint256"
						}
					],
					"stateMutability": "view",
					"type": "function"
				}
			],
			"devdoc": {
				"kind": "dev",
				"methods": {},
				"version": 1
			},
			"evm": {
				"assembly": "    /* \"prac83.sol\":8519:8959  contract LogicV2Patched {... */\n  mstore(0x40, 0x80)\n  callvalue\n  dup1\n  iszero\n  tag_1\n  jumpi\n  revert(0x00, 0x00)\ntag_1:\n  pop\n  dataSize(sub_0)\n  dup1\n  dataOffset(sub_0)\n  0x00\n  codecopy\n  0x00\n  return\nstop\n\nsub_0: assembly {\n        /* \"prac83.sol\":8519:8959  contract LogicV2Patched {... */\n      mstore(0x40, 0x80)\n      callvalue\n      dup1\n      iszero\n      tag_1\n      jumpi\n      revert(0x00, 0x00)\n    tag_1:\n      pop\n      jumpi(tag_2, lt(calldatasize, 0x04))\n      shr(0xe0, calldataload(0x00))\n      dup1\n      0x158ef93e\n      eq\n      tag_3\n      jumpi\n      dup1\n      0x3956de47\n      eq\n      tag_4\n      jumpi\n      dup1\n      0x3fa4f245\n      eq\n      tag_5\n      jumpi\n      dup1\n      0x55241077\n      eq\n      tag_6\n      jumpi\n      dup1\n      0x8da5cb5b\n      eq\n      tag_7\n      jumpi\n    tag_2:\n      revert(0x00, 0x00)\n        /* \"prac83.sol\":8606:8629  bool public initialized */\n    tag_3:\n      tag_8\n      tag_9\n      jump\t// in\n    tag_8:\n      mload(0x40)\n      tag_10\n      swap2\n      swap1\n      tag_11\n      jump\t// in\n    tag_10:\n      mload(0x40)\n      dup1\n      swap2\n      sub\n      swap1\n      return\n        /* \"prac83.sol\":8837:8956  function setValueIncrement(uint256 _value)... */\n    tag_4:\n      tag_12\n      0x04\n      dup1\n      calldatasize\n      sub\n      dup2\n      add\n      swap1\n      tag_13\n      swap2\n      swap1\n      tag_14\n      jump\t// in\n    tag_13:\n      tag_15\n      jump\t// in\n    tag_12:\n      stop\n        /* \"prac83.sol\":8552:8572  uint256 public value */\n    tag_5:\n      tag_16\n      tag_17\n      jump\t// in\n    tag_16:\n      mload(0x40)\n      tag_18\n      swap2\n      swap1\n      tag_19\n      jump\t// in\n    tag_18:\n      mload(0x40)\n      dup1\n      swap2\n      sub\n      swap1\n      return\n        /* \"prac83.sol\":8739:8829  function setValue(uint256 _value) external onlyOwner {... */\n    tag_6:\n      tag_20\n      0x04\n      dup1\n      calldatasize\n      sub\n      dup2\n      add\n      swap1\n      tag_21\n      swap2\n      swap1\n      tag_14\n      jump\t// in\n    tag_21:\n      tag_22\n      jump\t// in\n    tag_20:\n      stop\n        /* \"prac83.sol\":8579:8599  address public owner */\n    tag_7:\n      tag_23\n      tag_24\n      jump\t// in\n    tag_23:\n      mload(0x40)\n      tag_25\n      swap2\n      swap1\n      tag_26\n      jump\t// in\n    tag_25:\n      mload(0x40)\n      dup1\n      swap2\n      sub\n      swap1\n      return\n        /* \"prac83.sol\":8606:8629  bool public initialized */\n    tag_9:\n      0x01\n      0x14\n      swap1\n      sload\n      swap1\n      0x0100\n      exp\n      swap1\n      div\n      0xff\n      and\n      dup2\n      jump\t// out\n        /* \"prac83.sol\":8837:8956  function setValueIncrement(uint256 _value)... */\n    tag_15:\n        /* \"prac83.sol\":8692:8697  owner */\n      0x01\n      0x00\n      swap1\n      sload\n      swap1\n      0x0100\n      exp\n      swap1\n      div\n      0xffffffffffffffffffffffffffffffffffffffff\n      and\n        /* \"prac83.sol\":8678:8697  msg.sender == owner */\n      0xffffffffffffffffffffffffffffffffffffffff\n      and\n        /* \"prac83.sol\":8678:8688  msg.sender */\n      caller\n        /* \"prac83.sol\":8678:8697  msg.sender == owner */\n      0xffffffffffffffffffffffffffffffffffffffff\n      and\n      eq\n        /* \"prac83.sol\":8670:8711  require(msg.sender == owner, \"Not owner\") */\n      tag_28\n      jumpi\n      mload(0x40)\n      0x08c379a000000000000000000000000000000000000000000000000000000000\n      dup2\n      mstore\n      0x04\n      add\n      tag_29\n      swap1\n      tag_30\n      jump\t// in\n    tag_29:\n      mload(0x40)\n      dup1\n      swap2\n      sub\n      swap1\n      revert\n    tag_28:\n        /* \"prac83.sol\":8942:8948  _value */\n      dup1\n        /* \"prac83.sol\":8933:8938  value */\n      0x00\n      0x00\n        /* \"prac83.sol\":8933:8948  value += _value */\n      dup3\n      dup3\n      sload\n      tag_32\n      swap2\n      swap1\n      tag_33\n      jump\t// in\n    tag_32:\n      swap3\n      pop\n      pop\n      dup2\n      swap1\n      sstore\n      pop\n        /* \"prac83.sol\":8837:8956  function setValueIncrement(uint256 _value)... */\n      pop\n      jump\t// out\n        /* \"prac83.sol\":8552:8572  uint256 public value */\n    tag_17:\n      sload(0x00)\n      dup2\n      jump\t// out\n        /* \"prac83.sol\":8739:8829  function setValue(uint256 _value) external onlyOwner {... */\n    tag_22:\n        /* \"prac83.sol\":8692:8697  owner */\n      0x01\n      0x00\n      swap1\n      sload\n      swap1\n      0x0100\n      exp\n      swap1\n      div\n      0xffffffffffffffffffffffffffffffffffffffff\n      and\n        /* \"prac83.sol\":8678:8697  msg.sender == owner */\n      0xffffffffffffffffffffffffffffffffffffffff\n      and\n        /* \"prac83.sol\":8678:8688  msg.sender */\n      caller\n        /* \"prac83.sol\":8678:8697  msg.sender == owner */\n      0xffffffffffffffffffffffffffffffffffffffff\n      and\n      eq\n        /* \"prac83.sol\":8670:8711  require(msg.sender == owner, \"Not owner\") */\n      tag_35\n      jumpi\n      mload(0x40)\n      0x08c379a000000000000000000000000000000000000000000000000000000000\n      dup2\n      mstore\n      0x04\n      add\n      tag_36\n      swap1\n      tag_30\n      jump\t// in\n    tag_36:\n      mload(0x40)\n      dup1\n      swap2\n      sub\n      swap1\n      revert\n    tag_35:\n        /* \"prac83.sol\":8820:8821  2 */\n      0x02\n        /* \"prac83.sol\":8811:8817  _value */\n      dup2\n        /* \"prac83.sol\":8811:8821  _value * 2 */\n      tag_38\n      swap2\n      swap1\n      tag_39\n      jump\t// in\n    tag_38:\n        /* \"prac83.sol\":8803:8808  value */\n      0x00\n        /* \"prac83.sol\":8803:8821  value = _value * 2 */\n      dup2\n      swap1\n      sstore\n      pop\n        /* \"prac83.sol\":8739:8829  function setValue(uint256 _value) external onlyOwner {... */\n      pop\n      jump\t// out\n        /* \"prac83.sol\":8579:8599  address public owner */\n    tag_24:\n      0x01\n      0x00\n      swap1\n      sload\n      swap1\n      0x0100\n      exp\n      swap1\n      div\n      0xffffffffffffffffffffffffffffffffffffffff\n      and\n      dup2\n      jump\t// out\n        /* \"#utility.yul\":7:97   */\n    tag_40:\n        /* \"#utility.yul\":41:48   */\n      0x00\n        /* \"#utility.yul\":84:89   */\n      dup2\n        /* \"#utility.yul\":77:90   */\n      iszero\n        /* \"#utility.yul\":70:91   */\n      iszero\n        /* \"#utility.yul\":59:91   */\n      swap1\n      pop\n        /* \"#utility.yul\":7:97   */\n      swap2\n      swap1\n      pop\n      jump\t// out\n        /* \"#utility.yul\":103:212   */\n    tag_41:\n        /* \"#utility.yul\":184:205   */\n      tag_59\n        /* \"#utility.yul\":199:204   */\n      dup2\n        /* \"#utility.yul\":184:205   */\n      tag_40\n      jump\t// in\n    tag_59:\n        /* \"#utility.yul\":179:182   */\n      dup3\n        /* \"#utility.yul\":172:206   */\n      mstore\n        /* \"#utility.yul\":103:212   */\n      pop\n      pop\n      jump\t// out\n        /* \"#utility.yul\":218:428   */\n    tag_11:\n        /* \"#utility.yul\":305:309   */\n      0x00\n        /* \"#utility.yul\":343:345   */\n      0x20\n        /* \"#utility.yul\":332:341   */\n      dup3\n        /* \"#utility.yul\":328:346   */\n      add\n        /* \"#utility.yul\":320:346   */\n      swap1\n      pop\n        /* \"#utility.yul\":356:421   */\n      tag_61\n        /* \"#utility.yul\":418:419   */\n      0x00\n        /* \"#utility.yul\":407:416   */\n      dup4\n        /* \"#utility.yul\":403:420   */\n      add\n        /* \"#utility.yul\":394:400   */\n      dup5\n        /* \"#utility.yul\":356:421   */\n      tag_41\n      jump\t// in\n    tag_61:\n        /* \"#utility.yul\":218:428   */\n      swap3\n      swap2\n      pop\n      pop\n      jump\t// out\n        /* \"#utility.yul\":515:632   */\n    tag_43:\n        /* \"#utility.yul\":624:625   */\n      0x00\n        /* \"#utility.yul\":621:622   */\n      0x00\n        /* \"#utility.yul\":614:626   */\n      revert\n        /* \"#utility.yul\":761:838   */\n    tag_45:\n        /* \"#utility.yul\":798:805   */\n      0x00\n        /* \"#utility.yul\":827:832   */\n      dup2\n        /* \"#utility.yul\":816:832   */\n      swap1\n      pop\n        /* \"#utility.yul\":761:838   */\n      swap2\n      swap1\n      pop\n      jump\t// out\n        /* \"#utility.yul\":844:966   */\n    tag_46:\n        /* \"#utility.yul\":917:941   */\n      tag_67\n        /* \"#utility.yul\":935:940   */\n      dup2\n        /* \"#utility.yul\":917:941   */\n      tag_45\n      jump\t// in\n    tag_67:\n        /* \"#utility.yul\":910:915   */\n      dup2\n        /* \"#utility.yul\":907:942   */\n      eq\n        /* \"#utility.yul\":897:960   */\n      tag_68\n      jumpi\n        /* \"#utility.yul\":956:957   */\n      0x00\n        /* \"#utility.yul\":953:954   */\n      0x00\n        /* \"#utility.yul\":946:958   */\n      revert\n        /* \"#utility.yul\":897:960   */\n    tag_68:\n        /* \"#utility.yul\":844:966   */\n      pop\n      jump\t// out\n        /* \"#utility.yul\":972:1111   */\n    tag_47:\n        /* \"#utility.yul\":1018:1023   */\n      0x00\n        /* \"#utility.yul\":1056:1062   */\n      dup2\n        /* \"#utility.yul\":1043:1063   */\n      calldataload\n        /* \"#utility.yul\":1034:1063   */\n      swap1\n      pop\n        /* \"#utility.yul\":1072:1105   */\n      tag_70\n        /* \"#utility.yul\":1099:1104   */\n      dup2\n        /* \"#utility.yul\":1072:1105   */\n      tag_46\n      jump\t// in\n    tag_70:\n        /* \"#utility.yul\":972:1111   */\n      swap3\n      swap2\n      pop\n      pop\n      jump\t// out\n        /* \"#utility.yul\":1117:1446   */\n    tag_14:\n        /* \"#utility.yul\":1176:1182   */\n      0x00\n        /* \"#utility.yul\":1225:1227   */\n      0x20\n        /* \"#utility.yul\":1213:1222   */\n      dup3\n        /* \"#utility.yul\":1204:1211   */\n      dup5\n        /* \"#utility.yul\":1200:1223   */\n      sub\n        /* \"#utility.yul\":1196:1228   */\n      slt\n        /* \"#utility.yul\":1193:1312   */\n      iszero\n      tag_72\n      jumpi\n        /* \"#utility.yul\":1231:1310   */\n      tag_73\n      tag_43\n      jump\t// in\n    tag_73:\n        /* \"#utility.yul\":1193:1312   */\n    tag_72:\n        /* \"#utility.yul\":1351:1352   */\n      0x00\n        /* \"#utility.yul\":1376:1429   */\n      tag_74\n        /* \"#utility.yul\":1421:1428   */\n      dup5\n        /* \"#utility.yul\":1412:1418   */\n      dup3\n        /* \"#utility.yul\":1401:1410   */\n      dup6\n        /* \"#utility.yul\":1397:1419   */\n      add\n        /* \"#utility.yul\":1376:1429   */\n      tag_47\n      jump\t// in\n    tag_74:\n        /* \"#utility.yul\":1366:1429   */\n      swap2\n      pop\n        /* \"#utility.yul\":1322:1439   */\n      pop\n        /* \"#utility.yul\":1117:1446   */\n      swap3\n      swap2\n      pop\n      pop\n      jump\t// out\n        /* \"#utility.yul\":1452:1570   */\n    tag_48:\n        /* \"#utility.yul\":1539:1563   */\n      tag_76\n        /* \"#utility.yul\":1557:1562   */\n      dup2\n        /* \"#utility.yul\":1539:1563   */\n      tag_45\n      jump\t// in\n    tag_76:\n        /* \"#utility.yul\":1534:1537   */\n      dup3\n        /* \"#utility.yul\":1527:1564   */\n      mstore\n        /* \"#utility.yul\":1452:1570   */\n      pop\n      pop\n      jump\t// out\n        /* \"#utility.yul\":1576:1798   */\n    tag_19:\n        /* \"#utility.yul\":1669:1673   */\n      0x00\n        /* \"#utility.yul\":1707:1709   */\n      0x20\n        /* \"#utility.yul\":1696:1705   */\n      dup3\n        /* \"#utility.yul\":1692:1710   */\n      add\n        /* \"#utility.yul\":1684:1710   */\n      swap1\n      pop\n        /* \"#utility.yul\":1720:1791   */\n      tag_78\n        /* \"#utility.yul\":1788:1789   */\n      0x00\n        /* \"#utility.yul\":1777:1786   */\n      dup4\n        /* \"#utility.yul\":1773:1790   */\n      add\n        /* \"#utility.yul\":1764:1770   */\n      dup5\n        /* \"#utility.yul\":1720:1791   */\n      tag_48\n      jump\t// in\n    tag_78:\n        /* \"#utility.yul\":1576:1798   */\n      swap3\n      swap2\n      pop\n      pop\n      jump\t// out\n        /* \"#utility.yul\":1804:1930   */\n    tag_49:\n        /* \"#utility.yul\":1841:1848   */\n      0x00\n        /* \"#utility.yul\":1881:1923   */\n      0xffffffffffffffffffffffffffffffffffffffff\n        /* \"#utility.yul\":1874:1879   */\n      dup3\n        /* \"#utility.yul\":1870:1924   */\n      and\n        /* \"#utility.yul\":1859:1924   */\n      swap1\n      pop\n        /* \"#utility.yul\":1804:1930   */\n      swap2\n      swap1\n      pop\n      jump\t// out\n        /* \"#utility.yul\":1936:2032   */\n    tag_50:\n        /* \"#utility.yul\":1973:1980   */\n      0x00\n        /* \"#utility.yul\":2002:2026   */\n      tag_81\n        /* \"#utility.yul\":2020:2025   */\n      dup3\n        /* \"#utility.yul\":2002:2026   */\n      tag_49\n      jump\t// in\n    tag_81:\n        /* \"#utility.yul\":1991:2026   */\n      swap1\n      pop\n        /* \"#utility.yul\":1936:2032   */\n      swap2\n      swap1\n      pop\n      jump\t// out\n        /* \"#utility.yul\":2038:2156   */\n    tag_51:\n        /* \"#utility.yul\":2125:2149   */\n      tag_83\n        /* \"#utility.yul\":2143:2148   */\n      dup2\n        /* \"#utility.yul\":2125:2149   */\n      tag_50\n      jump\t// in\n    tag_83:\n        /* \"#utility.yul\":2120:2123   */\n      dup3\n        /* \"#utility.yul\":2113:2150   */\n      mstore\n        /* \"#utility.yul\":2038:2156   */\n      pop\n      pop\n      jump\t// out\n        /* \"#utility.yul\":2162:2384   */\n    tag_26:\n        /* \"#utility.yul\":2255:2259   */\n      0x00\n        /* \"#utility.yul\":2293:2295   */\n      0x20\n        /* \"#utility.yul\":2282:2291   */\n      dup3\n        /* \"#utility.yul\":2278:2296   */\n      add\n        /* \"#utility.yul\":2270:2296   */\n      swap1\n      pop\n        /* \"#utility.yul\":2306:2377   */\n      tag_85\n        /* \"#utility.yul\":2374:2375   */\n      0x00\n        /* \"#utility.yul\":2363:2372   */\n      dup4\n        /* \"#utility.yul\":2359:2376   */\n      add\n        /* \"#utility.yul\":2350:2356   */\n      dup5\n        /* \"#utility.yul\":2306:2377   */\n      tag_51\n      jump\t// in\n    tag_85:\n        /* \"#utility.yul\":2162:2384   */\n      swap3\n      swap2\n      pop\n      pop\n      jump\t// out\n        /* \"#utility.yul\":2390:2559   */\n    tag_52:\n        /* \"#utility.yul\":2474:2485   */\n      0x00\n        /* \"#utility.yul\":2508:2514   */\n      dup3\n        /* \"#utility.yul\":2503:2506   */\n      dup3\n        /* \"#utility.yul\":2496:2515   */\n      mstore\n        /* \"#utility.yul\":2548:2552   */\n      0x20\n        /* \"#utility.yul\":2543:2546   */\n      dup3\n        /* \"#utility.yul\":2539:2553   */\n      add\n        /* \"#utility.yul\":2524:2553   */\n      swap1\n      pop\n        /* \"#utility.yul\":2390:2559   */\n      swap3\n      swap2\n      pop\n      pop\n      jump\t// out\n        /* \"#utility.yul\":2565:2724   */\n    tag_53:\n        /* \"#utility.yul\":2705:2716   */\n      0x4e6f74206f776e65720000000000000000000000000000000000000000000000\n        /* \"#utility.yul\":2701:2702   */\n      0x00\n        /* \"#utility.yul\":2693:2699   */\n      dup3\n        /* \"#utility.yul\":2689:2703   */\n      add\n        /* \"#utility.yul\":2682:2717   */\n      mstore\n        /* \"#utility.yul\":2565:2724   */\n      pop\n      jump\t// out\n        /* \"#utility.yul\":2730:3095   */\n    tag_54:\n        /* \"#utility.yul\":2872:2875   */\n      0x00\n        /* \"#utility.yul\":2893:2959   */\n      tag_89\n        /* \"#utility.yul\":2957:2958   */\n      0x09\n        /* \"#utility.yul\":2952:2955   */\n      dup4\n        /* \"#utility.yul\":2893:2959   */\n      tag_52\n      jump\t// in\n    tag_89:\n        /* \"#utility.yul\":2886:2959   */\n      swap2\n      pop\n        /* \"#utility.yul\":2968:3061   */\n      tag_90\n        /* \"#utility.yul\":3057:3060   */\n      dup3\n        /* \"#utility.yul\":2968:3061   */\n      tag_53\n      jump\t// in\n    tag_90:\n        /* \"#utility.yul\":3086:3088   */\n      0x20\n        /* \"#utility.yul\":3081:3084   */\n      dup3\n        /* \"#utility.yul\":3077:3089   */\n      add\n        /* \"#utility.yul\":3070:3089   */\n      swap1\n      pop\n        /* \"#utility.yul\":2730:3095   */\n      swap2\n      swap1\n      pop\n      jump\t// out\n        /* \"#utility.yul\":3101:3520   */\n    tag_30:\n        /* \"#utility.yul\":3267:3271   */\n      0x00\n        /* \"#utility.yul\":3305:3307   */\n      0x20\n        /* \"#utility.yul\":3294:3303   */\n      dup3\n        /* \"#utility.yul\":3290:3308   */\n      add\n        /* \"#utility.yul\":3282:3308   */\n      swap1\n      pop\n        /* \"#utility.yul\":3354:3363   */\n      dup2\n        /* \"#utility.yul\":3348:3352   */\n      dup2\n        /* \"#utility.yul\":3344:3364   */\n      sub\n        /* \"#utility.yul\":3340:3341   */\n      0x00\n        /* \"#utility.yul\":3329:3338   */\n      dup4\n        /* \"#utility.yul\":3325:3342   */\n      add\n        /* \"#utility.yul\":3318:3365   */\n      mstore\n        /* \"#utility.yul\":3382:3513   */\n      tag_92\n        /* \"#utility.yul\":3508:3512   */\n      dup2\n        /* \"#utility.yul\":3382:3513   */\n      tag_54\n      jump\t// in\n    tag_92:\n        /* \"#utility.yul\":3374:3513   */\n      swap1\n      pop\n        /* \"#utility.yul\":3101:3520   */\n      swap2\n      swap1\n      pop\n      jump\t// out\n        /* \"#utility.yul\":3526:3706   */\n    tag_55:\n        /* \"#utility.yul\":3574:3651   */\n      0x4e487b7100000000000000000000000000000000000000000000000000000000\n        /* \"#utility.yul\":3571:3572   */\n      0x00\n        /* \"#utility.yul\":3564:3652   */\n      mstore\n        /* \"#utility.yul\":3671:3675   */\n      0x11\n        /* \"#utility.yul\":3668:3669   */\n      0x04\n        /* \"#utility.yul\":3661:3676   */\n      mstore\n        /* \"#utility.yul\":3695:3699   */\n      0x24\n        /* \"#utility.yul\":3692:3693   */\n      0x00\n        /* \"#utility.yul\":3685:3700   */\n      revert\n        /* \"#utility.yul\":3712:3903   */\n    tag_33:\n        /* \"#utility.yul\":3752:3755   */\n      0x00\n        /* \"#utility.yul\":3771:3791   */\n      tag_95\n        /* \"#utility.yul\":3789:3790   */\n      dup3\n        /* \"#utility.yul\":3771:3791   */\n      tag_45\n      jump\t// in\n    tag_95:\n        /* \"#utility.yul\":3766:3791   */\n      swap2\n      pop\n        /* \"#utility.yul\":3805:3825   */\n      tag_96\n        /* \"#utility.yul\":3823:3824   */\n      dup4\n        /* \"#utility.yul\":3805:3825   */\n      tag_45\n      jump\t// in\n    tag_96:\n        /* \"#utility.yul\":3800:3825   */\n      swap3\n      pop\n        /* \"#utility.yul\":3848:3849   */\n      dup3\n        /* \"#utility.yul\":3845:3846   */\n      dup3\n        /* \"#utility.yul\":3841:3850   */\n      add\n        /* \"#utility.yul\":3834:3850   */\n      swap1\n      pop\n        /* \"#utility.yul\":3869:3872   */\n      dup1\n        /* \"#utility.yul\":3866:3867   */\n      dup3\n        /* \"#utility.yul\":3863:3873   */\n      gt\n        /* \"#utility.yul\":3860:3896   */\n      iszero\n      tag_97\n      jumpi\n        /* \"#utility.yul\":3876:3894   */\n      tag_98\n      tag_55\n      jump\t// in\n    tag_98:\n        /* \"#utility.yul\":3860:3896   */\n    tag_97:\n        /* \"#utility.yul\":3712:3903   */\n      swap3\n      swap2\n      pop\n      pop\n      jump\t// out\n        /* \"#utility.yul\":3909:4319   */\n    tag_39:\n        /* \"#utility.yul\":3949:3956   */\n      0x00\n        /* \"#utility.yul\":3972:3992   */\n      tag_100\n        /* \"#utility.yul\":3990:3991   */\n      dup3\n        /* \"#utility.yul\":3972:3992   */\n      tag_45\n      jump\t// in\n    tag_100:\n        /* \"#utility.yul\":3967:3992   */\n      swap2\n      pop\n        /* \"#utility.yul\":4006:4026   */\n      tag_101\n        /* \"#utility.yul\":4024:4025   */\n      dup4\n        /* \"#utility.yul\":4006:4026   */\n      tag_45\n      jump\t// in\n    tag_101:\n        /* \"#utility.yul\":4001:4026   */\n      swap3\n      pop\n        /* \"#utility.yul\":4061:4062   */\n      dup3\n        /* \"#utility.yul\":4058:4059   */\n      dup3\n        /* \"#utility.yul\":4054:4063   */\n      mul\n        /* \"#utility.yul\":4083:4113   */\n      tag_102\n        /* \"#utility.yul\":4101:4112   */\n      dup2\n        /* \"#utility.yul\":4083:4113   */\n      tag_45\n      jump\t// in\n    tag_102:\n        /* \"#utility.yul\":4072:4113   */\n      swap2\n      pop\n        /* \"#utility.yul\":4262:4263   */\n      dup3\n        /* \"#utility.yul\":4253:4260   */\n      dup3\n        /* \"#utility.yul\":4249:4264   */\n      div\n        /* \"#utility.yul\":4246:4247   */\n      dup5\n        /* \"#utility.yul\":4243:4265   */\n      eq\n        /* \"#utility.yul\":4223:4224   */\n      dup4\n        /* \"#utility.yul\":4216:4225   */\n      iszero\n        /* \"#utility.yul\":4196:4279   */\n      or\n        /* \"#utility.yul\":4173:4312   */\n      tag_103\n      jumpi\n        /* \"#utility.yul\":4292:4310   */\n      tag_104\n      tag_55\n      jump\t// in\n    tag_104:\n        /* \"#utility.yul\":4173:4312   */\n    tag_103:\n        /* \"#utility.yul\":3957:4319   */\n      pop\n        /* \"#utility.yul\":3909:4319   */\n      swap3\n      swap2\n      pop\n      pop\n      jump\t// out\n\n    auxdata: 0xa26469706673582212202994ddc430b1c12bf7020c4abb91e6cd2ccf6e23b440319bf3e545235b390ec164736f6c63430008220033\n}\n",
				"bytecode": {
					"linkReferences": {},
					"object": "6080604052348015600e575f5ffd5b506104d98061001c5f395ff3fe608060405234801561000f575f5ffd5b5060043610610055575f3560e01c8063158ef93e146100595780633956de47146100775780633fa4f2451461009357806355241077146100b15780638da5cb5b146100cd575b5f5ffd5b6100616100eb565b60405161006e919061028f565b60405180910390f35b610091600480360381019061008c91906102df565b6100fe565b005b61009b6101a7565b6040516100a89190610319565b60405180910390f35b6100cb60048036038101906100c691906102df565b6101ac565b005b6100d5610250565b6040516100e29190610371565b60405180910390f35b600160149054906101000a900460ff1681565b60015f9054906101000a900473ffffffffffffffffffffffffffffffffffffffff1673ffffffffffffffffffffffffffffffffffffffff163373ffffffffffffffffffffffffffffffffffffffff161461018d576040517f08c379a0000000000000000000000000000000000000000000000000000000008152600401610184906103e4565b60405180910390fd5b805f5f82825461019d919061042f565b9250508190555050565b5f5481565b60015f9054906101000a900473ffffffffffffffffffffffffffffffffffffffff1673ffffffffffffffffffffffffffffffffffffffff163373ffffffffffffffffffffffffffffffffffffffff161461023b576040517f08c379a0000000000000000000000000000000000000000000000000000000008152600401610232906103e4565b60405180910390fd5b6002816102489190610462565b5f8190555050565b60015f9054906101000a900473ffffffffffffffffffffffffffffffffffffffff1681565b5f8115159050919050565b61028981610275565b82525050565b5f6020820190506102a25f830184610280565b92915050565b5f5ffd5b5f819050919050565b6102be816102ac565b81146102c8575f5ffd5b50565b5f813590506102d9816102b5565b92915050565b5f602082840312156102f4576102f36102a8565b5b5f610301848285016102cb565b91505092915050565b610313816102ac565b82525050565b5f60208201905061032c5f83018461030a565b92915050565b5f73ffffffffffffffffffffffffffffffffffffffff82169050919050565b5f61035b82610332565b9050919050565b61036b81610351565b82525050565b5f6020820190506103845f830184610362565b92915050565b5f82825260208201905092915050565b7f4e6f74206f776e657200000000000000000000000000000000000000000000005f82015250565b5f6103ce60098361038a565b91506103d98261039a565b602082019050919050565b5f6020820190508181035f8301526103fb816103c2565b9050919050565b7f4e487b71000000000000000000000000000000000000000000000000000000005f52601160045260245ffd5b5f610439826102ac565b9150610444836102ac565b925082820190508082111561045c5761045b610402565b5b92915050565b5f61046c826102ac565b9150610477836102ac565b9250828202610485816102ac565b9150828204841483151761049c5761049b610402565b5b509291505056fea26469706673582212202994ddc430b1c12bf7020c4abb91e6cd2ccf6e23b440319bf3e545235b390ec164736f6c63430008220033",
					"opcodes": "PUSH1 0x80 PUSH1 0x40 MSTORE CALLVALUE DUP1 ISZERO PUSH1 0xE JUMPI PUSH0 PUSH0 REVERT JUMPDEST POP PUSH2 0x4D9 DUP1 PUSH2 0x1C PUSH0 CODECOPY PUSH0 RETURN INVALID PUSH1 0x80 PUSH1 0x40 MSTORE CALLVALUE DUP1 ISZERO PUSH2 0xF JUMPI PUSH0 PUSH0 REVERT JUMPDEST POP PUSH1 0x4 CALLDATASIZE LT PUSH2 0x55 JUMPI PUSH0 CALLDATALOAD PUSH1 0xE0 SHR DUP1 PUSH4 0x158EF93E EQ PUSH2 0x59 JUMPI DUP1 PUSH4 0x3956DE47 EQ PUSH2 0x77 JUMPI DUP1 PUSH4 0x3FA4F245 EQ PUSH2 0x93 JUMPI DUP1 PUSH4 0x55241077 EQ PUSH2 0xB1 JUMPI DUP1 PUSH4 0x8DA5CB5B EQ PUSH2 0xCD JUMPI JUMPDEST PUSH0 PUSH0 REVERT JUMPDEST PUSH2 0x61 PUSH2 0xEB JUMP JUMPDEST PUSH1 0x40 MLOAD PUSH2 0x6E SWAP2 SWAP1 PUSH2 0x28F JUMP JUMPDEST PUSH1 0x40 MLOAD DUP1 SWAP2 SUB SWAP1 RETURN JUMPDEST PUSH2 0x91 PUSH1 0x4 DUP1 CALLDATASIZE SUB DUP2 ADD SWAP1 PUSH2 0x8C SWAP2 SWAP1 PUSH2 0x2DF JUMP JUMPDEST PUSH2 0xFE JUMP JUMPDEST STOP JUMPDEST PUSH2 0x9B PUSH2 0x1A7 JUMP JUMPDEST PUSH1 0x40 MLOAD PUSH2 0xA8 SWAP2 SWAP1 PUSH2 0x319 JUMP JUMPDEST PUSH1 0x40 MLOAD DUP1 SWAP2 SUB SWAP1 RETURN JUMPDEST PUSH2 0xCB PUSH1 0x4 DUP1 CALLDATASIZE SUB DUP2 ADD SWAP1 PUSH2 0xC6 SWAP2 SWAP1 PUSH2 0x2DF JUMP JUMPDEST PUSH2 0x1AC JUMP JUMPDEST STOP JUMPDEST PUSH2 0xD5 PUSH2 0x250 JUMP JUMPDEST PUSH1 0x40 MLOAD PUSH2 0xE2 SWAP2 SWAP1 PUSH2 0x371 JUMP JUMPDEST PUSH1 0x40 MLOAD DUP1 SWAP2 SUB SWAP1 RETURN JUMPDEST PUSH1 0x1 PUSH1 0x14 SWAP1 SLOAD SWAP1 PUSH2 0x100 EXP SWAP1 DIV PUSH1 0xFF AND DUP2 JUMP JUMPDEST PUSH1 0x1 PUSH0 SWAP1 SLOAD SWAP1 PUSH2 0x100 EXP SWAP1 DIV PUSH20 0xFFFFFFFFFFFFFFFFFFFFFFFFFFFFFFFFFFFFFFFF AND PUSH20 0xFFFFFFFFFFFFFFFFFFFFFFFFFFFFFFFFFFFFFFFF AND CALLER PUSH20 0xFFFFFFFFFFFFFFFFFFFFFFFFFFFFFFFFFFFFFFFF AND EQ PUSH2 0x18D JUMPI PUSH1 0x40 MLOAD PUSH32 0x8C379A000000000000000000000000000000000000000000000000000000000 DUP2 MSTORE PUSH1 0x4 ADD PUSH2 0x184 SWAP1 PUSH2 0x3E4 JUMP JUMPDEST PUSH1 0x40 MLOAD DUP1 SWAP2 SUB SWAP1 REVERT JUMPDEST DUP1 PUSH0 PUSH0 DUP3 DUP3 SLOAD PUSH2 0x19D SWAP2 SWAP1 PUSH2 0x42F JUMP JUMPDEST SWAP3 POP POP DUP2 SWAP1 SSTORE POP POP JUMP JUMPDEST PUSH0 SLOAD DUP2 JUMP JUMPDEST PUSH1 0x1 PUSH0 SWAP1 SLOAD SWAP1 PUSH2 0x100 EXP SWAP1 DIV PUSH20 0xFFFFFFFFFFFFFFFFFFFFFFFFFFFFFFFFFFFFFFFF AND PUSH20 0xFFFFFFFFFFFFFFFFFFFFFFFFFFFFFFFFFFFFFFFF AND CALLER PUSH20 0xFFFFFFFFFFFFFFFFFFFFFFFFFFFFFFFFFFFFFFFF AND EQ PUSH2 0x23B JUMPI PUSH1 0x40 MLOAD PUSH32 0x8C379A000000000000000000000000000000000000000000000000000000000 DUP2 MSTORE PUSH1 0x4 ADD PUSH2 0x232 SWAP1 PUSH2 0x3E4 JUMP JUMPDEST PUSH1 0x40 MLOAD DUP1 SWAP2 SUB SWAP1 REVERT JUMPDEST PUSH1 0x2 DUP2 PUSH2 0x248 SWAP2 SWAP1 PUSH2 0x462 JUMP JUMPDEST PUSH0 DUP2 SWAP1 SSTORE POP POP JUMP JUMPDEST PUSH1 0x1 PUSH0 SWAP1 SLOAD SWAP1 PUSH2 0x100 EXP SWAP1 DIV PUSH20 0xFFFFFFFFFFFFFFFFFFFFFFFFFFFFFFFFFFFFFFFF AND DUP2 JUMP JUMPDEST PUSH0 DUP2 ISZERO ISZERO SWAP1 POP SWAP2 SWAP1 POP JUMP JUMPDEST PUSH2 0x289 DUP2 PUSH2 0x275 JUMP JUMPDEST DUP3 MSTORE POP POP JUMP JUMPDEST PUSH0 PUSH1 0x20 DUP3 ADD SWAP1 POP PUSH2 0x2A2 PUSH0 DUP4 ADD DUP5 PUSH2 0x280 JUMP JUMPDEST SWAP3 SWAP2 POP POP JUMP JUMPDEST PUSH0 PUSH0 REVERT JUMPDEST PUSH0 DUP2 SWAP1 POP SWAP2 SWAP1 POP JUMP JUMPDEST PUSH2 0x2BE DUP2 PUSH2 0x2AC JUMP JUMPDEST DUP2 EQ PUSH2 0x2C8 JUMPI PUSH0 PUSH0 REVERT JUMPDEST POP JUMP JUMPDEST PUSH0 DUP2 CALLDATALOAD SWAP1 POP PUSH2 0x2D9 DUP2 PUSH2 0x2B5 JUMP JUMPDEST SWAP3 SWAP2 POP POP JUMP JUMPDEST PUSH0 PUSH1 0x20 DUP3 DUP5 SUB SLT ISZERO PUSH2 0x2F4 JUMPI PUSH2 0x2F3 PUSH2 0x2A8 JUMP JUMPDEST JUMPDEST PUSH0 PUSH2 0x301 DUP5 DUP3 DUP6 ADD PUSH2 0x2CB JUMP JUMPDEST SWAP2 POP POP SWAP3 SWAP2 POP POP JUMP JUMPDEST PUSH2 0x313 DUP2 PUSH2 0x2AC JUMP JUMPDEST DUP3 MSTORE POP POP JUMP JUMPDEST PUSH0 PUSH1 0x20 DUP3 ADD SWAP1 POP PUSH2 0x32C PUSH0 DUP4 ADD DUP5 PUSH2 0x30A JUMP JUMPDEST SWAP3 SWAP2 POP POP JUMP JUMPDEST PUSH0 PUSH20 0xFFFFFFFFFFFFFFFFFFFFFFFFFFFFFFFFFFFFFFFF DUP3 AND SWAP1 POP SWAP2 SWAP1 POP JUMP JUMPDEST PUSH0 PUSH2 0x35B DUP3 PUSH2 0x332 JUMP JUMPDEST SWAP1 POP SWAP2 SWAP1 POP JUMP JUMPDEST PUSH2 0x36B DUP2 PUSH2 0x351 JUMP JUMPDEST DUP3 MSTORE POP POP JUMP JUMPDEST PUSH0 PUSH1 0x20 DUP3 ADD SWAP1 POP PUSH2 0x384 PUSH0 DUP4 ADD DUP5 PUSH2 0x362 JUMP JUMPDEST SWAP3 SWAP2 POP POP JUMP JUMPDEST PUSH0 DUP3 DUP3 MSTORE PUSH1 0x20 DUP3 ADD SWAP1 POP SWAP3 SWAP2 POP POP JUMP JUMPDEST PUSH32 0x4E6F74206F776E65720000000000000000000000000000000000000000000000 PUSH0 DUP3 ADD MSTORE POP JUMP JUMPDEST PUSH0 PUSH2 0x3CE PUSH1 0x9 DUP4 PUSH2 0x38A JUMP JUMPDEST SWAP2 POP PUSH2 0x3D9 DUP3 PUSH2 0x39A JUMP JUMPDEST PUSH1 0x20 DUP3 ADD SWAP1 POP SWAP2 SWAP1 POP JUMP JUMPDEST PUSH0 PUSH1 0x20 DUP3 ADD SWAP1 POP DUP2 DUP2 SUB PUSH0 DUP4 ADD MSTORE PUSH2 0x3FB DUP2 PUSH2 0x3C2 JUMP JUMPDEST SWAP1 POP SWAP2 SWAP1 POP JUMP JUMPDEST PUSH32 0x4E487B7100000000000000000000000000000000000000000000000000000000 PUSH0 MSTORE PUSH1 0x11 PUSH1 0x4 MSTORE PUSH1 0x24 PUSH0 REVERT JUMPDEST PUSH0 PUSH2 0x439 DUP3 PUSH2 0x2AC JUMP JUMPDEST SWAP2 POP PUSH2 0x444 DUP4 PUSH2 0x2AC JUMP JUMPDEST SWAP3 POP DUP3 DUP3 ADD SWAP1 POP DUP1 DUP3 GT ISZERO PUSH2 0x45C JUMPI PUSH2 0x45B PUSH2 0x402 JUMP JUMPDEST JUMPDEST SWAP3 SWAP2 POP POP JUMP JUMPDEST PUSH0 PUSH2 0x46C DUP3 PUSH2 0x2AC JUMP JUMPDEST SWAP2 POP PUSH2 0x477 DUP4 PUSH2 0x2AC JUMP JUMPDEST SWAP3 POP DUP3 DUP3 MUL PUSH2 0x485 DUP2 PUSH2 0x2AC JUMP JUMPDEST SWAP2 POP DUP3 DUP3 DIV DUP5 EQ DUP4 ISZERO OR PUSH2 0x49C JUMPI PUSH2 0x49B PUSH2 0x402 JUMP JUMPDEST JUMPDEST POP SWAP3 SWAP2 POP POP JUMP INVALID LOG2 PUSH5 0x6970667358 0x22 SLT KECCAK256 0x29 SWAP5 0xDD 0xC4 ADDRESS 0xB1 0xC1 0x2B 0xF7 MUL 0xC BLOBBASEFEE 0xBB SWAP2 DUPN 0xCD 0x2C 0xCF PUSH15 0x23B440319BF3E545235B390EC16473 PUSH16 0x6C634300082200330000000000000000 "
				},
				"gasEstimates": {
					"creation": {
						"codeDepositCost": "248200",
						"executionCost": "285",
						"totalCost": "248485"
					},
					"external": {
						"initialized()": "2495",
						"owner()": "2574",
						"setValue(uint256)": "infinite",
						"setValueIncrement(uint256)": "infinite",
						"value()": "2446"
					}
				},
				"methodIdentifiers": {
					"initialized()": "158ef93e",
					"owner()": "8da5cb5b",
					"setValue(uint256)": "55241077",
					"setValueIncrement(uint256)": "3956de47",
					"value()": "3fa4f245"
				}
			},
			"storageLayout": {
				"storage": [
					{
						"astId": 177,
						"contract": "prac83.sol:LogicV2Patched",
						"label": "value",
						"offset": 0,
						"slot": "0",
						"type": "t_uint256"
					},
					{
						"astId": 179,
						"contract": "prac83.sol:LogicV2Patched",
						"label": "owner",
						"offset": 0,
						"slot": "1",
						"type": "t_address"
					},
					{
						"astId": 181,
						"contract": "prac83.sol:LogicV2Patched",
						"label": "initialized",
						"offset": 20,
						"slot": "1",
						"type": "t_bool"
					}
				],
				"types": {
					"t_address": {
						"encoding": "inplace",
						"label": "address",
						"numberOfBytes": "20"
					},
					"t_bool": {
						"encoding": "inplace",
						"label": "bool",
						"numberOfBytes": "1"
					},
					"t_uint256": {
						"encoding": "inplace",
						"label": "uint256",
						"numberOfBytes": "32"
					}
				}
			},
			"userdoc": {
				"kind": "user",
				"methods": {},
				"version": 1
			}
		}
	}
}