{
	"prac41.sol": {
		"EarlyReturnVulnerable": {
			"abi": [
				{
					"inputs": [
						{
							"internalType": "address",
							"name": "",
							"type": "address"
						}
					],
					"name": "balances",
					"outputs": [
						{
							"internalType": "uint256",
							"name": "",
							"type": "uint256"
						}
					],
					"stateMutability": "view",
					"type": "function"
				},
				{
					"inputs": [
						{
							"internalType": "uint256",
							"name": "_amount",
							"type": "uint256"
						}
					],
					"name": "deposit",
					"outputs": [],
					"stateMutability": "nonpayable",
					"type": "function"
				},
				{
					"inputs": [],
					"name": "paused",
					"outputs": [
						{
							"internalType": "bool",
							"name": "",
							"type": "bool"
						}
					],
					"stateMutability": "view",
					"type": "function"
				},
				{
					"inputs": [
						{
							"internalType": "bool",
							"name": "_status",
							"type": "bool"
						}
					],
					"name": "setPaused",
					"outputs": [],
					"stateMutability": "nonpayable",
					"type": "function"
				}
			],
			"devdoc": {
				"kind": "dev",
				"methods": {},
				"version": 1
			},
			"evm": {
				"assembly": "    /* \"prac41.sol\":1731:2217  contract EarlyReturnVulnerable {... */\n  mstore(0x40, 0x80)\n  callvalue\n  dup1\n  iszero\n  tag_1\n  jumpi\n  revert(0x00, 0x00)\ntag_1:\n  pop\n  dataSize(sub_0)\n  dup1\n  dataOffset(sub_0)\n  0x00\n  codecopy\n  0x00\n  return\nstop\n\nsub_0: assembly {\n        /* \"prac41.sol\":1731:2217  contract EarlyReturnVulnerable {... */\n      mstore(0x40, 0x80)\n      callvalue\n      dup1\n      iszero\n      tag_1\n      jumpi\n      revert(0x00, 0x00)\n    tag_1:\n      pop\n      jumpi(tag_2, lt(calldatasize, 0x04))\n      shr(0xe0, calldataload(0x00))\n      dup1\n      0x16c38b3c\n      eq\n      tag_3\n      jumpi\n      dup1\n      0x27e235e3\n      eq\n      tag_4\n      jumpi\n      dup1\n      0x5c975abb\n      eq\n      tag_5\n      jumpi\n      dup1\n      0xb6b55f25\n      eq\n      tag_6\n      jumpi\n    tag_2:\n      revert(0x00, 0x00)\n        /* \"prac41.sol\":1848:1993  function setPaused(bool _status) external {... */\n    tag_3:\n      tag_7\n      0x04\n      dup1\n      calldatasize\n      sub\n      dup2\n      add\n      swap1\n      tag_8\n      swap2\n      swap1\n      tag_9\n      jump\t// in\n    tag_8:\n      tag_10\n      jump\t// in\n    tag_7:\n      stop\n        /* \"prac41.sol\":1769:1812  mapping(address => uint256) public balances */\n    tag_4:\n      tag_11\n      0x04\n      dup1\n      calldatasize\n      sub\n      dup2\n      add\n      swap1\n      tag_12\n      swap2\n      swap1\n      tag_13\n      jump\t// in\n    tag_12:\n      tag_14\n      jump\t// in\n    tag_11:\n      mload(0x40)\n      tag_15\n      swap2\n      swap1\n      tag_16\n      jump\t// in\n    tag_15:\n      mload(0x40)\n      dup1\n      swap2\n      sub\n      swap1\n      return\n        /* \"prac41.sol\":1821:1839  bool public paused */\n    tag_5:\n      tag_17\n      tag_18\n      jump\t// in\n    tag_17:\n      mload(0x40)\n      tag_19\n      swap2\n      swap1\n      tag_20\n      jump\t// in\n    tag_19:\n      mload(0x40)\n      dup1\n      swap2\n      sub\n      swap1\n      return\n        /* \"prac41.sol\":2001:2214  function deposit(uint256 _amount) external {... */\n    tag_6:\n      tag_21\n      0x04\n      dup1\n      calldatasize\n      sub\n      dup2\n      add\n      swap1\n      tag_22\n      swap2\n      swap1\n      tag_23\n      jump\t// in\n    tag_22:\n      tag_24\n      jump\t// in\n    tag_21:\n      stop\n        /* \"prac41.sol\":1848:1993  function setPaused(bool _status) external {... */\n    tag_10:\n        /* \"prac41.sol\":1978:1985  _status */\n      dup1\n        /* \"prac41.sol\":1969:1975  paused */\n      0x01\n      0x00\n        /* \"prac41.sol\":1969:1985  paused = _status */\n      0x0100\n      exp\n      dup2\n      sload\n      dup2\n      0xff\n      mul\n      not\n      and\n      swap1\n      dup4\n      iszero\n      iszero\n      mul\n      or\n      swap1\n      sstore\n      pop\n        /* \"prac41.sol\":1848:1993  function setPaused(bool _status) external {... */\n      pop\n      jump\t// out\n        /* \"prac41.sol\":1769:1812  mapping(address => uint256) public balances */\n    tag_14:\n      mstore(0x20, 0x00)\n      dup1\n      0x00\n      mstore\n      keccak256(0x00, 0x40)\n      0x00\n      swap2\n      pop\n      swap1\n      pop\n      sload\n      dup2\n      jump\t// out\n        /* \"prac41.sol\":1821:1839  bool public paused */\n    tag_18:\n      0x01\n      0x00\n      swap1\n      sload\n      swap1\n      0x0100\n      exp\n      swap1\n      div\n      0xff\n      and\n      dup2\n      jump\t// out\n        /* \"prac41.sol\":2001:2214  function deposit(uint256 _amount) external {... */\n    tag_24:\n        /* \"prac41.sol\":2059:2065  paused */\n      0x01\n      0x00\n      swap1\n      sload\n      swap1\n      0x0100\n      exp\n      swap1\n      div\n      0xff\n      and\n        /* \"prac41.sol\":2082:2089  return; */\n      tag_26\n        /* \"prac41.sol\":2055:2100  if (paused) {... */\n      jumpi\n        /* \"prac41.sol\":2127:2128  0 */\n      0x00\n        /* \"prac41.sol\":2116:2123  _amount */\n      dup2\n        /* \"prac41.sol\":2116:2128  _amount == 0 */\n      sub\n        /* \"prac41.sol\":2112:2163  if (_amount == 0) {... */\n      iszero\n        /* \"prac41.sol\":2145:2152  return; */\n      tag_26\n        /* \"prac41.sol\":2112:2163  if (_amount == 0) {... */\n      jumpi\n        /* \"prac41.sol\":2199:2206  _amount */\n      dup1\n        /* \"prac41.sol\":2175:2183  balances */\n      0x00\n        /* \"prac41.sol\":2175:2195  balances[msg.sender] */\n      0x00\n        /* \"prac41.sol\":2184:2194  msg.sender */\n      caller\n        /* \"prac41.sol\":2175:2195  balances[msg.sender] */\n      0xffffffffffffffffffffffffffffffffffffffff\n      and\n      0xffffffffffffffffffffffffffffffffffffffff\n      and\n      dup2\n      mstore\n      0x20\n      add\n      swap1\n      dup2\n      mstore\n      0x20\n      add\n      0x00\n      keccak256\n      0x00\n        /* \"prac41.sol\":2175:2206  balances[msg.sender] += _amount */\n      dup3\n      dup3\n      sload\n      tag_29\n      swap2\n      swap1\n      tag_30\n      jump\t// in\n    tag_29:\n      swap3\n      pop\n      pop\n      dup2\n      swap1\n      sstore\n      pop\n        /* \"prac41.sol\":2001:2214  function deposit(uint256 _amount) external {... */\n    tag_26:\n      pop\n      jump\t// out\n        /* \"#utility.yul\":88:205   */\n    tag_32:\n        /* \"#utility.yul\":197:198   */\n      0x00\n        /* \"#utility.yul\":194:195   */\n      0x00\n        /* \"#utility.yul\":187:199   */\n      revert\n        /* \"#utility.yul\":334:424   */\n    tag_34:\n        /* \"#utility.yul\":368:375   */\n      0x00\n        /* \"#utility.yul\":411:416   */\n      dup2\n        /* \"#utility.yul\":404:417   */\n      iszero\n        /* \"#utility.yul\":397:418   */\n      iszero\n        /* \"#utility.yul\":386:418   */\n      swap1\n      pop\n        /* \"#utility.yul\":334:424   */\n      swap2\n      swap1\n      pop\n      jump\t// out\n        /* \"#utility.yul\":430:546   */\n    tag_35:\n        /* \"#utility.yul\":500:521   */\n      tag_53\n        /* \"#utility.yul\":515:520   */\n      dup2\n        /* \"#utility.yul\":500:521   */\n      tag_34\n      jump\t// in\n    tag_53:\n        /* \"#utility.yul\":493:498   */\n      dup2\n        /* \"#utility.yul\":490:522   */\n      eq\n        /* \"#utility.yul\":480:540   */\n      tag_54\n      jumpi\n        /* \"#utility.yul\":536:537   */\n      0x00\n        /* \"#utility.yul\":533:534   */\n      0x00\n        /* \"#utility.yul\":526:538   */\n      revert\n        /* \"#utility.yul\":480:540   */\n    tag_54:\n        /* \"#utility.yul\":430:546   */\n      pop\n      jump\t// out\n        /* \"#utility.yul\":552:685   */\n    tag_36:\n        /* \"#utility.yul\":595:600   */\n      0x00\n        /* \"#utility.yul\":633:639   */\n      dup2\n        /* \"#utility.yul\":620:640   */\n      calldataload\n        /* \"#utility.yul\":611:640   */\n      swap1\n      pop\n        /* \"#utility.yul\":649:679   */\n      tag_56\n        /* \"#utility.yul\":673:678   */\n      dup2\n        /* \"#utility.yul\":649:679   */\n      tag_35\n      jump\t// in\n    tag_56:\n        /* \"#utility.yul\":552:685   */\n      swap3\n      swap2\n      pop\n      pop\n      jump\t// out\n        /* \"#utility.yul\":691:1014   */\n    tag_9:\n        /* \"#utility.yul\":747:753   */\n      0x00\n        /* \"#utility.yul\":796:798   */\n      0x20\n        /* \"#utility.yul\":784:793   */\n      dup3\n        /* \"#utility.yul\":775:782   */\n      dup5\n        /* \"#utility.yul\":771:794   */\n      sub\n        /* \"#utility.yul\":767:799   */\n      slt\n        /* \"#utility.yul\":764:883   */\n      iszero\n      tag_58\n      jumpi\n        /* \"#utility.yul\":802:881   */\n      tag_59\n      tag_32\n      jump\t// in\n    tag_59:\n        /* \"#utility.yul\":764:883   */\n    tag_58:\n        /* \"#utility.yul\":922:923   */\n      0x00\n        /* \"#utility.yul\":947:997   */\n      tag_60\n        /* \"#utility.yul\":989:996   */\n      dup5\n        /* \"#utility.yul\":980:986   */\n      dup3\n        /* \"#utility.yul\":969:978   */\n      dup6\n        /* \"#utility.yul\":965:987   */\n      add\n        /* \"#utility.yul\":947:997   */\n      tag_36\n      jump\t// in\n    tag_60:\n        /* \"#utility.yul\":937:997   */\n      swap2\n      pop\n        /* \"#utility.yul\":893:1007   */\n      pop\n        /* \"#utility.yul\":691:1014   */\n      swap3\n      swap2\n      pop\n      pop\n      jump\t// out\n        /* \"#utility.yul\":1020:1146   */\n    tag_37:\n        /* \"#utility.yul\":1057:1064   */\n      0x00\n        /* \"#utility.yul\":1097:1139   */\n      0xffffffffffffffffffffffffffffffffffffffff\n        /* \"#utility.yul\":1090:1095   */\n      dup3\n        /* \"#utility.yul\":1086:1140   */\n      and\n        /* \"#utility.yul\":1075:1140   */\n      swap1\n      pop\n        /* \"#utility.yul\":1020:1146   */\n      swap2\n      swap1\n      pop\n      jump\t// out\n        /* \"#utility.yul\":1152:1248   */\n    tag_38:\n        /* \"#utility.yul\":1189:1196   */\n      0x00\n        /* \"#utility.yul\":1218:1242   */\n      tag_63\n        /* \"#utility.yul\":1236:1241   */\n      dup3\n        /* \"#utility.yul\":1218:1242   */\n      tag_37\n      jump\t// in\n    tag_63:\n        /* \"#utility.yul\":1207:1242   */\n      swap1\n      pop\n        /* \"#utility.yul\":1152:1248   */\n      swap2\n      swap1\n      pop\n      jump\t// out\n        /* \"#utility.yul\":1254:1376   */\n    tag_39:\n        /* \"#utility.yul\":1327:1351   */\n      tag_65\n        /* \"#utility.yul\":1345:1350   */\n      dup2\n        /* \"#utility.yul\":1327:1351   */\n      tag_38\n      jump\t// in\n    tag_65:\n        /* \"#utility.yul\":1320:1325   */\n      dup2\n        /* \"#utility.yul\":1317:1352   */\n      eq\n        /* \"#utility.yul\":1307:1370   */\n      tag_66\n      jumpi\n        /* \"#utility.yul\":1366:1367   */\n      0x00\n        /* \"#utility.yul\":1363:1364   */\n      0x00\n        /* \"#utility.yul\":1356:1368   */\n      revert\n        /* \"#utility.yul\":1307:1370   */\n    tag_66:\n        /* \"#utility.yul\":1254:1376   */\n      pop\n      jump\t// out\n        /* \"#utility.yul\":1382:1521   */\n    tag_40:\n        /* \"#utility.yul\":1428:1433   */\n      0x00\n        /* \"#utility.yul\":1466:1472   */\n      dup2\n        /* \"#utility.yul\":1453:1473   */\n      calldataload\n        /* \"#utility.yul\":1444:1473   */\n      swap1\n      pop\n        /* \"#utility.yul\":1482:1515   */\n      tag_68\n        /* \"#utility.yul\":1509:1514   */\n      dup2\n        /* \"#utility.yul\":1482:1515   */\n      tag_39\n      jump\t// in\n    tag_68:\n        /* \"#utility.yul\":1382:1521   */\n      swap3\n      swap2\n      pop\n      pop\n      jump\t// out\n        /* \"#utility.yul\":1527:1856   */\n    tag_13:\n        /* \"#utility.yul\":1586:1592   */\n      0x00\n        /* \"#utility.yul\":1635:1637   */\n      0x20\n        /* \"#utility.yul\":1623:1632   */\n      dup3\n        /* \"#utility.yul\":1614:1621   */\n      dup5\n        /* \"#utility.yul\":1610:1633   */\n      sub\n        /* \"#utility.yul\":1606:1638   */\n      slt\n        /* \"#utility.yul\":1603:1722   */\n      iszero\n      tag_70\n      jumpi\n        /* \"#utility.yul\":1641:1720   */\n      tag_71\n      tag_32\n      jump\t// in\n    tag_71:\n        /* \"#utility.yul\":1603:1722   */\n    tag_70:\n        /* \"#utility.yul\":1761:1762   */\n      0x00\n        /* \"#utility.yul\":1786:1839   */\n      tag_72\n        /* \"#utility.yul\":1831:1838   */\n      dup5\n        /* \"#utility.yul\":1822:1828   */\n      dup3\n        /* \"#utility.yul\":1811:1820   */\n      dup6\n        /* \"#utility.yul\":1807:1829   */\n      add\n        /* \"#utility.yul\":1786:1839   */\n      tag_40\n      jump\t// in\n    tag_72:\n        /* \"#utility.yul\":1776:1839   */\n      swap2\n      pop\n        /* \"#utility.yul\":1732:1849   */\n      pop\n        /* \"#utility.yul\":1527:1856   */\n      swap3\n      swap2\n      pop\n      pop\n      jump\t// out\n        /* \"#utility.yul\":1862:1939   */\n    tag_41:\n        /* \"#utility.yul\":1899:1906   */\n      0x00\n        /* \"#utility.yul\":1928:1933   */\n      dup2\n        /* \"#utility.yul\":1917:1933   */\n      swap1\n      pop\n        /* \"#utility.yul\":1862:1939   */\n      swap2\n      swap1\n      pop\n      jump\t// out\n        /* \"#utility.yul\":1945:2063   */\n    tag_42:\n        /* \"#utility.yul\":2032:2056   */\n      tag_75\n        /* \"#utility.yul\":2050:2055   */\n      dup2\n        /* \"#utility.yul\":2032:2056   */\n      tag_41\n      jump\t// in\n    tag_75:\n        /* \"#utility.yul\":2027:2030   */\n      dup3\n        /* \"#utility.yul\":2020:2057   */\n      mstore\n        /* \"#utility.yul\":1945:2063   */\n      pop\n      pop\n      jump\t// out\n        /* \"#utility.yul\":2069:2291   */\n    tag_16:\n        /* \"#utility.yul\":2162:2166   */\n      0x00\n        /* \"#utility.yul\":2200:2202   */\n      0x20\n        /* \"#utility.yul\":2189:2198   */\n      dup3\n        /* \"#utility.yul\":2185:2203   */\n      add\n        /* \"#utility.yul\":2177:2203   */\n      swap1\n      pop\n        /* \"#utility.yul\":2213:2284   */\n      tag_77\n        /* \"#utility.yul\":2281:2282   */\n      0x00\n        /* \"#utility.yul\":2270:2279   */\n      dup4\n        /* \"#utility.yul\":2266:2283   */\n      add\n        /* \"#utility.yul\":2257:2263   */\n      dup5\n        /* \"#utility.yul\":2213:2284   */\n      tag_42\n      jump\t// in\n    tag_77:\n        /* \"#utility.yul\":2069:2291   */\n      swap3\n      swap2\n      pop\n      pop\n      jump\t// out\n        /* \"#utility.yul\":2297:2406   */\n    tag_43:\n        /* \"#utility.yul\":2378:2399   */\n      tag_79\n        /* \"#utility.yul\":2393:2398   */\n      dup2\n        /* \"#utility.yul\":2378:2399   */\n      tag_34\n      jump\t// in\n    tag_79:\n        /* \"#utility.yul\":2373:2376   */\n      dup3\n        /* \"#utility.yul\":2366:2400   */\n      mstore\n        /* \"#utility.yul\":2297:2406   */\n      pop\n      pop\n      jump\t// out\n        /* \"#utility.yul\":2412:2622   */\n    tag_20:\n        /* \"#utility.yul\":2499:2503   */\n      0x00\n        /* \"#utility.yul\":2537:2539   */\n      0x20\n        /* \"#utility.yul\":2526:2535   */\n      dup3\n        /* \"#utility.yul\":2522:2540   */\n      add\n        /* \"#utility.yul\":2514:2540   */\n      swap1\n      pop\n        /* \"#utility.yul\":2550:2615   */\n      tag_81\n        /* \"#utility.yul\":2612:2613   */\n      0x00\n        /* \"#utility.yul\":2601:2610   */\n      dup4\n        /* \"#utility.yul\":2597:2614   */\n      add\n        /* \"#utility.yul\":2588:2594   */\n      dup5\n        /* \"#utility.yul\":2550:2615   */\n      tag_43\n      jump\t// in\n    tag_81:\n        /* \"#utility.yul\":2412:2622   */\n      swap3\n      swap2\n      pop\n      pop\n      jump\t// out\n        /* \"#utility.yul\":2628:2750   */\n    tag_44:\n        /* \"#utility.yul\":2701:2725   */\n      tag_83\n        /* \"#utility.yul\":2719:2724   */\n      dup2\n        /* \"#utility.yul\":2701:2725   */\n      tag_41\n      jump\t// in\n    tag_83:\n        /* \"#utility.yul\":2694:2699   */\n      dup2\n        /* \"#utility.yul\":2691:2726   */\n      eq\n        /* \"#utility.yul\":2681:2744   */\n      tag_84\n      jumpi\n        /* \"#utility.yul\":2740:2741   */\n      0x00\n        /* \"#utility.yul\":2737:2738   */\n      0x00\n        /* \"#utility.yul\":2730:2742   */\n      revert\n        /* \"#utility.yul\":2681:2744   */\n    tag_84:\n        /* \"#utility.yul\":2628:2750   */\n      pop\n      jump\t// out\n        /* \"#utility.yul\":2756:2895   */\n    tag_45:\n        /* \"#utility.yul\":2802:2807   */\n      0x00\n        /* \"#utility.yul\":2840:2846   */\n      dup2\n        /* \"#utility.yul\":2827:2847   */\n      calldataload\n        /* \"#utility.yul\":2818:2847   */\n      swap1\n      pop\n        /* \"#utility.yul\":2856:2889   */\n      tag_86\n        /* \"#utility.yul\":2883:2888   */\n      dup2\n        /* \"#utility.yul\":2856:2889   */\n      tag_44\n      jump\t// in\n    tag_86:\n        /* \"#utility.yul\":2756:2895   */\n      swap3\n      swap2\n      pop\n      pop\n      jump\t// out\n        /* \"#utility.yul\":2901:3230   */\n    tag_23:\n        /* \"#utility.yul\":2960:2966   */\n      0x00\n        /* \"#utility.yul\":3009:3011   */\n      0x20\n        /* \"#utility.yul\":2997:3006   */\n      dup3\n        /* \"#utility.yul\":2988:2995   */\n      dup5\n        /* \"#utility.yul\":2984:3007   */\n      sub\n        /* \"#utility.yul\":2980:3012   */\n      slt\n        /* \"#utility.yul\":2977:3096   */\n      iszero\n      tag_88\n      jumpi\n        /* \"#utility.yul\":3015:3094   */\n      tag_89\n      tag_32\n      jump\t// in\n    tag_89:\n        /* \"#utility.yul\":2977:3096   */\n    tag_88:\n        /* \"#utility.yul\":3135:3136   */\n      0x00\n        /* \"#utility.yul\":3160:3213   */\n      tag_90\n        /* \"#utility.yul\":3205:3212   */\n      dup5\n        /* \"#utility.yul\":3196:3202   */\n      dup3\n        /* \"#utility.yul\":3185:3194   */\n      dup6\n        /* \"#utility.yul\":3181:3203   */\n      add\n        /* \"#utility.yul\":3160:3213   */\n      tag_45\n      jump\t// in\n    tag_90:\n        /* \"#utility.yul\":3150:3213   */\n      swap2\n      pop\n        /* \"#utility.yul\":3106:3223   */\n      pop\n        /* \"#utility.yul\":2901:3230   */\n      swap3\n      swap2\n      pop\n      pop\n      jump\t// out\n        /* \"#utility.yul\":3236:3416   */\n    tag_46:\n        /* \"#utility.yul\":3284:3361   */\n      0x4e487b7100000000000000000000000000000000000000000000000000000000\n        /* \"#utility.yul\":3281:3282   */\n      0x00\n        /* \"#utility.yul\":3274:3362   */\n      mstore\n        /* \"#utility.yul\":3381:3385   */\n      0x11\n        /* \"#utility.yul\":3378:3379   */\n      0x04\n        /* \"#utility.yul\":3371:3386   */\n      mstore\n        /* \"#utility.yul\":3405:3409   */\n      0x24\n        /* \"#utility.yul\":3402:3403   */\n      0x00\n        /* \"#utility.yul\":3395:3410   */\n      revert\n        /* \"#utility.yul\":3422:3613   */\n    tag_30:\n        /* \"#utility.yul\":3462:3465   */\n      0x00\n        /* \"#utility.yul\":3481:3501   */\n      tag_93\n        /* \"#utility.yul\":3499:3500   */\n      dup3\n        /* \"#utility.yul\":3481:3501   */\n      tag_41\n      jump\t// in\n    tag_93:\n        /* \"#utility.yul\":3476:3501   */\n      swap2\n      pop\n        /* \"#utility.yul\":3515:3535   */\n      tag_94\n        /* \"#utility.yul\":3533:3534   */\n      dup4\n        /* \"#utility.yul\":3515:3535   */\n      tag_41\n      jump\t// in\n    tag_94:\n        /* \"#utility.yul\":3510:3535   */\n      swap3\n      pop\n        /* \"#utility.yul\":3558:3559   */\n      dup3\n        /* \"#utility.yul\":3555:3556   */\n      dup3\n        /* \"#utility.yul\":3551:3560   */\n      add\n        /* \"#utility.yul\":3544:3560   */\n      swap1\n      pop\n        /* \"#utility.yul\":3579:3582   */\n      dup1\n        /* \"#utility.yul\":3576:3577   */\n      dup3\n        /* \"#utility.yul\":3573:3583   */\n      gt\n        /* \"#utility.yul\":3570:3606   */\n      iszero\n      tag_95\n      jumpi\n        /* \"#utility.yul\":3586:3604   */\n      tag_96\n      tag_46\n      jump\t// in\n    tag_96:\n        /* \"#utility.yul\":3570:3606   */\n    tag_95:\n        /* \"#utility.yul\":3422:3613   */\n      swap3\n      swap2\n      pop\n      pop\n      jump\t// out\n\n    auxdata: 0xa264697066735822122061e0b9f6d13080541d6d063a9641b9e1791f3ee065b0b7a929a182622d77958b64736f6c63430008220033\n}\n",
				"bytecode": {
					"linkReferences": {},
					"object": "6080604052348015600e575f5ffd5b506103b48061001c5f395ff3fe608060405234801561000f575f5ffd5b506004361061004a575f3560e01c806316c38b3c1461004e57806327e235e31461006a5780635c975abb1461009a578063b6b55f25146100b8575b5f5ffd5b610068600480360381019061006391906101c0565b6100d4565b005b610084600480360381019061007f9190610245565b6100f0565b6040516100919190610288565b60405180910390f35b6100a2610104565b6040516100af91906102b0565b60405180910390f35b6100d260048036038101906100cd91906102f3565b610116565b005b8060015f6101000a81548160ff02191690831515021790555050565b5f602052805f5260405f205f915090505481565b60015f9054906101000a900460ff1681565b60015f9054906101000a900460ff16610184575f81031561018457805f5f3373ffffffffffffffffffffffffffffffffffffffff1673ffffffffffffffffffffffffffffffffffffffff1681526020019081526020015f205f82825461017c919061034b565b925050819055505b50565b5f5ffd5b5f8115159050919050565b61019f8161018b565b81146101a9575f5ffd5b50565b5f813590506101ba81610196565b92915050565b5f602082840312156101d5576101d4610187565b5b5f6101e2848285016101ac565b91505092915050565b5f73ffffffffffffffffffffffffffffffffffffffff82169050919050565b5f610214826101eb565b9050919050565b6102248161020a565b811461022e575f5ffd5b50565b5f8135905061023f8161021b565b92915050565b5f6020828403121561025a57610259610187565b5b5f61026784828501610231565b91505092915050565b5f819050919050565b61028281610270565b82525050565b5f60208201905061029b5f830184610279565b92915050565b6102aa8161018b565b82525050565b5f6020820190506102c35f8301846102a1565b92915050565b6102d281610270565b81146102dc575f5ffd5b50565b5f813590506102ed816102c9565b92915050565b5f6020828403121561030857610307610187565b5b5f610315848285016102df565b91505092915050565b7f4e487b71000000000000000000000000000000000000000000000000000000005f52601160045260245ffd5b5f61035582610270565b915061036083610270565b92508282019050808211156103785761037761031e565b5b9291505056fea264697066735822122061e0b9f6d13080541d6d063a9641b9e1791f3ee065b0b7a929a182622d77958b64736f6c63430008220033",
					"opcodes": "PUSH1 0x80 PUSH1 0x40 MSTORE CALLVALUE DUP1 ISZERO PUSH1 0xE JUMPI PUSH0 PUSH0 REVERT JUMPDEST POP PUSH2 0x3B4 DUP1 PUSH2 0x1C PUSH0 CODECOPY PUSH0 RETURN INVALID PUSH1 0x80 PUSH1 0x40 MSTORE CALLVALUE DUP1 ISZERO PUSH2 0xF JUMPI PUSH0 PUSH0 REVERT JUMPDEST POP PUSH1 0x4 CALLDATASIZE LT PUSH2 0x4A JUMPI PUSH0 CALLDATALOAD PUSH1 0xE0 SHR DUP1 PUSH4 0x16C38B3C EQ PUSH2 0x4E JUMPI DUP1 PUSH4 0x27E235E3 EQ PUSH2 0x6A JUMPI DUP1 PUSH4 0x5C975ABB EQ PUSH2 0x9A JUMPI DUP1 PUSH4 0xB6B55F25 EQ PUSH2 0xB8 JUMPI JUMPDEST PUSH0 PUSH0 REVERT JUMPDEST PUSH2 0x68 PUSH1 0x4 DUP1 CALLDATASIZE SUB DUP2 ADD SWAP1 PUSH2 0x63 SWAP2 SWAP1 PUSH2 0x1C0 JUMP JUMPDEST PUSH2 0xD4 JUMP JUMPDEST STOP JUMPDEST PUSH2 0x84 PUSH1 0x4 DUP1 CALLDATASIZE SUB DUP2 ADD SWAP1 PUSH2 0x7F SWAP2 SWAP1 PUSH2 0x245 JUMP JUMPDEST PUSH2 0xF0 JUMP JUMPDEST PUSH1 0x40 MLOAD PUSH2 0x91 SWAP2 SWAP1 PUSH2 0x288 JUMP JUMPDEST PUSH1 0x40 MLOAD DUP1 SWAP2 SUB SWAP1 RETURN JUMPDEST PUSH2 0xA2 PUSH2 0x104 JUMP JUMPDEST PUSH1 0x40 MLOAD PUSH2 0xAF SWAP2 SWAP1 PUSH2 0x2B0 JUMP JUMPDEST PUSH1 0x40 MLOAD DUP1 SWAP2 SUB SWAP1 RETURN JUMPDEST PUSH2 0xD2 PUSH1 0x4 DUP1 CALLDATASIZE SUB DUP2 ADD SWAP1 PUSH2 0xCD SWAP2 SWAP1 PUSH2 0x2F3 JUMP JUMPDEST PUSH2 0x116 JUMP JUMPDEST STOP JUMPDEST DUP1 PUSH1 0x1 PUSH0 PUSH2 0x100 EXP DUP2 SLOAD DUP2 PUSH1 0xFF MUL NOT AND SWAP1 DUP4 ISZERO ISZERO MUL OR SWAP1 SSTORE POP POP JUMP JUMPDEST PUSH0 PUSH1 0x20 MSTORE DUP1 PUSH0 MSTORE PUSH1 0x40 PUSH0 KECCAK256 PUSH0 SWAP2 POP SWAP1 POP SLOAD DUP2 JUMP JUMPDEST PUSH1 0x1 PUSH0 SWAP1 SLOAD SWAP1 PUSH2 0x100 EXP SWAP1 DIV PUSH1 0xFF AND DUP2 JUMP JUMPDEST PUSH1 0x1 PUSH0 SWAP1 SLOAD SWAP1 PUSH2 0x100 EXP SWAP1 DIV PUSH1 0xFF AND PUSH2 0x184 JUMPI PUSH0 DUP2 SUB ISZERO PUSH2 0x184 JUMPI DUP1 PUSH0 PUSH0 CALLER PUSH20 0xFFFFFFFFFFFFFFFFFFFFFFFFFFFFFFFFFFFFFFFF AND PUSH20 0xFFFFFFFFFFFFFFFFFFFFFFFFFFFFFFFFFFFFFFFF AND DUP2 MSTORE PUSH1 0x20 ADD SWAP1 DUP2 MSTORE PUSH1 0x20 ADD PUSH0 KECCAK256 PUSH0 DUP3 DUP3 SLOAD PUSH2 0x17C SWAP2 SWAP1 PUSH2 0x34B JUMP JUMPDEST SWAP3 POP POP DUP2 SWAP1 SSTORE POP JUMPDEST POP JUMP JUMPDEST PUSH0 PUSH0 REVERT JUMPDEST PUSH0 DUP2 ISZERO ISZERO SWAP1 POP SWAP2 SWAP1 POP JUMP JUMPDEST PUSH2 0x19F DUP2 PUSH2 0x18B JUMP JUMPDEST DUP2 EQ PUSH2 0x1A9 JUMPI PUSH0 PUSH0 REVERT JUMPDEST POP JUMP JUMPDEST PUSH0 DUP2 CALLDATALOAD SWAP1 POP PUSH2 0x1BA DUP2 PUSH2 0x196 JUMP JUMPDEST SWAP3 SWAP2 POP POP JUMP JUMPDEST PUSH0 PUSH1 0x20 DUP3 DUP5 SUB SLT ISZERO PUSH2 0x1D5 JUMPI PUSH2 0x1D4 PUSH2 0x187 JUMP JUMPDEST JUMPDEST PUSH0 PUSH2 0x1E2 DUP5 DUP3 DUP6 ADD PUSH2 0x1AC JUMP JUMPDEST SWAP2 POP POP SWAP3 SWAP2 POP POP JUMP JUMPDEST PUSH0 PUSH20 0xFFFFFFFFFFFFFFFFFFFFFFFFFFFFFFFFFFFFFFFF DUP3 AND SWAP1 POP SWAP2 SWAP1 POP JUMP JUMPDEST PUSH0 PUSH2 0x214 DUP3 PUSH2 0x1EB JUMP JUMPDEST SWAP1 POP SWAP2 SWAP1 POP JUMP JUMPDEST PUSH2 0x224 DUP2 PUSH2 0x20A JUMP JUMPDEST DUP2 EQ PUSH2 0x22E JUMPI PUSH0 PUSH0 REVERT JUMPDEST POP JUMP JUMPDEST PUSH0 DUP2 CALLDATALOAD SWAP1 POP PUSH2 0x23F DUP2 PUSH2 0x21B JUMP JUMPDEST SWAP3 SWAP2 POP POP JUMP JUMPDEST PUSH0 PUSH1 0x20 DUP3 DUP5 SUB SLT ISZERO PUSH2 0x25A JUMPI PUSH2 0x259 PUSH2 0x187 JUMP JUMPDEST JUMPDEST PUSH0 PUSH2 0x267 DUP5 DUP3 DUP6 ADD PUSH2 0x231 JUMP JUMPDEST SWAP2 POP POP SWAP3 SWAP2 POP POP JUMP JUMPDEST PUSH0 DUP2 SWAP1 POP SWAP2 SWAP1 POP JUMP JUMPDEST PUSH2 0x282 DUP2 PUSH2 0x270 JUMP JUMPDEST DUP3 MSTORE POP POP JUMP JUMPDEST PUSH0 PUSH1 0x20 DUP3 ADD SWAP1 POP PUSH2 0x29B PUSH0 DUP4 ADD DUP5 PUSH2 0x279 JUMP JUMPDEST SWAP3 SWAP2 POP POP JUMP JUMPDEST PUSH2 0x2AA DUP2 PUSH2 0x18B JUMP JUMPDEST DUP3 MSTORE POP POP JUMP JUMPDEST PUSH0 PUSH1 0x20 DUP3 ADD SWAP1 POP PUSH2 0x2C3 PUSH0 DUP4 ADD DUP5 PUSH2 0x2A1 JUMP JUMPDEST SWAP3 SWAP2 POP POP JUMP JUMPDEST PUSH2 0x2D2 DUP2 PUSH2 0x270 JUMP JUMPDEST DUP2 EQ PUSH2 0x2DC JUMPI PUSH0 PUSH0 REVERT JUMPDEST POP JUMP JUMPDEST PUSH0 DUP2 CALLDATALOAD SWAP1 POP PUSH2 0x2ED DUP2 PUSH2 0x2C9 JUMP JUMPDEST SWAP3 SWAP2 POP POP JUMP JUMPDEST PUSH0 PUSH1 0x20 DUP3 DUP5 SUB SLT ISZERO PUSH2 0x308 JUMPI PUSH2 0x307 PUSH2 0x187 JUMP JUMPDEST JUMPDEST PUSH0 PUSH2 0x315 DUP5 DUP3 DUP6 ADD PUSH2 0x2DF JUMP JUMPDEST SWAP2 POP POP SWAP3 SWAP2 POP POP JUMP JUMPDEST PUSH32 0x4E487B7100000000000000000000000000000000000000000000000000000000 PUSH0 MSTORE PUSH1 0x11 PUSH1 0x4 MSTORE PUSH1 0x24 PUSH0 REVERT JUMPDEST PUSH0 PUSH2 0x355 DUP3 PUSH2 0x270 JUMP JUMPDEST SWAP2 POP PUSH2 0x360 DUP4 PUSH2 0x270 JUMP JUMPDEST SWAP3 POP DUP3 DUP3 ADD SWAP1 POP DUP1 DUP3 GT ISZERO PUSH2 0x378 JUMPI PUSH2 0x377 PUSH2 0x31E JUMP JUMPDEST JUMPDEST SWAP3 SWAP2 POP POP JUMP INVALID LOG2 PUSH5 0x6970667358 0x22 SLT KECCAK256 PUSH2 0xE0B9 0xF6 DATALOADN 0x3080 SLOAD SAR PUSH14 0x63A9641B9E1791F3EE065B0B7A9 0x29 LOG1 DUP3 PUSH3 0x2D7795 DUP12 PUSH5 0x736F6C6343 STOP ADDMOD 0x22 STOP CALLER "
				},
				"gasEstimates": {
					"creation": {
						"codeDepositCost": "189600",
						"executionCost": "230",
						"totalCost": "189830"
					},
					"external": {
						"balances(address)": "2801",
						"deposit(uint256)": "infinite",
						"paused()": "2488",
						"setPaused(bool)": "24651"
					}
				},
				"methodIdentifiers": {
					"balances(address)": "27e235e3",
					"deposit(uint256)": "b6b55f25",
					"paused()": "5c975abb",
					"setPaused(bool)": "16c38b3c"
				}
			},
			"storageLayout": {
				"storage": [
					{
						"astId": 5,
						"contract": "prac41.sol:EarlyReturnVulnerable",
						"label": "balances",
						"offset": 0,
						"slot": "0",
						"type": "t_mapping(t_address,t_uint256)"
					},
					{
						"astId": 7,
						"contract": "prac41.sol:EarlyReturnVulnerable",
						"label": "paused",
						"offset": 0,
						"slot": "1",
						"type": "t_bool"
					}
				],
				"types": {
					"t_address": {
						"encoding": "inplace",
						"label": "address",
						"numberOfBytes": "20"
					},
					"t_bool": {
						"encoding": "inplace",
						"label": "bool",
						"numberOfBytes": "1"
					},
					"t_mapping(t_address,t_uint256)": {
						"encoding": "mapping",
						"key": "t_address",
						"label": "mapping(address => uint256)",
						"numberOfBytes": "32",
						"value": "t_uint256"
					},
					"t_uint256": {
						"encoding": "inplace",
						"label": "uint256",
						"numberOfBytes": "32"
					}
				}
			},
			"userdoc": {
				"kind": "user",
				"methods": {},
				"version": 1
			}
		}
	}
}