{
	"prac15.sol": {
		"StorageReferenceVul": {
			"abi": [
				{
					"inputs": [
						{
							"internalType": "uint256",
							"name": "_age",
							"type": "uint256"
						}
					],
					"name": "createUser",
					"outputs": [],
					"stateMutability": "nonpayable",
					"type": "function"
				},
				{
					"inputs": [],
					"name": "deactivateUser",
					"outputs": [],
					"stateMutability": "nonpayable",
					"type": "function"
				},
				{
					"inputs": [],
					"name": "getMyData",
					"outputs": [
						{
							"internalType": "uint256",
							"name": "",
							"type": "uint256"
						},
						{
							"internalType": "bool",
							"name": "",
							"type": "bool"
						}
					],
					"stateMutability": "view",
					"type": "function"
				},
				{
					"inputs": [
						{
							"internalType": "uint256",
							"name": "_newAge",
							"type": "uint256"
						}
					],
					"name": "updateAge",
					"outputs": [],
					"stateMutability": "nonpayable",
					"type": "function"
				},
				{
					"inputs": [
						{
							"internalType": "address",
							"name": "",
							"type": "address"
						}
					],
					"name": "users",
					"outputs": [
						{
							"internalType": "uint256",
							"name": "age",
							"type": "uint256"
						},
						{
							"internalType": "bool",
							"name": "active",
							"type": "bool"
						}
					],
					"stateMutability": "view",
					"type": "function"
				}
			],
			"devdoc": {
				"kind": "dev",
				"methods": {},
				"version": 1
			},
			"evm": {
				"assembly": "    /* \"prac15.sol\":2101:2819  contract StorageReferenceVul {... */\n  mstore(0x40, 0x80)\n  callvalue\n  dup1\n  iszero\n  tag_1\n  jumpi\n  revert(0x00, 0x00)\ntag_1:\n  pop\n  dataSize(sub_0)\n  dup1\n  dataOffset(sub_0)\n  0x00\n  codecopy\n  0x00\n  return\nstop\n\nsub_0: assembly {\n        /* \"prac15.sol\":2101:2819  contract StorageReferenceVul {... */\n      mstore(0x40, 0x80)\n      callvalue\n      dup1\n      iszero\n      tag_1\n      jumpi\n      revert(0x00, 0x00)\n    tag_1:\n      pop\n      jumpi(tag_2, lt(calldatasize, 0x04))\n      shr(0xe0, calldataload(0x00))\n      dup1\n      0x55ea2000\n      eq\n      tag_3\n      jumpi\n      dup1\n      0x7d625c07\n      eq\n      tag_4\n      jumpi\n      dup1\n      0xa87430ba\n      eq\n      tag_5\n      jumpi\n      dup1\n      0xd9c8a38b\n      eq\n      tag_6\n      jumpi\n      dup1\n      0xffbdff66\n      eq\n      tag_7\n      jumpi\n    tag_2:\n      revert(0x00, 0x00)\n        /* \"prac15.sol\":2499:2620  function deactivateUser() public {... */\n    tag_3:\n      tag_8\n      tag_9\n      jump\t// in\n    tag_8:\n      stop\n        /* \"prac15.sol\":2361:2491  function updateAge(uint256 _newAge) public {... */\n    tag_4:\n      tag_10\n      0x04\n      dup1\n      calldatasize\n      sub\n      dup2\n      add\n      swap1\n      tag_11\n      swap2\n      swap1\n      tag_12\n      jump\t// in\n    tag_11:\n      tag_13\n      jump\t// in\n    tag_10:\n      stop\n        /* \"prac15.sol\":2211:2248  mapping(address => User) public users */\n    tag_5:\n      tag_14\n      0x04\n      dup1\n      calldatasize\n      sub\n      dup2\n      add\n      swap1\n      tag_15\n      swap2\n      swap1\n      tag_16\n      jump\t// in\n    tag_15:\n      tag_17\n      jump\t// in\n    tag_14:\n      mload(0x40)\n      tag_18\n      swap3\n      swap2\n      swap1\n      tag_19\n      jump\t// in\n    tag_18:\n      mload(0x40)\n      dup1\n      swap2\n      sub\n      swap1\n      return\n        /* \"prac15.sol\":2628:2816  function getMyData()... */\n    tag_6:\n      tag_20\n      tag_21\n      jump\t// in\n    tag_20:\n      mload(0x40)\n      tag_22\n      swap3\n      swap2\n      swap1\n      tag_19\n      jump\t// in\n    tag_22:\n      mload(0x40)\n      dup1\n      swap2\n      sub\n      swap1\n      return\n        /* \"prac15.sol\":2257:2353  function createUser(uint256 _age) public {... */\n    tag_7:\n      tag_23\n      0x04\n      dup1\n      calldatasize\n      sub\n      dup2\n      add\n      swap1\n      tag_24\n      swap2\n      swap1\n      tag_12\n      jump\t// in\n    tag_24:\n      tag_25\n      jump\t// in\n    tag_23:\n      stop\n        /* \"prac15.sol\":2499:2620  function deactivateUser() public {... */\n    tag_9:\n        /* \"prac15.sol\":2543:2560  User storage user */\n      0x00\n        /* \"prac15.sol\":2563:2568  users */\n      0x00\n        /* \"prac15.sol\":2563:2580  users[msg.sender] */\n      0x00\n        /* \"prac15.sol\":2569:2579  msg.sender */\n      caller\n        /* \"prac15.sol\":2563:2580  users[msg.sender] */\n      0xffffffffffffffffffffffffffffffffffffffff\n      and\n      0xffffffffffffffffffffffffffffffffffffffff\n      and\n      dup2\n      mstore\n      0x20\n      add\n      swap1\n      dup2\n      mstore\n      0x20\n      add\n      0x00\n      keccak256\n        /* \"prac15.sol\":2543:2580  User storage user = users[msg.sender] */\n      swap1\n      pop\n        /* \"prac15.sol\":2607:2612  false */\n      0x00\n        /* \"prac15.sol\":2593:2597  user */\n      dup2\n        /* \"prac15.sol\":2593:2604  user.active */\n      0x01\n      add\n      0x00\n        /* \"prac15.sol\":2593:2612  user.active = false */\n      0x0100\n      exp\n      dup2\n      sload\n      dup2\n      0xff\n      mul\n      not\n      and\n      swap1\n      dup4\n      iszero\n      iszero\n      mul\n      or\n      swap1\n      sstore\n      pop\n        /* \"prac15.sol\":2532:2620  {... */\n      pop\n        /* \"prac15.sol\":2499:2620  function deactivateUser() public {... */\n      jump\t// out\n        /* \"prac15.sol\":2361:2491  function updateAge(uint256 _newAge) public {... */\n    tag_13:\n        /* \"prac15.sol\":2415:2432  User storage user */\n      0x00\n        /* \"prac15.sol\":2435:2440  users */\n      0x00\n        /* \"prac15.sol\":2435:2452  users[msg.sender] */\n      0x00\n        /* \"prac15.sol\":2441:2451  msg.sender */\n      caller\n        /* \"prac15.sol\":2435:2452  users[msg.sender] */\n      0xffffffffffffffffffffffffffffffffffffffff\n      and\n      0xffffffffffffffffffffffffffffffffffffffff\n      and\n      dup2\n      mstore\n      0x20\n      add\n      swap1\n      dup2\n      mstore\n      0x20\n      add\n      0x00\n      keccak256\n        /* \"prac15.sol\":2415:2452  User storage user = users[msg.sender] */\n      swap1\n      pop\n        /* \"prac15.sol\":2476:2483  _newAge */\n      dup2\n        /* \"prac15.sol\":2465:2469  user */\n      dup2\n        /* \"prac15.sol\":2465:2473  user.age */\n      0x00\n      add\n        /* \"prac15.sol\":2465:2483  user.age = _newAge */\n      dup2\n      swap1\n      sstore\n      pop\n        /* \"prac15.sol\":2404:2491  {... */\n      pop\n        /* \"prac15.sol\":2361:2491  function updateAge(uint256 _newAge) public {... */\n      pop\n      jump\t// out\n        /* \"prac15.sol\":2211:2248  mapping(address => User) public users */\n    tag_17:\n      mstore(0x20, 0x00)\n      dup1\n      0x00\n      mstore\n      keccak256(0x00, 0x40)\n      0x00\n      swap2\n      pop\n      swap1\n      pop\n      dup1\n      0x00\n      add\n      sload\n      swap1\n      dup1\n      0x01\n      add\n      0x00\n      swap1\n      sload\n      swap1\n      0x0100\n      exp\n      swap1\n      div\n      0xff\n      and\n      swap1\n      pop\n      dup3\n      jump\t// out\n        /* \"prac15.sol\":2628:2816  function getMyData()... */\n    tag_21:\n        /* \"prac15.sol\":2697:2704  uint256 */\n      0x00\n        /* \"prac15.sol\":2706:2710  bool */\n      0x00\n        /* \"prac15.sol\":2728:2745  User storage user */\n      0x00\n        /* \"prac15.sol\":2748:2753  users */\n      0x00\n        /* \"prac15.sol\":2748:2765  users[msg.sender] */\n      0x00\n        /* \"prac15.sol\":2754:2764  msg.sender */\n      caller\n        /* \"prac15.sol\":2748:2765  users[msg.sender] */\n      0xffffffffffffffffffffffffffffffffffffffff\n      and\n      0xffffffffffffffffffffffffffffffffffffffff\n      and\n      dup2\n      mstore\n      0x20\n      add\n      swap1\n      dup2\n      mstore\n      0x20\n      add\n      0x00\n      keccak256\n        /* \"prac15.sol\":2728:2765  User storage user = users[msg.sender] */\n      swap1\n      pop\n        /* \"prac15.sol\":2786:2790  user */\n      dup1\n        /* \"prac15.sol\":2786:2794  user.age */\n      0x00\n      add\n      sload\n        /* \"prac15.sol\":2796:2800  user */\n      dup2\n        /* \"prac15.sol\":2796:2807  user.active */\n      0x01\n      add\n      0x00\n      swap1\n      sload\n      swap1\n      0x0100\n      exp\n      swap1\n      div\n      0xff\n      and\n        /* \"prac15.sol\":2778:2808  return (user.age, user.active) */\n      swap3\n      pop\n      swap3\n      pop\n      pop\n        /* \"prac15.sol\":2628:2816  function getMyData()... */\n      swap1\n      swap2\n      jump\t// out\n        /* \"prac15.sol\":2257:2353  function createUser(uint256 _age) public {... */\n    tag_25:\n        /* \"prac15.sol\":2329:2345  User(_age, true) */\n      mload(0x40)\n      dup1\n      0x40\n      add\n      0x40\n      mstore\n      dup1\n        /* \"prac15.sol\":2334:2338  _age */\n      dup3\n        /* \"prac15.sol\":2329:2345  User(_age, true) */\n      dup2\n      mstore\n      0x20\n      add\n        /* \"prac15.sol\":2340:2344  true */\n      0x01\n        /* \"prac15.sol\":2329:2345  User(_age, true) */\n      iszero\n      iszero\n      dup2\n      mstore\n      pop\n        /* \"prac15.sol\":2309:2314  users */\n      0x00\n        /* \"prac15.sol\":2309:2326  users[msg.sender] */\n      0x00\n        /* \"prac15.sol\":2315:2325  msg.sender */\n      caller\n        /* \"prac15.sol\":2309:2326  users[msg.sender] */\n      0xffffffffffffffffffffffffffffffffffffffff\n      and\n      0xffffffffffffffffffffffffffffffffffffffff\n      and\n      dup2\n      mstore\n      0x20\n      add\n      swap1\n      dup2\n      mstore\n      0x20\n      add\n      0x00\n      keccak256\n        /* \"prac15.sol\":2309:2345  users[msg.sender] = User(_age, true) */\n      0x00\n      dup3\n      add\n      mload\n      dup2\n      0x00\n      add\n      sstore\n      0x20\n      dup3\n      add\n      mload\n      dup2\n      0x01\n      add\n      exp(0x0100, 0x00)\n      dup2\n      sload\n      dup2\n      0xff\n      mul\n      not\n      and\n      swap1\n      dup4\n      iszero\n      iszero\n      mul\n      or\n      swap1\n      sstore\n      pop\n      swap1\n      pop\n      pop\n        /* \"prac15.sol\":2257:2353  function createUser(uint256 _age) public {... */\n      pop\n      jump\t// out\n        /* \"#utility.yul\":88:205   */\n    tag_31:\n        /* \"#utility.yul\":197:198   */\n      0x00\n        /* \"#utility.yul\":194:195   */\n      0x00\n        /* \"#utility.yul\":187:199   */\n      revert\n        /* \"#utility.yul\":334:411   */\n    tag_33:\n        /* \"#utility.yul\":371:378   */\n      0x00\n        /* \"#utility.yul\":400:405   */\n      dup2\n        /* \"#utility.yul\":389:405   */\n      swap1\n      pop\n        /* \"#utility.yul\":334:411   */\n      swap2\n      swap1\n      pop\n      jump\t// out\n        /* \"#utility.yul\":417:539   */\n    tag_34:\n        /* \"#utility.yul\":490:514   */\n      tag_49\n        /* \"#utility.yul\":508:513   */\n      dup2\n        /* \"#utility.yul\":490:514   */\n      tag_33\n      jump\t// in\n    tag_49:\n        /* \"#utility.yul\":483:488   */\n      dup2\n        /* \"#utility.yul\":480:515   */\n      eq\n        /* \"#utility.yul\":470:533   */\n      tag_50\n      jumpi\n        /* \"#utility.yul\":529:530   */\n      0x00\n        /* \"#utility.yul\":526:527   */\n      0x00\n        /* \"#utility.yul\":519:531   */\n      revert\n        /* \"#utility.yul\":470:533   */\n    tag_50:\n        /* \"#utility.yul\":417:539   */\n      pop\n      jump\t// out\n        /* \"#utility.yul\":545:684   */\n    tag_35:\n        /* \"#utility.yul\":591:596   */\n      0x00\n        /* \"#utility.yul\":629:635   */\n      dup2\n        /* \"#utility.yul\":616:636   */\n      calldataload\n        /* \"#utility.yul\":607:636   */\n      swap1\n      pop\n        /* \"#utility.yul\":645:678   */\n      tag_52\n        /* \"#utility.yul\":672:677   */\n      dup2\n        /* \"#utility.yul\":645:678   */\n      tag_34\n      jump\t// in\n    tag_52:\n        /* \"#utility.yul\":545:684   */\n      swap3\n      swap2\n      pop\n      pop\n      jump\t// out\n        /* \"#utility.yul\":690:1019   */\n    tag_12:\n        /* \"#utility.yul\":749:755   */\n      0x00\n        /* \"#utility.yul\":798:800   */\n      0x20\n        /* \"#utility.yul\":786:795   */\n      dup3\n        /* \"#utility.yul\":777:784   */\n      dup5\n        /* \"#utility.yul\":773:796   */\n      sub\n        /* \"#utility.yul\":769:801   */\n      slt\n        /* \"#utility.yul\":766:885   */\n      iszero\n      tag_54\n      jumpi\n        /* \"#utility.yul\":804:883   */\n      tag_55\n      tag_31\n      jump\t// in\n    tag_55:\n        /* \"#utility.yul\":766:885   */\n    tag_54:\n        /* \"#utility.yul\":924:925   */\n      0x00\n        /* \"#utility.yul\":949:1002   */\n      tag_56\n        /* \"#utility.yul\":994:1001   */\n      dup5\n        /* \"#utility.yul\":985:991   */\n      dup3\n        /* \"#utility.yul\":974:983   */\n      dup6\n        /* \"#utility.yul\":970:992   */\n      add\n        /* \"#utility.yul\":949:1002   */\n      tag_35\n      jump\t// in\n    tag_56:\n        /* \"#utility.yul\":939:1002   */\n      swap2\n      pop\n        /* \"#utility.yul\":895:1012   */\n      pop\n        /* \"#utility.yul\":690:1019   */\n      swap3\n      swap2\n      pop\n      pop\n      jump\t// out\n        /* \"#utility.yul\":1025:1151   */\n    tag_36:\n        /* \"#utility.yul\":1062:1069   */\n      0x00\n        /* \"#utility.yul\":1102:1144   */\n      0xffffffffffffffffffffffffffffffffffffffff\n        /* \"#utility.yul\":1095:1100   */\n      dup3\n        /* \"#utility.yul\":1091:1145   */\n      and\n        /* \"#utility.yul\":1080:1145   */\n      swap1\n      pop\n        /* \"#utility.yul\":1025:1151   */\n      swap2\n      swap1\n      pop\n      jump\t// out\n        /* \"#utility.yul\":1157:1253   */\n    tag_37:\n        /* \"#utility.yul\":1194:1201   */\n      0x00\n        /* \"#utility.yul\":1223:1247   */\n      tag_59\n        /* \"#utility.yul\":1241:1246   */\n      dup3\n        /* \"#utility.yul\":1223:1247   */\n      tag_36\n      jump\t// in\n    tag_59:\n        /* \"#utility.yul\":1212:1247   */\n      swap1\n      pop\n        /* \"#utility.yul\":1157:1253   */\n      swap2\n      swap1\n      pop\n      jump\t// out\n        /* \"#utility.yul\":1259:1381   */\n    tag_38:\n        /* \"#utility.yul\":1332:1356   */\n      tag_61\n        /* \"#utility.yul\":1350:1355   */\n      dup2\n        /* \"#utility.yul\":1332:1356   */\n      tag_37\n      jump\t// in\n    tag_61:\n        /* \"#utility.yul\":1325:1330   */\n      dup2\n        /* \"#utility.yul\":1322:1357   */\n      eq\n        /* \"#utility.yul\":1312:1375   */\n      tag_62\n      jumpi\n        /* \"#utility.yul\":1371:1372   */\n      0x00\n        /* \"#utility.yul\":1368:1369   */\n      0x00\n        /* \"#utility.yul\":1361:1373   */\n      revert\n        /* \"#utility.yul\":1312:1375   */\n    tag_62:\n        /* \"#utility.yul\":1259:1381   */\n      pop\n      jump\t// out\n        /* \"#utility.yul\":1387:1526   */\n    tag_39:\n        /* \"#utility.yul\":1433:1438   */\n      0x00\n        /* \"#utility.yul\":1471:1477   */\n      dup2\n        /* \"#utility.yul\":1458:1478   */\n      calldataload\n        /* \"#utility.yul\":1449:1478   */\n      swap1\n      pop\n        /* \"#utility.yul\":1487:1520   */\n      tag_64\n        /* \"#utility.yul\":1514:1519   */\n      dup2\n        /* \"#utility.yul\":1487:1520   */\n      tag_38\n      jump\t// in\n    tag_64:\n        /* \"#utility.yul\":1387:1526   */\n      swap3\n      swap2\n      pop\n      pop\n      jump\t// out\n        /* \"#utility.yul\":1532:1861   */\n    tag_16:\n        /* \"#utility.yul\":1591:1597   */\n      0x00\n        /* \"#utility.yul\":1640:1642   */\n      0x20\n        /* \"#utility.yul\":1628:1637   */\n      dup3\n        /* \"#utility.yul\":1619:1626   */\n      dup5\n        /* \"#utility.yul\":1615:1638   */\n      sub\n        /* \"#utility.yul\":1611:1643   */\n      slt\n        /* \"#utility.yul\":1608:1727   */\n      iszero\n      tag_66\n      jumpi\n        /* \"#utility.yul\":1646:1725   */\n      tag_67\n      tag_31\n      jump\t// in\n    tag_67:\n        /* \"#utility.yul\":1608:1727   */\n    tag_66:\n        /* \"#utility.yul\":1766:1767   */\n      0x00\n        /* \"#utility.yul\":1791:1844   */\n      tag_68\n        /* \"#utility.yul\":1836:1843   */\n      dup5\n        /* \"#utility.yul\":1827:1833   */\n      dup3\n        /* \"#utility.yul\":1816:1825   */\n      dup6\n        /* \"#utility.yul\":1812:1834   */\n      add\n        /* \"#utility.yul\":1791:1844   */\n      tag_39\n      jump\t// in\n    tag_68:\n        /* \"#utility.yul\":1781:1844   */\n      swap2\n      pop\n        /* \"#utility.yul\":1737:1854   */\n      pop\n        /* \"#utility.yul\":1532:1861   */\n      swap3\n      swap2\n      pop\n      pop\n      jump\t// out\n        /* \"#utility.yul\":1867:1985   */\n    tag_40:\n        /* \"#utility.yul\":1954:1978   */\n      tag_70\n        /* \"#utility.yul\":1972:1977   */\n      dup2\n        /* \"#utility.yul\":1954:1978   */\n      tag_33\n      jump\t// in\n    tag_70:\n        /* \"#utility.yul\":1949:1952   */\n      dup3\n        /* \"#utility.yul\":1942:1979   */\n      mstore\n        /* \"#utility.yul\":1867:1985   */\n      pop\n      pop\n      jump\t// out\n        /* \"#utility.yul\":1991:2081   */\n    tag_41:\n        /* \"#utility.yul\":2025:2032   */\n      0x00\n        /* \"#utility.yul\":2068:2073   */\n      dup2\n        /* \"#utility.yul\":2061:2074   */\n      iszero\n        /* \"#utility.yul\":2054:2075   */\n      iszero\n        /* \"#utility.yul\":2043:2075   */\n      swap1\n      pop\n        /* \"#utility.yul\":1991:2081   */\n      swap2\n      swap1\n      pop\n      jump\t// out\n        /* \"#utility.yul\":2087:2196   */\n    tag_42:\n        /* \"#utility.yul\":2168:2189   */\n      tag_73\n        /* \"#utility.yul\":2183:2188   */\n      dup2\n        /* \"#utility.yul\":2168:2189   */\n      tag_41\n      jump\t// in\n    tag_73:\n        /* \"#utility.yul\":2163:2166   */\n      dup3\n        /* \"#utility.yul\":2156:2190   */\n      mstore\n        /* \"#utility.yul\":2087:2196   */\n      pop\n      pop\n      jump\t// out\n        /* \"#utility.yul\":2202:2522   */\n    tag_19:\n        /* \"#utility.yul\":2317:2321   */\n      0x00\n        /* \"#utility.yul\":2355:2357   */\n      0x40\n        /* \"#utility.yul\":2344:2353   */\n      dup3\n        /* \"#utility.yul\":2340:2358   */\n      add\n        /* \"#utility.yul\":2332:2358   */\n      swap1\n      pop\n        /* \"#utility.yul\":2368:2439   */\n      tag_75\n        /* \"#utility.yul\":2436:2437   */\n      0x00\n        /* \"#utility.yul\":2425:2434   */\n      dup4\n        /* \"#utility.yul\":2421:2438   */\n      add\n        /* \"#utility.yul\":2412:2418   */\n      dup6\n        /* \"#utility.yul\":2368:2439   */\n      tag_40\n      jump\t// in\n    tag_75:\n        /* \"#utility.yul\":2449:2515   */\n      tag_76\n        /* \"#utility.yul\":2511:2513   */\n      0x20\n        /* \"#utility.yul\":2500:2509   */\n      dup4\n        /* \"#utility.yul\":2496:2514   */\n      add\n        /* \"#utility.yul\":2487:2493   */\n      dup5\n        /* \"#utility.yul\":2449:2515   */\n      tag_42\n      jump\t// in\n    tag_76:\n        /* \"#utility.yul\":2202:2522   */\n      swap4\n      swap3\n      pop\n      pop\n      pop\n      jump\t// out\n\n    auxdata: 0xa264697066735822122091d996fed7fac62f5e9cf8eb44f5915063ecd092d3f231bcc53a0e48dad64e9864736f6c63430008220033\n}\n",
				"bytecode": {
					"linkReferences": {},
					"object": "6080604052348015600e575f5ffd5b5061040b8061001c5f395ff3fe608060405234801561000f575f5ffd5b5060043610610055575f3560e01c806355ea2000146100595780637d625c0714610063578063a87430ba1461007f578063d9c8a38b146100b0578063ffbdff66146100cf575b5f5ffd5b6100616100eb565b005b61007d600480360381019061007891906102d5565b610148565b005b6100996004803603810190610094919061035a565b610193565b6040516100a79291906103ae565b60405180910390f35b6100b86101be565b6040516100c69291906103ae565b60405180910390f35b6100e960048036038101906100e491906102d5565b61021d565b005b5f5f5f3373ffffffffffffffffffffffffffffffffffffffff1673ffffffffffffffffffffffffffffffffffffffff1681526020019081526020015f2090505f816001015f6101000a81548160ff02191690831515021790555050565b5f5f5f3373ffffffffffffffffffffffffffffffffffffffff1673ffffffffffffffffffffffffffffffffffffffff1681526020019081526020015f20905081815f01819055505050565b5f602052805f5260405f205f91509050805f015490806001015f9054906101000a900460ff16905082565b5f5f5f5f5f3373ffffffffffffffffffffffffffffffffffffffff1673ffffffffffffffffffffffffffffffffffffffff1681526020019081526020015f209050805f0154816001015f9054906101000a900460ff1692509250509091565b6040518060400160405280828152602001600115158152505f5f3373ffffffffffffffffffffffffffffffffffffffff1673ffffffffffffffffffffffffffffffffffffffff1681526020019081526020015f205f820151815f01556020820151816001015f6101000a81548160ff02191690831515021790555090505050565b5f5ffd5b5f819050919050565b6102b4816102a2565b81146102be575f5ffd5b50565b5f813590506102cf816102ab565b92915050565b5f602082840312156102ea576102e961029e565b5b5f6102f7848285016102c1565b91505092915050565b5f73ffffffffffffffffffffffffffffffffffffffff82169050919050565b5f61032982610300565b9050919050565b6103398161031f565b8114610343575f5ffd5b50565b5f8135905061035481610330565b92915050565b5f6020828403121561036f5761036e61029e565b5b5f61037c84828501610346565b91505092915050565b61038e816102a2565b82525050565b5f8115159050919050565b6103a881610394565b82525050565b5f6040820190506103c15f830185610385565b6103ce602083018461039f565b939250505056fea264697066735822122091d996fed7fac62f5e9cf8eb44f5915063ecd092d3f231bcc53a0e48dad64e9864736f6c63430008220033",
					"opcodes": "PUSH1 0x80 PUSH1 0x40 MSTORE CALLVALUE DUP1 ISZERO PUSH1 0xE JUMPI PUSH0 PUSH0 REVERT JUMPDEST POP PUSH2 0x40B DUP1 PUSH2 0x1C PUSH0 CODECOPY PUSH0 RETURN INVALID PUSH1 0x80 PUSH1 0x40 MSTORE CALLVALUE DUP1 ISZERO PUSH2 0xF JUMPI PUSH0 PUSH0 REVERT JUMPDEST POP PUSH1 0x4 CALLDATASIZE LT PUSH2 0x55 JUMPI PUSH0 CALLDATALOAD PUSH1 0xE0 SHR DUP1 PUSH4 0x55EA2000 EQ PUSH2 0x59 JUMPI DUP1 PUSH4 0x7D625C07 EQ PUSH2 0x63 JUMPI DUP1 PUSH4 0xA87430BA EQ PUSH2 0x7F JUMPI DUP1 PUSH4 0xD9C8A38B EQ PUSH2 0xB0 JUMPI DUP1 PUSH4 0xFFBDFF66 EQ PUSH2 0xCF JUMPI JUMPDEST PUSH0 PUSH0 REVERT JUMPDEST PUSH2 0x61 PUSH2 0xEB JUMP JUMPDEST STOP JUMPDEST PUSH2 0x7D PUSH1 0x4 DUP1 CALLDATASIZE SUB DUP2 ADD SWAP1 PUSH2 0x78 SWAP2 SWAP1 PUSH2 0x2D5 JUMP JUMPDEST PUSH2 0x148 JUMP JUMPDEST STOP JUMPDEST PUSH2 0x99 PUSH1 0x4 DUP1 CALLDATASIZE SUB DUP2 ADD SWAP1 PUSH2 0x94 SWAP2 SWAP1 PUSH2 0x35A JUMP JUMPDEST PUSH2 0x193 JUMP JUMPDEST PUSH1 0x40 MLOAD PUSH2 0xA7 SWAP3 SWAP2 SWAP1 PUSH2 0x3AE JUMP JUMPDEST PUSH1 0x40 MLOAD DUP1 SWAP2 SUB SWAP1 RETURN JUMPDEST PUSH2 0xB8 PUSH2 0x1BE JUMP JUMPDEST PUSH1 0x40 MLOAD PUSH2 0xC6 SWAP3 SWAP2 SWAP1 PUSH2 0x3AE JUMP JUMPDEST PUSH1 0x40 MLOAD DUP1 SWAP2 SUB SWAP1 RETURN JUMPDEST PUSH2 0xE9 PUSH1 0x4 DUP1 CALLDATASIZE SUB DUP2 ADD SWAP1 PUSH2 0xE4 SWAP2 SWAP1 PUSH2 0x2D5 JUMP JUMPDEST PUSH2 0x21D JUMP JUMPDEST STOP JUMPDEST PUSH0 PUSH0 PUSH0 CALLER PUSH20 0xFFFFFFFFFFFFFFFFFFFFFFFFFFFFFFFFFFFFFFFF AND PUSH20 0xFFFFFFFFFFFFFFFFFFFFFFFFFFFFFFFFFFFFFFFF AND DUP2 MSTORE PUSH1 0x20 ADD SWAP1 DUP2 MSTORE PUSH1 0x20 ADD PUSH0 KECCAK256 SWAP1 POP PUSH0 DUP2 PUSH1 0x1 ADD PUSH0 PUSH2 0x100 EXP DUP2 SLOAD DUP2 PUSH1 0xFF MUL NOT AND SWAP1 DUP4 ISZERO ISZERO MUL OR SWAP1 SSTORE POP POP JUMP JUMPDEST PUSH0 PUSH0 PUSH0 CALLER PUSH20 0xFFFFFFFFFFFFFFFFFFFFFFFFFFFFFFFFFFFFFFFF AND PUSH20 0xFFFFFFFFFFFFFFFFFFFFFFFFFFFFFFFFFFFFFFFF AND DUP2 MSTORE PUSH1 0x20 ADD SWAP1 DUP2 MSTORE PUSH1 0x20 ADD PUSH0 KECCAK256 SWAP1 POP DUP2 DUP2 PUSH0 ADD DUP2 SWAP1 SSTORE POP POP POP JUMP JUMPDEST PUSH0 PUSH1 0x20 MSTORE DUP1 PUSH0 MSTORE PUSH1 0x40 PUSH0 KECCAK256 PUSH0 SWAP2 POP SWAP1 POP DUP1 PUSH0 ADD SLOAD SWAP1 DUP1 PUSH1 0x1 ADD PUSH0 SWAP1 SLOAD SWAP1 PUSH2 0x100 EXP SWAP1 DIV PUSH1 0xFF AND SWAP1 POP DUP3 JUMP JUMPDEST PUSH0 PUSH0 PUSH0 PUSH0 PUSH0 CALLER PUSH20 0xFFFFFFFFFFFFFFFFFFFFFFFFFFFFFFFFFFFFFFFF AND PUSH20 0xFFFFFFFFFFFFFFFFFFFFFFFFFFFFFFFFFFFFFFFF AND DUP2 MSTORE PUSH1 0x20 ADD SWAP1 DUP2 MSTORE PUSH1 0x20 ADD PUSH0 KECCAK256 SWAP1 POP DUP1 PUSH0 ADD SLOAD DUP2 PUSH1 0x1 ADD PUSH0 SWAP1 SLOAD SWAP1 PUSH2 0x100 EXP SWAP1 DIV PUSH1 0xFF AND SWAP3 POP SWAP3 POP POP SWAP1 SWAP2 JUMP JUMPDEST PUSH1 0x40 MLOAD DUP1 PUSH1 0x40 ADD PUSH1 0x40 MSTORE DUP1 DUP3 DUP2 MSTORE PUSH1 0x20 ADD PUSH1 0x1 ISZERO ISZERO DUP2 MSTORE POP PUSH0 PUSH0 CALLER PUSH20 0xFFFFFFFFFFFFFFFFFFFFFFFFFFFFFFFFFFFFFFFF AND PUSH20 0xFFFFFFFFFFFFFFFFFFFFFFFFFFFFFFFFFFFFFFFF AND DUP2 MSTORE PUSH1 0x20 ADD SWAP1 DUP2 MSTORE PUSH1 0x20 ADD PUSH0 KECCAK256 PUSH0 DUP3 ADD MLOAD DUP2 PUSH0 ADD SSTORE PUSH1 0x20 DUP3 ADD MLOAD DUP2 PUSH1 0x1 ADD PUSH0 PUSH2 0x100 EXP DUP2 SLOAD DUP2 PUSH1 0xFF MUL NOT AND SWAP1 DUP4 ISZERO ISZERO MUL OR SWAP1 SSTORE POP SWAP1 POP POP POP JUMP JUMPDEST PUSH0 PUSH0 REVERT JUMPDEST PUSH0 DUP2 SWAP1 POP SWAP2 SWAP1 POP JUMP JUMPDEST PUSH2 0x2B4 DUP2 PUSH2 0x2A2 JUMP JUMPDEST DUP2 EQ PUSH2 0x2BE JUMPI PUSH0 PUSH0 REVERT JUMPDEST POP JUMP JUMPDEST PUSH0 DUP2 CALLDATALOAD SWAP1 POP PUSH2 0x2CF DUP2 PUSH2 0x2AB JUMP JUMPDEST SWAP3 SWAP2 POP POP JUMP JUMPDEST PUSH0 PUSH1 0x20 DUP3 DUP5 SUB SLT ISZERO PUSH2 0x2EA JUMPI PUSH2 0x2E9 PUSH2 0x29E JUMP JUMPDEST JUMPDEST PUSH0 PUSH2 0x2F7 DUP5 DUP3 DUP6 ADD PUSH2 0x2C1 JUMP JUMPDEST SWAP2 POP POP SWAP3 SWAP2 POP POP JUMP JUMPDEST PUSH0 PUSH20 0xFFFFFFFFFFFFFFFFFFFFFFFFFFFFFFFFFFFFFFFF DUP3 AND SWAP1 POP SWAP2 SWAP1 POP JUMP JUMPDEST PUSH0 PUSH2 0x329 DUP3 PUSH2 0x300 JUMP JUMPDEST SWAP1 POP SWAP2 SWAP1 POP JUMP JUMPDEST PUSH2 0x339 DUP2 PUSH2 0x31F JUMP JUMPDEST DUP2 EQ PUSH2 0x343 JUMPI PUSH0 PUSH0 REVERT JUMPDEST POP JUMP JUMPDEST PUSH0 DUP2 CALLDATALOAD SWAP1 POP PUSH2 0x354 DUP2 PUSH2 0x330 JUMP JUMPDEST SWAP3 SWAP2 POP POP JUMP JUMPDEST PUSH0 PUSH1 0x20 DUP3 DUP5 SUB SLT ISZERO PUSH2 0x36F JUMPI PUSH2 0x36E PUSH2 0x29E JUMP JUMPDEST JUMPDEST PUSH0 PUSH2 0x37C DUP5 DUP3 DUP6 ADD PUSH2 0x346 JUMP JUMPDEST SWAP2 POP POP SWAP3 SWAP2 POP POP JUMP JUMPDEST PUSH2 0x38E DUP2 PUSH2 0x2A2 JUMP JUMPDEST DUP3 MSTORE POP POP JUMP JUMPDEST PUSH0 DUP2 ISZERO ISZERO SWAP1 POP SWAP2 SWAP1 POP JUMP JUMPDEST PUSH2 0x3A8 DUP2 PUSH2 0x394 JUMP JUMPDEST DUP3 MSTORE POP POP JUMP JUMPDEST PUSH0 PUSH1 0x40 DUP3 ADD SWAP1 POP PUSH2 0x3C1 PUSH0 DUP4 ADD DUP6 PUSH2 0x385 JUMP JUMPDEST PUSH2 0x3CE PUSH1 0x20 DUP4 ADD DUP5 PUSH2 0x39F JUMP JUMPDEST SWAP4 SWAP3 POP POP POP JUMP INVALID LOG2 PUSH5 0x6970667358 0x22 SLT KECCAK256 SWAP2 0xD9 SWAP7 INVALID 0xD7 STATICCALL 0xC6 0x2F MCOPY SWAP13 EXTCALL 0xEB PREVRANDAO CREATE2 SWAP2 POP PUSH4 0xECD092D3 CALLCODE BALANCE 0xBC 0xC5 GASPRICE 0xE BASEFEE 0xDA 0xD6 0x4E SWAP9 PUSH5 0x736F6C6343 STOP ADDMOD 0x22 STOP CALLER "
				},
				"gasEstimates": {
					"creation": {
						"codeDepositCost": "207000",
						"executionCost": "249",
						"totalCost": "207249"
					},
					"external": {
						"createUser(uint256)": "47028",
						"deactivateUser()": "24490",
						"getMyData()": "4838",
						"updateAge(uint256)": "22618",
						"users(address)": "5088"
					}
				},
				"methodIdentifiers": {
					"createUser(uint256)": "ffbdff66",
					"deactivateUser()": "55ea2000",
					"getMyData()": "d9c8a38b",
					"updateAge(uint256)": "7d625c07",
					"users(address)": "a87430ba"
				}
			},
			"storageLayout": {
				"storage": [
					{
						"astId": 11,
						"contract": "prac15.sol:StorageReferenceVul",
						"label": "users",
						"offset": 0,
						"slot": "0",
						"type": "t_mapping(t_address,t_struct(User)6_storage)"
					}
				],
				"types": {
					"t_address": {
						"encoding": "inplace",
						"label": "address",
						"numberOfBytes": "20"
					},
					"t_bool": {
						"encoding": "inplace",
						"label": "bool",
						"numberOfBytes": "1"
					},
					"t_mapping(t_address,t_struct(User)6_storage)": {
						"encoding": "mapping",
						"key": "t_address",
						"label": "mapping(address => struct StorageReferenceVul.User)",
						"numberOfBytes": "32",
						"value": "t_struct(User)6_storage"
					},
					"t_struct(User)6_storage": {
						"encoding": "inplace",
						"label": "struct StorageReferenceVul.User",
						"members": [
							{
								"astId": 3,
								"contract": "prac15.sol:StorageReferenceVul",
								"label": "age",
								"offset": 0,
								"slot": "0",
								"type": "t_uint256"
							},
							{
								"astId": 5,
								"contract": "prac15.sol:StorageReferenceVul",
								"label": "active",
								"offset": 0,
								"slot": "1",
								"type": "t_bool"
							}
						],
						"numberOfBytes": "64"
					},
					"t_uint256": {
						"encoding": "inplace",
						"label": "uint256",
						"numberOfBytes": "32"
					}
				}
			},
			"userdoc": {
				"kind": "user",
				"methods": {},
				"version": 1
			}
		}
	}
}