{
	"prac15.sol": {
		"StorageReference": {
			"abi": [
				{
					"inputs": [],
					"stateMutability": "nonpayable",
					"type": "constructor"
				},
				{
					"anonymous": false,
					"inputs": [
						{
							"indexed": true,
							"internalType": "address",
							"name": "user",
							"type": "address"
						},
						{
							"indexed": false,
							"internalType": "uint256",
							"name": "oldAge",
							"type": "uint256"
						},
						{
							"indexed": false,
							"internalType": "uint256",
							"name": "newAge",
							"type": "uint256"
						}
					],
					"name": "AgeUpdated",
					"type": "event"
				},
				{
					"anonymous": false,
					"inputs": [
						{
							"indexed": true,
							"internalType": "address",
							"name": "user",
							"type": "address"
						},
						{
							"indexed": false,
							"internalType": "uint256",
							"name": "age",
							"type": "uint256"
						}
					],
					"name": "UserCreated",
					"type": "event"
				},
				{
					"anonymous": false,
					"inputs": [
						{
							"indexed": true,
							"internalType": "address",
							"name": "user",
							"type": "address"
						}
					],
					"name": "UserDeactivated",
					"type": "event"
				},
				{
					"inputs": [
						{
							"internalType": "address",
							"name": "_user",
							"type": "address"
						},
						{
							"internalType": "uint256",
							"name": "_age",
							"type": "uint256"
						}
					],
					"name": "createUser",
					"outputs": [],
					"stateMutability": "nonpayable",
					"type": "function"
				},
				{
					"inputs": [],
					"name": "deactivateUser",
					"outputs": [],
					"stateMutability": "nonpayable",
					"type": "function"
				},
				{
					"inputs": [],
					"name": "getMyData",
					"outputs": [
						{
							"internalType": "uint256",
							"name": "",
							"type": "uint256"
						},
						{
							"internalType": "bool",
							"name": "",
							"type": "bool"
						}
					],
					"stateMutability": "view",
					"type": "function"
				},
				{
					"inputs": [],
					"name": "owner",
					"outputs": [
						{
							"internalType": "address",
							"name": "",
							"type": "address"
						}
					],
					"stateMutability": "view",
					"type": "function"
				},
				{
					"inputs": [
						{
							"internalType": "uint256",
							"name": "_newAge",
							"type": "uint256"
						}
					],
					"name": "previewAgeIncrease",
					"outputs": [
						{
							"internalType": "uint256",
							"name": "",
							"type": "uint256"
						}
					],
					"stateMutability": "view",
					"type": "function"
				},
				{
					"inputs": [
						{
							"internalType": "uint256",
							"name": "_newAge",
							"type": "uint256"
						}
					],
					"name": "updateAge",
					"outputs": [],
					"stateMutability": "nonpayable",
					"type": "function"
				},
				{
					"inputs": [
						{
							"internalType": "address",
							"name": "",
							"type": "address"
						}
					],
					"name": "users",
					"outputs": [
						{
							"internalType": "uint256",
							"name": "age",
							"type": "uint256"
						},
						{
							"internalType": "bool",
							"name": "active",
							"type": "bool"
						}
					],
					"stateMutability": "view",
					"type": "function"
				}
			],
			"devdoc": {
				"kind": "dev",
				"methods": {},
				"version": 1
			},
			"evm": {
				"assembly": "    /* \"prac15.sol\":12057:14276  contract StorageReference {... */\n  mstore(0x40, 0x80)\n    /* \"prac15.sol\":12506:12557  constructor() {... */\n  callvalue\n  dup1\n  iszero\n  tag_1\n  jumpi\n  revert(0x00, 0x00)\ntag_1:\n  pop\n    /* \"prac15.sol\":12539:12549  msg.sender */\n  caller\n    /* \"prac15.sol\":12531:12536  owner */\n  0x01\n  0x00\n    /* \"prac15.sol\":12531:12549  owner = msg.sender */\n  0x0100\n  exp\n  dup2\n  sload\n  dup2\n  0xffffffffffffffffffffffffffffffffffffffff\n  mul\n  not\n  and\n  swap1\n  dup4\n  0xffffffffffffffffffffffffffffffffffffffff\n  and\n  mul\n  or\n  swap1\n  sstore\n  pop\n    /* \"prac15.sol\":12057:14276  contract StorageReference {... */\n  dataSize(sub_0)\n  dup1\n  dataOffset(sub_0)\n  0x00\n  codecopy\n  0x00\n  return\nstop\n\nsub_0: assembly {\n        /* \"prac15.sol\":12057:14276  contract StorageReference {... */\n      mstore(0x40, 0x80)\n      callvalue\n      dup1\n      iszero\n      tag_1\n      jumpi\n      revert(0x00, 0x00)\n    tag_1:\n      pop\n      jumpi(tag_2, lt(calldatasize, 0x04))\n      shr(0xe0, calldataload(0x00))\n      dup1\n      0x93dfc8eb\n      gt\n      tag_10\n      jumpi\n      dup1\n      0x93dfc8eb\n      eq\n      tag_6\n      jumpi\n      dup1\n      0xa87430ba\n      eq\n      tag_7\n      jumpi\n      dup1\n      0xce714f84\n      eq\n      tag_8\n      jumpi\n      dup1\n      0xd9c8a38b\n      eq\n      tag_9\n      jumpi\n      jump(tag_2)\n    tag_10:\n      dup1\n      0x55ea2000\n      eq\n      tag_3\n      jumpi\n      dup1\n      0x7d625c07\n      eq\n      tag_4\n      jumpi\n      dup1\n      0x8da5cb5b\n      eq\n      tag_5\n      jumpi\n    tag_2:\n      revert(0x00, 0x00)\n        /* \"prac15.sol\":13419:13699  function deactivateUser() public {... */\n    tag_3:\n      tag_11\n      tag_12\n      jump\t// in\n    tag_11:\n      stop\n        /* \"prac15.sol\":12962:13411  function updateAge(uint256 _newAge) public {... */\n    tag_4:\n      tag_13\n      0x04\n      dup1\n      calldatasize\n      sub\n      dup2\n      add\n      swap1\n      tag_14\n      swap2\n      swap1\n      tag_15\n      jump\t// in\n    tag_14:\n      tag_16\n      jump\t// in\n    tag_13:\n      stop\n        /* \"prac15.sol\":12210:12230  address public owner */\n    tag_5:\n      tag_17\n      tag_18\n      jump\t// in\n    tag_17:\n      mload(0x40)\n      tag_19\n      swap2\n      swap1\n      tag_20\n      jump\t// in\n    tag_19:\n      mload(0x40)\n      dup1\n      swap2\n      sub\n      swap1\n      return\n        /* \"prac15.sol\":12703:12954  function createUser(... */\n    tag_6:\n      tag_21\n      0x04\n      dup1\n      calldatasize\n      sub\n      dup2\n      add\n      swap1\n      tag_22\n      swap2\n      swap1\n      tag_23\n      jump\t// in\n    tag_22:\n      tag_24\n      jump\t// in\n    tag_21:\n      stop\n        /* \"prac15.sol\":12164:12201  mapping(address => User) public users */\n    tag_7:\n      tag_25\n      0x04\n      dup1\n      calldatasize\n      sub\n      dup2\n      add\n      swap1\n      tag_26\n      swap2\n      swap1\n      tag_27\n      jump\t// in\n    tag_26:\n      tag_28\n      jump\t// in\n    tag_25:\n      mload(0x40)\n      tag_29\n      swap3\n      swap2\n      swap1\n      tag_30\n      jump\t// in\n    tag_29:\n      mload(0x40)\n      dup1\n      swap2\n      sub\n      swap1\n      return\n        /* \"prac15.sol\":13740:13990  function previewAgeIncrease(... */\n    tag_8:\n      tag_31\n      0x04\n      dup1\n      calldatasize\n      sub\n      dup2\n      add\n      swap1\n      tag_32\n      swap2\n      swap1\n      tag_15\n      jump\t// in\n    tag_32:\n      tag_33\n      jump\t// in\n    tag_31:\n      mload(0x40)\n      tag_34\n      swap2\n      swap1\n      tag_35\n      jump\t// in\n    tag_34:\n      mload(0x40)\n      dup1\n      swap2\n      sub\n      swap1\n      return\n        /* \"prac15.sol\":13998:14273  function getMyData()... */\n    tag_9:\n      tag_36\n      tag_37\n      jump\t// in\n    tag_36:\n      mload(0x40)\n      tag_38\n      swap3\n      swap2\n      swap1\n      tag_30\n      jump\t// in\n    tag_38:\n      mload(0x40)\n      dup1\n      swap2\n      sub\n      swap1\n      return\n        /* \"prac15.sol\":13419:13699  function deactivateUser() public {... */\n    tag_12:\n        /* \"prac15.sol\":13463:13480  User storage user */\n      0x00\n        /* \"prac15.sol\":13483:13488  users */\n      0x00\n        /* \"prac15.sol\":13483:13500  users[msg.sender] */\n      0x00\n        /* \"prac15.sol\":13489:13499  msg.sender */\n      caller\n        /* \"prac15.sol\":13483:13500  users[msg.sender] */\n      0xffffffffffffffffffffffffffffffffffffffff\n      and\n      0xffffffffffffffffffffffffffffffffffffffff\n      and\n      dup2\n      mstore\n      0x20\n      add\n      swap1\n      dup2\n      mstore\n      0x20\n      add\n      0x00\n      keccak256\n        /* \"prac15.sol\":13463:13500  User storage user = users[msg.sender] */\n      swap1\n      pop\n        /* \"prac15.sol\":13535:13539  user */\n      dup1\n        /* \"prac15.sol\":13535:13546  user.active */\n      0x01\n      add\n      0x00\n      swap1\n      sload\n      swap1\n      0x0100\n      exp\n      swap1\n      div\n      0xff\n      and\n        /* \"prac15.sol\":13513:13590  require(... */\n      tag_40\n      jumpi\n      mload(0x40)\n      0x08c379a000000000000000000000000000000000000000000000000000000000\n      dup2\n      mstore\n      0x04\n      add\n      tag_41\n      swap1\n      tag_42\n      jump\t// in\n    tag_41:\n      mload(0x40)\n      dup1\n      swap2\n      sub\n      swap1\n      revert\n    tag_40:\n        /* \"prac15.sol\":13617:13622  false */\n      0x00\n        /* \"prac15.sol\":13603:13607  user */\n      dup2\n        /* \"prac15.sol\":13603:13614  user.active */\n      0x01\n      add\n      0x00\n        /* \"prac15.sol\":13603:13622  user.active = false */\n      0x0100\n      exp\n      dup2\n      sload\n      dup2\n      0xff\n      mul\n      not\n      and\n      swap1\n      dup4\n      iszero\n      iszero\n      mul\n      or\n      swap1\n      sstore\n      pop\n        /* \"prac15.sol\":13670:13680  msg.sender */\n      caller\n        /* \"prac15.sol\":13640:13691  UserDeactivated(... */\n      0xffffffffffffffffffffffffffffffffffffffff\n      and\n      0x5554feec4e87bc4eba14bd62f71df68156f97d26128616fbc27d28e33b35a6b4\n      mload(0x40)\n      mload(0x40)\n      dup1\n      swap2\n      sub\n      swap1\n      log2\n        /* \"prac15.sol\":13452:13699  {... */\n      pop\n        /* \"prac15.sol\":13419:13699  function deactivateUser() public {... */\n      jump\t// out\n        /* \"prac15.sol\":12962:13411  function updateAge(uint256 _newAge) public {... */\n    tag_16:\n        /* \"prac15.sol\":13016:13033  User storage user */\n      0x00\n        /* \"prac15.sol\":13036:13041  users */\n      0x00\n        /* \"prac15.sol\":13036:13053  users[msg.sender] */\n      0x00\n        /* \"prac15.sol\":13042:13052  msg.sender */\n      caller\n        /* \"prac15.sol\":13036:13053  users[msg.sender] */\n      0xffffffffffffffffffffffffffffffffffffffff\n      and\n      0xffffffffffffffffffffffffffffffffffffffff\n      and\n      dup2\n      mstore\n      0x20\n      add\n      swap1\n      dup2\n      mstore\n      0x20\n      add\n      0x00\n      keccak256\n        /* \"prac15.sol\":13016:13053  User storage user = users[msg.sender] */\n      swap1\n      pop\n        /* \"prac15.sol\":13088:13092  user */\n      dup1\n        /* \"prac15.sol\":13088:13099  user.active */\n      0x01\n      add\n      0x00\n      swap1\n      sload\n      swap1\n      0x0100\n      exp\n      swap1\n      div\n      0xff\n      and\n        /* \"prac15.sol\":13066:13142  require(... */\n      tag_44\n      jumpi\n      mload(0x40)\n      0x08c379a000000000000000000000000000000000000000000000000000000000\n      dup2\n      mstore\n      0x04\n      add\n      tag_45\n      swap1\n      tag_46\n      jump\t// in\n    tag_45:\n      mload(0x40)\n      dup1\n      swap2\n      sub\n      swap1\n      revert\n    tag_44:\n        /* \"prac15.sol\":13187:13188  0 */\n      0x00\n        /* \"prac15.sol\":13177:13184  _newAge */\n      dup3\n        /* \"prac15.sol\":13177:13188  _newAge > 0 */\n      gt\n        /* \"prac15.sol\":13155:13227  require(... */\n      tag_47\n      jumpi\n      mload(0x40)\n      0x08c379a000000000000000000000000000000000000000000000000000000000\n      dup2\n      mstore\n      0x04\n      add\n      tag_48\n      swap1\n      tag_49\n      jump\t// in\n    tag_48:\n      mload(0x40)\n      dup1\n      swap2\n      sub\n      swap1\n      revert\n    tag_47:\n        /* \"prac15.sol\":13240:13254  uint256 oldAge */\n      0x00\n        /* \"prac15.sol\":13257:13261  user */\n      dup2\n        /* \"prac15.sol\":13257:13265  user.age */\n      0x00\n      add\n      sload\n        /* \"prac15.sol\":13240:13265  uint256 oldAge = user.age */\n      swap1\n      pop\n        /* \"prac15.sol\":13289:13296  _newAge */\n      dup3\n        /* \"prac15.sol\":13278:13282  user */\n      dup3\n        /* \"prac15.sol\":13278:13286  user.age */\n      0x00\n      add\n        /* \"prac15.sol\":13278:13296  user.age = _newAge */\n      dup2\n      swap1\n      sstore\n      pop\n        /* \"prac15.sol\":13339:13349  msg.sender */\n      caller\n        /* \"prac15.sol\":13314:13403  AgeUpdated(... */\n      0xffffffffffffffffffffffffffffffffffffffff\n      and\n      0xd49110ac15d15bf795fa6b85bb9265d54a985b63ae82b886adfb1279137656bd\n        /* \"prac15.sol\":13364:13370  oldAge */\n      dup3\n        /* \"prac15.sol\":13385:13392  _newAge */\n      dup6\n        /* \"prac15.sol\":13314:13403  AgeUpdated(... */\n      mload(0x40)\n      tag_50\n      swap3\n      swap2\n      swap1\n      tag_51\n      jump\t// in\n    tag_50:\n      mload(0x40)\n      dup1\n      swap2\n      sub\n      swap1\n      log2\n        /* \"prac15.sol\":13005:13411  {... */\n      pop\n      pop\n        /* \"prac15.sol\":12962:13411  function updateAge(uint256 _newAge) public {... */\n      pop\n      jump\t// out\n        /* \"prac15.sol\":12210:12230  address public owner */\n    tag_18:\n      0x01\n      0x00\n      swap1\n      sload\n      swap1\n      0x0100\n      exp\n      swap1\n      div\n      0xffffffffffffffffffffffffffffffffffffffff\n      and\n      dup2\n      jump\t// out\n        /* \"prac15.sol\":12703:12954  function createUser(... */\n    tag_24:\n        /* \"prac15.sol\":12633:12638  owner */\n      0x01\n      0x00\n      swap1\n      sload\n      swap1\n      0x0100\n      exp\n      swap1\n      div\n      0xffffffffffffffffffffffffffffffffffffffff\n      and\n        /* \"prac15.sol\":12619:12638  msg.sender == owner */\n      0xffffffffffffffffffffffffffffffffffffffff\n      and\n        /* \"prac15.sol\":12619:12629  msg.sender */\n      caller\n        /* \"prac15.sol\":12619:12638  msg.sender == owner */\n      0xffffffffffffffffffffffffffffffffffffffff\n      and\n      eq\n        /* \"prac15.sol\":12597:12675  require(... */\n      tag_53\n      jumpi\n      mload(0x40)\n      0x08c379a000000000000000000000000000000000000000000000000000000000\n      dup2\n      mstore\n      0x04\n      add\n      tag_54\n      swap1\n      tag_55\n      jump\t// in\n    tag_54:\n      mload(0x40)\n      dup1\n      swap2\n      sub\n      swap1\n      revert\n    tag_53:\n        /* \"prac15.sol\":12843:12844  0 */\n      0x00\n        /* \"prac15.sol\":12836:12840  _age */\n      dup2\n        /* \"prac15.sol\":12836:12844  _age > 0 */\n      gt\n        /* \"prac15.sol\":12828:12860  require(_age > 0, \"Invalid age\") */\n      tag_57\n      jumpi\n      mload(0x40)\n      0x08c379a000000000000000000000000000000000000000000000000000000000\n      dup2\n      mstore\n      0x04\n      add\n      tag_58\n      swap1\n      tag_49\n      jump\t// in\n    tag_58:\n      mload(0x40)\n      dup1\n      swap2\n      sub\n      swap1\n      revert\n    tag_57:\n        /* \"prac15.sol\":12888:12904  User(_age, true) */\n      mload(0x40)\n      dup1\n      0x40\n      add\n      0x40\n      mstore\n      dup1\n        /* \"prac15.sol\":12893:12897  _age */\n      dup3\n        /* \"prac15.sol\":12888:12904  User(_age, true) */\n      dup2\n      mstore\n      0x20\n      add\n        /* \"prac15.sol\":12899:12903  true */\n      0x01\n        /* \"prac15.sol\":12888:12904  User(_age, true) */\n      iszero\n      iszero\n      dup2\n      mstore\n      pop\n        /* \"prac15.sol\":12873:12878  users */\n      0x00\n        /* \"prac15.sol\":12873:12885  users[_user] */\n      0x00\n        /* \"prac15.sol\":12879:12884  _user */\n      dup5\n        /* \"prac15.sol\":12873:12885  users[_user] */\n      0xffffffffffffffffffffffffffffffffffffffff\n      and\n      0xffffffffffffffffffffffffffffffffffffffff\n      and\n      dup2\n      mstore\n      0x20\n      add\n      swap1\n      dup2\n      mstore\n      0x20\n      add\n      0x00\n      keccak256\n        /* \"prac15.sol\":12873:12904  users[_user] = User(_age, true) */\n      0x00\n      dup3\n      add\n      mload\n      dup2\n      0x00\n      add\n      sstore\n      0x20\n      dup3\n      add\n      mload\n      dup2\n      0x01\n      add\n      exp(0x0100, 0x00)\n      dup2\n      sload\n      dup2\n      0xff\n      mul\n      not\n      and\n      swap1\n      dup4\n      iszero\n      iszero\n      mul\n      or\n      swap1\n      sstore\n      pop\n      swap1\n      pop\n      pop\n        /* \"prac15.sol\":12934:12939  _user */\n      dup2\n        /* \"prac15.sol\":12922:12946  UserCreated(_user, _age) */\n      0xffffffffffffffffffffffffffffffffffffffff\n      and\n      0xa27642fccf9a9a0a8a8e31188dfec60a6565c30a20ef3ed1eb3a779a79a36b2e\n        /* \"prac15.sol\":12941:12945  _age */\n      dup3\n        /* \"prac15.sol\":12922:12946  UserCreated(_user, _age) */\n      mload(0x40)\n      tag_59\n      swap2\n      swap1\n      tag_35\n      jump\t// in\n    tag_59:\n      mload(0x40)\n      dup1\n      swap2\n      sub\n      swap1\n      log2\n        /* \"prac15.sol\":12703:12954  function createUser(... */\n      pop\n      pop\n      jump\t// out\n        /* \"prac15.sol\":12164:12201  mapping(address => User) public users */\n    tag_28:\n      mstore(0x20, 0x00)\n      dup1\n      0x00\n      mstore\n      keccak256(0x00, 0x40)\n      0x00\n      swap2\n      pop\n      swap1\n      pop\n      dup1\n      0x00\n      add\n      sload\n      swap1\n      dup1\n      0x01\n      add\n      0x00\n      swap1\n      sload\n      swap1\n      0x0100\n      exp\n      swap1\n      div\n      0xff\n      and\n      swap1\n      pop\n      dup3\n      jump\t// out\n        /* \"prac15.sol\":13740:13990  function previewAgeIncrease(... */\n    tag_33:\n        /* \"prac15.sol\":13849:13856  uint256 */\n      0x00\n        /* \"prac15.sol\":13874:13890  User memory user */\n      0x00\n        /* \"prac15.sol\":13906:13911  users */\n      0x00\n        /* \"prac15.sol\":13906:13923  users[msg.sender] */\n      0x00\n        /* \"prac15.sol\":13912:13922  msg.sender */\n      caller\n        /* \"prac15.sol\":13906:13923  users[msg.sender] */\n      0xffffffffffffffffffffffffffffffffffffffff\n      and\n      0xffffffffffffffffffffffffffffffffffffffff\n      and\n      dup2\n      mstore\n      0x20\n      add\n      swap1\n      dup2\n      mstore\n      0x20\n      add\n      0x00\n      keccak256\n        /* \"prac15.sol\":13874:13923  User memory user =... */\n      mload(0x40)\n      dup1\n      0x40\n      add\n      0x40\n      mstore\n      swap1\n      dup2\n      0x00\n      dup3\n      add\n      sload\n      dup2\n      mstore\n      0x20\n      add\n      0x01\n      dup3\n      add\n      0x00\n      swap1\n      sload\n      swap1\n      0x0100\n      exp\n      swap1\n      div\n      0xff\n      and\n      iszero\n      iszero\n      iszero\n      iszero\n      dup2\n      mstore\n      pop\n      pop\n      swap1\n      pop\n        /* \"prac15.sol\":13947:13954  _newAge */\n      dup3\n        /* \"prac15.sol\":13936:13940  user */\n      dup2\n        /* \"prac15.sol\":13936:13944  user.age */\n      0x00\n      add\n        /* \"prac15.sol\":13936:13954  user.age = _newAge */\n      dup2\n      dup2\n      mstore\n      pop\n      pop\n        /* \"prac15.sol\":13974:13978  user */\n      dup1\n        /* \"prac15.sol\":13974:13982  user.age */\n      0x00\n      add\n      mload\n        /* \"prac15.sol\":13967:13982  return user.age */\n      swap2\n      pop\n      pop\n        /* \"prac15.sol\":13740:13990  function previewAgeIncrease(... */\n      swap2\n      swap1\n      pop\n      jump\t// out\n        /* \"prac15.sol\":13998:14273  function getMyData()... */\n    tag_37:\n        /* \"prac15.sol\":14081:14088  uint256 */\n      0x00\n        /* \"prac15.sol\":14103:14107  bool */\n      0x00\n        /* \"prac15.sol\":14135:14152  User storage user */\n      0x00\n        /* \"prac15.sol\":14168:14173  users */\n      0x00\n        /* \"prac15.sol\":14168:14185  users[msg.sender] */\n      0x00\n        /* \"prac15.sol\":14174:14184  msg.sender */\n      caller\n        /* \"prac15.sol\":14168:14185  users[msg.sender] */\n      0xffffffffffffffffffffffffffffffffffffffff\n      and\n      0xffffffffffffffffffffffffffffffffffffffff\n      and\n      dup2\n      mstore\n      0x20\n      add\n      swap1\n      dup2\n      mstore\n      0x20\n      add\n      0x00\n      keccak256\n        /* \"prac15.sol\":14135:14185  User storage user =... */\n      swap1\n      pop\n        /* \"prac15.sol\":14220:14224  user */\n      dup1\n        /* \"prac15.sol\":14220:14228  user.age */\n      0x00\n      add\n      sload\n        /* \"prac15.sol\":14243:14247  user */\n      dup2\n        /* \"prac15.sol\":14243:14254  user.active */\n      0x01\n      add\n      0x00\n      swap1\n      sload\n      swap1\n      0x0100\n      exp\n      swap1\n      div\n      0xff\n      and\n        /* \"prac15.sol\":14198:14265  return (... */\n      swap3\n      pop\n      swap3\n      pop\n      pop\n        /* \"prac15.sol\":13998:14273  function getMyData()... */\n      swap1\n      swap2\n      jump\t// out\n        /* \"#utility.yul\":88:205   */\n    tag_63:\n        /* \"#utility.yul\":197:198   */\n      0x00\n        /* \"#utility.yul\":194:195   */\n      0x00\n        /* \"#utility.yul\":187:199   */\n      revert\n        /* \"#utility.yul\":334:411   */\n    tag_65:\n        /* \"#utility.yul\":371:378   */\n      0x00\n        /* \"#utility.yul\":400:405   */\n      dup2\n        /* \"#utility.yul\":389:405   */\n      swap1\n      pop\n        /* \"#utility.yul\":334:411   */\n      swap2\n      swap1\n      pop\n      jump\t// out\n        /* \"#utility.yul\":417:539   */\n    tag_66:\n        /* \"#utility.yul\":490:514   */\n      tag_91\n        /* \"#utility.yul\":508:513   */\n      dup2\n        /* \"#utility.yul\":490:514   */\n      tag_65\n      jump\t// in\n    tag_91:\n        /* \"#utility.yul\":483:488   */\n      dup2\n        /* \"#utility.yul\":480:515   */\n      eq\n        /* \"#utility.yul\":470:533   */\n      tag_92\n      jumpi\n        /* \"#utility.yul\":529:530   */\n      0x00\n        /* \"#utility.yul\":526:527   */\n      0x00\n        /* \"#utility.yul\":519:531   */\n      revert\n        /* \"#utility.yul\":470:533   */\n    tag_92:\n        /* \"#utility.yul\":417:539   */\n      pop\n      jump\t// out\n        /* \"#utility.yul\":545:684   */\n    tag_67:\n        /* \"#utility.yul\":591:596   */\n      0x00\n        /* \"#utility.yul\":629:635   */\n      dup2\n        /* \"#utility.yul\":616:636   */\n      calldataload\n        /* \"#utility.yul\":607:636   */\n      swap1\n      pop\n        /* \"#utility.yul\":645:678   */\n      tag_94\n        /* \"#utility.yul\":672:677   */\n      dup2\n        /* \"#utility.yul\":645:678   */\n      tag_66\n      jump\t// in\n    tag_94:\n        /* \"#utility.yul\":545:684   */\n      swap3\n      swap2\n      pop\n      pop\n      jump\t// out\n        /* \"#utility.yul\":690:1019   */\n    tag_15:\n        /* \"#utility.yul\":749:755   */\n      0x00\n        /* \"#utility.yul\":798:800   */\n      0x20\n        /* \"#utility.yul\":786:795   */\n      dup3\n        /* \"#utility.yul\":777:784   */\n      dup5\n        /* \"#utility.yul\":773:796   */\n      sub\n        /* \"#utility.yul\":769:801   */\n      slt\n        /* \"#utility.yul\":766:885   */\n      iszero\n      tag_96\n      jumpi\n        /* \"#utility.yul\":804:883   */\n      tag_97\n      tag_63\n      jump\t// in\n    tag_97:\n        /* \"#utility.yul\":766:885   */\n    tag_96:\n        /* \"#utility.yul\":924:925   */\n      0x00\n        /* \"#utility.yul\":949:1002   */\n      tag_98\n        /* \"#utility.yul\":994:1001   */\n      dup5\n        /* \"#utility.yul\":985:991   */\n      dup3\n        /* \"#utility.yul\":974:983   */\n      dup6\n        /* \"#utility.yul\":970:992   */\n      add\n        /* \"#utility.yul\":949:1002   */\n      tag_67\n      jump\t// in\n    tag_98:\n        /* \"#utility.yul\":939:1002   */\n      swap2\n      pop\n        /* \"#utility.yul\":895:1012   */\n      pop\n        /* \"#utility.yul\":690:1019   */\n      swap3\n      swap2\n      pop\n      pop\n      jump\t// out\n        /* \"#utility.yul\":1025:1151   */\n    tag_68:\n        /* \"#utility.yul\":1062:1069   */\n      0x00\n        /* \"#utility.yul\":1102:1144   */\n      0xffffffffffffffffffffffffffffffffffffffff\n        /* \"#utility.yul\":1095:1100   */\n      dup3\n        /* \"#utility.yul\":1091:1145   */\n      and\n        /* \"#utility.yul\":1080:1145   */\n      swap1\n      pop\n        /* \"#utility.yul\":1025:1151   */\n      swap2\n      swap1\n      pop\n      jump\t// out\n        /* \"#utility.yul\":1157:1253   */\n    tag_69:\n        /* \"#utility.yul\":1194:1201   */\n      0x00\n        /* \"#utility.yul\":1223:1247   */\n      tag_101\n        /* \"#utility.yul\":1241:1246   */\n      dup3\n        /* \"#utility.yul\":1223:1247   */\n      tag_68\n      jump\t// in\n    tag_101:\n        /* \"#utility.yul\":1212:1247   */\n      swap1\n      pop\n        /* \"#utility.yul\":1157:1253   */\n      swap2\n      swap1\n      pop\n      jump\t// out\n        /* \"#utility.yul\":1259:1377   */\n    tag_70:\n        /* \"#utility.yul\":1346:1370   */\n      tag_103\n        /* \"#utility.yul\":1364:1369   */\n      dup2\n        /* \"#utility.yul\":1346:1370   */\n      tag_69\n      jump\t// in\n    tag_103:\n        /* \"#utility.yul\":1341:1344   */\n      dup3\n        /* \"#utility.yul\":1334:1371   */\n      mstore\n        /* \"#utility.yul\":1259:1377   */\n      pop\n      pop\n      jump\t// out\n        /* \"#utility.yul\":1383:1605   */\n    tag_20:\n        /* \"#utility.yul\":1476:1480   */\n      0x00\n        /* \"#utility.yul\":1514:1516   */\n      0x20\n        /* \"#utility.yul\":1503:1512   */\n      dup3\n        /* \"#utility.yul\":1499:1517   */\n      add\n        /* \"#utility.yul\":1491:1517   */\n      swap1\n      pop\n        /* \"#utility.yul\":1527:1598   */\n      tag_105\n        /* \"#utility.yul\":1595:1596   */\n      0x00\n        /* \"#utility.yul\":1584:1593   */\n      dup4\n        /* \"#utility.yul\":1580:1597   */\n      add\n        /* \"#utility.yul\":1571:1577   */\n      dup5\n        /* \"#utility.yul\":1527:1598   */\n      tag_70\n      jump\t// in\n    tag_105:\n        /* \"#utility.yul\":1383:1605   */\n      swap3\n      swap2\n      pop\n      pop\n      jump\t// out\n        /* \"#utility.yul\":1611:1733   */\n    tag_71:\n        /* \"#utility.yul\":1684:1708   */\n      tag_107\n        /* \"#utility.yul\":1702:1707   */\n      dup2\n        /* \"#utility.yul\":1684:1708   */\n      tag_69\n      jump\t// in\n    tag_107:\n        /* \"#utility.yul\":1677:1682   */\n      dup2\n        /* \"#utility.yul\":1674:1709   */\n      eq\n        /* \"#utility.yul\":1664:1727   */\n      tag_108\n      jumpi\n        /* \"#utility.yul\":1723:1724   */\n      0x00\n        /* \"#utility.yul\":1720:1721   */\n      0x00\n        /* \"#utility.yul\":1713:1725   */\n      revert\n        /* \"#utility.yul\":1664:1727   */\n    tag_108:\n        /* \"#utility.yul\":1611:1733   */\n      pop\n      jump\t// out\n        /* \"#utility.yul\":1739:1878   */\n    tag_72:\n        /* \"#utility.yul\":1785:1790   */\n      0x00\n        /* \"#utility.yul\":1823:1829   */\n      dup2\n        /* \"#utility.yul\":1810:1830   */\n      calldataload\n        /* \"#utility.yul\":1801:1830   */\n      swap1\n      pop\n        /* \"#utility.yul\":1839:1872   */\n      tag_110\n        /* \"#utility.yul\":1866:1871   */\n      dup2\n        /* \"#utility.yul\":1839:1872   */\n      tag_71\n      jump\t// in\n    tag_110:\n        /* \"#utility.yul\":1739:1878   */\n      swap3\n      swap2\n      pop\n      pop\n      jump\t// out\n        /* \"#utility.yul\":1884:2358   */\n    tag_23:\n        /* \"#utility.yul\":1952:1958   */\n      0x00\n        /* \"#utility.yul\":1960:1966   */\n      0x00\n        /* \"#utility.yul\":2009:2011   */\n      0x40\n        /* \"#utility.yul\":1997:2006   */\n      dup4\n        /* \"#utility.yul\":1988:1995   */\n      dup6\n        /* \"#utility.yul\":1984:2007   */\n      sub\n        /* \"#utility.yul\":1980:2012   */\n      slt\n        /* \"#utility.yul\":1977:2096   */\n      iszero\n      tag_112\n      jumpi\n        /* \"#utility.yul\":2015:2094   */\n      tag_113\n      tag_63\n      jump\t// in\n    tag_113:\n        /* \"#utility.yul\":1977:2096   */\n    tag_112:\n        /* \"#utility.yul\":2135:2136   */\n      0x00\n        /* \"#utility.yul\":2160:2213   */\n      tag_114\n        /* \"#utility.yul\":2205:2212   */\n      dup6\n        /* \"#utility.yul\":2196:2202   */\n      dup3\n        /* \"#utility.yul\":2185:2194   */\n      dup7\n        /* \"#utility.yul\":2181:2203   */\n      add\n        /* \"#utility.yul\":2160:2213   */\n      tag_72\n      jump\t// in\n    tag_114:\n        /* \"#utility.yul\":2150:2213   */\n      swap3\n      pop\n        /* \"#utility.yul\":2106:2223   */\n      pop\n        /* \"#utility.yul\":2262:2264   */\n      0x20\n        /* \"#utility.yul\":2288:2341   */\n      tag_115\n        /* \"#utility.yul\":2333:2340   */\n      dup6\n        /* \"#utility.yul\":2324:2330   */\n      dup3\n        /* \"#utility.yul\":2313:2322   */\n      dup7\n        /* \"#utility.yul\":2309:2331   */\n      add\n        /* \"#utility.yul\":2288:2341   */\n      tag_67\n      jump\t// in\n    tag_115:\n        /* \"#utility.yul\":2278:2341   */\n      swap2\n      pop\n        /* \"#utility.yul\":2233:2351   */\n      pop\n        /* \"#utility.yul\":1884:2358   */\n      swap3\n      pop\n      swap3\n      swap1\n      pop\n      jump\t// out\n        /* \"#utility.yul\":2364:2693   */\n    tag_27:\n        /* \"#utility.yul\":2423:2429   */\n      0x00\n        /* \"#utility.yul\":2472:2474   */\n      0x20\n        /* \"#utility.yul\":2460:2469   */\n      dup3\n        /* \"#utility.yul\":2451:2458   */\n      dup5\n        /* \"#utility.yul\":2447:2470   */\n      sub\n        /* \"#utility.yul\":2443:2475   */\n      slt\n        /* \"#utility.yul\":2440:2559   */\n      iszero\n      tag_117\n      jumpi\n        /* \"#utility.yul\":2478:2557   */\n      tag_118\n      tag_63\n      jump\t// in\n    tag_118:\n        /* \"#utility.yul\":2440:2559   */\n    tag_117:\n        /* \"#utility.yul\":2598:2599   */\n      0x00\n        /* \"#utility.yul\":2623:2676   */\n      tag_119\n        /* \"#utility.yul\":2668:2675   */\n      dup5\n        /* \"#utility.yul\":2659:2665   */\n      dup3\n        /* \"#utility.yul\":2648:2657   */\n      dup6\n        /* \"#utility.yul\":2644:2666   */\n      add\n        /* \"#utility.yul\":2623:2676   */\n      tag_72\n      jump\t// in\n    tag_119:\n        /* \"#utility.yul\":2613:2676   */\n      swap2\n      pop\n        /* \"#utility.yul\":2569:2686   */\n      pop\n        /* \"#utility.yul\":2364:2693   */\n      swap3\n      swap2\n      pop\n      pop\n      jump\t// out\n        /* \"#utility.yul\":2699:2817   */\n    tag_73:\n        /* \"#utility.yul\":2786:2810   */\n      tag_121\n        /* \"#utility.yul\":2804:2809   */\n      dup2\n        /* \"#utility.yul\":2786:2810   */\n      tag_65\n      jump\t// in\n    tag_121:\n        /* \"#utility.yul\":2781:2784   */\n      dup3\n        /* \"#utility.yul\":2774:2811   */\n      mstore\n        /* \"#utility.yul\":2699:2817   */\n      pop\n      pop\n      jump\t// out\n        /* \"#utility.yul\":2823:2913   */\n    tag_74:\n        /* \"#utility.yul\":2857:2864   */\n      0x00\n        /* \"#utility.yul\":2900:2905   */\n      dup2\n        /* \"#utility.yul\":2893:2906   */\n      iszero\n        /* \"#utility.yul\":2886:2907   */\n      iszero\n        /* \"#utility.yul\":2875:2907   */\n      swap1\n      pop\n        /* \"#utility.yul\":2823:2913   */\n      swap2\n      swap1\n      pop\n      jump\t// out\n        /* \"#utility.yul\":2919:3028   */\n    tag_75:\n        /* \"#utility.yul\":3000:3021   */\n      tag_124\n        /* \"#utility.yul\":3015:3020   */\n      dup2\n        /* \"#utility.yul\":3000:3021   */\n      tag_74\n      jump\t// in\n    tag_124:\n        /* \"#utility.yul\":2995:2998   */\n      dup3\n        /* \"#utility.yul\":2988:3022   */\n      mstore\n        /* \"#utility.yul\":2919:3028   */\n      pop\n      pop\n      jump\t// out\n        /* \"#utility.yul\":3034:3354   */\n    tag_30:\n        /* \"#utility.yul\":3149:3153   */\n      0x00\n        /* \"#utility.yul\":3187:3189   */\n      0x40\n        /* \"#utility.yul\":3176:3185   */\n      dup3\n        /* \"#utility.yul\":3172:3190   */\n      add\n        /* \"#utility.yul\":3164:3190   */\n      swap1\n      pop\n        /* \"#utility.yul\":3200:3271   */\n      tag_126\n        /* \"#utility.yul\":3268:3269   */\n      0x00\n        /* \"#utility.yul\":3257:3266   */\n      dup4\n        /* \"#utility.yul\":3253:3270   */\n      add\n        /* \"#utility.yul\":3244:3250   */\n      dup6\n        /* \"#utility.yul\":3200:3271   */\n      tag_73\n      jump\t// in\n    tag_126:\n        /* \"#utility.yul\":3281:3347   */\n      tag_127\n        /* \"#utility.yul\":3343:3345   */\n      0x20\n        /* \"#utility.yul\":3332:3341   */\n      dup4\n        /* \"#utility.yul\":3328:3346   */\n      add\n        /* \"#utility.yul\":3319:3325   */\n      dup5\n        /* \"#utility.yul\":3281:3347   */\n      tag_75\n      jump\t// in\n    tag_127:\n        /* \"#utility.yul\":3034:3354   */\n      swap4\n      swap3\n      pop\n      pop\n      pop\n      jump\t// out\n        /* \"#utility.yul\":3360:3582   */\n    tag_35:\n        /* \"#utility.yul\":3453:3457   */\n      0x00\n        /* \"#utility.yul\":3491:3493   */\n      0x20\n        /* \"#utility.yul\":3480:3489   */\n      dup3\n        /* \"#utility.yul\":3476:3494   */\n      add\n        /* \"#utility.yul\":3468:3494   */\n      swap1\n      pop\n        /* \"#utility.yul\":3504:3575   */\n      tag_129\n        /* \"#utility.yul\":3572:3573   */\n      0x00\n        /* \"#utility.yul\":3561:3570   */\n      dup4\n        /* \"#utility.yul\":3557:3574   */\n      add\n        /* \"#utility.yul\":3548:3554   */\n      dup5\n        /* \"#utility.yul\":3504:3575   */\n      tag_73\n      jump\t// in\n    tag_129:\n        /* \"#utility.yul\":3360:3582   */\n      swap3\n      swap2\n      pop\n      pop\n      jump\t// out\n        /* \"#utility.yul\":3588:3757   */\n    tag_76:\n        /* \"#utility.yul\":3672:3683   */\n      0x00\n        /* \"#utility.yul\":3706:3712   */\n      dup3\n        /* \"#utility.yul\":3701:3704   */\n      dup3\n        /* \"#utility.yul\":3694:3713   */\n      mstore\n        /* \"#utility.yul\":3746:3750   */\n      0x20\n        /* \"#utility.yul\":3741:3744   */\n      dup3\n        /* \"#utility.yul\":3737:3751   */\n      add\n        /* \"#utility.yul\":3722:3751   */\n      swap1\n      pop\n        /* \"#utility.yul\":3588:3757   */\n      swap3\n      swap2\n      pop\n      pop\n      jump\t// out\n        /* \"#utility.yul\":3763:3929   */\n    tag_77:\n        /* \"#utility.yul\":3903:3921   */\n      0x416c726561647920696e61637469766500000000000000000000000000000000\n        /* \"#utility.yul\":3899:3900   */\n      0x00\n        /* \"#utility.yul\":3891:3897   */\n      dup3\n        /* \"#utility.yul\":3887:3901   */\n      add\n        /* \"#utility.yul\":3880:3922   */\n      mstore\n        /* \"#utility.yul\":3763:3929   */\n      pop\n      jump\t// out\n        /* \"#utility.yul\":3935:4301   */\n    tag_78:\n        /* \"#utility.yul\":4077:4080   */\n      0x00\n        /* \"#utility.yul\":4098:4165   */\n      tag_133\n        /* \"#utility.yul\":4162:4164   */\n      0x10\n        /* \"#utility.yul\":4157:4160   */\n      dup4\n        /* \"#utility.yul\":4098:4165   */\n      tag_76\n      jump\t// in\n    tag_133:\n        /* \"#utility.yul\":4091:4165   */\n      swap2\n      pop\n        /* \"#utility.yul\":4174:4267   */\n      tag_134\n        /* \"#utility.yul\":4263:4266   */\n      dup3\n        /* \"#utility.yul\":4174:4267   */\n      tag_77\n      jump\t// in\n    tag_134:\n        /* \"#utility.yul\":4292:4294   */\n      0x20\n        /* \"#utility.yul\":4287:4290   */\n      dup3\n        /* \"#utility.yul\":4283:4295   */\n      add\n        /* \"#utility.yul\":4276:4295   */\n      swap1\n      pop\n        /* \"#utility.yul\":3935:4301   */\n      swap2\n      swap1\n      pop\n      jump\t// out\n        /* \"#utility.yul\":4307:4726   */\n    tag_42:\n        /* \"#utility.yul\":4473:4477   */\n      0x00\n        /* \"#utility.yul\":4511:4513   */\n      0x20\n        /* \"#utility.yul\":4500:4509   */\n      dup3\n        /* \"#utility.yul\":4496:4514   */\n      add\n        /* \"#utility.yul\":4488:4514   */\n      swap1\n      pop\n        /* \"#utility.yul\":4560:4569   */\n      dup2\n        /* \"#utility.yul\":4554:4558   */\n      dup2\n        /* \"#utility.yul\":4550:4570   */\n      sub\n        /* \"#utility.yul\":4546:4547   */\n      0x00\n        /* \"#utility.yul\":4535:4544   */\n      dup4\n        /* \"#utility.yul\":4531:4548   */\n      add\n        /* \"#utility.yul\":4524:4571   */\n      mstore\n        /* \"#utility.yul\":4588:4719   */\n      tag_136\n        /* \"#utility.yul\":4714:4718   */\n      dup2\n        /* \"#utility.yul\":4588:4719   */\n      tag_78\n      jump\t// in\n    tag_136:\n        /* \"#utility.yul\":4580:4719   */\n      swap1\n      pop\n        /* \"#utility.yul\":4307:4726   */\n      swap2\n      swap1\n      pop\n      jump\t// out\n        /* \"#utility.yul\":4732:4897   */\n    tag_79:\n        /* \"#utility.yul\":4872:4889   */\n      0x55736572206e6f74206163746976650000000000000000000000000000000000\n        /* \"#utility.yul\":4868:4869   */\n      0x00\n        /* \"#utility.yul\":4860:4866   */\n      dup3\n        /* \"#utility.yul\":4856:4870   */\n      add\n        /* \"#utility.yul\":4849:4890   */\n      mstore\n        /* \"#utility.yul\":4732:4897   */\n      pop\n      jump\t// out\n        /* \"#utility.yul\":4903:5269   */\n    tag_80:\n        /* \"#utility.yul\":5045:5048   */\n      0x00\n        /* \"#utility.yul\":5066:5133   */\n      tag_139\n        /* \"#utility.yul\":5130:5132   */\n      0x0f\n        /* \"#utility.yul\":5125:5128   */\n      dup4\n        /* \"#utility.yul\":5066:5133   */\n      tag_76\n      jump\t// in\n    tag_139:\n        /* \"#utility.yul\":5059:5133   */\n      swap2\n      pop\n        /* \"#utility.yul\":5142:5235   */\n      tag_140\n        /* \"#utility.yul\":5231:5234   */\n      dup3\n        /* \"#utility.yul\":5142:5235   */\n      tag_79\n      jump\t// in\n    tag_140:\n        /* \"#utility.yul\":5260:5262   */\n      0x20\n        /* \"#utility.yul\":5255:5258   */\n      dup3\n        /* \"#utility.yul\":5251:5263   */\n      add\n        /* \"#utility.yul\":5244:5263   */\n      swap1\n      pop\n        /* \"#utility.yul\":4903:5269   */\n      swap2\n      swap1\n      pop\n      jump\t// out\n        /* \"#utility.yul\":5275:5694   */\n    tag_46:\n        /* \"#utility.yul\":5441:5445   */\n      0x00\n        /* \"#utility.yul\":5479:5481   */\n      0x20\n        /* \"#utility.yul\":5468:5477   */\n      dup3\n        /* \"#utility.yul\":5464:5482   */\n      add\n        /* \"#utility.yul\":5456:5482   */\n      swap1\n      pop\n        /* \"#utility.yul\":5528:5537   */\n      dup2\n        /* \"#utility.yul\":5522:5526   */\n      dup2\n        /* \"#utility.yul\":5518:5538   */\n      sub\n        /* \"#utility.yul\":5514:5515   */\n      0x00\n        /* \"#utility.yul\":5503:5512   */\n      dup4\n        /* \"#utility.yul\":5499:5516   */\n      add\n        /* \"#utility.yul\":5492:5539   */\n      mstore\n        /* \"#utility.yul\":5556:5687   */\n      tag_142\n        /* \"#utility.yul\":5682:5686   */\n      dup2\n        /* \"#utility.yul\":5556:5687   */\n      tag_80\n      jump\t// in\n    tag_142:\n        /* \"#utility.yul\":5548:5687   */\n      swap1\n      pop\n        /* \"#utility.yul\":5275:5694   */\n      swap2\n      swap1\n      pop\n      jump\t// out\n        /* \"#utility.yul\":5700:5861   */\n    tag_81:\n        /* \"#utility.yul\":5840:5853   */\n      0x496e76616c696420616765000000000000000000000000000000000000000000\n        /* \"#utility.yul\":5836:5837   */\n      0x00\n        /* \"#utility.yul\":5828:5834   */\n      dup3\n        /* \"#utility.yul\":5824:5838   */\n      add\n        /* \"#utility.yul\":5817:5854   */\n      mstore\n        /* \"#utility.yul\":5700:5861   */\n      pop\n      jump\t// out\n        /* \"#utility.yul\":5867:6233   */\n    tag_82:\n        /* \"#utility.yul\":6009:6012   */\n      0x00\n        /* \"#utility.yul\":6030:6097   */\n      tag_145\n        /* \"#utility.yul\":6094:6096   */\n      0x0b\n        /* \"#utility.yul\":6089:6092   */\n      dup4\n        /* \"#utility.yul\":6030:6097   */\n      tag_76\n      jump\t// in\n    tag_145:\n        /* \"#utility.yul\":6023:6097   */\n      swap2\n      pop\n        /* \"#utility.yul\":6106:6199   */\n      tag_146\n        /* \"#utility.yul\":6195:6198   */\n      dup3\n        /* \"#utility.yul\":6106:6199   */\n      tag_81\n      jump\t// in\n    tag_146:\n        /* \"#utility.yul\":6224:6226   */\n      0x20\n        /* \"#utility.yul\":6219:6222   */\n      dup3\n        /* \"#utility.yul\":6215:6227   */\n      add\n        /* \"#utility.yul\":6208:6227   */\n      swap1\n      pop\n        /* \"#utility.yul\":5867:6233   */\n      swap2\n      swap1\n      pop\n      jump\t// out\n        /* \"#utility.yul\":6239:6658   */\n    tag_49:\n        /* \"#utility.yul\":6405:6409   */\n      0x00\n        /* \"#utility.yul\":6443:6445   */\n      0x20\n        /* \"#utility.yul\":6432:6441   */\n      dup3\n        /* \"#utility.yul\":6428:6446   */\n      add\n        /* \"#utility.yul\":6420:6446   */\n      swap1\n      pop\n        /* \"#utility.yul\":6492:6501   */\n      dup2\n        /* \"#utility.yul\":6486:6490   */\n      dup2\n        /* \"#utility.yul\":6482:6502   */\n      sub\n        /* \"#utility.yul\":6478:6479   */\n      0x00\n        /* \"#utility.yul\":6467:6476   */\n      dup4\n        /* \"#utility.yul\":6463:6480   */\n      add\n        /* \"#utility.yul\":6456:6503   */\n      mstore\n        /* \"#utility.yul\":6520:6651   */\n      tag_148\n        /* \"#utility.yul\":6646:6650   */\n      dup2\n        /* \"#utility.yul\":6520:6651   */\n      tag_82\n      jump\t// in\n    tag_148:\n        /* \"#utility.yul\":6512:6651   */\n      swap1\n      pop\n        /* \"#utility.yul\":6239:6658   */\n      swap2\n      swap1\n      pop\n      jump\t// out\n        /* \"#utility.yul\":6664:6996   */\n    tag_51:\n        /* \"#utility.yul\":6785:6789   */\n      0x00\n        /* \"#utility.yul\":6823:6825   */\n      0x40\n        /* \"#utility.yul\":6812:6821   */\n      dup3\n        /* \"#utility.yul\":6808:6826   */\n      add\n        /* \"#utility.yul\":6800:6826   */\n      swap1\n      pop\n        /* \"#utility.yul\":6836:6907   */\n      tag_150\n        /* \"#utility.yul\":6904:6905   */\n      0x00\n        /* \"#utility.yul\":6893:6902   */\n      dup4\n        /* \"#utility.yul\":6889:6906   */\n      add\n        /* \"#utility.yul\":6880:6886   */\n      dup6\n        /* \"#utility.yul\":6836:6907   */\n      tag_73\n      jump\t// in\n    tag_150:\n        /* \"#utility.yul\":6917:6989   */\n      tag_151\n        /* \"#utility.yul\":6985:6987   */\n      0x20\n        /* \"#utility.yul\":6974:6983   */\n      dup4\n        /* \"#utility.yul\":6970:6988   */\n      add\n        /* \"#utility.yul\":6961:6967   */\n      dup5\n        /* \"#utility.yul\":6917:6989   */\n      tag_73\n      jump\t// in\n    tag_151:\n        /* \"#utility.yul\":6664:6996   */\n      swap4\n      swap3\n      pop\n      pop\n      pop\n      jump\t// out\n        /* \"#utility.yul\":7002:7161   */\n    tag_83:\n        /* \"#utility.yul\":7142:7153   */\n      0x4e6f74206f776e65720000000000000000000000000000000000000000000000\n        /* \"#utility.yul\":7138:7139   */\n      0x00\n        /* \"#utility.yul\":7130:7136   */\n      dup3\n        /* \"#utility.yul\":7126:7140   */\n      add\n        /* \"#utility.yul\":7119:7154   */\n      mstore\n        /* \"#utility.yul\":7002:7161   */\n      pop\n      jump\t// out\n        /* \"#utility.yul\":7167:7532   */\n    tag_84:\n        /* \"#utility.yul\":7309:7312   */\n      0x00\n        /* \"#utility.yul\":7330:7396   */\n      tag_154\n        /* \"#utility.yul\":7394:7395   */\n      0x09\n        /* \"#utility.yul\":7389:7392   */\n      dup4\n        /* \"#utility.yul\":7330:7396   */\n      tag_76\n      jump\t// in\n    tag_154:\n        /* \"#utility.yul\":7323:7396   */\n      swap2\n      pop\n        /* \"#utility.yul\":7405:7498   */\n      tag_155\n        /* \"#utility.yul\":7494:7497   */\n      dup3\n        /* \"#utility.yul\":7405:7498   */\n      tag_83\n      jump\t// in\n    tag_155:\n        /* \"#utility.yul\":7523:7525   */\n      0x20\n        /* \"#utility.yul\":7518:7521   */\n      dup3\n        /* \"#utility.yul\":7514:7526   */\n      add\n        /* \"#utility.yul\":7507:7526   */\n      swap1\n      pop\n        /* \"#utility.yul\":7167:7532   */\n      swap2\n      swap1\n      pop\n      jump\t// out\n        /* \"#utility.yul\":7538:7957   */\n    tag_55:\n        /* \"#utility.yul\":7704:7708   */\n      0x00\n        /* \"#utility.yul\":7742:7744   */\n      0x20\n        /* \"#utility.yul\":7731:7740   */\n      dup3\n        /* \"#utility.yul\":7727:7745   */\n      add\n        /* \"#utility.yul\":7719:7745   */\n      swap1\n      pop\n        /* \"#utility.yul\":7791:7800   */\n      dup2\n        /* \"#utility.yul\":7785:7789   */\n      dup2\n        /* \"#utility.yul\":7781:7801   */\n      sub\n        /* \"#utility.yul\":7777:7778   */\n      0x00\n        /* \"#utility.yul\":7766:7775   */\n      dup4\n        /* \"#utility.yul\":7762:7779   */\n      add\n        /* \"#utility.yul\":7755:7802   */\n      mstore\n        /* \"#utility.yul\":7819:7950   */\n      tag_157\n        /* \"#utility.yul\":7945:7949   */\n      dup2\n        /* \"#utility.yul\":7819:7950   */\n      tag_84\n      jump\t// in\n    tag_157:\n        /* \"#utility.yul\":7811:7950   */\n      swap1\n      pop\n        /* \"#utility.yul\":7538:7957   */\n      swap2\n      swap1\n      pop\n      jump\t// out\n\n    auxdata: 0xa26469706673582212206395c8d2500725d841265ea79d29e6142cf5cbde1af8fb67c1e1cdcfd45060a164736f6c63430008220033\n}\n",
				"bytecode": {
					"linkReferences": {},
					"object": "6080604052348015600e575f5ffd5b503360015f6101000a81548173ffffffffffffffffffffffffffffffffffffffff021916908373ffffffffffffffffffffffffffffffffffffffff160217905550610a1a8061005c5f395ff3fe608060405234801561000f575f5ffd5b506004361061007b575f3560e01c806393dfc8eb1161005957806393dfc8eb146100c3578063a87430ba146100df578063ce714f8414610110578063d9c8a38b146101405761007b565b806355ea20001461007f5780637d625c07146100895780638da5cb5b146100a5575b5f5ffd5b61008761015f565b005b6100a3600480360381019061009e919061068e565b61024f565b005b6100ad610384565b6040516100ba91906106f8565b60405180910390f35b6100dd60048036038101906100d8919061073b565b6103a9565b005b6100f960048036038101906100f49190610779565b61054a565b6040516101079291906107cd565b60405180910390f35b61012a6004803603810190610125919061068e565b610575565b60405161013791906107f4565b60405180910390f35b6101486105f8565b6040516101569291906107cd565b60405180910390f35b5f5f5f3373ffffffffffffffffffffffffffffffffffffffff1673ffffffffffffffffffffffffffffffffffffffff1681526020019081526020015f209050806001015f9054906101000a900460ff166101ee576040517f08c379a00000000000000000000000000000000000000000000000000000000081526004016101e590610867565b60405180910390fd5b5f816001015f6101000a81548160ff0219169083151502179055503373ffffffffffffffffffffffffffffffffffffffff167f5554feec4e87bc4eba14bd62f71df68156f97d26128616fbc27d28e33b35a6b460405160405180910390a250565b5f5f5f3373ffffffffffffffffffffffffffffffffffffffff1673ffffffffffffffffffffffffffffffffffffffff1681526020019081526020015f209050806001015f9054906101000a900460ff166102de576040517f08c379a00000000000000000000000000000000000000000000000000000000081526004016102d5906108cf565b60405180910390fd5b5f8211610320576040517f08c379a000000000000000000000000000000000000000000000000000000000815260040161031790610937565b60405180910390fd5b5f815f0154905082825f01819055503373ffffffffffffffffffffffffffffffffffffffff167fd49110ac15d15bf795fa6b85bb9265d54a985b63ae82b886adfb1279137656bd8285604051610377929190610955565b60405180910390a2505050565b60015f9054906101000a900473ffffffffffffffffffffffffffffffffffffffff1681565b60015f9054906101000a900473ffffffffffffffffffffffffffffffffffffffff1673ffffffffffffffffffffffffffffffffffffffff163373ffffffffffffffffffffffffffffffffffffffff1614610438576040517f08c379a000000000000000000000000000000000000000000000000000000000815260040161042f906109c6565b60405180910390fd5b5f811161047a576040517f08c379a000000000000000000000000000000000000000000000000000000000815260040161047190610937565b60405180910390fd5b6040518060400160405280828152602001600115158152505f5f8473ffffffffffffffffffffffffffffffffffffffff1673ffffffffffffffffffffffffffffffffffffffff1681526020019081526020015f205f820151815f01556020820151816001015f6101000a81548160ff0219169083151502179055509050508173ffffffffffffffffffffffffffffffffffffffff167fa27642fccf9a9a0a8a8e31188dfec60a6565c30a20ef3ed1eb3a779a79a36b2e8260405161053e91906107f4565b60405180910390a25050565b5f602052805f5260405f205f91509050805f015490806001015f9054906101000a900460ff16905082565b5f5f5f5f3373ffffffffffffffffffffffffffffffffffffffff1673ffffffffffffffffffffffffffffffffffffffff1681526020019081526020015f206040518060400160405290815f8201548152602001600182015f9054906101000a900460ff161515151581525050905082815f018181525050805f0151915050919050565b5f5f5f5f5f3373ffffffffffffffffffffffffffffffffffffffff1673ffffffffffffffffffffffffffffffffffffffff1681526020019081526020015f209050805f0154816001015f9054906101000a900460ff1692509250509091565b5f5ffd5b5f819050919050565b61066d8161065b565b8114610677575f5ffd5b50565b5f8135905061068881610664565b92915050565b5f602082840312156106a3576106a2610657565b5b5f6106b08482850161067a565b91505092915050565b5f73ffffffffffffffffffffffffffffffffffffffff82169050919050565b5f6106e2826106b9565b9050919050565b6106f2816106d8565b82525050565b5f60208201905061070b5f8301846106e9565b92915050565b61071a816106d8565b8114610724575f5ffd5b50565b5f8135905061073581610711565b92915050565b5f5f6040838503121561075157610750610657565b5b5f61075e85828601610727565b925050602061076f8582860161067a565b9150509250929050565b5f6020828403121561078e5761078d610657565b5b5f61079b84828501610727565b91505092915050565b6107ad8161065b565b82525050565b5f8115159050919050565b6107c7816107b3565b82525050565b5f6040820190506107e05f8301856107a4565b6107ed60208301846107be565b9392505050565b5f6020820190506108075f8301846107a4565b92915050565b5f82825260208201905092915050565b7f416c726561647920696e616374697665000000000000000000000000000000005f82015250565b5f61085160108361080d565b915061085c8261081d565b602082019050919050565b5f6020820190508181035f83015261087e81610845565b9050919050565b7f55736572206e6f742061637469766500000000000000000000000000000000005f82015250565b5f6108b9600f8361080d565b91506108c482610885565b602082019050919050565b5f6020820190508181035f8301526108e6816108ad565b9050919050565b7f496e76616c6964206167650000000000000000000000000000000000000000005f82015250565b5f610921600b8361080d565b915061092c826108ed565b602082019050919050565b5f6020820190508181035f83015261094e81610915565b9050919050565b5f6040820190506109685f8301856107a4565b61097560208301846107a4565b9392505050565b7f4e6f74206f776e657200000000000000000000000000000000000000000000005f82015250565b5f6109b060098361080d565b91506109bb8261097c565b602082019050919050565b5f6020820190508181035f8301526109dd816109a4565b905091905056fea26469706673582212206395c8d2500725d841265ea79d29e6142cf5cbde1af8fb67c1e1cdcfd45060a164736f6c63430008220033",
					"opcodes": "PUSH1 0x80 PUSH1 0x40 MSTORE CALLVALUE DUP1 ISZERO PUSH1 0xE JUMPI PUSH0 PUSH0 REVERT JUMPDEST POP CALLER PUSH1 0x1 PUSH0 PUSH2 0x100 EXP DUP2 SLOAD DUP2 PUSH20 0xFFFFFFFFFFFFFFFFFFFFFFFFFFFFFFFFFFFFFFFF MUL NOT AND SWAP1 DUP4 PUSH20 0xFFFFFFFFFFFFFFFFFFFFFFFFFFFFFFFFFFFFFFFF AND MUL OR SWAP1 SSTORE POP PUSH2 0xA1A DUP1 PUSH2 0x5C PUSH0 CODECOPY PUSH0 RETURN INVALID PUSH1 0x80 PUSH1 0x40 MSTORE CALLVALUE DUP1 ISZERO PUSH2 0xF JUMPI PUSH0 PUSH0 REVERT JUMPDEST POP PUSH1 0x4 CALLDATASIZE LT PUSH2 0x7B JUMPI PUSH0 CALLDATALOAD PUSH1 0xE0 SHR DUP1 PUSH4 0x93DFC8EB GT PUSH2 0x59 JUMPI DUP1 PUSH4 0x93DFC8EB EQ PUSH2 0xC3 JUMPI DUP1 PUSH4 0xA87430BA EQ PUSH2 0xDF JUMPI DUP1 PUSH4 0xCE714F84 EQ PUSH2 0x110 JUMPI DUP1 PUSH4 0xD9C8A38B EQ PUSH2 0x140 JUMPI PUSH2 0x7B JUMP JUMPDEST DUP1 PUSH4 0x55EA2000 EQ PUSH2 0x7F JUMPI DUP1 PUSH4 0x7D625C07 EQ PUSH2 0x89 JUMPI DUP1 PUSH4 0x8DA5CB5B EQ PUSH2 0xA5 JUMPI JUMPDEST PUSH0 PUSH0 REVERT JUMPDEST PUSH2 0x87 PUSH2 0x15F JUMP JUMPDEST STOP JUMPDEST PUSH2 0xA3 PUSH1 0x4 DUP1 CALLDATASIZE SUB DUP2 ADD SWAP1 PUSH2 0x9E SWAP2 SWAP1 PUSH2 0x68E JUMP JUMPDEST PUSH2 0x24F JUMP JUMPDEST STOP JUMPDEST PUSH2 0xAD PUSH2 0x384 JUMP JUMPDEST PUSH1 0x40 MLOAD PUSH2 0xBA SWAP2 SWAP1 PUSH2 0x6F8 JUMP JUMPDEST PUSH1 0x40 MLOAD DUP1 SWAP2 SUB SWAP1 RETURN JUMPDEST PUSH2 0xDD PUSH1 0x4 DUP1 CALLDATASIZE SUB DUP2 ADD SWAP1 PUSH2 0xD8 SWAP2 SWAP1 PUSH2 0x73B JUMP JUMPDEST PUSH2 0x3A9 JUMP JUMPDEST STOP JUMPDEST PUSH2 0xF9 PUSH1 0x4 DUP1 CALLDATASIZE SUB DUP2 ADD SWAP1 PUSH2 0xF4 SWAP2 SWAP1 PUSH2 0x779 JUMP JUMPDEST PUSH2 0x54A JUMP JUMPDEST PUSH1 0x40 MLOAD PUSH2 0x107 SWAP3 SWAP2 SWAP1 PUSH2 0x7CD JUMP JUMPDEST PUSH1 0x40 MLOAD DUP1 SWAP2 SUB SWAP1 RETURN JUMPDEST PUSH2 0x12A PUSH1 0x4 DUP1 CALLDATASIZE SUB DUP2 ADD SWAP1 PUSH2 0x125 SWAP2 SWAP1 PUSH2 0x68E JUMP JUMPDEST PUSH2 0x575 JUMP JUMPDEST PUSH1 0x40 MLOAD PUSH2 0x137 SWAP2 SWAP1 PUSH2 0x7F4 JUMP JUMPDEST PUSH1 0x40 MLOAD DUP1 SWAP2 SUB SWAP1 RETURN JUMPDEST PUSH2 0x148 PUSH2 0x5F8 JUMP JUMPDEST PUSH1 0x40 MLOAD PUSH2 0x156 SWAP3 SWAP2 SWAP1 PUSH2 0x7CD JUMP JUMPDEST PUSH1 0x40 MLOAD DUP1 SWAP2 SUB SWAP1 RETURN JUMPDEST PUSH0 PUSH0 PUSH0 CALLER PUSH20 0xFFFFFFFFFFFFFFFFFFFFFFFFFFFFFFFFFFFFFFFF AND PUSH20 0xFFFFFFFFFFFFFFFFFFFFFFFFFFFFFFFFFFFFFFFF AND DUP2 MSTORE PUSH1 0x20 ADD SWAP1 DUP2 MSTORE PUSH1 0x20 ADD PUSH0 KECCAK256 SWAP1 POP DUP1 PUSH1 0x1 ADD PUSH0 SWAP1 SLOAD SWAP1 PUSH2 0x100 EXP SWAP1 DIV PUSH1 0xFF AND PUSH2 0x1EE JUMPI PUSH1 0x40 MLOAD PUSH32 0x8C379A000000000000000000000000000000000000000000000000000000000 DUP2 MSTORE PUSH1 0x4 ADD PUSH2 0x1E5 SWAP1 PUSH2 0x867 JUMP JUMPDEST PUSH1 0x40 MLOAD DUP1 SWAP2 SUB SWAP1 REVERT JUMPDEST PUSH0 DUP2 PUSH1 0x1 ADD PUSH0 PUSH2 0x100 EXP DUP2 SLOAD DUP2 PUSH1 0xFF MUL NOT AND SWAP1 DUP4 ISZERO ISZERO MUL OR SWAP1 SSTORE POP CALLER PUSH20 0xFFFFFFFFFFFFFFFFFFFFFFFFFFFFFFFFFFFFFFFF AND PUSH32 0x5554FEEC4E87BC4EBA14BD62F71DF68156F97D26128616FBC27D28E33B35A6B4 PUSH1 0x40 MLOAD PUSH1 0x40 MLOAD DUP1 SWAP2 SUB SWAP1 LOG2 POP JUMP JUMPDEST PUSH0 PUSH0 PUSH0 CALLER PUSH20 0xFFFFFFFFFFFFFFFFFFFFFFFFFFFFFFFFFFFFFFFF AND PUSH20 0xFFFFFFFFFFFFFFFFFFFFFFFFFFFFFFFFFFFFFFFF AND DUP2 MSTORE PUSH1 0x20 ADD SWAP1 DUP2 MSTORE PUSH1 0x20 ADD PUSH0 KECCAK256 SWAP1 POP DUP1 PUSH1 0x1 ADD PUSH0 SWAP1 SLOAD SWAP1 PUSH2 0x100 EXP SWAP1 DIV PUSH1 0xFF AND PUSH2 0x2DE JUMPI PUSH1 0x40 MLOAD PUSH32 0x8C379A000000000000000000000000000000000000000000000000000000000 DUP2 MSTORE PUSH1 0x4 ADD PUSH2 0x2D5 SWAP1 PUSH2 0x8CF JUMP JUMPDEST PUSH1 0x40 MLOAD DUP1 SWAP2 SUB SWAP1 REVERT JUMPDEST PUSH0 DUP3 GT PUSH2 0x320 JUMPI PUSH1 0x40 MLOAD PUSH32 0x8C379A000000000000000000000000000000000000000000000000000000000 DUP2 MSTORE PUSH1 0x4 ADD PUSH2 0x317 SWAP1 PUSH2 0x937 JUMP JUMPDEST PUSH1 0x40 MLOAD DUP1 SWAP2 SUB SWAP1 REVERT JUMPDEST PUSH0 DUP2 PUSH0 ADD SLOAD SWAP1 POP DUP3 DUP3 PUSH0 ADD DUP2 SWAP1 SSTORE POP CALLER PUSH20 0xFFFFFFFFFFFFFFFFFFFFFFFFFFFFFFFFFFFFFFFF AND PUSH32 0xD49110AC15D15BF795FA6B85BB9265D54A985B63AE82B886ADFB1279137656BD DUP3 DUP6 PUSH1 0x40 MLOAD PUSH2 0x377 SWAP3 SWAP2 SWAP1 PUSH2 0x955 JUMP JUMPDEST PUSH1 0x40 MLOAD DUP1 SWAP2 SUB SWAP1 LOG2 POP POP POP JUMP JUMPDEST PUSH1 0x1 PUSH0 SWAP1 SLOAD SWAP1 PUSH2 0x100 EXP SWAP1 DIV PUSH20 0xFFFFFFFFFFFFFFFFFFFFFFFFFFFFFFFFFFFFFFFF AND DUP2 JUMP JUMPDEST PUSH1 0x1 PUSH0 SWAP1 SLOAD SWAP1 PUSH2 0x100 EXP SWAP1 DIV PUSH20 0xFFFFFFFFFFFFFFFFFFFFFFFFFFFFFFFFFFFFFFFF AND PUSH20 0xFFFFFFFFFFFFFFFFFFFFFFFFFFFFFFFFFFFFFFFF AND CALLER PUSH20 0xFFFFFFFFFFFFFFFFFFFFFFFFFFFFFFFFFFFFFFFF AND EQ PUSH2 0x438 JUMPI PUSH1 0x40 MLOAD PUSH32 0x8C379A000000000000000000000000000000000000000000000000000000000 DUP2 MSTORE PUSH1 0x4 ADD PUSH2 0x42F SWAP1 PUSH2 0x9C6 JUMP JUMPDEST PUSH1 0x40 MLOAD DUP1 SWAP2 SUB SWAP1 REVERT JUMPDEST PUSH0 DUP2 GT PUSH2 0x47A JUMPI PUSH1 0x40 MLOAD PUSH32 0x8C379A000000000000000000000000000000000000000000000000000000000 DUP2 MSTORE PUSH1 0x4 ADD PUSH2 0x471 SWAP1 PUSH2 0x937 JUMP JUMPDEST PUSH1 0x40 MLOAD DUP1 SWAP2 SUB SWAP1 REVERT JUMPDEST PUSH1 0x40 MLOAD DUP1 PUSH1 0x40 ADD PUSH1 0x40 MSTORE DUP1 DUP3 DUP2 MSTORE PUSH1 0x20 ADD PUSH1 0x1 ISZERO ISZERO DUP2 MSTORE POP PUSH0 PUSH0 DUP5 PUSH20 0xFFFFFFFFFFFFFFFFFFFFFFFFFFFFFFFFFFFFFFFF AND PUSH20 0xFFFFFFFFFFFFFFFFFFFFFFFFFFFFFFFFFFFFFFFF AND DUP2 MSTORE PUSH1 0x20 ADD SWAP1 DUP2 MSTORE PUSH1 0x20 ADD PUSH0 KECCAK256 PUSH0 DUP3 ADD MLOAD DUP2 PUSH0 ADD SSTORE PUSH1 0x20 DUP3 ADD MLOAD DUP2 PUSH1 0x1 ADD PUSH0 PUSH2 0x100 EXP DUP2 SLOAD DUP2 PUSH1 0xFF MUL NOT AND SWAP1 DUP4 ISZERO ISZERO MUL OR SWAP1 SSTORE POP SWAP1 POP POP DUP2 PUSH20 0xFFFFFFFFFFFFFFFFFFFFFFFFFFFFFFFFFFFFFFFF AND PUSH32 0xA27642FCCF9A9A0A8A8E31188DFEC60A6565C30A20EF3ED1EB3A779A79A36B2E DUP3 PUSH1 0x40 MLOAD PUSH2 0x53E SWAP2 SWAP1 PUSH2 0x7F4 JUMP JUMPDEST PUSH1 0x40 MLOAD DUP1 SWAP2 SUB SWAP1 LOG2 POP POP JUMP JUMPDEST PUSH0 PUSH1 0x20 MSTORE DUP1 PUSH0 MSTORE PUSH1 0x40 PUSH0 KECCAK256 PUSH0 SWAP2 POP SWAP1 POP DUP1 PUSH0 ADD SLOAD SWAP1 DUP1 PUSH1 0x1 ADD PUSH0 SWAP1 SLOAD SWAP1 PUSH2 0x100 EXP SWAP1 DIV PUSH1 0xFF AND SWAP1 POP DUP3 JUMP JUMPDEST PUSH0 PUSH0 PUSH0 PUSH0 CALLER PUSH20 0xFFFFFFFFFFFFFFFFFFFFFFFFFFFFFFFFFFFFFFFF AND PUSH20 0xFFFFFFFFFFFFFFFFFFFFFFFFFFFFFFFFFFFFFFFF AND DUP2 MSTORE PUSH1 0x20 ADD SWAP1 DUP2 MSTORE PUSH1 0x20 ADD PUSH0 KECCAK256 PUSH1 0x40 MLOAD DUP1 PUSH1 0x40 ADD PUSH1 0x40 MSTORE SWAP1 DUP2 PUSH0 DUP3 ADD SLOAD DUP2 MSTORE PUSH1 0x20 ADD PUSH1 0x1 DUP3 ADD PUSH0 SWAP1 SLOAD SWAP1 PUSH2 0x100 EXP SWAP1 DIV PUSH1 0xFF AND ISZERO ISZERO ISZERO ISZERO DUP2 MSTORE POP POP SWAP1 POP DUP3 DUP2 PUSH0 ADD DUP2 DUP2 MSTORE POP POP DUP1 PUSH0 ADD MLOAD SWAP2 POP POP SWAP2 SWAP1 POP JUMP JUMPDEST PUSH0 PUSH0 PUSH0 PUSH0 PUSH0 CALLER PUSH20 0xFFFFFFFFFFFFFFFFFFFFFFFFFFFFFFFFFFFFFFFF AND PUSH20 0xFFFFFFFFFFFFFFFFFFFFFFFFFFFFFFFFFFFFFFFF AND DUP2 MSTORE PUSH1 0x20 ADD SWAP1 DUP2 MSTORE PUSH1 0x20 ADD PUSH0 KECCAK256 SWAP1 POP DUP1 PUSH0 ADD SLOAD DUP2 PUSH1 0x1 ADD PUSH0 SWAP1 SLOAD SWAP1 PUSH2 0x100 EXP SWAP1 DIV PUSH1 0xFF AND SWAP3 POP SWAP3 POP POP SWAP1 SWAP2 JUMP JUMPDEST PUSH0 PUSH0 REVERT JUMPDEST PUSH0 DUP2 SWAP1 POP SWAP2 SWAP1 POP JUMP JUMPDEST PUSH2 0x66D DUP2 PUSH2 0x65B JUMP JUMPDEST DUP2 EQ PUSH2 0x677 JUMPI PUSH0 PUSH0 REVERT JUMPDEST POP JUMP JUMPDEST PUSH0 DUP2 CALLDATALOAD SWAP1 POP PUSH2 0x688 DUP2 PUSH2 0x664 JUMP JUMPDEST SWAP3 SWAP2 POP POP JUMP JUMPDEST PUSH0 PUSH1 0x20 DUP3 DUP5 SUB SLT ISZERO PUSH2 0x6A3 JUMPI PUSH2 0x6A2 PUSH2 0x657 JUMP JUMPDEST JUMPDEST PUSH0 PUSH2 0x6B0 DUP5 DUP3 DUP6 ADD PUSH2 0x67A JUMP JUMPDEST SWAP2 POP POP SWAP3 SWAP2 POP POP JUMP JUMPDEST PUSH0 PUSH20 0xFFFFFFFFFFFFFFFFFFFFFFFFFFFFFFFFFFFFFFFF DUP3 AND SWAP1 POP SWAP2 SWAP1 POP JUMP JUMPDEST PUSH0 PUSH2 0x6E2 DUP3 PUSH2 0x6B9 JUMP JUMPDEST SWAP1 POP SWAP2 SWAP1 POP JUMP JUMPDEST PUSH2 0x6F2 DUP2 PUSH2 0x6D8 JUMP JUMPDEST DUP3 MSTORE POP POP JUMP JUMPDEST PUSH0 PUSH1 0x20 DUP3 ADD SWAP1 POP PUSH2 0x70B PUSH0 DUP4 ADD DUP5 PUSH2 0x6E9 JUMP JUMPDEST SWAP3 SWAP2 POP POP JUMP JUMPDEST PUSH2 0x71A DUP2 PUSH2 0x6D8 JUMP JUMPDEST DUP2 EQ PUSH2 0x724 JUMPI PUSH0 PUSH0 REVERT JUMPDEST POP JUMP JUMPDEST PUSH0 DUP2 CALLDATALOAD SWAP1 POP PUSH2 0x735 DUP2 PUSH2 0x711 JUMP JUMPDEST SWAP3 SWAP2 POP POP JUMP JUMPDEST PUSH0 PUSH0 PUSH1 0x40 DUP4 DUP6 SUB SLT ISZERO PUSH2 0x751 JUMPI PUSH2 0x750 PUSH2 0x657 JUMP JUMPDEST JUMPDEST PUSH0 PUSH2 0x75E DUP6 DUP3 DUP7 ADD PUSH2 0x727 JUMP JUMPDEST SWAP3 POP POP PUSH1 0x20 PUSH2 0x76F DUP6 DUP3 DUP7 ADD PUSH2 0x67A JUMP JUMPDEST SWAP2 POP POP SWAP3 POP SWAP3 SWAP1 POP JUMP JUMPDEST PUSH0 PUSH1 0x20 DUP3 DUP5 SUB SLT ISZERO PUSH2 0x78E JUMPI PUSH2 0x78D PUSH2 0x657 JUMP JUMPDEST JUMPDEST PUSH0 PUSH2 0x79B DUP5 DUP3 DUP6 ADD PUSH2 0x727 JUMP JUMPDEST SWAP2 POP POP SWAP3 SWAP2 POP POP JUMP JUMPDEST PUSH2 0x7AD DUP2 PUSH2 0x65B JUMP JUMPDEST DUP3 MSTORE POP POP JUMP JUMPDEST PUSH0 DUP2 ISZERO ISZERO SWAP1 POP SWAP2 SWAP1 POP JUMP JUMPDEST PUSH2 0x7C7 DUP2 PUSH2 0x7B3 JUMP JUMPDEST DUP3 MSTORE POP POP JUMP JUMPDEST PUSH0 PUSH1 0x40 DUP3 ADD SWAP1 POP PUSH2 0x7E0 PUSH0 DUP4 ADD DUP6 PUSH2 0x7A4 JUMP JUMPDEST PUSH2 0x7ED PUSH1 0x20 DUP4 ADD DUP5 PUSH2 0x7BE JUMP JUMPDEST SWAP4 SWAP3 POP POP POP JUMP JUMPDEST PUSH0 PUSH1 0x20 DUP3 ADD SWAP1 POP PUSH2 0x807 PUSH0 DUP4 ADD DUP5 PUSH2 0x7A4 JUMP JUMPDEST SWAP3 SWAP2 POP POP JUMP JUMPDEST PUSH0 DUP3 DUP3 MSTORE PUSH1 0x20 DUP3 ADD SWAP1 POP SWAP3 SWAP2 POP POP JUMP JUMPDEST PUSH32 0x416C726561647920696E61637469766500000000000000000000000000000000 PUSH0 DUP3 ADD MSTORE POP JUMP JUMPDEST PUSH0 PUSH2 0x851 PUSH1 0x10 DUP4 PUSH2 0x80D JUMP JUMPDEST SWAP2 POP PUSH2 0x85C DUP3 PUSH2 0x81D JUMP JUMPDEST PUSH1 0x20 DUP3 ADD SWAP1 POP SWAP2 SWAP1 POP JUMP JUMPDEST PUSH0 PUSH1 0x20 DUP3 ADD SWAP1 POP DUP2 DUP2 SUB PUSH0 DUP4 ADD MSTORE PUSH2 0x87E DUP2 PUSH2 0x845 JUMP JUMPDEST SWAP1 POP SWAP2 SWAP1 POP JUMP JUMPDEST PUSH32 0x55736572206E6F74206163746976650000000000000000000000000000000000 PUSH0 DUP3 ADD MSTORE POP JUMP JUMPDEST PUSH0 PUSH2 0x8B9 PUSH1 0xF DUP4 PUSH2 0x80D JUMP JUMPDEST SWAP2 POP PUSH2 0x8C4 DUP3 PUSH2 0x885 JUMP JUMPDEST PUSH1 0x20 DUP3 ADD SWAP1 POP SWAP2 SWAP1 POP JUMP JUMPDEST PUSH0 PUSH1 0x20 DUP3 ADD SWAP1 POP DUP2 DUP2 SUB PUSH0 DUP4 ADD MSTORE PUSH2 0x8E6 DUP2 PUSH2 0x8AD JUMP JUMPDEST SWAP1 POP SWAP2 SWAP1 POP JUMP JUMPDEST PUSH32 0x496E76616C696420616765000000000000000000000000000000000000000000 PUSH0 DUP3 ADD MSTORE POP JUMP JUMPDEST PUSH0 PUSH2 0x921 PUSH1 0xB DUP4 PUSH2 0x80D JUMP JUMPDEST SWAP2 POP PUSH2 0x92C DUP3 PUSH2 0x8ED JUMP JUMPDEST PUSH1 0x20 DUP3 ADD SWAP1 POP SWAP2 SWAP1 POP JUMP JUMPDEST PUSH0 PUSH1 0x20 DUP3 ADD SWAP1 POP DUP2 DUP2 SUB PUSH0 DUP4 ADD MSTORE PUSH2 0x94E DUP2 PUSH2 0x915 JUMP JUMPDEST SWAP1 POP SWAP2 SWAP1 POP JUMP JUMPDEST PUSH0 PUSH1 0x40 DUP3 ADD SWAP1 POP PUSH2 0x968 PUSH0 DUP4 ADD DUP6 PUSH2 0x7A4 JUMP JUMPDEST PUSH2 0x975 PUSH1 0x20 DUP4 ADD DUP5 PUSH2 0x7A4 JUMP JUMPDEST SWAP4 SWAP3 POP POP POP JUMP JUMPDEST PUSH32 0x4E6F74206F776E65720000000000000000000000000000000000000000000000 PUSH0 DUP3 ADD MSTORE POP JUMP JUMPDEST PUSH0 PUSH2 0x9B0 PUSH1 0x9 DUP4 PUSH2 0x80D JUMP JUMPDEST SWAP2 POP PUSH2 0x9BB DUP3 PUSH2 0x97C JUMP JUMPDEST PUSH1 0x20 DUP3 ADD SWAP1 POP SWAP2 SWAP1 POP JUMP JUMPDEST PUSH0 PUSH1 0x20 DUP3 ADD SWAP1 POP DUP2 DUP2 SUB PUSH0 DUP4 ADD MSTORE PUSH2 0x9DD DUP2 PUSH2 0x9A4 JUMP JUMPDEST SWAP1 POP SWAP2 SWAP1 POP JUMP INVALID LOG2 PUSH5 0x6970667358 0x22 SLT KECCAK256 PUSH4 0x95C8D250 SMOD 0x25 0xD8 COINBASE 0x26 MCOPY 0xA7 SWAP14 0x29 DUPN 0x14 0x2C CREATE2 0xCB 0xDE BYTE EXTCALL EXTSTATICCALL PUSH8 0xC1E1CDCFD45060A1 PUSH5 0x736F6C6343 STOP ADDMOD 0x22 STOP CALLER "
				},
				"gasEstimates": {
					"creation": {
						"codeDepositCost": "517200",
						"executionCost": "24812",
						"totalCost": "542012"
					},
					"external": {
						"createUser(address,uint256)": "infinite",
						"deactivateUser()": "27831",
						"getMyData()": "4860",
						"owner()": "2553",
						"previewAgeIncrease(uint256)": "infinite",
						"updateAge(uint256)": "infinite",
						"users(address)": "5088"
					}
				},
				"methodIdentifiers": {
					"createUser(address,uint256)": "93dfc8eb",
					"deactivateUser()": "55ea2000",
					"getMyData()": "d9c8a38b",
					"owner()": "8da5cb5b",
					"previewAgeIncrease(uint256)": "ce714f84",
					"updateAge(uint256)": "7d625c07",
					"users(address)": "a87430ba"
				}
			},
			"storageLayout": {
				"storage": [
					{
						"astId": 98,
						"contract": "prac15.sol:StorageReference",
						"label": "users",
						"offset": 0,
						"slot": "0",
						"type": "t_mapping(t_address,t_struct(User)93_storage)"
					},
					{
						"astId": 100,
						"contract": "prac15.sol:StorageReference",
						"label": "owner",
						"offset": 0,
						"slot": "1",
						"type": "t_address"
					}
				],
				"types": {
					"t_address": {
						"encoding": "inplace",
						"label": "address",
						"numberOfBytes": "20"
					},
					"t_bool": {
						"encoding": "inplace",
						"label": "bool",
						"numberOfBytes": "1"
					},
					"t_mapping(t_address,t_struct(User)93_storage)": {
						"encoding": "mapping",
						"key": "t_address",
						"label": "mapping(address => struct StorageReference.User)",
						"numberOfBytes": "32",
						"value": "t_struct(User)93_storage"
					},
					"t_struct(User)93_storage": {
						"encoding": "inplace",
						"label": "struct StorageReference.User",
						"members": [
							{
								"astId": 90,
								"contract": "prac15.sol:StorageReference",
								"label": "age",
								"offset": 0,
								"slot": "0",
								"type": "t_uint256"
							},
							{
								"astId": 92,
								"contract": "prac15.sol:StorageReference",
								"label": "active",
								"offset": 0,
								"slot": "1",
								"type": "t_bool"
							}
						],
						"numberOfBytes": "64"
					},
					"t_uint256": {
						"encoding": "inplace",
						"label": "uint256",
						"numberOfBytes": "32"
					}
				}
			},
			"userdoc": {
				"kind": "user",
				"methods": {},
				"version": 1
			}
		}
	}
}