{
	"prac34.sol": {
		"NestedCalldataArrayPatched": {
			"abi": [
				{
					"inputs": [],
					"stateMutability": "nonpayable",
					"type": "constructor"
				},
				{
					"inputs": [],
					"name": "MAX_COLUMNS",
					"outputs": [
						{
							"internalType": "uint256",
							"name": "",
							"type": "uint256"
						}
					],
					"stateMutability": "view",
					"type": "function"
				},
				{
					"inputs": [],
					"name": "MAX_ROWS",
					"outputs": [
						{
							"internalType": "uint256",
							"name": "",
							"type": "uint256"
						}
					],
					"stateMutability": "view",
					"type": "function"
				},
				{
					"inputs": [
						{
							"internalType": "uint256[][]",
							"name": "_matrix",
							"type": "uint256[][]"
						}
					],
					"name": "calculateNestedSum",
					"outputs": [
						{
							"internalType": "uint256",
							"name": "",
							"type": "uint256"
						}
					],
					"stateMutability": "pure",
					"type": "function"
				},
				{
					"inputs": [],
					"name": "owner",
					"outputs": [
						{
							"internalType": "address",
							"name": "",
							"type": "address"
						}
					],
					"stateMutability": "view",
					"type": "function"
				},
				{
					"inputs": [
						{
							"internalType": "uint256[][]",
							"name": "_matrix",
							"type": "uint256[][]"
						}
					],
					"name": "processAndStore",
					"outputs": [],
					"stateMutability": "nonpayable",
					"type": "function"
				},
				{
					"inputs": [],
					"name": "totalSum",
					"outputs": [
						{
							"internalType": "uint256",
							"name": "",
							"type": "uint256"
						}
					],
					"stateMutability": "view",
					"type": "function"
				}
			],
			"devdoc": {
				"kind": "dev",
				"methods": {},
				"version": 1
			},
			"evm": {
				"assembly": "    /* \"prac34.sol\":11332:12718  contract NestedCalldataArrayPatched {... */\n  mstore(0x40, 0x80)\n    /* \"prac34.sol\":11529:11580  constructor() {... */\n  callvalue\n  dup1\n  iszero\n  tag_1\n  jumpi\n  revert(0x00, 0x00)\ntag_1:\n  pop\n    /* \"prac34.sol\":11562:11572  msg.sender */\n  caller\n    /* \"prac34.sol\":11554:11559  owner */\n  0x00\n  0x00\n    /* \"prac34.sol\":11554:11572  owner = msg.sender */\n  0x0100\n  exp\n  dup2\n  sload\n  dup2\n  0xffffffffffffffffffffffffffffffffffffffff\n  mul\n  not\n  and\n  swap1\n  dup4\n  0xffffffffffffffffffffffffffffffffffffffff\n  and\n  mul\n  or\n  swap1\n  sstore\n  pop\n    /* \"prac34.sol\":11332:12718  contract NestedCalldataArrayPatched {... */\n  dataSize(sub_0)\n  dup1\n  dataOffset(sub_0)\n  0x00\n  codecopy\n  0x00\n  return\nstop\n\nsub_0: assembly {\n        /* \"prac34.sol\":11332:12718  contract NestedCalldataArrayPatched {... */\n      mstore(0x40, 0x80)\n      callvalue\n      dup1\n      iszero\n      tag_1\n      jumpi\n      revert(0x00, 0x00)\n    tag_1:\n      pop\n      jumpi(tag_2, lt(calldatasize, 0x04))\n      shr(0xe0, calldataload(0x00))\n      dup1\n      0x18f1024d\n      eq\n      tag_3\n      jumpi\n      dup1\n      0x1cf54a1b\n      eq\n      tag_4\n      jumpi\n      dup1\n      0x4869f99d\n      eq\n      tag_5\n      jumpi\n      dup1\n      0x71a7c188\n      eq\n      tag_6\n      jumpi\n      dup1\n      0x8da5cb5b\n      eq\n      tag_7\n      jumpi\n      dup1\n      0xe67953ea\n      eq\n      tag_8\n      jumpi\n    tag_2:\n      revert(0x00, 0x00)\n        /* \"prac34.sol\":11726:12320  function processAndStore(... */\n    tag_3:\n      tag_9\n      0x04\n      dup1\n      calldatasize\n      sub\n      dup2\n      add\n      swap1\n      tag_10\n      swap2\n      swap1\n      tag_11\n      jump\t// in\n    tag_10:\n      tag_12\n      jump\t// in\n    tag_9:\n      stop\n        /* \"prac34.sol\":11480:11520  uint256 public constant MAX_COLUMNS = 50 */\n    tag_4:\n      tag_13\n      tag_14\n      jump\t// in\n    tag_13:\n      mload(0x40)\n      tag_15\n      swap2\n      swap1\n      tag_16\n      jump\t// in\n    tag_15:\n      mload(0x40)\n      dup1\n      swap2\n      sub\n      swap1\n      return\n        /* \"prac34.sol\":11404:11427  uint256 public totalSum */\n    tag_5:\n      tag_17\n      tag_18\n      jump\t// in\n    tag_17:\n      mload(0x40)\n      tag_19\n      swap2\n      swap1\n      tag_16\n      jump\t// in\n    tag_19:\n      mload(0x40)\n      dup1\n      swap2\n      sub\n      swap1\n      return\n        /* \"prac34.sol\":12328:12715  function calculateNestedSum(... */\n    tag_6:\n      tag_20\n      0x04\n      dup1\n      calldatasize\n      sub\n      dup2\n      add\n      swap1\n      tag_21\n      swap2\n      swap1\n      tag_11\n      jump\t// in\n    tag_21:\n      tag_22\n      jump\t// in\n    tag_20:\n      mload(0x40)\n      tag_23\n      swap2\n      swap1\n      tag_16\n      jump\t// in\n    tag_23:\n      mload(0x40)\n      dup1\n      swap2\n      sub\n      swap1\n      return\n        /* \"prac34.sol\":11377:11397  address public owner */\n    tag_7:\n      tag_24\n      tag_25\n      jump\t// in\n    tag_24:\n      mload(0x40)\n      tag_26\n      swap2\n      swap1\n      tag_27\n      jump\t// in\n    tag_26:\n      mload(0x40)\n      dup1\n      swap2\n      sub\n      swap1\n      return\n        /* \"prac34.sol\":11436:11473  uint256 public constant MAX_ROWS = 50 */\n    tag_8:\n      tag_28\n      tag_29\n      jump\t// in\n    tag_28:\n      mload(0x40)\n      tag_30\n      swap2\n      swap1\n      tag_16\n      jump\t// in\n    tag_30:\n      mload(0x40)\n      dup1\n      swap2\n      sub\n      swap1\n      return\n        /* \"prac34.sol\":11726:12320  function processAndStore(... */\n    tag_12:\n        /* \"prac34.sol\":11656:11661  owner */\n      0x00\n      0x00\n      swap1\n      sload\n      swap1\n      0x0100\n      exp\n      swap1\n      div\n      0xffffffffffffffffffffffffffffffffffffffff\n      and\n        /* \"prac34.sol\":11642:11661  msg.sender == owner */\n      0xffffffffffffffffffffffffffffffffffffffff\n      and\n        /* \"prac34.sol\":11642:11652  msg.sender */\n      caller\n        /* \"prac34.sol\":11642:11661  msg.sender == owner */\n      0xffffffffffffffffffffffffffffffffffffffff\n      and\n      eq\n        /* \"prac34.sol\":11620:11698  require(... */\n      tag_32\n      jumpi\n      mload(0x40)\n      0x08c379a000000000000000000000000000000000000000000000000000000000\n      dup2\n      mstore\n      0x04\n      add\n      tag_33\n      swap1\n      tag_34\n      jump\t// in\n    tag_33:\n      mload(0x40)\n      dup1\n      swap2\n      sub\n      swap1\n      revert\n    tag_32:\n        /* \"prac34.sol\":11471:11473  50 */\n      0x32\n        /* \"prac34.sol\":11872:11879  _matrix */\n      dup3\n      dup3\n        /* \"prac34.sol\":11872:11886  _matrix.length */\n      swap1\n      pop\n        /* \"prac34.sol\":11872:11898  _matrix.length <= MAX_ROWS */\n      gt\n      iszero\n        /* \"prac34.sol\":11850:11939  require(... */\n      tag_36\n      jumpi\n      mload(0x40)\n      0x08c379a000000000000000000000000000000000000000000000000000000000\n      dup2\n      mstore\n      0x04\n      add\n      tag_37\n      swap1\n      tag_38\n      jump\t// in\n    tag_37:\n      mload(0x40)\n      dup1\n      swap2\n      sub\n      swap1\n      revert\n    tag_36:\n        /* \"prac34.sol\":11952:11965  uint256 total */\n      0x00\n        /* \"prac34.sol\":11968:11969  0 */\n      0x00\n        /* \"prac34.sol\":11952:11969  uint256 total = 0 */\n      swap1\n      pop\n        /* \"prac34.sol\":11987:11996  uint256 i */\n      0x00\n        /* \"prac34.sol\":11999:12000  0 */\n      0x00\n        /* \"prac34.sol\":11987:12000  uint256 i = 0 */\n      swap1\n      pop\n        /* \"prac34.sol\":11982:12284  for (uint256 i = 0; i < _matrix.length; i++) {... */\n    tag_39:\n        /* \"prac34.sol\":12006:12013  _matrix */\n      dup4\n      dup4\n        /* \"prac34.sol\":12006:12020  _matrix.length */\n      swap1\n      pop\n        /* \"prac34.sol\":12002:12003  i */\n      dup2\n        /* \"prac34.sol\":12002:12020  i < _matrix.length */\n      lt\n        /* \"prac34.sol\":11982:12284  for (uint256 i = 0; i < _matrix.length; i++) {... */\n      iszero\n      tag_40\n      jumpi\n        /* \"prac34.sol\":11518:11520  50 */\n      0x32\n        /* \"prac34.sol\":12070:12077  _matrix */\n      dup5\n      dup5\n        /* \"prac34.sol\":12078:12079  i */\n      dup4\n        /* \"prac34.sol\":12070:12080  _matrix[i] */\n      dup2\n      dup2\n      lt\n      tag_42\n      jumpi\n      tag_43\n      tag_44\n      jump\t// in\n    tag_43:\n    tag_42:\n      swap1\n      pop\n      0x20\n      mul\n      dup2\n      add\n      swap1\n      tag_45\n      swap2\n      swap1\n      tag_46\n      jump\t// in\n    tag_45:\n        /* \"prac34.sol\":12070:12087  _matrix[i].length */\n      swap1\n      pop\n        /* \"prac34.sol\":12070:12102  _matrix[i].length <= MAX_COLUMNS */\n      gt\n      iszero\n        /* \"prac34.sol\":12044:12151  require(... */\n      tag_47\n      jumpi\n      mload(0x40)\n      0x08c379a000000000000000000000000000000000000000000000000000000000\n      dup2\n      mstore\n      0x04\n      add\n      tag_48\n      swap1\n      tag_49\n      jump\t// in\n    tag_48:\n      mload(0x40)\n      dup1\n      swap2\n      sub\n      swap1\n      revert\n    tag_47:\n        /* \"prac34.sol\":12173:12182  uint256 j */\n      0x00\n        /* \"prac34.sol\":12185:12186  0 */\n      0x00\n        /* \"prac34.sol\":12173:12186  uint256 j = 0 */\n      swap1\n      pop\n        /* \"prac34.sol\":12168:12273  for (uint256 j = 0; j < _matrix[i].length; j++) {... */\n    tag_50:\n        /* \"prac34.sol\":12192:12199  _matrix */\n      dup5\n      dup5\n        /* \"prac34.sol\":12200:12201  i */\n      dup4\n        /* \"prac34.sol\":12192:12202  _matrix[i] */\n      dup2\n      dup2\n      lt\n      tag_53\n      jumpi\n      tag_54\n      tag_44\n      jump\t// in\n    tag_54:\n    tag_53:\n      swap1\n      pop\n      0x20\n      mul\n      dup2\n      add\n      swap1\n      tag_55\n      swap2\n      swap1\n      tag_46\n      jump\t// in\n    tag_55:\n        /* \"prac34.sol\":12192:12209  _matrix[i].length */\n      swap1\n      pop\n        /* \"prac34.sol\":12188:12189  j */\n      dup2\n        /* \"prac34.sol\":12188:12209  j < _matrix[i].length */\n      lt\n        /* \"prac34.sol\":12168:12273  for (uint256 j = 0; j < _matrix[i].length; j++) {... */\n      iszero\n      tag_51\n      jumpi\n        /* \"prac34.sol\":12244:12251  _matrix */\n      dup5\n      dup5\n        /* \"prac34.sol\":12252:12253  i */\n      dup4\n        /* \"prac34.sol\":12244:12254  _matrix[i] */\n      dup2\n      dup2\n      lt\n      tag_56\n      jumpi\n      tag_57\n      tag_44\n      jump\t// in\n    tag_57:\n    tag_56:\n      swap1\n      pop\n      0x20\n      mul\n      dup2\n      add\n      swap1\n      tag_58\n      swap2\n      swap1\n      tag_46\n      jump\t// in\n    tag_58:\n        /* \"prac34.sol\":12255:12256  j */\n      dup3\n        /* \"prac34.sol\":12244:12257  _matrix[i][j] */\n      dup2\n      dup2\n      lt\n      tag_59\n      jumpi\n      tag_60\n      tag_44\n      jump\t// in\n    tag_60:\n    tag_59:\n      swap1\n      pop\n      0x20\n      mul\n      add\n      calldataload\n        /* \"prac34.sol\":12235:12257  total += _matrix[i][j] */\n      dup4\n      tag_61\n      swap2\n      swap1\n      tag_62\n      jump\t// in\n    tag_61:\n      swap3\n      pop\n        /* \"prac34.sol\":12211:12214  j++ */\n      dup1\n      dup1\n      0x01\n      add\n      swap2\n      pop\n      pop\n        /* \"prac34.sol\":12168:12273  for (uint256 j = 0; j < _matrix[i].length; j++) {... */\n      jump(tag_50)\n    tag_51:\n      pop\n        /* \"prac34.sol\":12022:12025  i++ */\n      dup1\n      dup1\n      0x01\n      add\n      swap2\n      pop\n      pop\n        /* \"prac34.sol\":11982:12284  for (uint256 i = 0; i < _matrix.length; i++) {... */\n      jump(tag_39)\n    tag_40:\n      pop\n        /* \"prac34.sol\":12307:12312  total */\n      dup1\n        /* \"prac34.sol\":12296:12304  totalSum */\n      0x01\n        /* \"prac34.sol\":12296:12312  totalSum = total */\n      dup2\n      swap1\n      sstore\n      pop\n        /* \"prac34.sol\":11839:12320  {... */\n      pop\n        /* \"prac34.sol\":11726:12320  function processAndStore(... */\n      pop\n      pop\n      jump\t// out\n        /* \"prac34.sol\":11480:11520  uint256 public constant MAX_COLUMNS = 50 */\n    tag_14:\n        /* \"prac34.sol\":11518:11520  50 */\n      0x32\n        /* \"prac34.sol\":11480:11520  uint256 public constant MAX_COLUMNS = 50 */\n      dup2\n      jump\t// out\n        /* \"prac34.sol\":11404:11427  uint256 public totalSum */\n    tag_18:\n      sload(0x01)\n      dup2\n      jump\t// out\n        /* \"prac34.sol\":12328:12715  function calculateNestedSum(... */\n    tag_22:\n        /* \"prac34.sol\":12452:12459  uint256 */\n      0x00\n        /* \"prac34.sol\":12477:12490  uint256 total */\n      0x00\n        /* \"prac34.sol\":12493:12494  0 */\n      0x00\n        /* \"prac34.sol\":12477:12494  uint256 total = 0 */\n      swap1\n      pop\n        /* \"prac34.sol\":12512:12521  uint256 i */\n      0x00\n        /* \"prac34.sol\":12524:12525  0 */\n      0x00\n        /* \"prac34.sol\":12512:12525  uint256 i = 0 */\n      swap1\n      pop\n        /* \"prac34.sol\":12507:12683  for (uint256 i = 0; i < _matrix.length; i++) {... */\n    tag_64:\n        /* \"prac34.sol\":12531:12538  _matrix */\n      dup5\n      dup5\n        /* \"prac34.sol\":12531:12545  _matrix.length */\n      swap1\n      pop\n        /* \"prac34.sol\":12527:12528  i */\n      dup2\n        /* \"prac34.sol\":12527:12545  i < _matrix.length */\n      lt\n        /* \"prac34.sol\":12507:12683  for (uint256 i = 0; i < _matrix.length; i++) {... */\n      iszero\n      tag_65\n      jumpi\n        /* \"prac34.sol\":12572:12581  uint256 j */\n      0x00\n        /* \"prac34.sol\":12584:12585  0 */\n      0x00\n        /* \"prac34.sol\":12572:12585  uint256 j = 0 */\n      swap1\n      pop\n        /* \"prac34.sol\":12567:12672  for (uint256 j = 0; j < _matrix[i].length; j++) {... */\n    tag_67:\n        /* \"prac34.sol\":12591:12598  _matrix */\n      dup6\n      dup6\n        /* \"prac34.sol\":12599:12600  i */\n      dup4\n        /* \"prac34.sol\":12591:12601  _matrix[i] */\n      dup2\n      dup2\n      lt\n      tag_70\n      jumpi\n      tag_71\n      tag_44\n      jump\t// in\n    tag_71:\n    tag_70:\n      swap1\n      pop\n      0x20\n      mul\n      dup2\n      add\n      swap1\n      tag_72\n      swap2\n      swap1\n      tag_46\n      jump\t// in\n    tag_72:\n        /* \"prac34.sol\":12591:12608  _matrix[i].length */\n      swap1\n      pop\n        /* \"prac34.sol\":12587:12588  j */\n      dup2\n        /* \"prac34.sol\":12587:12608  j < _matrix[i].length */\n      lt\n        /* \"prac34.sol\":12567:12672  for (uint256 j = 0; j < _matrix[i].length; j++) {... */\n      iszero\n      tag_68\n      jumpi\n        /* \"prac34.sol\":12643:12650  _matrix */\n      dup6\n      dup6\n        /* \"prac34.sol\":12651:12652  i */\n      dup4\n        /* \"prac34.sol\":12643:12653  _matrix[i] */\n      dup2\n      dup2\n      lt\n      tag_73\n      jumpi\n      tag_74\n      tag_44\n      jump\t// in\n    tag_74:\n    tag_73:\n      swap1\n      pop\n      0x20\n      mul\n      dup2\n      add\n      swap1\n      tag_75\n      swap2\n      swap1\n      tag_46\n      jump\t// in\n    tag_75:\n        /* \"prac34.sol\":12654:12655  j */\n      dup3\n        /* \"prac34.sol\":12643:12656  _matrix[i][j] */\n      dup2\n      dup2\n      lt\n      tag_76\n      jumpi\n      tag_77\n      tag_44\n      jump\t// in\n    tag_77:\n    tag_76:\n      swap1\n      pop\n      0x20\n      mul\n      add\n      calldataload\n        /* \"prac34.sol\":12634:12656  total += _matrix[i][j] */\n      dup4\n      tag_78\n      swap2\n      swap1\n      tag_62\n      jump\t// in\n    tag_78:\n      swap3\n      pop\n        /* \"prac34.sol\":12610:12613  j++ */\n      dup1\n      dup1\n      0x01\n      add\n      swap2\n      pop\n      pop\n        /* \"prac34.sol\":12567:12672  for (uint256 j = 0; j < _matrix[i].length; j++) {... */\n      jump(tag_67)\n    tag_68:\n      pop\n        /* \"prac34.sol\":12547:12550  i++ */\n      dup1\n      dup1\n      0x01\n      add\n      swap2\n      pop\n      pop\n        /* \"prac34.sol\":12507:12683  for (uint256 i = 0; i < _matrix.length; i++) {... */\n      jump(tag_64)\n    tag_65:\n      pop\n        /* \"prac34.sol\":12702:12707  total */\n      dup1\n        /* \"prac34.sol\":12695:12707  return total */\n      swap2\n      pop\n      pop\n        /* \"prac34.sol\":12328:12715  function calculateNestedSum(... */\n      swap3\n      swap2\n      pop\n      pop\n      jump\t// out\n        /* \"prac34.sol\":11377:11397  address public owner */\n    tag_25:\n      0x00\n      0x00\n      swap1\n      sload\n      swap1\n      0x0100\n      exp\n      swap1\n      div\n      0xffffffffffffffffffffffffffffffffffffffff\n      and\n      dup2\n      jump\t// out\n        /* \"prac34.sol\":11436:11473  uint256 public constant MAX_ROWS = 50 */\n    tag_29:\n        /* \"prac34.sol\":11471:11473  50 */\n      0x32\n        /* \"prac34.sol\":11436:11473  uint256 public constant MAX_ROWS = 50 */\n      dup2\n      jump\t// out\n        /* \"#utility.yul\":88:205   */\n    tag_80:\n        /* \"#utility.yul\":197:198   */\n      0x00\n        /* \"#utility.yul\":194:195   */\n      0x00\n        /* \"#utility.yul\":187:199   */\n      revert\n        /* \"#utility.yul\":211:328   */\n    tag_81:\n        /* \"#utility.yul\":320:321   */\n      0x00\n        /* \"#utility.yul\":317:318   */\n      0x00\n        /* \"#utility.yul\":310:322   */\n      revert\n        /* \"#utility.yul\":334:451   */\n    tag_82:\n        /* \"#utility.yul\":443:444   */\n      0x00\n        /* \"#utility.yul\":440:441   */\n      0x00\n        /* \"#utility.yul\":433:445   */\n      revert\n        /* \"#utility.yul\":457:574   */\n    tag_83:\n        /* \"#utility.yul\":566:567   */\n      0x00\n        /* \"#utility.yul\":563:564   */\n      0x00\n        /* \"#utility.yul\":556:568   */\n      revert\n        /* \"#utility.yul\":580:697   */\n    tag_84:\n        /* \"#utility.yul\":689:690   */\n      0x00\n        /* \"#utility.yul\":686:687   */\n      0x00\n        /* \"#utility.yul\":679:691   */\n      revert\n        /* \"#utility.yul\":722:1317   */\n    tag_85:\n        /* \"#utility.yul\":822:830   */\n      0x00\n        /* \"#utility.yul\":832:838   */\n      0x00\n        /* \"#utility.yul\":882:885   */\n      dup4\n        /* \"#utility.yul\":875:879   */\n      0x1f\n        /* \"#utility.yul\":867:873   */\n      dup5\n        /* \"#utility.yul\":863:880   */\n      add\n        /* \"#utility.yul\":859:886   */\n      slt\n        /* \"#utility.yul\":849:971   */\n      tag_110\n      jumpi\n        /* \"#utility.yul\":890:969   */\n      tag_111\n      tag_82\n      jump\t// in\n    tag_111:\n        /* \"#utility.yul\":849:971   */\n    tag_110:\n        /* \"#utility.yul\":1003:1009   */\n      dup3\n        /* \"#utility.yul\":990:1010   */\n      calldataload\n        /* \"#utility.yul\":980:1010   */\n      swap1\n      pop\n        /* \"#utility.yul\":1033:1051   */\n      0xffffffffffffffff\n        /* \"#utility.yul\":1025:1031   */\n      dup2\n        /* \"#utility.yul\":1022:1052   */\n      gt\n        /* \"#utility.yul\":1019:1136   */\n      iszero\n      tag_112\n      jumpi\n        /* \"#utility.yul\":1055:1134   */\n      tag_113\n      tag_83\n      jump\t// in\n    tag_113:\n        /* \"#utility.yul\":1019:1136   */\n    tag_112:\n        /* \"#utility.yul\":1169:1173   */\n      0x20\n        /* \"#utility.yul\":1161:1167   */\n      dup4\n        /* \"#utility.yul\":1157:1174   */\n      add\n        /* \"#utility.yul\":1145:1174   */\n      swap2\n      pop\n        /* \"#utility.yul\":1223:1226   */\n      dup4\n        /* \"#utility.yul\":1215:1219   */\n      0x20\n        /* \"#utility.yul\":1207:1213   */\n      dup3\n        /* \"#utility.yul\":1203:1220   */\n      mul\n        /* \"#utility.yul\":1193:1201   */\n      dup4\n        /* \"#utility.yul\":1189:1221   */\n      add\n        /* \"#utility.yul\":1186:1227   */\n      gt\n        /* \"#utility.yul\":1183:1311   */\n      iszero\n      tag_114\n      jumpi\n        /* \"#utility.yul\":1230:1309   */\n      tag_115\n      tag_84\n      jump\t// in\n    tag_115:\n        /* \"#utility.yul\":1183:1311   */\n    tag_114:\n        /* \"#utility.yul\":722:1317   */\n      swap3\n      pop\n      swap3\n      swap1\n      pop\n      jump\t// out\n        /* \"#utility.yul\":1323:1936   */\n    tag_11:\n        /* \"#utility.yul\":1436:1442   */\n      0x00\n        /* \"#utility.yul\":1444:1450   */\n      0x00\n        /* \"#utility.yul\":1493:1495   */\n      0x20\n        /* \"#utility.yul\":1481:1490   */\n      dup4\n        /* \"#utility.yul\":1472:1479   */\n      dup6\n        /* \"#utility.yul\":1468:1491   */\n      sub\n        /* \"#utility.yul\":1464:1496   */\n      slt\n        /* \"#utility.yul\":1461:1580   */\n      iszero\n      tag_117\n      jumpi\n        /* \"#utility.yul\":1499:1578   */\n      tag_118\n      tag_80\n      jump\t// in\n    tag_118:\n        /* \"#utility.yul\":1461:1580   */\n    tag_117:\n        /* \"#utility.yul\":1647:1648   */\n      0x00\n        /* \"#utility.yul\":1636:1645   */\n      dup4\n        /* \"#utility.yul\":1632:1649   */\n      add\n        /* \"#utility.yul\":1619:1650   */\n      calldataload\n        /* \"#utility.yul\":1677:1695   */\n      0xffffffffffffffff\n        /* \"#utility.yul\":1669:1675   */\n      dup2\n        /* \"#utility.yul\":1666:1696   */\n      gt\n        /* \"#utility.yul\":1663:1780   */\n      iszero\n      tag_119\n      jumpi\n        /* \"#utility.yul\":1699:1778   */\n      tag_120\n      tag_81\n      jump\t// in\n    tag_120:\n        /* \"#utility.yul\":1663:1780   */\n    tag_119:\n        /* \"#utility.yul\":1812:1919   */\n      tag_121\n        /* \"#utility.yul\":1911:1918   */\n      dup6\n        /* \"#utility.yul\":1902:1908   */\n      dup3\n        /* \"#utility.yul\":1891:1900   */\n      dup7\n        /* \"#utility.yul\":1887:1909   */\n      add\n        /* \"#utility.yul\":1812:1919   */\n      tag_85\n      jump\t// in\n    tag_121:\n        /* \"#utility.yul\":1794:1919   */\n      swap3\n      pop\n      swap3\n      pop\n        /* \"#utility.yul\":1590:1929   */\n      pop\n        /* \"#utility.yul\":1323:1936   */\n      swap3\n      pop\n      swap3\n      swap1\n      pop\n      jump\t// out\n        /* \"#utility.yul\":1942:2019   */\n    tag_86:\n        /* \"#utility.yul\":1979:1986   */\n      0x00\n        /* \"#utility.yul\":2008:2013   */\n      dup2\n        /* \"#utility.yul\":1997:2013   */\n      swap1\n      pop\n        /* \"#utility.yul\":1942:2019   */\n      swap2\n      swap1\n      pop\n      jump\t// out\n        /* \"#utility.yul\":2025:2143   */\n    tag_87:\n        /* \"#utility.yul\":2112:2136   */\n      tag_124\n        /* \"#utility.yul\":2130:2135   */\n      dup2\n        /* \"#utility.yul\":2112:2136   */\n      tag_86\n      jump\t// in\n    tag_124:\n        /* \"#utility.yul\":2107:2110   */\n      dup3\n        /* \"#utility.yul\":2100:2137   */\n      mstore\n        /* \"#utility.yul\":2025:2143   */\n      pop\n      pop\n      jump\t// out\n        /* \"#utility.yul\":2149:2371   */\n    tag_16:\n        /* \"#utility.yul\":2242:2246   */\n      0x00\n        /* \"#utility.yul\":2280:2282   */\n      0x20\n        /* \"#utility.yul\":2269:2278   */\n      dup3\n        /* \"#utility.yul\":2265:2283   */\n      add\n        /* \"#utility.yul\":2257:2283   */\n      swap1\n      pop\n        /* \"#utility.yul\":2293:2364   */\n      tag_126\n        /* \"#utility.yul\":2361:2362   */\n      0x00\n        /* \"#utility.yul\":2350:2359   */\n      dup4\n        /* \"#utility.yul\":2346:2363   */\n      add\n        /* \"#utility.yul\":2337:2343   */\n      dup5\n        /* \"#utility.yul\":2293:2364   */\n      tag_87\n      jump\t// in\n    tag_126:\n        /* \"#utility.yul\":2149:2371   */\n      swap3\n      swap2\n      pop\n      pop\n      jump\t// out\n        /* \"#utility.yul\":2377:2503   */\n    tag_88:\n        /* \"#utility.yul\":2414:2421   */\n      0x00\n        /* \"#utility.yul\":2454:2496   */\n      0xffffffffffffffffffffffffffffffffffffffff\n        /* \"#utility.yul\":2447:2452   */\n      dup3\n        /* \"#utility.yul\":2443:2497   */\n      and\n        /* \"#utility.yul\":2432:2497   */\n      swap1\n      pop\n        /* \"#utility.yul\":2377:2503   */\n      swap2\n      swap1\n      pop\n      jump\t// out\n        /* \"#utility.yul\":2509:2605   */\n    tag_89:\n        /* \"#utility.yul\":2546:2553   */\n      0x00\n        /* \"#utility.yul\":2575:2599   */\n      tag_129\n        /* \"#utility.yul\":2593:2598   */\n      dup3\n        /* \"#utility.yul\":2575:2599   */\n      tag_88\n      jump\t// in\n    tag_129:\n        /* \"#utility.yul\":2564:2599   */\n      swap1\n      pop\n        /* \"#utility.yul\":2509:2605   */\n      swap2\n      swap1\n      pop\n      jump\t// out\n        /* \"#utility.yul\":2611:2729   */\n    tag_90:\n        /* \"#utility.yul\":2698:2722   */\n      tag_131\n        /* \"#utility.yul\":2716:2721   */\n      dup2\n        /* \"#utility.yul\":2698:2722   */\n      tag_89\n      jump\t// in\n    tag_131:\n        /* \"#utility.yul\":2693:2696   */\n      dup3\n        /* \"#utility.yul\":2686:2723   */\n      mstore\n        /* \"#utility.yul\":2611:2729   */\n      pop\n      pop\n      jump\t// out\n        /* \"#utility.yul\":2735:2957   */\n    tag_27:\n        /* \"#utility.yul\":2828:2832   */\n      0x00\n        /* \"#utility.yul\":2866:2868   */\n      0x20\n        /* \"#utility.yul\":2855:2864   */\n      dup3\n        /* \"#utility.yul\":2851:2869   */\n      add\n        /* \"#utility.yul\":2843:2869   */\n      swap1\n      pop\n        /* \"#utility.yul\":2879:2950   */\n      tag_133\n        /* \"#utility.yul\":2947:2948   */\n      0x00\n        /* \"#utility.yul\":2936:2945   */\n      dup4\n        /* \"#utility.yul\":2932:2949   */\n      add\n        /* \"#utility.yul\":2923:2929   */\n      dup5\n        /* \"#utility.yul\":2879:2950   */\n      tag_90\n      jump\t// in\n    tag_133:\n        /* \"#utility.yul\":2735:2957   */\n      swap3\n      swap2\n      pop\n      pop\n      jump\t// out\n        /* \"#utility.yul\":2963:3132   */\n    tag_91:\n        /* \"#utility.yul\":3047:3058   */\n      0x00\n        /* \"#utility.yul\":3081:3087   */\n      dup3\n        /* \"#utility.yul\":3076:3079   */\n      dup3\n        /* \"#utility.yul\":3069:3088   */\n      mstore\n        /* \"#utility.yul\":3121:3125   */\n      0x20\n        /* \"#utility.yul\":3116:3119   */\n      dup3\n        /* \"#utility.yul\":3112:3126   */\n      add\n        /* \"#utility.yul\":3097:3126   */\n      swap1\n      pop\n        /* \"#utility.yul\":2963:3132   */\n      swap3\n      swap2\n      pop\n      pop\n      jump\t// out\n        /* \"#utility.yul\":3138:3297   */\n    tag_92:\n        /* \"#utility.yul\":3278:3289   */\n      0x4e6f74206f776e65720000000000000000000000000000000000000000000000\n        /* \"#utility.yul\":3274:3275   */\n      0x00\n        /* \"#utility.yul\":3266:3272   */\n      dup3\n        /* \"#utility.yul\":3262:3276   */\n      add\n        /* \"#utility.yul\":3255:3290   */\n      mstore\n        /* \"#utility.yul\":3138:3297   */\n      pop\n      jump\t// out\n        /* \"#utility.yul\":3303:3668   */\n    tag_93:\n        /* \"#utility.yul\":3445:3448   */\n      0x00\n        /* \"#utility.yul\":3466:3532   */\n      tag_137\n        /* \"#utility.yul\":3530:3531   */\n      0x09\n        /* \"#utility.yul\":3525:3528   */\n      dup4\n        /* \"#utility.yul\":3466:3532   */\n      tag_91\n      jump\t// in\n    tag_137:\n        /* \"#utility.yul\":3459:3532   */\n      swap2\n      pop\n        /* \"#utility.yul\":3541:3634   */\n      tag_138\n        /* \"#utility.yul\":3630:3633   */\n      dup3\n        /* \"#utility.yul\":3541:3634   */\n      tag_92\n      jump\t// in\n    tag_138:\n        /* \"#utility.yul\":3659:3661   */\n      0x20\n        /* \"#utility.yul\":3654:3657   */\n      dup3\n        /* \"#utility.yul\":3650:3662   */\n      add\n        /* \"#utility.yul\":3643:3662   */\n      swap1\n      pop\n        /* \"#utility.yul\":3303:3668   */\n      swap2\n      swap1\n      pop\n      jump\t// out\n        /* \"#utility.yul\":3674:4093   */\n    tag_34:\n        /* \"#utility.yul\":3840:3844   */\n      0x00\n        /* \"#utility.yul\":3878:3880   */\n      0x20\n        /* \"#utility.yul\":3867:3876   */\n      dup3\n        /* \"#utility.yul\":3863:3881   */\n      add\n        /* \"#utility.yul\":3855:3881   */\n      swap1\n      pop\n        /* \"#utility.yul\":3927:3936   */\n      dup2\n        /* \"#utility.yul\":3921:3925   */\n      dup2\n        /* \"#utility.yul\":3917:3937   */\n      sub\n        /* \"#utility.yul\":3913:3914   */\n      0x00\n        /* \"#utility.yul\":3902:3911   */\n      dup4\n        /* \"#utility.yul\":3898:3915   */\n      add\n        /* \"#utility.yul\":3891:3938   */\n      mstore\n        /* \"#utility.yul\":3955:4086   */\n      tag_140\n        /* \"#utility.yul\":4081:4085   */\n      dup2\n        /* \"#utility.yul\":3955:4086   */\n      tag_93\n      jump\t// in\n    tag_140:\n        /* \"#utility.yul\":3947:4086   */\n      swap1\n      pop\n        /* \"#utility.yul\":3674:4093   */\n      swap2\n      swap1\n      pop\n      jump\t// out\n        /* \"#utility.yul\":4099:4262   */\n    tag_94:\n        /* \"#utility.yul\":4239:4254   */\n      0x546f6f206d616e7920726f777300000000000000000000000000000000000000\n        /* \"#utility.yul\":4235:4236   */\n      0x00\n        /* \"#utility.yul\":4227:4233   */\n      dup3\n        /* \"#utility.yul\":4223:4237   */\n      add\n        /* \"#utility.yul\":4216:4255   */\n      mstore\n        /* \"#utility.yul\":4099:4262   */\n      pop\n      jump\t// out\n        /* \"#utility.yul\":4268:4634   */\n    tag_95:\n        /* \"#utility.yul\":4410:4413   */\n      0x00\n        /* \"#utility.yul\":4431:4498   */\n      tag_143\n        /* \"#utility.yul\":4495:4497   */\n      0x0d\n        /* \"#utility.yul\":4490:4493   */\n      dup4\n        /* \"#utility.yul\":4431:4498   */\n      tag_91\n      jump\t// in\n    tag_143:\n        /* \"#utility.yul\":4424:4498   */\n      swap2\n      pop\n        /* \"#utility.yul\":4507:4600   */\n      tag_144\n        /* \"#utility.yul\":4596:4599   */\n      dup3\n        /* \"#utility.yul\":4507:4600   */\n      tag_94\n      jump\t// in\n    tag_144:\n        /* \"#utility.yul\":4625:4627   */\n      0x20\n        /* \"#utility.yul\":4620:4623   */\n      dup3\n        /* \"#utility.yul\":4616:4628   */\n      add\n        /* \"#utility.yul\":4609:4628   */\n      swap1\n      pop\n        /* \"#utility.yul\":4268:4634   */\n      swap2\n      swap1\n      pop\n      jump\t// out\n        /* \"#utility.yul\":4640:5059   */\n    tag_38:\n        /* \"#utility.yul\":4806:4810   */\n      0x00\n        /* \"#utility.yul\":4844:4846   */\n      0x20\n        /* \"#utility.yul\":4833:4842   */\n      dup3\n        /* \"#utility.yul\":4829:4847   */\n      add\n        /* \"#utility.yul\":4821:4847   */\n      swap1\n      pop\n        /* \"#utility.yul\":4893:4902   */\n      dup2\n        /* \"#utility.yul\":4887:4891   */\n      dup2\n        /* \"#utility.yul\":4883:4903   */\n      sub\n        /* \"#utility.yul\":4879:4880   */\n      0x00\n        /* \"#utility.yul\":4868:4877   */\n      dup4\n        /* \"#utility.yul\":4864:4881   */\n      add\n        /* \"#utility.yul\":4857:4904   */\n      mstore\n        /* \"#utility.yul\":4921:5052   */\n      tag_146\n        /* \"#utility.yul\":5047:5051   */\n      dup2\n        /* \"#utility.yul\":4921:5052   */\n      tag_95\n      jump\t// in\n    tag_146:\n        /* \"#utility.yul\":4913:5052   */\n      swap1\n      pop\n        /* \"#utility.yul\":4640:5059   */\n      swap2\n      swap1\n      pop\n      jump\t// out\n        /* \"#utility.yul\":5065:5245   */\n    tag_44:\n        /* \"#utility.yul\":5113:5190   */\n      0x4e487b7100000000000000000000000000000000000000000000000000000000\n        /* \"#utility.yul\":5110:5111   */\n      0x00\n        /* \"#utility.yul\":5103:5191   */\n      mstore\n        /* \"#utility.yul\":5210:5214   */\n      0x32\n        /* \"#utility.yul\":5207:5208   */\n      0x04\n        /* \"#utility.yul\":5200:5215   */\n      mstore\n        /* \"#utility.yul\":5234:5238   */\n      0x24\n        /* \"#utility.yul\":5231:5232   */\n      0x00\n        /* \"#utility.yul\":5224:5239   */\n      revert\n        /* \"#utility.yul\":5251:5368   */\n    tag_96:\n        /* \"#utility.yul\":5360:5361   */\n      0x00\n        /* \"#utility.yul\":5357:5358   */\n      0x00\n        /* \"#utility.yul\":5350:5362   */\n      revert\n        /* \"#utility.yul\":5374:5491   */\n    tag_97:\n        /* \"#utility.yul\":5483:5484   */\n      0x00\n        /* \"#utility.yul\":5480:5481   */\n      0x00\n        /* \"#utility.yul\":5473:5485   */\n      revert\n        /* \"#utility.yul\":5497:5614   */\n    tag_98:\n        /* \"#utility.yul\":5606:5607   */\n      0x00\n        /* \"#utility.yul\":5603:5604   */\n      0x00\n        /* \"#utility.yul\":5596:5608   */\n      revert\n        /* \"#utility.yul\":5620:6360   */\n    tag_46:\n        /* \"#utility.yul\":5713:5717   */\n      0x00\n        /* \"#utility.yul\":5719:5725   */\n      0x00\n        /* \"#utility.yul\":5775:5786   */\n      dup4\n        /* \"#utility.yul\":5762:5787   */\n      calldataload\n        /* \"#utility.yul\":5875:5876   */\n      0x01\n        /* \"#utility.yul\":5869:5873   */\n      0x20\n        /* \"#utility.yul\":5865:5877   */\n      sub\n        /* \"#utility.yul\":5854:5862   */\n      dup5\n        /* \"#utility.yul\":5838:5852   */\n      calldatasize\n        /* \"#utility.yul\":5834:5863   */\n      sub\n        /* \"#utility.yul\":5830:5878   */\n      sub\n        /* \"#utility.yul\":5810:5828   */\n      dup2\n        /* \"#utility.yul\":5806:5879   */\n      slt\n        /* \"#utility.yul\":5796:5964   */\n      tag_152\n      jumpi\n        /* \"#utility.yul\":5883:5962   */\n      tag_153\n      tag_96\n      jump\t// in\n    tag_153:\n        /* \"#utility.yul\":5796:5964   */\n    tag_152:\n        /* \"#utility.yul\":5995:6013   */\n      dup1\n        /* \"#utility.yul\":5985:5993   */\n      dup5\n        /* \"#utility.yul\":5981:6014   */\n      add\n        /* \"#utility.yul\":5973:6014   */\n      swap3\n      pop\n        /* \"#utility.yul\":6047:6051   */\n      dup3\n        /* \"#utility.yul\":6034:6052   */\n      calldataload\n        /* \"#utility.yul\":6024:6052   */\n      swap2\n      pop\n        /* \"#utility.yul\":6075:6093   */\n      0xffffffffffffffff\n        /* \"#utility.yul\":6067:6073   */\n      dup3\n        /* \"#utility.yul\":6064:6094   */\n      gt\n        /* \"#utility.yul\":6061:6178   */\n      iszero\n      tag_154\n      jumpi\n        /* \"#utility.yul\":6097:6176   */\n      tag_155\n      tag_97\n      jump\t// in\n    tag_155:\n        /* \"#utility.yul\":6061:6178   */\n    tag_154:\n        /* \"#utility.yul\":6205:6207   */\n      0x20\n        /* \"#utility.yul\":6199:6203   */\n      dup4\n        /* \"#utility.yul\":6195:6208   */\n      add\n        /* \"#utility.yul\":6187:6208   */\n      swap3\n      pop\n        /* \"#utility.yul\":6262:6266   */\n      0x20\n        /* \"#utility.yul\":6254:6260   */\n      dup3\n        /* \"#utility.yul\":6250:6267   */\n      mul\n        /* \"#utility.yul\":6234:6248   */\n      calldatasize\n        /* \"#utility.yul\":6230:6268   */\n      sub\n        /* \"#utility.yul\":6224:6228   */\n      dup4\n        /* \"#utility.yul\":6220:6269   */\n      sgt\n        /* \"#utility.yul\":6217:6353   */\n      iszero\n      tag_156\n      jumpi\n        /* \"#utility.yul\":6272:6351   */\n      tag_157\n      tag_98\n      jump\t// in\n    tag_157:\n        /* \"#utility.yul\":6217:6353   */\n    tag_156:\n        /* \"#utility.yul\":5726:6360   */\n      pop\n        /* \"#utility.yul\":5620:6360   */\n      swap3\n      pop\n      swap3\n      swap1\n      pop\n      jump\t// out\n        /* \"#utility.yul\":6366:6529   */\n    tag_99:\n        /* \"#utility.yul\":6506:6521   */\n      0x526f7720746f6f206c6172676500000000000000000000000000000000000000\n        /* \"#utility.yul\":6502:6503   */\n      0x00\n        /* \"#utility.yul\":6494:6500   */\n      dup3\n        /* \"#utility.yul\":6490:6504   */\n      add\n        /* \"#utility.yul\":6483:6522   */\n      mstore\n        /* \"#utility.yul\":6366:6529   */\n      pop\n      jump\t// out\n        /* \"#utility.yul\":6535:6901   */\n    tag_100:\n        /* \"#utility.yul\":6677:6680   */\n      0x00\n        /* \"#utility.yul\":6698:6765   */\n      tag_160\n        /* \"#utility.yul\":6762:6764   */\n      0x0d\n        /* \"#utility.yul\":6757:6760   */\n      dup4\n        /* \"#utility.yul\":6698:6765   */\n      tag_91\n      jump\t// in\n    tag_160:\n        /* \"#utility.yul\":6691:6765   */\n      swap2\n      pop\n        /* \"#utility.yul\":6774:6867   */\n      tag_161\n        /* \"#utility.yul\":6863:6866   */\n      dup3\n        /* \"#utility.yul\":6774:6867   */\n      tag_99\n      jump\t// in\n    tag_161:\n        /* \"#utility.yul\":6892:6894   */\n      0x20\n        /* \"#utility.yul\":6887:6890   */\n      dup3\n        /* \"#utility.yul\":6883:6895   */\n      add\n        /* \"#utility.yul\":6876:6895   */\n      swap1\n      pop\n        /* \"#utility.yul\":6535:6901   */\n      swap2\n      swap1\n      pop\n      jump\t// out\n        /* \"#utility.yul\":6907:7326   */\n    tag_49:\n        /* \"#utility.yul\":7073:7077   */\n      0x00\n        /* \"#utility.yul\":7111:7113   */\n      0x20\n        /* \"#utility.yul\":7100:7109   */\n      dup3\n        /* \"#utility.yul\":7096:7114   */\n      add\n        /* \"#utility.yul\":7088:7114   */\n      swap1\n      pop\n        /* \"#utility.yul\":7160:7169   */\n      dup2\n        /* \"#utility.yul\":7154:7158   */\n      dup2\n        /* \"#utility.yul\":7150:7170   */\n      sub\n        /* \"#utility.yul\":7146:7147   */\n      0x00\n        /* \"#utility.yul\":7135:7144   */\n      dup4\n        /* \"#utility.yul\":7131:7148   */\n      add\n        /* \"#utility.yul\":7124:7171   */\n      mstore\n        /* \"#utility.yul\":7188:7319   */\n      tag_163\n        /* \"#utility.yul\":7314:7318   */\n      dup2\n        /* \"#utility.yul\":7188:7319   */\n      tag_100\n      jump\t// in\n    tag_163:\n        /* \"#utility.yul\":7180:7319   */\n      swap1\n      pop\n        /* \"#utility.yul\":6907:7326   */\n      swap2\n      swap1\n      pop\n      jump\t// out\n        /* \"#utility.yul\":7332:7512   */\n    tag_101:\n        /* \"#utility.yul\":7380:7457   */\n      0x4e487b7100000000000000000000000000000000000000000000000000000000\n        /* \"#utility.yul\":7377:7378   */\n      0x00\n        /* \"#utility.yul\":7370:7458   */\n      mstore\n        /* \"#utility.yul\":7477:7481   */\n      0x11\n        /* \"#utility.yul\":7474:7475   */\n      0x04\n        /* \"#utility.yul\":7467:7482   */\n      mstore\n        /* \"#utility.yul\":7501:7505   */\n      0x24\n        /* \"#utility.yul\":7498:7499   */\n      0x00\n        /* \"#utility.yul\":7491:7506   */\n      revert\n        /* \"#utility.yul\":7518:7709   */\n    tag_62:\n        /* \"#utility.yul\":7558:7561   */\n      0x00\n        /* \"#utility.yul\":7577:7597   */\n      tag_166\n        /* \"#utility.yul\":7595:7596   */\n      dup3\n        /* \"#utility.yul\":7577:7597   */\n      tag_86\n      jump\t// in\n    tag_166:\n        /* \"#utility.yul\":7572:7597   */\n      swap2\n      pop\n        /* \"#utility.yul\":7611:7631   */\n      tag_167\n        /* \"#utility.yul\":7629:7630   */\n      dup4\n        /* \"#utility.yul\":7611:7631   */\n      tag_86\n      jump\t// in\n    tag_167:\n        /* \"#utility.yul\":7606:7631   */\n      swap3\n      pop\n        /* \"#utility.yul\":7654:7655   */\n      dup3\n        /* \"#utility.yul\":7651:7652   */\n      dup3\n        /* \"#utility.yul\":7647:7656   */\n      add\n        /* \"#utility.yul\":7640:7656   */\n      swap1\n      pop\n        /* \"#utility.yul\":7675:7678   */\n      dup1\n        /* \"#utility.yul\":7672:7673   */\n      dup3\n        /* \"#utility.yul\":7669:7679   */\n      gt\n        /* \"#utility.yul\":7666:7702   */\n      iszero\n      tag_168\n      jumpi\n        /* \"#utility.yul\":7682:7700   */\n      tag_169\n      tag_101\n      jump\t// in\n    tag_169:\n        /* \"#utility.yul\":7666:7702   */\n    tag_168:\n        /* \"#utility.yul\":7518:7709   */\n      swap3\n      swap2\n      pop\n      pop\n      jump\t// out\n\n    auxdata: 0xa26469706673582212209866f84e53e13b3cc1cf69ac77f08033646c68579c5d7d84270c50bfd5dc21be64736f6c63430008220033\n}\n",
				"bytecode": {
					"linkReferences": {},
					"object": "6080604052348015600e575f5ffd5b50335f5f6101000a81548173ffffffffffffffffffffffffffffffffffffffff021916908373ffffffffffffffffffffffffffffffffffffffff1602179055506107c28061005b5f395ff3fe608060405234801561000f575f5ffd5b5060043610610060575f3560e01c806318f1024d146100645780631cf54a1b146100805780634869f99d1461009e57806371a7c188146100bc5780638da5cb5b146100ec578063e67953ea1461010a575b5f5ffd5b61007e60048036038101906100799190610475565b610128565b005b610088610320565b60405161009591906104d8565b60405180910390f35b6100a6610325565b6040516100b391906104d8565b60405180910390f35b6100d660048036038101906100d19190610475565b61032b565b6040516100e391906104d8565b60405180910390f35b6100f46103e3565b6040516101019190610530565b60405180910390f35b610112610407565b60405161011f91906104d8565b60405180910390f35b5f5f9054906101000a900473ffffffffffffffffffffffffffffffffffffffff1673ffffffffffffffffffffffffffffffffffffffff163373ffffffffffffffffffffffffffffffffffffffff16146101b6576040517f08c379a00000000000000000000000000000000000000000000000000000000081526004016101ad906105a3565b60405180910390fd5b60328282905011156101fd576040517f08c379a00000000000000000000000000000000000000000000000000000000081526004016101f49061060b565b60405180910390fd5b5f5f90505f5f90505b8383905081101561031357603284848381811061022657610225610629565b5b90506020028101906102389190610662565b9050111561027b576040517f08c379a00000000000000000000000000000000000000000000000000000000081526004016102729061070e565b60405180910390fd5b5f5f90505b84848381811061029357610292610629565b5b90506020028101906102a59190610662565b9050811015610305578484838181106102c1576102c0610629565b5b90506020028101906102d39190610662565b828181106102e4576102e3610629565b5b90506020020135836102f69190610759565b92508080600101915050610280565b508080600101915050610206565b5080600181905550505050565b603281565b60015481565b5f5f5f90505f5f90505b848490508110156103d8575f5f90505b85858381811061035857610357610629565b5b905060200281019061036a9190610662565b90508110156103ca5785858381811061038657610385610629565b5b90506020028101906103989190610662565b828181106103a9576103a8610629565b5b90506020020135836103bb9190610759565b92508080600101915050610345565b508080600101915050610335565b508091505092915050565b5f5f9054906101000a900473ffffffffffffffffffffffffffffffffffffffff1681565b603281565b5f5ffd5b5f5ffd5b5f5ffd5b5f5ffd5b5f5ffd5b5f5f83601f84011261043557610434610414565b5b8235905067ffffffffffffffff81111561045257610451610418565b5b60208301915083602082028301111561046e5761046d61041c565b5b9250929050565b5f5f6020838503121561048b5761048a61040c565b5b5f83013567ffffffffffffffff8111156104a8576104a7610410565b5b6104b485828601610420565b92509250509250929050565b5f819050919050565b6104d2816104c0565b82525050565b5f6020820190506104eb5f8301846104c9565b92915050565b5f73ffffffffffffffffffffffffffffffffffffffff82169050919050565b5f61051a826104f1565b9050919050565b61052a81610510565b82525050565b5f6020820190506105435f830184610521565b92915050565b5f82825260208201905092915050565b7f4e6f74206f776e657200000000000000000000000000000000000000000000005f82015250565b5f61058d600983610549565b915061059882610559565b602082019050919050565b5f6020820190508181035f8301526105ba81610581565b9050919050565b7f546f6f206d616e7920726f7773000000000000000000000000000000000000005f82015250565b5f6105f5600d83610549565b9150610600826105c1565b602082019050919050565b5f6020820190508181035f830152610622816105e9565b9050919050565b7f4e487b71000000000000000000000000000000000000000000000000000000005f52603260045260245ffd5b5f5ffd5b5f5ffd5b5f5ffd5b5f5f8335600160200384360303811261067e5761067d610656565b5b80840192508235915067ffffffffffffffff8211156106a05761069f61065a565b5b6020830192506020820236038313156106bc576106bb61065e565b5b509250929050565b7f526f7720746f6f206c61726765000000000000000000000000000000000000005f82015250565b5f6106f8600d83610549565b9150610703826106c4565b602082019050919050565b5f6020820190508181035f830152610725816106ec565b9050919050565b7f4e487b71000000000000000000000000000000000000000000000000000000005f52601160045260245ffd5b5f610763826104c0565b915061076e836104c0565b92508282019050808211156107865761078561072c565b5b9291505056fea26469706673582212209866f84e53e13b3cc1cf69ac77f08033646c68579c5d7d84270c50bfd5dc21be64736f6c63430008220033",
					"opcodes": "PUSH1 0x80 PUSH1 0x40 MSTORE CALLVALUE DUP1 ISZERO PUSH1 0xE JUMPI PUSH0 PUSH0 REVERT JUMPDEST POP CALLER PUSH0 PUSH0 PUSH2 0x100 EXP DUP2 SLOAD DUP2 PUSH20 0xFFFFFFFFFFFFFFFFFFFFFFFFFFFFFFFFFFFFFFFF MUL NOT AND SWAP1 DUP4 PUSH20 0xFFFFFFFFFFFFFFFFFFFFFFFFFFFFFFFFFFFFFFFF AND MUL OR SWAP1 SSTORE POP PUSH2 0x7C2 DUP1 PUSH2 0x5B PUSH0 CODECOPY PUSH0 RETURN INVALID PUSH1 0x80 PUSH1 0x40 MSTORE CALLVALUE DUP1 ISZERO PUSH2 0xF JUMPI PUSH0 PUSH0 REVERT JUMPDEST POP PUSH1 0x4 CALLDATASIZE LT PUSH2 0x60 JUMPI PUSH0 CALLDATALOAD PUSH1 0xE0 SHR DUP1 PUSH4 0x18F1024D EQ PUSH2 0x64 JUMPI DUP1 PUSH4 0x1CF54A1B EQ PUSH2 0x80 JUMPI DUP1 PUSH4 0x4869F99D EQ PUSH2 0x9E JUMPI DUP1 PUSH4 0x71A7C188 EQ PUSH2 0xBC JUMPI DUP1 PUSH4 0x8DA5CB5B EQ PUSH2 0xEC JUMPI DUP1 PUSH4 0xE67953EA EQ PUSH2 0x10A JUMPI JUMPDEST PUSH0 PUSH0 REVERT JUMPDEST PUSH2 0x7E PUSH1 0x4 DUP1 CALLDATASIZE SUB DUP2 ADD SWAP1 PUSH2 0x79 SWAP2 SWAP1 PUSH2 0x475 JUMP JUMPDEST PUSH2 0x128 JUMP JUMPDEST STOP JUMPDEST PUSH2 0x88 PUSH2 0x320 JUMP JUMPDEST PUSH1 0x40 MLOAD PUSH2 0x95 SWAP2 SWAP1 PUSH2 0x4D8 JUMP JUMPDEST PUSH1 0x40 MLOAD DUP1 SWAP2 SUB SWAP1 RETURN JUMPDEST PUSH2 0xA6 PUSH2 0x325 JUMP JUMPDEST PUSH1 0x40 MLOAD PUSH2 0xB3 SWAP2 SWAP1 PUSH2 0x4D8 JUMP JUMPDEST PUSH1 0x40 MLOAD DUP1 SWAP2 SUB SWAP1 RETURN JUMPDEST PUSH2 0xD6 PUSH1 0x4 DUP1 CALLDATASIZE SUB DUP2 ADD SWAP1 PUSH2 0xD1 SWAP2 SWAP1 PUSH2 0x475 JUMP JUMPDEST PUSH2 0x32B JUMP JUMPDEST PUSH1 0x40 MLOAD PUSH2 0xE3 SWAP2 SWAP1 PUSH2 0x4D8 JUMP JUMPDEST PUSH1 0x40 MLOAD DUP1 SWAP2 SUB SWAP1 RETURN JUMPDEST PUSH2 0xF4 PUSH2 0x3E3 JUMP JUMPDEST PUSH1 0x40 MLOAD PUSH2 0x101 SWAP2 SWAP1 PUSH2 0x530 JUMP JUMPDEST PUSH1 0x40 MLOAD DUP1 SWAP2 SUB SWAP1 RETURN JUMPDEST PUSH2 0x112 PUSH2 0x407 JUMP JUMPDEST PUSH1 0x40 MLOAD PUSH2 0x11F SWAP2 SWAP1 PUSH2 0x4D8 JUMP JUMPDEST PUSH1 0x40 MLOAD DUP1 SWAP2 SUB SWAP1 RETURN JUMPDEST PUSH0 PUSH0 SWAP1 SLOAD SWAP1 PUSH2 0x100 EXP SWAP1 DIV PUSH20 0xFFFFFFFFFFFFFFFFFFFFFFFFFFFFFFFFFFFFFFFF AND PUSH20 0xFFFFFFFFFFFFFFFFFFFFFFFFFFFFFFFFFFFFFFFF AND CALLER PUSH20 0xFFFFFFFFFFFFFFFFFFFFFFFFFFFFFFFFFFFFFFFF AND EQ PUSH2 0x1B6 JUMPI PUSH1 0x40 MLOAD PUSH32 0x8C379A000000000000000000000000000000000000000000000000000000000 DUP2 MSTORE PUSH1 0x4 ADD PUSH2 0x1AD SWAP1 PUSH2 0x5A3 JUMP JUMPDEST PUSH1 0x40 MLOAD DUP1 SWAP2 SUB SWAP1 REVERT JUMPDEST PUSH1 0x32 DUP3 DUP3 SWAP1 POP GT ISZERO PUSH2 0x1FD JUMPI PUSH1 0x40 MLOAD PUSH32 0x8C379A000000000000000000000000000000000000000000000000000000000 DUP2 MSTORE PUSH1 0x4 ADD PUSH2 0x1F4 SWAP1 PUSH2 0x60B JUMP JUMPDEST PUSH1 0x40 MLOAD DUP1 SWAP2 SUB SWAP1 REVERT JUMPDEST PUSH0 PUSH0 SWAP1 POP PUSH0 PUSH0 SWAP1 POP JUMPDEST DUP4 DUP4 SWAP1 POP DUP2 LT ISZERO PUSH2 0x313 JUMPI PUSH1 0x32 DUP5 DUP5 DUP4 DUP2 DUP2 LT PUSH2 0x226 JUMPI PUSH2 0x225 PUSH2 0x629 JUMP JUMPDEST JUMPDEST SWAP1 POP PUSH1 0x20 MUL DUP2 ADD SWAP1 PUSH2 0x238 SWAP2 SWAP1 PUSH2 0x662 JUMP JUMPDEST SWAP1 POP GT ISZERO PUSH2 0x27B JUMPI PUSH1 0x40 MLOAD PUSH32 0x8C379A000000000000000000000000000000000000000000000000000000000 DUP2 MSTORE PUSH1 0x4 ADD PUSH2 0x272 SWAP1 PUSH2 0x70E JUMP JUMPDEST PUSH1 0x40 MLOAD DUP1 SWAP2 SUB SWAP1 REVERT JUMPDEST PUSH0 PUSH0 SWAP1 POP JUMPDEST DUP5 DUP5 DUP4 DUP2 DUP2 LT PUSH2 0x293 JUMPI PUSH2 0x292 PUSH2 0x629 JUMP JUMPDEST JUMPDEST SWAP1 POP PUSH1 0x20 MUL DUP2 ADD SWAP1 PUSH2 0x2A5 SWAP2 SWAP1 PUSH2 0x662 JUMP JUMPDEST SWAP1 POP DUP2 LT ISZERO PUSH2 0x305 JUMPI DUP5 DUP5 DUP4 DUP2 DUP2 LT PUSH2 0x2C1 JUMPI PUSH2 0x2C0 PUSH2 0x629 JUMP JUMPDEST JUMPDEST SWAP1 POP PUSH1 0x20 MUL DUP2 ADD SWAP1 PUSH2 0x2D3 SWAP2 SWAP1 PUSH2 0x662 JUMP JUMPDEST DUP3 DUP2 DUP2 LT PUSH2 0x2E4 JUMPI PUSH2 0x2E3 PUSH2 0x629 JUMP JUMPDEST JUMPDEST SWAP1 POP PUSH1 0x20 MUL ADD CALLDATALOAD DUP4 PUSH2 0x2F6 SWAP2 SWAP1 PUSH2 0x759 JUMP JUMPDEST SWAP3 POP DUP1 DUP1 PUSH1 0x1 ADD SWAP2 POP POP PUSH2 0x280 JUMP JUMPDEST POP DUP1 DUP1 PUSH1 0x1 ADD SWAP2 POP POP PUSH2 0x206 JUMP JUMPDEST POP DUP1 PUSH1 0x1 DUP2 SWAP1 SSTORE POP POP POP POP JUMP JUMPDEST PUSH1 0x32 DUP2 JUMP JUMPDEST PUSH1 0x1 SLOAD DUP2 JUMP JUMPDEST PUSH0 PUSH0 PUSH0 SWAP1 POP PUSH0 PUSH0 SWAP1 POP JUMPDEST DUP5 DUP5 SWAP1 POP DUP2 LT ISZERO PUSH2 0x3D8 JUMPI PUSH0 PUSH0 SWAP1 POP JUMPDEST DUP6 DUP6 DUP4 DUP2 DUP2 LT PUSH2 0x358 JUMPI PUSH2 0x357 PUSH2 0x629 JUMP JUMPDEST JUMPDEST SWAP1 POP PUSH1 0x20 MUL DUP2 ADD SWAP1 PUSH2 0x36A SWAP2 SWAP1 PUSH2 0x662 JUMP JUMPDEST SWAP1 POP DUP2 LT ISZERO PUSH2 0x3CA JUMPI DUP6 DUP6 DUP4 DUP2 DUP2 LT PUSH2 0x386 JUMPI PUSH2 0x385 PUSH2 0x629 JUMP JUMPDEST JUMPDEST SWAP1 POP PUSH1 0x20 MUL DUP2 ADD SWAP1 PUSH2 0x398 SWAP2 SWAP1 PUSH2 0x662 JUMP JUMPDEST DUP3 DUP2 DUP2 LT PUSH2 0x3A9 JUMPI PUSH2 0x3A8 PUSH2 0x629 JUMP JUMPDEST JUMPDEST SWAP1 POP PUSH1 0x20 MUL ADD CALLDATALOAD DUP4 PUSH2 0x3BB SWAP2 SWAP1 PUSH2 0x759 JUMP JUMPDEST SWAP3 POP DUP1 DUP1 PUSH1 0x1 ADD SWAP2 POP POP PUSH2 0x345 JUMP JUMPDEST POP DUP1 DUP1 PUSH1 0x1 ADD SWAP2 POP POP PUSH2 0x335 JUMP JUMPDEST POP DUP1 SWAP2 POP POP SWAP3 SWAP2 POP POP JUMP JUMPDEST PUSH0 PUSH0 SWAP1 SLOAD SWAP1 PUSH2 0x100 EXP SWAP1 DIV PUSH20 0xFFFFFFFFFFFFFFFFFFFFFFFFFFFFFFFFFFFFFFFF AND DUP2 JUMP JUMPDEST PUSH1 0x32 DUP2 JUMP JUMPDEST PUSH0 PUSH0 REVERT JUMPDEST PUSH0 PUSH0 REVERT JUMPDEST PUSH0 PUSH0 REVERT JUMPDEST PUSH0 PUSH0 REVERT JUMPDEST PUSH0 PUSH0 REVERT JUMPDEST PUSH0 PUSH0 DUP4 PUSH1 0x1F DUP5 ADD SLT PUSH2 0x435 JUMPI PUSH2 0x434 PUSH2 0x414 JUMP JUMPDEST JUMPDEST DUP3 CALLDATALOAD SWAP1 POP PUSH8 0xFFFFFFFFFFFFFFFF DUP2 GT ISZERO PUSH2 0x452 JUMPI PUSH2 0x451 PUSH2 0x418 JUMP JUMPDEST JUMPDEST PUSH1 0x20 DUP4 ADD SWAP2 POP DUP4 PUSH1 0x20 DUP3 MUL DUP4 ADD GT ISZERO PUSH2 0x46E JUMPI PUSH2 0x46D PUSH2 0x41C JUMP JUMPDEST JUMPDEST SWAP3 POP SWAP3 SWAP1 POP JUMP JUMPDEST PUSH0 PUSH0 PUSH1 0x20 DUP4 DUP6 SUB SLT ISZERO PUSH2 0x48B JUMPI PUSH2 0x48A PUSH2 0x40C JUMP JUMPDEST JUMPDEST PUSH0 DUP4 ADD CALLDATALOAD PUSH8 0xFFFFFFFFFFFFFFFF DUP2 GT ISZERO PUSH2 0x4A8 JUMPI PUSH2 0x4A7 PUSH2 0x410 JUMP JUMPDEST JUMPDEST PUSH2 0x4B4 DUP6 DUP3 DUP7 ADD PUSH2 0x420 JUMP JUMPDEST SWAP3 POP SWAP3 POP POP SWAP3 POP SWAP3 SWAP1 POP JUMP JUMPDEST PUSH0 DUP2 SWAP1 POP SWAP2 SWAP1 POP JUMP JUMPDEST PUSH2 0x4D2 DUP2 PUSH2 0x4C0 JUMP JUMPDEST DUP3 MSTORE POP POP JUMP JUMPDEST PUSH0 PUSH1 0x20 DUP3 ADD SWAP1 POP PUSH2 0x4EB PUSH0 DUP4 ADD DUP5 PUSH2 0x4C9 JUMP JUMPDEST SWAP3 SWAP2 POP POP JUMP JUMPDEST PUSH0 PUSH20 0xFFFFFFFFFFFFFFFFFFFFFFFFFFFFFFFFFFFFFFFF DUP3 AND SWAP1 POP SWAP2 SWAP1 POP JUMP JUMPDEST PUSH0 PUSH2 0x51A DUP3 PUSH2 0x4F1 JUMP JUMPDEST SWAP1 POP SWAP2 SWAP1 POP JUMP JUMPDEST PUSH2 0x52A DUP2 PUSH2 0x510 JUMP JUMPDEST DUP3 MSTORE POP POP JUMP JUMPDEST PUSH0 PUSH1 0x20 DUP3 ADD SWAP1 POP PUSH2 0x543 PUSH0 DUP4 ADD DUP5 PUSH2 0x521 JUMP JUMPDEST SWAP3 SWAP2 POP POP JUMP JUMPDEST PUSH0 DUP3 DUP3 MSTORE PUSH1 0x20 DUP3 ADD SWAP1 POP SWAP3 SWAP2 POP POP JUMP JUMPDEST PUSH32 0x4E6F74206F776E65720000000000000000000000000000000000000000000000 PUSH0 DUP3 ADD MSTORE POP JUMP JUMPDEST PUSH0 PUSH2 0x58D PUSH1 0x9 DUP4 PUSH2 0x549 JUMP JUMPDEST SWAP2 POP PUSH2 0x598 DUP3 PUSH2 0x559 JUMP JUMPDEST PUSH1 0x20 DUP3 ADD SWAP1 POP SWAP2 SWAP1 POP JUMP JUMPDEST PUSH0 PUSH1 0x20 DUP3 ADD SWAP1 POP DUP2 DUP2 SUB PUSH0 DUP4 ADD MSTORE PUSH2 0x5BA DUP2 PUSH2 0x581 JUMP JUMPDEST SWAP1 POP SWAP2 SWAP1 POP JUMP JUMPDEST PUSH32 0x546F6F206D616E7920726F777300000000000000000000000000000000000000 PUSH0 DUP3 ADD MSTORE POP JUMP JUMPDEST PUSH0 PUSH2 0x5F5 PUSH1 0xD DUP4 PUSH2 0x549 JUMP JUMPDEST SWAP2 POP PUSH2 0x600 DUP3 PUSH2 0x5C1 JUMP JUMPDEST PUSH1 0x20 DUP3 ADD SWAP1 POP SWAP2 SWAP1 POP JUMP JUMPDEST PUSH0 PUSH1 0x20 DUP3 ADD SWAP1 POP DUP2 DUP2 SUB PUSH0 DUP4 ADD MSTORE PUSH2 0x622 DUP2 PUSH2 0x5E9 JUMP JUMPDEST SWAP1 POP SWAP2 SWAP1 POP JUMP JUMPDEST PUSH32 0x4E487B7100000000000000000000000000000000000000000000000000000000 PUSH0 MSTORE PUSH1 0x32 PUSH1 0x4 MSTORE PUSH1 0x24 PUSH0 REVERT JUMPDEST PUSH0 PUSH0 REVERT JUMPDEST PUSH0 PUSH0 REVERT JUMPDEST PUSH0 PUSH0 REVERT JUMPDEST PUSH0 PUSH0 DUP4 CALLDATALOAD PUSH1 0x1 PUSH1 0x20 SUB DUP5 CALLDATASIZE SUB SUB DUP2 SLT PUSH2 0x67E JUMPI PUSH2 0x67D PUSH2 0x656 JUMP JUMPDEST JUMPDEST DUP1 DUP5 ADD SWAP3 POP DUP3 CALLDATALOAD SWAP2 POP PUSH8 0xFFFFFFFFFFFFFFFF DUP3 GT ISZERO PUSH2 0x6A0 JUMPI PUSH2 0x69F PUSH2 0x65A JUMP JUMPDEST JUMPDEST PUSH1 0x20 DUP4 ADD SWAP3 POP PUSH1 0x20 DUP3 MUL CALLDATASIZE SUB DUP4 SGT ISZERO PUSH2 0x6BC JUMPI PUSH2 0x6BB PUSH2 0x65E JUMP JUMPDEST JUMPDEST POP SWAP3 POP SWAP3 SWAP1 POP JUMP JUMPDEST PUSH32 0x526F7720746F6F206C6172676500000000000000000000000000000000000000 PUSH0 DUP3 ADD MSTORE POP JUMP JUMPDEST PUSH0 PUSH2 0x6F8 PUSH1 0xD DUP4 PUSH2 0x549 JUMP JUMPDEST SWAP2 POP PUSH2 0x703 DUP3 PUSH2 0x6C4 JUMP JUMPDEST PUSH1 0x20 DUP3 ADD SWAP1 POP SWAP2 SWAP1 POP JUMP JUMPDEST PUSH0 PUSH1 0x20 DUP3 ADD SWAP1 POP DUP2 DUP2 SUB PUSH0 DUP4 ADD MSTORE PUSH2 0x725 DUP2 PUSH2 0x6EC JUMP JUMPDEST SWAP1 POP SWAP2 SWAP1 POP JUMP JUMPDEST PUSH32 0x4E487B7100000000000000000000000000000000000000000000000000000000 PUSH0 MSTORE PUSH1 0x11 PUSH1 0x4 MSTORE PUSH1 0x24 PUSH0 REVERT JUMPDEST PUSH0 PUSH2 0x763 DUP3 PUSH2 0x4C0 JUMP JUMPDEST SWAP2 POP PUSH2 0x76E DUP4 PUSH2 0x4C0 JUMP JUMPDEST SWAP3 POP DUP3 DUP3 ADD SWAP1 POP DUP1 DUP3 GT ISZERO PUSH2 0x786 JUMPI PUSH2 0x785 PUSH2 0x72C JUMP JUMPDEST JUMPDEST SWAP3 SWAP2 POP POP JUMP INVALID LOG2 PUSH5 0x6970667358 0x22 SLT KECCAK256 SWAP9 PUSH7 0xF84E53E13B3CC1 0xCF PUSH10 0xAC77F08033646C68579C TSTORE PUSH30 0x84270C50BFD5DC21BE64736F6C6343000822003300000000000000000000 "
				},
				"gasEstimates": {
					"creation": {
						"codeDepositCost": "397200",
						"executionCost": "24698",
						"totalCost": "421898"
					},
					"external": {
						"MAX_COLUMNS()": "325",
						"MAX_ROWS()": "413",
						"calculateNestedSum(uint256[][])": "infinite",
						"owner()": "2573",
						"processAndStore(uint256[][])": "infinite",
						"totalSum()": "2447"
					}
				},
				"methodIdentifiers": {
					"MAX_COLUMNS()": "1cf54a1b",
					"MAX_ROWS()": "e67953ea",
					"calculateNestedSum(uint256[][])": "71a7c188",
					"owner()": "8da5cb5b",
					"processAndStore(uint256[][])": "18f1024d",
					"totalSum()": "4869f99d"
				}
			},
			"storageLayout": {
				"storage": [
					{
						"astId": 110,
						"contract": "prac34.sol:NestedCalldataArrayPatched",
						"label": "owner",
						"offset": 0,
						"slot": "0",
						"type": "t_address"
					},
					{
						"astId": 112,
						"contract": "prac34.sol:NestedCalldataArrayPatched",
						"label": "totalSum",
						"offset": 0,
						"slot": "1",
						"type": "t_uint256"
					}
				],
				"types": {
					"t_address": {
						"encoding": "inplace",
						"label": "address",
						"numberOfBytes": "20"
					},
					"t_uint256": {
						"encoding": "inplace",
						"label": "uint256",
						"numberOfBytes": "32"
					}
				}
			},
			"userdoc": {
				"kind": "user",
				"methods": {},
				"version": 1
			}
		}
	}
}