{
	"prac43.sol": {
		"FunctionExecutionChainingPatched": {
			"abi": [
				{
					"inputs": [],
					"name": "BONUS",
					"outputs": [
						{
							"internalType": "uint256",
							"name": "",
							"type": "uint256"
						}
					],
					"stateMutability": "view",
					"type": "function"
				},
				{
					"inputs": [
						{
							"internalType": "address",
							"name": "",
							"type": "address"
						}
					],
					"name": "balances",
					"outputs": [
						{
							"internalType": "uint256",
							"name": "",
							"type": "uint256"
						}
					],
					"stateMutability": "view",
					"type": "function"
				},
				{
					"inputs": [
						{
							"internalType": "uint256",
							"name": "_amount",
							"type": "uint256"
						}
					],
					"name": "deposit",
					"outputs": [],
					"stateMutability": "nonpayable",
					"type": "function"
				},
				{
					"inputs": [
						{
							"internalType": "uint256",
							"name": "_amount",
							"type": "uint256"
						}
					],
					"name": "depositWithBonus",
					"outputs": [],
					"stateMutability": "nonpayable",
					"type": "function"
				},
				{
					"inputs": [],
					"name": "totalDeposits",
					"outputs": [
						{
							"internalType": "uint256",
							"name": "",
							"type": "uint256"
						}
					],
					"stateMutability": "view",
					"type": "function"
				}
			],
			"devdoc": {
				"kind": "dev",
				"methods": {},
				"version": 1
			},
			"evm": {
				"assembly": "    /* \"prac43.sol\":12821:14366  contract FunctionExecutionChainingPatched {... */\n  mstore(0x40, 0x80)\n  callvalue\n  dup1\n  iszero\n  tag_1\n  jumpi\n  revert(0x00, 0x00)\ntag_1:\n  pop\n  dataSize(sub_0)\n  dup1\n  dataOffset(sub_0)\n  0x00\n  codecopy\n  0x00\n  return\nstop\n\nsub_0: assembly {\n        /* \"prac43.sol\":12821:14366  contract FunctionExecutionChainingPatched {... */\n      mstore(0x40, 0x80)\n      callvalue\n      dup1\n      iszero\n      tag_1\n      jumpi\n      revert(0x00, 0x00)\n    tag_1:\n      pop\n      jumpi(tag_2, lt(calldatasize, 0x04))\n      shr(0xe0, calldataload(0x00))\n      dup1\n      0x27e235e3\n      eq\n      tag_3\n      jumpi\n      dup1\n      0x2f7c9ed6\n      eq\n      tag_4\n      jumpi\n      dup1\n      0x4b8624c4\n      eq\n      tag_5\n      jumpi\n      dup1\n      0x7d882097\n      eq\n      tag_6\n      jumpi\n      dup1\n      0xb6b55f25\n      eq\n      tag_7\n      jumpi\n    tag_2:\n      revert(0x00, 0x00)\n        /* \"prac43.sol\":12872:12915  mapping(address => uint256) public balances */\n    tag_3:\n      tag_8\n      0x04\n      dup1\n      calldatasize\n      sub\n      dup2\n      add\n      swap1\n      tag_9\n      swap2\n      swap1\n      tag_10\n      jump\t// in\n    tag_9:\n      tag_11\n      jump\t// in\n    tag_8:\n      mload(0x40)\n      tag_12\n      swap2\n      swap1\n      tag_13\n      jump\t// in\n    tag_12:\n      mload(0x40)\n      dup1\n      swap2\n      sub\n      swap1\n      return\n        /* \"prac43.sol\":14128:14363  function depositWithBonus(... */\n    tag_4:\n      tag_14\n      0x04\n      dup1\n      calldatasize\n      sub\n      dup2\n      add\n      swap1\n      tag_15\n      swap2\n      swap1\n      tag_16\n      jump\t// in\n    tag_15:\n      tag_17\n      jump\t// in\n    tag_14:\n      stop\n        /* \"prac43.sol\":12961:12995  uint256 public constant BONUS = 10 */\n    tag_5:\n      tag_18\n      tag_19\n      jump\t// in\n    tag_18:\n      mload(0x40)\n      tag_20\n      swap2\n      swap1\n      tag_13\n      jump\t// in\n    tag_20:\n      mload(0x40)\n      dup1\n      swap2\n      sub\n      swap1\n      return\n        /* \"prac43.sol\":12924:12952  uint256 public totalDeposits */\n    tag_6:\n      tag_21\n      tag_22\n      jump\t// in\n    tag_21:\n      mload(0x40)\n      tag_23\n      swap2\n      swap1\n      tag_13\n      jump\t// in\n    tag_23:\n      mload(0x40)\n      dup1\n      swap2\n      sub\n      swap1\n      return\n        /* \"prac43.sol\":13004:13233  function deposit(... */\n    tag_7:\n      tag_24\n      0x04\n      dup1\n      calldatasize\n      sub\n      dup2\n      add\n      swap1\n      tag_25\n      swap2\n      swap1\n      tag_16\n      jump\t// in\n    tag_25:\n      tag_26\n      jump\t// in\n    tag_24:\n      stop\n        /* \"prac43.sol\":12872:12915  mapping(address => uint256) public balances */\n    tag_11:\n      mstore(0x20, 0x00)\n      dup1\n      0x00\n      mstore\n      keccak256(0x00, 0x40)\n      0x00\n      swap2\n      pop\n      swap1\n      pop\n      sload\n      dup2\n      jump\t// out\n        /* \"prac43.sol\":14128:14363  function depositWithBonus(... */\n    tag_17:\n        /* \"prac43.sol\":14221:14245  depositInternal(_amount) */\n      tag_28\n        /* \"prac43.sol\":14237:14244  _amount */\n      dup2\n        /* \"prac43.sol\":14221:14236  depositInternal */\n      tag_29\n        /* \"prac43.sol\":14221:14245  depositInternal(_amount) */\n      jump\t// in\n    tag_28:\n        /* \"prac43.sol\":14258:14324  addBalance(... */\n      tag_30\n        /* \"prac43.sol\":14283:14293  msg.sender */\n      caller\n        /* \"prac43.sol\":12993:12995  10 */\n      0x0a\n        /* \"prac43.sol\":14258:14268  addBalance */\n      tag_31\n        /* \"prac43.sol\":14258:14324  addBalance(... */\n      jump\t// in\n    tag_30:\n        /* \"prac43.sol\":14337:14355  updateTotal(BONUS) */\n      tag_32\n        /* \"prac43.sol\":12993:12995  10 */\n      0x0a\n        /* \"prac43.sol\":14337:14348  updateTotal */\n      tag_33\n        /* \"prac43.sol\":14337:14355  updateTotal(BONUS) */\n      jump\t// in\n    tag_32:\n        /* \"prac43.sol\":14128:14363  function depositWithBonus(... */\n      pop\n      jump\t// out\n        /* \"prac43.sol\":12961:12995  uint256 public constant BONUS = 10 */\n    tag_19:\n        /* \"prac43.sol\":12993:12995  10 */\n      0x0a\n        /* \"prac43.sol\":12961:12995  uint256 public constant BONUS = 10 */\n      dup2\n      jump\t// out\n        /* \"prac43.sol\":12924:12952  uint256 public totalDeposits */\n    tag_22:\n      sload(0x01)\n      dup2\n      jump\t// out\n        /* \"prac43.sol\":13004:13233  function deposit(... */\n    tag_26:\n        /* \"prac43.sol\":13088:13111  validateAmount(_amount) */\n      tag_35\n        /* \"prac43.sol\":13103:13110  _amount */\n      dup2\n        /* \"prac43.sol\":13088:13102  validateAmount */\n      tag_36\n        /* \"prac43.sol\":13088:13111  validateAmount(_amount) */\n      jump\t// in\n    tag_35:\n        /* \"prac43.sol\":13124:13192  addBalance(... */\n      tag_37\n        /* \"prac43.sol\":13149:13159  msg.sender */\n      caller\n        /* \"prac43.sol\":13174:13181  _amount */\n      dup3\n        /* \"prac43.sol\":13124:13134  addBalance */\n      tag_31\n        /* \"prac43.sol\":13124:13192  addBalance(... */\n      jump\t// in\n    tag_37:\n        /* \"prac43.sol\":13205:13225  updateTotal(_amount) */\n      tag_38\n        /* \"prac43.sol\":13217:13224  _amount */\n      dup2\n        /* \"prac43.sol\":13205:13216  updateTotal */\n      tag_33\n        /* \"prac43.sol\":13205:13225  updateTotal(_amount) */\n      jump\t// in\n    tag_38:\n        /* \"prac43.sol\":13004:13233  function deposit(... */\n      pop\n      jump\t// out\n        /* \"prac43.sol\":13815:14052  function depositInternal(... */\n    tag_29:\n        /* \"prac43.sol\":13907:13930  validateAmount(_amount) */\n      tag_40\n        /* \"prac43.sol\":13922:13929  _amount */\n      dup2\n        /* \"prac43.sol\":13907:13921  validateAmount */\n      tag_36\n        /* \"prac43.sol\":13907:13930  validateAmount(_amount) */\n      jump\t// in\n    tag_40:\n        /* \"prac43.sol\":13943:14011  addBalance(... */\n      tag_41\n        /* \"prac43.sol\":13968:13978  msg.sender */\n      caller\n        /* \"prac43.sol\":13993:14000  _amount */\n      dup3\n        /* \"prac43.sol\":13943:13953  addBalance */\n      tag_31\n        /* \"prac43.sol\":13943:14011  addBalance(... */\n      jump\t// in\n    tag_41:\n        /* \"prac43.sol\":14024:14044  updateTotal(_amount) */\n      tag_42\n        /* \"prac43.sol\":14036:14043  _amount */\n      dup2\n        /* \"prac43.sol\":14024:14035  updateTotal */\n      tag_33\n        /* \"prac43.sol\":14024:14044  updateTotal(_amount) */\n      jump\t// in\n    tag_42:\n        /* \"prac43.sol\":13815:14052  function depositInternal(... */\n      pop\n      jump\t// out\n        /* \"prac43.sol\":13534:13679  function addBalance(... */\n    tag_31:\n        /* \"prac43.sol\":13664:13671  _amount */\n      dup1\n        /* \"prac43.sol\":13645:13653  balances */\n      0x00\n        /* \"prac43.sol\":13645:13660  balances[_user] */\n      0x00\n        /* \"prac43.sol\":13654:13659  _user */\n      dup5\n        /* \"prac43.sol\":13645:13660  balances[_user] */\n      0xffffffffffffffffffffffffffffffffffffffff\n      and\n      0xffffffffffffffffffffffffffffffffffffffff\n      and\n      dup2\n      mstore\n      0x20\n      add\n      swap1\n      dup2\n      mstore\n      0x20\n      add\n      0x00\n      keccak256\n      0x00\n        /* \"prac43.sol\":13645:13671  balances[_user] += _amount */\n      dup3\n      dup3\n      sload\n      tag_44\n      swap2\n      swap1\n      tag_45\n      jump\t// in\n    tag_44:\n      swap3\n      pop\n      pop\n      dup2\n      swap1\n      sstore\n      pop\n        /* \"prac43.sol\":13534:13679  function addBalance(... */\n      pop\n      pop\n      jump\t// out\n        /* \"prac43.sol\":13687:13807  function updateTotal(... */\n    tag_33:\n        /* \"prac43.sol\":13792:13799  _amount */\n      dup1\n        /* \"prac43.sol\":13775:13788  totalDeposits */\n      0x01\n      0x00\n        /* \"prac43.sol\":13775:13799  totalDeposits += _amount */\n      dup3\n      dup3\n      sload\n      tag_47\n      swap2\n      swap1\n      tag_45\n      jump\t// in\n    tag_47:\n      swap3\n      pop\n      pop\n      dup2\n      swap1\n      sstore\n      pop\n        /* \"prac43.sol\":13687:13807  function updateTotal(... */\n      pop\n      jump\t// out\n        /* \"prac43.sol\":13241:13526  function validateAmount(... */\n    tag_36:\n        /* \"prac43.sol\":13378:13379  0 */\n      0x00\n        /* \"prac43.sol\":13368:13375  _amount */\n      dup2\n        /* \"prac43.sol\":13368:13379  _amount > 0 */\n      gt\n        /* \"prac43.sol\":13346:13425  require(... */\n      tag_49\n      jumpi\n      mload(0x40)\n      0x08c379a000000000000000000000000000000000000000000000000000000000\n      dup2\n      mstore\n      0x04\n      add\n      tag_50\n      swap1\n      tag_51\n      jump\t// in\n    tag_50:\n      mload(0x40)\n      dup1\n      swap2\n      sub\n      swap1\n      revert\n    tag_49:\n        /* \"prac43.sol\":13471:13474  100 */\n      0x64\n        /* \"prac43.sol\":13460:13467  _amount */\n      dup2\n        /* \"prac43.sol\":13460:13474  _amount <= 100 */\n      gt\n      iszero\n        /* \"prac43.sol\":13438:13518  require(... */\n      tag_52\n      jumpi\n      mload(0x40)\n      0x08c379a000000000000000000000000000000000000000000000000000000000\n      dup2\n      mstore\n      0x04\n      add\n      tag_53\n      swap1\n      tag_54\n      jump\t// in\n    tag_53:\n      mload(0x40)\n      dup1\n      swap2\n      sub\n      swap1\n      revert\n    tag_52:\n        /* \"prac43.sol\":13241:13526  function validateAmount(... */\n      pop\n      jump\t// out\n        /* \"#utility.yul\":88:205   */\n    tag_56:\n        /* \"#utility.yul\":197:198   */\n      0x00\n        /* \"#utility.yul\":194:195   */\n      0x00\n        /* \"#utility.yul\":187:199   */\n      revert\n        /* \"#utility.yul\":334:460   */\n    tag_58:\n        /* \"#utility.yul\":371:378   */\n      0x00\n        /* \"#utility.yul\":411:453   */\n      0xffffffffffffffffffffffffffffffffffffffff\n        /* \"#utility.yul\":404:409   */\n      dup3\n        /* \"#utility.yul\":400:454   */\n      and\n        /* \"#utility.yul\":389:454   */\n      swap1\n      pop\n        /* \"#utility.yul\":334:460   */\n      swap2\n      swap1\n      pop\n      jump\t// out\n        /* \"#utility.yul\":466:562   */\n    tag_59:\n        /* \"#utility.yul\":503:510   */\n      0x00\n        /* \"#utility.yul\":532:556   */\n      tag_78\n        /* \"#utility.yul\":550:555   */\n      dup3\n        /* \"#utility.yul\":532:556   */\n      tag_58\n      jump\t// in\n    tag_78:\n        /* \"#utility.yul\":521:556   */\n      swap1\n      pop\n        /* \"#utility.yul\":466:562   */\n      swap2\n      swap1\n      pop\n      jump\t// out\n        /* \"#utility.yul\":568:690   */\n    tag_60:\n        /* \"#utility.yul\":641:665   */\n      tag_80\n        /* \"#utility.yul\":659:664   */\n      dup2\n        /* \"#utility.yul\":641:665   */\n      tag_59\n      jump\t// in\n    tag_80:\n        /* \"#utility.yul\":634:639   */\n      dup2\n        /* \"#utility.yul\":631:666   */\n      eq\n        /* \"#utility.yul\":621:684   */\n      tag_81\n      jumpi\n        /* \"#utility.yul\":680:681   */\n      0x00\n        /* \"#utility.yul\":677:678   */\n      0x00\n        /* \"#utility.yul\":670:682   */\n      revert\n        /* \"#utility.yul\":621:684   */\n    tag_81:\n        /* \"#utility.yul\":568:690   */\n      pop\n      jump\t// out\n        /* \"#utility.yul\":696:835   */\n    tag_61:\n        /* \"#utility.yul\":742:747   */\n      0x00\n        /* \"#utility.yul\":780:786   */\n      dup2\n        /* \"#utility.yul\":767:787   */\n      calldataload\n        /* \"#utility.yul\":758:787   */\n      swap1\n      pop\n        /* \"#utility.yul\":796:829   */\n      tag_83\n        /* \"#utility.yul\":823:828   */\n      dup2\n        /* \"#utility.yul\":796:829   */\n      tag_60\n      jump\t// in\n    tag_83:\n        /* \"#utility.yul\":696:835   */\n      swap3\n      swap2\n      pop\n      pop\n      jump\t// out\n        /* \"#utility.yul\":841:1170   */\n    tag_10:\n        /* \"#utility.yul\":900:906   */\n      0x00\n        /* \"#utility.yul\":949:951   */\n      0x20\n        /* \"#utility.yul\":937:946   */\n      dup3\n        /* \"#utility.yul\":928:935   */\n      dup5\n        /* \"#utility.yul\":924:947   */\n      sub\n        /* \"#utility.yul\":920:952   */\n      slt\n        /* \"#utility.yul\":917:1036   */\n      iszero\n      tag_85\n      jumpi\n        /* \"#utility.yul\":955:1034   */\n      tag_86\n      tag_56\n      jump\t// in\n    tag_86:\n        /* \"#utility.yul\":917:1036   */\n    tag_85:\n        /* \"#utility.yul\":1075:1076   */\n      0x00\n        /* \"#utility.yul\":1100:1153   */\n      tag_87\n        /* \"#utility.yul\":1145:1152   */\n      dup5\n        /* \"#utility.yul\":1136:1142   */\n      dup3\n        /* \"#utility.yul\":1125:1134   */\n      dup6\n        /* \"#utility.yul\":1121:1143   */\n      add\n        /* \"#utility.yul\":1100:1153   */\n      tag_61\n      jump\t// in\n    tag_87:\n        /* \"#utility.yul\":1090:1153   */\n      swap2\n      pop\n        /* \"#utility.yul\":1046:1163   */\n      pop\n        /* \"#utility.yul\":841:1170   */\n      swap3\n      swap2\n      pop\n      pop\n      jump\t// out\n        /* \"#utility.yul\":1176:1253   */\n    tag_62:\n        /* \"#utility.yul\":1213:1220   */\n      0x00\n        /* \"#utility.yul\":1242:1247   */\n      dup2\n        /* \"#utility.yul\":1231:1247   */\n      swap1\n      pop\n        /* \"#utility.yul\":1176:1253   */\n      swap2\n      swap1\n      pop\n      jump\t// out\n        /* \"#utility.yul\":1259:1377   */\n    tag_63:\n        /* \"#utility.yul\":1346:1370   */\n      tag_90\n        /* \"#utility.yul\":1364:1369   */\n      dup2\n        /* \"#utility.yul\":1346:1370   */\n      tag_62\n      jump\t// in\n    tag_90:\n        /* \"#utility.yul\":1341:1344   */\n      dup3\n        /* \"#utility.yul\":1334:1371   */\n      mstore\n        /* \"#utility.yul\":1259:1377   */\n      pop\n      pop\n      jump\t// out\n        /* \"#utility.yul\":1383:1605   */\n    tag_13:\n        /* \"#utility.yul\":1476:1480   */\n      0x00\n        /* \"#utility.yul\":1514:1516   */\n      0x20\n        /* \"#utility.yul\":1503:1512   */\n      dup3\n        /* \"#utility.yul\":1499:1517   */\n      add\n        /* \"#utility.yul\":1491:1517   */\n      swap1\n      pop\n        /* \"#utility.yul\":1527:1598   */\n      tag_92\n        /* \"#utility.yul\":1595:1596   */\n      0x00\n        /* \"#utility.yul\":1584:1593   */\n      dup4\n        /* \"#utility.yul\":1580:1597   */\n      add\n        /* \"#utility.yul\":1571:1577   */\n      dup5\n        /* \"#utility.yul\":1527:1598   */\n      tag_63\n      jump\t// in\n    tag_92:\n        /* \"#utility.yul\":1383:1605   */\n      swap3\n      swap2\n      pop\n      pop\n      jump\t// out\n        /* \"#utility.yul\":1611:1733   */\n    tag_64:\n        /* \"#utility.yul\":1684:1708   */\n      tag_94\n        /* \"#utility.yul\":1702:1707   */\n      dup2\n        /* \"#utility.yul\":1684:1708   */\n      tag_62\n      jump\t// in\n    tag_94:\n        /* \"#utility.yul\":1677:1682   */\n      dup2\n        /* \"#utility.yul\":1674:1709   */\n      eq\n        /* \"#utility.yul\":1664:1727   */\n      tag_95\n      jumpi\n        /* \"#utility.yul\":1723:1724   */\n      0x00\n        /* \"#utility.yul\":1720:1721   */\n      0x00\n        /* \"#utility.yul\":1713:1725   */\n      revert\n        /* \"#utility.yul\":1664:1727   */\n    tag_95:\n        /* \"#utility.yul\":1611:1733   */\n      pop\n      jump\t// out\n        /* \"#utility.yul\":1739:1878   */\n    tag_65:\n        /* \"#utility.yul\":1785:1790   */\n      0x00\n        /* \"#utility.yul\":1823:1829   */\n      dup2\n        /* \"#utility.yul\":1810:1830   */\n      calldataload\n        /* \"#utility.yul\":1801:1830   */\n      swap1\n      pop\n        /* \"#utility.yul\":1839:1872   */\n      tag_97\n        /* \"#utility.yul\":1866:1871   */\n      dup2\n        /* \"#utility.yul\":1839:1872   */\n      tag_64\n      jump\t// in\n    tag_97:\n        /* \"#utility.yul\":1739:1878   */\n      swap3\n      swap2\n      pop\n      pop\n      jump\t// out\n        /* \"#utility.yul\":1884:2213   */\n    tag_16:\n        /* \"#utility.yul\":1943:1949   */\n      0x00\n        /* \"#utility.yul\":1992:1994   */\n      0x20\n        /* \"#utility.yul\":1980:1989   */\n      dup3\n        /* \"#utility.yul\":1971:1978   */\n      dup5\n        /* \"#utility.yul\":1967:1990   */\n      sub\n        /* \"#utility.yul\":1963:1995   */\n      slt\n        /* \"#utility.yul\":1960:2079   */\n      iszero\n      tag_99\n      jumpi\n        /* \"#utility.yul\":1998:2077   */\n      tag_100\n      tag_56\n      jump\t// in\n    tag_100:\n        /* \"#utility.yul\":1960:2079   */\n    tag_99:\n        /* \"#utility.yul\":2118:2119   */\n      0x00\n        /* \"#utility.yul\":2143:2196   */\n      tag_101\n        /* \"#utility.yul\":2188:2195   */\n      dup5\n        /* \"#utility.yul\":2179:2185   */\n      dup3\n        /* \"#utility.yul\":2168:2177   */\n      dup6\n        /* \"#utility.yul\":2164:2186   */\n      add\n        /* \"#utility.yul\":2143:2196   */\n      tag_65\n      jump\t// in\n    tag_101:\n        /* \"#utility.yul\":2133:2196   */\n      swap2\n      pop\n        /* \"#utility.yul\":2089:2206   */\n      pop\n        /* \"#utility.yul\":1884:2213   */\n      swap3\n      swap2\n      pop\n      pop\n      jump\t// out\n        /* \"#utility.yul\":2219:2399   */\n    tag_66:\n        /* \"#utility.yul\":2267:2344   */\n      0x4e487b7100000000000000000000000000000000000000000000000000000000\n        /* \"#utility.yul\":2264:2265   */\n      0x00\n        /* \"#utility.yul\":2257:2345   */\n      mstore\n        /* \"#utility.yul\":2364:2368   */\n      0x11\n        /* \"#utility.yul\":2361:2362   */\n      0x04\n        /* \"#utility.yul\":2354:2369   */\n      mstore\n        /* \"#utility.yul\":2388:2392   */\n      0x24\n        /* \"#utility.yul\":2385:2386   */\n      0x00\n        /* \"#utility.yul\":2378:2393   */\n      revert\n        /* \"#utility.yul\":2405:2596   */\n    tag_45:\n        /* \"#utility.yul\":2445:2448   */\n      0x00\n        /* \"#utility.yul\":2464:2484   */\n      tag_104\n        /* \"#utility.yul\":2482:2483   */\n      dup3\n        /* \"#utility.yul\":2464:2484   */\n      tag_62\n      jump\t// in\n    tag_104:\n        /* \"#utility.yul\":2459:2484   */\n      swap2\n      pop\n        /* \"#utility.yul\":2498:2518   */\n      tag_105\n        /* \"#utility.yul\":2516:2517   */\n      dup4\n        /* \"#utility.yul\":2498:2518   */\n      tag_62\n      jump\t// in\n    tag_105:\n        /* \"#utility.yul\":2493:2518   */\n      swap3\n      pop\n        /* \"#utility.yul\":2541:2542   */\n      dup3\n        /* \"#utility.yul\":2538:2539   */\n      dup3\n        /* \"#utility.yul\":2534:2543   */\n      add\n        /* \"#utility.yul\":2527:2543   */\n      swap1\n      pop\n        /* \"#utility.yul\":2562:2565   */\n      dup1\n        /* \"#utility.yul\":2559:2560   */\n      dup3\n        /* \"#utility.yul\":2556:2566   */\n      gt\n        /* \"#utility.yul\":2553:2589   */\n      iszero\n      tag_106\n      jumpi\n        /* \"#utility.yul\":2569:2587   */\n      tag_107\n      tag_66\n      jump\t// in\n    tag_107:\n        /* \"#utility.yul\":2553:2589   */\n    tag_106:\n        /* \"#utility.yul\":2405:2596   */\n      swap3\n      swap2\n      pop\n      pop\n      jump\t// out\n        /* \"#utility.yul\":2602:2771   */\n    tag_67:\n        /* \"#utility.yul\":2686:2697   */\n      0x00\n        /* \"#utility.yul\":2720:2726   */\n      dup3\n        /* \"#utility.yul\":2715:2718   */\n      dup3\n        /* \"#utility.yul\":2708:2727   */\n      mstore\n        /* \"#utility.yul\":2760:2764   */\n      0x20\n        /* \"#utility.yul\":2755:2758   */\n      dup3\n        /* \"#utility.yul\":2751:2765   */\n      add\n        /* \"#utility.yul\":2736:2765   */\n      swap1\n      pop\n        /* \"#utility.yul\":2602:2771   */\n      swap3\n      swap2\n      pop\n      pop\n      jump\t// out\n        /* \"#utility.yul\":2777:2945   */\n    tag_68:\n        /* \"#utility.yul\":2917:2937   */\n      0x416d6f756e74206d757374206265203e20300000000000000000000000000000\n        /* \"#utility.yul\":2913:2914   */\n      0x00\n        /* \"#utility.yul\":2905:2911   */\n      dup3\n        /* \"#utility.yul\":2901:2915   */\n      add\n        /* \"#utility.yul\":2894:2938   */\n      mstore\n        /* \"#utility.yul\":2777:2945   */\n      pop\n      jump\t// out\n        /* \"#utility.yul\":2951:3317   */\n    tag_69:\n        /* \"#utility.yul\":3093:3096   */\n      0x00\n        /* \"#utility.yul\":3114:3181   */\n      tag_111\n        /* \"#utility.yul\":3178:3180   */\n      0x12\n        /* \"#utility.yul\":3173:3176   */\n      dup4\n        /* \"#utility.yul\":3114:3181   */\n      tag_67\n      jump\t// in\n    tag_111:\n        /* \"#utility.yul\":3107:3181   */\n      swap2\n      pop\n        /* \"#utility.yul\":3190:3283   */\n      tag_112\n        /* \"#utility.yul\":3279:3282   */\n      dup3\n        /* \"#utility.yul\":3190:3283   */\n      tag_68\n      jump\t// in\n    tag_112:\n        /* \"#utility.yul\":3308:3310   */\n      0x20\n        /* \"#utility.yul\":3303:3306   */\n      dup3\n        /* \"#utility.yul\":3299:3311   */\n      add\n        /* \"#utility.yul\":3292:3311   */\n      swap1\n      pop\n        /* \"#utility.yul\":2951:3317   */\n      swap2\n      swap1\n      pop\n      jump\t// out\n        /* \"#utility.yul\":3323:3742   */\n    tag_51:\n        /* \"#utility.yul\":3489:3493   */\n      0x00\n        /* \"#utility.yul\":3527:3529   */\n      0x20\n        /* \"#utility.yul\":3516:3525   */\n      dup3\n        /* \"#utility.yul\":3512:3530   */\n      add\n        /* \"#utility.yul\":3504:3530   */\n      swap1\n      pop\n        /* \"#utility.yul\":3576:3585   */\n      dup2\n        /* \"#utility.yul\":3570:3574   */\n      dup2\n        /* \"#utility.yul\":3566:3586   */\n      sub\n        /* \"#utility.yul\":3562:3563   */\n      0x00\n        /* \"#utility.yul\":3551:3560   */\n      dup4\n        /* \"#utility.yul\":3547:3564   */\n      add\n        /* \"#utility.yul\":3540:3587   */\n      mstore\n        /* \"#utility.yul\":3604:3735   */\n      tag_114\n        /* \"#utility.yul\":3730:3734   */\n      dup2\n        /* \"#utility.yul\":3604:3735   */\n      tag_69\n      jump\t// in\n    tag_114:\n        /* \"#utility.yul\":3596:3735   */\n      swap1\n      pop\n        /* \"#utility.yul\":3323:3742   */\n      swap2\n      swap1\n      pop\n      jump\t// out\n        /* \"#utility.yul\":3748:3914   */\n    tag_70:\n        /* \"#utility.yul\":3888:3906   */\n      0x416d6f756e7420746f6f206c6172676500000000000000000000000000000000\n        /* \"#utility.yul\":3884:3885   */\n      0x00\n        /* \"#utility.yul\":3876:3882   */\n      dup3\n        /* \"#utility.yul\":3872:3886   */\n      add\n        /* \"#utility.yul\":3865:3907   */\n      mstore\n        /* \"#utility.yul\":3748:3914   */\n      pop\n      jump\t// out\n        /* \"#utility.yul\":3920:4286   */\n    tag_71:\n        /* \"#utility.yul\":4062:4065   */\n      0x00\n        /* \"#utility.yul\":4083:4150   */\n      tag_117\n        /* \"#utility.yul\":4147:4149   */\n      0x10\n        /* \"#utility.yul\":4142:4145   */\n      dup4\n        /* \"#utility.yul\":4083:4150   */\n      tag_67\n      jump\t// in\n    tag_117:\n        /* \"#utility.yul\":4076:4150   */\n      swap2\n      pop\n        /* \"#utility.yul\":4159:4252   */\n      tag_118\n        /* \"#utility.yul\":4248:4251   */\n      dup3\n        /* \"#utility.yul\":4159:4252   */\n      tag_70\n      jump\t// in\n    tag_118:\n        /* \"#utility.yul\":4277:4279   */\n      0x20\n        /* \"#utility.yul\":4272:4275   */\n      dup3\n        /* \"#utility.yul\":4268:4280   */\n      add\n        /* \"#utility.yul\":4261:4280   */\n      swap1\n      pop\n        /* \"#utility.yul\":3920:4286   */\n      swap2\n      swap1\n      pop\n      jump\t// out\n        /* \"#utility.yul\":4292:4711   */\n    tag_54:\n        /* \"#utility.yul\":4458:4462   */\n      0x00\n        /* \"#utility.yul\":4496:4498   */\n      0x20\n        /* \"#utility.yul\":4485:4494   */\n      dup3\n        /* \"#utility.yul\":4481:4499   */\n      add\n        /* \"#utility.yul\":4473:4499   */\n      swap1\n      pop\n        /* \"#utility.yul\":4545:4554   */\n      dup2\n        /* \"#utility.yul\":4539:4543   */\n      dup2\n        /* \"#utility.yul\":4535:4555   */\n      sub\n        /* \"#utility.yul\":4531:4532   */\n      0x00\n        /* \"#utility.yul\":4520:4529   */\n      dup4\n        /* \"#utility.yul\":4516:4533   */\n      add\n        /* \"#utility.yul\":4509:4556   */\n      mstore\n        /* \"#utility.yul\":4573:4704   */\n      tag_120\n        /* \"#utility.yul\":4699:4703   */\n      dup2\n        /* \"#utility.yul\":4573:4704   */\n      tag_71\n      jump\t// in\n    tag_120:\n        /* \"#utility.yul\":4565:4704   */\n      swap1\n      pop\n        /* \"#utility.yul\":4292:4711   */\n      swap2\n      swap1\n      pop\n      jump\t// out\n\n    auxdata: 0xa264697066735822122042b1446c40ccd124e74cf5ee1df0e7bc96d534b74ca865f1c615dc433b0ff61564736f6c63430008220033\n}\n",
				"bytecode": {
					"linkReferences": {},
					"object": "6080604052348015600e575f5ffd5b506104fa8061001c5f395ff3fe608060405234801561000f575f5ffd5b5060043610610055575f3560e01c806327e235e3146100595780632f7c9ed6146100895780634b8624c4146100a55780637d882097146100c3578063b6b55f25146100e1575b5f5ffd5b610073600480360381019061006e91906102d3565b6100fd565b6040516100809190610316565b60405180910390f35b6100a3600480360381019061009e9190610359565b610111565b005b6100ad610132565b6040516100ba9190610316565b60405180910390f35b6100cb610137565b6040516100d89190610316565b60405180910390f35b6100fb60048036038101906100f69190610359565b61013d565b005b5f602052805f5260405f205f915090505481565b61011a8161015c565b61012533600a61017b565b61012f600a6101d1565b50565b600a81565b60015481565b610146816101ec565b610150338261017b565b610159816101d1565b50565b610165816101ec565b61016f338261017b565b610178816101d1565b50565b805f5f8473ffffffffffffffffffffffffffffffffffffffff1673ffffffffffffffffffffffffffffffffffffffff1681526020019081526020015f205f8282546101c691906103b1565b925050819055505050565b8060015f8282546101e291906103b1565b9250508190555050565b5f811161022e576040517f08c379a00000000000000000000000000000000000000000000000000000000081526004016102259061043e565b60405180910390fd5b6064811115610272576040517f08c379a0000000000000000000000000000000000000000000000000000000008152600401610269906104a6565b60405180910390fd5b50565b5f5ffd5b5f73ffffffffffffffffffffffffffffffffffffffff82169050919050565b5f6102a282610279565b9050919050565b6102b281610298565b81146102bc575f5ffd5b50565b5f813590506102cd816102a9565b92915050565b5f602082840312156102e8576102e7610275565b5b5f6102f5848285016102bf565b91505092915050565b5f819050919050565b610310816102fe565b82525050565b5f6020820190506103295f830184610307565b92915050565b610338816102fe565b8114610342575f5ffd5b50565b5f813590506103538161032f565b92915050565b5f6020828403121561036e5761036d610275565b5b5f61037b84828501610345565b91505092915050565b7f4e487b71000000000000000000000000000000000000000000000000000000005f52601160045260245ffd5b5f6103bb826102fe565b91506103c6836102fe565b92508282019050808211156103de576103dd610384565b5b92915050565b5f82825260208201905092915050565b7f416d6f756e74206d757374206265203e203000000000000000000000000000005f82015250565b5f6104286012836103e4565b9150610433826103f4565b602082019050919050565b5f6020820190508181035f8301526104558161041c565b9050919050565b7f416d6f756e7420746f6f206c61726765000000000000000000000000000000005f82015250565b5f6104906010836103e4565b915061049b8261045c565b602082019050919050565b5f6020820190508181035f8301526104bd81610484565b905091905056fea264697066735822122042b1446c40ccd124e74cf5ee1df0e7bc96d534b74ca865f1c615dc433b0ff61564736f6c63430008220033",
					"opcodes": "PUSH1 0x80 PUSH1 0x40 MSTORE CALLVALUE DUP1 ISZERO PUSH1 0xE JUMPI PUSH0 PUSH0 REVERT JUMPDEST POP PUSH2 0x4FA DUP1 PUSH2 0x1C PUSH0 CODECOPY PUSH0 RETURN INVALID PUSH1 0x80 PUSH1 0x40 MSTORE CALLVALUE DUP1 ISZERO PUSH2 0xF JUMPI PUSH0 PUSH0 REVERT JUMPDEST POP PUSH1 0x4 CALLDATASIZE LT PUSH2 0x55 JUMPI PUSH0 CALLDATALOAD PUSH1 0xE0 SHR DUP1 PUSH4 0x27E235E3 EQ PUSH2 0x59 JUMPI DUP1 PUSH4 0x2F7C9ED6 EQ PUSH2 0x89 JUMPI DUP1 PUSH4 0x4B8624C4 EQ PUSH2 0xA5 JUMPI DUP1 PUSH4 0x7D882097 EQ PUSH2 0xC3 JUMPI DUP1 PUSH4 0xB6B55F25 EQ PUSH2 0xE1 JUMPI JUMPDEST PUSH0 PUSH0 REVERT JUMPDEST PUSH2 0x73 PUSH1 0x4 DUP1 CALLDATASIZE SUB DUP2 ADD SWAP1 PUSH2 0x6E SWAP2 SWAP1 PUSH2 0x2D3 JUMP JUMPDEST PUSH2 0xFD JUMP JUMPDEST PUSH1 0x40 MLOAD PUSH2 0x80 SWAP2 SWAP1 PUSH2 0x316 JUMP JUMPDEST PUSH1 0x40 MLOAD DUP1 SWAP2 SUB SWAP1 RETURN JUMPDEST PUSH2 0xA3 PUSH1 0x4 DUP1 CALLDATASIZE SUB DUP2 ADD SWAP1 PUSH2 0x9E SWAP2 SWAP1 PUSH2 0x359 JUMP JUMPDEST PUSH2 0x111 JUMP JUMPDEST STOP JUMPDEST PUSH2 0xAD PUSH2 0x132 JUMP JUMPDEST PUSH1 0x40 MLOAD PUSH2 0xBA SWAP2 SWAP1 PUSH2 0x316 JUMP JUMPDEST PUSH1 0x40 MLOAD DUP1 SWAP2 SUB SWAP1 RETURN JUMPDEST PUSH2 0xCB PUSH2 0x137 JUMP JUMPDEST PUSH1 0x40 MLOAD PUSH2 0xD8 SWAP2 SWAP1 PUSH2 0x316 JUMP JUMPDEST PUSH1 0x40 MLOAD DUP1 SWAP2 SUB SWAP1 RETURN JUMPDEST PUSH2 0xFB PUSH1 0x4 DUP1 CALLDATASIZE SUB DUP2 ADD SWAP1 PUSH2 0xF6 SWAP2 SWAP1 PUSH2 0x359 JUMP JUMPDEST PUSH2 0x13D JUMP JUMPDEST STOP JUMPDEST PUSH0 PUSH1 0x20 MSTORE DUP1 PUSH0 MSTORE PUSH1 0x40 PUSH0 KECCAK256 PUSH0 SWAP2 POP SWAP1 POP SLOAD DUP2 JUMP JUMPDEST PUSH2 0x11A DUP2 PUSH2 0x15C JUMP JUMPDEST PUSH2 0x125 CALLER PUSH1 0xA PUSH2 0x17B JUMP JUMPDEST PUSH2 0x12F PUSH1 0xA PUSH2 0x1D1 JUMP JUMPDEST POP JUMP JUMPDEST PUSH1 0xA DUP2 JUMP JUMPDEST PUSH1 0x1 SLOAD DUP2 JUMP JUMPDEST PUSH2 0x146 DUP2 PUSH2 0x1EC JUMP JUMPDEST PUSH2 0x150 CALLER DUP3 PUSH2 0x17B JUMP JUMPDEST PUSH2 0x159 DUP2 PUSH2 0x1D1 JUMP JUMPDEST POP JUMP JUMPDEST PUSH2 0x165 DUP2 PUSH2 0x1EC JUMP JUMPDEST PUSH2 0x16F CALLER DUP3 PUSH2 0x17B JUMP JUMPDEST PUSH2 0x178 DUP2 PUSH2 0x1D1 JUMP JUMPDEST POP JUMP JUMPDEST DUP1 PUSH0 PUSH0 DUP5 PUSH20 0xFFFFFFFFFFFFFFFFFFFFFFFFFFFFFFFFFFFFFFFF AND PUSH20 0xFFFFFFFFFFFFFFFFFFFFFFFFFFFFFFFFFFFFFFFF AND DUP2 MSTORE PUSH1 0x20 ADD SWAP1 DUP2 MSTORE PUSH1 0x20 ADD PUSH0 KECCAK256 PUSH0 DUP3 DUP3 SLOAD PUSH2 0x1C6 SWAP2 SWAP1 PUSH2 0x3B1 JUMP JUMPDEST SWAP3 POP POP DUP2 SWAP1 SSTORE POP POP POP JUMP JUMPDEST DUP1 PUSH1 0x1 PUSH0 DUP3 DUP3 SLOAD PUSH2 0x1E2 SWAP2 SWAP1 PUSH2 0x3B1 JUMP JUMPDEST SWAP3 POP POP DUP2 SWAP1 SSTORE POP POP JUMP JUMPDEST PUSH0 DUP2 GT PUSH2 0x22E JUMPI PUSH1 0x40 MLOAD PUSH32 0x8C379A000000000000000000000000000000000000000000000000000000000 DUP2 MSTORE PUSH1 0x4 ADD PUSH2 0x225 SWAP1 PUSH2 0x43E JUMP JUMPDEST PUSH1 0x40 MLOAD DUP1 SWAP2 SUB SWAP1 REVERT JUMPDEST PUSH1 0x64 DUP2 GT ISZERO PUSH2 0x272 JUMPI PUSH1 0x40 MLOAD PUSH32 0x8C379A000000000000000000000000000000000000000000000000000000000 DUP2 MSTORE PUSH1 0x4 ADD PUSH2 0x269 SWAP1 PUSH2 0x4A6 JUMP JUMPDEST PUSH1 0x40 MLOAD DUP1 SWAP2 SUB SWAP1 REVERT JUMPDEST POP JUMP JUMPDEST PUSH0 PUSH0 REVERT JUMPDEST PUSH0 PUSH20 0xFFFFFFFFFFFFFFFFFFFFFFFFFFFFFFFFFFFFFFFF DUP3 AND SWAP1 POP SWAP2 SWAP1 POP JUMP JUMPDEST PUSH0 PUSH2 0x2A2 DUP3 PUSH2 0x279 JUMP JUMPDEST SWAP1 POP SWAP2 SWAP1 POP JUMP JUMPDEST PUSH2 0x2B2 DUP2 PUSH2 0x298 JUMP JUMPDEST DUP2 EQ PUSH2 0x2BC JUMPI PUSH0 PUSH0 REVERT JUMPDEST POP JUMP JUMPDEST PUSH0 DUP2 CALLDATALOAD SWAP1 POP PUSH2 0x2CD DUP2 PUSH2 0x2A9 JUMP JUMPDEST SWAP3 SWAP2 POP POP JUMP JUMPDEST PUSH0 PUSH1 0x20 DUP3 DUP5 SUB SLT ISZERO PUSH2 0x2E8 JUMPI PUSH2 0x2E7 PUSH2 0x275 JUMP JUMPDEST JUMPDEST PUSH0 PUSH2 0x2F5 DUP5 DUP3 DUP6 ADD PUSH2 0x2BF JUMP JUMPDEST SWAP2 POP POP SWAP3 SWAP2 POP POP JUMP JUMPDEST PUSH0 DUP2 SWAP1 POP SWAP2 SWAP1 POP JUMP JUMPDEST PUSH2 0x310 DUP2 PUSH2 0x2FE JUMP JUMPDEST DUP3 MSTORE POP POP JUMP JUMPDEST PUSH0 PUSH1 0x20 DUP3 ADD SWAP1 POP PUSH2 0x329 PUSH0 DUP4 ADD DUP5 PUSH2 0x307 JUMP JUMPDEST SWAP3 SWAP2 POP POP JUMP JUMPDEST PUSH2 0x338 DUP2 PUSH2 0x2FE JUMP JUMPDEST DUP2 EQ PUSH2 0x342 JUMPI PUSH0 PUSH0 REVERT JUMPDEST POP JUMP JUMPDEST PUSH0 DUP2 CALLDATALOAD SWAP1 POP PUSH2 0x353 DUP2 PUSH2 0x32F JUMP JUMPDEST SWAP3 SWAP2 POP POP JUMP JUMPDEST PUSH0 PUSH1 0x20 DUP3 DUP5 SUB SLT ISZERO PUSH2 0x36E JUMPI PUSH2 0x36D PUSH2 0x275 JUMP JUMPDEST JUMPDEST PUSH0 PUSH2 0x37B DUP5 DUP3 DUP6 ADD PUSH2 0x345 JUMP JUMPDEST SWAP2 POP POP SWAP3 SWAP2 POP POP JUMP JUMPDEST PUSH32 0x4E487B7100000000000000000000000000000000000000000000000000000000 PUSH0 MSTORE PUSH1 0x11 PUSH1 0x4 MSTORE PUSH1 0x24 PUSH0 REVERT JUMPDEST PUSH0 PUSH2 0x3BB DUP3 PUSH2 0x2FE JUMP JUMPDEST SWAP2 POP PUSH2 0x3C6 DUP4 PUSH2 0x2FE JUMP JUMPDEST SWAP3 POP DUP3 DUP3 ADD SWAP1 POP DUP1 DUP3 GT ISZERO PUSH2 0x3DE JUMPI PUSH2 0x3DD PUSH2 0x384 JUMP JUMPDEST JUMPDEST SWAP3 SWAP2 POP POP JUMP JUMPDEST PUSH0 DUP3 DUP3 MSTORE PUSH1 0x20 DUP3 ADD SWAP1 POP SWAP3 SWAP2 POP POP JUMP JUMPDEST PUSH32 0x416D6F756E74206D757374206265203E20300000000000000000000000000000 PUSH0 DUP3 ADD MSTORE POP JUMP JUMPDEST PUSH0 PUSH2 0x428 PUSH1 0x12 DUP4 PUSH2 0x3E4 JUMP JUMPDEST SWAP2 POP PUSH2 0x433 DUP3 PUSH2 0x3F4 JUMP JUMPDEST PUSH1 0x20 DUP3 ADD SWAP1 POP SWAP2 SWAP1 POP JUMP JUMPDEST PUSH0 PUSH1 0x20 DUP3 ADD SWAP1 POP DUP2 DUP2 SUB PUSH0 DUP4 ADD MSTORE PUSH2 0x455 DUP2 PUSH2 0x41C JUMP JUMPDEST SWAP1 POP SWAP2 SWAP1 POP JUMP JUMPDEST PUSH32 0x416D6F756E7420746F6F206C6172676500000000000000000000000000000000 PUSH0 DUP3 ADD MSTORE POP JUMP JUMPDEST PUSH0 PUSH2 0x490 PUSH1 0x10 DUP4 PUSH2 0x3E4 JUMP JUMPDEST SWAP2 POP PUSH2 0x49B DUP3 PUSH2 0x45C JUMP JUMPDEST PUSH1 0x20 DUP3 ADD SWAP1 POP SWAP2 SWAP1 POP JUMP JUMPDEST PUSH0 PUSH1 0x20 DUP3 ADD SWAP1 POP DUP2 DUP2 SUB PUSH0 DUP4 ADD MSTORE PUSH2 0x4BD DUP2 PUSH2 0x484 JUMP JUMPDEST SWAP1 POP SWAP2 SWAP1 POP JUMP INVALID LOG2 PUSH5 0x6970667358 0x22 SLT KECCAK256 TIMESTAMP 0xB1 PREVRANDAO PUSH13 0x40CCD124E74CF5EE1DF0E7BC96 0xD5 CALLVALUE 0xB7 0x4C 0xA8 PUSH6 0xF1C615DC433B 0xF 0xF6 ISZERO PUSH5 0x736F6C6343 STOP ADDMOD 0x22 STOP CALLER "
				},
				"gasEstimates": {
					"creation": {
						"codeDepositCost": "254800",
						"executionCost": "292",
						"totalCost": "255092"
					},
					"external": {
						"BONUS()": "347",
						"balances(address)": "2779",
						"deposit(uint256)": "infinite",
						"depositWithBonus(uint256)": "infinite",
						"totalDeposits()": "2469"
					},
					"internal": {
						"addBalance(address,uint256)": "infinite",
						"depositInternal(uint256)": "infinite",
						"updateTotal(uint256)": "infinite",
						"validateAmount(uint256)": "infinite"
					}
				},
				"methodIdentifiers": {
					"BONUS()": "4b8624c4",
					"balances(address)": "27e235e3",
					"deposit(uint256)": "b6b55f25",
					"depositWithBonus(uint256)": "2f7c9ed6",
					"totalDeposits()": "7d882097"
				}
			},
			"storageLayout": {
				"storage": [
					{
						"astId": 108,
						"contract": "prac43.sol:FunctionExecutionChainingPatched",
						"label": "balances",
						"offset": 0,
						"slot": "0",
						"type": "t_mapping(t_address,t_uint256)"
					},
					{
						"astId": 110,
						"contract": "prac43.sol:FunctionExecutionChainingPatched",
						"label": "totalDeposits",
						"offset": 0,
						"slot": "1",
						"type": "t_uint256"
					}
				],
				"types": {
					"t_address": {
						"encoding": "inplace",
						"label": "address",
						"numberOfBytes": "20"
					},
					"t_mapping(t_address,t_uint256)": {
						"encoding": "mapping",
						"key": "t_address",
						"label": "mapping(address => uint256)",
						"numberOfBytes": "32",
						"value": "t_uint256"
					},
					"t_uint256": {
						"encoding": "inplace",
						"label": "uint256",
						"numberOfBytes": "32"
					}
				}
			},
			"userdoc": {
				"kind": "user",
				"methods": {},
				"version": 1
			}
		}
	}
}