{
	"prac31.sol": {
		"LargeCalldataArrayPatched": {
			"abi": [
				{
					"inputs": [],
					"name": "MAX_BATCH_SIZE",
					"outputs": [
						{
							"internalType": "uint256",
							"name": "",
							"type": "uint256"
						}
					],
					"stateMutability": "view",
					"type": "function"
				},
				{
					"inputs": [
						{
							"internalType": "uint256[]",
							"name": "_numbers",
							"type": "uint256[]"
						}
					],
					"name": "processLargeArray",
					"outputs": [
						{
							"internalType": "uint256",
							"name": "",
							"type": "uint256"
						}
					],
					"stateMutability": "nonpayable",
					"type": "function"
				},
				{
					"inputs": [],
					"name": "totalProcessed",
					"outputs": [
						{
							"internalType": "uint256",
							"name": "",
							"type": "uint256"
						}
					],
					"stateMutability": "view",
					"type": "function"
				}
			],
			"devdoc": {
				"kind": "dev",
				"methods": {},
				"version": 1
			},
			"evm": {
				"assembly": "    /* \"prac31.sol\":10665:11237  contract LargeCalldataArrayPatched {... */\n  mstore(0x40, 0x80)\n  callvalue\n  dup1\n  iszero\n  tag_1\n  jumpi\n  revert(0x00, 0x00)\ntag_1:\n  pop\n  dataSize(sub_0)\n  dup1\n  dataOffset(sub_0)\n  0x00\n  codecopy\n  0x00\n  return\nstop\n\nsub_0: assembly {\n        /* \"prac31.sol\":10665:11237  contract LargeCalldataArrayPatched {... */\n      mstore(0x40, 0x80)\n      callvalue\n      dup1\n      iszero\n      tag_1\n      jumpi\n      revert(0x00, 0x00)\n    tag_1:\n      pop\n      jumpi(tag_2, lt(calldatasize, 0x04))\n      shr(0xe0, calldataload(0x00))\n      dup1\n      0x84411d65\n      eq\n      tag_3\n      jumpi\n      dup1\n      0xbb394844\n      eq\n      tag_4\n      jumpi\n      dup1\n      0xcfdbf254\n      eq\n      tag_5\n      jumpi\n    tag_2:\n      revert(0x00, 0x00)\n        /* \"prac31.sol\":10709:10738  uint256 public totalProcessed */\n    tag_3:\n      tag_6\n      tag_7\n      jump\t// in\n    tag_6:\n      mload(0x40)\n      tag_8\n      swap2\n      swap1\n      tag_9\n      jump\t// in\n    tag_8:\n      mload(0x40)\n      dup1\n      swap2\n      sub\n      swap1\n      return\n        /* \"prac31.sol\":10800:11234  function processLargeArray(... */\n    tag_4:\n      tag_10\n      0x04\n      dup1\n      calldatasize\n      sub\n      dup2\n      add\n      swap1\n      tag_11\n      swap2\n      swap1\n      tag_12\n      jump\t// in\n    tag_11:\n      tag_13\n      jump\t// in\n    tag_10:\n      mload(0x40)\n      tag_14\n      swap2\n      swap1\n      tag_9\n      jump\t// in\n    tag_14:\n      mload(0x40)\n      dup1\n      swap2\n      sub\n      swap1\n      return\n        /* \"prac31.sol\":10747:10791  uint256 public constant MAX_BATCH_SIZE = 100 */\n    tag_5:\n      tag_15\n      tag_16\n      jump\t// in\n    tag_15:\n      mload(0x40)\n      tag_17\n      swap2\n      swap1\n      tag_9\n      jump\t// in\n    tag_17:\n      mload(0x40)\n      dup1\n      swap2\n      sub\n      swap1\n      return\n        /* \"prac31.sol\":10709:10738  uint256 public totalProcessed */\n    tag_7:\n      sload(0x00)\n      dup2\n      jump\t// out\n        /* \"prac31.sol\":10800:11234  function processLargeArray(... */\n    tag_13:\n        /* \"prac31.sol\":10908:10915  uint256 */\n      0x00\n        /* \"prac31.sol\":10788:10791  100 */\n      0x64\n        /* \"prac31.sol\":10955:10963  _numbers */\n      dup4\n      dup4\n        /* \"prac31.sol\":10955:10970  _numbers.length */\n      swap1\n      pop\n        /* \"prac31.sol\":10955:10988  _numbers.length <= MAX_BATCH_SIZE */\n      gt\n      iszero\n        /* \"prac31.sol\":10933:11031  require(... */\n      tag_19\n      jumpi\n      mload(0x40)\n      0x08c379a000000000000000000000000000000000000000000000000000000000\n      dup2\n      mstore\n      0x04\n      add\n      tag_20\n      swap1\n      tag_21\n      jump\t// in\n    tag_20:\n      mload(0x40)\n      dup1\n      swap2\n      sub\n      swap1\n      revert\n    tag_19:\n        /* \"prac31.sol\":11044:11057  uint256 total */\n      0x00\n        /* \"prac31.sol\":11060:11061  0 */\n      0x00\n        /* \"prac31.sol\":11044:11061  uint256 total = 0 */\n      swap1\n      pop\n        /* \"prac31.sol\":11079:11088  uint256 i */\n      0x00\n        /* \"prac31.sol\":11091:11092  0 */\n      0x00\n        /* \"prac31.sol\":11079:11092  uint256 i = 0 */\n      swap1\n      pop\n        /* \"prac31.sol\":11074:11167  for (uint256 i = 0; i < _numbers.length; i++) {... */\n    tag_22:\n        /* \"prac31.sol\":11098:11106  _numbers */\n      dup5\n      dup5\n        /* \"prac31.sol\":11098:11113  _numbers.length */\n      swap1\n      pop\n        /* \"prac31.sol\":11094:11095  i */\n      dup2\n        /* \"prac31.sol\":11094:11113  i < _numbers.length */\n      lt\n        /* \"prac31.sol\":11074:11167  for (uint256 i = 0; i < _numbers.length; i++) {... */\n      iszero\n      tag_23\n      jumpi\n        /* \"prac31.sol\":11144:11152  _numbers */\n      dup5\n      dup5\n        /* \"prac31.sol\":11153:11154  i */\n      dup3\n        /* \"prac31.sol\":11144:11155  _numbers[i] */\n      dup2\n      dup2\n      lt\n      tag_25\n      jumpi\n      tag_26\n      tag_27\n      jump\t// in\n    tag_26:\n    tag_25:\n      swap1\n      pop\n      0x20\n      mul\n      add\n      calldataload\n        /* \"prac31.sol\":11135:11155  total += _numbers[i] */\n      dup3\n      tag_28\n      swap2\n      swap1\n      tag_29\n      jump\t// in\n    tag_28:\n      swap2\n      pop\n        /* \"prac31.sol\":11115:11118  i++ */\n      dup1\n      dup1\n      0x01\n      add\n      swap2\n      pop\n      pop\n        /* \"prac31.sol\":11074:11167  for (uint256 i = 0; i < _numbers.length; i++) {... */\n      jump(tag_22)\n    tag_23:\n      pop\n        /* \"prac31.sol\":11196:11201  total */\n      dup1\n        /* \"prac31.sol\":11179:11193  totalProcessed */\n      0x00\n        /* \"prac31.sol\":11179:11201  totalProcessed = total */\n      dup2\n      swap1\n      sstore\n      pop\n        /* \"prac31.sol\":11221:11226  total */\n      dup1\n        /* \"prac31.sol\":11214:11226  return total */\n      swap2\n      pop\n      pop\n        /* \"prac31.sol\":10800:11234  function processLargeArray(... */\n      swap3\n      swap2\n      pop\n      pop\n      jump\t// out\n        /* \"prac31.sol\":10747:10791  uint256 public constant MAX_BATCH_SIZE = 100 */\n    tag_16:\n        /* \"prac31.sol\":10788:10791  100 */\n      0x64\n        /* \"prac31.sol\":10747:10791  uint256 public constant MAX_BATCH_SIZE = 100 */\n      dup2\n      jump\t// out\n        /* \"#utility.yul\":7:84   */\n    tag_30:\n        /* \"#utility.yul\":44:51   */\n      0x00\n        /* \"#utility.yul\":73:78   */\n      dup2\n        /* \"#utility.yul\":62:78   */\n      swap1\n      pop\n        /* \"#utility.yul\":7:84   */\n      swap2\n      swap1\n      pop\n      jump\t// out\n        /* \"#utility.yul\":90:208   */\n    tag_31:\n        /* \"#utility.yul\":177:201   */\n      tag_46\n        /* \"#utility.yul\":195:200   */\n      dup2\n        /* \"#utility.yul\":177:201   */\n      tag_30\n      jump\t// in\n    tag_46:\n        /* \"#utility.yul\":172:175   */\n      dup3\n        /* \"#utility.yul\":165:202   */\n      mstore\n        /* \"#utility.yul\":90:208   */\n      pop\n      pop\n      jump\t// out\n        /* \"#utility.yul\":214:436   */\n    tag_9:\n        /* \"#utility.yul\":307:311   */\n      0x00\n        /* \"#utility.yul\":345:347   */\n      0x20\n        /* \"#utility.yul\":334:343   */\n      dup3\n        /* \"#utility.yul\":330:348   */\n      add\n        /* \"#utility.yul\":322:348   */\n      swap1\n      pop\n        /* \"#utility.yul\":358:429   */\n      tag_48\n        /* \"#utility.yul\":426:427   */\n      0x00\n        /* \"#utility.yul\":415:424   */\n      dup4\n        /* \"#utility.yul\":411:428   */\n      add\n        /* \"#utility.yul\":402:408   */\n      dup5\n        /* \"#utility.yul\":358:429   */\n      tag_31\n      jump\t// in\n    tag_48:\n        /* \"#utility.yul\":214:436   */\n      swap3\n      swap2\n      pop\n      pop\n      jump\t// out\n        /* \"#utility.yul\":523:640   */\n    tag_33:\n        /* \"#utility.yul\":632:633   */\n      0x00\n        /* \"#utility.yul\":629:630   */\n      0x00\n        /* \"#utility.yul\":622:634   */\n      revert\n        /* \"#utility.yul\":646:763   */\n    tag_34:\n        /* \"#utility.yul\":755:756   */\n      0x00\n        /* \"#utility.yul\":752:753   */\n      0x00\n        /* \"#utility.yul\":745:757   */\n      revert\n        /* \"#utility.yul\":769:886   */\n    tag_35:\n        /* \"#utility.yul\":878:879   */\n      0x00\n        /* \"#utility.yul\":875:876   */\n      0x00\n        /* \"#utility.yul\":868:880   */\n      revert\n        /* \"#utility.yul\":892:1009   */\n    tag_36:\n        /* \"#utility.yul\":1001:1002   */\n      0x00\n        /* \"#utility.yul\":998:999   */\n      0x00\n        /* \"#utility.yul\":991:1003   */\n      revert\n        /* \"#utility.yul\":1015:1132   */\n    tag_37:\n        /* \"#utility.yul\":1124:1125   */\n      0x00\n        /* \"#utility.yul\":1121:1122   */\n      0x00\n        /* \"#utility.yul\":1114:1126   */\n      revert\n        /* \"#utility.yul\":1155:1723   */\n    tag_38:\n        /* \"#utility.yul\":1228:1236   */\n      0x00\n        /* \"#utility.yul\":1238:1244   */\n      0x00\n        /* \"#utility.yul\":1288:1291   */\n      dup4\n        /* \"#utility.yul\":1281:1285   */\n      0x1f\n        /* \"#utility.yul\":1273:1279   */\n      dup5\n        /* \"#utility.yul\":1269:1286   */\n      add\n        /* \"#utility.yul\":1265:1292   */\n      slt\n        /* \"#utility.yul\":1255:1377   */\n      tag_56\n      jumpi\n        /* \"#utility.yul\":1296:1375   */\n      tag_57\n      tag_35\n      jump\t// in\n    tag_57:\n        /* \"#utility.yul\":1255:1377   */\n    tag_56:\n        /* \"#utility.yul\":1409:1415   */\n      dup3\n        /* \"#utility.yul\":1396:1416   */\n      calldataload\n        /* \"#utility.yul\":1386:1416   */\n      swap1\n      pop\n        /* \"#utility.yul\":1439:1457   */\n      0xffffffffffffffff\n        /* \"#utility.yul\":1431:1437   */\n      dup2\n        /* \"#utility.yul\":1428:1458   */\n      gt\n        /* \"#utility.yul\":1425:1542   */\n      iszero\n      tag_58\n      jumpi\n        /* \"#utility.yul\":1461:1540   */\n      tag_59\n      tag_36\n      jump\t// in\n    tag_59:\n        /* \"#utility.yul\":1425:1542   */\n    tag_58:\n        /* \"#utility.yul\":1575:1579   */\n      0x20\n        /* \"#utility.yul\":1567:1573   */\n      dup4\n        /* \"#utility.yul\":1563:1580   */\n      add\n        /* \"#utility.yul\":1551:1580   */\n      swap2\n      pop\n        /* \"#utility.yul\":1629:1632   */\n      dup4\n        /* \"#utility.yul\":1621:1625   */\n      0x20\n        /* \"#utility.yul\":1613:1619   */\n      dup3\n        /* \"#utility.yul\":1609:1626   */\n      mul\n        /* \"#utility.yul\":1599:1607   */\n      dup4\n        /* \"#utility.yul\":1595:1627   */\n      add\n        /* \"#utility.yul\":1592:1633   */\n      gt\n        /* \"#utility.yul\":1589:1717   */\n      iszero\n      tag_60\n      jumpi\n        /* \"#utility.yul\":1636:1715   */\n      tag_61\n      tag_37\n      jump\t// in\n    tag_61:\n        /* \"#utility.yul\":1589:1717   */\n    tag_60:\n        /* \"#utility.yul\":1155:1723   */\n      swap3\n      pop\n      swap3\n      swap1\n      pop\n      jump\t// out\n        /* \"#utility.yul\":1729:2288   */\n    tag_12:\n        /* \"#utility.yul\":1815:1821   */\n      0x00\n        /* \"#utility.yul\":1823:1829   */\n      0x00\n        /* \"#utility.yul\":1872:1874   */\n      0x20\n        /* \"#utility.yul\":1860:1869   */\n      dup4\n        /* \"#utility.yul\":1851:1858   */\n      dup6\n        /* \"#utility.yul\":1847:1870   */\n      sub\n        /* \"#utility.yul\":1843:1875   */\n      slt\n        /* \"#utility.yul\":1840:1959   */\n      iszero\n      tag_63\n      jumpi\n        /* \"#utility.yul\":1878:1957   */\n      tag_64\n      tag_33\n      jump\t// in\n    tag_64:\n        /* \"#utility.yul\":1840:1959   */\n    tag_63:\n        /* \"#utility.yul\":2026:2027   */\n      0x00\n        /* \"#utility.yul\":2015:2024   */\n      dup4\n        /* \"#utility.yul\":2011:2028   */\n      add\n        /* \"#utility.yul\":1998:2029   */\n      calldataload\n        /* \"#utility.yul\":2056:2074   */\n      0xffffffffffffffff\n        /* \"#utility.yul\":2048:2054   */\n      dup2\n        /* \"#utility.yul\":2045:2075   */\n      gt\n        /* \"#utility.yul\":2042:2159   */\n      iszero\n      tag_65\n      jumpi\n        /* \"#utility.yul\":2078:2157   */\n      tag_66\n      tag_34\n      jump\t// in\n    tag_66:\n        /* \"#utility.yul\":2042:2159   */\n    tag_65:\n        /* \"#utility.yul\":2191:2271   */\n      tag_67\n        /* \"#utility.yul\":2263:2270   */\n      dup6\n        /* \"#utility.yul\":2254:2260   */\n      dup3\n        /* \"#utility.yul\":2243:2252   */\n      dup7\n        /* \"#utility.yul\":2239:2261   */\n      add\n        /* \"#utility.yul\":2191:2271   */\n      tag_38\n      jump\t// in\n    tag_67:\n        /* \"#utility.yul\":2173:2271   */\n      swap3\n      pop\n      swap3\n      pop\n        /* \"#utility.yul\":1969:2281   */\n      pop\n        /* \"#utility.yul\":1729:2288   */\n      swap3\n      pop\n      swap3\n      swap1\n      pop\n      jump\t// out\n        /* \"#utility.yul\":2294:2463   */\n    tag_39:\n        /* \"#utility.yul\":2378:2389   */\n      0x00\n        /* \"#utility.yul\":2412:2418   */\n      dup3\n        /* \"#utility.yul\":2407:2410   */\n      dup3\n        /* \"#utility.yul\":2400:2419   */\n      mstore\n        /* \"#utility.yul\":2452:2456   */\n      0x20\n        /* \"#utility.yul\":2447:2450   */\n      dup3\n        /* \"#utility.yul\":2443:2457   */\n      add\n        /* \"#utility.yul\":2428:2457   */\n      swap1\n      pop\n        /* \"#utility.yul\":2294:2463   */\n      swap3\n      swap2\n      pop\n      pop\n      jump\t// out\n        /* \"#utility.yul\":2469:2634   */\n    tag_40:\n        /* \"#utility.yul\":2609:2626   */\n      0x417272617920746f6f206c617267650000000000000000000000000000000000\n        /* \"#utility.yul\":2605:2606   */\n      0x00\n        /* \"#utility.yul\":2597:2603   */\n      dup3\n        /* \"#utility.yul\":2593:2607   */\n      add\n        /* \"#utility.yul\":2586:2627   */\n      mstore\n        /* \"#utility.yul\":2469:2634   */\n      pop\n      jump\t// out\n        /* \"#utility.yul\":2640:3006   */\n    tag_41:\n        /* \"#utility.yul\":2782:2785   */\n      0x00\n        /* \"#utility.yul\":2803:2870   */\n      tag_71\n        /* \"#utility.yul\":2867:2869   */\n      0x0f\n        /* \"#utility.yul\":2862:2865   */\n      dup4\n        /* \"#utility.yul\":2803:2870   */\n      tag_39\n      jump\t// in\n    tag_71:\n        /* \"#utility.yul\":2796:2870   */\n      swap2\n      pop\n        /* \"#utility.yul\":2879:2972   */\n      tag_72\n        /* \"#utility.yul\":2968:2971   */\n      dup3\n        /* \"#utility.yul\":2879:2972   */\n      tag_40\n      jump\t// in\n    tag_72:\n        /* \"#utility.yul\":2997:2999   */\n      0x20\n        /* \"#utility.yul\":2992:2995   */\n      dup3\n        /* \"#utility.yul\":2988:3000   */\n      add\n        /* \"#utility.yul\":2981:3000   */\n      swap1\n      pop\n        /* \"#utility.yul\":2640:3006   */\n      swap2\n      swap1\n      pop\n      jump\t// out\n        /* \"#utility.yul\":3012:3431   */\n    tag_21:\n        /* \"#utility.yul\":3178:3182   */\n      0x00\n        /* \"#utility.yul\":3216:3218   */\n      0x20\n        /* \"#utility.yul\":3205:3214   */\n      dup3\n        /* \"#utility.yul\":3201:3219   */\n      add\n        /* \"#utility.yul\":3193:3219   */\n      swap1\n      pop\n        /* \"#utility.yul\":3265:3274   */\n      dup2\n        /* \"#utility.yul\":3259:3263   */\n      dup2\n        /* \"#utility.yul\":3255:3275   */\n      sub\n        /* \"#utility.yul\":3251:3252   */\n      0x00\n        /* \"#utility.yul\":3240:3249   */\n      dup4\n        /* \"#utility.yul\":3236:3253   */\n      add\n        /* \"#utility.yul\":3229:3276   */\n      mstore\n        /* \"#utility.yul\":3293:3424   */\n      tag_74\n        /* \"#utility.yul\":3419:3423   */\n      dup2\n        /* \"#utility.yul\":3293:3424   */\n      tag_41\n      jump\t// in\n    tag_74:\n        /* \"#utility.yul\":3285:3424   */\n      swap1\n      pop\n        /* \"#utility.yul\":3012:3431   */\n      swap2\n      swap1\n      pop\n      jump\t// out\n        /* \"#utility.yul\":3437:3617   */\n    tag_27:\n        /* \"#utility.yul\":3485:3562   */\n      0x4e487b7100000000000000000000000000000000000000000000000000000000\n        /* \"#utility.yul\":3482:3483   */\n      0x00\n        /* \"#utility.yul\":3475:3563   */\n      mstore\n        /* \"#utility.yul\":3582:3586   */\n      0x32\n        /* \"#utility.yul\":3579:3580   */\n      0x04\n        /* \"#utility.yul\":3572:3587   */\n      mstore\n        /* \"#utility.yul\":3606:3610   */\n      0x24\n        /* \"#utility.yul\":3603:3604   */\n      0x00\n        /* \"#utility.yul\":3596:3611   */\n      revert\n        /* \"#utility.yul\":3623:3803   */\n    tag_42:\n        /* \"#utility.yul\":3671:3748   */\n      0x4e487b7100000000000000000000000000000000000000000000000000000000\n        /* \"#utility.yul\":3668:3669   */\n      0x00\n        /* \"#utility.yul\":3661:3749   */\n      mstore\n        /* \"#utility.yul\":3768:3772   */\n      0x11\n        /* \"#utility.yul\":3765:3766   */\n      0x04\n        /* \"#utility.yul\":3758:3773   */\n      mstore\n        /* \"#utility.yul\":3792:3796   */\n      0x24\n        /* \"#utility.yul\":3789:3790   */\n      0x00\n        /* \"#utility.yul\":3782:3797   */\n      revert\n        /* \"#utility.yul\":3809:4000   */\n    tag_29:\n        /* \"#utility.yul\":3849:3852   */\n      0x00\n        /* \"#utility.yul\":3868:3888   */\n      tag_78\n        /* \"#utility.yul\":3886:3887   */\n      dup3\n        /* \"#utility.yul\":3868:3888   */\n      tag_30\n      jump\t// in\n    tag_78:\n        /* \"#utility.yul\":3863:3888   */\n      swap2\n      pop\n        /* \"#utility.yul\":3902:3922   */\n      tag_79\n        /* \"#utility.yul\":3920:3921   */\n      dup4\n        /* \"#utility.yul\":3902:3922   */\n      tag_30\n      jump\t// in\n    tag_79:\n        /* \"#utility.yul\":3897:3922   */\n      swap3\n      pop\n        /* \"#utility.yul\":3945:3946   */\n      dup3\n        /* \"#utility.yul\":3942:3943   */\n      dup3\n        /* \"#utility.yul\":3938:3947   */\n      add\n        /* \"#utility.yul\":3931:3947   */\n      swap1\n      pop\n        /* \"#utility.yul\":3966:3969   */\n      dup1\n        /* \"#utility.yul\":3963:3964   */\n      dup3\n        /* \"#utility.yul\":3960:3970   */\n      gt\n        /* \"#utility.yul\":3957:3993   */\n      iszero\n      tag_80\n      jumpi\n        /* \"#utility.yul\":3973:3991   */\n      tag_81\n      tag_42\n      jump\t// in\n    tag_81:\n        /* \"#utility.yul\":3957:3993   */\n    tag_80:\n        /* \"#utility.yul\":3809:4000   */\n      swap3\n      swap2\n      pop\n      pop\n      jump\t// out\n\n    auxdata: 0xa26469706673582212206c2eb65971fea2da01abaa5a76f72be829b75c58e18d30a17afc69f3e4d2f1f064736f6c63430008220033\n}\n",
				"bytecode": {
					"linkReferences": {},
					"object": "6080604052348015600e575f5ffd5b5061037a8061001c5f395ff3fe608060405234801561000f575f5ffd5b506004361061003f575f3560e01c806384411d6514610043578063bb39484414610061578063cfdbf25414610091575b5f5ffd5b61004b6100af565b6040516100589190610172565b60405180910390f35b61007b600480360381019061007691906101f4565b6100b4565b6040516100889190610172565b60405180910390f35b610099610155565b6040516100a69190610172565b60405180910390f35b5f5481565b5f60648383905011156100fc576040517f08c379a00000000000000000000000000000000000000000000000000000000081526004016100f390610299565b60405180910390fd5b5f5f90505f5f90505b8484905081101561014457848482818110610123576101226102b7565b5b90506020020135826101359190610311565b91508080600101915050610105565b50805f819055508091505092915050565b606481565b5f819050919050565b61016c8161015a565b82525050565b5f6020820190506101855f830184610163565b92915050565b5f5ffd5b5f5ffd5b5f5ffd5b5f5ffd5b5f5ffd5b5f5f83601f8401126101b4576101b3610193565b5b8235905067ffffffffffffffff8111156101d1576101d0610197565b5b6020830191508360208202830111156101ed576101ec61019b565b5b9250929050565b5f5f6020838503121561020a5761020961018b565b5b5f83013567ffffffffffffffff8111156102275761022661018f565b5b6102338582860161019f565b92509250509250929050565b5f82825260208201905092915050565b7f417272617920746f6f206c6172676500000000000000000000000000000000005f82015250565b5f610283600f8361023f565b915061028e8261024f565b602082019050919050565b5f6020820190508181035f8301526102b081610277565b9050919050565b7f4e487b71000000000000000000000000000000000000000000000000000000005f52603260045260245ffd5b7f4e487b71000000000000000000000000000000000000000000000000000000005f52601160045260245ffd5b5f61031b8261015a565b91506103268361015a565b925082820190508082111561033e5761033d6102e4565b5b9291505056fea26469706673582212206c2eb65971fea2da01abaa5a76f72be829b75c58e18d30a17afc69f3e4d2f1f064736f6c63430008220033",
					"opcodes": "PUSH1 0x80 PUSH1 0x40 MSTORE CALLVALUE DUP1 ISZERO PUSH1 0xE JUMPI PUSH0 PUSH0 REVERT JUMPDEST POP PUSH2 0x37A DUP1 PUSH2 0x1C PUSH0 CODECOPY PUSH0 RETURN INVALID PUSH1 0x80 PUSH1 0x40 MSTORE CALLVALUE DUP1 ISZERO PUSH2 0xF JUMPI PUSH0 PUSH0 REVERT JUMPDEST POP PUSH1 0x4 CALLDATASIZE LT PUSH2 0x3F JUMPI PUSH0 CALLDATALOAD PUSH1 0xE0 SHR DUP1 PUSH4 0x84411D65 EQ PUSH2 0x43 JUMPI DUP1 PUSH4 0xBB394844 EQ PUSH2 0x61 JUMPI DUP1 PUSH4 0xCFDBF254 EQ PUSH2 0x91 JUMPI JUMPDEST PUSH0 PUSH0 REVERT JUMPDEST PUSH2 0x4B PUSH2 0xAF JUMP JUMPDEST PUSH1 0x40 MLOAD PUSH2 0x58 SWAP2 SWAP1 PUSH2 0x172 JUMP JUMPDEST PUSH1 0x40 MLOAD DUP1 SWAP2 SUB SWAP1 RETURN JUMPDEST PUSH2 0x7B PUSH1 0x4 DUP1 CALLDATASIZE SUB DUP2 ADD SWAP1 PUSH2 0x76 SWAP2 SWAP1 PUSH2 0x1F4 JUMP JUMPDEST PUSH2 0xB4 JUMP JUMPDEST PUSH1 0x40 MLOAD PUSH2 0x88 SWAP2 SWAP1 PUSH2 0x172 JUMP JUMPDEST PUSH1 0x40 MLOAD DUP1 SWAP2 SUB SWAP1 RETURN JUMPDEST PUSH2 0x99 PUSH2 0x155 JUMP JUMPDEST PUSH1 0x40 MLOAD PUSH2 0xA6 SWAP2 SWAP1 PUSH2 0x172 JUMP JUMPDEST PUSH1 0x40 MLOAD DUP1 SWAP2 SUB SWAP1 RETURN JUMPDEST PUSH0 SLOAD DUP2 JUMP JUMPDEST PUSH0 PUSH1 0x64 DUP4 DUP4 SWAP1 POP GT ISZERO PUSH2 0xFC JUMPI PUSH1 0x40 MLOAD PUSH32 0x8C379A000000000000000000000000000000000000000000000000000000000 DUP2 MSTORE PUSH1 0x4 ADD PUSH2 0xF3 SWAP1 PUSH2 0x299 JUMP JUMPDEST PUSH1 0x40 MLOAD DUP1 SWAP2 SUB SWAP1 REVERT JUMPDEST PUSH0 PUSH0 SWAP1 POP PUSH0 PUSH0 SWAP1 POP JUMPDEST DUP5 DUP5 SWAP1 POP DUP2 LT ISZERO PUSH2 0x144 JUMPI DUP5 DUP5 DUP3 DUP2 DUP2 LT PUSH2 0x123 JUMPI PUSH2 0x122 PUSH2 0x2B7 JUMP JUMPDEST JUMPDEST SWAP1 POP PUSH1 0x20 MUL ADD CALLDATALOAD DUP3 PUSH2 0x135 SWAP2 SWAP1 PUSH2 0x311 JUMP JUMPDEST SWAP2 POP DUP1 DUP1 PUSH1 0x1 ADD SWAP2 POP POP PUSH2 0x105 JUMP JUMPDEST POP DUP1 PUSH0 DUP2 SWAP1 SSTORE POP DUP1 SWAP2 POP POP SWAP3 SWAP2 POP POP JUMP JUMPDEST PUSH1 0x64 DUP2 JUMP JUMPDEST PUSH0 DUP2 SWAP1 POP SWAP2 SWAP1 POP JUMP JUMPDEST PUSH2 0x16C DUP2 PUSH2 0x15A JUMP JUMPDEST DUP3 MSTORE POP POP JUMP JUMPDEST PUSH0 PUSH1 0x20 DUP3 ADD SWAP1 POP PUSH2 0x185 PUSH0 DUP4 ADD DUP5 PUSH2 0x163 JUMP JUMPDEST SWAP3 SWAP2 POP POP JUMP JUMPDEST PUSH0 PUSH0 REVERT JUMPDEST PUSH0 PUSH0 REVERT JUMPDEST PUSH0 PUSH0 REVERT JUMPDEST PUSH0 PUSH0 REVERT JUMPDEST PUSH0 PUSH0 REVERT JUMPDEST PUSH0 PUSH0 DUP4 PUSH1 0x1F DUP5 ADD SLT PUSH2 0x1B4 JUMPI PUSH2 0x1B3 PUSH2 0x193 JUMP JUMPDEST JUMPDEST DUP3 CALLDATALOAD SWAP1 POP PUSH8 0xFFFFFFFFFFFFFFFF DUP2 GT ISZERO PUSH2 0x1D1 JUMPI PUSH2 0x1D0 PUSH2 0x197 JUMP JUMPDEST JUMPDEST PUSH1 0x20 DUP4 ADD SWAP2 POP DUP4 PUSH1 0x20 DUP3 MUL DUP4 ADD GT ISZERO PUSH2 0x1ED JUMPI PUSH2 0x1EC PUSH2 0x19B JUMP JUMPDEST JUMPDEST SWAP3 POP SWAP3 SWAP1 POP JUMP JUMPDEST PUSH0 PUSH0 PUSH1 0x20 DUP4 DUP6 SUB SLT ISZERO PUSH2 0x20A JUMPI PUSH2 0x209 PUSH2 0x18B JUMP JUMPDEST JUMPDEST PUSH0 DUP4 ADD CALLDATALOAD PUSH8 0xFFFFFFFFFFFFFFFF DUP2 GT ISZERO PUSH2 0x227 JUMPI PUSH2 0x226 PUSH2 0x18F JUMP JUMPDEST JUMPDEST PUSH2 0x233 DUP6 DUP3 DUP7 ADD PUSH2 0x19F JUMP JUMPDEST SWAP3 POP SWAP3 POP POP SWAP3 POP SWAP3 SWAP1 POP JUMP JUMPDEST PUSH0 DUP3 DUP3 MSTORE PUSH1 0x20 DUP3 ADD SWAP1 POP SWAP3 SWAP2 POP POP JUMP JUMPDEST PUSH32 0x417272617920746F6F206C617267650000000000000000000000000000000000 PUSH0 DUP3 ADD MSTORE POP JUMP JUMPDEST PUSH0 PUSH2 0x283 PUSH1 0xF DUP4 PUSH2 0x23F JUMP JUMPDEST SWAP2 POP PUSH2 0x28E DUP3 PUSH2 0x24F JUMP JUMPDEST PUSH1 0x20 DUP3 ADD SWAP1 POP SWAP2 SWAP1 POP JUMP JUMPDEST PUSH0 PUSH1 0x20 DUP3 ADD SWAP1 POP DUP2 DUP2 SUB PUSH0 DUP4 ADD MSTORE PUSH2 0x2B0 DUP2 PUSH2 0x277 JUMP JUMPDEST SWAP1 POP SWAP2 SWAP1 POP JUMP JUMPDEST PUSH32 0x4E487B7100000000000000000000000000000000000000000000000000000000 PUSH0 MSTORE PUSH1 0x32 PUSH1 0x4 MSTORE PUSH1 0x24 PUSH0 REVERT JUMPDEST PUSH32 0x4E487B7100000000000000000000000000000000000000000000000000000000 PUSH0 MSTORE PUSH1 0x11 PUSH1 0x4 MSTORE PUSH1 0x24 PUSH0 REVERT JUMPDEST PUSH0 PUSH2 0x31B DUP3 PUSH2 0x15A JUMP JUMPDEST SWAP2 POP PUSH2 0x326 DUP4 PUSH2 0x15A JUMP JUMPDEST SWAP3 POP DUP3 DUP3 ADD SWAP1 POP DUP1 DUP3 GT ISZERO PUSH2 0x33E JUMPI PUSH2 0x33D PUSH2 0x2E4 JUMP JUMPDEST JUMPDEST SWAP3 SWAP2 POP POP JUMP INVALID LOG2 PUSH5 0x6970667358 0x22 SLT KECCAK256 PUSH13 0x2EB65971FEA2DA01ABAA5A76F7 0x2B 0xE8 0x29 0xB7 TLOAD PC RJUMPI 0x8D30 LOG1 PUSH27 0xFC69F3E4D2F1F064736F6C63430008220033000000000000000000 "
				},
				"gasEstimates": {
					"creation": {
						"codeDepositCost": "178000",
						"executionCost": "218",
						"totalCost": "178218"
					},
					"external": {
						"MAX_BATCH_SIZE()": "347",
						"processLargeArray(uint256[])": "infinite",
						"totalProcessed()": "2402"
					}
				},
				"methodIdentifiers": {
					"MAX_BATCH_SIZE()": "cfdbf254",
					"processLargeArray(uint256[])": "bb394844",
					"totalProcessed()": "84411d65"
				}
			},
			"storageLayout": {
				"storage": [
					{
						"astId": 44,
						"contract": "prac31.sol:LargeCalldataArrayPatched",
						"label": "totalProcessed",
						"offset": 0,
						"slot": "0",
						"type": "t_uint256"
					}
				],
				"types": {
					"t_uint256": {
						"encoding": "inplace",
						"label": "uint256",
						"numberOfBytes": "32"
					}
				}
			},
			"userdoc": {
				"kind": "user",
				"methods": {},
				"version": 1
			}
		}
	}
}