{
	"prac51.sol": {
		"BankPatched": {
			"abi": [
				{
					"inputs": [
						{
							"internalType": "address",
							"name": "",
							"type": "address"
						}
					],
					"name": "balances",
					"outputs": [
						{
							"internalType": "uint256",
							"name": "",
							"type": "uint256"
						}
					],
					"stateMutability": "view",
					"type": "function"
				},
				{
					"inputs": [
						{
							"internalType": "address",
							"name": "user",
							"type": "address"
						},
						{
							"internalType": "uint256",
							"name": "amount",
							"type": "uint256"
						}
					],
					"name": "deposit",
					"outputs": [],
					"stateMutability": "nonpayable",
					"type": "function"
				},
				{
					"inputs": [
						{
							"internalType": "address",
							"name": "user",
							"type": "address"
						}
					],
					"name": "getBalance",
					"outputs": [
						{
							"internalType": "uint256",
							"name": "",
							"type": "uint256"
						}
					],
					"stateMutability": "view",
					"type": "function"
				}
			],
			"devdoc": {
				"kind": "dev",
				"methods": {},
				"version": 1
			},
			"evm": {
				"assembly": "    /* \"prac51.sol\":12304:12699  contract BankPatched {... */\n  mstore(0x40, 0x80)\n  callvalue\n  dup1\n  iszero\n  tag_1\n  jumpi\n  revert(0x00, 0x00)\ntag_1:\n  pop\n  dataSize(sub_0)\n  dup1\n  dataOffset(sub_0)\n  0x00\n  codecopy\n  0x00\n  return\nstop\n\nsub_0: assembly {\n        /* \"prac51.sol\":12304:12699  contract BankPatched {... */\n      mstore(0x40, 0x80)\n      callvalue\n      dup1\n      iszero\n      tag_1\n      jumpi\n      revert(0x00, 0x00)\n    tag_1:\n      pop\n      jumpi(tag_2, lt(calldatasize, 0x04))\n      shr(0xe0, calldataload(0x00))\n      dup1\n      0x27e235e3\n      eq\n      tag_3\n      jumpi\n      dup1\n      0x47e7ef24\n      eq\n      tag_4\n      jumpi\n      dup1\n      0xf8b2cb4f\n      eq\n      tag_5\n      jumpi\n    tag_2:\n      revert(0x00, 0x00)\n        /* \"prac51.sol\":12334:12377  mapping(address => uint256) public balances */\n    tag_3:\n      tag_6\n      0x04\n      dup1\n      calldatasize\n      sub\n      dup2\n      add\n      swap1\n      tag_7\n      swap2\n      swap1\n      tag_8\n      jump\t// in\n    tag_7:\n      tag_9\n      jump\t// in\n    tag_6:\n      mload(0x40)\n      tag_10\n      swap2\n      swap1\n      tag_11\n      jump\t// in\n    tag_10:\n      mload(0x40)\n      dup1\n      swap2\n      sub\n      swap1\n      return\n        /* \"prac51.sol\":12386:12566  function deposit(... */\n    tag_4:\n      tag_12\n      0x04\n      dup1\n      calldatasize\n      sub\n      dup2\n      add\n      swap1\n      tag_13\n      swap2\n      swap1\n      tag_14\n      jump\t// in\n    tag_13:\n      tag_15\n      jump\t// in\n    tag_12:\n      stop\n        /* \"prac51.sol\":12574:12696  function getBalance(... */\n    tag_5:\n      tag_16\n      0x04\n      dup1\n      calldatasize\n      sub\n      dup2\n      add\n      swap1\n      tag_17\n      swap2\n      swap1\n      tag_8\n      jump\t// in\n    tag_17:\n      tag_18\n      jump\t// in\n    tag_16:\n      mload(0x40)\n      tag_19\n      swap2\n      swap1\n      tag_11\n      jump\t// in\n    tag_19:\n      mload(0x40)\n      dup1\n      swap2\n      sub\n      swap1\n      return\n        /* \"prac51.sol\":12334:12377  mapping(address => uint256) public balances */\n    tag_9:\n      mstore(0x20, 0x00)\n      dup1\n      0x00\n      mstore\n      keccak256(0x00, 0x40)\n      0x00\n      swap2\n      pop\n      swap1\n      pop\n      sload\n      dup2\n      jump\t// out\n        /* \"prac51.sol\":12386:12566  function deposit(... */\n    tag_15:\n        /* \"prac51.sol\":12502:12503  0 */\n      0x00\n        /* \"prac51.sol\":12486:12504  user != address(0) */\n      0xffffffffffffffffffffffffffffffffffffffff\n      and\n        /* \"prac51.sol\":12486:12490  user */\n      dup3\n        /* \"prac51.sol\":12486:12504  user != address(0) */\n      0xffffffffffffffffffffffffffffffffffffffff\n      and\n      sub\n        /* \"prac51.sol\":12478:12521  require(user != address(0), \"Invalid user\") */\n      tag_21\n      jumpi\n      mload(0x40)\n      0x08c379a000000000000000000000000000000000000000000000000000000000\n      dup2\n      mstore\n      0x04\n      add\n      tag_22\n      swap1\n      tag_23\n      jump\t// in\n    tag_22:\n      mload(0x40)\n      dup1\n      swap2\n      sub\n      swap1\n      revert\n    tag_21:\n        /* \"prac51.sol\":12552:12558  amount */\n      dup1\n        /* \"prac51.sol\":12534:12542  balances */\n      0x00\n        /* \"prac51.sol\":12534:12548  balances[user] */\n      0x00\n        /* \"prac51.sol\":12543:12547  user */\n      dup5\n        /* \"prac51.sol\":12534:12548  balances[user] */\n      0xffffffffffffffffffffffffffffffffffffffff\n      and\n      0xffffffffffffffffffffffffffffffffffffffff\n      and\n      dup2\n      mstore\n      0x20\n      add\n      swap1\n      dup2\n      mstore\n      0x20\n      add\n      0x00\n      keccak256\n      0x00\n        /* \"prac51.sol\":12534:12558  balances[user] += amount */\n      dup3\n      dup3\n      sload\n      tag_24\n      swap2\n      swap1\n      tag_25\n      jump\t// in\n    tag_24:\n      swap3\n      pop\n      pop\n      dup2\n      swap1\n      sstore\n      pop\n        /* \"prac51.sol\":12386:12566  function deposit(... */\n      pop\n      pop\n      jump\t// out\n        /* \"prac51.sol\":12574:12696  function getBalance(... */\n    tag_18:\n        /* \"prac51.sol\":12647:12654  uint256 */\n      0x00\n        /* \"prac51.sol\":12674:12682  balances */\n      0x00\n        /* \"prac51.sol\":12674:12688  balances[user] */\n      0x00\n        /* \"prac51.sol\":12683:12687  user */\n      dup4\n        /* \"prac51.sol\":12674:12688  balances[user] */\n      0xffffffffffffffffffffffffffffffffffffffff\n      and\n      0xffffffffffffffffffffffffffffffffffffffff\n      and\n      dup2\n      mstore\n      0x20\n      add\n      swap1\n      dup2\n      mstore\n      0x20\n      add\n      0x00\n      keccak256\n      sload\n        /* \"prac51.sol\":12667:12688  return balances[user] */\n      swap1\n      pop\n        /* \"prac51.sol\":12574:12696  function getBalance(... */\n      swap2\n      swap1\n      pop\n      jump\t// out\n        /* \"#utility.yul\":88:205   */\n    tag_28:\n        /* \"#utility.yul\":197:198   */\n      0x00\n        /* \"#utility.yul\":194:195   */\n      0x00\n        /* \"#utility.yul\":187:199   */\n      revert\n        /* \"#utility.yul\":334:460   */\n    tag_30:\n        /* \"#utility.yul\":371:378   */\n      0x00\n        /* \"#utility.yul\":411:453   */\n      0xffffffffffffffffffffffffffffffffffffffff\n        /* \"#utility.yul\":404:409   */\n      dup3\n        /* \"#utility.yul\":400:454   */\n      and\n        /* \"#utility.yul\":389:454   */\n      swap1\n      pop\n        /* \"#utility.yul\":334:460   */\n      swap2\n      swap1\n      pop\n      jump\t// out\n        /* \"#utility.yul\":466:562   */\n    tag_31:\n        /* \"#utility.yul\":503:510   */\n      0x00\n        /* \"#utility.yul\":532:556   */\n      tag_48\n        /* \"#utility.yul\":550:555   */\n      dup3\n        /* \"#utility.yul\":532:556   */\n      tag_30\n      jump\t// in\n    tag_48:\n        /* \"#utility.yul\":521:556   */\n      swap1\n      pop\n        /* \"#utility.yul\":466:562   */\n      swap2\n      swap1\n      pop\n      jump\t// out\n        /* \"#utility.yul\":568:690   */\n    tag_32:\n        /* \"#utility.yul\":641:665   */\n      tag_50\n        /* \"#utility.yul\":659:664   */\n      dup2\n        /* \"#utility.yul\":641:665   */\n      tag_31\n      jump\t// in\n    tag_50:\n        /* \"#utility.yul\":634:639   */\n      dup2\n        /* \"#utility.yul\":631:666   */\n      eq\n        /* \"#utility.yul\":621:684   */\n      tag_51\n      jumpi\n        /* \"#utility.yul\":680:681   */\n      0x00\n        /* \"#utility.yul\":677:678   */\n      0x00\n        /* \"#utility.yul\":670:682   */\n      revert\n        /* \"#utility.yul\":621:684   */\n    tag_51:\n        /* \"#utility.yul\":568:690   */\n      pop\n      jump\t// out\n        /* \"#utility.yul\":696:835   */\n    tag_33:\n        /* \"#utility.yul\":742:747   */\n      0x00\n        /* \"#utility.yul\":780:786   */\n      dup2\n        /* \"#utility.yul\":767:787   */\n      calldataload\n        /* \"#utility.yul\":758:787   */\n      swap1\n      pop\n        /* \"#utility.yul\":796:829   */\n      tag_53\n        /* \"#utility.yul\":823:828   */\n      dup2\n        /* \"#utility.yul\":796:829   */\n      tag_32\n      jump\t// in\n    tag_53:\n        /* \"#utility.yul\":696:835   */\n      swap3\n      swap2\n      pop\n      pop\n      jump\t// out\n        /* \"#utility.yul\":841:1170   */\n    tag_8:\n        /* \"#utility.yul\":900:906   */\n      0x00\n        /* \"#utility.yul\":949:951   */\n      0x20\n        /* \"#utility.yul\":937:946   */\n      dup3\n        /* \"#utility.yul\":928:935   */\n      dup5\n        /* \"#utility.yul\":924:947   */\n      sub\n        /* \"#utility.yul\":920:952   */\n      slt\n        /* \"#utility.yul\":917:1036   */\n      iszero\n      tag_55\n      jumpi\n        /* \"#utility.yul\":955:1034   */\n      tag_56\n      tag_28\n      jump\t// in\n    tag_56:\n        /* \"#utility.yul\":917:1036   */\n    tag_55:\n        /* \"#utility.yul\":1075:1076   */\n      0x00\n        /* \"#utility.yul\":1100:1153   */\n      tag_57\n        /* \"#utility.yul\":1145:1152   */\n      dup5\n        /* \"#utility.yul\":1136:1142   */\n      dup3\n        /* \"#utility.yul\":1125:1134   */\n      dup6\n        /* \"#utility.yul\":1121:1143   */\n      add\n        /* \"#utility.yul\":1100:1153   */\n      tag_33\n      jump\t// in\n    tag_57:\n        /* \"#utility.yul\":1090:1153   */\n      swap2\n      pop\n        /* \"#utility.yul\":1046:1163   */\n      pop\n        /* \"#utility.yul\":841:1170   */\n      swap3\n      swap2\n      pop\n      pop\n      jump\t// out\n        /* \"#utility.yul\":1176:1253   */\n    tag_34:\n        /* \"#utility.yul\":1213:1220   */\n      0x00\n        /* \"#utility.yul\":1242:1247   */\n      dup2\n        /* \"#utility.yul\":1231:1247   */\n      swap1\n      pop\n        /* \"#utility.yul\":1176:1253   */\n      swap2\n      swap1\n      pop\n      jump\t// out\n        /* \"#utility.yul\":1259:1377   */\n    tag_35:\n        /* \"#utility.yul\":1346:1370   */\n      tag_60\n        /* \"#utility.yul\":1364:1369   */\n      dup2\n        /* \"#utility.yul\":1346:1370   */\n      tag_34\n      jump\t// in\n    tag_60:\n        /* \"#utility.yul\":1341:1344   */\n      dup3\n        /* \"#utility.yul\":1334:1371   */\n      mstore\n        /* \"#utility.yul\":1259:1377   */\n      pop\n      pop\n      jump\t// out\n        /* \"#utility.yul\":1383:1605   */\n    tag_11:\n        /* \"#utility.yul\":1476:1480   */\n      0x00\n        /* \"#utility.yul\":1514:1516   */\n      0x20\n        /* \"#utility.yul\":1503:1512   */\n      dup3\n        /* \"#utility.yul\":1499:1517   */\n      add\n        /* \"#utility.yul\":1491:1517   */\n      swap1\n      pop\n        /* \"#utility.yul\":1527:1598   */\n      tag_62\n        /* \"#utility.yul\":1595:1596   */\n      0x00\n        /* \"#utility.yul\":1584:1593   */\n      dup4\n        /* \"#utility.yul\":1580:1597   */\n      add\n        /* \"#utility.yul\":1571:1577   */\n      dup5\n        /* \"#utility.yul\":1527:1598   */\n      tag_35\n      jump\t// in\n    tag_62:\n        /* \"#utility.yul\":1383:1605   */\n      swap3\n      swap2\n      pop\n      pop\n      jump\t// out\n        /* \"#utility.yul\":1611:1733   */\n    tag_36:\n        /* \"#utility.yul\":1684:1708   */\n      tag_64\n        /* \"#utility.yul\":1702:1707   */\n      dup2\n        /* \"#utility.yul\":1684:1708   */\n      tag_34\n      jump\t// in\n    tag_64:\n        /* \"#utility.yul\":1677:1682   */\n      dup2\n        /* \"#utility.yul\":1674:1709   */\n      eq\n        /* \"#utility.yul\":1664:1727   */\n      tag_65\n      jumpi\n        /* \"#utility.yul\":1723:1724   */\n      0x00\n        /* \"#utility.yul\":1720:1721   */\n      0x00\n        /* \"#utility.yul\":1713:1725   */\n      revert\n        /* \"#utility.yul\":1664:1727   */\n    tag_65:\n        /* \"#utility.yul\":1611:1733   */\n      pop\n      jump\t// out\n        /* \"#utility.yul\":1739:1878   */\n    tag_37:\n        /* \"#utility.yul\":1785:1790   */\n      0x00\n        /* \"#utility.yul\":1823:1829   */\n      dup2\n        /* \"#utility.yul\":1810:1830   */\n      calldataload\n        /* \"#utility.yul\":1801:1830   */\n      swap1\n      pop\n        /* \"#utility.yul\":1839:1872   */\n      tag_67\n        /* \"#utility.yul\":1866:1871   */\n      dup2\n        /* \"#utility.yul\":1839:1872   */\n      tag_36\n      jump\t// in\n    tag_67:\n        /* \"#utility.yul\":1739:1878   */\n      swap3\n      swap2\n      pop\n      pop\n      jump\t// out\n        /* \"#utility.yul\":1884:2358   */\n    tag_14:\n        /* \"#utility.yul\":1952:1958   */\n      0x00\n        /* \"#utility.yul\":1960:1966   */\n      0x00\n        /* \"#utility.yul\":2009:2011   */\n      0x40\n        /* \"#utility.yul\":1997:2006   */\n      dup4\n        /* \"#utility.yul\":1988:1995   */\n      dup6\n        /* \"#utility.yul\":1984:2007   */\n      sub\n        /* \"#utility.yul\":1980:2012   */\n      slt\n        /* \"#utility.yul\":1977:2096   */\n      iszero\n      tag_69\n      jumpi\n        /* \"#utility.yul\":2015:2094   */\n      tag_70\n      tag_28\n      jump\t// in\n    tag_70:\n        /* \"#utility.yul\":1977:2096   */\n    tag_69:\n        /* \"#utility.yul\":2135:2136   */\n      0x00\n        /* \"#utility.yul\":2160:2213   */\n      tag_71\n        /* \"#utility.yul\":2205:2212   */\n      dup6\n        /* \"#utility.yul\":2196:2202   */\n      dup3\n        /* \"#utility.yul\":2185:2194   */\n      dup7\n        /* \"#utility.yul\":2181:2203   */\n      add\n        /* \"#utility.yul\":2160:2213   */\n      tag_33\n      jump\t// in\n    tag_71:\n        /* \"#utility.yul\":2150:2213   */\n      swap3\n      pop\n        /* \"#utility.yul\":2106:2223   */\n      pop\n        /* \"#utility.yul\":2262:2264   */\n      0x20\n        /* \"#utility.yul\":2288:2341   */\n      tag_72\n        /* \"#utility.yul\":2333:2340   */\n      dup6\n        /* \"#utility.yul\":2324:2330   */\n      dup3\n        /* \"#utility.yul\":2313:2322   */\n      dup7\n        /* \"#utility.yul\":2309:2331   */\n      add\n        /* \"#utility.yul\":2288:2341   */\n      tag_37\n      jump\t// in\n    tag_72:\n        /* \"#utility.yul\":2278:2341   */\n      swap2\n      pop\n        /* \"#utility.yul\":2233:2351   */\n      pop\n        /* \"#utility.yul\":1884:2358   */\n      swap3\n      pop\n      swap3\n      swap1\n      pop\n      jump\t// out\n        /* \"#utility.yul\":2364:2533   */\n    tag_38:\n        /* \"#utility.yul\":2448:2459   */\n      0x00\n        /* \"#utility.yul\":2482:2488   */\n      dup3\n        /* \"#utility.yul\":2477:2480   */\n      dup3\n        /* \"#utility.yul\":2470:2489   */\n      mstore\n        /* \"#utility.yul\":2522:2526   */\n      0x20\n        /* \"#utility.yul\":2517:2520   */\n      dup3\n        /* \"#utility.yul\":2513:2527   */\n      add\n        /* \"#utility.yul\":2498:2527   */\n      swap1\n      pop\n        /* \"#utility.yul\":2364:2533   */\n      swap3\n      swap2\n      pop\n      pop\n      jump\t// out\n        /* \"#utility.yul\":2539:2701   */\n    tag_39:\n        /* \"#utility.yul\":2679:2693   */\n      0x496e76616c696420757365720000000000000000000000000000000000000000\n        /* \"#utility.yul\":2675:2676   */\n      0x00\n        /* \"#utility.yul\":2667:2673   */\n      dup3\n        /* \"#utility.yul\":2663:2677   */\n      add\n        /* \"#utility.yul\":2656:2694   */\n      mstore\n        /* \"#utility.yul\":2539:2701   */\n      pop\n      jump\t// out\n        /* \"#utility.yul\":2707:3073   */\n    tag_40:\n        /* \"#utility.yul\":2849:2852   */\n      0x00\n        /* \"#utility.yul\":2870:2937   */\n      tag_76\n        /* \"#utility.yul\":2934:2936   */\n      0x0c\n        /* \"#utility.yul\":2929:2932   */\n      dup4\n        /* \"#utility.yul\":2870:2937   */\n      tag_38\n      jump\t// in\n    tag_76:\n        /* \"#utility.yul\":2863:2937   */\n      swap2\n      pop\n        /* \"#utility.yul\":2946:3039   */\n      tag_77\n        /* \"#utility.yul\":3035:3038   */\n      dup3\n        /* \"#utility.yul\":2946:3039   */\n      tag_39\n      jump\t// in\n    tag_77:\n        /* \"#utility.yul\":3064:3066   */\n      0x20\n        /* \"#utility.yul\":3059:3062   */\n      dup3\n        /* \"#utility.yul\":3055:3067   */\n      add\n        /* \"#utility.yul\":3048:3067   */\n      swap1\n      pop\n        /* \"#utility.yul\":2707:3073   */\n      swap2\n      swap1\n      pop\n      jump\t// out\n        /* \"#utility.yul\":3079:3498   */\n    tag_23:\n        /* \"#utility.yul\":3245:3249   */\n      0x00\n        /* \"#utility.yul\":3283:3285   */\n      0x20\n        /* \"#utility.yul\":3272:3281   */\n      dup3\n        /* \"#utility.yul\":3268:3286   */\n      add\n        /* \"#utility.yul\":3260:3286   */\n      swap1\n      pop\n        /* \"#utility.yul\":3332:3341   */\n      dup2\n        /* \"#utility.yul\":3326:3330   */\n      dup2\n        /* \"#utility.yul\":3322:3342   */\n      sub\n        /* \"#utility.yul\":3318:3319   */\n      0x00\n        /* \"#utility.yul\":3307:3316   */\n      dup4\n        /* \"#utility.yul\":3303:3320   */\n      add\n        /* \"#utility.yul\":3296:3343   */\n      mstore\n        /* \"#utility.yul\":3360:3491   */\n      tag_79\n        /* \"#utility.yul\":3486:3490   */\n      dup2\n        /* \"#utility.yul\":3360:3491   */\n      tag_40\n      jump\t// in\n    tag_79:\n        /* \"#utility.yul\":3352:3491   */\n      swap1\n      pop\n        /* \"#utility.yul\":3079:3498   */\n      swap2\n      swap1\n      pop\n      jump\t// out\n        /* \"#utility.yul\":3504:3684   */\n    tag_41:\n        /* \"#utility.yul\":3552:3629   */\n      0x4e487b7100000000000000000000000000000000000000000000000000000000\n        /* \"#utility.yul\":3549:3550   */\n      0x00\n        /* \"#utility.yul\":3542:3630   */\n      mstore\n        /* \"#utility.yul\":3649:3653   */\n      0x11\n        /* \"#utility.yul\":3646:3647   */\n      0x04\n        /* \"#utility.yul\":3639:3654   */\n      mstore\n        /* \"#utility.yul\":3673:3677   */\n      0x24\n        /* \"#utility.yul\":3670:3671   */\n      0x00\n        /* \"#utility.yul\":3663:3678   */\n      revert\n        /* \"#utility.yul\":3690:3881   */\n    tag_25:\n        /* \"#utility.yul\":3730:3733   */\n      0x00\n        /* \"#utility.yul\":3749:3769   */\n      tag_82\n        /* \"#utility.yul\":3767:3768   */\n      dup3\n        /* \"#utility.yul\":3749:3769   */\n      tag_34\n      jump\t// in\n    tag_82:\n        /* \"#utility.yul\":3744:3769   */\n      swap2\n      pop\n        /* \"#utility.yul\":3783:3803   */\n      tag_83\n        /* \"#utility.yul\":3801:3802   */\n      dup4\n        /* \"#utility.yul\":3783:3803   */\n      tag_34\n      jump\t// in\n    tag_83:\n        /* \"#utility.yul\":3778:3803   */\n      swap3\n      pop\n        /* \"#utility.yul\":3826:3827   */\n      dup3\n        /* \"#utility.yul\":3823:3824   */\n      dup3\n        /* \"#utility.yul\":3819:3828   */\n      add\n        /* \"#utility.yul\":3812:3828   */\n      swap1\n      pop\n        /* \"#utility.yul\":3847:3850   */\n      dup1\n        /* \"#utility.yul\":3844:3845   */\n      dup3\n        /* \"#utility.yul\":3841:3851   */\n      gt\n        /* \"#utility.yul\":3838:3874   */\n      iszero\n      tag_84\n      jumpi\n        /* \"#utility.yul\":3854:3872   */\n      tag_85\n      tag_41\n      jump\t// in\n    tag_85:\n        /* \"#utility.yul\":3838:3874   */\n    tag_84:\n        /* \"#utility.yul\":3690:3881   */\n      swap3\n      swap2\n      pop\n      pop\n      jump\t// out\n\n    auxdata: 0xa26469706673582212202119820a71deba1fab5c75882ce29e1e5ec758c1bb6323845ac07c69b1df345c64736f6c63430008220033\n}\n",
				"bytecode": {
					"linkReferences": {},
					"object": "6080604052348015600e575f5ffd5b5061040c8061001c5f395ff3fe608060405234801561000f575f5ffd5b506004361061003f575f3560e01c806327e235e31461004357806347e7ef2414610073578063f8b2cb4f1461008f575b5f5ffd5b61005d6004803603810190610058919061023a565b6100bf565b60405161006a919061027d565b60405180910390f35b61008d600480360381019061008891906102c0565b6100d3565b005b6100a960048036038101906100a4919061023a565b610197565b6040516100b6919061027d565b60405180910390f35b5f602052805f5260405f205f915090505481565b5f73ffffffffffffffffffffffffffffffffffffffff168273ffffffffffffffffffffffffffffffffffffffff1603610141576040517f08c379a000000000000000000000000000000000000000000000000000000000815260040161013890610358565b60405180910390fd5b805f5f8473ffffffffffffffffffffffffffffffffffffffff1673ffffffffffffffffffffffffffffffffffffffff1681526020019081526020015f205f82825461018c91906103a3565b925050819055505050565b5f5f5f8373ffffffffffffffffffffffffffffffffffffffff1673ffffffffffffffffffffffffffffffffffffffff1681526020019081526020015f20549050919050565b5f5ffd5b5f73ffffffffffffffffffffffffffffffffffffffff82169050919050565b5f610209826101e0565b9050919050565b610219816101ff565b8114610223575f5ffd5b50565b5f8135905061023481610210565b92915050565b5f6020828403121561024f5761024e6101dc565b5b5f61025c84828501610226565b91505092915050565b5f819050919050565b61027781610265565b82525050565b5f6020820190506102905f83018461026e565b92915050565b61029f81610265565b81146102a9575f5ffd5b50565b5f813590506102ba81610296565b92915050565b5f5f604083850312156102d6576102d56101dc565b5b5f6102e385828601610226565b92505060206102f4858286016102ac565b9150509250929050565b5f82825260208201905092915050565b7f496e76616c6964207573657200000000000000000000000000000000000000005f82015250565b5f610342600c836102fe565b915061034d8261030e565b602082019050919050565b5f6020820190508181035f83015261036f81610336565b9050919050565b7f4e487b71000000000000000000000000000000000000000000000000000000005f52601160045260245ffd5b5f6103ad82610265565b91506103b883610265565b92508282019050808211156103d0576103cf610376565b5b9291505056fea26469706673582212202119820a71deba1fab5c75882ce29e1e5ec758c1bb6323845ac07c69b1df345c64736f6c63430008220033",
					"opcodes": "PUSH1 0x80 PUSH1 0x40 MSTORE CALLVALUE DUP1 ISZERO PUSH1 0xE JUMPI PUSH0 PUSH0 REVERT JUMPDEST POP PUSH2 0x40C DUP1 PUSH2 0x1C PUSH0 CODECOPY PUSH0 RETURN INVALID PUSH1 0x80 PUSH1 0x40 MSTORE CALLVALUE DUP1 ISZERO PUSH2 0xF JUMPI PUSH0 PUSH0 REVERT JUMPDEST POP PUSH1 0x4 CALLDATASIZE LT PUSH2 0x3F JUMPI PUSH0 CALLDATALOAD PUSH1 0xE0 SHR DUP1 PUSH4 0x27E235E3 EQ PUSH2 0x43 JUMPI DUP1 PUSH4 0x47E7EF24 EQ PUSH2 0x73 JUMPI DUP1 PUSH4 0xF8B2CB4F EQ PUSH2 0x8F JUMPI JUMPDEST PUSH0 PUSH0 REVERT JUMPDEST PUSH2 0x5D PUSH1 0x4 DUP1 CALLDATASIZE SUB DUP2 ADD SWAP1 PUSH2 0x58 SWAP2 SWAP1 PUSH2 0x23A JUMP JUMPDEST PUSH2 0xBF JUMP JUMPDEST PUSH1 0x40 MLOAD PUSH2 0x6A SWAP2 SWAP1 PUSH2 0x27D JUMP JUMPDEST PUSH1 0x40 MLOAD DUP1 SWAP2 SUB SWAP1 RETURN JUMPDEST PUSH2 0x8D PUSH1 0x4 DUP1 CALLDATASIZE SUB DUP2 ADD SWAP1 PUSH2 0x88 SWAP2 SWAP1 PUSH2 0x2C0 JUMP JUMPDEST PUSH2 0xD3 JUMP JUMPDEST STOP JUMPDEST PUSH2 0xA9 PUSH1 0x4 DUP1 CALLDATASIZE SUB DUP2 ADD SWAP1 PUSH2 0xA4 SWAP2 SWAP1 PUSH2 0x23A JUMP JUMPDEST PUSH2 0x197 JUMP JUMPDEST PUSH1 0x40 MLOAD PUSH2 0xB6 SWAP2 SWAP1 PUSH2 0x27D JUMP JUMPDEST PUSH1 0x40 MLOAD DUP1 SWAP2 SUB SWAP1 RETURN JUMPDEST PUSH0 PUSH1 0x20 MSTORE DUP1 PUSH0 MSTORE PUSH1 0x40 PUSH0 KECCAK256 PUSH0 SWAP2 POP SWAP1 POP SLOAD DUP2 JUMP JUMPDEST PUSH0 PUSH20 0xFFFFFFFFFFFFFFFFFFFFFFFFFFFFFFFFFFFFFFFF AND DUP3 PUSH20 0xFFFFFFFFFFFFFFFFFFFFFFFFFFFFFFFFFFFFFFFF AND SUB PUSH2 0x141 JUMPI PUSH1 0x40 MLOAD PUSH32 0x8C379A000000000000000000000000000000000000000000000000000000000 DUP2 MSTORE PUSH1 0x4 ADD PUSH2 0x138 SWAP1 PUSH2 0x358 JUMP JUMPDEST PUSH1 0x40 MLOAD DUP1 SWAP2 SUB SWAP1 REVERT JUMPDEST DUP1 PUSH0 PUSH0 DUP5 PUSH20 0xFFFFFFFFFFFFFFFFFFFFFFFFFFFFFFFFFFFFFFFF AND PUSH20 0xFFFFFFFFFFFFFFFFFFFFFFFFFFFFFFFFFFFFFFFF AND DUP2 MSTORE PUSH1 0x20 ADD SWAP1 DUP2 MSTORE PUSH1 0x20 ADD PUSH0 KECCAK256 PUSH0 DUP3 DUP3 SLOAD PUSH2 0x18C SWAP2 SWAP1 PUSH2 0x3A3 JUMP JUMPDEST SWAP3 POP POP DUP2 SWAP1 SSTORE POP POP POP JUMP JUMPDEST PUSH0 PUSH0 PUSH0 DUP4 PUSH20 0xFFFFFFFFFFFFFFFFFFFFFFFFFFFFFFFFFFFFFFFF AND PUSH20 0xFFFFFFFFFFFFFFFFFFFFFFFFFFFFFFFFFFFFFFFF AND DUP2 MSTORE PUSH1 0x20 ADD SWAP1 DUP2 MSTORE PUSH1 0x20 ADD PUSH0 KECCAK256 SLOAD SWAP1 POP SWAP2 SWAP1 POP JUMP JUMPDEST PUSH0 PUSH0 REVERT JUMPDEST PUSH0 PUSH20 0xFFFFFFFFFFFFFFFFFFFFFFFFFFFFFFFFFFFFFFFF DUP3 AND SWAP1 POP SWAP2 SWAP1 POP JUMP JUMPDEST PUSH0 PUSH2 0x209 DUP3 PUSH2 0x1E0 JUMP JUMPDEST SWAP1 POP SWAP2 SWAP1 POP JUMP JUMPDEST PUSH2 0x219 DUP2 PUSH2 0x1FF JUMP JUMPDEST DUP2 EQ PUSH2 0x223 JUMPI PUSH0 PUSH0 REVERT JUMPDEST POP JUMP JUMPDEST PUSH0 DUP2 CALLDATALOAD SWAP1 POP PUSH2 0x234 DUP2 PUSH2 0x210 JUMP JUMPDEST SWAP3 SWAP2 POP POP JUMP JUMPDEST PUSH0 PUSH1 0x20 DUP3 DUP5 SUB SLT ISZERO PUSH2 0x24F JUMPI PUSH2 0x24E PUSH2 0x1DC JUMP JUMPDEST JUMPDEST PUSH0 PUSH2 0x25C DUP5 DUP3 DUP6 ADD PUSH2 0x226 JUMP JUMPDEST SWAP2 POP POP SWAP3 SWAP2 POP POP JUMP JUMPDEST PUSH0 DUP2 SWAP1 POP SWAP2 SWAP1 POP JUMP JUMPDEST PUSH2 0x277 DUP2 PUSH2 0x265 JUMP JUMPDEST DUP3 MSTORE POP POP JUMP JUMPDEST PUSH0 PUSH1 0x20 DUP3 ADD SWAP1 POP PUSH2 0x290 PUSH0 DUP4 ADD DUP5 PUSH2 0x26E JUMP JUMPDEST SWAP3 SWAP2 POP POP JUMP JUMPDEST PUSH2 0x29F DUP2 PUSH2 0x265 JUMP JUMPDEST DUP2 EQ PUSH2 0x2A9 JUMPI PUSH0 PUSH0 REVERT JUMPDEST POP JUMP JUMPDEST PUSH0 DUP2 CALLDATALOAD SWAP1 POP PUSH2 0x2BA DUP2 PUSH2 0x296 JUMP JUMPDEST SWAP3 SWAP2 POP POP JUMP JUMPDEST PUSH0 PUSH0 PUSH1 0x40 DUP4 DUP6 SUB SLT ISZERO PUSH2 0x2D6 JUMPI PUSH2 0x2D5 PUSH2 0x1DC JUMP JUMPDEST JUMPDEST PUSH0 PUSH2 0x2E3 DUP6 DUP3 DUP7 ADD PUSH2 0x226 JUMP JUMPDEST SWAP3 POP POP PUSH1 0x20 PUSH2 0x2F4 DUP6 DUP3 DUP7 ADD PUSH2 0x2AC JUMP JUMPDEST SWAP2 POP POP SWAP3 POP SWAP3 SWAP1 POP JUMP JUMPDEST PUSH0 DUP3 DUP3 MSTORE PUSH1 0x20 DUP3 ADD SWAP1 POP SWAP3 SWAP2 POP POP JUMP JUMPDEST PUSH32 0x496E76616C696420757365720000000000000000000000000000000000000000 PUSH0 DUP3 ADD MSTORE POP JUMP JUMPDEST PUSH0 PUSH2 0x342 PUSH1 0xC DUP4 PUSH2 0x2FE JUMP JUMPDEST SWAP2 POP PUSH2 0x34D DUP3 PUSH2 0x30E JUMP JUMPDEST PUSH1 0x20 DUP3 ADD SWAP1 POP SWAP2 SWAP1 POP JUMP JUMPDEST PUSH0 PUSH1 0x20 DUP3 ADD SWAP1 POP DUP2 DUP2 SUB PUSH0 DUP4 ADD MSTORE PUSH2 0x36F DUP2 PUSH2 0x336 JUMP JUMPDEST SWAP1 POP SWAP2 SWAP1 POP JUMP JUMPDEST PUSH32 0x4E487B7100000000000000000000000000000000000000000000000000000000 PUSH0 MSTORE PUSH1 0x11 PUSH1 0x4 MSTORE PUSH1 0x24 PUSH0 REVERT JUMPDEST PUSH0 PUSH2 0x3AD DUP3 PUSH2 0x265 JUMP JUMPDEST SWAP2 POP PUSH2 0x3B8 DUP4 PUSH2 0x265 JUMP JUMPDEST SWAP3 POP DUP3 DUP3 ADD SWAP1 POP DUP1 DUP3 GT ISZERO PUSH2 0x3D0 JUMPI PUSH2 0x3CF PUSH2 0x376 JUMP JUMPDEST JUMPDEST SWAP3 SWAP2 POP POP JUMP INVALID LOG2 PUSH5 0x6970667358 0x22 SLT KECCAK256 0x21 NOT DUP3 EXP PUSH18 0xDEBA1FAB5C75882CE29E1E5EC758C1BB6323 DUP5 GAS 0xC0 PUSH29 0x69B1DF345C64736F6C6343000822003300000000000000000000000000 "
				},
				"gasEstimates": {
					"creation": {
						"codeDepositCost": "207200",
						"executionCost": "249",
						"totalCost": "207449"
					},
					"external": {
						"balances(address)": "2779",
						"deposit(address,uint256)": "infinite",
						"getBalance(address)": "2850"
					}
				},
				"methodIdentifiers": {
					"balances(address)": "27e235e3",
					"deposit(address,uint256)": "47e7ef24",
					"getBalance(address)": "f8b2cb4f"
				}
			},
			"storageLayout": {
				"storage": [
					{
						"astId": 93,
						"contract": "prac51.sol:BankPatched",
						"label": "balances",
						"offset": 0,
						"slot": "0",
						"type": "t_mapping(t_address,t_uint256)"
					}
				],
				"types": {
					"t_address": {
						"encoding": "inplace",
						"label": "address",
						"numberOfBytes": "20"
					},
					"t_mapping(t_address,t_uint256)": {
						"encoding": "mapping",
						"key": "t_address",
						"label": "mapping(address => uint256)",
						"numberOfBytes": "32",
						"value": "t_uint256"
					},
					"t_uint256": {
						"encoding": "inplace",
						"label": "uint256",
						"numberOfBytes": "32"
					}
				}
			},
			"userdoc": {
				"kind": "user",
				"methods": {},
				"version": 1
			}
		}
	}
}