{
	"prac51.sol": {
		"InterContractCallerPatched": {
			"abi": [
				{
					"inputs": [
						{
							"internalType": "address",
							"name": "bankAddress",
							"type": "address"
						}
					],
					"stateMutability": "nonpayable",
					"type": "constructor"
				},
				{
					"inputs": [],
					"name": "bank",
					"outputs": [
						{
							"internalType": "contract BankPatched",
							"name": "",
							"type": "address"
						}
					],
					"stateMutability": "view",
					"type": "function"
				},
				{
					"inputs": [
						{
							"internalType": "uint256",
							"name": "amount",
							"type": "uint256"
						}
					],
					"name": "callDeposit",
					"outputs": [],
					"stateMutability": "nonpayable",
					"type": "function"
				},
				{
					"inputs": [],
					"name": "lastBalance",
					"outputs": [
						{
							"internalType": "uint256",
							"name": "",
							"type": "uint256"
						}
					],
					"stateMutability": "view",
					"type": "function"
				},
				{
					"inputs": [
						{
							"internalType": "address",
							"name": "user",
							"type": "address"
						}
					],
					"name": "readBalance",
					"outputs": [],
					"stateMutability": "nonpayable",
					"type": "function"
				}
			],
			"devdoc": {
				"kind": "dev",
				"methods": {},
				"version": 1
			},
			"evm": {
				"assembly": "    /* \"prac51.sol\":12703:13302  contract InterContractCallerPatched {... */\n  mstore(0x40, 0x80)\n    /* \"prac51.sol\":12815:13006  constructor(address bankAddress) {... */\n  callvalue\n  dup1\n  iszero\n  tag_1\n  jumpi\n  revert(0x00, 0x00)\ntag_1:\n  pop\n  mload(0x40)\n  sub(codesize, bytecodeSize)\n  dup1\n  bytecodeSize\n  dup4\n  codecopy\n  dup2\n  dup2\n  add\n  0x40\n  mstore\n  dup2\n  add\n  swap1\n  tag_2\n  swap2\n  swap1\n  tag_3\n  jump\t// in\ntag_2:\n    /* \"prac51.sol\":12904:12905  0 */\n  0x00\n    /* \"prac51.sol\":12881:12906  bankAddress != address(0) */\n  0xffffffffffffffffffffffffffffffffffffffff\n  and\n    /* \"prac51.sol\":12881:12892  bankAddress */\n  dup2\n    /* \"prac51.sol\":12881:12906  bankAddress != address(0) */\n  0xffffffffffffffffffffffffffffffffffffffff\n  and\n  sub\n    /* \"prac51.sol\":12859:12954  require(... */\n  tag_6\n  jumpi\n  mload(0x40)\n  0x08c379a000000000000000000000000000000000000000000000000000000000\n  dup2\n  mstore\n  0x04\n  add\n  tag_7\n  swap1\n  tag_8\n  jump\t// in\ntag_7:\n  mload(0x40)\n  dup1\n  swap2\n  sub\n  swap1\n  revert\ntag_6:\n    /* \"prac51.sol\":12986:12997  bankAddress */\n  dup1\n    /* \"prac51.sol\":12967:12971  bank */\n  0x00\n  0x00\n    /* \"prac51.sol\":12967:12998  bank = BankPatched(bankAddress) */\n  0x0100\n  exp\n  dup2\n  sload\n  dup2\n  0xffffffffffffffffffffffffffffffffffffffff\n  mul\n  not\n  and\n  swap1\n  dup4\n  0xffffffffffffffffffffffffffffffffffffffff\n  and\n  mul\n  or\n  swap1\n  sstore\n  pop\n    /* \"prac51.sol\":12815:13006  constructor(address bankAddress) {... */\n  pop\n    /* \"prac51.sol\":12703:13302  contract InterContractCallerPatched {... */\n  jump(tag_9)\n    /* \"#utility.yul\":88:205   */\ntag_11:\n    /* \"#utility.yul\":197:198   */\n  0x00\n    /* \"#utility.yul\":194:195   */\n  0x00\n    /* \"#utility.yul\":187:199   */\n  revert\n    /* \"#utility.yul\":334:460   */\ntag_13:\n    /* \"#utility.yul\":371:378   */\n  0x00\n    /* \"#utility.yul\":411:453   */\n  0xffffffffffffffffffffffffffffffffffffffff\n    /* \"#utility.yul\":404:409   */\n  dup3\n    /* \"#utility.yul\":400:454   */\n  and\n    /* \"#utility.yul\":389:454   */\n  swap1\n  pop\n    /* \"#utility.yul\":334:460   */\n  swap2\n  swap1\n  pop\n  jump\t// out\n    /* \"#utility.yul\":466:562   */\ntag_14:\n    /* \"#utility.yul\":503:510   */\n  0x00\n    /* \"#utility.yul\":532:556   */\n  tag_26\n    /* \"#utility.yul\":550:555   */\n  dup3\n    /* \"#utility.yul\":532:556   */\n  tag_13\n  jump\t// in\ntag_26:\n    /* \"#utility.yul\":521:556   */\n  swap1\n  pop\n    /* \"#utility.yul\":466:562   */\n  swap2\n  swap1\n  pop\n  jump\t// out\n    /* \"#utility.yul\":568:690   */\ntag_15:\n    /* \"#utility.yul\":641:665   */\n  tag_28\n    /* \"#utility.yul\":659:664   */\n  dup2\n    /* \"#utility.yul\":641:665   */\n  tag_14\n  jump\t// in\ntag_28:\n    /* \"#utility.yul\":634:639   */\n  dup2\n    /* \"#utility.yul\":631:666   */\n  eq\n    /* \"#utility.yul\":621:684   */\n  tag_29\n  jumpi\n    /* \"#utility.yul\":680:681   */\n  0x00\n    /* \"#utility.yul\":677:678   */\n  0x00\n    /* \"#utility.yul\":670:682   */\n  revert\n    /* \"#utility.yul\":621:684   */\ntag_29:\n    /* \"#utility.yul\":568:690   */\n  pop\n  jump\t// out\n    /* \"#utility.yul\":696:839   */\ntag_16:\n    /* \"#utility.yul\":753:758   */\n  0x00\n    /* \"#utility.yul\":784:790   */\n  dup2\n    /* \"#utility.yul\":778:791   */\n  mload\n    /* \"#utility.yul\":769:791   */\n  swap1\n  pop\n    /* \"#utility.yul\":800:833   */\n  tag_31\n    /* \"#utility.yul\":827:832   */\n  dup2\n    /* \"#utility.yul\":800:833   */\n  tag_15\n  jump\t// in\ntag_31:\n    /* \"#utility.yul\":696:839   */\n  swap3\n  swap2\n  pop\n  pop\n  jump\t// out\n    /* \"#utility.yul\":845:1196   */\ntag_3:\n    /* \"#utility.yul\":915:921   */\n  0x00\n    /* \"#utility.yul\":964:966   */\n  0x20\n    /* \"#utility.yul\":952:961   */\n  dup3\n    /* \"#utility.yul\":943:950   */\n  dup5\n    /* \"#utility.yul\":939:962   */\n  sub\n    /* \"#utility.yul\":935:967   */\n  slt\n    /* \"#utility.yul\":932:1051   */\n  iszero\n  tag_33\n  jumpi\n    /* \"#utility.yul\":970:1049   */\n  tag_34\n  tag_11\n  jump\t// in\ntag_34:\n    /* \"#utility.yul\":932:1051   */\ntag_33:\n    /* \"#utility.yul\":1090:1091   */\n  0x00\n    /* \"#utility.yul\":1115:1179   */\n  tag_35\n    /* \"#utility.yul\":1171:1178   */\n  dup5\n    /* \"#utility.yul\":1162:1168   */\n  dup3\n    /* \"#utility.yul\":1151:1160   */\n  dup6\n    /* \"#utility.yul\":1147:1169   */\n  add\n    /* \"#utility.yul\":1115:1179   */\n  tag_16\n  jump\t// in\ntag_35:\n    /* \"#utility.yul\":1105:1179   */\n  swap2\n  pop\n    /* \"#utility.yul\":1061:1189   */\n  pop\n    /* \"#utility.yul\":845:1196   */\n  swap3\n  swap2\n  pop\n  pop\n  jump\t// out\n    /* \"#utility.yul\":1202:1371   */\ntag_17:\n    /* \"#utility.yul\":1286:1297   */\n  0x00\n    /* \"#utility.yul\":1320:1326   */\n  dup3\n    /* \"#utility.yul\":1315:1318   */\n  dup3\n    /* \"#utility.yul\":1308:1327   */\n  mstore\n    /* \"#utility.yul\":1360:1364   */\n  0x20\n    /* \"#utility.yul\":1355:1358   */\n  dup3\n    /* \"#utility.yul\":1351:1365   */\n  add\n    /* \"#utility.yul\":1336:1365   */\n  swap1\n  pop\n    /* \"#utility.yul\":1202:1371   */\n  swap3\n  swap2\n  pop\n  pop\n  jump\t// out\n    /* \"#utility.yul\":1377:1547   */\ntag_18:\n    /* \"#utility.yul\":1517:1539   */\n  0x496e76616c69642062616e6b2061646472657373000000000000000000000000\n    /* \"#utility.yul\":1513:1514   */\n  0x00\n    /* \"#utility.yul\":1505:1511   */\n  dup3\n    /* \"#utility.yul\":1501:1515   */\n  add\n    /* \"#utility.yul\":1494:1540   */\n  mstore\n    /* \"#utility.yul\":1377:1547   */\n  pop\n  jump\t// out\n    /* \"#utility.yul\":1553:1919   */\ntag_19:\n    /* \"#utility.yul\":1695:1698   */\n  0x00\n    /* \"#utility.yul\":1716:1783   */\n  tag_39\n    /* \"#utility.yul\":1780:1782   */\n  0x14\n    /* \"#utility.yul\":1775:1778   */\n  dup4\n    /* \"#utility.yul\":1716:1783   */\n  tag_17\n  jump\t// in\ntag_39:\n    /* \"#utility.yul\":1709:1783   */\n  swap2\n  pop\n    /* \"#utility.yul\":1792:1885   */\n  tag_40\n    /* \"#utility.yul\":1881:1884   */\n  dup3\n    /* \"#utility.yul\":1792:1885   */\n  tag_18\n  jump\t// in\ntag_40:\n    /* \"#utility.yul\":1910:1912   */\n  0x20\n    /* \"#utility.yul\":1905:1908   */\n  dup3\n    /* \"#utility.yul\":1901:1913   */\n  add\n    /* \"#utility.yul\":1894:1913   */\n  swap1\n  pop\n    /* \"#utility.yul\":1553:1919   */\n  swap2\n  swap1\n  pop\n  jump\t// out\n    /* \"#utility.yul\":1925:2344   */\ntag_8:\n    /* \"#utility.yul\":2091:2095   */\n  0x00\n    /* \"#utility.yul\":2129:2131   */\n  0x20\n    /* \"#utility.yul\":2118:2127   */\n  dup3\n    /* \"#utility.yul\":2114:2132   */\n  add\n    /* \"#utility.yul\":2106:2132   */\n  swap1\n  pop\n    /* \"#utility.yul\":2178:2187   */\n  dup2\n    /* \"#utility.yul\":2172:2176   */\n  dup2\n    /* \"#utility.yul\":2168:2188   */\n  sub\n    /* \"#utility.yul\":2164:2165   */\n  0x00\n    /* \"#utility.yul\":2153:2162   */\n  dup4\n    /* \"#utility.yul\":2149:2166   */\n  add\n    /* \"#utility.yul\":2142:2189   */\n  mstore\n    /* \"#utility.yul\":2206:2337   */\n  tag_42\n    /* \"#utility.yul\":2332:2336   */\n  dup2\n    /* \"#utility.yul\":2206:2337   */\n  tag_19\n  jump\t// in\ntag_42:\n    /* \"#utility.yul\":2198:2337   */\n  swap1\n  pop\n    /* \"#utility.yul\":1925:2344   */\n  swap2\n  swap1\n  pop\n  jump\t// out\n    /* \"prac51.sol\":12703:13302  contract InterContractCallerPatched {... */\ntag_9:\n  dataSize(sub_0)\n  dup1\n  dataOffset(sub_0)\n  0x00\n  codecopy\n  0x00\n  return\nstop\n\nsub_0: assembly {\n        /* \"prac51.sol\":12703:13302  contract InterContractCallerPatched {... */\n      mstore(0x40, 0x80)\n      callvalue\n      dup1\n      iszero\n      tag_1\n      jumpi\n      revert(0x00, 0x00)\n    tag_1:\n      pop\n      jumpi(tag_2, lt(calldatasize, 0x04))\n      shr(0xe0, calldataload(0x00))\n      dup1\n      0x76cdb03b\n      eq\n      tag_3\n      jumpi\n      dup1\n      0x78d20574\n      eq\n      tag_4\n      jumpi\n      dup1\n      0x8f1c56bd\n      eq\n      tag_5\n      jumpi\n      dup1\n      0xa5627d32\n      eq\n      tag_6\n      jumpi\n    tag_2:\n      revert(0x00, 0x00)\n        /* \"prac51.sol\":12748:12771  BankPatched public bank */\n    tag_3:\n      tag_7\n      tag_8\n      jump\t// in\n    tag_7:\n      mload(0x40)\n      tag_9\n      swap2\n      swap1\n      tag_10\n      jump\t// in\n    tag_9:\n      mload(0x40)\n      dup1\n      swap2\n      sub\n      swap1\n      return\n        /* \"prac51.sol\":13172:13299  function readBalance(... */\n    tag_4:\n      tag_11\n      0x04\n      dup1\n      calldatasize\n      sub\n      dup2\n      add\n      swap1\n      tag_12\n      swap2\n      swap1\n      tag_13\n      jump\t// in\n    tag_12:\n      tag_14\n      jump\t// in\n    tag_11:\n      stop\n        /* \"prac51.sol\":12780:12806  uint256 public lastBalance */\n    tag_5:\n      tag_15\n      tag_16\n      jump\t// in\n    tag_15:\n      mload(0x40)\n      tag_17\n      swap2\n      swap1\n      tag_18\n      jump\t// in\n    tag_17:\n      mload(0x40)\n      dup1\n      swap2\n      sub\n      swap1\n      return\n        /* \"prac51.sol\":13014:13164  function callDeposit(... */\n    tag_6:\n      tag_19\n      0x04\n      dup1\n      calldatasize\n      sub\n      dup2\n      add\n      swap1\n      tag_20\n      swap2\n      swap1\n      tag_21\n      jump\t// in\n    tag_20:\n      tag_22\n      jump\t// in\n    tag_19:\n      stop\n        /* \"prac51.sol\":12748:12771  BankPatched public bank */\n    tag_8:\n      0x00\n      0x00\n      swap1\n      sload\n      swap1\n      0x0100\n      exp\n      swap1\n      div\n      0xffffffffffffffffffffffffffffffffffffffff\n      and\n      dup2\n      jump\t// out\n        /* \"prac51.sol\":13172:13299  function readBalance(... */\n    tag_14:\n        /* \"prac51.sol\":13270:13274  bank */\n      0x00\n      0x00\n      swap1\n      sload\n      swap1\n      0x0100\n      exp\n      swap1\n      div\n      0xffffffffffffffffffffffffffffffffffffffff\n      and\n        /* \"prac51.sol\":13270:13285  bank.getBalance */\n      0xffffffffffffffffffffffffffffffffffffffff\n      and\n      0xf8b2cb4f\n        /* \"prac51.sol\":13286:13290  user */\n      dup3\n        /* \"prac51.sol\":13270:13291  bank.getBalance(user) */\n      mload(0x40)\n      dup3\n      0xffffffff\n      and\n      0xe0\n      shl\n      dup2\n      mstore\n      0x04\n      add\n      tag_24\n      swap2\n      swap1\n      tag_25\n      jump\t// in\n    tag_24:\n      0x20\n      mload(0x40)\n      dup1\n      dup4\n      sub\n      dup2\n      dup7\n      gas\n      staticcall\n      iszero\n      dup1\n      iszero\n      tag_27\n      jumpi\n      returndatacopy(0x00, 0x00, returndatasize)\n      revert(0x00, returndatasize)\n    tag_27:\n      pop\n      pop\n      pop\n      pop\n      mload(0x40)\n      returndatasize\n      not(0x1f)\n      0x1f\n      dup3\n      add\n      and\n      dup3\n      add\n      dup1\n      0x40\n      mstore\n      pop\n      dup2\n      add\n      swap1\n      tag_28\n      swap2\n      swap1\n      tag_29\n      jump\t// in\n    tag_28:\n        /* \"prac51.sol\":13243:13254  lastBalance */\n      0x01\n        /* \"prac51.sol\":13243:13291  lastBalance =... */\n      dup2\n      swap1\n      sstore\n      pop\n        /* \"prac51.sol\":13172:13299  function readBalance(... */\n      pop\n      jump\t// out\n        /* \"prac51.sol\":12780:12806  uint256 public lastBalance */\n    tag_16:\n      sload(0x01)\n      dup2\n      jump\t// out\n        /* \"prac51.sol\":13014:13164  function callDeposit(... */\n    tag_22:\n        /* \"prac51.sol\":13087:13091  bank */\n      0x00\n      0x00\n      swap1\n      sload\n      swap1\n      0x0100\n      exp\n      swap1\n      div\n      0xffffffffffffffffffffffffffffffffffffffff\n      and\n        /* \"prac51.sol\":13087:13099  bank.deposit */\n      0xffffffffffffffffffffffffffffffffffffffff\n      and\n      0x47e7ef24\n        /* \"prac51.sol\":13114:13124  msg.sender */\n      caller\n        /* \"prac51.sol\":13139:13145  amount */\n      dup4\n        /* \"prac51.sol\":13087:13156  bank.deposit(... */\n      mload(0x40)\n      dup4\n      0xffffffff\n      and\n      0xe0\n      shl\n      dup2\n      mstore\n      0x04\n      add\n      tag_31\n      swap3\n      swap2\n      swap1\n      tag_32\n      jump\t// in\n    tag_31:\n      0x00\n      mload(0x40)\n      dup1\n      dup4\n      sub\n      dup2\n      0x00\n      dup8\n      dup1\n      extcodesize\n      iszero\n      dup1\n      iszero\n      tag_33\n      jumpi\n      revert(0x00, 0x00)\n    tag_33:\n      pop\n      gas\n      call\n      iszero\n      dup1\n      iszero\n      tag_35\n      jumpi\n      returndatacopy(0x00, 0x00, returndatasize)\n      revert(0x00, returndatasize)\n    tag_35:\n      pop\n      pop\n      pop\n      pop\n        /* \"prac51.sol\":13014:13164  function callDeposit(... */\n      pop\n      jump\t// out\n        /* \"#utility.yul\":7:133   */\n    tag_36:\n        /* \"#utility.yul\":44:51   */\n      0x00\n        /* \"#utility.yul\":84:126   */\n      0xffffffffffffffffffffffffffffffffffffffff\n        /* \"#utility.yul\":77:82   */\n      dup3\n        /* \"#utility.yul\":73:127   */\n      and\n        /* \"#utility.yul\":62:127   */\n      swap1\n      pop\n        /* \"#utility.yul\":7:133   */\n      swap2\n      swap1\n      pop\n      jump\t// out\n        /* \"#utility.yul\":139:199   */\n    tag_37:\n        /* \"#utility.yul\":167:170   */\n      0x00\n        /* \"#utility.yul\":188:193   */\n      dup2\n        /* \"#utility.yul\":181:193   */\n      swap1\n      pop\n        /* \"#utility.yul\":139:199   */\n      swap2\n      swap1\n      pop\n      jump\t// out\n        /* \"#utility.yul\":205:347   */\n    tag_38:\n        /* \"#utility.yul\":255:264   */\n      0x00\n        /* \"#utility.yul\":288:341   */\n      tag_58\n        /* \"#utility.yul\":306:340   */\n      tag_59\n        /* \"#utility.yul\":315:339   */\n      tag_60\n        /* \"#utility.yul\":333:338   */\n      dup5\n        /* \"#utility.yul\":315:339   */\n      tag_36\n      jump\t// in\n    tag_60:\n        /* \"#utility.yul\":306:340   */\n      tag_37\n      jump\t// in\n    tag_59:\n        /* \"#utility.yul\":288:341   */\n      tag_36\n      jump\t// in\n    tag_58:\n        /* \"#utility.yul\":275:341   */\n      swap1\n      pop\n        /* \"#utility.yul\":205:347   */\n      swap2\n      swap1\n      pop\n      jump\t// out\n        /* \"#utility.yul\":353:479   */\n    tag_39:\n        /* \"#utility.yul\":403:412   */\n      0x00\n        /* \"#utility.yul\":436:473   */\n      tag_62\n        /* \"#utility.yul\":467:472   */\n      dup3\n        /* \"#utility.yul\":436:473   */\n      tag_38\n      jump\t// in\n    tag_62:\n        /* \"#utility.yul\":423:473   */\n      swap1\n      pop\n        /* \"#utility.yul\":353:479   */\n      swap2\n      swap1\n      pop\n      jump\t// out\n        /* \"#utility.yul\":485:630   */\n    tag_40:\n        /* \"#utility.yul\":554:563   */\n      0x00\n        /* \"#utility.yul\":587:624   */\n      tag_64\n        /* \"#utility.yul\":618:623   */\n      dup3\n        /* \"#utility.yul\":587:624   */\n      tag_39\n      jump\t// in\n    tag_64:\n        /* \"#utility.yul\":574:624   */\n      swap1\n      pop\n        /* \"#utility.yul\":485:630   */\n      swap2\n      swap1\n      pop\n      jump\t// out\n        /* \"#utility.yul\":636:805   */\n    tag_41:\n        /* \"#utility.yul\":742:798   */\n      tag_66\n        /* \"#utility.yul\":792:797   */\n      dup2\n        /* \"#utility.yul\":742:798   */\n      tag_40\n      jump\t// in\n    tag_66:\n        /* \"#utility.yul\":737:740   */\n      dup3\n        /* \"#utility.yul\":730:799   */\n      mstore\n        /* \"#utility.yul\":636:805   */\n      pop\n      pop\n      jump\t// out\n        /* \"#utility.yul\":811:1071   */\n    tag_10:\n        /* \"#utility.yul\":923:927   */\n      0x00\n        /* \"#utility.yul\":961:963   */\n      0x20\n        /* \"#utility.yul\":950:959   */\n      dup3\n        /* \"#utility.yul\":946:964   */\n      add\n        /* \"#utility.yul\":938:964   */\n      swap1\n      pop\n        /* \"#utility.yul\":974:1064   */\n      tag_68\n        /* \"#utility.yul\":1061:1062   */\n      0x00\n        /* \"#utility.yul\":1050:1059   */\n      dup4\n        /* \"#utility.yul\":1046:1063   */\n      add\n        /* \"#utility.yul\":1037:1043   */\n      dup5\n        /* \"#utility.yul\":974:1064   */\n      tag_41\n      jump\t// in\n    tag_68:\n        /* \"#utility.yul\":811:1071   */\n      swap3\n      swap2\n      pop\n      pop\n      jump\t// out\n        /* \"#utility.yul\":1158:1275   */\n    tag_43:\n        /* \"#utility.yul\":1267:1268   */\n      0x00\n        /* \"#utility.yul\":1264:1265   */\n      0x00\n        /* \"#utility.yul\":1257:1269   */\n      revert\n        /* \"#utility.yul\":1404:1500   */\n    tag_45:\n        /* \"#utility.yul\":1441:1448   */\n      0x00\n        /* \"#utility.yul\":1470:1494   */\n      tag_73\n        /* \"#utility.yul\":1488:1493   */\n      dup3\n        /* \"#utility.yul\":1470:1494   */\n      tag_36\n      jump\t// in\n    tag_73:\n        /* \"#utility.yul\":1459:1494   */\n      swap1\n      pop\n        /* \"#utility.yul\":1404:1500   */\n      swap2\n      swap1\n      pop\n      jump\t// out\n        /* \"#utility.yul\":1506:1628   */\n    tag_46:\n        /* \"#utility.yul\":1579:1603   */\n      tag_75\n        /* \"#utility.yul\":1597:1602   */\n      dup2\n        /* \"#utility.yul\":1579:1603   */\n      tag_45\n      jump\t// in\n    tag_75:\n        /* \"#utility.yul\":1572:1577   */\n      dup2\n        /* \"#utility.yul\":1569:1604   */\n      eq\n        /* \"#utility.yul\":1559:1622   */\n      tag_76\n      jumpi\n        /* \"#utility.yul\":1618:1619   */\n      0x00\n        /* \"#utility.yul\":1615:1616   */\n      0x00\n        /* \"#utility.yul\":1608:1620   */\n      revert\n        /* \"#utility.yul\":1559:1622   */\n    tag_76:\n        /* \"#utility.yul\":1506:1628   */\n      pop\n      jump\t// out\n        /* \"#utility.yul\":1634:1773   */\n    tag_47:\n        /* \"#utility.yul\":1680:1685   */\n      0x00\n        /* \"#utility.yul\":1718:1724   */\n      dup2\n        /* \"#utility.yul\":1705:1725   */\n      calldataload\n        /* \"#utility.yul\":1696:1725   */\n      swap1\n      pop\n        /* \"#utility.yul\":1734:1767   */\n      tag_78\n        /* \"#utility.yul\":1761:1766   */\n      dup2\n        /* \"#utility.yul\":1734:1767   */\n      tag_46\n      jump\t// in\n    tag_78:\n        /* \"#utility.yul\":1634:1773   */\n      swap3\n      swap2\n      pop\n      pop\n      jump\t// out\n        /* \"#utility.yul\":1779:2108   */\n    tag_13:\n        /* \"#utility.yul\":1838:1844   */\n      0x00\n        /* \"#utility.yul\":1887:1889   */\n      0x20\n        /* \"#utility.yul\":1875:1884   */\n      dup3\n        /* \"#utility.yul\":1866:1873   */\n      dup5\n        /* \"#utility.yul\":1862:1885   */\n      sub\n        /* \"#utility.yul\":1858:1890   */\n      slt\n        /* \"#utility.yul\":1855:1974   */\n      iszero\n      tag_80\n      jumpi\n        /* \"#utility.yul\":1893:1972   */\n      tag_81\n      tag_43\n      jump\t// in\n    tag_81:\n        /* \"#utility.yul\":1855:1974   */\n    tag_80:\n        /* \"#utility.yul\":2013:2014   */\n      0x00\n        /* \"#utility.yul\":2038:2091   */\n      tag_82\n        /* \"#utility.yul\":2083:2090   */\n      dup5\n        /* \"#utility.yul\":2074:2080   */\n      dup3\n        /* \"#utility.yul\":2063:2072   */\n      dup6\n        /* \"#utility.yul\":2059:2081   */\n      add\n        /* \"#utility.yul\":2038:2091   */\n      tag_47\n      jump\t// in\n    tag_82:\n        /* \"#utility.yul\":2028:2091   */\n      swap2\n      pop\n        /* \"#utility.yul\":1984:2101   */\n      pop\n        /* \"#utility.yul\":1779:2108   */\n      swap3\n      swap2\n      pop\n      pop\n      jump\t// out\n        /* \"#utility.yul\":2114:2191   */\n    tag_48:\n        /* \"#utility.yul\":2151:2158   */\n      0x00\n        /* \"#utility.yul\":2180:2185   */\n      dup2\n        /* \"#utility.yul\":2169:2185   */\n      swap1\n      pop\n        /* \"#utility.yul\":2114:2191   */\n      swap2\n      swap1\n      pop\n      jump\t// out\n        /* \"#utility.yul\":2197:2315   */\n    tag_49:\n        /* \"#utility.yul\":2284:2308   */\n      tag_85\n        /* \"#utility.yul\":2302:2307   */\n      dup2\n        /* \"#utility.yul\":2284:2308   */\n      tag_48\n      jump\t// in\n    tag_85:\n        /* \"#utility.yul\":2279:2282   */\n      dup3\n        /* \"#utility.yul\":2272:2309   */\n      mstore\n        /* \"#utility.yul\":2197:2315   */\n      pop\n      pop\n      jump\t// out\n        /* \"#utility.yul\":2321:2543   */\n    tag_18:\n        /* \"#utility.yul\":2414:2418   */\n      0x00\n        /* \"#utility.yul\":2452:2454   */\n      0x20\n        /* \"#utility.yul\":2441:2450   */\n      dup3\n        /* \"#utility.yul\":2437:2455   */\n      add\n        /* \"#utility.yul\":2429:2455   */\n      swap1\n      pop\n        /* \"#utility.yul\":2465:2536   */\n      tag_87\n        /* \"#utility.yul\":2533:2534   */\n      0x00\n        /* \"#utility.yul\":2522:2531   */\n      dup4\n        /* \"#utility.yul\":2518:2535   */\n      add\n        /* \"#utility.yul\":2509:2515   */\n      dup5\n        /* \"#utility.yul\":2465:2536   */\n      tag_49\n      jump\t// in\n    tag_87:\n        /* \"#utility.yul\":2321:2543   */\n      swap3\n      swap2\n      pop\n      pop\n      jump\t// out\n        /* \"#utility.yul\":2549:2671   */\n    tag_50:\n        /* \"#utility.yul\":2622:2646   */\n      tag_89\n        /* \"#utility.yul\":2640:2645   */\n      dup2\n        /* \"#utility.yul\":2622:2646   */\n      tag_48\n      jump\t// in\n    tag_89:\n        /* \"#utility.yul\":2615:2620   */\n      dup2\n        /* \"#utility.yul\":2612:2647   */\n      eq\n        /* \"#utility.yul\":2602:2665   */\n      tag_90\n      jumpi\n        /* \"#utility.yul\":2661:2662   */\n      0x00\n        /* \"#utility.yul\":2658:2659   */\n      0x00\n        /* \"#utility.yul\":2651:2663   */\n      revert\n        /* \"#utility.yul\":2602:2665   */\n    tag_90:\n        /* \"#utility.yul\":2549:2671   */\n      pop\n      jump\t// out\n        /* \"#utility.yul\":2677:2816   */\n    tag_51:\n        /* \"#utility.yul\":2723:2728   */\n      0x00\n        /* \"#utility.yul\":2761:2767   */\n      dup2\n        /* \"#utility.yul\":2748:2768   */\n      calldataload\n        /* \"#utility.yul\":2739:2768   */\n      swap1\n      pop\n        /* \"#utility.yul\":2777:2810   */\n      tag_92\n        /* \"#utility.yul\":2804:2809   */\n      dup2\n        /* \"#utility.yul\":2777:2810   */\n      tag_50\n      jump\t// in\n    tag_92:\n        /* \"#utility.yul\":2677:2816   */\n      swap3\n      swap2\n      pop\n      pop\n      jump\t// out\n        /* \"#utility.yul\":2822:3151   */\n    tag_21:\n        /* \"#utility.yul\":2881:2887   */\n      0x00\n        /* \"#utility.yul\":2930:2932   */\n      0x20\n        /* \"#utility.yul\":2918:2927   */\n      dup3\n        /* \"#utility.yul\":2909:2916   */\n      dup5\n        /* \"#utility.yul\":2905:2928   */\n      sub\n        /* \"#utility.yul\":2901:2933   */\n      slt\n        /* \"#utility.yul\":2898:3017   */\n      iszero\n      tag_94\n      jumpi\n        /* \"#utility.yul\":2936:3015   */\n      tag_95\n      tag_43\n      jump\t// in\n    tag_95:\n        /* \"#utility.yul\":2898:3017   */\n    tag_94:\n        /* \"#utility.yul\":3056:3057   */\n      0x00\n        /* \"#utility.yul\":3081:3134   */\n      tag_96\n        /* \"#utility.yul\":3126:3133   */\n      dup5\n        /* \"#utility.yul\":3117:3123   */\n      dup3\n        /* \"#utility.yul\":3106:3115   */\n      dup6\n        /* \"#utility.yul\":3102:3124   */\n      add\n        /* \"#utility.yul\":3081:3134   */\n      tag_51\n      jump\t// in\n    tag_96:\n        /* \"#utility.yul\":3071:3134   */\n      swap2\n      pop\n        /* \"#utility.yul\":3027:3144   */\n      pop\n        /* \"#utility.yul\":2822:3151   */\n      swap3\n      swap2\n      pop\n      pop\n      jump\t// out\n        /* \"#utility.yul\":3157:3275   */\n    tag_52:\n        /* \"#utility.yul\":3244:3268   */\n      tag_98\n        /* \"#utility.yul\":3262:3267   */\n      dup2\n        /* \"#utility.yul\":3244:3268   */\n      tag_45\n      jump\t// in\n    tag_98:\n        /* \"#utility.yul\":3239:3242   */\n      dup3\n        /* \"#utility.yul\":3232:3269   */\n      mstore\n        /* \"#utility.yul\":3157:3275   */\n      pop\n      pop\n      jump\t// out\n        /* \"#utility.yul\":3281:3503   */\n    tag_25:\n        /* \"#utility.yul\":3374:3378   */\n      0x00\n        /* \"#utility.yul\":3412:3414   */\n      0x20\n        /* \"#utility.yul\":3401:3410   */\n      dup3\n        /* \"#utility.yul\":3397:3415   */\n      add\n        /* \"#utility.yul\":3389:3415   */\n      swap1\n      pop\n        /* \"#utility.yul\":3425:3496   */\n      tag_100\n        /* \"#utility.yul\":3493:3494   */\n      0x00\n        /* \"#utility.yul\":3482:3491   */\n      dup4\n        /* \"#utility.yul\":3478:3495   */\n      add\n        /* \"#utility.yul\":3469:3475   */\n      dup5\n        /* \"#utility.yul\":3425:3496   */\n      tag_52\n      jump\t// in\n    tag_100:\n        /* \"#utility.yul\":3281:3503   */\n      swap3\n      swap2\n      pop\n      pop\n      jump\t// out\n        /* \"#utility.yul\":3509:3652   */\n    tag_53:\n        /* \"#utility.yul\":3566:3571   */\n      0x00\n        /* \"#utility.yul\":3597:3603   */\n      dup2\n        /* \"#utility.yul\":3591:3604   */\n      mload\n        /* \"#utility.yul\":3582:3604   */\n      swap1\n      pop\n        /* \"#utility.yul\":3613:3646   */\n      tag_102\n        /* \"#utility.yul\":3640:3645   */\n      dup2\n        /* \"#utility.yul\":3613:3646   */\n      tag_50\n      jump\t// in\n    tag_102:\n        /* \"#utility.yul\":3509:3652   */\n      swap3\n      swap2\n      pop\n      pop\n      jump\t// out\n        /* \"#utility.yul\":3658:4009   */\n    tag_29:\n        /* \"#utility.yul\":3728:3734   */\n      0x00\n        /* \"#utility.yul\":3777:3779   */\n      0x20\n        /* \"#utility.yul\":3765:3774   */\n      dup3\n        /* \"#utility.yul\":3756:3763   */\n      dup5\n        /* \"#utility.yul\":3752:3775   */\n      sub\n        /* \"#utility.yul\":3748:3780   */\n      slt\n        /* \"#utility.yul\":3745:3864   */\n      iszero\n      tag_104\n      jumpi\n        /* \"#utility.yul\":3783:3862   */\n      tag_105\n      tag_43\n      jump\t// in\n    tag_105:\n        /* \"#utility.yul\":3745:3864   */\n    tag_104:\n        /* \"#utility.yul\":3903:3904   */\n      0x00\n        /* \"#utility.yul\":3928:3992   */\n      tag_106\n        /* \"#utility.yul\":3984:3991   */\n      dup5\n        /* \"#utility.yul\":3975:3981   */\n      dup3\n        /* \"#utility.yul\":3964:3973   */\n      dup6\n        /* \"#utility.yul\":3960:3982   */\n      add\n        /* \"#utility.yul\":3928:3992   */\n      tag_53\n      jump\t// in\n    tag_106:\n        /* \"#utility.yul\":3918:3992   */\n      swap2\n      pop\n        /* \"#utility.yul\":3874:4002   */\n      pop\n        /* \"#utility.yul\":3658:4009   */\n      swap3\n      swap2\n      pop\n      pop\n      jump\t// out\n        /* \"#utility.yul\":4015:4347   */\n    tag_32:\n        /* \"#utility.yul\":4136:4140   */\n      0x00\n        /* \"#utility.yul\":4174:4176   */\n      0x40\n        /* \"#utility.yul\":4163:4172   */\n      dup3\n        /* \"#utility.yul\":4159:4177   */\n      add\n        /* \"#utility.yul\":4151:4177   */\n      swap1\n      pop\n        /* \"#utility.yul\":4187:4258   */\n      tag_108\n        /* \"#utility.yul\":4255:4256   */\n      0x00\n        /* \"#utility.yul\":4244:4253   */\n      dup4\n        /* \"#utility.yul\":4240:4257   */\n      add\n        /* \"#utility.yul\":4231:4237   */\n      dup6\n        /* \"#utility.yul\":4187:4258   */\n      tag_52\n      jump\t// in\n    tag_108:\n        /* \"#utility.yul\":4268:4340   */\n      tag_109\n        /* \"#utility.yul\":4336:4338   */\n      0x20\n        /* \"#utility.yul\":4325:4334   */\n      dup4\n        /* \"#utility.yul\":4321:4339   */\n      add\n        /* \"#utility.yul\":4312:4318   */\n      dup5\n        /* \"#utility.yul\":4268:4340   */\n      tag_49\n      jump\t// in\n    tag_109:\n        /* \"#utility.yul\":4015:4347   */\n      swap4\n      swap3\n      pop\n      pop\n      pop\n      jump\t// out\n\n    auxdata: 0xa264697066735822122019431d8acb79fd53b5779773f3dff72a827d2791f582f92c69db799f96b8f8f364736f6c63430008220033\n}\n",
				"bytecode": {
					"linkReferences": {},
					"object": "608060405234801561000f575f5ffd5b5060405161065138038061065183398181016040528101906100319190610142565b5f73ffffffffffffffffffffffffffffffffffffffff168173ffffffffffffffffffffffffffffffffffffffff160361009f576040517f08c379a0000000000000000000000000000000000000000000000000000000008152600401610096906101c7565b60405180910390fd5b805f5f6101000a81548173ffffffffffffffffffffffffffffffffffffffff021916908373ffffffffffffffffffffffffffffffffffffffff160217905550506101e5565b5f5ffd5b5f73ffffffffffffffffffffffffffffffffffffffff82169050919050565b5f610111826100e8565b9050919050565b61012181610107565b811461012b575f5ffd5b50565b5f8151905061013c81610118565b92915050565b5f60208284031215610157576101566100e4565b5b5f6101648482850161012e565b91505092915050565b5f82825260208201905092915050565b7f496e76616c69642062616e6b20616464726573730000000000000000000000005f82015250565b5f6101b160148361016d565b91506101bc8261017d565b602082019050919050565b5f6020820190508181035f8301526101de816101a5565b9050919050565b61045f806101f25f395ff3fe608060405234801561000f575f5ffd5b506004361061004a575f3560e01c806376cdb03b1461004e57806378d205741461006c5780638f1c56bd14610088578063a5627d32146100a6575b5f5ffd5b6100566100c2565b6040516100639190610292565b60405180910390f35b610086600480360381019061008191906102ea565b6100e6565b005b610090610187565b60405161009d919061032d565b60405180910390f35b6100c060048036038101906100bb9190610370565b61018d565b005b5f5f9054906101000a900473ffffffffffffffffffffffffffffffffffffffff1681565b5f5f9054906101000a900473ffffffffffffffffffffffffffffffffffffffff1673ffffffffffffffffffffffffffffffffffffffff1663f8b2cb4f826040518263ffffffff1660e01b815260040161013f91906103aa565b602060405180830381865afa15801561015a573d5f5f3e3d5ffd5b505050506040513d601f19601f8201168201806040525081019061017e91906103d7565b60018190555050565b60015481565b5f5f9054906101000a900473ffffffffffffffffffffffffffffffffffffffff1673ffffffffffffffffffffffffffffffffffffffff166347e7ef2433836040518363ffffffff1660e01b81526004016101e8929190610402565b5f604051808303815f87803b1580156101ff575f5ffd5b505af1158015610211573d5f5f3e3d5ffd5b5050505050565b5f73ffffffffffffffffffffffffffffffffffffffff82169050919050565b5f819050919050565b5f61025a61025561025084610218565b610237565b610218565b9050919050565b5f61026b82610240565b9050919050565b5f61027c82610261565b9050919050565b61028c81610272565b82525050565b5f6020820190506102a55f830184610283565b92915050565b5f5ffd5b5f6102b982610218565b9050919050565b6102c9816102af565b81146102d3575f5ffd5b50565b5f813590506102e4816102c0565b92915050565b5f602082840312156102ff576102fe6102ab565b5b5f61030c848285016102d6565b91505092915050565b5f819050919050565b61032781610315565b82525050565b5f6020820190506103405f83018461031e565b92915050565b61034f81610315565b8114610359575f5ffd5b50565b5f8135905061036a81610346565b92915050565b5f60208284031215610385576103846102ab565b5b5f6103928482850161035c565b91505092915050565b6103a4816102af565b82525050565b5f6020820190506103bd5f83018461039b565b92915050565b5f815190506103d181610346565b92915050565b5f602082840312156103ec576103eb6102ab565b5b5f6103f9848285016103c3565b91505092915050565b5f6040820190506104155f83018561039b565b610422602083018461031e565b939250505056fea264697066735822122019431d8acb79fd53b5779773f3dff72a827d2791f582f92c69db799f96b8f8f364736f6c63430008220033",
					"opcodes": "PUSH1 0x80 PUSH1 0x40 MSTORE CALLVALUE DUP1 ISZERO PUSH2 0xF JUMPI PUSH0 PUSH0 REVERT JUMPDEST POP PUSH1 0x40 MLOAD PUSH2 0x651 CODESIZE SUB DUP1 PUSH2 0x651 DUP4 CODECOPY DUP2 DUP2 ADD PUSH1 0x40 MSTORE DUP2 ADD SWAP1 PUSH2 0x31 SWAP2 SWAP1 PUSH2 0x142 JUMP JUMPDEST PUSH0 PUSH20 0xFFFFFFFFFFFFFFFFFFFFFFFFFFFFFFFFFFFFFFFF AND DUP2 PUSH20 0xFFFFFFFFFFFFFFFFFFFFFFFFFFFFFFFFFFFFFFFF AND SUB PUSH2 0x9F JUMPI PUSH1 0x40 MLOAD PUSH32 0x8C379A000000000000000000000000000000000000000000000000000000000 DUP2 MSTORE PUSH1 0x4 ADD PUSH2 0x96 SWAP1 PUSH2 0x1C7 JUMP JUMPDEST PUSH1 0x40 MLOAD DUP1 SWAP2 SUB SWAP1 REVERT JUMPDEST DUP1 PUSH0 PUSH0 PUSH2 0x100 EXP DUP2 SLOAD DUP2 PUSH20 0xFFFFFFFFFFFFFFFFFFFFFFFFFFFFFFFFFFFFFFFF MUL NOT AND SWAP1 DUP4 PUSH20 0xFFFFFFFFFFFFFFFFFFFFFFFFFFFFFFFFFFFFFFFF AND MUL OR SWAP1 SSTORE POP POP PUSH2 0x1E5 JUMP JUMPDEST PUSH0 PUSH0 REVERT JUMPDEST PUSH0 PUSH20 0xFFFFFFFFFFFFFFFFFFFFFFFFFFFFFFFFFFFFFFFF DUP3 AND SWAP1 POP SWAP2 SWAP1 POP JUMP JUMPDEST PUSH0 PUSH2 0x111 DUP3 PUSH2 0xE8 JUMP JUMPDEST SWAP1 POP SWAP2 SWAP1 POP JUMP JUMPDEST PUSH2 0x121 DUP2 PUSH2 0x107 JUMP JUMPDEST DUP2 EQ PUSH2 0x12B JUMPI PUSH0 PUSH0 REVERT JUMPDEST POP JUMP JUMPDEST PUSH0 DUP2 MLOAD SWAP1 POP PUSH2 0x13C DUP2 PUSH2 0x118 JUMP JUMPDEST SWAP3 SWAP2 POP POP JUMP JUMPDEST PUSH0 PUSH1 0x20 DUP3 DUP5 SUB SLT ISZERO PUSH2 0x157 JUMPI PUSH2 0x156 PUSH2 0xE4 JUMP JUMPDEST JUMPDEST PUSH0 PUSH2 0x164 DUP5 DUP3 DUP6 ADD PUSH2 0x12E JUMP JUMPDEST SWAP2 POP POP SWAP3 SWAP2 POP POP JUMP JUMPDEST PUSH0 DUP3 DUP3 MSTORE PUSH1 0x20 DUP3 ADD SWAP1 POP SWAP3 SWAP2 POP POP JUMP JUMPDEST PUSH32 0x496E76616C69642062616E6B2061646472657373000000000000000000000000 PUSH0 DUP3 ADD MSTORE POP JUMP JUMPDEST PUSH0 PUSH2 0x1B1 PUSH1 0x14 DUP4 PUSH2 0x16D JUMP JUMPDEST SWAP2 POP PUSH2 0x1BC DUP3 PUSH2 0x17D JUMP JUMPDEST PUSH1 0x20 DUP3 ADD SWAP1 POP SWAP2 SWAP1 POP JUMP JUMPDEST PUSH0 PUSH1 0x20 DUP3 ADD SWAP1 POP DUP2 DUP2 SUB PUSH0 DUP4 ADD MSTORE PUSH2 0x1DE DUP2 PUSH2 0x1A5 JUMP JUMPDEST SWAP1 POP SWAP2 SWAP1 POP JUMP JUMPDEST PUSH2 0x45F DUP1 PUSH2 0x1F2 PUSH0 CODECOPY PUSH0 RETURN INVALID PUSH1 0x80 PUSH1 0x40 MSTORE CALLVALUE DUP1 ISZERO PUSH2 0xF JUMPI PUSH0 PUSH0 REVERT JUMPDEST POP PUSH1 0x4 CALLDATASIZE LT PUSH2 0x4A JUMPI PUSH0 CALLDATALOAD PUSH1 0xE0 SHR DUP1 PUSH4 0x76CDB03B EQ PUSH2 0x4E JUMPI DUP1 PUSH4 0x78D20574 EQ PUSH2 0x6C JUMPI DUP1 PUSH4 0x8F1C56BD EQ PUSH2 0x88 JUMPI DUP1 PUSH4 0xA5627D32 EQ PUSH2 0xA6 JUMPI JUMPDEST PUSH0 PUSH0 REVERT JUMPDEST PUSH2 0x56 PUSH2 0xC2 JUMP JUMPDEST PUSH1 0x40 MLOAD PUSH2 0x63 SWAP2 SWAP1 PUSH2 0x292 JUMP JUMPDEST PUSH1 0x40 MLOAD DUP1 SWAP2 SUB SWAP1 RETURN JUMPDEST PUSH2 0x86 PUSH1 0x4 DUP1 CALLDATASIZE SUB DUP2 ADD SWAP1 PUSH2 0x81 SWAP2 SWAP1 PUSH2 0x2EA JUMP JUMPDEST PUSH2 0xE6 JUMP JUMPDEST STOP JUMPDEST PUSH2 0x90 PUSH2 0x187 JUMP JUMPDEST PUSH1 0x40 MLOAD PUSH2 0x9D SWAP2 SWAP1 PUSH2 0x32D JUMP JUMPDEST PUSH1 0x40 MLOAD DUP1 SWAP2 SUB SWAP1 RETURN JUMPDEST PUSH2 0xC0 PUSH1 0x4 DUP1 CALLDATASIZE SUB DUP2 ADD SWAP1 PUSH2 0xBB SWAP2 SWAP1 PUSH2 0x370 JUMP JUMPDEST PUSH2 0x18D JUMP JUMPDEST STOP JUMPDEST PUSH0 PUSH0 SWAP1 SLOAD SWAP1 PUSH2 0x100 EXP SWAP1 DIV PUSH20 0xFFFFFFFFFFFFFFFFFFFFFFFFFFFFFFFFFFFFFFFF AND DUP2 JUMP JUMPDEST PUSH0 PUSH0 SWAP1 SLOAD SWAP1 PUSH2 0x100 EXP SWAP1 DIV PUSH20 0xFFFFFFFFFFFFFFFFFFFFFFFFFFFFFFFFFFFFFFFF AND PUSH20 0xFFFFFFFFFFFFFFFFFFFFFFFFFFFFFFFFFFFFFFFF AND PUSH4 0xF8B2CB4F DUP3 PUSH1 0x40 MLOAD DUP3 PUSH4 0xFFFFFFFF AND PUSH1 0xE0 SHL DUP2 MSTORE PUSH1 0x4 ADD PUSH2 0x13F SWAP2 SWAP1 PUSH2 0x3AA JUMP JUMPDEST PUSH1 0x20 PUSH1 0x40 MLOAD DUP1 DUP4 SUB DUP2 DUP7 GAS STATICCALL ISZERO DUP1 ISZERO PUSH2 0x15A JUMPI RETURNDATASIZE PUSH0 PUSH0 RETURNDATACOPY RETURNDATASIZE PUSH0 REVERT JUMPDEST POP POP POP POP PUSH1 0x40 MLOAD RETURNDATASIZE PUSH1 0x1F NOT PUSH1 0x1F DUP3 ADD AND DUP3 ADD DUP1 PUSH1 0x40 MSTORE POP DUP2 ADD SWAP1 PUSH2 0x17E SWAP2 SWAP1 PUSH2 0x3D7 JUMP JUMPDEST PUSH1 0x1 DUP2 SWAP1 SSTORE POP POP JUMP JUMPDEST PUSH1 0x1 SLOAD DUP2 JUMP JUMPDEST PUSH0 PUSH0 SWAP1 SLOAD SWAP1 PUSH2 0x100 EXP SWAP1 DIV PUSH20 0xFFFFFFFFFFFFFFFFFFFFFFFFFFFFFFFFFFFFFFFF AND PUSH20 0xFFFFFFFFFFFFFFFFFFFFFFFFFFFFFFFFFFFFFFFF AND PUSH4 0x47E7EF24 CALLER DUP4 PUSH1 0x40 MLOAD DUP4 PUSH4 0xFFFFFFFF AND PUSH1 0xE0 SHL DUP2 MSTORE PUSH1 0x4 ADD PUSH2 0x1E8 SWAP3 SWAP2 SWAP1 PUSH2 0x402 JUMP JUMPDEST PUSH0 PUSH1 0x40 MLOAD DUP1 DUP4 SUB DUP2 PUSH0 DUP8 DUP1 EXTCODESIZE ISZERO DUP1 ISZERO PUSH2 0x1FF JUMPI PUSH0 PUSH0 REVERT JUMPDEST POP GAS CALL ISZERO DUP1 ISZERO PUSH2 0x211 JUMPI RETURNDATASIZE PUSH0 PUSH0 RETURNDATACOPY RETURNDATASIZE PUSH0 REVERT JUMPDEST POP POP POP POP POP JUMP JUMPDEST PUSH0 PUSH20 0xFFFFFFFFFFFFFFFFFFFFFFFFFFFFFFFFFFFFFFFF DUP3 AND SWAP1 POP SWAP2 SWAP1 POP JUMP JUMPDEST PUSH0 DUP2 SWAP1 POP SWAP2 SWAP1 POP JUMP JUMPDEST PUSH0 PUSH2 0x25A PUSH2 0x255 PUSH2 0x250 DUP5 PUSH2 0x218 JUMP JUMPDEST PUSH2 0x237 JUMP JUMPDEST PUSH2 0x218 JUMP JUMPDEST SWAP1 POP SWAP2 SWAP1 POP JUMP JUMPDEST PUSH0 PUSH2 0x26B DUP3 PUSH2 0x240 JUMP JUMPDEST SWAP1 POP SWAP2 SWAP1 POP JUMP JUMPDEST PUSH0 PUSH2 0x27C DUP3 PUSH2 0x261 JUMP JUMPDEST SWAP1 POP SWAP2 SWAP1 POP JUMP JUMPDEST PUSH2 0x28C DUP2 PUSH2 0x272 JUMP JUMPDEST DUP3 MSTORE POP POP JUMP JUMPDEST PUSH0 PUSH1 0x20 DUP3 ADD SWAP1 POP PUSH2 0x2A5 PUSH0 DUP4 ADD DUP5 PUSH2 0x283 JUMP JUMPDEST SWAP3 SWAP2 POP POP JUMP JUMPDEST PUSH0 PUSH0 REVERT JUMPDEST PUSH0 PUSH2 0x2B9 DUP3 PUSH2 0x218 JUMP JUMPDEST SWAP1 POP SWAP2 SWAP1 POP JUMP JUMPDEST PUSH2 0x2C9 DUP2 PUSH2 0x2AF JUMP JUMPDEST DUP2 EQ PUSH2 0x2D3 JUMPI PUSH0 PUSH0 REVERT JUMPDEST POP JUMP JUMPDEST PUSH0 DUP2 CALLDATALOAD SWAP1 POP PUSH2 0x2E4 DUP2 PUSH2 0x2C0 JUMP JUMPDEST SWAP3 SWAP2 POP POP JUMP JUMPDEST PUSH0 PUSH1 0x20 DUP3 DUP5 SUB SLT ISZERO PUSH2 0x2FF JUMPI PUSH2 0x2FE PUSH2 0x2AB JUMP JUMPDEST JUMPDEST PUSH0 PUSH2 0x30C DUP5 DUP3 DUP6 ADD PUSH2 0x2D6 JUMP JUMPDEST SWAP2 POP POP SWAP3 SWAP2 POP POP JUMP JUMPDEST PUSH0 DUP2 SWAP1 POP SWAP2 SWAP1 POP JUMP JUMPDEST PUSH2 0x327 DUP2 PUSH2 0x315 JUMP JUMPDEST DUP3 MSTORE POP POP JUMP JUMPDEST PUSH0 PUSH1 0x20 DUP3 ADD SWAP1 POP PUSH2 0x340 PUSH0 DUP4 ADD DUP5 PUSH2 0x31E JUMP JUMPDEST SWAP3 SWAP2 POP POP JUMP JUMPDEST PUSH2 0x34F DUP2 PUSH2 0x315 JUMP JUMPDEST DUP2 EQ PUSH2 0x359 JUMPI PUSH0 PUSH0 REVERT JUMPDEST POP JUMP JUMPDEST PUSH0 DUP2 CALLDATALOAD SWAP1 POP PUSH2 0x36A DUP2 PUSH2 0x346 JUMP JUMPDEST SWAP3 SWAP2 POP POP JUMP JUMPDEST PUSH0 PUSH1 0x20 DUP3 DUP5 SUB SLT ISZERO PUSH2 0x385 JUMPI PUSH2 0x384 PUSH2 0x2AB JUMP JUMPDEST JUMPDEST PUSH0 PUSH2 0x392 DUP5 DUP3 DUP6 ADD PUSH2 0x35C JUMP JUMPDEST SWAP2 POP POP SWAP3 SWAP2 POP POP JUMP JUMPDEST PUSH2 0x3A4 DUP2 PUSH2 0x2AF JUMP JUMPDEST DUP3 MSTORE POP POP JUMP JUMPDEST PUSH0 PUSH1 0x20 DUP3 ADD SWAP1 POP PUSH2 0x3BD PUSH0 DUP4 ADD DUP5 PUSH2 0x39B JUMP JUMPDEST SWAP3 SWAP2 POP POP JUMP JUMPDEST PUSH0 DUP2 MLOAD SWAP1 POP PUSH2 0x3D1 DUP2 PUSH2 0x346 JUMP JUMPDEST SWAP3 SWAP2 POP POP JUMP JUMPDEST PUSH0 PUSH1 0x20 DUP3 DUP5 SUB SLT ISZERO PUSH2 0x3EC JUMPI PUSH2 0x3EB PUSH2 0x2AB JUMP JUMPDEST JUMPDEST PUSH0 PUSH2 0x3F9 DUP5 DUP3 DUP6 ADD PUSH2 0x3C3 JUMP JUMPDEST SWAP2 POP POP SWAP3 SWAP2 POP POP JUMP JUMPDEST PUSH0 PUSH1 0x40 DUP3 ADD SWAP1 POP PUSH2 0x415 PUSH0 DUP4 ADD DUP6 PUSH2 0x39B JUMP JUMPDEST PUSH2 0x422 PUSH1 0x20 DUP4 ADD DUP5 PUSH2 0x31E JUMP JUMPDEST SWAP4 SWAP3 POP POP POP JUMP INVALID LOG2 PUSH5 0x6970667358 0x22 SLT KECCAK256 NOT NUMBER SAR DUP11 0xCB PUSH26 0xFD53B5779773F3DFF72A827D2791F582F92C69DB799F96B8F8F3 PUSH5 0x736F6C6343 STOP ADDMOD 0x22 STOP CALLER "
				},
				"gasEstimates": {
					"creation": {
						"codeDepositCost": "223800",
						"executionCost": "infinite",
						"totalCost": "infinite"
					},
					"external": {
						"bank()": "infinite",
						"callDeposit(uint256)": "infinite",
						"lastBalance()": "2447",
						"readBalance(address)": "infinite"
					}
				},
				"methodIdentifiers": {
					"bank()": "76cdb03b",
					"callDeposit(uint256)": "a5627d32",
					"lastBalance()": "8f1c56bd",
					"readBalance(address)": "78d20574"
				}
			},
			"storageLayout": {
				"storage": [
					{
						"astId": 133,
						"contract": "prac51.sol:InterContractCallerPatched",
						"label": "bank",
						"offset": 0,
						"slot": "0",
						"type": "t_contract(BankPatched)130"
					},
					{
						"astId": 135,
						"contract": "prac51.sol:InterContractCallerPatched",
						"label": "lastBalance",
						"offset": 0,
						"slot": "1",
						"type": "t_uint256"
					}
				],
				"types": {
					"t_contract(BankPatched)130": {
						"encoding": "inplace",
						"label": "contract BankPatched",
						"numberOfBytes": "20"
					},
					"t_uint256": {
						"encoding": "inplace",
						"label": "uint256",
						"numberOfBytes": "32"
					}
				}
			},
			"userdoc": {
				"kind": "user",
				"methods": {},
				"version": 1
			}
		}
	}
}