{
	"prac30.sol": {
		"CalldataVsMemory": {
			"abi": [
				{
					"inputs": [],
					"name": "MAX_ARRAY_SIZE",
					"outputs": [
						{
							"internalType": "uint256",
							"name": "",
							"type": "uint256"
						}
					],
					"stateMutability": "view",
					"type": "function"
				},
				{
					"inputs": [
						{
							"internalType": "uint256[]",
							"name": "_numbers",
							"type": "uint256[]"
						}
					],
					"name": "modifyMemory",
					"outputs": [
						{
							"internalType": "uint256[]",
							"name": "",
							"type": "uint256[]"
						}
					],
					"stateMutability": "pure",
					"type": "function"
				},
				{
					"inputs": [
						{
							"internalType": "uint256[]",
							"name": "_numbers",
							"type": "uint256[]"
						}
					],
					"name": "saveValues",
					"outputs": [],
					"stateMutability": "nonpayable",
					"type": "function"
				},
				{
					"inputs": [
						{
							"internalType": "uint256",
							"name": "",
							"type": "uint256"
						}
					],
					"name": "storedValues",
					"outputs": [
						{
							"internalType": "uint256",
							"name": "",
							"type": "uint256"
						}
					],
					"stateMutability": "view",
					"type": "function"
				},
				{
					"inputs": [
						{
							"internalType": "uint256[]",
							"name": "_numbers",
							"type": "uint256[]"
						}
					],
					"name": "useCalldata",
					"outputs": [
						{
							"internalType": "uint256",
							"name": "",
							"type": "uint256"
						}
					],
					"stateMutability": "pure",
					"type": "function"
				},
				{
					"inputs": [
						{
							"internalType": "uint256[]",
							"name": "_numbers",
							"type": "uint256[]"
						}
					],
					"name": "useMemory",
					"outputs": [
						{
							"internalType": "uint256",
							"name": "",
							"type": "uint256"
						}
					],
					"stateMutability": "pure",
					"type": "function"
				}
			],
			"devdoc": {
				"kind": "dev",
				"methods": {},
				"version": 1
			},
			"evm": {
				"assembly": "    /* \"prac30.sol\":11569:13048  contract CalldataVsMemory{... */\n  mstore(0x40, 0x80)\n  callvalue\n  dup1\n  iszero\n  tag_1\n  jumpi\n  revert(0x00, 0x00)\ntag_1:\n  pop\n  dataSize(sub_0)\n  dup1\n  dataOffset(sub_0)\n  0x00\n  codecopy\n  0x00\n  return\nstop\n\nsub_0: assembly {\n        /* \"prac30.sol\":11569:13048  contract CalldataVsMemory{... */\n      mstore(0x40, 0x80)\n      callvalue\n      dup1\n      iszero\n      tag_1\n      jumpi\n      revert(0x00, 0x00)\n    tag_1:\n      pop\n      jumpi(tag_2, lt(calldatasize, 0x04))\n      shr(0xe0, calldataload(0x00))\n      dup1\n      0x662ef05b\n      eq\n      tag_3\n      jumpi\n      dup1\n      0x9e258efe\n      eq\n      tag_4\n      jumpi\n      dup1\n      0xaf7efa7c\n      eq\n      tag_5\n      jumpi\n      dup1\n      0xc92fa517\n      eq\n      tag_6\n      jumpi\n      dup1\n      0xe33c702f\n      eq\n      tag_7\n      jumpi\n      dup1\n      0xe4f7d551\n      eq\n      tag_8\n      jumpi\n    tag_2:\n      revert(0x00, 0x00)\n        /* \"prac30.sol\":12296:12717  function modifyMemory(... */\n    tag_3:\n      tag_9\n      0x04\n      dup1\n      calldatasize\n      sub\n      dup2\n      add\n      swap1\n      tag_10\n      swap2\n      swap1\n      tag_11\n      jump\t// in\n    tag_10:\n      tag_12\n      jump\t// in\n    tag_9:\n      mload(0x40)\n      tag_13\n      swap2\n      swap1\n      tag_14\n      jump\t// in\n    tag_13:\n      mload(0x40)\n      dup1\n      swap2\n      sub\n      swap1\n      return\n        /* \"prac30.sol\":11603:11632  uint256[] public storedValues */\n    tag_4:\n      tag_15\n      0x04\n      dup1\n      calldatasize\n      sub\n      dup2\n      add\n      swap1\n      tag_16\n      swap2\n      swap1\n      tag_17\n      jump\t// in\n    tag_16:\n      tag_18\n      jump\t// in\n    tag_15:\n      mload(0x40)\n      tag_19\n      swap2\n      swap1\n      tag_20\n      jump\t// in\n    tag_19:\n      mload(0x40)\n      dup1\n      swap2\n      sub\n      swap1\n      return\n        /* \"prac30.sol\":11641:11685  uint256 public constant MAX_ARRAY_SIZE = 100 */\n    tag_5:\n      tag_21\n      tag_22\n      jump\t// in\n    tag_21:\n      mload(0x40)\n      tag_23\n      swap2\n      swap1\n      tag_20\n      jump\t// in\n    tag_23:\n      mload(0x40)\n      dup1\n      swap2\n      sub\n      swap1\n      return\n        /* \"prac30.sol\":11694:11990  function useCalldata(... */\n    tag_6:\n      tag_24\n      0x04\n      dup1\n      calldatasize\n      sub\n      dup2\n      add\n      swap1\n      tag_25\n      swap2\n      swap1\n      tag_11\n      jump\t// in\n    tag_25:\n      tag_26\n      jump\t// in\n    tag_24:\n      mload(0x40)\n      tag_27\n      swap2\n      swap1\n      tag_20\n      jump\t// in\n    tag_27:\n      mload(0x40)\n      dup1\n      swap2\n      sub\n      swap1\n      return\n        /* \"prac30.sol\":11998:12288  function useMemory(... */\n    tag_7:\n      tag_28\n      0x04\n      dup1\n      calldatasize\n      sub\n      dup2\n      add\n      swap1\n      tag_29\n      swap2\n      swap1\n      tag_30\n      jump\t// in\n    tag_29:\n      tag_31\n      jump\t// in\n    tag_28:\n      mload(0x40)\n      tag_32\n      swap2\n      swap1\n      tag_20\n      jump\t// in\n    tag_32:\n      mload(0x40)\n      dup1\n      swap2\n      sub\n      swap1\n      return\n        /* \"prac30.sol\":12725:13045  function saveValues(... */\n    tag_8:\n      tag_33\n      0x04\n      dup1\n      calldatasize\n      sub\n      dup2\n      add\n      swap1\n      tag_34\n      swap2\n      swap1\n      tag_11\n      jump\t// in\n    tag_34:\n      tag_35\n      jump\t// in\n    tag_33:\n      stop\n        /* \"prac30.sol\":12296:12717  function modifyMemory(... */\n    tag_12:\n        /* \"prac30.sol\":12413:12429  uint256[] memory */\n      0x60\n        /* \"prac30.sol\":12473:12474  0 */\n      0x00\n        /* \"prac30.sol\":12455:12463  _numbers */\n      dup4\n      dup4\n        /* \"prac30.sol\":12455:12470  _numbers.length */\n      swap1\n      pop\n        /* \"prac30.sol\":12455:12474  _numbers.length > 0 */\n      gt\n        /* \"prac30.sol\":12447:12490  require(_numbers.length > 0, \"Empty array\") */\n      tag_37\n      jumpi\n      mload(0x40)\n      0x08c379a000000000000000000000000000000000000000000000000000000000\n      dup2\n      mstore\n      0x04\n      add\n      tag_38\n      swap1\n      tag_39\n      jump\t// in\n    tag_38:\n      mload(0x40)\n      dup1\n      swap2\n      sub\n      swap1\n      revert\n    tag_37:\n        /* \"prac30.sol\":11682:11685  100 */\n      0x64\n        /* \"prac30.sol\":12523:12531  _numbers */\n      dup4\n      dup4\n        /* \"prac30.sol\":12523:12538  _numbers.length */\n      swap1\n      pop\n        /* \"prac30.sol\":12523:12556  _numbers.length <= MAX_ARRAY_SIZE */\n      gt\n      iszero\n        /* \"prac30.sol\":12501:12599  require(... */\n      tag_40\n      jumpi\n      mload(0x40)\n      0x08c379a000000000000000000000000000000000000000000000000000000000\n      dup2\n      mstore\n      0x04\n      add\n      tag_41\n      swap1\n      tag_42\n      jump\t// in\n    tag_41:\n      mload(0x40)\n      dup1\n      swap2\n      sub\n      swap1\n      revert\n    tag_40:\n        /* \"prac30.sol\":12612:12638  uint256[] memory tempArray */\n      0x00\n        /* \"prac30.sol\":12641:12649  _numbers */\n      dup4\n      dup4\n        /* \"prac30.sol\":12612:12649  uint256[] memory tempArray = _numbers */\n      dup1\n      dup1\n      0x20\n      mul\n      0x20\n      add\n      mload(0x40)\n      swap1\n      dup2\n      add\n      0x40\n      mstore\n      dup1\n      swap4\n      swap3\n      swap2\n      swap1\n      dup2\n      dup2\n      mstore\n      0x20\n      add\n      dup4\n      dup4\n      0x20\n      mul\n      dup1\n      dup3\n      dup5\n      calldatacopy\n      0x00\n      dup2\n      dup5\n      add\n      mstore\n      not(0x1f)\n      0x1f\n      dup3\n      add\n      and\n      swap1\n      pop\n      dup1\n      dup4\n      add\n      swap3\n      pop\n      pop\n      pop\n      pop\n      pop\n      pop\n      pop\n      swap1\n      pop\n        /* \"prac30.sol\":12677:12680  999 */\n      0x03e7\n        /* \"prac30.sol\":12662:12671  tempArray */\n      dup2\n        /* \"prac30.sol\":12672:12673  0 */\n      0x00\n        /* \"prac30.sol\":12662:12674  tempArray[0] */\n      dup2\n      mload\n      dup2\n      lt\n      tag_43\n      jumpi\n      tag_44\n      tag_45\n      jump\t// in\n    tag_44:\n    tag_43:\n      0x20\n      mul\n      0x20\n      add\n      add\n        /* \"prac30.sol\":12662:12680  tempArray[0] = 999 */\n      dup2\n      dup2\n      mstore\n      pop\n      pop\n        /* \"prac30.sol\":12700:12709  tempArray */\n      dup1\n        /* \"prac30.sol\":12693:12709  return tempArray */\n      swap2\n      pop\n      pop\n        /* \"prac30.sol\":12296:12717  function modifyMemory(... */\n      swap3\n      swap2\n      pop\n      pop\n      jump\t// out\n        /* \"prac30.sol\":11603:11632  uint256[] public storedValues */\n    tag_18:\n      0x00\n      dup2\n      dup2\n      sload\n      dup2\n      lt\n      tag_46\n      jumpi\n      0x00\n      dup1\n      revert\n    tag_46:\n      swap1\n      0x00\n      mstore\n      keccak256(0x00, 0x20)\n      add\n      0x00\n      swap2\n      pop\n      swap1\n      pop\n      sload\n      dup2\n      jump\t// out\n        /* \"prac30.sol\":11641:11685  uint256 public constant MAX_ARRAY_SIZE = 100 */\n    tag_22:\n        /* \"prac30.sol\":11682:11685  100 */\n      0x64\n        /* \"prac30.sol\":11641:11685  uint256 public constant MAX_ARRAY_SIZE = 100 */\n      dup2\n      jump\t// out\n        /* \"prac30.sol\":11694:11990  function useCalldata(... */\n    tag_26:\n        /* \"prac30.sol\":11810:11817  uint256 */\n      0x00\n        /* \"prac30.sol\":11835:11848  uint256 total */\n      0x00\n        /* \"prac30.sol\":11851:11852  0 */\n      0x00\n        /* \"prac30.sol\":11835:11852  uint256 total = 0 */\n      swap1\n      pop\n        /* \"prac30.sol\":11870:11879  uint256 i */\n      0x00\n        /* \"prac30.sol\":11882:11883  0 */\n      0x00\n        /* \"prac30.sol\":11870:11883  uint256 i = 0 */\n      swap1\n      pop\n        /* \"prac30.sol\":11865:11958  for (uint256 i = 0; i < _numbers.length; i++) {... */\n    tag_49:\n        /* \"prac30.sol\":11889:11897  _numbers */\n      dup5\n      dup5\n        /* \"prac30.sol\":11889:11904  _numbers.length */\n      swap1\n      pop\n        /* \"prac30.sol\":11885:11886  i */\n      dup2\n        /* \"prac30.sol\":11885:11904  i < _numbers.length */\n      lt\n        /* \"prac30.sol\":11865:11958  for (uint256 i = 0; i < _numbers.length; i++) {... */\n      iszero\n      tag_50\n      jumpi\n        /* \"prac30.sol\":11935:11943  _numbers */\n      dup5\n      dup5\n        /* \"prac30.sol\":11944:11945  i */\n      dup3\n        /* \"prac30.sol\":11935:11946  _numbers[i] */\n      dup2\n      dup2\n      lt\n      tag_52\n      jumpi\n      tag_53\n      tag_45\n      jump\t// in\n    tag_53:\n    tag_52:\n      swap1\n      pop\n      0x20\n      mul\n      add\n      calldataload\n        /* \"prac30.sol\":11926:11946  total += _numbers[i] */\n      dup3\n      tag_54\n      swap2\n      swap1\n      tag_55\n      jump\t// in\n    tag_54:\n      swap2\n      pop\n        /* \"prac30.sol\":11906:11909  i++ */\n      dup1\n      dup1\n      0x01\n      add\n      swap2\n      pop\n      pop\n        /* \"prac30.sol\":11865:11958  for (uint256 i = 0; i < _numbers.length; i++) {... */\n      jump(tag_49)\n    tag_50:\n      pop\n        /* \"prac30.sol\":11977:11982  total */\n      dup1\n        /* \"prac30.sol\":11970:11982  return total */\n      swap2\n      pop\n      pop\n        /* \"prac30.sol\":11694:11990  function useCalldata(... */\n      swap3\n      swap2\n      pop\n      pop\n      jump\t// out\n        /* \"prac30.sol\":11998:12288  function useMemory(... */\n    tag_31:\n        /* \"prac30.sol\":12108:12115  uint256 */\n      0x00\n        /* \"prac30.sol\":12133:12146  uint256 total */\n      0x00\n        /* \"prac30.sol\":12149:12150  0 */\n      0x00\n        /* \"prac30.sol\":12133:12150  uint256 total = 0 */\n      swap1\n      pop\n        /* \"prac30.sol\":12168:12177  uint256 i */\n      0x00\n        /* \"prac30.sol\":12180:12181  0 */\n      0x00\n        /* \"prac30.sol\":12168:12181  uint256 i = 0 */\n      swap1\n      pop\n        /* \"prac30.sol\":12163:12256  for (uint256 i = 0; i < _numbers.length; i++) {... */\n    tag_57:\n        /* \"prac30.sol\":12187:12195  _numbers */\n      dup4\n        /* \"prac30.sol\":12187:12202  _numbers.length */\n      mload\n        /* \"prac30.sol\":12183:12184  i */\n      dup2\n        /* \"prac30.sol\":12183:12202  i < _numbers.length */\n      lt\n        /* \"prac30.sol\":12163:12256  for (uint256 i = 0; i < _numbers.length; i++) {... */\n      iszero\n      tag_58\n      jumpi\n        /* \"prac30.sol\":12233:12241  _numbers */\n      dup4\n        /* \"prac30.sol\":12242:12243  i */\n      dup2\n        /* \"prac30.sol\":12233:12244  _numbers[i] */\n      dup2\n      mload\n      dup2\n      lt\n      tag_60\n      jumpi\n      tag_61\n      tag_45\n      jump\t// in\n    tag_61:\n    tag_60:\n      0x20\n      mul\n      0x20\n      add\n      add\n      mload\n        /* \"prac30.sol\":12224:12244  total += _numbers[i] */\n      dup3\n      tag_62\n      swap2\n      swap1\n      tag_55\n      jump\t// in\n    tag_62:\n      swap2\n      pop\n        /* \"prac30.sol\":12204:12207  i++ */\n      dup1\n      dup1\n      0x01\n      add\n      swap2\n      pop\n      pop\n        /* \"prac30.sol\":12163:12256  for (uint256 i = 0; i < _numbers.length; i++) {... */\n      jump(tag_57)\n    tag_58:\n      pop\n        /* \"prac30.sol\":12275:12280  total */\n      dup1\n        /* \"prac30.sol\":12268:12280  return total */\n      swap2\n      pop\n      pop\n        /* \"prac30.sol\":11998:12288  function useMemory(... */\n      swap2\n      swap1\n      pop\n      jump\t// out\n        /* \"prac30.sol\":12725:13045  function saveValues(... */\n    tag_35:\n        /* \"prac30.sol\":11682:11685  100 */\n      0x64\n        /* \"prac30.sol\":12846:12854  _numbers */\n      dup3\n      dup3\n        /* \"prac30.sol\":12846:12861  _numbers.length */\n      swap1\n      pop\n        /* \"prac30.sol\":12846:12879  _numbers.length <= MAX_ARRAY_SIZE */\n      gt\n      iszero\n        /* \"prac30.sol\":12824:12922  require(... */\n      tag_64\n      jumpi\n      mload(0x40)\n      0x08c379a000000000000000000000000000000000000000000000000000000000\n      dup2\n      mstore\n      0x04\n      add\n      tag_65\n      swap1\n      tag_42\n      jump\t// in\n    tag_65:\n      mload(0x40)\n      dup1\n      swap2\n      sub\n      swap1\n      revert\n    tag_64:\n        /* \"prac30.sol\":12940:12949  uint256 i */\n      0x00\n        /* \"prac30.sol\":12952:12953  0 */\n      0x00\n        /* \"prac30.sol\":12940:12953  uint256 i = 0 */\n      swap1\n      pop\n        /* \"prac30.sol\":12935:13038  for (uint256 i = 0; i < _numbers.length; i++) {... */\n    tag_66:\n        /* \"prac30.sol\":12959:12967  _numbers */\n      dup3\n      dup3\n        /* \"prac30.sol\":12959:12974  _numbers.length */\n      swap1\n      pop\n        /* \"prac30.sol\":12955:12956  i */\n      dup2\n        /* \"prac30.sol\":12955:12974  i < _numbers.length */\n      lt\n        /* \"prac30.sol\":12935:13038  for (uint256 i = 0; i < _numbers.length; i++) {... */\n      iszero\n      tag_67\n      jumpi\n        /* \"prac30.sol\":12996:13008  storedValues */\n      0x00\n        /* \"prac30.sol\":13014:13022  _numbers */\n      dup4\n      dup4\n        /* \"prac30.sol\":13023:13024  i */\n      dup4\n        /* \"prac30.sol\":13014:13025  _numbers[i] */\n      dup2\n      dup2\n      lt\n      tag_69\n      jumpi\n      tag_70\n      tag_45\n      jump\t// in\n    tag_70:\n    tag_69:\n      swap1\n      pop\n      0x20\n      mul\n      add\n      calldataload\n        /* \"prac30.sol\":12996:13026  storedValues.push(_numbers[i]) */\n      swap1\n      dup1\n      0x01\n      dup2\n      sload\n      add\n      dup1\n      dup3\n      sstore\n      dup1\n      swap2\n      pop\n      pop\n      0x01\n      swap1\n      sub\n      swap1\n      0x00\n      mstore\n      keccak256(0x00, 0x20)\n      add\n      0x00\n      swap1\n      swap2\n      swap1\n      swap2\n      swap1\n      swap2\n      pop\n      sstore\n        /* \"prac30.sol\":12976:12979  i++ */\n      dup1\n      dup1\n      0x01\n      add\n      swap2\n      pop\n      pop\n        /* \"prac30.sol\":12935:13038  for (uint256 i = 0; i < _numbers.length; i++) {... */\n      jump(tag_66)\n    tag_67:\n      pop\n        /* \"prac30.sol\":12725:13045  function saveValues(... */\n      pop\n      pop\n      jump\t// out\n        /* \"#utility.yul\":7:82   */\n    tag_72:\n        /* \"#utility.yul\":40:46   */\n      0x00\n        /* \"#utility.yul\":73:75   */\n      0x40\n        /* \"#utility.yul\":67:76   */\n      mload\n        /* \"#utility.yul\":57:76   */\n      swap1\n      pop\n        /* \"#utility.yul\":7:82   */\n      swap1\n      jump\t// out\n        /* \"#utility.yul\":88:205   */\n    tag_73:\n        /* \"#utility.yul\":197:198   */\n      0x00\n        /* \"#utility.yul\":194:195   */\n      0x00\n        /* \"#utility.yul\":187:199   */\n      revert\n        /* \"#utility.yul\":211:328   */\n    tag_74:\n        /* \"#utility.yul\":320:321   */\n      0x00\n        /* \"#utility.yul\":317:318   */\n      0x00\n        /* \"#utility.yul\":310:322   */\n      revert\n        /* \"#utility.yul\":334:451   */\n    tag_75:\n        /* \"#utility.yul\":443:444   */\n      0x00\n        /* \"#utility.yul\":440:441   */\n      0x00\n        /* \"#utility.yul\":433:445   */\n      revert\n        /* \"#utility.yul\":457:574   */\n    tag_76:\n        /* \"#utility.yul\":566:567   */\n      0x00\n        /* \"#utility.yul\":563:564   */\n      0x00\n        /* \"#utility.yul\":556:568   */\n      revert\n        /* \"#utility.yul\":580:697   */\n    tag_77:\n        /* \"#utility.yul\":689:690   */\n      0x00\n        /* \"#utility.yul\":686:687   */\n      0x00\n        /* \"#utility.yul\":679:691   */\n      revert\n        /* \"#utility.yul\":720:1288   */\n    tag_78:\n        /* \"#utility.yul\":793:801   */\n      0x00\n        /* \"#utility.yul\":803:809   */\n      0x00\n        /* \"#utility.yul\":853:856   */\n      dup4\n        /* \"#utility.yul\":846:850   */\n      0x1f\n        /* \"#utility.yul\":838:844   */\n      dup5\n        /* \"#utility.yul\":834:851   */\n      add\n        /* \"#utility.yul\":830:857   */\n      slt\n        /* \"#utility.yul\":820:942   */\n      tag_111\n      jumpi\n        /* \"#utility.yul\":861:940   */\n      tag_112\n      tag_75\n      jump\t// in\n    tag_112:\n        /* \"#utility.yul\":820:942   */\n    tag_111:\n        /* \"#utility.yul\":974:980   */\n      dup3\n        /* \"#utility.yul\":961:981   */\n      calldataload\n        /* \"#utility.yul\":951:981   */\n      swap1\n      pop\n        /* \"#utility.yul\":1004:1022   */\n      0xffffffffffffffff\n        /* \"#utility.yul\":996:1002   */\n      dup2\n        /* \"#utility.yul\":993:1023   */\n      gt\n        /* \"#utility.yul\":990:1107   */\n      iszero\n      tag_113\n      jumpi\n        /* \"#utility.yul\":1026:1105   */\n      tag_114\n      tag_76\n      jump\t// in\n    tag_114:\n        /* \"#utility.yul\":990:1107   */\n    tag_113:\n        /* \"#utility.yul\":1140:1144   */\n      0x20\n        /* \"#utility.yul\":1132:1138   */\n      dup4\n        /* \"#utility.yul\":1128:1145   */\n      add\n        /* \"#utility.yul\":1116:1145   */\n      swap2\n      pop\n        /* \"#utility.yul\":1194:1197   */\n      dup4\n        /* \"#utility.yul\":1186:1190   */\n      0x20\n        /* \"#utility.yul\":1178:1184   */\n      dup3\n        /* \"#utility.yul\":1174:1191   */\n      mul\n        /* \"#utility.yul\":1164:1172   */\n      dup4\n        /* \"#utility.yul\":1160:1192   */\n      add\n        /* \"#utility.yul\":1157:1198   */\n      gt\n        /* \"#utility.yul\":1154:1282   */\n      iszero\n      tag_115\n      jumpi\n        /* \"#utility.yul\":1201:1280   */\n      tag_116\n      tag_77\n      jump\t// in\n    tag_116:\n        /* \"#utility.yul\":1154:1282   */\n    tag_115:\n        /* \"#utility.yul\":720:1288   */\n      swap3\n      pop\n      swap3\n      swap1\n      pop\n      jump\t// out\n        /* \"#utility.yul\":1294:1853   */\n    tag_11:\n        /* \"#utility.yul\":1380:1386   */\n      0x00\n        /* \"#utility.yul\":1388:1394   */\n      0x00\n        /* \"#utility.yul\":1437:1439   */\n      0x20\n        /* \"#utility.yul\":1425:1434   */\n      dup4\n        /* \"#utility.yul\":1416:1423   */\n      dup6\n        /* \"#utility.yul\":1412:1435   */\n      sub\n        /* \"#utility.yul\":1408:1440   */\n      slt\n        /* \"#utility.yul\":1405:1524   */\n      iszero\n      tag_118\n      jumpi\n        /* \"#utility.yul\":1443:1522   */\n      tag_119\n      tag_73\n      jump\t// in\n    tag_119:\n        /* \"#utility.yul\":1405:1524   */\n    tag_118:\n        /* \"#utility.yul\":1591:1592   */\n      0x00\n        /* \"#utility.yul\":1580:1589   */\n      dup4\n        /* \"#utility.yul\":1576:1593   */\n      add\n        /* \"#utility.yul\":1563:1594   */\n      calldataload\n        /* \"#utility.yul\":1621:1639   */\n      0xffffffffffffffff\n        /* \"#utility.yul\":1613:1619   */\n      dup2\n        /* \"#utility.yul\":1610:1640   */\n      gt\n        /* \"#utility.yul\":1607:1724   */\n      iszero\n      tag_120\n      jumpi\n        /* \"#utility.yul\":1643:1722   */\n      tag_121\n      tag_74\n      jump\t// in\n    tag_121:\n        /* \"#utility.yul\":1607:1724   */\n    tag_120:\n        /* \"#utility.yul\":1756:1836   */\n      tag_122\n        /* \"#utility.yul\":1828:1835   */\n      dup6\n        /* \"#utility.yul\":1819:1825   */\n      dup3\n        /* \"#utility.yul\":1808:1817   */\n      dup7\n        /* \"#utility.yul\":1804:1826   */\n      add\n        /* \"#utility.yul\":1756:1836   */\n      tag_78\n      jump\t// in\n    tag_122:\n        /* \"#utility.yul\":1738:1836   */\n      swap3\n      pop\n      swap3\n      pop\n        /* \"#utility.yul\":1534:1846   */\n      pop\n        /* \"#utility.yul\":1294:1853   */\n      swap3\n      pop\n      swap3\n      swap1\n      pop\n      jump\t// out\n        /* \"#utility.yul\":1859:1973   */\n    tag_79:\n        /* \"#utility.yul\":1926:1932   */\n      0x00\n        /* \"#utility.yul\":1960:1965   */\n      dup2\n        /* \"#utility.yul\":1954:1966   */\n      mload\n        /* \"#utility.yul\":1944:1966   */\n      swap1\n      pop\n        /* \"#utility.yul\":1859:1973   */\n      swap2\n      swap1\n      pop\n      jump\t// out\n        /* \"#utility.yul\":1979:2163   */\n    tag_80:\n        /* \"#utility.yul\":2078:2089   */\n      0x00\n        /* \"#utility.yul\":2112:2118   */\n      dup3\n        /* \"#utility.yul\":2107:2110   */\n      dup3\n        /* \"#utility.yul\":2100:2119   */\n      mstore\n        /* \"#utility.yul\":2152:2156   */\n      0x20\n        /* \"#utility.yul\":2147:2150   */\n      dup3\n        /* \"#utility.yul\":2143:2157   */\n      add\n        /* \"#utility.yul\":2128:2157   */\n      swap1\n      pop\n        /* \"#utility.yul\":1979:2163   */\n      swap3\n      swap2\n      pop\n      pop\n      jump\t// out\n        /* \"#utility.yul\":2169:2301   */\n    tag_81:\n        /* \"#utility.yul\":2236:2240   */\n      0x00\n        /* \"#utility.yul\":2259:2262   */\n      dup2\n        /* \"#utility.yul\":2251:2262   */\n      swap1\n      pop\n        /* \"#utility.yul\":2289:2293   */\n      0x20\n        /* \"#utility.yul\":2284:2287   */\n      dup3\n        /* \"#utility.yul\":2280:2294   */\n      add\n        /* \"#utility.yul\":2272:2294   */\n      swap1\n      pop\n        /* \"#utility.yul\":2169:2301   */\n      swap2\n      swap1\n      pop\n      jump\t// out\n        /* \"#utility.yul\":2307:2384   */\n    tag_82:\n        /* \"#utility.yul\":2344:2351   */\n      0x00\n        /* \"#utility.yul\":2373:2378   */\n      dup2\n        /* \"#utility.yul\":2362:2378   */\n      swap1\n      pop\n        /* \"#utility.yul\":2307:2384   */\n      swap2\n      swap1\n      pop\n      jump\t// out\n        /* \"#utility.yul\":2390:2498   */\n    tag_83:\n        /* \"#utility.yul\":2467:2491   */\n      tag_128\n        /* \"#utility.yul\":2485:2490   */\n      dup2\n        /* \"#utility.yul\":2467:2491   */\n      tag_82\n      jump\t// in\n    tag_128:\n        /* \"#utility.yul\":2462:2465   */\n      dup3\n        /* \"#utility.yul\":2455:2492   */\n      mstore\n        /* \"#utility.yul\":2390:2498   */\n      pop\n      pop\n      jump\t// out\n        /* \"#utility.yul\":2504:2683   */\n    tag_84:\n        /* \"#utility.yul\":2573:2583   */\n      0x00\n        /* \"#utility.yul\":2594:2640   */\n      tag_130\n        /* \"#utility.yul\":2636:2639   */\n      dup4\n        /* \"#utility.yul\":2628:2634   */\n      dup4\n        /* \"#utility.yul\":2594:2640   */\n      tag_83\n      jump\t// in\n    tag_130:\n        /* \"#utility.yul\":2672:2676   */\n      0x20\n        /* \"#utility.yul\":2667:2670   */\n      dup4\n        /* \"#utility.yul\":2663:2677   */\n      add\n        /* \"#utility.yul\":2649:2677   */\n      swap1\n      pop\n        /* \"#utility.yul\":2504:2683   */\n      swap3\n      swap2\n      pop\n      pop\n      jump\t// out\n        /* \"#utility.yul\":2689:2802   */\n    tag_85:\n        /* \"#utility.yul\":2759:2763   */\n      0x00\n        /* \"#utility.yul\":2791:2795   */\n      0x20\n        /* \"#utility.yul\":2786:2789   */\n      dup3\n        /* \"#utility.yul\":2782:2796   */\n      add\n        /* \"#utility.yul\":2774:2796   */\n      swap1\n      pop\n        /* \"#utility.yul\":2689:2802   */\n      swap2\n      swap1\n      pop\n      jump\t// out\n        /* \"#utility.yul\":2838:3570   */\n    tag_86:\n        /* \"#utility.yul\":2957:2960   */\n      0x00\n        /* \"#utility.yul\":2986:3040   */\n      tag_133\n        /* \"#utility.yul\":3034:3039   */\n      dup3\n        /* \"#utility.yul\":2986:3040   */\n      tag_79\n      jump\t// in\n    tag_133:\n        /* \"#utility.yul\":3056:3142   */\n      tag_134\n        /* \"#utility.yul\":3135:3141   */\n      dup2\n        /* \"#utility.yul\":3130:3133   */\n      dup6\n        /* \"#utility.yul\":3056:3142   */\n      tag_80\n      jump\t// in\n    tag_134:\n        /* \"#utility.yul\":3049:3142   */\n      swap4\n      pop\n        /* \"#utility.yul\":3166:3222   */\n      tag_135\n        /* \"#utility.yul\":3216:3221   */\n      dup4\n        /* \"#utility.yul\":3166:3222   */\n      tag_81\n      jump\t// in\n    tag_135:\n        /* \"#utility.yul\":3245:3252   */\n      dup1\n        /* \"#utility.yul\":3276:3277   */\n      0x00\n        /* \"#utility.yul\":3261:3545   */\n    tag_136:\n        /* \"#utility.yul\":3286:3292   */\n      dup4\n        /* \"#utility.yul\":3283:3284   */\n      dup2\n        /* \"#utility.yul\":3280:3293   */\n      lt\n        /* \"#utility.yul\":3261:3545   */\n      iszero\n      tag_138\n      jumpi\n        /* \"#utility.yul\":3362:3368   */\n      dup2\n        /* \"#utility.yul\":3356:3369   */\n      mload\n        /* \"#utility.yul\":3389:3452   */\n      tag_139\n        /* \"#utility.yul\":3448:3451   */\n      dup9\n        /* \"#utility.yul\":3433:3446   */\n      dup3\n        /* \"#utility.yul\":3389:3452   */\n      tag_84\n      jump\t// in\n    tag_139:\n        /* \"#utility.yul\":3382:3452   */\n      swap8\n      pop\n        /* \"#utility.yul\":3475:3535   */\n      tag_140\n        /* \"#utility.yul\":3528:3534   */\n      dup4\n        /* \"#utility.yul\":3475:3535   */\n      tag_85\n      jump\t// in\n    tag_140:\n        /* \"#utility.yul\":3465:3535   */\n      swap3\n      pop\n        /* \"#utility.yul\":3321:3545   */\n      pop\n        /* \"#utility.yul\":3308:3309   */\n      0x01\n        /* \"#utility.yul\":3305:3306   */\n      dup2\n        /* \"#utility.yul\":3301:3310   */\n      add\n        /* \"#utility.yul\":3296:3310   */\n      swap1\n      pop\n        /* \"#utility.yul\":3261:3545   */\n      jump(tag_136)\n    tag_138:\n        /* \"#utility.yul\":3265:3279   */\n      pop\n        /* \"#utility.yul\":3561:3564   */\n      dup6\n        /* \"#utility.yul\":3554:3564   */\n      swap4\n      pop\n        /* \"#utility.yul\":2962:3570   */\n      pop\n      pop\n      pop\n        /* \"#utility.yul\":2838:3570   */\n      swap3\n      swap2\n      pop\n      pop\n      jump\t// out\n        /* \"#utility.yul\":3576:3949   */\n    tag_14:\n        /* \"#utility.yul\":3719:3723   */\n      0x00\n        /* \"#utility.yul\":3757:3759   */\n      0x20\n        /* \"#utility.yul\":3746:3755   */\n      dup3\n        /* \"#utility.yul\":3742:3760   */\n      add\n        /* \"#utility.yul\":3734:3760   */\n      swap1\n      pop\n        /* \"#utility.yul\":3806:3815   */\n      dup2\n        /* \"#utility.yul\":3800:3804   */\n      dup2\n        /* \"#utility.yul\":3796:3816   */\n      sub\n        /* \"#utility.yul\":3792:3793   */\n      0x00\n        /* \"#utility.yul\":3781:3790   */\n      dup4\n        /* \"#utility.yul\":3777:3794   */\n      add\n        /* \"#utility.yul\":3770:3817   */\n      mstore\n        /* \"#utility.yul\":3834:3942   */\n      tag_142\n        /* \"#utility.yul\":3937:3941   */\n      dup2\n        /* \"#utility.yul\":3928:3934   */\n      dup5\n        /* \"#utility.yul\":3834:3942   */\n      tag_86\n      jump\t// in\n    tag_142:\n        /* \"#utility.yul\":3826:3942   */\n      swap1\n      pop\n        /* \"#utility.yul\":3576:3949   */\n      swap3\n      swap2\n      pop\n      pop\n      jump\t// out\n        /* \"#utility.yul\":3955:4077   */\n    tag_87:\n        /* \"#utility.yul\":4028:4052   */\n      tag_144\n        /* \"#utility.yul\":4046:4051   */\n      dup2\n        /* \"#utility.yul\":4028:4052   */\n      tag_82\n      jump\t// in\n    tag_144:\n        /* \"#utility.yul\":4021:4026   */\n      dup2\n        /* \"#utility.yul\":4018:4053   */\n      eq\n        /* \"#utility.yul\":4008:4071   */\n      tag_145\n      jumpi\n        /* \"#utility.yul\":4067:4068   */\n      0x00\n        /* \"#utility.yul\":4064:4065   */\n      0x00\n        /* \"#utility.yul\":4057:4069   */\n      revert\n        /* \"#utility.yul\":4008:4071   */\n    tag_145:\n        /* \"#utility.yul\":3955:4077   */\n      pop\n      jump\t// out\n        /* \"#utility.yul\":4083:4222   */\n    tag_88:\n        /* \"#utility.yul\":4129:4134   */\n      0x00\n        /* \"#utility.yul\":4167:4173   */\n      dup2\n        /* \"#utility.yul\":4154:4174   */\n      calldataload\n        /* \"#utility.yul\":4145:4174   */\n      swap1\n      pop\n        /* \"#utility.yul\":4183:4216   */\n      tag_147\n        /* \"#utility.yul\":4210:4215   */\n      dup2\n        /* \"#utility.yul\":4183:4216   */\n      tag_87\n      jump\t// in\n    tag_147:\n        /* \"#utility.yul\":4083:4222   */\n      swap3\n      swap2\n      pop\n      pop\n      jump\t// out\n        /* \"#utility.yul\":4228:4557   */\n    tag_17:\n        /* \"#utility.yul\":4287:4293   */\n      0x00\n        /* \"#utility.yul\":4336:4338   */\n      0x20\n        /* \"#utility.yul\":4324:4333   */\n      dup3\n        /* \"#utility.yul\":4315:4322   */\n      dup5\n        /* \"#utility.yul\":4311:4334   */\n      sub\n        /* \"#utility.yul\":4307:4339   */\n      slt\n        /* \"#utility.yul\":4304:4423   */\n      iszero\n      tag_149\n      jumpi\n        /* \"#utility.yul\":4342:4421   */\n      tag_150\n      tag_73\n      jump\t// in\n    tag_150:\n        /* \"#utility.yul\":4304:4423   */\n    tag_149:\n        /* \"#utility.yul\":4462:4463   */\n      0x00\n        /* \"#utility.yul\":4487:4540   */\n      tag_151\n        /* \"#utility.yul\":4532:4539   */\n      dup5\n        /* \"#utility.yul\":4523:4529   */\n      dup3\n        /* \"#utility.yul\":4512:4521   */\n      dup6\n        /* \"#utility.yul\":4508:4530   */\n      add\n        /* \"#utility.yul\":4487:4540   */\n      tag_88\n      jump\t// in\n    tag_151:\n        /* \"#utility.yul\":4477:4540   */\n      swap2\n      pop\n        /* \"#utility.yul\":4433:4550   */\n      pop\n        /* \"#utility.yul\":4228:4557   */\n      swap3\n      swap2\n      pop\n      pop\n      jump\t// out\n        /* \"#utility.yul\":4563:4681   */\n    tag_89:\n        /* \"#utility.yul\":4650:4674   */\n      tag_153\n        /* \"#utility.yul\":4668:4673   */\n      dup2\n        /* \"#utility.yul\":4650:4674   */\n      tag_82\n      jump\t// in\n    tag_153:\n        /* \"#utility.yul\":4645:4648   */\n      dup3\n        /* \"#utility.yul\":4638:4675   */\n      mstore\n        /* \"#utility.yul\":4563:4681   */\n      pop\n      pop\n      jump\t// out\n        /* \"#utility.yul\":4687:4909   */\n    tag_20:\n        /* \"#utility.yul\":4780:4784   */\n      0x00\n        /* \"#utility.yul\":4818:4820   */\n      0x20\n        /* \"#utility.yul\":4807:4816   */\n      dup3\n        /* \"#utility.yul\":4803:4821   */\n      add\n        /* \"#utility.yul\":4795:4821   */\n      swap1\n      pop\n        /* \"#utility.yul\":4831:4902   */\n      tag_155\n        /* \"#utility.yul\":4899:4900   */\n      0x00\n        /* \"#utility.yul\":4888:4897   */\n      dup4\n        /* \"#utility.yul\":4884:4901   */\n      add\n        /* \"#utility.yul\":4875:4881   */\n      dup5\n        /* \"#utility.yul\":4831:4902   */\n      tag_89\n      jump\t// in\n    tag_155:\n        /* \"#utility.yul\":4687:4909   */\n      swap3\n      swap2\n      pop\n      pop\n      jump\t// out\n        /* \"#utility.yul\":4915:5017   */\n    tag_90:\n        /* \"#utility.yul\":4956:4962   */\n      0x00\n        /* \"#utility.yul\":5007:5009   */\n      0x1f\n        /* \"#utility.yul\":5003:5010   */\n      not\n        /* \"#utility.yul\":4998:5000   */\n      0x1f\n        /* \"#utility.yul\":4991:4996   */\n      dup4\n        /* \"#utility.yul\":4987:5001   */\n      add\n        /* \"#utility.yul\":4983:5011   */\n      and\n        /* \"#utility.yul\":4973:5011   */\n      swap1\n      pop\n        /* \"#utility.yul\":4915:5017   */\n      swap2\n      swap1\n      pop\n      jump\t// out\n        /* \"#utility.yul\":5023:5203   */\n    tag_91:\n        /* \"#utility.yul\":5071:5148   */\n      0x4e487b7100000000000000000000000000000000000000000000000000000000\n        /* \"#utility.yul\":5068:5069   */\n      0x00\n        /* \"#utility.yul\":5061:5149   */\n      mstore\n        /* \"#utility.yul\":5168:5172   */\n      0x41\n        /* \"#utility.yul\":5165:5166   */\n      0x04\n        /* \"#utility.yul\":5158:5173   */\n      mstore\n        /* \"#utility.yul\":5192:5196   */\n      0x24\n        /* \"#utility.yul\":5189:5190   */\n      0x00\n        /* \"#utility.yul\":5182:5197   */\n      revert\n        /* \"#utility.yul\":5209:5490   */\n    tag_92:\n        /* \"#utility.yul\":5292:5319   */\n      tag_159\n        /* \"#utility.yul\":5314:5318   */\n      dup3\n        /* \"#utility.yul\":5292:5319   */\n      tag_90\n      jump\t// in\n    tag_159:\n        /* \"#utility.yul\":5284:5290   */\n      dup2\n        /* \"#utility.yul\":5280:5320   */\n      add\n        /* \"#utility.yul\":5422:5428   */\n      dup2\n        /* \"#utility.yul\":5410:5420   */\n      dup2\n        /* \"#utility.yul\":5407:5429   */\n      lt\n        /* \"#utility.yul\":5386:5404   */\n      0xffffffffffffffff\n        /* \"#utility.yul\":5374:5384   */\n      dup3\n        /* \"#utility.yul\":5371:5405   */\n      gt\n        /* \"#utility.yul\":5368:5430   */\n      or\n        /* \"#utility.yul\":5365:5453   */\n      iszero\n      tag_160\n      jumpi\n        /* \"#utility.yul\":5433:5451   */\n      tag_161\n      tag_91\n      jump\t// in\n    tag_161:\n        /* \"#utility.yul\":5365:5453   */\n    tag_160:\n        /* \"#utility.yul\":5473:5483   */\n      dup1\n        /* \"#utility.yul\":5469:5471   */\n      0x40\n        /* \"#utility.yul\":5462:5484   */\n      mstore\n        /* \"#utility.yul\":5252:5490   */\n      pop\n        /* \"#utility.yul\":5209:5490   */\n      pop\n      pop\n      jump\t// out\n        /* \"#utility.yul\":5496:5625   */\n    tag_93:\n        /* \"#utility.yul\":5530:5536   */\n      0x00\n        /* \"#utility.yul\":5557:5577   */\n      tag_163\n      tag_72\n      jump\t// in\n    tag_163:\n        /* \"#utility.yul\":5547:5577   */\n      swap1\n      pop\n        /* \"#utility.yul\":5586:5619   */\n      tag_164\n        /* \"#utility.yul\":5614:5618   */\n      dup3\n        /* \"#utility.yul\":5606:5612   */\n      dup3\n        /* \"#utility.yul\":5586:5619   */\n      tag_92\n      jump\t// in\n    tag_164:\n        /* \"#utility.yul\":5496:5625   */\n      swap2\n      swap1\n      pop\n      jump\t// out\n        /* \"#utility.yul\":5631:5942   */\n    tag_94:\n        /* \"#utility.yul\":5708:5712   */\n      0x00\n        /* \"#utility.yul\":5798:5816   */\n      0xffffffffffffffff\n        /* \"#utility.yul\":5790:5796   */\n      dup3\n        /* \"#utility.yul\":5787:5817   */\n      gt\n        /* \"#utility.yul\":5784:5840   */\n      iszero\n      tag_166\n      jumpi\n        /* \"#utility.yul\":5820:5838   */\n      tag_167\n      tag_91\n      jump\t// in\n    tag_167:\n        /* \"#utility.yul\":5784:5840   */\n    tag_166:\n        /* \"#utility.yul\":5870:5874   */\n      0x20\n        /* \"#utility.yul\":5862:5868   */\n      dup3\n        /* \"#utility.yul\":5858:5875   */\n      mul\n        /* \"#utility.yul\":5850:5875   */\n      swap1\n      pop\n        /* \"#utility.yul\":5930:5934   */\n      0x20\n        /* \"#utility.yul\":5924:5928   */\n      dup2\n        /* \"#utility.yul\":5920:5935   */\n      add\n        /* \"#utility.yul\":5912:5935   */\n      swap1\n      pop\n        /* \"#utility.yul\":5631:5942   */\n      swap2\n      swap1\n      pop\n      jump\t// out\n        /* \"#utility.yul\":5965:6675   */\n    tag_95:\n        /* \"#utility.yul\":6061:6066   */\n      0x00\n        /* \"#utility.yul\":6086:6167   */\n      tag_169\n        /* \"#utility.yul\":6102:6166   */\n      tag_170\n        /* \"#utility.yul\":6159:6165   */\n      dup5\n        /* \"#utility.yul\":6102:6166   */\n      tag_94\n      jump\t// in\n    tag_170:\n        /* \"#utility.yul\":6086:6167   */\n      tag_93\n      jump\t// in\n    tag_169:\n        /* \"#utility.yul\":6077:6167   */\n      swap1\n      pop\n        /* \"#utility.yul\":6187:6192   */\n      dup1\n        /* \"#utility.yul\":6216:6222   */\n      dup4\n        /* \"#utility.yul\":6209:6214   */\n      dup3\n        /* \"#utility.yul\":6202:6223   */\n      mstore\n        /* \"#utility.yul\":6250:6254   */\n      0x20\n        /* \"#utility.yul\":6243:6248   */\n      dup3\n        /* \"#utility.yul\":6239:6255   */\n      add\n        /* \"#utility.yul\":6232:6255   */\n      swap1\n      pop\n        /* \"#utility.yul\":6303:6307   */\n      0x20\n        /* \"#utility.yul\":6295:6301   */\n      dup5\n        /* \"#utility.yul\":6291:6308   */\n      mul\n        /* \"#utility.yul\":6283:6289   */\n      dup4\n        /* \"#utility.yul\":6279:6309   */\n      add\n        /* \"#utility.yul\":6332:6335   */\n      dup6\n        /* \"#utility.yul\":6324:6330   */\n      dup2\n        /* \"#utility.yul\":6321:6336   */\n      gt\n        /* \"#utility.yul\":6318:6440   */\n      iszero\n      tag_171\n      jumpi\n        /* \"#utility.yul\":6351:6430   */\n      tag_172\n      tag_77\n      jump\t// in\n    tag_172:\n        /* \"#utility.yul\":6318:6440   */\n    tag_171:\n        /* \"#utility.yul\":6466:6472   */\n      dup4\n        /* \"#utility.yul\":6449:6669   */\n    tag_173:\n        /* \"#utility.yul\":6483:6489   */\n      dup2\n        /* \"#utility.yul\":6478:6481   */\n      dup2\n        /* \"#utility.yul\":6475:6490   */\n      lt\n        /* \"#utility.yul\":6449:6669   */\n      iszero\n      tag_175\n      jumpi\n        /* \"#utility.yul\":6558:6561   */\n      dup1\n        /* \"#utility.yul\":6587:6624   */\n      tag_176\n        /* \"#utility.yul\":6620:6623   */\n      dup9\n        /* \"#utility.yul\":6608:6618   */\n      dup3\n        /* \"#utility.yul\":6587:6624   */\n      tag_88\n      jump\t// in\n    tag_176:\n        /* \"#utility.yul\":6582:6585   */\n      dup5\n        /* \"#utility.yul\":6575:6625   */\n      mstore\n        /* \"#utility.yul\":6654:6658   */\n      0x20\n        /* \"#utility.yul\":6649:6652   */\n      dup5\n        /* \"#utility.yul\":6645:6659   */\n      add\n        /* \"#utility.yul\":6638:6659   */\n      swap4\n      pop\n        /* \"#utility.yul\":6525:6669   */\n      pop\n        /* \"#utility.yul\":6509:6513   */\n      0x20\n        /* \"#utility.yul\":6504:6507   */\n      dup2\n        /* \"#utility.yul\":6500:6514   */\n      add\n        /* \"#utility.yul\":6493:6514   */\n      swap1\n      pop\n        /* \"#utility.yul\":6449:6669   */\n      jump(tag_173)\n    tag_175:\n        /* \"#utility.yul\":6453:6474   */\n      pop\n        /* \"#utility.yul\":6067:6675   */\n      pop\n      pop\n        /* \"#utility.yul\":5965:6675   */\n      swap4\n      swap3\n      pop\n      pop\n      pop\n      jump\t// out\n        /* \"#utility.yul\":6698:7068   */\n    tag_96:\n        /* \"#utility.yul\":6769:6774   */\n      0x00\n        /* \"#utility.yul\":6818:6821   */\n      dup3\n        /* \"#utility.yul\":6811:6815   */\n      0x1f\n        /* \"#utility.yul\":6803:6809   */\n      dup4\n        /* \"#utility.yul\":6799:6816   */\n      add\n        /* \"#utility.yul\":6795:6822   */\n      slt\n        /* \"#utility.yul\":6785:6907   */\n      tag_178\n      jumpi\n        /* \"#utility.yul\":6826:6905   */\n      tag_179\n      tag_75\n      jump\t// in\n    tag_179:\n        /* \"#utility.yul\":6785:6907   */\n    tag_178:\n        /* \"#utility.yul\":6943:6949   */\n      dup2\n        /* \"#utility.yul\":6930:6950   */\n      calldataload\n        /* \"#utility.yul\":6968:7062   */\n      tag_180\n        /* \"#utility.yul\":7058:7061   */\n      dup5\n        /* \"#utility.yul\":7050:7056   */\n      dup3\n        /* \"#utility.yul\":7043:7047   */\n      0x20\n        /* \"#utility.yul\":7035:7041   */\n      dup7\n        /* \"#utility.yul\":7031:7048   */\n      add\n        /* \"#utility.yul\":6968:7062   */\n      tag_95\n      jump\t// in\n    tag_180:\n        /* \"#utility.yul\":6959:7062   */\n      swap2\n      pop\n        /* \"#utility.yul\":6775:7068   */\n      pop\n        /* \"#utility.yul\":6698:7068   */\n      swap3\n      swap2\n      pop\n      pop\n      jump\t// out\n        /* \"#utility.yul\":7074:7613   */\n    tag_30:\n        /* \"#utility.yul\":7158:7164   */\n      0x00\n        /* \"#utility.yul\":7207:7209   */\n      0x20\n        /* \"#utility.yul\":7195:7204   */\n      dup3\n        /* \"#utility.yul\":7186:7193   */\n      dup5\n        /* \"#utility.yul\":7182:7205   */\n      sub\n        /* \"#utility.yul\":7178:7210   */\n      slt\n        /* \"#utility.yul\":7175:7294   */\n      iszero\n      tag_182\n      jumpi\n        /* \"#utility.yul\":7213:7292   */\n      tag_183\n      tag_73\n      jump\t// in\n    tag_183:\n        /* \"#utility.yul\":7175:7294   */\n    tag_182:\n        /* \"#utility.yul\":7361:7362   */\n      0x00\n        /* \"#utility.yul\":7350:7359   */\n      dup3\n        /* \"#utility.yul\":7346:7363   */\n      add\n        /* \"#utility.yul\":7333:7364   */\n      calldataload\n        /* \"#utility.yul\":7391:7409   */\n      0xffffffffffffffff\n        /* \"#utility.yul\":7383:7389   */\n      dup2\n        /* \"#utility.yul\":7380:7410   */\n      gt\n        /* \"#utility.yul\":7377:7494   */\n      iszero\n      tag_184\n      jumpi\n        /* \"#utility.yul\":7413:7492   */\n      tag_185\n      tag_74\n      jump\t// in\n    tag_185:\n        /* \"#utility.yul\":7377:7494   */\n    tag_184:\n        /* \"#utility.yul\":7518:7596   */\n      tag_186\n        /* \"#utility.yul\":7588:7595   */\n      dup5\n        /* \"#utility.yul\":7579:7585   */\n      dup3\n        /* \"#utility.yul\":7568:7577   */\n      dup6\n        /* \"#utility.yul\":7564:7586   */\n      add\n        /* \"#utility.yul\":7518:7596   */\n      tag_96\n      jump\t// in\n    tag_186:\n        /* \"#utility.yul\":7508:7596   */\n      swap2\n      pop\n        /* \"#utility.yul\":7304:7606   */\n      pop\n        /* \"#utility.yul\":7074:7613   */\n      swap3\n      swap2\n      pop\n      pop\n      jump\t// out\n        /* \"#utility.yul\":7619:7788   */\n    tag_97:\n        /* \"#utility.yul\":7703:7714   */\n      0x00\n        /* \"#utility.yul\":7737:7743   */\n      dup3\n        /* \"#utility.yul\":7732:7735   */\n      dup3\n        /* \"#utility.yul\":7725:7744   */\n      mstore\n        /* \"#utility.yul\":7777:7781   */\n      0x20\n        /* \"#utility.yul\":7772:7775   */\n      dup3\n        /* \"#utility.yul\":7768:7782   */\n      add\n        /* \"#utility.yul\":7753:7782   */\n      swap1\n      pop\n        /* \"#utility.yul\":7619:7788   */\n      swap3\n      swap2\n      pop\n      pop\n      jump\t// out\n        /* \"#utility.yul\":7794:7955   */\n    tag_98:\n        /* \"#utility.yul\":7934:7947   */\n      0x456d707479206172726179000000000000000000000000000000000000000000\n        /* \"#utility.yul\":7930:7931   */\n      0x00\n        /* \"#utility.yul\":7922:7928   */\n      dup3\n        /* \"#utility.yul\":7918:7932   */\n      add\n        /* \"#utility.yul\":7911:7948   */\n      mstore\n        /* \"#utility.yul\":7794:7955   */\n      pop\n      jump\t// out\n        /* \"#utility.yul\":7961:8327   */\n    tag_99:\n        /* \"#utility.yul\":8103:8106   */\n      0x00\n        /* \"#utility.yul\":8124:8191   */\n      tag_190\n        /* \"#utility.yul\":8188:8190   */\n      0x0b\n        /* \"#utility.yul\":8183:8186   */\n      dup4\n        /* \"#utility.yul\":8124:8191   */\n      tag_97\n      jump\t// in\n    tag_190:\n        /* \"#utility.yul\":8117:8191   */\n      swap2\n      pop\n        /* \"#utility.yul\":8200:8293   */\n      tag_191\n        /* \"#utility.yul\":8289:8292   */\n      dup3\n        /* \"#utility.yul\":8200:8293   */\n      tag_98\n      jump\t// in\n    tag_191:\n        /* \"#utility.yul\":8318:8320   */\n      0x20\n        /* \"#utility.yul\":8313:8316   */\n      dup3\n        /* \"#utility.yul\":8309:8321   */\n      add\n        /* \"#utility.yul\":8302:8321   */\n      swap1\n      pop\n        /* \"#utility.yul\":7961:8327   */\n      swap2\n      swap1\n      pop\n      jump\t// out\n        /* \"#utility.yul\":8333:8752   */\n    tag_39:\n        /* \"#utility.yul\":8499:8503   */\n      0x00\n        /* \"#utility.yul\":8537:8539   */\n      0x20\n        /* \"#utility.yul\":8526:8535   */\n      dup3\n        /* \"#utility.yul\":8522:8540   */\n      add\n        /* \"#utility.yul\":8514:8540   */\n      swap1\n      pop\n        /* \"#utility.yul\":8586:8595   */\n      dup2\n        /* \"#utility.yul\":8580:8584   */\n      dup2\n        /* \"#utility.yul\":8576:8596   */\n      sub\n        /* \"#utility.yul\":8572:8573   */\n      0x00\n        /* \"#utility.yul\":8561:8570   */\n      dup4\n        /* \"#utility.yul\":8557:8574   */\n      add\n        /* \"#utility.yul\":8550:8597   */\n      mstore\n        /* \"#utility.yul\":8614:8745   */\n      tag_193\n        /* \"#utility.yul\":8740:8744   */\n      dup2\n        /* \"#utility.yul\":8614:8745   */\n      tag_99\n      jump\t// in\n    tag_193:\n        /* \"#utility.yul\":8606:8745   */\n      swap1\n      pop\n        /* \"#utility.yul\":8333:8752   */\n      swap2\n      swap1\n      pop\n      jump\t// out\n        /* \"#utility.yul\":8758:8923   */\n    tag_100:\n        /* \"#utility.yul\":8898:8915   */\n      0x417272617920746f6f206c617267650000000000000000000000000000000000\n        /* \"#utility.yul\":8894:8895   */\n      0x00\n        /* \"#utility.yul\":8886:8892   */\n      dup3\n        /* \"#utility.yul\":8882:8896   */\n      add\n        /* \"#utility.yul\":8875:8916   */\n      mstore\n        /* \"#utility.yul\":8758:8923   */\n      pop\n      jump\t// out\n        /* \"#utility.yul\":8929:9295   */\n    tag_101:\n        /* \"#utility.yul\":9071:9074   */\n      0x00\n        /* \"#utility.yul\":9092:9159   */\n      tag_196\n        /* \"#utility.yul\":9156:9158   */\n      0x0f\n        /* \"#utility.yul\":9151:9154   */\n      dup4\n        /* \"#utility.yul\":9092:9159   */\n      tag_97\n      jump\t// in\n    tag_196:\n        /* \"#utility.yul\":9085:9159   */\n      swap2\n      pop\n        /* \"#utility.yul\":9168:9261   */\n      tag_197\n        /* \"#utility.yul\":9257:9260   */\n      dup3\n        /* \"#utility.yul\":9168:9261   */\n      tag_100\n      jump\t// in\n    tag_197:\n        /* \"#utility.yul\":9286:9288   */\n      0x20\n        /* \"#utility.yul\":9281:9284   */\n      dup3\n        /* \"#utility.yul\":9277:9289   */\n      add\n        /* \"#utility.yul\":9270:9289   */\n      swap1\n      pop\n        /* \"#utility.yul\":8929:9295   */\n      swap2\n      swap1\n      pop\n      jump\t// out\n        /* \"#utility.yul\":9301:9720   */\n    tag_42:\n        /* \"#utility.yul\":9467:9471   */\n      0x00\n        /* \"#utility.yul\":9505:9507   */\n      0x20\n        /* \"#utility.yul\":9494:9503   */\n      dup3\n        /* \"#utility.yul\":9490:9508   */\n      add\n        /* \"#utility.yul\":9482:9508   */\n      swap1\n      pop\n        /* \"#utility.yul\":9554:9563   */\n      dup2\n        /* \"#utility.yul\":9548:9552   */\n      dup2\n        /* \"#utility.yul\":9544:9564   */\n      sub\n        /* \"#utility.yul\":9540:9541   */\n      0x00\n        /* \"#utility.yul\":9529:9538   */\n      dup4\n        /* \"#utility.yul\":9525:9542   */\n      add\n        /* \"#utility.yul\":9518:9565   */\n      mstore\n        /* \"#utility.yul\":9582:9713   */\n      tag_199\n        /* \"#utility.yul\":9708:9712   */\n      dup2\n        /* \"#utility.yul\":9582:9713   */\n      tag_101\n      jump\t// in\n    tag_199:\n        /* \"#utility.yul\":9574:9713   */\n      swap1\n      pop\n        /* \"#utility.yul\":9301:9720   */\n      swap2\n      swap1\n      pop\n      jump\t// out\n        /* \"#utility.yul\":9726:9906   */\n    tag_45:\n        /* \"#utility.yul\":9774:9851   */\n      0x4e487b7100000000000000000000000000000000000000000000000000000000\n        /* \"#utility.yul\":9771:9772   */\n      0x00\n        /* \"#utility.yul\":9764:9852   */\n      mstore\n        /* \"#utility.yul\":9871:9875   */\n      0x32\n        /* \"#utility.yul\":9868:9869   */\n      0x04\n        /* \"#utility.yul\":9861:9876   */\n      mstore\n        /* \"#utility.yul\":9895:9899   */\n      0x24\n        /* \"#utility.yul\":9892:9893   */\n      0x00\n        /* \"#utility.yul\":9885:9900   */\n      revert\n        /* \"#utility.yul\":9912:10092   */\n    tag_102:\n        /* \"#utility.yul\":9960:10037   */\n      0x4e487b7100000000000000000000000000000000000000000000000000000000\n        /* \"#utility.yul\":9957:9958   */\n      0x00\n        /* \"#utility.yul\":9950:10038   */\n      mstore\n        /* \"#utility.yul\":10057:10061   */\n      0x11\n        /* \"#utility.yul\":10054:10055   */\n      0x04\n        /* \"#utility.yul\":10047:10062   */\n      mstore\n        /* \"#utility.yul\":10081:10085   */\n      0x24\n        /* \"#utility.yul\":10078:10079   */\n      0x00\n        /* \"#utility.yul\":10071:10086   */\n      revert\n        /* \"#utility.yul\":10098:10289   */\n    tag_55:\n        /* \"#utility.yul\":10138:10141   */\n      0x00\n        /* \"#utility.yul\":10157:10177   */\n      tag_203\n        /* \"#utility.yul\":10175:10176   */\n      dup3\n        /* \"#utility.yul\":10157:10177   */\n      tag_82\n      jump\t// in\n    tag_203:\n        /* \"#utility.yul\":10152:10177   */\n      swap2\n      pop\n        /* \"#utility.yul\":10191:10211   */\n      tag_204\n        /* \"#utility.yul\":10209:10210   */\n      dup4\n        /* \"#utility.yul\":10191:10211   */\n      tag_82\n      jump\t// in\n    tag_204:\n        /* \"#utility.yul\":10186:10211   */\n      swap3\n      pop\n        /* \"#utility.yul\":10234:10235   */\n      dup3\n        /* \"#utility.yul\":10231:10232   */\n      dup3\n        /* \"#utility.yul\":10227:10236   */\n      add\n        /* \"#utility.yul\":10220:10236   */\n      swap1\n      pop\n        /* \"#utility.yul\":10255:10258   */\n      dup1\n        /* \"#utility.yul\":10252:10253   */\n      dup3\n        /* \"#utility.yul\":10249:10259   */\n      gt\n        /* \"#utility.yul\":10246:10282   */\n      iszero\n      tag_205\n      jumpi\n        /* \"#utility.yul\":10262:10280   */\n      tag_206\n      tag_102\n      jump\t// in\n    tag_206:\n        /* \"#utility.yul\":10246:10282   */\n    tag_205:\n        /* \"#utility.yul\":10098:10289   */\n      swap3\n      swap2\n      pop\n      pop\n      jump\t// out\n\n    auxdata: 0xa2646970667358221220b17a387a09eed34fd186ef6115a20803031d367d748b9f879d05c9af5720b59464736f6c63430008220033\n}\n",
				"bytecode": {
					"linkReferences": {},
					"object": "6080604052348015600e575f5ffd5b506109198061001c5f395ff3fe608060405234801561000f575f5ffd5b5060043610610060575f3560e01c8063662ef05b146100645780639e258efe14610094578063af7efa7c146100c4578063c92fa517146100e2578063e33c702f14610112578063e4f7d55114610142575b5f5ffd5b61007e6004803603810190610079919061043f565b61015e565b60405161008b919061054a565b60405180910390f35b6100ae60048036038101906100a99190610594565b61025c565b6040516100bb91906105ce565b60405180910390f35b6100cc61027b565b6040516100d991906105ce565b60405180910390f35b6100fc60048036038101906100f7919061043f565b610280565b60405161010991906105ce565b60405180910390f35b61012c6004803603810190610127919061072f565b6102d4565b60405161013991906105ce565b60405180910390f35b61015c6004803603810190610157919061043f565b610326565b005b60605f83839050116101a5576040517f08c379a000000000000000000000000000000000000000000000000000000000815260040161019c906107d0565b60405180910390fd5b60648383905011156101ec576040517f08c379a00000000000000000000000000000000000000000000000000000000081526004016101e390610838565b60405180910390fd5b5f8383808060200260200160405190810160405280939291908181526020018383602002808284375f81840152601f19601f8201169050808301925050505050505090506103e7815f8151811061024657610245610856565b5b6020026020010181815250508091505092915050565b5f818154811061026a575f80fd5b905f5260205f20015f915090505481565b606481565b5f5f5f90505f5f90505b848490508110156102c9578484828181106102a8576102a7610856565b5b90506020020135826102ba91906108b0565b9150808060010191505061028a565b508091505092915050565b5f5f5f90505f5f90505b835181101561031c578381815181106102fa576102f9610856565b5b60200260200101518261030d91906108b0565b915080806001019150506102de565b5080915050919050565b606482829050111561036d576040517f08c379a000000000000000000000000000000000000000000000000000000000815260040161036490610838565b60405180910390fd5b5f5f90505b828290508110156103c8575f83838381811061039157610390610856565b5b90506020020135908060018154018082558091505060019003905f5260205f20015f90919091909150558080600101915050610372565b505050565b5f604051905090565b5f5ffd5b5f5ffd5b5f5ffd5b5f5ffd5b5f5ffd5b5f5f83601f8401126103ff576103fe6103de565b5b8235905067ffffffffffffffff81111561041c5761041b6103e2565b5b602083019150836020820283011115610438576104376103e6565b5b9250929050565b5f5f60208385031215610455576104546103d6565b5b5f83013567ffffffffffffffff811115610472576104716103da565b5b61047e858286016103ea565b92509250509250929050565b5f81519050919050565b5f82825260208201905092915050565b5f819050602082019050919050565b5f819050919050565b6104c5816104b3565b82525050565b5f6104d683836104bc565b60208301905092915050565b5f602082019050919050565b5f6104f88261048a565b6105028185610494565b935061050d836104a4565b805f5b8381101561053d57815161052488826104cb565b975061052f836104e2565b925050600181019050610510565b5085935050505092915050565b5f6020820190508181035f83015261056281846104ee565b905092915050565b610573816104b3565b811461057d575f5ffd5b50565b5f8135905061058e8161056a565b92915050565b5f602082840312156105a9576105a86103d6565b5b5f6105b684828501610580565b91505092915050565b6105c8816104b3565b82525050565b5f6020820190506105e15f8301846105bf565b92915050565b5f601f19601f8301169050919050565b7f4e487b71000000000000000000000000000000000000000000000000000000005f52604160045260245ffd5b61062d826105e7565b810181811067ffffffffffffffff8211171561064c5761064b6105f7565b5b80604052505050565b5f61065e6103cd565b905061066a8282610624565b919050565b5f67ffffffffffffffff821115610689576106886105f7565b5b602082029050602081019050919050565b5f6106ac6106a78461066f565b610655565b905080838252602082019050602084028301858111156106cf576106ce6103e6565b5b835b818110156106f857806106e48882610580565b8452602084019350506020810190506106d1565b5050509392505050565b5f82601f830112610716576107156103de565b5b813561072684826020860161069a565b91505092915050565b5f60208284031215610744576107436103d6565b5b5f82013567ffffffffffffffff811115610761576107606103da565b5b61076d84828501610702565b91505092915050565b5f82825260208201905092915050565b7f456d7074792061727261790000000000000000000000000000000000000000005f82015250565b5f6107ba600b83610776565b91506107c582610786565b602082019050919050565b5f6020820190508181035f8301526107e7816107ae565b9050919050565b7f417272617920746f6f206c6172676500000000000000000000000000000000005f82015250565b5f610822600f83610776565b915061082d826107ee565b602082019050919050565b5f6020820190508181035f83015261084f81610816565b9050919050565b7f4e487b71000000000000000000000000000000000000000000000000000000005f52603260045260245ffd5b7f4e487b71000000000000000000000000000000000000000000000000000000005f52601160045260245ffd5b5f6108ba826104b3565b91506108c5836104b3565b92508282019050808211156108dd576108dc610883565b5b9291505056fea2646970667358221220b17a387a09eed34fd186ef6115a20803031d367d748b9f879d05c9af5720b59464736f6c63430008220033",
					"opcodes": "PUSH1 0x80 PUSH1 0x40 MSTORE CALLVALUE DUP1 ISZERO PUSH1 0xE JUMPI PUSH0 PUSH0 REVERT JUMPDEST POP PUSH2 0x919 DUP1 PUSH2 0x1C PUSH0 CODECOPY PUSH0 RETURN INVALID PUSH1 0x80 PUSH1 0x40 MSTORE CALLVALUE DUP1 ISZERO PUSH2 0xF JUMPI PUSH0 PUSH0 REVERT JUMPDEST POP PUSH1 0x4 CALLDATASIZE LT PUSH2 0x60 JUMPI PUSH0 CALLDATALOAD PUSH1 0xE0 SHR DUP1 PUSH4 0x662EF05B EQ PUSH2 0x64 JUMPI DUP1 PUSH4 0x9E258EFE EQ PUSH2 0x94 JUMPI DUP1 PUSH4 0xAF7EFA7C EQ PUSH2 0xC4 JUMPI DUP1 PUSH4 0xC92FA517 EQ PUSH2 0xE2 JUMPI DUP1 PUSH4 0xE33C702F EQ PUSH2 0x112 JUMPI DUP1 PUSH4 0xE4F7D551 EQ PUSH2 0x142 JUMPI JUMPDEST PUSH0 PUSH0 REVERT JUMPDEST PUSH2 0x7E PUSH1 0x4 DUP1 CALLDATASIZE SUB DUP2 ADD SWAP1 PUSH2 0x79 SWAP2 SWAP1 PUSH2 0x43F JUMP JUMPDEST PUSH2 0x15E JUMP JUMPDEST PUSH1 0x40 MLOAD PUSH2 0x8B SWAP2 SWAP1 PUSH2 0x54A JUMP JUMPDEST PUSH1 0x40 MLOAD DUP1 SWAP2 SUB SWAP1 RETURN JUMPDEST PUSH2 0xAE PUSH1 0x4 DUP1 CALLDATASIZE SUB DUP2 ADD SWAP1 PUSH2 0xA9 SWAP2 SWAP1 PUSH2 0x594 JUMP JUMPDEST PUSH2 0x25C JUMP JUMPDEST PUSH1 0x40 MLOAD PUSH2 0xBB SWAP2 SWAP1 PUSH2 0x5CE JUMP JUMPDEST PUSH1 0x40 MLOAD DUP1 SWAP2 SUB SWAP1 RETURN JUMPDEST PUSH2 0xCC PUSH2 0x27B JUMP JUMPDEST PUSH1 0x40 MLOAD PUSH2 0xD9 SWAP2 SWAP1 PUSH2 0x5CE JUMP JUMPDEST PUSH1 0x40 MLOAD DUP1 SWAP2 SUB SWAP1 RETURN JUMPDEST PUSH2 0xFC PUSH1 0x4 DUP1 CALLDATASIZE SUB DUP2 ADD SWAP1 PUSH2 0xF7 SWAP2 SWAP1 PUSH2 0x43F JUMP JUMPDEST PUSH2 0x280 JUMP JUMPDEST PUSH1 0x40 MLOAD PUSH2 0x109 SWAP2 SWAP1 PUSH2 0x5CE JUMP JUMPDEST PUSH1 0x40 MLOAD DUP1 SWAP2 SUB SWAP1 RETURN JUMPDEST PUSH2 0x12C PUSH1 0x4 DUP1 CALLDATASIZE SUB DUP2 ADD SWAP1 PUSH2 0x127 SWAP2 SWAP1 PUSH2 0x72F JUMP JUMPDEST PUSH2 0x2D4 JUMP JUMPDEST PUSH1 0x40 MLOAD PUSH2 0x139 SWAP2 SWAP1 PUSH2 0x5CE JUMP JUMPDEST PUSH1 0x40 MLOAD DUP1 SWAP2 SUB SWAP1 RETURN JUMPDEST PUSH2 0x15C PUSH1 0x4 DUP1 CALLDATASIZE SUB DUP2 ADD SWAP1 PUSH2 0x157 SWAP2 SWAP1 PUSH2 0x43F JUMP JUMPDEST PUSH2 0x326 JUMP JUMPDEST STOP JUMPDEST PUSH1 0x60 PUSH0 DUP4 DUP4 SWAP1 POP GT PUSH2 0x1A5 JUMPI PUSH1 0x40 MLOAD PUSH32 0x8C379A000000000000000000000000000000000000000000000000000000000 DUP2 MSTORE PUSH1 0x4 ADD PUSH2 0x19C SWAP1 PUSH2 0x7D0 JUMP JUMPDEST PUSH1 0x40 MLOAD DUP1 SWAP2 SUB SWAP1 REVERT JUMPDEST PUSH1 0x64 DUP4 DUP4 SWAP1 POP GT ISZERO PUSH2 0x1EC JUMPI PUSH1 0x40 MLOAD PUSH32 0x8C379A000000000000000000000000000000000000000000000000000000000 DUP2 MSTORE PUSH1 0x4 ADD PUSH2 0x1E3 SWAP1 PUSH2 0x838 JUMP JUMPDEST PUSH1 0x40 MLOAD DUP1 SWAP2 SUB SWAP1 REVERT JUMPDEST PUSH0 DUP4 DUP4 DUP1 DUP1 PUSH1 0x20 MUL PUSH1 0x20 ADD PUSH1 0x40 MLOAD SWAP1 DUP2 ADD PUSH1 0x40 MSTORE DUP1 SWAP4 SWAP3 SWAP2 SWAP1 DUP2 DUP2 MSTORE PUSH1 0x20 ADD DUP4 DUP4 PUSH1 0x20 MUL DUP1 DUP3 DUP5 CALLDATACOPY PUSH0 DUP2 DUP5 ADD MSTORE PUSH1 0x1F NOT PUSH1 0x1F DUP3 ADD AND SWAP1 POP DUP1 DUP4 ADD SWAP3 POP POP POP POP POP POP POP SWAP1 POP PUSH2 0x3E7 DUP2 PUSH0 DUP2 MLOAD DUP2 LT PUSH2 0x246 JUMPI PUSH2 0x245 PUSH2 0x856 JUMP JUMPDEST JUMPDEST PUSH1 0x20 MUL PUSH1 0x20 ADD ADD DUP2 DUP2 MSTORE POP POP DUP1 SWAP2 POP POP SWAP3 SWAP2 POP POP JUMP JUMPDEST PUSH0 DUP2 DUP2 SLOAD DUP2 LT PUSH2 0x26A JUMPI PUSH0 DUP1 REVERT JUMPDEST SWAP1 PUSH0 MSTORE PUSH1 0x20 PUSH0 KECCAK256 ADD PUSH0 SWAP2 POP SWAP1 POP SLOAD DUP2 JUMP JUMPDEST PUSH1 0x64 DUP2 JUMP JUMPDEST PUSH0 PUSH0 PUSH0 SWAP1 POP PUSH0 PUSH0 SWAP1 POP JUMPDEST DUP5 DUP5 SWAP1 POP DUP2 LT ISZERO PUSH2 0x2C9 JUMPI DUP5 DUP5 DUP3 DUP2 DUP2 LT PUSH2 0x2A8 JUMPI PUSH2 0x2A7 PUSH2 0x856 JUMP JUMPDEST JUMPDEST SWAP1 POP PUSH1 0x20 MUL ADD CALLDATALOAD DUP3 PUSH2 0x2BA SWAP2 SWAP1 PUSH2 0x8B0 JUMP JUMPDEST SWAP2 POP DUP1 DUP1 PUSH1 0x1 ADD SWAP2 POP POP PUSH2 0x28A JUMP JUMPDEST POP DUP1 SWAP2 POP POP SWAP3 SWAP2 POP POP JUMP JUMPDEST PUSH0 PUSH0 PUSH0 SWAP1 POP PUSH0 PUSH0 SWAP1 POP JUMPDEST DUP4 MLOAD DUP2 LT ISZERO PUSH2 0x31C JUMPI DUP4 DUP2 DUP2 MLOAD DUP2 LT PUSH2 0x2FA JUMPI PUSH2 0x2F9 PUSH2 0x856 JUMP JUMPDEST JUMPDEST PUSH1 0x20 MUL PUSH1 0x20 ADD ADD MLOAD DUP3 PUSH2 0x30D SWAP2 SWAP1 PUSH2 0x8B0 JUMP JUMPDEST SWAP2 POP DUP1 DUP1 PUSH1 0x1 ADD SWAP2 POP POP PUSH2 0x2DE JUMP JUMPDEST POP DUP1 SWAP2 POP POP SWAP2 SWAP1 POP JUMP JUMPDEST PUSH1 0x64 DUP3 DUP3 SWAP1 POP GT ISZERO PUSH2 0x36D JUMPI PUSH1 0x40 MLOAD PUSH32 0x8C379A000000000000000000000000000000000000000000000000000000000 DUP2 MSTORE PUSH1 0x4 ADD PUSH2 0x364 SWAP1 PUSH2 0x838 JUMP JUMPDEST PUSH1 0x40 MLOAD DUP1 SWAP2 SUB SWAP1 REVERT JUMPDEST PUSH0 PUSH0 SWAP1 POP JUMPDEST DUP3 DUP3 SWAP1 POP DUP2 LT ISZERO PUSH2 0x3C8 JUMPI PUSH0 DUP4 DUP4 DUP4 DUP2 DUP2 LT PUSH2 0x391 JUMPI PUSH2 0x390 PUSH2 0x856 JUMP JUMPDEST JUMPDEST SWAP1 POP PUSH1 0x20 MUL ADD CALLDATALOAD SWAP1 DUP1 PUSH1 0x1 DUP2 SLOAD ADD DUP1 DUP3 SSTORE DUP1 SWAP2 POP POP PUSH1 0x1 SWAP1 SUB SWAP1 PUSH0 MSTORE PUSH1 0x20 PUSH0 KECCAK256 ADD PUSH0 SWAP1 SWAP2 SWAP1 SWAP2 SWAP1 SWAP2 POP SSTORE DUP1 DUP1 PUSH1 0x1 ADD SWAP2 POP POP PUSH2 0x372 JUMP JUMPDEST POP POP POP JUMP JUMPDEST PUSH0 PUSH1 0x40 MLOAD SWAP1 POP SWAP1 JUMP JUMPDEST PUSH0 PUSH0 REVERT JUMPDEST PUSH0 PUSH0 REVERT JUMPDEST PUSH0 PUSH0 REVERT JUMPDEST PUSH0 PUSH0 REVERT JUMPDEST PUSH0 PUSH0 REVERT JUMPDEST PUSH0 PUSH0 DUP4 PUSH1 0x1F DUP5 ADD SLT PUSH2 0x3FF JUMPI PUSH2 0x3FE PUSH2 0x3DE JUMP JUMPDEST JUMPDEST DUP3 CALLDATALOAD SWAP1 POP PUSH8 0xFFFFFFFFFFFFFFFF DUP2 GT ISZERO PUSH2 0x41C JUMPI PUSH2 0x41B PUSH2 0x3E2 JUMP JUMPDEST JUMPDEST PUSH1 0x20 DUP4 ADD SWAP2 POP DUP4 PUSH1 0x20 DUP3 MUL DUP4 ADD GT ISZERO PUSH2 0x438 JUMPI PUSH2 0x437 PUSH2 0x3E6 JUMP JUMPDEST JUMPDEST SWAP3 POP SWAP3 SWAP1 POP JUMP JUMPDEST PUSH0 PUSH0 PUSH1 0x20 DUP4 DUP6 SUB SLT ISZERO PUSH2 0x455 JUMPI PUSH2 0x454 PUSH2 0x3D6 JUMP JUMPDEST JUMPDEST PUSH0 DUP4 ADD CALLDATALOAD PUSH8 0xFFFFFFFFFFFFFFFF DUP2 GT ISZERO PUSH2 0x472 JUMPI PUSH2 0x471 PUSH2 0x3DA JUMP JUMPDEST JUMPDEST PUSH2 0x47E DUP6 DUP3 DUP7 ADD PUSH2 0x3EA JUMP JUMPDEST SWAP3 POP SWAP3 POP POP SWAP3 POP SWAP3 SWAP1 POP JUMP JUMPDEST PUSH0 DUP2 MLOAD SWAP1 POP SWAP2 SWAP1 POP JUMP JUMPDEST PUSH0 DUP3 DUP3 MSTORE PUSH1 0x20 DUP3 ADD SWAP1 POP SWAP3 SWAP2 POP POP JUMP JUMPDEST PUSH0 DUP2 SWAP1 POP PUSH1 0x20 DUP3 ADD SWAP1 POP SWAP2 SWAP1 POP JUMP JUMPDEST PUSH0 DUP2 SWAP1 POP SWAP2 SWAP1 POP JUMP JUMPDEST PUSH2 0x4C5 DUP2 PUSH2 0x4B3 JUMP JUMPDEST DUP3 MSTORE POP POP JUMP JUMPDEST PUSH0 PUSH2 0x4D6 DUP4 DUP4 PUSH2 0x4BC JUMP JUMPDEST PUSH1 0x20 DUP4 ADD SWAP1 POP SWAP3 SWAP2 POP POP JUMP JUMPDEST PUSH0 PUSH1 0x20 DUP3 ADD SWAP1 POP SWAP2 SWAP1 POP JUMP JUMPDEST PUSH0 PUSH2 0x4F8 DUP3 PUSH2 0x48A JUMP JUMPDEST PUSH2 0x502 DUP2 DUP6 PUSH2 0x494 JUMP JUMPDEST SWAP4 POP PUSH2 0x50D DUP4 PUSH2 0x4A4 JUMP JUMPDEST DUP1 PUSH0 JUMPDEST DUP4 DUP2 LT ISZERO PUSH2 0x53D JUMPI DUP2 MLOAD PUSH2 0x524 DUP9 DUP3 PUSH2 0x4CB JUMP JUMPDEST SWAP8 POP PUSH2 0x52F DUP4 PUSH2 0x4E2 JUMP JUMPDEST SWAP3 POP POP PUSH1 0x1 DUP2 ADD SWAP1 POP PUSH2 0x510 JUMP JUMPDEST POP DUP6 SWAP4 POP POP POP POP SWAP3 SWAP2 POP POP JUMP JUMPDEST PUSH0 PUSH1 0x20 DUP3 ADD SWAP1 POP DUP2 DUP2 SUB PUSH0 DUP4 ADD MSTORE PUSH2 0x562 DUP2 DUP5 PUSH2 0x4EE JUMP JUMPDEST SWAP1 POP SWAP3 SWAP2 POP POP JUMP JUMPDEST PUSH2 0x573 DUP2 PUSH2 0x4B3 JUMP JUMPDEST DUP2 EQ PUSH2 0x57D JUMPI PUSH0 PUSH0 REVERT JUMPDEST POP JUMP JUMPDEST PUSH0 DUP2 CALLDATALOAD SWAP1 POP PUSH2 0x58E DUP2 PUSH2 0x56A JUMP JUMPDEST SWAP3 SWAP2 POP POP JUMP JUMPDEST PUSH0 PUSH1 0x20 DUP3 DUP5 SUB SLT ISZERO PUSH2 0x5A9 JUMPI PUSH2 0x5A8 PUSH2 0x3D6 JUMP JUMPDEST JUMPDEST PUSH0 PUSH2 0x5B6 DUP5 DUP3 DUP6 ADD PUSH2 0x580 JUMP JUMPDEST SWAP2 POP POP SWAP3 SWAP2 POP POP JUMP JUMPDEST PUSH2 0x5C8 DUP2 PUSH2 0x4B3 JUMP JUMPDEST DUP3 MSTORE POP POP JUMP JUMPDEST PUSH0 PUSH1 0x20 DUP3 ADD SWAP1 POP PUSH2 0x5E1 PUSH0 DUP4 ADD DUP5 PUSH2 0x5BF JUMP JUMPDEST SWAP3 SWAP2 POP POP JUMP JUMPDEST PUSH0 PUSH1 0x1F NOT PUSH1 0x1F DUP4 ADD AND SWAP1 POP SWAP2 SWAP1 POP JUMP JUMPDEST PUSH32 0x4E487B7100000000000000000000000000000000000000000000000000000000 PUSH0 MSTORE PUSH1 0x41 PUSH1 0x4 MSTORE PUSH1 0x24 PUSH0 REVERT JUMPDEST PUSH2 0x62D DUP3 PUSH2 0x5E7 JUMP JUMPDEST DUP2 ADD DUP2 DUP2 LT PUSH8 0xFFFFFFFFFFFFFFFF DUP3 GT OR ISZERO PUSH2 0x64C JUMPI PUSH2 0x64B PUSH2 0x5F7 JUMP JUMPDEST JUMPDEST DUP1 PUSH1 0x40 MSTORE POP POP POP JUMP JUMPDEST PUSH0 PUSH2 0x65E PUSH2 0x3CD JUMP JUMPDEST SWAP1 POP PUSH2 0x66A DUP3 DUP3 PUSH2 0x624 JUMP JUMPDEST SWAP2 SWAP1 POP JUMP JUMPDEST PUSH0 PUSH8 0xFFFFFFFFFFFFFFFF DUP3 GT ISZERO PUSH2 0x689 JUMPI PUSH2 0x688 PUSH2 0x5F7 JUMP JUMPDEST JUMPDEST PUSH1 0x20 DUP3 MUL SWAP1 POP PUSH1 0x20 DUP2 ADD SWAP1 POP SWAP2 SWAP1 POP JUMP JUMPDEST PUSH0 PUSH2 0x6AC PUSH2 0x6A7 DUP5 PUSH2 0x66F JUMP JUMPDEST PUSH2 0x655 JUMP JUMPDEST SWAP1 POP DUP1 DUP4 DUP3 MSTORE PUSH1 0x20 DUP3 ADD SWAP1 POP PUSH1 0x20 DUP5 MUL DUP4 ADD DUP6 DUP2 GT ISZERO PUSH2 0x6CF JUMPI PUSH2 0x6CE PUSH2 0x3E6 JUMP JUMPDEST JUMPDEST DUP4 JUMPDEST DUP2 DUP2 LT ISZERO PUSH2 0x6F8 JUMPI DUP1 PUSH2 0x6E4 DUP9 DUP3 PUSH2 0x580 JUMP JUMPDEST DUP5 MSTORE PUSH1 0x20 DUP5 ADD SWAP4 POP POP PUSH1 0x20 DUP2 ADD SWAP1 POP PUSH2 0x6D1 JUMP JUMPDEST POP POP POP SWAP4 SWAP3 POP POP POP JUMP JUMPDEST PUSH0 DUP3 PUSH1 0x1F DUP4 ADD SLT PUSH2 0x716 JUMPI PUSH2 0x715 PUSH2 0x3DE JUMP JUMPDEST JUMPDEST DUP2 CALLDATALOAD PUSH2 0x726 DUP5 DUP3 PUSH1 0x20 DUP7 ADD PUSH2 0x69A JUMP JUMPDEST SWAP2 POP POP SWAP3 SWAP2 POP POP JUMP JUMPDEST PUSH0 PUSH1 0x20 DUP3 DUP5 SUB SLT ISZERO PUSH2 0x744 JUMPI PUSH2 0x743 PUSH2 0x3D6 JUMP JUMPDEST JUMPDEST PUSH0 DUP3 ADD CALLDATALOAD PUSH8 0xFFFFFFFFFFFFFFFF DUP2 GT ISZERO PUSH2 0x761 JUMPI PUSH2 0x760 PUSH2 0x3DA JUMP JUMPDEST JUMPDEST PUSH2 0x76D DUP5 DUP3 DUP6 ADD PUSH2 0x702 JUMP JUMPDEST SWAP2 POP POP SWAP3 SWAP2 POP POP JUMP JUMPDEST PUSH0 DUP3 DUP3 MSTORE PUSH1 0x20 DUP3 ADD SWAP1 POP SWAP3 SWAP2 POP POP JUMP JUMPDEST PUSH32 0x456D707479206172726179000000000000000000000000000000000000000000 PUSH0 DUP3 ADD MSTORE POP JUMP JUMPDEST PUSH0 PUSH2 0x7BA PUSH1 0xB DUP4 PUSH2 0x776 JUMP JUMPDEST SWAP2 POP PUSH2 0x7C5 DUP3 PUSH2 0x786 JUMP JUMPDEST PUSH1 0x20 DUP3 ADD SWAP1 POP SWAP2 SWAP1 POP JUMP JUMPDEST PUSH0 PUSH1 0x20 DUP3 ADD SWAP1 POP DUP2 DUP2 SUB PUSH0 DUP4 ADD MSTORE PUSH2 0x7E7 DUP2 PUSH2 0x7AE JUMP JUMPDEST SWAP1 POP SWAP2 SWAP1 POP JUMP JUMPDEST PUSH32 0x417272617920746F6F206C617267650000000000000000000000000000000000 PUSH0 DUP3 ADD MSTORE POP JUMP JUMPDEST PUSH0 PUSH2 0x822 PUSH1 0xF DUP4 PUSH2 0x776 JUMP JUMPDEST SWAP2 POP PUSH2 0x82D DUP3 PUSH2 0x7EE JUMP JUMPDEST PUSH1 0x20 DUP3 ADD SWAP1 POP SWAP2 SWAP1 POP JUMP JUMPDEST PUSH0 PUSH1 0x20 DUP3 ADD SWAP1 POP DUP2 DUP2 SUB PUSH0 DUP4 ADD MSTORE PUSH2 0x84F DUP2 PUSH2 0x816 JUMP JUMPDEST SWAP1 POP SWAP2 SWAP1 POP JUMP JUMPDEST PUSH32 0x4E487B7100000000000000000000000000000000000000000000000000000000 PUSH0 MSTORE PUSH1 0x32 PUSH1 0x4 MSTORE PUSH1 0x24 PUSH0 REVERT JUMPDEST PUSH32 0x4E487B7100000000000000000000000000000000000000000000000000000000 PUSH0 MSTORE PUSH1 0x11 PUSH1 0x4 MSTORE PUSH1 0x24 PUSH0 REVERT JUMPDEST PUSH0 PUSH2 0x8BA DUP3 PUSH2 0x4B3 JUMP JUMPDEST SWAP2 POP PUSH2 0x8C5 DUP4 PUSH2 0x4B3 JUMP JUMPDEST SWAP3 POP DUP3 DUP3 ADD SWAP1 POP DUP1 DUP3 GT ISZERO PUSH2 0x8DD JUMPI PUSH2 0x8DC PUSH2 0x883 JUMP JUMPDEST JUMPDEST SWAP3 SWAP2 POP POP JUMP INVALID LOG2 PUSH5 0x6970667358 0x22 SLT KECCAK256 0xB1 PUSH27 0x387A09EED34FD186EF6115A20803031D367D748B9F879D05C9AF57 KECCAK256 0xB5 SWAP5 PUSH5 0x736F6C6343 STOP ADDMOD 0x22 STOP CALLER "
				},
				"gasEstimates": {
					"creation": {
						"codeDepositCost": "465800",
						"executionCost": "497",
						"totalCost": "466297"
					},
					"external": {
						"MAX_ARRAY_SIZE()": "347",
						"modifyMemory(uint256[])": "infinite",
						"saveValues(uint256[])": "infinite",
						"storedValues(uint256)": "infinite",
						"useCalldata(uint256[])": "infinite",
						"useMemory(uint256[])": "infinite"
					}
				},
				"methodIdentifiers": {
					"MAX_ARRAY_SIZE()": "af7efa7c",
					"modifyMemory(uint256[])": "662ef05b",
					"saveValues(uint256[])": "e4f7d551",
					"storedValues(uint256)": "9e258efe",
					"useCalldata(uint256[])": "c92fa517",
					"useMemory(uint256[])": "e33c702f"
				}
			},
			"storageLayout": {
				"storage": [
					{
						"astId": 129,
						"contract": "prac30.sol:CalldataVsMemory",
						"label": "storedValues",
						"offset": 0,
						"slot": "0",
						"type": "t_array(t_uint256)dyn_storage"
					}
				],
				"types": {
					"t_array(t_uint256)dyn_storage": {
						"base": "t_uint256",
						"encoding": "dynamic_array",
						"label": "uint256[]",
						"numberOfBytes": "32"
					},
					"t_uint256": {
						"encoding": "inplace",
						"label": "uint256",
						"numberOfBytes": "32"
					}
				}
			},
			"userdoc": {
				"kind": "user",
				"methods": {},
				"version": 1
			}
		}
	}
}