{
	"prac39.sol": {
		"MultipleRequireChecks": {
			"abi": [
				{
					"inputs": [],
					"stateMutability": "nonpayable",
					"type": "constructor"
				},
				{
					"inputs": [],
					"name": "MAX_DEPOSIT",
					"outputs": [
						{
							"internalType": "uint256",
							"name": "",
							"type": "uint256"
						}
					],
					"stateMutability": "view",
					"type": "function"
				},
				{
					"inputs": [
						{
							"internalType": "address",
							"name": "",
							"type": "address"
						}
					],
					"name": "balances",
					"outputs": [
						{
							"internalType": "uint256",
							"name": "",
							"type": "uint256"
						}
					],
					"stateMutability": "view",
					"type": "function"
				},
				{
					"inputs": [
						{
							"internalType": "uint256",
							"name": "_amount",
							"type": "uint256"
						}
					],
					"name": "deposit",
					"outputs": [],
					"stateMutability": "nonpayable",
					"type": "function"
				},
				{
					"inputs": [],
					"name": "owner",
					"outputs": [
						{
							"internalType": "address",
							"name": "",
							"type": "address"
						}
					],
					"stateMutability": "view",
					"type": "function"
				},
				{
					"inputs": [
						{
							"internalType": "address",
							"name": "_user",
							"type": "address"
						}
					],
					"name": "resetBalance",
					"outputs": [],
					"stateMutability": "nonpayable",
					"type": "function"
				}
			],
			"devdoc": {
				"kind": "dev",
				"methods": {},
				"version": 1
			},
			"evm": {
				"assembly": "    /* \"prac39.sol\":1786:4126  contract MultipleRequireChecks {... */\n  mstore(0x40, 0x80)\n    /* \"prac39.sol\":2187:2240  constructor() {... */\n  callvalue\n  dup1\n  iszero\n  tag_1\n  jumpi\n  revert(0x00, 0x00)\ntag_1:\n  pop\n    /* \"prac39.sol\":2222:2232  msg.sender */\n  caller\n    /* \"prac39.sol\":2214:2219  owner */\n  0x00\n  0x00\n    /* \"prac39.sol\":2214:2232  owner = msg.sender */\n  0x0100\n  exp\n  dup2\n  sload\n  dup2\n  0xffffffffffffffffffffffffffffffffffffffff\n  mul\n  not\n  and\n  swap1\n  dup4\n  0xffffffffffffffffffffffffffffffffffffffff\n  and\n  mul\n  or\n  swap1\n  sstore\n  pop\n    /* \"prac39.sol\":1786:4126  contract MultipleRequireChecks {... */\n  dataSize(sub_0)\n  dup1\n  dataOffset(sub_0)\n  0x00\n  codecopy\n  0x00\n  return\nstop\n\nsub_0: assembly {\n        /* \"prac39.sol\":1786:4126  contract MultipleRequireChecks {... */\n      mstore(0x40, 0x80)\n      callvalue\n      dup1\n      iszero\n      tag_1\n      jumpi\n      revert(0x00, 0x00)\n    tag_1:\n      pop\n      jumpi(tag_2, lt(calldatasize, 0x04))\n      shr(0xe0, calldataload(0x00))\n      dup1\n      0x27e235e3\n      eq\n      tag_3\n      jumpi\n      dup1\n      0x8da5cb5b\n      eq\n      tag_4\n      jumpi\n      dup1\n      0xb6b55f25\n      eq\n      tag_5\n      jumpi\n      dup1\n      0xbd051844\n      eq\n      tag_6\n      jumpi\n      dup1\n      0xdd5967c3\n      eq\n      tag_7\n      jumpi\n    tag_2:\n      revert(0x00, 0x00)\n        /* \"prac39.sol\":1967:2010  mapping(address => uint256) public balances */\n    tag_3:\n      tag_8\n      0x04\n      dup1\n      calldatasize\n      sub\n      dup2\n      add\n      swap1\n      tag_9\n      swap2\n      swap1\n      tag_10\n      jump\t// in\n    tag_9:\n      tag_11\n      jump\t// in\n    tag_8:\n      mload(0x40)\n      tag_12\n      swap2\n      swap1\n      tag_13\n      jump\t// in\n    tag_12:\n      mload(0x40)\n      dup1\n      swap2\n      sub\n      swap1\n      return\n        /* \"prac39.sol\":1899:1919  address public owner */\n    tag_4:\n      tag_14\n      tag_15\n      jump\t// in\n    tag_14:\n      mload(0x40)\n      tag_16\n      swap2\n      swap1\n      tag_17\n      jump\t// in\n    tag_16:\n      mload(0x40)\n      dup1\n      swap2\n      sub\n      swap1\n      return\n        /* \"prac39.sol\":2406:3255  function deposit(... */\n    tag_5:\n      tag_18\n      0x04\n      dup1\n      calldatasize\n      sub\n      dup2\n      add\n      swap1\n      tag_19\n      swap2\n      swap1\n      tag_20\n      jump\t// in\n    tag_19:\n      tag_21\n      jump\t// in\n    tag_18:\n      stop\n        /* \"prac39.sol\":3421:4123  function resetBalance(... */\n    tag_6:\n      tag_22\n      0x04\n      dup1\n      calldatasize\n      sub\n      dup2\n      add\n      swap1\n      tag_23\n      swap2\n      swap1\n      tag_10\n      jump\t// in\n    tag_23:\n      tag_24\n      jump\t// in\n    tag_22:\n      stop\n        /* \"prac39.sol\":2054:2101  uint256 public constant MAX_DEPOSIT = 100 ether */\n    tag_7:\n      tag_25\n      tag_26\n      jump\t// in\n    tag_25:\n      mload(0x40)\n      tag_27\n      swap2\n      swap1\n      tag_13\n      jump\t// in\n    tag_27:\n      mload(0x40)\n      dup1\n      swap2\n      sub\n      swap1\n      return\n        /* \"prac39.sol\":1967:2010  mapping(address => uint256) public balances */\n    tag_11:\n      mstore(0x20, 0x01)\n      dup1\n      0x00\n      mstore\n      keccak256(0x00, 0x40)\n      0x00\n      swap2\n      pop\n      swap1\n      pop\n      sload\n      dup2\n      jump\t// out\n        /* \"prac39.sol\":1899:1919  address public owner */\n    tag_15:\n      0x00\n      0x00\n      swap1\n      sload\n      swap1\n      0x0100\n      exp\n      swap1\n      div\n      0xffffffffffffffffffffffffffffffffffffffff\n      and\n      dup2\n      jump\t// out\n        /* \"prac39.sol\":2406:3255  function deposit(... */\n    tag_21:\n        /* \"prac39.sol\":2612:2613  0 */\n      0x00\n        /* \"prac39.sol\":2602:2609  _amount */\n      dup2\n        /* \"prac39.sol\":2602:2613  _amount > 0 */\n      gt\n        /* \"prac39.sol\":2580:2659  require(... */\n      tag_29\n      jumpi\n      mload(0x40)\n      0x08c379a000000000000000000000000000000000000000000000000000000000\n      dup2\n      mstore\n      0x04\n      add\n      tag_30\n      swap1\n      tag_31\n      jump\t// in\n    tag_30:\n      mload(0x40)\n      dup1\n      swap2\n      sub\n      swap1\n      revert\n    tag_29:\n        /* \"prac39.sol\":2092:2101  100 ether */\n      0x056bc75e2d63100000\n        /* \"prac39.sol\":2791:2798  _amount */\n      dup2\n        /* \"prac39.sol\":2791:2813  _amount <= MAX_DEPOSIT */\n      gt\n      iszero\n        /* \"prac39.sol\":2769:2858  require(... */\n      tag_32\n      jumpi\n      mload(0x40)\n      0x08c379a000000000000000000000000000000000000000000000000000000000\n      dup2\n      mstore\n      0x04\n      add\n      tag_33\n      swap1\n      tag_34\n      jump\t// in\n    tag_33:\n      mload(0x40)\n      dup1\n      swap2\n      sub\n      swap1\n      revert\n    tag_32:\n        /* \"prac39.sol\":3045:3055  1000 ether */\n      0x3635c9adc5dea00000\n        /* \"prac39.sol\":3017:3024  _amount */\n      dup2\n        /* \"prac39.sol\":2994:3002  balances */\n      0x01\n        /* \"prac39.sol\":2994:3014  balances[msg.sender] */\n      0x00\n        /* \"prac39.sol\":3003:3013  msg.sender */\n      caller\n        /* \"prac39.sol\":2994:3014  balances[msg.sender] */\n      0xffffffffffffffffffffffffffffffffffffffff\n      and\n      0xffffffffffffffffffffffffffffffffffffffff\n      and\n      dup2\n      mstore\n      0x20\n      add\n      swap1\n      dup2\n      mstore\n      0x20\n      add\n      0x00\n      keccak256\n      sload\n        /* \"prac39.sol\":2994:3024  balances[msg.sender] + _amount */\n      tag_35\n      swap2\n      swap1\n      tag_36\n      jump\t// in\n    tag_35:\n        /* \"prac39.sol\":2994:3055  balances[msg.sender] + _amount... */\n      gt\n      iszero\n        /* \"prac39.sol\":2972:3105  require(... */\n      tag_37\n      jumpi\n      mload(0x40)\n      0x08c379a000000000000000000000000000000000000000000000000000000000\n      dup2\n      mstore\n      0x04\n      add\n      tag_38\n      swap1\n      tag_39\n      jump\t// in\n    tag_38:\n      mload(0x40)\n      dup1\n      swap2\n      sub\n      swap1\n      revert\n    tag_37:\n        /* \"prac39.sol\":3240:3247  _amount */\n      dup1\n        /* \"prac39.sol\":3216:3224  balances */\n      0x01\n        /* \"prac39.sol\":3216:3236  balances[msg.sender] */\n      0x00\n        /* \"prac39.sol\":3225:3235  msg.sender */\n      caller\n        /* \"prac39.sol\":3216:3236  balances[msg.sender] */\n      0xffffffffffffffffffffffffffffffffffffffff\n      and\n      0xffffffffffffffffffffffffffffffffffffffff\n      and\n      dup2\n      mstore\n      0x20\n      add\n      swap1\n      dup2\n      mstore\n      0x20\n      add\n      0x00\n      keccak256\n      0x00\n        /* \"prac39.sol\":3216:3247  balances[msg.sender] += _amount */\n      dup3\n      dup3\n      sload\n      tag_40\n      swap2\n      swap1\n      tag_36\n      jump\t// in\n    tag_40:\n      swap3\n      pop\n      pop\n      dup2\n      swap1\n      sstore\n      pop\n        /* \"prac39.sol\":2406:3255  function deposit(... */\n      pop\n      jump\t// out\n        /* \"prac39.sol\":3421:4123  function resetBalance(... */\n    tag_24:\n        /* \"prac39.sol\":3625:3630  owner */\n      0x00\n      0x00\n      swap1\n      sload\n      swap1\n      0x0100\n      exp\n      swap1\n      div\n      0xffffffffffffffffffffffffffffffffffffffff\n      and\n        /* \"prac39.sol\":3611:3630  msg.sender == owner */\n      0xffffffffffffffffffffffffffffffffffffffff\n      and\n        /* \"prac39.sol\":3611:3621  msg.sender */\n      caller\n        /* \"prac39.sol\":3611:3630  msg.sender == owner */\n      0xffffffffffffffffffffffffffffffffffffffff\n      and\n      eq\n        /* \"prac39.sol\":3589:3667  require(... */\n      tag_42\n      jumpi\n      mload(0x40)\n      0x08c379a000000000000000000000000000000000000000000000000000000000\n      dup2\n      mstore\n      0x04\n      add\n      tag_43\n      swap1\n      tag_44\n      jump\t// in\n    tag_43:\n      mload(0x40)\n      dup1\n      swap2\n      sub\n      swap1\n      revert\n    tag_42:\n        /* \"prac39.sol\":3803:3804  0 */\n      0x00\n        /* \"prac39.sol\":3786:3805  _user != address(0) */\n      0xffffffffffffffffffffffffffffffffffffffff\n      and\n        /* \"prac39.sol\":3786:3791  _user */\n      dup2\n        /* \"prac39.sol\":3786:3805  _user != address(0) */\n      0xffffffffffffffffffffffffffffffffffffffff\n      and\n      sub\n        /* \"prac39.sol\":3764:3848  require(... */\n      tag_45\n      jumpi\n      mload(0x40)\n      0x08c379a000000000000000000000000000000000000000000000000000000000\n      dup2\n      mstore\n      0x04\n      add\n      tag_46\n      swap1\n      tag_47\n      jump\t// in\n    tag_46:\n      mload(0x40)\n      dup1\n      swap2\n      sub\n      swap1\n      revert\n    tag_45:\n        /* \"prac39.sol\":3988:3989  0 */\n      0x00\n        /* \"prac39.sol\":3970:3978  balances */\n      0x01\n        /* \"prac39.sol\":3970:3985  balances[_user] */\n      0x00\n        /* \"prac39.sol\":3979:3984  _user */\n      dup4\n        /* \"prac39.sol\":3970:3985  balances[_user] */\n      0xffffffffffffffffffffffffffffffffffffffff\n      and\n      0xffffffffffffffffffffffffffffffffffffffff\n      and\n      dup2\n      mstore\n      0x20\n      add\n      swap1\n      dup2\n      mstore\n      0x20\n      add\n      0x00\n      keccak256\n      sload\n        /* \"prac39.sol\":3970:3989  balances[_user] > 0 */\n      gt\n        /* \"prac39.sol\":3948:4027  require(... */\n      tag_48\n      jumpi\n      mload(0x40)\n      0x08c379a000000000000000000000000000000000000000000000000000000000\n      dup2\n      mstore\n      0x04\n      add\n      tag_49\n      swap1\n      tag_50\n      jump\t// in\n    tag_49:\n      mload(0x40)\n      dup1\n      swap2\n      sub\n      swap1\n      revert\n    tag_48:\n        /* \"prac39.sol\":4114:4115  0 */\n      0x00\n        /* \"prac39.sol\":4096:4104  balances */\n      0x01\n        /* \"prac39.sol\":4096:4111  balances[_user] */\n      0x00\n        /* \"prac39.sol\":4105:4110  _user */\n      dup4\n        /* \"prac39.sol\":4096:4111  balances[_user] */\n      0xffffffffffffffffffffffffffffffffffffffff\n      and\n      0xffffffffffffffffffffffffffffffffffffffff\n      and\n      dup2\n      mstore\n      0x20\n      add\n      swap1\n      dup2\n      mstore\n      0x20\n      add\n      0x00\n      keccak256\n        /* \"prac39.sol\":4096:4115  balances[_user] = 0 */\n      dup2\n      swap1\n      sstore\n      pop\n        /* \"prac39.sol\":3421:4123  function resetBalance(... */\n      pop\n      jump\t// out\n        /* \"prac39.sol\":2054:2101  uint256 public constant MAX_DEPOSIT = 100 ether */\n    tag_26:\n        /* \"prac39.sol\":2092:2101  100 ether */\n      0x056bc75e2d63100000\n        /* \"prac39.sol\":2054:2101  uint256 public constant MAX_DEPOSIT = 100 ether */\n      dup2\n      jump\t// out\n        /* \"#utility.yul\":88:205   */\n    tag_52:\n        /* \"#utility.yul\":197:198   */\n      0x00\n        /* \"#utility.yul\":194:195   */\n      0x00\n        /* \"#utility.yul\":187:199   */\n      revert\n        /* \"#utility.yul\":334:460   */\n    tag_54:\n        /* \"#utility.yul\":371:378   */\n      0x00\n        /* \"#utility.yul\":411:453   */\n      0xffffffffffffffffffffffffffffffffffffffff\n        /* \"#utility.yul\":404:409   */\n      dup3\n        /* \"#utility.yul\":400:454   */\n      and\n        /* \"#utility.yul\":389:454   */\n      swap1\n      pop\n        /* \"#utility.yul\":334:460   */\n      swap2\n      swap1\n      pop\n      jump\t// out\n        /* \"#utility.yul\":466:562   */\n    tag_55:\n        /* \"#utility.yul\":503:510   */\n      0x00\n        /* \"#utility.yul\":532:556   */\n      tag_83\n        /* \"#utility.yul\":550:555   */\n      dup3\n        /* \"#utility.yul\":532:556   */\n      tag_54\n      jump\t// in\n    tag_83:\n        /* \"#utility.yul\":521:556   */\n      swap1\n      pop\n        /* \"#utility.yul\":466:562   */\n      swap2\n      swap1\n      pop\n      jump\t// out\n        /* \"#utility.yul\":568:690   */\n    tag_56:\n        /* \"#utility.yul\":641:665   */\n      tag_85\n        /* \"#utility.yul\":659:664   */\n      dup2\n        /* \"#utility.yul\":641:665   */\n      tag_55\n      jump\t// in\n    tag_85:\n        /* \"#utility.yul\":634:639   */\n      dup2\n        /* \"#utility.yul\":631:666   */\n      eq\n        /* \"#utility.yul\":621:684   */\n      tag_86\n      jumpi\n        /* \"#utility.yul\":680:681   */\n      0x00\n        /* \"#utility.yul\":677:678   */\n      0x00\n        /* \"#utility.yul\":670:682   */\n      revert\n        /* \"#utility.yul\":621:684   */\n    tag_86:\n        /* \"#utility.yul\":568:690   */\n      pop\n      jump\t// out\n        /* \"#utility.yul\":696:835   */\n    tag_57:\n        /* \"#utility.yul\":742:747   */\n      0x00\n        /* \"#utility.yul\":780:786   */\n      dup2\n        /* \"#utility.yul\":767:787   */\n      calldataload\n        /* \"#utility.yul\":758:787   */\n      swap1\n      pop\n        /* \"#utility.yul\":796:829   */\n      tag_88\n        /* \"#utility.yul\":823:828   */\n      dup2\n        /* \"#utility.yul\":796:829   */\n      tag_56\n      jump\t// in\n    tag_88:\n        /* \"#utility.yul\":696:835   */\n      swap3\n      swap2\n      pop\n      pop\n      jump\t// out\n        /* \"#utility.yul\":841:1170   */\n    tag_10:\n        /* \"#utility.yul\":900:906   */\n      0x00\n        /* \"#utility.yul\":949:951   */\n      0x20\n        /* \"#utility.yul\":937:946   */\n      dup3\n        /* \"#utility.yul\":928:935   */\n      dup5\n        /* \"#utility.yul\":924:947   */\n      sub\n        /* \"#utility.yul\":920:952   */\n      slt\n        /* \"#utility.yul\":917:1036   */\n      iszero\n      tag_90\n      jumpi\n        /* \"#utility.yul\":955:1034   */\n      tag_91\n      tag_52\n      jump\t// in\n    tag_91:\n        /* \"#utility.yul\":917:1036   */\n    tag_90:\n        /* \"#utility.yul\":1075:1076   */\n      0x00\n        /* \"#utility.yul\":1100:1153   */\n      tag_92\n        /* \"#utility.yul\":1145:1152   */\n      dup5\n        /* \"#utility.yul\":1136:1142   */\n      dup3\n        /* \"#utility.yul\":1125:1134   */\n      dup6\n        /* \"#utility.yul\":1121:1143   */\n      add\n        /* \"#utility.yul\":1100:1153   */\n      tag_57\n      jump\t// in\n    tag_92:\n        /* \"#utility.yul\":1090:1153   */\n      swap2\n      pop\n        /* \"#utility.yul\":1046:1163   */\n      pop\n        /* \"#utility.yul\":841:1170   */\n      swap3\n      swap2\n      pop\n      pop\n      jump\t// out\n        /* \"#utility.yul\":1176:1253   */\n    tag_58:\n        /* \"#utility.yul\":1213:1220   */\n      0x00\n        /* \"#utility.yul\":1242:1247   */\n      dup2\n        /* \"#utility.yul\":1231:1247   */\n      swap1\n      pop\n        /* \"#utility.yul\":1176:1253   */\n      swap2\n      swap1\n      pop\n      jump\t// out\n        /* \"#utility.yul\":1259:1377   */\n    tag_59:\n        /* \"#utility.yul\":1346:1370   */\n      tag_95\n        /* \"#utility.yul\":1364:1369   */\n      dup2\n        /* \"#utility.yul\":1346:1370   */\n      tag_58\n      jump\t// in\n    tag_95:\n        /* \"#utility.yul\":1341:1344   */\n      dup3\n        /* \"#utility.yul\":1334:1371   */\n      mstore\n        /* \"#utility.yul\":1259:1377   */\n      pop\n      pop\n      jump\t// out\n        /* \"#utility.yul\":1383:1605   */\n    tag_13:\n        /* \"#utility.yul\":1476:1480   */\n      0x00\n        /* \"#utility.yul\":1514:1516   */\n      0x20\n        /* \"#utility.yul\":1503:1512   */\n      dup3\n        /* \"#utility.yul\":1499:1517   */\n      add\n        /* \"#utility.yul\":1491:1517   */\n      swap1\n      pop\n        /* \"#utility.yul\":1527:1598   */\n      tag_97\n        /* \"#utility.yul\":1595:1596   */\n      0x00\n        /* \"#utility.yul\":1584:1593   */\n      dup4\n        /* \"#utility.yul\":1580:1597   */\n      add\n        /* \"#utility.yul\":1571:1577   */\n      dup5\n        /* \"#utility.yul\":1527:1598   */\n      tag_59\n      jump\t// in\n    tag_97:\n        /* \"#utility.yul\":1383:1605   */\n      swap3\n      swap2\n      pop\n      pop\n      jump\t// out\n        /* \"#utility.yul\":1611:1729   */\n    tag_60:\n        /* \"#utility.yul\":1698:1722   */\n      tag_99\n        /* \"#utility.yul\":1716:1721   */\n      dup2\n        /* \"#utility.yul\":1698:1722   */\n      tag_55\n      jump\t// in\n    tag_99:\n        /* \"#utility.yul\":1693:1696   */\n      dup3\n        /* \"#utility.yul\":1686:1723   */\n      mstore\n        /* \"#utility.yul\":1611:1729   */\n      pop\n      pop\n      jump\t// out\n        /* \"#utility.yul\":1735:1957   */\n    tag_17:\n        /* \"#utility.yul\":1828:1832   */\n      0x00\n        /* \"#utility.yul\":1866:1868   */\n      0x20\n        /* \"#utility.yul\":1855:1864   */\n      dup3\n        /* \"#utility.yul\":1851:1869   */\n      add\n        /* \"#utility.yul\":1843:1869   */\n      swap1\n      pop\n        /* \"#utility.yul\":1879:1950   */\n      tag_101\n        /* \"#utility.yul\":1947:1948   */\n      0x00\n        /* \"#utility.yul\":1936:1945   */\n      dup4\n        /* \"#utility.yul\":1932:1949   */\n      add\n        /* \"#utility.yul\":1923:1929   */\n      dup5\n        /* \"#utility.yul\":1879:1950   */\n      tag_60\n      jump\t// in\n    tag_101:\n        /* \"#utility.yul\":1735:1957   */\n      swap3\n      swap2\n      pop\n      pop\n      jump\t// out\n        /* \"#utility.yul\":1963:2085   */\n    tag_61:\n        /* \"#utility.yul\":2036:2060   */\n      tag_103\n        /* \"#utility.yul\":2054:2059   */\n      dup2\n        /* \"#utility.yul\":2036:2060   */\n      tag_58\n      jump\t// in\n    tag_103:\n        /* \"#utility.yul\":2029:2034   */\n      dup2\n        /* \"#utility.yul\":2026:2061   */\n      eq\n        /* \"#utility.yul\":2016:2079   */\n      tag_104\n      jumpi\n        /* \"#utility.yul\":2075:2076   */\n      0x00\n        /* \"#utility.yul\":2072:2073   */\n      0x00\n        /* \"#utility.yul\":2065:2077   */\n      revert\n        /* \"#utility.yul\":2016:2079   */\n    tag_104:\n        /* \"#utility.yul\":1963:2085   */\n      pop\n      jump\t// out\n        /* \"#utility.yul\":2091:2230   */\n    tag_62:\n        /* \"#utility.yul\":2137:2142   */\n      0x00\n        /* \"#utility.yul\":2175:2181   */\n      dup2\n        /* \"#utility.yul\":2162:2182   */\n      calldataload\n        /* \"#utility.yul\":2153:2182   */\n      swap1\n      pop\n        /* \"#utility.yul\":2191:2224   */\n      tag_106\n        /* \"#utility.yul\":2218:2223   */\n      dup2\n        /* \"#utility.yul\":2191:2224   */\n      tag_61\n      jump\t// in\n    tag_106:\n        /* \"#utility.yul\":2091:2230   */\n      swap3\n      swap2\n      pop\n      pop\n      jump\t// out\n        /* \"#utility.yul\":2236:2565   */\n    tag_20:\n        /* \"#utility.yul\":2295:2301   */\n      0x00\n        /* \"#utility.yul\":2344:2346   */\n      0x20\n        /* \"#utility.yul\":2332:2341   */\n      dup3\n        /* \"#utility.yul\":2323:2330   */\n      dup5\n        /* \"#utility.yul\":2319:2342   */\n      sub\n        /* \"#utility.yul\":2315:2347   */\n      slt\n        /* \"#utility.yul\":2312:2431   */\n      iszero\n      tag_108\n      jumpi\n        /* \"#utility.yul\":2350:2429   */\n      tag_109\n      tag_52\n      jump\t// in\n    tag_109:\n        /* \"#utility.yul\":2312:2431   */\n    tag_108:\n        /* \"#utility.yul\":2470:2471   */\n      0x00\n        /* \"#utility.yul\":2495:2548   */\n      tag_110\n        /* \"#utility.yul\":2540:2547   */\n      dup5\n        /* \"#utility.yul\":2531:2537   */\n      dup3\n        /* \"#utility.yul\":2520:2529   */\n      dup6\n        /* \"#utility.yul\":2516:2538   */\n      add\n        /* \"#utility.yul\":2495:2548   */\n      tag_62\n      jump\t// in\n    tag_110:\n        /* \"#utility.yul\":2485:2548   */\n      swap2\n      pop\n        /* \"#utility.yul\":2441:2558   */\n      pop\n        /* \"#utility.yul\":2236:2565   */\n      swap3\n      swap2\n      pop\n      pop\n      jump\t// out\n        /* \"#utility.yul\":2571:2740   */\n    tag_63:\n        /* \"#utility.yul\":2655:2666   */\n      0x00\n        /* \"#utility.yul\":2689:2695   */\n      dup3\n        /* \"#utility.yul\":2684:2687   */\n      dup3\n        /* \"#utility.yul\":2677:2696   */\n      mstore\n        /* \"#utility.yul\":2729:2733   */\n      0x20\n        /* \"#utility.yul\":2724:2727   */\n      dup3\n        /* \"#utility.yul\":2720:2734   */\n      add\n        /* \"#utility.yul\":2705:2734   */\n      swap1\n      pop\n        /* \"#utility.yul\":2571:2740   */\n      swap3\n      swap2\n      pop\n      pop\n      jump\t// out\n        /* \"#utility.yul\":2746:2914   */\n    tag_64:\n        /* \"#utility.yul\":2886:2906   */\n      0x416d6f756e74206d757374206265203e20300000000000000000000000000000\n        /* \"#utility.yul\":2882:2883   */\n      0x00\n        /* \"#utility.yul\":2874:2880   */\n      dup3\n        /* \"#utility.yul\":2870:2884   */\n      add\n        /* \"#utility.yul\":2863:2907   */\n      mstore\n        /* \"#utility.yul\":2746:2914   */\n      pop\n      jump\t// out\n        /* \"#utility.yul\":2920:3286   */\n    tag_65:\n        /* \"#utility.yul\":3062:3065   */\n      0x00\n        /* \"#utility.yul\":3083:3150   */\n      tag_114\n        /* \"#utility.yul\":3147:3149   */\n      0x12\n        /* \"#utility.yul\":3142:3145   */\n      dup4\n        /* \"#utility.yul\":3083:3150   */\n      tag_63\n      jump\t// in\n    tag_114:\n        /* \"#utility.yul\":3076:3150   */\n      swap2\n      pop\n        /* \"#utility.yul\":3159:3252   */\n      tag_115\n        /* \"#utility.yul\":3248:3251   */\n      dup3\n        /* \"#utility.yul\":3159:3252   */\n      tag_64\n      jump\t// in\n    tag_115:\n        /* \"#utility.yul\":3277:3279   */\n      0x20\n        /* \"#utility.yul\":3272:3275   */\n      dup3\n        /* \"#utility.yul\":3268:3280   */\n      add\n        /* \"#utility.yul\":3261:3280   */\n      swap1\n      pop\n        /* \"#utility.yul\":2920:3286   */\n      swap2\n      swap1\n      pop\n      jump\t// out\n        /* \"#utility.yul\":3292:3711   */\n    tag_31:\n        /* \"#utility.yul\":3458:3462   */\n      0x00\n        /* \"#utility.yul\":3496:3498   */\n      0x20\n        /* \"#utility.yul\":3485:3494   */\n      dup3\n        /* \"#utility.yul\":3481:3499   */\n      add\n        /* \"#utility.yul\":3473:3499   */\n      swap1\n      pop\n        /* \"#utility.yul\":3545:3554   */\n      dup2\n        /* \"#utility.yul\":3539:3543   */\n      dup2\n        /* \"#utility.yul\":3535:3555   */\n      sub\n        /* \"#utility.yul\":3531:3532   */\n      0x00\n        /* \"#utility.yul\":3520:3529   */\n      dup4\n        /* \"#utility.yul\":3516:3533   */\n      add\n        /* \"#utility.yul\":3509:3556   */\n      mstore\n        /* \"#utility.yul\":3573:3704   */\n      tag_117\n        /* \"#utility.yul\":3699:3703   */\n      dup2\n        /* \"#utility.yul\":3573:3704   */\n      tag_65\n      jump\t// in\n    tag_117:\n        /* \"#utility.yul\":3565:3704   */\n      swap1\n      pop\n        /* \"#utility.yul\":3292:3711   */\n      swap2\n      swap1\n      pop\n      jump\t// out\n        /* \"#utility.yul\":3717:3884   */\n    tag_66:\n        /* \"#utility.yul\":3857:3876   */\n      0x4465706f73697420746f6f206c61726765000000000000000000000000000000\n        /* \"#utility.yul\":3853:3854   */\n      0x00\n        /* \"#utility.yul\":3845:3851   */\n      dup3\n        /* \"#utility.yul\":3841:3855   */\n      add\n        /* \"#utility.yul\":3834:3877   */\n      mstore\n        /* \"#utility.yul\":3717:3884   */\n      pop\n      jump\t// out\n        /* \"#utility.yul\":3890:4256   */\n    tag_67:\n        /* \"#utility.yul\":4032:4035   */\n      0x00\n        /* \"#utility.yul\":4053:4120   */\n      tag_120\n        /* \"#utility.yul\":4117:4119   */\n      0x11\n        /* \"#utility.yul\":4112:4115   */\n      dup4\n        /* \"#utility.yul\":4053:4120   */\n      tag_63\n      jump\t// in\n    tag_120:\n        /* \"#utility.yul\":4046:4120   */\n      swap2\n      pop\n        /* \"#utility.yul\":4129:4222   */\n      tag_121\n        /* \"#utility.yul\":4218:4221   */\n      dup3\n        /* \"#utility.yul\":4129:4222   */\n      tag_66\n      jump\t// in\n    tag_121:\n        /* \"#utility.yul\":4247:4249   */\n      0x20\n        /* \"#utility.yul\":4242:4245   */\n      dup3\n        /* \"#utility.yul\":4238:4250   */\n      add\n        /* \"#utility.yul\":4231:4250   */\n      swap1\n      pop\n        /* \"#utility.yul\":3890:4256   */\n      swap2\n      swap1\n      pop\n      jump\t// out\n        /* \"#utility.yul\":4262:4681   */\n    tag_34:\n        /* \"#utility.yul\":4428:4432   */\n      0x00\n        /* \"#utility.yul\":4466:4468   */\n      0x20\n        /* \"#utility.yul\":4455:4464   */\n      dup3\n        /* \"#utility.yul\":4451:4469   */\n      add\n        /* \"#utility.yul\":4443:4469   */\n      swap1\n      pop\n        /* \"#utility.yul\":4515:4524   */\n      dup2\n        /* \"#utility.yul\":4509:4513   */\n      dup2\n        /* \"#utility.yul\":4505:4525   */\n      sub\n        /* \"#utility.yul\":4501:4502   */\n      0x00\n        /* \"#utility.yul\":4490:4499   */\n      dup4\n        /* \"#utility.yul\":4486:4503   */\n      add\n        /* \"#utility.yul\":4479:4526   */\n      mstore\n        /* \"#utility.yul\":4543:4674   */\n      tag_123\n        /* \"#utility.yul\":4669:4673   */\n      dup2\n        /* \"#utility.yul\":4543:4674   */\n      tag_67\n      jump\t// in\n    tag_123:\n        /* \"#utility.yul\":4535:4674   */\n      swap1\n      pop\n        /* \"#utility.yul\":4262:4681   */\n      swap2\n      swap1\n      pop\n      jump\t// out\n        /* \"#utility.yul\":4687:4867   */\n    tag_68:\n        /* \"#utility.yul\":4735:4812   */\n      0x4e487b7100000000000000000000000000000000000000000000000000000000\n        /* \"#utility.yul\":4732:4733   */\n      0x00\n        /* \"#utility.yul\":4725:4813   */\n      mstore\n        /* \"#utility.yul\":4832:4836   */\n      0x11\n        /* \"#utility.yul\":4829:4830   */\n      0x04\n        /* \"#utility.yul\":4822:4837   */\n      mstore\n        /* \"#utility.yul\":4856:4860   */\n      0x24\n        /* \"#utility.yul\":4853:4854   */\n      0x00\n        /* \"#utility.yul\":4846:4861   */\n      revert\n        /* \"#utility.yul\":4873:5064   */\n    tag_36:\n        /* \"#utility.yul\":4913:4916   */\n      0x00\n        /* \"#utility.yul\":4932:4952   */\n      tag_126\n        /* \"#utility.yul\":4950:4951   */\n      dup3\n        /* \"#utility.yul\":4932:4952   */\n      tag_58\n      jump\t// in\n    tag_126:\n        /* \"#utility.yul\":4927:4952   */\n      swap2\n      pop\n        /* \"#utility.yul\":4966:4986   */\n      tag_127\n        /* \"#utility.yul\":4984:4985   */\n      dup4\n        /* \"#utility.yul\":4966:4986   */\n      tag_58\n      jump\t// in\n    tag_127:\n        /* \"#utility.yul\":4961:4986   */\n      swap3\n      pop\n        /* \"#utility.yul\":5009:5010   */\n      dup3\n        /* \"#utility.yul\":5006:5007   */\n      dup3\n        /* \"#utility.yul\":5002:5011   */\n      add\n        /* \"#utility.yul\":4995:5011   */\n      swap1\n      pop\n        /* \"#utility.yul\":5030:5033   */\n      dup1\n        /* \"#utility.yul\":5027:5028   */\n      dup3\n        /* \"#utility.yul\":5024:5034   */\n      gt\n        /* \"#utility.yul\":5021:5057   */\n      iszero\n      tag_128\n      jumpi\n        /* \"#utility.yul\":5037:5055   */\n      tag_129\n      tag_68\n      jump\t// in\n    tag_129:\n        /* \"#utility.yul\":5021:5057   */\n    tag_128:\n        /* \"#utility.yul\":4873:5064   */\n      swap3\n      swap2\n      pop\n      pop\n      jump\t// out\n        /* \"#utility.yul\":5070:5242   */\n    tag_69:\n        /* \"#utility.yul\":5210:5234   */\n      0x42616c616e6365206c696d697420657863656564656400000000000000000000\n        /* \"#utility.yul\":5206:5207   */\n      0x00\n        /* \"#utility.yul\":5198:5204   */\n      dup3\n        /* \"#utility.yul\":5194:5208   */\n      add\n        /* \"#utility.yul\":5187:5235   */\n      mstore\n        /* \"#utility.yul\":5070:5242   */\n      pop\n      jump\t// out\n        /* \"#utility.yul\":5248:5614   */\n    tag_70:\n        /* \"#utility.yul\":5390:5393   */\n      0x00\n        /* \"#utility.yul\":5411:5478   */\n      tag_132\n        /* \"#utility.yul\":5475:5477   */\n      0x16\n        /* \"#utility.yul\":5470:5473   */\n      dup4\n        /* \"#utility.yul\":5411:5478   */\n      tag_63\n      jump\t// in\n    tag_132:\n        /* \"#utility.yul\":5404:5478   */\n      swap2\n      pop\n        /* \"#utility.yul\":5487:5580   */\n      tag_133\n        /* \"#utility.yul\":5576:5579   */\n      dup3\n        /* \"#utility.yul\":5487:5580   */\n      tag_69\n      jump\t// in\n    tag_133:\n        /* \"#utility.yul\":5605:5607   */\n      0x20\n        /* \"#utility.yul\":5600:5603   */\n      dup3\n        /* \"#utility.yul\":5596:5608   */\n      add\n        /* \"#utility.yul\":5589:5608   */\n      swap1\n      pop\n        /* \"#utility.yul\":5248:5614   */\n      swap2\n      swap1\n      pop\n      jump\t// out\n        /* \"#utility.yul\":5620:6039   */\n    tag_39:\n        /* \"#utility.yul\":5786:5790   */\n      0x00\n        /* \"#utility.yul\":5824:5826   */\n      0x20\n        /* \"#utility.yul\":5813:5822   */\n      dup3\n        /* \"#utility.yul\":5809:5827   */\n      add\n        /* \"#utility.yul\":5801:5827   */\n      swap1\n      pop\n        /* \"#utility.yul\":5873:5882   */\n      dup2\n        /* \"#utility.yul\":5867:5871   */\n      dup2\n        /* \"#utility.yul\":5863:5883   */\n      sub\n        /* \"#utility.yul\":5859:5860   */\n      0x00\n        /* \"#utility.yul\":5848:5857   */\n      dup4\n        /* \"#utility.yul\":5844:5861   */\n      add\n        /* \"#utility.yul\":5837:5884   */\n      mstore\n        /* \"#utility.yul\":5901:6032   */\n      tag_135\n        /* \"#utility.yul\":6027:6031   */\n      dup2\n        /* \"#utility.yul\":5901:6032   */\n      tag_70\n      jump\t// in\n    tag_135:\n        /* \"#utility.yul\":5893:6032   */\n      swap1\n      pop\n        /* \"#utility.yul\":5620:6039   */\n      swap2\n      swap1\n      pop\n      jump\t// out\n        /* \"#utility.yul\":6045:6204   */\n    tag_71:\n        /* \"#utility.yul\":6185:6196   */\n      0x4e6f74206f776e65720000000000000000000000000000000000000000000000\n        /* \"#utility.yul\":6181:6182   */\n      0x00\n        /* \"#utility.yul\":6173:6179   */\n      dup3\n        /* \"#utility.yul\":6169:6183   */\n      add\n        /* \"#utility.yul\":6162:6197   */\n      mstore\n        /* \"#utility.yul\":6045:6204   */\n      pop\n      jump\t// out\n        /* \"#utility.yul\":6210:6575   */\n    tag_72:\n        /* \"#utility.yul\":6352:6355   */\n      0x00\n        /* \"#utility.yul\":6373:6439   */\n      tag_138\n        /* \"#utility.yul\":6437:6438   */\n      0x09\n        /* \"#utility.yul\":6432:6435   */\n      dup4\n        /* \"#utility.yul\":6373:6439   */\n      tag_63\n      jump\t// in\n    tag_138:\n        /* \"#utility.yul\":6366:6439   */\n      swap2\n      pop\n        /* \"#utility.yul\":6448:6541   */\n      tag_139\n        /* \"#utility.yul\":6537:6540   */\n      dup3\n        /* \"#utility.yul\":6448:6541   */\n      tag_71\n      jump\t// in\n    tag_139:\n        /* \"#utility.yul\":6566:6568   */\n      0x20\n        /* \"#utility.yul\":6561:6564   */\n      dup3\n        /* \"#utility.yul\":6557:6569   */\n      add\n        /* \"#utility.yul\":6550:6569   */\n      swap1\n      pop\n        /* \"#utility.yul\":6210:6575   */\n      swap2\n      swap1\n      pop\n      jump\t// out\n        /* \"#utility.yul\":6581:7000   */\n    tag_44:\n        /* \"#utility.yul\":6747:6751   */\n      0x00\n        /* \"#utility.yul\":6785:6787   */\n      0x20\n        /* \"#utility.yul\":6774:6783   */\n      dup3\n        /* \"#utility.yul\":6770:6788   */\n      add\n        /* \"#utility.yul\":6762:6788   */\n      swap1\n      pop\n        /* \"#utility.yul\":6834:6843   */\n      dup2\n        /* \"#utility.yul\":6828:6832   */\n      dup2\n        /* \"#utility.yul\":6824:6844   */\n      sub\n        /* \"#utility.yul\":6820:6821   */\n      0x00\n        /* \"#utility.yul\":6809:6818   */\n      dup4\n        /* \"#utility.yul\":6805:6822   */\n      add\n        /* \"#utility.yul\":6798:6845   */\n      mstore\n        /* \"#utility.yul\":6862:6993   */\n      tag_141\n        /* \"#utility.yul\":6988:6992   */\n      dup2\n        /* \"#utility.yul\":6862:6993   */\n      tag_72\n      jump\t// in\n    tag_141:\n        /* \"#utility.yul\":6854:6993   */\n      swap1\n      pop\n        /* \"#utility.yul\":6581:7000   */\n      swap2\n      swap1\n      pop\n      jump\t// out\n        /* \"#utility.yul\":7006:7171   */\n    tag_73:\n        /* \"#utility.yul\":7146:7163   */\n      0x496e76616c696420616464726573730000000000000000000000000000000000\n        /* \"#utility.yul\":7142:7143   */\n      0x00\n        /* \"#utility.yul\":7134:7140   */\n      dup3\n        /* \"#utility.yul\":7130:7144   */\n      add\n        /* \"#utility.yul\":7123:7164   */\n      mstore\n        /* \"#utility.yul\":7006:7171   */\n      pop\n      jump\t// out\n        /* \"#utility.yul\":7177:7543   */\n    tag_74:\n        /* \"#utility.yul\":7319:7322   */\n      0x00\n        /* \"#utility.yul\":7340:7407   */\n      tag_144\n        /* \"#utility.yul\":7404:7406   */\n      0x0f\n        /* \"#utility.yul\":7399:7402   */\n      dup4\n        /* \"#utility.yul\":7340:7407   */\n      tag_63\n      jump\t// in\n    tag_144:\n        /* \"#utility.yul\":7333:7407   */\n      swap2\n      pop\n        /* \"#utility.yul\":7416:7509   */\n      tag_145\n        /* \"#utility.yul\":7505:7508   */\n      dup3\n        /* \"#utility.yul\":7416:7509   */\n      tag_73\n      jump\t// in\n    tag_145:\n        /* \"#utility.yul\":7534:7536   */\n      0x20\n        /* \"#utility.yul\":7529:7532   */\n      dup3\n        /* \"#utility.yul\":7525:7537   */\n      add\n        /* \"#utility.yul\":7518:7537   */\n      swap1\n      pop\n        /* \"#utility.yul\":7177:7543   */\n      swap2\n      swap1\n      pop\n      jump\t// out\n        /* \"#utility.yul\":7549:7968   */\n    tag_47:\n        /* \"#utility.yul\":7715:7719   */\n      0x00\n        /* \"#utility.yul\":7753:7755   */\n      0x20\n        /* \"#utility.yul\":7742:7751   */\n      dup3\n        /* \"#utility.yul\":7738:7756   */\n      add\n        /* \"#utility.yul\":7730:7756   */\n      swap1\n      pop\n        /* \"#utility.yul\":7802:7811   */\n      dup2\n        /* \"#utility.yul\":7796:7800   */\n      dup2\n        /* \"#utility.yul\":7792:7812   */\n      sub\n        /* \"#utility.yul\":7788:7789   */\n      0x00\n        /* \"#utility.yul\":7777:7786   */\n      dup4\n        /* \"#utility.yul\":7773:7790   */\n      add\n        /* \"#utility.yul\":7766:7813   */\n      mstore\n        /* \"#utility.yul\":7830:7961   */\n      tag_147\n        /* \"#utility.yul\":7956:7960   */\n      dup2\n        /* \"#utility.yul\":7830:7961   */\n      tag_74\n      jump\t// in\n    tag_147:\n        /* \"#utility.yul\":7822:7961   */\n      swap1\n      pop\n        /* \"#utility.yul\":7549:7968   */\n      swap2\n      swap1\n      pop\n      jump\t// out\n        /* \"#utility.yul\":7974:8134   */\n    tag_75:\n        /* \"#utility.yul\":8114:8126   */\n      0x4e6f2062616c616e636500000000000000000000000000000000000000000000\n        /* \"#utility.yul\":8110:8111   */\n      0x00\n        /* \"#utility.yul\":8102:8108   */\n      dup3\n        /* \"#utility.yul\":8098:8112   */\n      add\n        /* \"#utility.yul\":8091:8127   */\n      mstore\n        /* \"#utility.yul\":7974:8134   */\n      pop\n      jump\t// out\n        /* \"#utility.yul\":8140:8506   */\n    tag_76:\n        /* \"#utility.yul\":8282:8285   */\n      0x00\n        /* \"#utility.yul\":8303:8370   */\n      tag_150\n        /* \"#utility.yul\":8367:8369   */\n      0x0a\n        /* \"#utility.yul\":8362:8365   */\n      dup4\n        /* \"#utility.yul\":8303:8370   */\n      tag_63\n      jump\t// in\n    tag_150:\n        /* \"#utility.yul\":8296:8370   */\n      swap2\n      pop\n        /* \"#utility.yul\":8379:8472   */\n      tag_151\n        /* \"#utility.yul\":8468:8471   */\n      dup3\n        /* \"#utility.yul\":8379:8472   */\n      tag_75\n      jump\t// in\n    tag_151:\n        /* \"#utility.yul\":8497:8499   */\n      0x20\n        /* \"#utility.yul\":8492:8495   */\n      dup3\n        /* \"#utility.yul\":8488:8500   */\n      add\n        /* \"#utility.yul\":8481:8500   */\n      swap1\n      pop\n        /* \"#utility.yul\":8140:8506   */\n      swap2\n      swap1\n      pop\n      jump\t// out\n        /* \"#utility.yul\":8512:8931   */\n    tag_50:\n        /* \"#utility.yul\":8678:8682   */\n      0x00\n        /* \"#utility.yul\":8716:8718   */\n      0x20\n        /* \"#utility.yul\":8705:8714   */\n      dup3\n        /* \"#utility.yul\":8701:8719   */\n      add\n        /* \"#utility.yul\":8693:8719   */\n      swap1\n      pop\n        /* \"#utility.yul\":8765:8774   */\n      dup2\n        /* \"#utility.yul\":8759:8763   */\n      dup2\n        /* \"#utility.yul\":8755:8775   */\n      sub\n        /* \"#utility.yul\":8751:8752   */\n      0x00\n        /* \"#utility.yul\":8740:8749   */\n      dup4\n        /* \"#utility.yul\":8736:8753   */\n      add\n        /* \"#utility.yul\":8729:8776   */\n      mstore\n        /* \"#utility.yul\":8793:8924   */\n      tag_153\n        /* \"#utility.yul\":8919:8923   */\n      dup2\n        /* \"#utility.yul\":8793:8924   */\n      tag_76\n      jump\t// in\n    tag_153:\n        /* \"#utility.yul\":8785:8924   */\n      swap1\n      pop\n        /* \"#utility.yul\":8512:8931   */\n      swap2\n      swap1\n      pop\n      jump\t// out\n\n    auxdata: 0xa26469706673582212201ed8fb47b0aaa0fc1045148280dd31a72719ec7b7e36e32183ae6c0956333f8e64736f6c63430008220033\n}\n",
				"bytecode": {
					"linkReferences": {},
					"object": "6080604052348015600e575f5ffd5b50335f5f6101000a81548173ffffffffffffffffffffffffffffffffffffffff021916908373ffffffffffffffffffffffffffffffffffffffff1602179055506108c88061005b5f395ff3fe608060405234801561000f575f5ffd5b5060043610610055575f3560e01c806327e235e3146100595780638da5cb5b14610089578063b6b55f25146100a7578063bd051844146100c3578063dd5967c3146100df575b5f5ffd5b610073600480360381019061006e91906104d9565b6100fd565b604051610080919061051c565b60405180910390f35b610091610112565b60405161009e9190610544565b60405180910390f35b6100c160048036038101906100bc9190610587565b610136565b005b6100dd60048036038101906100d891906104d9565b6102ae565b005b6100e761046e565b6040516100f4919061051c565b60405180910390f35b6001602052805f5260405f205f915090505481565b5f5f9054906101000a900473ffffffffffffffffffffffffffffffffffffffff1681565b5f8111610178576040517f08c379a000000000000000000000000000000000000000000000000000000000815260040161016f9061060c565b60405180910390fd5b68056bc75e2d631000008111156101c4576040517f08c379a00000000000000000000000000000000000000000000000000000000081526004016101bb90610674565b60405180910390fd5b683635c9adc5dea000008160015f3373ffffffffffffffffffffffffffffffffffffffff1673ffffffffffffffffffffffffffffffffffffffff1681526020019081526020015f205461021791906106bf565b1115610258576040517f08c379a000000000000000000000000000000000000000000000000000000000815260040161024f9061073c565b60405180910390fd5b8060015f3373ffffffffffffffffffffffffffffffffffffffff1673ffffffffffffffffffffffffffffffffffffffff1681526020019081526020015f205f8282546102a491906106bf565b9250508190555050565b5f5f9054906101000a900473ffffffffffffffffffffffffffffffffffffffff1673ffffffffffffffffffffffffffffffffffffffff163373ffffffffffffffffffffffffffffffffffffffff161461033c576040517f08c379a0000000000000000000000000000000000000000000000000000000008152600401610333906107a4565b60405180910390fd5b5f73ffffffffffffffffffffffffffffffffffffffff168173ffffffffffffffffffffffffffffffffffffffff16036103aa576040517f08c379a00000000000000000000000000000000000000000000000000000000081526004016103a19061080c565b60405180910390fd5b5f60015f8373ffffffffffffffffffffffffffffffffffffffff1673ffffffffffffffffffffffffffffffffffffffff1681526020019081526020015f205411610429576040517f08c379a000000000000000000000000000000000000000000000000000000000815260040161042090610874565b60405180910390fd5b5f60015f8373ffffffffffffffffffffffffffffffffffffffff1673ffffffffffffffffffffffffffffffffffffffff1681526020019081526020015f208190555050565b68056bc75e2d6310000081565b5f5ffd5b5f73ffffffffffffffffffffffffffffffffffffffff82169050919050565b5f6104a88261047f565b9050919050565b6104b88161049e565b81146104c2575f5ffd5b50565b5f813590506104d3816104af565b92915050565b5f602082840312156104ee576104ed61047b565b5b5f6104fb848285016104c5565b91505092915050565b5f819050919050565b61051681610504565b82525050565b5f60208201905061052f5f83018461050d565b92915050565b61053e8161049e565b82525050565b5f6020820190506105575f830184610535565b92915050565b61056681610504565b8114610570575f5ffd5b50565b5f813590506105818161055d565b92915050565b5f6020828403121561059c5761059b61047b565b5b5f6105a984828501610573565b91505092915050565b5f82825260208201905092915050565b7f416d6f756e74206d757374206265203e203000000000000000000000000000005f82015250565b5f6105f66012836105b2565b9150610601826105c2565b602082019050919050565b5f6020820190508181035f830152610623816105ea565b9050919050565b7f4465706f73697420746f6f206c617267650000000000000000000000000000005f82015250565b5f61065e6011836105b2565b91506106698261062a565b602082019050919050565b5f6020820190508181035f83015261068b81610652565b9050919050565b7f4e487b71000000000000000000000000000000000000000000000000000000005f52601160045260245ffd5b5f6106c982610504565b91506106d483610504565b92508282019050808211156106ec576106eb610692565b5b92915050565b7f42616c616e6365206c696d6974206578636565646564000000000000000000005f82015250565b5f6107266016836105b2565b9150610731826106f2565b602082019050919050565b5f6020820190508181035f8301526107538161071a565b9050919050565b7f4e6f74206f776e657200000000000000000000000000000000000000000000005f82015250565b5f61078e6009836105b2565b91506107998261075a565b602082019050919050565b5f6020820190508181035f8301526107bb81610782565b9050919050565b7f496e76616c6964206164647265737300000000000000000000000000000000005f82015250565b5f6107f6600f836105b2565b9150610801826107c2565b602082019050919050565b5f6020820190508181035f830152610823816107ea565b9050919050565b7f4e6f2062616c616e6365000000000000000000000000000000000000000000005f82015250565b5f61085e600a836105b2565b91506108698261082a565b602082019050919050565b5f6020820190508181035f83015261088b81610852565b905091905056fea26469706673582212201ed8fb47b0aaa0fc1045148280dd31a72719ec7b7e36e32183ae6c0956333f8e64736f6c63430008220033",
					"opcodes": "PUSH1 0x80 PUSH1 0x40 MSTORE CALLVALUE DUP1 ISZERO PUSH1 0xE JUMPI PUSH0 PUSH0 REVERT JUMPDEST POP CALLER PUSH0 PUSH0 PUSH2 0x100 EXP DUP2 SLOAD DUP2 PUSH20 0xFFFFFFFFFFFFFFFFFFFFFFFFFFFFFFFFFFFFFFFF MUL NOT AND SWAP1 DUP4 PUSH20 0xFFFFFFFFFFFFFFFFFFFFFFFFFFFFFFFFFFFFFFFF AND MUL OR SWAP1 SSTORE POP PUSH2 0x8C8 DUP1 PUSH2 0x5B PUSH0 CODECOPY PUSH0 RETURN INVALID PUSH1 0x80 PUSH1 0x40 MSTORE CALLVALUE DUP1 ISZERO PUSH2 0xF JUMPI PUSH0 PUSH0 REVERT JUMPDEST POP PUSH1 0x4 CALLDATASIZE LT PUSH2 0x55 JUMPI PUSH0 CALLDATALOAD PUSH1 0xE0 SHR DUP1 PUSH4 0x27E235E3 EQ PUSH2 0x59 JUMPI DUP1 PUSH4 0x8DA5CB5B EQ PUSH2 0x89 JUMPI DUP1 PUSH4 0xB6B55F25 EQ PUSH2 0xA7 JUMPI DUP1 PUSH4 0xBD051844 EQ PUSH2 0xC3 JUMPI DUP1 PUSH4 0xDD5967C3 EQ PUSH2 0xDF JUMPI JUMPDEST PUSH0 PUSH0 REVERT JUMPDEST PUSH2 0x73 PUSH1 0x4 DUP1 CALLDATASIZE SUB DUP2 ADD SWAP1 PUSH2 0x6E SWAP2 SWAP1 PUSH2 0x4D9 JUMP JUMPDEST PUSH2 0xFD JUMP JUMPDEST PUSH1 0x40 MLOAD PUSH2 0x80 SWAP2 SWAP1 PUSH2 0x51C JUMP JUMPDEST PUSH1 0x40 MLOAD DUP1 SWAP2 SUB SWAP1 RETURN JUMPDEST PUSH2 0x91 PUSH2 0x112 JUMP JUMPDEST PUSH1 0x40 MLOAD PUSH2 0x9E SWAP2 SWAP1 PUSH2 0x544 JUMP JUMPDEST PUSH1 0x40 MLOAD DUP1 SWAP2 SUB SWAP1 RETURN JUMPDEST PUSH2 0xC1 PUSH1 0x4 DUP1 CALLDATASIZE SUB DUP2 ADD SWAP1 PUSH2 0xBC SWAP2 SWAP1 PUSH2 0x587 JUMP JUMPDEST PUSH2 0x136 JUMP JUMPDEST STOP JUMPDEST PUSH2 0xDD PUSH1 0x4 DUP1 CALLDATASIZE SUB DUP2 ADD SWAP1 PUSH2 0xD8 SWAP2 SWAP1 PUSH2 0x4D9 JUMP JUMPDEST PUSH2 0x2AE JUMP JUMPDEST STOP JUMPDEST PUSH2 0xE7 PUSH2 0x46E JUMP JUMPDEST PUSH1 0x40 MLOAD PUSH2 0xF4 SWAP2 SWAP1 PUSH2 0x51C JUMP JUMPDEST PUSH1 0x40 MLOAD DUP1 SWAP2 SUB SWAP1 RETURN JUMPDEST PUSH1 0x1 PUSH1 0x20 MSTORE DUP1 PUSH0 MSTORE PUSH1 0x40 PUSH0 KECCAK256 PUSH0 SWAP2 POP SWAP1 POP SLOAD DUP2 JUMP JUMPDEST PUSH0 PUSH0 SWAP1 SLOAD SWAP1 PUSH2 0x100 EXP SWAP1 DIV PUSH20 0xFFFFFFFFFFFFFFFFFFFFFFFFFFFFFFFFFFFFFFFF AND DUP2 JUMP JUMPDEST PUSH0 DUP2 GT PUSH2 0x178 JUMPI PUSH1 0x40 MLOAD PUSH32 0x8C379A000000000000000000000000000000000000000000000000000000000 DUP2 MSTORE PUSH1 0x4 ADD PUSH2 0x16F SWAP1 PUSH2 0x60C JUMP JUMPDEST PUSH1 0x40 MLOAD DUP1 SWAP2 SUB SWAP1 REVERT JUMPDEST PUSH9 0x56BC75E2D63100000 DUP2 GT ISZERO PUSH2 0x1C4 JUMPI PUSH1 0x40 MLOAD PUSH32 0x8C379A000000000000000000000000000000000000000000000000000000000 DUP2 MSTORE PUSH1 0x4 ADD PUSH2 0x1BB SWAP1 PUSH2 0x674 JUMP JUMPDEST PUSH1 0x40 MLOAD DUP1 SWAP2 SUB SWAP1 REVERT JUMPDEST PUSH9 0x3635C9ADC5DEA00000 DUP2 PUSH1 0x1 PUSH0 CALLER PUSH20 0xFFFFFFFFFFFFFFFFFFFFFFFFFFFFFFFFFFFFFFFF AND PUSH20 0xFFFFFFFFFFFFFFFFFFFFFFFFFFFFFFFFFFFFFFFF AND DUP2 MSTORE PUSH1 0x20 ADD SWAP1 DUP2 MSTORE PUSH1 0x20 ADD PUSH0 KECCAK256 SLOAD PUSH2 0x217 SWAP2 SWAP1 PUSH2 0x6BF JUMP JUMPDEST GT ISZERO PUSH2 0x258 JUMPI PUSH1 0x40 MLOAD PUSH32 0x8C379A000000000000000000000000000000000000000000000000000000000 DUP2 MSTORE PUSH1 0x4 ADD PUSH2 0x24F SWAP1 PUSH2 0x73C JUMP JUMPDEST PUSH1 0x40 MLOAD DUP1 SWAP2 SUB SWAP1 REVERT JUMPDEST DUP1 PUSH1 0x1 PUSH0 CALLER PUSH20 0xFFFFFFFFFFFFFFFFFFFFFFFFFFFFFFFFFFFFFFFF AND PUSH20 0xFFFFFFFFFFFFFFFFFFFFFFFFFFFFFFFFFFFFFFFF AND DUP2 MSTORE PUSH1 0x20 ADD SWAP1 DUP2 MSTORE PUSH1 0x20 ADD PUSH0 KECCAK256 PUSH0 DUP3 DUP3 SLOAD PUSH2 0x2A4 SWAP2 SWAP1 PUSH2 0x6BF JUMP JUMPDEST SWAP3 POP POP DUP2 SWAP1 SSTORE POP POP JUMP JUMPDEST PUSH0 PUSH0 SWAP1 SLOAD SWAP1 PUSH2 0x100 EXP SWAP1 DIV PUSH20 0xFFFFFFFFFFFFFFFFFFFFFFFFFFFFFFFFFFFFFFFF AND PUSH20 0xFFFFFFFFFFFFFFFFFFFFFFFFFFFFFFFFFFFFFFFF AND CALLER PUSH20 0xFFFFFFFFFFFFFFFFFFFFFFFFFFFFFFFFFFFFFFFF AND EQ PUSH2 0x33C JUMPI PUSH1 0x40 MLOAD PUSH32 0x8C379A000000000000000000000000000000000000000000000000000000000 DUP2 MSTORE PUSH1 0x4 ADD PUSH2 0x333 SWAP1 PUSH2 0x7A4 JUMP JUMPDEST PUSH1 0x40 MLOAD DUP1 SWAP2 SUB SWAP1 REVERT JUMPDEST PUSH0 PUSH20 0xFFFFFFFFFFFFFFFFFFFFFFFFFFFFFFFFFFFFFFFF AND DUP2 PUSH20 0xFFFFFFFFFFFFFFFFFFFFFFFFFFFFFFFFFFFFFFFF AND SUB PUSH2 0x3AA JUMPI PUSH1 0x40 MLOAD PUSH32 0x8C379A000000000000000000000000000000000000000000000000000000000 DUP2 MSTORE PUSH1 0x4 ADD PUSH2 0x3A1 SWAP1 PUSH2 0x80C JUMP JUMPDEST PUSH1 0x40 MLOAD DUP1 SWAP2 SUB SWAP1 REVERT JUMPDEST PUSH0 PUSH1 0x1 PUSH0 DUP4 PUSH20 0xFFFFFFFFFFFFFFFFFFFFFFFFFFFFFFFFFFFFFFFF AND PUSH20 0xFFFFFFFFFFFFFFFFFFFFFFFFFFFFFFFFFFFFFFFF AND DUP2 MSTORE PUSH1 0x20 ADD SWAP1 DUP2 MSTORE PUSH1 0x20 ADD PUSH0 KECCAK256 SLOAD GT PUSH2 0x429 JUMPI PUSH1 0x40 MLOAD PUSH32 0x8C379A000000000000000000000000000000000000000000000000000000000 DUP2 MSTORE PUSH1 0x4 ADD PUSH2 0x420 SWAP1 PUSH2 0x874 JUMP JUMPDEST PUSH1 0x40 MLOAD DUP1 SWAP2 SUB SWAP1 REVERT JUMPDEST PUSH0 PUSH1 0x1 PUSH0 DUP4 PUSH20 0xFFFFFFFFFFFFFFFFFFFFFFFFFFFFFFFFFFFFFFFF AND PUSH20 0xFFFFFFFFFFFFFFFFFFFFFFFFFFFFFFFFFFFFFFFF AND DUP2 MSTORE PUSH1 0x20 ADD SWAP1 DUP2 MSTORE PUSH1 0x20 ADD PUSH0 KECCAK256 DUP2 SWAP1 SSTORE POP POP JUMP JUMPDEST PUSH9 0x56BC75E2D63100000 DUP2 JUMP JUMPDEST PUSH0 PUSH0 REVERT JUMPDEST PUSH0 PUSH20 0xFFFFFFFFFFFFFFFFFFFFFFFFFFFFFFFFFFFFFFFF DUP3 AND SWAP1 POP SWAP2 SWAP1 POP JUMP JUMPDEST PUSH0 PUSH2 0x4A8 DUP3 PUSH2 0x47F JUMP JUMPDEST SWAP1 POP SWAP2 SWAP1 POP JUMP JUMPDEST PUSH2 0x4B8 DUP2 PUSH2 0x49E JUMP JUMPDEST DUP2 EQ PUSH2 0x4C2 JUMPI PUSH0 PUSH0 REVERT JUMPDEST POP JUMP JUMPDEST PUSH0 DUP2 CALLDATALOAD SWAP1 POP PUSH2 0x4D3 DUP2 PUSH2 0x4AF JUMP JUMPDEST SWAP3 SWAP2 POP POP JUMP JUMPDEST PUSH0 PUSH1 0x20 DUP3 DUP5 SUB SLT ISZERO PUSH2 0x4EE JUMPI PUSH2 0x4ED PUSH2 0x47B JUMP JUMPDEST JUMPDEST PUSH0 PUSH2 0x4FB DUP5 DUP3 DUP6 ADD PUSH2 0x4C5 JUMP JUMPDEST SWAP2 POP POP SWAP3 SWAP2 POP POP JUMP JUMPDEST PUSH0 DUP2 SWAP1 POP SWAP2 SWAP1 POP JUMP JUMPDEST PUSH2 0x516 DUP2 PUSH2 0x504 JUMP JUMPDEST DUP3 MSTORE POP POP JUMP JUMPDEST PUSH0 PUSH1 0x20 DUP3 ADD SWAP1 POP PUSH2 0x52F PUSH0 DUP4 ADD DUP5 PUSH2 0x50D JUMP JUMPDEST SWAP3 SWAP2 POP POP JUMP JUMPDEST PUSH2 0x53E DUP2 PUSH2 0x49E JUMP JUMPDEST DUP3 MSTORE POP POP JUMP JUMPDEST PUSH0 PUSH1 0x20 DUP3 ADD SWAP1 POP PUSH2 0x557 PUSH0 DUP4 ADD DUP5 PUSH2 0x535 JUMP JUMPDEST SWAP3 SWAP2 POP POP JUMP JUMPDEST PUSH2 0x566 DUP2 PUSH2 0x504 JUMP JUMPDEST DUP2 EQ PUSH2 0x570 JUMPI PUSH0 PUSH0 REVERT JUMPDEST POP JUMP JUMPDEST PUSH0 DUP2 CALLDATALOAD SWAP1 POP PUSH2 0x581 DUP2 PUSH2 0x55D JUMP JUMPDEST SWAP3 SWAP2 POP POP JUMP JUMPDEST PUSH0 PUSH1 0x20 DUP3 DUP5 SUB SLT ISZERO PUSH2 0x59C JUMPI PUSH2 0x59B PUSH2 0x47B JUMP JUMPDEST JUMPDEST PUSH0 PUSH2 0x5A9 DUP5 DUP3 DUP6 ADD PUSH2 0x573 JUMP JUMPDEST SWAP2 POP POP SWAP3 SWAP2 POP POP JUMP JUMPDEST PUSH0 DUP3 DUP3 MSTORE PUSH1 0x20 DUP3 ADD SWAP1 POP SWAP3 SWAP2 POP POP JUMP JUMPDEST PUSH32 0x416D6F756E74206D757374206265203E20300000000000000000000000000000 PUSH0 DUP3 ADD MSTORE POP JUMP JUMPDEST PUSH0 PUSH2 0x5F6 PUSH1 0x12 DUP4 PUSH2 0x5B2 JUMP JUMPDEST SWAP2 POP PUSH2 0x601 DUP3 PUSH2 0x5C2 JUMP JUMPDEST PUSH1 0x20 DUP3 ADD SWAP1 POP SWAP2 SWAP1 POP JUMP JUMPDEST PUSH0 PUSH1 0x20 DUP3 ADD SWAP1 POP DUP2 DUP2 SUB PUSH0 DUP4 ADD MSTORE PUSH2 0x623 DUP2 PUSH2 0x5EA JUMP JUMPDEST SWAP1 POP SWAP2 SWAP1 POP JUMP JUMPDEST PUSH32 0x4465706F73697420746F6F206C61726765000000000000000000000000000000 PUSH0 DUP3 ADD MSTORE POP JUMP JUMPDEST PUSH0 PUSH2 0x65E PUSH1 0x11 DUP4 PUSH2 0x5B2 JUMP JUMPDEST SWAP2 POP PUSH2 0x669 DUP3 PUSH2 0x62A JUMP JUMPDEST PUSH1 0x20 DUP3 ADD SWAP1 POP SWAP2 SWAP1 POP JUMP JUMPDEST PUSH0 PUSH1 0x20 DUP3 ADD SWAP1 POP DUP2 DUP2 SUB PUSH0 DUP4 ADD MSTORE PUSH2 0x68B DUP2 PUSH2 0x652 JUMP JUMPDEST SWAP1 POP SWAP2 SWAP1 POP JUMP JUMPDEST PUSH32 0x4E487B7100000000000000000000000000000000000000000000000000000000 PUSH0 MSTORE PUSH1 0x11 PUSH1 0x4 MSTORE PUSH1 0x24 PUSH0 REVERT JUMPDEST PUSH0 PUSH2 0x6C9 DUP3 PUSH2 0x504 JUMP JUMPDEST SWAP2 POP PUSH2 0x6D4 DUP4 PUSH2 0x504 JUMP JUMPDEST SWAP3 POP DUP3 DUP3 ADD SWAP1 POP DUP1 DUP3 GT ISZERO PUSH2 0x6EC JUMPI PUSH2 0x6EB PUSH2 0x692 JUMP JUMPDEST JUMPDEST SWAP3 SWAP2 POP POP JUMP JUMPDEST PUSH32 0x42616C616E6365206C696D697420657863656564656400000000000000000000 PUSH0 DUP3 ADD MSTORE POP JUMP JUMPDEST PUSH0 PUSH2 0x726 PUSH1 0x16 DUP4 PUSH2 0x5B2 JUMP JUMPDEST SWAP2 POP PUSH2 0x731 DUP3 PUSH2 0x6F2 JUMP JUMPDEST PUSH1 0x20 DUP3 ADD SWAP1 POP SWAP2 SWAP1 POP JUMP JUMPDEST PUSH0 PUSH1 0x20 DUP3 ADD SWAP1 POP DUP2 DUP2 SUB PUSH0 DUP4 ADD MSTORE PUSH2 0x753 DUP2 PUSH2 0x71A JUMP JUMPDEST SWAP1 POP SWAP2 SWAP1 POP JUMP JUMPDEST PUSH32 0x4E6F74206F776E65720000000000000000000000000000000000000000000000 PUSH0 DUP3 ADD MSTORE POP JUMP JUMPDEST PUSH0 PUSH2 0x78E PUSH1 0x9 DUP4 PUSH2 0x5B2 JUMP JUMPDEST SWAP2 POP PUSH2 0x799 DUP3 PUSH2 0x75A JUMP JUMPDEST PUSH1 0x20 DUP3 ADD SWAP1 POP SWAP2 SWAP1 POP JUMP JUMPDEST PUSH0 PUSH1 0x20 DUP3 ADD SWAP1 POP DUP2 DUP2 SUB PUSH0 DUP4 ADD MSTORE PUSH2 0x7BB DUP2 PUSH2 0x782 JUMP JUMPDEST SWAP1 POP SWAP2 SWAP1 POP JUMP JUMPDEST PUSH32 0x496E76616C696420616464726573730000000000000000000000000000000000 PUSH0 DUP3 ADD MSTORE POP JUMP JUMPDEST PUSH0 PUSH2 0x7F6 PUSH1 0xF DUP4 PUSH2 0x5B2 JUMP JUMPDEST SWAP2 POP PUSH2 0x801 DUP3 PUSH2 0x7C2 JUMP JUMPDEST PUSH1 0x20 DUP3 ADD SWAP1 POP SWAP2 SWAP1 POP JUMP JUMPDEST PUSH0 PUSH1 0x20 DUP3 ADD SWAP1 POP DUP2 DUP2 SUB PUSH0 DUP4 ADD MSTORE PUSH2 0x823 DUP2 PUSH2 0x7EA JUMP JUMPDEST SWAP1 POP SWAP2 SWAP1 POP JUMP JUMPDEST PUSH32 0x4E6F2062616C616E636500000000000000000000000000000000000000000000 PUSH0 DUP3 ADD MSTORE POP JUMP JUMPDEST PUSH0 PUSH2 0x85E PUSH1 0xA DUP4 PUSH2 0x5B2 JUMP JUMPDEST SWAP2 POP PUSH2 0x869 DUP3 PUSH2 0x82A JUMP JUMPDEST PUSH1 0x20 DUP3 ADD SWAP1 POP SWAP2 SWAP1 POP JUMP JUMPDEST PUSH0 PUSH1 0x20 DUP3 ADD SWAP1 POP DUP2 DUP2 SUB PUSH0 DUP4 ADD MSTORE PUSH2 0x88B DUP2 PUSH2 0x852 JUMP JUMPDEST SWAP1 POP SWAP2 SWAP1 POP JUMP INVALID LOG2 PUSH5 0x6970667358 0x22 SLT KECCAK256 CLZ 0xD8 EXTSTATICCALL SELFBALANCE 0xB0 0xAA LOG0 0xFC LT GASLIMIT EQ DUP3 DUP1 0xDD BALANCE 0xA7 0x27 NOT EOFCREATE 0x7B PUSH31 0x36E32183AE6C0956333F8E64736F6C63430008220033000000000000000000 "
				},
				"gasEstimates": {
					"creation": {
						"codeDepositCost": "449600",
						"executionCost": "24748",
						"totalCost": "474348"
					},
					"external": {
						"MAX_DEPOSIT()": "391",
						"balances(address)": "2780",
						"deposit(uint256)": "infinite",
						"owner()": "2507",
						"resetBalance(address)": "10006"
					}
				},
				"methodIdentifiers": {
					"MAX_DEPOSIT()": "dd5967c3",
					"balances(address)": "27e235e3",
					"deposit(uint256)": "b6b55f25",
					"owner()": "8da5cb5b",
					"resetBalance(address)": "bd051844"
				}
			},
			"storageLayout": {
				"storage": [
					{
						"astId": 3,
						"contract": "prac39.sol:MultipleRequireChecks",
						"label": "owner",
						"offset": 0,
						"slot": "0",
						"type": "t_address"
					},
					{
						"astId": 7,
						"contract": "prac39.sol:MultipleRequireChecks",
						"label": "balances",
						"offset": 0,
						"slot": "1",
						"type": "t_mapping(t_address,t_uint256)"
					}
				],
				"types": {
					"t_address": {
						"encoding": "inplace",
						"label": "address",
						"numberOfBytes": "20"
					},
					"t_mapping(t_address,t_uint256)": {
						"encoding": "mapping",
						"key": "t_address",
						"label": "mapping(address => uint256)",
						"numberOfBytes": "32",
						"value": "t_uint256"
					},
					"t_uint256": {
						"encoding": "inplace",
						"label": "uint256",
						"numberOfBytes": "32"
					}
				}
			},
			"userdoc": {
				"kind": "user",
				"methods": {},
				"version": 1
			}
		}
	}
}