{
	"prac2.sol": {
		"StateOverwrite": {
			"abi": [
				{
					"inputs": [],
					"name": "getNumber",
					"outputs": [
						{
							"internalType": "uint256",
							"name": "",
							"type": "uint256"
						}
					],
					"stateMutability": "view",
					"type": "function"
				},
				{
					"inputs": [],
					"name": "getPreviousNumber",
					"outputs": [
						{
							"internalType": "uint256",
							"name": "",
							"type": "uint256"
						}
					],
					"stateMutability": "view",
					"type": "function"
				},
				{
					"inputs": [],
					"name": "number",
					"outputs": [
						{
							"internalType": "uint256",
							"name": "",
							"type": "uint256"
						}
					],
					"stateMutability": "view",
					"type": "function"
				},
				{
					"inputs": [],
					"name": "previousNumber",
					"outputs": [
						{
							"internalType": "uint256",
							"name": "",
							"type": "uint256"
						}
					],
					"stateMutability": "view",
					"type": "function"
				},
				{
					"inputs": [
						{
							"internalType": "uint256",
							"name": "_newNumber",
							"type": "uint256"
						}
					],
					"name": "updateNumber",
					"outputs": [],
					"stateMutability": "nonpayable",
					"type": "function"
				}
			],
			"devdoc": {
				"kind": "dev",
				"methods": {},
				"version": 1
			},
			"evm": {
				"assembly": "    /* \"prac2.sol\":7466:7963  contract StateOverwrite {... */\n  mstore(0x40, 0x80)\n  callvalue\n  dup1\n  iszero\n  tag_1\n  jumpi\n  revert(0x00, 0x00)\ntag_1:\n  pop\n  dataSize(sub_0)\n  dup1\n  dataOffset(sub_0)\n  0x00\n  codecopy\n  0x00\n  return\nstop\n\nsub_0: assembly {\n        /* \"prac2.sol\":7466:7963  contract StateOverwrite {... */\n      mstore(0x40, 0x80)\n      callvalue\n      dup1\n      iszero\n      tag_1\n      jumpi\n      revert(0x00, 0x00)\n    tag_1:\n      pop\n      jumpi(tag_2, lt(calldatasize, 0x04))\n      shr(0xe0, calldataload(0x00))\n      dup1\n      0x1db05a88\n      eq\n      tag_3\n      jumpi\n      dup1\n      0x69db0488\n      eq\n      tag_4\n      jumpi\n      dup1\n      0x8381f58a\n      eq\n      tag_5\n      jumpi\n      dup1\n      0xd817e7df\n      eq\n      tag_6\n      jumpi\n      dup1\n      0xf2c9ecd8\n      eq\n      tag_7\n      jumpi\n    tag_2:\n      revert(0x00, 0x00)\n        /* \"prac2.sol\":7565:7762  function updateNumber(uint256 _newNumber) public {... */\n    tag_3:\n      tag_8\n      0x04\n      dup1\n      calldatasize\n      sub\n      dup2\n      add\n      swap1\n      tag_9\n      swap2\n      swap1\n      tag_10\n      jump\t// in\n    tag_9:\n      tag_11\n      jump\t// in\n    tag_8:\n      stop\n        /* \"prac2.sol\":7527:7556  uint256 public previousNumber */\n    tag_4:\n      tag_12\n      tag_13\n      jump\t// in\n    tag_12:\n      mload(0x40)\n      tag_14\n      swap2\n      swap1\n      tag_15\n      jump\t// in\n    tag_14:\n      mload(0x40)\n      dup1\n      swap2\n      sub\n      swap1\n      return\n        /* \"prac2.sol\":7499:7520  uint256 public number */\n    tag_5:\n      tag_16\n      tag_17\n      jump\t// in\n    tag_16:\n      mload(0x40)\n      tag_18\n      swap2\n      swap1\n      tag_15\n      jump\t// in\n    tag_18:\n      mload(0x40)\n      dup1\n      swap2\n      sub\n      swap1\n      return\n        /* \"prac2.sol\":7861:7960  function getPreviousNumber() public view returns (uint256) {... */\n    tag_6:\n      tag_19\n      tag_20\n      jump\t// in\n    tag_19:\n      mload(0x40)\n      tag_21\n      swap2\n      swap1\n      tag_15\n      jump\t// in\n    tag_21:\n      mload(0x40)\n      dup1\n      swap2\n      sub\n      swap1\n      return\n        /* \"prac2.sol\":7770:7853  function getNumber() public view returns (uint256) {... */\n    tag_7:\n      tag_22\n      tag_23\n      jump\t// in\n    tag_22:\n      mload(0x40)\n      tag_24\n      swap2\n      swap1\n      tag_15\n      jump\t// in\n    tag_24:\n      mload(0x40)\n      dup1\n      swap2\n      sub\n      swap1\n      return\n        /* \"prac2.sol\":7565:7762  function updateNumber(uint256 _newNumber) public {... */\n    tag_11:\n        /* \"prac2.sol\":7688:7694  number */\n      sload(0x00)\n        /* \"prac2.sol\":7671:7685  previousNumber */\n      0x01\n        /* \"prac2.sol\":7671:7694  previousNumber = number */\n      dup2\n      swap1\n      sstore\n      pop\n        /* \"prac2.sol\":7744:7754  _newNumber */\n      dup1\n        /* \"prac2.sol\":7735:7741  number */\n      0x00\n        /* \"prac2.sol\":7735:7754  number = _newNumber */\n      dup2\n      swap1\n      sstore\n      pop\n        /* \"prac2.sol\":7565:7762  function updateNumber(uint256 _newNumber) public {... */\n      pop\n      jump\t// out\n        /* \"prac2.sol\":7527:7556  uint256 public previousNumber */\n    tag_13:\n      sload(0x01)\n      dup2\n      jump\t// out\n        /* \"prac2.sol\":7499:7520  uint256 public number */\n    tag_17:\n      sload(0x00)\n      dup2\n      jump\t// out\n        /* \"prac2.sol\":7861:7960  function getPreviousNumber() public view returns (uint256) {... */\n    tag_20:\n        /* \"prac2.sol\":7911:7918  uint256 */\n      0x00\n        /* \"prac2.sol\":7938:7952  previousNumber */\n      sload(0x01)\n        /* \"prac2.sol\":7931:7952  return previousNumber */\n      swap1\n      pop\n        /* \"prac2.sol\":7861:7960  function getPreviousNumber() public view returns (uint256) {... */\n      swap1\n      jump\t// out\n        /* \"prac2.sol\":7770:7853  function getNumber() public view returns (uint256) {... */\n    tag_23:\n        /* \"prac2.sol\":7812:7819  uint256 */\n      0x00\n        /* \"prac2.sol\":7839:7845  number */\n      sload(0x00)\n        /* \"prac2.sol\":7832:7845  return number */\n      swap1\n      pop\n        /* \"prac2.sol\":7770:7853  function getNumber() public view returns (uint256) {... */\n      swap1\n      jump\t// out\n        /* \"#utility.yul\":88:205   */\n    tag_29:\n        /* \"#utility.yul\":197:198   */\n      0x00\n        /* \"#utility.yul\":194:195   */\n      0x00\n        /* \"#utility.yul\":187:199   */\n      revert\n        /* \"#utility.yul\":334:411   */\n    tag_31:\n        /* \"#utility.yul\":371:378   */\n      0x00\n        /* \"#utility.yul\":400:405   */\n      dup2\n        /* \"#utility.yul\":389:405   */\n      swap1\n      pop\n        /* \"#utility.yul\":334:411   */\n      swap2\n      swap1\n      pop\n      jump\t// out\n        /* \"#utility.yul\":417:539   */\n    tag_32:\n        /* \"#utility.yul\":490:514   */\n      tag_41\n        /* \"#utility.yul\":508:513   */\n      dup2\n        /* \"#utility.yul\":490:514   */\n      tag_31\n      jump\t// in\n    tag_41:\n        /* \"#utility.yul\":483:488   */\n      dup2\n        /* \"#utility.yul\":480:515   */\n      eq\n        /* \"#utility.yul\":470:533   */\n      tag_42\n      jumpi\n        /* \"#utility.yul\":529:530   */\n      0x00\n        /* \"#utility.yul\":526:527   */\n      0x00\n        /* \"#utility.yul\":519:531   */\n      revert\n        /* \"#utility.yul\":470:533   */\n    tag_42:\n        /* \"#utility.yul\":417:539   */\n      pop\n      jump\t// out\n        /* \"#utility.yul\":545:684   */\n    tag_33:\n        /* \"#utility.yul\":591:596   */\n      0x00\n        /* \"#utility.yul\":629:635   */\n      dup2\n        /* \"#utility.yul\":616:636   */\n      calldataload\n        /* \"#utility.yul\":607:636   */\n      swap1\n      pop\n        /* \"#utility.yul\":645:678   */\n      tag_44\n        /* \"#utility.yul\":672:677   */\n      dup2\n        /* \"#utility.yul\":645:678   */\n      tag_32\n      jump\t// in\n    tag_44:\n        /* \"#utility.yul\":545:684   */\n      swap3\n      swap2\n      pop\n      pop\n      jump\t// out\n        /* \"#utility.yul\":690:1019   */\n    tag_10:\n        /* \"#utility.yul\":749:755   */\n      0x00\n        /* \"#utility.yul\":798:800   */\n      0x20\n        /* \"#utility.yul\":786:795   */\n      dup3\n        /* \"#utility.yul\":777:784   */\n      dup5\n        /* \"#utility.yul\":773:796   */\n      sub\n        /* \"#utility.yul\":769:801   */\n      slt\n        /* \"#utility.yul\":766:885   */\n      iszero\n      tag_46\n      jumpi\n        /* \"#utility.yul\":804:883   */\n      tag_47\n      tag_29\n      jump\t// in\n    tag_47:\n        /* \"#utility.yul\":766:885   */\n    tag_46:\n        /* \"#utility.yul\":924:925   */\n      0x00\n        /* \"#utility.yul\":949:1002   */\n      tag_48\n        /* \"#utility.yul\":994:1001   */\n      dup5\n        /* \"#utility.yul\":985:991   */\n      dup3\n        /* \"#utility.yul\":974:983   */\n      dup6\n        /* \"#utility.yul\":970:992   */\n      add\n        /* \"#utility.yul\":949:1002   */\n      tag_33\n      jump\t// in\n    tag_48:\n        /* \"#utility.yul\":939:1002   */\n      swap2\n      pop\n        /* \"#utility.yul\":895:1012   */\n      pop\n        /* \"#utility.yul\":690:1019   */\n      swap3\n      swap2\n      pop\n      pop\n      jump\t// out\n        /* \"#utility.yul\":1025:1143   */\n    tag_34:\n        /* \"#utility.yul\":1112:1136   */\n      tag_50\n        /* \"#utility.yul\":1130:1135   */\n      dup2\n        /* \"#utility.yul\":1112:1136   */\n      tag_31\n      jump\t// in\n    tag_50:\n        /* \"#utility.yul\":1107:1110   */\n      dup3\n        /* \"#utility.yul\":1100:1137   */\n      mstore\n        /* \"#utility.yul\":1025:1143   */\n      pop\n      pop\n      jump\t// out\n        /* \"#utility.yul\":1149:1371   */\n    tag_15:\n        /* \"#utility.yul\":1242:1246   */\n      0x00\n        /* \"#utility.yul\":1280:1282   */\n      0x20\n        /* \"#utility.yul\":1269:1278   */\n      dup3\n        /* \"#utility.yul\":1265:1283   */\n      add\n        /* \"#utility.yul\":1257:1283   */\n      swap1\n      pop\n        /* \"#utility.yul\":1293:1364   */\n      tag_52\n        /* \"#utility.yul\":1361:1362   */\n      0x00\n        /* \"#utility.yul\":1350:1359   */\n      dup4\n        /* \"#utility.yul\":1346:1363   */\n      add\n        /* \"#utility.yul\":1337:1343   */\n      dup5\n        /* \"#utility.yul\":1293:1364   */\n      tag_34\n      jump\t// in\n    tag_52:\n        /* \"#utility.yul\":1149:1371   */\n      swap3\n      swap2\n      pop\n      pop\n      jump\t// out\n\n    auxdata: 0xa26469706673582212205ec2bf685291527af0463abd88ed2882b21cc8964b1cfea053407c7aba8b167964736f6c63430008220033\n}\n",
				"bytecode": {
					"linkReferences": {},
					"object": "6080604052348015600e575f5ffd5b506101da8061001c5f395ff3fe608060405234801561000f575f5ffd5b5060043610610055575f3560e01c80631db05a881461005957806369db0488146100755780638381f58a14610093578063d817e7df146100b1578063f2c9ecd8146100cf575b5f5ffd5b610073600480360381019061006e9190610151565b6100ed565b005b61007d6100fe565b60405161008a919061018b565b60405180910390f35b61009b610104565b6040516100a8919061018b565b60405180910390f35b6100b9610109565b6040516100c6919061018b565b60405180910390f35b6100d7610112565b6040516100e4919061018b565b60405180910390f35b5f54600181905550805f8190555050565b60015481565b5f5481565b5f600154905090565b5f5f54905090565b5f5ffd5b5f819050919050565b6101308161011e565b811461013a575f5ffd5b50565b5f8135905061014b81610127565b92915050565b5f602082840312156101665761016561011a565b5b5f6101738482850161013d565b91505092915050565b6101858161011e565b82525050565b5f60208201905061019e5f83018461017c565b9291505056fea26469706673582212205ec2bf685291527af0463abd88ed2882b21cc8964b1cfea053407c7aba8b167964736f6c63430008220033",
					"opcodes": "PUSH1 0x80 PUSH1 0x40 MSTORE CALLVALUE DUP1 ISZERO PUSH1 0xE JUMPI PUSH0 PUSH0 REVERT JUMPDEST POP PUSH2 0x1DA DUP1 PUSH2 0x1C PUSH0 CODECOPY PUSH0 RETURN INVALID PUSH1 0x80 PUSH1 0x40 MSTORE CALLVALUE DUP1 ISZERO PUSH2 0xF JUMPI PUSH0 PUSH0 REVERT JUMPDEST POP PUSH1 0x4 CALLDATASIZE LT PUSH2 0x55 JUMPI PUSH0 CALLDATALOAD PUSH1 0xE0 SHR DUP1 PUSH4 0x1DB05A88 EQ PUSH2 0x59 JUMPI DUP1 PUSH4 0x69DB0488 EQ PUSH2 0x75 JUMPI DUP1 PUSH4 0x8381F58A EQ PUSH2 0x93 JUMPI DUP1 PUSH4 0xD817E7DF EQ PUSH2 0xB1 JUMPI DUP1 PUSH4 0xF2C9ECD8 EQ PUSH2 0xCF JUMPI JUMPDEST PUSH0 PUSH0 REVERT JUMPDEST PUSH2 0x73 PUSH1 0x4 DUP1 CALLDATASIZE SUB DUP2 ADD SWAP1 PUSH2 0x6E SWAP2 SWAP1 PUSH2 0x151 JUMP JUMPDEST PUSH2 0xED JUMP JUMPDEST STOP JUMPDEST PUSH2 0x7D PUSH2 0xFE JUMP JUMPDEST PUSH1 0x40 MLOAD PUSH2 0x8A SWAP2 SWAP1 PUSH2 0x18B JUMP JUMPDEST PUSH1 0x40 MLOAD DUP1 SWAP2 SUB SWAP1 RETURN JUMPDEST PUSH2 0x9B PUSH2 0x104 JUMP JUMPDEST PUSH1 0x40 MLOAD PUSH2 0xA8 SWAP2 SWAP1 PUSH2 0x18B JUMP JUMPDEST PUSH1 0x40 MLOAD DUP1 SWAP2 SUB SWAP1 RETURN JUMPDEST PUSH2 0xB9 PUSH2 0x109 JUMP JUMPDEST PUSH1 0x40 MLOAD PUSH2 0xC6 SWAP2 SWAP1 PUSH2 0x18B JUMP JUMPDEST PUSH1 0x40 MLOAD DUP1 SWAP2 SUB SWAP1 RETURN JUMPDEST PUSH2 0xD7 PUSH2 0x112 JUMP JUMPDEST PUSH1 0x40 MLOAD PUSH2 0xE4 SWAP2 SWAP1 PUSH2 0x18B JUMP JUMPDEST PUSH1 0x40 MLOAD DUP1 SWAP2 SUB SWAP1 RETURN JUMPDEST PUSH0 SLOAD PUSH1 0x1 DUP2 SWAP1 SSTORE POP DUP1 PUSH0 DUP2 SWAP1 SSTORE POP POP JUMP JUMPDEST PUSH1 0x1 SLOAD DUP2 JUMP JUMPDEST PUSH0 SLOAD DUP2 JUMP JUMPDEST PUSH0 PUSH1 0x1 SLOAD SWAP1 POP SWAP1 JUMP JUMPDEST PUSH0 PUSH0 SLOAD SWAP1 POP SWAP1 JUMP JUMPDEST PUSH0 PUSH0 REVERT JUMPDEST PUSH0 DUP2 SWAP1 POP SWAP2 SWAP1 POP JUMP JUMPDEST PUSH2 0x130 DUP2 PUSH2 0x11E JUMP JUMPDEST DUP2 EQ PUSH2 0x13A JUMPI PUSH0 PUSH0 REVERT JUMPDEST POP JUMP JUMPDEST PUSH0 DUP2 CALLDATALOAD SWAP1 POP PUSH2 0x14B DUP2 PUSH2 0x127 JUMP JUMPDEST SWAP3 SWAP2 POP POP JUMP JUMPDEST PUSH0 PUSH1 0x20 DUP3 DUP5 SUB SLT ISZERO PUSH2 0x166 JUMPI PUSH2 0x165 PUSH2 0x11A JUMP JUMPDEST JUMPDEST PUSH0 PUSH2 0x173 DUP5 DUP3 DUP6 ADD PUSH2 0x13D JUMP JUMPDEST SWAP2 POP POP SWAP3 SWAP2 POP POP JUMP JUMPDEST PUSH2 0x185 DUP2 PUSH2 0x11E JUMP JUMPDEST DUP3 MSTORE POP POP JUMP JUMPDEST PUSH0 PUSH1 0x20 DUP3 ADD SWAP1 POP PUSH2 0x19E PUSH0 DUP4 ADD DUP5 PUSH2 0x17C JUMP JUMPDEST SWAP3 SWAP2 POP POP JUMP INVALID LOG2 PUSH5 0x6970667358 0x22 SLT KECCAK256 MCOPY 0xC2 0xBF PUSH9 0x5291527AF0463ABD88 0xED 0x28 DUP3 0xB2 SHR 0xC8 SWAP7 0x4B SHR INVALID LOG0 MSTORE8 BLOCKHASH PUSH29 0x7ABA8B167964736F6C6343000822003300000000000000000000000000 "
				},
				"gasEstimates": {
					"creation": {
						"codeDepositCost": "94800",
						"executionCost": "139",
						"totalCost": "94939"
					},
					"external": {
						"getNumber()": "2497",
						"getPreviousNumber()": "2476",
						"number()": "2446",
						"previousNumber()": "2425",
						"updateNumber(uint256)": "46705"
					}
				},
				"methodIdentifiers": {
					"getNumber()": "f2c9ecd8",
					"getPreviousNumber()": "d817e7df",
					"number()": "8381f58a",
					"previousNumber()": "69db0488",
					"updateNumber(uint256)": "1db05a88"
				}
			},
			"storageLayout": {
				"storage": [
					{
						"astId": 16,
						"contract": "prac2.sol:StateOverwrite",
						"label": "number",
						"offset": 0,
						"slot": "0",
						"type": "t_uint256"
					},
					{
						"astId": 18,
						"contract": "prac2.sol:StateOverwrite",
						"label": "previousNumber",
						"offset": 0,
						"slot": "1",
						"type": "t_uint256"
					}
				],
				"types": {
					"t_uint256": {
						"encoding": "inplace",
						"label": "uint256",
						"numberOfBytes": "32"
					}
				}
			},
			"userdoc": {
				"kind": "user",
				"methods": {},
				"version": 1
			}
		}
	}
}