{
	"prac84.sol": {
		"VictimContract": {
			"abi": [
				{
					"inputs": [],
					"name": "accountingBalance",
					"outputs": [
						{
							"internalType": "uint256",
							"name": "",
							"type": "uint256"
						}
					],
					"stateMutability": "view",
					"type": "function"
				},
				{
					"inputs": [],
					"name": "actualBalance",
					"outputs": [
						{
							"internalType": "uint256",
							"name": "",
							"type": "uint256"
						}
					],
					"stateMutability": "view",
					"type": "function"
				},
				{
					"inputs": [
						{
							"internalType": "address",
							"name": "",
							"type": "address"
						}
					],
					"name": "balances",
					"outputs": [
						{
							"internalType": "uint256",
							"name": "",
							"type": "uint256"
						}
					],
					"stateMutability": "view",
					"type": "function"
				},
				{
					"inputs": [],
					"name": "deposit",
					"outputs": [],
					"stateMutability": "payable",
					"type": "function"
				},
				{
					"inputs": [],
					"name": "totalDeposits",
					"outputs": [
						{
							"internalType": "uint256",
							"name": "",
							"type": "uint256"
						}
					],
					"stateMutability": "view",
					"type": "function"
				},
				{
					"inputs": [
						{
							"internalType": "uint256",
							"name": "amount",
							"type": "uint256"
						}
					],
					"name": "withdraw",
					"outputs": [],
					"stateMutability": "nonpayable",
					"type": "function"
				}
			],
			"devdoc": {
				"kind": "dev",
				"methods": {},
				"version": 1
			},
			"evm": {
				"assembly": "    /* \"prac84.sol\":7614:8720  contract VictimContract {... */\n  mstore(0x40, 0x80)\n  callvalue\n  dup1\n  iszero\n  tag_1\n  jumpi\n  revert(0x00, 0x00)\ntag_1:\n  pop\n  dataSize(sub_0)\n  dup1\n  dataOffset(sub_0)\n  0x00\n  codecopy\n  0x00\n  return\nstop\n\nsub_0: assembly {\n        /* \"prac84.sol\":7614:8720  contract VictimContract {... */\n      mstore(0x40, 0x80)\n      jumpi(tag_1, lt(calldatasize, 0x04))\n      shr(0xe0, calldataload(0x00))\n      dup1\n      0x27e235e3\n      eq\n      tag_2\n      jumpi\n      dup1\n      0x2e1a7d4d\n      eq\n      tag_3\n      jumpi\n      dup1\n      0x39d1f908\n      eq\n      tag_4\n      jumpi\n      dup1\n      0x7d882097\n      eq\n      tag_5\n      jumpi\n      dup1\n      0xbaf43406\n      eq\n      tag_6\n      jumpi\n      dup1\n      0xd0e30db0\n      eq\n      tag_7\n      jumpi\n    tag_1:\n      revert(0x00, 0x00)\n        /* \"prac84.sol\":7647:7690  mapping(address => uint256) public balances */\n    tag_2:\n      callvalue\n      dup1\n      iszero\n      tag_8\n      jumpi\n      revert(0x00, 0x00)\n    tag_8:\n      pop\n      tag_9\n      0x04\n      dup1\n      calldatasize\n      sub\n      dup2\n      add\n      swap1\n      tag_10\n      swap2\n      swap1\n      tag_11\n      jump\t// in\n    tag_10:\n      tag_12\n      jump\t// in\n    tag_9:\n      mload(0x40)\n      tag_13\n      swap2\n      swap1\n      tag_14\n      jump\t// in\n    tag_13:\n      mload(0x40)\n      dup1\n      swap2\n      sub\n      swap1\n      return\n        /* \"prac84.sol\":7867:8231  function withdraw(uint256 amount) external {... */\n    tag_3:\n      callvalue\n      dup1\n      iszero\n      tag_15\n      jumpi\n      revert(0x00, 0x00)\n    tag_15:\n      pop\n      tag_16\n      0x04\n      dup1\n      calldatasize\n      sub\n      dup2\n      add\n      swap1\n      tag_17\n      swap2\n      swap1\n      tag_18\n      jump\t// in\n    tag_17:\n      tag_19\n      jump\t// in\n    tag_16:\n      stop\n        /* \"prac84.sol\":8581:8717  function actualBalance()... */\n    tag_4:\n      callvalue\n      dup1\n      iszero\n      tag_20\n      jumpi\n      revert(0x00, 0x00)\n    tag_20:\n      pop\n      tag_21\n      tag_22\n      jump\t// in\n    tag_21:\n      mload(0x40)\n      tag_23\n      swap2\n      swap1\n      tag_14\n      jump\t// in\n    tag_23:\n      mload(0x40)\n      dup1\n      swap2\n      sub\n      swap1\n      return\n        /* \"prac84.sol\":7697:7725  uint256 public totalDeposits */\n    tag_5:\n      callvalue\n      dup1\n      iszero\n      tag_24\n      jumpi\n      revert(0x00, 0x00)\n    tag_24:\n      pop\n      tag_25\n      tag_26\n      jump\t// in\n    tag_25:\n      mload(0x40)\n      tag_27\n      swap2\n      swap1\n      tag_14\n      jump\t// in\n    tag_27:\n      mload(0x40)\n      dup1\n      swap2\n      sub\n      swap1\n      return\n        /* \"prac84.sol\":8337:8469  function accountingBalance()... */\n    tag_6:\n      callvalue\n      dup1\n      iszero\n      tag_28\n      jumpi\n      revert(0x00, 0x00)\n    tag_28:\n      pop\n      tag_29\n      tag_30\n      jump\t// in\n    tag_29:\n      mload(0x40)\n      tag_31\n      swap2\n      swap1\n      tag_14\n      jump\t// in\n    tag_31:\n      mload(0x40)\n      dup1\n      swap2\n      sub\n      swap1\n      return\n        /* \"prac84.sol\":7734:7859  function deposit() external payable {... */\n    tag_7:\n      tag_32\n      tag_33\n      jump\t// in\n    tag_32:\n      stop\n        /* \"prac84.sol\":7647:7690  mapping(address => uint256) public balances */\n    tag_12:\n      mstore(0x20, 0x00)\n      dup1\n      0x00\n      mstore\n      keccak256(0x00, 0x40)\n      0x00\n      swap2\n      pop\n      swap1\n      pop\n      sload\n      dup2\n      jump\t// out\n        /* \"prac84.sol\":7867:8231  function withdraw(uint256 amount) external {... */\n    tag_19:\n        /* \"prac84.sol\":7969:7975  amount */\n      dup1\n        /* \"prac84.sol\":7945:7953  balances */\n      0x00\n        /* \"prac84.sol\":7945:7965  balances[msg.sender] */\n      0x00\n        /* \"prac84.sol\":7954:7964  msg.sender */\n      caller\n        /* \"prac84.sol\":7945:7965  balances[msg.sender] */\n      0xffffffffffffffffffffffffffffffffffffffff\n      and\n      0xffffffffffffffffffffffffffffffffffffffff\n      and\n      dup2\n      mstore\n      0x20\n      add\n      swap1\n      dup2\n      mstore\n      0x20\n      add\n      0x00\n      keccak256\n      sload\n        /* \"prac84.sol\":7945:7975  balances[msg.sender] >= amount */\n      lt\n      iszero\n        /* \"prac84.sol\":7923:8023  require(... */\n      tag_35\n      jumpi\n      mload(0x40)\n      0x08c379a000000000000000000000000000000000000000000000000000000000\n      dup2\n      mstore\n      0x04\n      add\n      tag_36\n      swap1\n      tag_37\n      jump\t// in\n    tag_36:\n      mload(0x40)\n      dup1\n      swap2\n      sub\n      swap1\n      revert\n    tag_35:\n        /* \"prac84.sol\":8060:8066  amount */\n      dup1\n        /* \"prac84.sol\":8036:8044  balances */\n      0x00\n        /* \"prac84.sol\":8036:8056  balances[msg.sender] */\n      0x00\n        /* \"prac84.sol\":8045:8055  msg.sender */\n      caller\n        /* \"prac84.sol\":8036:8056  balances[msg.sender] */\n      0xffffffffffffffffffffffffffffffffffffffff\n      and\n      0xffffffffffffffffffffffffffffffffffffffff\n      and\n      dup2\n      mstore\n      0x20\n      add\n      swap1\n      dup2\n      mstore\n      0x20\n      add\n      0x00\n      keccak256\n      0x00\n        /* \"prac84.sol\":8036:8066  balances[msg.sender] -= amount */\n      dup3\n      dup3\n      sload\n      tag_38\n      swap2\n      swap1\n      tag_39\n      jump\t// in\n    tag_38:\n      swap3\n      pop\n      pop\n      dup2\n      swap1\n      sstore\n      pop\n        /* \"prac84.sol\":8094:8100  amount */\n      dup1\n        /* \"prac84.sol\":8077:8090  totalDeposits */\n      0x01\n      0x00\n        /* \"prac84.sol\":8077:8100  totalDeposits -= amount */\n      dup3\n      dup3\n      sload\n      tag_40\n      swap2\n      swap1\n      tag_39\n      jump\t// in\n    tag_40:\n      swap3\n      pop\n      pop\n      dup2\n      swap1\n      sstore\n      pop\n        /* \"prac84.sol\":8114:8126  bool success */\n      0x00\n        /* \"prac84.sol\":8140:8150  msg.sender */\n      caller\n        /* \"prac84.sol\":8132:8156  payable(msg.sender).call */\n      0xffffffffffffffffffffffffffffffffffffffff\n      and\n        /* \"prac84.sol\":8164:8170  amount */\n      dup3\n        /* \"prac84.sol\":8132:8175  payable(msg.sender).call{value: amount}(\"\") */\n      mload(0x40)\n      tag_41\n      swap1\n      tag_42\n      jump\t// in\n    tag_41:\n      0x00\n      mload(0x40)\n      dup1\n      dup4\n      sub\n      dup2\n      dup6\n      dup8\n      gas\n      call\n      swap3\n      pop\n      pop\n      pop\n      returndatasize\n      dup1\n      0x00\n      dup2\n      eq\n      tag_45\n      jumpi\n      mload(0x40)\n      swap2\n      pop\n      and(add(returndatasize, 0x3f), not(0x1f))\n      dup3\n      add\n      0x40\n      mstore\n      returndatasize\n      dup3\n      mstore\n      returndatasize\n      0x00\n      0x20\n      dup5\n      add\n      returndatacopy\n      jump(tag_44)\n    tag_45:\n      0x60\n      swap2\n      pop\n    tag_44:\n      pop\n        /* \"prac84.sol\":8113:8175  (bool success, ) = payable(msg.sender).call{value: amount}(\"\") */\n      pop\n      swap1\n      pop\n        /* \"prac84.sol\":8196:8203  success */\n      dup1\n        /* \"prac84.sol\":8188:8223  require(success, \"Transfer failed\") */\n      tag_46\n      jumpi\n      mload(0x40)\n      0x08c379a000000000000000000000000000000000000000000000000000000000\n      dup2\n      mstore\n      0x04\n      add\n      tag_47\n      swap1\n      tag_48\n      jump\t// in\n    tag_47:\n      mload(0x40)\n      dup1\n      swap2\n      sub\n      swap1\n      revert\n    tag_46:\n        /* \"prac84.sol\":7910:8231  {... */\n      pop\n        /* \"prac84.sol\":7867:8231  function withdraw(uint256 amount) external {... */\n      pop\n      jump\t// out\n        /* \"prac84.sol\":8581:8717  function actualBalance()... */\n    tag_22:\n        /* \"prac84.sol\":8656:8663  uint256 */\n      0x00\n        /* \"prac84.sol\":8688:8709  address(this).balance */\n      selfbalance\n        /* \"prac84.sol\":8681:8709  return address(this).balance */\n      swap1\n      pop\n        /* \"prac84.sol\":8581:8717  function actualBalance()... */\n      swap1\n      jump\t// out\n        /* \"prac84.sol\":7697:7725  uint256 public totalDeposits */\n    tag_26:\n      sload(0x01)\n      dup2\n      jump\t// out\n        /* \"prac84.sol\":8337:8469  function accountingBalance()... */\n    tag_30:\n        /* \"prac84.sol\":8416:8423  uint256 */\n      0x00\n        /* \"prac84.sol\":8448:8461  totalDeposits */\n      sload(0x01)\n        /* \"prac84.sol\":8441:8461  return totalDeposits */\n      swap1\n      pop\n        /* \"prac84.sol\":8337:8469  function accountingBalance()... */\n      swap1\n      jump\t// out\n        /* \"prac84.sol\":7734:7859  function deposit() external payable {... */\n    tag_33:\n        /* \"prac84.sol\":7805:7814  msg.value */\n      callvalue\n        /* \"prac84.sol\":7781:7789  balances */\n      0x00\n        /* \"prac84.sol\":7781:7801  balances[msg.sender] */\n      0x00\n        /* \"prac84.sol\":7790:7800  msg.sender */\n      caller\n        /* \"prac84.sol\":7781:7801  balances[msg.sender] */\n      0xffffffffffffffffffffffffffffffffffffffff\n      and\n      0xffffffffffffffffffffffffffffffffffffffff\n      and\n      dup2\n      mstore\n      0x20\n      add\n      swap1\n      dup2\n      mstore\n      0x20\n      add\n      0x00\n      keccak256\n      0x00\n        /* \"prac84.sol\":7781:7814  balances[msg.sender] += msg.value */\n      dup3\n      dup3\n      sload\n      tag_52\n      swap2\n      swap1\n      tag_53\n      jump\t// in\n    tag_52:\n      swap3\n      pop\n      pop\n      dup2\n      swap1\n      sstore\n      pop\n        /* \"prac84.sol\":7842:7851  msg.value */\n      callvalue\n        /* \"prac84.sol\":7825:7838  totalDeposits */\n      0x01\n      0x00\n        /* \"prac84.sol\":7825:7851  totalDeposits += msg.value */\n      dup3\n      dup3\n      sload\n      tag_54\n      swap2\n      swap1\n      tag_53\n      jump\t// in\n    tag_54:\n      swap3\n      pop\n      pop\n      dup2\n      swap1\n      sstore\n      pop\n        /* \"prac84.sol\":7734:7859  function deposit() external payable {... */\n      jump\t// out\n        /* \"#utility.yul\":88:205   */\n    tag_56:\n        /* \"#utility.yul\":197:198   */\n      0x00\n        /* \"#utility.yul\":194:195   */\n      0x00\n        /* \"#utility.yul\":187:199   */\n      revert\n        /* \"#utility.yul\":334:460   */\n    tag_58:\n        /* \"#utility.yul\":371:378   */\n      0x00\n        /* \"#utility.yul\":411:453   */\n      0xffffffffffffffffffffffffffffffffffffffff\n        /* \"#utility.yul\":404:409   */\n      dup3\n        /* \"#utility.yul\":400:454   */\n      and\n        /* \"#utility.yul\":389:454   */\n      swap1\n      pop\n        /* \"#utility.yul\":334:460   */\n      swap2\n      swap1\n      pop\n      jump\t// out\n        /* \"#utility.yul\":466:562   */\n    tag_59:\n        /* \"#utility.yul\":503:510   */\n      0x00\n        /* \"#utility.yul\":532:556   */\n      tag_81\n        /* \"#utility.yul\":550:555   */\n      dup3\n        /* \"#utility.yul\":532:556   */\n      tag_58\n      jump\t// in\n    tag_81:\n        /* \"#utility.yul\":521:556   */\n      swap1\n      pop\n        /* \"#utility.yul\":466:562   */\n      swap2\n      swap1\n      pop\n      jump\t// out\n        /* \"#utility.yul\":568:690   */\n    tag_60:\n        /* \"#utility.yul\":641:665   */\n      tag_83\n        /* \"#utility.yul\":659:664   */\n      dup2\n        /* \"#utility.yul\":641:665   */\n      tag_59\n      jump\t// in\n    tag_83:\n        /* \"#utility.yul\":634:639   */\n      dup2\n        /* \"#utility.yul\":631:666   */\n      eq\n        /* \"#utility.yul\":621:684   */\n      tag_84\n      jumpi\n        /* \"#utility.yul\":680:681   */\n      0x00\n        /* \"#utility.yul\":677:678   */\n      0x00\n        /* \"#utility.yul\":670:682   */\n      revert\n        /* \"#utility.yul\":621:684   */\n    tag_84:\n        /* \"#utility.yul\":568:690   */\n      pop\n      jump\t// out\n        /* \"#utility.yul\":696:835   */\n    tag_61:\n        /* \"#utility.yul\":742:747   */\n      0x00\n        /* \"#utility.yul\":780:786   */\n      dup2\n        /* \"#utility.yul\":767:787   */\n      calldataload\n        /* \"#utility.yul\":758:787   */\n      swap1\n      pop\n        /* \"#utility.yul\":796:829   */\n      tag_86\n        /* \"#utility.yul\":823:828   */\n      dup2\n        /* \"#utility.yul\":796:829   */\n      tag_60\n      jump\t// in\n    tag_86:\n        /* \"#utility.yul\":696:835   */\n      swap3\n      swap2\n      pop\n      pop\n      jump\t// out\n        /* \"#utility.yul\":841:1170   */\n    tag_11:\n        /* \"#utility.yul\":900:906   */\n      0x00\n        /* \"#utility.yul\":949:951   */\n      0x20\n        /* \"#utility.yul\":937:946   */\n      dup3\n        /* \"#utility.yul\":928:935   */\n      dup5\n        /* \"#utility.yul\":924:947   */\n      sub\n        /* \"#utility.yul\":920:952   */\n      slt\n        /* \"#utility.yul\":917:1036   */\n      iszero\n      tag_88\n      jumpi\n        /* \"#utility.yul\":955:1034   */\n      tag_89\n      tag_56\n      jump\t// in\n    tag_89:\n        /* \"#utility.yul\":917:1036   */\n    tag_88:\n        /* \"#utility.yul\":1075:1076   */\n      0x00\n        /* \"#utility.yul\":1100:1153   */\n      tag_90\n        /* \"#utility.yul\":1145:1152   */\n      dup5\n        /* \"#utility.yul\":1136:1142   */\n      dup3\n        /* \"#utility.yul\":1125:1134   */\n      dup6\n        /* \"#utility.yul\":1121:1143   */\n      add\n        /* \"#utility.yul\":1100:1153   */\n      tag_61\n      jump\t// in\n    tag_90:\n        /* \"#utility.yul\":1090:1153   */\n      swap2\n      pop\n        /* \"#utility.yul\":1046:1163   */\n      pop\n        /* \"#utility.yul\":841:1170   */\n      swap3\n      swap2\n      pop\n      pop\n      jump\t// out\n        /* \"#utility.yul\":1176:1253   */\n    tag_62:\n        /* \"#utility.yul\":1213:1220   */\n      0x00\n        /* \"#utility.yul\":1242:1247   */\n      dup2\n        /* \"#utility.yul\":1231:1247   */\n      swap1\n      pop\n        /* \"#utility.yul\":1176:1253   */\n      swap2\n      swap1\n      pop\n      jump\t// out\n        /* \"#utility.yul\":1259:1377   */\n    tag_63:\n        /* \"#utility.yul\":1346:1370   */\n      tag_93\n        /* \"#utility.yul\":1364:1369   */\n      dup2\n        /* \"#utility.yul\":1346:1370   */\n      tag_62\n      jump\t// in\n    tag_93:\n        /* \"#utility.yul\":1341:1344   */\n      dup3\n        /* \"#utility.yul\":1334:1371   */\n      mstore\n        /* \"#utility.yul\":1259:1377   */\n      pop\n      pop\n      jump\t// out\n        /* \"#utility.yul\":1383:1605   */\n    tag_14:\n        /* \"#utility.yul\":1476:1480   */\n      0x00\n        /* \"#utility.yul\":1514:1516   */\n      0x20\n        /* \"#utility.yul\":1503:1512   */\n      dup3\n        /* \"#utility.yul\":1499:1517   */\n      add\n        /* \"#utility.yul\":1491:1517   */\n      swap1\n      pop\n        /* \"#utility.yul\":1527:1598   */\n      tag_95\n        /* \"#utility.yul\":1595:1596   */\n      0x00\n        /* \"#utility.yul\":1584:1593   */\n      dup4\n        /* \"#utility.yul\":1580:1597   */\n      add\n        /* \"#utility.yul\":1571:1577   */\n      dup5\n        /* \"#utility.yul\":1527:1598   */\n      tag_63\n      jump\t// in\n    tag_95:\n        /* \"#utility.yul\":1383:1605   */\n      swap3\n      swap2\n      pop\n      pop\n      jump\t// out\n        /* \"#utility.yul\":1611:1733   */\n    tag_64:\n        /* \"#utility.yul\":1684:1708   */\n      tag_97\n        /* \"#utility.yul\":1702:1707   */\n      dup2\n        /* \"#utility.yul\":1684:1708   */\n      tag_62\n      jump\t// in\n    tag_97:\n        /* \"#utility.yul\":1677:1682   */\n      dup2\n        /* \"#utility.yul\":1674:1709   */\n      eq\n        /* \"#utility.yul\":1664:1727   */\n      tag_98\n      jumpi\n        /* \"#utility.yul\":1723:1724   */\n      0x00\n        /* \"#utility.yul\":1720:1721   */\n      0x00\n        /* \"#utility.yul\":1713:1725   */\n      revert\n        /* \"#utility.yul\":1664:1727   */\n    tag_98:\n        /* \"#utility.yul\":1611:1733   */\n      pop\n      jump\t// out\n        /* \"#utility.yul\":1739:1878   */\n    tag_65:\n        /* \"#utility.yul\":1785:1790   */\n      0x00\n        /* \"#utility.yul\":1823:1829   */\n      dup2\n        /* \"#utility.yul\":1810:1830   */\n      calldataload\n        /* \"#utility.yul\":1801:1830   */\n      swap1\n      pop\n        /* \"#utility.yul\":1839:1872   */\n      tag_100\n        /* \"#utility.yul\":1866:1871   */\n      dup2\n        /* \"#utility.yul\":1839:1872   */\n      tag_64\n      jump\t// in\n    tag_100:\n        /* \"#utility.yul\":1739:1878   */\n      swap3\n      swap2\n      pop\n      pop\n      jump\t// out\n        /* \"#utility.yul\":1884:2213   */\n    tag_18:\n        /* \"#utility.yul\":1943:1949   */\n      0x00\n        /* \"#utility.yul\":1992:1994   */\n      0x20\n        /* \"#utility.yul\":1980:1989   */\n      dup3\n        /* \"#utility.yul\":1971:1978   */\n      dup5\n        /* \"#utility.yul\":1967:1990   */\n      sub\n        /* \"#utility.yul\":1963:1995   */\n      slt\n        /* \"#utility.yul\":1960:2079   */\n      iszero\n      tag_102\n      jumpi\n        /* \"#utility.yul\":1998:2077   */\n      tag_103\n      tag_56\n      jump\t// in\n    tag_103:\n        /* \"#utility.yul\":1960:2079   */\n    tag_102:\n        /* \"#utility.yul\":2118:2119   */\n      0x00\n        /* \"#utility.yul\":2143:2196   */\n      tag_104\n        /* \"#utility.yul\":2188:2195   */\n      dup5\n        /* \"#utility.yul\":2179:2185   */\n      dup3\n        /* \"#utility.yul\":2168:2177   */\n      dup6\n        /* \"#utility.yul\":2164:2186   */\n      add\n        /* \"#utility.yul\":2143:2196   */\n      tag_65\n      jump\t// in\n    tag_104:\n        /* \"#utility.yul\":2133:2196   */\n      swap2\n      pop\n        /* \"#utility.yul\":2089:2206   */\n      pop\n        /* \"#utility.yul\":1884:2213   */\n      swap3\n      swap2\n      pop\n      pop\n      jump\t// out\n        /* \"#utility.yul\":2219:2388   */\n    tag_66:\n        /* \"#utility.yul\":2303:2314   */\n      0x00\n        /* \"#utility.yul\":2337:2343   */\n      dup3\n        /* \"#utility.yul\":2332:2335   */\n      dup3\n        /* \"#utility.yul\":2325:2344   */\n      mstore\n        /* \"#utility.yul\":2377:2381   */\n      0x20\n        /* \"#utility.yul\":2372:2375   */\n      dup3\n        /* \"#utility.yul\":2368:2382   */\n      add\n        /* \"#utility.yul\":2353:2382   */\n      swap1\n      pop\n        /* \"#utility.yul\":2219:2388   */\n      swap3\n      swap2\n      pop\n      pop\n      jump\t// out\n        /* \"#utility.yul\":2394:2564   */\n    tag_67:\n        /* \"#utility.yul\":2534:2556   */\n      0x496e73756666696369656e742062616c616e6365000000000000000000000000\n        /* \"#utility.yul\":2530:2531   */\n      0x00\n        /* \"#utility.yul\":2522:2528   */\n      dup3\n        /* \"#utility.yul\":2518:2532   */\n      add\n        /* \"#utility.yul\":2511:2557   */\n      mstore\n        /* \"#utility.yul\":2394:2564   */\n      pop\n      jump\t// out\n        /* \"#utility.yul\":2570:2936   */\n    tag_68:\n        /* \"#utility.yul\":2712:2715   */\n      0x00\n        /* \"#utility.yul\":2733:2800   */\n      tag_108\n        /* \"#utility.yul\":2797:2799   */\n      0x14\n        /* \"#utility.yul\":2792:2795   */\n      dup4\n        /* \"#utility.yul\":2733:2800   */\n      tag_66\n      jump\t// in\n    tag_108:\n        /* \"#utility.yul\":2726:2800   */\n      swap2\n      pop\n        /* \"#utility.yul\":2809:2902   */\n      tag_109\n        /* \"#utility.yul\":2898:2901   */\n      dup3\n        /* \"#utility.yul\":2809:2902   */\n      tag_67\n      jump\t// in\n    tag_109:\n        /* \"#utility.yul\":2927:2929   */\n      0x20\n        /* \"#utility.yul\":2922:2925   */\n      dup3\n        /* \"#utility.yul\":2918:2930   */\n      add\n        /* \"#utility.yul\":2911:2930   */\n      swap1\n      pop\n        /* \"#utility.yul\":2570:2936   */\n      swap2\n      swap1\n      pop\n      jump\t// out\n        /* \"#utility.yul\":2942:3361   */\n    tag_37:\n        /* \"#utility.yul\":3108:3112   */\n      0x00\n        /* \"#utility.yul\":3146:3148   */\n      0x20\n        /* \"#utility.yul\":3135:3144   */\n      dup3\n        /* \"#utility.yul\":3131:3149   */\n      add\n        /* \"#utility.yul\":3123:3149   */\n      swap1\n      pop\n        /* \"#utility.yul\":3195:3204   */\n      dup2\n        /* \"#utility.yul\":3189:3193   */\n      dup2\n        /* \"#utility.yul\":3185:3205   */\n      sub\n        /* \"#utility.yul\":3181:3182   */\n      0x00\n        /* \"#utility.yul\":3170:3179   */\n      dup4\n        /* \"#utility.yul\":3166:3183   */\n      add\n        /* \"#utility.yul\":3159:3206   */\n      mstore\n        /* \"#utility.yul\":3223:3354   */\n      tag_111\n        /* \"#utility.yul\":3349:3353   */\n      dup2\n        /* \"#utility.yul\":3223:3354   */\n      tag_68\n      jump\t// in\n    tag_111:\n        /* \"#utility.yul\":3215:3354   */\n      swap1\n      pop\n        /* \"#utility.yul\":2942:3361   */\n      swap2\n      swap1\n      pop\n      jump\t// out\n        /* \"#utility.yul\":3367:3547   */\n    tag_69:\n        /* \"#utility.yul\":3415:3492   */\n      0x4e487b7100000000000000000000000000000000000000000000000000000000\n        /* \"#utility.yul\":3412:3413   */\n      0x00\n        /* \"#utility.yul\":3405:3493   */\n      mstore\n        /* \"#utility.yul\":3512:3516   */\n      0x11\n        /* \"#utility.yul\":3509:3510   */\n      0x04\n        /* \"#utility.yul\":3502:3517   */\n      mstore\n        /* \"#utility.yul\":3536:3540   */\n      0x24\n        /* \"#utility.yul\":3533:3534   */\n      0x00\n        /* \"#utility.yul\":3526:3541   */\n      revert\n        /* \"#utility.yul\":3553:3747   */\n    tag_39:\n        /* \"#utility.yul\":3593:3597   */\n      0x00\n        /* \"#utility.yul\":3613:3633   */\n      tag_114\n        /* \"#utility.yul\":3631:3632   */\n      dup3\n        /* \"#utility.yul\":3613:3633   */\n      tag_62\n      jump\t// in\n    tag_114:\n        /* \"#utility.yul\":3608:3633   */\n      swap2\n      pop\n        /* \"#utility.yul\":3647:3667   */\n      tag_115\n        /* \"#utility.yul\":3665:3666   */\n      dup4\n        /* \"#utility.yul\":3647:3667   */\n      tag_62\n      jump\t// in\n    tag_115:\n        /* \"#utility.yul\":3642:3667   */\n      swap3\n      pop\n        /* \"#utility.yul\":3691:3692   */\n      dup3\n        /* \"#utility.yul\":3688:3689   */\n      dup3\n        /* \"#utility.yul\":3684:3693   */\n      sub\n        /* \"#utility.yul\":3676:3693   */\n      swap1\n      pop\n        /* \"#utility.yul\":3715:3716   */\n      dup2\n        /* \"#utility.yul\":3709:3713   */\n      dup2\n        /* \"#utility.yul\":3706:3717   */\n      gt\n        /* \"#utility.yul\":3703:3740   */\n      iszero\n      tag_116\n      jumpi\n        /* \"#utility.yul\":3720:3738   */\n      tag_117\n      tag_69\n      jump\t// in\n    tag_117:\n        /* \"#utility.yul\":3703:3740   */\n    tag_116:\n        /* \"#utility.yul\":3553:3747   */\n      swap3\n      swap2\n      pop\n      pop\n      jump\t// out\n        /* \"#utility.yul\":3753:3900   */\n    tag_70:\n        /* \"#utility.yul\":3854:3865   */\n      0x00\n        /* \"#utility.yul\":3891:3894   */\n      dup2\n        /* \"#utility.yul\":3876:3894   */\n      swap1\n      pop\n        /* \"#utility.yul\":3753:3900   */\n      swap3\n      swap2\n      pop\n      pop\n      jump\t// out\n        /* \"#utility.yul\":3906:4020   */\n    tag_71:\n      pop\n      jump\t// out\n        /* \"#utility.yul\":4026:4424   */\n    tag_72:\n        /* \"#utility.yul\":4185:4188   */\n      0x00\n        /* \"#utility.yul\":4206:4289   */\n      tag_121\n        /* \"#utility.yul\":4287:4288   */\n      0x00\n        /* \"#utility.yul\":4282:4285   */\n      dup4\n        /* \"#utility.yul\":4206:4289   */\n      tag_70\n      jump\t// in\n    tag_121:\n        /* \"#utility.yul\":4199:4289   */\n      swap2\n      pop\n        /* \"#utility.yul\":4298:4391   */\n      tag_122\n        /* \"#utility.yul\":4387:4390   */\n      dup3\n        /* \"#utility.yul\":4298:4391   */\n      tag_71\n      jump\t// in\n    tag_122:\n        /* \"#utility.yul\":4416:4417   */\n      0x00\n        /* \"#utility.yul\":4411:4414   */\n      dup3\n        /* \"#utility.yul\":4407:4418   */\n      add\n        /* \"#utility.yul\":4400:4418   */\n      swap1\n      pop\n        /* \"#utility.yul\":4026:4424   */\n      swap2\n      swap1\n      pop\n      jump\t// out\n        /* \"#utility.yul\":4430:4809   */\n    tag_42:\n        /* \"#utility.yul\":4614:4617   */\n      0x00\n        /* \"#utility.yul\":4636:4783   */\n      tag_124\n        /* \"#utility.yul\":4779:4782   */\n      dup3\n        /* \"#utility.yul\":4636:4783   */\n      tag_72\n      jump\t// in\n    tag_124:\n        /* \"#utility.yul\":4629:4783   */\n      swap2\n      pop\n        /* \"#utility.yul\":4800:4803   */\n      dup2\n        /* \"#utility.yul\":4793:4803   */\n      swap1\n      pop\n        /* \"#utility.yul\":4430:4809   */\n      swap2\n      swap1\n      pop\n      jump\t// out\n        /* \"#utility.yul\":4815:4980   */\n    tag_73:\n        /* \"#utility.yul\":4955:4972   */\n      0x5472616e73666572206661696c65640000000000000000000000000000000000\n        /* \"#utility.yul\":4951:4952   */\n      0x00\n        /* \"#utility.yul\":4943:4949   */\n      dup3\n        /* \"#utility.yul\":4939:4953   */\n      add\n        /* \"#utility.yul\":4932:4973   */\n      mstore\n        /* \"#utility.yul\":4815:4980   */\n      pop\n      jump\t// out\n        /* \"#utility.yul\":4986:5352   */\n    tag_74:\n        /* \"#utility.yul\":5128:5131   */\n      0x00\n        /* \"#utility.yul\":5149:5216   */\n      tag_127\n        /* \"#utility.yul\":5213:5215   */\n      0x0f\n        /* \"#utility.yul\":5208:5211   */\n      dup4\n        /* \"#utility.yul\":5149:5216   */\n      tag_66\n      jump\t// in\n    tag_127:\n        /* \"#utility.yul\":5142:5216   */\n      swap2\n      pop\n        /* \"#utility.yul\":5225:5318   */\n      tag_128\n        /* \"#utility.yul\":5314:5317   */\n      dup3\n        /* \"#utility.yul\":5225:5318   */\n      tag_73\n      jump\t// in\n    tag_128:\n        /* \"#utility.yul\":5343:5345   */\n      0x20\n        /* \"#utility.yul\":5338:5341   */\n      dup3\n        /* \"#utility.yul\":5334:5346   */\n      add\n        /* \"#utility.yul\":5327:5346   */\n      swap1\n      pop\n        /* \"#utility.yul\":4986:5352   */\n      swap2\n      swap1\n      pop\n      jump\t// out\n        /* \"#utility.yul\":5358:5777   */\n    tag_48:\n        /* \"#utility.yul\":5524:5528   */\n      0x00\n        /* \"#utility.yul\":5562:5564   */\n      0x20\n        /* \"#utility.yul\":5551:5560   */\n      dup3\n        /* \"#utility.yul\":5547:5565   */\n      add\n        /* \"#utility.yul\":5539:5565   */\n      swap1\n      pop\n        /* \"#utility.yul\":5611:5620   */\n      dup2\n        /* \"#utility.yul\":5605:5609   */\n      dup2\n        /* \"#utility.yul\":5601:5621   */\n      sub\n        /* \"#utility.yul\":5597:5598   */\n      0x00\n        /* \"#utility.yul\":5586:5595   */\n      dup4\n        /* \"#utility.yul\":5582:5599   */\n      add\n        /* \"#utility.yul\":5575:5622   */\n      mstore\n        /* \"#utility.yul\":5639:5770   */\n      tag_130\n        /* \"#utility.yul\":5765:5769   */\n      dup2\n        /* \"#utility.yul\":5639:5770   */\n      tag_74\n      jump\t// in\n    tag_130:\n        /* \"#utility.yul\":5631:5770   */\n      swap1\n      pop\n        /* \"#utility.yul\":5358:5777   */\n      swap2\n      swap1\n      pop\n      jump\t// out\n        /* \"#utility.yul\":5783:5974   */\n    tag_53:\n        /* \"#utility.yul\":5823:5826   */\n      0x00\n        /* \"#utility.yul\":5842:5862   */\n      tag_132\n        /* \"#utility.yul\":5860:5861   */\n      dup3\n        /* \"#utility.yul\":5842:5862   */\n      tag_62\n      jump\t// in\n    tag_132:\n        /* \"#utility.yul\":5837:5862   */\n      swap2\n      pop\n        /* \"#utility.yul\":5876:5896   */\n      tag_133\n        /* \"#utility.yul\":5894:5895   */\n      dup4\n        /* \"#utility.yul\":5876:5896   */\n      tag_62\n      jump\t// in\n    tag_133:\n        /* \"#utility.yul\":5871:5896   */\n      swap3\n      pop\n        /* \"#utility.yul\":5919:5920   */\n      dup3\n        /* \"#utility.yul\":5916:5917   */\n      dup3\n        /* \"#utility.yul\":5912:5921   */\n      add\n        /* \"#utility.yul\":5905:5921   */\n      swap1\n      pop\n        /* \"#utility.yul\":5940:5943   */\n      dup1\n        /* \"#utility.yul\":5937:5938   */\n      dup3\n        /* \"#utility.yul\":5934:5944   */\n      gt\n        /* \"#utility.yul\":5931:5967   */\n      iszero\n      tag_134\n      jumpi\n        /* \"#utility.yul\":5947:5965   */\n      tag_135\n      tag_69\n      jump\t// in\n    tag_135:\n        /* \"#utility.yul\":5931:5967   */\n    tag_134:\n        /* \"#utility.yul\":5783:5974   */\n      swap3\n      swap2\n      pop\n      pop\n      jump\t// out\n\n    auxdata: 0xa26469706673582212204420a93262d05708a8f7b7201b56bb44ef3b2468f27eca73c96aa84aefe4d2ed64736f6c63430008220033\n}\n",
				"bytecode": {
					"linkReferences": {},
					"object": "6080604052348015600e575f5ffd5b506106688061001c5f395ff3fe608060405260043610610054575f3560e01c806327e235e3146100585780632e1a7d4d1461009457806339d1f908146100bc5780637d882097146100e6578063baf4340614610110578063d0e30db01461013a575b5f5ffd5b348015610063575f5ffd5b5061007e600480360381019061007991906103cd565b610144565b60405161008b9190610410565b60405180910390f35b34801561009f575f5ffd5b506100ba60048036038101906100b59190610453565b610158565b005b3480156100c7575f5ffd5b506100d06102ed565b6040516100dd9190610410565b60405180910390f35b3480156100f1575f5ffd5b506100fa6102f4565b6040516101079190610410565b60405180910390f35b34801561011b575f5ffd5b506101246102fa565b6040516101319190610410565b60405180910390f35b610142610303565b005b5f602052805f5260405f205f915090505481565b805f5f3373ffffffffffffffffffffffffffffffffffffffff1673ffffffffffffffffffffffffffffffffffffffff1681526020019081526020015f205410156101d7576040517f08c379a00000000000000000000000000000000000000000000000000000000081526004016101ce906104d8565b60405180910390fd5b805f5f3373ffffffffffffffffffffffffffffffffffffffff1673ffffffffffffffffffffffffffffffffffffffff1681526020019081526020015f205f8282546102229190610523565b925050819055508060015f82825461023a9190610523565b925050819055505f3373ffffffffffffffffffffffffffffffffffffffff168260405161026690610583565b5f6040518083038185875af1925050503d805f81146102a0576040519150601f19603f3d011682016040523d82523d5f602084013e6102a5565b606091505b50509050806102e9576040517f08c379a00000000000000000000000000000000000000000000000000000000081526004016102e0906105e1565b60405180910390fd5b5050565b5f47905090565b60015481565b5f600154905090565b345f5f3373ffffffffffffffffffffffffffffffffffffffff1673ffffffffffffffffffffffffffffffffffffffff1681526020019081526020015f205f82825461034e91906105ff565b925050819055503460015f82825461036691906105ff565b92505081905550565b5f5ffd5b5f73ffffffffffffffffffffffffffffffffffffffff82169050919050565b5f61039c82610373565b9050919050565b6103ac81610392565b81146103b6575f5ffd5b50565b5f813590506103c7816103a3565b92915050565b5f602082840312156103e2576103e161036f565b5b5f6103ef848285016103b9565b91505092915050565b5f819050919050565b61040a816103f8565b82525050565b5f6020820190506104235f830184610401565b92915050565b610432816103f8565b811461043c575f5ffd5b50565b5f8135905061044d81610429565b92915050565b5f602082840312156104685761046761036f565b5b5f6104758482850161043f565b91505092915050565b5f82825260208201905092915050565b7f496e73756666696369656e742062616c616e63650000000000000000000000005f82015250565b5f6104c260148361047e565b91506104cd8261048e565b602082019050919050565b5f6020820190508181035f8301526104ef816104b6565b9050919050565b7f4e487b71000000000000000000000000000000000000000000000000000000005f52601160045260245ffd5b5f61052d826103f8565b9150610538836103f8565b92508282039050818111156105505761054f6104f6565b5b92915050565b5f81905092915050565b50565b5f61056e5f83610556565b915061057982610560565b5f82019050919050565b5f61058d82610563565b9150819050919050565b7f5472616e73666572206661696c656400000000000000000000000000000000005f82015250565b5f6105cb600f8361047e565b91506105d682610597565b602082019050919050565b5f6020820190508181035f8301526105f8816105bf565b9050919050565b5f610609826103f8565b9150610614836103f8565b925082820190508082111561062c5761062b6104f6565b5b9291505056fea26469706673582212204420a93262d05708a8f7b7201b56bb44ef3b2468f27eca73c96aa84aefe4d2ed64736f6c63430008220033",
					"opcodes": "PUSH1 0x80 PUSH1 0x40 MSTORE CALLVALUE DUP1 ISZERO PUSH1 0xE JUMPI PUSH0 PUSH0 REVERT JUMPDEST POP PUSH2 0x668 DUP1 PUSH2 0x1C PUSH0 CODECOPY PUSH0 RETURN INVALID PUSH1 0x80 PUSH1 0x40 MSTORE PUSH1 0x4 CALLDATASIZE LT PUSH2 0x54 JUMPI PUSH0 CALLDATALOAD PUSH1 0xE0 SHR DUP1 PUSH4 0x27E235E3 EQ PUSH2 0x58 JUMPI DUP1 PUSH4 0x2E1A7D4D EQ PUSH2 0x94 JUMPI DUP1 PUSH4 0x39D1F908 EQ PUSH2 0xBC JUMPI DUP1 PUSH4 0x7D882097 EQ PUSH2 0xE6 JUMPI DUP1 PUSH4 0xBAF43406 EQ PUSH2 0x110 JUMPI DUP1 PUSH4 0xD0E30DB0 EQ PUSH2 0x13A JUMPI JUMPDEST PUSH0 PUSH0 REVERT JUMPDEST CALLVALUE DUP1 ISZERO PUSH2 0x63 JUMPI PUSH0 PUSH0 REVERT JUMPDEST POP PUSH2 0x7E PUSH1 0x4 DUP1 CALLDATASIZE SUB DUP2 ADD SWAP1 PUSH2 0x79 SWAP2 SWAP1 PUSH2 0x3CD JUMP JUMPDEST PUSH2 0x144 JUMP JUMPDEST PUSH1 0x40 MLOAD PUSH2 0x8B SWAP2 SWAP1 PUSH2 0x410 JUMP JUMPDEST PUSH1 0x40 MLOAD DUP1 SWAP2 SUB SWAP1 RETURN JUMPDEST CALLVALUE DUP1 ISZERO PUSH2 0x9F JUMPI PUSH0 PUSH0 REVERT JUMPDEST POP PUSH2 0xBA PUSH1 0x4 DUP1 CALLDATASIZE SUB DUP2 ADD SWAP1 PUSH2 0xB5 SWAP2 SWAP1 PUSH2 0x453 JUMP JUMPDEST PUSH2 0x158 JUMP JUMPDEST STOP JUMPDEST CALLVALUE DUP1 ISZERO PUSH2 0xC7 JUMPI PUSH0 PUSH0 REVERT JUMPDEST POP PUSH2 0xD0 PUSH2 0x2ED JUMP JUMPDEST PUSH1 0x40 MLOAD PUSH2 0xDD SWAP2 SWAP1 PUSH2 0x410 JUMP JUMPDEST PUSH1 0x40 MLOAD DUP1 SWAP2 SUB SWAP1 RETURN JUMPDEST CALLVALUE DUP1 ISZERO PUSH2 0xF1 JUMPI PUSH0 PUSH0 REVERT JUMPDEST POP PUSH2 0xFA PUSH2 0x2F4 JUMP JUMPDEST PUSH1 0x40 MLOAD PUSH2 0x107 SWAP2 SWAP1 PUSH2 0x410 JUMP JUMPDEST PUSH1 0x40 MLOAD DUP1 SWAP2 SUB SWAP1 RETURN JUMPDEST CALLVALUE DUP1 ISZERO PUSH2 0x11B JUMPI PUSH0 PUSH0 REVERT JUMPDEST POP PUSH2 0x124 PUSH2 0x2FA JUMP JUMPDEST PUSH1 0x40 MLOAD PUSH2 0x131 SWAP2 SWAP1 PUSH2 0x410 JUMP JUMPDEST PUSH1 0x40 MLOAD DUP1 SWAP2 SUB SWAP1 RETURN JUMPDEST PUSH2 0x142 PUSH2 0x303 JUMP JUMPDEST STOP JUMPDEST PUSH0 PUSH1 0x20 MSTORE DUP1 PUSH0 MSTORE PUSH1 0x40 PUSH0 KECCAK256 PUSH0 SWAP2 POP SWAP1 POP SLOAD DUP2 JUMP JUMPDEST DUP1 PUSH0 PUSH0 CALLER PUSH20 0xFFFFFFFFFFFFFFFFFFFFFFFFFFFFFFFFFFFFFFFF AND PUSH20 0xFFFFFFFFFFFFFFFFFFFFFFFFFFFFFFFFFFFFFFFF AND DUP2 MSTORE PUSH1 0x20 ADD SWAP1 DUP2 MSTORE PUSH1 0x20 ADD PUSH0 KECCAK256 SLOAD LT ISZERO PUSH2 0x1D7 JUMPI PUSH1 0x40 MLOAD PUSH32 0x8C379A000000000000000000000000000000000000000000000000000000000 DUP2 MSTORE PUSH1 0x4 ADD PUSH2 0x1CE SWAP1 PUSH2 0x4D8 JUMP JUMPDEST PUSH1 0x40 MLOAD DUP1 SWAP2 SUB SWAP1 REVERT JUMPDEST DUP1 PUSH0 PUSH0 CALLER PUSH20 0xFFFFFFFFFFFFFFFFFFFFFFFFFFFFFFFFFFFFFFFF AND PUSH20 0xFFFFFFFFFFFFFFFFFFFFFFFFFFFFFFFFFFFFFFFF AND DUP2 MSTORE PUSH1 0x20 ADD SWAP1 DUP2 MSTORE PUSH1 0x20 ADD PUSH0 KECCAK256 PUSH0 DUP3 DUP3 SLOAD PUSH2 0x222 SWAP2 SWAP1 PUSH2 0x523 JUMP JUMPDEST SWAP3 POP POP DUP2 SWAP1 SSTORE POP DUP1 PUSH1 0x1 PUSH0 DUP3 DUP3 SLOAD PUSH2 0x23A SWAP2 SWAP1 PUSH2 0x523 JUMP JUMPDEST SWAP3 POP POP DUP2 SWAP1 SSTORE POP PUSH0 CALLER PUSH20 0xFFFFFFFFFFFFFFFFFFFFFFFFFFFFFFFFFFFFFFFF AND DUP3 PUSH1 0x40 MLOAD PUSH2 0x266 SWAP1 PUSH2 0x583 JUMP JUMPDEST PUSH0 PUSH1 0x40 MLOAD DUP1 DUP4 SUB DUP2 DUP6 DUP8 GAS CALL SWAP3 POP POP POP RETURNDATASIZE DUP1 PUSH0 DUP2 EQ PUSH2 0x2A0 JUMPI PUSH1 0x40 MLOAD SWAP2 POP PUSH1 0x1F NOT PUSH1 0x3F RETURNDATASIZE ADD AND DUP3 ADD PUSH1 0x40 MSTORE RETURNDATASIZE DUP3 MSTORE RETURNDATASIZE PUSH0 PUSH1 0x20 DUP5 ADD RETURNDATACOPY PUSH2 0x2A5 JUMP JUMPDEST PUSH1 0x60 SWAP2 POP JUMPDEST POP POP SWAP1 POP DUP1 PUSH2 0x2E9 JUMPI PUSH1 0x40 MLOAD PUSH32 0x8C379A000000000000000000000000000000000000000000000000000000000 DUP2 MSTORE PUSH1 0x4 ADD PUSH2 0x2E0 SWAP1 PUSH2 0x5E1 JUMP JUMPDEST PUSH1 0x40 MLOAD DUP1 SWAP2 SUB SWAP1 REVERT JUMPDEST POP POP JUMP JUMPDEST PUSH0 SELFBALANCE SWAP1 POP SWAP1 JUMP JUMPDEST PUSH1 0x1 SLOAD DUP2 JUMP JUMPDEST PUSH0 PUSH1 0x1 SLOAD SWAP1 POP SWAP1 JUMP JUMPDEST CALLVALUE PUSH0 PUSH0 CALLER PUSH20 0xFFFFFFFFFFFFFFFFFFFFFFFFFFFFFFFFFFFFFFFF AND PUSH20 0xFFFFFFFFFFFFFFFFFFFFFFFFFFFFFFFFFFFFFFFF AND DUP2 MSTORE PUSH1 0x20 ADD SWAP1 DUP2 MSTORE PUSH1 0x20 ADD PUSH0 KECCAK256 PUSH0 DUP3 DUP3 SLOAD PUSH2 0x34E SWAP2 SWAP1 PUSH2 0x5FF JUMP JUMPDEST SWAP3 POP POP DUP2 SWAP1 SSTORE POP CALLVALUE PUSH1 0x1 PUSH0 DUP3 DUP3 SLOAD PUSH2 0x366 SWAP2 SWAP1 PUSH2 0x5FF JUMP JUMPDEST SWAP3 POP POP DUP2 SWAP1 SSTORE POP JUMP JUMPDEST PUSH0 PUSH0 REVERT JUMPDEST PUSH0 PUSH20 0xFFFFFFFFFFFFFFFFFFFFFFFFFFFFFFFFFFFFFFFF DUP3 AND SWAP1 POP SWAP2 SWAP1 POP JUMP JUMPDEST PUSH0 PUSH2 0x39C DUP3 PUSH2 0x373 JUMP JUMPDEST SWAP1 POP SWAP2 SWAP1 POP JUMP JUMPDEST PUSH2 0x3AC DUP2 PUSH2 0x392 JUMP JUMPDEST DUP2 EQ PUSH2 0x3B6 JUMPI PUSH0 PUSH0 REVERT JUMPDEST POP JUMP JUMPDEST PUSH0 DUP2 CALLDATALOAD SWAP1 POP PUSH2 0x3C7 DUP2 PUSH2 0x3A3 JUMP JUMPDEST SWAP3 SWAP2 POP POP JUMP JUMPDEST PUSH0 PUSH1 0x20 DUP3 DUP5 SUB SLT ISZERO PUSH2 0x3E2 JUMPI PUSH2 0x3E1 PUSH2 0x36F JUMP JUMPDEST JUMPDEST PUSH0 PUSH2 0x3EF DUP5 DUP3 DUP6 ADD PUSH2 0x3B9 JUMP JUMPDEST SWAP2 POP POP SWAP3 SWAP2 POP POP JUMP JUMPDEST PUSH0 DUP2 SWAP1 POP SWAP2 SWAP1 POP JUMP JUMPDEST PUSH2 0x40A DUP2 PUSH2 0x3F8 JUMP JUMPDEST DUP3 MSTORE POP POP JUMP JUMPDEST PUSH0 PUSH1 0x20 DUP3 ADD SWAP1 POP PUSH2 0x423 PUSH0 DUP4 ADD DUP5 PUSH2 0x401 JUMP JUMPDEST SWAP3 SWAP2 POP POP JUMP JUMPDEST PUSH2 0x432 DUP2 PUSH2 0x3F8 JUMP JUMPDEST DUP2 EQ PUSH2 0x43C JUMPI PUSH0 PUSH0 REVERT JUMPDEST POP JUMP JUMPDEST PUSH0 DUP2 CALLDATALOAD SWAP1 POP PUSH2 0x44D DUP2 PUSH2 0x429 JUMP JUMPDEST SWAP3 SWAP2 POP POP JUMP JUMPDEST PUSH0 PUSH1 0x20 DUP3 DUP5 SUB SLT ISZERO PUSH2 0x468 JUMPI PUSH2 0x467 PUSH2 0x36F JUMP JUMPDEST JUMPDEST PUSH0 PUSH2 0x475 DUP5 DUP3 DUP6 ADD PUSH2 0x43F JUMP JUMPDEST SWAP2 POP POP SWAP3 SWAP2 POP POP JUMP JUMPDEST PUSH0 DUP3 DUP3 MSTORE PUSH1 0x20 DUP3 ADD SWAP1 POP SWAP3 SWAP2 POP POP JUMP JUMPDEST PUSH32 0x496E73756666696369656E742062616C616E6365000000000000000000000000 PUSH0 DUP3 ADD MSTORE POP JUMP JUMPDEST PUSH0 PUSH2 0x4C2 PUSH1 0x14 DUP4 PUSH2 0x47E JUMP JUMPDEST SWAP2 POP PUSH2 0x4CD DUP3 PUSH2 0x48E JUMP JUMPDEST PUSH1 0x20 DUP3 ADD SWAP1 POP SWAP2 SWAP1 POP JUMP JUMPDEST PUSH0 PUSH1 0x20 DUP3 ADD SWAP1 POP DUP2 DUP2 SUB PUSH0 DUP4 ADD MSTORE PUSH2 0x4EF DUP2 PUSH2 0x4B6 JUMP JUMPDEST SWAP1 POP SWAP2 SWAP1 POP JUMP JUMPDEST PUSH32 0x4E487B7100000000000000000000000000000000000000000000000000000000 PUSH0 MSTORE PUSH1 0x11 PUSH1 0x4 MSTORE PUSH1 0x24 PUSH0 REVERT JUMPDEST PUSH0 PUSH2 0x52D DUP3 PUSH2 0x3F8 JUMP JUMPDEST SWAP2 POP PUSH2 0x538 DUP4 PUSH2 0x3F8 JUMP JUMPDEST SWAP3 POP DUP3 DUP3 SUB SWAP1 POP DUP2 DUP2 GT ISZERO PUSH2 0x550 JUMPI PUSH2 0x54F PUSH2 0x4F6 JUMP JUMPDEST JUMPDEST SWAP3 SWAP2 POP POP JUMP JUMPDEST PUSH0 DUP2 SWAP1 POP SWAP3 SWAP2 POP POP JUMP JUMPDEST POP JUMP JUMPDEST PUSH0 PUSH2 0x56E PUSH0 DUP4 PUSH2 0x556 JUMP JUMPDEST SWAP2 POP PUSH2 0x579 DUP3 PUSH2 0x560 JUMP JUMPDEST PUSH0 DUP3 ADD SWAP1 POP SWAP2 SWAP1 POP JUMP JUMPDEST PUSH0 PUSH2 0x58D DUP3 PUSH2 0x563 JUMP JUMPDEST SWAP2 POP DUP2 SWAP1 POP SWAP2 SWAP1 POP JUMP JUMPDEST PUSH32 0x5472616E73666572206661696C65640000000000000000000000000000000000 PUSH0 DUP3 ADD MSTORE POP JUMP JUMPDEST PUSH0 PUSH2 0x5CB PUSH1 0xF DUP4 PUSH2 0x47E JUMP JUMPDEST SWAP2 POP PUSH2 0x5D6 DUP3 PUSH2 0x597 JUMP JUMPDEST PUSH1 0x20 DUP3 ADD SWAP1 POP SWAP2 SWAP1 POP JUMP JUMPDEST PUSH0 PUSH1 0x20 DUP3 ADD SWAP1 POP DUP2 DUP2 SUB PUSH0 DUP4 ADD MSTORE PUSH2 0x5F8 DUP2 PUSH2 0x5BF JUMP JUMPDEST SWAP1 POP SWAP2 SWAP1 POP JUMP JUMPDEST PUSH0 PUSH2 0x609 DUP3 PUSH2 0x3F8 JUMP JUMPDEST SWAP2 POP PUSH2 0x614 DUP4 PUSH2 0x3F8 JUMP JUMPDEST SWAP3 POP DUP3 DUP3 ADD SWAP1 POP DUP1 DUP3 GT ISZERO PUSH2 0x62C JUMPI PUSH2 0x62B PUSH2 0x4F6 JUMP JUMPDEST JUMPDEST SWAP3 SWAP2 POP POP JUMP INVALID LOG2 PUSH5 0x6970667358 0x22 SLT KECCAK256 PREVRANDAO KECCAK256 0xA9 ORIGIN PUSH3 0xD05708 0xA8 0xF7 0xB7 KECCAK256 SHL JUMP 0xBB PREVRANDAO 0xEF EXTCODESIZE 0x24 PUSH9 0xF27ECA73C96AA84AEF RETF 0xD2 0xED PUSH5 0x736F6C6343 STOP ADDMOD 0x22 STOP CALLER "
				},
				"gasEstimates": {
					"creation": {
						"codeDepositCost": "328000",
						"executionCost": "366",
						"totalCost": "328366"
					},
					"external": {
						"accountingBalance()": "2498",
						"actualBalance()": "356",
						"balances(address)": "2779",
						"deposit()": "infinite",
						"totalDeposits()": "2469",
						"withdraw(uint256)": "infinite"
					}
				},
				"methodIdentifiers": {
					"accountingBalance()": "baf43406",
					"actualBalance()": "39d1f908",
					"balances(address)": "27e235e3",
					"deposit()": "d0e30db0",
					"totalDeposits()": "7d882097",
					"withdraw(uint256)": "2e1a7d4d"
				}
			},
			"storageLayout": {
				"storage": [
					{
						"astId": 72,
						"contract": "prac84.sol:VictimContract",
						"label": "balances",
						"offset": 0,
						"slot": "0",
						"type": "t_mapping(t_address,t_uint256)"
					},
					{
						"astId": 74,
						"contract": "prac84.sol:VictimContract",
						"label": "totalDeposits",
						"offset": 0,
						"slot": "1",
						"type": "t_uint256"
					}
				],
				"types": {
					"t_address": {
						"encoding": "inplace",
						"label": "address",
						"numberOfBytes": "20"
					},
					"t_mapping(t_address,t_uint256)": {
						"encoding": "mapping",
						"key": "t_address",
						"label": "mapping(address => uint256)",
						"numberOfBytes": "32",
						"value": "t_uint256"
					},
					"t_uint256": {
						"encoding": "inplace",
						"label": "uint256",
						"numberOfBytes": "32"
					}
				}
			},
			"userdoc": {
				"kind": "user",
				"methods": {},
				"version": 1
			}
		}
	}
}