{
	"prac46.sol": {
		"ManualRevertExampleVul": {
			"abi": [
				{
					"inputs": [
						{
							"internalType": "address",
							"name": "",
							"type": "address"
						}
					],
					"name": "balances",
					"outputs": [
						{
							"internalType": "uint256",
							"name": "",
							"type": "uint256"
						}
					],
					"stateMutability": "view",
					"type": "function"
				},
				{
					"inputs": [
						{
							"internalType": "uint256",
							"name": "_amount",
							"type": "uint256"
						}
					],
					"name": "dangerousDeposit",
					"outputs": [],
					"stateMutability": "nonpayable",
					"type": "function"
				},
				{
					"inputs": [
						{
							"internalType": "uint256",
							"name": "_number",
							"type": "uint256"
						}
					],
					"name": "onlyEven",
					"outputs": [
						{
							"internalType": "string",
							"name": "",
							"type": "string"
						}
					],
					"stateMutability": "pure",
					"type": "function"
				},
				{
					"inputs": [
						{
							"internalType": "bool",
							"name": "_shouldFail",
							"type": "bool"
						}
					],
					"name": "silentRevert",
					"outputs": [],
					"stateMutability": "pure",
					"type": "function"
				},
				{
					"inputs": [],
					"name": "totalCounter",
					"outputs": [
						{
							"internalType": "uint256",
							"name": "",
							"type": "uint256"
						}
					],
					"stateMutability": "view",
					"type": "function"
				}
			],
			"devdoc": {
				"kind": "dev",
				"methods": {},
				"version": 1
			},
			"evm": {
				"assembly": "    /* \"prac46.sol\":1729:2670  contract ManualRevertExampleVul {... */\n  mstore(0x40, 0x80)\n  callvalue\n  dup1\n  iszero\n  tag_1\n  jumpi\n  revert(0x00, 0x00)\ntag_1:\n  pop\n  dataSize(sub_0)\n  dup1\n  dataOffset(sub_0)\n  0x00\n  codecopy\n  0x00\n  return\nstop\n\nsub_0: assembly {\n        /* \"prac46.sol\":1729:2670  contract ManualRevertExampleVul {... */\n      mstore(0x40, 0x80)\n      callvalue\n      dup1\n      iszero\n      tag_1\n      jumpi\n      revert(0x00, 0x00)\n    tag_1:\n      pop\n      jumpi(tag_2, lt(calldatasize, 0x04))\n      shr(0xe0, calldataload(0x00))\n      dup1\n      0x0c86b48b\n      eq\n      tag_3\n      jumpi\n      dup1\n      0x27e235e3\n      eq\n      tag_4\n      jumpi\n      dup1\n      0x97feba9d\n      eq\n      tag_5\n      jumpi\n      dup1\n      0xa05beee8\n      eq\n      tag_6\n      jumpi\n      dup1\n      0xce0b4213\n      eq\n      tag_7\n      jumpi\n    tag_2:\n      revert(0x00, 0x00)\n        /* \"prac46.sol\":2504:2667  function silentRevert(... */\n    tag_3:\n      tag_8\n      0x04\n      dup1\n      calldatasize\n      sub\n      dup2\n      add\n      swap1\n      tag_9\n      swap2\n      swap1\n      tag_10\n      jump\t// in\n    tag_9:\n      tag_11\n      jump\t// in\n    tag_8:\n      stop\n        /* \"prac46.sol\":1806:1849  mapping(address => uint256) public balances */\n    tag_4:\n      tag_12\n      0x04\n      dup1\n      calldatasize\n      sub\n      dup2\n      add\n      swap1\n      tag_13\n      swap2\n      swap1\n      tag_14\n      jump\t// in\n    tag_13:\n      tag_15\n      jump\t// in\n    tag_12:\n      mload(0x40)\n      tag_16\n      swap2\n      swap1\n      tag_17\n      jump\t// in\n    tag_16:\n      mload(0x40)\n      dup1\n      swap2\n      sub\n      swap1\n      return\n        /* \"prac46.sol\":1770:1797  uint256 public totalCounter */\n    tag_5:\n      tag_18\n      tag_19\n      jump\t// in\n    tag_18:\n      mload(0x40)\n      tag_20\n      swap2\n      swap1\n      tag_17\n      jump\t// in\n    tag_20:\n      mload(0x40)\n      dup1\n      swap2\n      sub\n      swap1\n      return\n        /* \"prac46.sol\":1858:2229  function dangerousDeposit(... */\n    tag_6:\n      tag_21\n      0x04\n      dup1\n      calldatasize\n      sub\n      dup2\n      add\n      swap1\n      tag_22\n      swap2\n      swap1\n      tag_23\n      jump\t// in\n    tag_22:\n      tag_24\n      jump\t// in\n    tag_21:\n      stop\n        /* \"prac46.sol\":2237:2496  function onlyEven(... */\n    tag_7:\n      tag_25\n      0x04\n      dup1\n      calldatasize\n      sub\n      dup2\n      add\n      swap1\n      tag_26\n      swap2\n      swap1\n      tag_23\n      jump\t// in\n    tag_26:\n      tag_27\n      jump\t// in\n    tag_25:\n      mload(0x40)\n      tag_28\n      swap2\n      swap1\n      tag_29\n      jump\t// in\n    tag_28:\n      mload(0x40)\n      dup1\n      swap2\n      sub\n      swap1\n      return\n        /* \"prac46.sol\":2504:2667  function silentRevert(... */\n    tag_11:\n        /* \"prac46.sol\":2612:2623  _shouldFail */\n      dup1\n        /* \"prac46.sol\":2608:2660  if (_shouldFail) {... */\n      iszero\n      tag_31\n      jumpi\n        /* \"prac46.sol\":2640:2648  revert() */\n      revert(0x00, 0x00)\n        /* \"prac46.sol\":2608:2660  if (_shouldFail) {... */\n    tag_31:\n        /* \"prac46.sol\":2504:2667  function silentRevert(... */\n      pop\n      jump\t// out\n        /* \"prac46.sol\":1806:1849  mapping(address => uint256) public balances */\n    tag_15:\n      mstore(0x20, 0x01)\n      dup1\n      0x00\n      mstore\n      keccak256(0x00, 0x40)\n      0x00\n      swap2\n      pop\n      swap1\n      pop\n      sload\n      dup2\n      jump\t// out\n        /* \"prac46.sol\":1770:1797  uint256 public totalCounter */\n    tag_19:\n      sload(0x00)\n      dup2\n      jump\t// out\n        /* \"prac46.sol\":1858:2229  function dangerousDeposit(... */\n    tag_24:\n        /* \"prac46.sol\":2032:2039  _amount */\n      dup1\n        /* \"prac46.sol\":2008:2016  balances */\n      0x01\n        /* \"prac46.sol\":2008:2028  balances[msg.sender] */\n      0x00\n        /* \"prac46.sol\":2017:2027  msg.sender */\n      caller\n        /* \"prac46.sol\":2008:2028  balances[msg.sender] */\n      0xffffffffffffffffffffffffffffffffffffffff\n      and\n      0xffffffffffffffffffffffffffffffffffffffff\n      and\n      dup2\n      mstore\n      0x20\n      add\n      swap1\n      dup2\n      mstore\n      0x20\n      add\n      0x00\n      keccak256\n      0x00\n        /* \"prac46.sol\":2008:2039  balances[msg.sender] += _amount */\n      dup3\n      dup3\n      sload\n      tag_33\n      swap2\n      swap1\n      tag_34\n      jump\t// in\n    tag_33:\n      swap3\n      pop\n      pop\n      dup2\n      swap1\n      sstore\n      pop\n        /* \"prac46.sol\":2066:2073  _amount */\n      dup1\n        /* \"prac46.sol\":2050:2062  totalCounter */\n      0x00\n      0x00\n        /* \"prac46.sol\":2050:2073  totalCounter += _amount */\n      dup3\n      dup3\n      sload\n      tag_35\n      swap2\n      swap1\n      tag_34\n      jump\t// in\n    tag_35:\n      swap3\n      pop\n      pop\n      dup2\n      swap1\n      sstore\n      pop\n        /* \"prac46.sol\":2161:2163  10 */\n      0x0a\n        /* \"prac46.sol\":2151:2158  _amount */\n      dup2\n        /* \"prac46.sol\":2151:2163  _amount > 10 */\n      gt\n        /* \"prac46.sol\":2147:2222  if (_amount > 10) {... */\n      iszero\n      tag_36\n      jumpi\n        /* \"prac46.sol\":2180:2210  revert(\"Amount exceeds limit\") */\n      mload(0x40)\n      0x08c379a000000000000000000000000000000000000000000000000000000000\n      dup2\n      mstore\n      0x04\n      add\n      tag_37\n      swap1\n      tag_38\n      jump\t// in\n    tag_37:\n      mload(0x40)\n      dup1\n      swap2\n      sub\n      swap1\n      revert\n        /* \"prac46.sol\":2147:2222  if (_amount > 10) {... */\n    tag_36:\n        /* \"prac46.sol\":1858:2229  function dangerousDeposit(... */\n      pop\n      jump\t// out\n        /* \"prac46.sol\":2237:2496  function onlyEven(... */\n    tag_27:\n        /* \"prac46.sol\":2338:2351  string memory */\n      0x60\n        /* \"prac46.sol\":2388:2389  0 */\n      0x00\n        /* \"prac46.sol\":2383:2384  2 */\n      0x02\n        /* \"prac46.sol\":2373:2380  _number */\n      dup4\n        /* \"prac46.sol\":2373:2384  _number % 2 */\n      tag_40\n      swap2\n      swap1\n      tag_41\n      jump\t// in\n    tag_40:\n        /* \"prac46.sol\":2373:2389  _number % 2 != 0 */\n      eq\n        /* \"prac46.sol\":2369:2447  if (_number % 2 != 0) {... */\n      tag_42\n      jumpi\n        /* \"prac46.sol\":2406:2435  revert(\"Odd number rejected\") */\n      mload(0x40)\n      0x08c379a000000000000000000000000000000000000000000000000000000000\n      dup2\n      mstore\n      0x04\n      add\n      tag_43\n      swap1\n      tag_44\n      jump\t// in\n    tag_43:\n      mload(0x40)\n      dup1\n      swap2\n      sub\n      swap1\n      revert\n        /* \"prac46.sol\":2369:2447  if (_number % 2 != 0) {... */\n    tag_42:\n        /* \"prac46.sol\":2459:2488  return \"Even number accepted\" */\n      mload(0x40)\n      dup1\n      0x40\n      add\n      0x40\n      mstore\n      dup1\n      0x14\n      dup2\n      mstore\n      0x20\n      add\n      0x4576656e206e756d626572206163636570746564000000000000000000000000\n      dup2\n      mstore\n      pop\n      swap1\n      pop\n        /* \"prac46.sol\":2237:2496  function onlyEven(... */\n      swap2\n      swap1\n      pop\n      jump\t// out\n        /* \"#utility.yul\":88:205   */\n    tag_46:\n        /* \"#utility.yul\":197:198   */\n      0x00\n        /* \"#utility.yul\":194:195   */\n      0x00\n        /* \"#utility.yul\":187:199   */\n      revert\n        /* \"#utility.yul\":334:424   */\n    tag_48:\n        /* \"#utility.yul\":368:375   */\n      0x00\n        /* \"#utility.yul\":411:416   */\n      dup2\n        /* \"#utility.yul\":404:417   */\n      iszero\n        /* \"#utility.yul\":397:418   */\n      iszero\n        /* \"#utility.yul\":386:418   */\n      swap1\n      pop\n        /* \"#utility.yul\":334:424   */\n      swap2\n      swap1\n      pop\n      jump\t// out\n        /* \"#utility.yul\":430:546   */\n    tag_49:\n        /* \"#utility.yul\":500:521   */\n      tag_76\n        /* \"#utility.yul\":515:520   */\n      dup2\n        /* \"#utility.yul\":500:521   */\n      tag_48\n      jump\t// in\n    tag_76:\n        /* \"#utility.yul\":493:498   */\n      dup2\n        /* \"#utility.yul\":490:522   */\n      eq\n        /* \"#utility.yul\":480:540   */\n      tag_77\n      jumpi\n        /* \"#utility.yul\":536:537   */\n      0x00\n        /* \"#utility.yul\":533:534   */\n      0x00\n        /* \"#utility.yul\":526:538   */\n      revert\n        /* \"#utility.yul\":480:540   */\n    tag_77:\n        /* \"#utility.yul\":430:546   */\n      pop\n      jump\t// out\n        /* \"#utility.yul\":552:685   */\n    tag_50:\n        /* \"#utility.yul\":595:600   */\n      0x00\n        /* \"#utility.yul\":633:639   */\n      dup2\n        /* \"#utility.yul\":620:640   */\n      calldataload\n        /* \"#utility.yul\":611:640   */\n      swap1\n      pop\n        /* \"#utility.yul\":649:679   */\n      tag_79\n        /* \"#utility.yul\":673:678   */\n      dup2\n        /* \"#utility.yul\":649:679   */\n      tag_49\n      jump\t// in\n    tag_79:\n        /* \"#utility.yul\":552:685   */\n      swap3\n      swap2\n      pop\n      pop\n      jump\t// out\n        /* \"#utility.yul\":691:1014   */\n    tag_10:\n        /* \"#utility.yul\":747:753   */\n      0x00\n        /* \"#utility.yul\":796:798   */\n      0x20\n        /* \"#utility.yul\":784:793   */\n      dup3\n        /* \"#utility.yul\":775:782   */\n      dup5\n        /* \"#utility.yul\":771:794   */\n      sub\n        /* \"#utility.yul\":767:799   */\n      slt\n        /* \"#utility.yul\":764:883   */\n      iszero\n      tag_81\n      jumpi\n        /* \"#utility.yul\":802:881   */\n      tag_82\n      tag_46\n      jump\t// in\n    tag_82:\n        /* \"#utility.yul\":764:883   */\n    tag_81:\n        /* \"#utility.yul\":922:923   */\n      0x00\n        /* \"#utility.yul\":947:997   */\n      tag_83\n        /* \"#utility.yul\":989:996   */\n      dup5\n        /* \"#utility.yul\":980:986   */\n      dup3\n        /* \"#utility.yul\":969:978   */\n      dup6\n        /* \"#utility.yul\":965:987   */\n      add\n        /* \"#utility.yul\":947:997   */\n      tag_50\n      jump\t// in\n    tag_83:\n        /* \"#utility.yul\":937:997   */\n      swap2\n      pop\n        /* \"#utility.yul\":893:1007   */\n      pop\n        /* \"#utility.yul\":691:1014   */\n      swap3\n      swap2\n      pop\n      pop\n      jump\t// out\n        /* \"#utility.yul\":1020:1146   */\n    tag_51:\n        /* \"#utility.yul\":1057:1064   */\n      0x00\n        /* \"#utility.yul\":1097:1139   */\n      0xffffffffffffffffffffffffffffffffffffffff\n        /* \"#utility.yul\":1090:1095   */\n      dup3\n        /* \"#utility.yul\":1086:1140   */\n      and\n        /* \"#utility.yul\":1075:1140   */\n      swap1\n      pop\n        /* \"#utility.yul\":1020:1146   */\n      swap2\n      swap1\n      pop\n      jump\t// out\n        /* \"#utility.yul\":1152:1248   */\n    tag_52:\n        /* \"#utility.yul\":1189:1196   */\n      0x00\n        /* \"#utility.yul\":1218:1242   */\n      tag_86\n        /* \"#utility.yul\":1236:1241   */\n      dup3\n        /* \"#utility.yul\":1218:1242   */\n      tag_51\n      jump\t// in\n    tag_86:\n        /* \"#utility.yul\":1207:1242   */\n      swap1\n      pop\n        /* \"#utility.yul\":1152:1248   */\n      swap2\n      swap1\n      pop\n      jump\t// out\n        /* \"#utility.yul\":1254:1376   */\n    tag_53:\n        /* \"#utility.yul\":1327:1351   */\n      tag_88\n        /* \"#utility.yul\":1345:1350   */\n      dup2\n        /* \"#utility.yul\":1327:1351   */\n      tag_52\n      jump\t// in\n    tag_88:\n        /* \"#utility.yul\":1320:1325   */\n      dup2\n        /* \"#utility.yul\":1317:1352   */\n      eq\n        /* \"#utility.yul\":1307:1370   */\n      tag_89\n      jumpi\n        /* \"#utility.yul\":1366:1367   */\n      0x00\n        /* \"#utility.yul\":1363:1364   */\n      0x00\n        /* \"#utility.yul\":1356:1368   */\n      revert\n        /* \"#utility.yul\":1307:1370   */\n    tag_89:\n        /* \"#utility.yul\":1254:1376   */\n      pop\n      jump\t// out\n        /* \"#utility.yul\":1382:1521   */\n    tag_54:\n        /* \"#utility.yul\":1428:1433   */\n      0x00\n        /* \"#utility.yul\":1466:1472   */\n      dup2\n        /* \"#utility.yul\":1453:1473   */\n      calldataload\n        /* \"#utility.yul\":1444:1473   */\n      swap1\n      pop\n        /* \"#utility.yul\":1482:1515   */\n      tag_91\n        /* \"#utility.yul\":1509:1514   */\n      dup2\n        /* \"#utility.yul\":1482:1515   */\n      tag_53\n      jump\t// in\n    tag_91:\n        /* \"#utility.yul\":1382:1521   */\n      swap3\n      swap2\n      pop\n      pop\n      jump\t// out\n        /* \"#utility.yul\":1527:1856   */\n    tag_14:\n        /* \"#utility.yul\":1586:1592   */\n      0x00\n        /* \"#utility.yul\":1635:1637   */\n      0x20\n        /* \"#utility.yul\":1623:1632   */\n      dup3\n        /* \"#utility.yul\":1614:1621   */\n      dup5\n        /* \"#utility.yul\":1610:1633   */\n      sub\n        /* \"#utility.yul\":1606:1638   */\n      slt\n        /* \"#utility.yul\":1603:1722   */\n      iszero\n      tag_93\n      jumpi\n        /* \"#utility.yul\":1641:1720   */\n      tag_94\n      tag_46\n      jump\t// in\n    tag_94:\n        /* \"#utility.yul\":1603:1722   */\n    tag_93:\n        /* \"#utility.yul\":1761:1762   */\n      0x00\n        /* \"#utility.yul\":1786:1839   */\n      tag_95\n        /* \"#utility.yul\":1831:1838   */\n      dup5\n        /* \"#utility.yul\":1822:1828   */\n      dup3\n        /* \"#utility.yul\":1811:1820   */\n      dup6\n        /* \"#utility.yul\":1807:1829   */\n      add\n        /* \"#utility.yul\":1786:1839   */\n      tag_54\n      jump\t// in\n    tag_95:\n        /* \"#utility.yul\":1776:1839   */\n      swap2\n      pop\n        /* \"#utility.yul\":1732:1849   */\n      pop\n        /* \"#utility.yul\":1527:1856   */\n      swap3\n      swap2\n      pop\n      pop\n      jump\t// out\n        /* \"#utility.yul\":1862:1939   */\n    tag_55:\n        /* \"#utility.yul\":1899:1906   */\n      0x00\n        /* \"#utility.yul\":1928:1933   */\n      dup2\n        /* \"#utility.yul\":1917:1933   */\n      swap1\n      pop\n        /* \"#utility.yul\":1862:1939   */\n      swap2\n      swap1\n      pop\n      jump\t// out\n        /* \"#utility.yul\":1945:2063   */\n    tag_56:\n        /* \"#utility.yul\":2032:2056   */\n      tag_98\n        /* \"#utility.yul\":2050:2055   */\n      dup2\n        /* \"#utility.yul\":2032:2056   */\n      tag_55\n      jump\t// in\n    tag_98:\n        /* \"#utility.yul\":2027:2030   */\n      dup3\n        /* \"#utility.yul\":2020:2057   */\n      mstore\n        /* \"#utility.yul\":1945:2063   */\n      pop\n      pop\n      jump\t// out\n        /* \"#utility.yul\":2069:2291   */\n    tag_17:\n        /* \"#utility.yul\":2162:2166   */\n      0x00\n        /* \"#utility.yul\":2200:2202   */\n      0x20\n        /* \"#utility.yul\":2189:2198   */\n      dup3\n        /* \"#utility.yul\":2185:2203   */\n      add\n        /* \"#utility.yul\":2177:2203   */\n      swap1\n      pop\n        /* \"#utility.yul\":2213:2284   */\n      tag_100\n        /* \"#utility.yul\":2281:2282   */\n      0x00\n        /* \"#utility.yul\":2270:2279   */\n      dup4\n        /* \"#utility.yul\":2266:2283   */\n      add\n        /* \"#utility.yul\":2257:2263   */\n      dup5\n        /* \"#utility.yul\":2213:2284   */\n      tag_56\n      jump\t// in\n    tag_100:\n        /* \"#utility.yul\":2069:2291   */\n      swap3\n      swap2\n      pop\n      pop\n      jump\t// out\n        /* \"#utility.yul\":2297:2419   */\n    tag_57:\n        /* \"#utility.yul\":2370:2394   */\n      tag_102\n        /* \"#utility.yul\":2388:2393   */\n      dup2\n        /* \"#utility.yul\":2370:2394   */\n      tag_55\n      jump\t// in\n    tag_102:\n        /* \"#utility.yul\":2363:2368   */\n      dup2\n        /* \"#utility.yul\":2360:2395   */\n      eq\n        /* \"#utility.yul\":2350:2413   */\n      tag_103\n      jumpi\n        /* \"#utility.yul\":2409:2410   */\n      0x00\n        /* \"#utility.yul\":2406:2407   */\n      0x00\n        /* \"#utility.yul\":2399:2411   */\n      revert\n        /* \"#utility.yul\":2350:2413   */\n    tag_103:\n        /* \"#utility.yul\":2297:2419   */\n      pop\n      jump\t// out\n        /* \"#utility.yul\":2425:2564   */\n    tag_58:\n        /* \"#utility.yul\":2471:2476   */\n      0x00\n        /* \"#utility.yul\":2509:2515   */\n      dup2\n        /* \"#utility.yul\":2496:2516   */\n      calldataload\n        /* \"#utility.yul\":2487:2516   */\n      swap1\n      pop\n        /* \"#utility.yul\":2525:2558   */\n      tag_105\n        /* \"#utility.yul\":2552:2557   */\n      dup2\n        /* \"#utility.yul\":2525:2558   */\n      tag_57\n      jump\t// in\n    tag_105:\n        /* \"#utility.yul\":2425:2564   */\n      swap3\n      swap2\n      pop\n      pop\n      jump\t// out\n        /* \"#utility.yul\":2570:2899   */\n    tag_23:\n        /* \"#utility.yul\":2629:2635   */\n      0x00\n        /* \"#utility.yul\":2678:2680   */\n      0x20\n        /* \"#utility.yul\":2666:2675   */\n      dup3\n        /* \"#utility.yul\":2657:2664   */\n      dup5\n        /* \"#utility.yul\":2653:2676   */\n      sub\n        /* \"#utility.yul\":2649:2681   */\n      slt\n        /* \"#utility.yul\":2646:2765   */\n      iszero\n      tag_107\n      jumpi\n        /* \"#utility.yul\":2684:2763   */\n      tag_108\n      tag_46\n      jump\t// in\n    tag_108:\n        /* \"#utility.yul\":2646:2765   */\n    tag_107:\n        /* \"#utility.yul\":2804:2805   */\n      0x00\n        /* \"#utility.yul\":2829:2882   */\n      tag_109\n        /* \"#utility.yul\":2874:2881   */\n      dup5\n        /* \"#utility.yul\":2865:2871   */\n      dup3\n        /* \"#utility.yul\":2854:2863   */\n      dup6\n        /* \"#utility.yul\":2850:2872   */\n      add\n        /* \"#utility.yul\":2829:2882   */\n      tag_58\n      jump\t// in\n    tag_109:\n        /* \"#utility.yul\":2819:2882   */\n      swap2\n      pop\n        /* \"#utility.yul\":2775:2892   */\n      pop\n        /* \"#utility.yul\":2570:2899   */\n      swap3\n      swap2\n      pop\n      pop\n      jump\t// out\n        /* \"#utility.yul\":2905:3004   */\n    tag_59:\n        /* \"#utility.yul\":2957:2963   */\n      0x00\n        /* \"#utility.yul\":2991:2996   */\n      dup2\n        /* \"#utility.yul\":2985:2997   */\n      mload\n        /* \"#utility.yul\":2975:2997   */\n      swap1\n      pop\n        /* \"#utility.yul\":2905:3004   */\n      swap2\n      swap1\n      pop\n      jump\t// out\n        /* \"#utility.yul\":3010:3179   */\n    tag_60:\n        /* \"#utility.yul\":3094:3105   */\n      0x00\n        /* \"#utility.yul\":3128:3134   */\n      dup3\n        /* \"#utility.yul\":3123:3126   */\n      dup3\n        /* \"#utility.yul\":3116:3135   */\n      mstore\n        /* \"#utility.yul\":3168:3172   */\n      0x20\n        /* \"#utility.yul\":3163:3166   */\n      dup3\n        /* \"#utility.yul\":3159:3173   */\n      add\n        /* \"#utility.yul\":3144:3173   */\n      swap1\n      pop\n        /* \"#utility.yul\":3010:3179   */\n      swap3\n      swap2\n      pop\n      pop\n      jump\t// out\n        /* \"#utility.yul\":3185:3324   */\n    tag_61:\n        /* \"#utility.yul\":3274:3280   */\n      dup3\n        /* \"#utility.yul\":3269:3272   */\n      dup2\n        /* \"#utility.yul\":3264:3267   */\n      dup4\n        /* \"#utility.yul\":3258:3281   */\n      mcopy\n        /* \"#utility.yul\":3315:3316   */\n      0x00\n        /* \"#utility.yul\":3306:3312   */\n      dup4\n        /* \"#utility.yul\":3301:3304   */\n      dup4\n        /* \"#utility.yul\":3297:3313   */\n      add\n        /* \"#utility.yul\":3290:3317   */\n      mstore\n        /* \"#utility.yul\":3185:3324   */\n      pop\n      pop\n      pop\n      jump\t// out\n        /* \"#utility.yul\":3330:3432   */\n    tag_62:\n        /* \"#utility.yul\":3371:3377   */\n      0x00\n        /* \"#utility.yul\":3422:3424   */\n      0x1f\n        /* \"#utility.yul\":3418:3425   */\n      not\n        /* \"#utility.yul\":3413:3415   */\n      0x1f\n        /* \"#utility.yul\":3406:3411   */\n      dup4\n        /* \"#utility.yul\":3402:3416   */\n      add\n        /* \"#utility.yul\":3398:3426   */\n      and\n        /* \"#utility.yul\":3388:3426   */\n      swap1\n      pop\n        /* \"#utility.yul\":3330:3432   */\n      swap2\n      swap1\n      pop\n      jump\t// out\n        /* \"#utility.yul\":3438:3815   */\n    tag_63:\n        /* \"#utility.yul\":3526:3529   */\n      0x00\n        /* \"#utility.yul\":3554:3593   */\n      tag_115\n        /* \"#utility.yul\":3587:3592   */\n      dup3\n        /* \"#utility.yul\":3554:3593   */\n      tag_59\n      jump\t// in\n    tag_115:\n        /* \"#utility.yul\":3609:3680   */\n      tag_116\n        /* \"#utility.yul\":3673:3679   */\n      dup2\n        /* \"#utility.yul\":3668:3671   */\n      dup6\n        /* \"#utility.yul\":3609:3680   */\n      tag_60\n      jump\t// in\n    tag_116:\n        /* \"#utility.yul\":3602:3680   */\n      swap4\n      pop\n        /* \"#utility.yul\":3689:3754   */\n      tag_117\n        /* \"#utility.yul\":3747:3753   */\n      dup2\n        /* \"#utility.yul\":3742:3745   */\n      dup6\n        /* \"#utility.yul\":3735:3739   */\n      0x20\n        /* \"#utility.yul\":3728:3733   */\n      dup7\n        /* \"#utility.yul\":3724:3740   */\n      add\n        /* \"#utility.yul\":3689:3754   */\n      tag_61\n      jump\t// in\n    tag_117:\n        /* \"#utility.yul\":3779:3808   */\n      tag_118\n        /* \"#utility.yul\":3801:3807   */\n      dup2\n        /* \"#utility.yul\":3779:3808   */\n      tag_62\n      jump\t// in\n    tag_118:\n        /* \"#utility.yul\":3774:3777   */\n      dup5\n        /* \"#utility.yul\":3770:3809   */\n      add\n        /* \"#utility.yul\":3763:3809   */\n      swap2\n      pop\n        /* \"#utility.yul\":3530:3815   */\n      pop\n        /* \"#utility.yul\":3438:3815   */\n      swap3\n      swap2\n      pop\n      pop\n      jump\t// out\n        /* \"#utility.yul\":3821:4134   */\n    tag_29:\n        /* \"#utility.yul\":3934:3938   */\n      0x00\n        /* \"#utility.yul\":3972:3974   */\n      0x20\n        /* \"#utility.yul\":3961:3970   */\n      dup3\n        /* \"#utility.yul\":3957:3975   */\n      add\n        /* \"#utility.yul\":3949:3975   */\n      swap1\n      pop\n        /* \"#utility.yul\":4021:4030   */\n      dup2\n        /* \"#utility.yul\":4015:4019   */\n      dup2\n        /* \"#utility.yul\":4011:4031   */\n      sub\n        /* \"#utility.yul\":4007:4008   */\n      0x00\n        /* \"#utility.yul\":3996:4005   */\n      dup4\n        /* \"#utility.yul\":3992:4009   */\n      add\n        /* \"#utility.yul\":3985:4032   */\n      mstore\n        /* \"#utility.yul\":4049:4127   */\n      tag_120\n        /* \"#utility.yul\":4122:4126   */\n      dup2\n        /* \"#utility.yul\":4113:4119   */\n      dup5\n        /* \"#utility.yul\":4049:4127   */\n      tag_63\n      jump\t// in\n    tag_120:\n        /* \"#utility.yul\":4041:4127   */\n      swap1\n      pop\n        /* \"#utility.yul\":3821:4134   */\n      swap3\n      swap2\n      pop\n      pop\n      jump\t// out\n        /* \"#utility.yul\":4140:4320   */\n    tag_64:\n        /* \"#utility.yul\":4188:4265   */\n      0x4e487b7100000000000000000000000000000000000000000000000000000000\n        /* \"#utility.yul\":4185:4186   */\n      0x00\n        /* \"#utility.yul\":4178:4266   */\n      mstore\n        /* \"#utility.yul\":4285:4289   */\n      0x11\n        /* \"#utility.yul\":4282:4283   */\n      0x04\n        /* \"#utility.yul\":4275:4290   */\n      mstore\n        /* \"#utility.yul\":4309:4313   */\n      0x24\n        /* \"#utility.yul\":4306:4307   */\n      0x00\n        /* \"#utility.yul\":4299:4314   */\n      revert\n        /* \"#utility.yul\":4326:4517   */\n    tag_34:\n        /* \"#utility.yul\":4366:4369   */\n      0x00\n        /* \"#utility.yul\":4385:4405   */\n      tag_123\n        /* \"#utility.yul\":4403:4404   */\n      dup3\n        /* \"#utility.yul\":4385:4405   */\n      tag_55\n      jump\t// in\n    tag_123:\n        /* \"#utility.yul\":4380:4405   */\n      swap2\n      pop\n        /* \"#utility.yul\":4419:4439   */\n      tag_124\n        /* \"#utility.yul\":4437:4438   */\n      dup4\n        /* \"#utility.yul\":4419:4439   */\n      tag_55\n      jump\t// in\n    tag_124:\n        /* \"#utility.yul\":4414:4439   */\n      swap3\n      pop\n        /* \"#utility.yul\":4462:4463   */\n      dup3\n        /* \"#utility.yul\":4459:4460   */\n      dup3\n        /* \"#utility.yul\":4455:4464   */\n      add\n        /* \"#utility.yul\":4448:4464   */\n      swap1\n      pop\n        /* \"#utility.yul\":4483:4486   */\n      dup1\n        /* \"#utility.yul\":4480:4481   */\n      dup3\n        /* \"#utility.yul\":4477:4487   */\n      gt\n        /* \"#utility.yul\":4474:4510   */\n      iszero\n      tag_125\n      jumpi\n        /* \"#utility.yul\":4490:4508   */\n      tag_126\n      tag_64\n      jump\t// in\n    tag_126:\n        /* \"#utility.yul\":4474:4510   */\n    tag_125:\n        /* \"#utility.yul\":4326:4517   */\n      swap3\n      swap2\n      pop\n      pop\n      jump\t// out\n        /* \"#utility.yul\":4523:4693   */\n    tag_65:\n        /* \"#utility.yul\":4663:4685   */\n      0x416d6f756e742065786365656473206c696d6974000000000000000000000000\n        /* \"#utility.yul\":4659:4660   */\n      0x00\n        /* \"#utility.yul\":4651:4657   */\n      dup3\n        /* \"#utility.yul\":4647:4661   */\n      add\n        /* \"#utility.yul\":4640:4686   */\n      mstore\n        /* \"#utility.yul\":4523:4693   */\n      pop\n      jump\t// out\n        /* \"#utility.yul\":4699:5065   */\n    tag_66:\n        /* \"#utility.yul\":4841:4844   */\n      0x00\n        /* \"#utility.yul\":4862:4929   */\n      tag_129\n        /* \"#utility.yul\":4926:4928   */\n      0x14\n        /* \"#utility.yul\":4921:4924   */\n      dup4\n        /* \"#utility.yul\":4862:4929   */\n      tag_60\n      jump\t// in\n    tag_129:\n        /* \"#utility.yul\":4855:4929   */\n      swap2\n      pop\n        /* \"#utility.yul\":4938:5031   */\n      tag_130\n        /* \"#utility.yul\":5027:5030   */\n      dup3\n        /* \"#utility.yul\":4938:5031   */\n      tag_65\n      jump\t// in\n    tag_130:\n        /* \"#utility.yul\":5056:5058   */\n      0x20\n        /* \"#utility.yul\":5051:5054   */\n      dup3\n        /* \"#utility.yul\":5047:5059   */\n      add\n        /* \"#utility.yul\":5040:5059   */\n      swap1\n      pop\n        /* \"#utility.yul\":4699:5065   */\n      swap2\n      swap1\n      pop\n      jump\t// out\n        /* \"#utility.yul\":5071:5490   */\n    tag_38:\n        /* \"#utility.yul\":5237:5241   */\n      0x00\n        /* \"#utility.yul\":5275:5277   */\n      0x20\n        /* \"#utility.yul\":5264:5273   */\n      dup3\n        /* \"#utility.yul\":5260:5278   */\n      add\n        /* \"#utility.yul\":5252:5278   */\n      swap1\n      pop\n        /* \"#utility.yul\":5324:5333   */\n      dup2\n        /* \"#utility.yul\":5318:5322   */\n      dup2\n        /* \"#utility.yul\":5314:5334   */\n      sub\n        /* \"#utility.yul\":5310:5311   */\n      0x00\n        /* \"#utility.yul\":5299:5308   */\n      dup4\n        /* \"#utility.yul\":5295:5312   */\n      add\n        /* \"#utility.yul\":5288:5335   */\n      mstore\n        /* \"#utility.yul\":5352:5483   */\n      tag_132\n        /* \"#utility.yul\":5478:5482   */\n      dup2\n        /* \"#utility.yul\":5352:5483   */\n      tag_66\n      jump\t// in\n    tag_132:\n        /* \"#utility.yul\":5344:5483   */\n      swap1\n      pop\n        /* \"#utility.yul\":5071:5490   */\n      swap2\n      swap1\n      pop\n      jump\t// out\n        /* \"#utility.yul\":5496:5676   */\n    tag_67:\n        /* \"#utility.yul\":5544:5621   */\n      0x4e487b7100000000000000000000000000000000000000000000000000000000\n        /* \"#utility.yul\":5541:5542   */\n      0x00\n        /* \"#utility.yul\":5534:5622   */\n      mstore\n        /* \"#utility.yul\":5641:5645   */\n      0x12\n        /* \"#utility.yul\":5638:5639   */\n      0x04\n        /* \"#utility.yul\":5631:5646   */\n      mstore\n        /* \"#utility.yul\":5665:5669   */\n      0x24\n        /* \"#utility.yul\":5662:5663   */\n      0x00\n        /* \"#utility.yul\":5655:5670   */\n      revert\n        /* \"#utility.yul\":5682:5858   */\n    tag_41:\n        /* \"#utility.yul\":5714:5715   */\n      0x00\n        /* \"#utility.yul\":5731:5751   */\n      tag_135\n        /* \"#utility.yul\":5749:5750   */\n      dup3\n        /* \"#utility.yul\":5731:5751   */\n      tag_55\n      jump\t// in\n    tag_135:\n        /* \"#utility.yul\":5726:5751   */\n      swap2\n      pop\n        /* \"#utility.yul\":5765:5785   */\n      tag_136\n        /* \"#utility.yul\":5783:5784   */\n      dup4\n        /* \"#utility.yul\":5765:5785   */\n      tag_55\n      jump\t// in\n    tag_136:\n        /* \"#utility.yul\":5760:5785   */\n      swap3\n      pop\n        /* \"#utility.yul\":5804:5805   */\n      dup3\n        /* \"#utility.yul\":5794:5829   */\n      tag_137\n      jumpi\n        /* \"#utility.yul\":5809:5827   */\n      tag_138\n      tag_67\n      jump\t// in\n    tag_138:\n        /* \"#utility.yul\":5794:5829   */\n    tag_137:\n        /* \"#utility.yul\":5850:5851   */\n      dup3\n        /* \"#utility.yul\":5847:5848   */\n      dup3\n        /* \"#utility.yul\":5843:5852   */\n      mod\n        /* \"#utility.yul\":5838:5852   */\n      swap1\n      pop\n        /* \"#utility.yul\":5682:5858   */\n      swap3\n      swap2\n      pop\n      pop\n      jump\t// out\n        /* \"#utility.yul\":5864:6033   */\n    tag_68:\n        /* \"#utility.yul\":6004:6025   */\n      0x4f6464206e756d6265722072656a656374656400000000000000000000000000\n        /* \"#utility.yul\":6000:6001   */\n      0x00\n        /* \"#utility.yul\":5992:5998   */\n      dup3\n        /* \"#utility.yul\":5988:6002   */\n      add\n        /* \"#utility.yul\":5981:6026   */\n      mstore\n        /* \"#utility.yul\":5864:6033   */\n      pop\n      jump\t// out\n        /* \"#utility.yul\":6039:6405   */\n    tag_69:\n        /* \"#utility.yul\":6181:6184   */\n      0x00\n        /* \"#utility.yul\":6202:6269   */\n      tag_141\n        /* \"#utility.yul\":6266:6268   */\n      0x13\n        /* \"#utility.yul\":6261:6264   */\n      dup4\n        /* \"#utility.yul\":6202:6269   */\n      tag_60\n      jump\t// in\n    tag_141:\n        /* \"#utility.yul\":6195:6269   */\n      swap2\n      pop\n        /* \"#utility.yul\":6278:6371   */\n      tag_142\n        /* \"#utility.yul\":6367:6370   */\n      dup3\n        /* \"#utility.yul\":6278:6371   */\n      tag_68\n      jump\t// in\n    tag_142:\n        /* \"#utility.yul\":6396:6398   */\n      0x20\n        /* \"#utility.yul\":6391:6394   */\n      dup3\n        /* \"#utility.yul\":6387:6399   */\n      add\n        /* \"#utility.yul\":6380:6399   */\n      swap1\n      pop\n        /* \"#utility.yul\":6039:6405   */\n      swap2\n      swap1\n      pop\n      jump\t// out\n        /* \"#utility.yul\":6411:6830   */\n    tag_44:\n        /* \"#utility.yul\":6577:6581   */\n      0x00\n        /* \"#utility.yul\":6615:6617   */\n      0x20\n        /* \"#utility.yul\":6604:6613   */\n      dup3\n        /* \"#utility.yul\":6600:6618   */\n      add\n        /* \"#utility.yul\":6592:6618   */\n      swap1\n      pop\n        /* \"#utility.yul\":6664:6673   */\n      dup2\n        /* \"#utility.yul\":6658:6662   */\n      dup2\n        /* \"#utility.yul\":6654:6674   */\n      sub\n        /* \"#utility.yul\":6650:6651   */\n      0x00\n        /* \"#utility.yul\":6639:6648   */\n      dup4\n        /* \"#utility.yul\":6635:6652   */\n      add\n        /* \"#utility.yul\":6628:6675   */\n      mstore\n        /* \"#utility.yul\":6692:6823   */\n      tag_144\n        /* \"#utility.yul\":6818:6822   */\n      dup2\n        /* \"#utility.yul\":6692:6823   */\n      tag_69\n      jump\t// in\n    tag_144:\n        /* \"#utility.yul\":6684:6823   */\n      swap1\n      pop\n        /* \"#utility.yul\":6411:6830   */\n      swap2\n      swap1\n      pop\n      jump\t// out\n\n    auxdata: 0xa2646970667358221220695a77abaf327aea53a7cacb4fdb574620216f6cbb9b256f1754d7dca8f9554a64736f6c63430008220033\n}\n",
				"bytecode": {
					"linkReferences": {},
					"object": "6080604052348015600e575f5ffd5b506106368061001c5f395ff3fe608060405234801561000f575f5ffd5b5060043610610055575f3560e01c80630c86b48b1461005957806327e235e31461007557806397feba9d146100a5578063a05beee8146100c3578063ce0b4213146100df575b5f5ffd5b610073600480360381019061006e91906102ad565b61010f565b005b61008f600480360381019061008a9190610332565b61011c565b60405161009c9190610375565b60405180910390f35b6100ad610131565b6040516100ba9190610375565b60405180910390f35b6100dd60048036038101906100d891906103b8565b610136565b005b6100f960048036038101906100f491906103b8565b6101e7565b6040516101069190610453565b60405180910390f35b8015610119575f5ffd5b50565b6001602052805f5260405f205f915090505481565b5f5481565b8060015f3373ffffffffffffffffffffffffffffffffffffffff1673ffffffffffffffffffffffffffffffffffffffff1681526020019081526020015f205f82825461018291906104a0565b92505081905550805f5f82825461019991906104a0565b92505081905550600a8111156101e4576040517f08c379a00000000000000000000000000000000000000000000000000000000081526004016101db9061051d565b60405180910390fd5b50565b60605f6002836101f79190610568565b14610237576040517f08c379a000000000000000000000000000000000000000000000000000000000815260040161022e906105e2565b60405180910390fd5b6040518060400160405280601481526020017f4576656e206e756d6265722061636365707465640000000000000000000000008152509050919050565b5f5ffd5b5f8115159050919050565b61028c81610278565b8114610296575f5ffd5b50565b5f813590506102a781610283565b92915050565b5f602082840312156102c2576102c1610274565b5b5f6102cf84828501610299565b91505092915050565b5f73ffffffffffffffffffffffffffffffffffffffff82169050919050565b5f610301826102d8565b9050919050565b610311816102f7565b811461031b575f5ffd5b50565b5f8135905061032c81610308565b92915050565b5f6020828403121561034757610346610274565b5b5f6103548482850161031e565b91505092915050565b5f819050919050565b61036f8161035d565b82525050565b5f6020820190506103885f830184610366565b92915050565b6103978161035d565b81146103a1575f5ffd5b50565b5f813590506103b28161038e565b92915050565b5f602082840312156103cd576103cc610274565b5b5f6103da848285016103a4565b91505092915050565b5f81519050919050565b5f82825260208201905092915050565b8281835e5f83830152505050565b5f601f19601f8301169050919050565b5f610425826103e3565b61042f81856103ed565b935061043f8185602086016103fd565b6104488161040b565b840191505092915050565b5f6020820190508181035f83015261046b818461041b565b905092915050565b7f4e487b71000000000000000000000000000000000000000000000000000000005f52601160045260245ffd5b5f6104aa8261035d565b91506104b58361035d565b92508282019050808211156104cd576104cc610473565b5b92915050565b7f416d6f756e742065786365656473206c696d69740000000000000000000000005f82015250565b5f6105076014836103ed565b9150610512826104d3565b602082019050919050565b5f6020820190508181035f830152610534816104fb565b9050919050565b7f4e487b71000000000000000000000000000000000000000000000000000000005f52601260045260245ffd5b5f6105728261035d565b915061057d8361035d565b92508261058d5761058c61053b565b5b828206905092915050565b7f4f6464206e756d6265722072656a6563746564000000000000000000000000005f82015250565b5f6105cc6013836103ed565b91506105d782610598565b602082019050919050565b5f6020820190508181035f8301526105f9816105c0565b905091905056fea2646970667358221220695a77abaf327aea53a7cacb4fdb574620216f6cbb9b256f1754d7dca8f9554a64736f6c63430008220033",
					"opcodes": "PUSH1 0x80 PUSH1 0x40 MSTORE CALLVALUE DUP1 ISZERO PUSH1 0xE JUMPI PUSH0 PUSH0 REVERT JUMPDEST POP PUSH2 0x636 DUP1 PUSH2 0x1C PUSH0 CODECOPY PUSH0 RETURN INVALID PUSH1 0x80 PUSH1 0x40 MSTORE CALLVALUE DUP1 ISZERO PUSH2 0xF JUMPI PUSH0 PUSH0 REVERT JUMPDEST POP PUSH1 0x4 CALLDATASIZE LT PUSH2 0x55 JUMPI PUSH0 CALLDATALOAD PUSH1 0xE0 SHR DUP1 PUSH4 0xC86B48B EQ PUSH2 0x59 JUMPI DUP1 PUSH4 0x27E235E3 EQ PUSH2 0x75 JUMPI DUP1 PUSH4 0x97FEBA9D EQ PUSH2 0xA5 JUMPI DUP1 PUSH4 0xA05BEEE8 EQ PUSH2 0xC3 JUMPI DUP1 PUSH4 0xCE0B4213 EQ PUSH2 0xDF JUMPI JUMPDEST PUSH0 PUSH0 REVERT JUMPDEST PUSH2 0x73 PUSH1 0x4 DUP1 CALLDATASIZE SUB DUP2 ADD SWAP1 PUSH2 0x6E SWAP2 SWAP1 PUSH2 0x2AD JUMP JUMPDEST PUSH2 0x10F JUMP JUMPDEST STOP JUMPDEST PUSH2 0x8F PUSH1 0x4 DUP1 CALLDATASIZE SUB DUP2 ADD SWAP1 PUSH2 0x8A SWAP2 SWAP1 PUSH2 0x332 JUMP JUMPDEST PUSH2 0x11C JUMP JUMPDEST PUSH1 0x40 MLOAD PUSH2 0x9C SWAP2 SWAP1 PUSH2 0x375 JUMP JUMPDEST PUSH1 0x40 MLOAD DUP1 SWAP2 SUB SWAP1 RETURN JUMPDEST PUSH2 0xAD PUSH2 0x131 JUMP JUMPDEST PUSH1 0x40 MLOAD PUSH2 0xBA SWAP2 SWAP1 PUSH2 0x375 JUMP JUMPDEST PUSH1 0x40 MLOAD DUP1 SWAP2 SUB SWAP1 RETURN JUMPDEST PUSH2 0xDD PUSH1 0x4 DUP1 CALLDATASIZE SUB DUP2 ADD SWAP1 PUSH2 0xD8 SWAP2 SWAP1 PUSH2 0x3B8 JUMP JUMPDEST PUSH2 0x136 JUMP JUMPDEST STOP JUMPDEST PUSH2 0xF9 PUSH1 0x4 DUP1 CALLDATASIZE SUB DUP2 ADD SWAP1 PUSH2 0xF4 SWAP2 SWAP1 PUSH2 0x3B8 JUMP JUMPDEST PUSH2 0x1E7 JUMP JUMPDEST PUSH1 0x40 MLOAD PUSH2 0x106 SWAP2 SWAP1 PUSH2 0x453 JUMP JUMPDEST PUSH1 0x40 MLOAD DUP1 SWAP2 SUB SWAP1 RETURN JUMPDEST DUP1 ISZERO PUSH2 0x119 JUMPI PUSH0 PUSH0 REVERT JUMPDEST POP JUMP JUMPDEST PUSH1 0x1 PUSH1 0x20 MSTORE DUP1 PUSH0 MSTORE PUSH1 0x40 PUSH0 KECCAK256 PUSH0 SWAP2 POP SWAP1 POP SLOAD DUP2 JUMP JUMPDEST PUSH0 SLOAD DUP2 JUMP JUMPDEST DUP1 PUSH1 0x1 PUSH0 CALLER PUSH20 0xFFFFFFFFFFFFFFFFFFFFFFFFFFFFFFFFFFFFFFFF AND PUSH20 0xFFFFFFFFFFFFFFFFFFFFFFFFFFFFFFFFFFFFFFFF AND DUP2 MSTORE PUSH1 0x20 ADD SWAP1 DUP2 MSTORE PUSH1 0x20 ADD PUSH0 KECCAK256 PUSH0 DUP3 DUP3 SLOAD PUSH2 0x182 SWAP2 SWAP1 PUSH2 0x4A0 JUMP JUMPDEST SWAP3 POP POP DUP2 SWAP1 SSTORE POP DUP1 PUSH0 PUSH0 DUP3 DUP3 SLOAD PUSH2 0x199 SWAP2 SWAP1 PUSH2 0x4A0 JUMP JUMPDEST SWAP3 POP POP DUP2 SWAP1 SSTORE POP PUSH1 0xA DUP2 GT ISZERO PUSH2 0x1E4 JUMPI PUSH1 0x40 MLOAD PUSH32 0x8C379A000000000000000000000000000000000000000000000000000000000 DUP2 MSTORE PUSH1 0x4 ADD PUSH2 0x1DB SWAP1 PUSH2 0x51D JUMP JUMPDEST PUSH1 0x40 MLOAD DUP1 SWAP2 SUB SWAP1 REVERT JUMPDEST POP JUMP JUMPDEST PUSH1 0x60 PUSH0 PUSH1 0x2 DUP4 PUSH2 0x1F7 SWAP2 SWAP1 PUSH2 0x568 JUMP JUMPDEST EQ PUSH2 0x237 JUMPI PUSH1 0x40 MLOAD PUSH32 0x8C379A000000000000000000000000000000000000000000000000000000000 DUP2 MSTORE PUSH1 0x4 ADD PUSH2 0x22E SWAP1 PUSH2 0x5E2 JUMP JUMPDEST PUSH1 0x40 MLOAD DUP1 SWAP2 SUB SWAP1 REVERT JUMPDEST PUSH1 0x40 MLOAD DUP1 PUSH1 0x40 ADD PUSH1 0x40 MSTORE DUP1 PUSH1 0x14 DUP2 MSTORE PUSH1 0x20 ADD PUSH32 0x4576656E206E756D626572206163636570746564000000000000000000000000 DUP2 MSTORE POP SWAP1 POP SWAP2 SWAP1 POP JUMP JUMPDEST PUSH0 PUSH0 REVERT JUMPDEST PUSH0 DUP2 ISZERO ISZERO SWAP1 POP SWAP2 SWAP1 POP JUMP JUMPDEST PUSH2 0x28C DUP2 PUSH2 0x278 JUMP JUMPDEST DUP2 EQ PUSH2 0x296 JUMPI PUSH0 PUSH0 REVERT JUMPDEST POP JUMP JUMPDEST PUSH0 DUP2 CALLDATALOAD SWAP1 POP PUSH2 0x2A7 DUP2 PUSH2 0x283 JUMP JUMPDEST SWAP3 SWAP2 POP POP JUMP JUMPDEST PUSH0 PUSH1 0x20 DUP3 DUP5 SUB SLT ISZERO PUSH2 0x2C2 JUMPI PUSH2 0x2C1 PUSH2 0x274 JUMP JUMPDEST JUMPDEST PUSH0 PUSH2 0x2CF DUP5 DUP3 DUP6 ADD PUSH2 0x299 JUMP JUMPDEST SWAP2 POP POP SWAP3 SWAP2 POP POP JUMP JUMPDEST PUSH0 PUSH20 0xFFFFFFFFFFFFFFFFFFFFFFFFFFFFFFFFFFFFFFFF DUP3 AND SWAP1 POP SWAP2 SWAP1 POP JUMP JUMPDEST PUSH0 PUSH2 0x301 DUP3 PUSH2 0x2D8 JUMP JUMPDEST SWAP1 POP SWAP2 SWAP1 POP JUMP JUMPDEST PUSH2 0x311 DUP2 PUSH2 0x2F7 JUMP JUMPDEST DUP2 EQ PUSH2 0x31B JUMPI PUSH0 PUSH0 REVERT JUMPDEST POP JUMP JUMPDEST PUSH0 DUP2 CALLDATALOAD SWAP1 POP PUSH2 0x32C DUP2 PUSH2 0x308 JUMP JUMPDEST SWAP3 SWAP2 POP POP JUMP JUMPDEST PUSH0 PUSH1 0x20 DUP3 DUP5 SUB SLT ISZERO PUSH2 0x347 JUMPI PUSH2 0x346 PUSH2 0x274 JUMP JUMPDEST JUMPDEST PUSH0 PUSH2 0x354 DUP5 DUP3 DUP6 ADD PUSH2 0x31E JUMP JUMPDEST SWAP2 POP POP SWAP3 SWAP2 POP POP JUMP JUMPDEST PUSH0 DUP2 SWAP1 POP SWAP2 SWAP1 POP JUMP JUMPDEST PUSH2 0x36F DUP2 PUSH2 0x35D JUMP JUMPDEST DUP3 MSTORE POP POP JUMP JUMPDEST PUSH0 PUSH1 0x20 DUP3 ADD SWAP1 POP PUSH2 0x388 PUSH0 DUP4 ADD DUP5 PUSH2 0x366 JUMP JUMPDEST SWAP3 SWAP2 POP POP JUMP JUMPDEST PUSH2 0x397 DUP2 PUSH2 0x35D JUMP JUMPDEST DUP2 EQ PUSH2 0x3A1 JUMPI PUSH0 PUSH0 REVERT JUMPDEST POP JUMP JUMPDEST PUSH0 DUP2 CALLDATALOAD SWAP1 POP PUSH2 0x3B2 DUP2 PUSH2 0x38E JUMP JUMPDEST SWAP3 SWAP2 POP POP JUMP JUMPDEST PUSH0 PUSH1 0x20 DUP3 DUP5 SUB SLT ISZERO PUSH2 0x3CD JUMPI PUSH2 0x3CC PUSH2 0x274 JUMP JUMPDEST JUMPDEST PUSH0 PUSH2 0x3DA DUP5 DUP3 DUP6 ADD PUSH2 0x3A4 JUMP JUMPDEST SWAP2 POP POP SWAP3 SWAP2 POP POP JUMP JUMPDEST PUSH0 DUP2 MLOAD SWAP1 POP SWAP2 SWAP1 POP JUMP JUMPDEST PUSH0 DUP3 DUP3 MSTORE PUSH1 0x20 DUP3 ADD SWAP1 POP SWAP3 SWAP2 POP POP JUMP JUMPDEST DUP3 DUP2 DUP4 MCOPY PUSH0 DUP4 DUP4 ADD MSTORE POP POP POP JUMP JUMPDEST PUSH0 PUSH1 0x1F NOT PUSH1 0x1F DUP4 ADD AND SWAP1 POP SWAP2 SWAP1 POP JUMP JUMPDEST PUSH0 PUSH2 0x425 DUP3 PUSH2 0x3E3 JUMP JUMPDEST PUSH2 0x42F DUP2 DUP6 PUSH2 0x3ED JUMP JUMPDEST SWAP4 POP PUSH2 0x43F DUP2 DUP6 PUSH1 0x20 DUP7 ADD PUSH2 0x3FD JUMP JUMPDEST PUSH2 0x448 DUP2 PUSH2 0x40B JUMP JUMPDEST DUP5 ADD SWAP2 POP POP SWAP3 SWAP2 POP POP JUMP JUMPDEST PUSH0 PUSH1 0x20 DUP3 ADD SWAP1 POP DUP2 DUP2 SUB PUSH0 DUP4 ADD MSTORE PUSH2 0x46B DUP2 DUP5 PUSH2 0x41B JUMP JUMPDEST SWAP1 POP SWAP3 SWAP2 POP POP JUMP JUMPDEST PUSH32 0x4E487B7100000000000000000000000000000000000000000000000000000000 PUSH0 MSTORE PUSH1 0x11 PUSH1 0x4 MSTORE PUSH1 0x24 PUSH0 REVERT JUMPDEST PUSH0 PUSH2 0x4AA DUP3 PUSH2 0x35D JUMP JUMPDEST SWAP2 POP PUSH2 0x4B5 DUP4 PUSH2 0x35D JUMP JUMPDEST SWAP3 POP DUP3 DUP3 ADD SWAP1 POP DUP1 DUP3 GT ISZERO PUSH2 0x4CD JUMPI PUSH2 0x4CC PUSH2 0x473 JUMP JUMPDEST JUMPDEST SWAP3 SWAP2 POP POP JUMP JUMPDEST PUSH32 0x416D6F756E742065786365656473206C696D6974000000000000000000000000 PUSH0 DUP3 ADD MSTORE POP JUMP JUMPDEST PUSH0 PUSH2 0x507 PUSH1 0x14 DUP4 PUSH2 0x3ED JUMP JUMPDEST SWAP2 POP PUSH2 0x512 DUP3 PUSH2 0x4D3 JUMP JUMPDEST PUSH1 0x20 DUP3 ADD SWAP1 POP SWAP2 SWAP1 POP JUMP JUMPDEST PUSH0 PUSH1 0x20 DUP3 ADD SWAP1 POP DUP2 DUP2 SUB PUSH0 DUP4 ADD MSTORE PUSH2 0x534 DUP2 PUSH2 0x4FB JUMP JUMPDEST SWAP1 POP SWAP2 SWAP1 POP JUMP JUMPDEST PUSH32 0x4E487B7100000000000000000000000000000000000000000000000000000000 PUSH0 MSTORE PUSH1 0x12 PUSH1 0x4 MSTORE PUSH1 0x24 PUSH0 REVERT JUMPDEST PUSH0 PUSH2 0x572 DUP3 PUSH2 0x35D JUMP JUMPDEST SWAP2 POP PUSH2 0x57D DUP4 PUSH2 0x35D JUMP JUMPDEST SWAP3 POP DUP3 PUSH2 0x58D JUMPI PUSH2 0x58C PUSH2 0x53B JUMP JUMPDEST JUMPDEST DUP3 DUP3 MOD SWAP1 POP SWAP3 SWAP2 POP POP JUMP JUMPDEST PUSH32 0x4F6464206E756D6265722072656A656374656400000000000000000000000000 PUSH0 DUP3 ADD MSTORE POP JUMP JUMPDEST PUSH0 PUSH2 0x5CC PUSH1 0x13 DUP4 PUSH2 0x3ED JUMP JUMPDEST SWAP2 POP PUSH2 0x5D7 DUP3 PUSH2 0x598 JUMP JUMPDEST PUSH1 0x20 DUP3 ADD SWAP1 POP SWAP2 SWAP1 POP JUMP JUMPDEST PUSH0 PUSH1 0x20 DUP3 ADD SWAP1 POP DUP2 DUP2 SUB PUSH0 DUP4 ADD MSTORE PUSH2 0x5F9 DUP2 PUSH2 0x5C0 JUMP JUMPDEST SWAP1 POP SWAP2 SWAP1 POP JUMP INVALID LOG2 PUSH5 0x6970667358 0x22 SLT KECCAK256 PUSH10 0x5A77ABAF327AEA53A7CA 0xCB 0x4F 0xDB JUMPI CHAINID KECCAK256 0x21 PUSH16 0x6CBB9B256F1754D7DCA8F9554A64736F PUSH13 0x63430008220033000000000000 "
				},
				"gasEstimates": {
					"creation": {
						"codeDepositCost": "318000",
						"executionCost": "353",
						"totalCost": "318353"
					},
					"external": {
						"balances(address)": "2802",
						"dangerousDeposit(uint256)": "infinite",
						"onlyEven(uint256)": "infinite",
						"silentRevert(bool)": "405",
						"totalCounter()": "2446"
					}
				},
				"methodIdentifiers": {
					"balances(address)": "27e235e3",
					"dangerousDeposit(uint256)": "a05beee8",
					"onlyEven(uint256)": "ce0b4213",
					"silentRevert(bool)": "0c86b48b",
					"totalCounter()": "97feba9d"
				}
			},
			"storageLayout": {
				"storage": [
					{
						"astId": 3,
						"contract": "prac46.sol:ManualRevertExampleVul",
						"label": "totalCounter",
						"offset": 0,
						"slot": "0",
						"type": "t_uint256"
					},
					{
						"astId": 7,
						"contract": "prac46.sol:ManualRevertExampleVul",
						"label": "balances",
						"offset": 0,
						"slot": "1",
						"type": "t_mapping(t_address,t_uint256)"
					}
				],
				"types": {
					"t_address": {
						"encoding": "inplace",
						"label": "address",
						"numberOfBytes": "20"
					},
					"t_mapping(t_address,t_uint256)": {
						"encoding": "mapping",
						"key": "t_address",
						"label": "mapping(address => uint256)",
						"numberOfBytes": "32",
						"value": "t_uint256"
					},
					"t_uint256": {
						"encoding": "inplace",
						"label": "uint256",
						"numberOfBytes": "32"
					}
				}
			},
			"userdoc": {
				"kind": "user",
				"methods": {},
				"version": 1
			}
		}
	}
}