{
	"prac46.sol": {
		"ManualRevertExamplePatched": {
			"abi": [
				{
					"inputs": [],
					"name": "AmountExceedsLimit",
					"type": "error"
				},
				{
					"inputs": [],
					"name": "OddNumberRejected",
					"type": "error"
				},
				{
					"inputs": [],
					"name": "OperationFailed",
					"type": "error"
				},
				{
					"inputs": [
						{
							"internalType": "address",
							"name": "",
							"type": "address"
						}
					],
					"name": "balances",
					"outputs": [
						{
							"internalType": "uint256",
							"name": "",
							"type": "uint256"
						}
					],
					"stateMutability": "view",
					"type": "function"
				},
				{
					"inputs": [
						{
							"internalType": "uint256",
							"name": "_amount",
							"type": "uint256"
						}
					],
					"name": "dangerousDeposit",
					"outputs": [],
					"stateMutability": "nonpayable",
					"type": "function"
				},
				{
					"inputs": [
						{
							"internalType": "uint256",
							"name": "_number",
							"type": "uint256"
						}
					],
					"name": "onlyEven",
					"outputs": [
						{
							"internalType": "string",
							"name": "",
							"type": "string"
						}
					],
					"stateMutability": "pure",
					"type": "function"
				},
				{
					"inputs": [
						{
							"internalType": "bool",
							"name": "_shouldFail",
							"type": "bool"
						}
					],
					"name": "silentRevert",
					"outputs": [],
					"stateMutability": "pure",
					"type": "function"
				},
				{
					"inputs": [],
					"name": "totalCounter",
					"outputs": [
						{
							"internalType": "uint256",
							"name": "",
							"type": "uint256"
						}
					],
					"stateMutability": "view",
					"type": "function"
				}
			],
			"devdoc": {
				"kind": "dev",
				"methods": {},
				"version": 1
			},
			"evm": {
				"assembly": "    /* \"prac46.sol\":13025:14078  contract ManualRevertExamplePatched {... */\n  mstore(0x40, 0x80)\n  callvalue\n  dup1\n  iszero\n  tag_1\n  jumpi\n  revert(0x00, 0x00)\ntag_1:\n  pop\n  dataSize(sub_0)\n  dup1\n  dataOffset(sub_0)\n  0x00\n  codecopy\n  0x00\n  return\nstop\n\nsub_0: assembly {\n        /* \"prac46.sol\":13025:14078  contract ManualRevertExamplePatched {... */\n      mstore(0x40, 0x80)\n      callvalue\n      dup1\n      iszero\n      tag_1\n      jumpi\n      revert(0x00, 0x00)\n    tag_1:\n      pop\n      jumpi(tag_2, lt(calldatasize, 0x04))\n      shr(0xe0, calldataload(0x00))\n      dup1\n      0x0c86b48b\n      eq\n      tag_3\n      jumpi\n      dup1\n      0x27e235e3\n      eq\n      tag_4\n      jumpi\n      dup1\n      0x97feba9d\n      eq\n      tag_5\n      jumpi\n      dup1\n      0xa05beee8\n      eq\n      tag_6\n      jumpi\n      dup1\n      0xce0b4213\n      eq\n      tag_7\n      jumpi\n    tag_2:\n      revert(0x00, 0x00)\n        /* \"prac46.sol\":13896:14075  function silentRevert(... */\n    tag_3:\n      tag_8\n      0x04\n      dup1\n      calldatasize\n      sub\n      dup2\n      add\n      swap1\n      tag_9\n      swap2\n      swap1\n      tag_10\n      jump\t// in\n    tag_9:\n      tag_11\n      jump\t// in\n    tag_8:\n      stop\n        /* \"prac46.sol\":13106:13149  mapping(address => uint256) public balances */\n    tag_4:\n      tag_12\n      0x04\n      dup1\n      calldatasize\n      sub\n      dup2\n      add\n      swap1\n      tag_13\n      swap2\n      swap1\n      tag_14\n      jump\t// in\n    tag_13:\n      tag_15\n      jump\t// in\n    tag_12:\n      mload(0x40)\n      tag_16\n      swap2\n      swap1\n      tag_17\n      jump\t// in\n    tag_16:\n      mload(0x40)\n      dup1\n      swap2\n      sub\n      swap1\n      return\n        /* \"prac46.sol\":13070:13097  uint256 public totalCounter */\n    tag_5:\n      tag_18\n      tag_19\n      jump\t// in\n    tag_18:\n      mload(0x40)\n      tag_20\n      swap2\n      swap1\n      tag_17\n      jump\t// in\n    tag_20:\n      mload(0x40)\n      dup1\n      swap2\n      sub\n      swap1\n      return\n        /* \"prac46.sol\":13255:13624  function dangerousDeposit(... */\n    tag_6:\n      tag_21\n      0x04\n      dup1\n      calldatasize\n      sub\n      dup2\n      add\n      swap1\n      tag_22\n      swap2\n      swap1\n      tag_23\n      jump\t// in\n    tag_22:\n      tag_24\n      jump\t// in\n    tag_21:\n      stop\n        /* \"prac46.sol\":13632:13888  function onlyEven(... */\n    tag_7:\n      tag_25\n      0x04\n      dup1\n      calldatasize\n      sub\n      dup2\n      add\n      swap1\n      tag_26\n      swap2\n      swap1\n      tag_23\n      jump\t// in\n    tag_26:\n      tag_27\n      jump\t// in\n    tag_25:\n      mload(0x40)\n      tag_28\n      swap2\n      swap1\n      tag_29\n      jump\t// in\n    tag_28:\n      mload(0x40)\n      dup1\n      swap2\n      sub\n      swap1\n      return\n        /* \"prac46.sol\":13896:14075  function silentRevert(... */\n    tag_11:\n        /* \"prac46.sol\":14004:14015  _shouldFail */\n      dup1\n        /* \"prac46.sol\":14000:14068  if (_shouldFail) {... */\n      iszero\n      tag_31\n      jumpi\n        /* \"prac46.sol\":14039:14056  OperationFailed() */\n      mload(0x40)\n      0x0364eed200000000000000000000000000000000000000000000000000000000\n      dup2\n      mstore\n      0x04\n      add\n      mload(0x40)\n      dup1\n      swap2\n      sub\n      swap1\n      revert\n        /* \"prac46.sol\":14000:14068  if (_shouldFail) {... */\n    tag_31:\n        /* \"prac46.sol\":13896:14075  function silentRevert(... */\n      pop\n      jump\t// out\n        /* \"prac46.sol\":13106:13149  mapping(address => uint256) public balances */\n    tag_15:\n      mstore(0x20, 0x01)\n      dup1\n      0x00\n      mstore\n      keccak256(0x00, 0x40)\n      0x00\n      swap2\n      pop\n      swap1\n      pop\n      sload\n      dup2\n      jump\t// out\n        /* \"prac46.sol\":13070:13097  uint256 public totalCounter */\n    tag_19:\n      sload(0x00)\n      dup2\n      jump\t// out\n        /* \"prac46.sol\":13255:13624  function dangerousDeposit(... */\n    tag_24:\n        /* \"prac46.sol\":13414:13416  10 */\n      0x0a\n        /* \"prac46.sol\":13404:13411  _amount */\n      dup2\n        /* \"prac46.sol\":13404:13416  _amount > 10 */\n      gt\n        /* \"prac46.sol\":13400:13472  if (_amount > 10) {... */\n      iszero\n      tag_33\n      jumpi\n        /* \"prac46.sol\":13440:13460  AmountExceedsLimit() */\n      mload(0x40)\n      0xb95eb50800000000000000000000000000000000000000000000000000000000\n      dup2\n      mstore\n      0x04\n      add\n      mload(0x40)\n      dup1\n      swap2\n      sub\n      swap1\n      revert\n        /* \"prac46.sol\":13400:13472  if (_amount > 10) {... */\n    tag_33:\n        /* \"prac46.sol\":13575:13582  _amount */\n      dup1\n        /* \"prac46.sol\":13551:13559  balances */\n      0x01\n        /* \"prac46.sol\":13551:13571  balances[msg.sender] */\n      0x00\n        /* \"prac46.sol\":13560:13570  msg.sender */\n      caller\n        /* \"prac46.sol\":13551:13571  balances[msg.sender] */\n      0xffffffffffffffffffffffffffffffffffffffff\n      and\n      0xffffffffffffffffffffffffffffffffffffffff\n      and\n      dup2\n      mstore\n      0x20\n      add\n      swap1\n      dup2\n      mstore\n      0x20\n      add\n      0x00\n      keccak256\n      0x00\n        /* \"prac46.sol\":13551:13582  balances[msg.sender] += _amount */\n      dup3\n      dup3\n      sload\n      tag_34\n      swap2\n      swap1\n      tag_35\n      jump\t// in\n    tag_34:\n      swap3\n      pop\n      pop\n      dup2\n      swap1\n      sstore\n      pop\n        /* \"prac46.sol\":13609:13616  _amount */\n      dup1\n        /* \"prac46.sol\":13593:13605  totalCounter */\n      0x00\n      0x00\n        /* \"prac46.sol\":13593:13616  totalCounter += _amount */\n      dup3\n      dup3\n      sload\n      tag_36\n      swap2\n      swap1\n      tag_35\n      jump\t// in\n    tag_36:\n      swap3\n      pop\n      pop\n      dup2\n      swap1\n      sstore\n      pop\n        /* \"prac46.sol\":13255:13624  function dangerousDeposit(... */\n      pop\n      jump\t// out\n        /* \"prac46.sol\":13632:13888  function onlyEven(... */\n    tag_27:\n        /* \"prac46.sol\":13733:13746  string memory */\n      0x60\n        /* \"prac46.sol\":13783:13784  0 */\n      0x00\n        /* \"prac46.sol\":13778:13779  2 */\n      0x02\n        /* \"prac46.sol\":13768:13775  _number */\n      dup4\n        /* \"prac46.sol\":13768:13779  _number % 2 */\n      tag_38\n      swap2\n      swap1\n      tag_39\n      jump\t// in\n    tag_38:\n        /* \"prac46.sol\":13768:13784  _number % 2 != 0 */\n      eq\n        /* \"prac46.sol\":13764:13839  if (_number % 2 != 0) {... */\n      tag_40\n      jumpi\n        /* \"prac46.sol\":13808:13827  OddNumberRejected() */\n      mload(0x40)\n      0x8af89c8f00000000000000000000000000000000000000000000000000000000\n      dup2\n      mstore\n      0x04\n      add\n      mload(0x40)\n      dup1\n      swap2\n      sub\n      swap1\n      revert\n        /* \"prac46.sol\":13764:13839  if (_number % 2 != 0) {... */\n    tag_40:\n        /* \"prac46.sol\":13851:13880  return \"Even number accepted\" */\n      mload(0x40)\n      dup1\n      0x40\n      add\n      0x40\n      mstore\n      dup1\n      0x14\n      dup2\n      mstore\n      0x20\n      add\n      0x4576656e206e756d626572206163636570746564000000000000000000000000\n      dup2\n      mstore\n      pop\n      swap1\n      pop\n        /* \"prac46.sol\":13632:13888  function onlyEven(... */\n      swap2\n      swap1\n      pop\n      jump\t// out\n        /* \"#utility.yul\":88:205   */\n    tag_42:\n        /* \"#utility.yul\":197:198   */\n      0x00\n        /* \"#utility.yul\":194:195   */\n      0x00\n        /* \"#utility.yul\":187:199   */\n      revert\n        /* \"#utility.yul\":334:424   */\n    tag_44:\n        /* \"#utility.yul\":368:375   */\n      0x00\n        /* \"#utility.yul\":411:416   */\n      dup2\n        /* \"#utility.yul\":404:417   */\n      iszero\n        /* \"#utility.yul\":397:418   */\n      iszero\n        /* \"#utility.yul\":386:418   */\n      swap1\n      pop\n        /* \"#utility.yul\":334:424   */\n      swap2\n      swap1\n      pop\n      jump\t// out\n        /* \"#utility.yul\":430:546   */\n    tag_45:\n        /* \"#utility.yul\":500:521   */\n      tag_68\n        /* \"#utility.yul\":515:520   */\n      dup2\n        /* \"#utility.yul\":500:521   */\n      tag_44\n      jump\t// in\n    tag_68:\n        /* \"#utility.yul\":493:498   */\n      dup2\n        /* \"#utility.yul\":490:522   */\n      eq\n        /* \"#utility.yul\":480:540   */\n      tag_69\n      jumpi\n        /* \"#utility.yul\":536:537   */\n      0x00\n        /* \"#utility.yul\":533:534   */\n      0x00\n        /* \"#utility.yul\":526:538   */\n      revert\n        /* \"#utility.yul\":480:540   */\n    tag_69:\n        /* \"#utility.yul\":430:546   */\n      pop\n      jump\t// out\n        /* \"#utility.yul\":552:685   */\n    tag_46:\n        /* \"#utility.yul\":595:600   */\n      0x00\n        /* \"#utility.yul\":633:639   */\n      dup2\n        /* \"#utility.yul\":620:640   */\n      calldataload\n        /* \"#utility.yul\":611:640   */\n      swap1\n      pop\n        /* \"#utility.yul\":649:679   */\n      tag_71\n        /* \"#utility.yul\":673:678   */\n      dup2\n        /* \"#utility.yul\":649:679   */\n      tag_45\n      jump\t// in\n    tag_71:\n        /* \"#utility.yul\":552:685   */\n      swap3\n      swap2\n      pop\n      pop\n      jump\t// out\n        /* \"#utility.yul\":691:1014   */\n    tag_10:\n        /* \"#utility.yul\":747:753   */\n      0x00\n        /* \"#utility.yul\":796:798   */\n      0x20\n        /* \"#utility.yul\":784:793   */\n      dup3\n        /* \"#utility.yul\":775:782   */\n      dup5\n        /* \"#utility.yul\":771:794   */\n      sub\n        /* \"#utility.yul\":767:799   */\n      slt\n        /* \"#utility.yul\":764:883   */\n      iszero\n      tag_73\n      jumpi\n        /* \"#utility.yul\":802:881   */\n      tag_74\n      tag_42\n      jump\t// in\n    tag_74:\n        /* \"#utility.yul\":764:883   */\n    tag_73:\n        /* \"#utility.yul\":922:923   */\n      0x00\n        /* \"#utility.yul\":947:997   */\n      tag_75\n        /* \"#utility.yul\":989:996   */\n      dup5\n        /* \"#utility.yul\":980:986   */\n      dup3\n        /* \"#utility.yul\":969:978   */\n      dup6\n        /* \"#utility.yul\":965:987   */\n      add\n        /* \"#utility.yul\":947:997   */\n      tag_46\n      jump\t// in\n    tag_75:\n        /* \"#utility.yul\":937:997   */\n      swap2\n      pop\n        /* \"#utility.yul\":893:1007   */\n      pop\n        /* \"#utility.yul\":691:1014   */\n      swap3\n      swap2\n      pop\n      pop\n      jump\t// out\n        /* \"#utility.yul\":1020:1146   */\n    tag_47:\n        /* \"#utility.yul\":1057:1064   */\n      0x00\n        /* \"#utility.yul\":1097:1139   */\n      0xffffffffffffffffffffffffffffffffffffffff\n        /* \"#utility.yul\":1090:1095   */\n      dup3\n        /* \"#utility.yul\":1086:1140   */\n      and\n        /* \"#utility.yul\":1075:1140   */\n      swap1\n      pop\n        /* \"#utility.yul\":1020:1146   */\n      swap2\n      swap1\n      pop\n      jump\t// out\n        /* \"#utility.yul\":1152:1248   */\n    tag_48:\n        /* \"#utility.yul\":1189:1196   */\n      0x00\n        /* \"#utility.yul\":1218:1242   */\n      tag_78\n        /* \"#utility.yul\":1236:1241   */\n      dup3\n        /* \"#utility.yul\":1218:1242   */\n      tag_47\n      jump\t// in\n    tag_78:\n        /* \"#utility.yul\":1207:1242   */\n      swap1\n      pop\n        /* \"#utility.yul\":1152:1248   */\n      swap2\n      swap1\n      pop\n      jump\t// out\n        /* \"#utility.yul\":1254:1376   */\n    tag_49:\n        /* \"#utility.yul\":1327:1351   */\n      tag_80\n        /* \"#utility.yul\":1345:1350   */\n      dup2\n        /* \"#utility.yul\":1327:1351   */\n      tag_48\n      jump\t// in\n    tag_80:\n        /* \"#utility.yul\":1320:1325   */\n      dup2\n        /* \"#utility.yul\":1317:1352   */\n      eq\n        /* \"#utility.yul\":1307:1370   */\n      tag_81\n      jumpi\n        /* \"#utility.yul\":1366:1367   */\n      0x00\n        /* \"#utility.yul\":1363:1364   */\n      0x00\n        /* \"#utility.yul\":1356:1368   */\n      revert\n        /* \"#utility.yul\":1307:1370   */\n    tag_81:\n        /* \"#utility.yul\":1254:1376   */\n      pop\n      jump\t// out\n        /* \"#utility.yul\":1382:1521   */\n    tag_50:\n        /* \"#utility.yul\":1428:1433   */\n      0x00\n        /* \"#utility.yul\":1466:1472   */\n      dup2\n        /* \"#utility.yul\":1453:1473   */\n      calldataload\n        /* \"#utility.yul\":1444:1473   */\n      swap1\n      pop\n        /* \"#utility.yul\":1482:1515   */\n      tag_83\n        /* \"#utility.yul\":1509:1514   */\n      dup2\n        /* \"#utility.yul\":1482:1515   */\n      tag_49\n      jump\t// in\n    tag_83:\n        /* \"#utility.yul\":1382:1521   */\n      swap3\n      swap2\n      pop\n      pop\n      jump\t// out\n        /* \"#utility.yul\":1527:1856   */\n    tag_14:\n        /* \"#utility.yul\":1586:1592   */\n      0x00\n        /* \"#utility.yul\":1635:1637   */\n      0x20\n        /* \"#utility.yul\":1623:1632   */\n      dup3\n        /* \"#utility.yul\":1614:1621   */\n      dup5\n        /* \"#utility.yul\":1610:1633   */\n      sub\n        /* \"#utility.yul\":1606:1638   */\n      slt\n        /* \"#utility.yul\":1603:1722   */\n      iszero\n      tag_85\n      jumpi\n        /* \"#utility.yul\":1641:1720   */\n      tag_86\n      tag_42\n      jump\t// in\n    tag_86:\n        /* \"#utility.yul\":1603:1722   */\n    tag_85:\n        /* \"#utility.yul\":1761:1762   */\n      0x00\n        /* \"#utility.yul\":1786:1839   */\n      tag_87\n        /* \"#utility.yul\":1831:1838   */\n      dup5\n        /* \"#utility.yul\":1822:1828   */\n      dup3\n        /* \"#utility.yul\":1811:1820   */\n      dup6\n        /* \"#utility.yul\":1807:1829   */\n      add\n        /* \"#utility.yul\":1786:1839   */\n      tag_50\n      jump\t// in\n    tag_87:\n        /* \"#utility.yul\":1776:1839   */\n      swap2\n      pop\n        /* \"#utility.yul\":1732:1849   */\n      pop\n        /* \"#utility.yul\":1527:1856   */\n      swap3\n      swap2\n      pop\n      pop\n      jump\t// out\n        /* \"#utility.yul\":1862:1939   */\n    tag_51:\n        /* \"#utility.yul\":1899:1906   */\n      0x00\n        /* \"#utility.yul\":1928:1933   */\n      dup2\n        /* \"#utility.yul\":1917:1933   */\n      swap1\n      pop\n        /* \"#utility.yul\":1862:1939   */\n      swap2\n      swap1\n      pop\n      jump\t// out\n        /* \"#utility.yul\":1945:2063   */\n    tag_52:\n        /* \"#utility.yul\":2032:2056   */\n      tag_90\n        /* \"#utility.yul\":2050:2055   */\n      dup2\n        /* \"#utility.yul\":2032:2056   */\n      tag_51\n      jump\t// in\n    tag_90:\n        /* \"#utility.yul\":2027:2030   */\n      dup3\n        /* \"#utility.yul\":2020:2057   */\n      mstore\n        /* \"#utility.yul\":1945:2063   */\n      pop\n      pop\n      jump\t// out\n        /* \"#utility.yul\":2069:2291   */\n    tag_17:\n        /* \"#utility.yul\":2162:2166   */\n      0x00\n        /* \"#utility.yul\":2200:2202   */\n      0x20\n        /* \"#utility.yul\":2189:2198   */\n      dup3\n        /* \"#utility.yul\":2185:2203   */\n      add\n        /* \"#utility.yul\":2177:2203   */\n      swap1\n      pop\n        /* \"#utility.yul\":2213:2284   */\n      tag_92\n        /* \"#utility.yul\":2281:2282   */\n      0x00\n        /* \"#utility.yul\":2270:2279   */\n      dup4\n        /* \"#utility.yul\":2266:2283   */\n      add\n        /* \"#utility.yul\":2257:2263   */\n      dup5\n        /* \"#utility.yul\":2213:2284   */\n      tag_52\n      jump\t// in\n    tag_92:\n        /* \"#utility.yul\":2069:2291   */\n      swap3\n      swap2\n      pop\n      pop\n      jump\t// out\n        /* \"#utility.yul\":2297:2419   */\n    tag_53:\n        /* \"#utility.yul\":2370:2394   */\n      tag_94\n        /* \"#utility.yul\":2388:2393   */\n      dup2\n        /* \"#utility.yul\":2370:2394   */\n      tag_51\n      jump\t// in\n    tag_94:\n        /* \"#utility.yul\":2363:2368   */\n      dup2\n        /* \"#utility.yul\":2360:2395   */\n      eq\n        /* \"#utility.yul\":2350:2413   */\n      tag_95\n      jumpi\n        /* \"#utility.yul\":2409:2410   */\n      0x00\n        /* \"#utility.yul\":2406:2407   */\n      0x00\n        /* \"#utility.yul\":2399:2411   */\n      revert\n        /* \"#utility.yul\":2350:2413   */\n    tag_95:\n        /* \"#utility.yul\":2297:2419   */\n      pop\n      jump\t// out\n        /* \"#utility.yul\":2425:2564   */\n    tag_54:\n        /* \"#utility.yul\":2471:2476   */\n      0x00\n        /* \"#utility.yul\":2509:2515   */\n      dup2\n        /* \"#utility.yul\":2496:2516   */\n      calldataload\n        /* \"#utility.yul\":2487:2516   */\n      swap1\n      pop\n        /* \"#utility.yul\":2525:2558   */\n      tag_97\n        /* \"#utility.yul\":2552:2557   */\n      dup2\n        /* \"#utility.yul\":2525:2558   */\n      tag_53\n      jump\t// in\n    tag_97:\n        /* \"#utility.yul\":2425:2564   */\n      swap3\n      swap2\n      pop\n      pop\n      jump\t// out\n        /* \"#utility.yul\":2570:2899   */\n    tag_23:\n        /* \"#utility.yul\":2629:2635   */\n      0x00\n        /* \"#utility.yul\":2678:2680   */\n      0x20\n        /* \"#utility.yul\":2666:2675   */\n      dup3\n        /* \"#utility.yul\":2657:2664   */\n      dup5\n        /* \"#utility.yul\":2653:2676   */\n      sub\n        /* \"#utility.yul\":2649:2681   */\n      slt\n        /* \"#utility.yul\":2646:2765   */\n      iszero\n      tag_99\n      jumpi\n        /* \"#utility.yul\":2684:2763   */\n      tag_100\n      tag_42\n      jump\t// in\n    tag_100:\n        /* \"#utility.yul\":2646:2765   */\n    tag_99:\n        /* \"#utility.yul\":2804:2805   */\n      0x00\n        /* \"#utility.yul\":2829:2882   */\n      tag_101\n        /* \"#utility.yul\":2874:2881   */\n      dup5\n        /* \"#utility.yul\":2865:2871   */\n      dup3\n        /* \"#utility.yul\":2854:2863   */\n      dup6\n        /* \"#utility.yul\":2850:2872   */\n      add\n        /* \"#utility.yul\":2829:2882   */\n      tag_54\n      jump\t// in\n    tag_101:\n        /* \"#utility.yul\":2819:2882   */\n      swap2\n      pop\n        /* \"#utility.yul\":2775:2892   */\n      pop\n        /* \"#utility.yul\":2570:2899   */\n      swap3\n      swap2\n      pop\n      pop\n      jump\t// out\n        /* \"#utility.yul\":2905:3004   */\n    tag_55:\n        /* \"#utility.yul\":2957:2963   */\n      0x00\n        /* \"#utility.yul\":2991:2996   */\n      dup2\n        /* \"#utility.yul\":2985:2997   */\n      mload\n        /* \"#utility.yul\":2975:2997   */\n      swap1\n      pop\n        /* \"#utility.yul\":2905:3004   */\n      swap2\n      swap1\n      pop\n      jump\t// out\n        /* \"#utility.yul\":3010:3179   */\n    tag_56:\n        /* \"#utility.yul\":3094:3105   */\n      0x00\n        /* \"#utility.yul\":3128:3134   */\n      dup3\n        /* \"#utility.yul\":3123:3126   */\n      dup3\n        /* \"#utility.yul\":3116:3135   */\n      mstore\n        /* \"#utility.yul\":3168:3172   */\n      0x20\n        /* \"#utility.yul\":3163:3166   */\n      dup3\n        /* \"#utility.yul\":3159:3173   */\n      add\n        /* \"#utility.yul\":3144:3173   */\n      swap1\n      pop\n        /* \"#utility.yul\":3010:3179   */\n      swap3\n      swap2\n      pop\n      pop\n      jump\t// out\n        /* \"#utility.yul\":3185:3324   */\n    tag_57:\n        /* \"#utility.yul\":3274:3280   */\n      dup3\n        /* \"#utility.yul\":3269:3272   */\n      dup2\n        /* \"#utility.yul\":3264:3267   */\n      dup4\n        /* \"#utility.yul\":3258:3281   */\n      mcopy\n        /* \"#utility.yul\":3315:3316   */\n      0x00\n        /* \"#utility.yul\":3306:3312   */\n      dup4\n        /* \"#utility.yul\":3301:3304   */\n      dup4\n        /* \"#utility.yul\":3297:3313   */\n      add\n        /* \"#utility.yul\":3290:3317   */\n      mstore\n        /* \"#utility.yul\":3185:3324   */\n      pop\n      pop\n      pop\n      jump\t// out\n        /* \"#utility.yul\":3330:3432   */\n    tag_58:\n        /* \"#utility.yul\":3371:3377   */\n      0x00\n        /* \"#utility.yul\":3422:3424   */\n      0x1f\n        /* \"#utility.yul\":3418:3425   */\n      not\n        /* \"#utility.yul\":3413:3415   */\n      0x1f\n        /* \"#utility.yul\":3406:3411   */\n      dup4\n        /* \"#utility.yul\":3402:3416   */\n      add\n        /* \"#utility.yul\":3398:3426   */\n      and\n        /* \"#utility.yul\":3388:3426   */\n      swap1\n      pop\n        /* \"#utility.yul\":3330:3432   */\n      swap2\n      swap1\n      pop\n      jump\t// out\n        /* \"#utility.yul\":3438:3815   */\n    tag_59:\n        /* \"#utility.yul\":3526:3529   */\n      0x00\n        /* \"#utility.yul\":3554:3593   */\n      tag_107\n        /* \"#utility.yul\":3587:3592   */\n      dup3\n        /* \"#utility.yul\":3554:3593   */\n      tag_55\n      jump\t// in\n    tag_107:\n        /* \"#utility.yul\":3609:3680   */\n      tag_108\n        /* \"#utility.yul\":3673:3679   */\n      dup2\n        /* \"#utility.yul\":3668:3671   */\n      dup6\n        /* \"#utility.yul\":3609:3680   */\n      tag_56\n      jump\t// in\n    tag_108:\n        /* \"#utility.yul\":3602:3680   */\n      swap4\n      pop\n        /* \"#utility.yul\":3689:3754   */\n      tag_109\n        /* \"#utility.yul\":3747:3753   */\n      dup2\n        /* \"#utility.yul\":3742:3745   */\n      dup6\n        /* \"#utility.yul\":3735:3739   */\n      0x20\n        /* \"#utility.yul\":3728:3733   */\n      dup7\n        /* \"#utility.yul\":3724:3740   */\n      add\n        /* \"#utility.yul\":3689:3754   */\n      tag_57\n      jump\t// in\n    tag_109:\n        /* \"#utility.yul\":3779:3808   */\n      tag_110\n        /* \"#utility.yul\":3801:3807   */\n      dup2\n        /* \"#utility.yul\":3779:3808   */\n      tag_58\n      jump\t// in\n    tag_110:\n        /* \"#utility.yul\":3774:3777   */\n      dup5\n        /* \"#utility.yul\":3770:3809   */\n      add\n        /* \"#utility.yul\":3763:3809   */\n      swap2\n      pop\n        /* \"#utility.yul\":3530:3815   */\n      pop\n        /* \"#utility.yul\":3438:3815   */\n      swap3\n      swap2\n      pop\n      pop\n      jump\t// out\n        /* \"#utility.yul\":3821:4134   */\n    tag_29:\n        /* \"#utility.yul\":3934:3938   */\n      0x00\n        /* \"#utility.yul\":3972:3974   */\n      0x20\n        /* \"#utility.yul\":3961:3970   */\n      dup3\n        /* \"#utility.yul\":3957:3975   */\n      add\n        /* \"#utility.yul\":3949:3975   */\n      swap1\n      pop\n        /* \"#utility.yul\":4021:4030   */\n      dup2\n        /* \"#utility.yul\":4015:4019   */\n      dup2\n        /* \"#utility.yul\":4011:4031   */\n      sub\n        /* \"#utility.yul\":4007:4008   */\n      0x00\n        /* \"#utility.yul\":3996:4005   */\n      dup4\n        /* \"#utility.yul\":3992:4009   */\n      add\n        /* \"#utility.yul\":3985:4032   */\n      mstore\n        /* \"#utility.yul\":4049:4127   */\n      tag_112\n        /* \"#utility.yul\":4122:4126   */\n      dup2\n        /* \"#utility.yul\":4113:4119   */\n      dup5\n        /* \"#utility.yul\":4049:4127   */\n      tag_59\n      jump\t// in\n    tag_112:\n        /* \"#utility.yul\":4041:4127   */\n      swap1\n      pop\n        /* \"#utility.yul\":3821:4134   */\n      swap3\n      swap2\n      pop\n      pop\n      jump\t// out\n        /* \"#utility.yul\":4140:4320   */\n    tag_60:\n        /* \"#utility.yul\":4188:4265   */\n      0x4e487b7100000000000000000000000000000000000000000000000000000000\n        /* \"#utility.yul\":4185:4186   */\n      0x00\n        /* \"#utility.yul\":4178:4266   */\n      mstore\n        /* \"#utility.yul\":4285:4289   */\n      0x11\n        /* \"#utility.yul\":4282:4283   */\n      0x04\n        /* \"#utility.yul\":4275:4290   */\n      mstore\n        /* \"#utility.yul\":4309:4313   */\n      0x24\n        /* \"#utility.yul\":4306:4307   */\n      0x00\n        /* \"#utility.yul\":4299:4314   */\n      revert\n        /* \"#utility.yul\":4326:4517   */\n    tag_35:\n        /* \"#utility.yul\":4366:4369   */\n      0x00\n        /* \"#utility.yul\":4385:4405   */\n      tag_115\n        /* \"#utility.yul\":4403:4404   */\n      dup3\n        /* \"#utility.yul\":4385:4405   */\n      tag_51\n      jump\t// in\n    tag_115:\n        /* \"#utility.yul\":4380:4405   */\n      swap2\n      pop\n        /* \"#utility.yul\":4419:4439   */\n      tag_116\n        /* \"#utility.yul\":4437:4438   */\n      dup4\n        /* \"#utility.yul\":4419:4439   */\n      tag_51\n      jump\t// in\n    tag_116:\n        /* \"#utility.yul\":4414:4439   */\n      swap3\n      pop\n        /* \"#utility.yul\":4462:4463   */\n      dup3\n        /* \"#utility.yul\":4459:4460   */\n      dup3\n        /* \"#utility.yul\":4455:4464   */\n      add\n        /* \"#utility.yul\":4448:4464   */\n      swap1\n      pop\n        /* \"#utility.yul\":4483:4486   */\n      dup1\n        /* \"#utility.yul\":4480:4481   */\n      dup3\n        /* \"#utility.yul\":4477:4487   */\n      gt\n        /* \"#utility.yul\":4474:4510   */\n      iszero\n      tag_117\n      jumpi\n        /* \"#utility.yul\":4490:4508   */\n      tag_118\n      tag_60\n      jump\t// in\n    tag_118:\n        /* \"#utility.yul\":4474:4510   */\n    tag_117:\n        /* \"#utility.yul\":4326:4517   */\n      swap3\n      swap2\n      pop\n      pop\n      jump\t// out\n        /* \"#utility.yul\":4523:4703   */\n    tag_61:\n        /* \"#utility.yul\":4571:4648   */\n      0x4e487b7100000000000000000000000000000000000000000000000000000000\n        /* \"#utility.yul\":4568:4569   */\n      0x00\n        /* \"#utility.yul\":4561:4649   */\n      mstore\n        /* \"#utility.yul\":4668:4672   */\n      0x12\n        /* \"#utility.yul\":4665:4666   */\n      0x04\n        /* \"#utility.yul\":4658:4673   */\n      mstore\n        /* \"#utility.yul\":4692:4696   */\n      0x24\n        /* \"#utility.yul\":4689:4690   */\n      0x00\n        /* \"#utility.yul\":4682:4697   */\n      revert\n        /* \"#utility.yul\":4709:4885   */\n    tag_39:\n        /* \"#utility.yul\":4741:4742   */\n      0x00\n        /* \"#utility.yul\":4758:4778   */\n      tag_121\n        /* \"#utility.yul\":4776:4777   */\n      dup3\n        /* \"#utility.yul\":4758:4778   */\n      tag_51\n      jump\t// in\n    tag_121:\n        /* \"#utility.yul\":4753:4778   */\n      swap2\n      pop\n        /* \"#utility.yul\":4792:4812   */\n      tag_122\n        /* \"#utility.yul\":4810:4811   */\n      dup4\n        /* \"#utility.yul\":4792:4812   */\n      tag_51\n      jump\t// in\n    tag_122:\n        /* \"#utility.yul\":4787:4812   */\n      swap3\n      pop\n        /* \"#utility.yul\":4831:4832   */\n      dup3\n        /* \"#utility.yul\":4821:4856   */\n      tag_123\n      jumpi\n        /* \"#utility.yul\":4836:4854   */\n      tag_124\n      tag_61\n      jump\t// in\n    tag_124:\n        /* \"#utility.yul\":4821:4856   */\n    tag_123:\n        /* \"#utility.yul\":4877:4878   */\n      dup3\n        /* \"#utility.yul\":4874:4875   */\n      dup3\n        /* \"#utility.yul\":4870:4879   */\n      mod\n        /* \"#utility.yul\":4865:4879   */\n      swap1\n      pop\n        /* \"#utility.yul\":4709:4885   */\n      swap3\n      swap2\n      pop\n      pop\n      jump\t// out\n\n    auxdata: 0xa264697066735822122001e21276b6d73ff3c284dbb1e3ee2ebb7bacc3fd8f15c5b56be1583f9c6922a364736f6c63430008220033\n}\n",
				"bytecode": {
					"linkReferences": {},
					"object": "6080604052348015600e575f5ffd5b506105828061001c5f395ff3fe608060405234801561000f575f5ffd5b5060043610610055575f3560e01c80630c86b48b1461005957806327e235e31461007557806397feba9d146100a5578063a05beee8146100c3578063ce0b4213146100df575b5f5ffd5b610073600480360381019061006e91906102c9565b61010f565b005b61008f600480360381019061008a919061034e565b61014a565b60405161009c9190610391565b60405180910390f35b6100ad61015f565b6040516100ba9190610391565b60405180910390f35b6100dd60048036038101906100d891906103d4565b610164565b005b6100f960048036038101906100f491906103d4565b61020c565b604051610106919061046f565b60405180910390f35b8015610147576040517f0364eed200000000000000000000000000000000000000000000000000000000815260040160405180910390fd5b50565b6001602052805f5260405f205f915090505481565b5f5481565b600a81111561019f576040517fb95eb50800000000000000000000000000000000000000000000000000000000815260040160405180910390fd5b8060015f3373ffffffffffffffffffffffffffffffffffffffff1673ffffffffffffffffffffffffffffffffffffffff1681526020019081526020015f205f8282546101eb91906104bc565b92505081905550805f5f82825461020291906104bc565b9250508190555050565b60605f60028361021c919061051c565b14610253576040517f8af89c8f00000000000000000000000000000000000000000000000000000000815260040160405180910390fd5b6040518060400160405280601481526020017f4576656e206e756d6265722061636365707465640000000000000000000000008152509050919050565b5f5ffd5b5f8115159050919050565b6102a881610294565b81146102b2575f5ffd5b50565b5f813590506102c38161029f565b92915050565b5f602082840312156102de576102dd610290565b5b5f6102eb848285016102b5565b91505092915050565b5f73ffffffffffffffffffffffffffffffffffffffff82169050919050565b5f61031d826102f4565b9050919050565b61032d81610313565b8114610337575f5ffd5b50565b5f8135905061034881610324565b92915050565b5f6020828403121561036357610362610290565b5b5f6103708482850161033a565b91505092915050565b5f819050919050565b61038b81610379565b82525050565b5f6020820190506103a45f830184610382565b92915050565b6103b381610379565b81146103bd575f5ffd5b50565b5f813590506103ce816103aa565b92915050565b5f602082840312156103e9576103e8610290565b5b5f6103f6848285016103c0565b91505092915050565b5f81519050919050565b5f82825260208201905092915050565b8281835e5f83830152505050565b5f601f19601f8301169050919050565b5f610441826103ff565b61044b8185610409565b935061045b818560208601610419565b61046481610427565b840191505092915050565b5f6020820190508181035f8301526104878184610437565b905092915050565b7f4e487b71000000000000000000000000000000000000000000000000000000005f52601160045260245ffd5b5f6104c682610379565b91506104d183610379565b92508282019050808211156104e9576104e861048f565b5b92915050565b7f4e487b71000000000000000000000000000000000000000000000000000000005f52601260045260245ffd5b5f61052682610379565b915061053183610379565b925082610541576105406104ef565b5b82820690509291505056fea264697066735822122001e21276b6d73ff3c284dbb1e3ee2ebb7bacc3fd8f15c5b56be1583f9c6922a364736f6c63430008220033",
					"opcodes": "PUSH1 0x80 PUSH1 0x40 MSTORE CALLVALUE DUP1 ISZERO PUSH1 0xE JUMPI PUSH0 PUSH0 REVERT JUMPDEST POP PUSH2 0x582 DUP1 PUSH2 0x1C PUSH0 CODECOPY PUSH0 RETURN INVALID PUSH1 0x80 PUSH1 0x40 MSTORE CALLVALUE DUP1 ISZERO PUSH2 0xF JUMPI PUSH0 PUSH0 REVERT JUMPDEST POP PUSH1 0x4 CALLDATASIZE LT PUSH2 0x55 JUMPI PUSH0 CALLDATALOAD PUSH1 0xE0 SHR DUP1 PUSH4 0xC86B48B EQ PUSH2 0x59 JUMPI DUP1 PUSH4 0x27E235E3 EQ PUSH2 0x75 JUMPI DUP1 PUSH4 0x97FEBA9D EQ PUSH2 0xA5 JUMPI DUP1 PUSH4 0xA05BEEE8 EQ PUSH2 0xC3 JUMPI DUP1 PUSH4 0xCE0B4213 EQ PUSH2 0xDF JUMPI JUMPDEST PUSH0 PUSH0 REVERT JUMPDEST PUSH2 0x73 PUSH1 0x4 DUP1 CALLDATASIZE SUB DUP2 ADD SWAP1 PUSH2 0x6E SWAP2 SWAP1 PUSH2 0x2C9 JUMP JUMPDEST PUSH2 0x10F JUMP JUMPDEST STOP JUMPDEST PUSH2 0x8F PUSH1 0x4 DUP1 CALLDATASIZE SUB DUP2 ADD SWAP1 PUSH2 0x8A SWAP2 SWAP1 PUSH2 0x34E JUMP JUMPDEST PUSH2 0x14A JUMP JUMPDEST PUSH1 0x40 MLOAD PUSH2 0x9C SWAP2 SWAP1 PUSH2 0x391 JUMP JUMPDEST PUSH1 0x40 MLOAD DUP1 SWAP2 SUB SWAP1 RETURN JUMPDEST PUSH2 0xAD PUSH2 0x15F JUMP JUMPDEST PUSH1 0x40 MLOAD PUSH2 0xBA SWAP2 SWAP1 PUSH2 0x391 JUMP JUMPDEST PUSH1 0x40 MLOAD DUP1 SWAP2 SUB SWAP1 RETURN JUMPDEST PUSH2 0xDD PUSH1 0x4 DUP1 CALLDATASIZE SUB DUP2 ADD SWAP1 PUSH2 0xD8 SWAP2 SWAP1 PUSH2 0x3D4 JUMP JUMPDEST PUSH2 0x164 JUMP JUMPDEST STOP JUMPDEST PUSH2 0xF9 PUSH1 0x4 DUP1 CALLDATASIZE SUB DUP2 ADD SWAP1 PUSH2 0xF4 SWAP2 SWAP1 PUSH2 0x3D4 JUMP JUMPDEST PUSH2 0x20C JUMP JUMPDEST PUSH1 0x40 MLOAD PUSH2 0x106 SWAP2 SWAP1 PUSH2 0x46F JUMP JUMPDEST PUSH1 0x40 MLOAD DUP1 SWAP2 SUB SWAP1 RETURN JUMPDEST DUP1 ISZERO PUSH2 0x147 JUMPI PUSH1 0x40 MLOAD PUSH32 0x364EED200000000000000000000000000000000000000000000000000000000 DUP2 MSTORE PUSH1 0x4 ADD PUSH1 0x40 MLOAD DUP1 SWAP2 SUB SWAP1 REVERT JUMPDEST POP JUMP JUMPDEST PUSH1 0x1 PUSH1 0x20 MSTORE DUP1 PUSH0 MSTORE PUSH1 0x40 PUSH0 KECCAK256 PUSH0 SWAP2 POP SWAP1 POP SLOAD DUP2 JUMP JUMPDEST PUSH0 SLOAD DUP2 JUMP JUMPDEST PUSH1 0xA DUP2 GT ISZERO PUSH2 0x19F JUMPI PUSH1 0x40 MLOAD PUSH32 0xB95EB50800000000000000000000000000000000000000000000000000000000 DUP2 MSTORE PUSH1 0x4 ADD PUSH1 0x40 MLOAD DUP1 SWAP2 SUB SWAP1 REVERT JUMPDEST DUP1 PUSH1 0x1 PUSH0 CALLER PUSH20 0xFFFFFFFFFFFFFFFFFFFFFFFFFFFFFFFFFFFFFFFF AND PUSH20 0xFFFFFFFFFFFFFFFFFFFFFFFFFFFFFFFFFFFFFFFF AND DUP2 MSTORE PUSH1 0x20 ADD SWAP1 DUP2 MSTORE PUSH1 0x20 ADD PUSH0 KECCAK256 PUSH0 DUP3 DUP3 SLOAD PUSH2 0x1EB SWAP2 SWAP1 PUSH2 0x4BC JUMP JUMPDEST SWAP3 POP POP DUP2 SWAP1 SSTORE POP DUP1 PUSH0 PUSH0 DUP3 DUP3 SLOAD PUSH2 0x202 SWAP2 SWAP1 PUSH2 0x4BC JUMP JUMPDEST SWAP3 POP POP DUP2 SWAP1 SSTORE POP POP JUMP JUMPDEST PUSH1 0x60 PUSH0 PUSH1 0x2 DUP4 PUSH2 0x21C SWAP2 SWAP1 PUSH2 0x51C JUMP JUMPDEST EQ PUSH2 0x253 JUMPI PUSH1 0x40 MLOAD PUSH32 0x8AF89C8F00000000000000000000000000000000000000000000000000000000 DUP2 MSTORE PUSH1 0x4 ADD PUSH1 0x40 MLOAD DUP1 SWAP2 SUB SWAP1 REVERT JUMPDEST PUSH1 0x40 MLOAD DUP1 PUSH1 0x40 ADD PUSH1 0x40 MSTORE DUP1 PUSH1 0x14 DUP2 MSTORE PUSH1 0x20 ADD PUSH32 0x4576656E206E756D626572206163636570746564000000000000000000000000 DUP2 MSTORE POP SWAP1 POP SWAP2 SWAP1 POP JUMP JUMPDEST PUSH0 PUSH0 REVERT JUMPDEST PUSH0 DUP2 ISZERO ISZERO SWAP1 POP SWAP2 SWAP1 POP JUMP JUMPDEST PUSH2 0x2A8 DUP2 PUSH2 0x294 JUMP JUMPDEST DUP2 EQ PUSH2 0x2B2 JUMPI PUSH0 PUSH0 REVERT JUMPDEST POP JUMP JUMPDEST PUSH0 DUP2 CALLDATALOAD SWAP1 POP PUSH2 0x2C3 DUP2 PUSH2 0x29F JUMP JUMPDEST SWAP3 SWAP2 POP POP JUMP JUMPDEST PUSH0 PUSH1 0x20 DUP3 DUP5 SUB SLT ISZERO PUSH2 0x2DE JUMPI PUSH2 0x2DD PUSH2 0x290 JUMP JUMPDEST JUMPDEST PUSH0 PUSH2 0x2EB DUP5 DUP3 DUP6 ADD PUSH2 0x2B5 JUMP JUMPDEST SWAP2 POP POP SWAP3 SWAP2 POP POP JUMP JUMPDEST PUSH0 PUSH20 0xFFFFFFFFFFFFFFFFFFFFFFFFFFFFFFFFFFFFFFFF DUP3 AND SWAP1 POP SWAP2 SWAP1 POP JUMP JUMPDEST PUSH0 PUSH2 0x31D DUP3 PUSH2 0x2F4 JUMP JUMPDEST SWAP1 POP SWAP2 SWAP1 POP JUMP JUMPDEST PUSH2 0x32D DUP2 PUSH2 0x313 JUMP JUMPDEST DUP2 EQ PUSH2 0x337 JUMPI PUSH0 PUSH0 REVERT JUMPDEST POP JUMP JUMPDEST PUSH0 DUP2 CALLDATALOAD SWAP1 POP PUSH2 0x348 DUP2 PUSH2 0x324 JUMP JUMPDEST SWAP3 SWAP2 POP POP JUMP JUMPDEST PUSH0 PUSH1 0x20 DUP3 DUP5 SUB SLT ISZERO PUSH2 0x363 JUMPI PUSH2 0x362 PUSH2 0x290 JUMP JUMPDEST JUMPDEST PUSH0 PUSH2 0x370 DUP5 DUP3 DUP6 ADD PUSH2 0x33A JUMP JUMPDEST SWAP2 POP POP SWAP3 SWAP2 POP POP JUMP JUMPDEST PUSH0 DUP2 SWAP1 POP SWAP2 SWAP1 POP JUMP JUMPDEST PUSH2 0x38B DUP2 PUSH2 0x379 JUMP JUMPDEST DUP3 MSTORE POP POP JUMP JUMPDEST PUSH0 PUSH1 0x20 DUP3 ADD SWAP1 POP PUSH2 0x3A4 PUSH0 DUP4 ADD DUP5 PUSH2 0x382 JUMP JUMPDEST SWAP3 SWAP2 POP POP JUMP JUMPDEST PUSH2 0x3B3 DUP2 PUSH2 0x379 JUMP JUMPDEST DUP2 EQ PUSH2 0x3BD JUMPI PUSH0 PUSH0 REVERT JUMPDEST POP JUMP JUMPDEST PUSH0 DUP2 CALLDATALOAD SWAP1 POP PUSH2 0x3CE DUP2 PUSH2 0x3AA JUMP JUMPDEST SWAP3 SWAP2 POP POP JUMP JUMPDEST PUSH0 PUSH1 0x20 DUP3 DUP5 SUB SLT ISZERO PUSH2 0x3E9 JUMPI PUSH2 0x3E8 PUSH2 0x290 JUMP JUMPDEST JUMPDEST PUSH0 PUSH2 0x3F6 DUP5 DUP3 DUP6 ADD PUSH2 0x3C0 JUMP JUMPDEST SWAP2 POP POP SWAP3 SWAP2 POP POP JUMP JUMPDEST PUSH0 DUP2 MLOAD SWAP1 POP SWAP2 SWAP1 POP JUMP JUMPDEST PUSH0 DUP3 DUP3 MSTORE PUSH1 0x20 DUP3 ADD SWAP1 POP SWAP3 SWAP2 POP POP JUMP JUMPDEST DUP3 DUP2 DUP4 MCOPY PUSH0 DUP4 DUP4 ADD MSTORE POP POP POP JUMP JUMPDEST PUSH0 PUSH1 0x1F NOT PUSH1 0x1F DUP4 ADD AND SWAP1 POP SWAP2 SWAP1 POP JUMP JUMPDEST PUSH0 PUSH2 0x441 DUP3 PUSH2 0x3FF JUMP JUMPDEST PUSH2 0x44B DUP2 DUP6 PUSH2 0x409 JUMP JUMPDEST SWAP4 POP PUSH2 0x45B DUP2 DUP6 PUSH1 0x20 DUP7 ADD PUSH2 0x419 JUMP JUMPDEST PUSH2 0x464 DUP2 PUSH2 0x427 JUMP JUMPDEST DUP5 ADD SWAP2 POP POP SWAP3 SWAP2 POP POP JUMP JUMPDEST PUSH0 PUSH1 0x20 DUP3 ADD SWAP1 POP DUP2 DUP2 SUB PUSH0 DUP4 ADD MSTORE PUSH2 0x487 DUP2 DUP5 PUSH2 0x437 JUMP JUMPDEST SWAP1 POP SWAP3 SWAP2 POP POP JUMP JUMPDEST PUSH32 0x4E487B7100000000000000000000000000000000000000000000000000000000 PUSH0 MSTORE PUSH1 0x11 PUSH1 0x4 MSTORE PUSH1 0x24 PUSH0 REVERT JUMPDEST PUSH0 PUSH2 0x4C6 DUP3 PUSH2 0x379 JUMP JUMPDEST SWAP2 POP PUSH2 0x4D1 DUP4 PUSH2 0x379 JUMP JUMPDEST SWAP3 POP DUP3 DUP3 ADD SWAP1 POP DUP1 DUP3 GT ISZERO PUSH2 0x4E9 JUMPI PUSH2 0x4E8 PUSH2 0x48F JUMP JUMPDEST JUMPDEST SWAP3 SWAP2 POP POP JUMP JUMPDEST PUSH32 0x4E487B7100000000000000000000000000000000000000000000000000000000 PUSH0 MSTORE PUSH1 0x12 PUSH1 0x4 MSTORE PUSH1 0x24 PUSH0 REVERT JUMPDEST PUSH0 PUSH2 0x526 DUP3 PUSH2 0x379 JUMP JUMPDEST SWAP2 POP PUSH2 0x531 DUP4 PUSH2 0x379 JUMP JUMPDEST SWAP3 POP DUP3 PUSH2 0x541 JUMPI PUSH2 0x540 PUSH2 0x4EF JUMP JUMPDEST JUMPDEST DUP3 DUP3 MOD SWAP1 POP SWAP3 SWAP2 POP POP JUMP INVALID LOG2 PUSH5 0x6970667358 0x22 SLT KECCAK256 ADD 0xE2 SLT PUSH23 0xB6D73FF3C284DBB1E3EE2EBB7BACC3FD8F15C5B56BE158 EXTCODEHASH SWAP13 PUSH10 0x22A364736F6C63430008 0x22 STOP CALLER "
				},
				"gasEstimates": {
					"creation": {
						"codeDepositCost": "282000",
						"executionCost": "322",
						"totalCost": "282322"
					},
					"external": {
						"balances(address)": "2802",
						"dangerousDeposit(uint256)": "infinite",
						"onlyEven(uint256)": "infinite",
						"silentRevert(bool)": "438",
						"totalCounter()": "2446"
					}
				},
				"methodIdentifiers": {
					"balances(address)": "27e235e3",
					"dangerousDeposit(uint256)": "a05beee8",
					"onlyEven(uint256)": "ce0b4213",
					"silentRevert(bool)": "0c86b48b",
					"totalCounter()": "97feba9d"
				}
			},
			"storageLayout": {
				"storage": [
					{
						"astId": 69,
						"contract": "prac46.sol:ManualRevertExamplePatched",
						"label": "totalCounter",
						"offset": 0,
						"slot": "0",
						"type": "t_uint256"
					},
					{
						"astId": 73,
						"contract": "prac46.sol:ManualRevertExamplePatched",
						"label": "balances",
						"offset": 0,
						"slot": "1",
						"type": "t_mapping(t_address,t_uint256)"
					}
				],
				"types": {
					"t_address": {
						"encoding": "inplace",
						"label": "address",
						"numberOfBytes": "20"
					},
					"t_mapping(t_address,t_uint256)": {
						"encoding": "mapping",
						"key": "t_address",
						"label": "mapping(address => uint256)",
						"numberOfBytes": "32",
						"value": "t_uint256"
					},
					"t_uint256": {
						"encoding": "inplace",
						"label": "uint256",
						"numberOfBytes": "32"
					}
				}
			},
			"userdoc": {
				"kind": "user",
				"methods": {},
				"version": 1
			}
		}
	}
}