{
	"prac35.sol": {
		"ValidateNestedArrayPatched": {
			"abi": [
				{
					"inputs": [],
					"name": "ArrayTooLarge",
					"type": "error"
				},
				{
					"inputs": [
						{
							"internalType": "uint256",
							"name": "value",
							"type": "uint256"
						}
					],
					"name": "DuplicateValue",
					"type": "error"
				},
				{
					"inputs": [
						{
							"internalType": "uint256[][]",
							"name": "_numbers",
							"type": "uint256[][]"
						}
					],
					"name": "processNestedArray",
					"outputs": [
						{
							"internalType": "uint256",
							"name": "",
							"type": "uint256"
						}
					],
					"stateMutability": "pure",
					"type": "function"
				}
			],
			"devdoc": {
				"kind": "dev",
				"methods": {},
				"version": 1
			},
			"evm": {
				"assembly": "    /* \"prac35.sol\":11264:12911  contract ValidateNestedArrayPatched {... */\n  mstore(0x40, 0x80)\n  callvalue\n  dup1\n  iszero\n  tag_1\n  jumpi\n  revert(0x00, 0x00)\ntag_1:\n  pop\n  dataSize(sub_0)\n  dup1\n  dataOffset(sub_0)\n  0x00\n  codecopy\n  0x00\n  return\nstop\n\nsub_0: assembly {\n        /* \"prac35.sol\":11264:12911  contract ValidateNestedArrayPatched {... */\n      mstore(0x40, 0x80)\n      callvalue\n      dup1\n      iszero\n      tag_1\n      jumpi\n      revert(0x00, 0x00)\n    tag_1:\n      pop\n      jumpi(tag_2, lt(calldatasize, 0x04))\n      shr(0xe0, calldataload(0x00))\n      dup1\n      0xeb64ad29\n      eq\n      tag_3\n      jumpi\n    tag_2:\n      revert(0x00, 0x00)\n        /* \"prac35.sol\":11381:12908  function processNestedArray(... */\n    tag_3:\n      tag_4\n      0x04\n      dup1\n      calldatasize\n      sub\n      dup2\n      add\n      swap1\n      tag_5\n      swap2\n      swap1\n      tag_6\n      jump\t// in\n    tag_5:\n      tag_7\n      jump\t// in\n    tag_4:\n      mload(0x40)\n      tag_8\n      swap2\n      swap1\n      tag_9\n      jump\t// in\n    tag_8:\n      mload(0x40)\n      dup1\n      swap2\n      sub\n      swap1\n      return\n    tag_7:\n        /* \"prac35.sol\":11506:11513  uint256 */\n      0x00\n        /* \"prac35.sol\":11581:11583  50 */\n      0x32\n        /* \"prac35.sol\":11563:11571  _numbers */\n      dup4\n      dup4\n        /* \"prac35.sol\":11563:11578  _numbers.length */\n      swap1\n      pop\n        /* \"prac35.sol\":11563:11583  _numbers.length > 50 */\n      gt\n        /* \"prac35.sol\":11559:11634  if (_numbers.length > 50) {... */\n      iszero\n      tag_11\n      jumpi\n        /* \"prac35.sol\":11607:11622  ArrayTooLarge() */\n      mload(0x40)\n      0x376ab11100000000000000000000000000000000000000000000000000000000\n      dup2\n      mstore\n      0x04\n      add\n      mload(0x40)\n      dup1\n      swap2\n      sub\n      swap1\n      revert\n        /* \"prac35.sol\":11559:11634  if (_numbers.length > 50) {... */\n    tag_11:\n        /* \"prac35.sol\":11646:11659  uint256 total */\n      0x00\n        /* \"prac35.sol\":11677:11686  uint256 i */\n      0x00\n        /* \"prac35.sol\":11689:11690  0 */\n      0x00\n        /* \"prac35.sol\":11677:11690  uint256 i = 0 */\n      swap1\n      pop\n        /* \"prac35.sol\":11672:12876  for (uint256 i = 0; i < _numbers.length; i++) {... */\n    tag_12:\n        /* \"prac35.sol\":11696:11704  _numbers */\n      dup5\n      dup5\n        /* \"prac35.sol\":11696:11711  _numbers.length */\n      swap1\n      pop\n        /* \"prac35.sol\":11692:11693  i */\n      dup2\n        /* \"prac35.sol\":11692:11711  i < _numbers.length */\n      lt\n        /* \"prac35.sol\":11672:12876  for (uint256 i = 0; i < _numbers.length; i++) {... */\n      iszero\n      tag_13\n      jumpi\n        /* \"prac35.sol\":11795:11797  50 */\n      0x32\n        /* \"prac35.sol\":11774:11782  _numbers */\n      dup6\n      dup6\n        /* \"prac35.sol\":11783:11784  i */\n      dup4\n        /* \"prac35.sol\":11774:11785  _numbers[i] */\n      dup2\n      dup2\n      lt\n      tag_15\n      jumpi\n      tag_16\n      tag_17\n      jump\t// in\n    tag_16:\n    tag_15:\n      swap1\n      pop\n      0x20\n      mul\n      dup2\n      add\n      swap1\n      tag_18\n      swap2\n      swap1\n      tag_19\n      jump\t// in\n    tag_18:\n        /* \"prac35.sol\":11774:11792  _numbers[i].length */\n      swap1\n      pop\n        /* \"prac35.sol\":11774:11797  _numbers[i].length > 50 */\n      gt\n        /* \"prac35.sol\":11770:11856  if (_numbers[i].length > 50) {... */\n      iszero\n      tag_20\n      jumpi\n        /* \"prac35.sol\":11825:11840  ArrayTooLarge() */\n      mload(0x40)\n      0x376ab11100000000000000000000000000000000000000000000000000000000\n      dup2\n      mstore\n      0x04\n      add\n      mload(0x40)\n      dup1\n      swap2\n      sub\n      swap1\n      revert\n        /* \"prac35.sol\":11770:11856  if (_numbers[i].length > 50) {... */\n    tag_20:\n        /* \"prac35.sol\":11877:11886  uint256 j */\n      0x00\n        /* \"prac35.sol\":11889:11890  0 */\n      0x00\n        /* \"prac35.sol\":11877:11890  uint256 j = 0 */\n      swap1\n      pop\n        /* \"prac35.sol\":11872:12865  for (uint256 j = 0; j < _numbers[i].length; j++) {... */\n    tag_21:\n        /* \"prac35.sol\":11896:11904  _numbers */\n      dup6\n      dup6\n        /* \"prac35.sol\":11905:11906  i */\n      dup4\n        /* \"prac35.sol\":11896:11907  _numbers[i] */\n      dup2\n      dup2\n      lt\n      tag_24\n      jumpi\n      tag_25\n      tag_17\n      jump\t// in\n    tag_25:\n    tag_24:\n      swap1\n      pop\n      0x20\n      mul\n      dup2\n      add\n      swap1\n      tag_26\n      swap2\n      swap1\n      tag_19\n      jump\t// in\n    tag_26:\n        /* \"prac35.sol\":11896:11914  _numbers[i].length */\n      swap1\n      pop\n        /* \"prac35.sol\":11892:11893  j */\n      dup2\n        /* \"prac35.sol\":11892:11914  j < _numbers[i].length */\n      lt\n        /* \"prac35.sol\":11872:12865  for (uint256 j = 0; j < _numbers[i].length; j++) {... */\n      iszero\n      tag_22\n      jumpi\n        /* \"prac35.sol\":11942:11957  uint256 current */\n      0x00\n        /* \"prac35.sol\":11981:11989  _numbers */\n      dup7\n      dup7\n        /* \"prac35.sol\":11990:11991  i */\n      dup5\n        /* \"prac35.sol\":11981:11992  _numbers[i] */\n      dup2\n      dup2\n      lt\n      tag_27\n      jumpi\n      tag_28\n      tag_17\n      jump\t// in\n    tag_28:\n    tag_27:\n      swap1\n      pop\n      0x20\n      mul\n      dup2\n      add\n      swap1\n      tag_29\n      swap2\n      swap1\n      tag_19\n      jump\t// in\n    tag_29:\n        /* \"prac35.sol\":11993:11994  j */\n      dup4\n        /* \"prac35.sol\":11981:11995  _numbers[i][j] */\n      dup2\n      dup2\n      lt\n      tag_30\n      jumpi\n      tag_31\n      tag_17\n      jump\t// in\n    tag_31:\n    tag_30:\n      swap1\n      pop\n      0x20\n      mul\n      add\n      calldataload\n        /* \"prac35.sol\":11942:11995  uint256 current =... */\n      swap1\n      pop\n        /* \"prac35.sol\":12058:12067  uint256 x */\n      0x00\n        /* \"prac35.sol\":12070:12071  0 */\n      0x00\n        /* \"prac35.sol\":12058:12071  uint256 x = 0 */\n      swap1\n      pop\n        /* \"prac35.sol\":12053:12813  for (uint256 x = 0; x < _numbers.length; x++) {... */\n    tag_32:\n        /* \"prac35.sol\":12077:12085  _numbers */\n      dup8\n      dup8\n        /* \"prac35.sol\":12077:12092  _numbers.length */\n      swap1\n      pop\n        /* \"prac35.sol\":12073:12074  x */\n      dup2\n        /* \"prac35.sol\":12073:12092  x < _numbers.length */\n      lt\n        /* \"prac35.sol\":12053:12813  for (uint256 x = 0; x < _numbers.length; x++) {... */\n      iszero\n      tag_33\n      jumpi\n        /* \"prac35.sol\":12155:12164  uint256 y */\n      0x00\n        /* \"prac35.sol\":12167:12168  0 */\n      0x00\n        /* \"prac35.sol\":12155:12168  uint256 y = 0 */\n      swap1\n      pop\n        /* \"prac35.sol\":12124:12794  for (... */\n    tag_35:\n        /* \"prac35.sol\":12199:12207  _numbers */\n      dup9\n      dup9\n        /* \"prac35.sol\":12208:12209  x */\n      dup4\n        /* \"prac35.sol\":12199:12210  _numbers[x] */\n      dup2\n      dup2\n      lt\n      tag_38\n      jumpi\n      tag_39\n      tag_17\n      jump\t// in\n    tag_39:\n    tag_38:\n      swap1\n      pop\n      0x20\n      mul\n      dup2\n      add\n      swap1\n      tag_40\n      swap2\n      swap1\n      tag_19\n      jump\t// in\n    tag_40:\n        /* \"prac35.sol\":12199:12217  _numbers[x].length */\n      swap1\n      pop\n        /* \"prac35.sol\":12195:12196  y */\n      dup2\n        /* \"prac35.sol\":12195:12217  y < _numbers[x].length */\n      lt\n        /* \"prac35.sol\":12124:12794  for (... */\n      iszero\n      tag_36\n      jumpi\n        /* \"prac35.sol\":12339:12340  i */\n      dup5\n        /* \"prac35.sol\":12334:12335  x */\n      dup3\n        /* \"prac35.sol\":12334:12340  x == i */\n      eq\n        /* \"prac35.sol\":12334:12379  x == i &&... */\n      dup1\n      iszero\n      tag_41\n      jumpi\n      pop\n        /* \"prac35.sol\":12378:12379  j */\n      dup4\n        /* \"prac35.sol\":12373:12374  y */\n      dup2\n        /* \"prac35.sol\":12373:12379  y == j */\n      eq\n        /* \"prac35.sol\":12334:12379  x == i &&... */\n    tag_41:\n        /* \"prac35.sol\":12438:12446  continue */\n      tag_37\n        /* \"prac35.sol\":12300:12474  if (... */\n      jumpi\n        /* \"prac35.sol\":12583:12590  current */\n      dup3\n        /* \"prac35.sol\":12536:12544  _numbers */\n      dup10\n      dup10\n        /* \"prac35.sol\":12545:12546  x */\n      dup5\n        /* \"prac35.sol\":12536:12547  _numbers[x] */\n      dup2\n      dup2\n      lt\n      tag_43\n      jumpi\n      tag_44\n      tag_17\n      jump\t// in\n    tag_44:\n    tag_43:\n      swap1\n      pop\n      0x20\n      mul\n      dup2\n      add\n      swap1\n      tag_45\n      swap2\n      swap1\n      tag_19\n      jump\t// in\n    tag_45:\n        /* \"prac35.sol\":12548:12549  y */\n      dup4\n        /* \"prac35.sol\":12536:12550  _numbers[x][y] */\n      dup2\n      dup2\n      lt\n      tag_46\n      jumpi\n      tag_47\n      tag_17\n      jump\t// in\n    tag_47:\n    tag_46:\n      swap1\n      pop\n      0x20\n      mul\n      add\n      calldataload\n        /* \"prac35.sol\":12536:12590  _numbers[x][y] ==... */\n      sub\n        /* \"prac35.sol\":12502:12771  if (... */\n      tag_48\n      jumpi\n        /* \"prac35.sol\":12705:12712  current */\n      dup3\n        /* \"prac35.sol\":12656:12743  DuplicateValue(... */\n      mload(0x40)\n      0x259e6bf600000000000000000000000000000000000000000000000000000000\n      dup2\n      mstore\n      0x04\n      add\n      tag_49\n      swap2\n      swap1\n      tag_9\n      jump\t// in\n    tag_49:\n      mload(0x40)\n      dup1\n      swap2\n      sub\n      swap1\n      revert\n        /* \"prac35.sol\":12502:12771  if (... */\n    tag_48:\n        /* \"prac35.sol\":12124:12794  for (... */\n    tag_37:\n        /* \"prac35.sol\":12244:12247  y++ */\n      dup1\n      dup1\n      0x01\n      add\n      swap2\n      pop\n      pop\n        /* \"prac35.sol\":12124:12794  for (... */\n      jump(tag_35)\n    tag_36:\n      pop\n        /* \"prac35.sol\":12094:12097  x++ */\n      dup1\n      dup1\n      0x01\n      add\n      swap2\n      pop\n      pop\n        /* \"prac35.sol\":12053:12813  for (uint256 x = 0; x < _numbers.length; x++) {... */\n      jump(tag_32)\n    tag_33:\n      pop\n        /* \"prac35.sol\":12842:12849  current */\n      dup1\n        /* \"prac35.sol\":12833:12849  total += current */\n      dup5\n      tag_50\n      swap2\n      swap1\n      tag_51\n      jump\t// in\n    tag_50:\n      swap4\n      pop\n        /* \"prac35.sol\":11921:12865  {... */\n      pop\n        /* \"prac35.sol\":11916:11919  j++ */\n      dup1\n      dup1\n      0x01\n      add\n      swap2\n      pop\n      pop\n        /* \"prac35.sol\":11872:12865  for (uint256 j = 0; j < _numbers[i].length; j++) {... */\n      jump(tag_21)\n    tag_22:\n      pop\n        /* \"prac35.sol\":11713:11716  i++ */\n      dup1\n      dup1\n      0x01\n      add\n      swap2\n      pop\n      pop\n        /* \"prac35.sol\":11672:12876  for (uint256 i = 0; i < _numbers.length; i++) {... */\n      jump(tag_12)\n    tag_13:\n      pop\n        /* \"prac35.sol\":12895:12900  total */\n      dup1\n        /* \"prac35.sol\":12888:12900  return total */\n      swap2\n      pop\n      pop\n        /* \"prac35.sol\":11381:12908  function processNestedArray(... */\n      swap3\n      swap2\n      pop\n      pop\n      jump\t// out\n        /* \"#utility.yul\":88:205   */\n    tag_53:\n        /* \"#utility.yul\":197:198   */\n      0x00\n        /* \"#utility.yul\":194:195   */\n      0x00\n        /* \"#utility.yul\":187:199   */\n      revert\n        /* \"#utility.yul\":211:328   */\n    tag_54:\n        /* \"#utility.yul\":320:321   */\n      0x00\n        /* \"#utility.yul\":317:318   */\n      0x00\n        /* \"#utility.yul\":310:322   */\n      revert\n        /* \"#utility.yul\":334:451   */\n    tag_55:\n        /* \"#utility.yul\":443:444   */\n      0x00\n        /* \"#utility.yul\":440:441   */\n      0x00\n        /* \"#utility.yul\":433:445   */\n      revert\n        /* \"#utility.yul\":457:574   */\n    tag_56:\n        /* \"#utility.yul\":566:567   */\n      0x00\n        /* \"#utility.yul\":563:564   */\n      0x00\n        /* \"#utility.yul\":556:568   */\n      revert\n        /* \"#utility.yul\":580:697   */\n    tag_57:\n        /* \"#utility.yul\":689:690   */\n      0x00\n        /* \"#utility.yul\":686:687   */\n      0x00\n        /* \"#utility.yul\":679:691   */\n      revert\n        /* \"#utility.yul\":722:1317   */\n    tag_58:\n        /* \"#utility.yul\":822:830   */\n      0x00\n        /* \"#utility.yul\":832:838   */\n      0x00\n        /* \"#utility.yul\":882:885   */\n      dup4\n        /* \"#utility.yul\":875:879   */\n      0x1f\n        /* \"#utility.yul\":867:873   */\n      dup5\n        /* \"#utility.yul\":863:880   */\n      add\n        /* \"#utility.yul\":859:886   */\n      slt\n        /* \"#utility.yul\":849:971   */\n      tag_73\n      jumpi\n        /* \"#utility.yul\":890:969   */\n      tag_74\n      tag_55\n      jump\t// in\n    tag_74:\n        /* \"#utility.yul\":849:971   */\n    tag_73:\n        /* \"#utility.yul\":1003:1009   */\n      dup3\n        /* \"#utility.yul\":990:1010   */\n      calldataload\n        /* \"#utility.yul\":980:1010   */\n      swap1\n      pop\n        /* \"#utility.yul\":1033:1051   */\n      0xffffffffffffffff\n        /* \"#utility.yul\":1025:1031   */\n      dup2\n        /* \"#utility.yul\":1022:1052   */\n      gt\n        /* \"#utility.yul\":1019:1136   */\n      iszero\n      tag_75\n      jumpi\n        /* \"#utility.yul\":1055:1134   */\n      tag_76\n      tag_56\n      jump\t// in\n    tag_76:\n        /* \"#utility.yul\":1019:1136   */\n    tag_75:\n        /* \"#utility.yul\":1169:1173   */\n      0x20\n        /* \"#utility.yul\":1161:1167   */\n      dup4\n        /* \"#utility.yul\":1157:1174   */\n      add\n        /* \"#utility.yul\":1145:1174   */\n      swap2\n      pop\n        /* \"#utility.yul\":1223:1226   */\n      dup4\n        /* \"#utility.yul\":1215:1219   */\n      0x20\n        /* \"#utility.yul\":1207:1213   */\n      dup3\n        /* \"#utility.yul\":1203:1220   */\n      mul\n        /* \"#utility.yul\":1193:1201   */\n      dup4\n        /* \"#utility.yul\":1189:1221   */\n      add\n        /* \"#utility.yul\":1186:1227   */\n      gt\n        /* \"#utility.yul\":1183:1311   */\n      iszero\n      tag_77\n      jumpi\n        /* \"#utility.yul\":1230:1309   */\n      tag_78\n      tag_57\n      jump\t// in\n    tag_78:\n        /* \"#utility.yul\":1183:1311   */\n    tag_77:\n        /* \"#utility.yul\":722:1317   */\n      swap3\n      pop\n      swap3\n      swap1\n      pop\n      jump\t// out\n        /* \"#utility.yul\":1323:1936   */\n    tag_6:\n        /* \"#utility.yul\":1436:1442   */\n      0x00\n        /* \"#utility.yul\":1444:1450   */\n      0x00\n        /* \"#utility.yul\":1493:1495   */\n      0x20\n        /* \"#utility.yul\":1481:1490   */\n      dup4\n        /* \"#utility.yul\":1472:1479   */\n      dup6\n        /* \"#utility.yul\":1468:1491   */\n      sub\n        /* \"#utility.yul\":1464:1496   */\n      slt\n        /* \"#utility.yul\":1461:1580   */\n      iszero\n      tag_80\n      jumpi\n        /* \"#utility.yul\":1499:1578   */\n      tag_81\n      tag_53\n      jump\t// in\n    tag_81:\n        /* \"#utility.yul\":1461:1580   */\n    tag_80:\n        /* \"#utility.yul\":1647:1648   */\n      0x00\n        /* \"#utility.yul\":1636:1645   */\n      dup4\n        /* \"#utility.yul\":1632:1649   */\n      add\n        /* \"#utility.yul\":1619:1650   */\n      calldataload\n        /* \"#utility.yul\":1677:1695   */\n      0xffffffffffffffff\n        /* \"#utility.yul\":1669:1675   */\n      dup2\n        /* \"#utility.yul\":1666:1696   */\n      gt\n        /* \"#utility.yul\":1663:1780   */\n      iszero\n      tag_82\n      jumpi\n        /* \"#utility.yul\":1699:1778   */\n      tag_83\n      tag_54\n      jump\t// in\n    tag_83:\n        /* \"#utility.yul\":1663:1780   */\n    tag_82:\n        /* \"#utility.yul\":1812:1919   */\n      tag_84\n        /* \"#utility.yul\":1911:1918   */\n      dup6\n        /* \"#utility.yul\":1902:1908   */\n      dup3\n        /* \"#utility.yul\":1891:1900   */\n      dup7\n        /* \"#utility.yul\":1887:1909   */\n      add\n        /* \"#utility.yul\":1812:1919   */\n      tag_58\n      jump\t// in\n    tag_84:\n        /* \"#utility.yul\":1794:1919   */\n      swap3\n      pop\n      swap3\n      pop\n        /* \"#utility.yul\":1590:1929   */\n      pop\n        /* \"#utility.yul\":1323:1936   */\n      swap3\n      pop\n      swap3\n      swap1\n      pop\n      jump\t// out\n        /* \"#utility.yul\":1942:2019   */\n    tag_59:\n        /* \"#utility.yul\":1979:1986   */\n      0x00\n        /* \"#utility.yul\":2008:2013   */\n      dup2\n        /* \"#utility.yul\":1997:2013   */\n      swap1\n      pop\n        /* \"#utility.yul\":1942:2019   */\n      swap2\n      swap1\n      pop\n      jump\t// out\n        /* \"#utility.yul\":2025:2143   */\n    tag_60:\n        /* \"#utility.yul\":2112:2136   */\n      tag_87\n        /* \"#utility.yul\":2130:2135   */\n      dup2\n        /* \"#utility.yul\":2112:2136   */\n      tag_59\n      jump\t// in\n    tag_87:\n        /* \"#utility.yul\":2107:2110   */\n      dup3\n        /* \"#utility.yul\":2100:2137   */\n      mstore\n        /* \"#utility.yul\":2025:2143   */\n      pop\n      pop\n      jump\t// out\n        /* \"#utility.yul\":2149:2371   */\n    tag_9:\n        /* \"#utility.yul\":2242:2246   */\n      0x00\n        /* \"#utility.yul\":2280:2282   */\n      0x20\n        /* \"#utility.yul\":2269:2278   */\n      dup3\n        /* \"#utility.yul\":2265:2283   */\n      add\n        /* \"#utility.yul\":2257:2283   */\n      swap1\n      pop\n        /* \"#utility.yul\":2293:2364   */\n      tag_89\n        /* \"#utility.yul\":2361:2362   */\n      0x00\n        /* \"#utility.yul\":2350:2359   */\n      dup4\n        /* \"#utility.yul\":2346:2363   */\n      add\n        /* \"#utility.yul\":2337:2343   */\n      dup5\n        /* \"#utility.yul\":2293:2364   */\n      tag_60\n      jump\t// in\n    tag_89:\n        /* \"#utility.yul\":2149:2371   */\n      swap3\n      swap2\n      pop\n      pop\n      jump\t// out\n        /* \"#utility.yul\":2377:2557   */\n    tag_17:\n        /* \"#utility.yul\":2425:2502   */\n      0x4e487b7100000000000000000000000000000000000000000000000000000000\n        /* \"#utility.yul\":2422:2423   */\n      0x00\n        /* \"#utility.yul\":2415:2503   */\n      mstore\n        /* \"#utility.yul\":2522:2526   */\n      0x32\n        /* \"#utility.yul\":2519:2520   */\n      0x04\n        /* \"#utility.yul\":2512:2527   */\n      mstore\n        /* \"#utility.yul\":2546:2550   */\n      0x24\n        /* \"#utility.yul\":2543:2544   */\n      0x00\n        /* \"#utility.yul\":2536:2551   */\n      revert\n        /* \"#utility.yul\":2563:2680   */\n    tag_61:\n        /* \"#utility.yul\":2672:2673   */\n      0x00\n        /* \"#utility.yul\":2669:2670   */\n      0x00\n        /* \"#utility.yul\":2662:2674   */\n      revert\n        /* \"#utility.yul\":2686:2803   */\n    tag_62:\n        /* \"#utility.yul\":2795:2796   */\n      0x00\n        /* \"#utility.yul\":2792:2793   */\n      0x00\n        /* \"#utility.yul\":2785:2797   */\n      revert\n        /* \"#utility.yul\":2809:2926   */\n    tag_63:\n        /* \"#utility.yul\":2918:2919   */\n      0x00\n        /* \"#utility.yul\":2915:2916   */\n      0x00\n        /* \"#utility.yul\":2908:2920   */\n      revert\n        /* \"#utility.yul\":2932:3672   */\n    tag_19:\n        /* \"#utility.yul\":3025:3029   */\n      0x00\n        /* \"#utility.yul\":3031:3037   */\n      0x00\n        /* \"#utility.yul\":3087:3098   */\n      dup4\n        /* \"#utility.yul\":3074:3099   */\n      calldataload\n        /* \"#utility.yul\":3187:3188   */\n      0x01\n        /* \"#utility.yul\":3181:3185   */\n      0x20\n        /* \"#utility.yul\":3177:3189   */\n      sub\n        /* \"#utility.yul\":3166:3174   */\n      dup5\n        /* \"#utility.yul\":3150:3164   */\n      calldatasize\n        /* \"#utility.yul\":3146:3175   */\n      sub\n        /* \"#utility.yul\":3142:3190   */\n      sub\n        /* \"#utility.yul\":3122:3140   */\n      dup2\n        /* \"#utility.yul\":3118:3191   */\n      slt\n        /* \"#utility.yul\":3108:3276   */\n      tag_95\n      jumpi\n        /* \"#utility.yul\":3195:3274   */\n      tag_96\n      tag_61\n      jump\t// in\n    tag_96:\n        /* \"#utility.yul\":3108:3276   */\n    tag_95:\n        /* \"#utility.yul\":3307:3325   */\n      dup1\n        /* \"#utility.yul\":3297:3305   */\n      dup5\n        /* \"#utility.yul\":3293:3326   */\n      add\n        /* \"#utility.yul\":3285:3326   */\n      swap3\n      pop\n        /* \"#utility.yul\":3359:3363   */\n      dup3\n        /* \"#utility.yul\":3346:3364   */\n      calldataload\n        /* \"#utility.yul\":3336:3364   */\n      swap2\n      pop\n        /* \"#utility.yul\":3387:3405   */\n      0xffffffffffffffff\n        /* \"#utility.yul\":3379:3385   */\n      dup3\n        /* \"#utility.yul\":3376:3406   */\n      gt\n        /* \"#utility.yul\":3373:3490   */\n      iszero\n      tag_97\n      jumpi\n        /* \"#utility.yul\":3409:3488   */\n      tag_98\n      tag_62\n      jump\t// in\n    tag_98:\n        /* \"#utility.yul\":3373:3490   */\n    tag_97:\n        /* \"#utility.yul\":3517:3519   */\n      0x20\n        /* \"#utility.yul\":3511:3515   */\n      dup4\n        /* \"#utility.yul\":3507:3520   */\n      add\n        /* \"#utility.yul\":3499:3520   */\n      swap3\n      pop\n        /* \"#utility.yul\":3574:3578   */\n      0x20\n        /* \"#utility.yul\":3566:3572   */\n      dup3\n        /* \"#utility.yul\":3562:3579   */\n      mul\n        /* \"#utility.yul\":3546:3560   */\n      calldatasize\n        /* \"#utility.yul\":3542:3580   */\n      sub\n        /* \"#utility.yul\":3536:3540   */\n      dup4\n        /* \"#utility.yul\":3532:3581   */\n      sgt\n        /* \"#utility.yul\":3529:3665   */\n      iszero\n      tag_99\n      jumpi\n        /* \"#utility.yul\":3584:3663   */\n      tag_100\n      tag_63\n      jump\t// in\n    tag_100:\n        /* \"#utility.yul\":3529:3665   */\n    tag_99:\n        /* \"#utility.yul\":3038:3672   */\n      pop\n        /* \"#utility.yul\":2932:3672   */\n      swap3\n      pop\n      swap3\n      swap1\n      pop\n      jump\t// out\n        /* \"#utility.yul\":3678:3858   */\n    tag_64:\n        /* \"#utility.yul\":3726:3803   */\n      0x4e487b7100000000000000000000000000000000000000000000000000000000\n        /* \"#utility.yul\":3723:3724   */\n      0x00\n        /* \"#utility.yul\":3716:3804   */\n      mstore\n        /* \"#utility.yul\":3823:3827   */\n      0x11\n        /* \"#utility.yul\":3820:3821   */\n      0x04\n        /* \"#utility.yul\":3813:3828   */\n      mstore\n        /* \"#utility.yul\":3847:3851   */\n      0x24\n        /* \"#utility.yul\":3844:3845   */\n      0x00\n        /* \"#utility.yul\":3837:3852   */\n      revert\n        /* \"#utility.yul\":3864:4055   */\n    tag_51:\n        /* \"#utility.yul\":3904:3907   */\n      0x00\n        /* \"#utility.yul\":3923:3943   */\n      tag_103\n        /* \"#utility.yul\":3941:3942   */\n      dup3\n        /* \"#utility.yul\":3923:3943   */\n      tag_59\n      jump\t// in\n    tag_103:\n        /* \"#utility.yul\":3918:3943   */\n      swap2\n      pop\n        /* \"#utility.yul\":3957:3977   */\n      tag_104\n        /* \"#utility.yul\":3975:3976   */\n      dup4\n        /* \"#utility.yul\":3957:3977   */\n      tag_59\n      jump\t// in\n    tag_104:\n        /* \"#utility.yul\":3952:3977   */\n      swap3\n      pop\n        /* \"#utility.yul\":4000:4001   */\n      dup3\n        /* \"#utility.yul\":3997:3998   */\n      dup3\n        /* \"#utility.yul\":3993:4002   */\n      add\n        /* \"#utility.yul\":3986:4002   */\n      swap1\n      pop\n        /* \"#utility.yul\":4021:4024   */\n      dup1\n        /* \"#utility.yul\":4018:4019   */\n      dup3\n        /* \"#utility.yul\":4015:4025   */\n      gt\n        /* \"#utility.yul\":4012:4048   */\n      iszero\n      tag_105\n      jumpi\n        /* \"#utility.yul\":4028:4046   */\n      tag_106\n      tag_64\n      jump\t// in\n    tag_106:\n        /* \"#utility.yul\":4012:4048   */\n    tag_105:\n        /* \"#utility.yul\":3864:4055   */\n      swap3\n      swap2\n      pop\n      pop\n      jump\t// out\n\n    auxdata: 0xa2646970667358221220d100d1c2ef7f55a5d5bb4f8b90347f1f219bb6d628b15eb655875f9aeceab53a64736f6c63430008220033\n}\n",
				"bytecode": {
					"linkReferences": {},
					"object": "6080604052348015600e575f5ffd5b506104be8061001c5f395ff3fe608060405234801561000f575f5ffd5b5060043610610029575f3560e01c8063eb64ad291461002d575b5f5ffd5b61004760048036038101906100429190610311565b61005d565b6040516100549190610374565b60405180910390f35b5f603283839050111561009c576040517f376ab11100000000000000000000000000000000000000000000000000000000815260040160405180910390fd5b5f5f5f90505b8484905081101561029d5760328585838181106100c2576100c161038d565b5b90506020028101906100d491906103c6565b9050111561010e576040517f376ab11100000000000000000000000000000000000000000000000000000000815260040160405180910390fd5b5f5f90505b8585838181106101265761012561038d565b5b905060200281019061013891906103c6565b905081101561028f575f8686848181106101555761015461038d565b5b905060200281019061016791906103c6565b838181106101785761017761038d565b5b9050602002013590505f5f90505b87879050811015610272575f5f90505b8888838181106101a9576101a861038d565b5b90506020028101906101bb91906103c6565b90508110156102645784821480156101d257508381145b61025757828989848181106101ea576101e961038d565b5b90506020028101906101fc91906103c6565b8381811061020d5761020c61038d565b5b905060200201350361025657826040517f259e6bf600000000000000000000000000000000000000000000000000000000815260040161024d9190610374565b60405180910390fd5b5b8080600101915050610196565b508080600101915050610186565b50808461027f9190610455565b9350508080600101915050610113565b5080806001019150506100a2565b508091505092915050565b5f5ffd5b5f5ffd5b5f5ffd5b5f5ffd5b5f5ffd5b5f5f83601f8401126102d1576102d06102b0565b5b8235905067ffffffffffffffff8111156102ee576102ed6102b4565b5b60208301915083602082028301111561030a576103096102b8565b5b9250929050565b5f5f60208385031215610327576103266102a8565b5b5f83013567ffffffffffffffff811115610344576103436102ac565b5b610350858286016102bc565b92509250509250929050565b5f819050919050565b61036e8161035c565b82525050565b5f6020820190506103875f830184610365565b92915050565b7f4e487b71000000000000000000000000000000000000000000000000000000005f52603260045260245ffd5b5f5ffd5b5f5ffd5b5f5ffd5b5f5f833560016020038436030381126103e2576103e16103ba565b5b80840192508235915067ffffffffffffffff821115610404576104036103be565b5b6020830192506020820236038313156104205761041f6103c2565b5b509250929050565b7f4e487b71000000000000000000000000000000000000000000000000000000005f52601160045260245ffd5b5f61045f8261035c565b915061046a8361035c565b925082820190508082111561048257610481610428565b5b9291505056fea2646970667358221220d100d1c2ef7f55a5d5bb4f8b90347f1f219bb6d628b15eb655875f9aeceab53a64736f6c63430008220033",
					"opcodes": "PUSH1 0x80 PUSH1 0x40 MSTORE CALLVALUE DUP1 ISZERO PUSH1 0xE JUMPI PUSH0 PUSH0 REVERT JUMPDEST POP PUSH2 0x4BE DUP1 PUSH2 0x1C PUSH0 CODECOPY PUSH0 RETURN INVALID PUSH1 0x80 PUSH1 0x40 MSTORE CALLVALUE DUP1 ISZERO PUSH2 0xF JUMPI PUSH0 PUSH0 REVERT JUMPDEST POP PUSH1 0x4 CALLDATASIZE LT PUSH2 0x29 JUMPI PUSH0 CALLDATALOAD PUSH1 0xE0 SHR DUP1 PUSH4 0xEB64AD29 EQ PUSH2 0x2D JUMPI JUMPDEST PUSH0 PUSH0 REVERT JUMPDEST PUSH2 0x47 PUSH1 0x4 DUP1 CALLDATASIZE SUB DUP2 ADD SWAP1 PUSH2 0x42 SWAP2 SWAP1 PUSH2 0x311 JUMP JUMPDEST PUSH2 0x5D JUMP JUMPDEST PUSH1 0x40 MLOAD PUSH2 0x54 SWAP2 SWAP1 PUSH2 0x374 JUMP JUMPDEST PUSH1 0x40 MLOAD DUP1 SWAP2 SUB SWAP1 RETURN JUMPDEST PUSH0 PUSH1 0x32 DUP4 DUP4 SWAP1 POP GT ISZERO PUSH2 0x9C JUMPI PUSH1 0x40 MLOAD PUSH32 0x376AB11100000000000000000000000000000000000000000000000000000000 DUP2 MSTORE PUSH1 0x4 ADD PUSH1 0x40 MLOAD DUP1 SWAP2 SUB SWAP1 REVERT JUMPDEST PUSH0 PUSH0 PUSH0 SWAP1 POP JUMPDEST DUP5 DUP5 SWAP1 POP DUP2 LT ISZERO PUSH2 0x29D JUMPI PUSH1 0x32 DUP6 DUP6 DUP4 DUP2 DUP2 LT PUSH2 0xC2 JUMPI PUSH2 0xC1 PUSH2 0x38D JUMP JUMPDEST JUMPDEST SWAP1 POP PUSH1 0x20 MUL DUP2 ADD SWAP1 PUSH2 0xD4 SWAP2 SWAP1 PUSH2 0x3C6 JUMP JUMPDEST SWAP1 POP GT ISZERO PUSH2 0x10E JUMPI PUSH1 0x40 MLOAD PUSH32 0x376AB11100000000000000000000000000000000000000000000000000000000 DUP2 MSTORE PUSH1 0x4 ADD PUSH1 0x40 MLOAD DUP1 SWAP2 SUB SWAP1 REVERT JUMPDEST PUSH0 PUSH0 SWAP1 POP JUMPDEST DUP6 DUP6 DUP4 DUP2 DUP2 LT PUSH2 0x126 JUMPI PUSH2 0x125 PUSH2 0x38D JUMP JUMPDEST JUMPDEST SWAP1 POP PUSH1 0x20 MUL DUP2 ADD SWAP1 PUSH2 0x138 SWAP2 SWAP1 PUSH2 0x3C6 JUMP JUMPDEST SWAP1 POP DUP2 LT ISZERO PUSH2 0x28F JUMPI PUSH0 DUP7 DUP7 DUP5 DUP2 DUP2 LT PUSH2 0x155 JUMPI PUSH2 0x154 PUSH2 0x38D JUMP JUMPDEST JUMPDEST SWAP1 POP PUSH1 0x20 MUL DUP2 ADD SWAP1 PUSH2 0x167 SWAP2 SWAP1 PUSH2 0x3C6 JUMP JUMPDEST DUP4 DUP2 DUP2 LT PUSH2 0x178 JUMPI PUSH2 0x177 PUSH2 0x38D JUMP JUMPDEST JUMPDEST SWAP1 POP PUSH1 0x20 MUL ADD CALLDATALOAD SWAP1 POP PUSH0 PUSH0 SWAP1 POP JUMPDEST DUP8 DUP8 SWAP1 POP DUP2 LT ISZERO PUSH2 0x272 JUMPI PUSH0 PUSH0 SWAP1 POP JUMPDEST DUP9 DUP9 DUP4 DUP2 DUP2 LT PUSH2 0x1A9 JUMPI PUSH2 0x1A8 PUSH2 0x38D JUMP JUMPDEST JUMPDEST SWAP1 POP PUSH1 0x20 MUL DUP2 ADD SWAP1 PUSH2 0x1BB SWAP2 SWAP1 PUSH2 0x3C6 JUMP JUMPDEST SWAP1 POP DUP2 LT ISZERO PUSH2 0x264 JUMPI DUP5 DUP3 EQ DUP1 ISZERO PUSH2 0x1D2 JUMPI POP DUP4 DUP2 EQ JUMPDEST PUSH2 0x257 JUMPI DUP3 DUP10 DUP10 DUP5 DUP2 DUP2 LT PUSH2 0x1EA JUMPI PUSH2 0x1E9 PUSH2 0x38D JUMP JUMPDEST JUMPDEST SWAP1 POP PUSH1 0x20 MUL DUP2 ADD SWAP1 PUSH2 0x1FC SWAP2 SWAP1 PUSH2 0x3C6 JUMP JUMPDEST DUP4 DUP2 DUP2 LT PUSH2 0x20D JUMPI PUSH2 0x20C PUSH2 0x38D JUMP JUMPDEST JUMPDEST SWAP1 POP PUSH1 0x20 MUL ADD CALLDATALOAD SUB PUSH2 0x256 JUMPI DUP3 PUSH1 0x40 MLOAD PUSH32 0x259E6BF600000000000000000000000000000000000000000000000000000000 DUP2 MSTORE PUSH1 0x4 ADD PUSH2 0x24D SWAP2 SWAP1 PUSH2 0x374 JUMP JUMPDEST PUSH1 0x40 MLOAD DUP1 SWAP2 SUB SWAP1 REVERT JUMPDEST JUMPDEST DUP1 DUP1 PUSH1 0x1 ADD SWAP2 POP POP PUSH2 0x196 JUMP JUMPDEST POP DUP1 DUP1 PUSH1 0x1 ADD SWAP2 POP POP PUSH2 0x186 JUMP JUMPDEST POP DUP1 DUP5 PUSH2 0x27F SWAP2 SWAP1 PUSH2 0x455 JUMP JUMPDEST SWAP4 POP POP DUP1 DUP1 PUSH1 0x1 ADD SWAP2 POP POP PUSH2 0x113 JUMP JUMPDEST POP DUP1 DUP1 PUSH1 0x1 ADD SWAP2 POP POP PUSH2 0xA2 JUMP JUMPDEST POP DUP1 SWAP2 POP POP SWAP3 SWAP2 POP POP JUMP JUMPDEST PUSH0 PUSH0 REVERT JUMPDEST PUSH0 PUSH0 REVERT JUMPDEST PUSH0 PUSH0 REVERT JUMPDEST PUSH0 PUSH0 REVERT JUMPDEST PUSH0 PUSH0 REVERT JUMPDEST PUSH0 PUSH0 DUP4 PUSH1 0x1F DUP5 ADD SLT PUSH2 0x2D1 JUMPI PUSH2 0x2D0 PUSH2 0x2B0 JUMP JUMPDEST JUMPDEST DUP3 CALLDATALOAD SWAP1 POP PUSH8 0xFFFFFFFFFFFFFFFF DUP2 GT ISZERO PUSH2 0x2EE JUMPI PUSH2 0x2ED PUSH2 0x2B4 JUMP JUMPDEST JUMPDEST PUSH1 0x20 DUP4 ADD SWAP2 POP DUP4 PUSH1 0x20 DUP3 MUL DUP4 ADD GT ISZERO PUSH2 0x30A JUMPI PUSH2 0x309 PUSH2 0x2B8 JUMP JUMPDEST JUMPDEST SWAP3 POP SWAP3 SWAP1 POP JUMP JUMPDEST PUSH0 PUSH0 PUSH1 0x20 DUP4 DUP6 SUB SLT ISZERO PUSH2 0x327 JUMPI PUSH2 0x326 PUSH2 0x2A8 JUMP JUMPDEST JUMPDEST PUSH0 DUP4 ADD CALLDATALOAD PUSH8 0xFFFFFFFFFFFFFFFF DUP2 GT ISZERO PUSH2 0x344 JUMPI PUSH2 0x343 PUSH2 0x2AC JUMP JUMPDEST JUMPDEST PUSH2 0x350 DUP6 DUP3 DUP7 ADD PUSH2 0x2BC JUMP JUMPDEST SWAP3 POP SWAP3 POP POP SWAP3 POP SWAP3 SWAP1 POP JUMP JUMPDEST PUSH0 DUP2 SWAP1 POP SWAP2 SWAP1 POP JUMP JUMPDEST PUSH2 0x36E DUP2 PUSH2 0x35C JUMP JUMPDEST DUP3 MSTORE POP POP JUMP JUMPDEST PUSH0 PUSH1 0x20 DUP3 ADD SWAP1 POP PUSH2 0x387 PUSH0 DUP4 ADD DUP5 PUSH2 0x365 JUMP JUMPDEST SWAP3 SWAP2 POP POP JUMP JUMPDEST PUSH32 0x4E487B7100000000000000000000000000000000000000000000000000000000 PUSH0 MSTORE PUSH1 0x32 PUSH1 0x4 MSTORE PUSH1 0x24 PUSH0 REVERT JUMPDEST PUSH0 PUSH0 REVERT JUMPDEST PUSH0 PUSH0 REVERT JUMPDEST PUSH0 PUSH0 REVERT JUMPDEST PUSH0 PUSH0 DUP4 CALLDATALOAD PUSH1 0x1 PUSH1 0x20 SUB DUP5 CALLDATASIZE SUB SUB DUP2 SLT PUSH2 0x3E2 JUMPI PUSH2 0x3E1 PUSH2 0x3BA JUMP JUMPDEST JUMPDEST DUP1 DUP5 ADD SWAP3 POP DUP3 CALLDATALOAD SWAP2 POP PUSH8 0xFFFFFFFFFFFFFFFF DUP3 GT ISZERO PUSH2 0x404 JUMPI PUSH2 0x403 PUSH2 0x3BE JUMP JUMPDEST JUMPDEST PUSH1 0x20 DUP4 ADD SWAP3 POP PUSH1 0x20 DUP3 MUL CALLDATASIZE SUB DUP4 SGT ISZERO PUSH2 0x420 JUMPI PUSH2 0x41F PUSH2 0x3C2 JUMP JUMPDEST JUMPDEST POP SWAP3 POP SWAP3 SWAP1 POP JUMP JUMPDEST PUSH32 0x4E487B7100000000000000000000000000000000000000000000000000000000 PUSH0 MSTORE PUSH1 0x11 PUSH1 0x4 MSTORE PUSH1 0x24 PUSH0 REVERT JUMPDEST PUSH0 PUSH2 0x45F DUP3 PUSH2 0x35C JUMP JUMPDEST SWAP2 POP PUSH2 0x46A DUP4 PUSH2 0x35C JUMP JUMPDEST SWAP3 POP DUP3 DUP3 ADD SWAP1 POP DUP1 DUP3 GT ISZERO PUSH2 0x482 JUMPI PUSH2 0x481 PUSH2 0x428 JUMP JUMPDEST JUMPDEST SWAP3 SWAP2 POP POP JUMP INVALID LOG2 PUSH5 0x6970667358 0x22 SLT KECCAK256 DATALOADN 0xD1 0xC2 0xEF PUSH32 0x55A5D5BB4F8B90347F1F219BB6D628B15EB655875F9AECEAB53A64736F6C6343 STOP ADDMOD 0x22 STOP CALLER "
				},
				"gasEstimates": {
					"creation": {
						"codeDepositCost": "242800",
						"executionCost": "279",
						"totalCost": "243079"
					},
					"external": {
						"processNestedArray(uint256[][])": "infinite"
					}
				},
				"methodIdentifiers": {
					"processNestedArray(uint256[][])": "eb64ad29"
				}
			},
			"storageLayout": {
				"storage": [],
				"types": null
			},
			"userdoc": {
				"kind": "user",
				"methods": {},
				"version": 1
			}
		}
	}
}