{
	"prac40.sol": {
		"NestedIfConditions": {
			"abi": [
				{
					"inputs": [],
					"stateMutability": "nonpayable",
					"type": "constructor"
				},
				{
					"inputs": [
						{
							"internalType": "uint256",
							"name": "_score",
							"type": "uint256"
						},
						{
							"internalType": "bool",
							"name": "_premium",
							"type": "bool"
						}
					],
					"name": "evaluateUser",
					"outputs": [],
					"stateMutability": "nonpayable",
					"type": "function"
				},
				{
					"inputs": [
						{
							"internalType": "address",
							"name": "",
							"type": "address"
						}
					],
					"name": "levels",
					"outputs": [
						{
							"internalType": "string",
							"name": "",
							"type": "string"
						}
					],
					"stateMutability": "view",
					"type": "function"
				},
				{
					"inputs": [],
					"name": "owner",
					"outputs": [
						{
							"internalType": "address",
							"name": "",
							"type": "address"
						}
					],
					"stateMutability": "view",
					"type": "function"
				},
				{
					"inputs": [
						{
							"internalType": "address",
							"name": "_user",
							"type": "address"
						}
					],
					"name": "ownerBonus",
					"outputs": [],
					"stateMutability": "nonpayable",
					"type": "function"
				},
				{
					"inputs": [
						{
							"internalType": "address",
							"name": "",
							"type": "address"
						}
					],
					"name": "scores",
					"outputs": [
						{
							"internalType": "uint256",
							"name": "",
							"type": "uint256"
						}
					],
					"stateMutability": "view",
					"type": "function"
				}
			],
			"devdoc": {
				"kind": "dev",
				"methods": {},
				"version": 1
			},
			"evm": {
				"assembly": "    /* \"prac40.sol\":1701:4193  contract NestedIfConditions {... */\n  mstore(0x40, 0x80)\n    /* \"prac40.sol\":2016:2069  constructor() {... */\n  callvalue\n  dup1\n  iszero\n  tag_1\n  jumpi\n  revert(0x00, 0x00)\ntag_1:\n  pop\n    /* \"prac40.sol\":2051:2061  msg.sender */\n  caller\n    /* \"prac40.sol\":2043:2048  owner */\n  0x00\n  0x00\n    /* \"prac40.sol\":2043:2061  owner = msg.sender */\n  0x0100\n  exp\n  dup2\n  sload\n  dup2\n  0xffffffffffffffffffffffffffffffffffffffff\n  mul\n  not\n  and\n  swap1\n  dup4\n  0xffffffffffffffffffffffffffffffffffffffff\n  and\n  mul\n  or\n  swap1\n  sstore\n  pop\n    /* \"prac40.sol\":1701:4193  contract NestedIfConditions {... */\n  dataSize(sub_0)\n  dup1\n  dataOffset(sub_0)\n  0x00\n  codecopy\n  0x00\n  return\nstop\n\nsub_0: assembly {\n        /* \"prac40.sol\":1701:4193  contract NestedIfConditions {... */\n      mstore(0x40, 0x80)\n      callvalue\n      dup1\n      iszero\n      tag_1\n      jumpi\n      revert(0x00, 0x00)\n    tag_1:\n      pop\n      jumpi(tag_2, lt(calldatasize, 0x04))\n      shr(0xe0, calldataload(0x00))\n      dup1\n      0x47082db3\n      eq\n      tag_3\n      jumpi\n      dup1\n      0x4a257567\n      eq\n      tag_4\n      jumpi\n      dup1\n      0x76dd110f\n      eq\n      tag_5\n      jumpi\n      dup1\n      0x8da5cb5b\n      eq\n      tag_6\n      jumpi\n      dup1\n      0xceeefc51\n      eq\n      tag_7\n      jumpi\n    tag_2:\n      revert(0x00, 0x00)\n        /* \"prac40.sol\":1930:1970  mapping(address => string) public levels */\n    tag_3:\n      tag_8\n      0x04\n      dup1\n      calldatasize\n      sub\n      dup2\n      add\n      swap1\n      tag_9\n      swap2\n      swap1\n      tag_10\n      jump\t// in\n    tag_9:\n      tag_11\n      jump\t// in\n    tag_8:\n      mload(0x40)\n      tag_12\n      swap2\n      swap1\n      tag_13\n      jump\t// in\n    tag_12:\n      mload(0x40)\n      dup1\n      swap2\n      sub\n      swap1\n      return\n        /* \"prac40.sol\":3597:4190  function ownerBonus(... */\n    tag_4:\n      tag_14\n      0x04\n      dup1\n      calldatasize\n      sub\n      dup2\n      add\n      swap1\n      tag_15\n      swap2\n      swap1\n      tag_10\n      jump\t// in\n    tag_15:\n      tag_16\n      jump\t// in\n    tag_14:\n      stop\n        /* \"prac40.sol\":1843:1884  mapping(address => uint256) public scores */\n    tag_5:\n      tag_17\n      0x04\n      dup1\n      calldatasize\n      sub\n      dup2\n      add\n      swap1\n      tag_18\n      swap2\n      swap1\n      tag_10\n      jump\t// in\n    tag_18:\n      tag_19\n      jump\t// in\n    tag_17:\n      mload(0x40)\n      tag_20\n      swap2\n      swap1\n      tag_21\n      jump\t// in\n    tag_20:\n      mload(0x40)\n      dup1\n      swap2\n      sub\n      swap1\n      return\n        /* \"prac40.sol\":1777:1797  address public owner */\n    tag_6:\n      tag_22\n      tag_23\n      jump\t// in\n    tag_22:\n      mload(0x40)\n      tag_24\n      swap2\n      swap1\n      tag_25\n      jump\t// in\n    tag_24:\n      mload(0x40)\n      dup1\n      swap2\n      sub\n      swap1\n      return\n        /* \"prac40.sol\":2234:3427  function evaluateUser(... */\n    tag_7:\n      tag_26\n      0x04\n      dup1\n      calldatasize\n      sub\n      dup2\n      add\n      swap1\n      tag_27\n      swap2\n      swap1\n      tag_28\n      jump\t// in\n    tag_27:\n      tag_29\n      jump\t// in\n    tag_26:\n      stop\n        /* \"prac40.sol\":1930:1970  mapping(address => string) public levels */\n    tag_11:\n      mstore(0x20, 0x02)\n      dup1\n      0x00\n      mstore\n      keccak256(0x00, 0x40)\n      0x00\n      swap2\n      pop\n      swap1\n      pop\n      dup1\n      sload\n      tag_30\n      swap1\n      tag_31\n      jump\t// in\n    tag_30:\n      dup1\n      0x1f\n      add\n      0x20\n      dup1\n      swap2\n      div\n      mul\n      0x20\n      add\n      mload(0x40)\n      swap1\n      dup2\n      add\n      0x40\n      mstore\n      dup1\n      swap3\n      swap2\n      swap1\n      dup2\n      dup2\n      mstore\n      0x20\n      add\n      dup3\n      dup1\n      sload\n      tag_32\n      swap1\n      tag_31\n      jump\t// in\n    tag_32:\n      dup1\n      iszero\n      tag_33\n      jumpi\n      dup1\n      0x1f\n      lt\n      tag_34\n      jumpi\n      0x0100\n      dup1\n      dup4\n      sload\n      div\n      mul\n      dup4\n      mstore\n      swap2\n      0x20\n      add\n      swap2\n      jump(tag_33)\n    tag_34:\n      dup3\n      add\n      swap2\n      swap1\n      0x00\n      mstore\n      keccak256(0x00, 0x20)\n      swap1\n    tag_35:\n      dup2\n      sload\n      dup2\n      mstore\n      swap1\n      0x01\n      add\n      swap1\n      0x20\n      add\n      dup1\n      dup4\n      gt\n      tag_35\n      jumpi\n      dup3\n      swap1\n      sub\n      0x1f\n      and\n      dup3\n      add\n      swap2\n    tag_33:\n      pop\n      pop\n      pop\n      pop\n      pop\n      dup2\n      jump\t// out\n        /* \"prac40.sol\":3597:4190  function ownerBonus(... */\n    tag_16:\n        /* \"prac40.sol\":3781:3786  owner */\n      0x00\n      0x00\n      swap1\n      sload\n      swap1\n      0x0100\n      exp\n      swap1\n      div\n      0xffffffffffffffffffffffffffffffffffffffff\n      and\n        /* \"prac40.sol\":3767:3786  msg.sender == owner */\n      0xffffffffffffffffffffffffffffffffffffffff\n      and\n        /* \"prac40.sol\":3767:3777  msg.sender */\n      caller\n        /* \"prac40.sol\":3767:3786  msg.sender == owner */\n      0xffffffffffffffffffffffffffffffffffffffff\n      and\n      sub\n        /* \"prac40.sol\":3763:4183  if (msg.sender == owner) {... */\n      tag_37\n      jumpi\n        /* \"prac40.sol\":3925:3926  0 */\n      0x00\n        /* \"prac40.sol\":3909:3915  scores */\n      0x01\n        /* \"prac40.sol\":3909:3922  scores[_user] */\n      0x00\n        /* \"prac40.sol\":3916:3921  _user */\n      dup4\n        /* \"prac40.sol\":3909:3922  scores[_user] */\n      0xffffffffffffffffffffffffffffffffffffffff\n      and\n      0xffffffffffffffffffffffffffffffffffffffff\n      and\n      dup2\n      mstore\n      0x20\n      add\n      swap1\n      dup2\n      mstore\n      0x20\n      add\n      0x00\n      keccak256\n      sload\n        /* \"prac40.sol\":3909:3926  scores[_user] > 0 */\n      gt\n        /* \"prac40.sol\":3905:4172  if (scores[_user] > 0) {... */\n      iszero\n      tag_38\n      jumpi\n        /* \"prac40.sol\":4089:4091  80 */\n      0x50\n        /* \"prac40.sol\":4072:4078  scores */\n      0x01\n        /* \"prac40.sol\":4072:4085  scores[_user] */\n      0x00\n        /* \"prac40.sol\":4079:4084  _user */\n      dup4\n        /* \"prac40.sol\":4072:4085  scores[_user] */\n      0xffffffffffffffffffffffffffffffffffffffff\n      and\n      0xffffffffffffffffffffffffffffffffffffffff\n      and\n      dup2\n      mstore\n      0x20\n      add\n      swap1\n      dup2\n      mstore\n      0x20\n      add\n      0x00\n      keccak256\n      sload\n        /* \"prac40.sol\":4072:4091  scores[_user] >= 80 */\n      lt\n        /* \"prac40.sol\":4068:4157  if (scores[_user] >= 80) {... */\n      tag_39\n      jumpi\n        /* \"prac40.sol\":4135:4137  20 */\n      0x14\n        /* \"prac40.sol\":4118:4124  scores */\n      0x01\n        /* \"prac40.sol\":4118:4131  scores[_user] */\n      0x00\n        /* \"prac40.sol\":4125:4130  _user */\n      dup4\n        /* \"prac40.sol\":4118:4131  scores[_user] */\n      0xffffffffffffffffffffffffffffffffffffffff\n      and\n      0xffffffffffffffffffffffffffffffffffffffff\n      and\n      dup2\n      mstore\n      0x20\n      add\n      swap1\n      dup2\n      mstore\n      0x20\n      add\n      0x00\n      keccak256\n      0x00\n        /* \"prac40.sol\":4118:4137  scores[_user] += 20 */\n      dup3\n      dup3\n      sload\n      tag_40\n      swap2\n      swap1\n      tag_41\n      jump\t// in\n    tag_40:\n      swap3\n      pop\n      pop\n      dup2\n      swap1\n      sstore\n      pop\n        /* \"prac40.sol\":4068:4157  if (scores[_user] >= 80) {... */\n    tag_39:\n        /* \"prac40.sol\":3905:4172  if (scores[_user] > 0) {... */\n    tag_38:\n        /* \"prac40.sol\":3763:4183  if (msg.sender == owner) {... */\n    tag_37:\n        /* \"prac40.sol\":3597:4190  function ownerBonus(... */\n      pop\n      jump\t// out\n        /* \"prac40.sol\":1843:1884  mapping(address => uint256) public scores */\n    tag_19:\n      mstore(0x20, 0x01)\n      dup1\n      0x00\n      mstore\n      keccak256(0x00, 0x40)\n      0x00\n      swap2\n      pop\n      swap1\n      pop\n      sload\n      dup2\n      jump\t// out\n        /* \"prac40.sol\":1777:1797  address public owner */\n    tag_23:\n      0x00\n      0x00\n      swap1\n      sload\n      swap1\n      0x0100\n      exp\n      swap1\n      div\n      0xffffffffffffffffffffffffffffffffffffffff\n      and\n      dup2\n      jump\t// out\n        /* \"prac40.sol\":2234:3427  function evaluateUser(... */\n    tag_29:\n        /* \"prac40.sol\":2448:2450  50 */\n      0x32\n        /* \"prac40.sol\":2438:2444  _score */\n      dup3\n        /* \"prac40.sol\":2438:2450  _score >= 50 */\n      lt\n        /* \"prac40.sol\":2434:3420  if (_score >= 50) {... */\n      tag_43\n      jumpi\n        /* \"prac40.sol\":2589:2593  true */\n      0x01\n        /* \"prac40.sol\":2577:2593  _premium == true */\n      iszero\n      iszero\n        /* \"prac40.sol\":2577:2585  _premium */\n      dup2\n        /* \"prac40.sol\":2577:2593  _premium == true */\n      iszero\n      iszero\n      sub\n        /* \"prac40.sol\":2573:3154  if (_premium == true) {... */\n      tag_44\n      jumpi\n        /* \"prac40.sol\":2746:2748  90 */\n      0x5a\n        /* \"prac40.sol\":2736:2742  _score */\n      dup3\n        /* \"prac40.sol\":2736:2748  _score >= 90 */\n      lt\n        /* \"prac40.sol\":2732:2964  if (_score >= 90) {... */\n      tag_45\n      jumpi\n        /* \"prac40.sol\":2775:2836  levels[msg.sender] =... */\n      mload(0x40)\n      dup1\n      0x40\n      add\n      0x40\n      mstore\n      dup1\n      0x0d\n      dup2\n      mstore\n      0x20\n      add\n      0x456c697465205072656d69756d00000000000000000000000000000000000000\n      dup2\n      mstore\n      pop\n        /* \"prac40.sol\":2775:2781  levels */\n      0x02\n        /* \"prac40.sol\":2775:2793  levels[msg.sender] */\n      0x00\n        /* \"prac40.sol\":2782:2792  msg.sender */\n      caller\n        /* \"prac40.sol\":2775:2793  levels[msg.sender] */\n      0xffffffffffffffffffffffffffffffffffffffff\n      and\n      0xffffffffffffffffffffffffffffffffffffffff\n      and\n      dup2\n      mstore\n      0x20\n      add\n      swap1\n      dup2\n      mstore\n      0x20\n      add\n      0x00\n      keccak256\n        /* \"prac40.sol\":2775:2836  levels[msg.sender] =... */\n      swap1\n      dup2\n      tag_46\n      swap2\n      swap1\n      tag_47\n      jump\t// in\n    tag_46:\n      pop\n        /* \"prac40.sol\":2732:2964  if (_score >= 90) {... */\n      jump(tag_48)\n    tag_45:\n        /* \"prac40.sol\":2889:2944  levels[msg.sender] =... */\n      mload(0x40)\n      dup1\n      0x40\n      add\n      0x40\n      mstore\n      dup1\n      0x07\n      dup2\n      mstore\n      0x20\n      add\n      0x5072656d69756d00000000000000000000000000000000000000000000000000\n      dup2\n      mstore\n      pop\n        /* \"prac40.sol\":2889:2895  levels */\n      0x02\n        /* \"prac40.sol\":2889:2907  levels[msg.sender] */\n      0x00\n        /* \"prac40.sol\":2896:2906  msg.sender */\n      caller\n        /* \"prac40.sol\":2889:2907  levels[msg.sender] */\n      0xffffffffffffffffffffffffffffffffffffffff\n      and\n      0xffffffffffffffffffffffffffffffffffffffff\n      and\n      dup2\n      mstore\n      0x20\n      add\n      swap1\n      dup2\n      mstore\n      0x20\n      add\n      0x00\n      keccak256\n        /* \"prac40.sol\":2889:2944  levels[msg.sender] =... */\n      swap1\n      dup2\n      tag_49\n      swap2\n      swap1\n      tag_47\n      jump\t// in\n    tag_49:\n      pop\n        /* \"prac40.sol\":2732:2964  if (_score >= 90) {... */\n    tag_48:\n        /* \"prac40.sol\":2573:3154  if (_premium == true) {... */\n      jump(tag_50)\n    tag_44:\n        /* \"prac40.sol\":3086:3138  levels[msg.sender] =... */\n      mload(0x40)\n      dup1\n      0x40\n      add\n      0x40\n      mstore\n      dup1\n      0x08\n      dup2\n      mstore\n      0x20\n      add\n      0x5374616e64617264000000000000000000000000000000000000000000000000\n      dup2\n      mstore\n      pop\n        /* \"prac40.sol\":3086:3092  levels */\n      0x02\n        /* \"prac40.sol\":3086:3104  levels[msg.sender] */\n      0x00\n        /* \"prac40.sol\":3093:3103  msg.sender */\n      caller\n        /* \"prac40.sol\":3086:3104  levels[msg.sender] */\n      0xffffffffffffffffffffffffffffffffffffffff\n      and\n      0xffffffffffffffffffffffffffffffffffffffff\n      and\n      dup2\n      mstore\n      0x20\n      add\n      swap1\n      dup2\n      mstore\n      0x20\n      add\n      0x00\n      keccak256\n        /* \"prac40.sol\":3086:3138  levels[msg.sender] =... */\n      swap1\n      dup2\n      tag_51\n      swap2\n      swap1\n      tag_47\n      jump\t// in\n    tag_51:\n      pop\n        /* \"prac40.sol\":2573:3154  if (_premium == true) {... */\n    tag_50:\n        /* \"prac40.sol\":3251:3257  _score */\n      dup2\n        /* \"prac40.sol\":3230:3236  scores */\n      0x01\n        /* \"prac40.sol\":3230:3248  scores[msg.sender] */\n      0x00\n        /* \"prac40.sol\":3237:3247  msg.sender */\n      caller\n        /* \"prac40.sol\":3230:3248  scores[msg.sender] */\n      0xffffffffffffffffffffffffffffffffffffffff\n      and\n      0xffffffffffffffffffffffffffffffffffffffff\n      and\n      dup2\n      mstore\n      0x20\n      add\n      swap1\n      dup2\n      mstore\n      0x20\n      add\n      0x00\n      keccak256\n        /* \"prac40.sol\":3230:3257  scores[msg.sender] = _score */\n      dup2\n      swap1\n      sstore\n      pop\n        /* \"prac40.sol\":2434:3420  if (_score >= 50) {... */\n      jump(tag_52)\n    tag_43:\n        /* \"prac40.sol\":3360:3408  levels[msg.sender] =... */\n      mload(0x40)\n      dup1\n      0x40\n      add\n      0x40\n      mstore\n      dup1\n      0x08\n      dup2\n      mstore\n      0x20\n      add\n      0x52656a6563746564000000000000000000000000000000000000000000000000\n      dup2\n      mstore\n      pop\n        /* \"prac40.sol\":3360:3366  levels */\n      0x02\n        /* \"prac40.sol\":3360:3378  levels[msg.sender] */\n      0x00\n        /* \"prac40.sol\":3367:3377  msg.sender */\n      caller\n        /* \"prac40.sol\":3360:3378  levels[msg.sender] */\n      0xffffffffffffffffffffffffffffffffffffffff\n      and\n      0xffffffffffffffffffffffffffffffffffffffff\n      and\n      dup2\n      mstore\n      0x20\n      add\n      swap1\n      dup2\n      mstore\n      0x20\n      add\n      0x00\n      keccak256\n        /* \"prac40.sol\":3360:3408  levels[msg.sender] =... */\n      swap1\n      dup2\n      tag_53\n      swap2\n      swap1\n      tag_47\n      jump\t// in\n    tag_53:\n      pop\n        /* \"prac40.sol\":2434:3420  if (_score >= 50) {... */\n    tag_52:\n        /* \"prac40.sol\":2234:3427  function evaluateUser(... */\n      pop\n      pop\n      jump\t// out\n        /* \"#utility.yul\":88:205   */\n    tag_55:\n        /* \"#utility.yul\":197:198   */\n      0x00\n        /* \"#utility.yul\":194:195   */\n      0x00\n        /* \"#utility.yul\":187:199   */\n      revert\n        /* \"#utility.yul\":334:460   */\n    tag_57:\n        /* \"#utility.yul\":371:378   */\n      0x00\n        /* \"#utility.yul\":411:453   */\n      0xffffffffffffffffffffffffffffffffffffffff\n        /* \"#utility.yul\":404:409   */\n      dup3\n        /* \"#utility.yul\":400:454   */\n      and\n        /* \"#utility.yul\":389:454   */\n      swap1\n      pop\n        /* \"#utility.yul\":334:460   */\n      swap2\n      swap1\n      pop\n      jump\t// out\n        /* \"#utility.yul\":466:562   */\n    tag_58:\n        /* \"#utility.yul\":503:510   */\n      0x00\n        /* \"#utility.yul\":532:556   */\n      tag_98\n        /* \"#utility.yul\":550:555   */\n      dup3\n        /* \"#utility.yul\":532:556   */\n      tag_57\n      jump\t// in\n    tag_98:\n        /* \"#utility.yul\":521:556   */\n      swap1\n      pop\n        /* \"#utility.yul\":466:562   */\n      swap2\n      swap1\n      pop\n      jump\t// out\n        /* \"#utility.yul\":568:690   */\n    tag_59:\n        /* \"#utility.yul\":641:665   */\n      tag_100\n        /* \"#utility.yul\":659:664   */\n      dup2\n        /* \"#utility.yul\":641:665   */\n      tag_58\n      jump\t// in\n    tag_100:\n        /* \"#utility.yul\":634:639   */\n      dup2\n        /* \"#utility.yul\":631:666   */\n      eq\n        /* \"#utility.yul\":621:684   */\n      tag_101\n      jumpi\n        /* \"#utility.yul\":680:681   */\n      0x00\n        /* \"#utility.yul\":677:678   */\n      0x00\n        /* \"#utility.yul\":670:682   */\n      revert\n        /* \"#utility.yul\":621:684   */\n    tag_101:\n        /* \"#utility.yul\":568:690   */\n      pop\n      jump\t// out\n        /* \"#utility.yul\":696:835   */\n    tag_60:\n        /* \"#utility.yul\":742:747   */\n      0x00\n        /* \"#utility.yul\":780:786   */\n      dup2\n        /* \"#utility.yul\":767:787   */\n      calldataload\n        /* \"#utility.yul\":758:787   */\n      swap1\n      pop\n        /* \"#utility.yul\":796:829   */\n      tag_103\n        /* \"#utility.yul\":823:828   */\n      dup2\n        /* \"#utility.yul\":796:829   */\n      tag_59\n      jump\t// in\n    tag_103:\n        /* \"#utility.yul\":696:835   */\n      swap3\n      swap2\n      pop\n      pop\n      jump\t// out\n        /* \"#utility.yul\":841:1170   */\n    tag_10:\n        /* \"#utility.yul\":900:906   */\n      0x00\n        /* \"#utility.yul\":949:951   */\n      0x20\n        /* \"#utility.yul\":937:946   */\n      dup3\n        /* \"#utility.yul\":928:935   */\n      dup5\n        /* \"#utility.yul\":924:947   */\n      sub\n        /* \"#utility.yul\":920:952   */\n      slt\n        /* \"#utility.yul\":917:1036   */\n      iszero\n      tag_105\n      jumpi\n        /* \"#utility.yul\":955:1034   */\n      tag_106\n      tag_55\n      jump\t// in\n    tag_106:\n        /* \"#utility.yul\":917:1036   */\n    tag_105:\n        /* \"#utility.yul\":1075:1076   */\n      0x00\n        /* \"#utility.yul\":1100:1153   */\n      tag_107\n        /* \"#utility.yul\":1145:1152   */\n      dup5\n        /* \"#utility.yul\":1136:1142   */\n      dup3\n        /* \"#utility.yul\":1125:1134   */\n      dup6\n        /* \"#utility.yul\":1121:1143   */\n      add\n        /* \"#utility.yul\":1100:1153   */\n      tag_60\n      jump\t// in\n    tag_107:\n        /* \"#utility.yul\":1090:1153   */\n      swap2\n      pop\n        /* \"#utility.yul\":1046:1163   */\n      pop\n        /* \"#utility.yul\":841:1170   */\n      swap3\n      swap2\n      pop\n      pop\n      jump\t// out\n        /* \"#utility.yul\":1176:1275   */\n    tag_61:\n        /* \"#utility.yul\":1228:1234   */\n      0x00\n        /* \"#utility.yul\":1262:1267   */\n      dup2\n        /* \"#utility.yul\":1256:1268   */\n      mload\n        /* \"#utility.yul\":1246:1268   */\n      swap1\n      pop\n        /* \"#utility.yul\":1176:1275   */\n      swap2\n      swap1\n      pop\n      jump\t// out\n        /* \"#utility.yul\":1281:1450   */\n    tag_62:\n        /* \"#utility.yul\":1365:1376   */\n      0x00\n        /* \"#utility.yul\":1399:1405   */\n      dup3\n        /* \"#utility.yul\":1394:1397   */\n      dup3\n        /* \"#utility.yul\":1387:1406   */\n      mstore\n        /* \"#utility.yul\":1439:1443   */\n      0x20\n        /* \"#utility.yul\":1434:1437   */\n      dup3\n        /* \"#utility.yul\":1430:1444   */\n      add\n        /* \"#utility.yul\":1415:1444   */\n      swap1\n      pop\n        /* \"#utility.yul\":1281:1450   */\n      swap3\n      swap2\n      pop\n      pop\n      jump\t// out\n        /* \"#utility.yul\":1456:1595   */\n    tag_63:\n        /* \"#utility.yul\":1545:1551   */\n      dup3\n        /* \"#utility.yul\":1540:1543   */\n      dup2\n        /* \"#utility.yul\":1535:1538   */\n      dup4\n        /* \"#utility.yul\":1529:1552   */\n      mcopy\n        /* \"#utility.yul\":1586:1587   */\n      0x00\n        /* \"#utility.yul\":1577:1583   */\n      dup4\n        /* \"#utility.yul\":1572:1575   */\n      dup4\n        /* \"#utility.yul\":1568:1584   */\n      add\n        /* \"#utility.yul\":1561:1588   */\n      mstore\n        /* \"#utility.yul\":1456:1595   */\n      pop\n      pop\n      pop\n      jump\t// out\n        /* \"#utility.yul\":1601:1703   */\n    tag_64:\n        /* \"#utility.yul\":1642:1648   */\n      0x00\n        /* \"#utility.yul\":1693:1695   */\n      0x1f\n        /* \"#utility.yul\":1689:1696   */\n      not\n        /* \"#utility.yul\":1684:1686   */\n      0x1f\n        /* \"#utility.yul\":1677:1682   */\n      dup4\n        /* \"#utility.yul\":1673:1687   */\n      add\n        /* \"#utility.yul\":1669:1697   */\n      and\n        /* \"#utility.yul\":1659:1697   */\n      swap1\n      pop\n        /* \"#utility.yul\":1601:1703   */\n      swap2\n      swap1\n      pop\n      jump\t// out\n        /* \"#utility.yul\":1709:2086   */\n    tag_65:\n        /* \"#utility.yul\":1797:1800   */\n      0x00\n        /* \"#utility.yul\":1825:1864   */\n      tag_113\n        /* \"#utility.yul\":1858:1863   */\n      dup3\n        /* \"#utility.yul\":1825:1864   */\n      tag_61\n      jump\t// in\n    tag_113:\n        /* \"#utility.yul\":1880:1951   */\n      tag_114\n        /* \"#utility.yul\":1944:1950   */\n      dup2\n        /* \"#utility.yul\":1939:1942   */\n      dup6\n        /* \"#utility.yul\":1880:1951   */\n      tag_62\n      jump\t// in\n    tag_114:\n        /* \"#utility.yul\":1873:1951   */\n      swap4\n      pop\n        /* \"#utility.yul\":1960:2025   */\n      tag_115\n        /* \"#utility.yul\":2018:2024   */\n      dup2\n        /* \"#utility.yul\":2013:2016   */\n      dup6\n        /* \"#utility.yul\":2006:2010   */\n      0x20\n        /* \"#utility.yul\":1999:2004   */\n      dup7\n        /* \"#utility.yul\":1995:2011   */\n      add\n        /* \"#utility.yul\":1960:2025   */\n      tag_63\n      jump\t// in\n    tag_115:\n        /* \"#utility.yul\":2050:2079   */\n      tag_116\n        /* \"#utility.yul\":2072:2078   */\n      dup2\n        /* \"#utility.yul\":2050:2079   */\n      tag_64\n      jump\t// in\n    tag_116:\n        /* \"#utility.yul\":2045:2048   */\n      dup5\n        /* \"#utility.yul\":2041:2080   */\n      add\n        /* \"#utility.yul\":2034:2080   */\n      swap2\n      pop\n        /* \"#utility.yul\":1801:2086   */\n      pop\n        /* \"#utility.yul\":1709:2086   */\n      swap3\n      swap2\n      pop\n      pop\n      jump\t// out\n        /* \"#utility.yul\":2092:2405   */\n    tag_13:\n        /* \"#utility.yul\":2205:2209   */\n      0x00\n        /* \"#utility.yul\":2243:2245   */\n      0x20\n        /* \"#utility.yul\":2232:2241   */\n      dup3\n        /* \"#utility.yul\":2228:2246   */\n      add\n        /* \"#utility.yul\":2220:2246   */\n      swap1\n      pop\n        /* \"#utility.yul\":2292:2301   */\n      dup2\n        /* \"#utility.yul\":2286:2290   */\n      dup2\n        /* \"#utility.yul\":2282:2302   */\n      sub\n        /* \"#utility.yul\":2278:2279   */\n      0x00\n        /* \"#utility.yul\":2267:2276   */\n      dup4\n        /* \"#utility.yul\":2263:2280   */\n      add\n        /* \"#utility.yul\":2256:2303   */\n      mstore\n        /* \"#utility.yul\":2320:2398   */\n      tag_118\n        /* \"#utility.yul\":2393:2397   */\n      dup2\n        /* \"#utility.yul\":2384:2390   */\n      dup5\n        /* \"#utility.yul\":2320:2398   */\n      tag_65\n      jump\t// in\n    tag_118:\n        /* \"#utility.yul\":2312:2398   */\n      swap1\n      pop\n        /* \"#utility.yul\":2092:2405   */\n      swap3\n      swap2\n      pop\n      pop\n      jump\t// out\n        /* \"#utility.yul\":2411:2488   */\n    tag_66:\n        /* \"#utility.yul\":2448:2455   */\n      0x00\n        /* \"#utility.yul\":2477:2482   */\n      dup2\n        /* \"#utility.yul\":2466:2482   */\n      swap1\n      pop\n        /* \"#utility.yul\":2411:2488   */\n      swap2\n      swap1\n      pop\n      jump\t// out\n        /* \"#utility.yul\":2494:2612   */\n    tag_67:\n        /* \"#utility.yul\":2581:2605   */\n      tag_121\n        /* \"#utility.yul\":2599:2604   */\n      dup2\n        /* \"#utility.yul\":2581:2605   */\n      tag_66\n      jump\t// in\n    tag_121:\n        /* \"#utility.yul\":2576:2579   */\n      dup3\n        /* \"#utility.yul\":2569:2606   */\n      mstore\n        /* \"#utility.yul\":2494:2612   */\n      pop\n      pop\n      jump\t// out\n        /* \"#utility.yul\":2618:2840   */\n    tag_21:\n        /* \"#utility.yul\":2711:2715   */\n      0x00\n        /* \"#utility.yul\":2749:2751   */\n      0x20\n        /* \"#utility.yul\":2738:2747   */\n      dup3\n        /* \"#utility.yul\":2734:2752   */\n      add\n        /* \"#utility.yul\":2726:2752   */\n      swap1\n      pop\n        /* \"#utility.yul\":2762:2833   */\n      tag_123\n        /* \"#utility.yul\":2830:2831   */\n      0x00\n        /* \"#utility.yul\":2819:2828   */\n      dup4\n        /* \"#utility.yul\":2815:2832   */\n      add\n        /* \"#utility.yul\":2806:2812   */\n      dup5\n        /* \"#utility.yul\":2762:2833   */\n      tag_67\n      jump\t// in\n    tag_123:\n        /* \"#utility.yul\":2618:2840   */\n      swap3\n      swap2\n      pop\n      pop\n      jump\t// out\n        /* \"#utility.yul\":2846:2964   */\n    tag_68:\n        /* \"#utility.yul\":2933:2957   */\n      tag_125\n        /* \"#utility.yul\":2951:2956   */\n      dup2\n        /* \"#utility.yul\":2933:2957   */\n      tag_58\n      jump\t// in\n    tag_125:\n        /* \"#utility.yul\":2928:2931   */\n      dup3\n        /* \"#utility.yul\":2921:2958   */\n      mstore\n        /* \"#utility.yul\":2846:2964   */\n      pop\n      pop\n      jump\t// out\n        /* \"#utility.yul\":2970:3192   */\n    tag_25:\n        /* \"#utility.yul\":3063:3067   */\n      0x00\n        /* \"#utility.yul\":3101:3103   */\n      0x20\n        /* \"#utility.yul\":3090:3099   */\n      dup3\n        /* \"#utility.yul\":3086:3104   */\n      add\n        /* \"#utility.yul\":3078:3104   */\n      swap1\n      pop\n        /* \"#utility.yul\":3114:3185   */\n      tag_127\n        /* \"#utility.yul\":3182:3183   */\n      0x00\n        /* \"#utility.yul\":3171:3180   */\n      dup4\n        /* \"#utility.yul\":3167:3184   */\n      add\n        /* \"#utility.yul\":3158:3164   */\n      dup5\n        /* \"#utility.yul\":3114:3185   */\n      tag_68\n      jump\t// in\n    tag_127:\n        /* \"#utility.yul\":2970:3192   */\n      swap3\n      swap2\n      pop\n      pop\n      jump\t// out\n        /* \"#utility.yul\":3198:3320   */\n    tag_69:\n        /* \"#utility.yul\":3271:3295   */\n      tag_129\n        /* \"#utility.yul\":3289:3294   */\n      dup2\n        /* \"#utility.yul\":3271:3295   */\n      tag_66\n      jump\t// in\n    tag_129:\n        /* \"#utility.yul\":3264:3269   */\n      dup2\n        /* \"#utility.yul\":3261:3296   */\n      eq\n        /* \"#utility.yul\":3251:3314   */\n      tag_130\n      jumpi\n        /* \"#utility.yul\":3310:3311   */\n      0x00\n        /* \"#utility.yul\":3307:3308   */\n      0x00\n        /* \"#utility.yul\":3300:3312   */\n      revert\n        /* \"#utility.yul\":3251:3314   */\n    tag_130:\n        /* \"#utility.yul\":3198:3320   */\n      pop\n      jump\t// out\n        /* \"#utility.yul\":3326:3465   */\n    tag_70:\n        /* \"#utility.yul\":3372:3377   */\n      0x00\n        /* \"#utility.yul\":3410:3416   */\n      dup2\n        /* \"#utility.yul\":3397:3417   */\n      calldataload\n        /* \"#utility.yul\":3388:3417   */\n      swap1\n      pop\n        /* \"#utility.yul\":3426:3459   */\n      tag_132\n        /* \"#utility.yul\":3453:3458   */\n      dup2\n        /* \"#utility.yul\":3426:3459   */\n      tag_69\n      jump\t// in\n    tag_132:\n        /* \"#utility.yul\":3326:3465   */\n      swap3\n      swap2\n      pop\n      pop\n      jump\t// out\n        /* \"#utility.yul\":3471:3561   */\n    tag_71:\n        /* \"#utility.yul\":3505:3512   */\n      0x00\n        /* \"#utility.yul\":3548:3553   */\n      dup2\n        /* \"#utility.yul\":3541:3554   */\n      iszero\n        /* \"#utility.yul\":3534:3555   */\n      iszero\n        /* \"#utility.yul\":3523:3555   */\n      swap1\n      pop\n        /* \"#utility.yul\":3471:3561   */\n      swap2\n      swap1\n      pop\n      jump\t// out\n        /* \"#utility.yul\":3567:3683   */\n    tag_72:\n        /* \"#utility.yul\":3637:3658   */\n      tag_135\n        /* \"#utility.yul\":3652:3657   */\n      dup2\n        /* \"#utility.yul\":3637:3658   */\n      tag_71\n      jump\t// in\n    tag_135:\n        /* \"#utility.yul\":3630:3635   */\n      dup2\n        /* \"#utility.yul\":3627:3659   */\n      eq\n        /* \"#utility.yul\":3617:3677   */\n      tag_136\n      jumpi\n        /* \"#utility.yul\":3673:3674   */\n      0x00\n        /* \"#utility.yul\":3670:3671   */\n      0x00\n        /* \"#utility.yul\":3663:3675   */\n      revert\n        /* \"#utility.yul\":3617:3677   */\n    tag_136:\n        /* \"#utility.yul\":3567:3683   */\n      pop\n      jump\t// out\n        /* \"#utility.yul\":3689:3822   */\n    tag_73:\n        /* \"#utility.yul\":3732:3737   */\n      0x00\n        /* \"#utility.yul\":3770:3776   */\n      dup2\n        /* \"#utility.yul\":3757:3777   */\n      calldataload\n        /* \"#utility.yul\":3748:3777   */\n      swap1\n      pop\n        /* \"#utility.yul\":3786:3816   */\n      tag_138\n        /* \"#utility.yul\":3810:3815   */\n      dup2\n        /* \"#utility.yul\":3786:3816   */\n      tag_72\n      jump\t// in\n    tag_138:\n        /* \"#utility.yul\":3689:3822   */\n      swap3\n      swap2\n      pop\n      pop\n      jump\t// out\n        /* \"#utility.yul\":3828:4296   */\n    tag_28:\n        /* \"#utility.yul\":3893:3899   */\n      0x00\n        /* \"#utility.yul\":3901:3907   */\n      0x00\n        /* \"#utility.yul\":3950:3952   */\n      0x40\n        /* \"#utility.yul\":3938:3947   */\n      dup4\n        /* \"#utility.yul\":3929:3936   */\n      dup6\n        /* \"#utility.yul\":3925:3948   */\n      sub\n        /* \"#utility.yul\":3921:3953   */\n      slt\n        /* \"#utility.yul\":3918:4037   */\n      iszero\n      tag_140\n      jumpi\n        /* \"#utility.yul\":3956:4035   */\n      tag_141\n      tag_55\n      jump\t// in\n    tag_141:\n        /* \"#utility.yul\":3918:4037   */\n    tag_140:\n        /* \"#utility.yul\":4076:4077   */\n      0x00\n        /* \"#utility.yul\":4101:4154   */\n      tag_142\n        /* \"#utility.yul\":4146:4153   */\n      dup6\n        /* \"#utility.yul\":4137:4143   */\n      dup3\n        /* \"#utility.yul\":4126:4135   */\n      dup7\n        /* \"#utility.yul\":4122:4144   */\n      add\n        /* \"#utility.yul\":4101:4154   */\n      tag_70\n      jump\t// in\n    tag_142:\n        /* \"#utility.yul\":4091:4154   */\n      swap3\n      pop\n        /* \"#utility.yul\":4047:4164   */\n      pop\n        /* \"#utility.yul\":4203:4205   */\n      0x20\n        /* \"#utility.yul\":4229:4279   */\n      tag_143\n        /* \"#utility.yul\":4271:4278   */\n      dup6\n        /* \"#utility.yul\":4262:4268   */\n      dup3\n        /* \"#utility.yul\":4251:4260   */\n      dup7\n        /* \"#utility.yul\":4247:4269   */\n      add\n        /* \"#utility.yul\":4229:4279   */\n      tag_73\n      jump\t// in\n    tag_143:\n        /* \"#utility.yul\":4219:4279   */\n      swap2\n      pop\n        /* \"#utility.yul\":4174:4289   */\n      pop\n        /* \"#utility.yul\":3828:4296   */\n      swap3\n      pop\n      swap3\n      swap1\n      pop\n      jump\t// out\n        /* \"#utility.yul\":4302:4482   */\n    tag_74:\n        /* \"#utility.yul\":4350:4427   */\n      0x4e487b7100000000000000000000000000000000000000000000000000000000\n        /* \"#utility.yul\":4347:4348   */\n      0x00\n        /* \"#utility.yul\":4340:4428   */\n      mstore\n        /* \"#utility.yul\":4447:4451   */\n      0x22\n        /* \"#utility.yul\":4444:4445   */\n      0x04\n        /* \"#utility.yul\":4437:4452   */\n      mstore\n        /* \"#utility.yul\":4471:4475   */\n      0x24\n        /* \"#utility.yul\":4468:4469   */\n      0x00\n        /* \"#utility.yul\":4461:4476   */\n      revert\n        /* \"#utility.yul\":4488:4808   */\n    tag_31:\n        /* \"#utility.yul\":4532:4538   */\n      0x00\n        /* \"#utility.yul\":4569:4570   */\n      0x02\n        /* \"#utility.yul\":4563:4567   */\n      dup3\n        /* \"#utility.yul\":4559:4571   */\n      div\n        /* \"#utility.yul\":4549:4571   */\n      swap1\n      pop\n        /* \"#utility.yul\":4616:4617   */\n      0x01\n        /* \"#utility.yul\":4610:4614   */\n      dup3\n        /* \"#utility.yul\":4606:4618   */\n      and\n        /* \"#utility.yul\":4637:4655   */\n      dup1\n        /* \"#utility.yul\":4627:4708   */\n      tag_146\n      jumpi\n        /* \"#utility.yul\":4693:4697   */\n      0x7f\n        /* \"#utility.yul\":4685:4691   */\n      dup3\n        /* \"#utility.yul\":4681:4698   */\n      and\n        /* \"#utility.yul\":4671:4698   */\n      swap2\n      pop\n        /* \"#utility.yul\":4627:4708   */\n    tag_146:\n        /* \"#utility.yul\":4755:4757   */\n      0x20\n        /* \"#utility.yul\":4747:4753   */\n      dup3\n        /* \"#utility.yul\":4744:4758   */\n      lt\n        /* \"#utility.yul\":4724:4742   */\n      dup2\n        /* \"#utility.yul\":4721:4759   */\n      sub\n        /* \"#utility.yul\":4718:4802   */\n      tag_147\n      jumpi\n        /* \"#utility.yul\":4774:4792   */\n      tag_148\n      tag_74\n      jump\t// in\n    tag_148:\n        /* \"#utility.yul\":4718:4802   */\n    tag_147:\n        /* \"#utility.yul\":4539:4808   */\n      pop\n        /* \"#utility.yul\":4488:4808   */\n      swap2\n      swap1\n      pop\n      jump\t// out\n        /* \"#utility.yul\":4814:4994   */\n    tag_75:\n        /* \"#utility.yul\":4862:4939   */\n      0x4e487b7100000000000000000000000000000000000000000000000000000000\n        /* \"#utility.yul\":4859:4860   */\n      0x00\n        /* \"#utility.yul\":4852:4940   */\n      mstore\n        /* \"#utility.yul\":4959:4963   */\n      0x11\n        /* \"#utility.yul\":4956:4957   */\n      0x04\n        /* \"#utility.yul\":4949:4964   */\n      mstore\n        /* \"#utility.yul\":4983:4987   */\n      0x24\n        /* \"#utility.yul\":4980:4981   */\n      0x00\n        /* \"#utility.yul\":4973:4988   */\n      revert\n        /* \"#utility.yul\":5000:5191   */\n    tag_41:\n        /* \"#utility.yul\":5040:5043   */\n      0x00\n        /* \"#utility.yul\":5059:5079   */\n      tag_151\n        /* \"#utility.yul\":5077:5078   */\n      dup3\n        /* \"#utility.yul\":5059:5079   */\n      tag_66\n      jump\t// in\n    tag_151:\n        /* \"#utility.yul\":5054:5079   */\n      swap2\n      pop\n        /* \"#utility.yul\":5093:5113   */\n      tag_152\n        /* \"#utility.yul\":5111:5112   */\n      dup4\n        /* \"#utility.yul\":5093:5113   */\n      tag_66\n      jump\t// in\n    tag_152:\n        /* \"#utility.yul\":5088:5113   */\n      swap3\n      pop\n        /* \"#utility.yul\":5136:5137   */\n      dup3\n        /* \"#utility.yul\":5133:5134   */\n      dup3\n        /* \"#utility.yul\":5129:5138   */\n      add\n        /* \"#utility.yul\":5122:5138   */\n      swap1\n      pop\n        /* \"#utility.yul\":5157:5160   */\n      dup1\n        /* \"#utility.yul\":5154:5155   */\n      dup3\n        /* \"#utility.yul\":5151:5161   */\n      gt\n        /* \"#utility.yul\":5148:5184   */\n      iszero\n      tag_153\n      jumpi\n        /* \"#utility.yul\":5164:5182   */\n      tag_154\n      tag_75\n      jump\t// in\n    tag_154:\n        /* \"#utility.yul\":5148:5184   */\n    tag_153:\n        /* \"#utility.yul\":5000:5191   */\n      swap3\n      swap2\n      pop\n      pop\n      jump\t// out\n        /* \"#utility.yul\":5197:5377   */\n    tag_76:\n        /* \"#utility.yul\":5245:5322   */\n      0x4e487b7100000000000000000000000000000000000000000000000000000000\n        /* \"#utility.yul\":5242:5243   */\n      0x00\n        /* \"#utility.yul\":5235:5323   */\n      mstore\n        /* \"#utility.yul\":5342:5346   */\n      0x41\n        /* \"#utility.yul\":5339:5340   */\n      0x04\n        /* \"#utility.yul\":5332:5347   */\n      mstore\n        /* \"#utility.yul\":5366:5370   */\n      0x24\n        /* \"#utility.yul\":5363:5364   */\n      0x00\n        /* \"#utility.yul\":5356:5371   */\n      revert\n        /* \"#utility.yul\":5383:5524   */\n    tag_77:\n        /* \"#utility.yul\":5432:5436   */\n      0x00\n        /* \"#utility.yul\":5455:5458   */\n      dup2\n        /* \"#utility.yul\":5447:5458   */\n      swap1\n      pop\n        /* \"#utility.yul\":5478:5481   */\n      dup2\n        /* \"#utility.yul\":5475:5476   */\n      0x00\n        /* \"#utility.yul\":5468:5482   */\n      mstore\n        /* \"#utility.yul\":5512:5516   */\n      0x20\n        /* \"#utility.yul\":5509:5510   */\n      0x00\n        /* \"#utility.yul\":5499:5517   */\n      keccak256\n        /* \"#utility.yul\":5491:5517   */\n      swap1\n      pop\n        /* \"#utility.yul\":5383:5524   */\n      swap2\n      swap1\n      pop\n      jump\t// out\n        /* \"#utility.yul\":5530:5623   */\n    tag_78:\n        /* \"#utility.yul\":5567:5573   */\n      0x00\n        /* \"#utility.yul\":5614:5616   */\n      0x20\n        /* \"#utility.yul\":5609:5611   */\n      0x1f\n        /* \"#utility.yul\":5602:5607   */\n      dup4\n        /* \"#utility.yul\":5598:5612   */\n      add\n        /* \"#utility.yul\":5594:5617   */\n      div\n        /* \"#utility.yul\":5584:5617   */\n      swap1\n      pop\n        /* \"#utility.yul\":5530:5623   */\n      swap2\n      swap1\n      pop\n      jump\t// out\n        /* \"#utility.yul\":5629:5736   */\n    tag_79:\n        /* \"#utility.yul\":5673:5681   */\n      0x00\n        /* \"#utility.yul\":5723:5728   */\n      dup3\n        /* \"#utility.yul\":5717:5721   */\n      dup3\n        /* \"#utility.yul\":5713:5729   */\n      shl\n        /* \"#utility.yul\":5692:5729   */\n      swap1\n      pop\n        /* \"#utility.yul\":5629:5736   */\n      swap3\n      swap2\n      pop\n      pop\n      jump\t// out\n        /* \"#utility.yul\":5742:6135   */\n    tag_80:\n        /* \"#utility.yul\":5811:5817   */\n      0x00\n        /* \"#utility.yul\":5861:5862   */\n      0x08\n        /* \"#utility.yul\":5849:5859   */\n      dup4\n        /* \"#utility.yul\":5845:5863   */\n      mul\n        /* \"#utility.yul\":5884:5981   */\n      tag_160\n        /* \"#utility.yul\":5914:5980   */\n      0xffffffffffffffffffffffffffffffffffffffffffffffffffffffffffffffff\n        /* \"#utility.yul\":5903:5912   */\n      dup3\n        /* \"#utility.yul\":5884:5981   */\n      tag_79\n      jump\t// in\n    tag_160:\n        /* \"#utility.yul\":6002:6041   */\n      tag_161\n        /* \"#utility.yul\":6032:6040   */\n      dup7\n        /* \"#utility.yul\":6021:6030   */\n      dup4\n        /* \"#utility.yul\":6002:6041   */\n      tag_79\n      jump\t// in\n    tag_161:\n        /* \"#utility.yul\":5990:6041   */\n      swap6\n      pop\n        /* \"#utility.yul\":6074:6078   */\n      dup1\n        /* \"#utility.yul\":6070:6079   */\n      not\n        /* \"#utility.yul\":6063:6068   */\n      dup5\n        /* \"#utility.yul\":6059:6080   */\n      and\n        /* \"#utility.yul\":6050:6080   */\n      swap4\n      pop\n        /* \"#utility.yul\":6123:6127   */\n      dup1\n        /* \"#utility.yul\":6113:6121   */\n      dup7\n        /* \"#utility.yul\":6109:6128   */\n      and\n        /* \"#utility.yul\":6102:6107   */\n      dup5\n        /* \"#utility.yul\":6099:6129   */\n      or\n        /* \"#utility.yul\":6089:6129   */\n      swap3\n      pop\n        /* \"#utility.yul\":5818:6135   */\n      pop\n      pop\n        /* \"#utility.yul\":5742:6135   */\n      swap4\n      swap3\n      pop\n      pop\n      pop\n      jump\t// out\n        /* \"#utility.yul\":6141:6201   */\n    tag_81:\n        /* \"#utility.yul\":6169:6172   */\n      0x00\n        /* \"#utility.yul\":6190:6195   */\n      dup2\n        /* \"#utility.yul\":6183:6195   */\n      swap1\n      pop\n        /* \"#utility.yul\":6141:6201   */\n      swap2\n      swap1\n      pop\n      jump\t// out\n        /* \"#utility.yul\":6207:6349   */\n    tag_82:\n        /* \"#utility.yul\":6257:6266   */\n      0x00\n        /* \"#utility.yul\":6290:6343   */\n      tag_164\n        /* \"#utility.yul\":6308:6342   */\n      tag_165\n        /* \"#utility.yul\":6317:6341   */\n      tag_166\n        /* \"#utility.yul\":6335:6340   */\n      dup5\n        /* \"#utility.yul\":6317:6341   */\n      tag_66\n      jump\t// in\n    tag_166:\n        /* \"#utility.yul\":6308:6342   */\n      tag_81\n      jump\t// in\n    tag_165:\n        /* \"#utility.yul\":6290:6343   */\n      tag_66\n      jump\t// in\n    tag_164:\n        /* \"#utility.yul\":6277:6343   */\n      swap1\n      pop\n        /* \"#utility.yul\":6207:6349   */\n      swap2\n      swap1\n      pop\n      jump\t// out\n        /* \"#utility.yul\":6355:6430   */\n    tag_83:\n        /* \"#utility.yul\":6398:6401   */\n      0x00\n        /* \"#utility.yul\":6419:6424   */\n      dup2\n        /* \"#utility.yul\":6412:6424   */\n      swap1\n      pop\n        /* \"#utility.yul\":6355:6430   */\n      swap2\n      swap1\n      pop\n      jump\t// out\n        /* \"#utility.yul\":6436:6705   */\n    tag_84:\n        /* \"#utility.yul\":6546:6585   */\n      tag_169\n        /* \"#utility.yul\":6577:6584   */\n      dup4\n        /* \"#utility.yul\":6546:6585   */\n      tag_82\n      jump\t// in\n    tag_169:\n        /* \"#utility.yul\":6607:6698   */\n      tag_170\n        /* \"#utility.yul\":6656:6697   */\n      tag_171\n        /* \"#utility.yul\":6680:6696   */\n      dup3\n        /* \"#utility.yul\":6656:6697   */\n      tag_83\n      jump\t// in\n    tag_171:\n        /* \"#utility.yul\":6648:6654   */\n      dup5\n        /* \"#utility.yul\":6641:6645   */\n      dup5\n        /* \"#utility.yul\":6635:6646   */\n      sload\n        /* \"#utility.yul\":6607:6698   */\n      tag_80\n      jump\t// in\n    tag_170:\n        /* \"#utility.yul\":6601:6605   */\n      dup3\n        /* \"#utility.yul\":6594:6699   */\n      sstore\n        /* \"#utility.yul\":6512:6705   */\n      pop\n        /* \"#utility.yul\":6436:6705   */\n      pop\n      pop\n      pop\n      jump\t// out\n        /* \"#utility.yul\":6711:6784   */\n    tag_85:\n        /* \"#utility.yul\":6756:6759   */\n      0x00\n        /* \"#utility.yul\":6777:6778   */\n      0x00\n        /* \"#utility.yul\":6770:6778   */\n      swap1\n      pop\n        /* \"#utility.yul\":6711:6784   */\n      swap1\n      jump\t// out\n        /* \"#utility.yul\":6790:6979   */\n    tag_86:\n        /* \"#utility.yul\":6867:6899   */\n      tag_174\n      tag_85\n      jump\t// in\n    tag_174:\n        /* \"#utility.yul\":6908:6973   */\n      tag_175\n        /* \"#utility.yul\":6966:6972   */\n      dup2\n        /* \"#utility.yul\":6958:6964   */\n      dup5\n        /* \"#utility.yul\":6952:6956   */\n      dup5\n        /* \"#utility.yul\":6908:6973   */\n      tag_84\n      jump\t// in\n    tag_175:\n        /* \"#utility.yul\":6843:6979   */\n      pop\n        /* \"#utility.yul\":6790:6979   */\n      pop\n      pop\n      jump\t// out\n        /* \"#utility.yul\":6985:7199   */\n    tag_87:\n        /* \"#utility.yul\":7070:7071   */\n      0x00\n        /* \"#utility.yul\":7055:7193   */\n    tag_177:\n        /* \"#utility.yul\":7080:7089   */\n      dup3\n        /* \"#utility.yul\":7077:7078   */\n      dup2\n        /* \"#utility.yul\":7074:7090   */\n      lt\n        /* \"#utility.yul\":7055:7193   */\n      iszero\n      tag_179\n      jumpi\n        /* \"#utility.yul\":7132:7183   */\n      tag_180\n        /* \"#utility.yul\":7181:7182   */\n      0x00\n        /* \"#utility.yul\":7177:7178   */\n      dup3\n        /* \"#utility.yul\":7166:7175   */\n      dup5\n        /* \"#utility.yul\":7162:7179   */\n      add\n        /* \"#utility.yul\":7132:7183   */\n      tag_86\n      jump\t// in\n    tag_180:\n        /* \"#utility.yul\":7105:7106   */\n      0x01\n        /* \"#utility.yul\":7102:7103   */\n      dup2\n        /* \"#utility.yul\":7098:7107   */\n      add\n        /* \"#utility.yul\":7093:7107   */\n      swap1\n      pop\n        /* \"#utility.yul\":7055:7193   */\n      jump(tag_177)\n    tag_179:\n        /* \"#utility.yul\":7059:7073   */\n      pop\n        /* \"#utility.yul\":6985:7199   */\n      pop\n      pop\n      jump\t// out\n        /* \"#utility.yul\":7205:7951   */\n    tag_88:\n        /* \"#utility.yul\":7306:7308   */\n      0x1f\n        /* \"#utility.yul\":7301:7304   */\n      dup3\n        /* \"#utility.yul\":7298:7309   */\n      gt\n        /* \"#utility.yul\":7295:7944   */\n      iszero\n      tag_182\n      jumpi\n        /* \"#utility.yul\":7335:7345   */\n      dup3\n        /* \"#utility.yul\":7330:7333   */\n      dup3\n        /* \"#utility.yul\":7327:7346   */\n      gt\n        /* \"#utility.yul\":7324:7934   */\n      iszero\n      tag_183\n      jumpi\n        /* \"#utility.yul\":7381:7419   */\n      tag_184\n        /* \"#utility.yul\":7413:7418   */\n      dup2\n        /* \"#utility.yul\":7381:7419   */\n      tag_77\n      jump\t// in\n    tag_184:\n        /* \"#utility.yul\":7456:7478   */\n      tag_185\n        /* \"#utility.yul\":7474:7477   */\n      dup4\n        /* \"#utility.yul\":7456:7478   */\n      tag_78\n      jump\t// in\n    tag_185:\n        /* \"#utility.yul\":7515:7544   */\n      tag_186\n        /* \"#utility.yul\":7533:7543   */\n      dup6\n        /* \"#utility.yul\":7515:7544   */\n      tag_78\n      jump\t// in\n    tag_186:\n        /* \"#utility.yul\":7705:7707   */\n      0x20\n        /* \"#utility.yul\":7693:7703   */\n      dup7\n        /* \"#utility.yul\":7690:7708   */\n      lt\n        /* \"#utility.yul\":7687:7766   */\n      iszero\n      tag_187\n      jumpi\n        /* \"#utility.yul\":7747:7748   */\n      0x00\n        /* \"#utility.yul\":7731:7748   */\n      swap1\n      pop\n        /* \"#utility.yul\":7687:7766   */\n    tag_187:\n        /* \"#utility.yul\":7816:7828   */\n      dup1\n        /* \"#utility.yul\":7806:7814   */\n      dup4\n        /* \"#utility.yul\":7802:7829   */\n      add\n        /* \"#utility.yul\":7846:7920   */\n      tag_188\n        /* \"#utility.yul\":7906:7918   */\n      dup3\n        /* \"#utility.yul\":7892:7904   */\n      dup5\n        /* \"#utility.yul\":7888:7919   */\n      sub\n        /* \"#utility.yul\":7875:7886   */\n      dup3\n        /* \"#utility.yul\":7846:7920   */\n      tag_87\n      jump\t// in\n    tag_188:\n        /* \"#utility.yul\":7347:7934   */\n      pop\n      pop\n      pop\n      pop\n        /* \"#utility.yul\":7324:7934   */\n    tag_183:\n        /* \"#utility.yul\":7295:7944   */\n    tag_182:\n        /* \"#utility.yul\":7205:7951   */\n      pop\n      pop\n      pop\n      jump\t// out\n        /* \"#utility.yul\":7957:8074   */\n    tag_89:\n        /* \"#utility.yul\":8011:8019   */\n      0x00\n        /* \"#utility.yul\":8061:8066   */\n      dup3\n        /* \"#utility.yul\":8055:8059   */\n      dup3\n        /* \"#utility.yul\":8051:8067   */\n      shr\n        /* \"#utility.yul\":8030:8067   */\n      swap1\n      pop\n        /* \"#utility.yul\":7957:8074   */\n      swap3\n      swap2\n      pop\n      pop\n      jump\t// out\n        /* \"#utility.yul\":8080:8249   */\n    tag_90:\n        /* \"#utility.yul\":8124:8130   */\n      0x00\n        /* \"#utility.yul\":8157:8208   */\n      tag_191\n        /* \"#utility.yul\":8205:8206   */\n      0x00\n        /* \"#utility.yul\":8201:8207   */\n      not\n        /* \"#utility.yul\":8193:8198   */\n      dup5\n        /* \"#utility.yul\":8190:8191   */\n      0x08\n        /* \"#utility.yul\":8186:8199   */\n      mul\n        /* \"#utility.yul\":8157:8208   */\n      tag_89\n      jump\t// in\n    tag_191:\n        /* \"#utility.yul\":8153:8209   */\n      not\n        /* \"#utility.yul\":8238:8242   */\n      dup1\n        /* \"#utility.yul\":8232:8236   */\n      dup4\n        /* \"#utility.yul\":8228:8243   */\n      and\n        /* \"#utility.yul\":8218:8243   */\n      swap2\n      pop\n        /* \"#utility.yul\":8131:8249   */\n      pop\n        /* \"#utility.yul\":8080:8249   */\n      swap3\n      swap2\n      pop\n      pop\n      jump\t// out\n        /* \"#utility.yul\":8254:8549   */\n    tag_91:\n        /* \"#utility.yul\":8330:8334   */\n      0x00\n        /* \"#utility.yul\":8476:8505   */\n      tag_193\n        /* \"#utility.yul\":8501:8504   */\n      dup4\n        /* \"#utility.yul\":8495:8499   */\n      dup4\n        /* \"#utility.yul\":8476:8505   */\n      tag_90\n      jump\t// in\n    tag_193:\n        /* \"#utility.yul\":8468:8505   */\n      swap2\n      pop\n        /* \"#utility.yul\":8538:8541   */\n      dup3\n        /* \"#utility.yul\":8535:8536   */\n      0x02\n        /* \"#utility.yul\":8531:8542   */\n      mul\n        /* \"#utility.yul\":8525:8529   */\n      dup3\n        /* \"#utility.yul\":8522:8543   */\n      or\n        /* \"#utility.yul\":8514:8543   */\n      swap1\n      pop\n        /* \"#utility.yul\":8254:8549   */\n      swap3\n      swap2\n      pop\n      pop\n      jump\t// out\n        /* \"#utility.yul\":8554:9949   */\n    tag_47:\n        /* \"#utility.yul\":8671:8708   */\n      tag_195\n        /* \"#utility.yul\":8704:8707   */\n      dup3\n        /* \"#utility.yul\":8671:8708   */\n      tag_61\n      jump\t// in\n    tag_195:\n        /* \"#utility.yul\":8773:8791   */\n      0xffffffffffffffff\n        /* \"#utility.yul\":8765:8771   */\n      dup2\n        /* \"#utility.yul\":8762:8792   */\n      gt\n        /* \"#utility.yul\":8759:8815   */\n      iszero\n      tag_196\n      jumpi\n        /* \"#utility.yul\":8795:8813   */\n      tag_197\n      tag_76\n      jump\t// in\n    tag_197:\n        /* \"#utility.yul\":8759:8815   */\n    tag_196:\n        /* \"#utility.yul\":8839:8877   */\n      tag_198\n        /* \"#utility.yul\":8871:8875   */\n      dup3\n        /* \"#utility.yul\":8865:8876   */\n      sload\n        /* \"#utility.yul\":8839:8877   */\n      tag_31\n      jump\t// in\n    tag_198:\n        /* \"#utility.yul\":8924:8991   */\n      tag_199\n        /* \"#utility.yul\":8984:8990   */\n      dup3\n        /* \"#utility.yul\":8976:8982   */\n      dup3\n        /* \"#utility.yul\":8970:8974   */\n      dup6\n        /* \"#utility.yul\":8924:8991   */\n      tag_88\n      jump\t// in\n    tag_199:\n        /* \"#utility.yul\":9018:9019   */\n      0x00\n        /* \"#utility.yul\":9042:9046   */\n      0x20\n        /* \"#utility.yul\":9029:9046   */\n      swap1\n      pop\n        /* \"#utility.yul\":9074:9076   */\n      0x1f\n        /* \"#utility.yul\":9066:9072   */\n      dup4\n        /* \"#utility.yul\":9063:9077   */\n      gt\n        /* \"#utility.yul\":9091:9092   */\n      0x01\n        /* \"#utility.yul\":9086:9704   */\n      dup2\n      eq\n      tag_201\n      jumpi\n        /* \"#utility.yul\":9748:9749   */\n      0x00\n        /* \"#utility.yul\":9765:9771   */\n      dup5\n        /* \"#utility.yul\":9762:9839   */\n      iszero\n      tag_202\n      jumpi\n        /* \"#utility.yul\":9814:9823   */\n      dup3\n        /* \"#utility.yul\":9809:9812   */\n      dup8\n        /* \"#utility.yul\":9805:9824   */\n      add\n        /* \"#utility.yul\":9799:9825   */\n      mload\n        /* \"#utility.yul\":9790:9825   */\n      swap1\n      pop\n        /* \"#utility.yul\":9762:9839   */\n    tag_202:\n        /* \"#utility.yul\":9865:9932   */\n      tag_203\n        /* \"#utility.yul\":9925:9931   */\n      dup6\n        /* \"#utility.yul\":9918:9923   */\n      dup3\n        /* \"#utility.yul\":9865:9932   */\n      tag_91\n      jump\t// in\n    tag_203:\n        /* \"#utility.yul\":9859:9863   */\n      dup7\n        /* \"#utility.yul\":9852:9933   */\n      sstore\n        /* \"#utility.yul\":9721:9943   */\n      pop\n        /* \"#utility.yul\":9056:9943   */\n      jump(tag_200)\n        /* \"#utility.yul\":9086:9704   */\n    tag_201:\n        /* \"#utility.yul\":9138:9142   */\n      0x1f\n        /* \"#utility.yul\":9134:9143   */\n      not\n        /* \"#utility.yul\":9126:9132   */\n      dup5\n        /* \"#utility.yul\":9122:9144   */\n      and\n        /* \"#utility.yul\":9172:9209   */\n      tag_204\n        /* \"#utility.yul\":9204:9208   */\n      dup7\n        /* \"#utility.yul\":9172:9209   */\n      tag_77\n      jump\t// in\n    tag_204:\n        /* \"#utility.yul\":9231:9232   */\n      0x00\n        /* \"#utility.yul\":9245:9453   */\n    tag_205:\n        /* \"#utility.yul\":9259:9266   */\n      dup3\n        /* \"#utility.yul\":9256:9257   */\n      dup2\n        /* \"#utility.yul\":9253:9267   */\n      lt\n        /* \"#utility.yul\":9245:9453   */\n      iszero\n      tag_207\n      jumpi\n        /* \"#utility.yul\":9338:9347   */\n      dup5\n        /* \"#utility.yul\":9333:9336   */\n      dup10\n        /* \"#utility.yul\":9329:9348   */\n      add\n        /* \"#utility.yul\":9323:9349   */\n      mload\n        /* \"#utility.yul\":9315:9321   */\n      dup3\n        /* \"#utility.yul\":9308:9350   */\n      sstore\n        /* \"#utility.yul\":9389:9390   */\n      0x01\n        /* \"#utility.yul\":9381:9387   */\n      dup3\n        /* \"#utility.yul\":9377:9391   */\n      add\n        /* \"#utility.yul\":9367:9391   */\n      swap2\n      pop\n        /* \"#utility.yul\":9436:9438   */\n      0x20\n        /* \"#utility.yul\":9425:9434   */\n      dup6\n        /* \"#utility.yul\":9421:9439   */\n      add\n        /* \"#utility.yul\":9408:9439   */\n      swap5\n      pop\n        /* \"#utility.yul\":9282:9286   */\n      0x20\n        /* \"#utility.yul\":9279:9280   */\n      dup2\n        /* \"#utility.yul\":9275:9287   */\n      add\n        /* \"#utility.yul\":9270:9287   */\n      swap1\n      pop\n        /* \"#utility.yul\":9245:9453   */\n      jump(tag_205)\n    tag_207:\n        /* \"#utility.yul\":9481:9487   */\n      dup7\n        /* \"#utility.yul\":9472:9479   */\n      dup4\n        /* \"#utility.yul\":9469:9488   */\n      lt\n        /* \"#utility.yul\":9466:9645   */\n      iszero\n      tag_208\n      jumpi\n        /* \"#utility.yul\":9539:9548   */\n      dup5\n        /* \"#utility.yul\":9534:9537   */\n      dup10\n        /* \"#utility.yul\":9530:9549   */\n      add\n        /* \"#utility.yul\":9524:9550   */\n      mload\n        /* \"#utility.yul\":9582:9630   */\n      tag_209\n        /* \"#utility.yul\":9624:9628   */\n      0x1f\n        /* \"#utility.yul\":9616:9622   */\n      dup10\n        /* \"#utility.yul\":9612:9629   */\n      and\n        /* \"#utility.yul\":9601:9610   */\n      dup3\n        /* \"#utility.yul\":9582:9630   */\n      tag_90\n      jump\t// in\n    tag_209:\n        /* \"#utility.yul\":9574:9580   */\n      dup4\n        /* \"#utility.yul\":9567:9631   */\n      sstore\n        /* \"#utility.yul\":9489:9645   */\n      pop\n        /* \"#utility.yul\":9466:9645   */\n    tag_208:\n        /* \"#utility.yul\":9691:9692   */\n      0x01\n        /* \"#utility.yul\":9687:9688   */\n      0x02\n        /* \"#utility.yul\":9679:9685   */\n      dup9\n        /* \"#utility.yul\":9675:9689   */\n      mul\n        /* \"#utility.yul\":9671:9693   */\n      add\n        /* \"#utility.yul\":9665:9669   */\n      dup9\n        /* \"#utility.yul\":9658:9694   */\n      sstore\n        /* \"#utility.yul\":9093:9704   */\n      pop\n      pop\n      pop\n        /* \"#utility.yul\":9056:9943   */\n    tag_200:\n      pop\n        /* \"#utility.yul\":8646:9949   */\n      pop\n      pop\n      pop\n        /* \"#utility.yul\":8554:9949   */\n      pop\n      pop\n      jump\t// out\n\n    auxdata: 0xa26469706673582212204b98703bf35ef1653a1925ce9a33e8afae859ad69323bbe3bfe4628c50ac864664736f6c63430008220033\n}\n",
				"bytecode": {
					"linkReferences": {},
					"object": "6080604052348015600e575f5ffd5b50335f5f6101000a81548173ffffffffffffffffffffffffffffffffffffffff021916908373ffffffffffffffffffffffffffffffffffffffff160217905550610b3d8061005b5f395ff3fe608060405234801561000f575f5ffd5b5060043610610055575f3560e01c806347082db3146100595780634a2575671461008957806376dd110f146100a55780638da5cb5b146100d5578063ceeefc51146100f3575b5f5ffd5b610073600480360381019061006e91906105ec565b61010f565b6040516100809190610687565b60405180910390f35b6100a3600480360381019061009e91906105ec565b6101aa565b005b6100bf60048036038101906100ba91906105ec565b6102e1565b6040516100cc91906106bf565b60405180910390f35b6100dd6102f6565b6040516100ea91906106e7565b60405180910390f35b61010d6004803603810190610108919061075f565b61031a565b005b6002602052805f5260405f205f91509050805461012b906107ca565b80601f0160208091040260200160405190810160405280929190818152602001828054610157906107ca565b80156101a25780601f10610179576101008083540402835291602001916101a2565b820191905f5260205f20905b81548152906001019060200180831161018557829003601f168201915b505050505081565b5f5f9054906101000a900473ffffffffffffffffffffffffffffffffffffffff1673ffffffffffffffffffffffffffffffffffffffff163373ffffffffffffffffffffffffffffffffffffffff16036102de575f60015f8373ffffffffffffffffffffffffffffffffffffffff1673ffffffffffffffffffffffffffffffffffffffff1681526020019081526020015f205411156102dd57605060015f8373ffffffffffffffffffffffffffffffffffffffff1673ffffffffffffffffffffffffffffffffffffffff1681526020019081526020015f2054106102dc57601460015f8373ffffffffffffffffffffffffffffffffffffffff1673ffffffffffffffffffffffffffffffffffffffff1681526020019081526020015f205f8282546102d49190610827565b925050819055505b5b5b50565b6001602052805f5260405f205f915090505481565b5f5f9054906101000a900473ffffffffffffffffffffffffffffffffffffffff1681565b6032821061050957600115158115150361044157605a82106103bb576040518060400160405280600d81526020017f456c697465205072656d69756d0000000000000000000000000000000000000081525060025f3373ffffffffffffffffffffffffffffffffffffffff1673ffffffffffffffffffffffffffffffffffffffff1681526020019081526020015f2090816103b59190610a38565b5061043c565b6040518060400160405280600781526020017f5072656d69756d0000000000000000000000000000000000000000000000000081525060025f3373ffffffffffffffffffffffffffffffffffffffff1673ffffffffffffffffffffffffffffffffffffffff1681526020019081526020015f20908161043a9190610a38565b505b6104c2565b6040518060400160405280600881526020017f5374616e6461726400000000000000000000000000000000000000000000000081525060025f3373ffffffffffffffffffffffffffffffffffffffff1673ffffffffffffffffffffffffffffffffffffffff1681526020019081526020015f2090816104c09190610a38565b505b8160015f3373ffffffffffffffffffffffffffffffffffffffff1673ffffffffffffffffffffffffffffffffffffffff1681526020019081526020015f208190555061058a565b6040518060400160405280600881526020017f52656a656374656400000000000000000000000000000000000000000000000081525060025f3373ffffffffffffffffffffffffffffffffffffffff1673ffffffffffffffffffffffffffffffffffffffff1681526020019081526020015f2090816105889190610a38565b505b5050565b5f5ffd5b5f73ffffffffffffffffffffffffffffffffffffffff82169050919050565b5f6105bb82610592565b9050919050565b6105cb816105b1565b81146105d5575f5ffd5b50565b5f813590506105e6816105c2565b92915050565b5f602082840312156106015761060061058e565b5b5f61060e848285016105d8565b91505092915050565b5f81519050919050565b5f82825260208201905092915050565b8281835e5f83830152505050565b5f601f19601f8301169050919050565b5f61065982610617565b6106638185610621565b9350610673818560208601610631565b61067c8161063f565b840191505092915050565b5f6020820190508181035f83015261069f818461064f565b905092915050565b5f819050919050565b6106b9816106a7565b82525050565b5f6020820190506106d25f8301846106b0565b92915050565b6106e1816105b1565b82525050565b5f6020820190506106fa5f8301846106d8565b92915050565b610709816106a7565b8114610713575f5ffd5b50565b5f8135905061072481610700565b92915050565b5f8115159050919050565b61073e8161072a565b8114610748575f5ffd5b50565b5f8135905061075981610735565b92915050565b5f5f604083850312156107755761077461058e565b5b5f61078285828601610716565b92505060206107938582860161074b565b9150509250929050565b7f4e487b71000000000000000000000000000000000000000000000000000000005f52602260045260245ffd5b5f60028204905060018216806107e157607f821691505b6020821081036107f4576107f361079d565b5b50919050565b7f4e487b71000000000000000000000000000000000000000000000000000000005f52601160045260245ffd5b5f610831826106a7565b915061083c836106a7565b9250828201905080821115610854576108536107fa565b5b92915050565b7f4e487b71000000000000000000000000000000000000000000000000000000005f52604160045260245ffd5b5f819050815f5260205f209050919050565b5f6020601f8301049050919050565b5f82821b905092915050565b5f600883026108e37fffffffffffffffffffffffffffffffffffffffffffffffffffffffffffffffff826108a8565b6108ed86836108a8565b95508019841693508086168417925050509392505050565b5f819050919050565b5f61092861092361091e846106a7565b610905565b6106a7565b9050919050565b5f819050919050565b6109418361090e565b61095561094d8261092f565b8484546108b4565b825550505050565b5f5f905090565b61096c61095d565b610977818484610938565b505050565b5f5b8281101561099d576109925f828401610964565b60018101905061097e565b505050565b601f8211156109f057828211156109ef576109bc81610887565b6109c583610899565b6109ce85610899565b60208610156109db575f90505b8083016109ea8284038261097c565b505050505b5b505050565b5f82821c905092915050565b5f610a105f19846008026109f5565b1980831691505092915050565b5f610a288383610a01565b9150826002028217905092915050565b610a4182610617565b67ffffffffffffffff811115610a5a57610a5961085a565b5b610a6482546107ca565b610a6f8282856109a2565b5f60209050601f831160018114610aa0575f8415610a8e578287015190505b610a988582610a1d565b865550610aff565b601f198416610aae86610887565b5f5b82811015610ad557848901518255600182019150602085019450602081019050610ab0565b86831015610af25784890151610aee601f891682610a01565b8355505b6001600288020188555050505b50505050505056fea26469706673582212204b98703bf35ef1653a1925ce9a33e8afae859ad69323bbe3bfe4628c50ac864664736f6c63430008220033",
					"opcodes": "PUSH1 0x80 PUSH1 0x40 MSTORE CALLVALUE DUP1 ISZERO PUSH1 0xE JUMPI PUSH0 PUSH0 REVERT JUMPDEST POP CALLER PUSH0 PUSH0 PUSH2 0x100 EXP DUP2 SLOAD DUP2 PUSH20 0xFFFFFFFFFFFFFFFFFFFFFFFFFFFFFFFFFFFFFFFF MUL NOT AND SWAP1 DUP4 PUSH20 0xFFFFFFFFFFFFFFFFFFFFFFFFFFFFFFFFFFFFFFFF AND MUL OR SWAP1 SSTORE POP PUSH2 0xB3D DUP1 PUSH2 0x5B PUSH0 CODECOPY PUSH0 RETURN INVALID PUSH1 0x80 PUSH1 0x40 MSTORE CALLVALUE DUP1 ISZERO PUSH2 0xF JUMPI PUSH0 PUSH0 REVERT JUMPDEST POP PUSH1 0x4 CALLDATASIZE LT PUSH2 0x55 JUMPI PUSH0 CALLDATALOAD PUSH1 0xE0 SHR DUP1 PUSH4 0x47082DB3 EQ PUSH2 0x59 JUMPI DUP1 PUSH4 0x4A257567 EQ PUSH2 0x89 JUMPI DUP1 PUSH4 0x76DD110F EQ PUSH2 0xA5 JUMPI DUP1 PUSH4 0x8DA5CB5B EQ PUSH2 0xD5 JUMPI DUP1 PUSH4 0xCEEEFC51 EQ PUSH2 0xF3 JUMPI JUMPDEST PUSH0 PUSH0 REVERT JUMPDEST PUSH2 0x73 PUSH1 0x4 DUP1 CALLDATASIZE SUB DUP2 ADD SWAP1 PUSH2 0x6E SWAP2 SWAP1 PUSH2 0x5EC JUMP JUMPDEST PUSH2 0x10F JUMP JUMPDEST PUSH1 0x40 MLOAD PUSH2 0x80 SWAP2 SWAP1 PUSH2 0x687 JUMP JUMPDEST PUSH1 0x40 MLOAD DUP1 SWAP2 SUB SWAP1 RETURN JUMPDEST PUSH2 0xA3 PUSH1 0x4 DUP1 CALLDATASIZE SUB DUP2 ADD SWAP1 PUSH2 0x9E SWAP2 SWAP1 PUSH2 0x5EC JUMP JUMPDEST PUSH2 0x1AA JUMP JUMPDEST STOP JUMPDEST PUSH2 0xBF PUSH1 0x4 DUP1 CALLDATASIZE SUB DUP2 ADD SWAP1 PUSH2 0xBA SWAP2 SWAP1 PUSH2 0x5EC JUMP JUMPDEST PUSH2 0x2E1 JUMP JUMPDEST PUSH1 0x40 MLOAD PUSH2 0xCC SWAP2 SWAP1 PUSH2 0x6BF JUMP JUMPDEST PUSH1 0x40 MLOAD DUP1 SWAP2 SUB SWAP1 RETURN JUMPDEST PUSH2 0xDD PUSH2 0x2F6 JUMP JUMPDEST PUSH1 0x40 MLOAD PUSH2 0xEA SWAP2 SWAP1 PUSH2 0x6E7 JUMP JUMPDEST PUSH1 0x40 MLOAD DUP1 SWAP2 SUB SWAP1 RETURN JUMPDEST PUSH2 0x10D PUSH1 0x4 DUP1 CALLDATASIZE SUB DUP2 ADD SWAP1 PUSH2 0x108 SWAP2 SWAP1 PUSH2 0x75F JUMP JUMPDEST PUSH2 0x31A JUMP JUMPDEST STOP JUMPDEST PUSH1 0x2 PUSH1 0x20 MSTORE DUP1 PUSH0 MSTORE PUSH1 0x40 PUSH0 KECCAK256 PUSH0 SWAP2 POP SWAP1 POP DUP1 SLOAD PUSH2 0x12B SWAP1 PUSH2 0x7CA JUMP JUMPDEST DUP1 PUSH1 0x1F ADD PUSH1 0x20 DUP1 SWAP2 DIV MUL PUSH1 0x20 ADD PUSH1 0x40 MLOAD SWAP1 DUP2 ADD PUSH1 0x40 MSTORE DUP1 SWAP3 SWAP2 SWAP1 DUP2 DUP2 MSTORE PUSH1 0x20 ADD DUP3 DUP1 SLOAD PUSH2 0x157 SWAP1 PUSH2 0x7CA JUMP JUMPDEST DUP1 ISZERO PUSH2 0x1A2 JUMPI DUP1 PUSH1 0x1F LT PUSH2 0x179 JUMPI PUSH2 0x100 DUP1 DUP4 SLOAD DIV MUL DUP4 MSTORE SWAP2 PUSH1 0x20 ADD SWAP2 PUSH2 0x1A2 JUMP JUMPDEST DUP3 ADD SWAP2 SWAP1 PUSH0 MSTORE PUSH1 0x20 PUSH0 KECCAK256 SWAP1 JUMPDEST DUP2 SLOAD DUP2 MSTORE SWAP1 PUSH1 0x1 ADD SWAP1 PUSH1 0x20 ADD DUP1 DUP4 GT PUSH2 0x185 JUMPI DUP3 SWAP1 SUB PUSH1 0x1F AND DUP3 ADD SWAP2 JUMPDEST POP POP POP POP POP DUP2 JUMP JUMPDEST PUSH0 PUSH0 SWAP1 SLOAD SWAP1 PUSH2 0x100 EXP SWAP1 DIV PUSH20 0xFFFFFFFFFFFFFFFFFFFFFFFFFFFFFFFFFFFFFFFF AND PUSH20 0xFFFFFFFFFFFFFFFFFFFFFFFFFFFFFFFFFFFFFFFF AND CALLER PUSH20 0xFFFFFFFFFFFFFFFFFFFFFFFFFFFFFFFFFFFFFFFF AND SUB PUSH2 0x2DE JUMPI PUSH0 PUSH1 0x1 PUSH0 DUP4 PUSH20 0xFFFFFFFFFFFFFFFFFFFFFFFFFFFFFFFFFFFFFFFF AND PUSH20 0xFFFFFFFFFFFFFFFFFFFFFFFFFFFFFFFFFFFFFFFF AND DUP2 MSTORE PUSH1 0x20 ADD SWAP1 DUP2 MSTORE PUSH1 0x20 ADD PUSH0 KECCAK256 SLOAD GT ISZERO PUSH2 0x2DD JUMPI PUSH1 0x50 PUSH1 0x1 PUSH0 DUP4 PUSH20 0xFFFFFFFFFFFFFFFFFFFFFFFFFFFFFFFFFFFFFFFF AND PUSH20 0xFFFFFFFFFFFFFFFFFFFFFFFFFFFFFFFFFFFFFFFF AND DUP2 MSTORE PUSH1 0x20 ADD SWAP1 DUP2 MSTORE PUSH1 0x20 ADD PUSH0 KECCAK256 SLOAD LT PUSH2 0x2DC JUMPI PUSH1 0x14 PUSH1 0x1 PUSH0 DUP4 PUSH20 0xFFFFFFFFFFFFFFFFFFFFFFFFFFFFFFFFFFFFFFFF AND PUSH20 0xFFFFFFFFFFFFFFFFFFFFFFFFFFFFFFFFFFFFFFFF AND DUP2 MSTORE PUSH1 0x20 ADD SWAP1 DUP2 MSTORE PUSH1 0x20 ADD PUSH0 KECCAK256 PUSH0 DUP3 DUP3 SLOAD PUSH2 0x2D4 SWAP2 SWAP1 PUSH2 0x827 JUMP JUMPDEST SWAP3 POP POP DUP2 SWAP1 SSTORE POP JUMPDEST JUMPDEST JUMPDEST POP JUMP JUMPDEST PUSH1 0x1 PUSH1 0x20 MSTORE DUP1 PUSH0 MSTORE PUSH1 0x40 PUSH0 KECCAK256 PUSH0 SWAP2 POP SWAP1 POP SLOAD DUP2 JUMP JUMPDEST PUSH0 PUSH0 SWAP1 SLOAD SWAP1 PUSH2 0x100 EXP SWAP1 DIV PUSH20 0xFFFFFFFFFFFFFFFFFFFFFFFFFFFFFFFFFFFFFFFF AND DUP2 JUMP JUMPDEST PUSH1 0x32 DUP3 LT PUSH2 0x509 JUMPI PUSH1 0x1 ISZERO ISZERO DUP2 ISZERO ISZERO SUB PUSH2 0x441 JUMPI PUSH1 0x5A DUP3 LT PUSH2 0x3BB JUMPI PUSH1 0x40 MLOAD DUP1 PUSH1 0x40 ADD PUSH1 0x40 MSTORE DUP1 PUSH1 0xD DUP2 MSTORE PUSH1 0x20 ADD PUSH32 0x456C697465205072656D69756D00000000000000000000000000000000000000 DUP2 MSTORE POP PUSH1 0x2 PUSH0 CALLER PUSH20 0xFFFFFFFFFFFFFFFFFFFFFFFFFFFFFFFFFFFFFFFF AND PUSH20 0xFFFFFFFFFFFFFFFFFFFFFFFFFFFFFFFFFFFFFFFF AND DUP2 MSTORE PUSH1 0x20 ADD SWAP1 DUP2 MSTORE PUSH1 0x20 ADD PUSH0 KECCAK256 SWAP1 DUP2 PUSH2 0x3B5 SWAP2 SWAP1 PUSH2 0xA38 JUMP JUMPDEST POP PUSH2 0x43C JUMP JUMPDEST PUSH1 0x40 MLOAD DUP1 PUSH1 0x40 ADD PUSH1 0x40 MSTORE DUP1 PUSH1 0x7 DUP2 MSTORE PUSH1 0x20 ADD PUSH32 0x5072656D69756D00000000000000000000000000000000000000000000000000 DUP2 MSTORE POP PUSH1 0x2 PUSH0 CALLER PUSH20 0xFFFFFFFFFFFFFFFFFFFFFFFFFFFFFFFFFFFFFFFF AND PUSH20 0xFFFFFFFFFFFFFFFFFFFFFFFFFFFFFFFFFFFFFFFF AND DUP2 MSTORE PUSH1 0x20 ADD SWAP1 DUP2 MSTORE PUSH1 0x20 ADD PUSH0 KECCAK256 SWAP1 DUP2 PUSH2 0x43A SWAP2 SWAP1 PUSH2 0xA38 JUMP JUMPDEST POP JUMPDEST PUSH2 0x4C2 JUMP JUMPDEST PUSH1 0x40 MLOAD DUP1 PUSH1 0x40 ADD PUSH1 0x40 MSTORE DUP1 PUSH1 0x8 DUP2 MSTORE PUSH1 0x20 ADD PUSH32 0x5374616E64617264000000000000000000000000000000000000000000000000 DUP2 MSTORE POP PUSH1 0x2 PUSH0 CALLER PUSH20 0xFFFFFFFFFFFFFFFFFFFFFFFFFFFFFFFFFFFFFFFF AND PUSH20 0xFFFFFFFFFFFFFFFFFFFFFFFFFFFFFFFFFFFFFFFF AND DUP2 MSTORE PUSH1 0x20 ADD SWAP1 DUP2 MSTORE PUSH1 0x20 ADD PUSH0 KECCAK256 SWAP1 DUP2 PUSH2 0x4C0 SWAP2 SWAP1 PUSH2 0xA38 JUMP JUMPDEST POP JUMPDEST DUP2 PUSH1 0x1 PUSH0 CALLER PUSH20 0xFFFFFFFFFFFFFFFFFFFFFFFFFFFFFFFFFFFFFFFF AND PUSH20 0xFFFFFFFFFFFFFFFFFFFFFFFFFFFFFFFFFFFFFFFF AND DUP2 MSTORE PUSH1 0x20 ADD SWAP1 DUP2 MSTORE PUSH1 0x20 ADD PUSH0 KECCAK256 DUP2 SWAP1 SSTORE POP PUSH2 0x58A JUMP JUMPDEST PUSH1 0x40 MLOAD DUP1 PUSH1 0x40 ADD PUSH1 0x40 MSTORE DUP1 PUSH1 0x8 DUP2 MSTORE PUSH1 0x20 ADD PUSH32 0x52656A6563746564000000000000000000000000000000000000000000000000 DUP2 MSTORE POP PUSH1 0x2 PUSH0 CALLER PUSH20 0xFFFFFFFFFFFFFFFFFFFFFFFFFFFFFFFFFFFFFFFF AND PUSH20 0xFFFFFFFFFFFFFFFFFFFFFFFFFFFFFFFFFFFFFFFF AND DUP2 MSTORE PUSH1 0x20 ADD SWAP1 DUP2 MSTORE PUSH1 0x20 ADD PUSH0 KECCAK256 SWAP1 DUP2 PUSH2 0x588 SWAP2 SWAP1 PUSH2 0xA38 JUMP JUMPDEST POP JUMPDEST POP POP JUMP JUMPDEST PUSH0 PUSH0 REVERT JUMPDEST PUSH0 PUSH20 0xFFFFFFFFFFFFFFFFFFFFFFFFFFFFFFFFFFFFFFFF DUP3 AND SWAP1 POP SWAP2 SWAP1 POP JUMP JUMPDEST PUSH0 PUSH2 0x5BB DUP3 PUSH2 0x592 JUMP JUMPDEST SWAP1 POP SWAP2 SWAP1 POP JUMP JUMPDEST PUSH2 0x5CB DUP2 PUSH2 0x5B1 JUMP JUMPDEST DUP2 EQ PUSH2 0x5D5 JUMPI PUSH0 PUSH0 REVERT JUMPDEST POP JUMP JUMPDEST PUSH0 DUP2 CALLDATALOAD SWAP1 POP PUSH2 0x5E6 DUP2 PUSH2 0x5C2 JUMP JUMPDEST SWAP3 SWAP2 POP POP JUMP JUMPDEST PUSH0 PUSH1 0x20 DUP3 DUP5 SUB SLT ISZERO PUSH2 0x601 JUMPI PUSH2 0x600 PUSH2 0x58E JUMP JUMPDEST JUMPDEST PUSH0 PUSH2 0x60E DUP5 DUP3 DUP6 ADD PUSH2 0x5D8 JUMP JUMPDEST SWAP2 POP POP SWAP3 SWAP2 POP POP JUMP JUMPDEST PUSH0 DUP2 MLOAD SWAP1 POP SWAP2 SWAP1 POP JUMP JUMPDEST PUSH0 DUP3 DUP3 MSTORE PUSH1 0x20 DUP3 ADD SWAP1 POP SWAP3 SWAP2 POP POP JUMP JUMPDEST DUP3 DUP2 DUP4 MCOPY PUSH0 DUP4 DUP4 ADD MSTORE POP POP POP JUMP JUMPDEST PUSH0 PUSH1 0x1F NOT PUSH1 0x1F DUP4 ADD AND SWAP1 POP SWAP2 SWAP1 POP JUMP JUMPDEST PUSH0 PUSH2 0x659 DUP3 PUSH2 0x617 JUMP JUMPDEST PUSH2 0x663 DUP2 DUP6 PUSH2 0x621 JUMP JUMPDEST SWAP4 POP PUSH2 0x673 DUP2 DUP6 PUSH1 0x20 DUP7 ADD PUSH2 0x631 JUMP JUMPDEST PUSH2 0x67C DUP2 PUSH2 0x63F JUMP JUMPDEST DUP5 ADD SWAP2 POP POP SWAP3 SWAP2 POP POP JUMP JUMPDEST PUSH0 PUSH1 0x20 DUP3 ADD SWAP1 POP DUP2 DUP2 SUB PUSH0 DUP4 ADD MSTORE PUSH2 0x69F DUP2 DUP5 PUSH2 0x64F JUMP JUMPDEST SWAP1 POP SWAP3 SWAP2 POP POP JUMP JUMPDEST PUSH0 DUP2 SWAP1 POP SWAP2 SWAP1 POP JUMP JUMPDEST PUSH2 0x6B9 DUP2 PUSH2 0x6A7 JUMP JUMPDEST DUP3 MSTORE POP POP JUMP JUMPDEST PUSH0 PUSH1 0x20 DUP3 ADD SWAP1 POP PUSH2 0x6D2 PUSH0 DUP4 ADD DUP5 PUSH2 0x6B0 JUMP JUMPDEST SWAP3 SWAP2 POP POP JUMP JUMPDEST PUSH2 0x6E1 DUP2 PUSH2 0x5B1 JUMP JUMPDEST DUP3 MSTORE POP POP JUMP JUMPDEST PUSH0 PUSH1 0x20 DUP3 ADD SWAP1 POP PUSH2 0x6FA PUSH0 DUP4 ADD DUP5 PUSH2 0x6D8 JUMP JUMPDEST SWAP3 SWAP2 POP POP JUMP JUMPDEST PUSH2 0x709 DUP2 PUSH2 0x6A7 JUMP JUMPDEST DUP2 EQ PUSH2 0x713 JUMPI PUSH0 PUSH0 REVERT JUMPDEST POP JUMP JUMPDEST PUSH0 DUP2 CALLDATALOAD SWAP1 POP PUSH2 0x724 DUP2 PUSH2 0x700 JUMP JUMPDEST SWAP3 SWAP2 POP POP JUMP JUMPDEST PUSH0 DUP2 ISZERO ISZERO SWAP1 POP SWAP2 SWAP1 POP JUMP JUMPDEST PUSH2 0x73E DUP2 PUSH2 0x72A JUMP JUMPDEST DUP2 EQ PUSH2 0x748 JUMPI PUSH0 PUSH0 REVERT JUMPDEST POP JUMP JUMPDEST PUSH0 DUP2 CALLDATALOAD SWAP1 POP PUSH2 0x759 DUP2 PUSH2 0x735 JUMP JUMPDEST SWAP3 SWAP2 POP POP JUMP JUMPDEST PUSH0 PUSH0 PUSH1 0x40 DUP4 DUP6 SUB SLT ISZERO PUSH2 0x775 JUMPI PUSH2 0x774 PUSH2 0x58E JUMP JUMPDEST JUMPDEST PUSH0 PUSH2 0x782 DUP6 DUP3 DUP7 ADD PUSH2 0x716 JUMP JUMPDEST SWAP3 POP POP PUSH1 0x20 PUSH2 0x793 DUP6 DUP3 DUP7 ADD PUSH2 0x74B JUMP JUMPDEST SWAP2 POP POP SWAP3 POP SWAP3 SWAP1 POP JUMP JUMPDEST PUSH32 0x4E487B7100000000000000000000000000000000000000000000000000000000 PUSH0 MSTORE PUSH1 0x22 PUSH1 0x4 MSTORE PUSH1 0x24 PUSH0 REVERT JUMPDEST PUSH0 PUSH1 0x2 DUP3 DIV SWAP1 POP PUSH1 0x1 DUP3 AND DUP1 PUSH2 0x7E1 JUMPI PUSH1 0x7F DUP3 AND SWAP2 POP JUMPDEST PUSH1 0x20 DUP3 LT DUP2 SUB PUSH2 0x7F4 JUMPI PUSH2 0x7F3 PUSH2 0x79D JUMP JUMPDEST JUMPDEST POP SWAP2 SWAP1 POP JUMP JUMPDEST PUSH32 0x4E487B7100000000000000000000000000000000000000000000000000000000 PUSH0 MSTORE PUSH1 0x11 PUSH1 0x4 MSTORE PUSH1 0x24 PUSH0 REVERT JUMPDEST PUSH0 PUSH2 0x831 DUP3 PUSH2 0x6A7 JUMP JUMPDEST SWAP2 POP PUSH2 0x83C DUP4 PUSH2 0x6A7 JUMP JUMPDEST SWAP3 POP DUP3 DUP3 ADD SWAP1 POP DUP1 DUP3 GT ISZERO PUSH2 0x854 JUMPI PUSH2 0x853 PUSH2 0x7FA JUMP JUMPDEST JUMPDEST SWAP3 SWAP2 POP POP JUMP JUMPDEST PUSH32 0x4E487B7100000000000000000000000000000000000000000000000000000000 PUSH0 MSTORE PUSH1 0x41 PUSH1 0x4 MSTORE PUSH1 0x24 PUSH0 REVERT JUMPDEST PUSH0 DUP2 SWAP1 POP DUP2 PUSH0 MSTORE PUSH1 0x20 PUSH0 KECCAK256 SWAP1 POP SWAP2 SWAP1 POP JUMP JUMPDEST PUSH0 PUSH1 0x20 PUSH1 0x1F DUP4 ADD DIV SWAP1 POP SWAP2 SWAP1 POP JUMP JUMPDEST PUSH0 DUP3 DUP3 SHL SWAP1 POP SWAP3 SWAP2 POP POP JUMP JUMPDEST PUSH0 PUSH1 0x8 DUP4 MUL PUSH2 0x8E3 PUSH32 0xFFFFFFFFFFFFFFFFFFFFFFFFFFFFFFFFFFFFFFFFFFFFFFFFFFFFFFFFFFFFFFFF DUP3 PUSH2 0x8A8 JUMP JUMPDEST PUSH2 0x8ED DUP7 DUP4 PUSH2 0x8A8 JUMP JUMPDEST SWAP6 POP DUP1 NOT DUP5 AND SWAP4 POP DUP1 DUP7 AND DUP5 OR SWAP3 POP POP POP SWAP4 SWAP3 POP POP POP JUMP JUMPDEST PUSH0 DUP2 SWAP1 POP SWAP2 SWAP1 POP JUMP JUMPDEST PUSH0 PUSH2 0x928 PUSH2 0x923 PUSH2 0x91E DUP5 PUSH2 0x6A7 JUMP JUMPDEST PUSH2 0x905 JUMP JUMPDEST PUSH2 0x6A7 JUMP JUMPDEST SWAP1 POP SWAP2 SWAP1 POP JUMP JUMPDEST PUSH0 DUP2 SWAP1 POP SWAP2 SWAP1 POP JUMP JUMPDEST PUSH2 0x941 DUP4 PUSH2 0x90E JUMP JUMPDEST PUSH2 0x955 PUSH2 0x94D DUP3 PUSH2 0x92F JUMP JUMPDEST DUP5 DUP5 SLOAD PUSH2 0x8B4 JUMP JUMPDEST DUP3 SSTORE POP POP POP POP JUMP JUMPDEST PUSH0 PUSH0 SWAP1 POP SWAP1 JUMP JUMPDEST PUSH2 0x96C PUSH2 0x95D JUMP JUMPDEST PUSH2 0x977 DUP2 DUP5 DUP5 PUSH2 0x938 JUMP JUMPDEST POP POP POP JUMP JUMPDEST PUSH0 JUMPDEST DUP3 DUP2 LT ISZERO PUSH2 0x99D JUMPI PUSH2 0x992 PUSH0 DUP3 DUP5 ADD PUSH2 0x964 JUMP JUMPDEST PUSH1 0x1 DUP2 ADD SWAP1 POP PUSH2 0x97E JUMP JUMPDEST POP POP POP JUMP JUMPDEST PUSH1 0x1F DUP3 GT ISZERO PUSH2 0x9F0 JUMPI DUP3 DUP3 GT ISZERO PUSH2 0x9EF JUMPI PUSH2 0x9BC DUP2 PUSH2 0x887 JUMP JUMPDEST PUSH2 0x9C5 DUP4 PUSH2 0x899 JUMP JUMPDEST PUSH2 0x9CE DUP6 PUSH2 0x899 JUMP JUMPDEST PUSH1 0x20 DUP7 LT ISZERO PUSH2 0x9DB JUMPI PUSH0 SWAP1 POP JUMPDEST DUP1 DUP4 ADD PUSH2 0x9EA DUP3 DUP5 SUB DUP3 PUSH2 0x97C JUMP JUMPDEST POP POP POP POP JUMPDEST JUMPDEST POP POP POP JUMP JUMPDEST PUSH0 DUP3 DUP3 SHR SWAP1 POP SWAP3 SWAP2 POP POP JUMP JUMPDEST PUSH0 PUSH2 0xA10 PUSH0 NOT DUP5 PUSH1 0x8 MUL PUSH2 0x9F5 JUMP JUMPDEST NOT DUP1 DUP4 AND SWAP2 POP POP SWAP3 SWAP2 POP POP JUMP JUMPDEST PUSH0 PUSH2 0xA28 DUP4 DUP4 PUSH2 0xA01 JUMP JUMPDEST SWAP2 POP DUP3 PUSH1 0x2 MUL DUP3 OR SWAP1 POP SWAP3 SWAP2 POP POP JUMP JUMPDEST PUSH2 0xA41 DUP3 PUSH2 0x617 JUMP JUMPDEST PUSH8 0xFFFFFFFFFFFFFFFF DUP2 GT ISZERO PUSH2 0xA5A JUMPI PUSH2 0xA59 PUSH2 0x85A JUMP JUMPDEST JUMPDEST PUSH2 0xA64 DUP3 SLOAD PUSH2 0x7CA JUMP JUMPDEST PUSH2 0xA6F DUP3 DUP3 DUP6 PUSH2 0x9A2 JUMP JUMPDEST PUSH0 PUSH1 0x20 SWAP1 POP PUSH1 0x1F DUP4 GT PUSH1 0x1 DUP2 EQ PUSH2 0xAA0 JUMPI PUSH0 DUP5 ISZERO PUSH2 0xA8E JUMPI DUP3 DUP8 ADD MLOAD SWAP1 POP JUMPDEST PUSH2 0xA98 DUP6 DUP3 PUSH2 0xA1D JUMP JUMPDEST DUP7 SSTORE POP PUSH2 0xAFF JUMP JUMPDEST PUSH1 0x1F NOT DUP5 AND PUSH2 0xAAE DUP7 PUSH2 0x887 JUMP JUMPDEST PUSH0 JUMPDEST DUP3 DUP2 LT ISZERO PUSH2 0xAD5 JUMPI DUP5 DUP10 ADD MLOAD DUP3 SSTORE PUSH1 0x1 DUP3 ADD SWAP2 POP PUSH1 0x20 DUP6 ADD SWAP5 POP PUSH1 0x20 DUP2 ADD SWAP1 POP PUSH2 0xAB0 JUMP JUMPDEST DUP7 DUP4 LT ISZERO PUSH2 0xAF2 JUMPI DUP5 DUP10 ADD MLOAD PUSH2 0xAEE PUSH1 0x1F DUP10 AND DUP3 PUSH2 0xA01 JUMP JUMPDEST DUP4 SSTORE POP JUMPDEST PUSH1 0x1 PUSH1 0x2 DUP9 MUL ADD DUP9 SSTORE POP POP POP JUMPDEST POP POP POP POP POP POP JUMP INVALID LOG2 PUSH5 0x6970667358 0x22 SLT KECCAK256 0x4B SWAP9 PUSH17 0x3BF35EF1653A1925CE9A33E8AFAE859AD6 SWAP4 0x23 0xBB CALLF 0xBFE4 PUSH3 0x8C50AC DUP7 CHAINID PUSH5 0x736F6C6343 STOP ADDMOD 0x22 STOP CALLER "
				},
				"gasEstimates": {
					"creation": {
						"codeDepositCost": "575400",
						"executionCost": "24868",
						"totalCost": "600268"
					},
					"external": {
						"evaluateUser(uint256,bool)": "infinite",
						"levels(address)": "infinite",
						"owner()": "2551",
						"ownerBonus(address)": "infinite",
						"scores(address)": "2824"
					}
				},
				"methodIdentifiers": {
					"evaluateUser(uint256,bool)": "ceeefc51",
					"levels(address)": "47082db3",
					"owner()": "8da5cb5b",
					"ownerBonus(address)": "4a257567",
					"scores(address)": "76dd110f"
				}
			},
			"storageLayout": {
				"storage": [
					{
						"astId": 3,
						"contract": "prac40.sol:NestedIfConditions",
						"label": "owner",
						"offset": 0,
						"slot": "0",
						"type": "t_address"
					},
					{
						"astId": 7,
						"contract": "prac40.sol:NestedIfConditions",
						"label": "scores",
						"offset": 0,
						"slot": "1",
						"type": "t_mapping(t_address,t_uint256)"
					},
					{
						"astId": 11,
						"contract": "prac40.sol:NestedIfConditions",
						"label": "levels",
						"offset": 0,
						"slot": "2",
						"type": "t_mapping(t_address,t_string_storage)"
					}
				],
				"types": {
					"t_address": {
						"encoding": "inplace",
						"label": "address",
						"numberOfBytes": "20"
					},
					"t_mapping(t_address,t_string_storage)": {
						"encoding": "mapping",
						"key": "t_address",
						"label": "mapping(address => string)",
						"numberOfBytes": "32",
						"value": "t_string_storage"
					},
					"t_mapping(t_address,t_uint256)": {
						"encoding": "mapping",
						"key": "t_address",
						"label": "mapping(address => uint256)",
						"numberOfBytes": "32",
						"value": "t_uint256"
					},
					"t_string_storage": {
						"encoding": "bytes",
						"label": "string",
						"numberOfBytes": "32"
					},
					"t_uint256": {
						"encoding": "inplace",
						"label": "uint256",
						"numberOfBytes": "32"
					}
				}
			},
			"userdoc": {
				"kind": "user",
				"methods": {},
				"version": 1
			}
		}
	}
}