{
	"prac14.sol": {
		"StateMutation": {
			"abi": [
				{
					"inputs": [],
					"stateMutability": "nonpayable",
					"type": "constructor"
				},
				{
					"anonymous": false,
					"inputs": [
						{
							"indexed": false,
							"internalType": "uint256",
							"name": "oldValue",
							"type": "uint256"
						},
						{
							"indexed": false,
							"internalType": "uint256",
							"name": "newValue",
							"type": "uint256"
						}
					],
					"name": "ValueUpdated",
					"type": "event"
				},
				{
					"inputs": [],
					"name": "getValue",
					"outputs": [
						{
							"internalType": "uint256",
							"name": "",
							"type": "uint256"
						}
					],
					"stateMutability": "view",
					"type": "function"
				},
				{
					"inputs": [
						{
							"internalType": "uint256",
							"name": "_amount",
							"type": "uint256"
						}
					],
					"name": "increaseValue",
					"outputs": [],
					"stateMutability": "nonpayable",
					"type": "function"
				},
				{
					"inputs": [],
					"name": "owner",
					"outputs": [
						{
							"internalType": "address",
							"name": "",
							"type": "address"
						}
					],
					"stateMutability": "view",
					"type": "function"
				},
				{
					"inputs": [],
					"name": "previousValue",
					"outputs": [
						{
							"internalType": "uint256",
							"name": "",
							"type": "uint256"
						}
					],
					"stateMutability": "view",
					"type": "function"
				},
				{
					"inputs": [
						{
							"internalType": "uint256",
							"name": "_newValue",
							"type": "uint256"
						}
					],
					"name": "updateValue",
					"outputs": [],
					"stateMutability": "nonpayable",
					"type": "function"
				},
				{
					"inputs": [],
					"name": "value",
					"outputs": [
						{
							"internalType": "uint256",
							"name": "",
							"type": "uint256"
						}
					],
					"stateMutability": "view",
					"type": "function"
				}
			],
			"devdoc": {
				"kind": "dev",
				"methods": {},
				"version": 1
			},
			"evm": {
				"assembly": "    /* \"prac14.sol\":9653:10679  contract StateMutation {... */\n  mstore(0x40, 0x80)\n    /* \"prac14.sol\":9866:9917  constructor() {... */\n  callvalue\n  dup1\n  iszero\n  tag_1\n  jumpi\n  revert(0x00, 0x00)\ntag_1:\n  pop\n    /* \"prac14.sol\":9899:9909  msg.sender */\n  caller\n    /* \"prac14.sol\":9891:9896  owner */\n  0x02\n  0x00\n    /* \"prac14.sol\":9891:9909  owner = msg.sender */\n  0x0100\n  exp\n  dup2\n  sload\n  dup2\n  0xffffffffffffffffffffffffffffffffffffffff\n  mul\n  not\n  and\n  swap1\n  dup4\n  0xffffffffffffffffffffffffffffffffffffffff\n  and\n  mul\n  or\n  swap1\n  sstore\n  pop\n    /* \"prac14.sol\":9653:10679  contract StateMutation {... */\n  dataSize(sub_0)\n  dup1\n  dataOffset(sub_0)\n  0x00\n  codecopy\n  0x00\n  return\nstop\n\nsub_0: assembly {\n        /* \"prac14.sol\":9653:10679  contract StateMutation {... */\n      mstore(0x40, 0x80)\n      callvalue\n      dup1\n      iszero\n      tag_1\n      jumpi\n      revert(0x00, 0x00)\n    tag_1:\n      pop\n      jumpi(tag_2, lt(calldatasize, 0x04))\n      shr(0xe0, calldataload(0x00))\n      dup1\n      0x160ef807\n      eq\n      tag_3\n      jumpi\n      dup1\n      0x20965255\n      eq\n      tag_4\n      jumpi\n      dup1\n      0x3fa4f245\n      eq\n      tag_5\n      jumpi\n      dup1\n      0x55be478a\n      eq\n      tag_6\n      jumpi\n      dup1\n      0x573c0bd3\n      eq\n      tag_7\n      jumpi\n      dup1\n      0x8da5cb5b\n      eq\n      tag_8\n      jumpi\n    tag_2:\n      revert(0x00, 0x00)\n        /* \"prac14.sol\":10310:10555  function increaseValue(uint256 _amount)... */\n    tag_3:\n      tag_9\n      0x04\n      dup1\n      calldatasize\n      sub\n      dup2\n      add\n      swap1\n      tag_10\n      swap2\n      swap1\n      tag_11\n      jump\t// in\n    tag_10:\n      tag_12\n      jump\t// in\n    tag_9:\n      stop\n        /* \"prac14.sol\":10563:10676  function getValue()... */\n    tag_4:\n      tag_13\n      tag_14\n      jump\t// in\n    tag_13:\n      mload(0x40)\n      tag_15\n      swap2\n      swap1\n      tag_16\n      jump\t// in\n    tag_15:\n      mload(0x40)\n      dup1\n      swap2\n      sub\n      swap1\n      return\n        /* \"prac14.sol\":9685:9705  uint256 public value */\n    tag_5:\n      tag_17\n      tag_18\n      jump\t// in\n    tag_17:\n      mload(0x40)\n      tag_19\n      swap2\n      swap1\n      tag_16\n      jump\t// in\n    tag_19:\n      mload(0x40)\n      dup1\n      swap2\n      sub\n      swap1\n      return\n        /* \"prac14.sol\":9712:9740  uint256 public previousValue */\n    tag_6:\n      tag_20\n      tag_21\n      jump\t// in\n    tag_20:\n      mload(0x40)\n      tag_22\n      swap2\n      swap1\n      tag_16\n      jump\t// in\n    tag_22:\n      mload(0x40)\n      dup1\n      swap2\n      sub\n      swap1\n      return\n        /* \"prac14.sol\":10063:10302  function updateValue(uint256 _newValue)... */\n    tag_7:\n      tag_23\n      0x04\n      dup1\n      calldatasize\n      sub\n      dup2\n      add\n      swap1\n      tag_24\n      swap2\n      swap1\n      tag_11\n      jump\t// in\n    tag_24:\n      tag_25\n      jump\t// in\n    tag_23:\n      stop\n        /* \"prac14.sol\":9749:9769  address public owner */\n    tag_8:\n      tag_26\n      tag_27\n      jump\t// in\n    tag_26:\n      mload(0x40)\n      tag_28\n      swap2\n      swap1\n      tag_29\n      jump\t// in\n    tag_28:\n      mload(0x40)\n      dup1\n      swap2\n      sub\n      swap1\n      return\n        /* \"prac14.sol\":10310:10555  function increaseValue(uint256 _amount)... */\n    tag_12:\n        /* \"prac14.sol\":9993:9998  owner */\n      0x02\n      0x00\n      swap1\n      sload\n      swap1\n      0x0100\n      exp\n      swap1\n      div\n      0xffffffffffffffffffffffffffffffffffffffff\n      and\n        /* \"prac14.sol\":9979:9998  msg.sender == owner */\n      0xffffffffffffffffffffffffffffffffffffffff\n      and\n        /* \"prac14.sol\":9979:9989  msg.sender */\n      caller\n        /* \"prac14.sol\":9979:9998  msg.sender == owner */\n      0xffffffffffffffffffffffffffffffffffffffff\n      and\n      eq\n        /* \"prac14.sol\":9957:10035  require(... */\n      tag_31\n      jumpi\n      mload(0x40)\n      0x08c379a000000000000000000000000000000000000000000000000000000000\n      dup2\n      mstore\n      0x04\n      add\n      tag_32\n      swap1\n      tag_33\n      jump\t// in\n    tag_32:\n      mload(0x40)\n      dup1\n      swap2\n      sub\n      swap1\n      revert\n    tag_31:\n        /* \"prac14.sol\":10417:10422  value */\n      sload(0x00)\n        /* \"prac14.sol\":10401:10414  previousValue */\n      0x01\n        /* \"prac14.sol\":10401:10422  previousValue = value */\n      dup2\n      swap1\n      sstore\n      pop\n        /* \"prac14.sol\":10451:10458  _amount */\n      dup1\n        /* \"prac14.sol\":10443:10448  value */\n      sload(0x00)\n        /* \"prac14.sol\":10443:10458  value + _amount */\n      tag_35\n      swap2\n      swap1\n      tag_36\n      jump\t// in\n    tag_35:\n        /* \"prac14.sol\":10435:10440  value */\n      0x00\n        /* \"prac14.sol\":10435:10458  value = value + _amount */\n      dup2\n      swap1\n      sstore\n      pop\n        /* \"prac14.sol\":10476:10547  ValueUpdated(... */\n      0x253ac2c290fb3c37b20cfd60899ed86c0c8313905edc8ca53ec8d2b69d9919ad\n        /* \"prac14.sol\":10503:10516  previousValue */\n      sload(0x01)\n        /* \"prac14.sol\":10531:10536  value */\n      sload(0x00)\n        /* \"prac14.sol\":10476:10547  ValueUpdated(... */\n      mload(0x40)\n      tag_37\n      swap3\n      swap2\n      swap1\n      tag_38\n      jump\t// in\n    tag_37:\n      mload(0x40)\n      dup1\n      swap2\n      sub\n      swap1\n      log1\n        /* \"prac14.sol\":10310:10555  function increaseValue(uint256 _amount)... */\n      pop\n      jump\t// out\n        /* \"prac14.sol\":10563:10676  function getValue()... */\n    tag_14:\n        /* \"prac14.sol\":10631:10638  uint256 */\n      0x00\n        /* \"prac14.sol\":10663:10668  value */\n      sload(0x00)\n        /* \"prac14.sol\":10656:10668  return value */\n      swap1\n      pop\n        /* \"prac14.sol\":10563:10676  function getValue()... */\n      swap1\n      jump\t// out\n        /* \"prac14.sol\":9685:9705  uint256 public value */\n    tag_18:\n      sload(0x00)\n      dup2\n      jump\t// out\n        /* \"prac14.sol\":9712:9740  uint256 public previousValue */\n    tag_21:\n      sload(0x01)\n      dup2\n      jump\t// out\n        /* \"prac14.sol\":10063:10302  function updateValue(uint256 _newValue)... */\n    tag_25:\n        /* \"prac14.sol\":9993:9998  owner */\n      0x02\n      0x00\n      swap1\n      sload\n      swap1\n      0x0100\n      exp\n      swap1\n      div\n      0xffffffffffffffffffffffffffffffffffffffff\n      and\n        /* \"prac14.sol\":9979:9998  msg.sender == owner */\n      0xffffffffffffffffffffffffffffffffffffffff\n      and\n        /* \"prac14.sol\":9979:9989  msg.sender */\n      caller\n        /* \"prac14.sol\":9979:9998  msg.sender == owner */\n      0xffffffffffffffffffffffffffffffffffffffff\n      and\n      eq\n        /* \"prac14.sol\":9957:10035  require(... */\n      tag_41\n      jumpi\n      mload(0x40)\n      0x08c379a000000000000000000000000000000000000000000000000000000000\n      dup2\n      mstore\n      0x04\n      add\n      tag_42\n      swap1\n      tag_33\n      jump\t// in\n    tag_42:\n      mload(0x40)\n      dup1\n      swap2\n      sub\n      swap1\n      revert\n    tag_41:\n        /* \"prac14.sol\":10170:10175  value */\n      sload(0x00)\n        /* \"prac14.sol\":10154:10167  previousValue */\n      0x01\n        /* \"prac14.sol\":10154:10175  previousValue = value */\n      dup2\n      swap1\n      sstore\n      pop\n        /* \"prac14.sol\":10196:10205  _newValue */\n      dup1\n        /* \"prac14.sol\":10188:10193  value */\n      0x00\n        /* \"prac14.sol\":10188:10205  value = _newValue */\n      dup2\n      swap1\n      sstore\n      pop\n        /* \"prac14.sol\":10223:10294  ValueUpdated(... */\n      0x253ac2c290fb3c37b20cfd60899ed86c0c8313905edc8ca53ec8d2b69d9919ad\n        /* \"prac14.sol\":10250:10263  previousValue */\n      sload(0x01)\n        /* \"prac14.sol\":10278:10283  value */\n      sload(0x00)\n        /* \"prac14.sol\":10223:10294  ValueUpdated(... */\n      mload(0x40)\n      tag_44\n      swap3\n      swap2\n      swap1\n      tag_38\n      jump\t// in\n    tag_44:\n      mload(0x40)\n      dup1\n      swap2\n      sub\n      swap1\n      log1\n        /* \"prac14.sol\":10063:10302  function updateValue(uint256 _newValue)... */\n      pop\n      jump\t// out\n        /* \"prac14.sol\":9749:9769  address public owner */\n    tag_27:\n      0x02\n      0x00\n      swap1\n      sload\n      swap1\n      0x0100\n      exp\n      swap1\n      div\n      0xffffffffffffffffffffffffffffffffffffffff\n      and\n      dup2\n      jump\t// out\n        /* \"#utility.yul\":88:205   */\n    tag_46:\n        /* \"#utility.yul\":197:198   */\n      0x00\n        /* \"#utility.yul\":194:195   */\n      0x00\n        /* \"#utility.yul\":187:199   */\n      revert\n        /* \"#utility.yul\":334:411   */\n    tag_48:\n        /* \"#utility.yul\":371:378   */\n      0x00\n        /* \"#utility.yul\":400:405   */\n      dup2\n        /* \"#utility.yul\":389:405   */\n      swap1\n      pop\n        /* \"#utility.yul\":334:411   */\n      swap2\n      swap1\n      pop\n      jump\t// out\n        /* \"#utility.yul\":417:539   */\n    tag_49:\n        /* \"#utility.yul\":490:514   */\n      tag_65\n        /* \"#utility.yul\":508:513   */\n      dup2\n        /* \"#utility.yul\":490:514   */\n      tag_48\n      jump\t// in\n    tag_65:\n        /* \"#utility.yul\":483:488   */\n      dup2\n        /* \"#utility.yul\":480:515   */\n      eq\n        /* \"#utility.yul\":470:533   */\n      tag_66\n      jumpi\n        /* \"#utility.yul\":529:530   */\n      0x00\n        /* \"#utility.yul\":526:527   */\n      0x00\n        /* \"#utility.yul\":519:531   */\n      revert\n        /* \"#utility.yul\":470:533   */\n    tag_66:\n        /* \"#utility.yul\":417:539   */\n      pop\n      jump\t// out\n        /* \"#utility.yul\":545:684   */\n    tag_50:\n        /* \"#utility.yul\":591:596   */\n      0x00\n        /* \"#utility.yul\":629:635   */\n      dup2\n        /* \"#utility.yul\":616:636   */\n      calldataload\n        /* \"#utility.yul\":607:636   */\n      swap1\n      pop\n        /* \"#utility.yul\":645:678   */\n      tag_68\n        /* \"#utility.yul\":672:677   */\n      dup2\n        /* \"#utility.yul\":645:678   */\n      tag_49\n      jump\t// in\n    tag_68:\n        /* \"#utility.yul\":545:684   */\n      swap3\n      swap2\n      pop\n      pop\n      jump\t// out\n        /* \"#utility.yul\":690:1019   */\n    tag_11:\n        /* \"#utility.yul\":749:755   */\n      0x00\n        /* \"#utility.yul\":798:800   */\n      0x20\n        /* \"#utility.yul\":786:795   */\n      dup3\n        /* \"#utility.yul\":777:784   */\n      dup5\n        /* \"#utility.yul\":773:796   */\n      sub\n        /* \"#utility.yul\":769:801   */\n      slt\n        /* \"#utility.yul\":766:885   */\n      iszero\n      tag_70\n      jumpi\n        /* \"#utility.yul\":804:883   */\n      tag_71\n      tag_46\n      jump\t// in\n    tag_71:\n        /* \"#utility.yul\":766:885   */\n    tag_70:\n        /* \"#utility.yul\":924:925   */\n      0x00\n        /* \"#utility.yul\":949:1002   */\n      tag_72\n        /* \"#utility.yul\":994:1001   */\n      dup5\n        /* \"#utility.yul\":985:991   */\n      dup3\n        /* \"#utility.yul\":974:983   */\n      dup6\n        /* \"#utility.yul\":970:992   */\n      add\n        /* \"#utility.yul\":949:1002   */\n      tag_50\n      jump\t// in\n    tag_72:\n        /* \"#utility.yul\":939:1002   */\n      swap2\n      pop\n        /* \"#utility.yul\":895:1012   */\n      pop\n        /* \"#utility.yul\":690:1019   */\n      swap3\n      swap2\n      pop\n      pop\n      jump\t// out\n        /* \"#utility.yul\":1025:1143   */\n    tag_51:\n        /* \"#utility.yul\":1112:1136   */\n      tag_74\n        /* \"#utility.yul\":1130:1135   */\n      dup2\n        /* \"#utility.yul\":1112:1136   */\n      tag_48\n      jump\t// in\n    tag_74:\n        /* \"#utility.yul\":1107:1110   */\n      dup3\n        /* \"#utility.yul\":1100:1137   */\n      mstore\n        /* \"#utility.yul\":1025:1143   */\n      pop\n      pop\n      jump\t// out\n        /* \"#utility.yul\":1149:1371   */\n    tag_16:\n        /* \"#utility.yul\":1242:1246   */\n      0x00\n        /* \"#utility.yul\":1280:1282   */\n      0x20\n        /* \"#utility.yul\":1269:1278   */\n      dup3\n        /* \"#utility.yul\":1265:1283   */\n      add\n        /* \"#utility.yul\":1257:1283   */\n      swap1\n      pop\n        /* \"#utility.yul\":1293:1364   */\n      tag_76\n        /* \"#utility.yul\":1361:1362   */\n      0x00\n        /* \"#utility.yul\":1350:1359   */\n      dup4\n        /* \"#utility.yul\":1346:1363   */\n      add\n        /* \"#utility.yul\":1337:1343   */\n      dup5\n        /* \"#utility.yul\":1293:1364   */\n      tag_51\n      jump\t// in\n    tag_76:\n        /* \"#utility.yul\":1149:1371   */\n      swap3\n      swap2\n      pop\n      pop\n      jump\t// out\n        /* \"#utility.yul\":1377:1503   */\n    tag_52:\n        /* \"#utility.yul\":1414:1421   */\n      0x00\n        /* \"#utility.yul\":1454:1496   */\n      0xffffffffffffffffffffffffffffffffffffffff\n        /* \"#utility.yul\":1447:1452   */\n      dup3\n        /* \"#utility.yul\":1443:1497   */\n      and\n        /* \"#utility.yul\":1432:1497   */\n      swap1\n      pop\n        /* \"#utility.yul\":1377:1503   */\n      swap2\n      swap1\n      pop\n      jump\t// out\n        /* \"#utility.yul\":1509:1605   */\n    tag_53:\n        /* \"#utility.yul\":1546:1553   */\n      0x00\n        /* \"#utility.yul\":1575:1599   */\n      tag_79\n        /* \"#utility.yul\":1593:1598   */\n      dup3\n        /* \"#utility.yul\":1575:1599   */\n      tag_52\n      jump\t// in\n    tag_79:\n        /* \"#utility.yul\":1564:1599   */\n      swap1\n      pop\n        /* \"#utility.yul\":1509:1605   */\n      swap2\n      swap1\n      pop\n      jump\t// out\n        /* \"#utility.yul\":1611:1729   */\n    tag_54:\n        /* \"#utility.yul\":1698:1722   */\n      tag_81\n        /* \"#utility.yul\":1716:1721   */\n      dup2\n        /* \"#utility.yul\":1698:1722   */\n      tag_53\n      jump\t// in\n    tag_81:\n        /* \"#utility.yul\":1693:1696   */\n      dup3\n        /* \"#utility.yul\":1686:1723   */\n      mstore\n        /* \"#utility.yul\":1611:1729   */\n      pop\n      pop\n      jump\t// out\n        /* \"#utility.yul\":1735:1957   */\n    tag_29:\n        /* \"#utility.yul\":1828:1832   */\n      0x00\n        /* \"#utility.yul\":1866:1868   */\n      0x20\n        /* \"#utility.yul\":1855:1864   */\n      dup3\n        /* \"#utility.yul\":1851:1869   */\n      add\n        /* \"#utility.yul\":1843:1869   */\n      swap1\n      pop\n        /* \"#utility.yul\":1879:1950   */\n      tag_83\n        /* \"#utility.yul\":1947:1948   */\n      0x00\n        /* \"#utility.yul\":1936:1945   */\n      dup4\n        /* \"#utility.yul\":1932:1949   */\n      add\n        /* \"#utility.yul\":1923:1929   */\n      dup5\n        /* \"#utility.yul\":1879:1950   */\n      tag_54\n      jump\t// in\n    tag_83:\n        /* \"#utility.yul\":1735:1957   */\n      swap3\n      swap2\n      pop\n      pop\n      jump\t// out\n        /* \"#utility.yul\":1963:2132   */\n    tag_55:\n        /* \"#utility.yul\":2047:2058   */\n      0x00\n        /* \"#utility.yul\":2081:2087   */\n      dup3\n        /* \"#utility.yul\":2076:2079   */\n      dup3\n        /* \"#utility.yul\":2069:2088   */\n      mstore\n        /* \"#utility.yul\":2121:2125   */\n      0x20\n        /* \"#utility.yul\":2116:2119   */\n      dup3\n        /* \"#utility.yul\":2112:2126   */\n      add\n        /* \"#utility.yul\":2097:2126   */\n      swap1\n      pop\n        /* \"#utility.yul\":1963:2132   */\n      swap3\n      swap2\n      pop\n      pop\n      jump\t// out\n        /* \"#utility.yul\":2138:2297   */\n    tag_56:\n        /* \"#utility.yul\":2278:2289   */\n      0x4e6f74206f776e65720000000000000000000000000000000000000000000000\n        /* \"#utility.yul\":2274:2275   */\n      0x00\n        /* \"#utility.yul\":2266:2272   */\n      dup3\n        /* \"#utility.yul\":2262:2276   */\n      add\n        /* \"#utility.yul\":2255:2290   */\n      mstore\n        /* \"#utility.yul\":2138:2297   */\n      pop\n      jump\t// out\n        /* \"#utility.yul\":2303:2668   */\n    tag_57:\n        /* \"#utility.yul\":2445:2448   */\n      0x00\n        /* \"#utility.yul\":2466:2532   */\n      tag_87\n        /* \"#utility.yul\":2530:2531   */\n      0x09\n        /* \"#utility.yul\":2525:2528   */\n      dup4\n        /* \"#utility.yul\":2466:2532   */\n      tag_55\n      jump\t// in\n    tag_87:\n        /* \"#utility.yul\":2459:2532   */\n      swap2\n      pop\n        /* \"#utility.yul\":2541:2634   */\n      tag_88\n        /* \"#utility.yul\":2630:2633   */\n      dup3\n        /* \"#utility.yul\":2541:2634   */\n      tag_56\n      jump\t// in\n    tag_88:\n        /* \"#utility.yul\":2659:2661   */\n      0x20\n        /* \"#utility.yul\":2654:2657   */\n      dup3\n        /* \"#utility.yul\":2650:2662   */\n      add\n        /* \"#utility.yul\":2643:2662   */\n      swap1\n      pop\n        /* \"#utility.yul\":2303:2668   */\n      swap2\n      swap1\n      pop\n      jump\t// out\n        /* \"#utility.yul\":2674:3093   */\n    tag_33:\n        /* \"#utility.yul\":2840:2844   */\n      0x00\n        /* \"#utility.yul\":2878:2880   */\n      0x20\n        /* \"#utility.yul\":2867:2876   */\n      dup3\n        /* \"#utility.yul\":2863:2881   */\n      add\n        /* \"#utility.yul\":2855:2881   */\n      swap1\n      pop\n        /* \"#utility.yul\":2927:2936   */\n      dup2\n        /* \"#utility.yul\":2921:2925   */\n      dup2\n        /* \"#utility.yul\":2917:2937   */\n      sub\n        /* \"#utility.yul\":2913:2914   */\n      0x00\n        /* \"#utility.yul\":2902:2911   */\n      dup4\n        /* \"#utility.yul\":2898:2915   */\n      add\n        /* \"#utility.yul\":2891:2938   */\n      mstore\n        /* \"#utility.yul\":2955:3086   */\n      tag_90\n        /* \"#utility.yul\":3081:3085   */\n      dup2\n        /* \"#utility.yul\":2955:3086   */\n      tag_57\n      jump\t// in\n    tag_90:\n        /* \"#utility.yul\":2947:3086   */\n      swap1\n      pop\n        /* \"#utility.yul\":2674:3093   */\n      swap2\n      swap1\n      pop\n      jump\t// out\n        /* \"#utility.yul\":3099:3279   */\n    tag_58:\n        /* \"#utility.yul\":3147:3224   */\n      0x4e487b7100000000000000000000000000000000000000000000000000000000\n        /* \"#utility.yul\":3144:3145   */\n      0x00\n        /* \"#utility.yul\":3137:3225   */\n      mstore\n        /* \"#utility.yul\":3244:3248   */\n      0x11\n        /* \"#utility.yul\":3241:3242   */\n      0x04\n        /* \"#utility.yul\":3234:3249   */\n      mstore\n        /* \"#utility.yul\":3268:3272   */\n      0x24\n        /* \"#utility.yul\":3265:3266   */\n      0x00\n        /* \"#utility.yul\":3258:3273   */\n      revert\n        /* \"#utility.yul\":3285:3476   */\n    tag_36:\n        /* \"#utility.yul\":3325:3328   */\n      0x00\n        /* \"#utility.yul\":3344:3364   */\n      tag_93\n        /* \"#utility.yul\":3362:3363   */\n      dup3\n        /* \"#utility.yul\":3344:3364   */\n      tag_48\n      jump\t// in\n    tag_93:\n        /* \"#utility.yul\":3339:3364   */\n      swap2\n      pop\n        /* \"#utility.yul\":3378:3398   */\n      tag_94\n        /* \"#utility.yul\":3396:3397   */\n      dup4\n        /* \"#utility.yul\":3378:3398   */\n      tag_48\n      jump\t// in\n    tag_94:\n        /* \"#utility.yul\":3373:3398   */\n      swap3\n      pop\n        /* \"#utility.yul\":3421:3422   */\n      dup3\n        /* \"#utility.yul\":3418:3419   */\n      dup3\n        /* \"#utility.yul\":3414:3423   */\n      add\n        /* \"#utility.yul\":3407:3423   */\n      swap1\n      pop\n        /* \"#utility.yul\":3442:3445   */\n      dup1\n        /* \"#utility.yul\":3439:3440   */\n      dup3\n        /* \"#utility.yul\":3436:3446   */\n      gt\n        /* \"#utility.yul\":3433:3469   */\n      iszero\n      tag_95\n      jumpi\n        /* \"#utility.yul\":3449:3467   */\n      tag_96\n      tag_58\n      jump\t// in\n    tag_96:\n        /* \"#utility.yul\":3433:3469   */\n    tag_95:\n        /* \"#utility.yul\":3285:3476   */\n      swap3\n      swap2\n      pop\n      pop\n      jump\t// out\n        /* \"#utility.yul\":3482:3814   */\n    tag_38:\n        /* \"#utility.yul\":3603:3607   */\n      0x00\n        /* \"#utility.yul\":3641:3643   */\n      0x40\n        /* \"#utility.yul\":3630:3639   */\n      dup3\n        /* \"#utility.yul\":3626:3644   */\n      add\n        /* \"#utility.yul\":3618:3644   */\n      swap1\n      pop\n        /* \"#utility.yul\":3654:3725   */\n      tag_98\n        /* \"#utility.yul\":3722:3723   */\n      0x00\n        /* \"#utility.yul\":3711:3720   */\n      dup4\n        /* \"#utility.yul\":3707:3724   */\n      add\n        /* \"#utility.yul\":3698:3704   */\n      dup6\n        /* \"#utility.yul\":3654:3725   */\n      tag_51\n      jump\t// in\n    tag_98:\n        /* \"#utility.yul\":3735:3807   */\n      tag_99\n        /* \"#utility.yul\":3803:3805   */\n      0x20\n        /* \"#utility.yul\":3792:3801   */\n      dup4\n        /* \"#utility.yul\":3788:3806   */\n      add\n        /* \"#utility.yul\":3779:3785   */\n      dup5\n        /* \"#utility.yul\":3735:3807   */\n      tag_51\n      jump\t// in\n    tag_99:\n        /* \"#utility.yul\":3482:3814   */\n      swap4\n      swap3\n      pop\n      pop\n      pop\n      jump\t// out\n\n    auxdata: 0xa2646970667358221220044ffd4ff348715cc58825146472dd8a093aff622815e922aa54e879517a134664736f6c63430008220033\n}\n",
				"bytecode": {
					"linkReferences": {},
					"object": "6080604052348015600e575f5ffd5b503360025f6101000a81548173ffffffffffffffffffffffffffffffffffffffff021916908373ffffffffffffffffffffffffffffffffffffffff1602179055506105278061005c5f395ff3fe608060405234801561000f575f5ffd5b5060043610610060575f3560e01c8063160ef8071461006457806320965255146100805780633fa4f2451461009e57806355be478a146100bc578063573c0bd3146100da5780638da5cb5b146100f6575b5f5ffd5b61007e60048036038101906100799190610347565b610114565b005b6100886101fc565b6040516100959190610381565b60405180910390f35b6100a6610204565b6040516100b39190610381565b60405180910390f35b6100c4610209565b6040516100d19190610381565b60405180910390f35b6100f460048036038101906100ef9190610347565b61020f565b005b6100fe6102eb565b60405161010b91906103d9565b60405180910390f35b60025f9054906101000a900473ffffffffffffffffffffffffffffffffffffffff1673ffffffffffffffffffffffffffffffffffffffff163373ffffffffffffffffffffffffffffffffffffffff16146101a3576040517f08c379a000000000000000000000000000000000000000000000000000000000815260040161019a9061044c565b60405180910390fd5b5f54600181905550805f546101b89190610497565b5f819055507f253ac2c290fb3c37b20cfd60899ed86c0c8313905edc8ca53ec8d2b69d9919ad6001545f546040516101f19291906104ca565b60405180910390a150565b5f5f54905090565b5f5481565b60015481565b60025f9054906101000a900473ffffffffffffffffffffffffffffffffffffffff1673ffffffffffffffffffffffffffffffffffffffff163373ffffffffffffffffffffffffffffffffffffffff161461029e576040517f08c379a00000000000000000000000000000000000000000000000000000000081526004016102959061044c565b60405180910390fd5b5f54600181905550805f819055507f253ac2c290fb3c37b20cfd60899ed86c0c8313905edc8ca53ec8d2b69d9919ad6001545f546040516102e09291906104ca565b60405180910390a150565b60025f9054906101000a900473ffffffffffffffffffffffffffffffffffffffff1681565b5f5ffd5b5f819050919050565b61032681610314565b8114610330575f5ffd5b50565b5f813590506103418161031d565b92915050565b5f6020828403121561035c5761035b610310565b5b5f61036984828501610333565b91505092915050565b61037b81610314565b82525050565b5f6020820190506103945f830184610372565b92915050565b5f73ffffffffffffffffffffffffffffffffffffffff82169050919050565b5f6103c38261039a565b9050919050565b6103d3816103b9565b82525050565b5f6020820190506103ec5f8301846103ca565b92915050565b5f82825260208201905092915050565b7f4e6f74206f776e657200000000000000000000000000000000000000000000005f82015250565b5f6104366009836103f2565b915061044182610402565b602082019050919050565b5f6020820190508181035f8301526104638161042a565b9050919050565b7f4e487b71000000000000000000000000000000000000000000000000000000005f52601160045260245ffd5b5f6104a182610314565b91506104ac83610314565b92508282019050808211156104c4576104c361046a565b5b92915050565b5f6040820190506104dd5f830185610372565b6104ea6020830184610372565b939250505056fea2646970667358221220044ffd4ff348715cc58825146472dd8a093aff622815e922aa54e879517a134664736f6c63430008220033",
					"opcodes": "PUSH1 0x80 PUSH1 0x40 MSTORE CALLVALUE DUP1 ISZERO PUSH1 0xE JUMPI PUSH0 PUSH0 REVERT JUMPDEST POP CALLER PUSH1 0x2 PUSH0 PUSH2 0x100 EXP DUP2 SLOAD DUP2 PUSH20 0xFFFFFFFFFFFFFFFFFFFFFFFFFFFFFFFFFFFFFFFF MUL NOT AND SWAP1 DUP4 PUSH20 0xFFFFFFFFFFFFFFFFFFFFFFFFFFFFFFFFFFFFFFFF AND MUL OR SWAP1 SSTORE POP PUSH2 0x527 DUP1 PUSH2 0x5C PUSH0 CODECOPY PUSH0 RETURN INVALID PUSH1 0x80 PUSH1 0x40 MSTORE CALLVALUE DUP1 ISZERO PUSH2 0xF JUMPI PUSH0 PUSH0 REVERT JUMPDEST POP PUSH1 0x4 CALLDATASIZE LT PUSH2 0x60 JUMPI PUSH0 CALLDATALOAD PUSH1 0xE0 SHR DUP1 PUSH4 0x160EF807 EQ PUSH2 0x64 JUMPI DUP1 PUSH4 0x20965255 EQ PUSH2 0x80 JUMPI DUP1 PUSH4 0x3FA4F245 EQ PUSH2 0x9E JUMPI DUP1 PUSH4 0x55BE478A EQ PUSH2 0xBC JUMPI DUP1 PUSH4 0x573C0BD3 EQ PUSH2 0xDA JUMPI DUP1 PUSH4 0x8DA5CB5B EQ PUSH2 0xF6 JUMPI JUMPDEST PUSH0 PUSH0 REVERT JUMPDEST PUSH2 0x7E PUSH1 0x4 DUP1 CALLDATASIZE SUB DUP2 ADD SWAP1 PUSH2 0x79 SWAP2 SWAP1 PUSH2 0x347 JUMP JUMPDEST PUSH2 0x114 JUMP JUMPDEST STOP JUMPDEST PUSH2 0x88 PUSH2 0x1FC JUMP JUMPDEST PUSH1 0x40 MLOAD PUSH2 0x95 SWAP2 SWAP1 PUSH2 0x381 JUMP JUMPDEST PUSH1 0x40 MLOAD DUP1 SWAP2 SUB SWAP1 RETURN JUMPDEST PUSH2 0xA6 PUSH2 0x204 JUMP JUMPDEST PUSH1 0x40 MLOAD PUSH2 0xB3 SWAP2 SWAP1 PUSH2 0x381 JUMP JUMPDEST PUSH1 0x40 MLOAD DUP1 SWAP2 SUB SWAP1 RETURN JUMPDEST PUSH2 0xC4 PUSH2 0x209 JUMP JUMPDEST PUSH1 0x40 MLOAD PUSH2 0xD1 SWAP2 SWAP1 PUSH2 0x381 JUMP JUMPDEST PUSH1 0x40 MLOAD DUP1 SWAP2 SUB SWAP1 RETURN JUMPDEST PUSH2 0xF4 PUSH1 0x4 DUP1 CALLDATASIZE SUB DUP2 ADD SWAP1 PUSH2 0xEF SWAP2 SWAP1 PUSH2 0x347 JUMP JUMPDEST PUSH2 0x20F JUMP JUMPDEST STOP JUMPDEST PUSH2 0xFE PUSH2 0x2EB JUMP JUMPDEST PUSH1 0x40 MLOAD PUSH2 0x10B SWAP2 SWAP1 PUSH2 0x3D9 JUMP JUMPDEST PUSH1 0x40 MLOAD DUP1 SWAP2 SUB SWAP1 RETURN JUMPDEST PUSH1 0x2 PUSH0 SWAP1 SLOAD SWAP1 PUSH2 0x100 EXP SWAP1 DIV PUSH20 0xFFFFFFFFFFFFFFFFFFFFFFFFFFFFFFFFFFFFFFFF AND PUSH20 0xFFFFFFFFFFFFFFFFFFFFFFFFFFFFFFFFFFFFFFFF AND CALLER PUSH20 0xFFFFFFFFFFFFFFFFFFFFFFFFFFFFFFFFFFFFFFFF AND EQ PUSH2 0x1A3 JUMPI PUSH1 0x40 MLOAD PUSH32 0x8C379A000000000000000000000000000000000000000000000000000000000 DUP2 MSTORE PUSH1 0x4 ADD PUSH2 0x19A SWAP1 PUSH2 0x44C JUMP JUMPDEST PUSH1 0x40 MLOAD DUP1 SWAP2 SUB SWAP1 REVERT JUMPDEST PUSH0 SLOAD PUSH1 0x1 DUP2 SWAP1 SSTORE POP DUP1 PUSH0 SLOAD PUSH2 0x1B8 SWAP2 SWAP1 PUSH2 0x497 JUMP JUMPDEST PUSH0 DUP2 SWAP1 SSTORE POP PUSH32 0x253AC2C290FB3C37B20CFD60899ED86C0C8313905EDC8CA53EC8D2B69D9919AD PUSH1 0x1 SLOAD PUSH0 SLOAD PUSH1 0x40 MLOAD PUSH2 0x1F1 SWAP3 SWAP2 SWAP1 PUSH2 0x4CA JUMP JUMPDEST PUSH1 0x40 MLOAD DUP1 SWAP2 SUB SWAP1 LOG1 POP JUMP JUMPDEST PUSH0 PUSH0 SLOAD SWAP1 POP SWAP1 JUMP JUMPDEST PUSH0 SLOAD DUP2 JUMP JUMPDEST PUSH1 0x1 SLOAD DUP2 JUMP JUMPDEST PUSH1 0x2 PUSH0 SWAP1 SLOAD SWAP1 PUSH2 0x100 EXP SWAP1 DIV PUSH20 0xFFFFFFFFFFFFFFFFFFFFFFFFFFFFFFFFFFFFFFFF AND PUSH20 0xFFFFFFFFFFFFFFFFFFFFFFFFFFFFFFFFFFFFFFFF AND CALLER PUSH20 0xFFFFFFFFFFFFFFFFFFFFFFFFFFFFFFFFFFFFFFFF AND EQ PUSH2 0x29E JUMPI PUSH1 0x40 MLOAD PUSH32 0x8C379A000000000000000000000000000000000000000000000000000000000 DUP2 MSTORE PUSH1 0x4 ADD PUSH2 0x295 SWAP1 PUSH2 0x44C JUMP JUMPDEST PUSH1 0x40 MLOAD DUP1 SWAP2 SUB SWAP1 REVERT JUMPDEST PUSH0 SLOAD PUSH1 0x1 DUP2 SWAP1 SSTORE POP DUP1 PUSH0 DUP2 SWAP1 SSTORE POP PUSH32 0x253AC2C290FB3C37B20CFD60899ED86C0C8313905EDC8CA53EC8D2B69D9919AD PUSH1 0x1 SLOAD PUSH0 SLOAD PUSH1 0x40 MLOAD PUSH2 0x2E0 SWAP3 SWAP2 SWAP1 PUSH2 0x4CA JUMP JUMPDEST PUSH1 0x40 MLOAD DUP1 SWAP2 SUB SWAP1 LOG1 POP JUMP JUMPDEST PUSH1 0x2 PUSH0 SWAP1 SLOAD SWAP1 PUSH2 0x100 EXP SWAP1 DIV PUSH20 0xFFFFFFFFFFFFFFFFFFFFFFFFFFFFFFFFFFFFFFFF AND DUP2 JUMP JUMPDEST PUSH0 PUSH0 REVERT JUMPDEST PUSH0 DUP2 SWAP1 POP SWAP2 SWAP1 POP JUMP JUMPDEST PUSH2 0x326 DUP2 PUSH2 0x314 JUMP JUMPDEST DUP2 EQ PUSH2 0x330 JUMPI PUSH0 PUSH0 REVERT JUMPDEST POP JUMP JUMPDEST PUSH0 DUP2 CALLDATALOAD SWAP1 POP PUSH2 0x341 DUP2 PUSH2 0x31D JUMP JUMPDEST SWAP3 SWAP2 POP POP JUMP JUMPDEST PUSH0 PUSH1 0x20 DUP3 DUP5 SUB SLT ISZERO PUSH2 0x35C JUMPI PUSH2 0x35B PUSH2 0x310 JUMP JUMPDEST JUMPDEST PUSH0 PUSH2 0x369 DUP5 DUP3 DUP6 ADD PUSH2 0x333 JUMP JUMPDEST SWAP2 POP POP SWAP3 SWAP2 POP POP JUMP JUMPDEST PUSH2 0x37B DUP2 PUSH2 0x314 JUMP JUMPDEST DUP3 MSTORE POP POP JUMP JUMPDEST PUSH0 PUSH1 0x20 DUP3 ADD SWAP1 POP PUSH2 0x394 PUSH0 DUP4 ADD DUP5 PUSH2 0x372 JUMP JUMPDEST SWAP3 SWAP2 POP POP JUMP JUMPDEST PUSH0 PUSH20 0xFFFFFFFFFFFFFFFFFFFFFFFFFFFFFFFFFFFFFFFF DUP3 AND SWAP1 POP SWAP2 SWAP1 POP JUMP JUMPDEST PUSH0 PUSH2 0x3C3 DUP3 PUSH2 0x39A JUMP JUMPDEST SWAP1 POP SWAP2 SWAP1 POP JUMP JUMPDEST PUSH2 0x3D3 DUP2 PUSH2 0x3B9 JUMP JUMPDEST DUP3 MSTORE POP POP JUMP JUMPDEST PUSH0 PUSH1 0x20 DUP3 ADD SWAP1 POP PUSH2 0x3EC PUSH0 DUP4 ADD DUP5 PUSH2 0x3CA JUMP JUMPDEST SWAP3 SWAP2 POP POP JUMP JUMPDEST PUSH0 DUP3 DUP3 MSTORE PUSH1 0x20 DUP3 ADD SWAP1 POP SWAP3 SWAP2 POP POP JUMP JUMPDEST PUSH32 0x4E6F74206F776E65720000000000000000000000000000000000000000000000 PUSH0 DUP3 ADD MSTORE POP JUMP JUMPDEST PUSH0 PUSH2 0x436 PUSH1 0x9 DUP4 PUSH2 0x3F2 JUMP JUMPDEST SWAP2 POP PUSH2 0x441 DUP3 PUSH2 0x402 JUMP JUMPDEST PUSH1 0x20 DUP3 ADD SWAP1 POP SWAP2 SWAP1 POP JUMP JUMPDEST PUSH0 PUSH1 0x20 DUP3 ADD SWAP1 POP DUP2 DUP2 SUB PUSH0 DUP4 ADD MSTORE PUSH2 0x463 DUP2 PUSH2 0x42A JUMP JUMPDEST SWAP1 POP SWAP2 SWAP1 POP JUMP JUMPDEST PUSH32 0x4E487B7100000000000000000000000000000000000000000000000000000000 PUSH0 MSTORE PUSH1 0x11 PUSH1 0x4 MSTORE PUSH1 0x24 PUSH0 REVERT JUMPDEST PUSH0 PUSH2 0x4A1 DUP3 PUSH2 0x314 JUMP JUMPDEST SWAP2 POP PUSH2 0x4AC DUP4 PUSH2 0x314 JUMP JUMPDEST SWAP3 POP DUP3 DUP3 ADD SWAP1 POP DUP1 DUP3 GT ISZERO PUSH2 0x4C4 JUMPI PUSH2 0x4C3 PUSH2 0x46A JUMP JUMPDEST JUMPDEST SWAP3 SWAP2 POP POP JUMP JUMPDEST PUSH0 PUSH1 0x40 DUP3 ADD SWAP1 POP PUSH2 0x4DD PUSH0 DUP4 ADD DUP6 PUSH2 0x372 JUMP JUMPDEST PUSH2 0x4EA PUSH1 0x20 DUP4 ADD DUP5 PUSH2 0x372 JUMP JUMPDEST SWAP4 SWAP3 POP POP POP JUMP INVALID LOG2 PUSH5 0x6970667358 0x22 SLT KECCAK256 DIV 0x4F REVERT 0x4F RETURN BASEFEE PUSH18 0x5CC58825146472DD8A093AFF622815E922AA SLOAD 0xE8 PUSH26 0x517A134664736F6C634300082200330000000000000000000000 "
				},
				"gasEstimates": {
					"creation": {
						"codeDepositCost": "263800",
						"executionCost": "24569",
						"totalCost": "288369"
					},
					"external": {
						"getValue()": "2431",
						"increaseValue(uint256)": "infinite",
						"owner()": "2596",
						"previousValue()": "2469",
						"updateValue(uint256)": "infinite",
						"value()": "2446"
					}
				},
				"methodIdentifiers": {
					"getValue()": "20965255",
					"increaseValue(uint256)": "160ef807",
					"owner()": "8da5cb5b",
					"previousValue()": "55be478a",
					"updateValue(uint256)": "573c0bd3",
					"value()": "3fa4f245"
				}
			},
			"storageLayout": {
				"storage": [
					{
						"astId": 36,
						"contract": "prac14.sol:StateMutation",
						"label": "value",
						"offset": 0,
						"slot": "0",
						"type": "t_uint256"
					},
					{
						"astId": 38,
						"contract": "prac14.sol:StateMutation",
						"label": "previousValue",
						"offset": 0,
						"slot": "1",
						"type": "t_uint256"
					},
					{
						"astId": 40,
						"contract": "prac14.sol:StateMutation",
						"label": "owner",
						"offset": 0,
						"slot": "2",
						"type": "t_address"
					}
				],
				"types": {
					"t_address": {
						"encoding": "inplace",
						"label": "address",
						"numberOfBytes": "20"
					},
					"t_uint256": {
						"encoding": "inplace",
						"label": "uint256",
						"numberOfBytes": "32"
					}
				}
			},
			"userdoc": {
				"kind": "user",
				"methods": {},
				"version": 1
			}
		}
	}
}