{
	"prac18.sol": {
		"MemoryArray": {
			"abi": [
				{
					"inputs": [],
					"name": "MAX_ARRAY_SIZE",
					"outputs": [
						{
							"internalType": "uint256",
							"name": "",
							"type": "uint256"
						}
					],
					"stateMutability": "view",
					"type": "function"
				},
				{
					"inputs": [
						{
							"internalType": "uint256",
							"name": "_number",
							"type": "uint256"
						}
					],
					"name": "calculateSquares",
					"outputs": [
						{
							"internalType": "uint256[]",
							"name": "",
							"type": "uint256[]"
						}
					],
					"stateMutability": "pure",
					"type": "function"
				},
				{
					"inputs": [
						{
							"internalType": "uint256",
							"name": "size",
							"type": "uint256"
						}
					],
					"name": "createMemoryArray",
					"outputs": [
						{
							"internalType": "uint256[]",
							"name": "",
							"type": "uint256[]"
						}
					],
					"stateMutability": "pure",
					"type": "function"
				},
				{
					"inputs": [
						{
							"internalType": "uint256",
							"name": "_value",
							"type": "uint256"
						}
					],
					"name": "storeValue",
					"outputs": [],
					"stateMutability": "nonpayable",
					"type": "function"
				},
				{
					"inputs": [
						{
							"internalType": "uint256",
							"name": "",
							"type": "uint256"
						}
					],
					"name": "storedNumbers",
					"outputs": [
						{
							"internalType": "uint256",
							"name": "",
							"type": "uint256"
						}
					],
					"stateMutability": "view",
					"type": "function"
				}
			],
			"devdoc": {
				"kind": "dev",
				"methods": {},
				"version": 1
			},
			"evm": {
				"assembly": "    /* \"prac18.sol\":10859:11890  contract MemoryArray {... */\n  mstore(0x40, 0x80)\n  callvalue\n  dup1\n  iszero\n  tag_1\n  jumpi\n  revert(0x00, 0x00)\ntag_1:\n  pop\n  dataSize(sub_0)\n  dup1\n  dataOffset(sub_0)\n  0x00\n  codecopy\n  0x00\n  return\nstop\n\nsub_0: assembly {\n        /* \"prac18.sol\":10859:11890  contract MemoryArray {... */\n      mstore(0x40, 0x80)\n      callvalue\n      dup1\n      iszero\n      tag_1\n      jumpi\n      revert(0x00, 0x00)\n    tag_1:\n      pop\n      jumpi(tag_2, lt(calldatasize, 0x04))\n      shr(0xe0, calldataload(0x00))\n      dup1\n      0x3b1f0cd0\n      eq\n      tag_3\n      jumpi\n      dup1\n      0x6d236703\n      eq\n      tag_4\n      jumpi\n      dup1\n      0x7221a26a\n      eq\n      tag_5\n      jumpi\n      dup1\n      0xaf7efa7c\n      eq\n      tag_6\n      jumpi\n      dup1\n      0xf0569df3\n      eq\n      tag_7\n      jumpi\n    tag_2:\n      revert(0x00, 0x00)\n        /* \"prac18.sol\":10889:10919  uint256[] public storedNumbers */\n    tag_3:\n      tag_8\n      0x04\n      dup1\n      calldatasize\n      sub\n      dup2\n      add\n      swap1\n      tag_9\n      swap2\n      swap1\n      tag_10\n      jump\t// in\n    tag_9:\n      tag_11\n      jump\t// in\n    tag_8:\n      mload(0x40)\n      tag_12\n      swap2\n      swap1\n      tag_13\n      jump\t// in\n    tag_12:\n      mload(0x40)\n      dup1\n      swap2\n      sub\n      swap1\n      return\n        /* \"prac18.sol\":10981:11412  function createMemoryArray(... */\n    tag_4:\n      tag_14\n      0x04\n      dup1\n      calldatasize\n      sub\n      dup2\n      add\n      swap1\n      tag_15\n      swap2\n      swap1\n      tag_10\n      jump\t// in\n    tag_15:\n      tag_16\n      jump\t// in\n    tag_14:\n      mload(0x40)\n      tag_17\n      swap2\n      swap1\n      tag_18\n      jump\t// in\n    tag_17:\n      mload(0x40)\n      dup1\n      swap2\n      sub\n      swap1\n      return\n        /* \"prac18.sol\":11785:11887  function storeValue(uint256 _value)... */\n    tag_5:\n      tag_19\n      0x04\n      dup1\n      calldatasize\n      sub\n      dup2\n      add\n      swap1\n      tag_20\n      swap2\n      swap1\n      tag_10\n      jump\t// in\n    tag_20:\n      tag_21\n      jump\t// in\n    tag_19:\n      stop\n        /* \"prac18.sol\":10928:10972  uint256 public constant MAX_ARRAY_SIZE = 100 */\n    tag_6:\n      tag_22\n      tag_23\n      jump\t// in\n    tag_22:\n      mload(0x40)\n      tag_24\n      swap2\n      swap1\n      tag_13\n      jump\t// in\n    tag_24:\n      mload(0x40)\n      dup1\n      swap2\n      sub\n      swap1\n      return\n        /* \"prac18.sol\":11420:11777  function calculateSquares(... */\n    tag_7:\n      tag_25\n      0x04\n      dup1\n      calldatasize\n      sub\n      dup2\n      add\n      swap1\n      tag_26\n      swap2\n      swap1\n      tag_10\n      jump\t// in\n    tag_26:\n      tag_27\n      jump\t// in\n    tag_25:\n      mload(0x40)\n      tag_28\n      swap2\n      swap1\n      tag_18\n      jump\t// in\n    tag_28:\n      mload(0x40)\n      dup1\n      swap2\n      sub\n      swap1\n      return\n        /* \"prac18.sol\":10889:10919  uint256[] public storedNumbers */\n    tag_11:\n      0x00\n      dup2\n      dup2\n      sload\n      dup2\n      lt\n      tag_29\n      jumpi\n      0x00\n      dup1\n      revert\n    tag_29:\n      swap1\n      0x00\n      mstore\n      keccak256(0x00, 0x20)\n      add\n      0x00\n      swap2\n      pop\n      swap1\n      pop\n      sload\n      dup2\n      jump\t// out\n        /* \"prac18.sol\":10981:11412  function createMemoryArray(... */\n    tag_16:\n        /* \"prac18.sol\":11086:11102  uint256[] memory */\n      0x60\n        /* \"prac18.sol\":10969:10972  100 */\n      0x64\n        /* \"prac18.sol\":11142:11146  size */\n      dup3\n        /* \"prac18.sol\":11142:11164  size <= MAX_ARRAY_SIZE */\n      gt\n      iszero\n        /* \"prac18.sol\":11120:11207  require(... */\n      tag_32\n      jumpi\n      mload(0x40)\n      0x08c379a000000000000000000000000000000000000000000000000000000000\n      dup2\n      mstore\n      0x04\n      add\n      tag_33\n      swap1\n      tag_34\n      jump\t// in\n    tag_33:\n      mload(0x40)\n      dup1\n      swap2\n      sub\n      swap1\n      revert\n    tag_32:\n        /* \"prac18.sol\":11220:11246  uint256[] memory tempArray */\n      0x00\n        /* \"prac18.sol\":11276:11280  size */\n      dup3\n        /* \"prac18.sol\":11262:11281  new uint256[](size) */\n      0xffffffffffffffff\n      dup2\n      gt\n      iszero\n      tag_35\n      jumpi\n      tag_36\n      tag_37\n      jump\t// in\n    tag_36:\n    tag_35:\n      mload(0x40)\n      swap1\n      dup1\n      dup3\n      mstore\n      dup1\n      0x20\n      mul\n      0x20\n      add\n      dup3\n      add\n      0x40\n      mstore\n      dup1\n      iszero\n      tag_38\n      jumpi\n      dup2\n      0x20\n      add\n      0x20\n      dup3\n      mul\n      dup1\n      calldatasize\n      dup4\n      calldatacopy\n      dup1\n      dup3\n      add\n      swap2\n      pop\n      pop\n      swap1\n      pop\n    tag_38:\n      pop\n        /* \"prac18.sol\":11220:11281  uint256[] memory tempArray =... */\n      swap1\n      pop\n        /* \"prac18.sol\":11299:11308  uint256 i */\n      0x00\n        /* \"prac18.sol\":11311:11312  0 */\n      0x00\n        /* \"prac18.sol\":11299:11312  uint256 i = 0 */\n      swap1\n      pop\n        /* \"prac18.sol\":11294:11376  for (uint256 i = 0; i < size; i++) {... */\n    tag_39:\n        /* \"prac18.sol\":11318:11322  size */\n      dup4\n        /* \"prac18.sol\":11314:11315  i */\n      dup2\n        /* \"prac18.sol\":11314:11322  i < size */\n      lt\n        /* \"prac18.sol\":11294:11376  for (uint256 i = 0; i < size; i++) {... */\n      iszero\n      tag_40\n      jumpi\n        /* \"prac18.sol\":11363:11364  1 */\n      0x01\n        /* \"prac18.sol\":11359:11360  i */\n      dup2\n        /* \"prac18.sol\":11359:11364  i + 1 */\n      tag_42\n      swap2\n      swap1\n      tag_43\n      jump\t// in\n    tag_42:\n        /* \"prac18.sol\":11344:11353  tempArray */\n      dup3\n        /* \"prac18.sol\":11354:11355  i */\n      dup3\n        /* \"prac18.sol\":11344:11356  tempArray[i] */\n      dup2\n      mload\n      dup2\n      lt\n      tag_44\n      jumpi\n      tag_45\n      tag_46\n      jump\t// in\n    tag_45:\n    tag_44:\n      0x20\n      mul\n      0x20\n      add\n      add\n        /* \"prac18.sol\":11344:11364  tempArray[i] = i + 1 */\n      dup2\n      dup2\n      mstore\n      pop\n      pop\n        /* \"prac18.sol\":11324:11327  i++ */\n      dup1\n      dup1\n      0x01\n      add\n      swap2\n      pop\n      pop\n        /* \"prac18.sol\":11294:11376  for (uint256 i = 0; i < size; i++) {... */\n      jump(tag_39)\n    tag_40:\n      pop\n        /* \"prac18.sol\":11395:11404  tempArray */\n      dup1\n        /* \"prac18.sol\":11388:11404  return tempArray */\n      swap2\n      pop\n      pop\n        /* \"prac18.sol\":10981:11412  function createMemoryArray(... */\n      swap2\n      swap1\n      pop\n      jump\t// out\n        /* \"prac18.sol\":11785:11887  function storeValue(uint256 _value)... */\n    tag_21:\n        /* \"prac18.sol\":11853:11866  storedNumbers */\n      0x00\n        /* \"prac18.sol\":11872:11878  _value */\n      dup2\n        /* \"prac18.sol\":11853:11879  storedNumbers.push(_value) */\n      swap1\n      dup1\n      0x01\n      dup2\n      sload\n      add\n      dup1\n      dup3\n      sstore\n      dup1\n      swap2\n      pop\n      pop\n      0x01\n      swap1\n      sub\n      swap1\n      0x00\n      mstore\n      keccak256(0x00, 0x20)\n      add\n      0x00\n      swap1\n      swap2\n      swap1\n      swap2\n      swap1\n      swap2\n      pop\n      sstore\n        /* \"prac18.sol\":11785:11887  function storeValue(uint256 _value)... */\n      pop\n      jump\t// out\n        /* \"prac18.sol\":10928:10972  uint256 public constant MAX_ARRAY_SIZE = 100 */\n    tag_23:\n        /* \"prac18.sol\":10969:10972  100 */\n      0x64\n        /* \"prac18.sol\":10928:10972  uint256 public constant MAX_ARRAY_SIZE = 100 */\n      dup2\n      jump\t// out\n        /* \"prac18.sol\":11420:11777  function calculateSquares(... */\n    tag_27:\n        /* \"prac18.sol\":11527:11543  uint256[] memory */\n      0x60\n        /* \"prac18.sol\":11561:11585  uint256[] memory squares */\n      0x00\n        /* \"prac18.sol\":11615:11616  3 */\n      0x03\n        /* \"prac18.sol\":11601:11617  new uint256[](3) */\n      0xffffffffffffffff\n      dup2\n      gt\n      iszero\n      tag_50\n      jumpi\n      tag_51\n      tag_37\n      jump\t// in\n    tag_51:\n    tag_50:\n      mload(0x40)\n      swap1\n      dup1\n      dup3\n      mstore\n      dup1\n      0x20\n      mul\n      0x20\n      add\n      dup3\n      add\n      0x40\n      mstore\n      dup1\n      iszero\n      tag_52\n      jumpi\n      dup2\n      0x20\n      add\n      0x20\n      dup3\n      mul\n      dup1\n      calldatasize\n      dup4\n      calldatacopy\n      dup1\n      dup3\n      add\n      swap2\n      pop\n      pop\n      swap1\n      pop\n    tag_52:\n      pop\n        /* \"prac18.sol\":11561:11617  uint256[] memory squares =... */\n      swap1\n      pop\n        /* \"prac18.sol\":11643:11650  _number */\n      dup3\n        /* \"prac18.sol\":11630:11637  squares */\n      dup2\n        /* \"prac18.sol\":11638:11639  0 */\n      0x00\n        /* \"prac18.sol\":11630:11640  squares[0] */\n      dup2\n      mload\n      dup2\n      lt\n      tag_53\n      jumpi\n      tag_54\n      tag_46\n      jump\t// in\n    tag_54:\n    tag_53:\n      0x20\n      mul\n      0x20\n      add\n      add\n        /* \"prac18.sol\":11630:11650  squares[0] = _number */\n      dup2\n      dup2\n      mstore\n      pop\n      pop\n        /* \"prac18.sol\":11684:11691  _number */\n      dup3\n        /* \"prac18.sol\":11674:11681  _number */\n      dup4\n        /* \"prac18.sol\":11674:11691  _number * _number */\n      tag_55\n      swap2\n      swap1\n      tag_56\n      jump\t// in\n    tag_55:\n        /* \"prac18.sol\":11661:11668  squares */\n      dup2\n        /* \"prac18.sol\":11669:11670  1 */\n      0x01\n        /* \"prac18.sol\":11661:11671  squares[1] */\n      dup2\n      mload\n      dup2\n      lt\n      tag_57\n      jumpi\n      tag_58\n      tag_46\n      jump\t// in\n    tag_58:\n    tag_57:\n      0x20\n      mul\n      0x20\n      add\n      add\n        /* \"prac18.sol\":11661:11691  squares[1] = _number * _number */\n      dup2\n      dup2\n      mstore\n      pop\n      pop\n        /* \"prac18.sol\":11735:11742  _number */\n      dup3\n        /* \"prac18.sol\":11725:11732  _number */\n      dup4\n        /* \"prac18.sol\":11715:11722  _number */\n      dup5\n        /* \"prac18.sol\":11715:11732  _number * _number */\n      tag_59\n      swap2\n      swap1\n      tag_56\n      jump\t// in\n    tag_59:\n        /* \"prac18.sol\":11715:11742  _number * _number * _number */\n      tag_60\n      swap2\n      swap1\n      tag_56\n      jump\t// in\n    tag_60:\n        /* \"prac18.sol\":11702:11709  squares */\n      dup2\n        /* \"prac18.sol\":11710:11711  2 */\n      0x02\n        /* \"prac18.sol\":11702:11712  squares[2] */\n      dup2\n      mload\n      dup2\n      lt\n      tag_61\n      jumpi\n      tag_62\n      tag_46\n      jump\t// in\n    tag_62:\n    tag_61:\n      0x20\n      mul\n      0x20\n      add\n      add\n        /* \"prac18.sol\":11702:11742  squares[2] = _number * _number * _number */\n      dup2\n      dup2\n      mstore\n      pop\n      pop\n        /* \"prac18.sol\":11762:11769  squares */\n      dup1\n        /* \"prac18.sol\":11755:11769  return squares */\n      swap2\n      pop\n      pop\n        /* \"prac18.sol\":11420:11777  function calculateSquares(... */\n      swap2\n      swap1\n      pop\n      jump\t// out\n        /* \"#utility.yul\":88:205   */\n    tag_64:\n        /* \"#utility.yul\":197:198   */\n      0x00\n        /* \"#utility.yul\":194:195   */\n      0x00\n        /* \"#utility.yul\":187:199   */\n      revert\n        /* \"#utility.yul\":334:411   */\n    tag_66:\n        /* \"#utility.yul\":371:378   */\n      0x00\n        /* \"#utility.yul\":400:405   */\n      dup2\n        /* \"#utility.yul\":389:405   */\n      swap1\n      pop\n        /* \"#utility.yul\":334:411   */\n      swap2\n      swap1\n      pop\n      jump\t// out\n        /* \"#utility.yul\":417:539   */\n    tag_67:\n        /* \"#utility.yul\":490:514   */\n      tag_87\n        /* \"#utility.yul\":508:513   */\n      dup2\n        /* \"#utility.yul\":490:514   */\n      tag_66\n      jump\t// in\n    tag_87:\n        /* \"#utility.yul\":483:488   */\n      dup2\n        /* \"#utility.yul\":480:515   */\n      eq\n        /* \"#utility.yul\":470:533   */\n      tag_88\n      jumpi\n        /* \"#utility.yul\":529:530   */\n      0x00\n        /* \"#utility.yul\":526:527   */\n      0x00\n        /* \"#utility.yul\":519:531   */\n      revert\n        /* \"#utility.yul\":470:533   */\n    tag_88:\n        /* \"#utility.yul\":417:539   */\n      pop\n      jump\t// out\n        /* \"#utility.yul\":545:684   */\n    tag_68:\n        /* \"#utility.yul\":591:596   */\n      0x00\n        /* \"#utility.yul\":629:635   */\n      dup2\n        /* \"#utility.yul\":616:636   */\n      calldataload\n        /* \"#utility.yul\":607:636   */\n      swap1\n      pop\n        /* \"#utility.yul\":645:678   */\n      tag_90\n        /* \"#utility.yul\":672:677   */\n      dup2\n        /* \"#utility.yul\":645:678   */\n      tag_67\n      jump\t// in\n    tag_90:\n        /* \"#utility.yul\":545:684   */\n      swap3\n      swap2\n      pop\n      pop\n      jump\t// out\n        /* \"#utility.yul\":690:1019   */\n    tag_10:\n        /* \"#utility.yul\":749:755   */\n      0x00\n        /* \"#utility.yul\":798:800   */\n      0x20\n        /* \"#utility.yul\":786:795   */\n      dup3\n        /* \"#utility.yul\":777:784   */\n      dup5\n        /* \"#utility.yul\":773:796   */\n      sub\n        /* \"#utility.yul\":769:801   */\n      slt\n        /* \"#utility.yul\":766:885   */\n      iszero\n      tag_92\n      jumpi\n        /* \"#utility.yul\":804:883   */\n      tag_93\n      tag_64\n      jump\t// in\n    tag_93:\n        /* \"#utility.yul\":766:885   */\n    tag_92:\n        /* \"#utility.yul\":924:925   */\n      0x00\n        /* \"#utility.yul\":949:1002   */\n      tag_94\n        /* \"#utility.yul\":994:1001   */\n      dup5\n        /* \"#utility.yul\":985:991   */\n      dup3\n        /* \"#utility.yul\":974:983   */\n      dup6\n        /* \"#utility.yul\":970:992   */\n      add\n        /* \"#utility.yul\":949:1002   */\n      tag_68\n      jump\t// in\n    tag_94:\n        /* \"#utility.yul\":939:1002   */\n      swap2\n      pop\n        /* \"#utility.yul\":895:1012   */\n      pop\n        /* \"#utility.yul\":690:1019   */\n      swap3\n      swap2\n      pop\n      pop\n      jump\t// out\n        /* \"#utility.yul\":1025:1143   */\n    tag_69:\n        /* \"#utility.yul\":1112:1136   */\n      tag_96\n        /* \"#utility.yul\":1130:1135   */\n      dup2\n        /* \"#utility.yul\":1112:1136   */\n      tag_66\n      jump\t// in\n    tag_96:\n        /* \"#utility.yul\":1107:1110   */\n      dup3\n        /* \"#utility.yul\":1100:1137   */\n      mstore\n        /* \"#utility.yul\":1025:1143   */\n      pop\n      pop\n      jump\t// out\n        /* \"#utility.yul\":1149:1371   */\n    tag_13:\n        /* \"#utility.yul\":1242:1246   */\n      0x00\n        /* \"#utility.yul\":1280:1282   */\n      0x20\n        /* \"#utility.yul\":1269:1278   */\n      dup3\n        /* \"#utility.yul\":1265:1283   */\n      add\n        /* \"#utility.yul\":1257:1283   */\n      swap1\n      pop\n        /* \"#utility.yul\":1293:1364   */\n      tag_98\n        /* \"#utility.yul\":1361:1362   */\n      0x00\n        /* \"#utility.yul\":1350:1359   */\n      dup4\n        /* \"#utility.yul\":1346:1363   */\n      add\n        /* \"#utility.yul\":1337:1343   */\n      dup5\n        /* \"#utility.yul\":1293:1364   */\n      tag_69\n      jump\t// in\n    tag_98:\n        /* \"#utility.yul\":1149:1371   */\n      swap3\n      swap2\n      pop\n      pop\n      jump\t// out\n        /* \"#utility.yul\":1377:1491   */\n    tag_70:\n        /* \"#utility.yul\":1444:1450   */\n      0x00\n        /* \"#utility.yul\":1478:1483   */\n      dup2\n        /* \"#utility.yul\":1472:1484   */\n      mload\n        /* \"#utility.yul\":1462:1484   */\n      swap1\n      pop\n        /* \"#utility.yul\":1377:1491   */\n      swap2\n      swap1\n      pop\n      jump\t// out\n        /* \"#utility.yul\":1497:1681   */\n    tag_71:\n        /* \"#utility.yul\":1596:1607   */\n      0x00\n        /* \"#utility.yul\":1630:1636   */\n      dup3\n        /* \"#utility.yul\":1625:1628   */\n      dup3\n        /* \"#utility.yul\":1618:1637   */\n      mstore\n        /* \"#utility.yul\":1670:1674   */\n      0x20\n        /* \"#utility.yul\":1665:1668   */\n      dup3\n        /* \"#utility.yul\":1661:1675   */\n      add\n        /* \"#utility.yul\":1646:1675   */\n      swap1\n      pop\n        /* \"#utility.yul\":1497:1681   */\n      swap3\n      swap2\n      pop\n      pop\n      jump\t// out\n        /* \"#utility.yul\":1687:1819   */\n    tag_72:\n        /* \"#utility.yul\":1754:1758   */\n      0x00\n        /* \"#utility.yul\":1777:1780   */\n      dup2\n        /* \"#utility.yul\":1769:1780   */\n      swap1\n      pop\n        /* \"#utility.yul\":1807:1811   */\n      0x20\n        /* \"#utility.yul\":1802:1805   */\n      dup3\n        /* \"#utility.yul\":1798:1812   */\n      add\n        /* \"#utility.yul\":1790:1812   */\n      swap1\n      pop\n        /* \"#utility.yul\":1687:1819   */\n      swap2\n      swap1\n      pop\n      jump\t// out\n        /* \"#utility.yul\":1825:1933   */\n    tag_73:\n        /* \"#utility.yul\":1902:1926   */\n      tag_103\n        /* \"#utility.yul\":1920:1925   */\n      dup2\n        /* \"#utility.yul\":1902:1926   */\n      tag_66\n      jump\t// in\n    tag_103:\n        /* \"#utility.yul\":1897:1900   */\n      dup3\n        /* \"#utility.yul\":1890:1927   */\n      mstore\n        /* \"#utility.yul\":1825:1933   */\n      pop\n      pop\n      jump\t// out\n        /* \"#utility.yul\":1939:2118   */\n    tag_74:\n        /* \"#utility.yul\":2008:2018   */\n      0x00\n        /* \"#utility.yul\":2029:2075   */\n      tag_105\n        /* \"#utility.yul\":2071:2074   */\n      dup4\n        /* \"#utility.yul\":2063:2069   */\n      dup4\n        /* \"#utility.yul\":2029:2075   */\n      tag_73\n      jump\t// in\n    tag_105:\n        /* \"#utility.yul\":2107:2111   */\n      0x20\n        /* \"#utility.yul\":2102:2105   */\n      dup4\n        /* \"#utility.yul\":2098:2112   */\n      add\n        /* \"#utility.yul\":2084:2112   */\n      swap1\n      pop\n        /* \"#utility.yul\":1939:2118   */\n      swap3\n      swap2\n      pop\n      pop\n      jump\t// out\n        /* \"#utility.yul\":2124:2237   */\n    tag_75:\n        /* \"#utility.yul\":2194:2198   */\n      0x00\n        /* \"#utility.yul\":2226:2230   */\n      0x20\n        /* \"#utility.yul\":2221:2224   */\n      dup3\n        /* \"#utility.yul\":2217:2231   */\n      add\n        /* \"#utility.yul\":2209:2231   */\n      swap1\n      pop\n        /* \"#utility.yul\":2124:2237   */\n      swap2\n      swap1\n      pop\n      jump\t// out\n        /* \"#utility.yul\":2273:3005   */\n    tag_76:\n        /* \"#utility.yul\":2392:2395   */\n      0x00\n        /* \"#utility.yul\":2421:2475   */\n      tag_108\n        /* \"#utility.yul\":2469:2474   */\n      dup3\n        /* \"#utility.yul\":2421:2475   */\n      tag_70\n      jump\t// in\n    tag_108:\n        /* \"#utility.yul\":2491:2577   */\n      tag_109\n        /* \"#utility.yul\":2570:2576   */\n      dup2\n        /* \"#utility.yul\":2565:2568   */\n      dup6\n        /* \"#utility.yul\":2491:2577   */\n      tag_71\n      jump\t// in\n    tag_109:\n        /* \"#utility.yul\":2484:2577   */\n      swap4\n      pop\n        /* \"#utility.yul\":2601:2657   */\n      tag_110\n        /* \"#utility.yul\":2651:2656   */\n      dup4\n        /* \"#utility.yul\":2601:2657   */\n      tag_72\n      jump\t// in\n    tag_110:\n        /* \"#utility.yul\":2680:2687   */\n      dup1\n        /* \"#utility.yul\":2711:2712   */\n      0x00\n        /* \"#utility.yul\":2696:2980   */\n    tag_111:\n        /* \"#utility.yul\":2721:2727   */\n      dup4\n        /* \"#utility.yul\":2718:2719   */\n      dup2\n        /* \"#utility.yul\":2715:2728   */\n      lt\n        /* \"#utility.yul\":2696:2980   */\n      iszero\n      tag_113\n      jumpi\n        /* \"#utility.yul\":2797:2803   */\n      dup2\n        /* \"#utility.yul\":2791:2804   */\n      mload\n        /* \"#utility.yul\":2824:2887   */\n      tag_114\n        /* \"#utility.yul\":2883:2886   */\n      dup9\n        /* \"#utility.yul\":2868:2881   */\n      dup3\n        /* \"#utility.yul\":2824:2887   */\n      tag_74\n      jump\t// in\n    tag_114:\n        /* \"#utility.yul\":2817:2887   */\n      swap8\n      pop\n        /* \"#utility.yul\":2910:2970   */\n      tag_115\n        /* \"#utility.yul\":2963:2969   */\n      dup4\n        /* \"#utility.yul\":2910:2970   */\n      tag_75\n      jump\t// in\n    tag_115:\n        /* \"#utility.yul\":2900:2970   */\n      swap3\n      pop\n        /* \"#utility.yul\":2756:2980   */\n      pop\n        /* \"#utility.yul\":2743:2744   */\n      0x01\n        /* \"#utility.yul\":2740:2741   */\n      dup2\n        /* \"#utility.yul\":2736:2745   */\n      add\n        /* \"#utility.yul\":2731:2745   */\n      swap1\n      pop\n        /* \"#utility.yul\":2696:2980   */\n      jump(tag_111)\n    tag_113:\n        /* \"#utility.yul\":2700:2714   */\n      pop\n        /* \"#utility.yul\":2996:2999   */\n      dup6\n        /* \"#utility.yul\":2989:2999   */\n      swap4\n      pop\n        /* \"#utility.yul\":2397:3005   */\n      pop\n      pop\n      pop\n        /* \"#utility.yul\":2273:3005   */\n      swap3\n      swap2\n      pop\n      pop\n      jump\t// out\n        /* \"#utility.yul\":3011:3384   */\n    tag_18:\n        /* \"#utility.yul\":3154:3158   */\n      0x00\n        /* \"#utility.yul\":3192:3194   */\n      0x20\n        /* \"#utility.yul\":3181:3190   */\n      dup3\n        /* \"#utility.yul\":3177:3195   */\n      add\n        /* \"#utility.yul\":3169:3195   */\n      swap1\n      pop\n        /* \"#utility.yul\":3241:3250   */\n      dup2\n        /* \"#utility.yul\":3235:3239   */\n      dup2\n        /* \"#utility.yul\":3231:3251   */\n      sub\n        /* \"#utility.yul\":3227:3228   */\n      0x00\n        /* \"#utility.yul\":3216:3225   */\n      dup4\n        /* \"#utility.yul\":3212:3229   */\n      add\n        /* \"#utility.yul\":3205:3252   */\n      mstore\n        /* \"#utility.yul\":3269:3377   */\n      tag_117\n        /* \"#utility.yul\":3372:3376   */\n      dup2\n        /* \"#utility.yul\":3363:3369   */\n      dup5\n        /* \"#utility.yul\":3269:3377   */\n      tag_76\n      jump\t// in\n    tag_117:\n        /* \"#utility.yul\":3261:3377   */\n      swap1\n      pop\n        /* \"#utility.yul\":3011:3384   */\n      swap3\n      swap2\n      pop\n      pop\n      jump\t// out\n        /* \"#utility.yul\":3390:3559   */\n    tag_77:\n        /* \"#utility.yul\":3474:3485   */\n      0x00\n        /* \"#utility.yul\":3508:3514   */\n      dup3\n        /* \"#utility.yul\":3503:3506   */\n      dup3\n        /* \"#utility.yul\":3496:3515   */\n      mstore\n        /* \"#utility.yul\":3548:3552   */\n      0x20\n        /* \"#utility.yul\":3543:3546   */\n      dup3\n        /* \"#utility.yul\":3539:3553   */\n      add\n        /* \"#utility.yul\":3524:3553   */\n      swap1\n      pop\n        /* \"#utility.yul\":3390:3559   */\n      swap3\n      swap2\n      pop\n      pop\n      jump\t// out\n        /* \"#utility.yul\":3565:3730   */\n    tag_78:\n        /* \"#utility.yul\":3705:3722   */\n      0x417272617920746f6f206c617267650000000000000000000000000000000000\n        /* \"#utility.yul\":3701:3702   */\n      0x00\n        /* \"#utility.yul\":3693:3699   */\n      dup3\n        /* \"#utility.yul\":3689:3703   */\n      add\n        /* \"#utility.yul\":3682:3723   */\n      mstore\n        /* \"#utility.yul\":3565:3730   */\n      pop\n      jump\t// out\n        /* \"#utility.yul\":3736:4102   */\n    tag_79:\n        /* \"#utility.yul\":3878:3881   */\n      0x00\n        /* \"#utility.yul\":3899:3966   */\n      tag_121\n        /* \"#utility.yul\":3963:3965   */\n      0x0f\n        /* \"#utility.yul\":3958:3961   */\n      dup4\n        /* \"#utility.yul\":3899:3966   */\n      tag_77\n      jump\t// in\n    tag_121:\n        /* \"#utility.yul\":3892:3966   */\n      swap2\n      pop\n        /* \"#utility.yul\":3975:4068   */\n      tag_122\n        /* \"#utility.yul\":4064:4067   */\n      dup3\n        /* \"#utility.yul\":3975:4068   */\n      tag_78\n      jump\t// in\n    tag_122:\n        /* \"#utility.yul\":4093:4095   */\n      0x20\n        /* \"#utility.yul\":4088:4091   */\n      dup3\n        /* \"#utility.yul\":4084:4096   */\n      add\n        /* \"#utility.yul\":4077:4096   */\n      swap1\n      pop\n        /* \"#utility.yul\":3736:4102   */\n      swap2\n      swap1\n      pop\n      jump\t// out\n        /* \"#utility.yul\":4108:4527   */\n    tag_34:\n        /* \"#utility.yul\":4274:4278   */\n      0x00\n        /* \"#utility.yul\":4312:4314   */\n      0x20\n        /* \"#utility.yul\":4301:4310   */\n      dup3\n        /* \"#utility.yul\":4297:4315   */\n      add\n        /* \"#utility.yul\":4289:4315   */\n      swap1\n      pop\n        /* \"#utility.yul\":4361:4370   */\n      dup2\n        /* \"#utility.yul\":4355:4359   */\n      dup2\n        /* \"#utility.yul\":4351:4371   */\n      sub\n        /* \"#utility.yul\":4347:4348   */\n      0x00\n        /* \"#utility.yul\":4336:4345   */\n      dup4\n        /* \"#utility.yul\":4332:4349   */\n      add\n        /* \"#utility.yul\":4325:4372   */\n      mstore\n        /* \"#utility.yul\":4389:4520   */\n      tag_124\n        /* \"#utility.yul\":4515:4519   */\n      dup2\n        /* \"#utility.yul\":4389:4520   */\n      tag_79\n      jump\t// in\n    tag_124:\n        /* \"#utility.yul\":4381:4520   */\n      swap1\n      pop\n        /* \"#utility.yul\":4108:4527   */\n      swap2\n      swap1\n      pop\n      jump\t// out\n        /* \"#utility.yul\":4533:4713   */\n    tag_37:\n        /* \"#utility.yul\":4581:4658   */\n      0x4e487b7100000000000000000000000000000000000000000000000000000000\n        /* \"#utility.yul\":4578:4579   */\n      0x00\n        /* \"#utility.yul\":4571:4659   */\n      mstore\n        /* \"#utility.yul\":4678:4682   */\n      0x41\n        /* \"#utility.yul\":4675:4676   */\n      0x04\n        /* \"#utility.yul\":4668:4683   */\n      mstore\n        /* \"#utility.yul\":4702:4706   */\n      0x24\n        /* \"#utility.yul\":4699:4700   */\n      0x00\n        /* \"#utility.yul\":4692:4707   */\n      revert\n        /* \"#utility.yul\":4719:4899   */\n    tag_80:\n        /* \"#utility.yul\":4767:4844   */\n      0x4e487b7100000000000000000000000000000000000000000000000000000000\n        /* \"#utility.yul\":4764:4765   */\n      0x00\n        /* \"#utility.yul\":4757:4845   */\n      mstore\n        /* \"#utility.yul\":4864:4868   */\n      0x11\n        /* \"#utility.yul\":4861:4862   */\n      0x04\n        /* \"#utility.yul\":4854:4869   */\n      mstore\n        /* \"#utility.yul\":4888:4892   */\n      0x24\n        /* \"#utility.yul\":4885:4886   */\n      0x00\n        /* \"#utility.yul\":4878:4893   */\n      revert\n        /* \"#utility.yul\":4905:5096   */\n    tag_43:\n        /* \"#utility.yul\":4945:4948   */\n      0x00\n        /* \"#utility.yul\":4964:4984   */\n      tag_128\n        /* \"#utility.yul\":4982:4983   */\n      dup3\n        /* \"#utility.yul\":4964:4984   */\n      tag_66\n      jump\t// in\n    tag_128:\n        /* \"#utility.yul\":4959:4984   */\n      swap2\n      pop\n        /* \"#utility.yul\":4998:5018   */\n      tag_129\n        /* \"#utility.yul\":5016:5017   */\n      dup4\n        /* \"#utility.yul\":4998:5018   */\n      tag_66\n      jump\t// in\n    tag_129:\n        /* \"#utility.yul\":4993:5018   */\n      swap3\n      pop\n        /* \"#utility.yul\":5041:5042   */\n      dup3\n        /* \"#utility.yul\":5038:5039   */\n      dup3\n        /* \"#utility.yul\":5034:5043   */\n      add\n        /* \"#utility.yul\":5027:5043   */\n      swap1\n      pop\n        /* \"#utility.yul\":5062:5065   */\n      dup1\n        /* \"#utility.yul\":5059:5060   */\n      dup3\n        /* \"#utility.yul\":5056:5066   */\n      gt\n        /* \"#utility.yul\":5053:5089   */\n      iszero\n      tag_130\n      jumpi\n        /* \"#utility.yul\":5069:5087   */\n      tag_131\n      tag_80\n      jump\t// in\n    tag_131:\n        /* \"#utility.yul\":5053:5089   */\n    tag_130:\n        /* \"#utility.yul\":4905:5096   */\n      swap3\n      swap2\n      pop\n      pop\n      jump\t// out\n        /* \"#utility.yul\":5102:5282   */\n    tag_46:\n        /* \"#utility.yul\":5150:5227   */\n      0x4e487b7100000000000000000000000000000000000000000000000000000000\n        /* \"#utility.yul\":5147:5148   */\n      0x00\n        /* \"#utility.yul\":5140:5228   */\n      mstore\n        /* \"#utility.yul\":5247:5251   */\n      0x32\n        /* \"#utility.yul\":5244:5245   */\n      0x04\n        /* \"#utility.yul\":5237:5252   */\n      mstore\n        /* \"#utility.yul\":5271:5275   */\n      0x24\n        /* \"#utility.yul\":5268:5269   */\n      0x00\n        /* \"#utility.yul\":5261:5276   */\n      revert\n        /* \"#utility.yul\":5288:5698   */\n    tag_56:\n        /* \"#utility.yul\":5328:5335   */\n      0x00\n        /* \"#utility.yul\":5351:5371   */\n      tag_134\n        /* \"#utility.yul\":5369:5370   */\n      dup3\n        /* \"#utility.yul\":5351:5371   */\n      tag_66\n      jump\t// in\n    tag_134:\n        /* \"#utility.yul\":5346:5371   */\n      swap2\n      pop\n        /* \"#utility.yul\":5385:5405   */\n      tag_135\n        /* \"#utility.yul\":5403:5404   */\n      dup4\n        /* \"#utility.yul\":5385:5405   */\n      tag_66\n      jump\t// in\n    tag_135:\n        /* \"#utility.yul\":5380:5405   */\n      swap3\n      pop\n        /* \"#utility.yul\":5440:5441   */\n      dup3\n        /* \"#utility.yul\":5437:5438   */\n      dup3\n        /* \"#utility.yul\":5433:5442   */\n      mul\n        /* \"#utility.yul\":5462:5492   */\n      tag_136\n        /* \"#utility.yul\":5480:5491   */\n      dup2\n        /* \"#utility.yul\":5462:5492   */\n      tag_66\n      jump\t// in\n    tag_136:\n        /* \"#utility.yul\":5451:5492   */\n      swap2\n      pop\n        /* \"#utility.yul\":5641:5642   */\n      dup3\n        /* \"#utility.yul\":5632:5639   */\n      dup3\n        /* \"#utility.yul\":5628:5643   */\n      div\n        /* \"#utility.yul\":5625:5626   */\n      dup5\n        /* \"#utility.yul\":5622:5644   */\n      eq\n        /* \"#utility.yul\":5602:5603   */\n      dup4\n        /* \"#utility.yul\":5595:5604   */\n      iszero\n        /* \"#utility.yul\":5575:5658   */\n      or\n        /* \"#utility.yul\":5552:5691   */\n      tag_137\n      jumpi\n        /* \"#utility.yul\":5671:5689   */\n      tag_138\n      tag_80\n      jump\t// in\n    tag_138:\n        /* \"#utility.yul\":5552:5691   */\n    tag_137:\n        /* \"#utility.yul\":5336:5698   */\n      pop\n        /* \"#utility.yul\":5288:5698   */\n      swap3\n      swap2\n      pop\n      pop\n      jump\t// out\n\n    auxdata: 0xa2646970667358221220efa02c70031f802a2abfc85936bc3dcf0e0787be737b92f136bc54b2ca3b0dad64736f6c63430008220033\n}\n",
				"bytecode": {
					"linkReferences": {},
					"object": "6080604052348015600e575f5ffd5b506106368061001c5f395ff3fe608060405234801561000f575f5ffd5b5060043610610055575f3560e01c80633b1f0cd0146100595780636d236703146100895780637221a26a146100b9578063af7efa7c146100d5578063f0569df3146100f3575b5f5ffd5b610073600480360381019061006e9190610363565b610123565b604051610080919061039d565b60405180910390f35b6100a3600480360381019061009e9190610363565b610142565b6040516100b0919061046d565b60405180910390f35b6100d360048036038101906100ce9190610363565b610224565b005b6100dd61024c565b6040516100ea919061039d565b60405180910390f35b61010d60048036038101906101089190610363565b610251565b60405161011a919061046d565b60405180910390f35b5f8181548110610131575f80fd5b905f5260205f20015f915090505481565b60606064821115610188576040517f08c379a000000000000000000000000000000000000000000000000000000000815260040161017f906104e7565b60405180910390fd5b5f8267ffffffffffffffff8111156101a3576101a2610505565b5b6040519080825280602002602001820160405280156101d15781602001602082028036833780820191505090505b5090505f5f90505b8381101561021a576001816101ee919061055f565b82828151811061020157610200610592565b5b60200260200101818152505080806001019150506101d9565b5080915050919050565b5f81908060018154018082558091505060019003905f5260205f20015f909190919091505550565b606481565b60605f600367ffffffffffffffff81111561026f5761026e610505565b5b60405190808252806020026020018201604052801561029d5781602001602082028036833780820191505090505b50905082815f815181106102b4576102b3610592565b5b60200260200101818152505082836102cc91906105bf565b816001815181106102e0576102df610592565b5b6020026020010181815250508283846102f991906105bf565b61030391906105bf565b8160028151811061031757610316610592565b5b60200260200101818152505080915050919050565b5f5ffd5b5f819050919050565b61034281610330565b811461034c575f5ffd5b50565b5f8135905061035d81610339565b92915050565b5f602082840312156103785761037761032c565b5b5f6103858482850161034f565b91505092915050565b61039781610330565b82525050565b5f6020820190506103b05f83018461038e565b92915050565b5f81519050919050565b5f82825260208201905092915050565b5f819050602082019050919050565b6103e881610330565b82525050565b5f6103f983836103df565b60208301905092915050565b5f602082019050919050565b5f61041b826103b6565b61042581856103c0565b9350610430836103d0565b805f5b8381101561046057815161044788826103ee565b975061045283610405565b925050600181019050610433565b5085935050505092915050565b5f6020820190508181035f8301526104858184610411565b905092915050565b5f82825260208201905092915050565b7f417272617920746f6f206c6172676500000000000000000000000000000000005f82015250565b5f6104d1600f8361048d565b91506104dc8261049d565b602082019050919050565b5f6020820190508181035f8301526104fe816104c5565b9050919050565b7f4e487b71000000000000000000000000000000000000000000000000000000005f52604160045260245ffd5b7f4e487b71000000000000000000000000000000000000000000000000000000005f52601160045260245ffd5b5f61056982610330565b915061057483610330565b925082820190508082111561058c5761058b610532565b5b92915050565b7f4e487b71000000000000000000000000000000000000000000000000000000005f52603260045260245ffd5b5f6105c982610330565b91506105d483610330565b92508282026105e281610330565b915082820484148315176105f9576105f8610532565b5b509291505056fea2646970667358221220efa02c70031f802a2abfc85936bc3dcf0e0787be737b92f136bc54b2ca3b0dad64736f6c63430008220033",
					"opcodes": "PUSH1 0x80 PUSH1 0x40 MSTORE CALLVALUE DUP1 ISZERO PUSH1 0xE JUMPI PUSH0 PUSH0 REVERT JUMPDEST POP PUSH2 0x636 DUP1 PUSH2 0x1C PUSH0 CODECOPY PUSH0 RETURN INVALID PUSH1 0x80 PUSH1 0x40 MSTORE CALLVALUE DUP1 ISZERO PUSH2 0xF JUMPI PUSH0 PUSH0 REVERT JUMPDEST POP PUSH1 0x4 CALLDATASIZE LT PUSH2 0x55 JUMPI PUSH0 CALLDATALOAD PUSH1 0xE0 SHR DUP1 PUSH4 0x3B1F0CD0 EQ PUSH2 0x59 JUMPI DUP1 PUSH4 0x6D236703 EQ PUSH2 0x89 JUMPI DUP1 PUSH4 0x7221A26A EQ PUSH2 0xB9 JUMPI DUP1 PUSH4 0xAF7EFA7C EQ PUSH2 0xD5 JUMPI DUP1 PUSH4 0xF0569DF3 EQ PUSH2 0xF3 JUMPI JUMPDEST PUSH0 PUSH0 REVERT JUMPDEST PUSH2 0x73 PUSH1 0x4 DUP1 CALLDATASIZE SUB DUP2 ADD SWAP1 PUSH2 0x6E SWAP2 SWAP1 PUSH2 0x363 JUMP JUMPDEST PUSH2 0x123 JUMP JUMPDEST PUSH1 0x40 MLOAD PUSH2 0x80 SWAP2 SWAP1 PUSH2 0x39D JUMP JUMPDEST PUSH1 0x40 MLOAD DUP1 SWAP2 SUB SWAP1 RETURN JUMPDEST PUSH2 0xA3 PUSH1 0x4 DUP1 CALLDATASIZE SUB DUP2 ADD SWAP1 PUSH2 0x9E SWAP2 SWAP1 PUSH2 0x363 JUMP JUMPDEST PUSH2 0x142 JUMP JUMPDEST PUSH1 0x40 MLOAD PUSH2 0xB0 SWAP2 SWAP1 PUSH2 0x46D JUMP JUMPDEST PUSH1 0x40 MLOAD DUP1 SWAP2 SUB SWAP1 RETURN JUMPDEST PUSH2 0xD3 PUSH1 0x4 DUP1 CALLDATASIZE SUB DUP2 ADD SWAP1 PUSH2 0xCE SWAP2 SWAP1 PUSH2 0x363 JUMP JUMPDEST PUSH2 0x224 JUMP JUMPDEST STOP JUMPDEST PUSH2 0xDD PUSH2 0x24C JUMP JUMPDEST PUSH1 0x40 MLOAD PUSH2 0xEA SWAP2 SWAP1 PUSH2 0x39D JUMP JUMPDEST PUSH1 0x40 MLOAD DUP1 SWAP2 SUB SWAP1 RETURN JUMPDEST PUSH2 0x10D PUSH1 0x4 DUP1 CALLDATASIZE SUB DUP2 ADD SWAP1 PUSH2 0x108 SWAP2 SWAP1 PUSH2 0x363 JUMP JUMPDEST PUSH2 0x251 JUMP JUMPDEST PUSH1 0x40 MLOAD PUSH2 0x11A SWAP2 SWAP1 PUSH2 0x46D JUMP JUMPDEST PUSH1 0x40 MLOAD DUP1 SWAP2 SUB SWAP1 RETURN JUMPDEST PUSH0 DUP2 DUP2 SLOAD DUP2 LT PUSH2 0x131 JUMPI PUSH0 DUP1 REVERT JUMPDEST SWAP1 PUSH0 MSTORE PUSH1 0x20 PUSH0 KECCAK256 ADD PUSH0 SWAP2 POP SWAP1 POP SLOAD DUP2 JUMP JUMPDEST PUSH1 0x60 PUSH1 0x64 DUP3 GT ISZERO PUSH2 0x188 JUMPI PUSH1 0x40 MLOAD PUSH32 0x8C379A000000000000000000000000000000000000000000000000000000000 DUP2 MSTORE PUSH1 0x4 ADD PUSH2 0x17F SWAP1 PUSH2 0x4E7 JUMP JUMPDEST PUSH1 0x40 MLOAD DUP1 SWAP2 SUB SWAP1 REVERT JUMPDEST PUSH0 DUP3 PUSH8 0xFFFFFFFFFFFFFFFF DUP2 GT ISZERO PUSH2 0x1A3 JUMPI PUSH2 0x1A2 PUSH2 0x505 JUMP JUMPDEST JUMPDEST PUSH1 0x40 MLOAD SWAP1 DUP1 DUP3 MSTORE DUP1 PUSH1 0x20 MUL PUSH1 0x20 ADD DUP3 ADD PUSH1 0x40 MSTORE DUP1 ISZERO PUSH2 0x1D1 JUMPI DUP2 PUSH1 0x20 ADD PUSH1 0x20 DUP3 MUL DUP1 CALLDATASIZE DUP4 CALLDATACOPY DUP1 DUP3 ADD SWAP2 POP POP SWAP1 POP JUMPDEST POP SWAP1 POP PUSH0 PUSH0 SWAP1 POP JUMPDEST DUP4 DUP2 LT ISZERO PUSH2 0x21A JUMPI PUSH1 0x1 DUP2 PUSH2 0x1EE SWAP2 SWAP1 PUSH2 0x55F JUMP JUMPDEST DUP3 DUP3 DUP2 MLOAD DUP2 LT PUSH2 0x201 JUMPI PUSH2 0x200 PUSH2 0x592 JUMP JUMPDEST JUMPDEST PUSH1 0x20 MUL PUSH1 0x20 ADD ADD DUP2 DUP2 MSTORE POP POP DUP1 DUP1 PUSH1 0x1 ADD SWAP2 POP POP PUSH2 0x1D9 JUMP JUMPDEST POP DUP1 SWAP2 POP POP SWAP2 SWAP1 POP JUMP JUMPDEST PUSH0 DUP2 SWAP1 DUP1 PUSH1 0x1 DUP2 SLOAD ADD DUP1 DUP3 SSTORE DUP1 SWAP2 POP POP PUSH1 0x1 SWAP1 SUB SWAP1 PUSH0 MSTORE PUSH1 0x20 PUSH0 KECCAK256 ADD PUSH0 SWAP1 SWAP2 SWAP1 SWAP2 SWAP1 SWAP2 POP SSTORE POP JUMP JUMPDEST PUSH1 0x64 DUP2 JUMP JUMPDEST PUSH1 0x60 PUSH0 PUSH1 0x3 PUSH8 0xFFFFFFFFFFFFFFFF DUP2 GT ISZERO PUSH2 0x26F JUMPI PUSH2 0x26E PUSH2 0x505 JUMP JUMPDEST JUMPDEST PUSH1 0x40 MLOAD SWAP1 DUP1 DUP3 MSTORE DUP1 PUSH1 0x20 MUL PUSH1 0x20 ADD DUP3 ADD PUSH1 0x40 MSTORE DUP1 ISZERO PUSH2 0x29D JUMPI DUP2 PUSH1 0x20 ADD PUSH1 0x20 DUP3 MUL DUP1 CALLDATASIZE DUP4 CALLDATACOPY DUP1 DUP3 ADD SWAP2 POP POP SWAP1 POP JUMPDEST POP SWAP1 POP DUP3 DUP2 PUSH0 DUP2 MLOAD DUP2 LT PUSH2 0x2B4 JUMPI PUSH2 0x2B3 PUSH2 0x592 JUMP JUMPDEST JUMPDEST PUSH1 0x20 MUL PUSH1 0x20 ADD ADD DUP2 DUP2 MSTORE POP POP DUP3 DUP4 PUSH2 0x2CC SWAP2 SWAP1 PUSH2 0x5BF JUMP JUMPDEST DUP2 PUSH1 0x1 DUP2 MLOAD DUP2 LT PUSH2 0x2E0 JUMPI PUSH2 0x2DF PUSH2 0x592 JUMP JUMPDEST JUMPDEST PUSH1 0x20 MUL PUSH1 0x20 ADD ADD DUP2 DUP2 MSTORE POP POP DUP3 DUP4 DUP5 PUSH2 0x2F9 SWAP2 SWAP1 PUSH2 0x5BF JUMP JUMPDEST PUSH2 0x303 SWAP2 SWAP1 PUSH2 0x5BF JUMP JUMPDEST DUP2 PUSH1 0x2 DUP2 MLOAD DUP2 LT PUSH2 0x317 JUMPI PUSH2 0x316 PUSH2 0x592 JUMP JUMPDEST JUMPDEST PUSH1 0x20 MUL PUSH1 0x20 ADD ADD DUP2 DUP2 MSTORE POP POP DUP1 SWAP2 POP POP SWAP2 SWAP1 POP JUMP JUMPDEST PUSH0 PUSH0 REVERT JUMPDEST PUSH0 DUP2 SWAP1 POP SWAP2 SWAP1 POP JUMP JUMPDEST PUSH2 0x342 DUP2 PUSH2 0x330 JUMP JUMPDEST DUP2 EQ PUSH2 0x34C JUMPI PUSH0 PUSH0 REVERT JUMPDEST POP JUMP JUMPDEST PUSH0 DUP2 CALLDATALOAD SWAP1 POP PUSH2 0x35D DUP2 PUSH2 0x339 JUMP JUMPDEST SWAP3 SWAP2 POP POP JUMP JUMPDEST PUSH0 PUSH1 0x20 DUP3 DUP5 SUB SLT ISZERO PUSH2 0x378 JUMPI PUSH2 0x377 PUSH2 0x32C JUMP JUMPDEST JUMPDEST PUSH0 PUSH2 0x385 DUP5 DUP3 DUP6 ADD PUSH2 0x34F JUMP JUMPDEST SWAP2 POP POP SWAP3 SWAP2 POP POP JUMP JUMPDEST PUSH2 0x397 DUP2 PUSH2 0x330 JUMP JUMPDEST DUP3 MSTORE POP POP JUMP JUMPDEST PUSH0 PUSH1 0x20 DUP3 ADD SWAP1 POP PUSH2 0x3B0 PUSH0 DUP4 ADD DUP5 PUSH2 0x38E JUMP JUMPDEST SWAP3 SWAP2 POP POP JUMP JUMPDEST PUSH0 DUP2 MLOAD SWAP1 POP SWAP2 SWAP1 POP JUMP JUMPDEST PUSH0 DUP3 DUP3 MSTORE PUSH1 0x20 DUP3 ADD SWAP1 POP SWAP3 SWAP2 POP POP JUMP JUMPDEST PUSH0 DUP2 SWAP1 POP PUSH1 0x20 DUP3 ADD SWAP1 POP SWAP2 SWAP1 POP JUMP JUMPDEST PUSH2 0x3E8 DUP2 PUSH2 0x330 JUMP JUMPDEST DUP3 MSTORE POP POP JUMP JUMPDEST PUSH0 PUSH2 0x3F9 DUP4 DUP4 PUSH2 0x3DF JUMP JUMPDEST PUSH1 0x20 DUP4 ADD SWAP1 POP SWAP3 SWAP2 POP POP JUMP JUMPDEST PUSH0 PUSH1 0x20 DUP3 ADD SWAP1 POP SWAP2 SWAP1 POP JUMP JUMPDEST PUSH0 PUSH2 0x41B DUP3 PUSH2 0x3B6 JUMP JUMPDEST PUSH2 0x425 DUP2 DUP6 PUSH2 0x3C0 JUMP JUMPDEST SWAP4 POP PUSH2 0x430 DUP4 PUSH2 0x3D0 JUMP JUMPDEST DUP1 PUSH0 JUMPDEST DUP4 DUP2 LT ISZERO PUSH2 0x460 JUMPI DUP2 MLOAD PUSH2 0x447 DUP9 DUP3 PUSH2 0x3EE JUMP JUMPDEST SWAP8 POP PUSH2 0x452 DUP4 PUSH2 0x405 JUMP JUMPDEST SWAP3 POP POP PUSH1 0x1 DUP2 ADD SWAP1 POP PUSH2 0x433 JUMP JUMPDEST POP DUP6 SWAP4 POP POP POP POP SWAP3 SWAP2 POP POP JUMP JUMPDEST PUSH0 PUSH1 0x20 DUP3 ADD SWAP1 POP DUP2 DUP2 SUB PUSH0 DUP4 ADD MSTORE PUSH2 0x485 DUP2 DUP5 PUSH2 0x411 JUMP JUMPDEST SWAP1 POP SWAP3 SWAP2 POP POP JUMP JUMPDEST PUSH0 DUP3 DUP3 MSTORE PUSH1 0x20 DUP3 ADD SWAP1 POP SWAP3 SWAP2 POP POP JUMP JUMPDEST PUSH32 0x417272617920746F6F206C617267650000000000000000000000000000000000 PUSH0 DUP3 ADD MSTORE POP JUMP JUMPDEST PUSH0 PUSH2 0x4D1 PUSH1 0xF DUP4 PUSH2 0x48D JUMP JUMPDEST SWAP2 POP PUSH2 0x4DC DUP3 PUSH2 0x49D JUMP JUMPDEST PUSH1 0x20 DUP3 ADD SWAP1 POP SWAP2 SWAP1 POP JUMP JUMPDEST PUSH0 PUSH1 0x20 DUP3 ADD SWAP1 POP DUP2 DUP2 SUB PUSH0 DUP4 ADD MSTORE PUSH2 0x4FE DUP2 PUSH2 0x4C5 JUMP JUMPDEST SWAP1 POP SWAP2 SWAP1 POP JUMP JUMPDEST PUSH32 0x4E487B7100000000000000000000000000000000000000000000000000000000 PUSH0 MSTORE PUSH1 0x41 PUSH1 0x4 MSTORE PUSH1 0x24 PUSH0 REVERT JUMPDEST PUSH32 0x4E487B7100000000000000000000000000000000000000000000000000000000 PUSH0 MSTORE PUSH1 0x11 PUSH1 0x4 MSTORE PUSH1 0x24 PUSH0 REVERT JUMPDEST PUSH0 PUSH2 0x569 DUP3 PUSH2 0x330 JUMP JUMPDEST SWAP2 POP PUSH2 0x574 DUP4 PUSH2 0x330 JUMP JUMPDEST SWAP3 POP DUP3 DUP3 ADD SWAP1 POP DUP1 DUP3 GT ISZERO PUSH2 0x58C JUMPI PUSH2 0x58B PUSH2 0x532 JUMP JUMPDEST JUMPDEST SWAP3 SWAP2 POP POP JUMP JUMPDEST PUSH32 0x4E487B7100000000000000000000000000000000000000000000000000000000 PUSH0 MSTORE PUSH1 0x32 PUSH1 0x4 MSTORE PUSH1 0x24 PUSH0 REVERT JUMPDEST PUSH0 PUSH2 0x5C9 DUP3 PUSH2 0x330 JUMP JUMPDEST SWAP2 POP PUSH2 0x5D4 DUP4 PUSH2 0x330 JUMP JUMPDEST SWAP3 POP DUP3 DUP3 MUL PUSH2 0x5E2 DUP2 PUSH2 0x330 JUMP JUMPDEST SWAP2 POP DUP3 DUP3 DIV DUP5 EQ DUP4 ISZERO OR PUSH2 0x5F9 JUMPI PUSH2 0x5F8 PUSH2 0x532 JUMP JUMPDEST JUMPDEST POP SWAP3 SWAP2 POP POP JUMP INVALID LOG2 PUSH5 0x6970667358 0x22 SLT KECCAK256 0xEF LOG0 0x2C PUSH17 0x31F802A2ABFC85936BC3DCF0E0787BE73 PUSH28 0x92F136BC54B2CA3B0DAD64736F6C6343000822003300000000000000 "
				},
				"gasEstimates": {
					"creation": {
						"codeDepositCost": "318000",
						"executionCost": "353",
						"totalCost": "318353"
					},
					"external": {
						"MAX_ARRAY_SIZE()": "369",
						"calculateSquares(uint256)": "infinite",
						"createMemoryArray(uint256)": "infinite",
						"storeValue(uint256)": "46842",
						"storedNumbers(uint256)": "infinite"
					}
				},
				"methodIdentifiers": {
					"MAX_ARRAY_SIZE()": "af7efa7c",
					"calculateSquares(uint256)": "f0569df3",
					"createMemoryArray(uint256)": "6d236703",
					"storeValue(uint256)": "7221a26a",
					"storedNumbers(uint256)": "3b1f0cd0"
				}
			},
			"storageLayout": {
				"storage": [
					{
						"astId": 108,
						"contract": "prac18.sol:MemoryArray",
						"label": "storedNumbers",
						"offset": 0,
						"slot": "0",
						"type": "t_array(t_uint256)dyn_storage"
					}
				],
				"types": {
					"t_array(t_uint256)dyn_storage": {
						"base": "t_uint256",
						"encoding": "dynamic_array",
						"label": "uint256[]",
						"numberOfBytes": "32"
					},
					"t_uint256": {
						"encoding": "inplace",
						"label": "uint256",
						"numberOfBytes": "32"
					}
				}
			},
			"userdoc": {
				"kind": "user",
				"methods": {},
				"version": 1
			}
		}
	}
}