{
	"prac23.sol": {
		"StorageVsMemoryPatched": {
			"abi": [
				{
					"anonymous": false,
					"inputs": [
						{
							"indexed": true,
							"internalType": "address",
							"name": "user",
							"type": "address"
						},
						{
							"indexed": false,
							"internalType": "uint256",
							"name": "oldScore",
							"type": "uint256"
						},
						{
							"indexed": false,
							"internalType": "uint256",
							"name": "newScore",
							"type": "uint256"
						}
					],
					"name": "ScoreUpdated",
					"type": "event"
				},
				{
					"anonymous": false,
					"inputs": [
						{
							"indexed": true,
							"internalType": "address",
							"name": "user",
							"type": "address"
						}
					],
					"name": "UserCreated",
					"type": "event"
				},
				{
					"inputs": [],
					"name": "createUser",
					"outputs": [],
					"stateMutability": "nonpayable",
					"type": "function"
				},
				{
					"inputs": [],
					"name": "getUser",
					"outputs": [
						{
							"internalType": "uint256",
							"name": "",
							"type": "uint256"
						},
						{
							"internalType": "bool",
							"name": "",
							"type": "bool"
						}
					],
					"stateMutability": "view",
					"type": "function"
				},
				{
					"inputs": [],
					"name": "updateUsingMemory",
					"outputs": [
						{
							"internalType": "uint256",
							"name": "",
							"type": "uint256"
						},
						{
							"internalType": "bool",
							"name": "",
							"type": "bool"
						}
					],
					"stateMutability": "view",
					"type": "function"
				},
				{
					"inputs": [],
					"name": "updateUsingStorage",
					"outputs": [],
					"stateMutability": "nonpayable",
					"type": "function"
				},
				{
					"inputs": [
						{
							"internalType": "address",
							"name": "",
							"type": "address"
						}
					],
					"name": "users",
					"outputs": [
						{
							"internalType": "uint256",
							"name": "score",
							"type": "uint256"
						},
						{
							"internalType": "bool",
							"name": "active",
							"type": "bool"
						}
					],
					"stateMutability": "view",
					"type": "function"
				}
			],
			"devdoc": {
				"kind": "dev",
				"methods": {},
				"version": 1
			},
			"evm": {
				"assembly": "    /* \"prac23.sol\":10418:12264  contract StorageVsMemoryPatched {... */\n  mstore(0x40, 0x80)\n  callvalue\n  dup1\n  iszero\n  tag_1\n  jumpi\n  revert(0x00, 0x00)\ntag_1:\n  pop\n  dataSize(sub_0)\n  dup1\n  dataOffset(sub_0)\n  0x00\n  codecopy\n  0x00\n  return\nstop\n\nsub_0: assembly {\n        /* \"prac23.sol\":10418:12264  contract StorageVsMemoryPatched {... */\n      mstore(0x40, 0x80)\n      callvalue\n      dup1\n      iszero\n      tag_1\n      jumpi\n      revert(0x00, 0x00)\n    tag_1:\n      pop\n      jumpi(tag_2, lt(calldatasize, 0x04))\n      shr(0xe0, calldataload(0x00))\n      dup1\n      0x0a902c1a\n      eq\n      tag_3\n      jumpi\n      dup1\n      0x25ad91ce\n      eq\n      tag_4\n      jumpi\n      dup1\n      0x3d9f1012\n      eq\n      tag_5\n      jumpi\n      dup1\n      0x832880e7\n      eq\n      tag_6\n      jumpi\n      dup1\n      0xa87430ba\n      eq\n      tag_7\n      jumpi\n    tag_2:\n      revert(0x00, 0x00)\n        /* \"prac23.sol\":11420:11898  function updateUsingMemory()... */\n    tag_3:\n      tag_8\n      tag_9\n      jump\t// in\n    tag_8:\n      mload(0x40)\n      tag_10\n      swap3\n      swap2\n      swap1\n      tag_11\n      jump\t// in\n    tag_10:\n      mload(0x40)\n      dup1\n      swap2\n      sub\n      swap1\n      return\n        /* \"prac23.sol\":10744:11031  function createUser() public {... */\n    tag_4:\n      tag_12\n      tag_13\n      jump\t// in\n    tag_12:\n      stop\n        /* \"prac23.sol\":11039:11412  function updateUsingStorage() public {... */\n    tag_5:\n      tag_14\n      tag_15\n      jump\t// in\n    tag_14:\n      stop\n        /* \"prac23.sol\":11906:12261  function getUser()... */\n    tag_6:\n      tag_16\n      tag_17\n      jump\t// in\n    tag_16:\n      mload(0x40)\n      tag_18\n      swap3\n      swap2\n      swap1\n      tag_11\n      jump\t// in\n    tag_18:\n      mload(0x40)\n      dup1\n      swap2\n      sub\n      swap1\n      return\n        /* \"prac23.sol\":10533:10570  mapping(address => User) public users */\n    tag_7:\n      tag_19\n      0x04\n      dup1\n      calldatasize\n      sub\n      dup2\n      add\n      swap1\n      tag_20\n      swap2\n      swap1\n      tag_21\n      jump\t// in\n    tag_20:\n      tag_22\n      jump\t// in\n    tag_19:\n      mload(0x40)\n      tag_23\n      swap3\n      swap2\n      swap1\n      tag_11\n      jump\t// in\n    tag_23:\n      mload(0x40)\n      dup1\n      swap2\n      sub\n      swap1\n      return\n        /* \"prac23.sol\":11420:11898  function updateUsingMemory()... */\n    tag_9:\n        /* \"prac23.sol\":11511:11518  uint256 */\n      0x00\n        /* \"prac23.sol\":11533:11537  bool */\n      0x00\n        /* \"prac23.sol\":11565:11588  User storage storedUser */\n      0x00\n        /* \"prac23.sol\":11591:11596  users */\n      0x00\n        /* \"prac23.sol\":11591:11608  users[msg.sender] */\n      0x00\n        /* \"prac23.sol\":11597:11607  msg.sender */\n      caller\n        /* \"prac23.sol\":11591:11608  users[msg.sender] */\n      0xffffffffffffffffffffffffffffffffffffffff\n      and\n      0xffffffffffffffffffffffffffffffffffffffff\n      and\n      dup2\n      mstore\n      0x20\n      add\n      swap1\n      dup2\n      mstore\n      0x20\n      add\n      0x00\n      keccak256\n        /* \"prac23.sol\":11565:11608  User storage storedUser = users[msg.sender] */\n      swap1\n      pop\n        /* \"prac23.sol\":11643:11653  storedUser */\n      dup1\n        /* \"prac23.sol\":11643:11660  storedUser.active */\n      0x01\n      add\n      0x00\n      swap1\n      sload\n      swap1\n      0x0100\n      exp\n      swap1\n      div\n      0xff\n      and\n        /* \"prac23.sol\":11621:11707  require(... */\n      tag_25\n      jumpi\n      mload(0x40)\n      0x08c379a000000000000000000000000000000000000000000000000000000000\n      dup2\n      mstore\n      0x04\n      add\n      tag_26\n      swap1\n      tag_27\n      jump\t// in\n    tag_26:\n      mload(0x40)\n      dup1\n      swap2\n      sub\n      swap1\n      revert\n    tag_25:\n        /* \"prac23.sol\":11720:11736  User memory user */\n      0x00\n        /* \"prac23.sol\":11739:11749  storedUser */\n      dup2\n        /* \"prac23.sol\":11720:11749  User memory user = storedUser */\n      mload(0x40)\n      dup1\n      0x40\n      add\n      0x40\n      mstore\n      swap1\n      dup2\n      0x00\n      dup3\n      add\n      sload\n      dup2\n      mstore\n      0x20\n      add\n      0x01\n      dup3\n      add\n      0x00\n      swap1\n      sload\n      swap1\n      0x0100\n      exp\n      swap1\n      div\n      0xff\n      and\n      iszero\n      iszero\n      iszero\n      iszero\n      dup2\n      mstore\n      pop\n      pop\n      swap1\n      pop\n        /* \"prac23.sol\":11775:11778  555 */\n      0x022b\n        /* \"prac23.sol\":11762:11766  user */\n      dup2\n        /* \"prac23.sol\":11762:11772  user.score */\n      0x00\n      add\n        /* \"prac23.sol\":11762:11778  user.score = 555 */\n      dup2\n      dup2\n      mstore\n      pop\n      pop\n        /* \"prac23.sol\":11803:11808  false */\n      0x00\n        /* \"prac23.sol\":11789:11793  user */\n      dup2\n        /* \"prac23.sol\":11789:11800  user.active */\n      0x20\n      add\n        /* \"prac23.sol\":11789:11808  user.active = false */\n      swap1\n      iszero\n      iszero\n      swap1\n      dup2\n      iszero\n      iszero\n      dup2\n      mstore\n      pop\n      pop\n        /* \"prac23.sol\":11843:11847  user */\n      dup1\n        /* \"prac23.sol\":11843:11853  user.score */\n      0x00\n      add\n      mload\n        /* \"prac23.sol\":11868:11872  user */\n      dup2\n        /* \"prac23.sol\":11868:11879  user.active */\n      0x20\n      add\n      mload\n        /* \"prac23.sol\":11821:11890  return (... */\n      swap4\n      pop\n      swap4\n      pop\n      pop\n      pop\n        /* \"prac23.sol\":11420:11898  function updateUsingMemory()... */\n      swap1\n      swap2\n      jump\t// out\n        /* \"prac23.sol\":10744:11031  function createUser() public {... */\n    tag_13:\n        /* \"prac23.sol\":10809:10814  users */\n      0x00\n        /* \"prac23.sol\":10809:10826  users[msg.sender] */\n      0x00\n        /* \"prac23.sol\":10815:10825  msg.sender */\n      caller\n        /* \"prac23.sol\":10809:10826  users[msg.sender] */\n      0xffffffffffffffffffffffffffffffffffffffff\n      and\n      0xffffffffffffffffffffffffffffffffffffffff\n      and\n      dup2\n      mstore\n      0x20\n      add\n      swap1\n      dup2\n      mstore\n      0x20\n      add\n      0x00\n      keccak256\n        /* \"prac23.sol\":10809:10833  users[msg.sender].active */\n      0x01\n      add\n      0x00\n      swap1\n      sload\n      swap1\n      0x0100\n      exp\n      swap1\n      div\n      0xff\n      and\n        /* \"prac23.sol\":10808:10833  !users[msg.sender].active */\n      iszero\n        /* \"prac23.sol\":10786:10880  require(... */\n      tag_29\n      jumpi\n      mload(0x40)\n      0x08c379a000000000000000000000000000000000000000000000000000000000\n      dup2\n      mstore\n      0x04\n      add\n      tag_30\n      swap1\n      tag_31\n      jump\t// in\n    tag_30:\n      mload(0x40)\n      dup1\n      swap2\n      sub\n      swap1\n      revert\n    tag_29:\n        /* \"prac23.sol\":10913:10982  User({... */\n      mload(0x40)\n      dup1\n      0x40\n      add\n      0x40\n      mstore\n      dup1\n        /* \"prac23.sol\":10940:10943  100 */\n      0x64\n        /* \"prac23.sol\":10913:10982  User({... */\n      dup2\n      mstore\n      0x20\n      add\n        /* \"prac23.sol\":10966:10970  true */\n      0x01\n        /* \"prac23.sol\":10913:10982  User({... */\n      iszero\n      iszero\n      dup2\n      mstore\n      pop\n        /* \"prac23.sol\":10893:10898  users */\n      0x00\n        /* \"prac23.sol\":10893:10910  users[msg.sender] */\n      0x00\n        /* \"prac23.sol\":10899:10909  msg.sender */\n      caller\n        /* \"prac23.sol\":10893:10910  users[msg.sender] */\n      0xffffffffffffffffffffffffffffffffffffffff\n      and\n      0xffffffffffffffffffffffffffffffffffffffff\n      and\n      dup2\n      mstore\n      0x20\n      add\n      swap1\n      dup2\n      mstore\n      0x20\n      add\n      0x00\n      keccak256\n        /* \"prac23.sol\":10893:10982  users[msg.sender] = User({... */\n      0x00\n      dup3\n      add\n      mload\n      dup2\n      0x00\n      add\n      sstore\n      0x20\n      dup3\n      add\n      mload\n      dup2\n      0x01\n      add\n      exp(0x0100, 0x00)\n      dup2\n      sload\n      dup2\n      0xff\n      mul\n      not\n      and\n      swap1\n      dup4\n      iszero\n      iszero\n      mul\n      or\n      swap1\n      sstore\n      pop\n      swap1\n      pop\n      pop\n        /* \"prac23.sol\":11012:11022  msg.sender */\n      caller\n        /* \"prac23.sol\":11000:11023  UserCreated(msg.sender) */\n      0xffffffffffffffffffffffffffffffffffffffff\n      and\n      0x0b0376a109cbb578b709f85f6a7befcdac3ac1ab251c99ede87f30c9572ac4d3\n      mload(0x40)\n      mload(0x40)\n      dup1\n      swap2\n      sub\n      swap1\n      log2\n        /* \"prac23.sol\":10744:11031  function createUser() public {... */\n      jump\t// out\n        /* \"prac23.sol\":11039:11412  function updateUsingStorage() public {... */\n    tag_15:\n        /* \"prac23.sol\":11089:11106  User storage user */\n      0x00\n        /* \"prac23.sol\":11109:11114  users */\n      0x00\n        /* \"prac23.sol\":11109:11126  users[msg.sender] */\n      0x00\n        /* \"prac23.sol\":11115:11125  msg.sender */\n      caller\n        /* \"prac23.sol\":11109:11126  users[msg.sender] */\n      0xffffffffffffffffffffffffffffffffffffffff\n      and\n      0xffffffffffffffffffffffffffffffffffffffff\n      and\n      dup2\n      mstore\n      0x20\n      add\n      swap1\n      dup2\n      mstore\n      0x20\n      add\n      0x00\n      keccak256\n        /* \"prac23.sol\":11089:11126  User storage user = users[msg.sender] */\n      swap1\n      pop\n        /* \"prac23.sol\":11161:11165  user */\n      dup1\n        /* \"prac23.sol\":11161:11172  user.active */\n      0x01\n      add\n      0x00\n      swap1\n      sload\n      swap1\n      0x0100\n      exp\n      swap1\n      div\n      0xff\n      and\n        /* \"prac23.sol\":11139:11219  require(... */\n      tag_33\n      jumpi\n      mload(0x40)\n      0x08c379a000000000000000000000000000000000000000000000000000000000\n      dup2\n      mstore\n      0x04\n      add\n      tag_34\n      swap1\n      tag_27\n      jump\t// in\n    tag_34:\n      mload(0x40)\n      dup1\n      swap2\n      sub\n      swap1\n      revert\n    tag_33:\n        /* \"prac23.sol\":11232:11248  uint256 oldScore */\n      0x00\n        /* \"prac23.sol\":11251:11255  user */\n      dup2\n        /* \"prac23.sol\":11251:11261  user.score */\n      0x00\n      add\n      sload\n        /* \"prac23.sol\":11232:11261  uint256 oldScore = user.score */\n      swap1\n      pop\n        /* \"prac23.sol\":11287:11290  999 */\n      0x03e7\n        /* \"prac23.sol\":11274:11278  user */\n      dup3\n        /* \"prac23.sol\":11274:11284  user.score */\n      0x00\n      add\n        /* \"prac23.sol\":11274:11290  user.score = 999 */\n      dup2\n      swap1\n      sstore\n      pop\n        /* \"prac23.sol\":11335:11345  msg.sender */\n      caller\n        /* \"prac23.sol\":11308:11404  ScoreUpdated(... */\n      0xffffffffffffffffffffffffffffffffffffffff\n      and\n      0x91878448ef87c3db4aeb83e60e7deb1240ecae3fd04975ec93547398514cb4ed\n        /* \"prac23.sol\":11360:11368  oldScore */\n      dup3\n        /* \"prac23.sol\":11383:11387  user */\n      dup5\n        /* \"prac23.sol\":11383:11393  user.score */\n      0x00\n      add\n      sload\n        /* \"prac23.sol\":11308:11404  ScoreUpdated(... */\n      mload(0x40)\n      tag_35\n      swap3\n      swap2\n      swap1\n      tag_36\n      jump\t// in\n    tag_35:\n      mload(0x40)\n      dup1\n      swap2\n      sub\n      swap1\n      log2\n        /* \"prac23.sol\":11076:11412  {... */\n      pop\n      pop\n        /* \"prac23.sol\":11039:11412  function updateUsingStorage() public {... */\n      jump\t// out\n        /* \"prac23.sol\":11906:12261  function getUser()... */\n    tag_17:\n        /* \"prac23.sol\":11987:11994  uint256 */\n      0x00\n        /* \"prac23.sol\":12009:12013  bool */\n      0x00\n        /* \"prac23.sol\":12041:12058  User storage user */\n      0x00\n        /* \"prac23.sol\":12061:12066  users */\n      0x00\n        /* \"prac23.sol\":12061:12078  users[msg.sender] */\n      0x00\n        /* \"prac23.sol\":12067:12077  msg.sender */\n      caller\n        /* \"prac23.sol\":12061:12078  users[msg.sender] */\n      0xffffffffffffffffffffffffffffffffffffffff\n      and\n      0xffffffffffffffffffffffffffffffffffffffff\n      and\n      dup2\n      mstore\n      0x20\n      add\n      swap1\n      dup2\n      mstore\n      0x20\n      add\n      0x00\n      keccak256\n        /* \"prac23.sol\":12041:12078  User storage user = users[msg.sender] */\n      swap1\n      pop\n        /* \"prac23.sol\":12113:12117  user */\n      dup1\n        /* \"prac23.sol\":12113:12124  user.active */\n      0x01\n      add\n      0x00\n      swap1\n      sload\n      swap1\n      0x0100\n      exp\n      swap1\n      div\n      0xff\n      and\n        /* \"prac23.sol\":12091:12171  require(... */\n      tag_38\n      jumpi\n      mload(0x40)\n      0x08c379a000000000000000000000000000000000000000000000000000000000\n      dup2\n      mstore\n      0x04\n      add\n      tag_39\n      swap1\n      tag_27\n      jump\t// in\n    tag_39:\n      mload(0x40)\n      dup1\n      swap2\n      sub\n      swap1\n      revert\n    tag_38:\n        /* \"prac23.sol\":12206:12210  user */\n      dup1\n        /* \"prac23.sol\":12206:12216  user.score */\n      0x00\n      add\n      sload\n        /* \"prac23.sol\":12231:12235  user */\n      dup2\n        /* \"prac23.sol\":12231:12242  user.active */\n      0x01\n      add\n      0x00\n      swap1\n      sload\n      swap1\n      0x0100\n      exp\n      swap1\n      div\n      0xff\n      and\n        /* \"prac23.sol\":12184:12253  return (... */\n      swap3\n      pop\n      swap3\n      pop\n      pop\n        /* \"prac23.sol\":11906:12261  function getUser()... */\n      swap1\n      swap2\n      jump\t// out\n        /* \"prac23.sol\":10533:10570  mapping(address => User) public users */\n    tag_22:\n      mstore(0x20, 0x00)\n      dup1\n      0x00\n      mstore\n      keccak256(0x00, 0x40)\n      0x00\n      swap2\n      pop\n      swap1\n      pop\n      dup1\n      0x00\n      add\n      sload\n      swap1\n      dup1\n      0x01\n      add\n      0x00\n      swap1\n      sload\n      swap1\n      0x0100\n      exp\n      swap1\n      div\n      0xff\n      and\n      swap1\n      pop\n      dup3\n      jump\t// out\n        /* \"#utility.yul\":7:84   */\n    tag_40:\n        /* \"#utility.yul\":44:51   */\n      0x00\n        /* \"#utility.yul\":73:78   */\n      dup2\n        /* \"#utility.yul\":62:78   */\n      swap1\n      pop\n        /* \"#utility.yul\":7:84   */\n      swap2\n      swap1\n      pop\n      jump\t// out\n        /* \"#utility.yul\":90:208   */\n    tag_41:\n        /* \"#utility.yul\":177:201   */\n      tag_59\n        /* \"#utility.yul\":195:200   */\n      dup2\n        /* \"#utility.yul\":177:201   */\n      tag_40\n      jump\t// in\n    tag_59:\n        /* \"#utility.yul\":172:175   */\n      dup3\n        /* \"#utility.yul\":165:202   */\n      mstore\n        /* \"#utility.yul\":90:208   */\n      pop\n      pop\n      jump\t// out\n        /* \"#utility.yul\":214:304   */\n    tag_42:\n        /* \"#utility.yul\":248:255   */\n      0x00\n        /* \"#utility.yul\":291:296   */\n      dup2\n        /* \"#utility.yul\":284:297   */\n      iszero\n        /* \"#utility.yul\":277:298   */\n      iszero\n        /* \"#utility.yul\":266:298   */\n      swap1\n      pop\n        /* \"#utility.yul\":214:304   */\n      swap2\n      swap1\n      pop\n      jump\t// out\n        /* \"#utility.yul\":310:419   */\n    tag_43:\n        /* \"#utility.yul\":391:412   */\n      tag_62\n        /* \"#utility.yul\":406:411   */\n      dup2\n        /* \"#utility.yul\":391:412   */\n      tag_42\n      jump\t// in\n    tag_62:\n        /* \"#utility.yul\":386:389   */\n      dup3\n        /* \"#utility.yul\":379:413   */\n      mstore\n        /* \"#utility.yul\":310:419   */\n      pop\n      pop\n      jump\t// out\n        /* \"#utility.yul\":425:745   */\n    tag_11:\n        /* \"#utility.yul\":540:544   */\n      0x00\n        /* \"#utility.yul\":578:580   */\n      0x40\n        /* \"#utility.yul\":567:576   */\n      dup3\n        /* \"#utility.yul\":563:581   */\n      add\n        /* \"#utility.yul\":555:581   */\n      swap1\n      pop\n        /* \"#utility.yul\":591:662   */\n      tag_64\n        /* \"#utility.yul\":659:660   */\n      0x00\n        /* \"#utility.yul\":648:657   */\n      dup4\n        /* \"#utility.yul\":644:661   */\n      add\n        /* \"#utility.yul\":635:641   */\n      dup6\n        /* \"#utility.yul\":591:662   */\n      tag_41\n      jump\t// in\n    tag_64:\n        /* \"#utility.yul\":672:738   */\n      tag_65\n        /* \"#utility.yul\":734:736   */\n      0x20\n        /* \"#utility.yul\":723:732   */\n      dup4\n        /* \"#utility.yul\":719:737   */\n      add\n        /* \"#utility.yul\":710:716   */\n      dup5\n        /* \"#utility.yul\":672:738   */\n      tag_43\n      jump\t// in\n    tag_65:\n        /* \"#utility.yul\":425:745   */\n      swap4\n      swap3\n      pop\n      pop\n      pop\n      jump\t// out\n        /* \"#utility.yul\":832:949   */\n    tag_45:\n        /* \"#utility.yul\":941:942   */\n      0x00\n        /* \"#utility.yul\":938:939   */\n      0x00\n        /* \"#utility.yul\":931:943   */\n      revert\n        /* \"#utility.yul\":1078:1204   */\n    tag_47:\n        /* \"#utility.yul\":1115:1122   */\n      0x00\n        /* \"#utility.yul\":1155:1197   */\n      0xffffffffffffffffffffffffffffffffffffffff\n        /* \"#utility.yul\":1148:1153   */\n      dup3\n        /* \"#utility.yul\":1144:1198   */\n      and\n        /* \"#utility.yul\":1133:1198   */\n      swap1\n      pop\n        /* \"#utility.yul\":1078:1204   */\n      swap2\n      swap1\n      pop\n      jump\t// out\n        /* \"#utility.yul\":1210:1306   */\n    tag_48:\n        /* \"#utility.yul\":1247:1254   */\n      0x00\n        /* \"#utility.yul\":1276:1300   */\n      tag_71\n        /* \"#utility.yul\":1294:1299   */\n      dup3\n        /* \"#utility.yul\":1276:1300   */\n      tag_47\n      jump\t// in\n    tag_71:\n        /* \"#utility.yul\":1265:1300   */\n      swap1\n      pop\n        /* \"#utility.yul\":1210:1306   */\n      swap2\n      swap1\n      pop\n      jump\t// out\n        /* \"#utility.yul\":1312:1434   */\n    tag_49:\n        /* \"#utility.yul\":1385:1409   */\n      tag_73\n        /* \"#utility.yul\":1403:1408   */\n      dup2\n        /* \"#utility.yul\":1385:1409   */\n      tag_48\n      jump\t// in\n    tag_73:\n        /* \"#utility.yul\":1378:1383   */\n      dup2\n        /* \"#utility.yul\":1375:1410   */\n      eq\n        /* \"#utility.yul\":1365:1428   */\n      tag_74\n      jumpi\n        /* \"#utility.yul\":1424:1425   */\n      0x00\n        /* \"#utility.yul\":1421:1422   */\n      0x00\n        /* \"#utility.yul\":1414:1426   */\n      revert\n        /* \"#utility.yul\":1365:1428   */\n    tag_74:\n        /* \"#utility.yul\":1312:1434   */\n      pop\n      jump\t// out\n        /* \"#utility.yul\":1440:1579   */\n    tag_50:\n        /* \"#utility.yul\":1486:1491   */\n      0x00\n        /* \"#utility.yul\":1524:1530   */\n      dup2\n        /* \"#utility.yul\":1511:1531   */\n      calldataload\n        /* \"#utility.yul\":1502:1531   */\n      swap1\n      pop\n        /* \"#utility.yul\":1540:1573   */\n      tag_76\n        /* \"#utility.yul\":1567:1572   */\n      dup2\n        /* \"#utility.yul\":1540:1573   */\n      tag_49\n      jump\t// in\n    tag_76:\n        /* \"#utility.yul\":1440:1579   */\n      swap3\n      swap2\n      pop\n      pop\n      jump\t// out\n        /* \"#utility.yul\":1585:1914   */\n    tag_21:\n        /* \"#utility.yul\":1644:1650   */\n      0x00\n        /* \"#utility.yul\":1693:1695   */\n      0x20\n        /* \"#utility.yul\":1681:1690   */\n      dup3\n        /* \"#utility.yul\":1672:1679   */\n      dup5\n        /* \"#utility.yul\":1668:1691   */\n      sub\n        /* \"#utility.yul\":1664:1696   */\n      slt\n        /* \"#utility.yul\":1661:1780   */\n      iszero\n      tag_78\n      jumpi\n        /* \"#utility.yul\":1699:1778   */\n      tag_79\n      tag_45\n      jump\t// in\n    tag_79:\n        /* \"#utility.yul\":1661:1780   */\n    tag_78:\n        /* \"#utility.yul\":1819:1820   */\n      0x00\n        /* \"#utility.yul\":1844:1897   */\n      tag_80\n        /* \"#utility.yul\":1889:1896   */\n      dup5\n        /* \"#utility.yul\":1880:1886   */\n      dup3\n        /* \"#utility.yul\":1869:1878   */\n      dup6\n        /* \"#utility.yul\":1865:1887   */\n      add\n        /* \"#utility.yul\":1844:1897   */\n      tag_50\n      jump\t// in\n    tag_80:\n        /* \"#utility.yul\":1834:1897   */\n      swap2\n      pop\n        /* \"#utility.yul\":1790:1907   */\n      pop\n        /* \"#utility.yul\":1585:1914   */\n      swap3\n      swap2\n      pop\n      pop\n      jump\t// out\n        /* \"#utility.yul\":1920:2089   */\n    tag_51:\n        /* \"#utility.yul\":2004:2015   */\n      0x00\n        /* \"#utility.yul\":2038:2044   */\n      dup3\n        /* \"#utility.yul\":2033:2036   */\n      dup3\n        /* \"#utility.yul\":2026:2045   */\n      mstore\n        /* \"#utility.yul\":2078:2082   */\n      0x20\n        /* \"#utility.yul\":2073:2076   */\n      dup3\n        /* \"#utility.yul\":2069:2083   */\n      add\n        /* \"#utility.yul\":2054:2083   */\n      swap1\n      pop\n        /* \"#utility.yul\":1920:2089   */\n      swap3\n      swap2\n      pop\n      pop\n      jump\t// out\n        /* \"#utility.yul\":2095:2264   */\n    tag_52:\n        /* \"#utility.yul\":2235:2256   */\n      0x5573657220646f6573206e6f7420657869737400000000000000000000000000\n        /* \"#utility.yul\":2231:2232   */\n      0x00\n        /* \"#utility.yul\":2223:2229   */\n      dup3\n        /* \"#utility.yul\":2219:2233   */\n      add\n        /* \"#utility.yul\":2212:2257   */\n      mstore\n        /* \"#utility.yul\":2095:2264   */\n      pop\n      jump\t// out\n        /* \"#utility.yul\":2270:2636   */\n    tag_53:\n        /* \"#utility.yul\":2412:2415   */\n      0x00\n        /* \"#utility.yul\":2433:2500   */\n      tag_84\n        /* \"#utility.yul\":2497:2499   */\n      0x13\n        /* \"#utility.yul\":2492:2495   */\n      dup4\n        /* \"#utility.yul\":2433:2500   */\n      tag_51\n      jump\t// in\n    tag_84:\n        /* \"#utility.yul\":2426:2500   */\n      swap2\n      pop\n        /* \"#utility.yul\":2509:2602   */\n      tag_85\n        /* \"#utility.yul\":2598:2601   */\n      dup3\n        /* \"#utility.yul\":2509:2602   */\n      tag_52\n      jump\t// in\n    tag_85:\n        /* \"#utility.yul\":2627:2629   */\n      0x20\n        /* \"#utility.yul\":2622:2625   */\n      dup3\n        /* \"#utility.yul\":2618:2630   */\n      add\n        /* \"#utility.yul\":2611:2630   */\n      swap1\n      pop\n        /* \"#utility.yul\":2270:2636   */\n      swap2\n      swap1\n      pop\n      jump\t// out\n        /* \"#utility.yul\":2642:3061   */\n    tag_27:\n        /* \"#utility.yul\":2808:2812   */\n      0x00\n        /* \"#utility.yul\":2846:2848   */\n      0x20\n        /* \"#utility.yul\":2835:2844   */\n      dup3\n        /* \"#utility.yul\":2831:2849   */\n      add\n        /* \"#utility.yul\":2823:2849   */\n      swap1\n      pop\n        /* \"#utility.yul\":2895:2904   */\n      dup2\n        /* \"#utility.yul\":2889:2893   */\n      dup2\n        /* \"#utility.yul\":2885:2905   */\n      sub\n        /* \"#utility.yul\":2881:2882   */\n      0x00\n        /* \"#utility.yul\":2870:2879   */\n      dup4\n        /* \"#utility.yul\":2866:2883   */\n      add\n        /* \"#utility.yul\":2859:2906   */\n      mstore\n        /* \"#utility.yul\":2923:3054   */\n      tag_87\n        /* \"#utility.yul\":3049:3053   */\n      dup2\n        /* \"#utility.yul\":2923:3054   */\n      tag_53\n      jump\t// in\n    tag_87:\n        /* \"#utility.yul\":2915:3054   */\n      swap1\n      pop\n        /* \"#utility.yul\":2642:3061   */\n      swap2\n      swap1\n      pop\n      jump\t// out\n        /* \"#utility.yul\":3067:3236   */\n    tag_54:\n        /* \"#utility.yul\":3207:3228   */\n      0x5573657220616c72656164792065786973747300000000000000000000000000\n        /* \"#utility.yul\":3203:3204   */\n      0x00\n        /* \"#utility.yul\":3195:3201   */\n      dup3\n        /* \"#utility.yul\":3191:3205   */\n      add\n        /* \"#utility.yul\":3184:3229   */\n      mstore\n        /* \"#utility.yul\":3067:3236   */\n      pop\n      jump\t// out\n        /* \"#utility.yul\":3242:3608   */\n    tag_55:\n        /* \"#utility.yul\":3384:3387   */\n      0x00\n        /* \"#utility.yul\":3405:3472   */\n      tag_90\n        /* \"#utility.yul\":3469:3471   */\n      0x13\n        /* \"#utility.yul\":3464:3467   */\n      dup4\n        /* \"#utility.yul\":3405:3472   */\n      tag_51\n      jump\t// in\n    tag_90:\n        /* \"#utility.yul\":3398:3472   */\n      swap2\n      pop\n        /* \"#utility.yul\":3481:3574   */\n      tag_91\n        /* \"#utility.yul\":3570:3573   */\n      dup3\n        /* \"#utility.yul\":3481:3574   */\n      tag_54\n      jump\t// in\n    tag_91:\n        /* \"#utility.yul\":3599:3601   */\n      0x20\n        /* \"#utility.yul\":3594:3597   */\n      dup3\n        /* \"#utility.yul\":3590:3602   */\n      add\n        /* \"#utility.yul\":3583:3602   */\n      swap1\n      pop\n        /* \"#utility.yul\":3242:3608   */\n      swap2\n      swap1\n      pop\n      jump\t// out\n        /* \"#utility.yul\":3614:4033   */\n    tag_31:\n        /* \"#utility.yul\":3780:3784   */\n      0x00\n        /* \"#utility.yul\":3818:3820   */\n      0x20\n        /* \"#utility.yul\":3807:3816   */\n      dup3\n        /* \"#utility.yul\":3803:3821   */\n      add\n        /* \"#utility.yul\":3795:3821   */\n      swap1\n      pop\n        /* \"#utility.yul\":3867:3876   */\n      dup2\n        /* \"#utility.yul\":3861:3865   */\n      dup2\n        /* \"#utility.yul\":3857:3877   */\n      sub\n        /* \"#utility.yul\":3853:3854   */\n      0x00\n        /* \"#utility.yul\":3842:3851   */\n      dup4\n        /* \"#utility.yul\":3838:3855   */\n      add\n        /* \"#utility.yul\":3831:3878   */\n      mstore\n        /* \"#utility.yul\":3895:4026   */\n      tag_93\n        /* \"#utility.yul\":4021:4025   */\n      dup2\n        /* \"#utility.yul\":3895:4026   */\n      tag_55\n      jump\t// in\n    tag_93:\n        /* \"#utility.yul\":3887:4026   */\n      swap1\n      pop\n        /* \"#utility.yul\":3614:4033   */\n      swap2\n      swap1\n      pop\n      jump\t// out\n        /* \"#utility.yul\":4039:4371   */\n    tag_36:\n        /* \"#utility.yul\":4160:4164   */\n      0x00\n        /* \"#utility.yul\":4198:4200   */\n      0x40\n        /* \"#utility.yul\":4187:4196   */\n      dup3\n        /* \"#utility.yul\":4183:4201   */\n      add\n        /* \"#utility.yul\":4175:4201   */\n      swap1\n      pop\n        /* \"#utility.yul\":4211:4282   */\n      tag_95\n        /* \"#utility.yul\":4279:4280   */\n      0x00\n        /* \"#utility.yul\":4268:4277   */\n      dup4\n        /* \"#utility.yul\":4264:4281   */\n      add\n        /* \"#utility.yul\":4255:4261   */\n      dup6\n        /* \"#utility.yul\":4211:4282   */\n      tag_41\n      jump\t// in\n    tag_95:\n        /* \"#utility.yul\":4292:4364   */\n      tag_96\n        /* \"#utility.yul\":4360:4362   */\n      0x20\n        /* \"#utility.yul\":4349:4358   */\n      dup4\n        /* \"#utility.yul\":4345:4363   */\n      add\n        /* \"#utility.yul\":4336:4342   */\n      dup5\n        /* \"#utility.yul\":4292:4364   */\n      tag_41\n      jump\t// in\n    tag_96:\n        /* \"#utility.yul\":4039:4371   */\n      swap4\n      swap3\n      pop\n      pop\n      pop\n      jump\t// out\n\n    auxdata: 0xa264697066735822122072dafa93dc319b4444dc8a227a2ff51c5628e049793722a7cc05c539cf7a026964736f6c63430008220033\n}\n",
				"bytecode": {
					"linkReferences": {},
					"object": "6080604052348015600e575f5ffd5b5061070d8061001c5f395ff3fe608060405234801561000f575f5ffd5b5060043610610055575f3560e01c80630a902c1a1461005957806325ad91ce146100785780633d9f101214610082578063832880e71461008c578063a87430ba146100ab575b5f5ffd5b6100616100dc565b60405161006f929190610520565b60405180910390f35b6100806101cd565b005b61008a61031d565b005b610094610414565b6040516100a2929190610520565b60405180910390f35b6100c560048036038101906100c091906105a5565b6104c3565b6040516100d3929190610520565b60405180910390f35b5f5f5f5f5f3373ffffffffffffffffffffffffffffffffffffffff1673ffffffffffffffffffffffffffffffffffffffff1681526020019081526020015f209050806001015f9054906101000a900460ff1661016d576040517f08c379a00000000000000000000000000000000000000000000000000000000081526004016101649061062a565b60405180910390fd5b5f816040518060400160405290815f8201548152602001600182015f9054906101000a900460ff161515151581525050905061022b815f0181815250505f816020019015159081151581525050805f015181602001519350935050509091565b5f5f3373ffffffffffffffffffffffffffffffffffffffff1673ffffffffffffffffffffffffffffffffffffffff1681526020019081526020015f206001015f9054906101000a900460ff1615610259576040517f08c379a000000000000000000000000000000000000000000000000000000000815260040161025090610692565b60405180910390fd5b604051806040016040528060648152602001600115158152505f5f3373ffffffffffffffffffffffffffffffffffffffff1673ffffffffffffffffffffffffffffffffffffffff1681526020019081526020015f205f820151815f01556020820151816001015f6101000a81548160ff0219169083151502179055509050503373ffffffffffffffffffffffffffffffffffffffff167f0b0376a109cbb578b709f85f6a7befcdac3ac1ab251c99ede87f30c9572ac4d360405160405180910390a2565b5f5f5f3373ffffffffffffffffffffffffffffffffffffffff1673ffffffffffffffffffffffffffffffffffffffff1681526020019081526020015f209050806001015f9054906101000a900460ff166103ac576040517f08c379a00000000000000000000000000000000000000000000000000000000081526004016103a39061062a565b60405180910390fd5b5f815f015490506103e7825f01819055503373ffffffffffffffffffffffffffffffffffffffff167f91878448ef87c3db4aeb83e60e7deb1240ecae3fd04975ec93547398514cb4ed82845f01546040516104089291906106b0565b60405180910390a25050565b5f5f5f5f5f3373ffffffffffffffffffffffffffffffffffffffff1673ffffffffffffffffffffffffffffffffffffffff1681526020019081526020015f209050806001015f9054906101000a900460ff166104a5576040517f08c379a000000000000000000000000000000000000000000000000000000000815260040161049c9061062a565b60405180910390fd5b805f0154816001015f9054906101000a900460ff1692509250509091565b5f602052805f5260405f205f91509050805f015490806001015f9054906101000a900460ff16905082565b5f819050919050565b610500816104ee565b82525050565b5f8115159050919050565b61051a81610506565b82525050565b5f6040820190506105335f8301856104f7565b6105406020830184610511565b9392505050565b5f5ffd5b5f73ffffffffffffffffffffffffffffffffffffffff82169050919050565b5f6105748261054b565b9050919050565b6105848161056a565b811461058e575f5ffd5b50565b5f8135905061059f8161057b565b92915050565b5f602082840312156105ba576105b9610547565b5b5f6105c784828501610591565b91505092915050565b5f82825260208201905092915050565b7f5573657220646f6573206e6f74206578697374000000000000000000000000005f82015250565b5f6106146013836105d0565b915061061f826105e0565b602082019050919050565b5f6020820190508181035f83015261064181610608565b9050919050565b7f5573657220616c726561647920657869737473000000000000000000000000005f82015250565b5f61067c6013836105d0565b915061068782610648565b602082019050919050565b5f6020820190508181035f8301526106a981610670565b9050919050565b5f6040820190506106c35f8301856104f7565b6106d060208301846104f7565b939250505056fea264697066735822122072dafa93dc319b4444dc8a227a2ff51c5628e049793722a7cc05c539cf7a026964736f6c63430008220033",
					"opcodes": "PUSH1 0x80 PUSH1 0x40 MSTORE CALLVALUE DUP1 ISZERO PUSH1 0xE JUMPI PUSH0 PUSH0 REVERT JUMPDEST POP PUSH2 0x70D DUP1 PUSH2 0x1C PUSH0 CODECOPY PUSH0 RETURN INVALID PUSH1 0x80 PUSH1 0x40 MSTORE CALLVALUE DUP1 ISZERO PUSH2 0xF JUMPI PUSH0 PUSH0 REVERT JUMPDEST POP PUSH1 0x4 CALLDATASIZE LT PUSH2 0x55 JUMPI PUSH0 CALLDATALOAD PUSH1 0xE0 SHR DUP1 PUSH4 0xA902C1A EQ PUSH2 0x59 JUMPI DUP1 PUSH4 0x25AD91CE EQ PUSH2 0x78 JUMPI DUP1 PUSH4 0x3D9F1012 EQ PUSH2 0x82 JUMPI DUP1 PUSH4 0x832880E7 EQ PUSH2 0x8C JUMPI DUP1 PUSH4 0xA87430BA EQ PUSH2 0xAB JUMPI JUMPDEST PUSH0 PUSH0 REVERT JUMPDEST PUSH2 0x61 PUSH2 0xDC JUMP JUMPDEST PUSH1 0x40 MLOAD PUSH2 0x6F SWAP3 SWAP2 SWAP1 PUSH2 0x520 JUMP JUMPDEST PUSH1 0x40 MLOAD DUP1 SWAP2 SUB SWAP1 RETURN JUMPDEST PUSH2 0x80 PUSH2 0x1CD JUMP JUMPDEST STOP JUMPDEST PUSH2 0x8A PUSH2 0x31D JUMP JUMPDEST STOP JUMPDEST PUSH2 0x94 PUSH2 0x414 JUMP JUMPDEST PUSH1 0x40 MLOAD PUSH2 0xA2 SWAP3 SWAP2 SWAP1 PUSH2 0x520 JUMP JUMPDEST PUSH1 0x40 MLOAD DUP1 SWAP2 SUB SWAP1 RETURN JUMPDEST PUSH2 0xC5 PUSH1 0x4 DUP1 CALLDATASIZE SUB DUP2 ADD SWAP1 PUSH2 0xC0 SWAP2 SWAP1 PUSH2 0x5A5 JUMP JUMPDEST PUSH2 0x4C3 JUMP JUMPDEST PUSH1 0x40 MLOAD PUSH2 0xD3 SWAP3 SWAP2 SWAP1 PUSH2 0x520 JUMP JUMPDEST PUSH1 0x40 MLOAD DUP1 SWAP2 SUB SWAP1 RETURN JUMPDEST PUSH0 PUSH0 PUSH0 PUSH0 PUSH0 CALLER PUSH20 0xFFFFFFFFFFFFFFFFFFFFFFFFFFFFFFFFFFFFFFFF AND PUSH20 0xFFFFFFFFFFFFFFFFFFFFFFFFFFFFFFFFFFFFFFFF AND DUP2 MSTORE PUSH1 0x20 ADD SWAP1 DUP2 MSTORE PUSH1 0x20 ADD PUSH0 KECCAK256 SWAP1 POP DUP1 PUSH1 0x1 ADD PUSH0 SWAP1 SLOAD SWAP1 PUSH2 0x100 EXP SWAP1 DIV PUSH1 0xFF AND PUSH2 0x16D JUMPI PUSH1 0x40 MLOAD PUSH32 0x8C379A000000000000000000000000000000000000000000000000000000000 DUP2 MSTORE PUSH1 0x4 ADD PUSH2 0x164 SWAP1 PUSH2 0x62A JUMP JUMPDEST PUSH1 0x40 MLOAD DUP1 SWAP2 SUB SWAP1 REVERT JUMPDEST PUSH0 DUP2 PUSH1 0x40 MLOAD DUP1 PUSH1 0x40 ADD PUSH1 0x40 MSTORE SWAP1 DUP2 PUSH0 DUP3 ADD SLOAD DUP2 MSTORE PUSH1 0x20 ADD PUSH1 0x1 DUP3 ADD PUSH0 SWAP1 SLOAD SWAP1 PUSH2 0x100 EXP SWAP1 DIV PUSH1 0xFF AND ISZERO ISZERO ISZERO ISZERO DUP2 MSTORE POP POP SWAP1 POP PUSH2 0x22B DUP2 PUSH0 ADD DUP2 DUP2 MSTORE POP POP PUSH0 DUP2 PUSH1 0x20 ADD SWAP1 ISZERO ISZERO SWAP1 DUP2 ISZERO ISZERO DUP2 MSTORE POP POP DUP1 PUSH0 ADD MLOAD DUP2 PUSH1 0x20 ADD MLOAD SWAP4 POP SWAP4 POP POP POP SWAP1 SWAP2 JUMP JUMPDEST PUSH0 PUSH0 CALLER PUSH20 0xFFFFFFFFFFFFFFFFFFFFFFFFFFFFFFFFFFFFFFFF AND PUSH20 0xFFFFFFFFFFFFFFFFFFFFFFFFFFFFFFFFFFFFFFFF AND DUP2 MSTORE PUSH1 0x20 ADD SWAP1 DUP2 MSTORE PUSH1 0x20 ADD PUSH0 KECCAK256 PUSH1 0x1 ADD PUSH0 SWAP1 SLOAD SWAP1 PUSH2 0x100 EXP SWAP1 DIV PUSH1 0xFF AND ISZERO PUSH2 0x259 JUMPI PUSH1 0x40 MLOAD PUSH32 0x8C379A000000000000000000000000000000000000000000000000000000000 DUP2 MSTORE PUSH1 0x4 ADD PUSH2 0x250 SWAP1 PUSH2 0x692 JUMP JUMPDEST PUSH1 0x40 MLOAD DUP1 SWAP2 SUB SWAP1 REVERT JUMPDEST PUSH1 0x40 MLOAD DUP1 PUSH1 0x40 ADD PUSH1 0x40 MSTORE DUP1 PUSH1 0x64 DUP2 MSTORE PUSH1 0x20 ADD PUSH1 0x1 ISZERO ISZERO DUP2 MSTORE POP PUSH0 PUSH0 CALLER PUSH20 0xFFFFFFFFFFFFFFFFFFFFFFFFFFFFFFFFFFFFFFFF AND PUSH20 0xFFFFFFFFFFFFFFFFFFFFFFFFFFFFFFFFFFFFFFFF AND DUP2 MSTORE PUSH1 0x20 ADD SWAP1 DUP2 MSTORE PUSH1 0x20 ADD PUSH0 KECCAK256 PUSH0 DUP3 ADD MLOAD DUP2 PUSH0 ADD SSTORE PUSH1 0x20 DUP3 ADD MLOAD DUP2 PUSH1 0x1 ADD PUSH0 PUSH2 0x100 EXP DUP2 SLOAD DUP2 PUSH1 0xFF MUL NOT AND SWAP1 DUP4 ISZERO ISZERO MUL OR SWAP1 SSTORE POP SWAP1 POP POP CALLER PUSH20 0xFFFFFFFFFFFFFFFFFFFFFFFFFFFFFFFFFFFFFFFF AND PUSH32 0xB0376A109CBB578B709F85F6A7BEFCDAC3AC1AB251C99EDE87F30C9572AC4D3 PUSH1 0x40 MLOAD PUSH1 0x40 MLOAD DUP1 SWAP2 SUB SWAP1 LOG2 JUMP JUMPDEST PUSH0 PUSH0 PUSH0 CALLER PUSH20 0xFFFFFFFFFFFFFFFFFFFFFFFFFFFFFFFFFFFFFFFF AND PUSH20 0xFFFFFFFFFFFFFFFFFFFFFFFFFFFFFFFFFFFFFFFF AND DUP2 MSTORE PUSH1 0x20 ADD SWAP1 DUP2 MSTORE PUSH1 0x20 ADD PUSH0 KECCAK256 SWAP1 POP DUP1 PUSH1 0x1 ADD PUSH0 SWAP1 SLOAD SWAP1 PUSH2 0x100 EXP SWAP1 DIV PUSH1 0xFF AND PUSH2 0x3AC JUMPI PUSH1 0x40 MLOAD PUSH32 0x8C379A000000000000000000000000000000000000000000000000000000000 DUP2 MSTORE PUSH1 0x4 ADD PUSH2 0x3A3 SWAP1 PUSH2 0x62A JUMP JUMPDEST PUSH1 0x40 MLOAD DUP1 SWAP2 SUB SWAP1 REVERT JUMPDEST PUSH0 DUP2 PUSH0 ADD SLOAD SWAP1 POP PUSH2 0x3E7 DUP3 PUSH0 ADD DUP2 SWAP1 SSTORE POP CALLER PUSH20 0xFFFFFFFFFFFFFFFFFFFFFFFFFFFFFFFFFFFFFFFF AND PUSH32 0x91878448EF87C3DB4AEB83E60E7DEB1240ECAE3FD04975EC93547398514CB4ED DUP3 DUP5 PUSH0 ADD SLOAD PUSH1 0x40 MLOAD PUSH2 0x408 SWAP3 SWAP2 SWAP1 PUSH2 0x6B0 JUMP JUMPDEST PUSH1 0x40 MLOAD DUP1 SWAP2 SUB SWAP1 LOG2 POP POP JUMP JUMPDEST PUSH0 PUSH0 PUSH0 PUSH0 PUSH0 CALLER PUSH20 0xFFFFFFFFFFFFFFFFFFFFFFFFFFFFFFFFFFFFFFFF AND PUSH20 0xFFFFFFFFFFFFFFFFFFFFFFFFFFFFFFFFFFFFFFFF AND DUP2 MSTORE PUSH1 0x20 ADD SWAP1 DUP2 MSTORE PUSH1 0x20 ADD PUSH0 KECCAK256 SWAP1 POP DUP1 PUSH1 0x1 ADD PUSH0 SWAP1 SLOAD SWAP1 PUSH2 0x100 EXP SWAP1 DIV PUSH1 0xFF AND PUSH2 0x4A5 JUMPI PUSH1 0x40 MLOAD PUSH32 0x8C379A000000000000000000000000000000000000000000000000000000000 DUP2 MSTORE PUSH1 0x4 ADD PUSH2 0x49C SWAP1 PUSH2 0x62A JUMP JUMPDEST PUSH1 0x40 MLOAD DUP1 SWAP2 SUB SWAP1 REVERT JUMPDEST DUP1 PUSH0 ADD SLOAD DUP2 PUSH1 0x1 ADD PUSH0 SWAP1 SLOAD SWAP1 PUSH2 0x100 EXP SWAP1 DIV PUSH1 0xFF AND SWAP3 POP SWAP3 POP POP SWAP1 SWAP2 JUMP JUMPDEST PUSH0 PUSH1 0x20 MSTORE DUP1 PUSH0 MSTORE PUSH1 0x40 PUSH0 KECCAK256 PUSH0 SWAP2 POP SWAP1 POP DUP1 PUSH0 ADD SLOAD SWAP1 DUP1 PUSH1 0x1 ADD PUSH0 SWAP1 SLOAD SWAP1 PUSH2 0x100 EXP SWAP1 DIV PUSH1 0xFF AND SWAP1 POP DUP3 JUMP JUMPDEST PUSH0 DUP2 SWAP1 POP SWAP2 SWAP1 POP JUMP JUMPDEST PUSH2 0x500 DUP2 PUSH2 0x4EE JUMP JUMPDEST DUP3 MSTORE POP POP JUMP JUMPDEST PUSH0 DUP2 ISZERO ISZERO SWAP1 POP SWAP2 SWAP1 POP JUMP JUMPDEST PUSH2 0x51A DUP2 PUSH2 0x506 JUMP JUMPDEST DUP3 MSTORE POP POP JUMP JUMPDEST PUSH0 PUSH1 0x40 DUP3 ADD SWAP1 POP PUSH2 0x533 PUSH0 DUP4 ADD DUP6 PUSH2 0x4F7 JUMP JUMPDEST PUSH2 0x540 PUSH1 0x20 DUP4 ADD DUP5 PUSH2 0x511 JUMP JUMPDEST SWAP4 SWAP3 POP POP POP JUMP JUMPDEST PUSH0 PUSH0 REVERT JUMPDEST PUSH0 PUSH20 0xFFFFFFFFFFFFFFFFFFFFFFFFFFFFFFFFFFFFFFFF DUP3 AND SWAP1 POP SWAP2 SWAP1 POP JUMP JUMPDEST PUSH0 PUSH2 0x574 DUP3 PUSH2 0x54B JUMP JUMPDEST SWAP1 POP SWAP2 SWAP1 POP JUMP JUMPDEST PUSH2 0x584 DUP2 PUSH2 0x56A JUMP JUMPDEST DUP2 EQ PUSH2 0x58E JUMPI PUSH0 PUSH0 REVERT JUMPDEST POP JUMP JUMPDEST PUSH0 DUP2 CALLDATALOAD SWAP1 POP PUSH2 0x59F DUP2 PUSH2 0x57B JUMP JUMPDEST SWAP3 SWAP2 POP POP JUMP JUMPDEST PUSH0 PUSH1 0x20 DUP3 DUP5 SUB SLT ISZERO PUSH2 0x5BA JUMPI PUSH2 0x5B9 PUSH2 0x547 JUMP JUMPDEST JUMPDEST PUSH0 PUSH2 0x5C7 DUP5 DUP3 DUP6 ADD PUSH2 0x591 JUMP JUMPDEST SWAP2 POP POP SWAP3 SWAP2 POP POP JUMP JUMPDEST PUSH0 DUP3 DUP3 MSTORE PUSH1 0x20 DUP3 ADD SWAP1 POP SWAP3 SWAP2 POP POP JUMP JUMPDEST PUSH32 0x5573657220646F6573206E6F7420657869737400000000000000000000000000 PUSH0 DUP3 ADD MSTORE POP JUMP JUMPDEST PUSH0 PUSH2 0x614 PUSH1 0x13 DUP4 PUSH2 0x5D0 JUMP JUMPDEST SWAP2 POP PUSH2 0x61F DUP3 PUSH2 0x5E0 JUMP JUMPDEST PUSH1 0x20 DUP3 ADD SWAP1 POP SWAP2 SWAP1 POP JUMP JUMPDEST PUSH0 PUSH1 0x20 DUP3 ADD SWAP1 POP DUP2 DUP2 SUB PUSH0 DUP4 ADD MSTORE PUSH2 0x641 DUP2 PUSH2 0x608 JUMP JUMPDEST SWAP1 POP SWAP2 SWAP1 POP JUMP JUMPDEST PUSH32 0x5573657220616C72656164792065786973747300000000000000000000000000 PUSH0 DUP3 ADD MSTORE POP JUMP JUMPDEST PUSH0 PUSH2 0x67C PUSH1 0x13 DUP4 PUSH2 0x5D0 JUMP JUMPDEST SWAP2 POP PUSH2 0x687 DUP3 PUSH2 0x648 JUMP JUMPDEST PUSH1 0x20 DUP3 ADD SWAP1 POP SWAP2 SWAP1 POP JUMP JUMPDEST PUSH0 PUSH1 0x20 DUP3 ADD SWAP1 POP DUP2 DUP2 SUB PUSH0 DUP4 ADD MSTORE PUSH2 0x6A9 DUP2 PUSH2 0x670 JUMP JUMPDEST SWAP1 POP SWAP2 SWAP1 POP JUMP JUMPDEST PUSH0 PUSH1 0x40 DUP3 ADD SWAP1 POP PUSH2 0x6C3 PUSH0 DUP4 ADD DUP6 PUSH2 0x4F7 JUMP JUMPDEST PUSH2 0x6D0 PUSH1 0x20 DUP4 ADD DUP5 PUSH2 0x4F7 JUMP JUMPDEST SWAP4 SWAP3 POP POP POP JUMP INVALID LOG2 PUSH5 0x6970667358 0x22 SLT KECCAK256 PUSH19 0xDAFA93DC319B4444DC8A227A2FF51C5628E049 PUSH26 0x3722A7CC05C539CF7A026964736F6C6343000822003300000000 "
				},
				"gasEstimates": {
					"creation": {
						"codeDepositCost": "361000",
						"executionCost": "397",
						"totalCost": "361397"
					},
					"external": {
						"createUser()": "50111",
						"getUser()": "6996",
						"updateUsingMemory()": "7098",
						"updateUsingStorage()": "infinite",
						"users(address)": "5132"
					}
				},
				"methodIdentifiers": {
					"createUser()": "25ad91ce",
					"getUser()": "832880e7",
					"updateUsingMemory()": "0a902c1a",
					"updateUsingStorage()": "3d9f1012",
					"users(address)": "a87430ba"
				}
			},
			"storageLayout": {
				"storage": [
					{
						"astId": 110,
						"contract": "prac23.sol:StorageVsMemoryPatched",
						"label": "users",
						"offset": 0,
						"slot": "0",
						"type": "t_mapping(t_address,t_struct(User)105_storage)"
					}
				],
				"types": {
					"t_address": {
						"encoding": "inplace",
						"label": "address",
						"numberOfBytes": "20"
					},
					"t_bool": {
						"encoding": "inplace",
						"label": "bool",
						"numberOfBytes": "1"
					},
					"t_mapping(t_address,t_struct(User)105_storage)": {
						"encoding": "mapping",
						"key": "t_address",
						"label": "mapping(address => struct StorageVsMemoryPatched.User)",
						"numberOfBytes": "32",
						"value": "t_struct(User)105_storage"
					},
					"t_struct(User)105_storage": {
						"encoding": "inplace",
						"label": "struct StorageVsMemoryPatched.User",
						"members": [
							{
								"astId": 102,
								"contract": "prac23.sol:StorageVsMemoryPatched",
								"label": "score",
								"offset": 0,
								"slot": "0",
								"type": "t_uint256"
							},
							{
								"astId": 104,
								"contract": "prac23.sol:StorageVsMemoryPatched",
								"label": "active",
								"offset": 0,
								"slot": "1",
								"type": "t_bool"
							}
						],
						"numberOfBytes": "64"
					},
					"t_uint256": {
						"encoding": "inplace",
						"label": "uint256",
						"numberOfBytes": "32"
					}
				}
			},
			"userdoc": {
				"kind": "user",
				"methods": {},
				"version": 1
			}
		}
	}
}