{
	"prac12.sol": {
		"StatePersistenceVul": {
			"abi": [
				{
					"inputs": [],
					"name": "counter",
					"outputs": [
						{
							"internalType": "uint256",
							"name": "",
							"type": "uint256"
						}
					],
					"stateMutability": "view",
					"type": "function"
				},
				{
					"inputs": [],
					"name": "getCounter",
					"outputs": [
						{
							"internalType": "uint256",
							"name": "",
							"type": "uint256"
						}
					],
					"stateMutability": "view",
					"type": "function"
				},
				{
					"inputs": [],
					"name": "increment",
					"outputs": [],
					"stateMutability": "nonpayable",
					"type": "function"
				},
				{
					"inputs": [
						{
							"internalType": "uint256",
							"name": "_value",
							"type": "uint256"
						}
					],
					"name": "setCounter",
					"outputs": [],
					"stateMutability": "nonpayable",
					"type": "function"
				}
			],
			"devdoc": {
				"kind": "dev",
				"methods": {},
				"version": 1
			},
			"evm": {
				"assembly": "    /* \"prac12.sol\":1759:2078  contract StatePersistenceVul {... */\n  mstore(0x40, 0x80)\n  callvalue\n  dup1\n  iszero\n  tag_1\n  jumpi\n  revert(0x00, 0x00)\ntag_1:\n  pop\n  dataSize(sub_0)\n  dup1\n  dataOffset(sub_0)\n  0x00\n  codecopy\n  0x00\n  return\nstop\n\nsub_0: assembly {\n        /* \"prac12.sol\":1759:2078  contract StatePersistenceVul {... */\n      mstore(0x40, 0x80)\n      callvalue\n      dup1\n      iszero\n      tag_1\n      jumpi\n      revert(0x00, 0x00)\n    tag_1:\n      pop\n      jumpi(tag_2, lt(calldatasize, 0x04))\n      shr(0xe0, calldataload(0x00))\n      dup1\n      0x61bc221a\n      eq\n      tag_3\n      jumpi\n      dup1\n      0x8ada066e\n      eq\n      tag_4\n      jumpi\n      dup1\n      0x8bb5d9c3\n      eq\n      tag_5\n      jumpi\n      dup1\n      0xd09de08a\n      eq\n      tag_6\n      jumpi\n    tag_2:\n      revert(0x00, 0x00)\n        /* \"prac12.sol\":1797:1819  uint256 public counter */\n    tag_3:\n      tag_7\n      tag_8\n      jump\t// in\n    tag_7:\n      mload(0x40)\n      tag_9\n      swap2\n      swap1\n      tag_10\n      jump\t// in\n    tag_9:\n      mload(0x40)\n      dup1\n      swap2\n      sub\n      swap1\n      return\n        /* \"prac12.sol\":1990:2075  function getCounter() public view returns (uint256) {... */\n    tag_4:\n      tag_11\n      tag_12\n      jump\t// in\n    tag_11:\n      mload(0x40)\n      tag_13\n      swap2\n      swap1\n      tag_10\n      jump\t// in\n    tag_13:\n      mload(0x40)\n      dup1\n      swap2\n      sub\n      swap1\n      return\n        /* \"prac12.sol\":1904:1982  function setCounter(uint256 _value) public {... */\n    tag_5:\n      tag_14\n      0x04\n      dup1\n      calldatasize\n      sub\n      dup2\n      add\n      swap1\n      tag_15\n      swap2\n      swap1\n      tag_16\n      jump\t// in\n    tag_15:\n      tag_17\n      jump\t// in\n    tag_14:\n      stop\n        /* \"prac12.sol\":1828:1896  function increment() public {... */\n    tag_6:\n      tag_18\n      tag_19\n      jump\t// in\n    tag_18:\n      stop\n        /* \"prac12.sol\":1797:1819  uint256 public counter */\n    tag_8:\n      sload(0x00)\n      dup2\n      jump\t// out\n        /* \"prac12.sol\":1990:2075  function getCounter() public view returns (uint256) {... */\n    tag_12:\n        /* \"prac12.sol\":2033:2040  uint256 */\n      0x00\n        /* \"prac12.sol\":2060:2067  counter */\n      sload(0x00)\n        /* \"prac12.sol\":2053:2067  return counter */\n      swap1\n      pop\n        /* \"prac12.sol\":1990:2075  function getCounter() public view returns (uint256) {... */\n      swap1\n      jump\t// out\n        /* \"prac12.sol\":1904:1982  function setCounter(uint256 _value) public {... */\n    tag_17:\n        /* \"prac12.sol\":1968:1974  _value */\n      dup1\n        /* \"prac12.sol\":1958:1965  counter */\n      0x00\n        /* \"prac12.sol\":1958:1974  counter = _value */\n      dup2\n      swap1\n      sstore\n      pop\n        /* \"prac12.sol\":1904:1982  function setCounter(uint256 _value) public {... */\n      pop\n      jump\t// out\n        /* \"prac12.sol\":1828:1896  function increment() public {... */\n    tag_19:\n        /* \"prac12.sol\":1887:1888  1 */\n      0x01\n        /* \"prac12.sol\":1877:1884  counter */\n      sload(0x00)\n        /* \"prac12.sol\":1877:1888  counter + 1 */\n      tag_23\n      swap2\n      swap1\n      tag_24\n      jump\t// in\n    tag_23:\n        /* \"prac12.sol\":1867:1874  counter */\n      0x00\n        /* \"prac12.sol\":1867:1888  counter = counter + 1 */\n      dup2\n      swap1\n      sstore\n      pop\n        /* \"prac12.sol\":1828:1896  function increment() public {... */\n      jump\t// out\n        /* \"#utility.yul\":7:84   */\n    tag_25:\n        /* \"#utility.yul\":44:51   */\n      0x00\n        /* \"#utility.yul\":73:78   */\n      dup2\n        /* \"#utility.yul\":62:78   */\n      swap1\n      pop\n        /* \"#utility.yul\":7:84   */\n      swap2\n      swap1\n      pop\n      jump\t// out\n        /* \"#utility.yul\":90:208   */\n    tag_26:\n        /* \"#utility.yul\":177:201   */\n      tag_36\n        /* \"#utility.yul\":195:200   */\n      dup2\n        /* \"#utility.yul\":177:201   */\n      tag_25\n      jump\t// in\n    tag_36:\n        /* \"#utility.yul\":172:175   */\n      dup3\n        /* \"#utility.yul\":165:202   */\n      mstore\n        /* \"#utility.yul\":90:208   */\n      pop\n      pop\n      jump\t// out\n        /* \"#utility.yul\":214:436   */\n    tag_10:\n        /* \"#utility.yul\":307:311   */\n      0x00\n        /* \"#utility.yul\":345:347   */\n      0x20\n        /* \"#utility.yul\":334:343   */\n      dup3\n        /* \"#utility.yul\":330:348   */\n      add\n        /* \"#utility.yul\":322:348   */\n      swap1\n      pop\n        /* \"#utility.yul\":358:429   */\n      tag_38\n        /* \"#utility.yul\":426:427   */\n      0x00\n        /* \"#utility.yul\":415:424   */\n      dup4\n        /* \"#utility.yul\":411:428   */\n      add\n        /* \"#utility.yul\":402:408   */\n      dup5\n        /* \"#utility.yul\":358:429   */\n      tag_26\n      jump\t// in\n    tag_38:\n        /* \"#utility.yul\":214:436   */\n      swap3\n      swap2\n      pop\n      pop\n      jump\t// out\n        /* \"#utility.yul\":523:640   */\n    tag_28:\n        /* \"#utility.yul\":632:633   */\n      0x00\n        /* \"#utility.yul\":629:630   */\n      0x00\n        /* \"#utility.yul\":622:634   */\n      revert\n        /* \"#utility.yul\":769:891   */\n    tag_30:\n        /* \"#utility.yul\":842:866   */\n      tag_43\n        /* \"#utility.yul\":860:865   */\n      dup2\n        /* \"#utility.yul\":842:866   */\n      tag_25\n      jump\t// in\n    tag_43:\n        /* \"#utility.yul\":835:840   */\n      dup2\n        /* \"#utility.yul\":832:867   */\n      eq\n        /* \"#utility.yul\":822:885   */\n      tag_44\n      jumpi\n        /* \"#utility.yul\":881:882   */\n      0x00\n        /* \"#utility.yul\":878:879   */\n      0x00\n        /* \"#utility.yul\":871:883   */\n      revert\n        /* \"#utility.yul\":822:885   */\n    tag_44:\n        /* \"#utility.yul\":769:891   */\n      pop\n      jump\t// out\n        /* \"#utility.yul\":897:1036   */\n    tag_31:\n        /* \"#utility.yul\":943:948   */\n      0x00\n        /* \"#utility.yul\":981:987   */\n      dup2\n        /* \"#utility.yul\":968:988   */\n      calldataload\n        /* \"#utility.yul\":959:988   */\n      swap1\n      pop\n        /* \"#utility.yul\":997:1030   */\n      tag_46\n        /* \"#utility.yul\":1024:1029   */\n      dup2\n        /* \"#utility.yul\":997:1030   */\n      tag_30\n      jump\t// in\n    tag_46:\n        /* \"#utility.yul\":897:1036   */\n      swap3\n      swap2\n      pop\n      pop\n      jump\t// out\n        /* \"#utility.yul\":1042:1371   */\n    tag_16:\n        /* \"#utility.yul\":1101:1107   */\n      0x00\n        /* \"#utility.yul\":1150:1152   */\n      0x20\n        /* \"#utility.yul\":1138:1147   */\n      dup3\n        /* \"#utility.yul\":1129:1136   */\n      dup5\n        /* \"#utility.yul\":1125:1148   */\n      sub\n        /* \"#utility.yul\":1121:1153   */\n      slt\n        /* \"#utility.yul\":1118:1237   */\n      iszero\n      tag_48\n      jumpi\n        /* \"#utility.yul\":1156:1235   */\n      tag_49\n      tag_28\n      jump\t// in\n    tag_49:\n        /* \"#utility.yul\":1118:1237   */\n    tag_48:\n        /* \"#utility.yul\":1276:1277   */\n      0x00\n        /* \"#utility.yul\":1301:1354   */\n      tag_50\n        /* \"#utility.yul\":1346:1353   */\n      dup5\n        /* \"#utility.yul\":1337:1343   */\n      dup3\n        /* \"#utility.yul\":1326:1335   */\n      dup6\n        /* \"#utility.yul\":1322:1344   */\n      add\n        /* \"#utility.yul\":1301:1354   */\n      tag_31\n      jump\t// in\n    tag_50:\n        /* \"#utility.yul\":1291:1354   */\n      swap2\n      pop\n        /* \"#utility.yul\":1247:1364   */\n      pop\n        /* \"#utility.yul\":1042:1371   */\n      swap3\n      swap2\n      pop\n      pop\n      jump\t// out\n        /* \"#utility.yul\":1377:1557   */\n    tag_32:\n        /* \"#utility.yul\":1425:1502   */\n      0x4e487b7100000000000000000000000000000000000000000000000000000000\n        /* \"#utility.yul\":1422:1423   */\n      0x00\n        /* \"#utility.yul\":1415:1503   */\n      mstore\n        /* \"#utility.yul\":1522:1526   */\n      0x11\n        /* \"#utility.yul\":1519:1520   */\n      0x04\n        /* \"#utility.yul\":1512:1527   */\n      mstore\n        /* \"#utility.yul\":1546:1550   */\n      0x24\n        /* \"#utility.yul\":1543:1544   */\n      0x00\n        /* \"#utility.yul\":1536:1551   */\n      revert\n        /* \"#utility.yul\":1563:1754   */\n    tag_24:\n        /* \"#utility.yul\":1603:1606   */\n      0x00\n        /* \"#utility.yul\":1622:1642   */\n      tag_53\n        /* \"#utility.yul\":1640:1641   */\n      dup3\n        /* \"#utility.yul\":1622:1642   */\n      tag_25\n      jump\t// in\n    tag_53:\n        /* \"#utility.yul\":1617:1642   */\n      swap2\n      pop\n        /* \"#utility.yul\":1656:1676   */\n      tag_54\n        /* \"#utility.yul\":1674:1675   */\n      dup4\n        /* \"#utility.yul\":1656:1676   */\n      tag_25\n      jump\t// in\n    tag_54:\n        /* \"#utility.yul\":1651:1676   */\n      swap3\n      pop\n        /* \"#utility.yul\":1699:1700   */\n      dup3\n        /* \"#utility.yul\":1696:1697   */\n      dup3\n        /* \"#utility.yul\":1692:1701   */\n      add\n        /* \"#utility.yul\":1685:1701   */\n      swap1\n      pop\n        /* \"#utility.yul\":1720:1723   */\n      dup1\n        /* \"#utility.yul\":1717:1718   */\n      dup3\n        /* \"#utility.yul\":1714:1724   */\n      gt\n        /* \"#utility.yul\":1711:1747   */\n      iszero\n      tag_55\n      jumpi\n        /* \"#utility.yul\":1727:1745   */\n      tag_56\n      tag_32\n      jump\t// in\n    tag_56:\n        /* \"#utility.yul\":1711:1747   */\n    tag_55:\n        /* \"#utility.yul\":1563:1754   */\n      swap3\n      swap2\n      pop\n      pop\n      jump\t// out\n\n    auxdata: 0xa2646970667358221220243614e96e5efe874f4dc9f65f475b538015f702622d6a83bea9b2aed92a57b664736f6c63430008220033\n}\n",
				"bytecode": {
					"linkReferences": {},
					"object": "6080604052348015600e575f5ffd5b506101fb8061001c5f395ff3fe608060405234801561000f575f5ffd5b506004361061004a575f3560e01c806361bc221a1461004e5780638ada066e1461006c5780638bb5d9c31461008a578063d09de08a146100a6575b5f5ffd5b6100566100b0565b60405161006391906100f3565b60405180910390f35b6100746100b5565b60405161008191906100f3565b60405180910390f35b6100a4600480360381019061009f919061013a565b6100bd565b005b6100ae6100c6565b005b5f5481565b5f5f54905090565b805f8190555050565b60015f546100d49190610192565b5f81905550565b5f819050919050565b6100ed816100db565b82525050565b5f6020820190506101065f8301846100e4565b92915050565b5f5ffd5b610119816100db565b8114610123575f5ffd5b50565b5f8135905061013481610110565b92915050565b5f6020828403121561014f5761014e61010c565b5b5f61015c84828501610126565b91505092915050565b7f4e487b71000000000000000000000000000000000000000000000000000000005f52601160045260245ffd5b5f61019c826100db565b91506101a7836100db565b92508282019050808211156101bf576101be610165565b5b9291505056fea2646970667358221220243614e96e5efe874f4dc9f65f475b538015f702622d6a83bea9b2aed92a57b664736f6c63430008220033",
					"opcodes": "PUSH1 0x80 PUSH1 0x40 MSTORE CALLVALUE DUP1 ISZERO PUSH1 0xE JUMPI PUSH0 PUSH0 REVERT JUMPDEST POP PUSH2 0x1FB DUP1 PUSH2 0x1C PUSH0 CODECOPY PUSH0 RETURN INVALID PUSH1 0x80 PUSH1 0x40 MSTORE CALLVALUE DUP1 ISZERO PUSH2 0xF JUMPI PUSH0 PUSH0 REVERT JUMPDEST POP PUSH1 0x4 CALLDATASIZE LT PUSH2 0x4A JUMPI PUSH0 CALLDATALOAD PUSH1 0xE0 SHR DUP1 PUSH4 0x61BC221A EQ PUSH2 0x4E JUMPI DUP1 PUSH4 0x8ADA066E EQ PUSH2 0x6C JUMPI DUP1 PUSH4 0x8BB5D9C3 EQ PUSH2 0x8A JUMPI DUP1 PUSH4 0xD09DE08A EQ PUSH2 0xA6 JUMPI JUMPDEST PUSH0 PUSH0 REVERT JUMPDEST PUSH2 0x56 PUSH2 0xB0 JUMP JUMPDEST PUSH1 0x40 MLOAD PUSH2 0x63 SWAP2 SWAP1 PUSH2 0xF3 JUMP JUMPDEST PUSH1 0x40 MLOAD DUP1 SWAP2 SUB SWAP1 RETURN JUMPDEST PUSH2 0x74 PUSH2 0xB5 JUMP JUMPDEST PUSH1 0x40 MLOAD PUSH2 0x81 SWAP2 SWAP1 PUSH2 0xF3 JUMP JUMPDEST PUSH1 0x40 MLOAD DUP1 SWAP2 SUB SWAP1 RETURN JUMPDEST PUSH2 0xA4 PUSH1 0x4 DUP1 CALLDATASIZE SUB DUP2 ADD SWAP1 PUSH2 0x9F SWAP2 SWAP1 PUSH2 0x13A JUMP JUMPDEST PUSH2 0xBD JUMP JUMPDEST STOP JUMPDEST PUSH2 0xAE PUSH2 0xC6 JUMP JUMPDEST STOP JUMPDEST PUSH0 SLOAD DUP2 JUMP JUMPDEST PUSH0 PUSH0 SLOAD SWAP1 POP SWAP1 JUMP JUMPDEST DUP1 PUSH0 DUP2 SWAP1 SSTORE POP POP JUMP JUMPDEST PUSH1 0x1 PUSH0 SLOAD PUSH2 0xD4 SWAP2 SWAP1 PUSH2 0x192 JUMP JUMPDEST PUSH0 DUP2 SWAP1 SSTORE POP JUMP JUMPDEST PUSH0 DUP2 SWAP1 POP SWAP2 SWAP1 POP JUMP JUMPDEST PUSH2 0xED DUP2 PUSH2 0xDB JUMP JUMPDEST DUP3 MSTORE POP POP JUMP JUMPDEST PUSH0 PUSH1 0x20 DUP3 ADD SWAP1 POP PUSH2 0x106 PUSH0 DUP4 ADD DUP5 PUSH2 0xE4 JUMP JUMPDEST SWAP3 SWAP2 POP POP JUMP JUMPDEST PUSH0 PUSH0 REVERT JUMPDEST PUSH2 0x119 DUP2 PUSH2 0xDB JUMP JUMPDEST DUP2 EQ PUSH2 0x123 JUMPI PUSH0 PUSH0 REVERT JUMPDEST POP JUMP JUMPDEST PUSH0 DUP2 CALLDATALOAD SWAP1 POP PUSH2 0x134 DUP2 PUSH2 0x110 JUMP JUMPDEST SWAP3 SWAP2 POP POP JUMP JUMPDEST PUSH0 PUSH1 0x20 DUP3 DUP5 SUB SLT ISZERO PUSH2 0x14F JUMPI PUSH2 0x14E PUSH2 0x10C JUMP JUMPDEST JUMPDEST PUSH0 PUSH2 0x15C DUP5 DUP3 DUP6 ADD PUSH2 0x126 JUMP JUMPDEST SWAP2 POP POP SWAP3 SWAP2 POP POP JUMP JUMPDEST PUSH32 0x4E487B7100000000000000000000000000000000000000000000000000000000 PUSH0 MSTORE PUSH1 0x11 PUSH1 0x4 MSTORE PUSH1 0x24 PUSH0 REVERT JUMPDEST PUSH0 PUSH2 0x19C DUP3 PUSH2 0xDB JUMP JUMPDEST SWAP2 POP PUSH2 0x1A7 DUP4 PUSH2 0xDB JUMP JUMPDEST SWAP3 POP DUP3 DUP3 ADD SWAP1 POP DUP1 DUP3 GT ISZERO PUSH2 0x1BF JUMPI PUSH2 0x1BE PUSH2 0x165 JUMP JUMPDEST JUMPDEST SWAP3 SWAP2 POP POP JUMP INVALID LOG2 PUSH5 0x6970667358 0x22 SLT KECCAK256 0x24 CALLDATASIZE EQ 0xE9 PUSH15 0x5EFE874F4DC9F65F475B538015F702 PUSH3 0x2D6A83 0xBE 0xA9 0xB2 0xAE 0xD9 0x2A JUMPI 0xB6 PUSH5 0x736F6C6343 STOP ADDMOD 0x22 STOP CALLER "
				},
				"gasEstimates": {
					"creation": {
						"codeDepositCost": "101400",
						"executionCost": "145",
						"totalCost": "101545"
					},
					"external": {
						"counter()": "2402",
						"getCounter()": "2431",
						"increment()": "infinite",
						"setCounter(uint256)": "22536"
					}
				},
				"methodIdentifiers": {
					"counter()": "61bc221a",
					"getCounter()": "8ada066e",
					"increment()": "d09de08a",
					"setCounter(uint256)": "8bb5d9c3"
				}
			},
			"storageLayout": {
				"storage": [
					{
						"astId": 3,
						"contract": "prac12.sol:StatePersistenceVul",
						"label": "counter",
						"offset": 0,
						"slot": "0",
						"type": "t_uint256"
					}
				],
				"types": {
					"t_uint256": {
						"encoding": "inplace",
						"label": "uint256",
						"numberOfBytes": "32"
					}
				}
			},
			"userdoc": {
				"kind": "user",
				"methods": {},
				"version": 1
			}
		}
	}
}