{
	"data": {
		"bytecode": {
			"linkReferences": {},
			"object": "6080604052348015600e575f5ffd5b506102208061001c5f395ff3fe608060405234801561000f575f5ffd5b506004361061003f575f3560e01c806331d3de911461004357806361bc221a1461004d57806366ea96241461006b575b5f5ffd5b61004b610075565b005b61005561008d565b60405161006291906100e5565b60405180910390f35b610073610092565b005b5f5f8154809291906100869061012b565b9190505550565b5f5481565b6040517f08c379a00000000000000000000000000000000000000000000000000000000081526004016100c4906101cc565b60405180910390fd5b5f819050919050565b6100df816100cd565b82525050565b5f6020820190506100f85f8301846100d6565b92915050565b7f4e487b71000000000000000000000000000000000000000000000000000000005f52601160045260245ffd5b5f610135826100cd565b91507fffffffffffffffffffffffffffffffffffffffffffffffffffffffffffffffff8203610167576101666100fe565b5b600182019050919050565b5f82825260208201905092915050565b7f436f6e74726163742043206661696c75726500000000000000000000000000005f82015250565b5f6101b6601283610172565b91506101c182610182565b602082019050919050565b5f6020820190508181035f8301526101e3816101aa565b905091905056fea2646970667358221220ebe05a60cccb44e335e55404e92eefa203657f036b711eeb9cbdad817ad7acf964736f6c63430008220033",
			"opcodes": "PUSH1 0x80 PUSH1 0x40 MSTORE CALLVALUE DUP1 ISZERO PUSH1 0xE JUMPI PUSH0 PUSH0 REVERT JUMPDEST POP PUSH2 0x220 DUP1 PUSH2 0x1C PUSH0 CODECOPY PUSH0 RETURN INVALID PUSH1 0x80 PUSH1 0x40 MSTORE CALLVALUE DUP1 ISZERO PUSH2 0xF JUMPI PUSH0 PUSH0 REVERT JUMPDEST POP PUSH1 0x4 CALLDATASIZE LT PUSH2 0x3F JUMPI PUSH0 CALLDATALOAD PUSH1 0xE0 SHR DUP1 PUSH4 0x31D3DE91 EQ PUSH2 0x43 JUMPI DUP1 PUSH4 0x61BC221A EQ PUSH2 0x4D JUMPI DUP1 PUSH4 0x66EA9624 EQ PUSH2 0x6B JUMPI JUMPDEST PUSH0 PUSH0 REVERT JUMPDEST PUSH2 0x4B PUSH2 0x75 JUMP JUMPDEST STOP JUMPDEST PUSH2 0x55 PUSH2 0x8D JUMP JUMPDEST PUSH1 0x40 MLOAD PUSH2 0x62 SWAP2 SWAP1 PUSH2 0xE5 JUMP JUMPDEST PUSH1 0x40 MLOAD DUP1 SWAP2 SUB SWAP1 RETURN JUMPDEST PUSH2 0x73 PUSH2 0x92 JUMP JUMPDEST STOP JUMPDEST PUSH0 PUSH0 DUP2 SLOAD DUP1 SWAP3 SWAP2 SWAP1 PUSH2 0x86 SWAP1 PUSH2 0x12B JUMP JUMPDEST SWAP2 SWAP1 POP SSTORE POP JUMP JUMPDEST PUSH0 SLOAD DUP2 JUMP JUMPDEST PUSH1 0x40 MLOAD PUSH32 0x8C379A000000000000000000000000000000000000000000000000000000000 DUP2 MSTORE PUSH1 0x4 ADD PUSH2 0xC4 SWAP1 PUSH2 0x1CC JUMP JUMPDEST PUSH1 0x40 MLOAD DUP1 SWAP2 SUB SWAP1 REVERT JUMPDEST PUSH0 DUP2 SWAP1 POP SWAP2 SWAP1 POP JUMP JUMPDEST PUSH2 0xDF DUP2 PUSH2 0xCD JUMP JUMPDEST DUP3 MSTORE POP POP JUMP JUMPDEST PUSH0 PUSH1 0x20 DUP3 ADD SWAP1 POP PUSH2 0xF8 PUSH0 DUP4 ADD DUP5 PUSH2 0xD6 JUMP JUMPDEST SWAP3 SWAP2 POP POP JUMP JUMPDEST PUSH32 0x4E487B7100000000000000000000000000000000000000000000000000000000 PUSH0 MSTORE PUSH1 0x11 PUSH1 0x4 MSTORE PUSH1 0x24 PUSH0 REVERT JUMPDEST PUSH0 PUSH2 0x135 DUP3 PUSH2 0xCD JUMP JUMPDEST SWAP2 POP PUSH32 0xFFFFFFFFFFFFFFFFFFFFFFFFFFFFFFFFFFFFFFFFFFFFFFFFFFFFFFFFFFFFFFFF DUP3 SUB PUSH2 0x167 JUMPI PUSH2 0x166 PUSH2 0xFE JUMP JUMPDEST JUMPDEST PUSH1 0x1 DUP3 ADD SWAP1 POP SWAP2 SWAP1 POP JUMP JUMPDEST PUSH0 DUP3 DUP3 MSTORE PUSH1 0x20 DUP3 ADD SWAP1 POP SWAP3 SWAP2 POP POP JUMP JUMPDEST PUSH32 0x436F6E74726163742043206661696C7572650000000000000000000000000000 PUSH0 DUP3 ADD MSTORE POP JUMP JUMPDEST PUSH0 PUSH2 0x1B6 PUSH1 0x12 DUP4 PUSH2 0x172 JUMP JUMPDEST SWAP2 POP PUSH2 0x1C1 DUP3 PUSH2 0x182 JUMP JUMPDEST PUSH1 0x20 DUP3 ADD SWAP1 POP SWAP2 SWAP1 POP JUMP JUMPDEST PUSH0 PUSH1 0x20 DUP3 ADD SWAP1 POP DUP2 DUP2 SUB PUSH0 DUP4 ADD MSTORE PUSH2 0x1E3 DUP2 PUSH2 0x1AA JUMP JUMPDEST SWAP1 POP SWAP2 SWAP1 POP JUMP INVALID LOG2 PUSH5 0x6970667358 0x22 SLT KECCAK256 0xEB RJUMP 0x5A60 0xCC 0xCB PREVRANDAO CALLF 0x35E5 SLOAD DIV 0xE9 0x2E 0xEF LOG2 SUB PUSH6 0x7F036B711EEB SWAP13 0xBD 0xAD DUP2 PUSH27 0xD7ACF964736F6C6343000822003300000000000000000000000000 "
		},
		"gasEstimates": {
			"creation": {
				"codeDepositCost": "108800",
				"executionCost": "151",
				"totalCost": "108951"
			},
			"external": {
				"counter()": "2424",
				"failStep()": "450",
				"finalStep()": "24474"
			}
		},
		"methodIdentifiers": {
			"counter()": "61bc221a",
			"failStep()": "66ea9624",
			"finalStep()": "31d3de91"
		}
	},
	"abi": [
		{
			"inputs": [],
			"name": "counter",
			"outputs": [
				{
					"internalType": "uint256",
					"name": "",
					"type": "uint256"
				}
			],
			"stateMutability": "view",
			"type": "function"
		},
		{
			"inputs": [],
			"name": "failStep",
			"outputs": [],
			"stateMutability": "pure",
			"type": "function"
		},
		{
			"inputs": [],
			"name": "finalStep",
			"outputs": [],
			"stateMutability": "nonpayable",
			"type": "function"
		}
	]
}