{
	"data": {
		"bytecode": {
			"linkReferences": {},
			"object": "6080604052348015600e575f5ffd5b506105908061001c5f395ff3fe608060405234801561000f575f5ffd5b506004361061003f575f3560e01c806327e235e3146100435780637d88209714610073578063b6b55f2514610091575b5f5ffd5b61005d60048036038101906100589190610342565b6100ad565b60405161006a9190610385565b60405180910390f35b61007b6100c1565b6040516100889190610385565b60405180910390f35b6100ab60048036038101906100a691906103c8565b6100c7565b005b5f602052805f5260405f205f915090505481565b60015481565b5f8111610109576040517f08c379a00000000000000000000000000000000000000000000000000000000081526004016101009061044d565b60405180910390fd5b606481111561014d576040517f08c379a0000000000000000000000000000000000000000000000000000000008152600401610144906104b5565b60405180910390fd5b3373ffffffffffffffffffffffffffffffffffffffff167f90c520fc59eb971604935aad43656db1521b06617f63ad1276a8313e56c49646826040516101939190610385565b60405180910390a2805f5f3373ffffffffffffffffffffffffffffffffffffffff1673ffffffffffffffffffffffffffffffffffffffff1681526020019081526020015f205f8282546101e69190610500565b925050819055503373ffffffffffffffffffffffffffffffffffffffff167f8ad64a0ac7700dd8425ab0499f107cb6e2cd1581d803c5b8c1c79dcb8190b1af5f5f3373ffffffffffffffffffffffffffffffffffffffff1673ffffffffffffffffffffffffffffffffffffffff1681526020019081526020015f205460405161026f9190610385565b60405180910390a28060015f8282546102889190610500565b925050819055503373ffffffffffffffffffffffffffffffffffffffff167f269bfb696b3465d8cfcab2af92c6e49cbbe72d60c28788178f8e88c5172d4924826001546040516102d9929190610533565b60405180910390a250565b5f5ffd5b5f73ffffffffffffffffffffffffffffffffffffffff82169050919050565b5f610311826102e8565b9050919050565b61032181610307565b811461032b575f5ffd5b50565b5f8135905061033c81610318565b92915050565b5f60208284031215610357576103566102e4565b5b5f6103648482850161032e565b91505092915050565b5f819050919050565b61037f8161036d565b82525050565b5f6020820190506103985f830184610376565b92915050565b6103a78161036d565b81146103b1575f5ffd5b50565b5f813590506103c28161039e565b92915050565b5f602082840312156103dd576103dc6102e4565b5b5f6103ea848285016103b4565b91505092915050565b5f82825260208201905092915050565b7f416d6f756e74206d757374206265203e203000000000000000000000000000005f82015250565b5f6104376012836103f3565b915061044282610403565b602082019050919050565b5f6020820190508181035f8301526104648161042b565b9050919050565b7f416d6f756e7420746f6f206c61726765000000000000000000000000000000005f82015250565b5f61049f6010836103f3565b91506104aa8261046b565b602082019050919050565b5f6020820190508181035f8301526104cc81610493565b9050919050565b7f4e487b71000000000000000000000000000000000000000000000000000000005f52601160045260245ffd5b5f61050a8261036d565b91506105158361036d565b925082820190508082111561052d5761052c6104d3565b5b92915050565b5f6040820190506105465f830185610376565b6105536020830184610376565b939250505056fea2646970667358221220bf960c7e2a516779a9f0fec6d8b9110c41e2a8e76c3878f7d0b2b4f655ec00d564736f6c63430008220033",
			"opcodes": "PUSH1 0x80 PUSH1 0x40 MSTORE CALLVALUE DUP1 ISZERO PUSH1 0xE JUMPI PUSH0 PUSH0 REVERT JUMPDEST POP PUSH2 0x590 DUP1 PUSH2 0x1C PUSH0 CODECOPY PUSH0 RETURN INVALID PUSH1 0x80 PUSH1 0x40 MSTORE CALLVALUE DUP1 ISZERO PUSH2 0xF JUMPI PUSH0 PUSH0 REVERT JUMPDEST POP PUSH1 0x4 CALLDATASIZE LT PUSH2 0x3F JUMPI PUSH0 CALLDATALOAD PUSH1 0xE0 SHR DUP1 PUSH4 0x27E235E3 EQ PUSH2 0x43 JUMPI DUP1 PUSH4 0x7D882097 EQ PUSH2 0x73 JUMPI DUP1 PUSH4 0xB6B55F25 EQ PUSH2 0x91 JUMPI JUMPDEST PUSH0 PUSH0 REVERT JUMPDEST PUSH2 0x5D PUSH1 0x4 DUP1 CALLDATASIZE SUB DUP2 ADD SWAP1 PUSH2 0x58 SWAP2 SWAP1 PUSH2 0x342 JUMP JUMPDEST PUSH2 0xAD JUMP JUMPDEST PUSH1 0x40 MLOAD PUSH2 0x6A SWAP2 SWAP1 PUSH2 0x385 JUMP JUMPDEST PUSH1 0x40 MLOAD DUP1 SWAP2 SUB SWAP1 RETURN JUMPDEST PUSH2 0x7B PUSH2 0xC1 JUMP JUMPDEST PUSH1 0x40 MLOAD PUSH2 0x88 SWAP2 SWAP1 PUSH2 0x385 JUMP JUMPDEST PUSH1 0x40 MLOAD DUP1 SWAP2 SUB SWAP1 RETURN JUMPDEST PUSH2 0xAB PUSH1 0x4 DUP1 CALLDATASIZE SUB DUP2 ADD SWAP1 PUSH2 0xA6 SWAP2 SWAP1 PUSH2 0x3C8 JUMP JUMPDEST PUSH2 0xC7 JUMP JUMPDEST STOP JUMPDEST PUSH0 PUSH1 0x20 MSTORE DUP1 PUSH0 MSTORE PUSH1 0x40 PUSH0 KECCAK256 PUSH0 SWAP2 POP SWAP1 POP SLOAD DUP2 JUMP JUMPDEST PUSH1 0x1 SLOAD DUP2 JUMP JUMPDEST PUSH0 DUP2 GT PUSH2 0x109 JUMPI PUSH1 0x40 MLOAD PUSH32 0x8C379A000000000000000000000000000000000000000000000000000000000 DUP2 MSTORE PUSH1 0x4 ADD PUSH2 0x100 SWAP1 PUSH2 0x44D JUMP JUMPDEST PUSH1 0x40 MLOAD DUP1 SWAP2 SUB SWAP1 REVERT JUMPDEST PUSH1 0x64 DUP2 GT ISZERO PUSH2 0x14D JUMPI PUSH1 0x40 MLOAD PUSH32 0x8C379A000000000000000000000000000000000000000000000000000000000 DUP2 MSTORE PUSH1 0x4 ADD PUSH2 0x144 SWAP1 PUSH2 0x4B5 JUMP JUMPDEST PUSH1 0x40 MLOAD DUP1 SWAP2 SUB SWAP1 REVERT JUMPDEST CALLER PUSH20 0xFFFFFFFFFFFFFFFFFFFFFFFFFFFFFFFFFFFFFFFF AND PUSH32 0x90C520FC59EB971604935AAD43656DB1521B06617F63AD1276A8313E56C49646 DUP3 PUSH1 0x40 MLOAD PUSH2 0x193 SWAP2 SWAP1 PUSH2 0x385 JUMP JUMPDEST PUSH1 0x40 MLOAD DUP1 SWAP2 SUB SWAP1 LOG2 DUP1 PUSH0 PUSH0 CALLER PUSH20 0xFFFFFFFFFFFFFFFFFFFFFFFFFFFFFFFFFFFFFFFF AND PUSH20 0xFFFFFFFFFFFFFFFFFFFFFFFFFFFFFFFFFFFFFFFF AND DUP2 MSTORE PUSH1 0x20 ADD SWAP1 DUP2 MSTORE PUSH1 0x20 ADD PUSH0 KECCAK256 PUSH0 DUP3 DUP3 SLOAD PUSH2 0x1E6 SWAP2 SWAP1 PUSH2 0x500 JUMP JUMPDEST SWAP3 POP POP DUP2 SWAP1 SSTORE POP CALLER PUSH20 0xFFFFFFFFFFFFFFFFFFFFFFFFFFFFFFFFFFFFFFFF AND PUSH32 0x8AD64A0AC7700DD8425AB0499F107CB6E2CD1581D803C5B8C1C79DCB8190B1AF PUSH0 PUSH0 CALLER PUSH20 0xFFFFFFFFFFFFFFFFFFFFFFFFFFFFFFFFFFFFFFFF AND PUSH20 0xFFFFFFFFFFFFFFFFFFFFFFFFFFFFFFFFFFFFFFFF AND DUP2 MSTORE PUSH1 0x20 ADD SWAP1 DUP2 MSTORE PUSH1 0x20 ADD PUSH0 KECCAK256 SLOAD PUSH1 0x40 MLOAD PUSH2 0x26F SWAP2 SWAP1 PUSH2 0x385 JUMP JUMPDEST PUSH1 0x40 MLOAD DUP1 SWAP2 SUB SWAP1 LOG2 DUP1 PUSH1 0x1 PUSH0 DUP3 DUP3 SLOAD PUSH2 0x288 SWAP2 SWAP1 PUSH2 0x500 JUMP JUMPDEST SWAP3 POP POP DUP2 SWAP1 SSTORE POP CALLER PUSH20 0xFFFFFFFFFFFFFFFFFFFFFFFFFFFFFFFFFFFFFFFF AND PUSH32 0x269BFB696B3465D8CFCAB2AF92C6E49CBBE72D60C28788178F8E88C5172D4924 DUP3 PUSH1 0x1 SLOAD PUSH1 0x40 MLOAD PUSH2 0x2D9 SWAP3 SWAP2 SWAP1 PUSH2 0x533 JUMP JUMPDEST PUSH1 0x40 MLOAD DUP1 SWAP2 SUB SWAP1 LOG2 POP JUMP JUMPDEST PUSH0 PUSH0 REVERT JUMPDEST PUSH0 PUSH20 0xFFFFFFFFFFFFFFFFFFFFFFFFFFFFFFFFFFFFFFFF DUP3 AND SWAP1 POP SWAP2 SWAP1 POP JUMP JUMPDEST PUSH0 PUSH2 0x311 DUP3 PUSH2 0x2E8 JUMP JUMPDEST SWAP1 POP SWAP2 SWAP1 POP JUMP JUMPDEST PUSH2 0x321 DUP2 PUSH2 0x307 JUMP JUMPDEST DUP2 EQ PUSH2 0x32B JUMPI PUSH0 PUSH0 REVERT JUMPDEST POP JUMP JUMPDEST PUSH0 DUP2 CALLDATALOAD SWAP1 POP PUSH2 0x33C DUP2 PUSH2 0x318 JUMP JUMPDEST SWAP3 SWAP2 POP POP JUMP JUMPDEST PUSH0 PUSH1 0x20 DUP3 DUP5 SUB SLT ISZERO PUSH2 0x357 JUMPI PUSH2 0x356 PUSH2 0x2E4 JUMP JUMPDEST JUMPDEST PUSH0 PUSH2 0x364 DUP5 DUP3 DUP6 ADD PUSH2 0x32E JUMP JUMPDEST SWAP2 POP POP SWAP3 SWAP2 POP POP JUMP JUMPDEST PUSH0 DUP2 SWAP1 POP SWAP2 SWAP1 POP JUMP JUMPDEST PUSH2 0x37F DUP2 PUSH2 0x36D JUMP JUMPDEST DUP3 MSTORE POP POP JUMP JUMPDEST PUSH0 PUSH1 0x20 DUP3 ADD SWAP1 POP PUSH2 0x398 PUSH0 DUP4 ADD DUP5 PUSH2 0x376 JUMP JUMPDEST SWAP3 SWAP2 POP POP JUMP JUMPDEST PUSH2 0x3A7 DUP2 PUSH2 0x36D JUMP JUMPDEST DUP2 EQ PUSH2 0x3B1 JUMPI PUSH0 PUSH0 REVERT JUMPDEST POP JUMP JUMPDEST PUSH0 DUP2 CALLDATALOAD SWAP1 POP PUSH2 0x3C2 DUP2 PUSH2 0x39E JUMP JUMPDEST SWAP3 SWAP2 POP POP JUMP JUMPDEST PUSH0 PUSH1 0x20 DUP3 DUP5 SUB SLT ISZERO PUSH2 0x3DD JUMPI PUSH2 0x3DC PUSH2 0x2E4 JUMP JUMPDEST JUMPDEST PUSH0 PUSH2 0x3EA DUP5 DUP3 DUP6 ADD PUSH2 0x3B4 JUMP JUMPDEST SWAP2 POP POP SWAP3 SWAP2 POP POP JUMP JUMPDEST PUSH0 DUP3 DUP3 MSTORE PUSH1 0x20 DUP3 ADD SWAP1 POP SWAP3 SWAP2 POP POP JUMP JUMPDEST PUSH32 0x416D6F756E74206D757374206265203E20300000000000000000000000000000 PUSH0 DUP3 ADD MSTORE POP JUMP JUMPDEST PUSH0 PUSH2 0x437 PUSH1 0x12 DUP4 PUSH2 0x3F3 JUMP JUMPDEST SWAP2 POP PUSH2 0x442 DUP3 PUSH2 0x403 JUMP JUMPDEST PUSH1 0x20 DUP3 ADD SWAP1 POP SWAP2 SWAP1 POP JUMP JUMPDEST PUSH0 PUSH1 0x20 DUP3 ADD SWAP1 POP DUP2 DUP2 SUB PUSH0 DUP4 ADD MSTORE PUSH2 0x464 DUP2 PUSH2 0x42B JUMP JUMPDEST SWAP1 POP SWAP2 SWAP1 POP JUMP JUMPDEST PUSH32 0x416D6F756E7420746F6F206C6172676500000000000000000000000000000000 PUSH0 DUP3 ADD MSTORE POP JUMP JUMPDEST PUSH0 PUSH2 0x49F PUSH1 0x10 DUP4 PUSH2 0x3F3 JUMP JUMPDEST SWAP2 POP PUSH2 0x4AA DUP3 PUSH2 0x46B JUMP JUMPDEST PUSH1 0x20 DUP3 ADD SWAP1 POP SWAP2 SWAP1 POP JUMP JUMPDEST PUSH0 PUSH1 0x20 DUP3 ADD SWAP1 POP DUP2 DUP2 SUB PUSH0 DUP4 ADD MSTORE PUSH2 0x4CC DUP2 PUSH2 0x493 JUMP JUMPDEST SWAP1 POP SWAP2 SWAP1 POP JUMP JUMPDEST PUSH32 0x4E487B7100000000000000000000000000000000000000000000000000000000 PUSH0 MSTORE PUSH1 0x11 PUSH1 0x4 MSTORE PUSH1 0x24 PUSH0 REVERT JUMPDEST PUSH0 PUSH2 0x50A DUP3 PUSH2 0x36D JUMP JUMPDEST SWAP2 POP PUSH2 0x515 DUP4 PUSH2 0x36D JUMP JUMPDEST SWAP3 POP DUP3 DUP3 ADD SWAP1 POP DUP1 DUP3 GT ISZERO PUSH2 0x52D JUMPI PUSH2 0x52C PUSH2 0x4D3 JUMP JUMPDEST JUMPDEST SWAP3 SWAP2 POP POP JUMP JUMPDEST PUSH0 PUSH1 0x40 DUP3 ADD SWAP1 POP PUSH2 0x546 PUSH0 DUP4 ADD DUP6 PUSH2 0x376 JUMP JUMPDEST PUSH2 0x553 PUSH1 0x20 DUP4 ADD DUP5 PUSH2 0x376 JUMP JUMPDEST SWAP4 SWAP3 POP POP POP JUMP INVALID LOG2 PUSH5 0x6970667358 0x22 SLT KECCAK256 0xBF SWAP7 0xC PUSH31 0x2A516779A9F0FEC6D8B9110C41E2A8E76C3878F7D0B2B4F655EC00D564736F PUSH13 0x63430008220033000000000000 "
		},
		"gasEstimates": {
			"creation": {
				"codeDepositCost": "284800",
				"executionCost": "322",
				"totalCost": "285122"
			},
			"external": {
				"balances(address)": "2779",
				"deposit(uint256)": "infinite",
				"totalDeposits()": "2425"
			}
		},
		"methodIdentifiers": {
			"balances(address)": "27e235e3",
			"deposit(uint256)": "b6b55f25",
			"totalDeposits()": "7d882097"
		}
	},
	"abi": [
		{
			"anonymous": false,
			"inputs": [
				{
					"indexed": true,
					"internalType": "address",
					"name": "user",
					"type": "address"
				},
				{
					"indexed": false,
					"internalType": "uint256",
					"name": "newBalance",
					"type": "uint256"
				}
			],
			"name": "BalanceUpdated",
			"type": "event"
		},
		{
			"anonymous": false,
			"inputs": [
				{
					"indexed": true,
					"internalType": "address",
					"name": "user",
					"type": "address"
				},
				{
					"indexed": false,
					"internalType": "uint256",
					"name": "amount",
					"type": "uint256"
				},
				{
					"indexed": false,
					"internalType": "uint256",
					"name": "totalDeposits",
					"type": "uint256"
				}
			],
			"name": "DepositCompleted",
			"type": "event"
		},
		{
			"anonymous": false,
			"inputs": [
				{
					"indexed": true,
					"internalType": "address",
					"name": "user",
					"type": "address"
				},
				{
					"indexed": false,
					"internalType": "uint256",
					"name": "amount",
					"type": "uint256"
				}
			],
			"name": "DepositStarted",
			"type": "event"
		},
		{
			"inputs": [
				{
					"internalType": "address",
					"name": "",
					"type": "address"
				}
			],
			"name": "balances",
			"outputs": [
				{
					"internalType": "uint256",
					"name": "",
					"type": "uint256"
				}
			],
			"stateMutability": "view",
			"type": "function"
		},
		{
			"inputs": [
				{
					"internalType": "uint256",
					"name": "_amount",
					"type": "uint256"
				}
			],
			"name": "deposit",
			"outputs": [],
			"stateMutability": "nonpayable",
			"type": "function"
		},
		{
			"inputs": [],
			"name": "totalDeposits",
			"outputs": [
				{
					"internalType": "uint256",
					"name": "",
					"type": "uint256"
				}
			],
			"stateMutability": "view",
			"type": "function"
		}
	]
}