{
	"data": {
		"bytecode": {
			"linkReferences": {},
			"object": "6080604052348015600e575f5ffd5b506104c28061001c5f395ff3fe608060405234801561000f575f5ffd5b506004361061004a575f3560e01c806327e235e31461004e5780632f7c9ed61461007e5780637d8820971461009a578063b6b55f25146100b8575b5f5ffd5b6100686004803603810190610063919061029b565b6100d4565b60405161007591906102de565b60405180910390f35b61009860048036038101906100939190610321565b6100e8565b005b6100a26100ff565b6040516100af91906102de565b60405180910390f35b6100d260048036038101906100cd9190610321565b610105565b005b5f602052805f5260405f205f915090505481565b6100f181610124565b6100fc33600a610143565b50565b60015481565b61010e81610199565b6101183382610143565b61012181610222565b50565b61012d81610199565b6101373382610143565b61014081610222565b50565b805f5f8473ffffffffffffffffffffffffffffffffffffffff1673ffffffffffffffffffffffffffffffffffffffff1681526020019081526020015f205f82825461018e9190610379565b925050819055505050565b5f81116101db576040517f08c379a00000000000000000000000000000000000000000000000000000000081526004016101d290610406565b60405180910390fd5b606481111561021f576040517f08c379a00000000000000000000000000000000000000000000000000000000081526004016102169061046e565b60405180910390fd5b50565b8060015f8282546102339190610379565b9250508190555050565b5f5ffd5b5f73ffffffffffffffffffffffffffffffffffffffff82169050919050565b5f61026a82610241565b9050919050565b61027a81610260565b8114610284575f5ffd5b50565b5f8135905061029581610271565b92915050565b5f602082840312156102b0576102af61023d565b5b5f6102bd84828501610287565b91505092915050565b5f819050919050565b6102d8816102c6565b82525050565b5f6020820190506102f15f8301846102cf565b92915050565b610300816102c6565b811461030a575f5ffd5b50565b5f8135905061031b816102f7565b92915050565b5f602082840312156103365761033561023d565b5b5f6103438482850161030d565b91505092915050565b7f4e487b71000000000000000000000000000000000000000000000000000000005f52601160045260245ffd5b5f610383826102c6565b915061038e836102c6565b92508282019050808211156103a6576103a561034c565b5b92915050565b5f82825260208201905092915050565b7f416d6f756e74206d757374206265203e203000000000000000000000000000005f82015250565b5f6103f06012836103ac565b91506103fb826103bc565b602082019050919050565b5f6020820190508181035f83015261041d816103e4565b9050919050565b7f416d6f756e7420746f6f206c61726765000000000000000000000000000000005f82015250565b5f6104586010836103ac565b915061046382610424565b602082019050919050565b5f6020820190508181035f8301526104858161044c565b905091905056fea26469706673582212209d82bc0f6983ff351455c53f46a924fe0e9c418c89141eb83e35352718d441e264736f6c63430008220033",
			"opcodes": "PUSH1 0x80 PUSH1 0x40 MSTORE CALLVALUE DUP1 ISZERO PUSH1 0xE JUMPI PUSH0 PUSH0 REVERT JUMPDEST POP PUSH2 0x4C2 DUP1 PUSH2 0x1C PUSH0 CODECOPY PUSH0 RETURN INVALID PUSH1 0x80 PUSH1 0x40 MSTORE CALLVALUE DUP1 ISZERO PUSH2 0xF JUMPI PUSH0 PUSH0 REVERT JUMPDEST POP PUSH1 0x4 CALLDATASIZE LT PUSH2 0x4A JUMPI PUSH0 CALLDATALOAD PUSH1 0xE0 SHR DUP1 PUSH4 0x27E235E3 EQ PUSH2 0x4E JUMPI DUP1 PUSH4 0x2F7C9ED6 EQ PUSH2 0x7E JUMPI DUP1 PUSH4 0x7D882097 EQ PUSH2 0x9A JUMPI DUP1 PUSH4 0xB6B55F25 EQ PUSH2 0xB8 JUMPI JUMPDEST PUSH0 PUSH0 REVERT JUMPDEST PUSH2 0x68 PUSH1 0x4 DUP1 CALLDATASIZE SUB DUP2 ADD SWAP1 PUSH2 0x63 SWAP2 SWAP1 PUSH2 0x29B JUMP JUMPDEST PUSH2 0xD4 JUMP JUMPDEST PUSH1 0x40 MLOAD PUSH2 0x75 SWAP2 SWAP1 PUSH2 0x2DE JUMP JUMPDEST PUSH1 0x40 MLOAD DUP1 SWAP2 SUB SWAP1 RETURN JUMPDEST PUSH2 0x98 PUSH1 0x4 DUP1 CALLDATASIZE SUB DUP2 ADD SWAP1 PUSH2 0x93 SWAP2 SWAP1 PUSH2 0x321 JUMP JUMPDEST PUSH2 0xE8 JUMP JUMPDEST STOP JUMPDEST PUSH2 0xA2 PUSH2 0xFF JUMP JUMPDEST PUSH1 0x40 MLOAD PUSH2 0xAF SWAP2 SWAP1 PUSH2 0x2DE JUMP JUMPDEST PUSH1 0x40 MLOAD DUP1 SWAP2 SUB SWAP1 RETURN JUMPDEST PUSH2 0xD2 PUSH1 0x4 DUP1 CALLDATASIZE SUB DUP2 ADD SWAP1 PUSH2 0xCD SWAP2 SWAP1 PUSH2 0x321 JUMP JUMPDEST PUSH2 0x105 JUMP JUMPDEST STOP JUMPDEST PUSH0 PUSH1 0x20 MSTORE DUP1 PUSH0 MSTORE PUSH1 0x40 PUSH0 KECCAK256 PUSH0 SWAP2 POP SWAP1 POP SLOAD DUP2 JUMP JUMPDEST PUSH2 0xF1 DUP2 PUSH2 0x124 JUMP JUMPDEST PUSH2 0xFC CALLER PUSH1 0xA PUSH2 0x143 JUMP JUMPDEST POP JUMP JUMPDEST PUSH1 0x1 SLOAD DUP2 JUMP JUMPDEST PUSH2 0x10E DUP2 PUSH2 0x199 JUMP JUMPDEST PUSH2 0x118 CALLER DUP3 PUSH2 0x143 JUMP JUMPDEST PUSH2 0x121 DUP2 PUSH2 0x222 JUMP JUMPDEST POP JUMP JUMPDEST PUSH2 0x12D DUP2 PUSH2 0x199 JUMP JUMPDEST PUSH2 0x137 CALLER DUP3 PUSH2 0x143 JUMP JUMPDEST PUSH2 0x140 DUP2 PUSH2 0x222 JUMP JUMPDEST POP JUMP JUMPDEST DUP1 PUSH0 PUSH0 DUP5 PUSH20 0xFFFFFFFFFFFFFFFFFFFFFFFFFFFFFFFFFFFFFFFF AND PUSH20 0xFFFFFFFFFFFFFFFFFFFFFFFFFFFFFFFFFFFFFFFF AND DUP2 MSTORE PUSH1 0x20 ADD SWAP1 DUP2 MSTORE PUSH1 0x20 ADD PUSH0 KECCAK256 PUSH0 DUP3 DUP3 SLOAD PUSH2 0x18E SWAP2 SWAP1 PUSH2 0x379 JUMP JUMPDEST SWAP3 POP POP DUP2 SWAP1 SSTORE POP POP POP JUMP JUMPDEST PUSH0 DUP2 GT PUSH2 0x1DB JUMPI PUSH1 0x40 MLOAD PUSH32 0x8C379A000000000000000000000000000000000000000000000000000000000 DUP2 MSTORE PUSH1 0x4 ADD PUSH2 0x1D2 SWAP1 PUSH2 0x406 JUMP JUMPDEST PUSH1 0x40 MLOAD DUP1 SWAP2 SUB SWAP1 REVERT JUMPDEST PUSH1 0x64 DUP2 GT ISZERO PUSH2 0x21F JUMPI PUSH1 0x40 MLOAD PUSH32 0x8C379A000000000000000000000000000000000000000000000000000000000 DUP2 MSTORE PUSH1 0x4 ADD PUSH2 0x216 SWAP1 PUSH2 0x46E JUMP JUMPDEST PUSH1 0x40 MLOAD DUP1 SWAP2 SUB SWAP1 REVERT JUMPDEST POP JUMP JUMPDEST DUP1 PUSH1 0x1 PUSH0 DUP3 DUP3 SLOAD PUSH2 0x233 SWAP2 SWAP1 PUSH2 0x379 JUMP JUMPDEST SWAP3 POP POP DUP2 SWAP1 SSTORE POP POP JUMP JUMPDEST PUSH0 PUSH0 REVERT JUMPDEST PUSH0 PUSH20 0xFFFFFFFFFFFFFFFFFFFFFFFFFFFFFFFFFFFFFFFF DUP3 AND SWAP1 POP SWAP2 SWAP1 POP JUMP JUMPDEST PUSH0 PUSH2 0x26A DUP3 PUSH2 0x241 JUMP JUMPDEST SWAP1 POP SWAP2 SWAP1 POP JUMP JUMPDEST PUSH2 0x27A DUP2 PUSH2 0x260 JUMP JUMPDEST DUP2 EQ PUSH2 0x284 JUMPI PUSH0 PUSH0 REVERT JUMPDEST POP JUMP JUMPDEST PUSH0 DUP2 CALLDATALOAD SWAP1 POP PUSH2 0x295 DUP2 PUSH2 0x271 JUMP JUMPDEST SWAP3 SWAP2 POP POP JUMP JUMPDEST PUSH0 PUSH1 0x20 DUP3 DUP5 SUB SLT ISZERO PUSH2 0x2B0 JUMPI PUSH2 0x2AF PUSH2 0x23D JUMP JUMPDEST JUMPDEST PUSH0 PUSH2 0x2BD DUP5 DUP3 DUP6 ADD PUSH2 0x287 JUMP JUMPDEST SWAP2 POP POP SWAP3 SWAP2 POP POP JUMP JUMPDEST PUSH0 DUP2 SWAP1 POP SWAP2 SWAP1 POP JUMP JUMPDEST PUSH2 0x2D8 DUP2 PUSH2 0x2C6 JUMP JUMPDEST DUP3 MSTORE POP POP JUMP JUMPDEST PUSH0 PUSH1 0x20 DUP3 ADD SWAP1 POP PUSH2 0x2F1 PUSH0 DUP4 ADD DUP5 PUSH2 0x2CF JUMP JUMPDEST SWAP3 SWAP2 POP POP JUMP JUMPDEST PUSH2 0x300 DUP2 PUSH2 0x2C6 JUMP JUMPDEST DUP2 EQ PUSH2 0x30A JUMPI PUSH0 PUSH0 REVERT JUMPDEST POP JUMP JUMPDEST PUSH0 DUP2 CALLDATALOAD SWAP1 POP PUSH2 0x31B DUP2 PUSH2 0x2F7 JUMP JUMPDEST SWAP3 SWAP2 POP POP JUMP JUMPDEST PUSH0 PUSH1 0x20 DUP3 DUP5 SUB SLT ISZERO PUSH2 0x336 JUMPI PUSH2 0x335 PUSH2 0x23D JUMP JUMPDEST JUMPDEST PUSH0 PUSH2 0x343 DUP5 DUP3 DUP6 ADD PUSH2 0x30D JUMP JUMPDEST SWAP2 POP POP SWAP3 SWAP2 POP POP JUMP JUMPDEST PUSH32 0x4E487B7100000000000000000000000000000000000000000000000000000000 PUSH0 MSTORE PUSH1 0x11 PUSH1 0x4 MSTORE PUSH1 0x24 PUSH0 REVERT JUMPDEST PUSH0 PUSH2 0x383 DUP3 PUSH2 0x2C6 JUMP JUMPDEST SWAP2 POP PUSH2 0x38E DUP4 PUSH2 0x2C6 JUMP JUMPDEST SWAP3 POP DUP3 DUP3 ADD SWAP1 POP DUP1 DUP3 GT ISZERO PUSH2 0x3A6 JUMPI PUSH2 0x3A5 PUSH2 0x34C JUMP JUMPDEST JUMPDEST SWAP3 SWAP2 POP POP JUMP JUMPDEST PUSH0 DUP3 DUP3 MSTORE PUSH1 0x20 DUP3 ADD SWAP1 POP SWAP3 SWAP2 POP POP JUMP JUMPDEST PUSH32 0x416D6F756E74206D757374206265203E20300000000000000000000000000000 PUSH0 DUP3 ADD MSTORE POP JUMP JUMPDEST PUSH0 PUSH2 0x3F0 PUSH1 0x12 DUP4 PUSH2 0x3AC JUMP JUMPDEST SWAP2 POP PUSH2 0x3FB DUP3 PUSH2 0x3BC JUMP JUMPDEST PUSH1 0x20 DUP3 ADD SWAP1 POP SWAP2 SWAP1 POP JUMP JUMPDEST PUSH0 PUSH1 0x20 DUP3 ADD SWAP1 POP DUP2 DUP2 SUB PUSH0 DUP4 ADD MSTORE PUSH2 0x41D DUP2 PUSH2 0x3E4 JUMP JUMPDEST SWAP1 POP SWAP2 SWAP1 POP JUMP JUMPDEST PUSH32 0x416D6F756E7420746F6F206C6172676500000000000000000000000000000000 PUSH0 DUP3 ADD MSTORE POP JUMP JUMPDEST PUSH0 PUSH2 0x458 PUSH1 0x10 DUP4 PUSH2 0x3AC JUMP JUMPDEST SWAP2 POP PUSH2 0x463 DUP3 PUSH2 0x424 JUMP JUMPDEST PUSH1 0x20 DUP3 ADD SWAP1 POP SWAP2 SWAP1 POP JUMP JUMPDEST PUSH0 PUSH1 0x20 DUP3 ADD SWAP1 POP DUP2 DUP2 SUB PUSH0 DUP4 ADD MSTORE PUSH2 0x485 DUP2 PUSH2 0x44C JUMP JUMPDEST SWAP1 POP SWAP2 SWAP1 POP JUMP INVALID LOG2 PUSH5 0x6970667358 0x22 SLT KECCAK256 SWAP14 DUP3 0xBC 0xF PUSH10 0x83FF351455C53F46A924 INVALID 0xE SWAP13 COINBASE DUP13 DUP10 EQ CLZ 0xB8 RETURNDATACOPY CALLDATALOAD CALLDATALOAD 0x27 XOR 0xD4 COINBASE 0xE2 PUSH5 0x736F6C6343 STOP ADDMOD 0x22 STOP CALLER "
		},
		"gasEstimates": {
			"creation": {
				"codeDepositCost": "243600",
				"executionCost": "285",
				"totalCost": "243885"
			},
			"external": {
				"balances(address)": "2779",
				"deposit(uint256)": "infinite",
				"depositWithBonus(uint256)": "infinite",
				"totalDeposits()": "2447"
			},
			"internal": {
				"addBalance(address,uint256)": "infinite",
				"depositInternal(uint256)": "infinite",
				"updateTotal(uint256)": "infinite",
				"validateAmount(uint256)": "infinite"
			}
		},
		"methodIdentifiers": {
			"balances(address)": "27e235e3",
			"deposit(uint256)": "b6b55f25",
			"depositWithBonus(uint256)": "2f7c9ed6",
			"totalDeposits()": "7d882097"
		}
	},
	"abi": [
		{
			"inputs": [
				{
					"internalType": "address",
					"name": "",
					"type": "address"
				}
			],
			"name": "balances",
			"outputs": [
				{
					"internalType": "uint256",
					"name": "",
					"type": "uint256"
				}
			],
			"stateMutability": "view",
			"type": "function"
		},
		{
			"inputs": [
				{
					"internalType": "uint256",
					"name": "_amount",
					"type": "uint256"
				}
			],
			"name": "deposit",
			"outputs": [],
			"stateMutability": "nonpayable",
			"type": "function"
		},
		{
			"inputs": [
				{
					"internalType": "uint256",
					"name": "_amount",
					"type": "uint256"
				}
			],
			"name": "depositWithBonus",
			"outputs": [],
			"stateMutability": "nonpayable",
			"type": "function"
		},
		{
			"inputs": [],
			"name": "totalDeposits",
			"outputs": [
				{
					"internalType": "uint256",
					"name": "",
					"type": "uint256"
				}
			],
			"stateMutability": "view",
			"type": "function"
		}
	]
}