{
	"data": {
		"bytecode": {
			"linkReferences": {},
			"object": "6080604052348015600e575f5ffd5b506103588061001c5f395ff3fe608060405234801561000f575f5ffd5b506004361061007b575f3560e01c80639b909df2116100595780639b909df2146100eb5780639c4fa45f146100f5578063ea4097bd14610111578063ed905055146101415761007b565b80630849cc991461007f57806309ce9ccb1461009d5780635e383d21146100bb575b5f5ffd5b61008761015f565b6040516100949190610212565b60405180910390f35b6100a561016b565b6040516100b29190610212565b60405180910390f35b6100d560048036038101906100d09190610259565b610170565b6040516100e29190610212565b60405180910390f35b6100f3610190565b005b61010f600480360381019061010a9190610259565b6101d4565b005b61012b60048036038101906101269190610284565b6101dd565b6040516101389190610212565b60405180910390f35b6101496101f2565b6040516101569190610212565b60405180910390f35b5f600180549050905090565b5f5481565b6001818154811061017f575f80fd5b905f5260205f20015f915090505481565b5f5f90505b600a8110156101d157600181908060018154018082558091505060019003905f5260205f20015f90919091909150558080600101915050610195565b50565b805f8190555050565b5f81836101ea91906102ef565b905092915050565b5f5f54905090565b5f819050919050565b61020c816101fa565b82525050565b5f6020820190506102255f830184610203565b92915050565b5f5ffd5b610238816101fa565b8114610242575f5ffd5b50565b5f813590506102538161022f565b92915050565b5f6020828403121561026e5761026d61022b565b5b5f61027b84828501610245565b91505092915050565b5f5f6040838503121561029a5761029961022b565b5b5f6102a785828601610245565b92505060206102b885828601610245565b9150509250929050565b7f4e487b71000000000000000000000000000000000000000000000000000000005f52601160045260245ffd5b5f6102f9826101fa565b9150610304836101fa565b925082820190508082111561031c5761031b6102c2565b5b9291505056fea2646970667358221220bb59654eadacfb13488659476541873e60d7c43c9bdfca5531fb532a6120d2fa64736f6c63430008220033",
			"opcodes": "PUSH1 0x80 PUSH1 0x40 MSTORE CALLVALUE DUP1 ISZERO PUSH1 0xE JUMPI PUSH0 PUSH0 REVERT JUMPDEST POP PUSH2 0x358 DUP1 PUSH2 0x1C PUSH0 CODECOPY PUSH0 RETURN INVALID PUSH1 0x80 PUSH1 0x40 MSTORE CALLVALUE DUP1 ISZERO PUSH2 0xF JUMPI PUSH0 PUSH0 REVERT JUMPDEST POP PUSH1 0x4 CALLDATASIZE LT PUSH2 0x7B JUMPI PUSH0 CALLDATALOAD PUSH1 0xE0 SHR DUP1 PUSH4 0x9B909DF2 GT PUSH2 0x59 JUMPI DUP1 PUSH4 0x9B909DF2 EQ PUSH2 0xEB JUMPI DUP1 PUSH4 0x9C4FA45F EQ PUSH2 0xF5 JUMPI DUP1 PUSH4 0xEA4097BD EQ PUSH2 0x111 JUMPI DUP1 PUSH4 0xED905055 EQ PUSH2 0x141 JUMPI PUSH2 0x7B JUMP JUMPDEST DUP1 PUSH4 0x849CC99 EQ PUSH2 0x7F JUMPI DUP1 PUSH4 0x9CE9CCB EQ PUSH2 0x9D JUMPI DUP1 PUSH4 0x5E383D21 EQ PUSH2 0xBB JUMPI JUMPDEST PUSH0 PUSH0 REVERT JUMPDEST PUSH2 0x87 PUSH2 0x15F JUMP JUMPDEST PUSH1 0x40 MLOAD PUSH2 0x94 SWAP2 SWAP1 PUSH2 0x212 JUMP JUMPDEST PUSH1 0x40 MLOAD DUP1 SWAP2 SUB SWAP1 RETURN JUMPDEST PUSH2 0xA5 PUSH2 0x16B JUMP JUMPDEST PUSH1 0x40 MLOAD PUSH2 0xB2 SWAP2 SWAP1 PUSH2 0x212 JUMP JUMPDEST PUSH1 0x40 MLOAD DUP1 SWAP2 SUB SWAP1 RETURN JUMPDEST PUSH2 0xD5 PUSH1 0x4 DUP1 CALLDATASIZE SUB DUP2 ADD SWAP1 PUSH2 0xD0 SWAP2 SWAP1 PUSH2 0x259 JUMP JUMPDEST PUSH2 0x170 JUMP JUMPDEST PUSH1 0x40 MLOAD PUSH2 0xE2 SWAP2 SWAP1 PUSH2 0x212 JUMP JUMPDEST PUSH1 0x40 MLOAD DUP1 SWAP2 SUB SWAP1 RETURN JUMPDEST PUSH2 0xF3 PUSH2 0x190 JUMP JUMPDEST STOP JUMPDEST PUSH2 0x10F PUSH1 0x4 DUP1 CALLDATASIZE SUB DUP2 ADD SWAP1 PUSH2 0x10A SWAP2 SWAP1 PUSH2 0x259 JUMP JUMPDEST PUSH2 0x1D4 JUMP JUMPDEST STOP JUMPDEST PUSH2 0x12B PUSH1 0x4 DUP1 CALLDATASIZE SUB DUP2 ADD SWAP1 PUSH2 0x126 SWAP2 SWAP1 PUSH2 0x284 JUMP JUMPDEST PUSH2 0x1DD JUMP JUMPDEST PUSH1 0x40 MLOAD PUSH2 0x138 SWAP2 SWAP1 PUSH2 0x212 JUMP JUMPDEST PUSH1 0x40 MLOAD DUP1 SWAP2 SUB SWAP1 RETURN JUMPDEST PUSH2 0x149 PUSH2 0x1F2 JUMP JUMPDEST PUSH1 0x40 MLOAD PUSH2 0x156 SWAP2 SWAP1 PUSH2 0x212 JUMP JUMPDEST PUSH1 0x40 MLOAD DUP1 SWAP2 SUB SWAP1 RETURN JUMPDEST PUSH0 PUSH1 0x1 DUP1 SLOAD SWAP1 POP SWAP1 POP SWAP1 JUMP JUMPDEST PUSH0 SLOAD DUP2 JUMP JUMPDEST PUSH1 0x1 DUP2 DUP2 SLOAD DUP2 LT PUSH2 0x17F JUMPI PUSH0 DUP1 REVERT JUMPDEST SWAP1 PUSH0 MSTORE PUSH1 0x20 PUSH0 KECCAK256 ADD PUSH0 SWAP2 POP SWAP1 POP SLOAD DUP2 JUMP JUMPDEST PUSH0 PUSH0 SWAP1 POP JUMPDEST PUSH1 0xA DUP2 LT ISZERO PUSH2 0x1D1 JUMPI PUSH1 0x1 DUP2 SWAP1 DUP1 PUSH1 0x1 DUP2 SLOAD ADD DUP1 DUP3 SSTORE DUP1 SWAP2 POP POP PUSH1 0x1 SWAP1 SUB SWAP1 PUSH0 MSTORE PUSH1 0x20 PUSH0 KECCAK256 ADD PUSH0 SWAP1 SWAP2 SWAP1 SWAP2 SWAP1 SWAP2 POP SSTORE DUP1 DUP1 PUSH1 0x1 ADD SWAP2 POP POP PUSH2 0x195 JUMP JUMPDEST POP JUMP JUMPDEST DUP1 PUSH0 DUP2 SWAP1 SSTORE POP POP JUMP JUMPDEST PUSH0 DUP2 DUP4 PUSH2 0x1EA SWAP2 SWAP1 PUSH2 0x2EF JUMP JUMPDEST SWAP1 POP SWAP3 SWAP2 POP POP JUMP JUMPDEST PUSH0 PUSH0 SLOAD SWAP1 POP SWAP1 JUMP JUMPDEST PUSH0 DUP2 SWAP1 POP SWAP2 SWAP1 POP JUMP JUMPDEST PUSH2 0x20C DUP2 PUSH2 0x1FA JUMP JUMPDEST DUP3 MSTORE POP POP JUMP JUMPDEST PUSH0 PUSH1 0x20 DUP3 ADD SWAP1 POP PUSH2 0x225 PUSH0 DUP4 ADD DUP5 PUSH2 0x203 JUMP JUMPDEST SWAP3 SWAP2 POP POP JUMP JUMPDEST PUSH0 PUSH0 REVERT JUMPDEST PUSH2 0x238 DUP2 PUSH2 0x1FA JUMP JUMPDEST DUP2 EQ PUSH2 0x242 JUMPI PUSH0 PUSH0 REVERT JUMPDEST POP JUMP JUMPDEST PUSH0 DUP2 CALLDATALOAD SWAP1 POP PUSH2 0x253 DUP2 PUSH2 0x22F JUMP JUMPDEST SWAP3 SWAP2 POP POP JUMP JUMPDEST PUSH0 PUSH1 0x20 DUP3 DUP5 SUB SLT ISZERO PUSH2 0x26E JUMPI PUSH2 0x26D PUSH2 0x22B JUMP JUMPDEST JUMPDEST PUSH0 PUSH2 0x27B DUP5 DUP3 DUP6 ADD PUSH2 0x245 JUMP JUMPDEST SWAP2 POP POP SWAP3 SWAP2 POP POP JUMP JUMPDEST PUSH0 PUSH0 PUSH1 0x40 DUP4 DUP6 SUB SLT ISZERO PUSH2 0x29A JUMPI PUSH2 0x299 PUSH2 0x22B JUMP JUMPDEST JUMPDEST PUSH0 PUSH2 0x2A7 DUP6 DUP3 DUP7 ADD PUSH2 0x245 JUMP JUMPDEST SWAP3 POP POP PUSH1 0x20 PUSH2 0x2B8 DUP6 DUP3 DUP7 ADD PUSH2 0x245 JUMP JUMPDEST SWAP2 POP POP SWAP3 POP SWAP3 SWAP1 POP JUMP JUMPDEST PUSH32 0x4E487B7100000000000000000000000000000000000000000000000000000000 PUSH0 MSTORE PUSH1 0x11 PUSH1 0x4 MSTORE PUSH1 0x24 PUSH0 REVERT JUMPDEST PUSH0 PUSH2 0x2F9 DUP3 PUSH2 0x1FA JUMP JUMPDEST SWAP2 POP PUSH2 0x304 DUP4 PUSH2 0x1FA JUMP JUMPDEST SWAP3 POP DUP3 DUP3 ADD SWAP1 POP DUP1 DUP3 GT ISZERO PUSH2 0x31C JUMPI PUSH2 0x31B PUSH2 0x2C2 JUMP JUMPDEST JUMPDEST SWAP3 SWAP2 POP POP JUMP INVALID LOG2 PUSH5 0x6970667358 0x22 SLT KECCAK256 0xBB MSIZE PUSH6 0x4EADACFB1348 DUP7 MSIZE SELFBALANCE PUSH6 0x41873E60D7C4 EXTCODECOPY SWAP12 0xDF 0xCA SSTORE BALANCE EXTSTATICCALL MSTORE8 0x2A PUSH2 0x20D2 STATICCALL PUSH5 0x736F6C6343 STOP ADDMOD 0x22 STOP CALLER "
		},
		"gasEstimates": {
			"creation": {
				"codeDepositCost": "171200",
				"executionCost": "212",
				"totalCost": "171412"
			},
			"external": {
				"calculateSum(uint256,uint256)": "infinite",
				"getArrayLength()": "2441",
				"readStoredNumber()": "2497",
				"storeManyValues()": "infinite",
				"storedNumber()": "2447",
				"updateStoredNumber(uint256)": "22536",
				"values(uint256)": "infinite"
			}
		},
		"methodIdentifiers": {
			"calculateSum(uint256,uint256)": "ea4097bd",
			"getArrayLength()": "0849cc99",
			"readStoredNumber()": "ed905055",
			"storeManyValues()": "9b909df2",
			"storedNumber()": "09ce9ccb",
			"updateStoredNumber(uint256)": "9c4fa45f",
			"values(uint256)": "5e383d21"
		}
	},
	"abi": [
		{
			"inputs": [
				{
					"internalType": "uint256",
					"name": "a",
					"type": "uint256"
				},
				{
					"internalType": "uint256",
					"name": "b",
					"type": "uint256"
				}
			],
			"name": "calculateSum",
			"outputs": [
				{
					"internalType": "uint256",
					"name": "",
					"type": "uint256"
				}
			],
			"stateMutability": "pure",
			"type": "function"
		},
		{
			"inputs": [],
			"name": "getArrayLength",
			"outputs": [
				{
					"internalType": "uint256",
					"name": "",
					"type": "uint256"
				}
			],
			"stateMutability": "view",
			"type": "function"
		},
		{
			"inputs": [],
			"name": "readStoredNumber",
			"outputs": [
				{
					"internalType": "uint256",
					"name": "",
					"type": "uint256"
				}
			],
			"stateMutability": "view",
			"type": "function"
		},
		{
			"inputs": [],
			"name": "storeManyValues",
			"outputs": [],
			"stateMutability": "nonpayable",
			"type": "function"
		},
		{
			"inputs": [],
			"name": "storedNumber",
			"outputs": [
				{
					"internalType": "uint256",
					"name": "",
					"type": "uint256"
				}
			],
			"stateMutability": "view",
			"type": "function"
		},
		{
			"inputs": [
				{
					"internalType": "uint256",
					"name": "_num",
					"type": "uint256"
				}
			],
			"name": "updateStoredNumber",
			"outputs": [],
			"stateMutability": "nonpayable",
			"type": "function"
		},
		{
			"inputs": [
				{
					"internalType": "uint256",
					"name": "",
					"type": "uint256"
				}
			],
			"name": "values",
			"outputs": [
				{
					"internalType": "uint256",
					"name": "",
					"type": "uint256"
				}
			],
			"stateMutability": "view",
			"type": "function"
		}
	]
}