{
	"data": {
		"bytecode": {
			"linkReferences": {},
			"object": "6080604052348015600e575f5ffd5b5061096c8061001c5f395ff3fe608060405234801561000f575f5ffd5b506004361061007b575f3560e01c8063950bff9f11610059578063950bff9f146100e95780639e258efe14610107578063af7efa7c14610137578063e9865c73146101555761007b565b80632d25bf7c1461007f57806348f4da20146100af578063820d0934146100cd575b5f5ffd5b61009960048036038101906100949190610531565b610185565b6040516100a69190610613565b60405180910390f35b6100b7610268565b6040516100c49190610642565b60405180910390f35b6100e760048036038101906100e29190610531565b61026d565b005b6100f16102f4565b6040516100fe9190610642565b60405180910390f35b610121600480360381019061011c9190610531565b6102f9565b60405161012e9190610642565b60405180910390f35b61013f610318565b60405161014c9190610642565b60405180910390f35b61016f600480360381019061016a919061065b565b61031e565b60405161017c9190610613565b60405180910390f35b60606103e88211156101cc576040517f08c379a00000000000000000000000000000000000000000000000000000000081526004016101c3906106f3565b60405180910390fd5b5f8267ffffffffffffffff8111156101e7576101e6610711565b5b6040519080825280602002602001820160405280156102155781602001602082028036833780820191505090505b5090505f5f90505b8381101561025e57600181610232919061076b565b8282815181106102455761024461079e565b5b602002602001018181525050808060010191505061021d565b5080915050919050565b606481565b60648111156102b1576040517f08c379a00000000000000000000000000000000000000000000000000000000081526004016102a890610815565b60405180910390fd5b5f5f90505b818110156102f0575f81908060018154018082558091505060019003905f5260205f20015f909190919091505580806001019150506102b6565b5050565b606481565b5f8181548110610307575f80fd5b905f5260205f20015f915090505481565b6103e881565b60606064821115610364576040517f08c379a000000000000000000000000000000000000000000000000000000000815260040161035b9061087d565b60405180910390fd5b5f8054905083108061037957505f5f80549050145b6103b8576040517f08c379a00000000000000000000000000000000000000000000000000000000081526004016103af906108e5565b60405180910390fd5b5f5f8054905003610413575f67ffffffffffffffff8111156103dd576103dc610711565b5b60405190808252806020026020018201604052801561040b5781602001602082028036833780820191505090505b5090506104f4565b5f8284610420919061076b565b90505f80549050811115610436575f8054905090505b5f84826104439190610903565b67ffffffffffffffff81111561045c5761045b610711565b5b60405190808252806020026020018201604052801561048a5781602001602082028036833780820191505090505b5090505f8590505b828110156104ed575f81815481106104ad576104ac61079e565b5b905f5260205f2001548287836104c39190610903565b815181106104d4576104d361079e565b5b6020026020010181815250508080600101915050610492565b5080925050505b92915050565b5f5ffd5b5f819050919050565b610510816104fe565b811461051a575f5ffd5b50565b5f8135905061052b81610507565b92915050565b5f60208284031215610546576105456104fa565b5b5f6105538482850161051d565b91505092915050565b5f81519050919050565b5f82825260208201905092915050565b5f819050602082019050919050565b61058e816104fe565b82525050565b5f61059f8383610585565b60208301905092915050565b5f602082019050919050565b5f6105c18261055c565b6105cb8185610566565b93506105d683610576565b805f5b838110156106065781516105ed8882610594565b97506105f8836105ab565b9250506001810190506105d9565b5085935050505092915050565b5f6020820190508181035f83015261062b81846105b7565b905092915050565b61063c816104fe565b82525050565b5f6020820190506106555f830184610633565b92915050565b5f5f60408385031215610671576106706104fa565b5b5f61067e8582860161051d565b925050602061068f8582860161051d565b9150509250929050565b5f82825260208201905092915050565b7f417272617920746f6f206c6172676500000000000000000000000000000000005f82015250565b5f6106dd600f83610699565b91506106e8826106a9565b602082019050919050565b5f6020820190508181035f83015261070a816106d1565b9050919050565b7f4e487b71000000000000000000000000000000000000000000000000000000005f52604160045260245ffd5b7f4e487b71000000000000000000000000000000000000000000000000000000005f52601160045260245ffd5b5f610775826104fe565b9150610780836104fe565b92508282019050808211156107985761079761073e565b5b92915050565b7f4e487b71000000000000000000000000000000000000000000000000000000005f52603260045260245ffd5b7f426174636820746f6f206c6172676500000000000000000000000000000000005f82015250565b5f6107ff600f83610699565b915061080a826107cb565b602082019050919050565b5f6020820190508181035f83015261082c816107f3565b9050919050565b7f5061676520746f6f206c617267650000000000000000000000000000000000005f82015250565b5f610867600e83610699565b915061087282610833565b602082019050919050565b5f6020820190508181035f8301526108948161085b565b9050919050565b7f496e76616c6964207374617274000000000000000000000000000000000000005f82015250565b5f6108cf600d83610699565b91506108da8261089b565b602082019050919050565b5f6020820190508181035f8301526108fc816108c3565b9050919050565b5f61090d826104fe565b9150610918836104fe565b92508282039050818111156109305761092f61073e565b5b9291505056fea2646970667358221220345bdf87eb7520f4850646ee97db59af3196fcb3610b730dc824b3ec8a18454164736f6c63430008220033",
			"opcodes": "PUSH1 0x80 PUSH1 0x40 MSTORE CALLVALUE DUP1 ISZERO PUSH1 0xE JUMPI PUSH0 PUSH0 REVERT JUMPDEST POP PUSH2 0x96C DUP1 PUSH2 0x1C PUSH0 CODECOPY PUSH0 RETURN INVALID PUSH1 0x80 PUSH1 0x40 MSTORE CALLVALUE DUP1 ISZERO PUSH2 0xF JUMPI PUSH0 PUSH0 REVERT JUMPDEST POP PUSH1 0x4 CALLDATASIZE LT PUSH2 0x7B JUMPI PUSH0 CALLDATALOAD PUSH1 0xE0 SHR DUP1 PUSH4 0x950BFF9F GT PUSH2 0x59 JUMPI DUP1 PUSH4 0x950BFF9F EQ PUSH2 0xE9 JUMPI DUP1 PUSH4 0x9E258EFE EQ PUSH2 0x107 JUMPI DUP1 PUSH4 0xAF7EFA7C EQ PUSH2 0x137 JUMPI DUP1 PUSH4 0xE9865C73 EQ PUSH2 0x155 JUMPI PUSH2 0x7B JUMP JUMPDEST DUP1 PUSH4 0x2D25BF7C EQ PUSH2 0x7F JUMPI DUP1 PUSH4 0x48F4DA20 EQ PUSH2 0xAF JUMPI DUP1 PUSH4 0x820D0934 EQ PUSH2 0xCD JUMPI JUMPDEST PUSH0 PUSH0 REVERT JUMPDEST PUSH2 0x99 PUSH1 0x4 DUP1 CALLDATASIZE SUB DUP2 ADD SWAP1 PUSH2 0x94 SWAP2 SWAP1 PUSH2 0x531 JUMP JUMPDEST PUSH2 0x185 JUMP JUMPDEST PUSH1 0x40 MLOAD PUSH2 0xA6 SWAP2 SWAP1 PUSH2 0x613 JUMP JUMPDEST PUSH1 0x40 MLOAD DUP1 SWAP2 SUB SWAP1 RETURN JUMPDEST PUSH2 0xB7 PUSH2 0x268 JUMP JUMPDEST PUSH1 0x40 MLOAD PUSH2 0xC4 SWAP2 SWAP1 PUSH2 0x642 JUMP JUMPDEST PUSH1 0x40 MLOAD DUP1 SWAP2 SUB SWAP1 RETURN JUMPDEST PUSH2 0xE7 PUSH1 0x4 DUP1 CALLDATASIZE SUB DUP2 ADD SWAP1 PUSH2 0xE2 SWAP2 SWAP1 PUSH2 0x531 JUMP JUMPDEST PUSH2 0x26D JUMP JUMPDEST STOP JUMPDEST PUSH2 0xF1 PUSH2 0x2F4 JUMP JUMPDEST PUSH1 0x40 MLOAD PUSH2 0xFE SWAP2 SWAP1 PUSH2 0x642 JUMP JUMPDEST PUSH1 0x40 MLOAD DUP1 SWAP2 SUB SWAP1 RETURN JUMPDEST PUSH2 0x121 PUSH1 0x4 DUP1 CALLDATASIZE SUB DUP2 ADD SWAP1 PUSH2 0x11C SWAP2 SWAP1 PUSH2 0x531 JUMP JUMPDEST PUSH2 0x2F9 JUMP JUMPDEST PUSH1 0x40 MLOAD PUSH2 0x12E SWAP2 SWAP1 PUSH2 0x642 JUMP JUMPDEST PUSH1 0x40 MLOAD DUP1 SWAP2 SUB SWAP1 RETURN JUMPDEST PUSH2 0x13F PUSH2 0x318 JUMP JUMPDEST PUSH1 0x40 MLOAD PUSH2 0x14C SWAP2 SWAP1 PUSH2 0x642 JUMP JUMPDEST PUSH1 0x40 MLOAD DUP1 SWAP2 SUB SWAP1 RETURN JUMPDEST PUSH2 0x16F PUSH1 0x4 DUP1 CALLDATASIZE SUB DUP2 ADD SWAP1 PUSH2 0x16A SWAP2 SWAP1 PUSH2 0x65B JUMP JUMPDEST PUSH2 0x31E JUMP JUMPDEST PUSH1 0x40 MLOAD PUSH2 0x17C SWAP2 SWAP1 PUSH2 0x613 JUMP JUMPDEST PUSH1 0x40 MLOAD DUP1 SWAP2 SUB SWAP1 RETURN JUMPDEST PUSH1 0x60 PUSH2 0x3E8 DUP3 GT ISZERO PUSH2 0x1CC JUMPI PUSH1 0x40 MLOAD PUSH32 0x8C379A000000000000000000000000000000000000000000000000000000000 DUP2 MSTORE PUSH1 0x4 ADD PUSH2 0x1C3 SWAP1 PUSH2 0x6F3 JUMP JUMPDEST PUSH1 0x40 MLOAD DUP1 SWAP2 SUB SWAP1 REVERT JUMPDEST PUSH0 DUP3 PUSH8 0xFFFFFFFFFFFFFFFF DUP2 GT ISZERO PUSH2 0x1E7 JUMPI PUSH2 0x1E6 PUSH2 0x711 JUMP JUMPDEST JUMPDEST PUSH1 0x40 MLOAD SWAP1 DUP1 DUP3 MSTORE DUP1 PUSH1 0x20 MUL PUSH1 0x20 ADD DUP3 ADD PUSH1 0x40 MSTORE DUP1 ISZERO PUSH2 0x215 JUMPI DUP2 PUSH1 0x20 ADD PUSH1 0x20 DUP3 MUL DUP1 CALLDATASIZE DUP4 CALLDATACOPY DUP1 DUP3 ADD SWAP2 POP POP SWAP1 POP JUMPDEST POP SWAP1 POP PUSH0 PUSH0 SWAP1 POP JUMPDEST DUP4 DUP2 LT ISZERO PUSH2 0x25E JUMPI PUSH1 0x1 DUP2 PUSH2 0x232 SWAP2 SWAP1 PUSH2 0x76B JUMP JUMPDEST DUP3 DUP3 DUP2 MLOAD DUP2 LT PUSH2 0x245 JUMPI PUSH2 0x244 PUSH2 0x79E JUMP JUMPDEST JUMPDEST PUSH1 0x20 MUL PUSH1 0x20 ADD ADD DUP2 DUP2 MSTORE POP POP DUP1 DUP1 PUSH1 0x1 ADD SWAP2 POP POP PUSH2 0x21D JUMP JUMPDEST POP DUP1 SWAP2 POP POP SWAP2 SWAP1 POP JUMP JUMPDEST PUSH1 0x64 DUP2 JUMP JUMPDEST PUSH1 0x64 DUP2 GT ISZERO PUSH2 0x2B1 JUMPI PUSH1 0x40 MLOAD PUSH32 0x8C379A000000000000000000000000000000000000000000000000000000000 DUP2 MSTORE PUSH1 0x4 ADD PUSH2 0x2A8 SWAP1 PUSH2 0x815 JUMP JUMPDEST PUSH1 0x40 MLOAD DUP1 SWAP2 SUB SWAP1 REVERT JUMPDEST PUSH0 PUSH0 SWAP1 POP JUMPDEST DUP2 DUP2 LT ISZERO PUSH2 0x2F0 JUMPI PUSH0 DUP2 SWAP1 DUP1 PUSH1 0x1 DUP2 SLOAD ADD DUP1 DUP3 SSTORE DUP1 SWAP2 POP POP PUSH1 0x1 SWAP1 SUB SWAP1 PUSH0 MSTORE PUSH1 0x20 PUSH0 KECCAK256 ADD PUSH0 SWAP1 SWAP2 SWAP1 SWAP2 SWAP1 SWAP2 POP SSTORE DUP1 DUP1 PUSH1 0x1 ADD SWAP2 POP POP PUSH2 0x2B6 JUMP JUMPDEST POP POP JUMP JUMPDEST PUSH1 0x64 DUP2 JUMP JUMPDEST PUSH0 DUP2 DUP2 SLOAD DUP2 LT PUSH2 0x307 JUMPI PUSH0 DUP1 REVERT JUMPDEST SWAP1 PUSH0 MSTORE PUSH1 0x20 PUSH0 KECCAK256 ADD PUSH0 SWAP2 POP SWAP1 POP SLOAD DUP2 JUMP JUMPDEST PUSH2 0x3E8 DUP2 JUMP JUMPDEST PUSH1 0x60 PUSH1 0x64 DUP3 GT ISZERO PUSH2 0x364 JUMPI PUSH1 0x40 MLOAD PUSH32 0x8C379A000000000000000000000000000000000000000000000000000000000 DUP2 MSTORE PUSH1 0x4 ADD PUSH2 0x35B SWAP1 PUSH2 0x87D JUMP JUMPDEST PUSH1 0x40 MLOAD DUP1 SWAP2 SUB SWAP1 REVERT JUMPDEST PUSH0 DUP1 SLOAD SWAP1 POP DUP4 LT DUP1 PUSH2 0x379 JUMPI POP PUSH0 PUSH0 DUP1 SLOAD SWAP1 POP EQ JUMPDEST PUSH2 0x3B8 JUMPI PUSH1 0x40 MLOAD PUSH32 0x8C379A000000000000000000000000000000000000000000000000000000000 DUP2 MSTORE PUSH1 0x4 ADD PUSH2 0x3AF SWAP1 PUSH2 0x8E5 JUMP JUMPDEST PUSH1 0x40 MLOAD DUP1 SWAP2 SUB SWAP1 REVERT JUMPDEST PUSH0 PUSH0 DUP1 SLOAD SWAP1 POP SUB PUSH2 0x413 JUMPI PUSH0 PUSH8 0xFFFFFFFFFFFFFFFF DUP2 GT ISZERO PUSH2 0x3DD JUMPI PUSH2 0x3DC PUSH2 0x711 JUMP JUMPDEST JUMPDEST PUSH1 0x40 MLOAD SWAP1 DUP1 DUP3 MSTORE DUP1 PUSH1 0x20 MUL PUSH1 0x20 ADD DUP3 ADD PUSH1 0x40 MSTORE DUP1 ISZERO PUSH2 0x40B JUMPI DUP2 PUSH1 0x20 ADD PUSH1 0x20 DUP3 MUL DUP1 CALLDATASIZE DUP4 CALLDATACOPY DUP1 DUP3 ADD SWAP2 POP POP SWAP1 POP JUMPDEST POP SWAP1 POP PUSH2 0x4F4 JUMP JUMPDEST PUSH0 DUP3 DUP5 PUSH2 0x420 SWAP2 SWAP1 PUSH2 0x76B JUMP JUMPDEST SWAP1 POP PUSH0 DUP1 SLOAD SWAP1 POP DUP2 GT ISZERO PUSH2 0x436 JUMPI PUSH0 DUP1 SLOAD SWAP1 POP SWAP1 POP JUMPDEST PUSH0 DUP5 DUP3 PUSH2 0x443 SWAP2 SWAP1 PUSH2 0x903 JUMP JUMPDEST PUSH8 0xFFFFFFFFFFFFFFFF DUP2 GT ISZERO PUSH2 0x45C JUMPI PUSH2 0x45B PUSH2 0x711 JUMP JUMPDEST JUMPDEST PUSH1 0x40 MLOAD SWAP1 DUP1 DUP3 MSTORE DUP1 PUSH1 0x20 MUL PUSH1 0x20 ADD DUP3 ADD PUSH1 0x40 MSTORE DUP1 ISZERO PUSH2 0x48A JUMPI DUP2 PUSH1 0x20 ADD PUSH1 0x20 DUP3 MUL DUP1 CALLDATASIZE DUP4 CALLDATACOPY DUP1 DUP3 ADD SWAP2 POP POP SWAP1 POP JUMPDEST POP SWAP1 POP PUSH0 DUP6 SWAP1 POP JUMPDEST DUP3 DUP2 LT ISZERO PUSH2 0x4ED JUMPI PUSH0 DUP2 DUP2 SLOAD DUP2 LT PUSH2 0x4AD JUMPI PUSH2 0x4AC PUSH2 0x79E JUMP JUMPDEST JUMPDEST SWAP1 PUSH0 MSTORE PUSH1 0x20 PUSH0 KECCAK256 ADD SLOAD DUP3 DUP8 DUP4 PUSH2 0x4C3 SWAP2 SWAP1 PUSH2 0x903 JUMP JUMPDEST DUP2 MLOAD DUP2 LT PUSH2 0x4D4 JUMPI PUSH2 0x4D3 PUSH2 0x79E JUMP JUMPDEST JUMPDEST PUSH1 0x20 MUL PUSH1 0x20 ADD ADD DUP2 DUP2 MSTORE POP POP DUP1 DUP1 PUSH1 0x1 ADD SWAP2 POP POP PUSH2 0x492 JUMP JUMPDEST POP DUP1 SWAP3 POP POP POP JUMPDEST SWAP3 SWAP2 POP POP JUMP JUMPDEST PUSH0 PUSH0 REVERT JUMPDEST PUSH0 DUP2 SWAP1 POP SWAP2 SWAP1 POP JUMP JUMPDEST PUSH2 0x510 DUP2 PUSH2 0x4FE JUMP JUMPDEST DUP2 EQ PUSH2 0x51A JUMPI PUSH0 PUSH0 REVERT JUMPDEST POP JUMP JUMPDEST PUSH0 DUP2 CALLDATALOAD SWAP1 POP PUSH2 0x52B DUP2 PUSH2 0x507 JUMP JUMPDEST SWAP3 SWAP2 POP POP JUMP JUMPDEST PUSH0 PUSH1 0x20 DUP3 DUP5 SUB SLT ISZERO PUSH2 0x546 JUMPI PUSH2 0x545 PUSH2 0x4FA JUMP JUMPDEST JUMPDEST PUSH0 PUSH2 0x553 DUP5 DUP3 DUP6 ADD PUSH2 0x51D JUMP JUMPDEST SWAP2 POP POP SWAP3 SWAP2 POP POP JUMP JUMPDEST PUSH0 DUP2 MLOAD SWAP1 POP SWAP2 SWAP1 POP JUMP JUMPDEST PUSH0 DUP3 DUP3 MSTORE PUSH1 0x20 DUP3 ADD SWAP1 POP SWAP3 SWAP2 POP POP JUMP JUMPDEST PUSH0 DUP2 SWAP1 POP PUSH1 0x20 DUP3 ADD SWAP1 POP SWAP2 SWAP1 POP JUMP JUMPDEST PUSH2 0x58E DUP2 PUSH2 0x4FE JUMP JUMPDEST DUP3 MSTORE POP POP JUMP JUMPDEST PUSH0 PUSH2 0x59F DUP4 DUP4 PUSH2 0x585 JUMP JUMPDEST PUSH1 0x20 DUP4 ADD SWAP1 POP SWAP3 SWAP2 POP POP JUMP JUMPDEST PUSH0 PUSH1 0x20 DUP3 ADD SWAP1 POP SWAP2 SWAP1 POP JUMP JUMPDEST PUSH0 PUSH2 0x5C1 DUP3 PUSH2 0x55C JUMP JUMPDEST PUSH2 0x5CB DUP2 DUP6 PUSH2 0x566 JUMP JUMPDEST SWAP4 POP PUSH2 0x5D6 DUP4 PUSH2 0x576 JUMP JUMPDEST DUP1 PUSH0 JUMPDEST DUP4 DUP2 LT ISZERO PUSH2 0x606 JUMPI DUP2 MLOAD PUSH2 0x5ED DUP9 DUP3 PUSH2 0x594 JUMP JUMPDEST SWAP8 POP PUSH2 0x5F8 DUP4 PUSH2 0x5AB JUMP JUMPDEST SWAP3 POP POP PUSH1 0x1 DUP2 ADD SWAP1 POP PUSH2 0x5D9 JUMP JUMPDEST POP DUP6 SWAP4 POP POP POP POP SWAP3 SWAP2 POP POP JUMP JUMPDEST PUSH0 PUSH1 0x20 DUP3 ADD SWAP1 POP DUP2 DUP2 SUB PUSH0 DUP4 ADD MSTORE PUSH2 0x62B DUP2 DUP5 PUSH2 0x5B7 JUMP JUMPDEST SWAP1 POP SWAP3 SWAP2 POP POP JUMP JUMPDEST PUSH2 0x63C DUP2 PUSH2 0x4FE JUMP JUMPDEST DUP3 MSTORE POP POP JUMP JUMPDEST PUSH0 PUSH1 0x20 DUP3 ADD SWAP1 POP PUSH2 0x655 PUSH0 DUP4 ADD DUP5 PUSH2 0x633 JUMP JUMPDEST SWAP3 SWAP2 POP POP JUMP JUMPDEST PUSH0 PUSH0 PUSH1 0x40 DUP4 DUP6 SUB SLT ISZERO PUSH2 0x671 JUMPI PUSH2 0x670 PUSH2 0x4FA JUMP JUMPDEST JUMPDEST PUSH0 PUSH2 0x67E DUP6 DUP3 DUP7 ADD PUSH2 0x51D JUMP JUMPDEST SWAP3 POP POP PUSH1 0x20 PUSH2 0x68F DUP6 DUP3 DUP7 ADD PUSH2 0x51D JUMP JUMPDEST SWAP2 POP POP SWAP3 POP SWAP3 SWAP1 POP JUMP JUMPDEST PUSH0 DUP3 DUP3 MSTORE PUSH1 0x20 DUP3 ADD SWAP1 POP SWAP3 SWAP2 POP POP JUMP JUMPDEST PUSH32 0x417272617920746F6F206C617267650000000000000000000000000000000000 PUSH0 DUP3 ADD MSTORE POP JUMP JUMPDEST PUSH0 PUSH2 0x6DD PUSH1 0xF DUP4 PUSH2 0x699 JUMP JUMPDEST SWAP2 POP PUSH2 0x6E8 DUP3 PUSH2 0x6A9 JUMP JUMPDEST PUSH1 0x20 DUP3 ADD SWAP1 POP SWAP2 SWAP1 POP JUMP JUMPDEST PUSH0 PUSH1 0x20 DUP3 ADD SWAP1 POP DUP2 DUP2 SUB PUSH0 DUP4 ADD MSTORE PUSH2 0x70A DUP2 PUSH2 0x6D1 JUMP JUMPDEST SWAP1 POP SWAP2 SWAP1 POP JUMP JUMPDEST PUSH32 0x4E487B7100000000000000000000000000000000000000000000000000000000 PUSH0 MSTORE PUSH1 0x41 PUSH1 0x4 MSTORE PUSH1 0x24 PUSH0 REVERT JUMPDEST PUSH32 0x4E487B7100000000000000000000000000000000000000000000000000000000 PUSH0 MSTORE PUSH1 0x11 PUSH1 0x4 MSTORE PUSH1 0x24 PUSH0 REVERT JUMPDEST PUSH0 PUSH2 0x775 DUP3 PUSH2 0x4FE JUMP JUMPDEST SWAP2 POP PUSH2 0x780 DUP4 PUSH2 0x4FE JUMP JUMPDEST SWAP3 POP DUP3 DUP3 ADD SWAP1 POP DUP1 DUP3 GT ISZERO PUSH2 0x798 JUMPI PUSH2 0x797 PUSH2 0x73E JUMP JUMPDEST JUMPDEST SWAP3 SWAP2 POP POP JUMP JUMPDEST PUSH32 0x4E487B7100000000000000000000000000000000000000000000000000000000 PUSH0 MSTORE PUSH1 0x32 PUSH1 0x4 MSTORE PUSH1 0x24 PUSH0 REVERT JUMPDEST PUSH32 0x426174636820746F6F206C617267650000000000000000000000000000000000 PUSH0 DUP3 ADD MSTORE POP JUMP JUMPDEST PUSH0 PUSH2 0x7FF PUSH1 0xF DUP4 PUSH2 0x699 JUMP JUMPDEST SWAP2 POP PUSH2 0x80A DUP3 PUSH2 0x7CB JUMP JUMPDEST PUSH1 0x20 DUP3 ADD SWAP1 POP SWAP2 SWAP1 POP JUMP JUMPDEST PUSH0 PUSH1 0x20 DUP3 ADD SWAP1 POP DUP2 DUP2 SUB PUSH0 DUP4 ADD MSTORE PUSH2 0x82C DUP2 PUSH2 0x7F3 JUMP JUMPDEST SWAP1 POP SWAP2 SWAP1 POP JUMP JUMPDEST PUSH32 0x5061676520746F6F206C61726765000000000000000000000000000000000000 PUSH0 DUP3 ADD MSTORE POP JUMP JUMPDEST PUSH0 PUSH2 0x867 PUSH1 0xE DUP4 PUSH2 0x699 JUMP JUMPDEST SWAP2 POP PUSH2 0x872 DUP3 PUSH2 0x833 JUMP JUMPDEST PUSH1 0x20 DUP3 ADD SWAP1 POP SWAP2 SWAP1 POP JUMP JUMPDEST PUSH0 PUSH1 0x20 DUP3 ADD SWAP1 POP DUP2 DUP2 SUB PUSH0 DUP4 ADD MSTORE PUSH2 0x894 DUP2 PUSH2 0x85B JUMP JUMPDEST SWAP1 POP SWAP2 SWAP1 POP JUMP JUMPDEST PUSH32 0x496E76616C696420737461727400000000000000000000000000000000000000 PUSH0 DUP3 ADD MSTORE POP JUMP JUMPDEST PUSH0 PUSH2 0x8CF PUSH1 0xD DUP4 PUSH2 0x699 JUMP JUMPDEST SWAP2 POP PUSH2 0x8DA DUP3 PUSH2 0x89B JUMP JUMPDEST PUSH1 0x20 DUP3 ADD SWAP1 POP SWAP2 SWAP1 POP JUMP JUMPDEST PUSH0 PUSH1 0x20 DUP3 ADD SWAP1 POP DUP2 DUP2 SUB PUSH0 DUP4 ADD MSTORE PUSH2 0x8FC DUP2 PUSH2 0x8C3 JUMP JUMPDEST SWAP1 POP SWAP2 SWAP1 POP JUMP JUMPDEST PUSH0 PUSH2 0x90D DUP3 PUSH2 0x4FE JUMP JUMPDEST SWAP2 POP PUSH2 0x918 DUP4 PUSH2 0x4FE JUMP JUMPDEST SWAP3 POP DUP3 DUP3 SUB SWAP1 POP DUP2 DUP2 GT ISZERO PUSH2 0x930 JUMPI PUSH2 0x92F PUSH2 0x73E JUMP JUMPDEST JUMPDEST SWAP3 SWAP2 POP POP JUMP INVALID LOG2 PUSH5 0x6970667358 0x22 SLT KECCAK256 CALLVALUE JUMPDEST 0xDF DUP8 0xEB PUSH22 0x20F4850646EE97DB59AF3196FCB3610B730DC824B3EC DUP11 XOR GASLIMIT COINBASE PUSH5 0x736F6C6343 STOP ADDMOD 0x22 STOP CALLER "
		},
		"gasEstimates": {
			"creation": {
				"codeDepositCost": "482400",
				"executionCost": "516",
				"totalCost": "482916"
			},
			"external": {
				"MAX_ARRAY_SIZE()": "369",
				"MAX_BATCH()": "325",
				"MAX_PAGE_SIZE()": "348",
				"addValues(uint256)": "infinite",
				"getValues(uint256,uint256)": "infinite",
				"returnLargeArray(uint256)": "infinite",
				"storedValues(uint256)": "infinite"
			}
		},
		"methodIdentifiers": {
			"MAX_ARRAY_SIZE()": "af7efa7c",
			"MAX_BATCH()": "950bff9f",
			"MAX_PAGE_SIZE()": "48f4da20",
			"addValues(uint256)": "820d0934",
			"getValues(uint256,uint256)": "e9865c73",
			"returnLargeArray(uint256)": "2d25bf7c",
			"storedValues(uint256)": "9e258efe"
		}
	},
	"abi": [
		{
			"inputs": [],
			"name": "MAX_ARRAY_SIZE",
			"outputs": [
				{
					"internalType": "uint256",
					"name": "",
					"type": "uint256"
				}
			],
			"stateMutability": "view",
			"type": "function"
		},
		{
			"inputs": [],
			"name": "MAX_BATCH",
			"outputs": [
				{
					"internalType": "uint256",
					"name": "",
					"type": "uint256"
				}
			],
			"stateMutability": "view",
			"type": "function"
		},
		{
			"inputs": [],
			"name": "MAX_PAGE_SIZE",
			"outputs": [
				{
					"internalType": "uint256",
					"name": "",
					"type": "uint256"
				}
			],
			"stateMutability": "view",
			"type": "function"
		},
		{
			"inputs": [
				{
					"internalType": "uint256",
					"name": "_count",
					"type": "uint256"
				}
			],
			"name": "addValues",
			"outputs": [],
			"stateMutability": "nonpayable",
			"type": "function"
		},
		{
			"inputs": [
				{
					"internalType": "uint256",
					"name": "start",
					"type": "uint256"
				},
				{
					"internalType": "uint256",
					"name": "limit",
					"type": "uint256"
				}
			],
			"name": "getValues",
			"outputs": [
				{
					"internalType": "uint256[]",
					"name": "",
					"type": "uint256[]"
				}
			],
			"stateMutability": "view",
			"type": "function"
		},
		{
			"inputs": [
				{
					"internalType": "uint256",
					"name": "_size",
					"type": "uint256"
				}
			],
			"name": "returnLargeArray",
			"outputs": [
				{
					"internalType": "uint256[]",
					"name": "",
					"type": "uint256[]"
				}
			],
			"stateMutability": "pure",
			"type": "function"
		},
		{
			"inputs": [
				{
					"internalType": "uint256",
					"name": "",
					"type": "uint256"
				}
			],
			"name": "storedValues",
			"outputs": [
				{
					"internalType": "uint256",
					"name": "",
					"type": "uint256"
				}
			],
			"stateMutability": "view",
			"type": "function"
		}
	]
}