{
	"data": {
		"bytecode": {
			"linkReferences": {},
			"object": "6080604052348015600e575f5ffd5b503360035f6101000a81548173ffffffffffffffffffffffffffffffffffffffff021916908373ffffffffffffffffffffffffffffffffffffffff1602179055506109aa8061005c5f395ff3fe608060405234801561000f575f5ffd5b506004361061004a575f3560e01c80633ed97dcb1461004e578063861323991461006e5780638da5cb5b1461008a578063e80c3f13146100a8575b5f5ffd5b6100566100c8565b6040516100659392919061039e565b60405180910390f35b6100886004803603810190610083919061056b565b61013d565b005b61009261022f565b60405161009f9190610616565b60405180910390f35b6100b0610254565b6040516100bf9392919061039e565b60405180910390f35b60605f5f5f60405180606001604052806040518060400160405280600581526020017f416c696365000000000000000000000000000000000000000000000000000000815250815260200160198152602001600115158152509050805f01518160200151826040015193509350935050909192565b60035f9054906101000a900473ffffffffffffffffffffffffffffffffffffffff1673ffffffffffffffffffffffffffffffffffffffff163373ffffffffffffffffffffffffffffffffffffffff16146101cc576040517f08c379a00000000000000000000000000000000000000000000000000000000081526004016101c390610679565b60405180910390fd5b60405180606001604052808481526020018381526020018215158152505f5f820151815f0190816101fd91906108a5565b50602082015181600101556040820151816002015f6101000a81548160ff021916908315150217905550905050505050565b60035f9054906101000a900473ffffffffffffffffffffffffffffffffffffffff1681565b5f805f018054610263906106c4565b80601f016020809104026020016040519081016040528092919081815260200182805461028f906106c4565b80156102da5780601f106102b1576101008083540402835291602001916102da565b820191905f5260205f20905b8154815290600101906020018083116102bd57829003601f168201915b505050505090806001015490806002015f9054906101000a900460ff16905083565b5f81519050919050565b5f82825260208201905092915050565b8281835e5f83830152505050565b5f601f19601f8301169050919050565b5f61033e826102fc565b6103488185610306565b9350610358818560208601610316565b61036181610324565b840191505092915050565b5f819050919050565b61037e8161036c565b82525050565b5f8115159050919050565b61039881610384565b82525050565b5f6060820190508181035f8301526103b68186610334565b90506103c56020830185610375565b6103d2604083018461038f565b949350505050565b5f604051905090565b5f5ffd5b5f5ffd5b5f5ffd5b5f5ffd5b7f4e487b71000000000000000000000000000000000000000000000000000000005f52604160045260245ffd5b61042982610324565b810181811067ffffffffffffffff82111715610448576104476103f3565b5b80604052505050565b5f61045a6103da565b90506104668282610420565b919050565b5f67ffffffffffffffff821115610485576104846103f3565b5b61048e82610324565b9050602081019050919050565b828183375f83830152505050565b5f6104bb6104b68461046b565b610451565b9050828152602081018484840111156104d7576104d66103ef565b5b6104e284828561049b565b509392505050565b5f82601f8301126104fe576104fd6103eb565b5b813561050e8482602086016104a9565b91505092915050565b6105208161036c565b811461052a575f5ffd5b50565b5f8135905061053b81610517565b92915050565b61054a81610384565b8114610554575f5ffd5b50565b5f8135905061056581610541565b92915050565b5f5f5f60608486031215610582576105816103e3565b5b5f84013567ffffffffffffffff81111561059f5761059e6103e7565b5b6105ab868287016104ea565b93505060206105bc8682870161052d565b92505060406105cd86828701610557565b9150509250925092565b5f73ffffffffffffffffffffffffffffffffffffffff82169050919050565b5f610600826105d7565b9050919050565b610610816105f6565b82525050565b5f6020820190506106295f830184610607565b92915050565b7f4e6f74206f776e657200000000000000000000000000000000000000000000005f82015250565b5f610663600983610306565b915061066e8261062f565b602082019050919050565b5f6020820190508181035f83015261069081610657565b9050919050565b7f4e487b71000000000000000000000000000000000000000000000000000000005f52602260045260245ffd5b5f60028204905060018216806106db57607f821691505b6020821081036106ee576106ed610697565b5b50919050565b5f819050815f5260205f209050919050565b5f6020601f8301049050919050565b5f82821b905092915050565b5f600883026107507fffffffffffffffffffffffffffffffffffffffffffffffffffffffffffffffff82610715565b61075a8683610715565b95508019841693508086168417925050509392505050565b5f819050919050565b5f61079561079061078b8461036c565b610772565b61036c565b9050919050565b5f819050919050565b6107ae8361077b565b6107c26107ba8261079c565b848454610721565b825550505050565b5f5f905090565b6107d96107ca565b6107e48184846107a5565b505050565b5f5b8281101561080a576107ff5f8284016107d1565b6001810190506107eb565b505050565b601f82111561085d578282111561085c57610829816106f4565b61083283610706565b61083b85610706565b6020861015610848575f90505b808301610857828403826107e9565b505050505b5b505050565b5f82821c905092915050565b5f61087d5f1984600802610862565b1980831691505092915050565b5f610895838361086e565b9150826002028217905092915050565b6108ae826102fc565b67ffffffffffffffff8111156108c7576108c66103f3565b5b6108d182546106c4565b6108dc82828561080f565b5f60209050601f83116001811461090d575f84156108fb578287015190505b610905858261088a565b86555061096c565b601f19841661091b866106f4565b5f5b828110156109425784890151825560018201915060208501945060208101905061091d565b8683101561095f578489015161095b601f89168261086e565b8355505b6001600288020188555050505b50505050505056fea26469706673582212206a454212344ec640834180aab1823606b9da5e47cebc106cb40f1fa281b52fd464736f6c63430008220033",
			"opcodes": "PUSH1 0x80 PUSH1 0x40 MSTORE CALLVALUE DUP1 ISZERO PUSH1 0xE JUMPI PUSH0 PUSH0 REVERT JUMPDEST POP CALLER PUSH1 0x3 PUSH0 PUSH2 0x100 EXP DUP2 SLOAD DUP2 PUSH20 0xFFFFFFFFFFFFFFFFFFFFFFFFFFFFFFFFFFFFFFFF MUL NOT AND SWAP1 DUP4 PUSH20 0xFFFFFFFFFFFFFFFFFFFFFFFFFFFFFFFFFFFFFFFF AND MUL OR SWAP1 SSTORE POP PUSH2 0x9AA DUP1 PUSH2 0x5C PUSH0 CODECOPY PUSH0 RETURN INVALID PUSH1 0x80 PUSH1 0x40 MSTORE CALLVALUE DUP1 ISZERO PUSH2 0xF JUMPI PUSH0 PUSH0 REVERT JUMPDEST POP PUSH1 0x4 CALLDATASIZE LT PUSH2 0x4A JUMPI PUSH0 CALLDATALOAD PUSH1 0xE0 SHR DUP1 PUSH4 0x3ED97DCB EQ PUSH2 0x4E JUMPI DUP1 PUSH4 0x86132399 EQ PUSH2 0x6E JUMPI DUP1 PUSH4 0x8DA5CB5B EQ PUSH2 0x8A JUMPI DUP1 PUSH4 0xE80C3F13 EQ PUSH2 0xA8 JUMPI JUMPDEST PUSH0 PUSH0 REVERT JUMPDEST PUSH2 0x56 PUSH2 0xC8 JUMP JUMPDEST PUSH1 0x40 MLOAD PUSH2 0x65 SWAP4 SWAP3 SWAP2 SWAP1 PUSH2 0x39E JUMP JUMPDEST PUSH1 0x40 MLOAD DUP1 SWAP2 SUB SWAP1 RETURN JUMPDEST PUSH2 0x88 PUSH1 0x4 DUP1 CALLDATASIZE SUB DUP2 ADD SWAP1 PUSH2 0x83 SWAP2 SWAP1 PUSH2 0x56B JUMP JUMPDEST PUSH2 0x13D JUMP JUMPDEST STOP JUMPDEST PUSH2 0x92 PUSH2 0x22F JUMP JUMPDEST PUSH1 0x40 MLOAD PUSH2 0x9F SWAP2 SWAP1 PUSH2 0x616 JUMP JUMPDEST PUSH1 0x40 MLOAD DUP1 SWAP2 SUB SWAP1 RETURN JUMPDEST PUSH2 0xB0 PUSH2 0x254 JUMP JUMPDEST PUSH1 0x40 MLOAD PUSH2 0xBF SWAP4 SWAP3 SWAP2 SWAP1 PUSH2 0x39E JUMP JUMPDEST PUSH1 0x40 MLOAD DUP1 SWAP2 SUB SWAP1 RETURN JUMPDEST PUSH1 0x60 PUSH0 PUSH0 PUSH0 PUSH1 0x40 MLOAD DUP1 PUSH1 0x60 ADD PUSH1 0x40 MSTORE DUP1 PUSH1 0x40 MLOAD DUP1 PUSH1 0x40 ADD PUSH1 0x40 MSTORE DUP1 PUSH1 0x5 DUP2 MSTORE PUSH1 0x20 ADD PUSH32 0x416C696365000000000000000000000000000000000000000000000000000000 DUP2 MSTORE POP DUP2 MSTORE PUSH1 0x20 ADD PUSH1 0x19 DUP2 MSTORE PUSH1 0x20 ADD PUSH1 0x1 ISZERO ISZERO DUP2 MSTORE POP SWAP1 POP DUP1 PUSH0 ADD MLOAD DUP2 PUSH1 0x20 ADD MLOAD DUP3 PUSH1 0x40 ADD MLOAD SWAP4 POP SWAP4 POP SWAP4 POP POP SWAP1 SWAP2 SWAP3 JUMP JUMPDEST PUSH1 0x3 PUSH0 SWAP1 SLOAD SWAP1 PUSH2 0x100 EXP SWAP1 DIV PUSH20 0xFFFFFFFFFFFFFFFFFFFFFFFFFFFFFFFFFFFFFFFF AND PUSH20 0xFFFFFFFFFFFFFFFFFFFFFFFFFFFFFFFFFFFFFFFF AND CALLER PUSH20 0xFFFFFFFFFFFFFFFFFFFFFFFFFFFFFFFFFFFFFFFF AND EQ PUSH2 0x1CC JUMPI PUSH1 0x40 MLOAD PUSH32 0x8C379A000000000000000000000000000000000000000000000000000000000 DUP2 MSTORE PUSH1 0x4 ADD PUSH2 0x1C3 SWAP1 PUSH2 0x679 JUMP JUMPDEST PUSH1 0x40 MLOAD DUP1 SWAP2 SUB SWAP1 REVERT JUMPDEST PUSH1 0x40 MLOAD DUP1 PUSH1 0x60 ADD PUSH1 0x40 MSTORE DUP1 DUP5 DUP2 MSTORE PUSH1 0x20 ADD DUP4 DUP2 MSTORE PUSH1 0x20 ADD DUP3 ISZERO ISZERO DUP2 MSTORE POP PUSH0 PUSH0 DUP3 ADD MLOAD DUP2 PUSH0 ADD SWAP1 DUP2 PUSH2 0x1FD SWAP2 SWAP1 PUSH2 0x8A5 JUMP JUMPDEST POP PUSH1 0x20 DUP3 ADD MLOAD DUP2 PUSH1 0x1 ADD SSTORE PUSH1 0x40 DUP3 ADD MLOAD DUP2 PUSH1 0x2 ADD PUSH0 PUSH2 0x100 EXP DUP2 SLOAD DUP2 PUSH1 0xFF MUL NOT AND SWAP1 DUP4 ISZERO ISZERO MUL OR SWAP1 SSTORE POP SWAP1 POP POP POP POP POP JUMP JUMPDEST PUSH1 0x3 PUSH0 SWAP1 SLOAD SWAP1 PUSH2 0x100 EXP SWAP1 DIV PUSH20 0xFFFFFFFFFFFFFFFFFFFFFFFFFFFFFFFFFFFFFFFF AND DUP2 JUMP JUMPDEST PUSH0 DUP1 PUSH0 ADD DUP1 SLOAD PUSH2 0x263 SWAP1 PUSH2 0x6C4 JUMP JUMPDEST DUP1 PUSH1 0x1F ADD PUSH1 0x20 DUP1 SWAP2 DIV MUL PUSH1 0x20 ADD PUSH1 0x40 MLOAD SWAP1 DUP2 ADD PUSH1 0x40 MSTORE DUP1 SWAP3 SWAP2 SWAP1 DUP2 DUP2 MSTORE PUSH1 0x20 ADD DUP3 DUP1 SLOAD PUSH2 0x28F SWAP1 PUSH2 0x6C4 JUMP JUMPDEST DUP1 ISZERO PUSH2 0x2DA JUMPI DUP1 PUSH1 0x1F LT PUSH2 0x2B1 JUMPI PUSH2 0x100 DUP1 DUP4 SLOAD DIV MUL DUP4 MSTORE SWAP2 PUSH1 0x20 ADD SWAP2 PUSH2 0x2DA JUMP JUMPDEST DUP3 ADD SWAP2 SWAP1 PUSH0 MSTORE PUSH1 0x20 PUSH0 KECCAK256 SWAP1 JUMPDEST DUP2 SLOAD DUP2 MSTORE SWAP1 PUSH1 0x1 ADD SWAP1 PUSH1 0x20 ADD DUP1 DUP4 GT PUSH2 0x2BD JUMPI DUP3 SWAP1 SUB PUSH1 0x1F AND DUP3 ADD SWAP2 JUMPDEST POP POP POP POP POP SWAP1 DUP1 PUSH1 0x1 ADD SLOAD SWAP1 DUP1 PUSH1 0x2 ADD PUSH0 SWAP1 SLOAD SWAP1 PUSH2 0x100 EXP SWAP1 DIV PUSH1 0xFF AND SWAP1 POP DUP4 JUMP JUMPDEST PUSH0 DUP2 MLOAD SWAP1 POP SWAP2 SWAP1 POP JUMP JUMPDEST PUSH0 DUP3 DUP3 MSTORE PUSH1 0x20 DUP3 ADD SWAP1 POP SWAP3 SWAP2 POP POP JUMP JUMPDEST DUP3 DUP2 DUP4 MCOPY PUSH0 DUP4 DUP4 ADD MSTORE POP POP POP JUMP JUMPDEST PUSH0 PUSH1 0x1F NOT PUSH1 0x1F DUP4 ADD AND SWAP1 POP SWAP2 SWAP1 POP JUMP JUMPDEST PUSH0 PUSH2 0x33E DUP3 PUSH2 0x2FC JUMP JUMPDEST PUSH2 0x348 DUP2 DUP6 PUSH2 0x306 JUMP JUMPDEST SWAP4 POP PUSH2 0x358 DUP2 DUP6 PUSH1 0x20 DUP7 ADD PUSH2 0x316 JUMP JUMPDEST PUSH2 0x361 DUP2 PUSH2 0x324 JUMP JUMPDEST DUP5 ADD SWAP2 POP POP SWAP3 SWAP2 POP POP JUMP JUMPDEST PUSH0 DUP2 SWAP1 POP SWAP2 SWAP1 POP JUMP JUMPDEST PUSH2 0x37E DUP2 PUSH2 0x36C JUMP JUMPDEST DUP3 MSTORE POP POP JUMP JUMPDEST PUSH0 DUP2 ISZERO ISZERO SWAP1 POP SWAP2 SWAP1 POP JUMP JUMPDEST PUSH2 0x398 DUP2 PUSH2 0x384 JUMP JUMPDEST DUP3 MSTORE POP POP JUMP JUMPDEST PUSH0 PUSH1 0x60 DUP3 ADD SWAP1 POP DUP2 DUP2 SUB PUSH0 DUP4 ADD MSTORE PUSH2 0x3B6 DUP2 DUP7 PUSH2 0x334 JUMP JUMPDEST SWAP1 POP PUSH2 0x3C5 PUSH1 0x20 DUP4 ADD DUP6 PUSH2 0x375 JUMP JUMPDEST PUSH2 0x3D2 PUSH1 0x40 DUP4 ADD DUP5 PUSH2 0x38F JUMP JUMPDEST SWAP5 SWAP4 POP POP POP POP JUMP JUMPDEST PUSH0 PUSH1 0x40 MLOAD SWAP1 POP SWAP1 JUMP JUMPDEST PUSH0 PUSH0 REVERT JUMPDEST PUSH0 PUSH0 REVERT JUMPDEST PUSH0 PUSH0 REVERT JUMPDEST PUSH0 PUSH0 REVERT JUMPDEST PUSH32 0x4E487B7100000000000000000000000000000000000000000000000000000000 PUSH0 MSTORE PUSH1 0x41 PUSH1 0x4 MSTORE PUSH1 0x24 PUSH0 REVERT JUMPDEST PUSH2 0x429 DUP3 PUSH2 0x324 JUMP JUMPDEST DUP2 ADD DUP2 DUP2 LT PUSH8 0xFFFFFFFFFFFFFFFF DUP3 GT OR ISZERO PUSH2 0x448 JUMPI PUSH2 0x447 PUSH2 0x3F3 JUMP JUMPDEST JUMPDEST DUP1 PUSH1 0x40 MSTORE POP POP POP JUMP JUMPDEST PUSH0 PUSH2 0x45A PUSH2 0x3DA JUMP JUMPDEST SWAP1 POP PUSH2 0x466 DUP3 DUP3 PUSH2 0x420 JUMP JUMPDEST SWAP2 SWAP1 POP JUMP JUMPDEST PUSH0 PUSH8 0xFFFFFFFFFFFFFFFF DUP3 GT ISZERO PUSH2 0x485 JUMPI PUSH2 0x484 PUSH2 0x3F3 JUMP JUMPDEST JUMPDEST PUSH2 0x48E DUP3 PUSH2 0x324 JUMP JUMPDEST SWAP1 POP PUSH1 0x20 DUP2 ADD SWAP1 POP SWAP2 SWAP1 POP JUMP JUMPDEST DUP3 DUP2 DUP4 CALLDATACOPY PUSH0 DUP4 DUP4 ADD MSTORE POP POP POP JUMP JUMPDEST PUSH0 PUSH2 0x4BB PUSH2 0x4B6 DUP5 PUSH2 0x46B JUMP JUMPDEST PUSH2 0x451 JUMP JUMPDEST SWAP1 POP DUP3 DUP2 MSTORE PUSH1 0x20 DUP2 ADD DUP5 DUP5 DUP5 ADD GT ISZERO PUSH2 0x4D7 JUMPI PUSH2 0x4D6 PUSH2 0x3EF JUMP JUMPDEST JUMPDEST PUSH2 0x4E2 DUP5 DUP3 DUP6 PUSH2 0x49B JUMP JUMPDEST POP SWAP4 SWAP3 POP POP POP JUMP JUMPDEST PUSH0 DUP3 PUSH1 0x1F DUP4 ADD SLT PUSH2 0x4FE JUMPI PUSH2 0x4FD PUSH2 0x3EB JUMP JUMPDEST JUMPDEST DUP2 CALLDATALOAD PUSH2 0x50E DUP5 DUP3 PUSH1 0x20 DUP7 ADD PUSH2 0x4A9 JUMP JUMPDEST SWAP2 POP POP SWAP3 SWAP2 POP POP JUMP JUMPDEST PUSH2 0x520 DUP2 PUSH2 0x36C JUMP JUMPDEST DUP2 EQ PUSH2 0x52A JUMPI PUSH0 PUSH0 REVERT JUMPDEST POP JUMP JUMPDEST PUSH0 DUP2 CALLDATALOAD SWAP1 POP PUSH2 0x53B DUP2 PUSH2 0x517 JUMP JUMPDEST SWAP3 SWAP2 POP POP JUMP JUMPDEST PUSH2 0x54A DUP2 PUSH2 0x384 JUMP JUMPDEST DUP2 EQ PUSH2 0x554 JUMPI PUSH0 PUSH0 REVERT JUMPDEST POP JUMP JUMPDEST PUSH0 DUP2 CALLDATALOAD SWAP1 POP PUSH2 0x565 DUP2 PUSH2 0x541 JUMP JUMPDEST SWAP3 SWAP2 POP POP JUMP JUMPDEST PUSH0 PUSH0 PUSH0 PUSH1 0x60 DUP5 DUP7 SUB SLT ISZERO PUSH2 0x582 JUMPI PUSH2 0x581 PUSH2 0x3E3 JUMP JUMPDEST JUMPDEST PUSH0 DUP5 ADD CALLDATALOAD PUSH8 0xFFFFFFFFFFFFFFFF DUP2 GT ISZERO PUSH2 0x59F JUMPI PUSH2 0x59E PUSH2 0x3E7 JUMP JUMPDEST JUMPDEST PUSH2 0x5AB DUP7 DUP3 DUP8 ADD PUSH2 0x4EA JUMP JUMPDEST SWAP4 POP POP PUSH1 0x20 PUSH2 0x5BC DUP7 DUP3 DUP8 ADD PUSH2 0x52D JUMP JUMPDEST SWAP3 POP POP PUSH1 0x40 PUSH2 0x5CD DUP7 DUP3 DUP8 ADD PUSH2 0x557 JUMP JUMPDEST SWAP2 POP POP SWAP3 POP SWAP3 POP SWAP3 JUMP JUMPDEST PUSH0 PUSH20 0xFFFFFFFFFFFFFFFFFFFFFFFFFFFFFFFFFFFFFFFF DUP3 AND SWAP1 POP SWAP2 SWAP1 POP JUMP JUMPDEST PUSH0 PUSH2 0x600 DUP3 PUSH2 0x5D7 JUMP JUMPDEST SWAP1 POP SWAP2 SWAP1 POP JUMP JUMPDEST PUSH2 0x610 DUP2 PUSH2 0x5F6 JUMP JUMPDEST DUP3 MSTORE POP POP JUMP JUMPDEST PUSH0 PUSH1 0x20 DUP3 ADD SWAP1 POP PUSH2 0x629 PUSH0 DUP4 ADD DUP5 PUSH2 0x607 JUMP JUMPDEST SWAP3 SWAP2 POP POP JUMP JUMPDEST PUSH32 0x4E6F74206F776E65720000000000000000000000000000000000000000000000 PUSH0 DUP3 ADD MSTORE POP JUMP JUMPDEST PUSH0 PUSH2 0x663 PUSH1 0x9 DUP4 PUSH2 0x306 JUMP JUMPDEST SWAP2 POP PUSH2 0x66E DUP3 PUSH2 0x62F JUMP JUMPDEST PUSH1 0x20 DUP3 ADD SWAP1 POP SWAP2 SWAP1 POP JUMP JUMPDEST PUSH0 PUSH1 0x20 DUP3 ADD SWAP1 POP DUP2 DUP2 SUB PUSH0 DUP4 ADD MSTORE PUSH2 0x690 DUP2 PUSH2 0x657 JUMP JUMPDEST SWAP1 POP SWAP2 SWAP1 POP JUMP JUMPDEST PUSH32 0x4E487B7100000000000000000000000000000000000000000000000000000000 PUSH0 MSTORE PUSH1 0x22 PUSH1 0x4 MSTORE PUSH1 0x24 PUSH0 REVERT JUMPDEST PUSH0 PUSH1 0x2 DUP3 DIV SWAP1 POP PUSH1 0x1 DUP3 AND DUP1 PUSH2 0x6DB JUMPI PUSH1 0x7F DUP3 AND SWAP2 POP JUMPDEST PUSH1 0x20 DUP3 LT DUP2 SUB PUSH2 0x6EE JUMPI PUSH2 0x6ED PUSH2 0x697 JUMP JUMPDEST JUMPDEST POP SWAP2 SWAP1 POP JUMP JUMPDEST PUSH0 DUP2 SWAP1 POP DUP2 PUSH0 MSTORE PUSH1 0x20 PUSH0 KECCAK256 SWAP1 POP SWAP2 SWAP1 POP JUMP JUMPDEST PUSH0 PUSH1 0x20 PUSH1 0x1F DUP4 ADD DIV SWAP1 POP SWAP2 SWAP1 POP JUMP JUMPDEST PUSH0 DUP3 DUP3 SHL SWAP1 POP SWAP3 SWAP2 POP POP JUMP JUMPDEST PUSH0 PUSH1 0x8 DUP4 MUL PUSH2 0x750 PUSH32 0xFFFFFFFFFFFFFFFFFFFFFFFFFFFFFFFFFFFFFFFFFFFFFFFFFFFFFFFFFFFFFFFF DUP3 PUSH2 0x715 JUMP JUMPDEST PUSH2 0x75A DUP7 DUP4 PUSH2 0x715 JUMP JUMPDEST SWAP6 POP DUP1 NOT DUP5 AND SWAP4 POP DUP1 DUP7 AND DUP5 OR SWAP3 POP POP POP SWAP4 SWAP3 POP POP POP JUMP JUMPDEST PUSH0 DUP2 SWAP1 POP SWAP2 SWAP1 POP JUMP JUMPDEST PUSH0 PUSH2 0x795 PUSH2 0x790 PUSH2 0x78B DUP5 PUSH2 0x36C JUMP JUMPDEST PUSH2 0x772 JUMP JUMPDEST PUSH2 0x36C JUMP JUMPDEST SWAP1 POP SWAP2 SWAP1 POP JUMP JUMPDEST PUSH0 DUP2 SWAP1 POP SWAP2 SWAP1 POP JUMP JUMPDEST PUSH2 0x7AE DUP4 PUSH2 0x77B JUMP JUMPDEST PUSH2 0x7C2 PUSH2 0x7BA DUP3 PUSH2 0x79C JUMP JUMPDEST DUP5 DUP5 SLOAD PUSH2 0x721 JUMP JUMPDEST DUP3 SSTORE POP POP POP POP JUMP JUMPDEST PUSH0 PUSH0 SWAP1 POP SWAP1 JUMP JUMPDEST PUSH2 0x7D9 PUSH2 0x7CA JUMP JUMPDEST PUSH2 0x7E4 DUP2 DUP5 DUP5 PUSH2 0x7A5 JUMP JUMPDEST POP POP POP JUMP JUMPDEST PUSH0 JUMPDEST DUP3 DUP2 LT ISZERO PUSH2 0x80A JUMPI PUSH2 0x7FF PUSH0 DUP3 DUP5 ADD PUSH2 0x7D1 JUMP JUMPDEST PUSH1 0x1 DUP2 ADD SWAP1 POP PUSH2 0x7EB JUMP JUMPDEST POP POP POP JUMP JUMPDEST PUSH1 0x1F DUP3 GT ISZERO PUSH2 0x85D JUMPI DUP3 DUP3 GT ISZERO PUSH2 0x85C JUMPI PUSH2 0x829 DUP2 PUSH2 0x6F4 JUMP JUMPDEST PUSH2 0x832 DUP4 PUSH2 0x706 JUMP JUMPDEST PUSH2 0x83B DUP6 PUSH2 0x706 JUMP JUMPDEST PUSH1 0x20 DUP7 LT ISZERO PUSH2 0x848 JUMPI PUSH0 SWAP1 POP JUMPDEST DUP1 DUP4 ADD PUSH2 0x857 DUP3 DUP5 SUB DUP3 PUSH2 0x7E9 JUMP JUMPDEST POP POP POP POP JUMPDEST JUMPDEST POP POP POP JUMP JUMPDEST PUSH0 DUP3 DUP3 SHR SWAP1 POP SWAP3 SWAP2 POP POP JUMP JUMPDEST PUSH0 PUSH2 0x87D PUSH0 NOT DUP5 PUSH1 0x8 MUL PUSH2 0x862 JUMP JUMPDEST NOT DUP1 DUP4 AND SWAP2 POP POP SWAP3 SWAP2 POP POP JUMP JUMPDEST PUSH0 PUSH2 0x895 DUP4 DUP4 PUSH2 0x86E JUMP JUMPDEST SWAP2 POP DUP3 PUSH1 0x2 MUL DUP3 OR SWAP1 POP SWAP3 SWAP2 POP POP JUMP JUMPDEST PUSH2 0x8AE DUP3 PUSH2 0x2FC JUMP JUMPDEST PUSH8 0xFFFFFFFFFFFFFFFF DUP2 GT ISZERO PUSH2 0x8C7 JUMPI PUSH2 0x8C6 PUSH2 0x3F3 JUMP JUMPDEST JUMPDEST PUSH2 0x8D1 DUP3 SLOAD PUSH2 0x6C4 JUMP JUMPDEST PUSH2 0x8DC DUP3 DUP3 DUP6 PUSH2 0x80F JUMP JUMPDEST PUSH0 PUSH1 0x20 SWAP1 POP PUSH1 0x1F DUP4 GT PUSH1 0x1 DUP2 EQ PUSH2 0x90D JUMPI PUSH0 DUP5 ISZERO PUSH2 0x8FB JUMPI DUP3 DUP8 ADD MLOAD SWAP1 POP JUMPDEST PUSH2 0x905 DUP6 DUP3 PUSH2 0x88A JUMP JUMPDEST DUP7 SSTORE POP PUSH2 0x96C JUMP JUMPDEST PUSH1 0x1F NOT DUP5 AND PUSH2 0x91B DUP7 PUSH2 0x6F4 JUMP JUMPDEST PUSH0 JUMPDEST DUP3 DUP2 LT ISZERO PUSH2 0x942 JUMPI DUP5 DUP10 ADD MLOAD DUP3 SSTORE PUSH1 0x1 DUP3 ADD SWAP2 POP PUSH1 0x20 DUP6 ADD SWAP5 POP PUSH1 0x20 DUP2 ADD SWAP1 POP PUSH2 0x91D JUMP JUMPDEST DUP7 DUP4 LT ISZERO PUSH2 0x95F JUMPI DUP5 DUP10 ADD MLOAD PUSH2 0x95B PUSH1 0x1F DUP10 AND DUP3 PUSH2 0x86E JUMP JUMPDEST DUP4 SSTORE POP JUMPDEST PUSH1 0x1 PUSH1 0x2 DUP9 MUL ADD DUP9 SSTORE POP POP POP JUMPDEST POP POP POP POP POP POP JUMP INVALID LOG2 PUSH5 0x6970667358 0x22 SLT KECCAK256 PUSH11 0x454212344EC640834180AA 0xB1 DUP3 CALLDATASIZE MOD 0xB9 0xDA MCOPY SELFBALANCE 0xCE 0xBC LT PUSH13 0xB40F1FA281B52FD464736F6C63 NUMBER STOP ADDMOD 0x22 STOP CALLER "
		},
		"gasEstimates": {
			"creation": {
				"codeDepositCost": "494800",
				"executionCost": "24793",
				"totalCost": "519593"
			},
			"external": {
				"createMemoryStruct()": "infinite",
				"owner()": "2530",
				"storeUser(string,uint256,bool)": "infinite",
				"storedUser()": "infinite"
			}
		},
		"methodIdentifiers": {
			"createMemoryStruct()": "3ed97dcb",
			"owner()": "8da5cb5b",
			"storeUser(string,uint256,bool)": "86132399",
			"storedUser()": "e80c3f13"
		}
	},
	"abi": [
		{
			"inputs": [],
			"stateMutability": "nonpayable",
			"type": "constructor"
		},
		{
			"inputs": [],
			"name": "createMemoryStruct",
			"outputs": [
				{
					"internalType": "string",
					"name": "",
					"type": "string"
				},
				{
					"internalType": "uint256",
					"name": "",
					"type": "uint256"
				},
				{
					"internalType": "bool",
					"name": "",
					"type": "bool"
				}
			],
			"stateMutability": "pure",
			"type": "function"
		},
		{
			"inputs": [],
			"name": "owner",
			"outputs": [
				{
					"internalType": "address",
					"name": "",
					"type": "address"
				}
			],
			"stateMutability": "view",
			"type": "function"
		},
		{
			"inputs": [
				{
					"internalType": "string",
					"name": "_name",
					"type": "string"
				},
				{
					"internalType": "uint256",
					"name": "_age",
					"type": "uint256"
				},
				{
					"internalType": "bool",
					"name": "_active",
					"type": "bool"
				}
			],
			"name": "storeUser",
			"outputs": [],
			"stateMutability": "nonpayable",
			"type": "function"
		},
		{
			"inputs": [],
			"name": "storedUser",
			"outputs": [
				{
					"internalType": "string",
					"name": "name",
					"type": "string"
				},
				{
					"internalType": "uint256",
					"name": "age",
					"type": "uint256"
				},
				{
					"internalType": "bool",
					"name": "active",
					"type": "bool"
				}
			],
			"stateMutability": "view",
			"type": "function"
		}
	]
}