{
	"data": {
		"bytecode": {
			"linkReferences": {},
			"object": "6080604052348015600e575f5ffd5b5061054c8061001c5f395ff3fe608060405234801561000f575f5ffd5b506004361061004a575f3560e01c80633b1f0cd01461004e5780636d2367031461007e5780637221a26a146100ae578063f0569df3146100ca575b5f5ffd5b610068600480360381019061006391906102f1565b6100fa565b604051610075919061032b565b60405180910390f35b610098600480360381019061009391906102f1565b610119565b6040516100a591906103fb565b60405180910390f35b6100c860048036038101906100c391906102f1565b6101b7565b005b6100e460048036038101906100df91906102f1565b6101df565b6040516100f191906103fb565b60405180910390f35b5f8181548110610108575f80fd5b905f5260205f20015f915090505481565b60605f8267ffffffffffffffff8111156101365761013561041b565b5b6040519080825280602002602001820160405280156101645781602001602082028036833780820191505090505b5090505f5f90505b838110156101ad576001816101819190610475565b828281518110610194576101936104a8565b5b602002602001018181525050808060010191505061016c565b5080915050919050565b5f81908060018154018082558091505060019003905f5260205f20015f909190919091505550565b60605f600367ffffffffffffffff8111156101fd576101fc61041b565b5b60405190808252806020026020018201604052801561022b5781602001602082028036833780820191505090505b50905082815f81518110610242576102416104a8565b5b602002602001018181525050828361025a91906104d5565b8160018151811061026e5761026d6104a8565b5b60200260200101818152505082838461028791906104d5565b61029191906104d5565b816002815181106102a5576102a46104a8565b5b60200260200101818152505080915050919050565b5f5ffd5b5f819050919050565b6102d0816102be565b81146102da575f5ffd5b50565b5f813590506102eb816102c7565b92915050565b5f60208284031215610306576103056102ba565b5b5f610313848285016102dd565b91505092915050565b610325816102be565b82525050565b5f60208201905061033e5f83018461031c565b92915050565b5f81519050919050565b5f82825260208201905092915050565b5f819050602082019050919050565b610376816102be565b82525050565b5f610387838361036d565b60208301905092915050565b5f602082019050919050565b5f6103a982610344565b6103b3818561034e565b93506103be8361035e565b805f5b838110156103ee5781516103d5888261037c565b97506103e083610393565b9250506001810190506103c1565b5085935050505092915050565b5f6020820190508181035f830152610413818461039f565b905092915050565b7f4e487b71000000000000000000000000000000000000000000000000000000005f52604160045260245ffd5b7f4e487b71000000000000000000000000000000000000000000000000000000005f52601160045260245ffd5b5f61047f826102be565b915061048a836102be565b92508282019050808211156104a2576104a1610448565b5b92915050565b7f4e487b71000000000000000000000000000000000000000000000000000000005f52603260045260245ffd5b5f6104df826102be565b91506104ea836102be565b92508282026104f8816102be565b9150828204841483151761050f5761050e610448565b5b509291505056fea26469706673582212204f13375a69831f372c2d2a94031a70a36845d2c7f579849339f0e14d4dcf158c64736f6c63430008220033",
			"opcodes": "PUSH1 0x80 PUSH1 0x40 MSTORE CALLVALUE DUP1 ISZERO PUSH1 0xE JUMPI PUSH0 PUSH0 REVERT JUMPDEST POP PUSH2 0x54C DUP1 PUSH2 0x1C PUSH0 CODECOPY PUSH0 RETURN INVALID PUSH1 0x80 PUSH1 0x40 MSTORE CALLVALUE DUP1 ISZERO PUSH2 0xF JUMPI PUSH0 PUSH0 REVERT JUMPDEST POP PUSH1 0x4 CALLDATASIZE LT PUSH2 0x4A JUMPI PUSH0 CALLDATALOAD PUSH1 0xE0 SHR DUP1 PUSH4 0x3B1F0CD0 EQ PUSH2 0x4E JUMPI DUP1 PUSH4 0x6D236703 EQ PUSH2 0x7E JUMPI DUP1 PUSH4 0x7221A26A EQ PUSH2 0xAE JUMPI DUP1 PUSH4 0xF0569DF3 EQ PUSH2 0xCA JUMPI JUMPDEST PUSH0 PUSH0 REVERT JUMPDEST PUSH2 0x68 PUSH1 0x4 DUP1 CALLDATASIZE SUB DUP2 ADD SWAP1 PUSH2 0x63 SWAP2 SWAP1 PUSH2 0x2F1 JUMP JUMPDEST PUSH2 0xFA JUMP JUMPDEST PUSH1 0x40 MLOAD PUSH2 0x75 SWAP2 SWAP1 PUSH2 0x32B JUMP JUMPDEST PUSH1 0x40 MLOAD DUP1 SWAP2 SUB SWAP1 RETURN JUMPDEST PUSH2 0x98 PUSH1 0x4 DUP1 CALLDATASIZE SUB DUP2 ADD SWAP1 PUSH2 0x93 SWAP2 SWAP1 PUSH2 0x2F1 JUMP JUMPDEST PUSH2 0x119 JUMP JUMPDEST PUSH1 0x40 MLOAD PUSH2 0xA5 SWAP2 SWAP1 PUSH2 0x3FB JUMP JUMPDEST PUSH1 0x40 MLOAD DUP1 SWAP2 SUB SWAP1 RETURN JUMPDEST PUSH2 0xC8 PUSH1 0x4 DUP1 CALLDATASIZE SUB DUP2 ADD SWAP1 PUSH2 0xC3 SWAP2 SWAP1 PUSH2 0x2F1 JUMP JUMPDEST PUSH2 0x1B7 JUMP JUMPDEST STOP JUMPDEST PUSH2 0xE4 PUSH1 0x4 DUP1 CALLDATASIZE SUB DUP2 ADD SWAP1 PUSH2 0xDF SWAP2 SWAP1 PUSH2 0x2F1 JUMP JUMPDEST PUSH2 0x1DF JUMP JUMPDEST PUSH1 0x40 MLOAD PUSH2 0xF1 SWAP2 SWAP1 PUSH2 0x3FB JUMP JUMPDEST PUSH1 0x40 MLOAD DUP1 SWAP2 SUB SWAP1 RETURN JUMPDEST PUSH0 DUP2 DUP2 SLOAD DUP2 LT PUSH2 0x108 JUMPI PUSH0 DUP1 REVERT JUMPDEST SWAP1 PUSH0 MSTORE PUSH1 0x20 PUSH0 KECCAK256 ADD PUSH0 SWAP2 POP SWAP1 POP SLOAD DUP2 JUMP JUMPDEST PUSH1 0x60 PUSH0 DUP3 PUSH8 0xFFFFFFFFFFFFFFFF DUP2 GT ISZERO PUSH2 0x136 JUMPI PUSH2 0x135 PUSH2 0x41B JUMP JUMPDEST JUMPDEST PUSH1 0x40 MLOAD SWAP1 DUP1 DUP3 MSTORE DUP1 PUSH1 0x20 MUL PUSH1 0x20 ADD DUP3 ADD PUSH1 0x40 MSTORE DUP1 ISZERO PUSH2 0x164 JUMPI DUP2 PUSH1 0x20 ADD PUSH1 0x20 DUP3 MUL DUP1 CALLDATASIZE DUP4 CALLDATACOPY DUP1 DUP3 ADD SWAP2 POP POP SWAP1 POP JUMPDEST POP SWAP1 POP PUSH0 PUSH0 SWAP1 POP JUMPDEST DUP4 DUP2 LT ISZERO PUSH2 0x1AD JUMPI PUSH1 0x1 DUP2 PUSH2 0x181 SWAP2 SWAP1 PUSH2 0x475 JUMP JUMPDEST DUP3 DUP3 DUP2 MLOAD DUP2 LT PUSH2 0x194 JUMPI PUSH2 0x193 PUSH2 0x4A8 JUMP JUMPDEST JUMPDEST PUSH1 0x20 MUL PUSH1 0x20 ADD ADD DUP2 DUP2 MSTORE POP POP DUP1 DUP1 PUSH1 0x1 ADD SWAP2 POP POP PUSH2 0x16C JUMP JUMPDEST POP DUP1 SWAP2 POP POP SWAP2 SWAP1 POP JUMP JUMPDEST PUSH0 DUP2 SWAP1 DUP1 PUSH1 0x1 DUP2 SLOAD ADD DUP1 DUP3 SSTORE DUP1 SWAP2 POP POP PUSH1 0x1 SWAP1 SUB SWAP1 PUSH0 MSTORE PUSH1 0x20 PUSH0 KECCAK256 ADD PUSH0 SWAP1 SWAP2 SWAP1 SWAP2 SWAP1 SWAP2 POP SSTORE POP JUMP JUMPDEST PUSH1 0x60 PUSH0 PUSH1 0x3 PUSH8 0xFFFFFFFFFFFFFFFF DUP2 GT ISZERO PUSH2 0x1FD JUMPI PUSH2 0x1FC PUSH2 0x41B JUMP JUMPDEST JUMPDEST PUSH1 0x40 MLOAD SWAP1 DUP1 DUP3 MSTORE DUP1 PUSH1 0x20 MUL PUSH1 0x20 ADD DUP3 ADD PUSH1 0x40 MSTORE DUP1 ISZERO PUSH2 0x22B JUMPI DUP2 PUSH1 0x20 ADD PUSH1 0x20 DUP3 MUL DUP1 CALLDATASIZE DUP4 CALLDATACOPY DUP1 DUP3 ADD SWAP2 POP POP SWAP1 POP JUMPDEST POP SWAP1 POP DUP3 DUP2 PUSH0 DUP2 MLOAD DUP2 LT PUSH2 0x242 JUMPI PUSH2 0x241 PUSH2 0x4A8 JUMP JUMPDEST JUMPDEST PUSH1 0x20 MUL PUSH1 0x20 ADD ADD DUP2 DUP2 MSTORE POP POP DUP3 DUP4 PUSH2 0x25A SWAP2 SWAP1 PUSH2 0x4D5 JUMP JUMPDEST DUP2 PUSH1 0x1 DUP2 MLOAD DUP2 LT PUSH2 0x26E JUMPI PUSH2 0x26D PUSH2 0x4A8 JUMP JUMPDEST JUMPDEST PUSH1 0x20 MUL PUSH1 0x20 ADD ADD DUP2 DUP2 MSTORE POP POP DUP3 DUP4 DUP5 PUSH2 0x287 SWAP2 SWAP1 PUSH2 0x4D5 JUMP JUMPDEST PUSH2 0x291 SWAP2 SWAP1 PUSH2 0x4D5 JUMP JUMPDEST DUP2 PUSH1 0x2 DUP2 MLOAD DUP2 LT PUSH2 0x2A5 JUMPI PUSH2 0x2A4 PUSH2 0x4A8 JUMP JUMPDEST JUMPDEST PUSH1 0x20 MUL PUSH1 0x20 ADD ADD DUP2 DUP2 MSTORE POP POP DUP1 SWAP2 POP POP SWAP2 SWAP1 POP JUMP JUMPDEST PUSH0 PUSH0 REVERT JUMPDEST PUSH0 DUP2 SWAP1 POP SWAP2 SWAP1 POP JUMP JUMPDEST PUSH2 0x2D0 DUP2 PUSH2 0x2BE JUMP JUMPDEST DUP2 EQ PUSH2 0x2DA JUMPI PUSH0 PUSH0 REVERT JUMPDEST POP JUMP JUMPDEST PUSH0 DUP2 CALLDATALOAD SWAP1 POP PUSH2 0x2EB DUP2 PUSH2 0x2C7 JUMP JUMPDEST SWAP3 SWAP2 POP POP JUMP JUMPDEST PUSH0 PUSH1 0x20 DUP3 DUP5 SUB SLT ISZERO PUSH2 0x306 JUMPI PUSH2 0x305 PUSH2 0x2BA JUMP JUMPDEST JUMPDEST PUSH0 PUSH2 0x313 DUP5 DUP3 DUP6 ADD PUSH2 0x2DD JUMP JUMPDEST SWAP2 POP POP SWAP3 SWAP2 POP POP JUMP JUMPDEST PUSH2 0x325 DUP2 PUSH2 0x2BE JUMP JUMPDEST DUP3 MSTORE POP POP JUMP JUMPDEST PUSH0 PUSH1 0x20 DUP3 ADD SWAP1 POP PUSH2 0x33E PUSH0 DUP4 ADD DUP5 PUSH2 0x31C JUMP JUMPDEST SWAP3 SWAP2 POP POP JUMP JUMPDEST PUSH0 DUP2 MLOAD SWAP1 POP SWAP2 SWAP1 POP JUMP JUMPDEST PUSH0 DUP3 DUP3 MSTORE PUSH1 0x20 DUP3 ADD SWAP1 POP SWAP3 SWAP2 POP POP JUMP JUMPDEST PUSH0 DUP2 SWAP1 POP PUSH1 0x20 DUP3 ADD SWAP1 POP SWAP2 SWAP1 POP JUMP JUMPDEST PUSH2 0x376 DUP2 PUSH2 0x2BE JUMP JUMPDEST DUP3 MSTORE POP POP JUMP JUMPDEST PUSH0 PUSH2 0x387 DUP4 DUP4 PUSH2 0x36D JUMP JUMPDEST PUSH1 0x20 DUP4 ADD SWAP1 POP SWAP3 SWAP2 POP POP JUMP JUMPDEST PUSH0 PUSH1 0x20 DUP3 ADD SWAP1 POP SWAP2 SWAP1 POP JUMP JUMPDEST PUSH0 PUSH2 0x3A9 DUP3 PUSH2 0x344 JUMP JUMPDEST PUSH2 0x3B3 DUP2 DUP6 PUSH2 0x34E JUMP JUMPDEST SWAP4 POP PUSH2 0x3BE DUP4 PUSH2 0x35E JUMP JUMPDEST DUP1 PUSH0 JUMPDEST DUP4 DUP2 LT ISZERO PUSH2 0x3EE JUMPI DUP2 MLOAD PUSH2 0x3D5 DUP9 DUP3 PUSH2 0x37C JUMP JUMPDEST SWAP8 POP PUSH2 0x3E0 DUP4 PUSH2 0x393 JUMP JUMPDEST SWAP3 POP POP PUSH1 0x1 DUP2 ADD SWAP1 POP PUSH2 0x3C1 JUMP JUMPDEST POP DUP6 SWAP4 POP POP POP POP SWAP3 SWAP2 POP POP JUMP JUMPDEST PUSH0 PUSH1 0x20 DUP3 ADD SWAP1 POP DUP2 DUP2 SUB PUSH0 DUP4 ADD MSTORE PUSH2 0x413 DUP2 DUP5 PUSH2 0x39F JUMP JUMPDEST SWAP1 POP SWAP3 SWAP2 POP POP JUMP JUMPDEST PUSH32 0x4E487B7100000000000000000000000000000000000000000000000000000000 PUSH0 MSTORE PUSH1 0x41 PUSH1 0x4 MSTORE PUSH1 0x24 PUSH0 REVERT JUMPDEST PUSH32 0x4E487B7100000000000000000000000000000000000000000000000000000000 PUSH0 MSTORE PUSH1 0x11 PUSH1 0x4 MSTORE PUSH1 0x24 PUSH0 REVERT JUMPDEST PUSH0 PUSH2 0x47F DUP3 PUSH2 0x2BE JUMP JUMPDEST SWAP2 POP PUSH2 0x48A DUP4 PUSH2 0x2BE JUMP JUMPDEST SWAP3 POP DUP3 DUP3 ADD SWAP1 POP DUP1 DUP3 GT ISZERO PUSH2 0x4A2 JUMPI PUSH2 0x4A1 PUSH2 0x448 JUMP JUMPDEST JUMPDEST SWAP3 SWAP2 POP POP JUMP JUMPDEST PUSH32 0x4E487B7100000000000000000000000000000000000000000000000000000000 PUSH0 MSTORE PUSH1 0x32 PUSH1 0x4 MSTORE PUSH1 0x24 PUSH0 REVERT JUMPDEST PUSH0 PUSH2 0x4DF DUP3 PUSH2 0x2BE JUMP JUMPDEST SWAP2 POP PUSH2 0x4EA DUP4 PUSH2 0x2BE JUMP JUMPDEST SWAP3 POP DUP3 DUP3 MUL PUSH2 0x4F8 DUP2 PUSH2 0x2BE JUMP JUMPDEST SWAP2 POP DUP3 DUP3 DIV DUP5 EQ DUP4 ISZERO OR PUSH2 0x50F JUMPI PUSH2 0x50E PUSH2 0x448 JUMP JUMPDEST JUMPDEST POP SWAP3 SWAP2 POP POP JUMP INVALID LOG2 PUSH5 0x6970667358 0x22 SLT KECCAK256 0x4F SGT CALLDATACOPY GAS PUSH10 0x831F372C2D2A94031A70 LOG3 PUSH9 0x45D2C7F579849339F0 RJUMPI 0x4D4D 0xCF ISZERO DUP13 PUSH5 0x736F6C6343 STOP ADDMOD 0x22 STOP CALLER "
		},
		"gasEstimates": {
			"creation": {
				"codeDepositCost": "271200",
				"executionCost": "310",
				"totalCost": "271510"
			},
			"external": {
				"calculateSquares(uint256)": "infinite",
				"createMemoryArray(uint256)": "infinite",
				"storeValue(uint256)": "46842",
				"storedNumbers(uint256)": "infinite"
			}
		},
		"methodIdentifiers": {
			"calculateSquares(uint256)": "f0569df3",
			"createMemoryArray(uint256)": "6d236703",
			"storeValue(uint256)": "7221a26a",
			"storedNumbers(uint256)": "3b1f0cd0"
		}
	},
	"abi": [
		{
			"inputs": [
				{
					"internalType": "uint256",
					"name": "_number",
					"type": "uint256"
				}
			],
			"name": "calculateSquares",
			"outputs": [
				{
					"internalType": "uint256[]",
					"name": "",
					"type": "uint256[]"
				}
			],
			"stateMutability": "pure",
			"type": "function"
		},
		{
			"inputs": [
				{
					"internalType": "uint256",
					"name": "size",
					"type": "uint256"
				}
			],
			"name": "createMemoryArray",
			"outputs": [
				{
					"internalType": "uint256[]",
					"name": "",
					"type": "uint256[]"
				}
			],
			"stateMutability": "pure",
			"type": "function"
		},
		{
			"inputs": [
				{
					"internalType": "uint256",
					"name": "_value",
					"type": "uint256"
				}
			],
			"name": "storeValue",
			"outputs": [],
			"stateMutability": "nonpayable",
			"type": "function"
		},
		{
			"inputs": [
				{
					"internalType": "uint256",
					"name": "",
					"type": "uint256"
				}
			],
			"name": "storedNumbers",
			"outputs": [
				{
					"internalType": "uint256",
					"name": "",
					"type": "uint256"
				}
			],
			"stateMutability": "view",
			"type": "function"
		}
	]
}