{
	"data": {
		"bytecode": {
			"linkReferences": {},
			"object": "6080604052348015600e575f5ffd5b506105488061001c5f395ff3fe608060405234801561000f575f5ffd5b506004361061003f575f3560e01c8063191ec845146100435780633b1f0cd0146100735780637221a26a146100a3575b5f5ffd5b61005d60048036038101906100589190610306565b6100bf565b60405161006a9190610404565b60405180910390f35b61008d60048036038101906100889190610424565b61012b565b60405161009a919061045e565b60405180910390f35b6100bd60048036038101906100b89190610424565b61014a565b005b60605f5f90505b82518110156101225760028382815181106100e4576100e3610477565b5b60200260200101516100f691906104d1565b83828151811061010957610108610477565b5b60200260200101818152505080806001019150506100c6565b50819050919050565b5f8181548110610139575f80fd5b905f5260205f20015f915090505481565b5f81908060018154018082558091505060019003905f5260205f20015f909190919091505550565b5f604051905090565b5f5ffd5b5f5ffd5b5f5ffd5b5f601f19601f8301169050919050565b7f4e487b71000000000000000000000000000000000000000000000000000000005f52604160045260245ffd5b6101cd82610187565b810181811067ffffffffffffffff821117156101ec576101eb610197565b5b80604052505050565b5f6101fe610172565b905061020a82826101c4565b919050565b5f67ffffffffffffffff82111561022957610228610197565b5b602082029050602081019050919050565b5f5ffd5b5f819050919050565b6102508161023e565b811461025a575f5ffd5b50565b5f8135905061026b81610247565b92915050565b5f61028361027e8461020f565b6101f5565b905080838252602082019050602084028301858111156102a6576102a561023a565b5b835b818110156102cf57806102bb888261025d565b8452602084019350506020810190506102a8565b5050509392505050565b5f82601f8301126102ed576102ec610183565b5b81356102fd848260208601610271565b91505092915050565b5f6020828403121561031b5761031a61017b565b5b5f82013567ffffffffffffffff8111156103385761033761017f565b5b610344848285016102d9565b91505092915050565b5f81519050919050565b5f82825260208201905092915050565b5f819050602082019050919050565b61037f8161023e565b82525050565b5f6103908383610376565b60208301905092915050565b5f602082019050919050565b5f6103b28261034d565b6103bc8185610357565b93506103c783610367565b805f5b838110156103f75781516103de8882610385565b97506103e98361039c565b9250506001810190506103ca565b5085935050505092915050565b5f6020820190508181035f83015261041c81846103a8565b905092915050565b5f602082840312156104395761043861017b565b5b5f6104468482850161025d565b91505092915050565b6104588161023e565b82525050565b5f6020820190506104715f83018461044f565b92915050565b7f4e487b71000000000000000000000000000000000000000000000000000000005f52603260045260245ffd5b7f4e487b71000000000000000000000000000000000000000000000000000000005f52601160045260245ffd5b5f6104db8261023e565b91506104e68361023e565b92508282026104f48161023e565b9150828204841483151761050b5761050a6104a4565b5b509291505056fea26469706673582212202b7262cc6f4ad42340385a0199d2e06b9ee7f3f1886e6554b1162ef121567abd64736f6c63430008220033",
			"opcodes": "PUSH1 0x80 PUSH1 0x40 MSTORE CALLVALUE DUP1 ISZERO PUSH1 0xE JUMPI PUSH0 PUSH0 REVERT JUMPDEST POP PUSH2 0x548 DUP1 PUSH2 0x1C PUSH0 CODECOPY PUSH0 RETURN INVALID PUSH1 0x80 PUSH1 0x40 MSTORE CALLVALUE DUP1 ISZERO PUSH2 0xF JUMPI PUSH0 PUSH0 REVERT JUMPDEST POP PUSH1 0x4 CALLDATASIZE LT PUSH2 0x3F JUMPI PUSH0 CALLDATALOAD PUSH1 0xE0 SHR DUP1 PUSH4 0x191EC845 EQ PUSH2 0x43 JUMPI DUP1 PUSH4 0x3B1F0CD0 EQ PUSH2 0x73 JUMPI DUP1 PUSH4 0x7221A26A EQ PUSH2 0xA3 JUMPI JUMPDEST PUSH0 PUSH0 REVERT JUMPDEST PUSH2 0x5D PUSH1 0x4 DUP1 CALLDATASIZE SUB DUP2 ADD SWAP1 PUSH2 0x58 SWAP2 SWAP1 PUSH2 0x306 JUMP JUMPDEST PUSH2 0xBF JUMP JUMPDEST PUSH1 0x40 MLOAD PUSH2 0x6A SWAP2 SWAP1 PUSH2 0x404 JUMP JUMPDEST PUSH1 0x40 MLOAD DUP1 SWAP2 SUB SWAP1 RETURN JUMPDEST PUSH2 0x8D PUSH1 0x4 DUP1 CALLDATASIZE SUB DUP2 ADD SWAP1 PUSH2 0x88 SWAP2 SWAP1 PUSH2 0x424 JUMP JUMPDEST PUSH2 0x12B JUMP JUMPDEST PUSH1 0x40 MLOAD PUSH2 0x9A SWAP2 SWAP1 PUSH2 0x45E JUMP JUMPDEST PUSH1 0x40 MLOAD DUP1 SWAP2 SUB SWAP1 RETURN JUMPDEST PUSH2 0xBD PUSH1 0x4 DUP1 CALLDATASIZE SUB DUP2 ADD SWAP1 PUSH2 0xB8 SWAP2 SWAP1 PUSH2 0x424 JUMP JUMPDEST PUSH2 0x14A JUMP JUMPDEST STOP JUMPDEST PUSH1 0x60 PUSH0 PUSH0 SWAP1 POP JUMPDEST DUP3 MLOAD DUP2 LT ISZERO PUSH2 0x122 JUMPI PUSH1 0x2 DUP4 DUP3 DUP2 MLOAD DUP2 LT PUSH2 0xE4 JUMPI PUSH2 0xE3 PUSH2 0x477 JUMP JUMPDEST JUMPDEST PUSH1 0x20 MUL PUSH1 0x20 ADD ADD MLOAD PUSH2 0xF6 SWAP2 SWAP1 PUSH2 0x4D1 JUMP JUMPDEST DUP4 DUP3 DUP2 MLOAD DUP2 LT PUSH2 0x109 JUMPI PUSH2 0x108 PUSH2 0x477 JUMP JUMPDEST JUMPDEST PUSH1 0x20 MUL PUSH1 0x20 ADD ADD DUP2 DUP2 MSTORE POP POP DUP1 DUP1 PUSH1 0x1 ADD SWAP2 POP POP PUSH2 0xC6 JUMP JUMPDEST POP DUP2 SWAP1 POP SWAP2 SWAP1 POP JUMP JUMPDEST PUSH0 DUP2 DUP2 SLOAD DUP2 LT PUSH2 0x139 JUMPI PUSH0 DUP1 REVERT JUMPDEST SWAP1 PUSH0 MSTORE PUSH1 0x20 PUSH0 KECCAK256 ADD PUSH0 SWAP2 POP SWAP1 POP SLOAD DUP2 JUMP JUMPDEST PUSH0 DUP2 SWAP1 DUP1 PUSH1 0x1 DUP2 SLOAD ADD DUP1 DUP3 SSTORE DUP1 SWAP2 POP POP PUSH1 0x1 SWAP1 SUB SWAP1 PUSH0 MSTORE PUSH1 0x20 PUSH0 KECCAK256 ADD PUSH0 SWAP1 SWAP2 SWAP1 SWAP2 SWAP1 SWAP2 POP SSTORE POP JUMP JUMPDEST PUSH0 PUSH1 0x40 MLOAD SWAP1 POP SWAP1 JUMP JUMPDEST PUSH0 PUSH0 REVERT JUMPDEST PUSH0 PUSH0 REVERT JUMPDEST PUSH0 PUSH0 REVERT JUMPDEST PUSH0 PUSH1 0x1F NOT PUSH1 0x1F DUP4 ADD AND SWAP1 POP SWAP2 SWAP1 POP JUMP JUMPDEST PUSH32 0x4E487B7100000000000000000000000000000000000000000000000000000000 PUSH0 MSTORE PUSH1 0x41 PUSH1 0x4 MSTORE PUSH1 0x24 PUSH0 REVERT JUMPDEST PUSH2 0x1CD DUP3 PUSH2 0x187 JUMP JUMPDEST DUP2 ADD DUP2 DUP2 LT PUSH8 0xFFFFFFFFFFFFFFFF DUP3 GT OR ISZERO PUSH2 0x1EC JUMPI PUSH2 0x1EB PUSH2 0x197 JUMP JUMPDEST JUMPDEST DUP1 PUSH1 0x40 MSTORE POP POP POP JUMP JUMPDEST PUSH0 PUSH2 0x1FE PUSH2 0x172 JUMP JUMPDEST SWAP1 POP PUSH2 0x20A DUP3 DUP3 PUSH2 0x1C4 JUMP JUMPDEST SWAP2 SWAP1 POP JUMP JUMPDEST PUSH0 PUSH8 0xFFFFFFFFFFFFFFFF DUP3 GT ISZERO PUSH2 0x229 JUMPI PUSH2 0x228 PUSH2 0x197 JUMP JUMPDEST JUMPDEST PUSH1 0x20 DUP3 MUL SWAP1 POP PUSH1 0x20 DUP2 ADD SWAP1 POP SWAP2 SWAP1 POP JUMP JUMPDEST PUSH0 PUSH0 REVERT JUMPDEST PUSH0 DUP2 SWAP1 POP SWAP2 SWAP1 POP JUMP JUMPDEST PUSH2 0x250 DUP2 PUSH2 0x23E JUMP JUMPDEST DUP2 EQ PUSH2 0x25A JUMPI PUSH0 PUSH0 REVERT JUMPDEST POP JUMP JUMPDEST PUSH0 DUP2 CALLDATALOAD SWAP1 POP PUSH2 0x26B DUP2 PUSH2 0x247 JUMP JUMPDEST SWAP3 SWAP2 POP POP JUMP JUMPDEST PUSH0 PUSH2 0x283 PUSH2 0x27E DUP5 PUSH2 0x20F JUMP JUMPDEST PUSH2 0x1F5 JUMP JUMPDEST SWAP1 POP DUP1 DUP4 DUP3 MSTORE PUSH1 0x20 DUP3 ADD SWAP1 POP PUSH1 0x20 DUP5 MUL DUP4 ADD DUP6 DUP2 GT ISZERO PUSH2 0x2A6 JUMPI PUSH2 0x2A5 PUSH2 0x23A JUMP JUMPDEST JUMPDEST DUP4 JUMPDEST DUP2 DUP2 LT ISZERO PUSH2 0x2CF JUMPI DUP1 PUSH2 0x2BB DUP9 DUP3 PUSH2 0x25D JUMP JUMPDEST DUP5 MSTORE PUSH1 0x20 DUP5 ADD SWAP4 POP POP PUSH1 0x20 DUP2 ADD SWAP1 POP PUSH2 0x2A8 JUMP JUMPDEST POP POP POP SWAP4 SWAP3 POP POP POP JUMP JUMPDEST PUSH0 DUP3 PUSH1 0x1F DUP4 ADD SLT PUSH2 0x2ED JUMPI PUSH2 0x2EC PUSH2 0x183 JUMP JUMPDEST JUMPDEST DUP2 CALLDATALOAD PUSH2 0x2FD DUP5 DUP3 PUSH1 0x20 DUP7 ADD PUSH2 0x271 JUMP JUMPDEST SWAP2 POP POP SWAP3 SWAP2 POP POP JUMP JUMPDEST PUSH0 PUSH1 0x20 DUP3 DUP5 SUB SLT ISZERO PUSH2 0x31B JUMPI PUSH2 0x31A PUSH2 0x17B JUMP JUMPDEST JUMPDEST PUSH0 DUP3 ADD CALLDATALOAD PUSH8 0xFFFFFFFFFFFFFFFF DUP2 GT ISZERO PUSH2 0x338 JUMPI PUSH2 0x337 PUSH2 0x17F JUMP JUMPDEST JUMPDEST PUSH2 0x344 DUP5 DUP3 DUP6 ADD PUSH2 0x2D9 JUMP JUMPDEST SWAP2 POP POP SWAP3 SWAP2 POP POP JUMP JUMPDEST PUSH0 DUP2 MLOAD SWAP1 POP SWAP2 SWAP1 POP JUMP JUMPDEST PUSH0 DUP3 DUP3 MSTORE PUSH1 0x20 DUP3 ADD SWAP1 POP SWAP3 SWAP2 POP POP JUMP JUMPDEST PUSH0 DUP2 SWAP1 POP PUSH1 0x20 DUP3 ADD SWAP1 POP SWAP2 SWAP1 POP JUMP JUMPDEST PUSH2 0x37F DUP2 PUSH2 0x23E JUMP JUMPDEST DUP3 MSTORE POP POP JUMP JUMPDEST PUSH0 PUSH2 0x390 DUP4 DUP4 PUSH2 0x376 JUMP JUMPDEST PUSH1 0x20 DUP4 ADD SWAP1 POP SWAP3 SWAP2 POP POP JUMP JUMPDEST PUSH0 PUSH1 0x20 DUP3 ADD SWAP1 POP SWAP2 SWAP1 POP JUMP JUMPDEST PUSH0 PUSH2 0x3B2 DUP3 PUSH2 0x34D JUMP JUMPDEST PUSH2 0x3BC DUP2 DUP6 PUSH2 0x357 JUMP JUMPDEST SWAP4 POP PUSH2 0x3C7 DUP4 PUSH2 0x367 JUMP JUMPDEST DUP1 PUSH0 JUMPDEST DUP4 DUP2 LT ISZERO PUSH2 0x3F7 JUMPI DUP2 MLOAD PUSH2 0x3DE DUP9 DUP3 PUSH2 0x385 JUMP JUMPDEST SWAP8 POP PUSH2 0x3E9 DUP4 PUSH2 0x39C JUMP JUMPDEST SWAP3 POP POP PUSH1 0x1 DUP2 ADD SWAP1 POP PUSH2 0x3CA JUMP JUMPDEST POP DUP6 SWAP4 POP POP POP POP SWAP3 SWAP2 POP POP JUMP JUMPDEST PUSH0 PUSH1 0x20 DUP3 ADD SWAP1 POP DUP2 DUP2 SUB PUSH0 DUP4 ADD MSTORE PUSH2 0x41C DUP2 DUP5 PUSH2 0x3A8 JUMP JUMPDEST SWAP1 POP SWAP3 SWAP2 POP POP JUMP JUMPDEST PUSH0 PUSH1 0x20 DUP3 DUP5 SUB SLT ISZERO PUSH2 0x439 JUMPI PUSH2 0x438 PUSH2 0x17B JUMP JUMPDEST JUMPDEST PUSH0 PUSH2 0x446 DUP5 DUP3 DUP6 ADD PUSH2 0x25D JUMP JUMPDEST SWAP2 POP POP SWAP3 SWAP2 POP POP JUMP JUMPDEST PUSH2 0x458 DUP2 PUSH2 0x23E JUMP JUMPDEST DUP3 MSTORE POP POP JUMP JUMPDEST PUSH0 PUSH1 0x20 DUP3 ADD SWAP1 POP PUSH2 0x471 PUSH0 DUP4 ADD DUP5 PUSH2 0x44F JUMP JUMPDEST SWAP3 SWAP2 POP POP JUMP JUMPDEST PUSH32 0x4E487B7100000000000000000000000000000000000000000000000000000000 PUSH0 MSTORE PUSH1 0x32 PUSH1 0x4 MSTORE PUSH1 0x24 PUSH0 REVERT JUMPDEST PUSH32 0x4E487B7100000000000000000000000000000000000000000000000000000000 PUSH0 MSTORE PUSH1 0x11 PUSH1 0x4 MSTORE PUSH1 0x24 PUSH0 REVERT JUMPDEST PUSH0 PUSH2 0x4DB DUP3 PUSH2 0x23E JUMP JUMPDEST SWAP2 POP PUSH2 0x4E6 DUP4 PUSH2 0x23E JUMP JUMPDEST SWAP3 POP DUP3 DUP3 MUL PUSH2 0x4F4 DUP2 PUSH2 0x23E JUMP JUMPDEST SWAP2 POP DUP3 DUP3 DIV DUP5 EQ DUP4 ISZERO OR PUSH2 0x50B JUMPI PUSH2 0x50A PUSH2 0x4A4 JUMP JUMPDEST JUMPDEST POP SWAP3 SWAP2 POP POP JUMP INVALID LOG2 PUSH5 0x6970667358 0x22 SLT KECCAK256 0x2B PUSH19 0x62CC6F4AD42340385A0199D2E06B9EE7F3F188 PUSH15 0x6554B1162EF121567ABD64736F6C63 NUMBER STOP ADDMOD 0x22 STOP CALLER "
		},
		"gasEstimates": {
			"creation": {
				"codeDepositCost": "270400",
				"executionCost": "310",
				"totalCost": "270710"
			},
			"external": {
				"modifyInputArray(uint256[])": "infinite",
				"storeValue(uint256)": "46842",
				"storedNumbers(uint256)": "infinite"
			}
		},
		"methodIdentifiers": {
			"modifyInputArray(uint256[])": "191ec845",
			"storeValue(uint256)": "7221a26a",
			"storedNumbers(uint256)": "3b1f0cd0"
		}
	},
	"abi": [
		{
			"inputs": [
				{
					"internalType": "uint256[]",
					"name": "_numbers",
					"type": "uint256[]"
				}
			],
			"name": "modifyInputArray",
			"outputs": [
				{
					"internalType": "uint256[]",
					"name": "",
					"type": "uint256[]"
				}
			],
			"stateMutability": "pure",
			"type": "function"
		},
		{
			"inputs": [
				{
					"internalType": "uint256",
					"name": "_value",
					"type": "uint256"
				}
			],
			"name": "storeValue",
			"outputs": [],
			"stateMutability": "nonpayable",
			"type": "function"
		},
		{
			"inputs": [
				{
					"internalType": "uint256",
					"name": "",
					"type": "uint256"
				}
			],
			"name": "storedNumbers",
			"outputs": [
				{
					"internalType": "uint256",
					"name": "",
					"type": "uint256"
				}
			],
			"stateMutability": "view",
			"type": "function"
		}
	]
}