{
	"data": {
		"bytecode": {
			"linkReferences": {},
			"object": "6080604052348015600e575f5ffd5b506104388061001c5f395ff3fe608060405234801561000f575f5ffd5b506004361061003f575f3560e01c806318f1024d146100435780634869f99d1461005f57806371a7c1881461007d575b5f5ffd5b61005d6004803603810190610058919061028b565b6100ad565b005b610067610165565b60405161007491906102ee565b60405180910390f35b6100976004803603810190610092919061028b565b61016a565b6040516100a491906102ee565b60405180910390f35b5f5f90505f5f90505b83839050811015610159575f5f90505b8484838181106100d9576100d8610307565b5b90506020028101906100eb9190610340565b905081101561014b5784848381811061010757610106610307565b5b90506020028101906101199190610340565b8281811061012a57610129610307565b5b905060200201358361013c91906103cf565b925080806001019150506100c6565b5080806001019150506100b6565b50805f81905550505050565b5f5481565b5f5f5f90505f5f90505b84849050811015610217575f5f90505b85858381811061019757610196610307565b5b90506020028101906101a99190610340565b9050811015610209578585838181106101c5576101c4610307565b5b90506020028101906101d79190610340565b828181106101e8576101e7610307565b5b90506020020135836101fa91906103cf565b92508080600101915050610184565b508080600101915050610174565b508091505092915050565b5f5ffd5b5f5ffd5b5f5ffd5b5f5ffd5b5f5ffd5b5f5f83601f84011261024b5761024a61022a565b5b8235905067ffffffffffffffff8111156102685761026761022e565b5b60208301915083602082028301111561028457610283610232565b5b9250929050565b5f5f602083850312156102a1576102a0610222565b5b5f83013567ffffffffffffffff8111156102be576102bd610226565b5b6102ca85828601610236565b92509250509250929050565b5f819050919050565b6102e8816102d6565b82525050565b5f6020820190506103015f8301846102df565b92915050565b7f4e487b71000000000000000000000000000000000000000000000000000000005f52603260045260245ffd5b5f5ffd5b5f5ffd5b5f5ffd5b5f5f8335600160200384360303811261035c5761035b610334565b5b80840192508235915067ffffffffffffffff82111561037e5761037d610338565b5b60208301925060208202360383131561039a5761039961033c565b5b509250929050565b7f4e487b71000000000000000000000000000000000000000000000000000000005f52601160045260245ffd5b5f6103d9826102d6565b91506103e4836102d6565b92508282019050808211156103fc576103fb6103a2565b5b9291505056fea2646970667358221220fd10f86ddef878d597ed2787beb2c1dc3759b2e5a14ad82a025893b31b52fb0e64736f6c63430008220033",
			"opcodes": "PUSH1 0x80 PUSH1 0x40 MSTORE CALLVALUE DUP1 ISZERO PUSH1 0xE JUMPI PUSH0 PUSH0 REVERT JUMPDEST POP PUSH2 0x438 DUP1 PUSH2 0x1C PUSH0 CODECOPY PUSH0 RETURN INVALID PUSH1 0x80 PUSH1 0x40 MSTORE CALLVALUE DUP1 ISZERO PUSH2 0xF JUMPI PUSH0 PUSH0 REVERT JUMPDEST POP PUSH1 0x4 CALLDATASIZE LT PUSH2 0x3F JUMPI PUSH0 CALLDATALOAD PUSH1 0xE0 SHR DUP1 PUSH4 0x18F1024D EQ PUSH2 0x43 JUMPI DUP1 PUSH4 0x4869F99D EQ PUSH2 0x5F JUMPI DUP1 PUSH4 0x71A7C188 EQ PUSH2 0x7D JUMPI JUMPDEST PUSH0 PUSH0 REVERT JUMPDEST PUSH2 0x5D PUSH1 0x4 DUP1 CALLDATASIZE SUB DUP2 ADD SWAP1 PUSH2 0x58 SWAP2 SWAP1 PUSH2 0x28B JUMP JUMPDEST PUSH2 0xAD JUMP JUMPDEST STOP JUMPDEST PUSH2 0x67 PUSH2 0x165 JUMP JUMPDEST PUSH1 0x40 MLOAD PUSH2 0x74 SWAP2 SWAP1 PUSH2 0x2EE JUMP JUMPDEST PUSH1 0x40 MLOAD DUP1 SWAP2 SUB SWAP1 RETURN JUMPDEST PUSH2 0x97 PUSH1 0x4 DUP1 CALLDATASIZE SUB DUP2 ADD SWAP1 PUSH2 0x92 SWAP2 SWAP1 PUSH2 0x28B JUMP JUMPDEST PUSH2 0x16A JUMP JUMPDEST PUSH1 0x40 MLOAD PUSH2 0xA4 SWAP2 SWAP1 PUSH2 0x2EE JUMP JUMPDEST PUSH1 0x40 MLOAD DUP1 SWAP2 SUB SWAP1 RETURN JUMPDEST PUSH0 PUSH0 SWAP1 POP PUSH0 PUSH0 SWAP1 POP JUMPDEST DUP4 DUP4 SWAP1 POP DUP2 LT ISZERO PUSH2 0x159 JUMPI PUSH0 PUSH0 SWAP1 POP JUMPDEST DUP5 DUP5 DUP4 DUP2 DUP2 LT PUSH2 0xD9 JUMPI PUSH2 0xD8 PUSH2 0x307 JUMP JUMPDEST JUMPDEST SWAP1 POP PUSH1 0x20 MUL DUP2 ADD SWAP1 PUSH2 0xEB SWAP2 SWAP1 PUSH2 0x340 JUMP JUMPDEST SWAP1 POP DUP2 LT ISZERO PUSH2 0x14B JUMPI DUP5 DUP5 DUP4 DUP2 DUP2 LT PUSH2 0x107 JUMPI PUSH2 0x106 PUSH2 0x307 JUMP JUMPDEST JUMPDEST SWAP1 POP PUSH1 0x20 MUL DUP2 ADD SWAP1 PUSH2 0x119 SWAP2 SWAP1 PUSH2 0x340 JUMP JUMPDEST DUP3 DUP2 DUP2 LT PUSH2 0x12A JUMPI PUSH2 0x129 PUSH2 0x307 JUMP JUMPDEST JUMPDEST SWAP1 POP PUSH1 0x20 MUL ADD CALLDATALOAD DUP4 PUSH2 0x13C SWAP2 SWAP1 PUSH2 0x3CF JUMP JUMPDEST SWAP3 POP DUP1 DUP1 PUSH1 0x1 ADD SWAP2 POP POP PUSH2 0xC6 JUMP JUMPDEST POP DUP1 DUP1 PUSH1 0x1 ADD SWAP2 POP POP PUSH2 0xB6 JUMP JUMPDEST POP DUP1 PUSH0 DUP2 SWAP1 SSTORE POP POP POP POP JUMP JUMPDEST PUSH0 SLOAD DUP2 JUMP JUMPDEST PUSH0 PUSH0 PUSH0 SWAP1 POP PUSH0 PUSH0 SWAP1 POP JUMPDEST DUP5 DUP5 SWAP1 POP DUP2 LT ISZERO PUSH2 0x217 JUMPI PUSH0 PUSH0 SWAP1 POP JUMPDEST DUP6 DUP6 DUP4 DUP2 DUP2 LT PUSH2 0x197 JUMPI PUSH2 0x196 PUSH2 0x307 JUMP JUMPDEST JUMPDEST SWAP1 POP PUSH1 0x20 MUL DUP2 ADD SWAP1 PUSH2 0x1A9 SWAP2 SWAP1 PUSH2 0x340 JUMP JUMPDEST SWAP1 POP DUP2 LT ISZERO PUSH2 0x209 JUMPI DUP6 DUP6 DUP4 DUP2 DUP2 LT PUSH2 0x1C5 JUMPI PUSH2 0x1C4 PUSH2 0x307 JUMP JUMPDEST JUMPDEST SWAP1 POP PUSH1 0x20 MUL DUP2 ADD SWAP1 PUSH2 0x1D7 SWAP2 SWAP1 PUSH2 0x340 JUMP JUMPDEST DUP3 DUP2 DUP2 LT PUSH2 0x1E8 JUMPI PUSH2 0x1E7 PUSH2 0x307 JUMP JUMPDEST JUMPDEST SWAP1 POP PUSH1 0x20 MUL ADD CALLDATALOAD DUP4 PUSH2 0x1FA SWAP2 SWAP1 PUSH2 0x3CF JUMP JUMPDEST SWAP3 POP DUP1 DUP1 PUSH1 0x1 ADD SWAP2 POP POP PUSH2 0x184 JUMP JUMPDEST POP DUP1 DUP1 PUSH1 0x1 ADD SWAP2 POP POP PUSH2 0x174 JUMP JUMPDEST POP DUP1 SWAP2 POP POP SWAP3 SWAP2 POP POP JUMP JUMPDEST PUSH0 PUSH0 REVERT JUMPDEST PUSH0 PUSH0 REVERT JUMPDEST PUSH0 PUSH0 REVERT JUMPDEST PUSH0 PUSH0 REVERT JUMPDEST PUSH0 PUSH0 REVERT JUMPDEST PUSH0 PUSH0 DUP4 PUSH1 0x1F DUP5 ADD SLT PUSH2 0x24B JUMPI PUSH2 0x24A PUSH2 0x22A JUMP JUMPDEST JUMPDEST DUP3 CALLDATALOAD SWAP1 POP PUSH8 0xFFFFFFFFFFFFFFFF DUP2 GT ISZERO PUSH2 0x268 JUMPI PUSH2 0x267 PUSH2 0x22E JUMP JUMPDEST JUMPDEST PUSH1 0x20 DUP4 ADD SWAP2 POP DUP4 PUSH1 0x20 DUP3 MUL DUP4 ADD GT ISZERO PUSH2 0x284 JUMPI PUSH2 0x283 PUSH2 0x232 JUMP JUMPDEST JUMPDEST SWAP3 POP SWAP3 SWAP1 POP JUMP JUMPDEST PUSH0 PUSH0 PUSH1 0x20 DUP4 DUP6 SUB SLT ISZERO PUSH2 0x2A1 JUMPI PUSH2 0x2A0 PUSH2 0x222 JUMP JUMPDEST JUMPDEST PUSH0 DUP4 ADD CALLDATALOAD PUSH8 0xFFFFFFFFFFFFFFFF DUP2 GT ISZERO PUSH2 0x2BE JUMPI PUSH2 0x2BD PUSH2 0x226 JUMP JUMPDEST JUMPDEST PUSH2 0x2CA DUP6 DUP3 DUP7 ADD PUSH2 0x236 JUMP JUMPDEST SWAP3 POP SWAP3 POP POP SWAP3 POP SWAP3 SWAP1 POP JUMP JUMPDEST PUSH0 DUP2 SWAP1 POP SWAP2 SWAP1 POP JUMP JUMPDEST PUSH2 0x2E8 DUP2 PUSH2 0x2D6 JUMP JUMPDEST DUP3 MSTORE POP POP JUMP JUMPDEST PUSH0 PUSH1 0x20 DUP3 ADD SWAP1 POP PUSH2 0x301 PUSH0 DUP4 ADD DUP5 PUSH2 0x2DF JUMP JUMPDEST SWAP3 SWAP2 POP POP JUMP JUMPDEST PUSH32 0x4E487B7100000000000000000000000000000000000000000000000000000000 PUSH0 MSTORE PUSH1 0x32 PUSH1 0x4 MSTORE PUSH1 0x24 PUSH0 REVERT JUMPDEST PUSH0 PUSH0 REVERT JUMPDEST PUSH0 PUSH0 REVERT JUMPDEST PUSH0 PUSH0 REVERT JUMPDEST PUSH0 PUSH0 DUP4 CALLDATALOAD PUSH1 0x1 PUSH1 0x20 SUB DUP5 CALLDATASIZE SUB SUB DUP2 SLT PUSH2 0x35C JUMPI PUSH2 0x35B PUSH2 0x334 JUMP JUMPDEST JUMPDEST DUP1 DUP5 ADD SWAP3 POP DUP3 CALLDATALOAD SWAP2 POP PUSH8 0xFFFFFFFFFFFFFFFF DUP3 GT ISZERO PUSH2 0x37E JUMPI PUSH2 0x37D PUSH2 0x338 JUMP JUMPDEST JUMPDEST PUSH1 0x20 DUP4 ADD SWAP3 POP PUSH1 0x20 DUP3 MUL CALLDATASIZE SUB DUP4 SGT ISZERO PUSH2 0x39A JUMPI PUSH2 0x399 PUSH2 0x33C JUMP JUMPDEST JUMPDEST POP SWAP3 POP SWAP3 SWAP1 POP JUMP JUMPDEST PUSH32 0x4E487B7100000000000000000000000000000000000000000000000000000000 PUSH0 MSTORE PUSH1 0x11 PUSH1 0x4 MSTORE PUSH1 0x24 PUSH0 REVERT JUMPDEST PUSH0 PUSH2 0x3D9 DUP3 PUSH2 0x2D6 JUMP JUMPDEST SWAP2 POP PUSH2 0x3E4 DUP4 PUSH2 0x2D6 JUMP JUMPDEST SWAP3 POP DUP3 DUP3 ADD SWAP1 POP DUP1 DUP3 GT ISZERO PUSH2 0x3FC JUMPI PUSH2 0x3FB PUSH2 0x3A2 JUMP JUMPDEST JUMPDEST SWAP3 SWAP2 POP POP JUMP INVALID LOG2 PUSH5 0x6970667358 0x22 SLT KECCAK256 REVERT LT EXTCALL PUSH14 0xDEF878D597ED2787BEB2C1DC3759 0xB2 JUMPF 0xA14A 0xD8 0x2A MUL PC SWAP4 0xB3 SHL MSTORE EXTSTATICCALL 0xE PUSH5 0x736F6C6343 STOP ADDMOD 0x22 STOP CALLER "
		},
		"gasEstimates": {
			"creation": {
				"codeDepositCost": "216000",
				"executionCost": "255",
				"totalCost": "216255"
			},
			"external": {
				"calculateNestedSum(uint256[][])": "infinite",
				"processAndStore(uint256[][])": "infinite",
				"totalSum()": "2424"
			}
		},
		"methodIdentifiers": {
			"calculateNestedSum(uint256[][])": "71a7c188",
			"processAndStore(uint256[][])": "18f1024d",
			"totalSum()": "4869f99d"
		}
	},
	"abi": [
		{
			"inputs": [
				{
					"internalType": "uint256[][]",
					"name": "_matrix",
					"type": "uint256[][]"
				}
			],
			"name": "calculateNestedSum",
			"outputs": [
				{
					"internalType": "uint256",
					"name": "",
					"type": "uint256"
				}
			],
			"stateMutability": "pure",
			"type": "function"
		},
		{
			"inputs": [
				{
					"internalType": "uint256[][]",
					"name": "_matrix",
					"type": "uint256[][]"
				}
			],
			"name": "processAndStore",
			"outputs": [],
			"stateMutability": "nonpayable",
			"type": "function"
		},
		{
			"inputs": [],
			"name": "totalSum",
			"outputs": [
				{
					"internalType": "uint256",
					"name": "",
					"type": "uint256"
				}
			],
			"stateMutability": "view",
			"type": "function"
		}
	]
}