{
	"data": {
		"bytecode": {
			"linkReferences": {},
			"object": "6080604052348015600e575f5ffd5b506108a48061001c5f395ff3fe608060405234801561000f575f5ffd5b5060043610610055575f3560e01c806318f1024d146100595780634869f99d14610075578063545f46c21461009357806371a7c188146100c3578063b6530583146100f3575b5f5ffd5b610073600480360381019061006e919061032e565b610123565b005b61007d6101db565b60405161008a9190610391565b60405180910390f35b6100ad60048036038101906100a8919061032e565b6101e0565b6040516100ba919061051c565b60405180910390f35b6100dd60048036038101906100d8919061032e565b6101f7565b6040516100ea9190610391565b60405180910390f35b61010d6004803603810190610108919061032e565b6102af565b60405161011a9190610391565b60405180910390f35b5f5f90505f5f90505b838390508110156101cf575f5f90505b84848381811061014f5761014e61053c565b5b90506020028101906101619190610575565b90508110156101c15784848381811061017d5761017c61053c565b5b905060200281019061018f9190610575565b828181106101a05761019f61053c565b5b90506020020135836101b29190610604565b9250808060010191505061013c565b50808060010191505061012c565b50805f81905550505050565b5f5481565b60608282906101ef919061085a565b905092915050565b5f5f5f90505f5f90505b848490508110156102a4575f5f90505b8585838181106102245761022361053c565b5b90506020028101906102369190610575565b9050811015610296578585838181106102525761025161053c565b5b90506020028101906102649190610575565b828181106102755761027461053c565b5b90506020020135836102879190610604565b92508080600101915050610211565b508080600101915050610201565b508091505092915050565b5f82829050905092915050565b5f604051905090565b5f5ffd5b5f5ffd5b5f5ffd5b5f5ffd5b5f5ffd5b5f5f83601f8401126102ee576102ed6102cd565b5b8235905067ffffffffffffffff81111561030b5761030a6102d1565b5b602083019150836020820283011115610327576103266102d5565b5b9250929050565b5f5f60208385031215610344576103436102c5565b5b5f83013567ffffffffffffffff811115610361576103606102c9565b5b61036d858286016102d9565b92509250509250929050565b5f819050919050565b61038b81610379565b82525050565b5f6020820190506103a45f830184610382565b92915050565b5f81519050919050565b5f82825260208201905092915050565b5f819050602082019050919050565b5f81519050919050565b5f82825260208201905092915050565b5f819050602082019050919050565b61040581610379565b82525050565b5f61041683836103fc565b60208301905092915050565b5f602082019050919050565b5f610438826103d3565b61044281856103dd565b935061044d836103ed565b805f5b8381101561047d578151610464888261040b565b975061046f83610422565b925050600181019050610450565b5085935050505092915050565b5f610495838361042e565b905092915050565b5f602082019050919050565b5f6104b3826103aa565b6104bd81856103b4565b9350836020820285016104cf856103c4565b805f5b8581101561050a57848403895281516104eb858261048a565b94506104f68361049d565b925060208a019950506001810190506104d2565b50829750879550505050505092915050565b5f6020820190508181035f83015261053481846104a9565b905092915050565b7f4e487b71000000000000000000000000000000000000000000000000000000005f52603260045260245ffd5b5f5ffd5b5f5ffd5b5f5ffd5b5f5f8335600160200384360303811261059157610590610569565b5b80840192508235915067ffffffffffffffff8211156105b3576105b261056d565b5b6020830192506020820236038313156105cf576105ce610571565b5b509250929050565b7f4e487b71000000000000000000000000000000000000000000000000000000005f52601160045260245ffd5b5f61060e82610379565b915061061983610379565b9250828201905080821115610631576106306105d7565b5b92915050565b5f601f19601f8301169050919050565b7f4e487b71000000000000000000000000000000000000000000000000000000005f52604160045260245ffd5b61067d82610637565b810181811067ffffffffffffffff8211171561069c5761069b610647565b5b80604052505050565b5f6106ae6102bc565b90506106ba8282610674565b919050565b5f67ffffffffffffffff8211156106d9576106d8610647565b5b602082029050602081019050919050565b5f67ffffffffffffffff82111561070457610703610647565b5b602082029050602081019050919050565b61071e81610379565b8114610728575f5ffd5b50565b5f8135905061073981610715565b92915050565b5f61075161074c846106ea565b6106a5565b90508083825260208201905060208402830185811115610774576107736102d5565b5b835b8181101561079d5780610789888261072b565b845260208401935050602081019050610776565b5050509392505050565b5f82601f8301126107bb576107ba6102cd565b5b81356107cb84826020860161073f565b91505092915050565b5f6107e66107e1846106bf565b6106a5565b90508083825260208201905060208402830185811115610809576108086102d5565b5b835b8181101561085057803567ffffffffffffffff81111561082e5761082d6102cd565b5b80860161083b89826107a7565b8552602085019450505060208101905061080b565b5050509392505050565b5f6108663684846107d4565b90509291505056fea2646970667358221220303a07602d6d91a8872d1e62309857a08a5b4448f3ffcebc36ecd94936fb22a564736f6c63430008220033",
			"opcodes": "PUSH1 0x80 PUSH1 0x40 MSTORE CALLVALUE DUP1 ISZERO PUSH1 0xE JUMPI PUSH0 PUSH0 REVERT JUMPDEST POP PUSH2 0x8A4 DUP1 PUSH2 0x1C PUSH0 CODECOPY PUSH0 RETURN INVALID PUSH1 0x80 PUSH1 0x40 MSTORE CALLVALUE DUP1 ISZERO PUSH2 0xF JUMPI PUSH0 PUSH0 REVERT JUMPDEST POP PUSH1 0x4 CALLDATASIZE LT PUSH2 0x55 JUMPI PUSH0 CALLDATALOAD PUSH1 0xE0 SHR DUP1 PUSH4 0x18F1024D EQ PUSH2 0x59 JUMPI DUP1 PUSH4 0x4869F99D EQ PUSH2 0x75 JUMPI DUP1 PUSH4 0x545F46C2 EQ PUSH2 0x93 JUMPI DUP1 PUSH4 0x71A7C188 EQ PUSH2 0xC3 JUMPI DUP1 PUSH4 0xB6530583 EQ PUSH2 0xF3 JUMPI JUMPDEST PUSH0 PUSH0 REVERT JUMPDEST PUSH2 0x73 PUSH1 0x4 DUP1 CALLDATASIZE SUB DUP2 ADD SWAP1 PUSH2 0x6E SWAP2 SWAP1 PUSH2 0x32E JUMP JUMPDEST PUSH2 0x123 JUMP JUMPDEST STOP JUMPDEST PUSH2 0x7D PUSH2 0x1DB JUMP JUMPDEST PUSH1 0x40 MLOAD PUSH2 0x8A SWAP2 SWAP1 PUSH2 0x391 JUMP JUMPDEST PUSH1 0x40 MLOAD DUP1 SWAP2 SUB SWAP1 RETURN JUMPDEST PUSH2 0xAD PUSH1 0x4 DUP1 CALLDATASIZE SUB DUP2 ADD SWAP1 PUSH2 0xA8 SWAP2 SWAP1 PUSH2 0x32E JUMP JUMPDEST PUSH2 0x1E0 JUMP JUMPDEST PUSH1 0x40 MLOAD PUSH2 0xBA SWAP2 SWAP1 PUSH2 0x51C JUMP JUMPDEST PUSH1 0x40 MLOAD DUP1 SWAP2 SUB SWAP1 RETURN JUMPDEST PUSH2 0xDD PUSH1 0x4 DUP1 CALLDATASIZE SUB DUP2 ADD SWAP1 PUSH2 0xD8 SWAP2 SWAP1 PUSH2 0x32E JUMP JUMPDEST PUSH2 0x1F7 JUMP JUMPDEST PUSH1 0x40 MLOAD PUSH2 0xEA SWAP2 SWAP1 PUSH2 0x391 JUMP JUMPDEST PUSH1 0x40 MLOAD DUP1 SWAP2 SUB SWAP1 RETURN JUMPDEST PUSH2 0x10D PUSH1 0x4 DUP1 CALLDATASIZE SUB DUP2 ADD SWAP1 PUSH2 0x108 SWAP2 SWAP1 PUSH2 0x32E JUMP JUMPDEST PUSH2 0x2AF JUMP JUMPDEST PUSH1 0x40 MLOAD PUSH2 0x11A SWAP2 SWAP1 PUSH2 0x391 JUMP JUMPDEST PUSH1 0x40 MLOAD DUP1 SWAP2 SUB SWAP1 RETURN JUMPDEST PUSH0 PUSH0 SWAP1 POP PUSH0 PUSH0 SWAP1 POP JUMPDEST DUP4 DUP4 SWAP1 POP DUP2 LT ISZERO PUSH2 0x1CF JUMPI PUSH0 PUSH0 SWAP1 POP JUMPDEST DUP5 DUP5 DUP4 DUP2 DUP2 LT PUSH2 0x14F JUMPI PUSH2 0x14E PUSH2 0x53C JUMP JUMPDEST JUMPDEST SWAP1 POP PUSH1 0x20 MUL DUP2 ADD SWAP1 PUSH2 0x161 SWAP2 SWAP1 PUSH2 0x575 JUMP JUMPDEST SWAP1 POP DUP2 LT ISZERO PUSH2 0x1C1 JUMPI DUP5 DUP5 DUP4 DUP2 DUP2 LT PUSH2 0x17D JUMPI PUSH2 0x17C PUSH2 0x53C JUMP JUMPDEST JUMPDEST SWAP1 POP PUSH1 0x20 MUL DUP2 ADD SWAP1 PUSH2 0x18F SWAP2 SWAP1 PUSH2 0x575 JUMP JUMPDEST DUP3 DUP2 DUP2 LT PUSH2 0x1A0 JUMPI PUSH2 0x19F PUSH2 0x53C JUMP JUMPDEST JUMPDEST SWAP1 POP PUSH1 0x20 MUL ADD CALLDATALOAD DUP4 PUSH2 0x1B2 SWAP2 SWAP1 PUSH2 0x604 JUMP JUMPDEST SWAP3 POP DUP1 DUP1 PUSH1 0x1 ADD SWAP2 POP POP PUSH2 0x13C JUMP JUMPDEST POP DUP1 DUP1 PUSH1 0x1 ADD SWAP2 POP POP PUSH2 0x12C JUMP JUMPDEST POP DUP1 PUSH0 DUP2 SWAP1 SSTORE POP POP POP POP JUMP JUMPDEST PUSH0 SLOAD DUP2 JUMP JUMPDEST PUSH1 0x60 DUP3 DUP3 SWAP1 PUSH2 0x1EF SWAP2 SWAP1 PUSH2 0x85A JUMP JUMPDEST SWAP1 POP SWAP3 SWAP2 POP POP JUMP JUMPDEST PUSH0 PUSH0 PUSH0 SWAP1 POP PUSH0 PUSH0 SWAP1 POP JUMPDEST DUP5 DUP5 SWAP1 POP DUP2 LT ISZERO PUSH2 0x2A4 JUMPI PUSH0 PUSH0 SWAP1 POP JUMPDEST DUP6 DUP6 DUP4 DUP2 DUP2 LT PUSH2 0x224 JUMPI PUSH2 0x223 PUSH2 0x53C JUMP JUMPDEST JUMPDEST SWAP1 POP PUSH1 0x20 MUL DUP2 ADD SWAP1 PUSH2 0x236 SWAP2 SWAP1 PUSH2 0x575 JUMP JUMPDEST SWAP1 POP DUP2 LT ISZERO PUSH2 0x296 JUMPI DUP6 DUP6 DUP4 DUP2 DUP2 LT PUSH2 0x252 JUMPI PUSH2 0x251 PUSH2 0x53C JUMP JUMPDEST JUMPDEST SWAP1 POP PUSH1 0x20 MUL DUP2 ADD SWAP1 PUSH2 0x264 SWAP2 SWAP1 PUSH2 0x575 JUMP JUMPDEST DUP3 DUP2 DUP2 LT PUSH2 0x275 JUMPI PUSH2 0x274 PUSH2 0x53C JUMP JUMPDEST JUMPDEST SWAP1 POP PUSH1 0x20 MUL ADD CALLDATALOAD DUP4 PUSH2 0x287 SWAP2 SWAP1 PUSH2 0x604 JUMP JUMPDEST SWAP3 POP DUP1 DUP1 PUSH1 0x1 ADD SWAP2 POP POP PUSH2 0x211 JUMP JUMPDEST POP DUP1 DUP1 PUSH1 0x1 ADD SWAP2 POP POP PUSH2 0x201 JUMP JUMPDEST POP DUP1 SWAP2 POP POP SWAP3 SWAP2 POP POP JUMP JUMPDEST PUSH0 DUP3 DUP3 SWAP1 POP SWAP1 POP SWAP3 SWAP2 POP POP JUMP JUMPDEST PUSH0 PUSH1 0x40 MLOAD SWAP1 POP SWAP1 JUMP JUMPDEST PUSH0 PUSH0 REVERT JUMPDEST PUSH0 PUSH0 REVERT JUMPDEST PUSH0 PUSH0 REVERT JUMPDEST PUSH0 PUSH0 REVERT JUMPDEST PUSH0 PUSH0 REVERT JUMPDEST PUSH0 PUSH0 DUP4 PUSH1 0x1F DUP5 ADD SLT PUSH2 0x2EE JUMPI PUSH2 0x2ED PUSH2 0x2CD JUMP JUMPDEST JUMPDEST DUP3 CALLDATALOAD SWAP1 POP PUSH8 0xFFFFFFFFFFFFFFFF DUP2 GT ISZERO PUSH2 0x30B JUMPI PUSH2 0x30A PUSH2 0x2D1 JUMP JUMPDEST JUMPDEST PUSH1 0x20 DUP4 ADD SWAP2 POP DUP4 PUSH1 0x20 DUP3 MUL DUP4 ADD GT ISZERO PUSH2 0x327 JUMPI PUSH2 0x326 PUSH2 0x2D5 JUMP JUMPDEST JUMPDEST SWAP3 POP SWAP3 SWAP1 POP JUMP JUMPDEST PUSH0 PUSH0 PUSH1 0x20 DUP4 DUP6 SUB SLT ISZERO PUSH2 0x344 JUMPI PUSH2 0x343 PUSH2 0x2C5 JUMP JUMPDEST JUMPDEST PUSH0 DUP4 ADD CALLDATALOAD PUSH8 0xFFFFFFFFFFFFFFFF DUP2 GT ISZERO PUSH2 0x361 JUMPI PUSH2 0x360 PUSH2 0x2C9 JUMP JUMPDEST JUMPDEST PUSH2 0x36D DUP6 DUP3 DUP7 ADD PUSH2 0x2D9 JUMP JUMPDEST SWAP3 POP SWAP3 POP POP SWAP3 POP SWAP3 SWAP1 POP JUMP JUMPDEST PUSH0 DUP2 SWAP1 POP SWAP2 SWAP1 POP JUMP JUMPDEST PUSH2 0x38B DUP2 PUSH2 0x379 JUMP JUMPDEST DUP3 MSTORE POP POP JUMP JUMPDEST PUSH0 PUSH1 0x20 DUP3 ADD SWAP1 POP PUSH2 0x3A4 PUSH0 DUP4 ADD DUP5 PUSH2 0x382 JUMP JUMPDEST SWAP3 SWAP2 POP POP JUMP JUMPDEST PUSH0 DUP2 MLOAD SWAP1 POP SWAP2 SWAP1 POP JUMP JUMPDEST PUSH0 DUP3 DUP3 MSTORE PUSH1 0x20 DUP3 ADD SWAP1 POP SWAP3 SWAP2 POP POP JUMP JUMPDEST PUSH0 DUP2 SWAP1 POP PUSH1 0x20 DUP3 ADD SWAP1 POP SWAP2 SWAP1 POP JUMP JUMPDEST PUSH0 DUP2 MLOAD SWAP1 POP SWAP2 SWAP1 POP JUMP JUMPDEST PUSH0 DUP3 DUP3 MSTORE PUSH1 0x20 DUP3 ADD SWAP1 POP SWAP3 SWAP2 POP POP JUMP JUMPDEST PUSH0 DUP2 SWAP1 POP PUSH1 0x20 DUP3 ADD SWAP1 POP SWAP2 SWAP1 POP JUMP JUMPDEST PUSH2 0x405 DUP2 PUSH2 0x379 JUMP JUMPDEST DUP3 MSTORE POP POP JUMP JUMPDEST PUSH0 PUSH2 0x416 DUP4 DUP4 PUSH2 0x3FC JUMP JUMPDEST PUSH1 0x20 DUP4 ADD SWAP1 POP SWAP3 SWAP2 POP POP JUMP JUMPDEST PUSH0 PUSH1 0x20 DUP3 ADD SWAP1 POP SWAP2 SWAP1 POP JUMP JUMPDEST PUSH0 PUSH2 0x438 DUP3 PUSH2 0x3D3 JUMP JUMPDEST PUSH2 0x442 DUP2 DUP6 PUSH2 0x3DD JUMP JUMPDEST SWAP4 POP PUSH2 0x44D DUP4 PUSH2 0x3ED JUMP JUMPDEST DUP1 PUSH0 JUMPDEST DUP4 DUP2 LT ISZERO PUSH2 0x47D JUMPI DUP2 MLOAD PUSH2 0x464 DUP9 DUP3 PUSH2 0x40B JUMP JUMPDEST SWAP8 POP PUSH2 0x46F DUP4 PUSH2 0x422 JUMP JUMPDEST SWAP3 POP POP PUSH1 0x1 DUP2 ADD SWAP1 POP PUSH2 0x450 JUMP JUMPDEST POP DUP6 SWAP4 POP POP POP POP SWAP3 SWAP2 POP POP JUMP JUMPDEST PUSH0 PUSH2 0x495 DUP4 DUP4 PUSH2 0x42E JUMP JUMPDEST SWAP1 POP SWAP3 SWAP2 POP POP JUMP JUMPDEST PUSH0 PUSH1 0x20 DUP3 ADD SWAP1 POP SWAP2 SWAP1 POP JUMP JUMPDEST PUSH0 PUSH2 0x4B3 DUP3 PUSH2 0x3AA JUMP JUMPDEST PUSH2 0x4BD DUP2 DUP6 PUSH2 0x3B4 JUMP JUMPDEST SWAP4 POP DUP4 PUSH1 0x20 DUP3 MUL DUP6 ADD PUSH2 0x4CF DUP6 PUSH2 0x3C4 JUMP JUMPDEST DUP1 PUSH0 JUMPDEST DUP6 DUP2 LT ISZERO PUSH2 0x50A JUMPI DUP5 DUP5 SUB DUP10 MSTORE DUP2 MLOAD PUSH2 0x4EB DUP6 DUP3 PUSH2 0x48A JUMP JUMPDEST SWAP5 POP PUSH2 0x4F6 DUP4 PUSH2 0x49D JUMP JUMPDEST SWAP3 POP PUSH1 0x20 DUP11 ADD SWAP10 POP POP PUSH1 0x1 DUP2 ADD SWAP1 POP PUSH2 0x4D2 JUMP JUMPDEST POP DUP3 SWAP8 POP DUP8 SWAP6 POP POP POP POP POP POP SWAP3 SWAP2 POP POP JUMP JUMPDEST PUSH0 PUSH1 0x20 DUP3 ADD SWAP1 POP DUP2 DUP2 SUB PUSH0 DUP4 ADD MSTORE PUSH2 0x534 DUP2 DUP5 PUSH2 0x4A9 JUMP JUMPDEST SWAP1 POP SWAP3 SWAP2 POP POP JUMP JUMPDEST PUSH32 0x4E487B7100000000000000000000000000000000000000000000000000000000 PUSH0 MSTORE PUSH1 0x32 PUSH1 0x4 MSTORE PUSH1 0x24 PUSH0 REVERT JUMPDEST PUSH0 PUSH0 REVERT JUMPDEST PUSH0 PUSH0 REVERT JUMPDEST PUSH0 PUSH0 REVERT JUMPDEST PUSH0 PUSH0 DUP4 CALLDATALOAD PUSH1 0x1 PUSH1 0x20 SUB DUP5 CALLDATASIZE SUB SUB DUP2 SLT PUSH2 0x591 JUMPI PUSH2 0x590 PUSH2 0x569 JUMP JUMPDEST JUMPDEST DUP1 DUP5 ADD SWAP3 POP DUP3 CALLDATALOAD SWAP2 POP PUSH8 0xFFFFFFFFFFFFFFFF DUP3 GT ISZERO PUSH2 0x5B3 JUMPI PUSH2 0x5B2 PUSH2 0x56D JUMP JUMPDEST JUMPDEST PUSH1 0x20 DUP4 ADD SWAP3 POP PUSH1 0x20 DUP3 MUL CALLDATASIZE SUB DUP4 SGT ISZERO PUSH2 0x5CF JUMPI PUSH2 0x5CE PUSH2 0x571 JUMP JUMPDEST JUMPDEST POP SWAP3 POP SWAP3 SWAP1 POP JUMP JUMPDEST PUSH32 0x4E487B7100000000000000000000000000000000000000000000000000000000 PUSH0 MSTORE PUSH1 0x11 PUSH1 0x4 MSTORE PUSH1 0x24 PUSH0 REVERT JUMPDEST PUSH0 PUSH2 0x60E DUP3 PUSH2 0x379 JUMP JUMPDEST SWAP2 POP PUSH2 0x619 DUP4 PUSH2 0x379 JUMP JUMPDEST SWAP3 POP DUP3 DUP3 ADD SWAP1 POP DUP1 DUP3 GT ISZERO PUSH2 0x631 JUMPI PUSH2 0x630 PUSH2 0x5D7 JUMP JUMPDEST JUMPDEST SWAP3 SWAP2 POP POP JUMP JUMPDEST PUSH0 PUSH1 0x1F NOT PUSH1 0x1F DUP4 ADD AND SWAP1 POP SWAP2 SWAP1 POP JUMP JUMPDEST PUSH32 0x4E487B7100000000000000000000000000000000000000000000000000000000 PUSH0 MSTORE PUSH1 0x41 PUSH1 0x4 MSTORE PUSH1 0x24 PUSH0 REVERT JUMPDEST PUSH2 0x67D DUP3 PUSH2 0x637 JUMP JUMPDEST DUP2 ADD DUP2 DUP2 LT PUSH8 0xFFFFFFFFFFFFFFFF DUP3 GT OR ISZERO PUSH2 0x69C JUMPI PUSH2 0x69B PUSH2 0x647 JUMP JUMPDEST JUMPDEST DUP1 PUSH1 0x40 MSTORE POP POP POP JUMP JUMPDEST PUSH0 PUSH2 0x6AE PUSH2 0x2BC JUMP JUMPDEST SWAP1 POP PUSH2 0x6BA DUP3 DUP3 PUSH2 0x674 JUMP JUMPDEST SWAP2 SWAP1 POP JUMP JUMPDEST PUSH0 PUSH8 0xFFFFFFFFFFFFFFFF DUP3 GT ISZERO PUSH2 0x6D9 JUMPI PUSH2 0x6D8 PUSH2 0x647 JUMP JUMPDEST JUMPDEST PUSH1 0x20 DUP3 MUL SWAP1 POP PUSH1 0x20 DUP2 ADD SWAP1 POP SWAP2 SWAP1 POP JUMP JUMPDEST PUSH0 PUSH8 0xFFFFFFFFFFFFFFFF DUP3 GT ISZERO PUSH2 0x704 JUMPI PUSH2 0x703 PUSH2 0x647 JUMP JUMPDEST JUMPDEST PUSH1 0x20 DUP3 MUL SWAP1 POP PUSH1 0x20 DUP2 ADD SWAP1 POP SWAP2 SWAP1 POP JUMP JUMPDEST PUSH2 0x71E DUP2 PUSH2 0x379 JUMP JUMPDEST DUP2 EQ PUSH2 0x728 JUMPI PUSH0 PUSH0 REVERT JUMPDEST POP JUMP JUMPDEST PUSH0 DUP2 CALLDATALOAD SWAP1 POP PUSH2 0x739 DUP2 PUSH2 0x715 JUMP JUMPDEST SWAP3 SWAP2 POP POP JUMP JUMPDEST PUSH0 PUSH2 0x751 PUSH2 0x74C DUP5 PUSH2 0x6EA JUMP JUMPDEST PUSH2 0x6A5 JUMP JUMPDEST SWAP1 POP DUP1 DUP4 DUP3 MSTORE PUSH1 0x20 DUP3 ADD SWAP1 POP PUSH1 0x20 DUP5 MUL DUP4 ADD DUP6 DUP2 GT ISZERO PUSH2 0x774 JUMPI PUSH2 0x773 PUSH2 0x2D5 JUMP JUMPDEST JUMPDEST DUP4 JUMPDEST DUP2 DUP2 LT ISZERO PUSH2 0x79D JUMPI DUP1 PUSH2 0x789 DUP9 DUP3 PUSH2 0x72B JUMP JUMPDEST DUP5 MSTORE PUSH1 0x20 DUP5 ADD SWAP4 POP POP PUSH1 0x20 DUP2 ADD SWAP1 POP PUSH2 0x776 JUMP JUMPDEST POP POP POP SWAP4 SWAP3 POP POP POP JUMP JUMPDEST PUSH0 DUP3 PUSH1 0x1F DUP4 ADD SLT PUSH2 0x7BB JUMPI PUSH2 0x7BA PUSH2 0x2CD JUMP JUMPDEST JUMPDEST DUP2 CALLDATALOAD PUSH2 0x7CB DUP5 DUP3 PUSH1 0x20 DUP7 ADD PUSH2 0x73F JUMP JUMPDEST SWAP2 POP POP SWAP3 SWAP2 POP POP JUMP JUMPDEST PUSH0 PUSH2 0x7E6 PUSH2 0x7E1 DUP5 PUSH2 0x6BF JUMP JUMPDEST PUSH2 0x6A5 JUMP JUMPDEST SWAP1 POP DUP1 DUP4 DUP3 MSTORE PUSH1 0x20 DUP3 ADD SWAP1 POP PUSH1 0x20 DUP5 MUL DUP4 ADD DUP6 DUP2 GT ISZERO PUSH2 0x809 JUMPI PUSH2 0x808 PUSH2 0x2D5 JUMP JUMPDEST JUMPDEST DUP4 JUMPDEST DUP2 DUP2 LT ISZERO PUSH2 0x850 JUMPI DUP1 CALLDATALOAD PUSH8 0xFFFFFFFFFFFFFFFF DUP2 GT ISZERO PUSH2 0x82E JUMPI PUSH2 0x82D PUSH2 0x2CD JUMP JUMPDEST JUMPDEST DUP1 DUP7 ADD PUSH2 0x83B DUP10 DUP3 PUSH2 0x7A7 JUMP JUMPDEST DUP6 MSTORE PUSH1 0x20 DUP6 ADD SWAP5 POP POP POP PUSH1 0x20 DUP2 ADD SWAP1 POP PUSH2 0x80B JUMP JUMPDEST POP POP POP SWAP4 SWAP3 POP POP POP JUMP JUMPDEST PUSH0 PUSH2 0x866 CALLDATASIZE DUP5 DUP5 PUSH2 0x7D4 JUMP JUMPDEST SWAP1 POP SWAP3 SWAP2 POP POP JUMP INVALID LOG2 PUSH5 0x6970667358 0x22 SLT KECCAK256 ADDRESS GASPRICE SMOD PUSH1 0x2D PUSH14 0x91A8872D1E62309857A08A5B4448 RETURN SELFDESTRUCT 0xCE 0xBC CALLDATASIZE EOFCREATE 0xD9 BLOBHASH CALLDATASIZE EXTSTATICCALL 0x22 0xA5 PUSH5 0x736F6C6343 STOP ADDMOD 0x22 STOP CALLER "
		},
		"gasEstimates": {
			"creation": {
				"codeDepositCost": "442400",
				"executionCost": "478",
				"totalCost": "442878"
			},
			"external": {
				"calculateNestedSum(uint256[][])": "infinite",
				"getOuterLength(uint256[][])": "734",
				"processAndStore(uint256[][])": "infinite",
				"readNestedArray(uint256[][])": "infinite",
				"totalSum()": "2424"
			}
		},
		"methodIdentifiers": {
			"calculateNestedSum(uint256[][])": "71a7c188",
			"getOuterLength(uint256[][])": "b6530583",
			"processAndStore(uint256[][])": "18f1024d",
			"readNestedArray(uint256[][])": "545f46c2",
			"totalSum()": "4869f99d"
		}
	},
	"abi": [
		{
			"inputs": [
				{
					"internalType": "uint256[][]",
					"name": "_matrix",
					"type": "uint256[][]"
				}
			],
			"name": "calculateNestedSum",
			"outputs": [
				{
					"internalType": "uint256",
					"name": "",
					"type": "uint256"
				}
			],
			"stateMutability": "pure",
			"type": "function"
		},
		{
			"inputs": [
				{
					"internalType": "uint256[][]",
					"name": "_matrix",
					"type": "uint256[][]"
				}
			],
			"name": "getOuterLength",
			"outputs": [
				{
					"internalType": "uint256",
					"name": "",
					"type": "uint256"
				}
			],
			"stateMutability": "pure",
			"type": "function"
		},
		{
			"inputs": [
				{
					"internalType": "uint256[][]",
					"name": "_matrix",
					"type": "uint256[][]"
				}
			],
			"name": "processAndStore",
			"outputs": [],
			"stateMutability": "nonpayable",
			"type": "function"
		},
		{
			"inputs": [
				{
					"internalType": "uint256[][]",
					"name": "_matrix",
					"type": "uint256[][]"
				}
			],
			"name": "readNestedArray",
			"outputs": [
				{
					"internalType": "uint256[][]",
					"name": "",
					"type": "uint256[][]"
				}
			],
			"stateMutability": "pure",
			"type": "function"
		},
		{
			"inputs": [],
			"name": "totalSum",
			"outputs": [
				{
					"internalType": "uint256",
					"name": "",
					"type": "uint256"
				}
			],
			"stateMutability": "view",
			"type": "function"
		}
	]
}