{
	"data": {
		"bytecode": {
			"linkReferences": {},
			"object": "6080604052348015600e575f5ffd5b506102cb8061001c5f395ff3fe608060405234801561000f575f5ffd5b5060043610610055575f3560e01c806343183834146100595780635478f4681461007757806361bc221a14610095578063a7a38f0b146100b3578063ad576fa8146100e3575b5f5ffd5b6100616100ff565b60405161006e91906101af565b60405180910390f35b61007f610105565b60405161008c91906101af565b60405180910390f35b61009d610111565b6040516100aa91906101af565b60405180910390f35b6100cd60048036038101906100c891906101f6565b610116565b6040516100da91906101af565b60405180910390f35b6100fd60048036038101906100f891906101f6565b610136565b005b60015481565b5f600280549050905090565b5f5481565b60028181548110610125575f80fd5b905f5260205f20015f915090505481565b5f5f90505b81811015610193575f5f8154809291906101549061024e565b919050555080600181905550600281908060018154018082558091505060019003905f5260205f20015f9091909190915055808060010191505061013b565b5050565b5f819050919050565b6101a981610197565b82525050565b5f6020820190506101c25f8301846101a0565b92915050565b5f5ffd5b6101d581610197565b81146101df575f5ffd5b50565b5f813590506101f0816101cc565b92915050565b5f6020828403121561020b5761020a6101c8565b5b5f610218848285016101e2565b91505092915050565b7f4e487b71000000000000000000000000000000000000000000000000000000005f52601160045260245ffd5b5f61025882610197565b91507fffffffffffffffffffffffffffffffffffffffffffffffffffffffffffffffff820361028a57610289610221565b5b60018201905091905056fea2646970667358221220b1deb030b02921508f7177ba4e6b6b1778dc726c93d23fd29e7f72db75b6524c64736f6c63430008220033",
			"opcodes": "PUSH1 0x80 PUSH1 0x40 MSTORE CALLVALUE DUP1 ISZERO PUSH1 0xE JUMPI PUSH0 PUSH0 REVERT JUMPDEST POP PUSH2 0x2CB DUP1 PUSH2 0x1C PUSH0 CODECOPY PUSH0 RETURN INVALID PUSH1 0x80 PUSH1 0x40 MSTORE CALLVALUE DUP1 ISZERO PUSH2 0xF JUMPI PUSH0 PUSH0 REVERT JUMPDEST POP PUSH1 0x4 CALLDATASIZE LT PUSH2 0x55 JUMPI PUSH0 CALLDATALOAD PUSH1 0xE0 SHR DUP1 PUSH4 0x43183834 EQ PUSH2 0x59 JUMPI DUP1 PUSH4 0x5478F468 EQ PUSH2 0x77 JUMPI DUP1 PUSH4 0x61BC221A EQ PUSH2 0x95 JUMPI DUP1 PUSH4 0xA7A38F0B EQ PUSH2 0xB3 JUMPI DUP1 PUSH4 0xAD576FA8 EQ PUSH2 0xE3 JUMPI JUMPDEST PUSH0 PUSH0 REVERT JUMPDEST PUSH2 0x61 PUSH2 0xFF JUMP JUMPDEST PUSH1 0x40 MLOAD PUSH2 0x6E SWAP2 SWAP1 PUSH2 0x1AF JUMP JUMPDEST PUSH1 0x40 MLOAD DUP1 SWAP2 SUB SWAP1 RETURN JUMPDEST PUSH2 0x7F PUSH2 0x105 JUMP JUMPDEST PUSH1 0x40 MLOAD PUSH2 0x8C SWAP2 SWAP1 PUSH2 0x1AF JUMP JUMPDEST PUSH1 0x40 MLOAD DUP1 SWAP2 SUB SWAP1 RETURN JUMPDEST PUSH2 0x9D PUSH2 0x111 JUMP JUMPDEST PUSH1 0x40 MLOAD PUSH2 0xAA SWAP2 SWAP1 PUSH2 0x1AF JUMP JUMPDEST PUSH1 0x40 MLOAD DUP1 SWAP2 SUB SWAP1 RETURN JUMPDEST PUSH2 0xCD PUSH1 0x4 DUP1 CALLDATASIZE SUB DUP2 ADD SWAP1 PUSH2 0xC8 SWAP2 SWAP1 PUSH2 0x1F6 JUMP JUMPDEST PUSH2 0x116 JUMP JUMPDEST PUSH1 0x40 MLOAD PUSH2 0xDA SWAP2 SWAP1 PUSH2 0x1AF JUMP JUMPDEST PUSH1 0x40 MLOAD DUP1 SWAP2 SUB SWAP1 RETURN JUMPDEST PUSH2 0xFD PUSH1 0x4 DUP1 CALLDATASIZE SUB DUP2 ADD SWAP1 PUSH2 0xF8 SWAP2 SWAP1 PUSH2 0x1F6 JUMP JUMPDEST PUSH2 0x136 JUMP JUMPDEST STOP JUMPDEST PUSH1 0x1 SLOAD DUP2 JUMP JUMPDEST PUSH0 PUSH1 0x2 DUP1 SLOAD SWAP1 POP SWAP1 POP SWAP1 JUMP JUMPDEST PUSH0 SLOAD DUP2 JUMP JUMPDEST PUSH1 0x2 DUP2 DUP2 SLOAD DUP2 LT PUSH2 0x125 JUMPI PUSH0 DUP1 REVERT JUMPDEST SWAP1 PUSH0 MSTORE PUSH1 0x20 PUSH0 KECCAK256 ADD PUSH0 SWAP2 POP SWAP1 POP SLOAD DUP2 JUMP JUMPDEST PUSH0 PUSH0 SWAP1 POP JUMPDEST DUP2 DUP2 LT ISZERO PUSH2 0x193 JUMPI PUSH0 PUSH0 DUP2 SLOAD DUP1 SWAP3 SWAP2 SWAP1 PUSH2 0x154 SWAP1 PUSH2 0x24E JUMP JUMPDEST SWAP2 SWAP1 POP SSTORE POP DUP1 PUSH1 0x1 DUP2 SWAP1 SSTORE POP PUSH1 0x2 DUP2 SWAP1 DUP1 PUSH1 0x1 DUP2 SLOAD ADD DUP1 DUP3 SSTORE DUP1 SWAP2 POP POP PUSH1 0x1 SWAP1 SUB SWAP1 PUSH0 MSTORE PUSH1 0x20 PUSH0 KECCAK256 ADD PUSH0 SWAP1 SWAP2 SWAP1 SWAP2 SWAP1 SWAP2 POP SSTORE DUP1 DUP1 PUSH1 0x1 ADD SWAP2 POP POP PUSH2 0x13B JUMP JUMPDEST POP POP JUMP JUMPDEST PUSH0 DUP2 SWAP1 POP SWAP2 SWAP1 POP JUMP JUMPDEST PUSH2 0x1A9 DUP2 PUSH2 0x197 JUMP JUMPDEST DUP3 MSTORE POP POP JUMP JUMPDEST PUSH0 PUSH1 0x20 DUP3 ADD SWAP1 POP PUSH2 0x1C2 PUSH0 DUP4 ADD DUP5 PUSH2 0x1A0 JUMP JUMPDEST SWAP3 SWAP2 POP POP JUMP JUMPDEST PUSH0 PUSH0 REVERT JUMPDEST PUSH2 0x1D5 DUP2 PUSH2 0x197 JUMP JUMPDEST DUP2 EQ PUSH2 0x1DF JUMPI PUSH0 PUSH0 REVERT JUMPDEST POP JUMP JUMPDEST PUSH0 DUP2 CALLDATALOAD SWAP1 POP PUSH2 0x1F0 DUP2 PUSH2 0x1CC JUMP JUMPDEST SWAP3 SWAP2 POP POP JUMP JUMPDEST PUSH0 PUSH1 0x20 DUP3 DUP5 SUB SLT ISZERO PUSH2 0x20B JUMPI PUSH2 0x20A PUSH2 0x1C8 JUMP JUMPDEST JUMPDEST PUSH0 PUSH2 0x218 DUP5 DUP3 DUP6 ADD PUSH2 0x1E2 JUMP JUMPDEST SWAP2 POP POP SWAP3 SWAP2 POP POP JUMP JUMPDEST PUSH32 0x4E487B7100000000000000000000000000000000000000000000000000000000 PUSH0 MSTORE PUSH1 0x11 PUSH1 0x4 MSTORE PUSH1 0x24 PUSH0 REVERT JUMPDEST PUSH0 PUSH2 0x258 DUP3 PUSH2 0x197 JUMP JUMPDEST SWAP2 POP PUSH32 0xFFFFFFFFFFFFFFFFFFFFFFFFFFFFFFFFFFFFFFFFFFFFFFFFFFFFFFFFFFFFFFFF DUP3 SUB PUSH2 0x28A JUMPI PUSH2 0x289 PUSH2 0x221 JUMP JUMPDEST JUMPDEST PUSH1 0x1 DUP3 ADD SWAP1 POP SWAP2 SWAP1 POP JUMP INVALID LOG2 PUSH5 0x6970667358 0x22 SLT KECCAK256 0xB1 0xDE 0xB0 ADDRESS 0xB0 0x29 0x21 POP DUP16 PUSH18 0x77BA4E6B6B1778DC726C93D23FD29E7F72DB PUSH22 0xB6524C64736F6C634300082200330000000000000000 "
		},
		"gasEstimates": {
			"creation": {
				"codeDepositCost": "143000",
				"executionCost": "188",
				"totalCost": "143188"
			},
			"external": {
				"counter()": "2446",
				"getHistoryLength()": "2440",
				"heavyWrites(uint256)": "infinite",
				"history(uint256)": "infinite",
				"lastValue()": "2403"
			}
		},
		"methodIdentifiers": {
			"counter()": "61bc221a",
			"getHistoryLength()": "5478f468",
			"heavyWrites(uint256)": "ad576fa8",
			"history(uint256)": "a7a38f0b",
			"lastValue()": "43183834"
		}
	},
	"abi": [
		{
			"inputs": [],
			"name": "counter",
			"outputs": [
				{
					"internalType": "uint256",
					"name": "",
					"type": "uint256"
				}
			],
			"stateMutability": "view",
			"type": "function"
		},
		{
			"inputs": [],
			"name": "getHistoryLength",
			"outputs": [
				{
					"internalType": "uint256",
					"name": "",
					"type": "uint256"
				}
			],
			"stateMutability": "view",
			"type": "function"
		},
		{
			"inputs": [
				{
					"internalType": "uint256",
					"name": "n",
					"type": "uint256"
				}
			],
			"name": "heavyWrites",
			"outputs": [],
			"stateMutability": "nonpayable",
			"type": "function"
		},
		{
			"inputs": [
				{
					"internalType": "uint256",
					"name": "",
					"type": "uint256"
				}
			],
			"name": "history",
			"outputs": [
				{
					"internalType": "uint256",
					"name": "",
					"type": "uint256"
				}
			],
			"stateMutability": "view",
			"type": "function"
		},
		{
			"inputs": [],
			"name": "lastValue",
			"outputs": [
				{
					"internalType": "uint256",
					"name": "",
					"type": "uint256"
				}
			],
			"stateMutability": "view",
			"type": "function"
		}
	]
}