{
	"data": {
		"bytecode": {
			"linkReferences": {},
			"object": "6080604052348015600e575f5ffd5b506108ee8061001c5f395ff3fe608060405234801561000f575f5ffd5b5060043610610055575f3560e01c80633e8bb4b714610059578063d30257a114610089578063d53335b0146100b9578063f7b229a2146100d7578063fc0c4f2e14610107575b5f5ffd5b610073600480360381019061006e91906102ce565b610123565b60405161008091906103d9565b60405180910390f35b6100a3600480360381019061009e9190610423565b61016e565b6040516100b0919061045d565b60405180910390f35b6100c1610177565b6040516100ce91906104e6565b60405180910390f35b6100f160048036038101906100ec919061055b565b610202565b6040516100fe91906104e6565b60405180910390f35b610121600480360381019061011c919061055b565b610250565b005b60608282808060200260200160405190810160405280939291908181526020018383602002808284375f81840152601f19601f82011690508083019250505050505050905092915050565b5f819050919050565b5f8054610183906105d3565b80601f01602080910402602001604051908101604052809291908181526020018280546101af906105d3565b80156101fa5780601f106101d1576101008083540402835291602001916101fa565b820191905f5260205f20905b8154815290600101906020018083116101dd57829003601f168201915b505050505081565b606082828080601f0160208091040260200160405190810160405280939291908181526020018383808284375f81840152601f19601f82011690508083019250505050505050905092915050565b81815f91826102609291906107eb565b505050565b5f5ffd5b5f5ffd5b5f5ffd5b5f5ffd5b5f5ffd5b5f5f83601f84011261028e5761028d61026d565b5b8235905067ffffffffffffffff8111156102ab576102aa610271565b5b6020830191508360208202830111156102c7576102c6610275565b5b9250929050565b5f5f602083850312156102e4576102e3610265565b5b5f83013567ffffffffffffffff81111561030157610300610269565b5b61030d85828601610279565b92509250509250929050565b5f81519050919050565b5f82825260208201905092915050565b5f819050602082019050919050565b5f819050919050565b61035481610342565b82525050565b5f610365838361034b565b60208301905092915050565b5f602082019050919050565b5f61038782610319565b6103918185610323565b935061039c83610333565b805f5b838110156103cc5781516103b3888261035a565b97506103be83610371565b92505060018101905061039f565b5085935050505092915050565b5f6020820190508181035f8301526103f1818461037d565b905092915050565b61040281610342565b811461040c575f5ffd5b50565b5f8135905061041d816103f9565b92915050565b5f6020828403121561043857610437610265565b5b5f6104458482850161040f565b91505092915050565b61045781610342565b82525050565b5f6020820190506104705f83018461044e565b92915050565b5f81519050919050565b5f82825260208201905092915050565b8281835e5f83830152505050565b5f601f19601f8301169050919050565b5f6104b882610476565b6104c28185610480565b93506104d2818560208601610490565b6104db8161049e565b840191505092915050565b5f6020820190508181035f8301526104fe81846104ae565b905092915050565b5f5f83601f84011261051b5761051a61026d565b5b8235905067ffffffffffffffff81111561053857610537610271565b5b60208301915083600182028301111561055457610553610275565b5b9250929050565b5f5f6020838503121561057157610570610265565b5b5f83013567ffffffffffffffff81111561058e5761058d610269565b5b61059a85828601610506565b92509250509250929050565b7f4e487b71000000000000000000000000000000000000000000000000000000005f52602260045260245ffd5b5f60028204905060018216806105ea57607f821691505b6020821081036105fd576105fc6105a6565b5b50919050565b5f82905092915050565b7f4e487b71000000000000000000000000000000000000000000000000000000005f52604160045260245ffd5b5f819050815f5260205f209050919050565b5f6020601f8301049050919050565b5f82821b905092915050565b5f600883026106967fffffffffffffffffffffffffffffffffffffffffffffffffffffffffffffffff8261065b565b6106a0868361065b565b95508019841693508086168417925050509392505050565b5f819050919050565b5f6106db6106d66106d184610342565b6106b8565b610342565b9050919050565b5f819050919050565b6106f4836106c1565b610708610700826106e2565b848454610667565b825550505050565b5f5f905090565b61071f610710565b61072a8184846106eb565b505050565b5f5b82811015610750576107455f828401610717565b600181019050610731565b505050565b601f8211156107a357828211156107a25761076f8161063a565b6107788361064c565b6107818561064c565b602086101561078e575f90505b80830161079d8284038261072f565b505050505b5b505050565b5f82821c905092915050565b5f6107c35f19846008026107a8565b1980831691505092915050565b5f6107db83836107b4565b9150826002028217905092915050565b6107f58383610603565b67ffffffffffffffff81111561080e5761080d61060d565b5b61081882546105d3565b610823828285610755565b5f601f831160018114610850575f841561083e578287013590505b61084885826107d0565b8655506108af565b601f19841661085e8661063a565b5f5b8281101561088557848901358255600182019150602085019450602081019050610860565b868310156108a2578489013561089e601f8916826107b4565b8355505b6001600288020188555050505b5050505050505056fea2646970667358221220d35c1f5af8f90b0b785b8f21549fd469ca6dfc2cf9d0621e654686f7c456463f64736f6c63430008220033",
			"opcodes": "PUSH1 0x80 PUSH1 0x40 MSTORE CALLVALUE DUP1 ISZERO PUSH1 0xE JUMPI PUSH0 PUSH0 REVERT JUMPDEST POP PUSH2 0x8EE DUP1 PUSH2 0x1C PUSH0 CODECOPY PUSH0 RETURN INVALID PUSH1 0x80 PUSH1 0x40 MSTORE CALLVALUE DUP1 ISZERO PUSH2 0xF JUMPI PUSH0 PUSH0 REVERT JUMPDEST POP PUSH1 0x4 CALLDATASIZE LT PUSH2 0x55 JUMPI PUSH0 CALLDATALOAD PUSH1 0xE0 SHR DUP1 PUSH4 0x3E8BB4B7 EQ PUSH2 0x59 JUMPI DUP1 PUSH4 0xD30257A1 EQ PUSH2 0x89 JUMPI DUP1 PUSH4 0xD53335B0 EQ PUSH2 0xB9 JUMPI DUP1 PUSH4 0xF7B229A2 EQ PUSH2 0xD7 JUMPI DUP1 PUSH4 0xFC0C4F2E EQ PUSH2 0x107 JUMPI JUMPDEST PUSH0 PUSH0 REVERT JUMPDEST PUSH2 0x73 PUSH1 0x4 DUP1 CALLDATASIZE SUB DUP2 ADD SWAP1 PUSH2 0x6E SWAP2 SWAP1 PUSH2 0x2CE JUMP JUMPDEST PUSH2 0x123 JUMP JUMPDEST PUSH1 0x40 MLOAD PUSH2 0x80 SWAP2 SWAP1 PUSH2 0x3D9 JUMP JUMPDEST PUSH1 0x40 MLOAD DUP1 SWAP2 SUB SWAP1 RETURN JUMPDEST PUSH2 0xA3 PUSH1 0x4 DUP1 CALLDATASIZE SUB DUP2 ADD SWAP1 PUSH2 0x9E SWAP2 SWAP1 PUSH2 0x423 JUMP JUMPDEST PUSH2 0x16E JUMP JUMPDEST PUSH1 0x40 MLOAD PUSH2 0xB0 SWAP2 SWAP1 PUSH2 0x45D JUMP JUMPDEST PUSH1 0x40 MLOAD DUP1 SWAP2 SUB SWAP1 RETURN JUMPDEST PUSH2 0xC1 PUSH2 0x177 JUMP JUMPDEST PUSH1 0x40 MLOAD PUSH2 0xCE SWAP2 SWAP1 PUSH2 0x4E6 JUMP JUMPDEST PUSH1 0x40 MLOAD DUP1 SWAP2 SUB SWAP1 RETURN JUMPDEST PUSH2 0xF1 PUSH1 0x4 DUP1 CALLDATASIZE SUB DUP2 ADD SWAP1 PUSH2 0xEC SWAP2 SWAP1 PUSH2 0x55B JUMP JUMPDEST PUSH2 0x202 JUMP JUMPDEST PUSH1 0x40 MLOAD PUSH2 0xFE SWAP2 SWAP1 PUSH2 0x4E6 JUMP JUMPDEST PUSH1 0x40 MLOAD DUP1 SWAP2 SUB SWAP1 RETURN JUMPDEST PUSH2 0x121 PUSH1 0x4 DUP1 CALLDATASIZE SUB DUP2 ADD SWAP1 PUSH2 0x11C SWAP2 SWAP1 PUSH2 0x55B JUMP JUMPDEST PUSH2 0x250 JUMP JUMPDEST STOP JUMPDEST PUSH1 0x60 DUP3 DUP3 DUP1 DUP1 PUSH1 0x20 MUL PUSH1 0x20 ADD PUSH1 0x40 MLOAD SWAP1 DUP2 ADD PUSH1 0x40 MSTORE DUP1 SWAP4 SWAP3 SWAP2 SWAP1 DUP2 DUP2 MSTORE PUSH1 0x20 ADD DUP4 DUP4 PUSH1 0x20 MUL DUP1 DUP3 DUP5 CALLDATACOPY PUSH0 DUP2 DUP5 ADD MSTORE PUSH1 0x1F NOT PUSH1 0x1F DUP3 ADD AND SWAP1 POP DUP1 DUP4 ADD SWAP3 POP POP POP POP POP POP POP SWAP1 POP SWAP3 SWAP2 POP POP JUMP JUMPDEST PUSH0 DUP2 SWAP1 POP SWAP2 SWAP1 POP JUMP JUMPDEST PUSH0 DUP1 SLOAD PUSH2 0x183 SWAP1 PUSH2 0x5D3 JUMP JUMPDEST DUP1 PUSH1 0x1F ADD PUSH1 0x20 DUP1 SWAP2 DIV MUL PUSH1 0x20 ADD PUSH1 0x40 MLOAD SWAP1 DUP2 ADD PUSH1 0x40 MSTORE DUP1 SWAP3 SWAP2 SWAP1 DUP2 DUP2 MSTORE PUSH1 0x20 ADD DUP3 DUP1 SLOAD PUSH2 0x1AF SWAP1 PUSH2 0x5D3 JUMP JUMPDEST DUP1 ISZERO PUSH2 0x1FA JUMPI DUP1 PUSH1 0x1F LT PUSH2 0x1D1 JUMPI PUSH2 0x100 DUP1 DUP4 SLOAD DIV MUL DUP4 MSTORE SWAP2 PUSH1 0x20 ADD SWAP2 PUSH2 0x1FA JUMP JUMPDEST DUP3 ADD SWAP2 SWAP1 PUSH0 MSTORE PUSH1 0x20 PUSH0 KECCAK256 SWAP1 JUMPDEST DUP2 SLOAD DUP2 MSTORE SWAP1 PUSH1 0x1 ADD SWAP1 PUSH1 0x20 ADD DUP1 DUP4 GT PUSH2 0x1DD JUMPI DUP3 SWAP1 SUB PUSH1 0x1F AND DUP3 ADD SWAP2 JUMPDEST POP POP POP POP POP DUP2 JUMP JUMPDEST PUSH1 0x60 DUP3 DUP3 DUP1 DUP1 PUSH1 0x1F ADD PUSH1 0x20 DUP1 SWAP2 DIV MUL PUSH1 0x20 ADD PUSH1 0x40 MLOAD SWAP1 DUP2 ADD PUSH1 0x40 MSTORE DUP1 SWAP4 SWAP3 SWAP2 SWAP1 DUP2 DUP2 MSTORE PUSH1 0x20 ADD DUP4 DUP4 DUP1 DUP3 DUP5 CALLDATACOPY PUSH0 DUP2 DUP5 ADD MSTORE PUSH1 0x1F NOT PUSH1 0x1F DUP3 ADD AND SWAP1 POP DUP1 DUP4 ADD SWAP3 POP POP POP POP POP POP POP SWAP1 POP SWAP3 SWAP2 POP POP JUMP JUMPDEST DUP2 DUP2 PUSH0 SWAP2 DUP3 PUSH2 0x260 SWAP3 SWAP2 SWAP1 PUSH2 0x7EB JUMP JUMPDEST POP POP POP JUMP JUMPDEST PUSH0 PUSH0 REVERT JUMPDEST PUSH0 PUSH0 REVERT JUMPDEST PUSH0 PUSH0 REVERT JUMPDEST PUSH0 PUSH0 REVERT JUMPDEST PUSH0 PUSH0 REVERT JUMPDEST PUSH0 PUSH0 DUP4 PUSH1 0x1F DUP5 ADD SLT PUSH2 0x28E JUMPI PUSH2 0x28D PUSH2 0x26D JUMP JUMPDEST JUMPDEST DUP3 CALLDATALOAD SWAP1 POP PUSH8 0xFFFFFFFFFFFFFFFF DUP2 GT ISZERO PUSH2 0x2AB JUMPI PUSH2 0x2AA PUSH2 0x271 JUMP JUMPDEST JUMPDEST PUSH1 0x20 DUP4 ADD SWAP2 POP DUP4 PUSH1 0x20 DUP3 MUL DUP4 ADD GT ISZERO PUSH2 0x2C7 JUMPI PUSH2 0x2C6 PUSH2 0x275 JUMP JUMPDEST JUMPDEST SWAP3 POP SWAP3 SWAP1 POP JUMP JUMPDEST PUSH0 PUSH0 PUSH1 0x20 DUP4 DUP6 SUB SLT ISZERO PUSH2 0x2E4 JUMPI PUSH2 0x2E3 PUSH2 0x265 JUMP JUMPDEST JUMPDEST PUSH0 DUP4 ADD CALLDATALOAD PUSH8 0xFFFFFFFFFFFFFFFF DUP2 GT ISZERO PUSH2 0x301 JUMPI PUSH2 0x300 PUSH2 0x269 JUMP JUMPDEST JUMPDEST PUSH2 0x30D DUP6 DUP3 DUP7 ADD PUSH2 0x279 JUMP JUMPDEST SWAP3 POP SWAP3 POP POP SWAP3 POP SWAP3 SWAP1 POP JUMP JUMPDEST PUSH0 DUP2 MLOAD SWAP1 POP SWAP2 SWAP1 POP JUMP JUMPDEST PUSH0 DUP3 DUP3 MSTORE PUSH1 0x20 DUP3 ADD SWAP1 POP SWAP3 SWAP2 POP POP JUMP JUMPDEST PUSH0 DUP2 SWAP1 POP PUSH1 0x20 DUP3 ADD SWAP1 POP SWAP2 SWAP1 POP JUMP JUMPDEST PUSH0 DUP2 SWAP1 POP SWAP2 SWAP1 POP JUMP JUMPDEST PUSH2 0x354 DUP2 PUSH2 0x342 JUMP JUMPDEST DUP3 MSTORE POP POP JUMP JUMPDEST PUSH0 PUSH2 0x365 DUP4 DUP4 PUSH2 0x34B JUMP JUMPDEST PUSH1 0x20 DUP4 ADD SWAP1 POP SWAP3 SWAP2 POP POP JUMP JUMPDEST PUSH0 PUSH1 0x20 DUP3 ADD SWAP1 POP SWAP2 SWAP1 POP JUMP JUMPDEST PUSH0 PUSH2 0x387 DUP3 PUSH2 0x319 JUMP JUMPDEST PUSH2 0x391 DUP2 DUP6 PUSH2 0x323 JUMP JUMPDEST SWAP4 POP PUSH2 0x39C DUP4 PUSH2 0x333 JUMP JUMPDEST DUP1 PUSH0 JUMPDEST DUP4 DUP2 LT ISZERO PUSH2 0x3CC JUMPI DUP2 MLOAD PUSH2 0x3B3 DUP9 DUP3 PUSH2 0x35A JUMP JUMPDEST SWAP8 POP PUSH2 0x3BE DUP4 PUSH2 0x371 JUMP JUMPDEST SWAP3 POP POP PUSH1 0x1 DUP2 ADD SWAP1 POP PUSH2 0x39F JUMP JUMPDEST POP DUP6 SWAP4 POP POP POP POP SWAP3 SWAP2 POP POP JUMP JUMPDEST PUSH0 PUSH1 0x20 DUP3 ADD SWAP1 POP DUP2 DUP2 SUB PUSH0 DUP4 ADD MSTORE PUSH2 0x3F1 DUP2 DUP5 PUSH2 0x37D JUMP JUMPDEST SWAP1 POP SWAP3 SWAP2 POP POP JUMP JUMPDEST PUSH2 0x402 DUP2 PUSH2 0x342 JUMP JUMPDEST DUP2 EQ PUSH2 0x40C JUMPI PUSH0 PUSH0 REVERT JUMPDEST POP JUMP JUMPDEST PUSH0 DUP2 CALLDATALOAD SWAP1 POP PUSH2 0x41D DUP2 PUSH2 0x3F9 JUMP JUMPDEST SWAP3 SWAP2 POP POP JUMP JUMPDEST PUSH0 PUSH1 0x20 DUP3 DUP5 SUB SLT ISZERO PUSH2 0x438 JUMPI PUSH2 0x437 PUSH2 0x265 JUMP JUMPDEST JUMPDEST PUSH0 PUSH2 0x445 DUP5 DUP3 DUP6 ADD PUSH2 0x40F JUMP JUMPDEST SWAP2 POP POP SWAP3 SWAP2 POP POP JUMP JUMPDEST PUSH2 0x457 DUP2 PUSH2 0x342 JUMP JUMPDEST DUP3 MSTORE POP POP JUMP JUMPDEST PUSH0 PUSH1 0x20 DUP3 ADD SWAP1 POP PUSH2 0x470 PUSH0 DUP4 ADD DUP5 PUSH2 0x44E JUMP JUMPDEST SWAP3 SWAP2 POP POP JUMP JUMPDEST PUSH0 DUP2 MLOAD SWAP1 POP SWAP2 SWAP1 POP JUMP JUMPDEST PUSH0 DUP3 DUP3 MSTORE PUSH1 0x20 DUP3 ADD SWAP1 POP SWAP3 SWAP2 POP POP JUMP JUMPDEST DUP3 DUP2 DUP4 MCOPY PUSH0 DUP4 DUP4 ADD MSTORE POP POP POP JUMP JUMPDEST PUSH0 PUSH1 0x1F NOT PUSH1 0x1F DUP4 ADD AND SWAP1 POP SWAP2 SWAP1 POP JUMP JUMPDEST PUSH0 PUSH2 0x4B8 DUP3 PUSH2 0x476 JUMP JUMPDEST PUSH2 0x4C2 DUP2 DUP6 PUSH2 0x480 JUMP JUMPDEST SWAP4 POP PUSH2 0x4D2 DUP2 DUP6 PUSH1 0x20 DUP7 ADD PUSH2 0x490 JUMP JUMPDEST PUSH2 0x4DB DUP2 PUSH2 0x49E JUMP JUMPDEST DUP5 ADD SWAP2 POP POP SWAP3 SWAP2 POP POP JUMP JUMPDEST PUSH0 PUSH1 0x20 DUP3 ADD SWAP1 POP DUP2 DUP2 SUB PUSH0 DUP4 ADD MSTORE PUSH2 0x4FE DUP2 DUP5 PUSH2 0x4AE JUMP JUMPDEST SWAP1 POP SWAP3 SWAP2 POP POP JUMP JUMPDEST PUSH0 PUSH0 DUP4 PUSH1 0x1F DUP5 ADD SLT PUSH2 0x51B JUMPI PUSH2 0x51A PUSH2 0x26D JUMP JUMPDEST JUMPDEST DUP3 CALLDATALOAD SWAP1 POP PUSH8 0xFFFFFFFFFFFFFFFF DUP2 GT ISZERO PUSH2 0x538 JUMPI PUSH2 0x537 PUSH2 0x271 JUMP JUMPDEST JUMPDEST PUSH1 0x20 DUP4 ADD SWAP2 POP DUP4 PUSH1 0x1 DUP3 MUL DUP4 ADD GT ISZERO PUSH2 0x554 JUMPI PUSH2 0x553 PUSH2 0x275 JUMP JUMPDEST JUMPDEST SWAP3 POP SWAP3 SWAP1 POP JUMP JUMPDEST PUSH0 PUSH0 PUSH1 0x20 DUP4 DUP6 SUB SLT ISZERO PUSH2 0x571 JUMPI PUSH2 0x570 PUSH2 0x265 JUMP JUMPDEST JUMPDEST PUSH0 DUP4 ADD CALLDATALOAD PUSH8 0xFFFFFFFFFFFFFFFF DUP2 GT ISZERO PUSH2 0x58E JUMPI PUSH2 0x58D PUSH2 0x269 JUMP JUMPDEST JUMPDEST PUSH2 0x59A DUP6 DUP3 DUP7 ADD PUSH2 0x506 JUMP JUMPDEST SWAP3 POP SWAP3 POP POP SWAP3 POP SWAP3 SWAP1 POP JUMP JUMPDEST PUSH32 0x4E487B7100000000000000000000000000000000000000000000000000000000 PUSH0 MSTORE PUSH1 0x22 PUSH1 0x4 MSTORE PUSH1 0x24 PUSH0 REVERT JUMPDEST PUSH0 PUSH1 0x2 DUP3 DIV SWAP1 POP PUSH1 0x1 DUP3 AND DUP1 PUSH2 0x5EA JUMPI PUSH1 0x7F DUP3 AND SWAP2 POP JUMPDEST PUSH1 0x20 DUP3 LT DUP2 SUB PUSH2 0x5FD JUMPI PUSH2 0x5FC PUSH2 0x5A6 JUMP JUMPDEST JUMPDEST POP SWAP2 SWAP1 POP JUMP JUMPDEST PUSH0 DUP3 SWAP1 POP SWAP3 SWAP2 POP POP JUMP JUMPDEST PUSH32 0x4E487B7100000000000000000000000000000000000000000000000000000000 PUSH0 MSTORE PUSH1 0x41 PUSH1 0x4 MSTORE PUSH1 0x24 PUSH0 REVERT JUMPDEST PUSH0 DUP2 SWAP1 POP DUP2 PUSH0 MSTORE PUSH1 0x20 PUSH0 KECCAK256 SWAP1 POP SWAP2 SWAP1 POP JUMP JUMPDEST PUSH0 PUSH1 0x20 PUSH1 0x1F DUP4 ADD DIV SWAP1 POP SWAP2 SWAP1 POP JUMP JUMPDEST PUSH0 DUP3 DUP3 SHL SWAP1 POP SWAP3 SWAP2 POP POP JUMP JUMPDEST PUSH0 PUSH1 0x8 DUP4 MUL PUSH2 0x696 PUSH32 0xFFFFFFFFFFFFFFFFFFFFFFFFFFFFFFFFFFFFFFFFFFFFFFFFFFFFFFFFFFFFFFFF DUP3 PUSH2 0x65B JUMP JUMPDEST PUSH2 0x6A0 DUP7 DUP4 PUSH2 0x65B JUMP JUMPDEST SWAP6 POP DUP1 NOT DUP5 AND SWAP4 POP DUP1 DUP7 AND DUP5 OR SWAP3 POP POP POP SWAP4 SWAP3 POP POP POP JUMP JUMPDEST PUSH0 DUP2 SWAP1 POP SWAP2 SWAP1 POP JUMP JUMPDEST PUSH0 PUSH2 0x6DB PUSH2 0x6D6 PUSH2 0x6D1 DUP5 PUSH2 0x342 JUMP JUMPDEST PUSH2 0x6B8 JUMP JUMPDEST PUSH2 0x342 JUMP JUMPDEST SWAP1 POP SWAP2 SWAP1 POP JUMP JUMPDEST PUSH0 DUP2 SWAP1 POP SWAP2 SWAP1 POP JUMP JUMPDEST PUSH2 0x6F4 DUP4 PUSH2 0x6C1 JUMP JUMPDEST PUSH2 0x708 PUSH2 0x700 DUP3 PUSH2 0x6E2 JUMP JUMPDEST DUP5 DUP5 SLOAD PUSH2 0x667 JUMP JUMPDEST DUP3 SSTORE POP POP POP POP JUMP JUMPDEST PUSH0 PUSH0 SWAP1 POP SWAP1 JUMP JUMPDEST PUSH2 0x71F PUSH2 0x710 JUMP JUMPDEST PUSH2 0x72A DUP2 DUP5 DUP5 PUSH2 0x6EB JUMP JUMPDEST POP POP POP JUMP JUMPDEST PUSH0 JUMPDEST DUP3 DUP2 LT ISZERO PUSH2 0x750 JUMPI PUSH2 0x745 PUSH0 DUP3 DUP5 ADD PUSH2 0x717 JUMP JUMPDEST PUSH1 0x1 DUP2 ADD SWAP1 POP PUSH2 0x731 JUMP JUMPDEST POP POP POP JUMP JUMPDEST PUSH1 0x1F DUP3 GT ISZERO PUSH2 0x7A3 JUMPI DUP3 DUP3 GT ISZERO PUSH2 0x7A2 JUMPI PUSH2 0x76F DUP2 PUSH2 0x63A JUMP JUMPDEST PUSH2 0x778 DUP4 PUSH2 0x64C JUMP JUMPDEST PUSH2 0x781 DUP6 PUSH2 0x64C JUMP JUMPDEST PUSH1 0x20 DUP7 LT ISZERO PUSH2 0x78E JUMPI PUSH0 SWAP1 POP JUMPDEST DUP1 DUP4 ADD PUSH2 0x79D DUP3 DUP5 SUB DUP3 PUSH2 0x72F JUMP JUMPDEST POP POP POP POP JUMPDEST JUMPDEST POP POP POP JUMP JUMPDEST PUSH0 DUP3 DUP3 SHR SWAP1 POP SWAP3 SWAP2 POP POP JUMP JUMPDEST PUSH0 PUSH2 0x7C3 PUSH0 NOT DUP5 PUSH1 0x8 MUL PUSH2 0x7A8 JUMP JUMPDEST NOT DUP1 DUP4 AND SWAP2 POP POP SWAP3 SWAP2 POP POP JUMP JUMPDEST PUSH0 PUSH2 0x7DB DUP4 DUP4 PUSH2 0x7B4 JUMP JUMPDEST SWAP2 POP DUP3 PUSH1 0x2 MUL DUP3 OR SWAP1 POP SWAP3 SWAP2 POP POP JUMP JUMPDEST PUSH2 0x7F5 DUP4 DUP4 PUSH2 0x603 JUMP JUMPDEST PUSH8 0xFFFFFFFFFFFFFFFF DUP2 GT ISZERO PUSH2 0x80E JUMPI PUSH2 0x80D PUSH2 0x60D JUMP JUMPDEST JUMPDEST PUSH2 0x818 DUP3 SLOAD PUSH2 0x5D3 JUMP JUMPDEST PUSH2 0x823 DUP3 DUP3 DUP6 PUSH2 0x755 JUMP JUMPDEST PUSH0 PUSH1 0x1F DUP4 GT PUSH1 0x1 DUP2 EQ PUSH2 0x850 JUMPI PUSH0 DUP5 ISZERO PUSH2 0x83E JUMPI DUP3 DUP8 ADD CALLDATALOAD SWAP1 POP JUMPDEST PUSH2 0x848 DUP6 DUP3 PUSH2 0x7D0 JUMP JUMPDEST DUP7 SSTORE POP PUSH2 0x8AF JUMP JUMPDEST PUSH1 0x1F NOT DUP5 AND PUSH2 0x85E DUP7 PUSH2 0x63A JUMP JUMPDEST PUSH0 JUMPDEST DUP3 DUP2 LT ISZERO PUSH2 0x885 JUMPI DUP5 DUP10 ADD CALLDATALOAD DUP3 SSTORE PUSH1 0x1 DUP3 ADD SWAP2 POP PUSH1 0x20 DUP6 ADD SWAP5 POP PUSH1 0x20 DUP2 ADD SWAP1 POP PUSH2 0x860 JUMP JUMPDEST DUP7 DUP4 LT ISZERO PUSH2 0x8A2 JUMPI DUP5 DUP10 ADD CALLDATALOAD PUSH2 0x89E PUSH1 0x1F DUP10 AND DUP3 PUSH2 0x7B4 JUMP JUMPDEST DUP4 SSTORE POP JUMPDEST PUSH1 0x1 PUSH1 0x2 DUP9 MUL ADD DUP9 SSTORE POP POP POP JUMPDEST POP POP POP POP POP POP POP JUMP INVALID LOG2 PUSH5 0x6970667358 0x22 SLT KECCAK256 0xD3 TLOAD 0x1F GAS EXTCALL EXTDELEGATECALL SIGNEXTEND SIGNEXTEND PUSH25 0x5B8F21549FD469CA6DFC2CF9D0621E654686F7C456463F6473 PUSH16 0x6C634300082200330000000000000000 "
		},
		"gasEstimates": {
			"creation": {
				"codeDepositCost": "457200",
				"executionCost": "491",
				"totalCost": "457691"
			},
			"external": {
				"returnArray(uint256[])": "infinite",
				"returnMessage(string)": "infinite",
				"returnUint(uint256)": "infinite",
				"saveMessage(string)": "infinite",
				"savedMessage()": "infinite"
			}
		},
		"methodIdentifiers": {
			"returnArray(uint256[])": "3e8bb4b7",
			"returnMessage(string)": "f7b229a2",
			"returnUint(uint256)": "d30257a1",
			"saveMessage(string)": "fc0c4f2e",
			"savedMessage()": "d53335b0"
		}
	},
	"abi": [
		{
			"inputs": [
				{
					"internalType": "uint256[]",
					"name": "_numbers",
					"type": "uint256[]"
				}
			],
			"name": "returnArray",
			"outputs": [
				{
					"internalType": "uint256[]",
					"name": "",
					"type": "uint256[]"
				}
			],
			"stateMutability": "pure",
			"type": "function"
		},
		{
			"inputs": [
				{
					"internalType": "string",
					"name": "_message",
					"type": "string"
				}
			],
			"name": "returnMessage",
			"outputs": [
				{
					"internalType": "string",
					"name": "",
					"type": "string"
				}
			],
			"stateMutability": "pure",
			"type": "function"
		},
		{
			"inputs": [
				{
					"internalType": "uint256",
					"name": "_number",
					"type": "uint256"
				}
			],
			"name": "returnUint",
			"outputs": [
				{
					"internalType": "uint256",
					"name": "",
					"type": "uint256"
				}
			],
			"stateMutability": "pure",
			"type": "function"
		},
		{
			"inputs": [
				{
					"internalType": "string",
					"name": "_message",
					"type": "string"
				}
			],
			"name": "saveMessage",
			"outputs": [],
			"stateMutability": "nonpayable",
			"type": "function"
		},
		{
			"inputs": [],
			"name": "savedMessage",
			"outputs": [
				{
					"internalType": "string",
					"name": "",
					"type": "string"
				}
			],
			"stateMutability": "view",
			"type": "function"
		}
	]
}