{
	"data": {
		"bytecode": {
			"linkReferences": {},
			"object": "6080604052348015600e575f5ffd5b506103ad8061001c5f395ff3fe608060405234801561000f575f5ffd5b5060043610610029575f3560e01c80632f17a5541461002d575b5f5ffd5b61004760048036038101906100429190610192565b61005d565b604051610054919061029d565b60405180910390f35b60605f8383905067ffffffffffffffff81111561007d5761007c6102bd565b5b6040519080825280602002602001820160405280156100ab5781602001602082028036833780820191505090505b5090505f5f90505b8484905081101561011e578484826001888890506100d19190610317565b6100db9190610317565b8181106100eb576100ea61034a565b5b905060200201358282815181106101055761010461034a565b5b60200260200101818152505080806001019150506100b3565b508091505092915050565b5f5ffd5b5f5ffd5b5f5ffd5b5f5ffd5b5f5ffd5b5f5f83601f84011261015257610151610131565b5b8235905067ffffffffffffffff81111561016f5761016e610135565b5b60208301915083602082028301111561018b5761018a610139565b5b9250929050565b5f5f602083850312156101a8576101a7610129565b5b5f83013567ffffffffffffffff8111156101c5576101c461012d565b5b6101d18582860161013d565b92509250509250929050565b5f81519050919050565b5f82825260208201905092915050565b5f819050602082019050919050565b5f819050919050565b61021881610206565b82525050565b5f610229838361020f565b60208301905092915050565b5f602082019050919050565b5f61024b826101dd565b61025581856101e7565b9350610260836101f7565b805f5b83811015610290578151610277888261021e565b975061028283610235565b925050600181019050610263565b5085935050505092915050565b5f6020820190508181035f8301526102b58184610241565b905092915050565b7f4e487b71000000000000000000000000000000000000000000000000000000005f52604160045260245ffd5b7f4e487b71000000000000000000000000000000000000000000000000000000005f52601160045260245ffd5b5f61032182610206565b915061032c83610206565b9250828203905081811115610344576103436102ea565b5b92915050565b7f4e487b71000000000000000000000000000000000000000000000000000000005f52603260045260245ffdfea264697066735822122034f62a300f3665e756c9bfbe1d685a8c0864dd47dbdf258d29b8259aa32b958d64736f6c63430008220033",
			"opcodes": "PUSH1 0x80 PUSH1 0x40 MSTORE CALLVALUE DUP1 ISZERO PUSH1 0xE JUMPI PUSH0 PUSH0 REVERT JUMPDEST POP PUSH2 0x3AD DUP1 PUSH2 0x1C PUSH0 CODECOPY PUSH0 RETURN INVALID PUSH1 0x80 PUSH1 0x40 MSTORE CALLVALUE DUP1 ISZERO PUSH2 0xF JUMPI PUSH0 PUSH0 REVERT JUMPDEST POP PUSH1 0x4 CALLDATASIZE LT PUSH2 0x29 JUMPI PUSH0 CALLDATALOAD PUSH1 0xE0 SHR DUP1 PUSH4 0x2F17A554 EQ PUSH2 0x2D JUMPI JUMPDEST PUSH0 PUSH0 REVERT JUMPDEST PUSH2 0x47 PUSH1 0x4 DUP1 CALLDATASIZE SUB DUP2 ADD SWAP1 PUSH2 0x42 SWAP2 SWAP1 PUSH2 0x192 JUMP JUMPDEST PUSH2 0x5D JUMP JUMPDEST PUSH1 0x40 MLOAD PUSH2 0x54 SWAP2 SWAP1 PUSH2 0x29D JUMP JUMPDEST PUSH1 0x40 MLOAD DUP1 SWAP2 SUB SWAP1 RETURN JUMPDEST PUSH1 0x60 PUSH0 DUP4 DUP4 SWAP1 POP PUSH8 0xFFFFFFFFFFFFFFFF DUP2 GT ISZERO PUSH2 0x7D JUMPI PUSH2 0x7C PUSH2 0x2BD JUMP JUMPDEST JUMPDEST PUSH1 0x40 MLOAD SWAP1 DUP1 DUP3 MSTORE DUP1 PUSH1 0x20 MUL PUSH1 0x20 ADD DUP3 ADD PUSH1 0x40 MSTORE DUP1 ISZERO PUSH2 0xAB JUMPI DUP2 PUSH1 0x20 ADD PUSH1 0x20 DUP3 MUL DUP1 CALLDATASIZE DUP4 CALLDATACOPY DUP1 DUP3 ADD SWAP2 POP POP SWAP1 POP JUMPDEST POP SWAP1 POP PUSH0 PUSH0 SWAP1 POP JUMPDEST DUP5 DUP5 SWAP1 POP DUP2 LT ISZERO PUSH2 0x11E JUMPI DUP5 DUP5 DUP3 PUSH1 0x1 DUP9 DUP9 SWAP1 POP PUSH2 0xD1 SWAP2 SWAP1 PUSH2 0x317 JUMP JUMPDEST PUSH2 0xDB SWAP2 SWAP1 PUSH2 0x317 JUMP JUMPDEST DUP2 DUP2 LT PUSH2 0xEB JUMPI PUSH2 0xEA PUSH2 0x34A JUMP JUMPDEST JUMPDEST SWAP1 POP PUSH1 0x20 MUL ADD CALLDATALOAD DUP3 DUP3 DUP2 MLOAD DUP2 LT PUSH2 0x105 JUMPI PUSH2 0x104 PUSH2 0x34A JUMP JUMPDEST JUMPDEST PUSH1 0x20 MUL PUSH1 0x20 ADD ADD DUP2 DUP2 MSTORE POP POP DUP1 DUP1 PUSH1 0x1 ADD SWAP2 POP POP PUSH2 0xB3 JUMP JUMPDEST POP DUP1 SWAP2 POP POP SWAP3 SWAP2 POP POP JUMP JUMPDEST PUSH0 PUSH0 REVERT JUMPDEST PUSH0 PUSH0 REVERT JUMPDEST PUSH0 PUSH0 REVERT JUMPDEST PUSH0 PUSH0 REVERT JUMPDEST PUSH0 PUSH0 REVERT JUMPDEST PUSH0 PUSH0 DUP4 PUSH1 0x1F DUP5 ADD SLT PUSH2 0x152 JUMPI PUSH2 0x151 PUSH2 0x131 JUMP JUMPDEST JUMPDEST DUP3 CALLDATALOAD SWAP1 POP PUSH8 0xFFFFFFFFFFFFFFFF DUP2 GT ISZERO PUSH2 0x16F JUMPI PUSH2 0x16E PUSH2 0x135 JUMP JUMPDEST JUMPDEST PUSH1 0x20 DUP4 ADD SWAP2 POP DUP4 PUSH1 0x20 DUP3 MUL DUP4 ADD GT ISZERO PUSH2 0x18B JUMPI PUSH2 0x18A PUSH2 0x139 JUMP JUMPDEST JUMPDEST SWAP3 POP SWAP3 SWAP1 POP JUMP JUMPDEST PUSH0 PUSH0 PUSH1 0x20 DUP4 DUP6 SUB SLT ISZERO PUSH2 0x1A8 JUMPI PUSH2 0x1A7 PUSH2 0x129 JUMP JUMPDEST JUMPDEST PUSH0 DUP4 ADD CALLDATALOAD PUSH8 0xFFFFFFFFFFFFFFFF DUP2 GT ISZERO PUSH2 0x1C5 JUMPI PUSH2 0x1C4 PUSH2 0x12D JUMP JUMPDEST JUMPDEST PUSH2 0x1D1 DUP6 DUP3 DUP7 ADD PUSH2 0x13D JUMP JUMPDEST SWAP3 POP SWAP3 POP POP SWAP3 POP SWAP3 SWAP1 POP JUMP JUMPDEST PUSH0 DUP2 MLOAD SWAP1 POP SWAP2 SWAP1 POP JUMP JUMPDEST PUSH0 DUP3 DUP3 MSTORE PUSH1 0x20 DUP3 ADD SWAP1 POP SWAP3 SWAP2 POP POP JUMP JUMPDEST PUSH0 DUP2 SWAP1 POP PUSH1 0x20 DUP3 ADD SWAP1 POP SWAP2 SWAP1 POP JUMP JUMPDEST PUSH0 DUP2 SWAP1 POP SWAP2 SWAP1 POP JUMP JUMPDEST PUSH2 0x218 DUP2 PUSH2 0x206 JUMP JUMPDEST DUP3 MSTORE POP POP JUMP JUMPDEST PUSH0 PUSH2 0x229 DUP4 DUP4 PUSH2 0x20F JUMP JUMPDEST PUSH1 0x20 DUP4 ADD SWAP1 POP SWAP3 SWAP2 POP POP JUMP JUMPDEST PUSH0 PUSH1 0x20 DUP3 ADD SWAP1 POP SWAP2 SWAP1 POP JUMP JUMPDEST PUSH0 PUSH2 0x24B DUP3 PUSH2 0x1DD JUMP JUMPDEST PUSH2 0x255 DUP2 DUP6 PUSH2 0x1E7 JUMP JUMPDEST SWAP4 POP PUSH2 0x260 DUP4 PUSH2 0x1F7 JUMP JUMPDEST DUP1 PUSH0 JUMPDEST DUP4 DUP2 LT ISZERO PUSH2 0x290 JUMPI DUP2 MLOAD PUSH2 0x277 DUP9 DUP3 PUSH2 0x21E JUMP JUMPDEST SWAP8 POP PUSH2 0x282 DUP4 PUSH2 0x235 JUMP JUMPDEST SWAP3 POP POP PUSH1 0x1 DUP2 ADD SWAP1 POP PUSH2 0x263 JUMP JUMPDEST POP DUP6 SWAP4 POP POP POP POP SWAP3 SWAP2 POP POP JUMP JUMPDEST PUSH0 PUSH1 0x20 DUP3 ADD SWAP1 POP DUP2 DUP2 SUB PUSH0 DUP4 ADD MSTORE PUSH2 0x2B5 DUP2 DUP5 PUSH2 0x241 JUMP JUMPDEST SWAP1 POP SWAP3 SWAP2 POP POP JUMP JUMPDEST PUSH32 0x4E487B7100000000000000000000000000000000000000000000000000000000 PUSH0 MSTORE PUSH1 0x41 PUSH1 0x4 MSTORE PUSH1 0x24 PUSH0 REVERT JUMPDEST PUSH32 0x4E487B7100000000000000000000000000000000000000000000000000000000 PUSH0 MSTORE PUSH1 0x11 PUSH1 0x4 MSTORE PUSH1 0x24 PUSH0 REVERT JUMPDEST PUSH0 PUSH2 0x321 DUP3 PUSH2 0x206 JUMP JUMPDEST SWAP2 POP PUSH2 0x32C DUP4 PUSH2 0x206 JUMP JUMPDEST SWAP3 POP DUP3 DUP3 SUB SWAP1 POP DUP2 DUP2 GT ISZERO PUSH2 0x344 JUMPI PUSH2 0x343 PUSH2 0x2EA JUMP JUMPDEST JUMPDEST SWAP3 SWAP2 POP POP JUMP JUMPDEST PUSH32 0x4E487B7100000000000000000000000000000000000000000000000000000000 PUSH0 MSTORE PUSH1 0x32 PUSH1 0x4 MSTORE PUSH1 0x24 PUSH0 REVERT INVALID LOG2 PUSH5 0x6970667358 0x22 SLT KECCAK256 CALLVALUE 0xF6 0x2A ADDRESS 0xF CALLDATASIZE PUSH6 0xE756C9BFBE1D PUSH9 0x5A8C0864DD47DBDF25 DUP14 0x29 0xB8 0x25 SWAP11 LOG3 0x2B SWAP6 DUP14 PUSH5 0x736F6C6343 STOP ADDMOD 0x22 STOP CALLER "
		},
		"gasEstimates": {
			"creation": {
				"codeDepositCost": "188200",
				"executionCost": "230",
				"totalCost": "188430"
			},
			"external": {
				"reverseArray(uint256[])": "infinite"
			}
		},
		"methodIdentifiers": {
			"reverseArray(uint256[])": "2f17a554"
		}
	},
	"abi": [
		{
			"inputs": [
				{
					"internalType": "uint256[]",
					"name": "_numbers",
					"type": "uint256[]"
				}
			],
			"name": "reverseArray",
			"outputs": [
				{
					"internalType": "uint256[]",
					"name": "",
					"type": "uint256[]"
				}
			],
			"stateMutability": "pure",
			"type": "function"
		}
	]
}