{
	"data": {
		"bytecode": {
			"linkReferences": {},
			"object": "6080604052348015600e575f5ffd5b506104d18061001c5f395ff3fe608060405234801561000f575f5ffd5b506004361061004a575f3560e01c806340f1dc421461004e5780638ab389e61461006a57806397feba9d14610086578063d9d897d5146100a4575b5f5ffd5b610068600480360381019061006391906102eb565b6100d4565b005b610084600480360381019061007f91906102eb565b6101b7565b005b61008e61029a565b60405161009b9190610325565b60405180910390f35b6100be60048036038101906100b99190610398565b61029f565b6040516100cb9190610325565b60405180910390f35b600a811115610118576040517f08c379a000000000000000000000000000000000000000000000000000000000815260040161010f9061041d565b60405180910390fd5b805f546101259190610468565b5f819055508060015f3373ffffffffffffffffffffffffffffffffffffffff1673ffffffffffffffffffffffffffffffffffffffff1681526020019081526020015f20546101739190610468565b60015f3373ffffffffffffffffffffffffffffffffffffffff1673ffffffffffffffffffffffffffffffffffffffff1681526020019081526020015f208190555050565b805f546101c49190610468565b5f819055508060015f3373ffffffffffffffffffffffffffffffffffffffff1673ffffffffffffffffffffffffffffffffffffffff1681526020019081526020015f20546102129190610468565b60015f3373ffffffffffffffffffffffffffffffffffffffff1673ffffffffffffffffffffffffffffffffffffffff1681526020019081526020015f2081905550600a811115610297576040517f08c379a000000000000000000000000000000000000000000000000000000000815260040161028e9061041d565b60405180910390fd5b50565b5f5481565b6001602052805f5260405f205f915090505481565b5f5ffd5b5f819050919050565b6102ca816102b8565b81146102d4575f5ffd5b50565b5f813590506102e5816102c1565b92915050565b5f60208284031215610300576102ff6102b4565b5b5f61030d848285016102d7565b91505092915050565b61031f816102b8565b82525050565b5f6020820190506103385f830184610316565b92915050565b5f73ffffffffffffffffffffffffffffffffffffffff82169050919050565b5f6103678261033e565b9050919050565b6103778161035d565b8114610381575f5ffd5b50565b5f813590506103928161036e565b92915050565b5f602082840312156103ad576103ac6102b4565b5b5f6103ba84828501610384565b91505092915050565b5f82825260208201905092915050565b7f56616c756520746f6f206c6172676500000000000000000000000000000000005f82015250565b5f610407600f836103c3565b9150610412826103d3565b602082019050919050565b5f6020820190508181035f830152610434816103fb565b9050919050565b7f4e487b71000000000000000000000000000000000000000000000000000000005f52601160045260245ffd5b5f610472826102b8565b915061047d836102b8565b92508282019050808211156104955761049461043b565b5b9291505056fea2646970667358221220de0f7a9f469ac21cdf0d78d24a1fb5882446bfe670f233f9c03a8f5d4c37d4da64736f6c63430008220033",
			"opcodes": "PUSH1 0x80 PUSH1 0x40 MSTORE CALLVALUE DUP1 ISZERO PUSH1 0xE JUMPI PUSH0 PUSH0 REVERT JUMPDEST POP PUSH2 0x4D1 DUP1 PUSH2 0x1C PUSH0 CODECOPY PUSH0 RETURN INVALID PUSH1 0x80 PUSH1 0x40 MSTORE CALLVALUE DUP1 ISZERO PUSH2 0xF JUMPI PUSH0 PUSH0 REVERT JUMPDEST POP PUSH1 0x4 CALLDATASIZE LT PUSH2 0x4A JUMPI PUSH0 CALLDATALOAD PUSH1 0xE0 SHR DUP1 PUSH4 0x40F1DC42 EQ PUSH2 0x4E JUMPI DUP1 PUSH4 0x8AB389E6 EQ PUSH2 0x6A JUMPI DUP1 PUSH4 0x97FEBA9D EQ PUSH2 0x86 JUMPI DUP1 PUSH4 0xD9D897D5 EQ PUSH2 0xA4 JUMPI JUMPDEST PUSH0 PUSH0 REVERT JUMPDEST PUSH2 0x68 PUSH1 0x4 DUP1 CALLDATASIZE SUB DUP2 ADD SWAP1 PUSH2 0x63 SWAP2 SWAP1 PUSH2 0x2EB JUMP JUMPDEST PUSH2 0xD4 JUMP JUMPDEST STOP JUMPDEST PUSH2 0x84 PUSH1 0x4 DUP1 CALLDATASIZE SUB DUP2 ADD SWAP1 PUSH2 0x7F SWAP2 SWAP1 PUSH2 0x2EB JUMP JUMPDEST PUSH2 0x1B7 JUMP JUMPDEST STOP JUMPDEST PUSH2 0x8E PUSH2 0x29A JUMP JUMPDEST PUSH1 0x40 MLOAD PUSH2 0x9B SWAP2 SWAP1 PUSH2 0x325 JUMP JUMPDEST PUSH1 0x40 MLOAD DUP1 SWAP2 SUB SWAP1 RETURN JUMPDEST PUSH2 0xBE PUSH1 0x4 DUP1 CALLDATASIZE SUB DUP2 ADD SWAP1 PUSH2 0xB9 SWAP2 SWAP1 PUSH2 0x398 JUMP JUMPDEST PUSH2 0x29F JUMP JUMPDEST PUSH1 0x40 MLOAD PUSH2 0xCB SWAP2 SWAP1 PUSH2 0x325 JUMP JUMPDEST PUSH1 0x40 MLOAD DUP1 SWAP2 SUB SWAP1 RETURN JUMPDEST PUSH1 0xA DUP2 GT ISZERO PUSH2 0x118 JUMPI PUSH1 0x40 MLOAD PUSH32 0x8C379A000000000000000000000000000000000000000000000000000000000 DUP2 MSTORE PUSH1 0x4 ADD PUSH2 0x10F SWAP1 PUSH2 0x41D JUMP JUMPDEST PUSH1 0x40 MLOAD DUP1 SWAP2 SUB SWAP1 REVERT JUMPDEST DUP1 PUSH0 SLOAD PUSH2 0x125 SWAP2 SWAP1 PUSH2 0x468 JUMP JUMPDEST PUSH0 DUP2 SWAP1 SSTORE POP DUP1 PUSH1 0x1 PUSH0 CALLER PUSH20 0xFFFFFFFFFFFFFFFFFFFFFFFFFFFFFFFFFFFFFFFF AND PUSH20 0xFFFFFFFFFFFFFFFFFFFFFFFFFFFFFFFFFFFFFFFF AND DUP2 MSTORE PUSH1 0x20 ADD SWAP1 DUP2 MSTORE PUSH1 0x20 ADD PUSH0 KECCAK256 SLOAD PUSH2 0x173 SWAP2 SWAP1 PUSH2 0x468 JUMP JUMPDEST PUSH1 0x1 PUSH0 CALLER PUSH20 0xFFFFFFFFFFFFFFFFFFFFFFFFFFFFFFFFFFFFFFFF AND PUSH20 0xFFFFFFFFFFFFFFFFFFFFFFFFFFFFFFFFFFFFFFFF AND DUP2 MSTORE PUSH1 0x20 ADD SWAP1 DUP2 MSTORE PUSH1 0x20 ADD PUSH0 KECCAK256 DUP2 SWAP1 SSTORE POP POP JUMP JUMPDEST DUP1 PUSH0 SLOAD PUSH2 0x1C4 SWAP2 SWAP1 PUSH2 0x468 JUMP JUMPDEST PUSH0 DUP2 SWAP1 SSTORE POP DUP1 PUSH1 0x1 PUSH0 CALLER PUSH20 0xFFFFFFFFFFFFFFFFFFFFFFFFFFFFFFFFFFFFFFFF AND PUSH20 0xFFFFFFFFFFFFFFFFFFFFFFFFFFFFFFFFFFFFFFFF AND DUP2 MSTORE PUSH1 0x20 ADD SWAP1 DUP2 MSTORE PUSH1 0x20 ADD PUSH0 KECCAK256 SLOAD PUSH2 0x212 SWAP2 SWAP1 PUSH2 0x468 JUMP JUMPDEST PUSH1 0x1 PUSH0 CALLER PUSH20 0xFFFFFFFFFFFFFFFFFFFFFFFFFFFFFFFFFFFFFFFF AND PUSH20 0xFFFFFFFFFFFFFFFFFFFFFFFFFFFFFFFFFFFFFFFF AND DUP2 MSTORE PUSH1 0x20 ADD SWAP1 DUP2 MSTORE PUSH1 0x20 ADD PUSH0 KECCAK256 DUP2 SWAP1 SSTORE POP PUSH1 0xA DUP2 GT ISZERO PUSH2 0x297 JUMPI PUSH1 0x40 MLOAD PUSH32 0x8C379A000000000000000000000000000000000000000000000000000000000 DUP2 MSTORE PUSH1 0x4 ADD PUSH2 0x28E SWAP1 PUSH2 0x41D JUMP JUMPDEST PUSH1 0x40 MLOAD DUP1 SWAP2 SUB SWAP1 REVERT JUMPDEST POP JUMP JUMPDEST PUSH0 SLOAD DUP2 JUMP JUMPDEST PUSH1 0x1 PUSH1 0x20 MSTORE DUP1 PUSH0 MSTORE PUSH1 0x40 PUSH0 KECCAK256 PUSH0 SWAP2 POP SWAP1 POP SLOAD DUP2 JUMP JUMPDEST PUSH0 PUSH0 REVERT JUMPDEST PUSH0 DUP2 SWAP1 POP SWAP2 SWAP1 POP JUMP JUMPDEST PUSH2 0x2CA DUP2 PUSH2 0x2B8 JUMP JUMPDEST DUP2 EQ PUSH2 0x2D4 JUMPI PUSH0 PUSH0 REVERT JUMPDEST POP JUMP JUMPDEST PUSH0 DUP2 CALLDATALOAD SWAP1 POP PUSH2 0x2E5 DUP2 PUSH2 0x2C1 JUMP JUMPDEST SWAP3 SWAP2 POP POP JUMP JUMPDEST PUSH0 PUSH1 0x20 DUP3 DUP5 SUB SLT ISZERO PUSH2 0x300 JUMPI PUSH2 0x2FF PUSH2 0x2B4 JUMP JUMPDEST JUMPDEST PUSH0 PUSH2 0x30D DUP5 DUP3 DUP6 ADD PUSH2 0x2D7 JUMP JUMPDEST SWAP2 POP POP SWAP3 SWAP2 POP POP JUMP JUMPDEST PUSH2 0x31F DUP2 PUSH2 0x2B8 JUMP JUMPDEST DUP3 MSTORE POP POP JUMP JUMPDEST PUSH0 PUSH1 0x20 DUP3 ADD SWAP1 POP PUSH2 0x338 PUSH0 DUP4 ADD DUP5 PUSH2 0x316 JUMP JUMPDEST SWAP3 SWAP2 POP POP JUMP JUMPDEST PUSH0 PUSH20 0xFFFFFFFFFFFFFFFFFFFFFFFFFFFFFFFFFFFFFFFF DUP3 AND SWAP1 POP SWAP2 SWAP1 POP JUMP JUMPDEST PUSH0 PUSH2 0x367 DUP3 PUSH2 0x33E JUMP JUMPDEST SWAP1 POP SWAP2 SWAP1 POP JUMP JUMPDEST PUSH2 0x377 DUP2 PUSH2 0x35D JUMP JUMPDEST DUP2 EQ PUSH2 0x381 JUMPI PUSH0 PUSH0 REVERT JUMPDEST POP JUMP JUMPDEST PUSH0 DUP2 CALLDATALOAD SWAP1 POP PUSH2 0x392 DUP2 PUSH2 0x36E JUMP JUMPDEST SWAP3 SWAP2 POP POP JUMP JUMPDEST PUSH0 PUSH1 0x20 DUP3 DUP5 SUB SLT ISZERO PUSH2 0x3AD JUMPI PUSH2 0x3AC PUSH2 0x2B4 JUMP JUMPDEST JUMPDEST PUSH0 PUSH2 0x3BA DUP5 DUP3 DUP6 ADD PUSH2 0x384 JUMP JUMPDEST SWAP2 POP POP SWAP3 SWAP2 POP POP JUMP JUMPDEST PUSH0 DUP3 DUP3 MSTORE PUSH1 0x20 DUP3 ADD SWAP1 POP SWAP3 SWAP2 POP POP JUMP JUMPDEST PUSH32 0x56616C756520746F6F206C617267650000000000000000000000000000000000 PUSH0 DUP3 ADD MSTORE POP JUMP JUMPDEST PUSH0 PUSH2 0x407 PUSH1 0xF DUP4 PUSH2 0x3C3 JUMP JUMPDEST SWAP2 POP PUSH2 0x412 DUP3 PUSH2 0x3D3 JUMP JUMPDEST PUSH1 0x20 DUP3 ADD SWAP1 POP SWAP2 SWAP1 POP JUMP JUMPDEST PUSH0 PUSH1 0x20 DUP3 ADD SWAP1 POP DUP2 DUP2 SUB PUSH0 DUP4 ADD MSTORE PUSH2 0x434 DUP2 PUSH2 0x3FB JUMP JUMPDEST SWAP1 POP SWAP2 SWAP1 POP JUMP JUMPDEST PUSH32 0x4E487B7100000000000000000000000000000000000000000000000000000000 PUSH0 MSTORE PUSH1 0x11 PUSH1 0x4 MSTORE PUSH1 0x24 PUSH0 REVERT JUMPDEST PUSH0 PUSH2 0x472 DUP3 PUSH2 0x2B8 JUMP JUMPDEST SWAP2 POP PUSH2 0x47D DUP4 PUSH2 0x2B8 JUMP JUMPDEST SWAP3 POP DUP3 DUP3 ADD SWAP1 POP DUP1 DUP3 GT ISZERO PUSH2 0x495 JUMPI PUSH2 0x494 PUSH2 0x43B JUMP JUMPDEST JUMPDEST SWAP3 SWAP2 POP POP JUMP INVALID LOG2 PUSH5 0x6970667358 0x22 SLT KECCAK256 0xDE 0xF PUSH27 0x9F469AC21CDF0D78D24A1FB5882446BFE670F233F9C03A8F5D4C37 0xD4 0xDA PUSH5 0x736F6C6343 STOP ADDMOD 0x22 STOP CALLER "
		},
		"gasEstimates": {
			"creation": {
				"codeDepositCost": "246600",
				"executionCost": "285",
				"totalCost": "246885"
			},
			"external": {
				"riskyIncrement(uint256)": "infinite",
				"safeIncrement(uint256)": "infinite",
				"totalCounter()": "2446",
				"userCounter(address)": "2846"
			}
		},
		"methodIdentifiers": {
			"riskyIncrement(uint256)": "8ab389e6",
			"safeIncrement(uint256)": "40f1dc42",
			"totalCounter()": "97feba9d",
			"userCounter(address)": "d9d897d5"
		}
	},
	"abi": [
		{
			"inputs": [
				{
					"internalType": "uint256",
					"name": "_value",
					"type": "uint256"
				}
			],
			"name": "riskyIncrement",
			"outputs": [],
			"stateMutability": "nonpayable",
			"type": "function"
		},
		{
			"inputs": [
				{
					"internalType": "uint256",
					"name": "_value",
					"type": "uint256"
				}
			],
			"name": "safeIncrement",
			"outputs": [],
			"stateMutability": "nonpayable",
			"type": "function"
		},
		{
			"inputs": [],
			"name": "totalCounter",
			"outputs": [
				{
					"internalType": "uint256",
					"name": "",
					"type": "uint256"
				}
			],
			"stateMutability": "view",
			"type": "function"
		},
		{
			"inputs": [
				{
					"internalType": "address",
					"name": "",
					"type": "address"
				}
			],
			"name": "userCounter",
			"outputs": [
				{
					"internalType": "uint256",
					"name": "",
					"type": "uint256"
				}
			],
			"stateMutability": "view",
			"type": "function"
		}
	]
}