{
	"data": {
		"bytecode": {
			"linkReferences": {},
			"object": "6080604052348015600e575f5ffd5b506104f78061001c5f395ff3fe608060405234801561000f575f5ffd5b5060043610610055575f3560e01c80633156a9da146100595780635b9af12b146100775780639ca0382f146100935780639fcc433f146100b1578063d39fa233146100cf575b5f5ffd5b6100616100ff565b60405161006e91906102d3565b60405180910390f35b610091600480360381019061008c919061031a565b610104565b005b61009b61012c565b6040516100a891906103fc565b60405180910390f35b6100b96101fa565b6040516100c691906103fc565b60405180910390f35b6100e960048036038101906100e4919061031a565b61029c565b6040516100f691906102d3565b60405180910390f35b606481565b5f81908060018154018082558091505060019003905f5260205f20015f909190919091505550565b606060645f805490501115610176576040517f08c379a000000000000000000000000000000000000000000000000000000000815260040161016d90610476565b60405180910390fd5b5f5f8054806020026020016040519081016040528092919081815260200182805480156101c057602002820191905f5260205f20905b8154815260200190600101908083116101ac575b505050505090505f815111156101f3576103e7815f815181106101e6576101e5610494565b5b6020026020010181815250505b8091505090565b606060645f805490501115610244576040517f08c379a000000000000000000000000000000000000000000000000000000000815260040161023b90610476565b60405180910390fd5b5f5f80548060200260200160405190810160405280929190818152602001828054801561028e57602002820191905f5260205f20905b81548152602001906001019080831161027a575b505050505090508091505090565b5f81815481106102aa575f80fd5b905f5260205f20015f915090505481565b5f819050919050565b6102cd816102bb565b82525050565b5f6020820190506102e65f8301846102c4565b92915050565b5f5ffd5b6102f9816102bb565b8114610303575f5ffd5b50565b5f81359050610314816102f0565b92915050565b5f6020828403121561032f5761032e6102ec565b5b5f61033c84828501610306565b91505092915050565b5f81519050919050565b5f82825260208201905092915050565b5f819050602082019050919050565b610377816102bb565b82525050565b5f610388838361036e565b60208301905092915050565b5f602082019050919050565b5f6103aa82610345565b6103b4818561034f565b93506103bf8361035f565b805f5b838110156103ef5781516103d6888261037d565b97506103e183610394565b9250506001810190506103c2565b5085935050505092915050565b5f6020820190508181035f83015261041481846103a0565b905092915050565b5f82825260208201905092915050565b7f417272617920746f6f206c6172676520746f20636f70790000000000000000005f82015250565b5f61046060178361041c565b915061046b8261042c565b602082019050919050565b5f6020820190508181035f83015261048d81610454565b9050919050565b7f4e487b71000000000000000000000000000000000000000000000000000000005f52603260045260245ffdfea26469706673582212209722a3fd3625d99354b5964d419c5b8de208c27257419c7d174dc3fe799f1c1664736f6c63430008220033",
			"opcodes": "PUSH1 0x80 PUSH1 0x40 MSTORE CALLVALUE DUP1 ISZERO PUSH1 0xE JUMPI PUSH0 PUSH0 REVERT JUMPDEST POP PUSH2 0x4F7 DUP1 PUSH2 0x1C PUSH0 CODECOPY PUSH0 RETURN INVALID PUSH1 0x80 PUSH1 0x40 MSTORE CALLVALUE DUP1 ISZERO PUSH2 0xF JUMPI PUSH0 PUSH0 REVERT JUMPDEST POP PUSH1 0x4 CALLDATASIZE LT PUSH2 0x55 JUMPI PUSH0 CALLDATALOAD PUSH1 0xE0 SHR DUP1 PUSH4 0x3156A9DA EQ PUSH2 0x59 JUMPI DUP1 PUSH4 0x5B9AF12B EQ PUSH2 0x77 JUMPI DUP1 PUSH4 0x9CA0382F EQ PUSH2 0x93 JUMPI DUP1 PUSH4 0x9FCC433F EQ PUSH2 0xB1 JUMPI DUP1 PUSH4 0xD39FA233 EQ PUSH2 0xCF JUMPI JUMPDEST PUSH0 PUSH0 REVERT JUMPDEST PUSH2 0x61 PUSH2 0xFF JUMP JUMPDEST PUSH1 0x40 MLOAD PUSH2 0x6E SWAP2 SWAP1 PUSH2 0x2D3 JUMP JUMPDEST PUSH1 0x40 MLOAD DUP1 SWAP2 SUB SWAP1 RETURN JUMPDEST PUSH2 0x91 PUSH1 0x4 DUP1 CALLDATASIZE SUB DUP2 ADD SWAP1 PUSH2 0x8C SWAP2 SWAP1 PUSH2 0x31A JUMP JUMPDEST PUSH2 0x104 JUMP JUMPDEST STOP JUMPDEST PUSH2 0x9B PUSH2 0x12C JUMP JUMPDEST PUSH1 0x40 MLOAD PUSH2 0xA8 SWAP2 SWAP1 PUSH2 0x3FC JUMP JUMPDEST PUSH1 0x40 MLOAD DUP1 SWAP2 SUB SWAP1 RETURN JUMPDEST PUSH2 0xB9 PUSH2 0x1FA JUMP JUMPDEST PUSH1 0x40 MLOAD PUSH2 0xC6 SWAP2 SWAP1 PUSH2 0x3FC JUMP JUMPDEST PUSH1 0x40 MLOAD DUP1 SWAP2 SUB SWAP1 RETURN JUMPDEST PUSH2 0xE9 PUSH1 0x4 DUP1 CALLDATASIZE SUB DUP2 ADD SWAP1 PUSH2 0xE4 SWAP2 SWAP1 PUSH2 0x31A JUMP JUMPDEST PUSH2 0x29C JUMP JUMPDEST PUSH1 0x40 MLOAD PUSH2 0xF6 SWAP2 SWAP1 PUSH2 0x2D3 JUMP JUMPDEST PUSH1 0x40 MLOAD DUP1 SWAP2 SUB SWAP1 RETURN JUMPDEST PUSH1 0x64 DUP2 JUMP JUMPDEST PUSH0 DUP2 SWAP1 DUP1 PUSH1 0x1 DUP2 SLOAD ADD DUP1 DUP3 SSTORE DUP1 SWAP2 POP POP PUSH1 0x1 SWAP1 SUB SWAP1 PUSH0 MSTORE PUSH1 0x20 PUSH0 KECCAK256 ADD PUSH0 SWAP1 SWAP2 SWAP1 SWAP2 SWAP1 SWAP2 POP SSTORE POP JUMP JUMPDEST PUSH1 0x60 PUSH1 0x64 PUSH0 DUP1 SLOAD SWAP1 POP GT ISZERO PUSH2 0x176 JUMPI PUSH1 0x40 MLOAD PUSH32 0x8C379A000000000000000000000000000000000000000000000000000000000 DUP2 MSTORE PUSH1 0x4 ADD PUSH2 0x16D SWAP1 PUSH2 0x476 JUMP JUMPDEST PUSH1 0x40 MLOAD DUP1 SWAP2 SUB SWAP1 REVERT JUMPDEST PUSH0 PUSH0 DUP1 SLOAD DUP1 PUSH1 0x20 MUL PUSH1 0x20 ADD PUSH1 0x40 MLOAD SWAP1 DUP2 ADD PUSH1 0x40 MSTORE DUP1 SWAP3 SWAP2 SWAP1 DUP2 DUP2 MSTORE PUSH1 0x20 ADD DUP3 DUP1 SLOAD DUP1 ISZERO PUSH2 0x1C0 JUMPI PUSH1 0x20 MUL DUP3 ADD SWAP2 SWAP1 PUSH0 MSTORE PUSH1 0x20 PUSH0 KECCAK256 SWAP1 JUMPDEST DUP2 SLOAD DUP2 MSTORE PUSH1 0x20 ADD SWAP1 PUSH1 0x1 ADD SWAP1 DUP1 DUP4 GT PUSH2 0x1AC JUMPI JUMPDEST POP POP POP POP POP SWAP1 POP PUSH0 DUP2 MLOAD GT ISZERO PUSH2 0x1F3 JUMPI PUSH2 0x3E7 DUP2 PUSH0 DUP2 MLOAD DUP2 LT PUSH2 0x1E6 JUMPI PUSH2 0x1E5 PUSH2 0x494 JUMP JUMPDEST JUMPDEST PUSH1 0x20 MUL PUSH1 0x20 ADD ADD DUP2 DUP2 MSTORE POP POP JUMPDEST DUP1 SWAP2 POP POP SWAP1 JUMP JUMPDEST PUSH1 0x60 PUSH1 0x64 PUSH0 DUP1 SLOAD SWAP1 POP GT ISZERO PUSH2 0x244 JUMPI PUSH1 0x40 MLOAD PUSH32 0x8C379A000000000000000000000000000000000000000000000000000000000 DUP2 MSTORE PUSH1 0x4 ADD PUSH2 0x23B SWAP1 PUSH2 0x476 JUMP JUMPDEST PUSH1 0x40 MLOAD DUP1 SWAP2 SUB SWAP1 REVERT JUMPDEST PUSH0 PUSH0 DUP1 SLOAD DUP1 PUSH1 0x20 MUL PUSH1 0x20 ADD PUSH1 0x40 MLOAD SWAP1 DUP2 ADD PUSH1 0x40 MSTORE DUP1 SWAP3 SWAP2 SWAP1 DUP2 DUP2 MSTORE PUSH1 0x20 ADD DUP3 DUP1 SLOAD DUP1 ISZERO PUSH2 0x28E JUMPI PUSH1 0x20 MUL DUP3 ADD SWAP2 SWAP1 PUSH0 MSTORE PUSH1 0x20 PUSH0 KECCAK256 SWAP1 JUMPDEST DUP2 SLOAD DUP2 MSTORE PUSH1 0x20 ADD SWAP1 PUSH1 0x1 ADD SWAP1 DUP1 DUP4 GT PUSH2 0x27A JUMPI JUMPDEST POP POP POP POP POP SWAP1 POP DUP1 SWAP2 POP POP SWAP1 JUMP JUMPDEST PUSH0 DUP2 DUP2 SLOAD DUP2 LT PUSH2 0x2AA JUMPI PUSH0 DUP1 REVERT JUMPDEST SWAP1 PUSH0 MSTORE PUSH1 0x20 PUSH0 KECCAK256 ADD PUSH0 SWAP2 POP SWAP1 POP SLOAD DUP2 JUMP JUMPDEST PUSH0 DUP2 SWAP1 POP SWAP2 SWAP1 POP JUMP JUMPDEST PUSH2 0x2CD DUP2 PUSH2 0x2BB JUMP JUMPDEST DUP3 MSTORE POP POP JUMP JUMPDEST PUSH0 PUSH1 0x20 DUP3 ADD SWAP1 POP PUSH2 0x2E6 PUSH0 DUP4 ADD DUP5 PUSH2 0x2C4 JUMP JUMPDEST SWAP3 SWAP2 POP POP JUMP JUMPDEST PUSH0 PUSH0 REVERT JUMPDEST PUSH2 0x2F9 DUP2 PUSH2 0x2BB JUMP JUMPDEST DUP2 EQ PUSH2 0x303 JUMPI PUSH0 PUSH0 REVERT JUMPDEST POP JUMP JUMPDEST PUSH0 DUP2 CALLDATALOAD SWAP1 POP PUSH2 0x314 DUP2 PUSH2 0x2F0 JUMP JUMPDEST SWAP3 SWAP2 POP POP JUMP JUMPDEST PUSH0 PUSH1 0x20 DUP3 DUP5 SUB SLT ISZERO PUSH2 0x32F JUMPI PUSH2 0x32E PUSH2 0x2EC JUMP JUMPDEST JUMPDEST PUSH0 PUSH2 0x33C DUP5 DUP3 DUP6 ADD PUSH2 0x306 JUMP JUMPDEST SWAP2 POP POP SWAP3 SWAP2 POP POP JUMP JUMPDEST PUSH0 DUP2 MLOAD SWAP1 POP SWAP2 SWAP1 POP JUMP JUMPDEST PUSH0 DUP3 DUP3 MSTORE PUSH1 0x20 DUP3 ADD SWAP1 POP SWAP3 SWAP2 POP POP JUMP JUMPDEST PUSH0 DUP2 SWAP1 POP PUSH1 0x20 DUP3 ADD SWAP1 POP SWAP2 SWAP1 POP JUMP JUMPDEST PUSH2 0x377 DUP2 PUSH2 0x2BB JUMP JUMPDEST DUP3 MSTORE POP POP JUMP JUMPDEST PUSH0 PUSH2 0x388 DUP4 DUP4 PUSH2 0x36E JUMP JUMPDEST PUSH1 0x20 DUP4 ADD SWAP1 POP SWAP3 SWAP2 POP POP JUMP JUMPDEST PUSH0 PUSH1 0x20 DUP3 ADD SWAP1 POP SWAP2 SWAP1 POP JUMP JUMPDEST PUSH0 PUSH2 0x3AA DUP3 PUSH2 0x345 JUMP JUMPDEST PUSH2 0x3B4 DUP2 DUP6 PUSH2 0x34F JUMP JUMPDEST SWAP4 POP PUSH2 0x3BF DUP4 PUSH2 0x35F JUMP JUMPDEST DUP1 PUSH0 JUMPDEST DUP4 DUP2 LT ISZERO PUSH2 0x3EF JUMPI DUP2 MLOAD PUSH2 0x3D6 DUP9 DUP3 PUSH2 0x37D JUMP JUMPDEST SWAP8 POP PUSH2 0x3E1 DUP4 PUSH2 0x394 JUMP JUMPDEST SWAP3 POP POP PUSH1 0x1 DUP2 ADD SWAP1 POP PUSH2 0x3C2 JUMP JUMPDEST POP DUP6 SWAP4 POP POP POP POP SWAP3 SWAP2 POP POP JUMP JUMPDEST PUSH0 PUSH1 0x20 DUP3 ADD SWAP1 POP DUP2 DUP2 SUB PUSH0 DUP4 ADD MSTORE PUSH2 0x414 DUP2 DUP5 PUSH2 0x3A0 JUMP JUMPDEST SWAP1 POP SWAP3 SWAP2 POP POP JUMP JUMPDEST PUSH0 DUP3 DUP3 MSTORE PUSH1 0x20 DUP3 ADD SWAP1 POP SWAP3 SWAP2 POP POP JUMP JUMPDEST PUSH32 0x417272617920746F6F206C6172676520746F20636F7079000000000000000000 PUSH0 DUP3 ADD MSTORE POP JUMP JUMPDEST PUSH0 PUSH2 0x460 PUSH1 0x17 DUP4 PUSH2 0x41C JUMP JUMPDEST SWAP2 POP PUSH2 0x46B DUP3 PUSH2 0x42C JUMP JUMPDEST PUSH1 0x20 DUP3 ADD SWAP1 POP SWAP2 SWAP1 POP JUMP JUMPDEST PUSH0 PUSH1 0x20 DUP3 ADD SWAP1 POP DUP2 DUP2 SUB PUSH0 DUP4 ADD MSTORE PUSH2 0x48D DUP2 PUSH2 0x454 JUMP JUMPDEST SWAP1 POP SWAP2 SWAP1 POP JUMP JUMPDEST PUSH32 0x4E487B7100000000000000000000000000000000000000000000000000000000 PUSH0 MSTORE PUSH1 0x32 PUSH1 0x4 MSTORE PUSH1 0x24 PUSH0 REVERT INVALID LOG2 PUSH5 0x6970667358 0x22 SLT KECCAK256 SWAP8 0x22 LOG3 REVERT CALLDATASIZE 0x25 0xD9 SWAP4 SLOAD 0xB5 SWAP7 0x4D COINBASE SWAP13 JUMPDEST DUP14 0xE2 ADDMOD 0xC2 PUSH19 0x57419C7D174DC3FE799F1C1664736F6C634300 ADDMOD 0x22 STOP CALLER "
		},
		"gasEstimates": {
			"creation": {
				"codeDepositCost": "254200",
				"executionCost": "292",
				"totalCost": "254492"
			},
			"external": {
				"MAX_ARRAY_LENGTH()": "303",
				"addValue(uint256)": "46820",
				"copyArrayToMemory()": "infinite",
				"modifyMemoryCopy()": "infinite",
				"numbers(uint256)": "infinite"
			}
		},
		"methodIdentifiers": {
			"MAX_ARRAY_LENGTH()": "3156a9da",
			"addValue(uint256)": "5b9af12b",
			"copyArrayToMemory()": "9fcc433f",
			"modifyMemoryCopy()": "9ca0382f",
			"numbers(uint256)": "d39fa233"
		}
	},
	"abi": [
		{
			"inputs": [],
			"name": "MAX_ARRAY_LENGTH",
			"outputs": [
				{
					"internalType": "uint256",
					"name": "",
					"type": "uint256"
				}
			],
			"stateMutability": "view",
			"type": "function"
		},
		{
			"inputs": [
				{
					"internalType": "uint256",
					"name": "_value",
					"type": "uint256"
				}
			],
			"name": "addValue",
			"outputs": [],
			"stateMutability": "nonpayable",
			"type": "function"
		},
		{
			"inputs": [],
			"name": "copyArrayToMemory",
			"outputs": [
				{
					"internalType": "uint256[]",
					"name": "",
					"type": "uint256[]"
				}
			],
			"stateMutability": "view",
			"type": "function"
		},
		{
			"inputs": [],
			"name": "modifyMemoryCopy",
			"outputs": [
				{
					"internalType": "uint256[]",
					"name": "",
					"type": "uint256[]"
				}
			],
			"stateMutability": "view",
			"type": "function"
		},
		{
			"inputs": [
				{
					"internalType": "uint256",
					"name": "",
					"type": "uint256"
				}
			],
			"name": "numbers",
			"outputs": [
				{
					"internalType": "uint256",
					"name": "",
					"type": "uint256"
				}
			],
			"stateMutability": "view",
			"type": "function"
		}
	]
}