{
	"data": {
		"bytecode": {
			"linkReferences": {},
			"object": "6080604052348015600e575f5ffd5b506103c18061001c5f395ff3fe608060405234801561000f575f5ffd5b506004361061004a575f3560e01c80635b9af12b1461004e5780639ca0382f1461006a5780639fcc433f14610088578063d39fa233146100a6575b5f5ffd5b61006860048036038101906100639190610234565b6100d6565b005b6100726100fe565b60405161007f9190610316565b60405180910390f35b610090610184565b60405161009d9190610316565b60405180910390f35b6100c060048036038101906100bb9190610234565b6101de565b6040516100cd9190610345565b60405180910390f35b5f81908060018154018082558091505060019003905f5260205f20015f909190919091505550565b60605f5f80548060200260200160405190810160405280929190818152602001828054801561014a57602002820191905f5260205f20905b815481526020019060010190808311610136575b505050505090505f8151111561017d576103e7815f815181106101705761016f61035e565b5b6020026020010181815250505b8091505090565b60605f5f8054806020026020016040519081016040528092919081815260200182805480156101d057602002820191905f5260205f20905b8154815260200190600101908083116101bc575b505050505090508091505090565b5f81815481106101ec575f80fd5b905f5260205f20015f915090505481565b5f5ffd5b5f819050919050565b61021381610201565b811461021d575f5ffd5b50565b5f8135905061022e8161020a565b92915050565b5f60208284031215610249576102486101fd565b5b5f61025684828501610220565b91505092915050565b5f81519050919050565b5f82825260208201905092915050565b5f819050602082019050919050565b61029181610201565b82525050565b5f6102a28383610288565b60208301905092915050565b5f602082019050919050565b5f6102c48261025f565b6102ce8185610269565b93506102d983610279565b805f5b838110156103095781516102f08882610297565b97506102fb836102ae565b9250506001810190506102dc565b5085935050505092915050565b5f6020820190508181035f83015261032e81846102ba565b905092915050565b61033f81610201565b82525050565b5f6020820190506103585f830184610336565b92915050565b7f4e487b71000000000000000000000000000000000000000000000000000000005f52603260045260245ffdfea2646970667358221220cf219dc6d66709cbe57b99212f2202b5d0a7c9b2b43e1a9c9ced2fd4040a8f2464736f6c63430008220033",
			"opcodes": "PUSH1 0x80 PUSH1 0x40 MSTORE CALLVALUE DUP1 ISZERO PUSH1 0xE JUMPI PUSH0 PUSH0 REVERT JUMPDEST POP PUSH2 0x3C1 DUP1 PUSH2 0x1C PUSH0 CODECOPY PUSH0 RETURN INVALID PUSH1 0x80 PUSH1 0x40 MSTORE CALLVALUE DUP1 ISZERO PUSH2 0xF JUMPI PUSH0 PUSH0 REVERT JUMPDEST POP PUSH1 0x4 CALLDATASIZE LT PUSH2 0x4A JUMPI PUSH0 CALLDATALOAD PUSH1 0xE0 SHR DUP1 PUSH4 0x5B9AF12B EQ PUSH2 0x4E JUMPI DUP1 PUSH4 0x9CA0382F EQ PUSH2 0x6A JUMPI DUP1 PUSH4 0x9FCC433F EQ PUSH2 0x88 JUMPI DUP1 PUSH4 0xD39FA233 EQ PUSH2 0xA6 JUMPI JUMPDEST PUSH0 PUSH0 REVERT JUMPDEST PUSH2 0x68 PUSH1 0x4 DUP1 CALLDATASIZE SUB DUP2 ADD SWAP1 PUSH2 0x63 SWAP2 SWAP1 PUSH2 0x234 JUMP JUMPDEST PUSH2 0xD6 JUMP JUMPDEST STOP JUMPDEST PUSH2 0x72 PUSH2 0xFE JUMP JUMPDEST PUSH1 0x40 MLOAD PUSH2 0x7F SWAP2 SWAP1 PUSH2 0x316 JUMP JUMPDEST PUSH1 0x40 MLOAD DUP1 SWAP2 SUB SWAP1 RETURN JUMPDEST PUSH2 0x90 PUSH2 0x184 JUMP JUMPDEST PUSH1 0x40 MLOAD PUSH2 0x9D SWAP2 SWAP1 PUSH2 0x316 JUMP JUMPDEST PUSH1 0x40 MLOAD DUP1 SWAP2 SUB SWAP1 RETURN JUMPDEST PUSH2 0xC0 PUSH1 0x4 DUP1 CALLDATASIZE SUB DUP2 ADD SWAP1 PUSH2 0xBB SWAP2 SWAP1 PUSH2 0x234 JUMP JUMPDEST PUSH2 0x1DE JUMP JUMPDEST PUSH1 0x40 MLOAD PUSH2 0xCD SWAP2 SWAP1 PUSH2 0x345 JUMP JUMPDEST PUSH1 0x40 MLOAD DUP1 SWAP2 SUB SWAP1 RETURN JUMPDEST PUSH0 DUP2 SWAP1 DUP1 PUSH1 0x1 DUP2 SLOAD ADD DUP1 DUP3 SSTORE DUP1 SWAP2 POP POP PUSH1 0x1 SWAP1 SUB SWAP1 PUSH0 MSTORE PUSH1 0x20 PUSH0 KECCAK256 ADD PUSH0 SWAP1 SWAP2 SWAP1 SWAP2 SWAP1 SWAP2 POP SSTORE POP JUMP JUMPDEST PUSH1 0x60 PUSH0 PUSH0 DUP1 SLOAD DUP1 PUSH1 0x20 MUL PUSH1 0x20 ADD PUSH1 0x40 MLOAD SWAP1 DUP2 ADD PUSH1 0x40 MSTORE DUP1 SWAP3 SWAP2 SWAP1 DUP2 DUP2 MSTORE PUSH1 0x20 ADD DUP3 DUP1 SLOAD DUP1 ISZERO PUSH2 0x14A JUMPI PUSH1 0x20 MUL DUP3 ADD SWAP2 SWAP1 PUSH0 MSTORE PUSH1 0x20 PUSH0 KECCAK256 SWAP1 JUMPDEST DUP2 SLOAD DUP2 MSTORE PUSH1 0x20 ADD SWAP1 PUSH1 0x1 ADD SWAP1 DUP1 DUP4 GT PUSH2 0x136 JUMPI JUMPDEST POP POP POP POP POP SWAP1 POP PUSH0 DUP2 MLOAD GT ISZERO PUSH2 0x17D JUMPI PUSH2 0x3E7 DUP2 PUSH0 DUP2 MLOAD DUP2 LT PUSH2 0x170 JUMPI PUSH2 0x16F PUSH2 0x35E JUMP JUMPDEST JUMPDEST PUSH1 0x20 MUL PUSH1 0x20 ADD ADD DUP2 DUP2 MSTORE POP POP JUMPDEST DUP1 SWAP2 POP POP SWAP1 JUMP JUMPDEST PUSH1 0x60 PUSH0 PUSH0 DUP1 SLOAD DUP1 PUSH1 0x20 MUL PUSH1 0x20 ADD PUSH1 0x40 MLOAD SWAP1 DUP2 ADD PUSH1 0x40 MSTORE DUP1 SWAP3 SWAP2 SWAP1 DUP2 DUP2 MSTORE PUSH1 0x20 ADD DUP3 DUP1 SLOAD DUP1 ISZERO PUSH2 0x1D0 JUMPI PUSH1 0x20 MUL DUP3 ADD SWAP2 SWAP1 PUSH0 MSTORE PUSH1 0x20 PUSH0 KECCAK256 SWAP1 JUMPDEST DUP2 SLOAD DUP2 MSTORE PUSH1 0x20 ADD SWAP1 PUSH1 0x1 ADD SWAP1 DUP1 DUP4 GT PUSH2 0x1BC JUMPI JUMPDEST POP POP POP POP POP SWAP1 POP DUP1 SWAP2 POP POP SWAP1 JUMP JUMPDEST PUSH0 DUP2 DUP2 SLOAD DUP2 LT PUSH2 0x1EC JUMPI PUSH0 DUP1 REVERT JUMPDEST SWAP1 PUSH0 MSTORE PUSH1 0x20 PUSH0 KECCAK256 ADD PUSH0 SWAP2 POP SWAP1 POP SLOAD DUP2 JUMP JUMPDEST PUSH0 PUSH0 REVERT JUMPDEST PUSH0 DUP2 SWAP1 POP SWAP2 SWAP1 POP JUMP JUMPDEST PUSH2 0x213 DUP2 PUSH2 0x201 JUMP JUMPDEST DUP2 EQ PUSH2 0x21D JUMPI PUSH0 PUSH0 REVERT JUMPDEST POP JUMP JUMPDEST PUSH0 DUP2 CALLDATALOAD SWAP1 POP PUSH2 0x22E DUP2 PUSH2 0x20A JUMP JUMPDEST SWAP3 SWAP2 POP POP JUMP JUMPDEST PUSH0 PUSH1 0x20 DUP3 DUP5 SUB SLT ISZERO PUSH2 0x249 JUMPI PUSH2 0x248 PUSH2 0x1FD JUMP JUMPDEST JUMPDEST PUSH0 PUSH2 0x256 DUP5 DUP3 DUP6 ADD PUSH2 0x220 JUMP JUMPDEST SWAP2 POP POP SWAP3 SWAP2 POP POP JUMP JUMPDEST PUSH0 DUP2 MLOAD SWAP1 POP SWAP2 SWAP1 POP JUMP JUMPDEST PUSH0 DUP3 DUP3 MSTORE PUSH1 0x20 DUP3 ADD SWAP1 POP SWAP3 SWAP2 POP POP JUMP JUMPDEST PUSH0 DUP2 SWAP1 POP PUSH1 0x20 DUP3 ADD SWAP1 POP SWAP2 SWAP1 POP JUMP JUMPDEST PUSH2 0x291 DUP2 PUSH2 0x201 JUMP JUMPDEST DUP3 MSTORE POP POP JUMP JUMPDEST PUSH0 PUSH2 0x2A2 DUP4 DUP4 PUSH2 0x288 JUMP JUMPDEST PUSH1 0x20 DUP4 ADD SWAP1 POP SWAP3 SWAP2 POP POP JUMP JUMPDEST PUSH0 PUSH1 0x20 DUP3 ADD SWAP1 POP SWAP2 SWAP1 POP JUMP JUMPDEST PUSH0 PUSH2 0x2C4 DUP3 PUSH2 0x25F JUMP JUMPDEST PUSH2 0x2CE DUP2 DUP6 PUSH2 0x269 JUMP JUMPDEST SWAP4 POP PUSH2 0x2D9 DUP4 PUSH2 0x279 JUMP JUMPDEST DUP1 PUSH0 JUMPDEST DUP4 DUP2 LT ISZERO PUSH2 0x309 JUMPI DUP2 MLOAD PUSH2 0x2F0 DUP9 DUP3 PUSH2 0x297 JUMP JUMPDEST SWAP8 POP PUSH2 0x2FB DUP4 PUSH2 0x2AE JUMP JUMPDEST SWAP3 POP POP PUSH1 0x1 DUP2 ADD SWAP1 POP PUSH2 0x2DC JUMP JUMPDEST POP DUP6 SWAP4 POP POP POP POP SWAP3 SWAP2 POP POP JUMP JUMPDEST PUSH0 PUSH1 0x20 DUP3 ADD SWAP1 POP DUP2 DUP2 SUB PUSH0 DUP4 ADD MSTORE PUSH2 0x32E DUP2 DUP5 PUSH2 0x2BA JUMP JUMPDEST SWAP1 POP SWAP3 SWAP2 POP POP JUMP JUMPDEST PUSH2 0x33F DUP2 PUSH2 0x201 JUMP JUMPDEST DUP3 MSTORE POP POP JUMP JUMPDEST PUSH0 PUSH1 0x20 DUP3 ADD SWAP1 POP PUSH2 0x358 PUSH0 DUP4 ADD DUP5 PUSH2 0x336 JUMP JUMPDEST SWAP3 SWAP2 POP POP JUMP JUMPDEST PUSH32 0x4E487B7100000000000000000000000000000000000000000000000000000000 PUSH0 MSTORE PUSH1 0x32 PUSH1 0x4 MSTORE PUSH1 0x24 PUSH0 REVERT INVALID LOG2 PUSH5 0x6970667358 0x22 SLT KECCAK256 0xCF 0x21 SWAP14 0xC6 0xD6 PUSH8 0x9CBE57B99212F22 MUL 0xB5 0xD0 0xA7 0xC9 0xB2 0xB4 RETURNDATACOPY BYTE SWAP13 SWAP13 0xED 0x2F 0xD4 DIV EXP DUP16 0x24 PUSH5 0x736F6C6343 STOP ADDMOD 0x22 STOP CALLER "
		},
		"gasEstimates": {
			"creation": {
				"codeDepositCost": "192200",
				"executionCost": "236",
				"totalCost": "192436"
			},
			"external": {
				"addValue(uint256)": "46798",
				"copyArrayToMemory()": "infinite",
				"modifyMemoryCopy()": "infinite",
				"numbers(uint256)": "infinite"
			}
		},
		"methodIdentifiers": {
			"addValue(uint256)": "5b9af12b",
			"copyArrayToMemory()": "9fcc433f",
			"modifyMemoryCopy()": "9ca0382f",
			"numbers(uint256)": "d39fa233"
		}
	},
	"abi": [
		{
			"inputs": [
				{
					"internalType": "uint256",
					"name": "_value",
					"type": "uint256"
				}
			],
			"name": "addValue",
			"outputs": [],
			"stateMutability": "nonpayable",
			"type": "function"
		},
		{
			"inputs": [],
			"name": "copyArrayToMemory",
			"outputs": [
				{
					"internalType": "uint256[]",
					"name": "",
					"type": "uint256[]"
				}
			],
			"stateMutability": "view",
			"type": "function"
		},
		{
			"inputs": [],
			"name": "modifyMemoryCopy",
			"outputs": [
				{
					"internalType": "uint256[]",
					"name": "",
					"type": "uint256[]"
				}
			],
			"stateMutability": "view",
			"type": "function"
		},
		{
			"inputs": [
				{
					"internalType": "uint256",
					"name": "",
					"type": "uint256"
				}
			],
			"name": "numbers",
			"outputs": [
				{
					"internalType": "uint256",
					"name": "",
					"type": "uint256"
				}
			],
			"stateMutability": "view",
			"type": "function"
		}
	]
}