{
	"data": {
		"bytecode": {
			"linkReferences": {},
			"object": "6080604052348015600e575f5ffd5b506104db8061001c5f395ff3fe608060405234801561000f575f5ffd5b5060043610610086575f3560e01c806361bc221a1161005957806361bc221a146100fe578063950bff9f1461011c578063a7a38f0b1461013a578063d826f88f1461016a57610086565b80632326305f1461008a5780633af3f24f146100a65780634574b3e4146100c45780635478f468146100e0575b5f5ffd5b6100a4600480360381019061009f9190610366565b610174565b005b6100ae6101df565b6040516100bb91906103a0565b60405180910390f35b6100de60048036038101906100d99190610366565b6101e5565b005b6100e8610250565b6040516100f591906103a0565b60405180910390f35b61010661025c565b60405161011391906103a0565b60405180910390f35b610124610261565b60405161013191906103a0565b60405180910390f35b610154600480360381019061014f9190610366565b610266565b60405161016191906103a0565b60405180910390f35b610172610286565b005b60648111156101b8576040517f08c379a00000000000000000000000000000000000000000000000000000000081526004016101af90610413565b60405180910390fd5b5f5f90505b818110156101db576101ce816102a2565b80806001019150506101bd565b5050565b60015481565b6064811115610229576040517f08c379a000000000000000000000000000000000000000000000000000000000815260040161022090610413565b60405180910390fd5b5f5f90505b8181101561024c5761023f816102a2565b808060010191505061022e565b5050565b5f600280549050905090565b5f5481565b606481565b60028181548110610275575f80fd5b905f5260205f20015f915090505481565b5f5f819055505f60018190555060025f6102a091906102f8565b565b5f5f8154809291906102b39061045e565b919050555060015f8154809291906102ca9061045e565b9190505550600281908060018154018082558091505060019003905f5260205f20015f909190919091505550565b5080545f8255905f5260205f20906103109190610312565b565b5f5b8082111561032a578281015f9055600101610314565b505050565b5f5ffd5b5f819050919050565b61034581610333565b811461034f575f5ffd5b50565b5f813590506103608161033c565b92915050565b5f6020828403121561037b5761037a61032f565b5b5f61038884828501610352565b91505092915050565b61039a81610333565b82525050565b5f6020820190506103b35f830184610391565b92915050565b5f82825260208201905092915050565b7f426174636820746f6f206c6172676500000000000000000000000000000000005f82015250565b5f6103fd600f836103b9565b9150610408826103c9565b602082019050919050565b5f6020820190508181035f83015261042a816103f1565b9050919050565b7f4e487b71000000000000000000000000000000000000000000000000000000005f52601160045260245ffd5b5f61046882610333565b91507fffffffffffffffffffffffffffffffffffffffffffffffffffffffffffffffff820361049a57610499610431565b5b60018201905091905056fea2646970667358221220df2348574423b519040a7e130c770b3711ad363d5450abeaafcd9d105d36e08964736f6c63430008220033",
			"opcodes": "PUSH1 0x80 PUSH1 0x40 MSTORE CALLVALUE DUP1 ISZERO PUSH1 0xE JUMPI PUSH0 PUSH0 REVERT JUMPDEST POP PUSH2 0x4DB DUP1 PUSH2 0x1C PUSH0 CODECOPY PUSH0 RETURN INVALID PUSH1 0x80 PUSH1 0x40 MSTORE CALLVALUE DUP1 ISZERO PUSH2 0xF JUMPI PUSH0 PUSH0 REVERT JUMPDEST POP PUSH1 0x4 CALLDATASIZE LT PUSH2 0x86 JUMPI PUSH0 CALLDATALOAD PUSH1 0xE0 SHR DUP1 PUSH4 0x61BC221A GT PUSH2 0x59 JUMPI DUP1 PUSH4 0x61BC221A EQ PUSH2 0xFE JUMPI DUP1 PUSH4 0x950BFF9F EQ PUSH2 0x11C JUMPI DUP1 PUSH4 0xA7A38F0B EQ PUSH2 0x13A JUMPI DUP1 PUSH4 0xD826F88F EQ PUSH2 0x16A JUMPI PUSH2 0x86 JUMP JUMPDEST DUP1 PUSH4 0x2326305F EQ PUSH2 0x8A JUMPI DUP1 PUSH4 0x3AF3F24F EQ PUSH2 0xA6 JUMPI DUP1 PUSH4 0x4574B3E4 EQ PUSH2 0xC4 JUMPI DUP1 PUSH4 0x5478F468 EQ PUSH2 0xE0 JUMPI JUMPDEST PUSH0 PUSH0 REVERT JUMPDEST PUSH2 0xA4 PUSH1 0x4 DUP1 CALLDATASIZE SUB DUP2 ADD SWAP1 PUSH2 0x9F SWAP2 SWAP1 PUSH2 0x366 JUMP JUMPDEST PUSH2 0x174 JUMP JUMPDEST STOP JUMPDEST PUSH2 0xAE PUSH2 0x1DF JUMP JUMPDEST PUSH1 0x40 MLOAD PUSH2 0xBB SWAP2 SWAP1 PUSH2 0x3A0 JUMP JUMPDEST PUSH1 0x40 MLOAD DUP1 SWAP2 SUB SWAP1 RETURN JUMPDEST PUSH2 0xDE PUSH1 0x4 DUP1 CALLDATASIZE SUB DUP2 ADD SWAP1 PUSH2 0xD9 SWAP2 SWAP1 PUSH2 0x366 JUMP JUMPDEST PUSH2 0x1E5 JUMP JUMPDEST STOP JUMPDEST PUSH2 0xE8 PUSH2 0x250 JUMP JUMPDEST PUSH1 0x40 MLOAD PUSH2 0xF5 SWAP2 SWAP1 PUSH2 0x3A0 JUMP JUMPDEST PUSH1 0x40 MLOAD DUP1 SWAP2 SUB SWAP1 RETURN JUMPDEST PUSH2 0x106 PUSH2 0x25C JUMP JUMPDEST PUSH1 0x40 MLOAD PUSH2 0x113 SWAP2 SWAP1 PUSH2 0x3A0 JUMP JUMPDEST PUSH1 0x40 MLOAD DUP1 SWAP2 SUB SWAP1 RETURN JUMPDEST PUSH2 0x124 PUSH2 0x261 JUMP JUMPDEST PUSH1 0x40 MLOAD PUSH2 0x131 SWAP2 SWAP1 PUSH2 0x3A0 JUMP JUMPDEST PUSH1 0x40 MLOAD DUP1 SWAP2 SUB SWAP1 RETURN JUMPDEST PUSH2 0x154 PUSH1 0x4 DUP1 CALLDATASIZE SUB DUP2 ADD SWAP1 PUSH2 0x14F SWAP2 SWAP1 PUSH2 0x366 JUMP JUMPDEST PUSH2 0x266 JUMP JUMPDEST PUSH1 0x40 MLOAD PUSH2 0x161 SWAP2 SWAP1 PUSH2 0x3A0 JUMP JUMPDEST PUSH1 0x40 MLOAD DUP1 SWAP2 SUB SWAP1 RETURN JUMPDEST PUSH2 0x172 PUSH2 0x286 JUMP JUMPDEST STOP JUMPDEST PUSH1 0x64 DUP2 GT ISZERO PUSH2 0x1B8 JUMPI PUSH1 0x40 MLOAD PUSH32 0x8C379A000000000000000000000000000000000000000000000000000000000 DUP2 MSTORE PUSH1 0x4 ADD PUSH2 0x1AF SWAP1 PUSH2 0x413 JUMP JUMPDEST PUSH1 0x40 MLOAD DUP1 SWAP2 SUB SWAP1 REVERT JUMPDEST PUSH0 PUSH0 SWAP1 POP JUMPDEST DUP2 DUP2 LT ISZERO PUSH2 0x1DB JUMPI PUSH2 0x1CE DUP2 PUSH2 0x2A2 JUMP JUMPDEST DUP1 DUP1 PUSH1 0x1 ADD SWAP2 POP POP PUSH2 0x1BD JUMP JUMPDEST POP POP JUMP JUMPDEST PUSH1 0x1 SLOAD DUP2 JUMP JUMPDEST PUSH1 0x64 DUP2 GT ISZERO PUSH2 0x229 JUMPI PUSH1 0x40 MLOAD PUSH32 0x8C379A000000000000000000000000000000000000000000000000000000000 DUP2 MSTORE PUSH1 0x4 ADD PUSH2 0x220 SWAP1 PUSH2 0x413 JUMP JUMPDEST PUSH1 0x40 MLOAD DUP1 SWAP2 SUB SWAP1 REVERT JUMPDEST PUSH0 PUSH0 SWAP1 POP JUMPDEST DUP2 DUP2 LT ISZERO PUSH2 0x24C JUMPI PUSH2 0x23F DUP2 PUSH2 0x2A2 JUMP JUMPDEST DUP1 DUP1 PUSH1 0x1 ADD SWAP2 POP POP PUSH2 0x22E JUMP JUMPDEST POP POP JUMP JUMPDEST PUSH0 PUSH1 0x2 DUP1 SLOAD SWAP1 POP SWAP1 POP SWAP1 JUMP JUMPDEST PUSH0 SLOAD DUP2 JUMP JUMPDEST PUSH1 0x64 DUP2 JUMP JUMPDEST PUSH1 0x2 DUP2 DUP2 SLOAD DUP2 LT PUSH2 0x275 JUMPI PUSH0 DUP1 REVERT JUMPDEST SWAP1 PUSH0 MSTORE PUSH1 0x20 PUSH0 KECCAK256 ADD PUSH0 SWAP2 POP SWAP1 POP SLOAD DUP2 JUMP JUMPDEST PUSH0 PUSH0 DUP2 SWAP1 SSTORE POP PUSH0 PUSH1 0x1 DUP2 SWAP1 SSTORE POP PUSH1 0x2 PUSH0 PUSH2 0x2A0 SWAP2 SWAP1 PUSH2 0x2F8 JUMP JUMPDEST JUMP JUMPDEST PUSH0 PUSH0 DUP2 SLOAD DUP1 SWAP3 SWAP2 SWAP1 PUSH2 0x2B3 SWAP1 PUSH2 0x45E JUMP JUMPDEST SWAP2 SWAP1 POP SSTORE POP PUSH1 0x1 PUSH0 DUP2 SLOAD DUP1 SWAP3 SWAP2 SWAP1 PUSH2 0x2CA SWAP1 PUSH2 0x45E JUMP JUMPDEST SWAP2 SWAP1 POP SSTORE POP PUSH1 0x2 DUP2 SWAP1 DUP1 PUSH1 0x1 DUP2 SLOAD ADD DUP1 DUP3 SSTORE DUP1 SWAP2 POP POP PUSH1 0x1 SWAP1 SUB SWAP1 PUSH0 MSTORE PUSH1 0x20 PUSH0 KECCAK256 ADD PUSH0 SWAP1 SWAP2 SWAP1 SWAP2 SWAP1 SWAP2 POP SSTORE POP JUMP JUMPDEST POP DUP1 SLOAD PUSH0 DUP3 SSTORE SWAP1 PUSH0 MSTORE PUSH1 0x20 PUSH0 KECCAK256 SWAP1 PUSH2 0x310 SWAP2 SWAP1 PUSH2 0x312 JUMP JUMPDEST JUMP JUMPDEST PUSH0 JUMPDEST DUP1 DUP3 GT ISZERO PUSH2 0x32A JUMPI DUP3 DUP2 ADD PUSH0 SWAP1 SSTORE PUSH1 0x1 ADD PUSH2 0x314 JUMP JUMPDEST POP POP POP JUMP JUMPDEST PUSH0 PUSH0 REVERT JUMPDEST PUSH0 DUP2 SWAP1 POP SWAP2 SWAP1 POP JUMP JUMPDEST PUSH2 0x345 DUP2 PUSH2 0x333 JUMP JUMPDEST DUP2 EQ PUSH2 0x34F JUMPI PUSH0 PUSH0 REVERT JUMPDEST POP JUMP JUMPDEST PUSH0 DUP2 CALLDATALOAD SWAP1 POP PUSH2 0x360 DUP2 PUSH2 0x33C JUMP JUMPDEST SWAP3 SWAP2 POP POP JUMP JUMPDEST PUSH0 PUSH1 0x20 DUP3 DUP5 SUB SLT ISZERO PUSH2 0x37B JUMPI PUSH2 0x37A PUSH2 0x32F JUMP JUMPDEST JUMPDEST PUSH0 PUSH2 0x388 DUP5 DUP3 DUP6 ADD PUSH2 0x352 JUMP JUMPDEST SWAP2 POP POP SWAP3 SWAP2 POP POP JUMP JUMPDEST PUSH2 0x39A DUP2 PUSH2 0x333 JUMP JUMPDEST DUP3 MSTORE POP POP JUMP JUMPDEST PUSH0 PUSH1 0x20 DUP3 ADD SWAP1 POP PUSH2 0x3B3 PUSH0 DUP4 ADD DUP5 PUSH2 0x391 JUMP JUMPDEST SWAP3 SWAP2 POP POP JUMP JUMPDEST PUSH0 DUP3 DUP3 MSTORE PUSH1 0x20 DUP3 ADD SWAP1 POP SWAP3 SWAP2 POP POP JUMP JUMPDEST PUSH32 0x426174636820746F6F206C617267650000000000000000000000000000000000 PUSH0 DUP3 ADD MSTORE POP JUMP JUMPDEST PUSH0 PUSH2 0x3FD PUSH1 0xF DUP4 PUSH2 0x3B9 JUMP JUMPDEST SWAP2 POP PUSH2 0x408 DUP3 PUSH2 0x3C9 JUMP JUMPDEST PUSH1 0x20 DUP3 ADD SWAP1 POP SWAP2 SWAP1 POP JUMP JUMPDEST PUSH0 PUSH1 0x20 DUP3 ADD SWAP1 POP DUP2 DUP2 SUB PUSH0 DUP4 ADD MSTORE PUSH2 0x42A DUP2 PUSH2 0x3F1 JUMP JUMPDEST SWAP1 POP SWAP2 SWAP1 POP JUMP JUMPDEST PUSH32 0x4E487B7100000000000000000000000000000000000000000000000000000000 PUSH0 MSTORE PUSH1 0x11 PUSH1 0x4 MSTORE PUSH1 0x24 PUSH0 REVERT JUMPDEST PUSH0 PUSH2 0x468 DUP3 PUSH2 0x333 JUMP JUMPDEST SWAP2 POP PUSH32 0xFFFFFFFFFFFFFFFFFFFFFFFFFFFFFFFFFFFFFFFFFFFFFFFFFFFFFFFFFFFFFFFF DUP3 SUB PUSH2 0x49A JUMPI PUSH2 0x499 PUSH2 0x431 JUMP JUMPDEST JUMPDEST PUSH1 0x1 DUP3 ADD SWAP1 POP SWAP2 SWAP1 POP JUMP INVALID LOG2 PUSH5 0x6970667358 0x22 SLT KECCAK256 0xDF 0x23 BASEFEE JUMPI PREVRANDAO 0x23 0xB5 NOT DIV EXP PUSH31 0x130C770B3711AD363D5450ABEAAFCD9D105D36E08964736F6C634300082200 CALLER "
		},
		"gasEstimates": {
			"creation": {
				"codeDepositCost": "248600",
				"executionCost": "285",
				"totalCost": "248885"
			},
			"external": {
				"MAX_BATCH()": "347",
				"counter()": "2424",
				"getHistoryLength()": "2507",
				"history(uint256)": "infinite",
				"optimizedStress(uint256)": "infinite",
				"reset()": "infinite",
				"stressTest(uint256)": "infinite",
				"totalCalls()": "2448"
			},
			"internal": {
				"singleCall(uint256)": "infinite"
			}
		},
		"methodIdentifiers": {
			"MAX_BATCH()": "950bff9f",
			"counter()": "61bc221a",
			"getHistoryLength()": "5478f468",
			"history(uint256)": "a7a38f0b",
			"optimizedStress(uint256)": "4574b3e4",
			"reset()": "d826f88f",
			"stressTest(uint256)": "2326305f",
			"totalCalls()": "3af3f24f"
		}
	},
	"abi": [
		{
			"inputs": [],
			"name": "MAX_BATCH",
			"outputs": [
				{
					"internalType": "uint256",
					"name": "",
					"type": "uint256"
				}
			],
			"stateMutability": "view",
			"type": "function"
		},
		{
			"inputs": [],
			"name": "counter",
			"outputs": [
				{
					"internalType": "uint256",
					"name": "",
					"type": "uint256"
				}
			],
			"stateMutability": "view",
			"type": "function"
		},
		{
			"inputs": [],
			"name": "getHistoryLength",
			"outputs": [
				{
					"internalType": "uint256",
					"name": "",
					"type": "uint256"
				}
			],
			"stateMutability": "view",
			"type": "function"
		},
		{
			"inputs": [
				{
					"internalType": "uint256",
					"name": "",
					"type": "uint256"
				}
			],
			"name": "history",
			"outputs": [
				{
					"internalType": "uint256",
					"name": "",
					"type": "uint256"
				}
			],
			"stateMutability": "view",
			"type": "function"
		},
		{
			"inputs": [
				{
					"internalType": "uint256",
					"name": "times",
					"type": "uint256"
				}
			],
			"name": "optimizedStress",
			"outputs": [],
			"stateMutability": "nonpayable",
			"type": "function"
		},
		{
			"inputs": [],
			"name": "reset",
			"outputs": [],
			"stateMutability": "nonpayable",
			"type": "function"
		},
		{
			"inputs": [
				{
					"internalType": "uint256",
					"name": "times",
					"type": "uint256"
				}
			],
			"name": "stressTest",
			"outputs": [],
			"stateMutability": "nonpayable",
			"type": "function"
		},
		{
			"inputs": [],
			"name": "totalCalls",
			"outputs": [
				{
					"internalType": "uint256",
					"name": "",
					"type": "uint256"
				}
			],
			"stateMutability": "view",
			"type": "function"
		}
	]
}